0076010300999991959010100004+69700+019017FM-12+001499999V0202301N002619999999N0600001N9-00281+99999099031ADDAY111999GF102991011051012501041001MD1010021+9999MW1011EQDQ01+011301APOSP 
0092010300999991959010103004+69700+019017FM-12+001499999V0202301N00101220001CN0600001N9-00281+99999098991ADDAY101999GF101991999001999999041001MD1710041+9999MW1021EQDQ01+000002SCOTLCQ02+010301APOSP 
0102010300999991959010106004+69700+019017FM-12+001499999V0202301N001019999999N0600001N9-00331+99999098951ADDAY101999GF104991041001999999051001KA1999M-00221KA2999N-00561MD1710041+9999MW1031EQDQ01+010301APOSP 
0076010300999991959010109004+69700+019017FM-12+001499999V0202501N002619999999N0600001N9-00391+99999098961ADDAY111999GF101991011051012501041001MD1310011+9999MW1011EQDQ01+011301APOSP 
0076010300999991959010112004+69700+019017FM-12+001499999V0202301N001019999999N0600001N9-00501+99999098911ADDAY101999GF102991011051012501041001MD1710051+9999MW1031EQDQ01+010301APOSP 
0092010300999991959010115004+69700+019017FM-12+001499999V0202501N00101220001CN0600001N9-00561+99999098911ADDAY101999GF101991999001999999041001MD1410001+9999MW1011EQDQ01+000002SCOTLCQ02+010301APOSP 
0118010300999991959010118004+69700+019017FM-12+001499999V0209991C00001220001CN0600001N9-00611+99999098891ADDAY101999GF101991999001999999041001KA1999M-00331KA2999N-00611MD1510021+9999MW1021EQDQ01+000002SCOTLCQ02+010301APOSP 
0076010300999991959010200004+69700+019017FM-12+001499999V0202501N00101220001CN0600001N9-00561+99999098951ADDAY101999GF100991001001999999001001MD1210031+9999MW1011EQDQ01+010301APOSP 
0092010300999991959010203004+69700+019017FM-12+001499999V0209991C00001220001CN0600001N9-00671+99999099021ADDAY101999GF101991999001999999041001MD1210071+9999MW1031EQDQ01+000002SCOTLCQ02+010301APOSP 
0062010300999991959010204004+69700+019017FM-12+001499999V0202301N00101220001CN0600001N9+99999+99999099051ADDAY101999GF101991999001999999041001MW1021EQDQ01+000002SCOTLC
0062010300999991959010205004+69700+019017FM-12+001499999V0202301N00101220001CN0600001N9+99999+99999099081ADDAY101999GF101991999001999999041001MW1021EQDQ01+000002SCOTLC
0102010300999991959010206004+69700+019017FM-12+001499999V0202501N001019999999N0600001N9-00611+99999099101ADDAY101999GF103991011051012501041001KA1999M-00501KA2999N-00721MD1210081+9999MW1031EQDQ01+010301APOSP 
0043010300999991959010207004+69700+019017FM-12+001499999V0202501N001019999999N0600001N9+99999+99999099131ADDAY111999GF107991041051012501041999MW1031
0043010300999991959010208004+69700+019017FM-12+001499999V0202501N00101012301CN0600001N9+99999+99999099171ADDAY121999GF107991051051012501041999MW1031
0076010300999991959010209004+69700+019017FM-12+001499999V0209991C00001012301CN0600001N9-00331+99999099181ADDAY121999GF107991061051012501041999MD1210081+9999MW1031EQDQ01+010301APOSP 
0043010300999991959010210004+69700+019017FM-12+001499999V0209991C00001012301CN0600001N9+99999+99999099221ADDAY121999GF107991061051012501041001MW1021
0043010300999991959010211004+69700+019017FM-12+001499999V0202001N00101012301CN0600001N9+99999+99999099241ADDAY121999GF107991071051012501001001MW1021
0076010300999991959010212004+69700+019017FM-12+001499999V0209991C00001012301CN0400001N9-00281+99999099261ADDAY121999GF107991071051012501001001MD1210081+9999MW1151EQDQ01+010301APOSP 
0043010300999991959010213004+69700+019017FM-12+001499999V0209991C00001012301CN0400001N9+99999+99999099311ADDAY121999GF107991071051012501001001MW1151
0043010300999991959010214004+69700+019017FM-12+001499999V0209991C00001007801CN0400001N9+99999+99999099361ADDAY121999GF107991071081008001001001MW1151
0076010300999991959010215004+69700+019017FM-12+001499999V0209991C00001012301CN0500001N9-00281+99999099371ADDAY121999GF107991071051012501001001MD1210111+9999MW1021EQDQ01+010301APOSP 
0043010300999991959010216004+69700+019017FM-12+001499999V0209991C00001012301CN0500001N9+99999+99999099391ADDAY121999GF107991071051012501001001MW1021
0043010300999991959010217004+69700+019017FM-12+001499999V0209991C00001012301CN0500001N9+99999+99999099411ADDAY121999GF107991071051012501001001MW1021
0102010300999991959010218004+69700+019017FM-12+001499999V0209991C00001012301CN0500001N9-00221+99999099431ADDAY121999GF107991061051012501041001KA1999M-00171KA2999N-00611MD1210061+9999MW1011EQDQ01+010301APOSP 
0092010300999991959010300004+69700+019017FM-12+001499999V0209991C00001220001CN0600001N9-00331+99999099721ADDAY111999GF101991999001999999041001MD1210161+9999MW1011EQDQ01+000002SCOTLCQ02+010301APOSP 
0092010300999991959010303004+69700+019017FM-12+001499999V0209991C00001220001CN0600001N9-00441+99999099801ADDAY101999GF101991999001999999041001MD1210081+9999MW1021EQDQ01+000002SCOTLCQ02+010301APOSP 
0062010300999991959010304004+69700+019017FM-12+001499999V0209991C00001220001CN0600001N9+99999+99999099811ADDAY101999GF101991999001999999041001MW1021EQDQ01+000002SCOTLC
0062010300999991959010305004+69700+019017FM-12+001499999V0209991C00001220001CN0600001N9+99999+99999099821ADDAY101999GF101991999001999999041001MW1021EQDQ01+000002SCOTLC
0102010300999991959010306004+69700+019017FM-12+001499999V0209991C00001220001CN0600001N9-00441+99999099841ADDAY101999GF100991001001999999001001KA1999M-00171KA2999N-00561MD1210041+9999MW1011EQDQ01+010301APOSP 
0062010300999991959010307004+69700+019017FM-12+001499999V0209991C00001220001CN0600001N9+99999+99999099871ADDAY101999GF101991999001999999041001MW1031EQDQ01+000002SCOTLC
0043010300999991959010308004+69700+019017FM-12+001499999V0209991C00001220001CN0600001N9+99999+99999099911ADDAY101999GF101991001001999999041021MW1021
0076010300999991959010309004+69700+019017FM-12+001499999V0200901N00051220001CN0600001N9-00501+99999099941ADDAY101999GF101991001001999999041011MD1210101+9999MW1021EQDQ01+010301APOSP 
0043010300999991959010310004+69700+019017FM-12+001499999V0202001N00101220001CN0600001N9+99999+99999099951ADDAY101999GF101991001001999999041011MW1021
0043010300999991959010311004+69700+019017FM-12+001499999V0201601N001019999999N0600001N9+99999+99999099921ADDAY101999GF101991011051012501041001MW1021
0092010300999991959010312004+69700+019017FM-12+001499999V0201601N001019999999N0600001N9-00561+99999099941ADDAY101999GF102991011051012501041001MD1410001+9999MW1031EQDQ01+010301APOSP Q02+000012APCTEN
0043010300999991959010313004+69700+019017FM-12+001499999V0202301N001019999999N0600001N9+99999+99999099951ADDAY101999GF102991011051012501041021MW1021
0043010300999991959010314004+69700+019017FM-12+001499999V0202301N001019999999N0600001N9+99999+99999099951ADDAY101999GF101991011051012501041001MW1011
0108010300999991959010315004+69700+019017FM-12+001499999V0209991C000019999999N0600001N9-00501+99999099931ADDAY101999GF101991011051012501041001MD1710011+9999MW1021EQDQ01+010301APOSP Q02+000042APCTENQ03+000012APC3  
0043010300999991959010316004+69700+019017FM-12+001499999V0209991C000019999999N0600001N9+99999+99999099921ADDAY101999GF101991011051012501041001MW1021
0043010300999991959010317004+69700+019017FM-12+001499999V0209991C000019999999N0600001N9+99999+99999099921ADDAY101999GF101991011051012501041001MW1021
0102010300999991959010318004+69700+019017FM-12+001499999V0202901N001019999999N0600001N9-00501+99999099891ADDAY101999GF101991011051012501041001KA1999M-00391KA2999N-00671MD1710041+9999MW1021EQDQ01+010301APOSP 
0076010300999991959010400004+69700+019017FM-12+001499999V0201801N003119999999N0600001N9-00501+99999099801ADDAY101999GF101991011051012501041001MD1710031+9999MW1021EQDQ01+011311APOSP 
0076010300999991959010403004+69700+019017FM-12+001499999V0202501N002619999999N0600001N9-00671+99999099701ADDAY101999GF101991011051012501041001MD1710101+9999MW1021EQDQ01+011301APOSP 
0102010300999991959010406004+69700+019017FM-12+001499999V0209991C000019999999N0600001N9-00671+99999099651ADDAY101999GF101991011051012501041021KA1999M-00441KA2999N-00721MD1710051+9999MW1021EQDQ01+010301APOSP 
0076010300999991959010409004+69700+019017FM-12+001499999V0202501N00261012301CN0600001N9-00561+99999099671ADDAY111999GF107991051051012501041021MD1210021+9999MW1031EQDQ01+011301APOSP 
0076010300999991959010412004+69700+019017FM-12+001499999V0202301N004619999999N0600001N9-00501+99999099711ADDAY111999GF101991011051017501041011MD1210041+9999MW1021EQDQ01+012311APOSP 
0076010300999991959010415004+69700+019017FM-12+001499999V0209991C000019999999N0600001N9-00561+99999099741ADDAY101999GF101991011051017501041011MD1210031+9999MW1021EQDQ01+010301APOSP 
0102010300999991959010418004+69700+019017FM-12+001499999V0202401N001019999999N0600001N9-00501+99999099791ADDAY101999GF102991011051017501041011KA1999M-00441KA2999N-00721MD1210051+9999MW1031EQDQ01+011301APOSP 
0092010300999991959010500004+69700+019017FM-12+001499999V0202501N00101220001CN0600001N9-00441+99999099911ADDAY101999GF101991999001999999041001MD1210091+9999MW1011EQDQ01+000002SCOTLCQ02+016301APOSP 
0076010300999991959010503004+69700+019017FM-12+001499999V0209991C000019999999N0600001N9-00441+99999099961ADDAY101999GF101991011051012501041001MD1210051+9999MW1021EQDQ01+010301APOSP 
0043010300999991959010504004+69700+019017FM-12+001499999V0209991C000019999999N0600001N9+99999+99999099961ADDAY101999GF101991011051012501041001MW1021
0043010300999991959010505004+69700+019017FM-12+001499999V0202501N001019999999N0600001N9+99999+99999099961ADDAY101999GF101991011051012501041001MW1021
0102010300999991959010506004+69700+019017FM-12+001499999V0202701N001519999999N0600001N9-00441+99999099971ADDAY101999GF101991011051012501041001KA1999M-00331KA2999N-00561MD1210011+9999MW1021EQDQ01+010301APOSP 
0043010300999991959010507004+69700+019017FM-12+001499999V0200701N001019999999N0600001N9+99999+99999099971ADDAY101999GF102991011051012501041011MW1031
0043010300999991959010508004+69700+019017FM-12+001499999V0209991C000019999999N0600001N9+99999+99999999999ADDAY101999GF104991011051012501041011MW1031
0076010300999991959010509004+69700+019017FM-12+001499999V0203201N001019999999N0600001N9-00501+99999100031ADDAY111999GF104991011051012501041021MD1210061+9999MW1021EQDQ01+010301APOSP 
0043010300999991959010510004+69700+019017FM-12+001499999V0202701N001019999999N0600001N9+99999+99999100071ADDAY111999GF104991011051012501041021MW1021
0043010300999991959010511004+69700+019017FM-12+001499999V0202501N001019999999N0600001N9+99999+99999100081ADDAY111999GF104991011051012501041021MW1021
0076010300999991959010512004+69700+019017FM-12+001499999V0209991C000019999999N0600001N9-00501+99999100081ADDAY111999GF103991011051012501041021MD1110051+9999MW1011EQDQ01+010301APOSP 
0043010300999991959010513004+69700+019017FM-12+001499999V0202501N001019999999N0600001N9+99999+99999100081ADDAY101999GF102991011051012501041021MW1011
0043010300999991959010514004+69700+019017FM-12+001499999V0209991C000019999999N0600001N9+99999+99999100091ADDAY101999GF102991011051012501041011MW1021
0076010300999991959010515004+69700+019017FM-12+001499999V0202301N001019999999N0600001N9-00561+99999100091ADDAY101999GF102991011051012501041001MD1110011+9999MW1021EQDQ01+010301APOSP 
0043010300999991959010516004+69700+019017FM-12+001499999V0202301N002619999999N0600001N9+99999+99999100071ADDAY101999GF102991011051012501041001MW1021
0043010300999991959010517004+69700+019017FM-12+001499999V0202301N001019999999N0600001N9+99999+99999100041ADDAY101999GF103991021051012501041001MW1031
0102010300999991959010518004+69700+019017FM-12+001499999V0202301N001019999999N0600001N9-00441+99999100031ADDAY111999GF107991021051012501071001KA1999M-00391KA2999N-00611MD1610061+9999MW1031EQDQ01+010301APOSP 
0076010300999991959010600004+69700+019017FM-12+001499999V0200501N009319999999N0600001N9-00061+99999099801ADDAY121999GF105991021001999999041061MD1710131+9999MW1021EQDQ01+012311APOSP 
0076010300999991959010603004+69700+019017FM-12+001499999V0200701N00671004501CN0020001N9-00061+99999099411ADDAY181999GF108991081091004501999999MD1710391+9999MW1851EQDQ01+012311APOSP 
0043010300999991959010604004+69700+019017FM-12+001499999V0200501N01231004501CN0040001N9+99999+99999099221ADDAY181999GF108991081091004501999999MW1851
0043010300999991959010605004+69700+019017FM-12+001499999V0200501N01541007801CN0100001N9+99999+99999099081ADDAY181999GF108991081091008001999999MW1851
0113010300999991959010606004+69700+019017FM-12+001499999V0200501N01541007801CN0100001N9+00111+99999099011ADDAA199000691AY181999GF108991071051008001021999KA1999M+00171KA2999N-00441MD1710401+9999MW1711EQDQ01+013331APOSP 
0043010300999991959010607004+69700+019017FM-12+001499999V0200501N01231007801CN0060001N9+99999+99999098961ADDAY171999GF108991071071008001021999MW1681
0043010300999991959010608004+69700+019017FM-12+001499999V0200501N01541007801CN0080001N9+99999+99999098951ADDAY171999GF108991071071008001021999MW1701
0076010300999991959010609004+69700+019017FM-12+001499999V0200501N01541007801CN0100001N9+00061+99999098931ADDAY171999GF108991071071008001021999MD1710081+9999MW1701EQDQ01+013331APOSP 
0043010300999991959010610004+69700+019017FM-12+001499999V0200201N01541007801CN0150001N9+99999+99999098851ADDAY171999GF108991071071008001021999MW1151
0043010300999991959010611004+69700+019017FM-12+001499999V0200501N01541007801CN0150001N9+99999+99999098831ADDAY121999GF108991081051008001999999MW1151
0076010300999991959010612004+69700+019017FM-12+001499999V0200501N01651007801CN0100001N9+00061+99999098781ADDAY171999GF108991081051008001999999MD1710151+9999MW1151EQDQ01+013331APOSP 
0043010300999991959010613004+69700+019017FM-12+001499999V0200501N01651007801CN0080001N9+99999+99999098791ADDAY171999GF108991081051008001999999MW1151
0043010300999991959010614004+69700+019017FM-12+001499999V0200501N01801007801CN0050001N9+99999+99999098831ADDAY171999GF108991081051008001999999MW1701
0076010300999991959010615004+69700+019017FM-12+001499999V0200501N01801001501CN0030001N9+00001+99999098881ADDAY171999GF109991091999001501999999MD1210101+9999MW1711EQDQ01+014331APOSP 
0043010300999991959010616004+69700+019017FM-12+001499999V0200501N01951004501CN0035001N9+99999+99999098941ADDAY171999GF108991081051004501999999MW1711
0043010300999991959010617004+69700+019017FM-12+001499999V0200501N01801004501CN0080001N9+99999+99999098951ADDAY171999GF108991081051004501999999MW1151
0113010300999991959010618004+69700+019017FM-12+001499999V0200501N01701004501CN0080001N9+00001+99999098971ADDAA199002091AY171999GF108991081051004501999999KA1999M+00171KA2999N-00111MD1210111+9999MW1701EQDQ01+014331APOSP 
0076010300999991959010700004+69700+019017FM-12+001499999V0200601N01391007801CN0200001N9+00001+99999099261ADDAY181999GF108991081091008001999999MD1210121+9999MW1851EQDQ01+013331APOSP 
0076010300999991959010703004+69700+019017FM-12+001499999V0200601N01031007801CN0250001N9-00061+99999099381ADDAY181999GF108991081091008001999999MD1210121+9999MW1851EQDQ01+013321APOSP 
0043010300999991959010704004+69700+019017FM-12+001499999V0200601N00771007801CN0400001N9+99999+99999099401ADDAY181999GF108991081081008001999999MW1021
0043010300999991959010705004+69700+019017FM-12+001499999V0200601N00101007801CN0400001N9+99999+99999099441ADDAY121999GF108991081081008001999999MW1021
0113010300999991959010706004+69700+019017FM-12+001499999V0202701N00151007801CN0300001N9-00171+99999099471ADDAA199000691AY181999GF108991081081008001999999KA1999M+00061KA2999N-00171MD1210091+9999MW1851EQDQ01+011311APOSP 
0043010300999991959010707004+69700+019017FM-12+001499999V0202701N00261007801CN0400001N9+99999+99999099551ADDAY181999GF108991081051008001999999MW1021
0043010300999991959010708004+69700+019017FM-12+001499999V0202301N00311007801CN0500001N9+99999+99999099621ADDAY121999GF106991051051008001041021MW1011
0076010300999991959010709004+69700+019017FM-12+001499999V0202301N003119999999N0500001N9-00331+99999099661ADDAY181999GF105991021051008001041021MD1210191+9999MW1011EQDQ01+011301APOSP 
0043010300999991959010710004+69700+019017FM-12+001499999V0202301N001019999999N0600001N9+99999+99999099681ADDAY111999GF102991011051008001041011MW1011
0043010300999991959010711004+69700+019017FM-12+001499999V0202501N001019999999N0600001N9+99999+99999099721ADDAY101999GF101991011051012501041011MW1011
0076010300999991959010712004+69700+019017FM-12+001499999V0203601N001019999999N0600001N9-00441+99999099761ADDAY181999GF103991011051012501041021MD1210101+9999MW1031EQDQ01+010301APOSP 
0043010300999991959010713004+69700+019017FM-12+001499999V0203601N001019999999N0600001N9+99999+99999099791ADDAY101999GF102991011051012501041021MW1011
0043010300999991959010714004+69700+019017FM-12+001499999V0209991C000019999999N0600001N9+99999+99999099821ADDAY101999GF104991011051012501041021MW1031
0076010300999991959010715004+69700+019017FM-12+001499999V0203401N001019999999N0600001N9-00501+99999099841ADDAY111999GF104991021001999999041021MD1210081+9999MW1021EQDQ01+010301APOSP 
0043010300999991959010716004+69700+019017FM-12+001499999V0209991C000019999999N0600001N9+99999+99999099871ADDAY111999GF105991031001999999041021MW1031
0043010300999991959010717004+69700+019017FM-12+001499999V0209991C000019999999N0600001N9+99999+99999099881ADDAY111999GF105991031001999999041021MW1021
0113010300999991959010718004+69700+019017FM-12+001499999V0202501N001019999999N0600001N9-00561+99999099881ADDAA199000691AY111999GF104991021001999999041021KA1999M-00111KA2999N-00611MD1110041+9999MW1011EQDQ01+010301APOSP 
0076010300999991959010800004+69700+019017FM-12+001499999V0209991C00001012301CN0600001N9-00441+99999099921ADDAY121999GF106991061051012501001001MD1010001+9999MW1021EQDQ01+010301APOSP 
0076010300999991959010803004+69700+019017FM-12+001499999V0209991C00001012301CN0600001N9-00441+99999099961ADDAY121999GF106991061051012501001001MD1210041+9999MW1021EQDQ01+010301APOSP 
0043010300999991959010804004+69700+019017FM-12+001499999V0202501N00261015001CN0600001N9+99999+99999099961ADDAY121999GF106991061051017501001001MW1021
0043010300999991959010805004+69700+019017FM-12+001499999V0202501N00151015001CN0600001N9+99999+99999099961ADDAY121999GF106991061051017501001001MW1021
0102010300999991959010806004+69700+019017FM-12+001499999V0202501N00151015001CN0600001N9-00441+99999099961ADDAY121999GF106991061051017501001001KA1999M-00391KA2999N-00611MD1410001+9999MW1021EQDQ01+011301APOSP 
0043010300999991959010807004+69700+019017FM-12+001499999V0202501N00151015001CN0600001N9+99999+99999099971ADDAY121999GF105991051051017501001001MW1011
0043010300999991959010808004+69700+019017FM-12+001499999V0202501N001519999999N0600001N9+99999+99999999999ADDAY111999GF103991031051017501001001MW1011
0076010300999991959010809004+69700+019017FM-12+001499999V0202501N00311015001CN0600001N9-00441+99999100041ADDAY111999GF106991061051017501001011MD1210081+9999MW1031EQDQ01+011301APOSP 
0043010300999991959010810004+69700+019017FM-12+001499999V0202301N00461012301CN0600001N9+99999+99999100081ADDAY121999GF107991061051012501041011MW1031
0043010300999991959010811004+69700+019017FM-12+001499999V0202501N00311012301CN0250001N9+99999+99999100111ADDAY181999GF108991081091012501999999MW1851
0076010300999991959010812004+69700+019017FM-12+001499999V0202301N00621000601CN0008001N9-00391+99999100121ADDAY181999GF109991091999000751999999MD1210081+9999MW1861EQDQ01+011311APOSP 
0043010300999991959010813004+69700+019017FM-12+001499999V0202301N00411000601CN0005001N9+99999+99999100191ADDAY181999GF109991091999000751999999MW1861
0043010300999991959010814004+69700+019017FM-12+001499999V0202301N00411000601CN0010001N9+99999+99999100251ADDAY181999GF109991091999000751999999MW1861
0076010300999991959010815004+69700+019017FM-12+001499999V0202301N00311007801CN0100001N9-00331+99999100301ADDAY181999GF108991081091008001999999MD1210181+9999MW1851EQDQ01+011311APOSP 
0043010300999991959010816004+69700+019017FM-12+001499999V0203401N00211007801CN0200001N9+99999+99999100361ADDAY181999GF108991081091008001999999MW1851
0043010300999991959010817004+69700+019017FM-12+001499999V0202501N00261007801CN0200001N9+99999+99999100411ADDAY181999GF108991081091008001999999MW1851
0113010300999991959010818004+69700+019017FM-12+001499999V0203401N00261007801CN0300001N9-00221+99999100461ADDAA199006091AY181999GF108991081091008001999999KA1999M-00171KA2999N-00501MD1210161+9999MW1851EQDQ01+011311APOSP 
0076010300999991959010900004+69700+019017FM-12+001499999V0202501N002119999999N0500001N9-00331+99999100921ADDAY181999GF104991031081012501041001MD1210151+9999MW1261EQDQ01+011301APOSP 
0076010300999991959010903004+69700+019017FM-12+001499999V0202501N002619999999N0500001N9-00501+99999101071ADDAY111999GF103991021051012501041001MD1210151+9999MW1011EQDQ01+011301APOSP 
0043010300999991959010904004+69700+019017FM-12+001499999V0202501N001019999999N0500001N9+99999+99999101111ADDAY101999GF102991011051012501041011MW1011
0043010300999991959010905004+69700+019017FM-12+001499999V0202501N001019999999N0500001N9+99999+99999101161ADDAY101999GF103991021051012501041011MW1031
0113010300999991959010906004+69700+019017FM-12+001499999V0202501N001019999999N0500001N9-00561+99999101191ADDAA199000691AY101999GF103991021051012501041011KA1999M-00171KA2999N-00561MD1210121+9999MW1021EQDQ01+010301APOSP 
0043010300999991959010907004+69700+019017FM-12+001499999V0202501N002619999999N0500001N9+99999+99999101201ADDAY101999GF103991021051012501041011MW1021
0043010300999991959010908004+69700+019017FM-12+001499999V0202501N001019999999N0500001N9+99999+99999101291ADDAY101999GF107991041051012501041021MW1031
0076010300999991959010909004+69700+019017FM-12+001499999V0202501N001019999999N0500001N9-00501+99999101321ADDAY121999GF107991041051012501071021MD1210131+9999MW1021EQDQ01+011301APOSP 
0043010300999991959010910004+69700+019017FM-12+001499999V0202701N001019999999N0500001N9+99999+99999101351ADDAY121999GF107991041051012501071021MW1021
0043010300999991959010911004+69700+019017FM-12+001499999V0202701N001019999999N0600001N9+99999+99999101401ADDAY121999GF106991041051008001071021MW1011
0076010300999991959010912004+69700+019017FM-12+001499999V0202701N001019999999N0600001N9-00561+99999101421ADDAY111999GF103991011051008001071011MD1210101+9999MW1011EQDQ01+011301APOSP 
0043010300999991959010913004+69700+019017FM-12+001499999V0202501N001019999999N0600001N9+99999+99999101441ADDAY111999GF104991011051008001071011MW1031
0043010300999991959010914004+69700+019017FM-12+001499999V0202501N001019999999N0600001N9+99999+99999101461ADDAY111999GF102991011051012501041001MW1011
0076010300999991959010915004+69700+019017FM-12+001499999V0202501N001019999999N0600001N9-00611+99999101481ADDAY111999GF101991011051017501041001MD1210061+9999MW1011EQDQ01+011301APOSP 
0043010300999991959010916004+69700+019017FM-12+001499999V0209991C000019999999N0600001N9+99999+99999101491ADDAY101999GF101991011051017501041001MW1021
0043010300999991959010917004+69700+019017FM-12+001499999V0202501N002119999999N0600001N9+99999+99999101511ADDAY101999GF101991011051017501041001MW1021
0102010300999991959010918004+69700+019017FM-12+001499999V0202501N002619999999N0600001N9-00671+99999101501ADDAY101999GF101991011051017501041011KA1999M-00441KA2999N-00721MD1110021+9999MW1021EQDQ01+011301APOSP 
0076010300999991959011000004+69700+019017FM-12+001499999V0202501N00101220001CN0600001N9-00671+99999101551ADDAY101999GF101991001001999999041011MD1210021+9999MW1021EQDQ01+010301APOSP 
0076010300999991959011003004+69700+019017FM-12+001499999V0209991C000019999999N0600001N9-00721+99999101561ADDAY101999GF103991021001999999041021MD1210011+9999MW1031EQDQ01+010301APOSP 
0043010300999991959011004004+69700+019017FM-12+001499999V0202501N001019999999N0600001N9+99999+99999101561ADDAY101999GF102991011001999999041011MW1011
0062010300999991959011005004+69700+019017FM-12+001499999V0202501N00261220001CN0600001N9+99999+99999101561ADDAY101999GF101991999001999999041001MW1011EQDQ01+000002SCOTLC
0118010300999991959011006004+69700+019017FM-12+001499999V0202501N00261220001CN0600001N9-00781+99999101571ADDAY101999GF101991999001999999041001KA1999M-00611KA2999N-00781MD1310011+9999MW1021EQDQ01+000002SCOTLCQ02+011301APOSP 
0062010300999991959011007004+69700+019017FM-12+001499999V0202701N00261220001CN0600001N9+99999+99999101581ADDAY101999GF101991999001999999041001MW1021EQDQ01+000002SCOTLC
0043010300999991959011008004+69700+019017FM-12+001499999V0202701N00261220001CN0600001N9+99999+99999101621ADDAY101999GF101991001001999999041011MW1021
0076010300999991959011009004+69700+019017FM-12+001499999V0202501N00101220001CN0600001N9-00781+99999101661ADDAY101999GF101991001001999999041051MD1210091+9999MW1021EQDQ01+010301APOSP 
0043010300999991959011010004+69700+019017FM-12+001499999V0202701N00101220001CN0600001N9+99999+99999101711ADDAY101999GF102991001001999999041051MW1031
0043010300999991959011011004+69700+019017FM-12+001499999V0202501N001019999999N0600001N9+99999+99999101721ADDAY101999GF105991041001999999041021MW1031
0076010300999991959011012004+69700+019017FM-12+001499999V0202501N00101024001CN0600001N9-00831+99999101701ADDAY121999GF107991071001999999041071MD1010041+9999MW1031EQDQ01+010301APOSP 
0043010300999991959011013004+69700+019017FM-12+001499999V0202501N00101024001CN0600001N9+99999+99999101691ADDAY121999GF108991081001999999041071MW1031
0043010300999991959011014004+69700+019017FM-12+001499999V0209991C00001024001CN0500001N9+99999+99999101661ADDAY121999GF108991081001999999041071MW1021
0076010300999991959011015004+69700+019017FM-12+001499999V0209991C00001024001CN0500001N9-00721+99999101651ADDAY121999GF108991081001999999021999MD1710051+9999MW1021EQDQ01+010301APOSP 
0043010300999991959011016004+69700+019017FM-12+001499999V0202501N00261021001CN0500001N9+99999+99999101661ADDAY121999GF108991071001022501021999MW1021
0043010300999991959011017004+69700+019017FM-12+001499999V0202501N00101021001CN0500001N9+99999+99999101641ADDAY121999GF108991071001022501021999MW1021
0102010300999991959011018004+69700+019017FM-12+001499999V0202501N00101021001CN0500001N9-00611+99999101641ADDAY121999GF108991071001022501021999KA1999M-00561KA2999N-00941MD1710011+9999MW1021EQDQ01+010301APOSP 
0076010300999991959011100004+69700+019017FM-12+001499999V0209991C00001021001CN0600001N9-00441+99999101541ADDAY121999GF108991081001022501071999MD1710081+9999MW1021EQDQ01+010301APOSP 
0068010300999991959011103004+69700+019017FM-12+001499999V0209991C00001021001CN0600001N9-00391+99999101441ADDGF108991081001022501071999MD1710101+9999MW1021EQDQ01+010301APOSP 
0102010300999991959011106004+69700+019017FM-12+001499999V0202501N00261021001CN0600001N9-00331+99999101391ADDAY121999GF107991071001022501071001KA1999M-00281KA2999N-00671MD1710051+9999MW1021EQDQ01+011301APOSP 
0068010300999991959011109004+69700+019017FM-12+001499999V0202501N00261021001CN0600001N9-00281+99999101361ADDGF108991081001022501021999MD1710031+9999MW1021EQDQ01+011301APOSP 
0076010300999991959011112004+69700+019017FM-12+001499999V0200501N00671007801CN0100001N9-00111+99999101261ADDAY171999GF108991081001008001021999MD1710101+9999MW1711EQDQ01+012311APOSP 
0076010300999991959011115004+69700+019017FM-12+001499999V0200701N00931007801CN0070001N9-00221+99999101131ADDAY171999GF108991081001008001021999MD1710131+9999MW1711EQDQ01+012311APOSP 
0113010300999991959011118004+69700+019017FM-12+001499999V0200701N00931007801CN0400001N9-00281+99999100941ADDAA199000691AY171999GF108991081051008001999999KA1999M-00111KA2999N-00391MD1710191+9999MW1021EQDQ01+012311APOSP 
0076010300999991959011200004+69700+019017FM-12+001499999V0200601N01031007801CN0250001N9-00281+99999100471ADDAY171999GF108991081051008001999999MD1710261+9999MW1701EQDQ01+012321APOSP 
0076010300999991959011203004+69700+019017FM-12+001499999V0200501N00771007801CN0040001N9-00281+99999100221ADDAY171999GF108991081001008001021999MD1710251+9999MW1711EQDQ01+012311APOSP 
0043010300999991959011204004+69700+019017FM-12+001499999V0200501N00671007801CN0100001N9+99999+99999100131ADDAY171999GF108991081001008001021999MW1711
0043010300999991959011205004+69700+019017FM-12+001499999V0200901N00311007801CN0300001N9+99999+99999100091ADDAY171999GF108991081001008001021999MW1711
0113010300999991959011206004+69700+019017FM-12+001499999V0200901N00311007801CN0300001N9-00281+99999100061ADDAA199001091AY171999GF108991081001008001021999KA1999M-00221KA2999N-00331MD1710161+9999MW1701EQDQ01+011311APOSP 
0043010300999991959011207004+69700+019017FM-12+001499999V0202701N00261007801CN0300001N9+99999+99999100021ADDAY171999GF108991061051008001021999MW1701
0043010300999991959011208004+69700+019017FM-12+001499999V0202501N00151000601CN0015001N9+99999+99999100011ADDAY171999GF109991091999000751999999MW1731
0076010300999991959011209004+69700+019017FM-12+001499999V0202501N00211007801CN0050001N9-00391+99999999999ADDAY171999GF108991061051008001021999MD1610061+9999MW1711EQDQ01+011301APOSP 
0043010300999991959011210004+69700+019017FM-12+001499999V0202301N00411007801CN0050001N9+99999+99999100021ADDAY171999GF108991061051008001021999MW1711
0043010300999991959011211004+69700+019017FM-12+001499999V0202301N00411007801CN0040001N9+99999+99999100031ADDAY171999GF108991061051008001021999MW1711
0092010300999991959011212004+69700+019017FM-12+001499999V0202301N00511000601CN0015001N9-00441+99999100061ADDAY171999GF108991999999000751999999MD1210061+9999MW1731EQDQ01+000092SCOTLCQ02+011301APOSP 
0043010300999991959011213004+69700+019017FM-12+001499999V0202301N00411000601CN0008001N9+99999+99999100101ADDAY171999GF109991091999000751999999MW1731
0043010300999991959011214004+69700+019017FM-12+001499999V0202301N00261000601CN0008001N9+99999+99999100121ADDAY171999GF109991091999000751999999MW1731
0076010300999991959011215004+69700+019017FM-12+001499999V0202501N00261000601CN0010001N9-00391+99999100161ADDAY171999GF109991091999000751999999MD1210101+9999MW1731EQDQ01+011301APOSP 
0043010300999991959011216004+69700+019017FM-12+001499999V0202501N00101000601CN0010001N9+99999+99999100221ADDAY171999GF109991091999000751999999MW1731
0043010300999991959011217004+69700+019017FM-12+001499999V0200701N00311000601CN0008001N9+99999+99999100321ADDAY171999GF109991091999000751999999MW1731
0113010300999991959011218004+69700+019017FM-12+001499999V0200701N00461001501CN0025001N9-00221+99999100391ADDAA199009091AY171999GF109991091999001501999999KA1999M-00171KA2999N-00561MD1210231+9999MW1731EQDQ01+012301APOSP 
0076010300999991959011300004+69700+019017FM-12+001499999V0200701N004619999999N0500001N9-00281+99999100541ADDAY171999GF108991031051008001021999MD1110051+9999MW1221EQDQ01+012301APOSP 
0076010300999991959011303004+69700+019017FM-12+001499999V0203401N00311021001CN0600001N9-00281+99999100521ADDAY171999GF106991061001022501071001MD1710021+9999MW1011EQDQ01+011301APOSP 
0043010300999991959011304004+69700+019017FM-12+001499999V0203401N001519999999N0600001N9+99999+99999100481ADDAY121999GF104991041001022501071001MW1011
0062010300999991959011305004+69700+019017FM-12+001499999V0209991C00001220001CN0600001N9+99999+99999100451ADDAY101999GF102991999001999999071001MW1011EQDQ01+000002SCOTLC
0129010300999991959011306004+69700+019017FM-12+001499999V0200201N00211220001CN0600001N9-00561+99999100431ADDAA199000691AY171999GF101991999001999999071001KA1999M-00171KA2999N-00611MD1710051+9999MW1011EQDQ01+000002SCOTLCQ02+011301APOSP 
0062010300999991959011307004+69700+019017FM-12+001499999V0200201N00101220001CN0600001N9+99999+99999100421ADDAY101999GF101991999001999999071001MW1021EQDQ01+000002SCOTLC
0043010300999991959011308004+69700+019017FM-12+001499999V0209991C000019999999N0600001N9+99999+99999100421ADDAY101999GF101991011051012501001011MW1021
0076010300999991959011309004+69700+019017FM-12+001499999V0200201N001019999999N0600001N9-00671+99999100421ADDAY101999GF101991011051012501001011MD1610011+9999MW1021EQDQ01+011301APOSP 
0043010300999991959011310004+69700+019017FM-12+001499999V0201201N001019999999N0600001N9+99999+99999100411ADDAY101999GF101991011051012501001011MW1021
0043010300999991959011311004+69700+019017FM-12+001499999V0209991C000019999999N0600001N9+99999+99999100381ADDAY101999GF102991011051012501001011MW1031
0076010300999991959011312004+69700+019017FM-12+001499999V0209991C000019999999N0600001N9-00721+99999100391ADDAY101999GF101991011051012501001011MD1710031+9999MW1011EQDQ01+010301APOSP 
0043010300999991959011313004+69700+019017FM-12+001499999V0203201N001019999999N0600001N9+99999+99999100371ADDAY101999GF101991011051012501001011MW1021
0043010300999991959011314004+69700+019017FM-12+001499999V0200701N001019999999N0600001N9+99999+99999100331ADDAY101999GF101991011051012501001011MW1021
0076010300999991959011315004+69700+019017FM-12+001499999V0209991C000019999999N0600001N9-00781+99999100321ADDAY101999GF101991011051012501001011MD1710071+9999MW1021EQDQ01+010301APOSP 
0043010300999991959011316004+69700+019017FM-12+001499999V0209991C000019999999N0600001N9+99999+99999100311ADDAY101999GF101991011051012501001011MW1021
0043010300999991959011317004+69700+019017FM-12+001499999V0202701N002619999999N0600001N9+99999+99999100301ADDAY101999GF101991011051012501001001MW1011
0102010300999991959011318004+69700+019017FM-12+001499999V0202501N002619999999N0600001N9-00831+99999100271ADDAY101999GF101991011051012501001001KA1999M-00561KA2999N-00891MD1710051+9999MW1021EQDQ01+011301APOSP 
0076010300999991959011400004+69700+019017FM-12+001499999V0202501N00101004501CN0400001N9-00781+99999100241ADDAY121999GF107991071061004501001001MD1610021+9999MW1031EQDQ01+010301APOSP 
0076010300999991959011403004+69700+019017FM-12+001499999V0202301N00261004501CN0350001N9-00721+99999100201ADDAY121999GF108991081061004501999999MD1810041+9999MW1021EQDQ01+011301APOSP 
0043010300999991959011404004+69700+019017FM-12+001499999V0202301N00101004501CN0400001N9+99999+99999100141ADDAY121999GF108991081051004501999999MW1021
0043010300999991959011405004+69700+019017FM-12+001499999V0202301N00261004501CN0350001N9+99999+99999100121ADDAY121999GF108991081051004501999999MW1021
0102010300999991959011406004+69700+019017FM-12+001499999V0202401N00461004501CN0300001N9-00831+99999100121ADDAY121999GF107991071051004501001001KA1999M-00671KA2999N-00891MD1610081+9999MW1011EQDQ01+011301APOSP 
0043010300999991959011407004+69700+019017FM-12+001499999V0202401N00261004501CN0300001N9+99999+99999100121ADDAY121999GF107991071051004501001001MW1021
0043010300999991959011408004+69700+019017FM-12+001499999V0202301N00261007801CN0400001N9+99999+99999100131ADDAY121999GF107991061051008001041001MW1011
0076010300999991959011409004+69700+019017FM-12+001499999V0202501N00261007801CN0400001N9-00831+99999100141ADDAY121999GF107991061051008001041001MD1310021+9999MW1021EQDQ01+011301APOSP 
0043010300999991959011410004+69700+019017FM-12+001499999V0202501N00101012301CN0400001N9+99999+99999100191ADDAY121999GF107991061051012501041001MW1021
0043010300999991959011411004+69700+019017FM-12+001499999V0202501N00261012301CN0450001N9+99999+99999100171ADDAY121999GF106991051051012501041001MW1011
0076010300999991959011412004+69700+019017FM-12+001499999V0202501N003119999999N0450001N9-00891+99999100171ADDAY121999GF106991041051012501041001MD1210031+9999MW1021EQDQ01+011301APOSP 
0043010300999991959011413004+69700+019017FM-12+001499999V0202501N00261012301CN0300001N9+99999+99999100151ADDAY171999GF107991061051012501041001MW1701
0043010300999991959011414004+69700+019017FM-12+001499999V0202501N00261007801CN0350001N9+99999+99999100141ADDAY171999GF106991051051008001041001MW1151
0076010300999991959011415004+69700+019017FM-12+001499999V0202501N00101007801CN0060001N9-00781+99999100131ADDAY181999GF108991081081008001999999MD1810041+9999MW1851EQDQ01+011301APOSP 
0043010300999991959011416004+69700+019017FM-12+001499999V0202501N00151007801CN9999999N9+99999+99999100101ADDAY181999GF108991081081008001999999MW1851
0043010300999991959011417004+69700+019017FM-12+001499999V0202501N00151007801CN9999999N9+99999+99999100051ADDAY181999GF108991081081008001999999MW1851
0113010300999991959011418004+69700+019017FM-12+001499999V0202301N00101007801CN0450001N9-00721+99999100031ADDAA199000391AY181999GF107991071081008001001001KA1999M-00671KA2999N-00891MD1710101+9999MW1261EQDQ01+011301APOSP 
0076010300999991959011500004+69700+019017FM-12+001499999V0209991C000019999999N0500001N9-00891+99999099991ADDAY181999GF103991021081008001041021MD1710021+9999MW1011EQDQ01+010301APOSP 
0076010300999991959011503004+69700+019017FM-12+001499999V0202301N002619999999N0500001N9-00831+99999099851ADDAY101999GF105991041051012501041021MD1710141+9999MW1031EQDQ01+011301APOSP 
0043010300999991959011504004+69700+019017FM-12+001499999V0202301N00151007801CN0300001N9+99999+99999099811ADDAY121999GF108991061051008001021999MW1701
0043010300999991959011505004+69700+019017FM-12+001499999V0202301N00151000601CN0008001N9+99999+99999099821ADDAY181999GF109991091999000751999999MW1861
0113010300999991959011506004+69700+019017FM-12+001499999V0202701N00101000601CN0010001N9-00721+99999099841ADDAA199003091AY181999GF109991091999000751999999KA1999M-00671KA2999N-01001MD1510021+9999MW1861EQDQ01+011301APOSP 
0043010300999991959011507004+69700+019017FM-12+001499999V0200701N00261007801CN0250001N9+99999+99999099851ADDAY181999GF107991071091008001001001MW1151
0043010300999991959011508004+69700+019017FM-12+001499999V0203601N00511007801CN0300001N9+99999+99999099871ADDAY181999GF107991071091008001001001MW1151
0076010300999991959011509004+69700+019017FM-12+001499999V0203601N00511007801CN0400001N9-00611+99999099901ADDAY121999GF107991061081008001061001MD1210071+9999MW1151EQDQ01+012311APOSP 
0043010300999991959011510004+69700+019017FM-12+001499999V0200101N00461007801CN0400001N9+99999+99999099951ADDAY121999GF107991071081008001001001MW1151
0043010300999991959011511004+69700+019017FM-12+001499999V0203601N00511007801CN0080001N9+99999+99999099921ADDAY181999GF107991071081008001001001MW1851
0076010300999991959011512004+69700+019017FM-12+001499999V0203601N00511007801CN0100001N9-00781+99999099911ADDAY181999GF107991071081008001001001MD1010011+9999MW1851EQDQ01+011311APOSP 
0043010300999991959011513004+69700+019017FM-12+001499999V0200201N00261000601CN0005001N9+99999+99999099911ADDAY181999GF109991091999000751999999MW1861
0043010300999991959011514004+69700+019017FM-12+001499999V0200201N00461004501CN0040001N9+99999+99999099921ADDAY181999GF108991081091004501999999MW1851
0076010300999991959011515004+69700+019017FM-12+001499999V0203401N00261007801CN0400001N9-00891+99999099911ADDAY181999GF107991071081008001001001MD1410001+9999MW1261EQDQ01+011311APOSP 
0043010300999991959011516004+69700+019017FM-12+001499999V0203601N00101007801CN0120001N9+99999+99999099891ADDAY181999GF107991071091008001001001MW1851
0043010300999991959011517004+69700+019017FM-12+001499999V0202501N00101004501CN0030001N9+99999+99999099881ADDAY181999GF108991081091004501999999MW1861
0113010300999991959011518004+69700+019017FM-12+001499999V0202701N00101004501CN0040001N9-00941+99999099861ADDAA199002091AY181999GF108991081091004501999999KA1999M-00501KA2999N-00941MD1710051+9999MW1861EQDQ01+010311APOSP 
0076010300999991959011600004+69700+019017FM-12+001499999V0202401N005119999999N0500001N9-00891+99999099851ADDAY181999GF104991041091008001001001MD1310081+9999MW1261EQDQ01+011311APOSP 
0076010300999991959011603004+69700+019017FM-12+001499999V0202501N00151007801CN0060001N9-00781+99999099961ADDAY181999GF108991081091008001999999MD1210111+9999MW1851EQDQ01+011301APOSP 
0043010300999991959011604004+69700+019017FM-12+001499999V0202501N00261007801CN0100001N9+99999+99999100021ADDAY181999GF108991081091008001999999MW1851
0043010300999991959011605004+69700+019017FM-12+001499999V0202301N00151000601CN0007001N9+99999+99999100061ADDAY181999GF109991091999000751999999MW1861
0113010300999991959011606004+69700+019017FM-12+001499999V0200201N007719999999N0500001N9-00561+99999100091ADDAA199005091AY181999GF103991031091008001001001KA1999M-00501KA2999N-01061MD1210131+9999MW1011EQDQ01+011311APOSP 
0043010300999991959011607004+69700+019017FM-12+001499999V0200201N00931000601CN0008001N9+99999+99999100151ADDAY181999GF109991091999000751999999MW1851
0043010300999991959011608004+69700+019017FM-12+001499999V0200101N00931007801CN0250001N9+99999+99999100241ADDAY181999GF106991051091008001041001MW1151
0076010300999991959011609004+69700+019017FM-12+001499999V0200201N00931007801CN0100001N9-00671+99999100311ADDAY181999GF108991081091008001999999MD1210221+9999MW1851EQDQ01+012321APOSP 
0043010300999991959011610004+69700+019017FM-12+001499999V0200201N01031007801CN0150001N9+99999+99999100351ADDAY181999GF107991071091008001001001MW1151
0043010300999991959011611004+69700+019017FM-12+001499999V0200201N00931007801CN0400001N9+99999+99999100421ADDAY181999GF106991051091008001041001MW1151
0076010300999991959011612004+69700+019017FM-12+001499999V0203601N00931007801CN0300001N9-00561+99999100441ADDAY181999GF107991061091008001041001MD1210131+9999MW1851EQDQ01+012321APOSP 
0043010300999991959011613004+69700+019017FM-12+001499999V0200201N00931007801CN0400001N9+99999+99999100511ADDAY181999GF107991071091008001001001MW1151
0043010300999991959011614004+69700+019017FM-12+001499999V0200201N00671007801CN0300001N9+99999+99999100581ADDAY121999GF107991071091008001001001MW1151
0076010300999991959011615004+69700+019017FM-12+001499999V0203601N00931007801CN0020001N9-00561+99999100631ADDAY181999GF107991071091008001001001MD1210191+9999MW1851EQDQ01+012321APOSP 
0043010300999991959011616004+69700+019017FM-12+001499999V0200201N00931007801CN0060001N9+99999+99999100671ADDAY181999GF108991081091008001999999MW1851
0043010300999991959011617004+69700+019017FM-12+001499999V0203601N00671007801CN0400001N9+99999+99999100711ADDAY181999GF106991051091008001041001MW1151
0113010300999991959011618004+69700+019017FM-12+001499999V0203601N00671007801CN0400001N9-00501+99999100751ADDAA199001091AY181999GF107991071091008001001001KA1999M-00441KA2999N-00671MD1210121+9999MW1151EQDQ01+012321APOSP 
0076010300999991959011700004+69700+019017FM-12+001499999V0203201N003619999999N0600001N9-00611+99999100971ADDAY181999GF104991041091008001001001MD1210111+9999MW1261EQDQ01+011311APOSP 
0076010300999991959011703004+69700+019017FM-12+001499999V0203401N00261007801CN0500001N9-00611+99999101051ADDAY181999GF108991081091008001999999MD1210081+9999MW1851EQDQ01+011301APOSP 
0043010300999991959011704004+69700+019017FM-12+001499999V0200201N00671007801CN0300001N9+99999+99999101071ADDAY181999GF106991061091008001001001MW1851
0043010300999991959011705004+69700+019017FM-12+001499999V0200501N004619999999N0600001N9+99999+99999101091ADDAY181999GF103991031091008001001001MW1011
0113010300999991959011706004+69700+019017FM-12+001499999V0203401N001019999999N0600001N9-00781+99999101101ADDAA199001091AY181999GF102991021091008001001001KA1999M-00501KA2999N-00781MD1210051+9999MW1011EQDQ01+011311APOSP 
0043010300999991959011707004+69700+019017FM-12+001499999V0209991C000019999999N0600001N9+99999+99999101141ADDAY101999GF101991011081008001001001MW1011
0043010300999991959011708004+69700+019017FM-12+001499999V0203201N002619999999N0600001N9+99999+99999101161ADDAY101999GF102991021081008001001001MW1031
0076010300999991959011709004+69700+019017FM-12+001499999V0203201N00261007801CN0200001N9-00721+99999101181ADDAY111999GF107991071081008001001001MD1210081+9999MW1851EQDQ01+011301APOSP 
0043010300999991959011710004+69700+019017FM-12+001499999V0202701N00151007801CN0200001N9+99999+99999101171ADDAY181999GF106991051081008001041001MW1151
0043010300999991959011711004+69700+019017FM-12+001499999V0203001N001519999999N0500001N9+99999+99999101181ADDAY121999GF105991031091008001041001MW1151
0076010300999991959011712004+69700+019017FM-12+001499999V0202701N002119999999N0100001N9-00781+99999101181ADDAY181999GF105991041091008001041001MD1410001+9999MW1851EQDQ01+011301APOSP 
0043010300999991959011713004+69700+019017FM-12+001499999V0202501N001519999999N0400001N9+99999+99999101141ADDAY181999GF105991041091008001041021MW1151
0043010300999991959011714004+69700+019017FM-12+001499999V0202701N001019999999N0500001N9+99999+99999101131ADDAY121999GF104991031091008001041021MW1011
0076010300999991959011715004+69700+019017FM-12+001499999V0202301N001519999999N0500001N9-00831+99999101131ADDAY181999GF103991021091008001041021MD1610051+9999MW1151EQDQ01+011301APOSP 
0043010300999991959011716004+69700+019017FM-12+001499999V0202501N004119999999N0500001N9+99999+99999101101ADDAY111999GF103991021081008001041021MW1021
0043010300999991959011717004+69700+019017FM-12+001499999V0202501N003619999999N0500001N9+99999+99999101071ADDAY101999GF103991021081008001041021MW1021
0113010300999991959011718004+69700+019017FM-12+001499999V0202501N003119999999N0200001N9-00781+99999101051ADDAA199001091AY181999GF104991031081008001041021KA1999M-00671KA2999N-00941MD1710081+9999MW1851EQDQ01+011301APOSP 
0076010300999991959011800004+69700+019017FM-12+001499999V0202301N006219999999N0500001N9-00781+99999100811ADDAY181999GF103991031081008001041001MD1710151+9999MW1021EQDQ01+011311APOSP 
0076010300999991959011803004+69700+019017FM-12+001499999V0202901N00311000601CN0003001N9-00721+99999100741ADDAY181999GF109991091999000751999999MD1510071+9999MW1861EQDQ01+011311APOSP 
0113010300999991959011806004+69700+019017FM-12+001499999V0200201N00931007801CN0500001N9-00671+99999100911ADDAA199004091AY181999GF106991051081008001041001KA1999M-00611KA2999N-00831MD1210171+9999MW1021EQDQ01+013321APOSP 
0076010300999991959011809004+69700+019017FM-12+001499999V0200201N005119999999N0500001N9-00891+99999101111ADDAY121999GF105991031081008001041021MD1210201+9999MW1011EQDQ01+011321APOSP 
0076010300999991959011812004+69700+019017FM-12+001499999V0202501N002619999999N0600001N9-01061+99999101031ADDAY121999GF103991011081012501041011MD1810081+9999MW1011EQDQ01+011321APOSP 
0076010300999991959011815004+69700+019017FM-12+001499999V0202001N01031007801CN0200001N9-00891+99999100671ADDAY121999GF107991071081008001001001MD1710361+9999MW1381EQDQ01+013321APOSP 
0113010300999991959011818004+69700+019017FM-12+001499999V0202901N00511000601CN0003001N9-00781+99999100421ADDAA199003091AY181999GF109991091999000751999999KA1999M-00671KA2999N-01221MD1510251+9999MW1861EQDQ01+012331APOSP 
0076010300999991959011900004+69700+019017FM-12+001499999V0200101N00931007801CN0100001N9-00941+99999100611ADDAY181999GF108991081091008001999999MD1210121+9999MW1851EQDQ01+012311APOSP 
0076010300999991959011903004+69700+019017FM-12+001499999V0200201N00461007801CN0300001N9-00891+99999100681ADDAY181999GF107991071081008001001001MD1210071+9999MW1261EQDQ01+011311APOSP 
0043010300999991959011904004+69700+019017FM-12+001499999V0200201N00261007801CN0400001N9+99999+99999100691ADDAY181999GF107991071081008001001001MW1151
0043010300999991959011905004+69700+019017FM-12+001499999V0200201N00261007801CN0400001N9+99999+99999100701ADDAY121999GF106991061081008001001001MW1151
0113010300999991959011906004+69700+019017FM-12+001499999V0203601N00261007801CN0080001N9-01061+99999100721ADDAA199003091AY181999GF107991071091008001001001KA1999M-00721KA2999N-01221MD1210041+9999MW1851EQDQ01+011311APOSP 
0043010300999991959011907004+69700+019017FM-12+001499999V0203601N00461007801CN0400001N9+99999+99999100731ADDAY181999GF106991051081008001061001MW1151
0043010300999991959011908004+69700+019017FM-12+001499999V0203601N002619999999N0140001N9+99999+99999100771ADDAY181999GF105991041081008001061001MW1851
0076010300999991959011909004+69700+019017FM-12+001499999V0203401N00101007801CN0400001N9-01171+99999100771ADDAY181999GF106991051081008001061021MD1110051+9999MW1261EQDQ01+010311APOSP 
0043010300999991959011910004+69700+019017FM-12+001499999V0203401N00101007801CN0400001N9+99999+99999100781ADDAY181999GF107991061081008001061021MW1151
0043010300999991959011911004+69700+019017FM-12+001499999V0203001N00101007801CN0200001N9+99999+99999100801ADDAY181999GF107991061081008001061021MW1851
0076010300999991959011912004+69700+019017FM-12+001499999V0203001N00261007801CN0500001N9-01171+99999100791ADDAY181999GF106991051081008001061021MD1010021+9999MW1261EQDQ01+011311APOSP 
0043010300999991959011913004+69700+019017FM-12+001499999V0202501N002619999999N0500001N9+99999+99999100811ADDAY121999GF106991041081008001061021MW1151
0043010300999991959011914004+69700+019017FM-12+001499999V0202501N00261007801CN0400001N9+99999+99999100831ADDAY181999GF107991061081008001061021MW1151
0076010300999991959011915004+69700+019017FM-12+001499999V0202501N00261007801CN0200001N9-01111+99999100821ADDAY181999GF108991071081008001061999MD1210031+9999MW1851EQDQ01+011301APOSP 
0043010300999991959011916004+69700+019017FM-12+001499999V0202501N00261007801CN0500001N9+99999+99999100831ADDAY181999GF106991051081008001061021MW1021
0043010300999991959011917004+69700+019017FM-12+001499999V0202501N00261007801CN0500001N9+99999+99999100821ADDAY121999GF106991051081008001061021MW1021
0113010300999991959011918004+69700+019017FM-12+001499999V0202501N002619999999N0500001N9-01111+99999100841ADDAA199000391AY181999GF106991031081008001061021KA1999M-01001KA2999N-01281MD1210021+9999MW1021EQDQ01+011301APOSP 
0076010300999991959012000004+69700+019017FM-12+001499999V0202301N001519999999N0600001N9-01171+99999100911ADDAY121999GF101991011021008001041001MD1210021+9999MW1011EQDQ01+011301APOSP 
0076010300999991959012003004+69700+019017FM-12+001499999V0203601N001019999999N0600001N9-01171+99999100861ADDAY101999GF101991011051012501041001MD1810051+9999MW1021EQDQ01+010301APOSP 
0043010300999991959012004004+69700+019017FM-12+001499999V0209991C000019999999N0600001N9+99999+99999100851ADDAY101999GF101991011051012501041001MW1021
0043010300999991959012005004+69700+019017FM-12+001499999V0202701N00151220001CN0600001N9+99999+99999100801ADDAY101999GF100991001001999999001001MW1011
0102010300999991959012006004+69700+019017FM-12+001499999V0202901N00261220001CN0600001N9-01331+99999100781ADDAY101999GF100991001001999999001001KA1999M-01061KA2999N-01391MD1710081+9999MW1021EQDQ01+011301APOSP 
0043010300999991959012007004+69700+019017FM-12+001499999V0202701N00101220001CN0600001N9+99999+99999100791ADDAY101999GF100991001001999999001001MW1021
0062010300999991959012008004+69700+019017FM-12+001499999V0202701N00101220001CN0600001N9+99999+99999100801ADDAY101999GF101991999001999999041001MW1031EQDQ01+000002SCOTLC
0076010300999991959012009004+69700+019017FM-12+001499999V0202701N001019999999N0600001N9-01331+99999100811ADDAY101999GF101991011021012501041001MD1310031+9999MW1021EQDQ01+011301APOSP 
0043010300999991959012010004+69700+019017FM-12+001499999V0202901N001019999999N0600001N9+99999+99999100781ADDAY101999GF101991011051008001041001MW1021
0043010300999991959012011004+69700+019017FM-12+001499999V0202901N001019999999N0600001N9+99999+99999100761ADDAY101999GF101991011051008001041001MW1021
0076010300999991959012012004+69700+019017FM-12+001499999V0209991C00001220001CN0600001N9-01331+99999100721ADDAY101999GF101991001001999999041051MD1810091+9999MW1021EQDQ01+010301APOSP 
0043010300999991959012013004+69700+019017FM-12+001499999V0209991C00001220001CN0600001N9+99999+99999100681ADDAY101999GF101991001001999999041051MW1021
0043010300999991959012014004+69700+019017FM-12+001499999V0202501N00101220001CN0600001N9+99999+99999100631ADDAY101999GF101991001001999999041051MW1021
0076010300999991959012015004+69700+019017FM-12+001499999V0202501N00101220001CN0600001N9-01331+99999100571ADDAY101999GF101991001001999999041051MD1710151+9999MW1021EQDQ01+011301APOSP 
0043010300999991959012016004+69700+019017FM-12+001499999V0202501N00101220001CN0600001N9+99999+99999100521ADDAY101999GF101991001001999999041051MW1021
0062010300999991959012017004+69700+019017FM-12+001499999V0202501N00101220001CN0600001N9+99999+99999100461ADDAY101999GF101991999001999999041001MW1021EQDQ01+000002SCOTLC
0118010300999991959012018004+69700+019017FM-12+001499999V0209991C00001220001CN0600001N9-01281+99999100391ADDAY101999GF101991999001999999041001KA1999M-01171KA2999N-01441MD1710181+9999MW1021EQDQ01+000002SCOTLCQ02+010301APOSP 
0076010300999991959012100004+69700+019017FM-12+001499999V0202501N00101220001CN0600001N9-01171+99999099951ADDAY101999GF103991001001999999041011MD1710261+9999MW1031EQDQ01+011301APOSP 
0076010300999991959012103004+69700+019017FM-12+001499999V0202501N00101220001CN0600001N9-01171+99999099701ADDAY101999GF104991001001999999041011MD1710251+9999MW1031EQDQ01+011301APOSP 
0043010300999991959012104004+69700+019017FM-12+001499999V0202501N00101220001CN0600001N9+99999+99999099571ADDAY101999GF103991001001999999041011MW1011
0043010300999991959012105004+69700+019017FM-12+001499999V0202501N00101220001CN0600001N9+99999+99999099491ADDAY101999GF103991001001999999041011MW1021
0102010300999991959012106004+69700+019017FM-12+001499999V0202501N00101220001CN0600001N9-01171+99999099451ADDAY101999GF101991001001999999041011KA1999M-01061KA2999N-01331MD1710251+9999MW1011EQDQ01+011301APOSP 
0043010300999991959012107004+69700+019017FM-12+001499999V0202501N00101220001CN0600001N9+99999+99999099401ADDAY101999GF101991001001999999041021MW1021
0043010300999991959012108004+69700+019017FM-12+001499999V0202701N00101220001CN0600001N9+99999+99999099361ADDAY101999GF101991001001999999041021MW1021
0076010300999991959012109004+69700+019017FM-12+001499999V0202501N00261220001CN0600001N9-01171+99999099351ADDAY101999GF101991001001999999041021MD1610101+9999MW1021EQDQ01+011301APOSP 
0043010300999991959012110004+69700+019017FM-12+001499999V0202301N00511220001CN0600001N9+99999+99999099321ADDAY101999GF101991001001999999041021MW1021
0043010300999991959012111004+69700+019017FM-12+001499999V0202001N006719999999N0600001N9+99999+99999099301ADDAY101999GF102991011051012501041021MW1031
0076010300999991959012112004+69700+019017FM-12+001499999V0202301N006719999999N0600001N9-01001+99999099291ADDAY101999GF104991011051012501041051MD1710061+9999MW1031EQDQ01+012311APOSP 
0043010300999991959012113004+69700+019017FM-12+001499999V0202301N004619999999N0600001N9+99999+99999099301ADDAY111999GF106991011011012501041061MW1031
0043010300999991959012114004+69700+019017FM-12+001499999V0202701N002619999999N0600001N9+99999+99999099301ADDAY121999GF107991011011012501041061MW1031
0076010300999991959012115004+69700+019017FM-12+001499999V0202001N002619999999N0600001N9-00941+99999099301ADDAY121999GF107991011051012501041071MD1010011+9999MW1021EQDQ01+011311APOSP 
0043010300999991959012116004+69700+019017FM-12+001499999V0201201N001519999999N0600001N9+99999+99999099311ADDAY121999GF108991011051012501071999MW1031
0043010300999991959012117004+69700+019017FM-12+001499999V0201401N00151024001CN0600001N9+99999+99999099301ADDAY121999GF108991081001999999071999MW1031
0102010300999991959012118004+69700+019017FM-12+001499999V0201401N00151021001CN0600001N9-00781+99999099331ADDAY121999GF108991081001022501071999KA1999M-00781KA2999N-01281MD1210031+9999MW1021EQDQ01+011311APOSP 
0076010300999991959012200004+69700+019017FM-12+001499999V0200901N00511012301CN0500001N9-00721+99999099391ADDAY121999GF108991081051012501999999MD1010021+9999MW1031EQDQ01+011311APOSP 
0076010300999991959012203004+69700+019017FM-12+001499999V0200901N00411012301CN0500001N9-00721+99999099381ADDAY121999GF108991081051012501999999MD1710011+9999MW1021EQDQ01+011301APOSP 
0043010300999991959012204004+69700+019017FM-12+001499999V0200901N00461012301CN0500001N9+99999+99999099351ADDAY121999GF108991081051012501999999MW1021
0043010300999991959012205004+69700+019017FM-12+001499999V0200201N00461012301CN0500001N9+99999+99999099351ADDAY121999GF108991081051012501999999MW1021
0102010300999991959012206004+69700+019017FM-12+001499999V0200201N00461012301CN0500001N9-00781+99999099361ADDAY121999GF108991081051012501999999KA1999M-00671KA2999N-00831MD1710021+9999MW1021EQDQ01+011311APOSP 
0043010300999991959012207004+69700+019017FM-12+001499999V0200901N01031012301CN0500001N9+99999+99999099381ADDAY121999GF108991081051012501999999MW1021
0043010300999991959012208004+69700+019017FM-12+001499999V0200901N00511012301CN0500001N9+99999+99999099441ADDAY121999GF108991081051012501999999MW1021
0076010300999991959012209004+69700+019017FM-12+001499999V0200901N005119999999N0500001N9-00671+99999099471ADDAY121999GF108991011051012501021999MD1210111+9999MW1021EQDQ01+011321APOSP 
0043010300999991959012210004+69700+019017FM-12+001499999V0200701N006719999999N0500001N9+99999+99999099461ADDAY121999GF108991021051012501021999MW1021
0043010300999991959012211004+69700+019017FM-12+001499999V0200901N006719999999N0400001N9+99999+99999099461ADDAY121999GF108991021051012501021999MW1151
0076010300999991959012212004+69700+019017FM-12+001499999V0200901N005119999999N0400001N9-00611+99999099501ADDAY121999GF108991021021012501021999MD1210031+9999MW1021EQDQ01+012321APOSP 
0043010300999991959012213004+69700+019017FM-12+001499999V0200901N006719999999N0400001N9+99999+99999099531ADDAY121999GF108991021021012501021999MW1021
0043010300999991959012214004+69700+019017FM-12+001499999V0200901N005119999999N0400001N9+99999+99999099561ADDAY121999GF108991011021012501021999MW1021
0076010300999991959012215004+69700+019017FM-12+001499999V0200901N006719999999N0400001N9-00561+99999099571ADDAY121999GF108991011021012501021999MD1210071+9999MW1021EQDQ01+012311APOSP 
0043010300999991959012216004+69700+019017FM-12+001499999V0200901N004619999999N0400001N9+99999+99999099611ADDAY121999GF108991011051012501021999MW1021
0043010300999991959012217004+69700+019017FM-12+001499999V0200901N004619999999N0400001N9+99999+99999099651ADDAY121999GF108991011051012501021999MW1021
0102010300999991959012218004+69700+019017FM-12+001499999V0200501N00261015001CN0400001N9-00441+99999099681ADDAY121999GF108991081001017501021999KA1999M-00441KA2999N-00781MD1210111+9999MW1021EQDQ01+011311APOSP 
0076010300999991959012300004+69700+019017FM-12+001499999V0200701N002619999999N0600001N9-00561+99999099811ADDAY121999GF107991011001999999041071MD1210051+9999MW1021EQDQ01+011301APOSP 
0076010300999991959012303004+69700+019017FM-12+001499999V0200701N001019999999N0600001N9-00561+99999099851ADDAY121999GF107991011051012501011071MD1210041+9999MW1031EQDQ01+010301APOSP 
0043010300999991959012304004+69700+019017FM-12+001499999V0201601N002619999999N0600001N9+99999+99999099871ADDAY121999GF107991011051012501011071MW1021
0043010300999991959012305004+69700+019017FM-12+001499999V0201101N002619999999N0600001N9+99999+99999099881ADDAY121999GF106991011051012501011071MW1011
0102010300999991959012306004+69700+019017FM-12+001499999V0200501N001019999999N0600001N9-00611+99999099901ADDAY121999GF103991011051012501041051KA1999M-00441KA2999N-00671MD1210051+9999MW1011EQDQ01+010301APOSP 
0043010300999991959012307004+69700+019017FM-12+001499999V0201101N005119999999N0600001N9+99999+99999099951ADDAY101999GF101991011051012501041001MW1011
0043010300999991959012308004+69700+019017FM-12+001499999V0201101N004619999999N0600001N9+99999+99999099991ADDAY101999GF101991011051012501041001MW1021
0076010300999991959012309004+69700+019017FM-12+001499999V0201401N004619999999N0600001N9-00501+99999100041ADDAY101999GF102991011051012501041011MD1210141+9999MW1031EQDQ01+011311APOSP 
0043010300999991959012310004+69700+019017FM-12+001499999V0203601N002619999999N0600001N9+99999+99999100101ADDAY101999GF103991011051012501041011MW1031
0043010300999991959012311004+69700+019017FM-12+001499999V0201101N002619999999N0600001N9+99999+99999100131ADDAY101999GF103991011051012501041011MW1021
0076010300999991959012312004+69700+019017FM-12+001499999V0200901N002619999999N0600001N9-00611+99999100131ADDAY101999GF101991011051012501041011MD1110091+9999MW1011EQDQ01+011311APOSP 
0043010300999991959012313004+69700+019017FM-12+001499999V0201101N005119999999N0600001N9+99999+99999100121ADDAY101999GF101991011051012501041011MW1021
0043010300999991959012314004+69700+019017FM-12+001499999V0200901N006719999999N0600001N9+99999+99999100111ADDAY101999GF101991011051012501041011MW1011
0076010300999991959012315004+69700+019017FM-12+001499999V0200701N009319999999N0600001N9-00561+99999100111ADDAY101999GF101991011051012501041021MD1710021+9999MW1021EQDQ01+012311APOSP 
0043010300999991959012316004+69700+019017FM-12+001499999V0201801N001019999999N0600001N9+99999+99999100121ADDAY101999GF101991011051012501041021MW1021
0043010300999991959012317004+69700+019017FM-12+001499999V0200901N002619999999N0600001N9+99999+99999100161ADDAY101999GF101991011051012501041021MW1021
0102010300999991959012318004+69700+019017FM-12+001499999V0201101N004619999999N0600001N9-00671+99999100181ADDAY101999GF103991011051012501041021KA1999M-00501KA2999N-00781MD1210071+9999MW1031EQDQ01+011311APOSP 
0076010300999991959012400004+69700+019017FM-12+001499999V0200901N006719999999N0600001N9-00611+99999100251ADDAY101999GF106991021021012501041011MD1210031+9999MW1031EQDQ01+012311APOSP 
0076010300999991959012403004+69700+019017FM-12+001499999V0200901N005119999999N0600001N9-00611+99999100281ADDAY121999GF106991021081012501041011MD1210031+9999MW1021EQDQ01+011311APOSP 
0043010300999991959012404004+69700+019017FM-12+001499999V0200901N005119999999N0600001N9+99999+99999100281ADDAY121999GF105991011081012501041011MW1011
0043010300999991959012405004+69700+019017FM-12+001499999V0200701N005119999999N0600001N9+99999+99999100281ADDAY121999GF105991011081012501041011MW1021
0102010300999991959012406004+69700+019017FM-12+001499999V0200501N007719999999N0600001N9-00501+99999100321ADDAY121999GF106991021051012501041011KA1999M-00501KA2999N-00721MD1210041+9999MW1031EQDQ01+012311APOSP 
0043010300999991959012407004+69700+019017FM-12+001499999V0200701N006719999999N0600001N9+99999+99999100351ADDAY121999GF106991021051012501041011MW1021
0043010300999991959012408004+69700+019017FM-12+001499999V0200901N004619999999N0600001N9+99999+99999100411ADDAY121999GF106991011051012501041011MW1021
0076010300999991959012409004+69700+019017FM-12+001499999V0200701N005119999999N0600001N9-00501+99999100461ADDAY121999GF107991011081012501041011MD1210141+9999MW1031EQDQ01+011311APOSP 
0043010300999991959012410004+69700+019017FM-12+001499999V0201901N004619999999N0600001N9+99999+99999100491ADDAY121999GF107991041001999999011071MW1021
0043010300999991959012411004+69700+019017FM-12+001499999V0201101N004619999999N0600001N9+99999+99999100521ADDAY121999GF107991041001999999011071MW1021
0076010300999991959012412004+69700+019017FM-12+001499999V0200901N004619999999N0600001N9-00501+99999100571ADDAY121999GF107991041001999999011071MD1210111+9999MW1021EQDQ01+011311APOSP 
0043010300999991959012413004+69700+019017FM-12+001499999V0200901N004619999999N0600001N9+99999+99999100611ADDAY121999GF107991041001999999011071MW1021
0043010300999991959012414004+69700+019017FM-12+001499999V0200901N002619999999N0600001N9+99999+99999100631ADDAY121999GF107991041001999999011071MW1021
0076010300999991959012415004+69700+019017FM-12+001499999V0200901N00101024001CN0600001N9-00561+99999100691ADDAY121999GF107991051001999999011071MD1210121+9999MW1031EQDQ01+010301APOSP 
0043010300999991959012416004+69700+019017FM-12+001499999V0200901N002619999999N0600001N9+99999+99999100741ADDAY121999GF105991041001999999051061MW1011
0043010300999991959012417004+69700+019017FM-12+001499999V0200501N001019999999N0600001N9+99999+99999100781ADDAY111999GF104991011051012501041051MW1011
0102010300999991959012418004+69700+019017FM-12+001499999V0203601N001019999999N0600001N9-00671+99999100811ADDAY121999GF106991011051012501041061KA1999M-00441KA2999N-00671MD1210121+9999MW1031EQDQ01+010301APOSP 
0076010300999991959012500004+69700+019017FM-12+001499999V0202501N002619999999N0600001N9-00781+99999101141ADDAY121999GF101991011041008001001001MD1110151+9999MW1011EQDQ01+011301APOSP 
0076010300999991959012503004+69700+019017FM-12+001499999V0202501N00261220001CN0600001N9-00781+99999101231ADDAY101999GF100991001001999999001001MD1310091+9999MW1011EQDQ01+011301APOSP 
0102010300999991959012506004+69700+019017FM-12+001499999V0202501N00461220001CN0600001N9-00781+99999101261ADDAY101999GF101991001001999999001041KA1999M-00561KA2999N-00831MD1110031+9999MW1031EQDQ01+011311APOSP 
0092010300999991959012509004+69700+019017FM-12+001499999V0202501N00461220001CN0600001N9-00721+99999101261ADDAY101999GF101991999001999999041001MD1410001+9999MW1021EQDQ01+000002SCOTLCQ02+011311APOSP 
0076010300999991959012512004+69700+019017FM-12+001499999V0202501N00671220001CN0600001N9-00611+99999101231ADDAY101999GF104991001001999999041011MD1810031+9999MW1031EQDQ01+012311APOSP 
0076010300999991959012515004+69700+019017FM-12+001499999V0202301N007719999999N0600001N9-00611+99999101121ADDAY111999GF106991021051012501071021MD1710111+9999MW1031EQDQ01+012311APOSP 
0102010300999991959012518004+69700+019017FM-12+001499999V0202501N006719999999N0600001N9-00561+99999100961ADDAY101999GF102991011051012501041001KA1999M-00561KA2999N-00781MD1710161+9999MW1011EQDQ01+012321APOSP 
0076010300999991959012600004+69700+019017FM-12+001499999V0202201N00771012301CN0200001N9-00221+99999100031ADDAY171999GF108991081001012501021999MD1710451+9999MW1711EQDQ01+012321APOSP 
0076010300999991959012603004+69700+019017FM-12+001499999V0202201N01131007801CN0150001N9+00001+99999099471ADDAY171999GF108991071071008001021999MD1710561+9999MW1711EQDQ01+012321APOSP 
0043010300999991959012604004+69700+019017FM-12+001499999V0202301N00771007801CN0080001N9+99999+99999099371ADDAY171999GF108991071071008001021999MW1711
0043010300999991959012605004+69700+019017FM-12+001499999V0202301N00931007801CN0100001N9+99999+99999099281ADDAY171999GF108991071071008001021999MW1711
0113010300999991959012606004+69700+019017FM-12+001499999V0202301N00931001501CN0020001N9+00061+99999099261ADDAA199006091AY171999GF109991091999001501999999KA1999M+00171KA2999N-00611MD1610211+9999MW1691EQDQ01+012321APOSP 
0043010300999991959012607004+69700+019017FM-12+001499999V0202701N00511007801CN0200001N9+99999+99999099381ADDAY171999GF108991071071008001021999MW1681
0043010300999991959012608004+69700+019017FM-12+001499999V0202001N00311007801CN0400001N9+99999+99999099521ADDAY181999GF107991061091008001061999MW1151
0076010300999991959012609004+69700+019017FM-12+001499999V0202501N00461007801CN0400001N9+00221+99999099541ADDAY181999GF107991061091008001061999MD1110281+9999MW1151EQDQ01+011311APOSP 
0043010300999991959012610004+69700+019017FM-12+001499999V0202701N00461007801CN0100001N9+99999+99999099531ADDAY181999GF107991071091008001001001MW1851
0043010300999991959012611004+69700+019017FM-12+001499999V0202501N00461007801CN0140001N9+99999+99999099471ADDAY181999GF107991071091008001001001MW1851
0076010300999991959012612004+69700+019017FM-12+001499999V0202501N00461007801CN0060001N9+00171+99999099401ADDAY181999GF108991081091008001999999MD1710141+9999MW1851EQDQ01+011311APOSP 
0043010300999991959012613004+69700+019017FM-12+001499999V0202301N00261000601CN0004001N9+99999+99999099281ADDAY181999GF109991091999000751999999MW1861
0043010300999991959012614004+69700+019017FM-12+001499999V0202501N00261001501CN0009001N9+99999+99999099271ADDAY181999GF109991091999001501999999MW1861
0076010300999991959012615004+69700+019017FM-12+001499999V0200201N00261000601CN0005001N9-00061+99999099421ADDAY181999GF109991091999000751999999MD1310021+9999MW1861EQDQ01+011311APOSP 
0043010300999991959012616004+69700+019017FM-12+001499999V0203401N00671004501CN0100001N9+99999+99999099661ADDAY181999GF108991081091004501999999MW1851
0043010300999991959012617004+69700+019017FM-12+001499999V0203401N00261007801CN0140001N9+99999+99999099851ADDAY181999GF107991071091008001001001MW1851
0129010300999991959012618004+69700+019017FM-12+001499999V0203401N00461004501CN0040001N9-00171+99999999999ADDAA199015091AY181999GF108991081091004501999999KA1999M+00281KA2999N-00171MD1210582+9999MW1871EQDQ01+011311APOSP Q02+000582APC3  
0076010300999991959012700004+69700+019017FM-12+001499999V0203401N00261007801CN0080001N9-00221+99999100831ADDAY181999GF107991071091008001001001MD1210371+9999MW1851EQDQ01+011311APOSP 
0076010300999991959012703004+69700+019017FM-12+001499999V0202301N00461007801CN0040001N9-00171+99999101111ADDAY181999GF107991071091008001001001MD1210281+9999MW1851EQDQ01+011311APOSP 
0043010300999991959012704004+69700+019017FM-12+001499999V0202701N00461007801CN0100001N9+99999+99999101231ADDAY181999GF107991071091008001001001MW1851
0043010300999991959012705004+69700+019017FM-12+001499999V0203201N00461007801CN0060001N9+99999+99999101361ADDAY181999GF107991071091008001001001MW1851
0113010300999991959012706004+69700+019017FM-12+001499999V0202701N00261004501CN0050001N9-00111+99999101441ADDAA199004091AY181999GF108991081091004501999999KA1999M-00061KA2999N-00281MD1210331+9999MW1851EQDQ01+011311APOSP 
0043010300999991959012707004+69700+019017FM-12+001499999V0202701N00261004501CN0070001N9+99999+99999101541ADDAY181999GF108991081091004501999999MW1851
0043010300999991959012708004+69700+019017FM-12+001499999V0202501N00101004501CN0020001N9+99999+99999101651ADDAY181999GF108991081091004501999999MW1851
0076010300999991959012709004+69700+019017FM-12+001499999V0202301N00101004501CN0020001N9-00171+99999101691ADDAY181999GF108991081091004501999999MD1210251+9999MW1851EQDQ01+010301APOSP 
0043010300999991959012710004+69700+019017FM-12+001499999V0202301N00151004501CN0040001N9+99999+99999101771ADDAY181999GF108991081091004501999999MW1851
0043010300999991959012711004+69700+019017FM-12+001499999V0202301N00261004501CN0030001N9+99999+99999101781ADDAY181999GF108991081091004501999999MW1851
0076010300999991959012712004+69700+019017FM-12+001499999V0202301N00261007801CN0200001N9-00171+99999101801ADDAY181999GF108991081091008001999999MD1110111+9999MW1851EQDQ01+011301APOSP 
0043010300999991959012713004+69700+019017FM-12+001499999V0202301N00311007801CN0150001N9+99999+99999101771ADDAY181999GF108991081091008001999999MW1851
0043010300999991959012714004+69700+019017FM-12+001499999V0202301N00361007801CN0040001N9+99999+99999101711ADDAY181999GF108991081091008001999999MW1851
0076010300999991959012715004+69700+019017FM-12+001499999V0202301N00461007801CN0050001N9-00111+99999101631ADDAY181999GF108991081091008001999999MD1710171+9999MW1851EQDQ01+011301APOSP 
0043010300999991959012716004+69700+019017FM-12+001499999V0202301N00461007801CN0040001N9+99999+99999101521ADDAY181999GF108991081071008001999999MW1711
0043010300999991959012717004+69700+019017FM-12+001499999V0202301N00461007801CN0060001N9+99999+99999101401ADDAY171999GF108991081071008001999999MW1711
0113010300999991959012718004+69700+019017FM-12+001499999V0202301N00511007801CN0060001N9-00061+99999101301ADDAA199004091AY181999GF108991081071008001999999KA1999M-00061KA2999N-00221MD1710331+9999MW1711EQDQ01+011301APOSP 
0076010300999991959012800004+69700+019017FM-12+001499999V0202301N00821007801CN0120001N9+00331+99999100621ADDAY161999GF108991071071008001021999MD1710311+9999MW1631EQDQ01+012331APOSP 
0076010300999991959012803004+69700+019017FM-12+001499999V0202301N00671007801CN0100001N9+00331+99999100651ADDAY161999GF108991071071008001021999MD1310031+9999MW1611EQDQ01+012321APOSP 
0043010300999991959012804004+69700+019017FM-12+001499999V0202301N00671007801CN0080001N9+99999+99999100701ADDAY161999GF108991081091008001999999MW1811
0043010300999991959012805004+69700+019017FM-12+001499999V0202301N00511007801CN0200001N9+99999+99999100681ADDAY181999GF108991081091008001999999MW1811
0113010300999991959012806004+69700+019017FM-12+001499999V0202301N00261007801CN0400001N9+00331+99999100701ADDAA199020091AY181999GF107991071091008001001001KA1999M+00441KA2999N-00061MD1310051+9999MW1151EQDQ01+011321APOSP 
0043010300999991959012807004+69700+019017FM-12+001499999V0202701N00261007801CN0300001N9+99999+99999100721ADDAY181999GF107991071091008001001001MW1801
0043010300999991959012808004+69700+019017FM-12+001499999V0202301N00511007801CN0250001N9+99999+99999100741ADDAY181999GF107991071091008001001001MW1801
0076010300999991959012809004+69700+019017FM-12+001499999V0202501N00511007801CN0400001N9+00441+99999100771ADDAY181999GF107991071081008001001001MD1110071+9999MW1251EQDQ01+011311APOSP 
0043010300999991959012810004+69700+019017FM-12+001499999V0202501N00361007801CN0400001N9+99999+99999100831ADDAY121999GF107991071081008001001001MW1151
0043010300999991959012811004+69700+019017FM-12+001499999V0202301N00461007801CN0300001N9+99999+99999100871ADDAY181999GF107991071081008001001001MW1801
0076010300999991959012812004+69700+019017FM-12+001499999V0202301N00461007801CN0400001N9+00391+99999100891ADDAY181999GF107991071081008001001001MD1210121+9999MW1151EQDQ01+011311APOSP 
0043010300999991959012813004+69700+019017FM-12+001499999V0202301N00671007801CN0400001N9+99999+99999100881ADDAY181999GF107991071081008001001001MW1151
0043010300999991959012814004+69700+019017FM-12+001499999V0202501N00671007801CN0400001N9+99999+99999100881ADDAY181999GF107991071081008001001001MW1151
0076010300999991959012815004+69700+019017FM-12+001499999V0202501N00461007801CN0250001N9+00331+99999100921ADDAY181999GF107991071081008001001001MD1310031+9999MW1801EQDQ01+011311APOSP 
0043010300999991959012816004+69700+019017FM-12+001499999V0202501N00671007801CN0200001N9+99999+99999101011ADDAY181999GF108991081081008001999999MW1801
0043010300999991959012817004+69700+019017FM-12+001499999V0202501N00261007801CN0100001N9+99999+99999101071ADDAY181999GF108991081091008001999999MW1831
0113010300999991959012818004+69700+019017FM-12+001499999V0202601N00671004501CN0060001N9+00221+99999101161ADDAA199002091AY181999GF108991081091004501999999KA1999M+00441KA2999N+00171MD1210241+9999MW1871EQDQ01+012311APOSP 
0076010300999991959012900004+69700+019017FM-12+001499999V0202101N00461007801CN0300001N9+00221+99999101611ADDAY181999GF107991071091008001999999MD1210151+9999MW1831EQDQ01+011311APOSP 
0076010300999991959012903004+69700+019017FM-12+001499999V0202301N004619999999N0500001N9+00221+99999101401ADDAY181999GF102991011051008001041021MD1710211+9999MW1011EQDQ01+011301APOSP 
0043010300999991959012904004+69700+019017FM-12+001499999V0202301N004619999999N0500001N9+99999+99999101281ADDAY111999GF104991021051008001071021MW1031
0043010300999991959012905004+69700+019017FM-12+001499999V0202301N005119999999N0500001N9+99999+99999101151ADDAY121999GF107991031051008001071999MW1031
0113010300999991959012906004+69700+019017FM-12+001499999V0202101N007719999999N0300001N9+00281+99999101061ADDAA199001091AY181999GF108991011051008001021999KA1999M+00281KA2999N+00171MD1710341+9999MW1681EQDQ01+012311APOSP 
0043010300999991959012907004+69700+019017FM-12+001499999V0202301N007719999999N0400001N9+99999+99999100891ADDAY171999GF108991041051008001021999MW1601
0043010300999991959012908004+69700+019017FM-12+001499999V0202301N00931007801CN0200001N9+99999+99999100891ADDAY161999GF108991051051008001021999MW1621
0076010300999991959012909004+69700+019017FM-12+001499999V0202301N00771007801CN0400001N9+00281+99999100801ADDAY171999GF107991071051008001041999MD1710261+9999MW1601EQDQ01+012331APOSP 
0043010300999991959012910004+69700+019017FM-12+001499999V0202301N00771007801CN0250001N9+99999+99999100681ADDAY161999GF107991071051008001001001MW1601
0043010300999991959012911004+69700+019017FM-12+001499999V0202301N00931007801CN0250001N9+99999+99999100621ADDAY161999GF108991081051008001999999MW1611
0076010300999991959012912004+69700+019017FM-12+001499999V0202301N00771007801CN0300001N9+00501+99999100571ADDAY161999GF108991081051008001999999MD1710231+9999MW1611EQDQ01+012331APOSP 
0043010300999991959012913004+69700+019017FM-12+001499999V0202301N00771007801CN0150001N9+99999+99999100591ADDAY161999GF108991081051008001999999MW1611
0043010300999991959012914004+69700+019017FM-12+001499999V0202301N00261007801CN0150001N9+99999+99999100581ADDAY161999GF108991061051008001021999MW1611
0076010300999991959012915004+69700+019017FM-12+001499999V0202301N00671007801CN0250001N9+00331+99999100571ADDAY161999GF108991081051008001999999MD1010001+9999MW1611EQDQ01+012311APOSP 
0043010300999991959012916004+69700+019017FM-12+001499999V0202001N00511007801CN0150001N9+99999+99999100571ADDAY161999GF108991081051008001999999MW1611
0043010300999991959012917004+69700+019017FM-12+001499999V0202701N00511007801CN0300001N9+99999+99999100571ADDAY161999GF108991081051008001999999MW1151
0113010300999991959012918004+69700+019017FM-12+001499999V0202301N00311007801CN0250001N9+00331+99999100561ADDAA199008091AY161999GF108991081051008001999999KA1999M+00501KA2999N+00221MD1610011+9999MW1231EQDQ01+011311APOSP 
0076010300999991959013000004+69700+019017FM-12+001499999V0202501N00261007801CN0100001N9+00281+99999100551ADDAY181999GF107991071091008001001001MD1710011+9999MW1871EQDQ01+011311APOSP 
0076010300999991959013003004+69700+019017FM-12+001499999V0202501N00461007801CN0140001N9+00171+99999100531ADDAY181999GF107991071091008001001001MD1710021+9999MW1851EQDQ01+011311APOSP 
0043010300999991959013004004+69700+019017FM-12+001499999V0202501N00671007801CN0200001N9+99999+99999100521ADDAY181999GF107991071091008001001001MW1701
0043010300999991959013005004+69700+019017FM-12+001499999V0202501N00461007801CN0400001N9+99999+99999100511ADDAY181999GF106991051031008001061001MW1151
0113010300999991959013006004+69700+019017FM-12+001499999V0202501N00261007801CN0120001N9+00171+99999100541ADDAA199004091AY181999GF107991071091008001001001KA1999M+00391KA2999N+00061MD1210011+9999MW1871EQDQ01+011311APOSP 
0043010300999991959013007004+69700+019017FM-12+001499999V0202901N00101007801CN0070001N9+99999+99999100571ADDAY181999GF107991071091008001001001MW1851
0043010300999991959013008004+69700+019017FM-12+001499999V0202301N00261007801CN0070001N9+99999+99999100591ADDAY181999GF107991071091008001001001MW1851
0076010300999991959013009004+69700+019017FM-12+001499999V0202701N00261007801CN0070001N9+00061+99999100631ADDAY181999GF108991081091008001999999MD1210091+9999MW1851EQDQ01+011301APOSP 
0043010300999991959013010004+69700+019017FM-12+001499999V0202001N00261007801CN0300001N9+99999+99999100681ADDAY181999GF107991071091008001999999MW1151
0043010300999991959013011004+69700+019017FM-12+001499999V0201801N00261007801CN0300001N9+99999+99999100711ADDAY181999GF107991071091008001061999MW1851
0076010300999991959013012004+69700+019017FM-12+001499999V0202301N00261007801CN0200001N9+00001+99999100741ADDAY181999GF107991071091008001999999MD1210111+9999MW1851EQDQ01+011301APOSP 
0043010300999991959013013004+69700+019017FM-12+001499999V0202501N00261007801CN0400001N9+99999+99999100771ADDAY181999GF107991071091008001061999MW1021
0043010300999991959013014004+69700+019017FM-12+001499999V0202301N00261007801CN0400001N9+99999+99999100791ADDAY121999GF107991071091008001061999MW1151
0076010300999991959013015004+69700+019017FM-12+001499999V0202301N00311007801CN0400001N9+00001+99999100781ADDAY181999GF107991071091008001061999MD1210041+9999MW1151EQDQ01+011311APOSP 
0043010300999991959013016004+69700+019017FM-12+001499999V0202301N00261007801CN0015001N9+99999+99999100791ADDAY181999GF108991081091008001999999MW1851
0043010300999991959013017004+69700+019017FM-12+001499999V0202301N00311007801CN0015001N9+99999+99999100791ADDAY181999GF108991081091008001999999MW1851
0113010300999991959013018004+69700+019017FM-12+001499999V0202301N00461007801CN0100001N9+00001+99999100781ADDAA199005091AY181999GF108991081091008001999999KA1999M+00221KA2999N-00061MD1410001+9999MW1851EQDQ01+011311APOSP 
0076010300999991959013100004+69700+019017FM-12+001499999V0202301N00461007801CN0100001N9+00061+99999100831ADDAY181999GF108991081091008001999999MD1010011+9999MW1851EQDQ01+011311APOSP 
0076010300999991959013103004+69700+019017FM-12+001499999V0200701N00101002401CN0015001N9+00061+99999100731ADDAY181999GF109991091999002501999999MD1710101+9999MW1851EQDQ01+010301APOSP 
0043010300999991959013104004+69700+019017FM-12+001499999V0200701N00151002401CN0015001N9+99999+99999100751ADDAY181999GF109991091999002501999999MW1851
0043010300999991959013105004+69700+019017FM-12+001499999V0200701N00101007801CN0150001N9+99999+99999100791ADDAY181999GF108991081091008001999999MW1851
0113010300999991959013106004+69700+019017FM-12+001499999V0200701N00101007801CN0400001N9-00061+99999100841ADDAA199008091AY181999GF108991081091008001999999KA1999M+00111KA2999N-00061MD1310111+9999MW1151EQDQ01+010301APOSP 
0043010300999991959013107004+69700+019017FM-12+001499999V0209991C00001007801CN0400001N9+99999+99999100941ADDAY181999GF108991081091008001999999MW1151
0043010300999991959013108004+69700+019017FM-12+001499999V0202701N00151007801CN0400001N9+99999+99999101041ADDAY181999GF107991071091008001001001MW1151
0076010300999991959013109004+69700+019017FM-12+001499999V0209991C00001007801CN0200001N9-00061+99999101151ADDAY121999GF107991071091008001001001MD1210311+9999MW1151EQDQ01+010301APOSP 
0043010300999991959013110004+69700+019017FM-12+001499999V0203201N00101007801CN0070001N9+99999+99999101241ADDAY181999GF107991071091008001001001MW1851
0043010300999991959013111004+69700+019017FM-12+001499999V0202301N00261007801CN0100001N9+99999+99999101291ADDAY181999GF107991071091008001001001MW1851
0076010300999991959013112004+69700+019017FM-12+001499999V0202501N00261007801CN0400001N9-00061+99999101361ADDAY181999GF106991051081008001061001MD1210211+9999MW1151EQDQ01+011301APOSP 
0043010300999991959013113004+69700+019017FM-12+001499999V0202301N00261007801CN0400001N9+99999+99999101391ADDAY121999GF106991051081008001061021MW1151
0043010300999991959013114004+69700+019017FM-12+001499999V0202301N00101007801CN0080001N9+99999+99999101461ADDAY181999GF107991071091008001001001MW1851
0076010300999991959013115004+69700+019017FM-12+001499999V0202501N00261007801CN0080001N9-00061+99999101511ADDAY181999GF107991071091008001001001MD1210151+9999MW1851EQDQ01+011301APOSP 
0043010300999991959013116004+69700+019017FM-12+001499999V0200701N00101007801CN0100001N9+99999+99999101621ADDAY181999GF107991071091008001001001MW1851
0043010300999991959013117004+69700+019017FM-12+001499999V0202301N00261007801CN0120001N9+99999+99999101711ADDAY181999GF108991081091008001999999MW1851
0113010300999991959013118004+69700+019017FM-12+001499999V0202501N00261007801CN0100001N9-00061+99999101821ADDAA199003091AY181999GF108991081091008001999999KA1999M+00001KA2999N-00111MD1210311+9999MW1851EQDQ01+011301APOSP 
0076010300999991959020100004+69700+019017FM-12+001499999V0202301N00151007801CN0400001N9-00221+99999102341ADDAY181999GF107991071091008001999999MD1210201+9999MW1261EQDQ01+011301APOSP 
0076010300999991959020103004+69700+019017FM-12+001499999V0202301N00101007801CN0500001N9-00281+99999102351ADDAY181999GF108991081091008001999999MD1210011+9999MW1021EQDQ01+011301APOSP 
0113010300999991959020106004+69700+019017FM-12+001499999V0202301N00461007801CN0500001N9-00111+99999102161ADDAA199003091AY181999GF107991061051008001041001KA1999M+00001KA2999N-00331MD1710191+9999MW1011EQDQ01+011301APOSP 
0076010300999991959020109004+69700+019017FM-12+001499999V0202301N00461007801CN0300001N9+00001+99999101861ADDAY171999GF108991081051008001999999MD1610301+9999MW1701EQDQ01+011311APOSP 
0076010300999991959020112004+69700+019017FM-12+001499999V0202301N00931007801CN0400001N9+00221+99999101371ADDAY171999GF107991071051008001001001MD1710491+9999MW1151EQDQ01+012321APOSP 
0076010300999991959020115004+69700+019017FM-12+001499999V0202301N01231007801CN0300001N9+00331+99999100941ADDAY171999GF108991071051008001021999MD1710431+9999MW1601EQDQ01+013321APOSP 
0113010300999991959020118004+69700+019017FM-12+001499999V0202301N00931007801CN0100001N9+00281+99999100811ADDAA199002091AY171999GF108991071051008001021999KA1999M+00391KA2999N-00111MD1610131+9999MW1611EQDQ01+012331APOSP 
0076010300999991959020200004+69700+019017FM-12+001499999V0202001N00151007801CN0300001N9+00221+99999101291ADDAY181999GF106991061091008001001001MD1210231+9999MW1831EQDQ01+011311APOSP 
0076010300999991959020203004+69700+019017FM-12+001499999V0202301N00621007801CN0200001N9+00221+99999101331ADDAY181999GF108991081091008001999999MD1210041+9999MW1831EQDQ01+012311APOSP 
0043010300999991959020204004+69700+019017FM-12+001499999V0202301N00621007801CN0100001N9+99999+99999101351ADDAY181999GF108991081091008001999999MW1831
0043010300999991959020205004+69700+019017FM-12+001499999V0202301N00621007801CN0200001N9+99999+99999101351ADDAY181999GF108991081091008001999999MW1801
0113010300999991959020206004+69700+019017FM-12+001499999V0202501N00871007801CN0200001N9+00281+99999101351ADDAA199008091AY181999GF108991081091008001999999KA1999M+00391KA2999N+00171MD1210021+9999MW1801EQDQ01+012311APOSP 
0043010300999991959020207004+69700+019017FM-12+001499999V0202501N00511007801CN0250001N9+99999+99999101311ADDAY181999GF108991081091008001999999MW1801
0043010300999991959020208004+69700+019017FM-12+001499999V0202501N00311007801CN0200001N9+99999+99999101321ADDAY181999GF108991081091008001999999MW1801
0076010300999991959020209004+69700+019017FM-12+001499999V0202301N00261007801CN0150001N9+00331+99999101321ADDAY181999GF108991081091008001999999MD1510031+9999MW1801EQDQ01+011311APOSP 
0043010300999991959020210004+69700+019017FM-12+001499999V0203201N00261007801CN0050001N9+99999+99999101421ADDAY181999GF108991081091008001999999MW1801
0043010300999991959020211004+69700+019017FM-12+001499999V0203601N00311007801CN0100001N9+99999+99999101511ADDAY181999GF107991071091008001999999MW1801
0076010300999991959020212004+69700+019017FM-12+001499999V0203401N00621007801CN0060001N9+00331+99999101571ADDAY181999GF107991071091008001999999MD1210251+9999MW1801EQDQ01+011311APOSP 
0043010300999991959020213004+69700+019017FM-12+001499999V0203401N00411007801CN0060001N9+99999+99999101641ADDAY181999GF107991071091008001999999MW1801
0043010300999991959020214004+69700+019017FM-12+001499999V0203401N00261007801CN0070001N9+99999+99999101751ADDAY181999GF108991081091008001999999MW1801
0076010300999991959020215004+69700+019017FM-12+001499999V0200501N00261007801CN0300001N9+00281+99999101841ADDAY181999GF107991071091008001999999MD1210271+9999MW1021EQDQ01+011311APOSP 
0043010300999991959020216004+69700+019017FM-12+001499999V0203601N00261007801CN0400001N9+99999+99999101911ADDAY181999GF107991071091008001999999MW1021
0043010300999991959020217004+69700+019017FM-12+001499999V0202501N00151007801CN0400001N9+99999+99999101951ADDAY121999GF107991071091008001999999MW1021
0113010300999991959020218004+69700+019017FM-12+001499999V0203401N00101007801CN0500001N9+00281+99999102001ADDAA199004091AY181999GF107991071081008001999999KA1999M+00441KA2999N+00171MD1210161+9999MW1021EQDQ01+011311APOSP 
0076010300999991959020300004+69700+019017FM-12+001499999V0202301N00461007801CN0250001N9+00281+99999101941ADDAY161999GF108991081051008001999999MD1610101+9999MW1601EQDQ01+011311APOSP 
0076010300999991959020303004+69700+019017FM-12+001499999V0202301N00461007801CN0100001N9+00331+99999101891ADDAY161999GF108991081051008001999999MD1710051+9999MW1611EQDQ01+011311APOSP 
0043010300999991959020304004+69700+019017FM-12+001499999V0202301N00671007801CN0100001N9+99999+99999101881ADDAY161999GF108991081051008001999999MW1611
0043010300999991959020305004+69700+019017FM-12+001499999V0202301N00671007801CN0090001N9+99999+99999101871ADDAY161999GF108991071051008001021999MW1611
0113010300999991959020306004+69700+019017FM-12+001499999V0202301N00671007801CN0070001N9+00331+99999101851ADDAA199007091AY161999GF108991071051008001021999KA1999M+00391KA2999N+00171MD1710041+9999MW1631EQDQ01+012311APOSP 
0043010300999991959020307004+69700+019017FM-12+001499999V0202401N00461007801CN0070001N9+99999+99999101841ADDAY161999GF108991071071008001021999MW1631
0043010300999991959020308004+69700+019017FM-12+001499999V0202401N00461007801CN0080001N9+99999+99999101831ADDAY161999GF108991071071008001021999MW1621
0076010300999991959020309004+69700+019017FM-12+001499999V0202401N00671007801CN0120001N9+00391+99999101801ADDAY161999GF108991071071008001999999MD1710051+9999MW1621EQDQ01+012311APOSP 
0043010300999991959020310004+69700+019017FM-12+001499999V0202301N00671007801CN0250001N9+99999+99999101761ADDAY161999GF107991061051008001071999MW1601
0043010300999991959020311004+69700+019017FM-12+001499999V0202301N00511007801CN0300001N9+99999+99999101741ADDAY161999GF107991061051008001041001MW1601
0076010300999991959020312004+69700+019017FM-12+001499999V0202001N00671007801CN0250001N9+00391+99999101711ADDAY161999GF108991081051008001999999MD1710091+9999MW1611EQDQ01+012321APOSP 
0043010300999991959020313004+69700+019017FM-12+001499999V0202001N00771007801CN0300001N9+99999+99999101621ADDAY161999GF107991071051008001001001MW1611
0043010300999991959020314004+69700+019017FM-12+001499999V0202001N00671007801CN0300001N9+99999+99999101491ADDAY161999GF108991081051008001999999MW1611
0076010300999991959020315004+69700+019017FM-12+001499999V0202301N00931007801CN0150001N9+00391+99999101281ADDAY161999GF108991071071008001999999MD1710431+9999MW1611EQDQ01+012321APOSP 
0043010300999991959020316004+69700+019017FM-12+001499999V0202301N01031007801CN0150001N9+99999+99999101151ADDAY161999GF108991081071008001999999MW1611
0043010300999991959020317004+69700+019017FM-12+001499999V0202301N00931007801CN0120001N9+99999+99999101101ADDAY161999GF108991081071008001999999MW1631
0113010300999991959020318004+69700+019017FM-12+001499999V0202301N00511007801CN0150001N9+00331+99999101071ADDAA199010091AY161999GF108991081071008001999999KA1999M+00501KA2999N+00281MD1610211+9999MW1611EQDQ01+012331APOSP 
0076010300999991959020400004+69700+019017FM-12+001499999V0202501N00931007801CN0300001N9+00441+99999100981ADDAY181999GF107991071091008001999999MD1710181+9999MW1831EQDQ01+012321APOSP 
0076010300999991959020403004+69700+019017FM-12+001499999V0202501N012319999999N0400001N9+00391+99999100591ADDAY181999GF103991031081008001001001MD1710391+9999MW1011EQDQ01+012321APOSP 
0043010300999991959020404004+69700+019017FM-12+001499999V0202701N01031007801CN0300001N9+99999+99999100501ADDAY181999GF108991081091008001999999MW1831
0043010300999991959020405004+69700+019017FM-12+001499999V0203001N00931007801CN0400001N9+99999+99999100571ADDAY181999GF107991071091008001999999MW1021
0113010300999991959020406004+69700+019017FM-12+001499999V0203001N01231007801CN0200001N9+00221+99999100701ADDAA199004091AY181999GF108991081091008001999999KA1999M+00611KA2999N+00221MD1210111+9999MW1871EQDQ01+012321APOSP 
0043010300999991959020407004+69700+019017FM-12+001499999V0203201N01031007801CN0400001N9+99999+99999100831ADDAY181999GF108991081091008001999999MW1151
0043010300999991959020408004+69700+019017FM-12+001499999V0203201N00931007801CN0050001N9+99999+99999100981ADDAY181999GF108991081091008001999999MW1871
0076010300999991959020409004+69700+019017FM-12+001499999V0203001N00931007801CN0200001N9+00061+99999101071ADDAY181999GF107991071091008001999999MD1210371+9999MW1871EQDQ01+012321APOSP 
0043010300999991959020410004+69700+019017FM-12+001499999V0203201N00931007801CN0140001N9+99999+99999101221ADDAY181999GF107991071091008001999999MW1871
0043010300999991959020411004+69700+019017FM-12+001499999V0203601N00261007801CN0140001N9+99999+99999101351ADDAY181999GF107991071091008001999999MW1851
0076010300999991959020412004+69700+019017FM-12+001499999V0202901N00771007801CN0100001N9+00171+99999101441ADDAY181999GF107991071091008001999999MD1210371+9999MW1851EQDQ01+012321APOSP 
0043010300999991959020413004+69700+019017FM-12+001499999V0203201N00931007801CN0070001N9+99999+99999101501ADDAY181999GF108991081091008001999999MW1871
0043010300999991959020414004+69700+019017FM-12+001499999V0203401N00671007801CN0090001N9+99999+99999101651ADDAY181999GF108991081091008001999999MW1851
0076010300999991959020415004+69700+019017FM-12+001499999V0203401N00771007801CN0120001N9+00111+99999101781ADDAY181999GF107991071091008001999999MD1210341+9999MW1851EQDQ01+012311APOSP 
0043010300999991959020416004+69700+019017FM-12+001499999V0203401N00931007801CN0100001N9+99999+99999101851ADDAY181999GF108991081091008001999999MW1851
0043010300999991959020417004+69700+019017FM-12+001499999V0203401N00461007801CN0080001N9+99999+99999101941ADDAY181999GF108991081091008001999999MW1871
0113010300999991959020418004+69700+019017FM-12+001499999V0203401N00671007801CN0080001N9+00171+99999101991ADDAA199004091AY181999GF108991081091008001999999KA1999M+00281KA2999N+00061MD1210211+9999MW1871EQDQ01+012311APOSP 
0076010300999991959020500004+69700+019017FM-12+001499999V0202501N00311007801CN0300001N9+00171+99999102431ADDAY181999GF108991081091008001999999MD1210161+9999MW1871EQDQ01+012311APOSP 
0076010300999991959020503004+69700+019017FM-12+001499999V0203201N00311007801CN0500001N9+00171+99999102691ADDAY181999GF107991071091008001999999MD1210261+9999MW1021EQDQ01+011311APOSP 
0043010300999991959020504004+69700+019017FM-12+001499999V0203001N00151007801CN0500001N9+99999+99999102711ADDAY121999GF107991071081008001999999MW1021
0043010300999991959020505004+69700+019017FM-12+001499999V0203001N00151007801CN0500001N9+99999+99999102741ADDAY121999GF107991071081008001999999MW1021
0113010300999991959020506004+69700+019017FM-12+001499999V0203001N00151007801CN0500001N9+00171+99999102741ADDAA199000691AY181999GF107991071081008001999999KA1999M+00171KA2999N+00111MD1110051+9999MW1021EQDQ01+011311APOSP 
0043010300999991959020507004+69700+019017FM-12+001499999V0202701N00101007801CN0500001N9+99999+99999102691ADDAY121999GF107991071081008001999999MW1021
0043010300999991959020508004+69700+019017FM-12+001499999V0203601N00101007801CN0500001N9+99999+99999102681ADDAY121999GF107991061081008001041999MW1021
0076010300999991959020509004+69700+019017FM-12+001499999V0203201N00151007801CN0500001N9+00171+99999102651ADDAY121999GF107991051081008001041021MD1710091+9999MW1021EQDQ01+011301APOSP 
0043010300999991959020510004+69700+019017FM-12+001499999V0202901N00101007801CN0500001N9+99999+99999102641ADDAY121999GF107991061081008001041001MW1021
0043010300999991959020511004+69700+019017FM-12+001499999V0202501N001519999999N0500001N9+99999+99999102621ADDAY121999GF108991021051012501071999MW1031
0076010300999991959020512004+69700+019017FM-12+001499999V0202301N00461012301CN0500001N9+00221+99999102621ADDAY121999GF108991071051012501071999MD1610031+9999MW1021EQDQ01+011301APOSP 
0043010300999991959020513004+69700+019017FM-12+001499999V0202301N00461012301CN0500001N9+99999+99999102651ADDAY121999GF108991071051012501071999MW1021
0043010300999991959020514004+69700+019017FM-12+001499999V0202301N00511007801CN0400001N9+99999+99999102611ADDAY121999GF108991071051008001071999MW1151
0076010300999991959020515004+69700+019017FM-12+001499999V0202001N00671007801CN0200001N9+00221+99999102561ADDAY121999GF108991081051008001999999MD1810061+9999MW1601EQDQ01+012311APOSP 
0043010300999991959020516004+69700+019017FM-12+001499999V0202301N00771007801CN0200001N9+99999+99999102511ADDAY161999GF108991081051008001999999MW1611
0043010300999991959020517004+69700+019017FM-12+001499999V0202301N00511007801CN0150001N9+99999+99999102531ADDAY161999GF108991081051008001999999MW1611
0113010300999991959020518004+69700+019017FM-12+001499999V0202301N00461007801CN0300001N9+00331+99999102471ADDAA199000591AY161999GF108991081051008001999999KA1999M+00331KA2999N+00111MD1710091+9999MW1211EQDQ01+011311APOSP 
0076010300999991959020600004+69700+019017FM-12+001499999V0202401N012319999999N0600001N9+00391+99999102061ADDAY121999GF103991021051012501041001MD1710201+9999MW1011EQDQ01+013321APOSP 
0076010300999991959020603004+69700+019017FM-12+001499999V0202401N009319999999N0600001N9+00391+99999101841ADDAY121999GF107991041051012501071001MD1710221+9999MW1031EQDQ01+013331APOSP 
0043010300999991959020604004+69700+019017FM-12+001499999V0202401N009319999999N0600001N9+99999+99999101741ADDAY121999GF106991041051012501041001MW1011
0043010300999991959020605004+69700+019017FM-12+001499999V0202401N012319999999N0600001N9+99999+99999101611ADDAY121999GF105991041051012501041001MW1011
0113010300999991959020606004+69700+019017FM-12+001499999V0202401N01231007801CN0300001N9+00391+99999101491ADDAA199000691AY181999GF106991061081008001001001KA1999M+00441KA2999N+00331MD1710351+9999MW1801EQDQ01+013331APOSP 
0043010300999991959020607004+69700+019017FM-12+001499999V0202401N01231007801CN0250001N9+99999+99999101421ADDAY181999GF107991071081008001001001MW1801
0043010300999991959020608004+69700+019017FM-12+001499999V0202301N00931007801CN0250001N9+99999+99999101371ADDAY181999GF108991081051008001999999MW1601
0076010300999991959020609004+69700+019017FM-12+001499999V0202301N00931007801CN0200001N9+00391+99999101301ADDAY181999GF108991081051008001999999MD1710191+9999MW1611EQDQ01+012321APOSP 
0043010300999991959020610004+69700+019017FM-12+001499999V0202301N00931007801CN0150001N9+99999+99999101211ADDAY161999GF108991081051008001999999MW1611
0043010300999991959020611004+69700+019017FM-12+001499999V0202301N00931007801CN0060001N9+99999+99999101131ADDAY161999GF108991081051008001999999MW1611
0076010300999991959020612004+69700+019017FM-12+001499999V0202501N00671007801CN0030001N9+00221+99999101251ADDAY161999GF108991081091008001999999MD1510051+9999MW1831EQDQ01+012321APOSP 
0043010300999991959020613004+69700+019017FM-12+001499999V0202301N00511007801CN0400001N9+99999+99999101301ADDAY181999GF107991071091008001999999MW1021
0043010300999991959020614004+69700+019017FM-12+001499999V0202101N00511007801CN0400001N9+99999+99999101311ADDAY121999GF107991061091008001061999MW1021
0076010300999991959020615004+69700+019017FM-12+001499999V0202101N00511007801CN0400001N9+00331+99999101331ADDAY181999GF107991071091008001061999MD1110081+9999MW1151EQDQ01+011311APOSP 
0043010300999991959020616004+69700+019017FM-12+001499999V0202301N00461007801CN0500001N9+99999+99999101371ADDAY181999GF107991071091008001061999MW1021
0043010300999991959020617004+69700+019017FM-12+001499999V0202301N00461007801CN0500001N9+99999+99999101371ADDAY121999GF107991061091008001061999MW1021
0113010300999991959020618004+69700+019017FM-12+001499999V0202301N005119999999N0500001N9+00281+99999101371ADDAA199008091AY181999GF105991041081008001061001KA1999M+00391KA2999N+00111MD1110041+9999MW1021EQDQ01+011311APOSP 
0076010300999991959020700004+69700+019017FM-12+001499999V0202401N00671007801CN0500001N9+00331+99999101401ADDAY181999GF107991071091008001001001MD1710011+9999MW1271EQDQ01+012311APOSP 
0076010300999991959020703004+69700+019017FM-12+001499999V0202301N00461007801CN0600001N9+00391+99999101401ADDAY121999GF107991071081008001001001MD1410001+9999MW1021EQDQ01+012311APOSP 
0043010300999991959020704004+69700+019017FM-12+001499999V0202501N00461007801CN0500001N9+99999+99999101411ADDAY121999GF107991071081008001001001MW1871
0043010300999991959020705004+69700+019017FM-12+001499999V0202701N00261007801CN0500001N9+99999+99999101421ADDAY181999GF107991071081008001001001MW1021
0113010300999991959020706004+69700+019017FM-12+001499999V0202701N00151007801CN0600001N9+00331+99999101441ADDAA199001091AY181999GF107991071081008001001001KA1999M+00391KA2999N+00221MD1310041+9999MW1271EQDQ01+011311APOSP 
0043010300999991959020707004+69700+019017FM-12+001499999V0203201N00411007801CN0500001N9+99999+99999101501ADDAY181999GF107991071081008001001001MW1021
0043010300999991959020708004+69700+019017FM-12+001499999V0202701N00261007801CN0400001N9+99999+99999101511ADDAY181999GF107991071081008001001001MW1151
0076010300999991959020709004+69700+019017FM-12+001499999V0203401N00101007801CN0500001N9+00281+99999101551ADDAY181999GF107991071081008001001001MD1210111+9999MW1261EQDQ01+011301APOSP 
0043010300999991959020710004+69700+019017FM-12+001499999V0209991C00001007801CN0500001N9+99999+99999101571ADDAY121999GF107991071081008001001001MW1021
0043010300999991959020711004+69700+019017FM-12+001499999V0202701N00151007801CN0500001N9+99999+99999101601ADDAY121999GF107991071081008001001001MW1021
0076010300999991959020712004+69700+019017FM-12+001499999V0202501N00211007801CN0500001N9+00331+99999101621ADDAY121999GF106991061081008001041001MD1210071+9999MW1011EQDQ01+011301APOSP 
0043010300999991959020713004+69700+019017FM-12+001499999V0202301N00101007801CN0500001N9+99999+99999101641ADDAY121999GF108991081081008001999999MW1031
0043010300999991959020714004+69700+019017FM-12+001499999V0202501N00151012301CN0200001N9+99999+99999101671ADDAY121999GF108991071051012501021999MW1601
0076010300999991959020715004+69700+019017FM-12+001499999V0202301N00411012301CN0200001N9+00221+99999101681ADDAY161999GF108991071051012501021999MD1210061+9999MW1611EQDQ01+011301APOSP 
0043010300999991959020716004+69700+019017FM-12+001499999V0202301N00511012301CN0200001N9+99999+99999101691ADDAY161999GF108991071051012501021999MW1611
0043010300999991959020717004+69700+019017FM-12+001499999V0202501N00511007801CN0130001N9+99999+99999101691ADDAY161999GF108991081051008001999999MW1681
0113010300999991959020718004+69700+019017FM-12+001499999V0202301N00621007801CN0200001N9+00171+99999101721ADDAA199003091AY161999GF108991081051008001999999KA1999M+00331KA2999N+00111MD1210041+9999MW1611EQDQ01+012311APOSP 
0076010300999991959020800004+69700+019017FM-12+001499999V0202301N00511007801CN0300001N9+00501+99999101791ADDAY161999GF108991081051008001999999MD1110031+9999MW1211EQDQ01+011311APOSP 
0076010300999991959020803004+69700+019017FM-12+001499999V0202301N00771007801CN0400001N9+00501+99999101721ADDAY121999GF107991071051008001001001MD1710071+9999MW1011EQDQ01+012311APOSP 
0113010300999991959020806004+69700+019017FM-12+001499999V0202301N00671007801CN0400001N9+00441+99999101721ADDAA199001091AY121999GF108991081081008001999999KA1999M+00561KA2999N+00171MD1010001+9999MW1031EQDQ01+012311APOSP 
0076010300999991959020809004+69700+019017FM-12+001499999V0202001N00771012301CN0400001N9+00441+99999101651ADDAY121999GF108991071051012501071999MD1710071+9999MW1601EQDQ01+012311APOSP 
0076010300999991959020812004+69700+019017FM-12+001499999V0202301N00871012301CN0500001N9+00441+99999101521ADDAY161999GF107991061081012501041021MD1710131+9999MW1011EQDQ01+012311APOSP 
