0076010300999991960010100004+69700+019017FM-12+001499999V0202001N007719999999N0700001N9+00171+99999099301ADDAY121999GF103991011051017501041011MD1710481+9999MW1011EQDQ01+012321APOSP 
0076010300999991960010103004+69700+019017FM-12+001499999V0202001N01181012301CN0250001N9+00111+99999098921ADDAY111999GF108991081001012501021999MD1710381+9999MW1681EQDQ01+013321APOSP 
0113010300999991960010106004+69700+019017FM-12+001499999V0202301N01031015001CN0500001N9+00001+99999098881ADDAA199000691AY171999GF108991081001017501021999KA1999M+00331KA2999N+00001MD1610041+9999MW1021EQDQ01+013321APOSP 
0076010300999991960010109004+69700+019017FM-12+001499999V0201601N003619999999N0500001N9+00061+99999098821ADDAY121999GF108991031051012501021999MD1710061+9999MW1141EQDQ01+012321APOSP 
0076010300999991960010112004+69700+019017FM-12+001499999V0202301N006719999999N0400001N9+00061+99999098791ADDAY121999GF108991021051008001021999MD1710031+9999MW1151EQDQ01+012321APOSP 
0076010300999991960010115004+69700+019017FM-12+001499999V0202501N006719999999N0300001N9-00061+99999098931ADDAY171999GF108991031051008001021999MD1310141+9999MW1701EQDQ01+012311APOSP 
0113010300999991960010118004+69700+019017FM-12+001499999V0202401N006719999999N0600001N9+00171+99999099041ADDAA199000691AY171999GF104991041051012501001001KA1999M+00221KA2999N-00061MD1210111+9999MW1011EQDQ01+012311APOSP 
0076010300999991960010200004+69700+019017FM-12+001499999V0202301N00931007801CN0400001N9+00281+99999099411ADDAY181999GF107991071091008001001001MD1110121+9999MW1151EQDQ01+012321APOSP 
0076010300999991960010203004+69700+019017FM-12+001499999V0202301N00931007801CN0100001N9+00221+99999099541ADDAY181999GF108991081091008001999999MD1310131+9999MW1831EQDQ01+012321APOSP 
0043010300999991960010204004+69700+019017FM-12+001499999V0202301N00931007801CN0080001N9+99999+99999099621ADDAY181999GF108991081091008001999999MW1831
0043010300999991960010205004+69700+019017FM-12+001499999V0202301N00931007801CN0070001N9+99999+99999099701ADDAY181999GF108991081091008001999999MW1831
0113010300999991960010206004+69700+019017FM-12+001499999V0202301N00931007801CN0100001N9+00171+99999099781ADDAA199005091AY181999GF108991081091008001999999KA1999M+00331KA2999N+00061MD1210241+9999MW1801EQDQ01+012321APOSP 
0043010300999991960010207004+69700+019017FM-12+001499999V0202301N00931007801CN0080001N9+99999+99999099851ADDAY181999GF108991081091008001999999MW1811
0043010300999991960010208004+69700+019017FM-12+001499999V0202301N00771007801CN0100001N9+99999+99999099941ADDAY181999GF108991081091008001999999MW1831
0076010300999991960010209004+69700+019017FM-12+001499999V0202301N00771007801CN0050001N9+00061+99999999999ADDAY181999GF108991081091008001999999MD1210221+9999MW1841EQDQ01+012311APOSP 
0043010300999991960010210004+69700+019017FM-12+001499999V0202301N00771007801CN0050001N9+99999+99999100111ADDAY181999GF108991081091008001999999MW1831
0043010300999991960010211004+69700+019017FM-12+001499999V0202301N00931007801CN0300001N9+99999+99999100131ADDAY181999GF108991081091008001999999MW1151
0076010300999991960010212004+69700+019017FM-12+001499999V0202101N01031007801CN0200001N9+00171+99999100131ADDAY181999GF108991081091008001999999MD1210131+9999MW1831EQDQ01+012321APOSP 
0043010300999991960010213004+69700+019017FM-12+001499999V0202301N00771007801CN0100001N9+99999+99999100221ADDAY181999GF108991081091008001999999MW1831
0043010300999991960010214004+69700+019017FM-12+001499999V0202301N00771007801CN0080001N9+99999+99999100231ADDAY181999GF108991081091008001999999MW1831
0076010300999991960010215004+69700+019017FM-12+001499999V0202301N00771007801CN0150001N9+00171+99999100221ADDAY181999GF108991081091008001999999MD1210091+9999MW1831EQDQ01+012321APOSP 
0043010300999991960010216004+69700+019017FM-12+001499999V0202301N00621007801CN0020001N9+99999+99999100301ADDAY181999GF108991081091008001999999MW1851
0043010300999991960010217004+69700+019017FM-12+001499999V0202101N00511000601CN0006001N9+99999+99999100361ADDAY181999GF109991091999000751999999MW1861
0113010300999991960010218004+69700+019017FM-12+001499999V0202301N00511007801CN0150001N9+00001+99999100401ADDAA199028091AY181999GF108991081091008001999999KA1999M+00281KA2999N+00001MD1210181+9999MW1831EQDQ01+011321APOSP 
0076010300999991960010300004+69700+019017FM-12+001499999V0202501N004619999999N0300001N9+00391+99999100941ADDAY181999GF105991041091008001001021MD1210301+9999MW1871EQDQ01+011311APOSP 
0076010300999991960010303004+69700+019017FM-12+001499999V0202301N003119999999N0500001N9+00281+99999101181ADDAY181999GF103991021091008001001021MD1210241+9999MW1011EQDQ01+011301APOSP 
0113010300999991960010306004+69700+019017FM-12+001499999V0202101N00261007801CN0500001N9+00331+99999101411ADDAA199003091AY181999GF106991061081008001999999KA1999M+00441KA2999N+00061MD1210231+9999MW1251EQDQ01+011301APOSP 
0076010300999991960010309004+69700+019017FM-12+001499999V0202701N00101007801CN0500001N9+00331+99999101631ADDAY121999GF107991071081008001999999MD1210221+9999MW1021EQDQ01+010301APOSP 
0076010300999991960010312004+69700+019017FM-12+001499999V0202501N00261007801CN0150001N9+00331+99999101801ADDAY181999GF108991081091008001999999MD1210171+9999MW1801EQDQ01+011301APOSP 
0076010300999991960010315004+69700+019017FM-12+001499999V0202301N00461007801CN0200001N9+00331+99999101921ADDAY181999GF108991081091008001999999MD1210121+9999MW1801EQDQ01+011301APOSP 
0113010300999991960010318004+69700+019017FM-12+001499999V0202301N00461007801CN0200001N9+00391+99999101991ADDAA199004091AY181999GF107991071091008001001001KA1999M+00441KA2999N+00331MD1210071+9999MW1801EQDQ01+011301APOSP 
0076010300999991960010400004+69700+019017FM-12+001499999V0202501N00461007801CN0400001N9+00331+99999102221ADDAY181999GF107991061091008001061999MD1110101+9999MW1151EQDQ01+011301APOSP 
0076010300999991960010403004+69700+019017FM-12+001499999V0209991C000019999999N0600001N9+00281+99999102201ADDAY121999GF105991021041008001001021MD1810021+9999MW1011EQDQ01+010301APOSP 
0043010300999991960010404004+69700+019017FM-12+001499999V0209991C000019999999N0600001N9+99999+99999102201ADDAY111999GF103991011041008001001021MW1011
0043010300999991960010405004+69700+019017FM-12+001499999V0209991C000019999999N0600001N9+99999+99999102181ADDAY101999GF101991011051008001001001MW1011
0113010300999991960010406004+69700+019017FM-12+001499999V0203601N002619999999N0600001N9+00171+99999102161ADDAA199001091AY121999GF101991011051012501001021KA1999M+00391KA2999N+00111MD1710041+9999MW1021EQDQ01+011301APOSP 
0043010300999991960010407004+69700+019017FM-12+001499999V0200501N001019999999N0600001N9+99999+99999102091ADDAY101999GF101991011051012501001011MW1011
0062010300999991960010408004+69700+019017FM-12+001499999V0202301N002619999999N0600001N9+99999+99999102071ADDAY101999GF101991001001999999001011MW1011EQDQ01+000012SCOTLC
0076010300999991960010409004+69700+019017FM-12+001499999V0202301N001019999999N0600001N9+00001+99999102041ADDAY101999GF101991011061000751001001MD1710121+9999MW1021EQDQ01+010301APOSP 
0043010300999991960010410004+69700+019017FM-12+001499999V0209991C000019999999N0600001N9+99999+99999101981ADDAY101999GF101991011061000251001021MW1021
0043010300999991960010411004+69700+019017FM-12+001499999V0209991C000019999999N0600001N9+99999+99999101901ADDAY101999GF101991011061000751001021MW1021
0076010300999991960010412004+69700+019017FM-12+001499999V0209991C000019999999N0040001N9-00061+99999101851ADDAY141999GF104991041061000251001021MD1710191+9999MW1401EQDQ01+010301APOSP 
0043010300999991960010413004+69700+019017FM-12+001499999V0202001N001519999999N0040001N9+99999+99999101771ADDAY141999GF103991031061000251001021MW1411
0043010300999991960010414004+69700+019017FM-12+001499999V0209991C000019999999N0050001N9+99999+99999101691ADDAY141999GF103991031061000751001021MW1411
0092010300999991960010415004+69700+019017FM-12+001499999V0209991C000019999999N0005001N9-00221+99999101541ADDAY141999GF101991001001999999001021MD1710311+9999MW1441EQDQ01+000012SCOTLCQ02+010301APOSP 
0043010300999991960010416004+69700+019017FM-12+001499999V0202301N00151220001CN0500001N9+99999+99999101441ADDAY141999GF100991001001999999001001MW1101
0043010300999991960010417004+69700+019017FM-12+001499999V0209991C00001220001CN0500001N9+99999+99999101361ADDAY121999GF100991001001999999001001MW1411
0102010300999991960010418004+69700+019017FM-12+001499999V0202301N00101220001CN0300001N9-00221+99999101321ADDAY121999GF100991001001999999001001KA1999M+00221KA2999N-00281MD1710221+9999MW1101EQDQ01+010301APOSP 
0076010300999991960010500004+69700+019017FM-12+001499999V0209991C00001220001CN0700001N9-00171+99999101051ADDAY101999GF100991001001999999001001MD1710131+9999MW1021EQDQ01+010301APOSP 
0076010300999991960010503004+69700+019017FM-12+001499999V0202501N00411220001CN0700001N9-00171+99999100951ADDAY101999GF100991001001999999001001MD1710101+9999MW1021EQDQ01+011301APOSP 
0043010300999991960010504004+69700+019017FM-12+001499999V0202301N00461220001CN0700001N9+99999+99999100911ADDAY101999GF100991001001999999001001MW1021
0062010300999991960010505004+69700+019017FM-12+001499999V0202301N00411220001CN0700001N9+99999+99999100871ADDAY101999GF101991999001999999041001MW1031EQDQ01+000002SCOTLC
0118010300999991960010506004+69700+019017FM-12+001499999V0202501N00361220001CN0700001N9-00221+99999100861ADDAY101999GF101991999001999999041001KA1999M-00061KA2999N-00221MD1710091+9999MW1021EQDQ01+000002SCOTLCQ02+011301APOSP 
0062010300999991960010507004+69700+019017FM-12+001499999V0202301N00261220001CN0700001N9+99999+99999100841ADDAY101999GF101991999001999999041001MW1021EQDQ01+000002SCOTLC
0043010300999991960010508004+69700+019017FM-12+001499999V0202501N001519999999N0700001N9+99999+99999100791ADDAY101999GF102991021001999999041001MW1031
0076010300999991960010509004+69700+019017FM-12+001499999V0202501N002619999999N0700001N9-00281+99999100791ADDAY101999GF102991011051012501041001MD1610071+9999MW1031EQDQ01+011301APOSP 
0043010300999991960010510004+69700+019017FM-12+001499999V0202501N002619999999N0700001N9+99999+99999100791ADDAY101999GF101991011051012501041001MW1011
0043010300999991960010511004+69700+019017FM-12+001499999V0202501N001019999999N0400001N9+99999+99999100761ADDAY101999GF101991011051012501041001MW1021
0076010300999991960010512004+69700+019017FM-12+001499999V0202701N002619999999N0400001N9-00331+99999100761ADDAY101999GF103991011051012501041021MD1710031+9999MW1031EQDQ01+011301APOSP 
0043010300999991960010513004+69700+019017FM-12+001499999V0209991C000019999999N0400001N9+99999+99999100751ADDAY101999GF103991011051012501041021MW1021
0043010300999991960010514004+69700+019017FM-12+001499999V0202301N001019999999N0600001N9+99999+99999100731ADDAY101999GF103991011051012501041011MW1021
0076010300999991960010515004+69700+019017FM-12+001499999V0209991C000019999999N0600001N9-00441+99999100731ADDAY101999GF102991011051012501041011MD1710031+9999MW1011EQDQ01+010301APOSP 
0043010300999991960010516004+69700+019017FM-12+001499999V0202501N001019999999N0600001N9+99999+99999100731ADDAY101999GF102991011051012501041001MW1021
0043010300999991960010517004+69700+019017FM-12+001499999V0209991C000019999999N0600001N9+99999+99999100721ADDAY101999GF102991011051012501041001MW1021
0102010300999991960010518004+69700+019017FM-12+001499999V0209991C000019999999N0600001N9-00441+99999100711ADDAY101999GF102991011051012501041001KA1999M-00171KA2999N-00501MD1710021+9999MW1031EQDQ01+010301APOSP 
0076010300999991960010600004+69700+019017FM-12+001499999V0202501N002619999999N0700001N9-00331+99999100701ADDAY111999GF108991031051012501071999MD1410001+9999MW1021EQDQ01+011301APOSP 
0076010300999991960010603004+69700+019017FM-12+001499999V0202901N003119999999N0600001N9-00331+99999100731ADDAY121999GF108991041051012501071999MD1210031+9999MW1021EQDQ01+011301APOSP 
0043010300999991960010604004+69700+019017FM-12+001499999V0202701N002619999999N0060001N9+99999+99999100771ADDAY171999GF108991041051012501071999MW1701
0043010300999991960010605004+69700+019017FM-12+001499999V0202901N002619999999N0100001N9+99999+99999100801ADDAY171999GF108991021051012501071999MW1701
0113010300999991960010606004+69700+019017FM-12+001499999V0203001N002619999999N0600001N9-00111+99999100821ADDAA199000591AY171999GF108991041051012501071999KA1999M-00061KA2999N-00441MD1210091+9999MW1221EQDQ01+011301APOSP 
0043010300999991960010607004+69700+019017FM-12+001499999V0202301N004619999999N0600001N9+99999+99999100871ADDAY121999GF108991041051012501071999MW1021
0043010300999991960010608004+69700+019017FM-12+001499999V0200901N009319999999N0400001N9+99999+99999100941ADDAY171999GF108991021051012501071999MW1701
0076010300999991960010609004+69700+019017FM-12+001499999V0201201N009319999999N0600001N9-00061+99999100951ADDAY171999GF108991011051012501071999MD1210131+9999MW1221EQDQ01+013311APOSP 
0043010300999991960010610004+69700+019017FM-12+001499999V0201201N00511012301CN0600001N9+99999+99999100971ADDAY121999GF108991051051012501071999MW1031
0043010300999991960010611004+69700+019017FM-12+001499999V0201201N00931012301CN0600001N9+99999+99999100991ADDAY121999GF108991071051012501071999MW1021
0076010300999991960010612004+69700+019017FM-12+001499999V0202101N00511012301CN0600001N9-00111+99999101021ADDAY171999GF107991071051012501041001MD1210071+9999MW1021EQDQ01+012311APOSP 
0043010300999991960010613004+69700+019017FM-12+001499999V0201601N00511012301CN0600001N9+99999+99999101091ADDAY121999GF107991061051012501041001MW1021
0043010300999991960010614004+69700+019017FM-12+001499999V0201201N005119999999N0600001N9+99999+99999101181ADDAY121999GF105991031051012501041001MW1011
0076010300999991960010615004+69700+019017FM-12+001499999V0201201N007719999999N0600001N9-00331+99999101291ADDAY121999GF102991021051012501041001MD1210271+9999MW1011EQDQ01+012311APOSP 
0043010300999991960010616004+69700+019017FM-12+001499999V0201801N004619999999N0600001N9+99999+99999101351ADDAY101999GF101991011051012501041001MW1011
0043010300999991960010617004+69700+019017FM-12+001499999V0202701N002619999999N0600001N9+99999+99999101401ADDAY101999GF101991011051012501001001MW1021
0113010300999991960010618004+69700+019017FM-12+001499999V0201101N00511220001CN0600001N9-00391+99999101481ADDAA199000691AY111999GF100991001001999999001001KA1999M+00001KA2999N-00441MD1210191+9999MW1011EQDQ01+012311APOSP 
0076010300999991960010700004+69700+019017FM-12+001499999V0201201N00771220001CN0600001N9-00561+99999101951ADDAY101999GF100991001001999999001001MD1210231+9999MW1021EQDQ01+012311APOSP 
0076010300999991960010703004+69700+019017FM-12+001499999V0203201N00151220001CN0600001N9-00611+99999102101ADDAY101999GF100991001001999999001001MD1210151+9999MW1021EQDQ01+011311APOSP 
0043010300999991960010704004+69700+019017FM-12+001499999V0203201N00101220001CN0600001N9+99999+99999102171ADDAY101999GF100991001001999999001001MW1021
0043010300999991960010705004+69700+019017FM-12+001499999V0203001N00101220001CN0600001N9+99999+99999102251ADDAY101999GF100991001001999999001001MW1021
0102010300999991960010706004+69700+019017FM-12+001499999V0202501N00101220001CN0600001N9-00891+99999102301ADDAY101999GF100991001001999999001001KA1999M-00391KA2999N-00891MD1210201+9999MW1021EQDQ01+011311APOSP 
0043010300999991960010707004+69700+019017FM-12+001499999V0202701N00151220001CN0600001N9+99999+99999102351ADDAY101999GF100991001001999999001001MW1021
0043010300999991960010708004+69700+019017FM-12+001499999V0202701N001519999999N0600001N9+99999+99999102431ADDAY101999GF101991011001999999041001MW1031
0076010300999991960010709004+69700+019017FM-12+001499999V0202501N002619999999N0600001N9-00891+99999102521ADDAY101999GF101991011001999999041001MD1210221+9999MW1021EQDQ01+011301APOSP 
0043010300999991960010710004+69700+019017FM-12+001499999V0202301N00261220001CN0600001N9+99999+99999102561ADDAY101999GF100991001001999999001001MW1011
0043010300999991960010711004+69700+019017FM-12+001499999V0202301N00261220001CN0600001N9+99999+99999102601ADDAY101999GF100991001001999999001001MW1021
0076010300999991960010712004+69700+019017FM-12+001499999V0202701N00261220001CN0700001N9-00891+99999102631ADDAY101999GF100991001001999999001001MD1210111+9999MW1021EQDQ01+011301APOSP 
0043010300999991960010713004+69700+019017FM-12+001499999V0202501N00261220001CN0700001N9+99999+99999102691ADDAY101999GF100991001001999999001001MW1021
0043010300999991960010714004+69700+019017FM-12+001499999V0202501N00261220001CN0700001N9+99999+99999102721ADDAY101999GF100991001001999999001001MW1021
0076010300999991960010715004+69700+019017FM-12+001499999V0202501N00261220001CN0700001N9-00891+99999102771ADDAY101999GF100991001001999999001001MD1210141+9999MW1021EQDQ01+011301APOSP 
0043010300999991960010716004+69700+019017FM-12+001499999V0202501N00261220001CN0700001N9+99999+99999102791ADDAY101999GF100991001001999999001001MW1021
0043010300999991960010717004+69700+019017FM-12+001499999V0202301N00461220001CN0700001N9+99999+99999102801ADDAY101999GF100991001001999999001001MW1021
0102010300999991960010718004+69700+019017FM-12+001499999V0202501N002619999999N0700001N9-00781+99999102831ADDAY101999GF103991011051017501041001KA1999M-00721KA2999N-00941MD1210061+9999MW1031EQDQ01+011301APOSP 
0076010300999991960010800004+69700+019017FM-12+001499999V0202501N002619999999N0700001N9-00721+99999103031ADDAY111999GF102991021001999999041001MD1210101+9999MW1011EQDQ01+011301APOSP 
0076010300999991960010803004+69700+019017FM-12+001499999V0202501N002619999999N0700001N9-00721+99999103121ADDAY101999GF103991011051017501041021MD1210091+9999MW1031EQDQ01+011301APOSP 
0043010300999991960010804004+69700+019017FM-12+001499999V0202501N002619999999N0700001N9+99999+99999103151ADDAY101999GF102991011051017501041001MW1011
0043010300999991960010805004+69700+019017FM-12+001499999V0202501N004619999999N0700001N9+99999+99999103161ADDAY101999GF102991011051012501041001MW1021
0102010300999991960010806004+69700+019017FM-12+001499999V0202501N004619999999N0700001N9-00671+99999103161ADDAY101999GF101991011051012501041001KA1999M-00611KA2999N-00781MD1110041+9999MW1011EQDQ01+011301APOSP 
0043010300999991960010807004+69700+019017FM-12+001499999V0202501N004619999999N0700001N9+99999+99999103171ADDAY101999GF101991011051012501041001MW1021
0043010300999991960010808004+69700+019017FM-12+001499999V0202501N004619999999N0700001N9+99999+99999103211ADDAY101999GF104991041051012501001001MW1031
0076010300999991960010809004+69700+019017FM-12+001499999V0202501N004619999999N0700001N9-00561+99999103241ADDAY111999GF103991021051012501041001MD1310081+9999MW1011EQDQ01+011301APOSP 
0043010300999991960010810004+69700+019017FM-12+001499999V0202301N005119999999N0600001N9+99999+99999103281ADDAY111999GF106991041051012501041001MW1031
0043010300999991960010811004+69700+019017FM-12+001499999V0202301N005119999999N0300001N9+99999+99999103281ADDAY121999GF106991041051012501071001MW1701
0076010300999991960010812004+69700+019017FM-12+001499999V0202301N005119999999N0600001N9-00441+99999103281ADDAY171999GF106991041051012501041041MD1110041+9999MW1021EQDQ01+012301APOSP 
0043010300999991960010813004+69700+019017FM-12+001499999V0202301N00511012301CN0400001N9+99999+99999103281ADDAY121999GF106991051081012501041041MW1151
0043010300999991960010814004+69700+019017FM-12+001499999V0202301N00511012301CN0400001N9+99999+99999103261ADDAY181999GF106991051081012501041041MW1151
0076010300999991960010815004+69700+019017FM-12+001499999V0202301N00461007801CN0300001N9-00391+99999103281ADDAY181999GF108991081081008001999999MD1410001+9999MW1851EQDQ01+012301APOSP 
0043010300999991960010816004+69700+019017FM-12+001499999V0202501N004619999999N0500001N9+99999+99999103281ADDAY181999GF106991041081008001041001MW1011
0043010300999991960010817004+69700+019017FM-12+001499999V0202501N005119999999N0600001N9+99999+99999103261ADDAY121999GF105991031081012501041001MW1011
0113010300999991960010818004+69700+019017FM-12+001499999V0202301N00571012301CN0600001N9-00331+99999103231ADDAA199000691AY181999GF107991051081012501041001KA1999M-00331KA2999N-00671MD1810051+9999MW1031EQDQ01+012311APOSP 
0076010300999991960010900004+69700+019017FM-12+001499999V0202301N00671007801CN0200001N9-00171+99999103001ADDAY181999GF108991081091008001999999MD1710161+9999MW1851EQDQ01+012311APOSP 
0076010300999991960010903004+69700+019017FM-12+001499999V0202301N01031007801CN0100001N9-00111+99999102651ADDAY181999GF108991081091008001999999MD1710351+9999MW1851EQDQ01+012321APOSP 
0043010300999991960010904004+69700+019017FM-12+001499999V0202301N01081007801CN0100001N9+99999+99999102511ADDAY181999GF108991081001008001021999MW1711
0043010300999991960010905004+69700+019017FM-12+001499999V0202301N01181007801CN0080001N9+99999+99999102351ADDAY171999GF108991081001008001021999MW1711
0113010300999991960010906004+69700+019017FM-12+001499999V0202301N01131007801CN0060001N9-00171+99999102191ADDAA199003091AY171999GF108991081001008001021999KA1999M-00111KA2999N-00331MD1710461+9999MW1711EQDQ01+013321APOSP 
0043010300999991960010907004+69700+019017FM-12+001499999V0202001N01231007801CN0025001N9+99999+99999102051ADDAY171999GF108991081001008001021999MW1731
0043010300999991960010908004+69700+019017FM-12+001499999V0202301N01131007801CN0015001N9+99999+99999101901ADDAY171999GF108991081001008001021999MW1731
0076010300999991960010909004+69700+019017FM-12+001499999V0202301N010319999999N0003001N9+00001+99999101791ADDAY171999GF109991091999999999999999MD1710401+9999MW1751EQDQ01+013321APOSP 
0043010300999991960010910004+69700+019017FM-12+001499999V0202301N00931000151CN0005001N9+99999+99999101661ADDAY171999GF109991091999000251999999MW1731
0043010300999991960010911004+69700+019017FM-12+001499999V0202301N00671000151CN0010001N9+99999+99999101591ADDAY171999GF109991091999000251999999MW1731
0076010300999991960010912004+69700+019017FM-12+001499999V0202001N00931007801CN0060001N9+00061+99999101461ADDAY171999GF108991051051008001021999MD1710331+9999MW1681EQDQ01+012321APOSP 
0043010300999991960010913004+69700+019017FM-12+001499999V0202701N00311007801CN0060001N9+99999+99999101341ADDAY171999GF108991061051008001021999MW1611
0043010300999991960010914004+69700+019017FM-12+001499999V0203401N00411007801CN0100001N9+99999+99999101241ADDAY161999GF108991061051008001021999MW1611
0076010300999991960010915004+69700+019017FM-12+001499999V0203401N00671007801CN0150001N9+00331+99999101171ADDAY161999GF108991061051008001021999MD1710291+9999MW1611EQDQ01+012311APOSP 
0043010300999991960010916004+69700+019017FM-12+001499999V0203401N00671007801CN0150001N9+99999+99999101091ADDAY161999GF108991061051008001021999MW1611
0043010300999991960010917004+69700+019017FM-12+001499999V0203601N00671007801CN0200001N9+99999+99999101091ADDAY161999GF108991061051008001021999MW1601
0113010300999991960010918004+69700+019017FM-12+001499999V0203601N00671012301CN0300001N9+00221+99999101091ADDAA199022091AY161999GF107991071091012501001001KA1999M+00331KA2999N-00221MD1610081+9999MW1801EQDQ01+012311APOSP 
0076010300999991960011000004+69700+019017FM-12+001499999V0203601N00671012301CN0300001N9-00061+99999101301ADDAY181999GF107991071091012501001001MD1210171+9999MW1871EQDQ01+012321APOSP 
0076010300999991960011003004+69700+019017FM-12+001499999V0201801N00261012301CN0600001N9-00061+99999101421ADDAY181999GF107991071081012501001001MD1210121+9999MW1021EQDQ01+011301APOSP 
0113010300999991960011006004+69700+019017FM-12+001499999V0209991C00001007801CN0700001N9-00061+99999101611ADDAA199000591AY181999GF107991071081008001001001KA1999M+00221KA2999N-00171MD1210191+9999MW1021EQDQ01+010311APOSP 
0076010300999991960011009004+69700+019017FM-12+001499999V0201201N00461007801CN0600001N9+00061+99999101931ADDAY121999GF107991071081008001001001MD1310321+9999MW1021EQDQ01+011311APOSP 
0076010300999991960011012004+69700+019017FM-12+001499999V0201601N009319999999N0600001N9-00331+99999102331ADDAY121999GF104991041081012501001001MD1210401+9999MW1011EQDQ01+012311APOSP 
0076010300999991960011015004+69700+019017FM-12+001499999V0202301N00461220001CN0700001N9-00611+99999102591ADDAY121999GF100991001001999999001001MD1210261+9999MW1011EQDQ01+012311APOSP 
0102010300999991960011018004+69700+019017FM-12+001499999V0202901N00311220001CN0700001N9-00781+99999102821ADDAY101999GF100991001001999999001001KA1999M+00061KA2999N-00781MD1210231+9999MW1021EQDQ01+011311APOSP 
0076010300999991960011100004+69700+019017FM-12+001499999V0202501N005119999999N0700001N9-00941+99999103171ADDAY101999GF101991011001999999041001MD1210181+9999MW1021EQDQ01+011301APOSP 
0076010300999991960011103004+69700+019017FM-12+001499999V0202701N001519999999N0700001N9-00941+99999103211ADDAY101999GF106991011001999999041061MD1110041+9999MW1031EQDQ01+011301APOSP 
0043010300999991960011104004+69700+019017FM-12+001499999V0202701N001019999999N0700001N9+99999+99999103211ADDAY101999GF107991021001999999041071MW1031
0043010300999991960011105004+69700+019017FM-12+001499999V0202501N001019999999N0700001N9+99999+99999103191ADDAY101999GF104991021001999999041011MW1011
0102010300999991960011106004+69700+019017FM-12+001499999V0202501N00261220001CN0700001N9-01001+99999103201ADDAY101999GF100991001001999999001001KA1999M-00721KA2999N-01061MD1710011+9999MW1011EQDQ01+011301APOSP 
0043010300999991960011107004+69700+019017FM-12+001499999V0202501N00361220001CN0700001N9+99999+99999103231ADDAY101999GF100991001001999999001001MW1021
0043010300999991960011108004+69700+019017FM-12+001499999V0202501N00261220001CN0700001N9+99999+99999103221ADDAY101999GF100991001001999999001001MW1021
0076010300999991960011109004+69700+019017FM-12+001499999V0202701N00261220001CN0700001N9-00941+99999103211ADDAY101999GF100991001001999999001001MD1210011+9999MW1021EQDQ01+011301APOSP 
0043010300999991960011110004+69700+019017FM-12+001499999V0203001N00151220001CN0700001N9+99999+99999103201ADDAY101999GF100991001001999999001001MW1021
0043010300999991960011111004+69700+019017FM-12+001499999V0202501N00261220001CN0700001N9+99999+99999103211ADDAY101999GF100991001001999999001001MW1021
0076010300999991960011112004+69700+019017FM-12+001499999V0202301N00261220001CN0700001N9-01001+99999103211ADDAY101999GF100991001001999999001001MD1410001+9999MW1021EQDQ01+011301APOSP 
0043010300999991960011113004+69700+019017FM-12+001499999V0202501N00101220001CN0700001N9+99999+99999103211ADDAY101999GF100991001001999999001001MW1021
0043010300999991960011114004+69700+019017FM-12+001499999V0209991C00001220001CN0700001N9+99999+99999103201ADDAY101999GF100991001001999999001001MW1021
0076010300999991960011115004+69700+019017FM-12+001499999V0202101N00151220001CN0700001N9-01001+99999103171ADDAY101999GF100991001001999999001001MD1710041+9999MW1021EQDQ01+011301APOSP 
0043010300999991960011116004+69700+019017FM-12+001499999V0209991C00001220001CN0700001N9+99999+99999103151ADDAY101999GF100991001001999999001001MW1021
0043010300999991960011117004+69700+019017FM-12+001499999V0202501N00101220001CN0700001N9+99999+99999103161ADDAY101999GF100991001001999999001001MW1021
0102010300999991960011118004+69700+019017FM-12+001499999V0209991C00001220001CN0700001N9-00941+99999103161ADDAY101999GF100991001001999999001001KA1999M-00891KA2999N-01061MD1710011+9999MW1021EQDQ01+010301APOSP 
0076010300999991960011200004+69700+019017FM-12+001499999V0209991C000019999999N0700001N9-00831+99999103061ADDAY101999GF101991011001999999041001MD1710051+9999MW1021EQDQ01+010301APOSP 
0076010300999991960011203004+69700+019017FM-12+001499999V0202301N001019999999N0700001N9-00891+99999102931ADDAY101999GF101991011001999999041001MD1710131+9999MW1021EQDQ01+010301APOSP 
0043010300999991960011204004+69700+019017FM-12+001499999V0202301N001019999999N0700001N9+99999+99999102891ADDAY101999GF101991011001999999041001MW1021
0043010300999991960011205004+69700+019017FM-12+001499999V0202501N001519999999N0700001N9+99999+99999102841ADDAY101999GF101991011001999999041001MW1021
0102010300999991960011206004+69700+019017FM-12+001499999V0202601N00211220001CN0700001N9-00891+99999102831ADDAY101999GF101991001001999999001021KA1999M-00781KA2999N-01061MD1710101+9999MW1021EQDQ01+011301APOSP 
0043010300999991960011207004+69700+019017FM-12+001499999V0209991C000019999999N0700001N9+99999+99999102811ADDAY101999GF101991011001999999041001MW1021
0043010300999991960011208004+69700+019017FM-12+001499999V0202501N002119999999N0700001N9+99999+99999102811ADDAY101999GF101991011001999999041001MW1031
0076010300999991960011209004+69700+019017FM-12+001499999V0202701N001519999999N0700001N9-00831+99999102811ADDAY101999GF101991011051012501001001MD1610021+9999MW1031EQDQ01+011301APOSP 
0043010300999991960011210004+69700+019017FM-12+001499999V0202501N001019999999N0700001N9+99999+99999102821ADDAY101999GF101991011051012501001001MW1021
0043010300999991960011211004+69700+019017FM-12+001499999V0202501N002619999999N0700001N9+99999+99999102821ADDAY101999GF101991011051012501001001MW1021
0076010300999991960011212004+69700+019017FM-12+001499999V0202501N002619999999N0700001N9-00781+99999102821ADDAY101999GF101991011001999999041001MD1110011+9999MW1011EQDQ01+011301APOSP 
0043010300999991960011213004+69700+019017FM-12+001499999V0209991C00001220001CN0700001N9+99999+99999102811ADDAY101999GF100991001001999999001001MW1011
0043010300999991960011214004+69700+019017FM-12+001499999V0209991C00001220001CN0700001N9+99999+99999102811ADDAY101999GF100991001001999999001001MW1021
0076010300999991960011215004+69700+019017FM-12+001499999V0209991C00001220001CN0700001N9-00781+99999102801ADDAY101999GF100991001001999999001001MD1610021+9999MW1021EQDQ01+010301APOSP 
0043010300999991960011216004+69700+019017FM-12+001499999V0202501N00101220001CN0700001N9+99999+99999102801ADDAY101999GF100991001001999999001001MW1021
0043010300999991960011217004+69700+019017FM-12+001499999V0202301N00261220001CN0700001N9+99999+99999102801ADDAY101999GF100991001001999999001001MW1021
0102010300999991960011218004+69700+019017FM-12+001499999V0202301N00461220001CN0700001N9-00831+99999102811ADDAY101999GF100991001001999999001001KA1999M-00721KA2999N-00891MD1110011+9999MW1021EQDQ01+011301APOSP 
0076010300999991960011300004+69700+019017FM-12+001499999V0202301N00671220001CN0700001N9-00781+99999102811ADDAY101999GF102991001001999999001021MD1810031+9999MW1031EQDQ01+012311APOSP 
0076010300999991960011303004+69700+019017FM-12+001499999V0202301N00511220001CN0700001N9-00781+99999102811ADDAY101999GF103991001001999999001071MD1410001+9999MW1031EQDQ01+011311APOSP 
0043010300999991960011304004+69700+019017FM-12+001499999V0202301N005119999999N0700001N9+99999+99999102801ADDAY101999GF103991011001999999041071MW1021
0043010300999991960011305004+69700+019017FM-12+001499999V0202501N005119999999N0700001N9+99999+99999102801ADDAY101999GF104991011001999999041071MW1031
0102010300999991960011306004+69700+019017FM-12+001499999V0202501N005119999999N0700001N9-00781+99999102781ADDAY111999GF107991031001999999041071KA1999M-00721KA2999N-00941MD1810031+9999MW1031EQDQ01+012311APOSP 
0043010300999991960011307004+69700+019017FM-12+001499999V0202301N00671024001CN0700001N9+99999+99999102751ADDAY121999GF107991051001999999011071MW1031
0043010300999991960011308004+69700+019017FM-12+001499999V0202501N00671012301CN0700001N9+99999+99999102741ADDAY121999GF107991061051012501041001MW1031
0076010300999991960011309004+69700+019017FM-12+001499999V0202501N00671012301CN0700001N9-00671+99999102721ADDAY121999GF107991071051012501001001MD1710061+9999MW1031EQDQ01+012311APOSP 
0043010300999991960011310004+69700+019017FM-12+001499999V0202501N00931015001CN0700001N9+99999+99999102641ADDAY121999GF108991081051017501999999MW1031
0043010300999991960011311004+69700+019017FM-12+001499999V0202501N00931015001CN0700001N9+99999+99999102601ADDAY121999GF107991071051017501001001MW1011
0076010300999991960011312004+69700+019017FM-12+001499999V0202501N00931007801CN0700001N9-00501+99999102551ADDAY121999GF107991071051008001001001MD1710171+9999MW1151EQDQ01+012321APOSP 
0043010300999991960011313004+69700+019017FM-12+001499999V0202301N00931007801CN0040001N9+99999+99999102531ADDAY171999GF108991081051008001999999MW1711
0043010300999991960011314004+69700+019017FM-12+001499999V0202301N00931007801CN0300001N9+99999+99999102371ADDAY171999GF107991071051008001001001MW1701
0076010300999991960011315004+69700+019017FM-12+001499999V0202301N01031007801CN0450001N9-00391+99999102361ADDAY171999GF107991071051008001001001MD1710191+9999MW1701EQDQ01+013321APOSP 
0043010300999991960011316004+69700+019017FM-12+001499999V0202301N01031007801CN0300001N9+99999+99999102361ADDAY171999GF107991071051008001001001MW1701
0043010300999991960011317004+69700+019017FM-12+001499999V0202301N00931007801CN0300001N9+99999+99999102361ADDAY171999GF107991071051008001001001MW1701
0113010300999991960011318004+69700+019017FM-12+001499999V0202301N00931007801CN0060001N9-00281+99999102391ADDAA199000591AY171999GF108991081051008001999999KA1999M-00281KA2999N-00781MD1310031+9999MW1701EQDQ01+013321APOSP 
0076010300999991960011400004+69700+019017FM-12+001499999V0202501N00361012301CN0300001N9-00111+99999102431ADDAY181999GF107991071081012501001001MD1210031+9999MW1851EQDQ01+011311APOSP 
0076010300999991960011403004+69700+019017FM-12+001499999V0202301N00461012301CN0300001N9-00111+99999102411ADDAY181999GF107991071081012501001001MD1710021+9999MW1851EQDQ01+012301APOSP 
0043010300999991960011404004+69700+019017FM-12+001499999V0202501N00261012301CN0200001N9+99999+99999102361ADDAY181999GF107991071091012501001001MW1851
0043010300999991960011405004+69700+019017FM-12+001499999V0202501N00261007801CN9999999N9+99999+99999102321ADDAY181999GF108991081091008001999999MW1861
0113010300999991960011406004+69700+019017FM-12+001499999V0202501N00101007801CN0100001N9-00061+99999102281ADDAA199005091AY181999GF107991071091008001001001KA1999M+00001KA2999N-00281MD1710131+9999MW1851EQDQ01+011311APOSP 
0043010300999991960011407004+69700+019017FM-12+001499999V0202701N00261007801CN0060001N9+99999+99999102241ADDAY181999GF108991081091008001999999MW1861
0043010300999991960011408004+69700+019017FM-12+001499999V0202501N00211007801CN0060001N9+99999+99999102191ADDAY181999GF108991081091008001999999MW1861
0076010300999991960011409004+69700+019017FM-12+001499999V0202301N00261007801CN9999999N9-00111+99999102131ADDAY181999GF108991081091008001999999MD1710151+9999MW1861EQDQ01+011301APOSP 
0043010300999991960011410004+69700+019017FM-12+001499999V0202301N00261004501CN0020001N9+99999+99999102031ADDAY181999GF108991081091004501999999MW1861
0043010300999991960011411004+69700+019017FM-12+001499999V0202001N00511004501CN0020001N9+99999+99999101931ADDAY181999GF108991081091004501999999MW1861
0076010300999991960011412004+69700+019017FM-12+001499999V0202301N00461004501CN0030001N9-00171+99999101861ADDAY181999GF108991081091004501999999MD1710271+9999MW1861EQDQ01+011301APOSP 
0043010300999991960011413004+69700+019017FM-12+001499999V0202001N00211004501CN0015001N9+99999+99999101761ADDAY181999GF108991081091004501999999MW1861
0043010300999991960011414004+69700+019017FM-12+001499999V0203601N00511004501CN0010001N9+99999+99999101701ADDAY181999GF108991081091004501999999MW1861
0076010300999991960011415004+69700+019017FM-12+001499999V0200201N00871004501CN0010001N9-00281+99999101681ADDAY181999GF108991081091004501999999MD1610181+9999MW1861EQDQ01+012311APOSP 
0043010300999991960011416004+69700+019017FM-12+001499999V0203601N00621004501CN0015001N9+99999+99999101701ADDAY181999GF108991081091004501999999MW1861
0043010300999991960011417004+69700+019017FM-12+001499999V0203601N00511004501CN0060001N9+99999+99999101691ADDAY181999GF108991081091004501999999MW1861
0113010300999991960011418004+69700+019017FM-12+001499999V0203601N00671004501CN0025001N9-00441+99999101691ADDAA199008091AY181999GF108991081091004501999999KA1999M-00061KA2999N-00441MD1210011+9999MW1861EQDQ01+012311APOSP 
0076010300999991960011500004+69700+019017FM-12+001499999V0203601N00511007801CN0200001N9-00671+99999101551ADDAY181999GF107991061091008001061001MD1710081+9999MW1851EQDQ01+012311APOSP 
0076010300999991960011503004+69700+019017FM-12+001499999V0202501N00151007801CN0300001N9-00721+99999101331ADDAY181999GF107991051081008001061001MD1710221+9999MW1151EQDQ01+011311APOSP 
0043010300999991960011504004+69700+019017FM-12+001499999V0202901N00151007801CN0300001N9+99999+99999101271ADDAY181999GF107991061081008001061001MW1151
0043010300999991960011505004+69700+019017FM-12+001499999V0203601N00361007801CN0200001N9+99999+99999101211ADDAY181999GF107991061091008001061999MW1851
0113010300999991960011506004+69700+019017FM-12+001499999V0203401N00461007801CN0015001N9-00671+99999101181ADDAA199004091AY181999GF108991081091008001999999KA1999M-00441KA2999N-00721MD1710151+9999MW1861EQDQ01+011311APOSP 
0043010300999991960011507004+69700+019017FM-12+001499999V0203201N00101007801CN0200001N9+99999+99999101121ADDAY181999GF108991081091008001999999MW1851
0043010300999991960011508004+69700+019017FM-12+001499999V0203201N00151007801CN0300001N9+99999+99999101071ADDAY181999GF107991071081008001999999MW1151
0076010300999991960011509004+69700+019017FM-12+001499999V0202901N00511007801CN0100001N9-00671+99999101071ADDAY181999GF107991071091008001999999MD1610111+9999MW1851EQDQ01+012301APOSP 
0043010300999991960011510004+69700+019017FM-12+001499999V0203601N00461007801CN0300001N9+99999+99999101011ADDAY181999GF108991081091008001999999MW1151
0043010300999991960011511004+69700+019017FM-12+001499999V0203401N00261007801CN0300001N9+99999+99999100971ADDAY181999GF108991081091008001999999MW1151
0076010300999991960011512004+69700+019017FM-12+001499999V0200301N00361007801CN0010001N9-00671+99999100961ADDAY181999GF108991081091008001999999MD1710111+9999MW1861EQDQ01+012311APOSP 
0043010300999991960011513004+69700+019017FM-12+001499999V0202501N00261007801CN0300001N9+99999+99999100861ADDAY181999GF108991081091008001999999MW1151
0043010300999991960011514004+69700+019017FM-12+001499999V0203201N00261007801CN0100001N9+99999+99999100791ADDAY181999GF108991081091008001999999MW1851
0076010300999991960011515004+69700+019017FM-12+001499999V0202301N00151007801CN0400001N9-00561+99999100721ADDAY181999GF107991071091008001999999MD1710241+9999MW1151EQDQ01+011301APOSP 
0043010300999991960011516004+69700+019017FM-12+001499999V0202701N00151007801CN0150001N9+99999+99999100651ADDAY181999GF108991081091008001999999MW1851
0043010300999991960011517004+69700+019017FM-12+001499999V0202401N00461007801CN0250001N9+99999+99999100591ADDAY181999GF108991081091008001999999MW1851
0113010300999991960011518004+69700+019017FM-12+001499999V0203001N00461007801CN0100001N9-00611+99999100531ADDAA199008091AY181999GF108991081091008001999999KA1999M-00501KA2999N-00671MD1710191+9999MW1851EQDQ01+012311APOSP 
0076010300999991960011600004+69700+019017FM-12+001499999V0203601N006219999999N0500001N9-00501+99999100211ADDAY181999GF106991041081008001041021MD1510071+9999MW1011EQDQ01+012311APOSP 
0076010300999991960011603004+69700+019017FM-12+001499999V0201801N00101007801CN0200001N9-00501+99999100141ADDAY181999GF107991071081008001999999MD1710071+9999MW1851EQDQ01+011311APOSP 
0043010300999991960011604004+69700+019017FM-12+001499999V0203401N00411007801CN0500001N9+99999+99999100131ADDAY181999GF107991061081008001041021MW1021
0043010300999991960011605004+69700+019017FM-12+001499999V0200301N00671007801CN0500001N9+99999+99999100131ADDAY121999GF107991061081008001041021MW1021
0113010300999991960011606004+69700+019017FM-12+001499999V0200201N00311007801CN0500001N9-00611+99999100151ADDAA199006091AY181999GF107991061091008001041999KA1999M-00441KA2999N-00671MD1210011+9999MW1151EQDQ01+011311APOSP 
0043010300999991960011607004+69700+019017FM-12+001499999V0203601N00461007801CN0200001N9+99999+99999100171ADDAY181999GF108991081091008001999999MW1851
0043010300999991960011608004+69700+019017FM-12+001499999V0203601N00511007801CN0500001N9+99999+99999100191ADDAY181999GF107991071091008001999999MW1151
0076010300999991960011609004+69700+019017FM-12+001499999V0200201N00511007801CN0200001N9-00561+99999100201ADDAY181999GF107991071091008001999999MD1210051+9999MW1851EQDQ01+012311APOSP 
0043010300999991960011610004+69700+019017FM-12+001499999V0200201N00671007801CN0050001N9+99999+99999100221ADDAY181999GF108991081091008001999999MW1861
0043010300999991960011611004+69700+019017FM-12+001499999V0200701N00261007801CN0150001N9+99999+99999100201ADDAY181999GF107991071091008001001001MW1851
0076010300999991960011612004+69700+019017FM-12+001499999V0202701N00261007801CN0060001N9-00611+99999100171ADDAY181999GF108991081091008001999999MD1810031+9999MW1861EQDQ01+011311APOSP 
0043010300999991960011613004+69700+019017FM-12+001499999V0202301N00461007801CN0300001N9+99999+99999100061ADDAY181999GF107991071091008001001001MW1151
0043010300999991960011614004+69700+019017FM-12+001499999V0202501N00261007801CN0080001N9+99999+99999100021ADDAY181999GF108991081091008001999999MW1851
0076010300999991960011615004+69700+019017FM-12+001499999V0203601N00261007801CN0070001N9-00561+99999099981ADDAY181999GF108991081091008001999999MD1710191+9999MW1851EQDQ01+011301APOSP 
0043010300999991960011616004+69700+019017FM-12+001499999V0203601N00461007801CN0100001N9+99999+99999099921ADDAY181999GF108991081091008001999999MW1851
0043010300999991960011617004+69700+019017FM-12+001499999V0200201N00671007801CN0300001N9+99999+99999099861ADDAY181999GF108991081091008001999999MW1151
0113010300999991960011618004+69700+019017FM-12+001499999V0203601N00671007801CN0300001N9-00561+99999099841ADDAA199002091AY181999GF106991061091008001001001KA1999M-00391KA2999N-00671MD1710141+9999MW1261EQDQ01+012311APOSP 
0076010300999991960011700004+69700+019017FM-12+001499999V0203601N00931000601CN0004001N9-00561+99999099631ADDAY181999GF109991091999000751999999MD1710061+9999MW1861EQDQ01+012321APOSP 
0076010300999991960011703004+69700+019017FM-12+001499999V0203601N00671007801CN0400001N9-00501+99999099451ADDAY181999GF107991071081008001001001MD1710181+9999MW1151EQDQ01+012311APOSP 
0113010300999991960011706004+69700+019017FM-12+001499999V0200501N00511007801CN0100001N9-00441+99999099351ADDAA199004091AY181999GF108991081091008001999999KA1999M-00281KA2999N-00721MD1610101+9999MW1851EQDQ01+012321APOSP 
0076010300999991960011709004+69700+019017FM-12+001499999V0202301N00261007801CN0400001N9-00391+99999099291ADDAY181999GF107991071081008001001001MD1810061+9999MW1151EQDQ01+011301APOSP 
0076010300999991960011712004+69700+019017FM-12+001499999V0203401N00101007801CN0500001N9-00441+99999099301ADDAY181999GF107991071081008001001001MD1210011+9999MW1021EQDQ01+011301APOSP 
0076010300999991960011715004+69700+019017FM-12+001499999V0201401N00261007801CN0500001N9-00441+99999099391ADDAY121999GF107991071081008001001001MD1210091+9999MW1021EQDQ01+011301APOSP 
0113010300999991960011718004+69700+019017FM-12+001499999V0203401N00511007801CN0100001N9-00441+99999099501ADDAA199001091AY181999GF108991081081008001999999KA1999M-00331KA2999N-00561MD1210111+9999MW1851EQDQ01+011301APOSP 
0076010300999991960011800004+69700+019017FM-12+001499999V0202501N00461007801CN0500001N9-00501+99999099421ADDAY181999GF107991071081008001999999MD1710071+9999MW1021EQDQ01+011301APOSP 
0076010300999991960011803004+69700+019017FM-12+001499999V0203201N00101007801CN0500001N9-00501+99999099411ADDAY121999GF106991061081008001001001MD1710011+9999MW1151EQDQ01+010301APOSP 
0043010300999991960011804004+69700+019017FM-12+001499999V0202501N004619999999N0500001N9+99999+99999099361ADDAY181999GF105991041081008001041001MW1011
0043010300999991960011805004+69700+019017FM-12+001499999V0202501N004119999999N0500001N9+99999+99999099331ADDAY121999GF103991021081008001041001MW1011
0113010300999991960011806004+69700+019017FM-12+001499999V0202501N002619999999N0600001N9-00671+99999099321ADDAA199001091AY181999GF102991011081008001041001KA1999M-00391KA2999N-00781MD1710091+9999MW1011EQDQ01+011301APOSP 
0043010300999991960011807004+69700+019017FM-12+001499999V0202501N004119999999N0600001N9+99999+99999099341ADDAY111999GF105991031081008001041001MW1031
0043010300999991960011808004+69700+019017FM-12+001499999V0202301N00511007801CN0500001N9+99999+99999099351ADDAY121999GF107991061081008001041001MW1151
0076010300999991960011809004+69700+019017FM-12+001499999V0202301N00671007801CN0030001N9-00561+99999099351ADDAY181999GF108991081081008001999999MD1210031+9999MW1851EQDQ01+012311APOSP 
0043010300999991960011810004+69700+019017FM-12+001499999V0202301N00511007801CN0030001N9+99999+99999099261ADDAY181999GF108991081081008001999999MW1851
0043010300999991960011811004+69700+019017FM-12+001499999V0202501N00461007801CN0500001N9+99999+99999099441ADDAY181999GF107991071081008001001001MW1151
0076010300999991960011812004+69700+019017FM-12+001499999V0202501N00261007801CN0300001N9-00561+99999099431ADDAY181999GF108991081081008001999999MD1210081+9999MW1851EQDQ01+011311APOSP 
0043010300999991960011813004+69700+019017FM-12+001499999V0203001N00261007801CN0060001N9+99999+99999099461ADDAY181999GF108991081081008001999999MW1851
0043010300999991960011814004+69700+019017FM-12+001499999V0202501N00261007801CN0300001N9+99999+99999099451ADDAY181999GF108991081081008001999999MW1151
0076010300999991960011815004+69700+019017FM-12+001499999V0209991C00001007801CN0500001N9-00611+99999099461ADDAY181999GF107991071081008001001001MD1210031+9999MW1261EQDQ01+010301APOSP 
0043010300999991960011816004+69700+019017FM-12+001499999V0203601N00261007801CN0300001N9+99999+99999099431ADDAY181999GF108991081081008001999999MW1851
0043010300999991960011817004+69700+019017FM-12+001499999V0202001N00261007801CN0300001N9+99999+99999099441ADDAY181999GF108991081081008001999999MW1851
0113010300999991960011818004+69700+019017FM-12+001499999V0202301N00311012301CN0300001N9-00561+99999099401ADDAA199006091AY181999GF107991071081012501001001KA1999M-00501KA2999N-00671MD1810061+9999MW1851EQDQ01+011301APOSP 
0076010300999991960011900004+69700+019017FM-12+001499999V0202501N00671012301CN0300001N9-00561+99999099331ADDAY181999GF106991061081012501001001MD1710021+9999MW1851EQDQ01+012311APOSP 
0076010300999991960011903004+69700+019017FM-12+001499999V0202301N006719999999N0600001N9-00501+99999099311ADDAY181999GF104991041081008001001011MD1710021+9999MW1011EQDQ01+012311APOSP 
0043010300999991960011904004+69700+019017FM-12+001499999V0202501N00671007801CN0450001N9+99999+99999099301ADDAY181999GF106991061081008001001001MW1851
0043010300999991960011905004+69700+019017FM-12+001499999V0202401N00671007801CN0300001N9+99999+99999099301ADDAY181999GF107991071081008001001001MW1851
0113010300999991960011906004+69700+019017FM-12+001499999V0202301N00771007801CN0600001N9-00441+99999099291ADDAA199006091AY181999GF106991061081008001001001KA1999M-00391KA2999N-00561MD1710021+9999MW1851EQDQ01+012311APOSP 
0043010300999991960011907004+69700+019017FM-12+001499999V0202301N006719999999N0600001N9+99999+99999099311ADDAY181999GF102991021081012501001001MW1011
0043010300999991960011908004+69700+019017FM-12+001499999V0202001N007719999999N0600001N9+99999+99999099351ADDAY121999GF104991041081012501001001MW1151
0076010300999991960011909004+69700+019017FM-12+001499999V0202001N006719999999N0600001N9-00441+99999099381ADDAY181999GF104991041081008001001001MD1310091+9999MW1021EQDQ01+012311APOSP 
0043010300999991960011910004+69700+019017FM-12+001499999V0202001N007719999999N0600001N9+99999+99999099411ADDAY121999GF104991041081008001041001MW1021
0043010300999991960011911004+69700+019017FM-12+001499999V0202001N00771007801CN0500001N9+99999+99999099431ADDAY181999GF105991051081008001041001MW1151
0076010300999991960011912004+69700+019017FM-12+001499999V0202301N00671007801CN0500001N9-00441+99999099431ADDAY121999GF105991051081008001041001MD1210051+9999MW1151EQDQ01+012311APOSP 
0043010300999991960011913004+69700+019017FM-12+001499999V0202301N00671007801CN0500001N9+99999+99999099431ADDAY121999GF105991051081008001041001MW1151
0043010300999991960011914004+69700+019017FM-12+001499999V0202001N00671007801CN0500001N9+99999+99999099401ADDAY121999GF105991051081008001041001MW1021
0076010300999991960011915004+69700+019017FM-12+001499999V0201801N00821007801CN0500001N9-00441+99999099401ADDAY121999GF105991051081008001041001MD1710031+9999MW1151EQDQ01+012311APOSP 
0043010300999991960011916004+69700+019017FM-12+001499999V0202001N007719999999N0500001N9+99999+99999099371ADDAY121999GF104991041081008001041001MW1021
0043010300999991960011917004+69700+019017FM-12+001499999V0202001N008719999999N0600001N9+99999+99999099341ADDAY121999GF102991021081012501041001MW1011
0113010300999991960011918004+69700+019017FM-12+001499999V0202001N010319999999N0600001N9-00501+99999099301ADDAA199000691AY121999GF105991041081012501041001KA1999M-00391KA2999N-00561MD1710101+9999MW1031EQDQ01+012311APOSP 
0076010300999991960012000004+69700+019017FM-12+001499999V0202301N006219999999N0600001N9-00501+99999099241ADDAY111999GF105991041081012501001021MD1710031+9999MW1031EQDQ01+012321APOSP 
0076010300999991960012003004+69700+019017FM-12+001499999V0202301N00571007801CN0150001N9-00501+99999099281ADDAY181999GF107991051081008001071999MD1310041+9999MW1851EQDQ01+012311APOSP 
0043010300999991960012004004+69700+019017FM-12+001499999V0202301N005119999999N0600001N9+99999+99999099291ADDAY181999GF105991041081012501041001MW1151
0043010300999991960012005004+69700+019017FM-12+001499999V0202301N006219999999N0600001N9+99999+99999099301ADDAY181999GF102991021081012501041001MW1011
0113010300999991960012006004+69700+019017FM-12+001499999V0202301N006219999999N0600001N9-00441+99999099321ADDAA199003091AY121999GF104991031081012501041001KA1999M-00391KA2999N-00561MD1210041+9999MW1031EQDQ01+012311APOSP 
0043010300999991960012007004+69700+019017FM-12+001499999V0202301N006719999999N0600001N9+99999+99999099341ADDAY121999GF102991021081012501041001MW1011
0043010300999991960012008004+69700+019017FM-12+001499999V0202501N005119999999N0600001N9+99999+99999099361ADDAY111999GF103991021081012501041001MW1151
0076010300999991960012009004+69700+019017FM-12+001499999V0202301N006219999999N0600001N9-00501+99999099371ADDAY111999GF103991021081012501041001MD1210051+9999MW1151EQDQ01+012311APOSP 
0043010300999991960012010004+69700+019017FM-12+001499999V0202101N009319999999N0600001N9+99999+99999099351ADDAY181999GF103991021081008001061001MW1151
0043010300999991960012011004+69700+019017FM-12+001499999V0202101N007719999999N0600001N9+99999+99999099331ADDAY111999GF105991041081008001061001MW1151
0076010300999991960012012004+69700+019017FM-12+001499999V0202001N00771007801CN0300001N9-00221+99999099321ADDAY181999GF106991051091008001061001MD1710051+9999MW1851EQDQ01+012311APOSP 
0043010300999991960012013004+69700+019017FM-12+001499999V0202001N00771007801CN0200001N9+99999+99999099321ADDAY181999GF107991071091008001001001MW1851
0043010300999991960012014004+69700+019017FM-12+001499999V0202001N00771001501CN0005001N9+99999+99999099341ADDAY181999GF109991091999001501999999MW1861
0076010300999991960012015004+69700+019017FM-12+001499999V0202301N00771001501CN0004001N9-00221+99999099341ADDAY181999GF109991091999001501999999MD1310021+9999MW1861EQDQ01+012311APOSP 
0043010300999991960012016004+69700+019017FM-12+001499999V0202301N00511007801CN0400001N9+99999+99999099351ADDAY181999GF107991071091008001001001MW1151
0043010300999991960012017004+69700+019017FM-12+001499999V0202301N00461007801CN0100001N9+99999+99999099421ADDAY181999GF108991081091008001999999MW1851
0113010300999991960012018004+69700+019017FM-12+001499999V0202301N00671007801CN0040001N9-00221+99999099451ADDAA199001091AY181999GF108991081091008001999999KA1999M-00111KA2999N-00501MD1210111+9999MW1851EQDQ01+012311APOSP 
0076010300999991960012100004+69700+019017FM-12+001499999V0203601N00261007801CN0200001N9-00111+99999100141ADDAY181999GF108991081091008001999999MD1210351+9999MW1851EQDQ01+011311APOSP 
0076010300999991960012103004+69700+019017FM-12+001499999V0202701N00261007801CN0400001N9-00111+99999100361ADDAY181999GF107991071081008001001001MD1210221+9999MW1151EQDQ01+011301APOSP 
0043010300999991960012104004+69700+019017FM-12+001499999V0202501N00461007801CN0500001N9+99999+99999100401ADDAY121999GF106991061081008001001001MW1011
0043010300999991960012105004+69700+019017FM-12+001499999V0202101N00671007801CN0500001N9+99999+99999100481ADDAY121999GF105991051081008001001001MW1011
0113010300999991960012106004+69700+019017FM-12+001499999V0202501N00671007801CN0500001N9-00281+99999100521ADDAA199002091AY181999GF106991051081008001061021KA1999M-00061KA2999N-00281MD1210161+9999MW1031EQDQ01+012311APOSP 
0043010300999991960012107004+69700+019017FM-12+001499999V0202301N00461001501CN0005001N9+99999+99999100621ADDAY181999GF109991091999001501999999MW1861
0043010300999991960012108004+69700+019017FM-12+001499999V0202501N00461001501CN0005001N9+99999+99999100711ADDAY181999GF109991091999001501999999MW1861
0076010300999991960012109004+69700+019017FM-12+001499999V0202301N00461007801CN0100001N9-00391+99999100741ADDAY181999GF107991071091008001001001MD1210221+9999MW1851EQDQ01+011311APOSP 
0043010300999991960012110004+69700+019017FM-12+001499999V0202501N00461007801CN0400001N9+99999+99999100801ADDAY181999GF107991071091008001001001MW1151
0043010300999991960012111004+69700+019017FM-12+001499999V0202301N00461007801CN0400001N9+99999+99999100851ADDAY181999GF107991071091008001001001MW1151
0076010300999991960012112004+69700+019017FM-12+001499999V0202301N00461007801CN0150001N9-00391+99999100891ADDAY181999GF107991071091008001001001MD1210151+9999MW1851EQDQ01+011311APOSP 
0043010300999991960012113004+69700+019017FM-12+001499999V0202301N00621007801CN0400001N9+99999+99999100911ADDAY181999GF107991071091008001001001MW1151
0043010300999991960012114004+69700+019017FM-12+001499999V0202301N00511007801CN0500001N9+99999+99999100901ADDAY181999GF106991061091008001001001MW1151
0076010300999991960012115004+69700+019017FM-12+001499999V0202301N005119999999N0500001N9-00331+99999100931ADDAY181999GF104991041091008001001001MD1210041+9999MW1011EQDQ01+011311APOSP 
0043010300999991960012116004+69700+019017FM-12+001499999V0202301N007719999999N0500001N9+99999+99999100941ADDAY111999GF103991031081008001001001MW1011
0043010300999991960012117004+69700+019017FM-12+001499999V0202301N006219999999N0500001N9+99999+99999100961ADDAY101999GF102991021081008001001001MW1011
0113010300999991960012118004+69700+019017FM-12+001499999V0202301N007719999999N0500001N9-00331+99999100981ADDAA199005091AY181999GF102991021081008001001001KA1999M-00221KA2999N-00391MD1210051+9999MW1021EQDQ01+012311APOSP 
0076010300999991960012200004+69700+019017FM-12+001499999V0202301N006719999999N0500001N9-00391+99999101161ADDAY181999GF104991031081008001041001MD1210091+9999MW1021EQDQ01+012311APOSP 
0076010300999991960012203004+69700+019017FM-12+001499999V0202301N007719999999N0500001N9-00391+99999101171ADDAY111999GF103991021081008001041001MD1210011+9999MW1011EQDQ01+012311APOSP 
0043010300999991960012204004+69700+019017FM-12+001499999V0202301N006219999999N0500001N9+99999+99999101151ADDAY101999GF102991021081008001041001MW1011
0043010300999991960012205004+69700+019017FM-12+001499999V0202301N006219999999N0500001N9+99999+99999101131ADDAY101999GF102991011081008001041001MW1021
0113010300999991960012206004+69700+019017FM-12+001499999V0202401N007719999999N0600001N9-00501+99999101081ADDAA199000391AY111999GF101991011051008001041001KA1999M-00281KA2999N-00561MD1710091+9999MW1011EQDQ01+012311APOSP 
0043010300999991960012207004+69700+019017FM-12+001499999V0202501N007719999999N0600001N9+99999+99999101021ADDAY101999GF101991011051008001041001MW1021
0043010300999991960012208004+69700+019017FM-12+001499999V0202501N005119999999N0600001N9+99999+99999100991ADDAY101999GF101991011001999999041001MW1011
0076010300999991960012209004+69700+019017FM-12+001499999V0202401N007719999999N0600001N9-00501+99999100941ADDAY101999GF101991011001999999041021MD1710141+9999MW1021EQDQ01+012311APOSP 
0043010300999991960012210004+69700+019017FM-12+001499999V0202301N009319999999N0600001N9+99999+99999100851ADDAY101999GF101991011001999999041021MW1021
0043010300999991960012211004+69700+019017FM-12+001499999V0202301N00771024001CN0600001N9+99999+99999100731ADDAY111999GF106991051001999999041021MW1031
0076010300999991960012212004+69700+019017FM-12+001499999V0202301N00821024001CN0600001N9-00331+99999100661ADDAY111999GF106991051001999999041021MD1710281+9999MW1021EQDQ01+012311APOSP 
0043010300999991960012213004+69700+019017FM-12+001499999V0202301N00671021001CN0600001N9+99999+99999100591ADDAY121999GF108991081001022501021999MW1031
0043010300999991960012214004+69700+019017FM-12+001499999V0202501N00261015001CN0600001N9+99999+99999100421ADDAY121999GF107991071051017501001001MW1011
0076010300999991960012215004+69700+019017FM-12+001499999V0202301N00671015001CN0600001N9-00171+99999100311ADDAY121999GF107991071051017501001001MD1710351+9999MW1021EQDQ01+012311APOSP 
0043010300999991960012216004+69700+019017FM-12+001499999V0202301N00931015001CN0600001N9+99999+99999100171ADDAY121999GF107991071051017501001001MW1021
0043010300999991960012217004+69700+019017FM-12+001499999V0202301N00771015001CN0600001N9+99999+99999100131ADDAY121999GF107991071051017501001001MW1021
0102010300999991960012218004+69700+019017FM-12+001499999V0202501N00671015001CN0600001N9-00171+99999100151ADDAY121999GF105991051051017501001001KA1999M-00111KA2999N-00561MD1510161+9999MW1011EQDQ01+012311APOSP 
0076010300999991960012300004+69700+019017FM-12+001499999V0202301N00671015001CN0600001N9-00281+99999100041ADDAY111999GF108991081051017501999999MD1410001+9999MW1021EQDQ01+012311APOSP 
0076010300999991960012303004+69700+019017FM-12+001499999V0202301N00671015001CN0600001N9-00281+99999100071ADDAY121999GF108991081051017501999999MD1210031+9999MW1021EQDQ01+012311APOSP 
0043010300999991960012304004+69700+019017FM-12+001499999V0202501N00461015001CN0600001N9+99999+99999100081ADDAY121999GF108991081051017501999999MW1021
0043010300999991960012305004+69700+019017FM-12+001499999V0202501N00511015001CN0600001N9+99999+99999100101ADDAY121999GF107991071051017501001001MW1011
0102010300999991960012306004+69700+019017FM-12+001499999V0202501N00461015001CN0600001N9-00391+99999100121ADDAY121999GF106991061051017501001001KA1999M-00111KA2999N-00391MD1210051+9999MW1011EQDQ01+012311APOSP 
0043010300999991960012307004+69700+019017FM-12+001499999V0202501N00461015001CN0400001N9+99999+99999100151ADDAY171999GF107991071051017501001001MW1701
0043010300999991960012308004+69700+019017FM-12+001499999V0202301N00261015001CN0500001N9+99999+99999100221ADDAY171999GF107991071051017501001001MW1701
0076010300999991960012309004+69700+019017FM-12+001499999V0202501N00261015001CN0500001N9-00441+99999100261ADDAY171999GF107991071051017501001001MD1210141+9999MW1221EQDQ01+011301APOSP 
0043010300999991960012310004+69700+019017FM-12+001499999V0202501N00261012301CN0500001N9+99999+99999100321ADDAY121999GF106991061051012501001001MW1021
0043010300999991960012311004+69700+019017FM-12+001499999V0202501N003119999999N0600001N9+99999+99999100331ADDAY121999GF103991031051012501041001MW1011
0076010300999991960012312004+69700+019017FM-12+001499999V0202501N002619999999N0600001N9-00561+99999100361ADDAY171999GF101991011051012501001001MD1210101+9999MW1011EQDQ01+011301APOSP 
0043010300999991960012313004+69700+019017FM-12+001499999V0202501N002619999999N0600001N9+99999+99999100391ADDAY101999GF101991011051012501001001MW1021
0043010300999991960012314004+69700+019017FM-12+001499999V0209991C000019999999N0600001N9+99999+99999100411ADDAY101999GF101991011051012501001001MW1021
0076010300999991960012315004+69700+019017FM-12+001499999V0209991C000019999999N0600001N9-00671+99999100431ADDAY101999GF101991011051012501001001MD1210071+9999MW1021EQDQ01+010301APOSP 
0043010300999991960012316004+69700+019017FM-12+001499999V0209991C000019999999N0600001N9+99999+99999100431ADDAY101999GF101991011051012501001001MW1021
0043010300999991960012317004+69700+019017FM-12+001499999V0202301N004119999999N0600001N9+99999+99999100431ADDAY101999GF101991011051012501001001MW1021
0113010300999991960012318004+69700+019017FM-12+001499999V0202501N001519999999N0600001N9-00781+99999100441ADDAA199000691AY101999GF102991011051012501001011KA1999M-00391KA2999N-00781MD1210011+9999MW1031EQDQ01+010301APOSP 
0076010300999991960012400004+69700+019017FM-12+001499999V0202501N001019999999N0700001N9-00671+99999100431ADDAY101999GF103991021001999999041011MD1710021+9999MW1021EQDQ01+010301APOSP 
0076010300999991960012403004+69700+019017FM-12+001499999V0209991C000019999999N0700001N9-00561+99999100411ADDAY101999GF103991021001999999041011MD1710021+9999MW1021EQDQ01+010301APOSP 
0102010300999991960012406004+69700+019017FM-12+001499999V0209991C000019999999N0700001N9-00501+99999100411ADDAY101999GF102991011001999999041011KA1999M-00441KA2999N-00831MD1410001+9999MW1021EQDQ01+010301APOSP 
0076010300999991960012409004+69700+019017FM-12+001499999V0209991C000019999999N0700001N9-00391+99999100501ADDAY101999GF103991021001999999041021MD1310091+9999MW1021EQDQ01+010301APOSP 
0076010300999991960012412004+69700+019017FM-12+001499999V0209991C000019999999N0700001N9-00281+99999100521ADDAY101999GF101991011001999999041011MD1210021+9999MW1011EQDQ01+010301APOSP 
0092010300999991960012415004+69700+019017FM-12+001499999V0209991C000019999999N0700001N9-00221+99999100501ADDAY101999GF101991001001999999001021MD1710021+9999MW1021EQDQ01+000012SCOTLCQ02+010301APOSP 
0102010300999991960012418004+69700+019017FM-12+001499999V0209991C000019999999N0700001N9-00281+99999100441ADDAY101999GF101991011001999999041021KA1999M-00171KA2999N-00611MD1710061+9999MW1021EQDQ01+010301APOSP 
0076010300999991960012500004+69700+019017FM-12+001499999V0209991C00001220001CN0700001N9-00221+99999100241ADDAY101999GF100991001001999999001001MD1710081+9999MW1021EQDQ01+010301APOSP 
0076010300999991960012503004+69700+019017FM-12+001499999V0209991C000019999999N0700001N9-00171+99999100171ADDAY101999GF101991011001999999041001MD1710071+9999MW1031EQDQ01+010301APOSP 
0043010300999991960012504004+69700+019017FM-12+001499999V0209991C000019999999N0700001N9+99999+99999100171ADDAY101999GF104991041001999999041001MW1031
0043010300999991960012505004+69700+019017FM-12+001499999V0209991C00001021001CN0700001N9+99999+99999100171ADDAY111999GF107991071001022501071001MW1031
0113010300999991960012506004+69700+019017FM-12+001499999V0202501N00261015001CN0300001N9+00061+99999100161ADDAA199000691AY111999GF108991081001017501071999KA1999M+00111KA2999N-00331MD1710011+9999MW1701EQDQ01+011301APOSP 
0043010300999991960012507004+69700+019017FM-12+001499999V0209991C00001015001CN0600001N9+99999+99999100131ADDAY171999GF107991071001017501071001MW1011
0043010300999991960012508004+69700+019017FM-12+001499999V0209991C000019999999N0600001N9+99999+99999100141ADDAY121999GF107991011051012501071001MW1021
0076010300999991960012509004+69700+019017FM-12+001499999V0202301N001519999999N0600001N9+00001+99999100171ADDAY171999GF107991041051012501071001MD1310011+9999MW1021EQDQ01+011301APOSP 
0043010300999991960012510004+69700+019017FM-12+001499999V0209991C00001015001CN0500001N9+99999+99999100181ADDAY121999GF107991051051017501071001MW1031
0043010300999991960012511004+69700+019017FM-12+001499999V0209991C00001021001CN0500001N9+99999+99999100191ADDAY121999GF108991081001022501071999MW1031
0076010300999991960012512004+69700+019017FM-12+001499999V0202301N00261021001CN0500001N9+00111+99999100211ADDAY171999GF107991071001022501071001MD1210041+9999MW1011EQDQ01+011301APOSP 
0043010300999991960012513004+69700+019017FM-12+001499999V0202101N00461021001CN0500001N9+99999+99999100231ADDAY121999GF107991071001022501071001MW1021
0043010300999991960012514004+69700+019017FM-12+001499999V0202301N004619999999N0500001N9+99999+99999100221ADDAY121999GF108991021051017501071999MW1031
0076010300999991960012515004+69700+019017FM-12+001499999V0202301N00261012301CN0500001N9+00061+99999100231ADDAY121999GF108991051051012501071999MD1110021+9999MW1031EQDQ01+011301APOSP 
0043010300999991960012516004+69700+019017FM-12+001499999V0202501N00261012301CN0500001N9+99999+99999100231ADDAY121999GF108991061051012501071999MW1031
0043010300999991960012517004+69700+019017FM-12+001499999V0202101N00261012301CN0500001N9+99999+99999100231ADDAY121999GF108991071051012501071999MW1031
0113010300999991960012518004+69700+019017FM-12+001499999V0202501N00101012301CN0400001N9-00061+99999100261ADDAA199000691AY171999GF108991071051012501071999KA1999M+00111KA2999N-00061MD1310031+9999MW1701EQDQ01+010301APOSP 
0076010300999991960012600004+69700+019017FM-12+001499999V0209991C00001007801CN0400001N9-00111+99999100361ADDAY171999GF108991081051008001999999MD1110021+9999MW1021EQDQ01+010301APOSP 
0076010300999991960012603004+69700+019017FM-12+001499999V0209991C00001007801CN0400001N9-00111+99999100431ADDAY171999GF108991081051008001999999MD1310071+9999MW1021EQDQ01+010301APOSP 
0043010300999991960012604004+69700+019017FM-12+001499999V0200701N00461012301CN0400001N9+99999+99999100471ADDAY121999GF108991081051012501999999MW1021
0043010300999991960012605004+69700+019017FM-12+001499999V0200701N006719999999N0450001N9+99999+99999100511ADDAY121999GF107991031051017501071001MW1011
0113010300999991960012606004+69700+019017FM-12+001499999V0202701N00261021001CN0450001N9-00061+99999100551ADDAA199000691AY171999GF107991071001022501071001KA1999M+00001KA2999N-00111MD1210121+9999MW1011EQDQ01+011311APOSP 
0043010300999991960012607004+69700+019017FM-12+001499999V0202901N00101021001CN0500001N9+99999+99999100611ADDAY121999GF107991071001022501071001MW1021
0043010300999991960012608004+69700+019017FM-12+001499999V0201401N00261021001CN0500001N9+99999+99999100671ADDAY121999GF107991071001022501071001MW1021
0076010300999991960012609004+69700+019017FM-12+001499999V0201401N00511021001CN0500001N9-00061+99999100761ADDAY121999GF107991071001022501071001MD1210211+9999MW1021EQDQ01+011301APOSP 
0043010300999991960012610004+69700+019017FM-12+001499999V0201401N005119999999N0500001N9+99999+99999100861ADDAY121999GF107991011051012501071001MW1021
0043010300999991960012611004+69700+019017FM-12+001499999V0201401N005119999999N0500001N9+99999+99999100951ADDAY121999GF107991011051012501071001MW1021
0076010300999991960012612004+69700+019017FM-12+001499999V0201401N00511012301CN0500001N9-00061+99999101021ADDAY121999GF107991071051012501001001MD1210261+9999MW1021EQDQ01+011311APOSP 
0043010300999991960012613004+69700+019017FM-12+001499999V0201401N00621012301CN0500001N9+99999+99999101061ADDAY121999GF107991071051012501001001MW1021
0043010300999991960012614004+69700+019017FM-12+001499999V0201401N00511012301CN0500001N9+99999+99999101111ADDAY121999GF107991071051012501001001MW1021
0076010300999991960012615004+69700+019017FM-12+001499999V0201201N00671012301CN0500001N9-00171+99999101171ADDAY121999GF107991071051012501001001MD1210151+9999MW1021EQDQ01+012311APOSP 
0043010300999991960012616004+69700+019017FM-12+001499999V0201201N00771012301CN0500001N9+99999+99999101241ADDAY121999GF107991071051012501001001MW1021
0043010300999991960012617004+69700+019017FM-12+001499999V0201401N00511012301CN0500001N9+99999+99999101241ADDAY121999GF107991071051012501001001MW1021
0102010300999991960012618004+69700+019017FM-12+001499999V0201601N006719999999N0500001N9-00281+99999101311ADDAY121999GF102991021051012501001001KA1999M+00001KA2999N-00281MD1210141+9999MW1011EQDQ01+012311APOSP 
0076010300999991960012700004+69700+019017FM-12+001499999V0201201N00511220001CN0600001N9-00441+99999101771ADDAY101999GF100991001001999999001001MD1210271+9999MW1021EQDQ01+012311APOSP 
0076010300999991960012703004+69700+019017FM-12+001499999V0200901N00671220001CN0600001N9-00391+99999101941ADDAY101999GF100991001001999999001001MD1210171+9999MW1021EQDQ01+012311APOSP 
0043010300999991960012704004+69700+019017FM-12+001499999V0200901N00671220001CN0600001N9+99999+99999101981ADDAY101999GF100991001001999999001001MW1021
0043010300999991960012705004+69700+019017FM-12+001499999V0200901N00511220001CN0600001N9+99999+99999102021ADDAY101999GF100991001001999999001001MW1021
0102010300999991960012706004+69700+019017FM-12+001499999V0200701N00461220001CN0600001N9-00501+99999102081ADDAY101999GF100991001001999999001001KA1999M-00221KA2999N-00561MD1210141+9999MW1021EQDQ01+012311APOSP 
0043010300999991960012707004+69700+019017FM-12+001499999V0200901N00621220001CN0600001N9+99999+99999102161ADDAY101999GF100991001001999999001001MW1021
0043010300999991960012708004+69700+019017FM-12+001499999V0200901N00621220001CN0600001N9+99999+99999102211ADDAY101999GF100991001001999999001001MW1021
0076010300999991960012709004+69700+019017FM-12+001499999V0201201N00671220001CN0600001N9-00441+99999102261ADDAY101999GF100991001001999999001001MD1210181+9999MW1021EQDQ01+012311APOSP 
0043010300999991960012710004+69700+019017FM-12+001499999V0201201N00671220001CN0600001N9+99999+99999102341ADDAY101999GF100991001001999999001001MW1021
0043010300999991960012711004+69700+019017FM-12+001499999V0201401N00671220001CN0600001N9+99999+99999102391ADDAY101999GF100991001001999999001001MW1021
0076010300999991960012712004+69700+019017FM-12+001499999V0201201N00671220001CN0600001N9-00501+99999102411ADDAY101999GF100991001001999999001001MD1210151+9999MW1021EQDQ01+012311APOSP 
0043010300999991960012713004+69700+019017FM-12+001499999V0201401N00671220001CN0600001N9+99999+99999102431ADDAY101999GF100991001001999999001001MW1021
0043010300999991960012714004+69700+019017FM-12+001499999V0200901N00621220001CN0600001N9+99999+99999102451ADDAY101999GF100991001001999999001001MW1021
0076010300999991960012715004+69700+019017FM-12+001499999V0201201N00621220001CN0600001N9-00611+99999102451ADDAY101999GF100991001001999999001001MD1110041+9999MW1021EQDQ01+012311APOSP 
0043010300999991960012716004+69700+019017FM-12+001499999V0201401N00571220001CN0600001N9+99999+99999102451ADDAY101999GF100991001001999999001001MW1021
0043010300999991960012717004+69700+019017FM-12+001499999V0201601N00511220001CN0600001N9+99999+99999102471ADDAY101999GF100991001001999999001001MW1021
0102010300999991960012718004+69700+019017FM-12+001499999V0202501N00151220001CN0600001N9-00781+99999102491ADDAY101999GF100991001001999999001001KA1999M-00441KA2999N-00781MD1210041+9999MW1021EQDQ01+011311APOSP 
0076010300999991960012800004+69700+019017FM-12+001499999V0202301N004119999999N0600001N9-01001+99999102481ADDAY101999GF101991011001999999041001MD1410001+9999MW1031EQDQ01+011301APOSP 
0076010300999991960012803004+69700+019017FM-12+001499999V0202501N004619999999N0600001N9-00941+99999102351ADDAY101999GF103991021001999999041051MD1810131+9999MW1031EQDQ01+011301APOSP 
0043010300999991960012804004+69700+019017FM-12+001499999V0202501N003619999999N0600001N9+99999+99999102341ADDAY121999GF104991031001999999041061MW1031
0043010300999991960012805004+69700+019017FM-12+001499999V0202301N002619999999N0600001N9+99999+99999102331ADDAY121999GF105991041001999999071071MW1031
0102010300999991960012806004+69700+019017FM-12+001499999V0202301N002619999999N0600001N9-00831+99999102331ADDAY121999GF106991041001999999071071KA1999M-00781KA2999N-01061MD1610021+9999MW1031EQDQ01+011301APOSP 
0043010300999991960012807004+69700+019017FM-12+001499999V0202301N00461021001CN0500001N9+99999+99999102321ADDAY121999GF107991071001022501071999MW1031
0043010300999991960012808004+69700+019017FM-12+001499999V0202301N00461015001CN0500001N9+99999+99999102311ADDAY121999GF107991071001017501071999MW1141
0076010300999991960012809004+69700+019017FM-12+001499999V0202501N002619999999N0600001N9-00831+99999102321ADDAY121999GF104991031051012501041021MD1510011+9999MW1011EQDQ01+011301APOSP 
0043010300999991960012810004+69700+019017FM-12+001499999V0202501N004619999999N0700001N9+99999+99999102311ADDAY111999GF101991011001999999041021MW1011
0043010300999991960012811004+69700+019017FM-12+001499999V0202501N004619999999N0700001N9+99999+99999102321ADDAY101999GF101991011051012501041021MW1021
0076010300999991960012812004+69700+019017FM-12+001499999V0202501N004119999999N0700001N9-00891+99999102291ADDAY101999GF102991011081008001041021MD1710031+9999MW1151EQDQ01+012301APOSP 
0043010300999991960012813004+69700+019017FM-12+001499999V0202501N004619999999N0700001N9+99999+99999102271ADDAY101999GF102991011081008001041021MW1021
0043010300999991960012814004+69700+019017FM-12+001499999V0202501N00461015001CN0600001N9+99999+99999102271ADDAY111999GF107991071001017501071001MW1151
0076010300999991960012815004+69700+019017FM-12+001499999V0202501N002619999999N0600001N9-00891+99999102301ADDAY111999GF104991011051012501071001MD1210011+9999MW1011EQDQ01+011301APOSP 
0043010300999991960012816004+69700+019017FM-12+001499999V0202501N002619999999N0600001N9+99999+99999102281ADDAY111999GF104991011051012501071001MW1021
0043010300999991960012817004+69700+019017FM-12+001499999V0202501N002619999999N0600001N9+99999+99999102311ADDAY121999GF107991011051012501071001MW1031
0102010300999991960012818004+69700+019017FM-12+001499999V0202501N00261015001CN0600001N9-00941+99999102331ADDAY111999GF107991071001017501071001KA1999M-00781KA2999N-00941MD1210031+9999MW1021EQDQ01+011301APOSP 
0076010300999991960012900004+69700+019017FM-12+001499999V0202501N001519999999N0700001N9-01111+99999102581ADDAY101999GF101991011051017501001001MD1210151+9999MW1021EQDQ01+011301APOSP 
0076010300999991960012903004+69700+019017FM-12+001499999V0202501N00151220001CN0700001N9-01171+99999102691ADDAY101999GF100991001001999999001001MD1210111+9999MW1021EQDQ01+011301APOSP 
0043010300999991960012904004+69700+019017FM-12+001499999V0202701N00261220001CN0700001N9+99999+99999102701ADDAY101999GF100991001001999999001001MW1021
0043010300999991960012905004+69700+019017FM-12+001499999V0202701N00261220001CN0700001N9+99999+99999102721ADDAY101999GF100991001001999999001001MW1021
0102010300999991960012906004+69700+019017FM-12+001499999V0202701N00261220001CN0700001N9-01171+99999102731ADDAY101999GF100991001001999999001001KA1999M-00891KA2999N-01171MD1210041+9999MW1021EQDQ01+011301APOSP 
0043010300999991960012907004+69700+019017FM-12+001499999V0202501N002619999999N0700001N9+99999+99999102731ADDAY101999GF101991011051012501041001MW1031
0043010300999991960012908004+69700+019017FM-12+001499999V0202601N003119999999N0700001N9+99999+99999102761ADDAY101999GF101991011051008001041001MW1021
0076010300999991960012909004+69700+019017FM-12+001499999V0202501N003119999999N0600001N9-01061+99999102771ADDAY101999GF101991011061008001001001MD1210041+9999MW1021EQDQ01+011301APOSP 
0043010300999991960012910004+69700+019017FM-12+001499999V0202501N004119999999N0600001N9+99999+99999102811ADDAY101999GF101991011061008001041001MW1021
0043010300999991960012911004+69700+019017FM-12+001499999V0202501N004619999999N0600001N9+99999+99999102801ADDAY101999GF102991011061008001041001MW1031
0076010300999991960012912004+69700+019017FM-12+001499999V0202301N004619999999N0600001N9-01061+99999102811ADDAY101999GF102991011061008001041001MD1210041+9999MW1021EQDQ01+011301APOSP 
0043010300999991960012913004+69700+019017FM-12+001499999V0202301N005119999999N0600001N9+99999+99999102811ADDAY101999GF104991031051012501041001MW1031
0043010300999991960012914004+69700+019017FM-12+001499999V0202501N005119999999N0600001N9+99999+99999102791ADDAY111999GF105991041051012501041001MW1031
0076010300999991960012915004+69700+019017FM-12+001499999V0202301N00411012301CN0400001N9-00941+99999102771ADDAY121999GF107991051051012501041001MD1710041+9999MW1701EQDQ01+011311APOSP 
0043010300999991960012916004+69700+019017FM-12+001499999V0202301N00411012301CN0400001N9+99999+99999102741ADDAY171999GF106991051051012501041001MW1151
0043010300999991960012917004+69700+019017FM-12+001499999V0202301N00461012301CN0500001N9+99999+99999102731ADDAY121999GF106991051051012501041001MW1021
0113010300999991960012918004+69700+019017FM-12+001499999V0202301N003119999999N0500001N9-00891+99999102741ADDAA199000691AY171999GF106991041051012501041011KA1999M-00831KA2999N-01171MD1710031+9999MW1021EQDQ01+011311APOSP 
0076010300999991960013000004+69700+019017FM-12+001499999V0202301N00511007801CN0100001N9-00721+99999102751ADDAY171999GF108991081051008001999999MD1410001+9999MW1711EQDQ01+011301APOSP 
0076010300999991960013003004+69700+019017FM-12+001499999V0202501N00511007801CN0300001N9-00721+99999102721ADDAY171999GF108991081051008001999999MD1810031+9999MW1701EQDQ01+011311APOSP 
0043010300999991960013004004+69700+019017FM-12+001499999V0202501N00461012301CN0400001N9+99999+99999102681ADDAY171999GF108991081051012501999999MW1151
0043010300999991960013005004+69700+019017FM-12+001499999V0202301N00461012301CN0500001N9+99999+99999102651ADDAY121999GF107991071051012501001001MW1011
0113010300999991960013006004+69700+019017FM-12+001499999V0202501N00511012301CN0500001N9-00611+99999102631ADDAA199000691AY171999GF107991061051012501041021KA1999M-00611KA2999N-01001MD1710091+9999MW1011EQDQ01+012311APOSP 
0043010300999991960013007004+69700+019017FM-12+001499999V0202301N00671012301CN0500001N9+99999+99999102631ADDAY121999GF108991071051012501071999MW1031
0043010300999991960013008004+69700+019017FM-12+001499999V0202301N00671012301CN0500001N9+99999+99999102611ADDAY121999GF108991071051012501071999MW1021
0076010300999991960013009004+69700+019017FM-12+001499999V0202301N00671012301CN0500001N9-00561+99999102601ADDAY121999GF107991071051012501001001MD1710031+9999MW1011EQDQ01+012311APOSP 
0043010300999991960013010004+69700+019017FM-12+001499999V0202301N00621012301CN0500001N9+99999+99999102591ADDAY171999GF108991081051012501999999MW1221
0043010300999991960013011004+69700+019017FM-12+001499999V0202301N00671012301CN0400001N9+99999+99999102591ADDAY171999GF108991081051012501999999MW1701
0076010300999991960013012004+69700+019017FM-12+001499999V0202301N00671007801CN0500001N9-00501+99999102571ADDAY171999GF106991061051008001041001MD1710031+9999MW1011EQDQ01+012311APOSP 
0043010300999991960013013004+69700+019017FM-12+001499999V0202401N00621007801CN0500001N9+99999+99999102531ADDAY121999GF106991061051008001041001MW1021
0043010300999991960013014004+69700+019017FM-12+001499999V0202301N00671007801CN0150001N9+99999+99999102511ADDAY171999GF108991081051008001999999MW1701
0076010300999991960013015004+69700+019017FM-12+001499999V0202301N00671007801CN0200001N9-00441+99999102471ADDAY171999GF107991061051008001041001MD1710101+9999MW1701EQDQ01+012311APOSP 
0043010300999991960013016004+69700+019017FM-12+001499999V0202301N00771007801CN0300001N9+99999+99999102431ADDAY171999GF107991071051008001041001MW1701
0043010300999991960013017004+69700+019017FM-12+001499999V0202401N005119999999N0500001N9+99999+99999102411ADDAY171999GF103991021051008001041001MW1011
0113010300999991960013018004+69700+019017FM-12+001499999V0202401N006719999999N0300001N9-00331+99999102371ADDAA199000691AY171999GF105991041051008001041001KA1999M-00331KA2999N-00611MD1710101+9999MW1701EQDQ01+012311APOSP 
0076010300999991960013100004+69700+019017FM-12+001499999V0202301N00771007801CN0050001N9-00331+99999102291ADDAY181999GF107991071081008001999999MD1410001+9999MW1851EQDQ01+012311APOSP 
0076010300999991960013103004+69700+019017FM-12+001499999V0202301N00511007801CN0200001N9-00281+99999102341ADDAY181999GF106991061081008001001001MD1210051+9999MW1851EQDQ01+011311APOSP 
0113010300999991960013106004+69700+019017FM-12+001499999V0202501N00461007801CN0300001N9-00171+99999102401ADDAA199002091AY181999GF106991061081008001001001KA1999M-00171KA2999N-00331MD1210061+9999MW1851EQDQ01+011311APOSP 
0076010300999991960013109004+69700+019017FM-12+001499999V0202501N00311007801CN0500001N9-00221+99999102511ADDAY181999GF107991071081008001001001MD1210111+9999MW1021EQDQ01+011301APOSP 
0076010300999991960013112004+69700+019017FM-12+001499999V0203601N00261007801CN0100001N9-00171+99999102681ADDAY181999GF107991071081008001001001MD1210171+9999MW1851EQDQ01+011301APOSP 
0076010300999991960013115004+69700+019017FM-12+001499999V0203401N00101007801CN0100001N9-00221+99999102831ADDAY181999GF107991071081008001001001MD1210151+9999MW1851EQDQ01+010301APOSP 
0129010300999991960013118004+69700+019017FM-12+001499999V0203201N002619999999N0500001N9-00281+99999102931ADDAA199000591AY181999GF105991031041008001061021KA1999M-00111KA2999N+99999MD1210101+9999MW1011EQDQ01+011311APOSP Q02 -00222ATMN  
0076010300999991960020100004+69700+019017FM-12+001499999V0209991C00001007801CN0400001N9-00331+99999103111ADDAY181999GF107991071081008001001001MD1210081+9999MW1151EQDQ01+010301APOSP 
0076010300999991960020103004+69700+019017FM-12+001499999V0202701N00101007801CN0200001N9-00331+99999103171ADDAY181999GF107991071081008001001001MD1210061+9999MW1851EQDQ01+010301APOSP 
0043010300999991960020104004+69700+019017FM-12+001499999V0202701N00101007801CN0150001N9+99999+99999103181ADDAY181999GF107991071081008001001001MW1851
0043010300999991960020105004+69700+019017FM-12+001499999V0202501N00261007801CN0100001N9+99999+99999103191ADDAY181999GF108991071081008001999999MW1851
0113010300999991960020106004+69700+019017FM-12+001499999V0202501N00101007801CN0400001N9-00281+99999103201ADDAA199000391AY181999GF107991071081008001001001KA1999M-00221KA2999N-00331MD1210031+9999MW1261EQDQ01+010301APOSP 
0043010300999991960020107004+69700+019017FM-12+001499999V0202701N00101007801CN0400001N9+99999+99999103201ADDAY121999GF107991071081008001001001MW1151
0043010300999991960020108004+69700+019017FM-12+001499999V0202701N00261012301CN0500001N9+99999+99999103221ADDAY121999GF107991061051012501041001MW1151
0076010300999991960020109004+69700+019017FM-12+001499999V0202501N003119999999N0500001N9-00281+99999103241ADDAY121999GF104991031051008001041021MD1210041+9999MW1011EQDQ01+011301APOSP 
0043010300999991960020110004+69700+019017FM-12+001499999V0202301N003119999999N0500001N9+99999+99999103301ADDAY121999GF104991031051008001041021MW1021
0043010300999991960020111004+69700+019017FM-12+001499999V0202301N003119999999N0500001N9+99999+99999103321ADDAY121999GF105991041081008001041001MW1151
0076010300999991960020112004+69700+019017FM-12+001499999V0202301N003119999999N0500001N9-00281+99999103331ADDAY121999GF105991041081008001041001MD1210091+9999MW1021EQDQ01+011301APOSP 
0043010300999991960020113004+69700+019017FM-12+001499999V0202501N002619999999N0500001N9+99999+99999103331ADDAY121999GF105991041081008001041001MW1151
0043010300999991960020114004+69700+019017FM-12+001499999V0202701N00361007801CN0080001N9+99999+99999103341ADDAY121999GF107991061081008001041001MW1851
0076010300999991960020115004+69700+019017FM-12+001499999V0202501N00211007801CN0300001N9-00281+99999103351ADDAY181999GF107991051081008001041001MD1210021+9999MW1261EQDQ01+011301APOSP 
0043010300999991960020116004+69700+019017FM-12+001499999V0202501N00151007801CN0500001N9+99999+99999103351ADDAY121999GF107991051081008001041001MW1021
0043010300999991960020117004+69700+019017FM-12+001499999V0202501N00361007801CN0100001N9+99999+99999103351ADDAY121999GF108991081081008001999999MW1851
0113010300999991960020118004+69700+019017FM-12+001499999V0202501N00311007801CN0150001N9-00171+99999103351ADDAA199001091AY181999GF107991071081008001999999KA1999M-00171KA2999N-00391MD1410001+9999MW1851EQDQ01+011301APOSP 
0076010300999991960020200004+69700+019017FM-12+001499999V0202301N00621007801CN0500001N9-00171+99999103261ADDAY181999GF107991071081008001999999MD1710031+9999MW1021EQDQ01+012311APOSP 
0076010300999991960020203004+69700+019017FM-12+001499999V0202301N00671007801CN0500001N9-00111+99999103091ADDAY181999GF106991061081008001001001MD1710171+9999MW1261EQDQ01+012311APOSP 
0043010300999991960020204004+69700+019017FM-12+001499999V0202301N00671007801CN0500001N9+99999+99999103061ADDAY121999GF107991071081008001999999MW1021
0043010300999991960020205004+69700+019017FM-12+001499999V0202301N00571007801CN0500001N9+99999+99999103031ADDAY121999GF107991071081008001999999MW1021
0113010300999991960020206004+69700+019017FM-12+001499999V0202301N00671007801CN0500001N9-00111+99999102971ADDAA199000391AY181999GF107991071081008001999999KA1999M-00111KA2999N-00221MD1710121+9999MW1021EQDQ01+012311APOSP 
0043010300999991960020207004+69700+019017FM-12+001499999V0202301N00621007801CN0500001N9+99999+99999102921ADDAY121999GF107991071081008001999999MW1151
0043010300999991960020208004+69700+019017FM-12+001499999V0202301N006719999999N0500001N9+99999+99999102901ADDAY121999GF106991041051012501041001MW1011
0076010300999991960020209004+69700+019017FM-12+001499999V0202501N005719999999N0600001N9-00221+99999102871ADDAY121999GF102991011051012501041001MD1710101+9999MW1011EQDQ01+012311APOSP 
0043010300999991960020210004+69700+019017FM-12+001499999V0202501N004619999999N0700001N9+99999+99999102851ADDAY101999GF101991011051017501001001MW1011
0043010300999991960020211004+69700+019017FM-12+001499999V0202501N003619999999N0700001N9+99999+99999102771ADDAY101999GF101991011051017501001001MW1021
0076010300999991960020212004+69700+019017FM-12+001499999V0209991C000019999999N0700001N9-00391+99999102741ADDAY111999GF101991011051017501001001MD1710131+9999MW1021EQDQ01+010311APOSP 
0043010300999991960020213004+69700+019017FM-12+001499999V0202501N004619999999N0700001N9+99999+99999102671ADDAY101999GF101991011051017501001001MW1021
0043010300999991960020214004+69700+019017FM-12+001499999V0202501N00461220001CN0700001N9+99999+99999102631ADDAY101999GF100991001001999999001001MW1011
0076010300999991960020215004+69700+019017FM-12+001499999V0202501N00571220001CN0700001N9-00441+99999102581ADDAY101999GF100991001001999999001001MD1710161+9999MW1021EQDQ01+012301APOSP 
0043010300999991960020216004+69700+019017FM-12+001499999V0202301N00461220001CN0700001N9+99999+99999102541ADDAY101999GF100991001001999999001001MW1021
0043010300999991960020217004+69700+019017FM-12+001499999V0202301N00261220001CN0700001N9+99999+99999102481ADDAY101999GF100991001001999999001001MW1021
0102010300999991960020218004+69700+019017FM-12+001499999V0202301N00261220001CN0700001N9-00671+99999102431ADDAY101999GF100991001001999999001001KA1999M-00061KA2999N-00671MD1710151+9999MW1021EQDQ01+011311APOSP 
0076010300999991960020300004+69700+019017FM-12+001499999V0202501N00101220001CN0700001N9-00891+99999102111ADDAY101999GF100991001001999999001001MD1710221+9999MW1021EQDQ01+011301APOSP 
0076010300999991960020303004+69700+019017FM-12+001499999V0202501N00151220001CN0700001N9-00941+99999101861ADDAY101999GF100991001001999999001001MD1710251+9999MW1021EQDQ01+011301APOSP 
0043010300999991960020304004+69700+019017FM-12+001499999V0202501N00151220001CN0700001N9+99999+99999101731ADDAY101999GF100991001001999999001001MW1021
0043010300999991960020305004+69700+019017FM-12+001499999V0202501N00151220001CN0700001N9+99999+99999101681ADDAY101999GF100991001001999999001001MW1021
0102010300999991960020306004+69700+019017FM-12+001499999V0202501N00151220001CN0700001N9-01001+99999101631ADDAY101999GF100991001001999999001001KA1999M-00671KA2999N-01061MD1710231+9999MW1021EQDQ01+011301APOSP 
0043010300999991960020307004+69700+019017FM-12+001499999V0202501N00151220001CN0700001N9+99999+99999101521ADDAY101999GF100991001001999999001001MW1021
0043010300999991960020308004+69700+019017FM-12+001499999V0209991C00001220001CN0700001N9+99999+99999101431ADDAY101999GF100991001001999999001001MW1021
0092010300999991960020309004+69700+019017FM-12+001499999V0202301N001519999999N0700001N9-00941+99999101411ADDAY101999GF101991001001999999001011MD1710221+9999MW1031EQDQ01+000012SCOTLCQ02+011301APOSP 
0043010300999991960020310004+69700+019017FM-12+001499999V0202501N00151220001CN0700001N9+99999+99999101361ADDAY101999GF101991001001999999001011MW1021
0043010300999991960020311004+69700+019017FM-12+001499999V0202301N00311220001CN0500001N9+99999+99999101301ADDAY101999GF101991001001999999001011MW1021
0076010300999991960020312004+69700+019017FM-12+001499999V0202501N00311220001CN0700001N9-00831+99999101281ADDAY101999GF101991001001999999001011MD1710131+9999MW1021EQDQ01+011301APOSP 
0043010300999991960020313004+69700+019017FM-12+001499999V0202301N00461220001CN0700001N9+99999+99999101231ADDAY101999GF101991001001999999001011MW1021
0043010300999991960020314004+69700+019017FM-12+001499999V0202301N00261220001CN0700001N9+99999+99999101151ADDAY101999GF101991001001999999001011MW1021
0076010300999991960020315004+69700+019017FM-12+001499999V0202501N00151220001CN0700001N9-00941+99999101091ADDAY101999GF101991001001999999001011MD1710191+9999MW1021EQDQ01+011301APOSP 
0043010300999991960020316004+69700+019017FM-12+001499999V0202101N00311220001CN0700001N9+99999+99999101051ADDAY101999GF101991001001999999001011MW1021
0043010300999991960020317004+69700+019017FM-12+001499999V0202501N00311220001CN0700001N9+99999+99999100961ADDAY101999GF101991001001999999001011MW1021
0102010300999991960020318004+69700+019017FM-12+001499999V0202301N00151220001CN0700001N9-01001+99999100881ADDAY101999GF100991001001999999001001KA1999M-00781KA2999N-01061MD1710211+9999MW1021EQDQ01+011301APOSP 
0076010300999991960020400004+69700+019017FM-12+001499999V0202301N001519999999N0700001N9-00831+99999100311ADDAY101999GF102991011001999999041021MD1710301+9999MW1031EQDQ01+011301APOSP 
0076010300999991960020403004+69700+019017FM-12+001499999V0202301N001519999999N0700001N9-00671+99999100041ADDAY111999GF106991011001999999041061MD1710271+9999MW1031EQDQ01+011301APOSP 
0043010300999991960020404004+69700+019017FM-12+001499999V0202301N001519999999N0700001N9+99999+99999099911ADDAY121999GF106991031051012501041021MW1021
0043010300999991960020405004+69700+019017FM-12+001499999V0202301N001519999999N0700001N9+99999+99999099851ADDAY121999GF105991021051012501041021MW1011
0102010300999991960020406004+69700+019017FM-12+001499999V0202501N002119999999N0700001N9-00561+99999099851ADDAY121999GF105991021051012501041021KA1999M-00501KA2999N-01001MD1610191+9999MW1021EQDQ01+011301APOSP 
0043010300999991960020407004+69700+019017FM-12+001499999V0202301N005119999999N0600001N9+99999+99999099841ADDAY121999GF107991031051012501041021MW1031
0043010300999991960020408004+69700+019017FM-12+001499999V0202401N006719999999N0600001N9+99999+99999099891ADDAY121999GF108991041051012501071999MW1031
0076010300999991960020409004+69700+019017FM-12+001499999V0202301N009319999999N0600001N9-00391+99999099941ADDAY121999GF107991021051012501071999MD1310091+9999MW1011EQDQ01+011311APOSP 
0043010300999991960020410004+69700+019017FM-12+001499999V0202301N00671024001CN0600001N9+99999+99999099981ADDAY121999GF107991071001999999051001MW1011
0043010300999991960020411004+69700+019017FM-12+001499999V0202301N00511024001CN0600001N9+99999+99999099991ADDAY121999GF107991051001999999051071MW1011
0076010300999991960020412004+69700+019017FM-12+001499999V0202301N00671024001CN0600001N9-00331+99999099991ADDAY121999GF107991051001999999011071MD1110051+9999MW1021EQDQ01+012311APOSP 
0043010300999991960020413004+69700+019017FM-12+001499999V0202301N00671024001CN0600001N9+99999+99999099981ADDAY121999GF107991061001999999011071MW1031
0043010300999991960020414004+69700+019017FM-12+001499999V0202501N00671021001CN0600001N9+99999+99999099961ADDAY121999GF108991081001022501021999MW1031
0076010300999991960020415004+69700+019017FM-12+001499999V0202301N00511012301CN0600001N9-00281+99999099951ADDAY121999GF108991061051012501021999MD1810041+9999MW1141EQDQ01+011311APOSP 
0043010300999991960020416004+69700+019017FM-12+001499999V0202301N00511012301CN0600001N9+99999+99999099931ADDAY121999GF108991071051012501021999MW1031
0043010300999991960020417004+69700+019017FM-12+001499999V0202101N00261012301CN0600001N9+99999+99999099931ADDAY121999GF108991071051012501021999MW1021
0102010300999991960020418004+69700+019017FM-12+001499999V0202301N00261012301CN0600001N9-00171+99999099911ADDAY121999GF108991061051012501071999KA1999M-00171KA2999N-00561MD1710041+9999MW1011EQDQ01+011311APOSP 
0076010300999991960020500004+69700+019017FM-12+001499999V0202101N002619999999N0600001N9+00061+99999099811ADDAY121999GF107991011051012501051001MD1710041+9999MW1021EQDQ01+011311APOSP 
0076010300999991960020503004+69700+019017FM-12+001499999V0202301N00671024001CN0600001N9+00441+99999099711ADDAY121999GF107991071001999999051001MD1710101+9999MW1021EQDQ01+012311APOSP 
0043010300999991960020504004+69700+019017FM-12+001499999V0202301N00771024001CN0600001N9+99999+99999099691ADDAY121999GF108991081001999999011999MW1031
0043010300999991960020505004+69700+019017FM-12+001499999V0202101N01231021001CN0400001N9+99999+99999099661ADDAY121999GF108991081001022501021999MW1601
0113010300999991960020506004+69700+019017FM-12+001499999V0202101N01231012301CN0500001N9+00611+99999099621ADDAA199000691AY161999GF107991071051012501001001KA1999M+00671KA2999N-00171MD1710091+9999MW1011EQDQ01+013331APOSP 
0043010300999991960020507004+69700+019017FM-12+001499999V0202101N01231012301CN0500001N9+99999+99999099581ADDAY121999GF107991061051012501041001MW1011
0043010300999991960020508004+69700+019017FM-12+001499999V0202001N01541007801CN0350001N9+99999+99999099591ADDAY181999GF107991071081008001001001MW1801
0076010300999991960020509004+69700+019017FM-12+001499999V0202001N01231007801CN0300001N9+00561+99999099731ADDAY181999GF107991071081008001001001MD1310111+9999MW1801EQDQ01+013331APOSP 
0043010300999991960020510004+69700+019017FM-12+001499999V0202001N01231007801CN0400001N9+99999+99999099831ADDAY181999GF107991071081008001999999MW1251
0043010300999991960020511004+69700+019017FM-12+001499999V0202301N00871007801CN0300001N9+99999+99999099861ADDAY181999GF108991081081008001999999MW1801
0076010300999991960020512004+69700+019017FM-12+001499999V0202301N00931007801CN0250001N9+00501+99999099911ADDAY181999GF107991071081008001041001MD1210181+9999MW1801EQDQ01+012331APOSP 
0043010300999991960020513004+69700+019017FM-12+001499999V0202301N00931007801CN0250001N9+99999+99999099971ADDAY181999GF107991071081008001999999MW1801
0043010300999991960020514004+69700+019017FM-12+001499999V0202001N01181007801CN0200001N9+99999+99999100011ADDAY181999GF107991071081008001041001MW1801
0076010300999991960020515004+69700+019017FM-12+001499999V0202301N00931007801CN0200001N9+00441+99999100131ADDAY181999GF108991081081008001999999MD1310221+9999MW1801EQDQ01+012331APOSP 
0043010300999991960020516004+69700+019017FM-12+001499999V0202301N01231007801CN0200001N9+99999+99999100141ADDAY181999GF108991081081008001999999MW1801
0043010300999991960020517004+69700+019017FM-12+001499999V0202301N01341007801CN0200001N9+99999+99999100231ADDAY181999GF108991081081008001999999MW1801
0113010300999991960020518004+69700+019017FM-12+001499999V0202301N01341007801CN0300001N9+00441+99999100311ADDAA199000391AY181999GF107991071081008001001001KA1999M+00671KA2999N+00441MD1210181+9999MW1801EQDQ01+013331APOSP 
0076010300999991960020600004+69700+019017FM-12+001499999V0202301N00671007801CN0300001N9+00281+99999100871ADDAY181999GF107991071081008001001001MD1210301+9999MW1801EQDQ01+012331APOSP 
0076010300999991960020603004+69700+019017FM-12+001499999V0202301N00511007801CN0200001N9+00281+99999101071ADDAY181999GF108991081081008001999999MD1210201+9999MW1801EQDQ01+012311APOSP 
0043010300999991960020604004+69700+019017FM-12+001499999V0202301N00671007801CN0200001N9+99999+99999101111ADDAY181999GF108991081081008001999999MW1801
0043010300999991960020605004+69700+019017FM-12+001499999V0202001N00671007801CN0250001N9+99999+99999101151ADDAY181999GF108991081081008001999999MW1801
0113010300999991960020606004+69700+019017FM-12+001499999V0202001N00871007801CN0250001N9+00221+99999101191ADDAA199001091AY181999GF108991081081008001999999KA1999M+00441KA2999N+00221MD1210121+9999MW1801EQDQ01+012311APOSP 
0043010300999991960020607004+69700+019017FM-12+001499999V0202301N00871007801CN0300001N9+99999+99999101221ADDAY181999GF108991081081008001999999MW1801
0043010300999991960020608004+69700+019017FM-12+001499999V0202001N00671007801CN0300001N9+99999+99999101251ADDAY181999GF107991071081008001999999MW1151
0076010300999991960020609004+69700+019017FM-12+001499999V0202301N00671007801CN0300001N9+00281+99999101321ADDAY181999GF107991071081008001001001MD1210131+9999MW1151EQDQ01+012311APOSP 
0043010300999991960020610004+69700+019017FM-12+001499999V0202301N00671007801CN0300001N9+99999+99999101361ADDAY181999GF107991071081008001001001MW1151
0043010300999991960020611004+69700+019017FM-12+001499999V0202301N00771007801CN0300001N9+99999+99999101411ADDAY181999GF107991071081008001001001MW1801
0076010300999991960020612004+69700+019017FM-12+001499999V0202301N00671007801CN0200001N9+00221+99999101431ADDAY181999GF108991081081008001999999MD1210111+9999MW1811EQDQ01+012311APOSP 
0043010300999991960020613004+69700+019017FM-12+001499999V0202501N00671007801CN0100001N9+99999+99999101501ADDAY181999GF108991081081008001999999MW1841
0043010300999991960020614004+69700+019017FM-12+001499999V0202301N00671007801CN0150001N9+99999+99999101571ADDAY181999GF108991081081008001999999MW1831
0076010300999991960020615004+69700+019017FM-12+001499999V0202301N00671007801CN0300001N9+00221+99999101621ADDAY181999GF107991071081008001001001MD1210191+9999MW1251EQDQ01+012311APOSP 
0043010300999991960020616004+69700+019017FM-12+001499999V0202501N00671007801CN0150001N9+99999+99999101691ADDAY181999GF108991081081008001999999MW1811
0043010300999991960020617004+69700+019017FM-12+001499999V0202301N00671007801CN0100001N9+99999+99999101721ADDAY181999GF108991081081008001999999MW1811
0113010300999991960020618004+69700+019017FM-12+001499999V0202301N00671007801CN0300001N9+00171+99999101741ADDAA199008091AY181999GF107991071081008001001001KA1999M+00281KA2999N+00111MD1210121+9999MW1801EQDQ01+012311APOSP 
0076010300999991960020700004+69700+019017FM-12+001499999V0202301N00461007801CN0300001N9+00171+99999101661ADDAY181999GF107991071081008001001001MD1810091+9999MW1801EQDQ01+011311APOSP 
0076010300999991960020703004+69700+019017FM-12+001499999V0203001N00261007801CN0100001N9+00111+99999101771ADDAY181999GF108991081081008001999999MD1310111+9999MW1841EQDQ01+011311APOSP 
0113010300999991960020706004+69700+019017FM-12+001499999V0203601N00461007801CN0150001N9+00111+99999102211ADDAA199011091AY181999GF108991081081008001999999KA1999M+00281KA2999N+00111MD1210441+9999MW1801EQDQ01+011311APOSP 
0076010300999991960020709004+69700+019017FM-12+001499999V0200701N00261007801CN0500001N9+00061+99999102661ADDAY181999GF107991071081008001001001MD1210451+9999MW1011EQDQ01+011301APOSP 
0076010300999991960020712004+69700+019017FM-12+001499999V0203601N004619999999N0500001N9+00001+99999102831ADDAY181999GF108991031081008001071999MD1110171+9999MW1151EQDQ01+011301APOSP 
0076010300999991960020715004+69700+019017FM-12+001499999V0202301N00151007801CN0400001N9-00061+99999102871ADDAY121999GF107991051081008001071999MD1210041+9999MW1151EQDQ01+011301APOSP 
0113010300999991960020718004+69700+019017FM-12+001499999V0209991C000019999999N0500001N9-00061+99999102741ADDAA199000691AY121999GF108991041051008001071999KA1999M+00171KA2999N-00061MD1810131+9999MW1021EQDQ01+010301APOSP 
0076010300999991960020800004+69700+019017FM-12+001499999V0202301N004619999999N0500001N9+00111+99999102141ADDAY121999GF108991021051012501021999MD1710381+9999MW1021EQDQ01+011301APOSP 
0076010300999991960020803004+69700+019017FM-12+001499999V0202301N004619999999N0500001N9+00111+99999101801ADDAY171999GF108991031051012501021999MD1710341+9999MW1021EQDQ01+011301APOSP 
0043010300999991960020804004+69700+019017FM-12+001499999V0202301N004619999999N0500001N9+99999+99999101671ADDAY121999GF108991031051012501021999MW1021
0043010300999991960020805004+69700+019017FM-12+001499999V0202301N004619999999N0400001N9+99999+99999101561ADDAY121999GF108991031051008001021999MW1681
0113010300999991960020806004+69700+019017FM-12+001499999V0202301N005119999999N0300001N9+00171+99999101491ADDAA199000391AY171999GF108991031051008001021999KA1999M+00171KA2999N-00061MD1710311+9999MW1681EQDQ01+011311APOSP 
0043010300999991960020807004+69700+019017FM-12+001499999V0202301N006719999999N0250001N9+99999+99999101421ADDAY171999GF108991011051008001021999MW1611
0043010300999991960020808004+69700+019017FM-12+001499999V0202301N006219999999N0200001N9+99999+99999101321ADDAY161999GF108991021061004501021999MW1611
0076010300999991960020809004+69700+019017FM-12+001499999V0202301N006719999999N0150001N9+00171+99999101201ADDAY161999GF108991021061004501021999MD1710291+9999MW1611EQDQ01+012311APOSP 
0043010300999991960020810004+69700+019017FM-12+001499999V0202301N006719999999N0100001N9+99999+99999101071ADDAY161999GF108991021061004501021999MW1611
0043010300999991960020811004+69700+019017FM-12+001499999V0202301N007719999999N0080001N9+99999+99999101001ADDAY161999GF108991021061004501021999MW1611
0076010300999991960020812004+69700+019017FM-12+001499999V0202301N00771007801CN0100001N9+00281+99999100871ADDAY171999GF108991071051008001021999MD1710331+9999MW1611EQDQ01+012311APOSP 
0043010300999991960020813004+69700+019017FM-12+001499999V0202301N00931007801CN0100001N9+99999+99999100751ADDAY161999GF108991071051008001021999MW1611
0043010300999991960020814004+69700+019017FM-12+001499999V0202301N00931007801CN0080001N9+99999+99999100571ADDAY161999GF108991071051008001021999MW1611
0076010300999991960020815004+69700+019017FM-12+001499999V0202301N00931007801CN0140001N9+00441+99999100421ADDAY161999GF108991081051008001999999MD1710451+9999MW1611EQDQ01+012321APOSP 
0043010300999991960020816004+69700+019017FM-12+001499999V0202401N01031007801CN0150001N9+99999+99999100331ADDAY161999GF108991081051008001999999MW1601
0043010300999991960020817004+69700+019017FM-12+001499999V0202301N01231007801CN0150001N9+99999+99999100271ADDAY161999GF108991081051008001999999MW1611
