0076011520999991960010100004+67267+014367FM-12+001099999V0201501N01651007801CN0250001N9+00441+99999098731ADDAY161999GF108991999051008001021999MD1710281+9999MW1601EQDQ01+000082SCOTLC
0062011520999991960010101004+67267+014367FM-12+001099999V0201501N01131007801CN0250001N9+99999+99999999999ADDAY161999GF108991999051008001021999MW1611EQDQ01+000082SCOTLC
0062011520999991960010102004+67267+014367FM-12+001099999V0201401N01031004501CN0200001N9+99999+99999999999ADDAY161999GF108991999051004501021999MW1611EQDQ01+000082SCOTLC
0076011520999991960010103004+67267+014367FM-12+001099999V0201501N01031004501CN0200001N9+00501+99999098681ADDAY161999GF108991999051004501021999MD1710051+9999MW1151EQDQ01+000082SCOTLC
0062011520999991960010104004+67267+014367FM-12+001099999V0201301N01031004501CN0200001N9+99999+99999999999ADDAY161999GF108991999051004501021999MW1611EQDQ01+000082SCOTLC
0062011520999991960010105004+67267+014367FM-12+001099999V0201301N00931004501CN0200001N9+99999+99999999999ADDAY161999GF108991999051004501021999MW1151EQDQ01+000082SCOTLC
0136011520999991960010106004+67267+014367FM-12+001099999V0201201N01031004501CN0200001N9+00501+99999098521ADDAA199000391AJ100009199999999AY161999GF108991999051004501021999IA1009KA1999M+00611KA2999N+00281MD1710161+9999MW1601EQDQ01+000082SCOTLC
0062011520999991960010107004+67267+014367FM-12+001099999V0201301N00871004501CN0200001N9+99999+99999999999ADDAY161999GF108991999051004501021999MW1601EQDQ01+000082SCOTLC
0043011520999991960010108004+67267+014367FM-12+001099999V0201301N00931007801CN0300001N9+99999+99999999999ADDAY161999GF108991071051008001021999MW1151
0057011520999991960010109004+67267+014367FM-12+001099999V0201201N00821007801CN0300001N9+00441+99999098481ADDAY161999GF107991071051008001021999MD1710041+9999MW1151
0043011520999991960010110004+67267+014367FM-12+001099999V0201501N00671007801CN0150001N9+99999+99999999999ADDAY161999GF108991061061008001021999MW1611
0043011520999991960010111004+67267+014367FM-12+001099999V0202901N00671002401CN0080001N9+99999+99999999999ADDAY161999GF108991081051002501999999MW1631
0057011520999991960010112004+67267+014367FM-12+001099999V0202501N00621002401CN0130001N9+00221+99999098981ADDAY161999GF108991081051002501999999MD1310501+9999MW1611
0043011520999991960010113004+67267+014367FM-12+001099999V0202301N00461002401CN0150001N9+99999+99999999999ADDAY161999GF108991081061002501999999MW1601
0043011520999991960010114004+67267+014367FM-12+001099999V0202101N00571004501CN0200001N9+99999+99999999999ADDAY181999GF107991071061004501999999MW1801
0057011520999991960010115004+67267+014367FM-12+001099999V0202101N008219999999N0250001N9+00281+99999099251ADDAY181999GF104991041061004501001001MD1210271+9999MW1151
0043011520999991960010116004+67267+014367FM-12+001099999V0202401N01031004501CN0150001N9+99999+99999999999ADDAY181999GF107991071091004501999999MW1271
0043011520999991960010117004+67267+014367FM-12+001099999V0202401N00821004501CN0100001N9+99999+99999999999ADDAY181999GF107991071091004501999999MW1271
0094011520999991960010118004+67267+014367FM-12+001099999V0202601N01031004501CN0250001N9+00391+99999099491ADDAA199004091AY181999GF105991051091004501001001KA1999M+00561KA2999N+00221MD1210241+9999MW1271
0043011520999991960010119004+67267+014367FM-12+001099999V0202501N01441004501CN0300001N9+99999+99999999999ADDAY181999GF108991081091004501999999MW1261
0062011520999991960010120004+67267+014367FM-12+001099999V0202501N00821004501CN0350001N9+99999+99999999999ADDAY181999GF107991999091004501999999MW1251EQDQ01+000082SCOTLC
0043011520999991960010121004+67267+014367FM-12+001099999V0202401N00931004501CN0300001N9+99999+99999999999ADDAY181999GF105991051091004501999999MW1261
0043011520999991960010122004+67267+014367FM-12+001099999V0202401N011319999999N0250001N9+99999+99999999999ADDAY181999GF104991041091004501001001MW1261
0043011520999991960010123004+67267+014367FM-12+001099999V0202501N011319999999N0280001N9+99999+99999999999ADDAY181999GF104991041091004501001001MW1261
0057011520999991960010200004+67267+014367FM-12+001099999V0202501N01031004501CN0250001N9+00391+99999100091ADDAY181999GF106991061091004501001001MD1210271+9999MW1271
0043011520999991960010201004+67267+014367FM-12+001099999V0202401N01131004501CN0180001N9+99999+99999999999ADDAY181999GF107991071091004501001001MW1801
0043011520999991960010202004+67267+014367FM-12+001099999V0202501N012319999999N0300001N9+99999+99999999999ADDAY181999GF103991031091004501001001MW1251
0057011520999991960010203004+67267+014367FM-12+001099999V0202601N010319999999N0300001N9+00281+99999100351ADDAY181999GF104991041091004501001001MD1210261+9999MW1151
0043011520999991960010204004+67267+014367FM-12+001099999V0202601N009319999999N0500001N9+99999+99999999999ADDAY111999GF102991021021008001001001MW1011
0043011520999991960010205004+67267+014367FM-12+001099999V0202701N009319999999N0500001N9+99999+99999999999ADDAY101999GF101991011021008001001001MW1011
0117011520999991960010206004+67267+014367FM-12+001099999V0202501N008219999999N0250001N9+00391+99999100561ADDAA199001091AJ100009199999999AY181999GF104991041091004501001001IA1009KA1999M+00441KA2999N+00221MD1210211+9999MW1271
0043011520999991960010207004+67267+014367FM-12+001099999V0202801N006719999999N0300001N9+99999+99999999999ADDAY181999GF104991041091004501061001MW1271
0043011520999991960010208004+67267+014367FM-12+001099999V0202801N00871004501CN0300001N9+99999+99999999999ADDAY181999GF107991071091004501061999MW1801
0057011520999991960010209004+67267+014367FM-12+001099999V0202701N00771007801CN0300001N9+00501+99999100801ADDAY181999GF107991071081008001061999MD1210241+9999MW1251
0043011520999991960010210004+67267+014367FM-12+001099999V0202601N00721007801CN0300001N9+99999+99999999999ADDAY121999GF107991061081008001061011MW1151
0043011520999991960010211004+67267+014367FM-12+001099999V0202601N007219999999N0400001N9+99999+99999999999ADDAY121999GF105991041081008001061011MW1151
0057011520999991960010212004+67267+014367FM-12+001099999V0202401N00771007801CN0500001N9+00441+99999100971ADDAY181999GF106991051021008001041011MD1110171+9999MW1031
0043011520999991960010213004+67267+014367FM-12+001099999V0202401N006219999999N0500001N9+99999+99999999999ADDAY121999GF106991041021004501041011MW1021
0043011520999991960010214004+67267+014367FM-12+001099999V0202301N006719999999N0500001N9+99999+99999999999ADDAY121999GF104991021021004501041011MW1011
0057011520999991960010215004+67267+014367FM-12+001099999V0202301N00671004501CN0500001N9+00441+99999101091ADDAY121999GF107991061081004501041011MD1210121+9999MW1031
0043011520999991960010216004+67267+014367FM-12+001099999V0202401N007219999999N0600001N9+99999+99999999999ADDAY121999GF105991041021008001061011MW1011
0043011520999991960010217004+67267+014367FM-12+001099999V0202301N007719999999N0600001N9+99999+99999999999ADDAY121999GF106991031021008001061011MW1151
0094011520999991960010218004+67267+014367FM-12+001099999V0202401N00721004501CN0500001N9+00561+99999101241ADDAA199000691AY181999GF106991051021004501061011KA1999M+00561KA2999N+00391MD1210151+9999MW1251
0043011520999991960010219004+67267+014367FM-12+001099999V0202401N007719999999N0500001N9+99999+99999999999ADDAY121999GF105991041021004501061011MW1151
0043011520999991960010220004+67267+014367FM-12+001099999V0202401N00671004501CN0400001N9+99999+99999999999ADDAY181999GF108991081021004501999999MW1251
0043011520999991960010221004+67267+014367FM-12+001099999V0202401N00821004501CN0180001N9+99999+99999999999ADDAY181999GF108991081021004501999999MW1801
0043011520999991960010222004+67267+014367FM-12+001099999V0202401N008719999999N0500001N9+99999+99999999999ADDAY181999GF104991041021008001001001MW1251
0043011520999991960010223004+67267+014367FM-12+001099999V0202401N009319999999N0500001N9+99999+99999999999ADDAY121999GF104991041021008001001001MW1151
0057011520999991960010300004+67267+014367FM-12+001099999V0202401N00821007801CN0300001N9+00501+99999101571ADDAY181999GF107991071021008001999999MD1210161+9999MW1151
0043011520999991960010301004+67267+014367FM-12+001099999V0202401N008219999999N0500001N9+99999+99999999999ADDAY181999GF104991041021008001001001MW1151
0043011520999991960010302004+67267+014367FM-12+001099999V0202301N00721007801CN0300001N9+99999+99999999999ADDAY181999GF108991081021008001999999MW1801
0057011520999991960010303004+67267+014367FM-12+001099999V0202401N00621007801CN0300001N9+00501+99999101741ADDAY181999GF106991061021008001001001MD1210171+9999MW1151
0043011520999991960010304004+67267+014367FM-12+001099999V0202401N00621007801CN0300001N9+99999+99999999999ADDAY121999GF106991061021008001001001MW1151
0043011520999991960010305004+67267+014367FM-12+001099999V0202401N00721007801CN0400001N9+99999+99999999999ADDAY121999GF106991061021008001001001MW1151
0117011520999991960010306004+67267+014367FM-12+001099999V0202401N005119999999N0400001N9+00501+99999101851ADDAA199000691AJ100009199999999AY181999GF103991031021008001001001IA1009KA1999M+00561KA2999N+00501MD1210111+9999MW1151
0043011520999991960010307004+67267+014367FM-12+001099999V0202401N005119999999N0400001N9+99999+99999999999ADDAY101999GF103991031021008001001001MW1151
0043011520999991960010308004+67267+014367FM-12+001099999V0202201N00511007801CN0500001N9+99999+99999999999ADDAY111999GF106991051081008001071001MW1031
0057011520999991960010309004+67267+014367FM-12+001099999V0202101N00361007801CN0600001N9+00441+99999102031ADDAY111999GF108991071081008001071999MD1210181+9999MW1031
0043011520999991960010310004+67267+014367FM-12+001099999V0202001N00511007801CN0600001N9+99999+99999999999ADDAY121999GF107991071061008001071999MW1011
0043011520999991960010311004+67267+014367FM-12+001099999V0201301N00411004501CN0700001N9+99999+99999999999ADDAY121999GF107991071061004501071999MW1021
0057011520999991960010312004+67267+014367FM-12+001099999V0201201N00571012301CN0700001N9+00331+99999102111ADDAY111999GF107991061061012501041011MD1110081+9999MW1021
0043011520999991960010313004+67267+014367FM-12+001099999V0201001N003619999999N0700001N9+99999+99999999999ADDAY121999GF105991031051012501041011MW1011
0043011520999991960010314004+67267+014367FM-12+001099999V0200901N004119999999N0700001N9+99999+99999999999ADDAY121999GF107991011051012501041021MW1031
0057011520999991960010315004+67267+014367FM-12+001099999V0201101N005719999999N0700001N9+00221+99999102121ADDAY121999GF107991011051012501071021MD1110011+9999MW1021
0043011520999991960010316004+67267+014367FM-12+001099999V0201101N006719999999N0700001N9+99999+99999999999ADDAY121999GF107991021051012501041071MW1021
0043011520999991960010317004+67267+014367FM-12+001099999V0201101N005719999999N0700001N9+99999+99999999999ADDAY121999GF105991011051012501041071MW1011
0083011520999991960010318004+67267+014367FM-12+001099999V0201001N006219999999N0700001N9+00171+99999102111ADDAY121999GF105991011051017501041071KA1999M+00501KA2999N+00171MD1710011+9999MW1011
0043011520999991960010319004+67267+014367FM-12+001099999V0201101N005719999999N0700001N9+99999+99999999999ADDAY121999GF107991011051017501041071MW1031
0043011520999991960010320004+67267+014367FM-12+001099999V0201001N005119999999N0700001N9+99999+99999999999ADDAY121999GF107991011051017501041071MW1021
0043011520999991960010321004+67267+014367FM-12+001099999V0201101N005119999999N0700001N9+99999+99999999999ADDAY121999GF105991011051017501041011MW1011
0043011520999991960010322004+67267+014367FM-12+001099999V0201101N004619999999N0700001N9+99999+99999999999ADDAY111999GF103991011051017501041011MW1011
0043011520999991960010323004+67267+014367FM-12+001099999V0201001N005119999999N0700001N9+99999+99999999999ADDAY101999GF102991021001999999041011MW1011
0057011520999991960010400004+67267+014367FM-12+001099999V0201101N005719999999N0700001N9+00111+99999102141ADDAY111999GF102991021001999999041011MD1110011+9999MW1021
0043011520999991960010401004+67267+014367FM-12+001099999V0201101N006219999999N0700001N9+99999+99999999999ADDAY101999GF102991021001999999041011MW1021
0043011520999991960010402004+67267+014367FM-12+001099999V0201101N006219999999N0700001N9+99999+99999999999ADDAY101999GF101991011001999999041011MW1011
0057011520999991960010403004+67267+014367FM-12+001099999V0201101N005119999999N0700001N9+00111+99999102081ADDAY101999GF101991011001999999041011MD1710061+9999MW1021
0043011520999991960010404004+67267+014367FM-12+001099999V0201001N005119999999N0700001N9+99999+99999999999ADDAY101999GF101991011001999999041011MW1021
0043011520999991960010405004+67267+014367FM-12+001099999V0200901N006219999999N0700001N9+99999+99999999999ADDAY101999GF101991011001999999041011MW1021
0106011520999991960010406004+67267+014367FM-12+001099999V0201001N005719999999N0700001N9+00111+99999101891ADDAJ100009199999999AY101999GF101991011001999999041011IA1009KA1999M+00221KA2999N+00061MD1710191+9999MW1021
0043011520999991960010407004+67267+014367FM-12+001099999V0201001N007219999999N0700001N9+99999+99999999999ADDAY101999GF101991011001999999041011MW1021
0043011520999991960010408004+67267+014367FM-12+001099999V0201001N007219999999N0700001N9+99999+99999999999ADDAY101999GF101991011001999999041011MW1021
0057011520999991960010409004+67267+014367FM-12+001099999V0201001N008219999999N0700001N9+00171+99999101641ADDAY101999GF101991011001999999041011MD1710251+9999MW1021
0043011520999991960010410004+67267+014367FM-12+001099999V0201101N008219999999N0700001N9+99999+99999999999ADDAY101999GF101991011051012501041011MW1021
0043011520999991960010411004+67267+014367FM-12+001099999V0200901N008219999999N0700001N9+99999+99999999999ADDAY101999GF102991011051012501041011MW1031
0057011520999991960010412004+67267+014367FM-12+001099999V0201001N007719999999N0700001N9+00221+99999101461ADDAY101999GF104991011051012501071011MD1710181+9999MW1031
0043011520999991960010413004+67267+014367FM-12+001099999V0201001N006219999999N0700001N9+99999+99999999999ADDAY121999GF107991011051012501071011MW1031
0043011520999991960010414004+67267+014367FM-12+001099999V0201501N003119999999N0700001N9+99999+99999999999ADDAY121999GF107991031001999999071071MW1021
0057011520999991960010415004+67267+014367FM-12+001099999V0201101N00411024001CN0700001N9+00221+99999101381ADDAY121999GF108991081001999999071999MD1710081+9999MW1031
0043011520999991960010416004+67267+014367FM-12+001099999V0200901N00511024001CN0700001N9+99999+99999999999ADDAY121999GF107991071001999999071999MW1011
0043011520999991960010417004+67267+014367FM-12+001099999V0200901N00511024001CN0700001N9+99999+99999999999ADDAY121999GF107991071001999999071999MW1021
0083011520999991960010418004+67267+014367FM-12+001099999V0201001N00721024001CN0700001N9+00221+99999101251ADDAY111999GF107991071001999999071999KA1999M+00281KA2999N-00061MD1710131+9999MW1021
0043011520999991960010419004+67267+014367FM-12+001099999V0200901N008219999999N0700001N9+99999+99999999999ADDAY121999GF107991021051012501071999MW1021
0043011520999991960010420004+67267+014367FM-12+001099999V0200901N008719999999N0600001N9+99999+99999999999ADDAY121999GF107991021051012501071999MW1021
0043011520999991960010421004+67267+014367FM-12+001099999V0200901N007219999999N0600001N9+99999+99999999999ADDAY121999GF108991021051012501071999MW1031
0043011520999991960010422004+67267+014367FM-12+001099999V0201001N008219999999N0400001N9+99999+99999999999ADDAY171999GF108991031051012501071999MW1701
0043011520999991960010423004+67267+014367FM-12+001099999V0200901N008219999999N0400001N9+99999+99999999999ADDAY171999GF108991041051012501071999MW1701
0057011520999991960010500004+67267+014367FM-12+001099999V0201101N00771007801CN0300001N9+00061+99999101051ADDAY171999GF108991061051008001021999MD1710091+9999MW1701
0043011520999991960010501004+67267+014367FM-12+001099999V0201001N009319999999N0400001N9+99999+99999999999ADDAY171999GF106991031051012501071011MW1151
0043011520999991960010502004+67267+014367FM-12+001099999V0201001N010319999999N0400001N9+99999+99999999999ADDAY121999GF107991031051012501071011MW1151
0057011520999991960010503004+67267+014367FM-12+001099999V0201001N009819999999N0600001N9+00001+99999100771ADDAY171999GF103991021051012501041011MD1710281+9999MW1011
0043011520999991960010504004+67267+014367FM-12+001099999V0201001N009319999999N0600001N9+99999+99999999999ADDAY101999GF103991011051012501041011MW1021
0043011520999991960010505004+67267+014367FM-12+001099999V0201101N01031015001CN0700001N9+99999+99999999999ADDAY111999GF107991051051017501041999MW1031
0117011520999991960010506004+67267+014367FM-12+001099999V0201101N00931012301CN0450001N9+00171+99999100691ADDAA199000691AJ100009199999999AY171999GF108991071051012501071999IA1009KA1999M+00221KA2999N+00001MD1610081+9999MW1151
0043011520999991960010507004+67267+014367FM-12+001099999V0201101N00821012301CN0400001N9+99999+99999999999ADDAY161999GF108991071051012501071999MW1601
0043011520999991960010508004+67267+014367FM-12+001099999V0201101N00771012301CN0400001N9+99999+99999999999ADDAY161999GF107991061051012501071999MW1151
0057011520999991960010509004+67267+014367FM-12+001099999V0201101N00821012301CN0500001N9+00171+99999100591ADDAY161999GF106991051051012501071999MD1710101+9999MW1011
0043011520999991960010510004+67267+014367FM-12+001099999V0201101N007719999999N0600001N9+99999+99999999999ADDAY121999GF106991041051012501071999MW1021
0043011520999991960010511004+67267+014367FM-12+001099999V0201101N00771012301CN0600001N9+99999+99999999999ADDAY161999GF107991061051012501071999MW1211
0057011520999991960010512004+67267+014367FM-12+001099999V0201101N00821012301CN0600001N9+00281+99999100491ADDAY161999GF107991071051012501071999MD1710101+9999MW1021
0043011520999991960010513004+67267+014367FM-12+001099999V0201101N00721012301CN0700001N9+99999+99999999999ADDAY121999GF106991051051012501071999MW1011
0043011520999991960010514004+67267+014367FM-12+001099999V0201101N005119999999N0700001N9+99999+99999999999ADDAY121999GF104991031051012501041011MW1011
0057011520999991960010515004+67267+014367FM-12+001099999V0201101N006219999999N0700001N9+00221+99999100431ADDAY111999GF102991011051012501041011MD1710061+9999MW1011
0043011520999991960010516004+67267+014367FM-12+001099999V0201101N006219999999N0700001N9+99999+99999999999ADDAY101999GF103991021051012501041011MW1031
0043011520999991960010517004+67267+014367FM-12+001099999V0201101N006219999999N0700001N9+99999+99999999999ADDAY101999GF103991021051012501041001MW1021
0094011520999991960010518004+67267+014367FM-12+001099999V0201001N004619999999N0700001N9+00281+99999100381ADDAA199000691AY111999GF104991031051012501041001KA1999M+00331KA2999N-00111MD1710051+9999MW1031
0043011520999991960010519004+67267+014367FM-12+001099999V0201101N006219999999N0700001N9+99999+99999999999ADDAY121999GF106991041051012501071001MW1031
0043011520999991960010520004+67267+014367FM-12+001099999V0201101N00621012301CN0700001N9+99999+99999999999ADDAY121999GF107991061051012501071999MW1031
0043011520999991960010521004+67267+014367FM-12+001099999V0201101N00571012301CN0700001N9+99999+99999999999ADDAY121999GF105991051051012501001001MW1011
0043011520999991960010522004+67267+014367FM-12+001099999V0201101N00571012301CN0700001N9+99999+99999999999ADDAY121999GF107991071051012501999999MW1031
0043011520999991960010523004+67267+014367FM-12+001099999V0201101N00511012301CN0700001N9+99999+99999999999ADDAY121999GF108991081051012501999999MW1031
0057011520999991960010600004+67267+014367FM-12+001099999V0201101N00571012301CN0600001N9+00331+99999100361ADDAY121999GF108991081051012501999999MD1210021+9999MW1021
0043011520999991960010601004+67267+014367FM-12+001099999V0201201N00511012301CN0600001N9+99999+99999999999ADDAY121999GF108991061051012501071999MW1021
0043011520999991960010602004+67267+014367FM-12+001099999V0201201N00411012301CN0600001N9+99999+99999999999ADDAY121999GF108991061051012501071999MW1021
0057011520999991960010603004+67267+014367FM-12+001099999V0201401N00411012301CN0600001N9+00501+99999100311ADDAY121999GF108991061051012501071999MD1710051+9999MW1021
0043011520999991960010604004+67267+014367FM-12+001099999V0201601N00621007801CN0500001N9+99999+99999999999ADDAY121999GF108991071051008001071999MW1021
0043011520999991960010605004+67267+014367FM-12+001099999V0201201N005719999999N0300001N9+99999+99999999999ADDAY161999GF108991041051008001071999MW1601
0117011520999991960010606004+67267+014367FM-12+001099999V0201001N007219999999N0300001N9+00331+99999100281ADDAA199000691AJ100009199999999AY161999GF108991041061004501021999IA1009KA1999M+00501KA2999N+00281MD1710031+9999MW1611
0062011520999991960010607004+67267+014367FM-12+001099999V0201101N00871004501CN0200001N9+99999+99999999999ADDAY161999GF108991999061004501021999MW1611EQDQ01+000082SCOTLC
0043011520999991960010608004+67267+014367FM-12+001099999V0201001N00931004501CN0250001N9+99999+99999999999ADDAY161999GF108991071051004501071999MW1151
0057011520999991960010609004+67267+014367FM-12+001099999V0201101N00821004501CN0250001N9+00171+99999100301ADDAY161999GF108991081051004501999999MD1110021+9999MW1151
0043011520999991960010610004+67267+014367FM-12+001099999V0201001N00771004501CN0300001N9+99999+99999999999ADDAY161999GF108991081051004501999999MW1611
0043011520999991960010611004+67267+014367FM-12+001099999V0201001N00671004501CN0600001N9+99999+99999999999ADDAY161999GF108991081051004501999999MW1511
0057011520999991960010612004+67267+014367FM-12+001099999V0200901N00821004501CN0600001N9+00111+99999100391ADDAY161999GF108991081051004501999999MD1210091+9999MW1501
0043011520999991960010613004+67267+014367FM-12+001099999V0200901N00821004501CN0150001N9+99999+99999999999ADDAY171999GF108991081051004501999999MW1681
0043011520999991960010614004+67267+014367FM-12+001099999V0201001N00621004501CN0150001N9+99999+99999999999ADDAY151999GF108991081051004501999999MW1501
0057011520999991960010615004+67267+014367FM-12+001099999V0201001N00771004501CN0100001N9+00061+99999100521ADDAY171999GF108991081051004501999999MD1210131+9999MW1681
0062011520999991960010616004+67267+014367FM-12+001099999V0201001N00671004501CN0120001N9+99999+99999999999ADDAY171999GF108991999051004501021999MW1501EQDQ01+000082SCOTLC
0062011520999991960010617004+67267+014367FM-12+001099999V0200901N00721004501CN0120001N9+99999+99999999999ADDAY151999GF108991999051004501021999MW1501EQDQ01+000082SCOTLC
0094011520999991960010618004+67267+014367FM-12+001099999V0200901N00871004501CN0080001N9-00061+99999100661ADDAA199001091AY171999GF108991061051004501011999KA1999M+00331KA2999N-00061MD1210141+9999MW1681
0043011520999991960010619004+67267+014367FM-12+001099999V0201001N00821004501CN0100001N9+99999+99999999999ADDAY171999GF108991071051004501011999MW1511
0043011520999991960010620004+67267+014367FM-12+001099999V0201001N00931002401CN0060001N9+99999+99999999999ADDAY151999GF108991071051002501011999MW1511
0062011520999991960010621004+67267+014367FM-12+001099999V0200901N00821002401CN0050001N9+99999+99999999999ADDAY171999GF108991999061002501021999MW1681EQDQ01+000082SCOTLC
0062011520999991960010622004+67267+014367FM-12+001099999V0201001N01031002401CN0100001N9+99999+99999999999ADDAY171999GF108991999061002501021999MW1681EQDQ01+000082SCOTLC
0043011520999991960010623004+67267+014367FM-12+001099999V0201001N00931004501CN0250001N9+99999+99999999999ADDAY171999GF108991061061004501021999MW1151
0057011520999991960010700004+67267+014367FM-12+001099999V0200901N010319999999N0600001N9-00331+99999101041ADDAY171999GF105991021051008001071001MD1210211+9999MW1011
0043011520999991960010701004+67267+014367FM-12+001099999V0201001N009319999999N0700001N9+99999+99999999999ADDAY121999GF104991021051008001071001MW1011
0043011520999991960010702004+67267+014367FM-12+001099999V0201001N008719999999N0700001N9+99999+99999999999ADDAY101999GF103991021051012501071001MW1011
0057011520999991960010703004+67267+014367FM-12+001099999V0201001N008719999999N0700001N9-00331+99999101261ADDAY111999GF103991021051012501071001MD1210231+9999MW1021
0043011520999991960010704004+67267+014367FM-12+001099999V0201101N010319999999N0700001N9+99999+99999999999ADDAY101999GF102991021051012501041001MW1011
0043011520999991960010705004+67267+014367FM-12+001099999V0201101N011319999999N0700001N9+99999+99999999999ADDAY101999GF102991021051012501041001MW1021
0100011520999991960010706004+67267+014367FM-12+001099999V0201101N009819999999N0700001N9-00501+99999101461ADDAA199000691AY111999GF101991011051012501041001IA1009KA1999M-00061KA2999N-00501MD1210201+9999MW1011
0043011520999991960010707004+67267+014367FM-12+001099999V0201101N012919999999N0700001N9+99999+99999999999ADDAY101999GF101991011051012501041001MW1021
0043011520999991960010708004+67267+014367FM-12+001099999V0201101N012919999999N0700001N9+99999+99999999999ADDAY101999GF101991011051017501041001MW1021
0057011520999991960010709004+67267+014367FM-12+001099999V0201101N012319999999N0700001N9-00561+99999101801ADDAY101999GF101991011051017501041001MD1210341+9999MW1021
0043011520999991960010710004+67267+014367FM-12+001099999V0201101N012919999999N0700001N9+99999+99999999999ADDAY101999GF101991011051017501041001MW1021
0043011520999991960010711004+67267+014367FM-12+001099999V0201101N014419999999N0700001N9+99999+99999999999ADDAY101999GF101991011051017501041011MW1021
0057011520999991960010712004+67267+014367FM-12+001099999V0201101N010319999999N0700001N9-00721+99999102081ADDAY101999GF101991011051017501041011MD1210281+9999MW1021
0043011520999991960010713004+67267+014367FM-12+001099999V0201101N011319999999N0700001N9+99999+99999999999ADDAY101999GF103991011051017501041011MW1031
0043011520999991960010714004+67267+014367FM-12+001099999V0201101N010319999999N0700001N9+99999+99999999999ADDAY101999GF102991011051017501041011MW1011
0057011520999991960010715004+67267+014367FM-12+001099999V0201101N014419999999N0700001N9-00721+99999102341ADDAY101999GF102991011051017501041011MD1210261+9999MW1021
0043011520999991960010716004+67267+014367FM-12+001099999V0201101N013919999999N0700001N9+99999+99999999999ADDAY101999GF101991011051017501041011MW1011
0043011520999991960010717004+67267+014367FM-12+001099999V0201001N01291220001CN0700001N9+99999+99999999999ADDAY101999GF100991001001999999001001MW1011
0083011520999991960010718004+67267+014367FM-12+001099999V0201001N01181220001CN0700001N9-00781+99999102571ADDAY101999GF100991001001999999001001KA1999M-00501KA2999N-00831MD1110231+9999MW1021
0043011520999991960010719004+67267+014367FM-12+001099999V0201001N00981220001CN0700001N9+99999+99999999999ADDAY101999GF100991001001999999001001MW1021
0043011520999991960010720004+67267+014367FM-12+001099999V0200901N00821220001CN0700001N9+99999+99999999999ADDAY101999GF100991001001999999001001MW1021
0043011520999991960010721004+67267+014367FM-12+001099999V0201001N008719999999N0700001N9+99999+99999999999ADDAY101999GF101991011051017501001001MW1031
0043011520999991960010722004+67267+014367FM-12+001099999V0200901N008219999999N0700001N9+99999+99999999999ADDAY101999GF101991011051017501001001MW1021
0043011520999991960010723004+67267+014367FM-12+001099999V0200901N008219999999N0700001N9+99999+99999999999ADDAY101999GF101991011051017501001001MW1021
0057011520999991960010800004+67267+014367FM-12+001099999V0200901N008219999999N0700001N9-00891+99999103001ADDAY101999GF101991011051012501001001MD1210181+9999MW1021
0043011520999991960010801004+67267+014367FM-12+001099999V0200901N007719999999N0700001N9+99999+99999999999ADDAY101999GF101991011051012501001001MW1021
0043011520999991960010802004+67267+014367FM-12+001099999V0200901N007719999999N0700001N9+99999+99999999999ADDAY101999GF101991011051012501001001MW1021
0057011520999991960010803004+67267+014367FM-12+001099999V0200901N006219999999N0700001N9-00941+99999103191ADDAY101999GF101991011051017501001001MD1210191+9999MW1021
0043011520999991960010804004+67267+014367FM-12+001099999V0200901N00511220001CN0700001N9+99999+99999999999ADDAY101999GF100991001001999999001001MW1011
0043011520999991960010805004+67267+014367FM-12+001099999V0200901N00511220001CN0700001N9+99999+99999999999ADDAY101999GF100991001001999999001001MW1021
0106011520999991960010806004+67267+014367FM-12+001099999V0200901N00571220001CN0700001N9-01001+99999103311ADDAJ100009199999999AY101999GF100991001001999999001001IA1009KA1999M-00721KA2999N-01061MD1210121+9999MW1021
0043011520999991960010807004+67267+014367FM-12+001099999V0200901N00511220001CN0700001N9+99999+99999999999ADDAY101999GF100991001001999999001001MW1021
0043011520999991960010808004+67267+014367FM-12+001099999V0200901N00571220001CN0700001N9+99999+99999999999ADDAY101999GF100991001001999999001001MW1021
0057011520999991960010809004+67267+014367FM-12+001099999V0200901N00621220001CN0700001N9-01001+99999103421ADDAY101999GF100991001001999999001001MD1210111+9999MW1021
0043011520999991960010810004+67267+014367FM-12+001099999V0201001N006219999999N0700001N9+99999+99999999999ADDAY101999GF101991011051017501001011MW1031
0043011520999991960010811004+67267+014367FM-12+001099999V0200901N006219999999N0700001N9+99999+99999999999ADDAY111999GF105991011081008001051011MW1161
0057011520999991960010812004+67267+014367FM-12+001099999V0201001N006219999999N0700001N9-00891+99999103501ADDAY111999GF107991021081008001051011MD1110081+9999MW1031
0043011520999991960010813004+67267+014367FM-12+001099999V0201001N006219999999N0700001N9+99999+99999999999ADDAY121999GF107991011081008001051011MW1021
0043011520999991960010814004+67267+014367FM-12+001099999V0201001N00621007801CN0700001N9+99999+99999999999ADDAY121999GF107991051081008001051011MW1021
0057011520999991960010815004+67267+014367FM-12+001099999V0201101N00511007801CN0700001N9-00781+99999103581ADDAY121999GF106991051081008001051011MD1210081+9999MW1011
0043011520999991960010816004+67267+014367FM-12+001099999V0201001N00571007801CN0600001N9+99999+99999999999ADDAY121999GF108991061051008001071999MW1031
0043011520999991960010817004+67267+014367FM-12+001099999V0201001N00571007801CN0500001N9+99999+99999999999ADDAY121999GF107991071051008001071999MW1151
0094011520999991960010818004+67267+014367FM-12+001099999V0201001N00571007801CN0500001N9-00721+99999103591ADDAA199000691AY181999GF108991081081008001999999KA1999M-00721KA2999N-01111MD1210011+9999MW1261
0043011520999991960010819004+67267+014367FM-12+001099999V0201001N00621007801CN0500001N9+99999+99999999999ADDAY121999GF108991081081008001999999MW1151
0043011520999991960010820004+67267+014367FM-12+001099999V0201001N00671007801CN0550001N9+99999+99999999999ADDAY121999GF107991051081008001071999MW1011
0043011520999991960010821004+67267+014367FM-12+001099999V0201001N006219999999N0700001N9+99999+99999999999ADDAY121999GF106991031051008001031999MW1011
0043011520999991960010822004+67267+014367FM-12+001099999V0201001N006719999999N0700001N9+99999+99999999999ADDAY111999GF102991021011008001001011MW1011
0043011520999991960010823004+67267+014367FM-12+001099999V0201001N005719999999N0700001N9+99999+99999999999ADDAY101999GF103991011011008001041011MW1031
0057011520999991960010900004+67267+014367FM-12+001099999V0201201N005119999999N0700001N9-00671+99999103581ADDAY111999GF104991021011008001041011MD1810071+9999MW1031
0043011520999991960010901004+67267+014367FM-12+001099999V0201201N005119999999N0600001N9+99999+99999999999ADDAY181999GF107991031021008001061061MW1851
0043011520999991960010902004+67267+014367FM-12+001099999V0201101N005119999999N0600001N9+99999+99999999999ADDAY181999GF108991031021008001061061MW1151
0057011520999991960010903004+67267+014367FM-12+001099999V0201101N005719999999N0700001N9-00501+99999103481ADDAY181999GF107991041081008001071061MD1710051+9999MW1151
0043011520999991960010904004+67267+014367FM-12+001099999V0201201N00461007801CN0700001N9+99999+99999999999ADDAY121999GF107991051081008001071061MW1151
0043011520999991960010905004+67267+014367FM-12+001099999V0201301N00311007801CN0400001N9+99999+99999999999ADDAY121999GF108991071081008001071999MW1151
0100011520999991960010906004+67267+014367FM-12+001099999V0202101N00771004501CN0200001N9-00281+99999103271ADDAA199000691AY181999GF108991081081004501999999IA1009KA1999M-00281KA2999N-00721MD1710211+9999MW1851
0043011520999991960010907004+67267+014367FM-12+001099999V0202101N00571007801CN0300001N9+99999+99999999999ADDAY181999GF108991081081008001999999MW1151
0043011520999991960010908004+67267+014367FM-12+001099999V0202201N00981004501CN0120001N9+99999+99999999999ADDAY181999GF108991081081004501999999MW1851
0057011520999991960010909004+67267+014367FM-12+001099999V0202301N011319999999N0012001N9+00001+99999103021ADDAY181999GF109991091999999999999999MD1710251+9999MW1861
0043011520999991960010910004+67267+014367FM-12+001099999V0202301N010319999999N0012001N9+99999+99999999999ADDAY181999GF109991091999999999999999MW1731
0043011520999991960010911004+67267+014367FM-12+001099999V0202301N014919999999N0008001N9+99999+99999999999ADDAY171999GF109991091999999999999999MW1691
0057011520999991960010912004+67267+014367FM-12+001099999V0202401N015419999999N0010001N9+00061+99999102571ADDAY181999GF109991091999999999999999MD1710451+9999MW1691
0043011520999991960010913004+67267+014367FM-12+001099999V0202401N015419999999N0020001N9+99999+99999999999ADDAY171999GF109991091999999999999999MW1691
0043011520999991960010914004+67267+014367FM-12+001099999V0202501N01341004501CN0060001N9+99999+99999999999ADDAY171999GF108991081061004501999999MW1631
0057011520999991960010915004+67267+014367FM-12+001099999V0202701N01031004501CN0080001N9+00441+99999102201ADDAY171999GF108991081051004501999999MD1710371+9999MW1631
0043011520999991960010916004+67267+014367FM-12+001099999V0202901N01031002401CN0060001N9+99999+99999999999ADDAY161999GF108991081051002501999999MW1631
0043011520999991960010917004+67267+014367FM-12+001099999V0202901N01131002401CN0060001N9+99999+99999999999ADDAY161999GF108991081061002501999999MW1631
0094011520999991960010918004+67267+014367FM-12+001099999V0202901N01031004501CN0300001N9+00501+99999101841ADDAA199015091AY171999GF108991081051004501999999KA1999M+00561KA2999N-00281MD1710361+9999MW1211
0043011520999991960010919004+67267+014367FM-12+001099999V0202901N01131002401CN0120001N9+99999+99999999999ADDAY161999GF108991081051002501999999MW1611
0043011520999991960010920004+67267+014367FM-12+001099999V0202901N01231002401CN0100001N9+99999+99999999999ADDAY161999GF108991081051002501999999MW1611
0043011520999991960010921004+67267+014367FM-12+001099999V0203001N01031002401CN0100001N9+99999+99999999999ADDAY161999GF108991081051002501999999MW1611
0043011520999991960010922004+67267+014367FM-12+001099999V0203101N00721002401CN0120001N9+99999+99999999999ADDAY161999GF108991081051002501999999MW1611
0043011520999991960010923004+67267+014367FM-12+001099999V0203401N01131002401CN0080001N9+99999+99999999999ADDAY161999GF108991081051002501999999MW1631
0057011520999991960011000004+67267+014367FM-12+001099999V0203601N008219999999N0200001N9+00391+99999101261ADDAY161999GF106991041081004501061999MD1610171+9999MW1251
0043011520999991960011001004+67267+014367FM-12+001099999V0203601N007219999999N0400001N9+99999+99999999999ADDAY121999GF104991021021004501061001MW1011
0043011520999991960011002004+67267+014367FM-12+001099999V0200101N009319999999N0400001N9+99999+99999999999ADDAY101999GF102991011021008001061001MW1011
0057011520999991960011003004+67267+014367FM-12+001099999V0200101N007219999999N0400001N9+00281+99999101401ADDAY111999GF101991011021008001061001MD1110141+9999MW1011
0043011520999991960011004004+67267+014367FM-12+001099999V0200201N008219999999N0400001N9+99999+99999999999ADDAY101999GF102991011021008001061001MW1031
0043011520999991960011005004+67267+014367FM-12+001099999V0200301N007219999999N0400001N9+99999+99999999999ADDAY101999GF103991011021008001061001MW1031
0117011520999991960011006004+67267+014367FM-12+001099999V0200201N00511007801CN0400001N9+00221+99999101541ADDAA199001091AJ100009199999999AY111999GF107991051021008001061999IA1009KA1999M+00561KA2999N+00221MD1110141+9999MW1031
0043011520999991960011007004+67267+014367FM-12+001099999V0200101N00621007801CN0400001N9+99999+99999999999ADDAY121999GF107991061021008001061999MW1021
0043011520999991960011008004+67267+014367FM-12+001099999V0200101N00511007801CN0500001N9+99999+99999999999ADDAY121999GF107991061021008001061999MW1021
0057011520999991960011009004+67267+014367FM-12+001099999V0200101N00411012301CN0500001N9+00331+99999101621ADDAY121999GF107991061021012501061999MD1210081+9999MW1021
0043011520999991960011010004+67267+014367FM-12+001099999V0200101N00511007801CN0500001N9+99999+99999999999ADDAY121999GF107991071081008001999999MW1151
0043011520999991960011011004+67267+014367FM-12+001099999V0201001N00771007801CN0400001N9+99999+99999999999ADDAY121999GF107991071081008001999999MW1151
0057011520999991960011012004+67267+014367FM-12+001099999V0201001N00621001501CN0300001N9+00111+99999101721ADDAY121999GF107991071081001501999999MD1210101+9999MW1151
0043011520999991960011013004+67267+014367FM-12+001099999V0201001N00721007801CN0600001N9+99999+99999999999ADDAY121999GF106991061081008001001001MW1151
0043011520999991960011014004+67267+014367FM-12+001099999V0201001N01031007801CN0600001N9+99999+99999999999ADDAY121999GF107991071081008001051001MW1151
0057011520999991960011015004+67267+014367FM-12+001099999V0201101N01131007801CN0700001N9-00221+99999101991ADDAY121999GF107991051081008001051001MD1210261+9999MW1021
0043011520999991960011016004+67267+014367FM-12+001099999V0201101N01131015001CN0700001N9+99999+99999999999ADDAY121999GF107991051051017501071999MW1021
0043011520999991960011017004+67267+014367FM-12+001099999V0201101N01031015001CN0700001N9+99999+99999999999ADDAY121999GF107991051051017501071999MW1021
0083011520999991960011018004+67267+014367FM-12+001099999V0201101N010319999999N0700001N9-00441+99999102251ADDAY121999GF105991011051017501031001KA1999M+00331KA2999N-00441MD1210261+9999MW1011
0043011520999991960011019004+67267+014367FM-12+001099999V0201101N010319999999N0700001N9+99999+99999999999ADDAY111999GF101991011051017501041001MW1011
0043011520999991960011020004+67267+014367FM-12+001099999V0201101N012319999999N0700001N9+99999+99999999999ADDAY101999GF101991011051017501041001MW1021
0043011520999991960011021004+67267+014367FM-12+001099999V0200901N010319999999N0700001N9+99999+99999999999ADDAY101999GF101991011051017501041001MW1021
0062011520999991960011022004+67267+014367FM-12+001099999V0201001N00931220001CN0700001N9+99999+99999999999ADDAY101999GF101991999001999999041001MW1021EQDQ01+000002SCOTLC
0043011520999991960011023004+67267+014367FM-12+001099999V0200901N00931220001CN0700001N9+99999+99999999999ADDAY101999GF100991001001999999001001MW1011
0057011520999991960011100004+67267+014367FM-12+001099999V0201001N01031220001CN0700001N9-00831+99999102531ADDAY111999GF100991001001999999001001MD1110121+9999MW1021
0043011520999991960011101004+67267+014367FM-12+001099999V0201001N00871220001CN0700001N9+99999+99999999999ADDAY101999GF100991001001999999001001MW1021
0043011520999991960011102004+67267+014367FM-12+001099999V0201001N00931220001CN0700001N9+99999+99999999999ADDAY101999GF100991001001999999001001MW1021
0057011520999991960011103004+67267+014367FM-12+001099999V0200901N00871220001CN0700001N9-00941+99999102651ADDAY101999GF100991001001999999001001MD1310121+9999MW1021
0043011520999991960011104004+67267+014367FM-12+001099999V0200901N008719999999N0700001N9+99999+99999999999ADDAY101999GF101991011001999999041011MW1031
0043011520999991960011105004+67267+014367FM-12+001099999V0200801N007219999999N0700001N9+99999+99999999999ADDAY101999GF101991011001999999041011MW1021
0106011520999991960011106004+67267+014367FM-12+001099999V0200801N007719999999N0700001N9-00941+99999102731ADDAJ100009199999999AY101999GF101991011001999999041011IA1009KA1999M-00391KA2999N-01001MD1210081+9999MW1021
0043011520999991960011107004+67267+014367FM-12+001099999V0200901N008219999999N0700001N9+99999+99999999999ADDAY101999GF101991011001999999041011MW1021
0043011520999991960011108004+67267+014367FM-12+001099999V0200801N006719999999N0700001N9+99999+99999999999ADDAY101999GF101991011001999999041011MW1021
0057011520999991960011109004+67267+014367FM-12+001099999V0200901N007219999999N0700001N9-01001+99999102791ADDAY101999GF101991011051012501041001MD1110061+9999MW1021
0043011520999991960011110004+67267+014367FM-12+001099999V0201001N007719999999N0700001N9+99999+99999999999ADDAY101999GF101991011051012501041001MW1021
0043011520999991960011111004+67267+014367FM-12+001099999V0200801N007219999999N0700001N9+99999+99999999999ADDAY101999GF101991011051012501041011MW1021
0057011520999991960011112004+67267+014367FM-12+001099999V0200801N007719999999N0700001N9-01061+99999102791ADDAY101999GF101991011051012501041041MD1410001+9999MW1021
0043011520999991960011113004+67267+014367FM-12+001099999V0200901N008219999999N0700001N9+99999+99999999999ADDAY101999GF102991011051008001001051MW1031
0043011520999991960011114004+67267+014367FM-12+001099999V0200901N007219999999N0700001N9+99999+99999999999ADDAY101999GF101991011051008001041051MW1011
0057011520999991960011115004+67267+014367FM-12+001099999V0200901N006719999999N0700001N9-01061+99999102771ADDAY101999GF101991011051008001041011MD1710021+9999MW1021
0043011520999991960011116004+67267+014367FM-12+001099999V0200901N006219999999N0700001N9+99999+99999999999ADDAY101999GF101991011051008001041011MW1021
0043011520999991960011117004+67267+014367FM-12+001099999V0200801N00721220001CN0700001N9+99999+99999999999ADDAY101999GF100991001001999999001001MW1011
0083011520999991960011118004+67267+014367FM-12+001099999V0201001N00671220001CN0700001N9-01061+99999102741ADDAY101999GF100991001001999999001001KA1999M-00941KA2999N-01061MD1610031+9999MW1021
0043011520999991960011119004+67267+014367FM-12+001099999V0201001N00931220001CN0700001N9+99999+99999999999ADDAY101999GF100991001001999999001001MW1021
0043011520999991960011120004+67267+014367FM-12+001099999V0200801N00931220001CN0700001N9+99999+99999999999ADDAY101999GF100991001001999999001001MW1021
0043011520999991960011121004+67267+014367FM-12+001099999V0200801N00721220001CN0700001N9+99999+99999999999ADDAY101999GF100991001001999999001001MW1021
0043011520999991960011122004+67267+014367FM-12+001099999V0200801N00621220001CN0700001N9+99999+99999999999ADDAY101999GF100991001001999999001001MW1021
0043011520999991960011123004+67267+014367FM-12+001099999V0200901N00621220001CN0700001N9+99999+99999999999ADDAY101999GF100991001001999999001001MW1021
0057011520999991960011200004+67267+014367FM-12+001099999V0200801N00771220001CN0700001N9-01001+99999102661ADDAY101999GF100991001001999999001001MD1810031+9999MW1021
0043011520999991960011201004+67267+014367FM-12+001099999V0200801N00571220001CN0700001N9+99999+99999999999ADDAY101999GF100991001001999999001001MW1021
0043011520999991960011202004+67267+014367FM-12+001099999V0200901N00621220001CN0700001N9+99999+99999999999ADDAY101999GF100991001001999999001001MW1021
0057011520999991960011203004+67267+014367FM-12+001099999V0200901N00821220001CN0700001N9-00891+99999102561ADDAY101999GF100991001001999999001001MD1710101+9999MW1021
0043011520999991960011204004+67267+014367FM-12+001099999V0201001N00871220001CN0700001N9+99999+99999999999ADDAY101999GF100991001001999999001001MW1021
0043011520999991960011205004+67267+014367FM-12+001099999V0200801N006719999999N0700001N9+99999+99999999999ADDAY101999GF101991011001999999041001MW1031
0106011520999991960011206004+67267+014367FM-12+001099999V0200901N008219999999N0700001N9-00831+99999102461ADDAJ100009199999999AY101999GF101991011001999999041011IA1009KA1999M-00831KA2999N-01061MD1710101+9999MW1021
0043011520999991960011207004+67267+014367FM-12+001099999V0200901N008719999999N0700001N9+99999+99999999999ADDAY101999GF101991011001999999041011MW1021
0043011520999991960011208004+67267+014367FM-12+001099999V0200901N008219999999N0700001N9+99999+99999999999ADDAY101999GF101991011001999999041011MW1021
0057011520999991960011209004+67267+014367FM-12+001099999V0200901N008719999999N0700001N9-00831+99999102431ADDAY101999GF101991011001999999041011MD1710031+9999MW1021
0043011520999991960011210004+67267+014367FM-12+001099999V0200901N008219999999N0700001N9+99999+99999999999ADDAY101999GF101991011001999999041011MW1021
0043011520999991960011211004+67267+014367FM-12+001099999V0200901N009319999999N0700001N9+99999+99999999999ADDAY101999GF101991011001999999041011MW1021
0057011520999991960011212004+67267+014367FM-12+001099999V0200901N008219999999N0700001N9-00781+99999102431ADDAY101999GF101991011001999999041011MD1410001+9999MW1021
0043011520999991960011213004+67267+014367FM-12+001099999V0200901N007219999999N0700001N9+99999+99999999999ADDAY101999GF101991011051012501041011MW1021
0043011520999991960011214004+67267+014367FM-12+001099999V0200901N006719999999N0700001N9+99999+99999999999ADDAY101999GF101991011051012501041011MW1021
0057011520999991960011215004+67267+014367FM-12+001099999V0200901N007219999999N0700001N9-00781+99999102441ADDAY101999GF101991011051012501041011MD1710011+9999MW1021
0043011520999991960011216004+67267+014367FM-12+001099999V0200901N008719999999N0700001N9+99999+99999999999ADDAY101999GF101991011051012501001001MW1021
0043011520999991960011217004+67267+014367FM-12+001099999V0200901N00771220001CN0700001N9+99999+99999999999ADDAY101999GF100991001001999999001001MW1011
0083011520999991960011218004+67267+014367FM-12+001099999V0200901N00821220001CN0700001N9-00831+99999102531ADDAY101999GF100991001001999999001001KA1999M-00781KA2999N-00831MD1210091+9999MW1021
0043011520999991960011219004+67267+014367FM-12+001099999V0200901N00821220001CN0700001N9+99999+99999999999ADDAY101999GF100991001001999999001001MW1021
0043011520999991960011220004+67267+014367FM-12+001099999V0200901N00871220001CN0700001N9+99999+99999999999ADDAY101999GF100991001001999999001001MW1021
0043011520999991960011221004+67267+014367FM-12+001099999V0200901N00721220001CN0700001N9+99999+99999999999ADDAY101999GF100991001001999999001001MW1021
0043011520999991960011222004+67267+014367FM-12+001099999V0200801N00771220001CN0700001N9+99999+99999999999ADDAY101999GF100991001001999999001001MW1021
0043011520999991960011223004+67267+014367FM-12+001099999V0200901N00771220001CN0700001N9+99999+99999999999ADDAY101999GF100991001001999999001001MW1021
0057011520999991960011300004+67267+014367FM-12+001099999V0200901N00721220001CN0700001N9-00891+99999102751ADDAY101999GF100991001001999999001001MD1210061+9999MW1021
0043011520999991960011301004+67267+014367FM-12+001099999V0200801N00571220001CN0700001N9+99999+99999999999ADDAY101999GF100991001001999999001001MW1021
0043011520999991960011302004+67267+014367FM-12+001099999V0200901N006219999999N0700001N9+99999+99999999999ADDAY101999GF101991011001999999041001MW1031
0057011520999991960011303004+67267+014367FM-12+001099999V0200901N006719999999N0700001N9-00941+99999102821ADDAY101999GF101991011001999999041001MD1210071+9999MW1021
0043011520999991960011304004+67267+014367FM-12+001099999V0200901N006219999999N0700001N9+99999+99999999999ADDAY101999GF101991011001999999041001MW1021
0043011520999991960011305004+67267+014367FM-12+001099999V0200901N005119999999N0700001N9+99999+99999999999ADDAY101999GF101991011001999999041001MW1021
0106011520999991960011306004+67267+014367FM-12+001099999V0200901N006219999999N0700001N9-00941+99999102911ADDAJ100009199999999AY101999GF101991011001999999041011IA1009KA1999M-00781KA2999N-01001MD1210091+9999MW1021
0043011520999991960011307004+67267+014367FM-12+001099999V0201001N005119999999N0700001N9+99999+99999999999ADDAY101999GF101991011001999999041011MW1021
0043011520999991960011308004+67267+014367FM-12+001099999V0201001N006219999999N0700001N9+99999+99999999999ADDAY101999GF101991011001999999041011MW1021
0057011520999991960011309004+67267+014367FM-12+001099999V0200901N005719999999N0700001N9-01001+99999103061ADDAY101999GF101991011051012501041011MD1210151+9999MW1021
0043011520999991960011310004+67267+014367FM-12+001099999V0200901N006219999999N0700001N9+99999+99999999999ADDAY111999GF105991011051012501051061MW1031
0043011520999991960011311004+67267+014367FM-12+001099999V0200901N006719999999N0700001N9+99999+99999999999ADDAY121999GF107991011051012501051061MW1031
0057011520999991960011312004+67267+014367FM-12+001099999V0201001N006219999999N0700001N9-00831+99999103041ADDAY111999GF107991011051008001051061MD1710021+9999MW1021
0043011520999991960011313004+67267+014367FM-12+001099999V0201001N007219999999N0700001N9+99999+99999999999ADDAY121999GF107991011051008001051061MW1021
0043011520999991960011314004+67267+014367FM-12+001099999V0201001N00821007801CN0400001N9+99999+99999999999ADDAY121999GF107991061051008001071999MW1151
0057011520999991960011315004+67267+014367FM-12+001099999V0201001N00771007801CN0400001N9-00781+99999103021ADDAY171999GF107991061051008001071999MD1810021+9999MW1221
0043011520999991960011316004+67267+014367FM-12+001099999V0201001N00771007801CN0300001N9+99999+99999999999ADDAY121999GF108991061051008001071999MW1151
0043011520999991960011317004+67267+014367FM-12+001099999V0201001N00671007801CN0180001N9+99999+99999999999ADDAY171999GF108991081001008001021999MW1701
0094011520999991960011318004+67267+014367FM-12+001099999V0201101N00671007801CN0080001N9-00671+99999102991ADDAA199000691AY171999GF108991081001008001021999KA1999M-00671KA2999N-01001MD1710031+9999MW1711
0043011520999991960011319004+67267+014367FM-12+001099999V0201101N00721004501CN0060001N9+99999+99999999999ADDAY171999GF108991081001004501021999MW1711
0043011520999991960011320004+67267+014367FM-12+001099999V0201201N005119999999N0020001N9+99999+99999999999ADDAY171999GF109991091999999999999999MW1731
0043011520999991960011321004+67267+014367FM-12+001099999V0201101N006219999999N0005001N9+99999+99999999999ADDAY171999GF109991091999999999999999MW1751
0043011520999991960011322004+67267+014367FM-12+001099999V0201001N005719999999N0020001N9+99999+99999999999ADDAY171999GF109991091999999999999999MW1731
0062011520999991960011323004+67267+014367FM-12+001099999V0201201N004619999999N0040001N9+99999+99999999999ADDAY171999GF108991999999999999999999MW1711EQDQ01+000092SCOTLC
0057011520999991960011400004+67267+014367FM-12+001099999V0201101N005119999999N0008001N9-00441+99999102831ADDAY171999GF109991091999999999999999MD1710031+9999MW1721
0043011520999991960011401004+67267+014367FM-12+001099999V0202401N00771001501CN0200001N9+99999+99999999999ADDAY171999GF108991081021001501999999MW1221
0043011520999991960011402004+67267+014367FM-12+001099999V0202401N00931002401CN0100001N9+99999+99999999999ADDAY181999GF107991071021002501999999MW1811
0057011520999991960011403004+67267+014367FM-12+001099999V0202501N00671002401CN0200001N9+00111+99999102781ADDAY171999GF107991061021002501061999MD1510051+9999MW1251
0043011520999991960011404004+67267+014367FM-12+001099999V0203301N00461007801CN0400001N9+99999+99999999999ADDAY121999GF107991061081008001061999MW1151
0043011520999991960011405004+67267+014367FM-12+001099999V0203101N00411007801CN0400001N9+99999+99999999999ADDAY121999GF107991061081008001061999MW1151
0100011520999991960011406004+67267+014367FM-12+001099999V0203101N00621002401CN0350001N9+00221+99999102731ADDAA199007091AY181999GF107991061081002501061999IA1009KA1999M+00281KA2999N-00671MD1710051+9999MW1151
0043011520999991960011407004+67267+014367FM-12+001099999V0203101N00261002401CN0350001N9+99999+99999999999ADDAY181999GF107991071081002501999999MW1261
0043011520999991960011408004+67267+014367FM-12+001099999V0203101N00361004501CN0350001N9+99999+99999999999ADDAY181999GF107991061081004501071999MW1261
0057011520999991960011409004+67267+014367FM-12+001099999V0202901N00361007801CN0400001N9+00111+99999102671ADDAY181999GF107991061081008001071011MD1710061+9999MW1261
0043011520999991960011410004+67267+014367FM-12+001099999V0202701N00721007801CN0400001N9+99999+99999999999ADDAY121999GF108991071081008001071999MW1151
0043011520999991960011411004+67267+014367FM-12+001099999V0202801N00671007801CN0250001N9+99999+99999999999ADDAY181999GF108991071091008001071999MW1271
0057011520999991960011412004+67267+014367FM-12+001099999V0202901N00821004501CN0200001N9+00281+99999102521ADDAY181999GF108991071091004501071999MD1810151+9999MW1851
0043011520999991960011413004+67267+014367FM-12+001099999V0203001N00621004501CN0250001N9+99999+99999999999ADDAY181999GF108991071021004501071999MW1261
0043011520999991960011414004+67267+014367FM-12+001099999V0202601N00771004501CN0250001N9+99999+99999999999ADDAY121999GF107991071021004501999999MW1151
0057011520999991960011415004+67267+014367FM-12+001099999V0202801N00931002401CN0150001N9+00221+99999102141ADDAY181999GF108991081091002501999999MD1710381+9999MW1801
0043011520999991960011416004+67267+014367FM-12+001099999V0203001N008219999999N0250001N9+99999+99999999999ADDAY181999GF104991041091004501001001MW1261
0043011520999991960011417004+67267+014367FM-12+001099999V0203001N007719999999N0300001N9+99999+99999999999ADDAY121999GF106991041091004501071999MW1151
0094011520999991960011418004+67267+014367FM-12+001099999V0202901N00621004501CN0100001N9+00221+99999101951ADDAA199000591AY181999GF108991061091004501071999KA1999M+00331KA2999N-00171MD1710191+9999MW1831
0043011520999991960011419004+67267+014367FM-12+001099999V0203001N00511004501CN0070001N9+99999+99999999999ADDAY181999GF108991081091004501999999MW1851
0043011520999991960011420004+67267+014367FM-12+001099999V0203001N00871004501CN0100001N9+99999+99999999999ADDAY181999GF108991081091004501999999MW1261
0043011520999991960011421004+67267+014367FM-12+001099999V0203601N00771004501CN0060001N9+99999+99999999999ADDAY181999GF108991081091004501999999MW1851
0043011520999991960011422004+67267+014367FM-12+001099999V0200101N00931004501CN0060001N9+99999+99999999999ADDAY181999GF108991081091004501999999MW1851
0043011520999991960011423004+67267+014367FM-12+001099999V0203601N00821004501CN0100001N9+99999+99999999999ADDAY181999GF108991081091004501999999MW1261
0057011520999991960011500004+67267+014367FM-12+001099999V0200101N00931004501CN0200001N9-00111+99999101741ADDAY181999GF108991081091004501999999MD1210021+9999MW1151
0043011520999991960011501004+67267+014367FM-12+001099999V0203601N00721007801CN0300001N9+99999+99999999999ADDAY121999GF108991081021008001999999MW1151
0043011520999991960011502004+67267+014367FM-12+001099999V0203501N00821004501CN0350001N9+99999+99999999999ADDAY121999GF108991071021004501061999MW1151
0057011520999991960011503004+67267+014367FM-12+001099999V0200101N01031004501CN0350001N9-00331+99999101681ADDAY181999GF108991071091004501061999MD1710061+9999MW1271
0043011520999991960011504004+67267+014367FM-12+001099999V0203601N00821004501CN0350001N9+99999+99999999999ADDAY121999GF107991061091004501061999MW1151
0043011520999991960011505004+67267+014367FM-12+001099999V0203601N00721004501CN0400001N9+99999+99999999999ADDAY121999GF107991061091004501061999MW1151
0100011520999991960011506004+67267+014367FM-12+001099999V0203501N00771004501CN0400001N9-00391+99999101601ADDAA199000691AY181999GF107991071091004501999999IA1009KA1999M+00221KA2999N-00391MD1710081+9999MW1151
0043011520999991960011507004+67267+014367FM-12+001099999V0203401N00721004501CN0100001N9+99999+99999999999ADDAY181999GF108991081091004501999999MW1851
0043011520999991960011508004+67267+014367FM-12+001099999V0200201N00821004501CN0200001N9+99999+99999999999ADDAY181999GF107991071091004501999999MW1261
0057011520999991960011509004+67267+014367FM-12+001099999V0200601N00411004501CN0150001N9-00441+99999101531ADDAY181999GF107991071091004501999999MD1610071+9999MW1151
0043011520999991960011510004+67267+014367FM-12+001099999V0200601N00461004501CN0150001N9+99999+99999999999ADDAY121999GF107991071091004501061999MW1151
0043011520999991960011511004+67267+014367FM-12+001099999V0201301N00211004501CN0150001N9+99999+99999999999ADDAY181999GF107991071091004501061999MW1261
0057011520999991960011512004+67267+014367FM-12+001099999V0203601N00771004501CN0150001N9-00391+99999101451ADDAY181999GF107991061091004501061999MD1710081+9999MW1261
0043011520999991960011513004+67267+014367FM-12+001099999V0203601N00821004501CN0250001N9+99999+99999999999ADDAY121999GF107991061091004501061999MW1151
0043011520999991960011514004+67267+014367FM-12+001099999V0203601N00931004501CN0250001N9+99999+99999999999ADDAY121999GF107991071091004501061999MW1161
0057011520999991960011515004+67267+014367FM-12+001099999V0203601N00621004501CN0040001N9-00501+99999101351ADDAY181999GF108991071091004501061999MD1710101+9999MW1871
0043011520999991960011516004+67267+014367FM-12+001099999V0200101N00821004501CN0100001N9+99999+99999999999ADDAY181999GF107991071091004501061001MW1271
0043011520999991960011517004+67267+014367FM-12+001099999V0203501N00821004501CN0250001N9+99999+99999999999ADDAY121999GF106991061091004501061001MW1151
0094011520999991960011518004+67267+014367FM-12+001099999V0203301N00821004501CN0150001N9-00441+99999101221ADDAA199001091AY181999GF107991071091004501061001KA1999M-00331KA2999N-00611MD1710131+9999MW1151
0043011520999991960011519004+67267+014367FM-12+001099999V0203401N00671004501CN0250001N9+99999+99999999999ADDAY181999GF107991071091004501061001MW1261
0043011520999991960011520004+67267+014367FM-12+001099999V0203501N00671007801CN0300001N9+99999+99999999999ADDAY121999GF107991071091008001061001MW1151
0043011520999991960011521004+67267+014367FM-12+001099999V0203501N00771004501CN0100001N9+99999+99999999999ADDAY181999GF107991061091004501061001MW1851
0043011520999991960011522004+67267+014367FM-12+001099999V0203501N00671004501CN0120001N9+99999+99999999999ADDAY181999GF107991061091004501061001MW1261
0043011520999991960011523004+67267+014367FM-12+001099999V0203201N00821004501CN0200001N9+99999+99999999999ADDAY181999GF107991061091004501061001MW1261
0057011520999991960011600004+67267+014367FM-12+001099999V0203201N00721004501CN0200001N9-00441+99999100841ADDAY181999GF107991061091004501061001MD1710211+9999MW1151
0043011520999991960011601004+67267+014367FM-12+001099999V0203301N00821004501CN0300001N9+99999+99999999999ADDAY121999GF107991061091004501061001MW1151
0043011520999991960011602004+67267+014367FM-12+001099999V0203301N00721007801CN0400001N9+99999+99999999999ADDAY121999GF106991061091008001001001MW1151
0057011520999991960011603004+67267+014367FM-12+001099999V0203101N006219999999N0300001N9-00331+99999100631ADDAY121999GF108991031021008001011999MD1710211+9999MW1151
0062011520999991960011604004+67267+014367FM-12+001099999V0203301N010319999999N0050001N9+99999+99999999999ADDAY171999GF108991999999999999999999MW1711EQDQ01+000092SCOTLC
0043011520999991960011605004+67267+014367FM-12+001099999V0203401N00621007801CN0300001N9+99999+99999999999ADDAY171999GF108991081081008001999999MW1221
0100011520999991960011606004+67267+014367FM-12+001099999V0203401N005719999999N0300001N9-00281+99999100491ADDAA199001091AY171999GF106991041021008001071999IA1009KA1999M-00221KA2999N-00561MD1710141+9999MW1151
0043011520999991960011607004+67267+014367FM-12+001099999V0200101N002119999999N0250001N9+99999+99999999999ADDAY181999GF107991041021004501061011MW1261
0043011520999991960011608004+67267+014367FM-12+001099999V0203601N009819999999N0030001N9+99999+99999999999ADDAY181999GF109991091999999999999999MW1851
0057011520999991960011609004+67267+014367FM-12+001099999V0200201N006719999999N0150001N9-00331+99999100411ADDAY181999GF107991041091004501061011MD1610081+9999MW1261
0043011520999991960011610004+67267+014367FM-12+001099999V0203601N004119999999N0300001N9+99999+99999999999ADDAY121999GF106991041091004501061011MW1151
0043011520999991960011611004+67267+014367FM-12+001099999V0203601N004619999999N0400001N9+99999+99999999999ADDAY121999GF106991041091004501061011MW1151
0057011520999991960011612004+67267+014367FM-12+001099999V0203601N004119999999N0500001N9-00221+99999100411ADDAY181999GF106991041021008001041011MD1410001+9999MW1151
0043011520999991960011613004+67267+014367FM-12+001099999V0203601N002619999999N0500001N9+99999+99999999999ADDAY121999GF105991031021008001041011MW1151
0043011520999991960011614004+67267+014367FM-12+001099999V0201101N002119999999N0400001N9+99999+99999999999ADDAY121999GF104991031091004501041011MW1151
0057011520999991960011615004+67267+014367FM-12+001099999V0201101N002619999999N0400001N9-00721+99999100371ADDAY121999GF107991041091004501071011MD1810041+9999MW1151
0043011520999991960011616004+67267+014367FM-12+001099999V0202101N00571004501CN0400001N9+99999+99999999999ADDAY121999GF107991061091004501061011MW1151
0043011520999991960011617004+67267+014367FM-12+001099999V0202101N00621004501CN0300001N9+99999+99999999999ADDAY121999GF107991061091004501061999MW1151
0094011520999991960011618004+67267+014367FM-12+001099999V0202001N00621002401CN0060001N9-00391+99999100191ADDAA199000691AY181999GF108991081091002501999999KA1999M-00221KA2999N-00721MD1710181+9999MW1851
0043011520999991960011619004+67267+014367FM-12+001099999V0201901N00511004501CN0200001N9+99999+99999999999ADDAY181999GF107991061091004501061999MW1151
0043011520999991960011620004+67267+014367FM-12+001099999V0202101N00721004501CN0200001N9+99999+99999999999ADDAY181999GF107991061091004501061999MW1851
0043011520999991960011621004+67267+014367FM-12+001099999V0203001N00461004501CN0300001N9+99999+99999999999ADDAY181999GF107991051091004501061999MW1151
0043011520999991960011622004+67267+014367FM-12+001099999V0203401N00621004501CN0400001N9+99999+99999999999ADDAY121999GF107991051091004501061011MW1151
0043011520999991960011623004+67267+014367FM-12+001099999V0200301N00571004501CN0020001N9+99999+99999999999ADDAY181999GF108991081091004501999999MW1861
0057011520999991960011700004+67267+014367FM-12+001099999V0200901N003119999999N0250001N9-00561+99999099901ADDAY181999GF105991021091004501061011MD1710061+9999MW1261
0043011520999991960011701004+67267+014367FM-12+001099999V0201001N00361004501CN0150001N9+99999+99999999999ADDAY121999GF107991051091004501061011MW1151
0043011520999991960011702004+67267+014367FM-12+001099999V0201601N008219999999N0008001N9+99999+99999999999ADDAY181999GF109991091999999999999999MW1861
0057011520999991960011703004+67267+014367FM-12+001099999V0201301N00671004501CN0080001N9-00501+99999099781ADDAY181999GF108991061091004501061999MD1510121+9999MW1851
0043011520999991960011704004+67267+014367FM-12+001099999V0200901N003619999999N0150001N9+99999+99999999999ADDAY181999GF106991041091004501061001MW1261
0043011520999991960011705004+67267+014367FM-12+001099999V0200901N003119999999N0250001N9+99999+99999999999ADDAY121999GF107991031021008001061001MW1151
0100011520999991960011706004+67267+014367FM-12+001099999V0200901N004119999999N0450001N9-00781+99999099741ADDAA199004091AY181999GF103991021021008001061011IA1009KA1999M-00111KA2999N-00891MD1810041+9999MW1151
0043011520999991960011707004+67267+014367FM-12+001099999V0200901N004119999999N0500001N9+99999+99999999999ADDAY101999GF103991021021008001061011MW1151
0043011520999991960011708004+67267+014367FM-12+001099999V0201001N004619999999N0500001N9+99999+99999999999ADDAY101999GF103991021091008001061011MW1151
0057011520999991960011709004+67267+014367FM-12+001099999V0201001N005719999999N0500001N9-00831+99999099801ADDAY101999GF103991021091008001061011MD1110061+9999MW1151
0043011520999991960011710004+67267+014367FM-12+001099999V0201001N005119999999N0500001N9+99999+99999999999ADDAY101999GF104991031091008001061011MW1151
0043011520999991960011711004+67267+014367FM-12+001099999V0201101N005119999999N0500001N9+99999+99999999999ADDAY101999GF103991021091008001001011MW1151
0057011520999991960011712004+67267+014367FM-12+001099999V0201001N00511007801CN0030001N9-00721+99999099801ADDAY181999GF107991051091008001001011MD1410001+9999MW1851
0043011520999991960011713004+67267+014367FM-12+001099999V0201001N00511002401CN0100001N9+99999+99999999999ADDAY181999GF107991061091002501001011MW1261
0043011520999991960011714004+67267+014367FM-12+001099999V0201001N00511004501CN0250001N9+99999+99999999999ADDAY121999GF107991051091004501061011MW1151
0057011520999991960011715004+67267+014367FM-12+001099999V0201001N005119999999N0300001N9-00831+99999099751ADDAY181999GF105991021091004501061011MD1710051+9999MW1151
0043011520999991960011716004+67267+014367FM-12+001099999V0201101N005119999999N0350001N9+99999+99999999999ADDAY121999GF104991031091004501071001MW1151
0043011520999991960011717004+67267+014367FM-12+001099999V0201001N005119999999N0300001N9+99999+99999999999ADDAY121999GF106991041091004501071999MW1151
0094011520999991960011718004+67267+014367FM-12+001099999V0201101N005719999999N0010001N9-00781+99999099671ADDAA199000391AY181999GF109991091999999999999999KA1999M-00671KA2999N-00941MD1710061+9999MW1861
0043011520999991960011719004+67267+014367FM-12+001099999V0201001N00511004501CN0100001N9+99999+99999999999ADDAY181999GF107991051091004501071999MW1151
0043011520999991960011720004+67267+014367FM-12+001099999V0201001N00571004501CN0200001N9+99999+99999999999ADDAY121999GF106991051091004501071999MW1151
0043011520999991960011721004+67267+014367FM-12+001099999V0201001N00721004501CN0080001N9+99999+99999999999ADDAY181999GF108991081091004501999999MW1851
0043011520999991960011722004+67267+014367FM-12+001099999V0201001N00511004501CN0050001N9+99999+99999999999ADDAY181999GF108991081091004501999999MW1851
0043011520999991960011723004+67267+014367FM-12+001099999V0201001N006219999999N0010001N9+99999+99999999999ADDAY181999GF109991091999999999999999MW1861
0057011520999991960011800004+67267+014367FM-12+001099999V0201001N006219999999N0006001N9-00721+99999099661ADDAY181999GF109991091999999999999999MD1310041+9999MW1861
0043011520999991960011801004+67267+014367FM-12+001099999V0201001N005719999999N0005001N9+99999+99999999999ADDAY181999GF109991091999999999999999MW1861
0043011520999991960011802004+67267+014367FM-12+001099999V0201001N005119999999N0010001N9+99999+99999999999ADDAY181999GF109991091999999999999999MW1861
0057011520999991960011803004+67267+014367FM-12+001099999V0201001N005119999999N0400001N9-00721+99999099671ADDAY181999GF107991021091004501071071MD1010011+9999MW1261
0043011520999991960011804004+67267+014367FM-12+001099999V0200901N005119999999N0400001N9+99999+99999999999ADDAY121999GF107991021071004501021071MW1021
0043011520999991960011805004+67267+014367FM-12+001099999V0201001N004619999999N0500001N9+99999+99999999999ADDAY121999GF107991031071004501011071MW1021
0100011520999991960011806004+67267+014367FM-12+001099999V0201001N00621007801CN0500001N9-00671+99999099621ADDAA199005091AY181999GF108991061051008001011061IA1009KA1999M-00671KA2999N-00891MD1810051+9999MW1031
0043011520999991960011807004+67267+014367FM-12+001099999V0201301N00511007801CN0500001N9+99999+99999999999ADDAY121999GF107991051051008001021061MW1011
0043011520999991960011808004+67267+014367FM-12+001099999V0201301N005719999999N0600001N9+99999+99999999999ADDAY121999GF108991041051004501021071MW1031
0057011520999991960011809004+67267+014367FM-12+001099999V0201001N004119999999N0700001N9-00781+99999099571ADDAY121999GF108991021051008001071071MD1510051+9999MW1021
0043011520999991960011810004+67267+014367FM-12+001099999V0201001N006219999999N0700001N9+99999+99999999999ADDAY121999GF107991021081004501071071MW1011
0043011520999991960011811004+67267+014367FM-12+001099999V0201001N005119999999N0700001N9+99999+99999999999ADDAY121999GF106991011071004501071071MW1011
0057011520999991960011812004+67267+014367FM-12+001099999V0201001N007219999999N0700001N9-00721+99999099591ADDAY121999GF106991021051008001071071MD1210021+9999MW1021
0043011520999991960011813004+67267+014367FM-12+001099999V0200901N008219999999N0700001N9+99999+99999999999ADDAY121999GF107991041091004501041071MW1151
0062011520999991960011814004+67267+014367FM-12+001099999V0201001N006219999999N0025001N9+99999+99999999999ADDAY181999GF108991999999999999999999MW1851EQDQ01+000092SCOTLC
0057011520999991960011815004+67267+014367FM-12+001099999V0201001N00571002401CN0050001N9-00671+99999099641ADDAY181999GF108991081091002501999999MD1210051+9999MW1851
0043011520999991960011816004+67267+014367FM-12+001099999V0201001N006219999999N0010001N9+99999+99999999999ADDAY181999GF109991091999999999999999MW1861
0043011520999991960011817004+67267+014367FM-12+001099999V0201001N006719999999N0100001N9+99999+99999999999ADDAY181999GF106991041091004501061001MW1851
0094011520999991960011818004+67267+014367FM-12+001099999V0200901N006719999999N0500001N9-00781+99999099691ADDAA199000591AY181999GF103991021091004501061001KA1999M-00561KA2999N-00831MD1210051+9999MW1151
0043011520999991960011819004+67267+014367FM-12+001099999V0200901N006219999999N0600001N9+99999+99999999999ADDAY101999GF103991011021004501061011MW1021
0043011520999991960011820004+67267+014367FM-12+001099999V0200801N005719999999N0700001N9+99999+99999999999ADDAY101999GF102991011021008001041011MW1011
0043011520999991960011821004+67267+014367FM-12+001099999V0200801N005119999999N0700001N9+99999+99999999999ADDAY101999GF101991011021008001041011MW1011
0043011520999991960011822004+67267+014367FM-12+001099999V0200901N005719999999N0700001N9+99999+99999999999ADDAY101999GF101991011021008001041011MW1021
0043011520999991960011823004+67267+014367FM-12+001099999V0200901N005119999999N0700001N9+99999+99999999999ADDAY101999GF101991011021008001041011MW1021
0057011520999991960011900004+67267+014367FM-12+001099999V0201001N006219999999N0700001N9-00941+99999099681ADDAY101999GF101991011021008001001011MD1710011+9999MW1021
0043011520999991960011901004+67267+014367FM-12+001099999V0200901N006219999999N0700001N9+99999+99999999999ADDAY101999GF101991011021008001001011MW1021
0043011520999991960011902004+67267+014367FM-12+001099999V0200901N006219999999N0700001N9+99999+99999999999ADDAY101999GF102991011021008001041011MW1031
0057011520999991960011903004+67267+014367FM-12+001099999V0200901N006219999999N0700001N9-00941+99999099601ADDAY101999GF102991011021008001041011MD1710081+9999MW1021
0043011520999991960011904004+67267+014367FM-12+001099999V0200901N007219999999N0700001N9+99999+99999999999ADDAY101999GF102991011021008001041011MW1021
0043011520999991960011905004+67267+014367FM-12+001099999V0201001N006219999999N0700001N9+99999+99999999999ADDAY111999GF107991041081008001071071MW1031
0100011520999991960011906004+67267+014367FM-12+001099999V0201001N006719999999N0600001N9-00831+99999099541ADDAA199000691AY181999GF105991041091004501071071IA1009KA1999M-00721KA2999N-01001MD1710061+9999MW1261
0043011520999991960011907004+67267+014367FM-12+001099999V0201001N007219999999N0600001N9+99999+99999999999ADDAY121999GF104991021091004501071071MW1151
0043011520999991960011908004+67267+014367FM-12+001099999V0200901N006219999999N0700001N9+99999+99999999999ADDAY101999GF103991021091004501071071MW1151
0057011520999991960011909004+67267+014367FM-12+001099999V0200901N007719999999N0700001N9-00831+99999099551ADDAY101999GF103991021091004501071071MD1310011+9999MW1151
0043011520999991960011910004+67267+014367FM-12+001099999V0201001N007219999999N0600001N9+99999+99999999999ADDAY181999GF106991041091004501071081MW1851
0043011520999991960011911004+67267+014367FM-12+001099999V0201001N00621004501CN0020001N9+99999+99999999999ADDAY181999GF107991071091004501999999MW1861
0057011520999991960011912004+67267+014367FM-12+001099999V0201001N007719999999N0150001N9-00831+99999099611ADDAY181999GF106991021091004501061001MD1210061+9999MW1261
0043011520999991960011913004+67267+014367FM-12+001099999V0200901N005119999999N0300001N9+99999+99999999999ADDAY181999GF103991021091004501061011MW1261
0043011520999991960011914004+67267+014367FM-12+001099999V0201001N006719999999N0300001N9+99999+99999999999ADDAY121999GF104991021091002501061011MW1151
0057011520999991960011915004+67267+014367FM-12+001099999V0201001N006219999999N0250001N9-00891+99999099651ADDAY111999GF103991021091002501001011MD1210041+9999MW1151
0043011520999991960011916004+67267+014367FM-12+001099999V0201001N006219999999N0300001N9+99999+99999999999ADDAY101999GF103991021091004501001011MW1151
0043011520999991960011917004+67267+014367FM-12+001099999V0201001N005119999999N0500001N9+99999+99999999999ADDAY101999GF102991021091004501001001MW1151
0094011520999991960011918004+67267+014367FM-12+001099999V0201001N00511004501CN0040001N9-00831+99999099681ADDAA199000691AY181999GF107991071091004501001001KA1999M-00781KA2999N-01001MD1110031+9999MW1851
0043011520999991960011919004+67267+014367FM-12+001099999V0201001N006219999999N0500001N9+99999+99999999999ADDAY181999GF103991031091004501001001MW1261
0043011520999991960011920004+67267+014367FM-12+001099999V0201001N00621004501CN0100001N9+99999+99999999999ADDAY111999GF107991071091004501001001MW1151
0043011520999991960011921004+67267+014367FM-12+001099999V0201001N005119999999N0300001N9+99999+99999999999ADDAY181999GF103991031091004501001001MW1261
0043011520999991960011922004+67267+014367FM-12+001099999V0201001N003619999999N0500001N9+99999+99999999999ADDAY101999GF102991021091004501001001MW1151
0043011520999991960011923004+67267+014367FM-12+001099999V0201001N00511004501CN0200001N9+99999+99999999999ADDAY111999GF106991061091004501001001MW1151
0057011520999991960012000004+67267+014367FM-12+001099999V0201001N00311004501CN0040001N9-00781+99999099761ADDAY181999GF107991071091004501999999MD1210021+9999MW1851
0043011520999991960012001004+67267+014367FM-12+001099999V0201201N00461004501CN0200001N9+99999+99999999999ADDAY181999GF105991051091004501001001MW1261
0043011520999991960012002004+67267+014367FM-12+001099999V0201201N005119999999N0250001N9+99999+99999999999ADDAY111999GF103991031091004501001001MW1151
0057011520999991960012003004+67267+014367FM-12+001099999V0200801N00361007801CN0250001N9-00501+99999099731ADDAY181999GF107991071091008001001001MD1710031+9999MW1151
0043011520999991960012004004+67267+014367FM-12+001099999V0202101N00721007801CN0100001N9+99999+99999999999ADDAY181999GF107991071091008001001001MW1851
0043011520999991960012005004+67267+014367FM-12+001099999V0200901N00101007801CN0060001N9+99999+99999999999ADDAY181999GF107991051091008001061999MW1851
0100011520999991960012006004+67267+014367FM-12+001099999V0201001N003619999999N0300001N9-00561+99999099771ADDAA199002091AY181999GF107991031091008001061999IA1009KA1999M-00391KA2999N-01001MD1210041+9999MW1261
0043011520999991960012007004+67267+014367FM-12+001099999V0200901N00361004501CN0100001N9+99999+99999999999ADDAY181999GF107991071091004501061999MW1261
0043011520999991960012008004+67267+014367FM-12+001099999V0200901N001019999999N0015001N9+99999+99999999999ADDAY181999GF109991091999999999999999MW1861
0057011520999991960012009004+67267+014367FM-12+001099999V0202801N004119999999N0300001N9-00391+99999099911ADDAY181999GF104991021091004501061001MD1210141+9999MW1261
0043011520999991960012010004+67267+014367FM-12+001099999V0203001N004119999999N0400001N9+99999+99999999999ADDAY121999GF105991041091004501061011MW1151
0043011520999991960012011004+67267+014367FM-12+001099999V0202701N00671004501CN0400001N9+99999+99999999999ADDAY121999GF107991051091004501061011MW1151
0057011520999991960012012004+67267+014367FM-12+001099999V0202701N00771004501CN0400001N9-00111+99999100051ADDAY181999GF107991061091004501061011MD1210141+9999MW1151
0043011520999991960012013004+67267+014367FM-12+001099999V0202701N007719999999N0005001N9+99999+99999999999ADDAY181999GF109991091999999999999999MW1861
0043011520999991960012014004+67267+014367FM-12+001099999V0203101N00771004501CN0350001N9+99999+99999999999ADDAY181999GF107991071091004501999999MW1271
0057011520999991960012015004+67267+014367FM-12+001099999V0203001N00871004501CN0350001N9-00061+99999100181ADDAY181999GF106991061091004501999999MD1210131+9999MW1261
0043011520999991960012016004+67267+014367FM-12+001099999V0202901N005119999999N0300001N9+99999+99999999999ADDAY121999GF104991031091004501061001MW1151
0043011520999991960012017004+67267+014367FM-12+001099999V0202501N00821004501CN0080001N9+99999+99999999999ADDAY181999GF107991061091004501061999MW1871
0094011520999991960012018004+67267+014367FM-12+001099999V0202401N00771004501CN0200001N9-00111+99999100311ADDAA199002091AY181999GF106991061091004501999999KA1999M-00061KA2999N-00561MD1210131+9999MW1271
0043011520999991960012019004+67267+014367FM-12+001099999V0202901N008219999999N0400001N9+99999+99999999999ADDAY121999GF103991031091004501061011MW1151
0043011520999991960012020004+67267+014367FM-12+001099999V0202501N00931004501CN0400001N9+99999+99999999999ADDAY121999GF106991051091004501061011MW1151
0043011520999991960012021004+67267+014367FM-12+001099999V0202701N008219999999N0400001N9+99999+99999999999ADDAY181999GF104991031091004501061001MW1261
0043011520999991960012022004+67267+014367FM-12+001099999V0202701N005119999999N0400001N9+99999+99999999999ADDAY101999GF103991031091004501001001MW1151
0043011520999991960012023004+67267+014367FM-12+001099999V0202601N005719999999N0400001N9+99999+99999999999ADDAY101999GF104991041091004501001001MW1151
0057011520999991960012100004+67267+014367FM-12+001099999V0202701N009319999999N0300001N9+00001+99999100541ADDAY181999GF104991031091004501001011MD1210111+9999MW1271
0043011520999991960012101004+67267+014367FM-12+001099999V0202601N005719999999N0020001N9+99999+99999999999ADDAY181999GF109991091999999999999999MW1871
0043011520999991960012102004+67267+014367FM-12+001099999V0202801N00571004501CN0250001N9+99999+99999999999ADDAY181999GF107991071091004501999999MW1271
0057011520999991960012103004+67267+014367FM-12+001099999V0203501N00411004501CN0350001N9-00061+99999100711ADDAY181999GF107991071091004501001001MD1210171+9999MW1151
0043011520999991960012104004+67267+014367FM-12+001099999V0203401N002119999999N0400001N9+99999+99999999999ADDAY121999GF105991041091004501061011MW1151
0043011520999991960012105004+67267+014367FM-12+001099999V0200701N00101004501CN0400001N9+99999+99999999999ADDAY121999GF107991061091004501061011MW1151
0100011520999991960012106004+67267+014367FM-12+001099999V0200701N001519999999N0400001N9-00561+99999100841ADDAA199000691AY181999GF107991041091004501061011IA1009KA1999M+00061KA2999N-00561MD1210131+9999MW1151
0043011520999991960012107004+67267+014367FM-12+001099999V0201101N00311004501CN0300001N9+99999+99999999999ADDAY181999GF107991071091004501061011MW1851
0043011520999991960012108004+67267+014367FM-12+001099999V0202301N00411004501CN0020001N9+99999+99999999999ADDAY181999GF108991071091004501061999MW1851
0057011520999991960012109004+67267+014367FM-12+001099999V0201801N00511004501CN0020001N9-00221+99999101001ADDAY181999GF108991071091004501061999MD1110161+9999MW1851
0043011520999991960012110004+67267+014367FM-12+001099999V0201701N004119999999N0005001N9+99999+99999999999ADDAY181999GF109991091999999999999999MW1861
0043011520999991960012111004+67267+014367FM-12+001099999V0201701N005719999999N0010001N9+99999+99999999999ADDAY181999GF109991091999999999999999MW1861
0057011520999991960012112004+67267+014367FM-12+001099999V0201501N005119999999N0030001N9-00331+99999101001ADDAY181999GF109991091999999999999999MD1010001+9999MW1851
0043011520999991960012113004+67267+014367FM-12+001099999V0201401N005119999999N0006001N9+99999+99999999999ADDAY181999GF109991091999999999999999MW1861
0043011520999991960012114004+67267+014367FM-12+001099999V0201301N004619999999N0010001N9+99999+99999999999ADDAY181999GF109991091999999999999999MW1861
0057011520999991960012115004+67267+014367FM-12+001099999V0201201N00511004501CN0200001N9-00281+99999101011ADDAY181999GF108991071091004501061999MD1210011+9999MW1261
0043011520999991960012116004+67267+014367FM-12+001099999V0201201N00571004501CN0300001N9+99999+99999999999ADDAY121999GF107991071091004501061999MW1011
0043011520999991960012117004+67267+014367FM-12+001099999V0202201N002119999999N0007001N9+99999+99999999999ADDAY181999GF109991091999999999999999MW1871
0094011520999991960012118004+67267+014367FM-12+001099999V0202301N00461004501CN0200001N9-00171+99999101081ADDAA199005091AY181999GF107991071091004501999999KA1999M-00171KA2999N-00561MD1210071+9999MW1271
0043011520999991960012119004+67267+014367FM-12+001099999V0202401N00721004501CN0100001N9+99999+99999999999ADDAY121999GF107991071091004501999999MW1151
0043011520999991960012120004+67267+014367FM-12+001099999V0202301N00621004501CN0250001N9+99999+99999999999ADDAY121999GF107991071091004501999999MW1151
0043011520999991960012121004+67267+014367FM-12+001099999V0203001N006219999999N0010001N9+99999+99999999999ADDAY181999GF109991091999999999999999MW1871
0043011520999991960012122004+67267+014367FM-12+001099999V0202201N003119999999N0006001N9+99999+99999999999ADDAY181999GF109991091999999999999999MW1861
0043011520999991960012123004+67267+014367FM-12+001099999V0202201N003119999999N0006001N9+99999+99999999999ADDAY181999GF109991091999999999999999MW1861
0057011520999991960012200004+67267+014367FM-12+001099999V0201501N003119999999N0020001N9-00281+99999101271ADDAY181999GF109991091999999999999999MD1110061+9999MW1851
0043011520999991960012201004+67267+014367FM-12+001099999V0201401N00511007801CN0150001N9+99999+99999999999ADDAY181999GF107991071091008001999999MW1261
0043011520999991960012202004+67267+014367FM-12+001099999V0201201N00621004501CN0100001N9+99999+99999999999ADDAY181999GF108991071091004501061999MW1851
0057011520999991960012203004+67267+014367FM-12+001099999V0201101N00511007801CN0100001N9-00281+99999101231ADDAY181999GF107991071091008001061999MD1710041+9999MW1261
0043011520999991960012204004+67267+014367FM-12+001099999V0201001N00461007801CN0200001N9+99999+99999999999ADDAY121999GF106991061091008001061999MW1151
0043011520999991960012205004+67267+014367FM-12+001099999V0201001N007719999999N0300001N9+99999+99999999999ADDAY111999GF104991031021008001061011MW1151
0100011520999991960012206004+67267+014367FM-12+001099999V0201001N007219999999N0500001N9-00331+99999101031ADDAA199005091AY181999GF103991021081008001041011IA1009KA1999M-00061KA2999N-00561MD1710201+9999MW1011
0043011520999991960012207004+67267+014367FM-12+001099999V0201001N007719999999N0700001N9+99999+99999999999ADDAY101999GF101991011051008001041001MW1011
0043011520999991960012208004+67267+014367FM-12+001099999V0201001N009319999999N0700001N9+99999+99999999999ADDAY111999GF105991011051008001041011MW1031
0057011520999991960012209004+67267+014367FM-12+001099999V0201001N010319999999N0700001N9-00221+99999100781ADDAY111999GF107991011051008001041999MD1710251+9999MW1031
0043011520999991960012210004+67267+014367FM-12+001099999V0201001N010319999999N0700001N9+99999+99999999999ADDAY111999GF103991011051012501071001MW1011
0043011520999991960012211004+67267+014367FM-12+001099999V0201001N012319999999N0700001N9+99999+99999999999ADDAY101999GF103991011051012501071001MW1021
0057011520999991960012212004+67267+014367FM-12+001099999V0201001N011319999999N0700001N9-00171+99999100441ADDAY101999GF103991011051012501071051MD1710341+9999MW1021
0043011520999991960012213004+67267+014367FM-12+001099999V0201001N012319999999N0700001N9+99999+99999999999ADDAY131999GF106991011051008001071051MW1361
0043011520999991960012214004+67267+014367FM-12+001099999V0201001N012319999999N0700001N9+99999+99999999999ADDAY131999GF106991011051008001071051MW1021
0057011520999991960012215004+67267+014367FM-12+001099999V0201001N011319999999N0700001N9-00171+99999100131ADDAY131999GF106991011051008001071051MD1710311+9999MW1021
0043011520999991960012216004+67267+014367FM-12+001099999V0201001N008219999999N0700001N9+99999+99999999999ADDAY121999GF106991011051008001071051MW1021
0043011520999991960012217004+67267+014367FM-12+001099999V0201001N007219999999N0600001N9+99999+99999999999ADDAY121999GF107991011051008001071051MW1031
0083011520999991960012218004+67267+014367FM-12+001099999V0201001N007719999999N0600001N9-00281+99999100051ADDAY131999GF107991031051008001071051KA1999M-00111KA2999N-00331MD1710081+9999MW1021
0043011520999991960012219004+67267+014367FM-12+001099999V0201001N008719999999N0600001N9+99999+99999999999ADDAY121999GF106991031051017501071051MW1011
0043011520999991960012220004+67267+014367FM-12+001099999V0200901N008219999999N0600001N9+99999+99999999999ADDAY121999GF106991031051017501071051MW1021
0043011520999991960012221004+67267+014367FM-12+001099999V0200901N007219999999N0600001N9+99999+99999999999ADDAY121999GF106991031051017501071051MW1021
0043011520999991960012222004+67267+014367FM-12+001099999V0201001N008719999999N0600001N9+99999+99999999999ADDAY121999GF106991031051017501071051MW1021
0043011520999991960012223004+67267+014367FM-12+001099999V0200901N007719999999N0600001N9+99999+99999999999ADDAY121999GF106991031051017501071051MW1021
0057011520999991960012300004+67267+014367FM-12+001099999V0200801N007219999999N0600001N9-00391+99999099941ADDAY121999GF107991021051017501071071MD1710051+9999MW1031
0043011520999991960012301004+67267+014367FM-12+001099999V0200901N008219999999N0600001N9+99999+99999999999ADDAY121999GF107991021051017501071071MW1021
0043011520999991960012302004+67267+014367FM-12+001099999V0200901N006219999999N0600001N9+99999+99999999999ADDAY121999GF107991021051017501071071MW1021
0057011520999991960012303004+67267+014367FM-12+001099999V0201001N007219999999N0600001N9-00331+99999099851ADDAY121999GF107991031051017501071071MD1710091+9999MW1021
0043011520999991960012304004+67267+014367FM-12+001099999V0201001N010319999999N0600001N9+99999+99999999999ADDAY121999GF107991031051017501071071MW1021
0043011520999991960012305004+67267+014367FM-12+001099999V0200901N010319999999N0600001N9+99999+99999999999ADDAY121999GF107991031051017501071071MW1021
0089011520999991960012306004+67267+014367FM-12+001099999V0200901N008219999999N0600001N9-00331+99999099781ADDAY121999GF107991031051017501071999IA1009KA1999M-00281KA2999N-00391MD1710071+9999MW1021
0043011520999991960012307004+67267+014367FM-12+001099999V0200901N008219999999N0600001N9+99999+99999999999ADDAY121999GF106991041051017501071011MW1011
0043011520999991960012308004+67267+014367FM-12+001099999V0201001N009319999999N0700001N9+99999+99999999999ADDAY121999GF107991041051017501071999MW1031
0057011520999991960012309004+67267+014367FM-12+001099999V0201001N008219999999N0700001N9-00221+99999099751ADDAY121999GF107991041051017501071999MD1510031+9999MW1151
0043011520999991960012310004+67267+014367FM-12+001099999V0200901N00821007801CN0400001N9+99999+99999999999ADDAY171999GF108991051051008001021071MW1221
0043011520999991960012311004+67267+014367FM-12+001099999V0200901N00931007801CN0600001N9+99999+99999999999ADDAY121999GF108991051051008001071999MW1151
0057011520999991960012312004+67267+014367FM-12+001099999V0201001N01131007801CN0550001N9-00061+99999099801ADDAY171999GF107991061051008001071999MD1010051+9999MW1151
0043011520999991960012313004+67267+014367FM-12+001099999V0201001N00821007801CN0600001N9+99999+99999999999ADDAY121999GF107991051051008001071071MW1151
0043011520999991960012314004+67267+014367FM-12+001099999V0201001N00931007801CN0600001N9+99999+99999999999ADDAY121999GF107991051051008001071071MW1151
0057011520999991960012315004+67267+014367FM-12+001099999V0201001N00931007801CN0600001N9+00061+99999099771ADDAY121999GF107991061051008001071999MD1710031+9999MW1151
0043011520999991960012316004+67267+014367FM-12+001099999V0201001N009319999999N0600001N9+99999+99999999999ADDAY121999GF106991041051008001071071MW1151
0043011520999991960012317004+67267+014367FM-12+001099999V0201001N010319999999N0600001N9+99999+99999999999ADDAY121999GF106991041051008001071999MW1151
0094011520999991960012318004+67267+014367FM-12+001099999V0201001N01031007801CN0600001N9+00111+99999099691ADDAA199000691AY121999GF107991051051008001071999KA1999M+00111KA2999N-00281MD1710081+9999MW1151
0043011520999991960012319004+67267+014367FM-12+001099999V0201001N01291007801CN0400001N9+99999+99999999999ADDAY121999GF108991071051008001071999MW1151
0043011520999991960012320004+67267+014367FM-12+001099999V0201001N01231012301CN0400001N9+99999+99999999999ADDAY121999GF108991071051012501071999MW1021
0043011520999991960012321004+67267+014367FM-12+001099999V0201001N01291012301CN0400001N9+99999+99999999999ADDAY121999GF108991071051012501071999MW1021
0043011520999991960012322004+67267+014367FM-12+001099999V0200901N01131012301CN0500001N9+99999+99999999999ADDAY121999GF108991071051012501071999MW1021
0043011520999991960012323004+67267+014367FM-12+001099999V0200901N01231015001CN0500001N9+99999+99999999999ADDAY121999GF108991071051017501071999MW1021
0057011520999991960012400004+67267+014367FM-12+001099999V0201001N01031015001CN0600001N9+00221+99999099821ADDAY121999GF108991061051017501071999MD1210121+9999MW1021
0043011520999991960012401004+67267+014367FM-12+001099999V0201001N011319999999N0500001N9+99999+99999999999ADDAY121999GF108991031051017501071999MW1021
0043011520999991960012402004+67267+014367FM-12+001099999V0200901N009319999999N0500001N9+99999+99999999999ADDAY121999GF108991031051017501071999MW1021
0057011520999991960012403004+67267+014367FM-12+001099999V0201001N009319999999N0500001N9+00221+99999099921ADDAY121999GF108991031051017501071999MD1210101+9999MW1021
0043011520999991960012404004+67267+014367FM-12+001099999V0200901N010319999999N0500001N9+99999+99999999999ADDAY121999GF108991031051017501071999MW1021
0043011520999991960012405004+67267+014367FM-12+001099999V0200901N009819999999N0500001N9+99999+99999999999ADDAY121999GF108991031051017501071999MW1021
0089011520999991960012406004+67267+014367FM-12+001099999V0200901N01131015001CN0500001N9+00221+99999100031ADDAY121999GF107991051051017501071999IA1009KA1999M+00281KA2999N+00061MD1210111+9999MW1011
0043011520999991960012407004+67267+014367FM-12+001099999V0200901N00931015001CN0500001N9+99999+99999999999ADDAY121999GF107991051051017501071999MW1021
0043011520999991960012408004+67267+014367FM-12+001099999V0200901N01031015001CN0500001N9+99999+99999999999ADDAY121999GF107991061051017501071999MW1021
0057011520999991960012409004+67267+014367FM-12+001099999V0200901N010319999999N0600001N9+00171+99999100101ADDAY121999GF108991031051017501071999MD1210071+9999MW1031
0043011520999991960012410004+67267+014367FM-12+001099999V0200901N009319999999N0600001N9+99999+99999999999ADDAY121999GF107991021051017501071999MW1011
0043011520999991960012411004+67267+014367FM-12+001099999V0200901N010319999999N0600001N9+99999+99999999999ADDAY121999GF107991031051012501071999MW1021
0057011520999991960012412004+67267+014367FM-12+001099999V0200901N011319999999N0600001N9+00171+99999100111ADDAY121999GF107991021051012501041999MD1210011+9999MW1021
0043011520999991960012413004+67267+014367FM-12+001099999V0201001N011319999999N0600001N9+99999+99999999999ADDAY121999GF107991021051012501041011MW1021
0043011520999991960012414004+67267+014367FM-12+001099999V0201001N013419999999N0600001N9+99999+99999999999ADDAY131999GF107991021051012501071071MW1361
0057011520999991960012415004+67267+014367FM-12+001099999V0201001N014419999999N0600001N9+00171+99999999999ADDAY131999GF107991011051012501071071MD1710111+9999MW1361
0043011520999991960012416004+67267+014367FM-12+001099999V0200901N014419999999N0500001N9+99999+99999999999ADDAY131999GF107991011051017501071071MW1021
0043011520999991960012417004+67267+014367FM-12+001099999V0201101N012919999999N0400001N9+99999+99999999999ADDAY121999GF108991011051017501071071MW1031
0083011520999991960012418004+67267+014367FM-12+001099999V0201001N014419999999N0400001N9+00281+99999099841ADDAY131999GF108991011051017501071071KA1999M+00281KA2999N+00171MD1710161+9999MW1031
0043011520999991960012419004+67267+014367FM-12+001099999V0201101N012919999999N0300001N9+99999+99999999999ADDAY121999GF108991011051017501071071MW1021
0043011520999991960012420004+67267+014367FM-12+001099999V0201101N01541007801CN0200001N9+99999+99999999999ADDAY161999GF108991061051008001071999MW1601
0043011520999991960012421004+67267+014367FM-12+001099999V0201101N013419999999N0200001N9+99999+99999999999ADDAY161999GF108991041051008001071999MW1211
0043011520999991960012422004+67267+014367FM-12+001099999V0201101N01131007801CN0300001N9+99999+99999999999ADDAY161999GF108991071051008001071999MW1211
0043011520999991960012423004+67267+014367FM-12+001099999V0200901N011319999999N0400001N9+99999+99999999999ADDAY121999GF105991041051008001071999MW1151
0057011520999991960012500004+67267+014367FM-12+001099999V0200901N010319999999N0500001N9+00281+99999099791ADDAY161999GF103991011051012501071001MD1210021+9999MW1011
0043011520999991960012501004+67267+014367FM-12+001099999V0201001N00931024001CN0500001N9+99999+99999999999ADDAY111999GF107991071001999999071999MW1031
0043011520999991960012502004+67267+014367FM-12+001099999V0201001N00981024001CN0500001N9+99999+99999999999ADDAY121999GF108991081001999999071999MW1031
0057011520999991960012503004+67267+014367FM-12+001099999V0200901N01131024001CN0500001N9+00221+99999099831ADDAY111999GF107991051001999999071071MD1010041+9999MW1011
0043011520999991960012504004+67267+014367FM-12+001099999V0201001N01131024001CN0500001N9+99999+99999999999ADDAY121999GF107991061001999999071071MW1021
0043011520999991960012505004+67267+014367FM-12+001099999V0201001N00821024001CN0500001N9+99999+99999999999ADDAY121999GF108991071001999999071071MW1031
0100011520999991960012506004+67267+014367FM-12+001099999V0201001N01131024001CN0500001N9+00171+99999099871ADDAA199000691AY111999GF108991081001999999071999IA1009KA1999M+00331KA2999N+00111MD1310041+9999MW1021
0043011520999991960012507004+67267+014367FM-12+001099999V0201001N00931007801CN0400001N9+99999+99999999999ADDAY121999GF108991051051008001071999MW1151
0043011520999991960012508004+67267+014367FM-12+001099999V0201001N00931007801CN0400001N9+99999+99999999999ADDAY121999GF108991051051008001071999MW1151
0057011520999991960012509004+67267+014367FM-12+001099999V0201001N00931007801CN0550001N9+00171+99999099921ADDAY121999GF108991051051008001071999MD1210051+9999MW1021
0043011520999991960012510004+67267+014367FM-12+001099999V0200901N00871012301CN0600001N9+99999+99999999999ADDAY121999GF108991071051012501071999MW1021
0043011520999991960012511004+67267+014367FM-12+001099999V0201001N009319999999N0500001N9+99999+99999999999ADDAY121999GF108991041051008001071999MW1151
0057011520999991960012512004+67267+014367FM-12+001099999V0201001N00821007801CN0500001N9+00171+99999100031ADDAY161999GF108991051051008001071999MD1210111+9999MW1601
0043011520999991960012513004+67267+014367FM-12+001099999V0201001N00621007801CN0450001N9+99999+99999999999ADDAY161999GF108991051051008001071999MW1211
0043011520999991960012514004+67267+014367FM-12+001099999V0201001N00671007801CN0400001N9+99999+99999999999ADDAY161999GF108991051051008001071999MW1211
0057011520999991960012515004+67267+014367FM-12+001099999V0201001N00621007801CN0200001N9+00171+99999100061ADDAY161999GF108991061051008001071999MD1310031+9999MW1211
0043011520999991960012516004+67267+014367FM-12+001099999V0201001N00721007801CN0180001N9+99999+99999999999ADDAY161999GF108991061051008001071999MW1211
0043011520999991960012517004+67267+014367FM-12+001099999V0201001N00671007801CN0150001N9+99999+99999999999ADDAY161999GF108991061051008001071999MW1601
0094011520999991960012518004+67267+014367FM-12+001099999V0201001N00621002401CN0200001N9+00171+99999100121ADDAA199000691AY161999GF108991071051002501071999KA1999M+00221KA2999N-00391MD1210061+9999MW1211
0043011520999991960012519004+67267+014367FM-12+001099999V0201001N00721002401CN0150001N9+99999+99999999999ADDAY161999GF108991081051002501999999MW1601
0043011520999991960012520004+67267+014367FM-12+001099999V0201101N00671002401CN0150001N9+99999+99999999999ADDAY161999GF108991081051002501999999MW1601
0043011520999991960012521004+67267+014367FM-12+001099999V0201101N00511002401CN0200001N9+99999+99999999999ADDAY161999GF108991081061002501999999MW1211
0043011520999991960012522004+67267+014367FM-12+001099999V0201101N00511002401CN0180001N9+99999+99999999999ADDAY121999GF108991081061002501999999MW1151
0043011520999991960012523004+67267+014367FM-12+001099999V0201101N00511002401CN0200001N9+99999+99999999999ADDAY121999GF108991081061002501999999MW1151
0057011520999991960012600004+67267+014367FM-12+001099999V0201101N00511001501CN0200001N9+00061+99999100231ADDAY121999GF108991081061001501999999MD1210051+9999MW1151
0043011520999991960012601004+67267+014367FM-12+001099999V0201001N00511001501CN0080001N9+99999+99999999999ADDAY161999GF108991081061001501999999MW1611
0043011520999991960012602004+67267+014367FM-12+001099999V0201001N00411001501CN0080001N9+99999+99999999999ADDAY161999GF108991081061001501999999MW1611
0057011520999991960012603004+67267+014367FM-12+001099999V0201201N00211002401CN0100001N9+00111+99999100291ADDAY161999GF108991081061002501999999MD1210061+9999MW1211
0043011520999991960012604004+67267+014367FM-12+001099999V0201401N00101002401CN0100001N9+99999+99999999999ADDAY121999GF108991081061002501999999MW1151
0043011520999991960012605004+67267+014367FM-12+001099999V0201601N00261002401CN0200001N9+99999+99999999999ADDAY121999GF108991081051002501999999MW1151
0100011520999991960012606004+67267+014367FM-12+001099999V0202401N00621002401CN0150001N9+00331+99999100311ADDAA199000691AY161999GF108991081051002501999999IA1009KA1999M+00331KA2999N+00061MD1110021+9999MW1601
0043011520999991960012607004+67267+014367FM-12+001099999V0202401N00571004501CN0120001N9+99999+99999999999ADDAY161999GF108991071051004501071999MW1611
0043011520999991960012608004+67267+014367FM-12+001099999V0202401N00571002401CN0120001N9+99999+99999999999ADDAY161999GF108991071051002501071999MW1211
0057011520999991960012609004+67267+014367FM-12+001099999V0202401N00621002401CN0180001N9+00391+99999100381ADDAY161999GF108991061051002501071999MD1210071+9999MW1151
0043011520999991960012610004+67267+014367FM-12+001099999V0202401N005719999999N0300001N9+99999+99999999999ADDAY121999GF107991041051004501071999MW1011
0043011520999991960012611004+67267+014367FM-12+001099999V0202501N006219999999N0400001N9+99999+99999999999ADDAY121999GF107991041051004501071011MW1021
0057011520999991960012612004+67267+014367FM-12+001099999V0202401N00621004501CN0400001N9+00391+99999100531ADDAY161999GF107991061081004501041001MD1210151+9999MW1021
0043011520999991960012613004+67267+014367FM-12+001099999V0202301N004619999999N0400001N9+99999+99999999999ADDAY121999GF107991041081004501031011MW1021
0043011520999991960012614004+67267+014367FM-12+001099999V0202301N005719999999N0350001N9+99999+99999999999ADDAY121999GF107991041081004501031011MW1021
0057011520999991960012615004+67267+014367FM-12+001099999V0202301N00571004501CN0350001N9+00391+99999100591ADDAY121999GF107991051081004501071999MD1210061+9999MW1151
0043011520999991960012616004+67267+014367FM-12+001099999V0202401N00621004501CN0080001N9+99999+99999999999ADDAY161999GF108991071081004501999999MW1601
0043011520999991960012617004+67267+014367FM-12+001099999V0202301N00621004501CN0040001N9+99999+99999999999ADDAY161999GF108991081051004501999999MW1631
0094011520999991960012618004+67267+014367FM-12+001099999V0201601N00461002401CN0030001N9+00171+99999100691ADDAA199002091AY161999GF108991081061002501999999KA1999M+00441KA2999N+00171MD1210101+9999MW1601
0043011520999991960012619004+67267+014367FM-12+001099999V0201101N00721004501CN0100001N9+99999+99999999999ADDAY151999GF108991081061004501999999MW1211
0043011520999991960012620004+67267+014367FM-12+001099999V0201101N00931004501CN0030001N9+99999+99999999999ADDAY171999GF108991081051004501999999MW1701
0043011520999991960012621004+67267+014367FM-12+001099999V0201001N00821004501CN0030001N9+99999+99999999999ADDAY171999GF108991081051004501999999MW1711
0043011520999991960012622004+67267+014367FM-12+001099999V0201001N010319999999N0015001N9+99999+99999999999ADDAY171999GF109991091999999999999999MW1731
0043011520999991960012623004+67267+014367FM-12+001099999V0201001N010319999999N0005001N9+99999+99999999999ADDAY171999GF109991091999999999999999MW1731
0057011520999991960012700004+67267+014367FM-12+001099999V0201001N011319999999N0006001N9-00281+99999100801ADDAY171999GF109991091999999999999999MD1210051+9999MW1731
0043011520999991960012701004+67267+014367FM-12+001099999V0201001N011319999999N0008001N9+99999+99999999999ADDAY171999GF109991091999999999999999MW1731
0043011520999991960012702004+67267+014367FM-12+001099999V0200901N010819999999N0006001N9+99999+99999999999ADDAY171999GF109991091999999999999999MW1731
0057011520999991960012703004+67267+014367FM-12+001099999V0200901N011819999999N0007001N9-00391+99999100871ADDAY171999GF109991091999999999999999MD1210071+9999MW1731
0043011520999991960012704004+67267+014367FM-12+001099999V0200901N012319999999N0008001N9+99999+99999999999ADDAY171999GF109991091999999999999999MW1731
0043011520999991960012705004+67267+014367FM-12+001099999V0201001N013419999999N0008001N9+99999+99999999999ADDAY171999GF109991091999999999999999MW1731
0100011520999991960012706004+67267+014367FM-12+001099999V0201001N013919999999N0008001N9-00391+99999100921ADDAA199003091AY171999GF109991091999999999999999IA1009KA1999M+00171KA2999N-00441MD1210051+9999MW1731
0043011520999991960012707004+67267+014367FM-12+001099999V0201101N013419999999N0010001N9+99999+99999999999ADDAY171999GF109991091999999999999999MW1731
0043011520999991960012708004+67267+014367FM-12+001099999V0201001N014419999999N0007001N9+99999+99999999999ADDAY171999GF109991091999999999999999MW1381
0057011520999991960012709004+67267+014367FM-12+001099999V0201001N013419999999N0010001N9-00501+99999101111ADDAY171999GF109991091999999999999999MD1210191+9999MW1711
0043011520999991960012710004+67267+014367FM-12+001099999V0201101N013419999999N0002001N9+99999+99999999999ADDAY171999GF109991091999999999999999MW1721
0043011520999991960012711004+67267+014367FM-12+001099999V0201101N013419999999N0005001N9+99999+99999999999ADDAY171999GF109991091999999999999999MW1711
