0057011520999991959010100004+67267+014367FM-12+001099999V0200801N008219999999N0700001N9-00111+99999098841ADDAY111999GF102991021051012501001001MD1710131+9999MW1021
0043011520999991959010101004+67267+014367FM-12+001099999V0200801N006219999999N0700001N9+99999+99999999999ADDAY101999GF103991021051012501041011MW1031
0043011520999991959010102004+67267+014367FM-12+001099999V0200901N007219999999N0700001N9+99999+99999999999ADDAY101999GF104991031051012501041011MW1031
0057011520999991959010103004+67267+014367FM-12+001099999V0200901N007719999999N0700001N9-00171+99999098741ADDAY111999GF105991031051012501041011MD1710101+9999MW1031
0043011520999991959010104004+67267+014367FM-12+001099999V0200901N009319999999N0700001N9+99999+99999999999ADDAY121999GF104991021051012501041011MW1011
0043011520999991959010105004+67267+014367FM-12+001099999V0200901N009819999999N0700001N9+99999+99999999999ADDAY101999GF103991011051012501041011MW1011
0089011520999991959010106004+67267+014367FM-12+001099999V0200901N008719999999N0700001N9-00171+99999098671ADDAY111999GF103991011051012501041011IA1009KA1999M+00061KA2999N-00221MD1710071+9999MW1021
0043011520999991959010107004+67267+014367FM-12+001099999V0200901N007719999999N0700001N9+99999+99999999999ADDAY101999GF103991011051012501041011MW1021
0043011520999991959010108004+67267+014367FM-12+001099999V0200901N007719999999N0700001N9+99999+99999999999ADDAY101999GF103991021051012501041001MW1021
0057011520999991959010109004+67267+014367FM-12+001099999V0200901N007719999999N0700001N9-00171+99999098651ADDAY101999GF102991021051012501041001MD1610021+9999MW1011
0043011520999991959010110004+67267+014367FM-12+001099999V0200901N007219999999N0700001N9+99999+99999999999ADDAY111999GF107991031051012501041999MW1031
0043011520999991959010111004+67267+014367FM-12+001099999V0200901N008719999999N0700001N9+99999+99999999999ADDAY121999GF107991021051012501041999MW1021
0057011520999991959010112004+67267+014367FM-12+001099999V0200801N00621007801CN0700001N9-00061+99999098601ADDAY111999GF107991061051008001071999MD1710051+9999MW1151
0043011520999991959010113004+67267+014367FM-12+001099999V0200801N00621007801CN0200001N9+99999+99999999999ADDAY121999GF108991061051008001071999MW1151
0043011520999991959010114004+67267+014367FM-12+001099999V0200801N00821007801CN0350001N9+99999+99999999999ADDAY171999GF108991061051008001071999MW1221
0057011520999991959010115004+67267+014367FM-12+001099999V0200701N00621007801CN0350001N9-00061+99999098651ADDAY171999GF108991061051008001071999MD1110051+9999MW1151
0043011520999991959010116004+67267+014367FM-12+001099999V0200801N00621007801CN0350001N9+99999+99999999999ADDAY121999GF107991061051008001071999MW1151
0043011520999991959010117004+67267+014367FM-12+001099999V0200901N00511012301CN0500001N9+99999+99999999999ADDAY121999GF107991061051012501071999MW1021
0094011520999991959010118004+67267+014367FM-12+001099999V0200801N00621012301CN0500001N9-00061+99999098671ADDAA199000691AY171999GF107991061051012501071999KA1999M+00061KA2999N-00171MD1210021+9999MW1021
0043011520999991959010119004+67267+014367FM-12+001099999V0200801N00461012301CN0500001N9+99999+99999999999ADDAY121999GF107991061051012501071999MW1021
0043011520999991959010120004+67267+014367FM-12+001099999V0200801N00361012301CN0500001N9+99999+99999999999ADDAY121999GF107991061051012501071999MW1021
0043011520999991959010121004+67267+014367FM-12+001099999V0200801N00621012301CN0500001N9+99999+99999999999ADDAY121999GF107991061051012501071999MW1021
0043011520999991959010122004+67267+014367FM-12+001099999V0200901N00621012301CN0500001N9+99999+99999999999ADDAY121999GF108991061051012501071999MW1031
0043011520999991959010123004+67267+014367FM-12+001099999V0200901N00621012301CN0500001N9+99999+99999999999ADDAY121999GF108991061051012501071999MW1021
0057011520999991959010200004+67267+014367FM-12+001099999V0200901N00621012301CN0500001N9-00111+99999098841ADDAY121999GF108991071051012501071999MD1210081+9999MW1021
0043011520999991959010201004+67267+014367FM-12+001099999V0200901N00721001501CN0030001N9+99999+99999999999ADDAY171999GF109991091999001501999999MW1701
0043011520999991959010202004+67267+014367FM-12+001099999V0200901N00621007801CN0300001N9+99999+99999999999ADDAY171999GF108991071051008001071999MW1221
0057011520999991959010203004+67267+014367FM-12+001099999V0200901N00621007801CN0300001N9-00171+99999098881ADDAY171999GF108991071051008001071999MD1010041+9999MW1151
0043011520999991959010204004+67267+014367FM-12+001099999V0200901N00721007801CN0300001N9+99999+99999999999ADDAY121999GF108991071051008001071999MW1151
0043011520999991959010205004+67267+014367FM-12+001099999V0200901N00621007801CN0300001N9+99999+99999999999ADDAY121999GF108991071051008001071999MW1021
0100011520999991959010206004+67267+014367FM-12+001099999V0200901N00621007801CN0400001N9-00061+99999098901ADDAA199000691AY171999GF108991071051008001071999IA1009KA1999M-00061KA2999N-00221MD1310021+9999MW1021
0043011520999991959010207004+67267+014367FM-12+001099999V0200901N00621007801CN0400001N9+99999+99999999999ADDAY121999GF107991061051008001071999MW1011
0043011520999991959010208004+67267+014367FM-12+001099999V0200901N00721007801CN0500001N9+99999+99999999999ADDAY121999GF107991051051008001071999MW1021
0057011520999991959010209004+67267+014367FM-12+001099999V0200801N00511007801CN0600001N9-00061+99999098991ADDAY121999GF107991061051008001071999MD1210091+9999MW1021
0043011520999991959010210004+67267+014367FM-12+001099999V0200801N00771007801CN0600001N9+99999+99999999999ADDAY121999GF107991061051008001071999MW1021
0043011520999991959010211004+67267+014367FM-12+001099999V0200901N00721007801CN0600001N9+99999+99999999999ADDAY121999GF107991061051008001071999MW1021
0057011520999991959010212004+67267+014367FM-12+001099999V0200801N009319999999N0600001N9-00061+99999099051ADDAY121999GF107991031051012501071999MD1210061+9999MW1021
0043011520999991959010213004+67267+014367FM-12+001099999V0200801N00671007801CN0600001N9+99999+99999999999ADDAY121999GF107991051051008001071999MW1151
0043011520999991959010214004+67267+014367FM-12+001099999V0200801N00621007801CN0600001N9+99999+99999999999ADDAY121999GF107991051051008001071999MW1151
0057011520999991959010215004+67267+014367FM-12+001099999V0200801N007719999999N0700001N9+00001+99999099141ADDAY121999GF105991041051008001071011MD1210091+9999MW1011
0043011520999991959010216004+67267+014367FM-12+001099999V0201001N009319999999N0700001N9+99999+99999999999ADDAY121999GF105991041051008001071011MW1021
0043011520999991959010217004+67267+014367FM-12+001099999V0201001N010319999999N0700001N9+99999+99999999999ADDAY111999GF103991021051012501041001MW1011
0083011520999991959010218004+67267+014367FM-12+001099999V0201001N013919999999N0700001N9+00001+99999099131ADDAY101999GF102991021051012501001001KA1999M+00061KA2999N-00061MD1510011+9999MW1011
0043011520999991959010219004+67267+014367FM-12+001099999V0201001N010319999999N0700001N9+99999+99999999999ADDAY101999GF101991011051012501001001MW1011
0043011520999991959010220004+67267+014367FM-12+001099999V0201001N009319999999N0700001N9+99999+99999999999ADDAY101999GF101991011081008001001001MW1021
0043011520999991959010221004+67267+014367FM-12+001099999V0201001N010319999999N0700001N9+99999+99999999999ADDAY101999GF101991011021008001001001MW1021
0043011520999991959010222004+67267+014367FM-12+001099999V0200901N007719999999N0700001N9+99999+99999999999ADDAY101999GF101991011021008001001001MW1021
0043011520999991959010223004+67267+014367FM-12+001099999V0200901N010319999999N0700001N9+99999+99999999999ADDAY101999GF101991011021008001001001MW1021
0057011520999991959010300004+67267+014367FM-12+001099999V0200801N008219999999N0700001N9-00111+99999099381ADDAY101999GF103991011011008001041011MD1210021+9999MW1031
0043011520999991959010301004+67267+014367FM-12+001099999V0200901N009319999999N0700001N9+99999+99999999999ADDAY101999GF103991011011008001041011MW1021
0043011520999991959010302004+67267+014367FM-12+001099999V0200901N007219999999N0700001N9+99999+99999999999ADDAY101999GF103991011011008001041011MW1021
0057011520999991959010303004+67267+014367FM-12+001099999V0201101N006719999999N0700001N9-00171+99999099391ADDAY111999GF105991021041008001041051MD1210011+9999MW1031
0043011520999991959010304004+67267+014367FM-12+001099999V0201201N007219999999N0700001N9+99999+99999999999ADDAY121999GF105991021041008001041051MW1021
0043011520999991959010305004+67267+014367FM-12+001099999V0201101N008219999999N0700001N9+99999+99999999999ADDAY121999GF105991011051008001041051MW1021
0089011520999991959010306004+67267+014367FM-12+001099999V0201201N007719999999N0700001N9-00221+99999099411ADDAY111999GF106991011051008001071051IA1009KA1999M+00001KA2999N-00221MD1210021+9999MW1031
0043011520999991959010307004+67267+014367FM-12+001099999V0201201N007219999999N0700001N9+99999+99999999999ADDAY121999GF106991021051008001071051MW1021
0043011520999991959010308004+67267+014367FM-12+001099999V0201101N010319999999N0700001N9+99999+99999999999ADDAY121999GF106991021051012501071051MW1021
0057011520999991959010309004+67267+014367FM-12+001099999V0201001N008219999999N0700001N9-00281+99999099511ADDAY121999GF107991021051012501041051MD1210101+9999MW1031
0043011520999991959010310004+67267+014367FM-12+001099999V0201101N009319999999N0700001N9+99999+99999999999ADDAY121999GF107991031001022501041071MW1021
0043011520999991959010311004+67267+014367FM-12+001099999V0201201N010319999999N0700001N9+99999+99999999999ADDAY121999GF107991011051012501041071MW1021
0057011520999991959010312004+67267+014367FM-12+001099999V0201101N008219999999N0700001N9-00331+99999099501ADDAY121999GF107991011051012501041051MD1810011+9999MW1021
0043011520999991959010313004+67267+014367FM-12+001099999V0201101N009319999999N0700001N9+99999+99999999999ADDAY121999GF107991011051012501041051MW1021
0043011520999991959010314004+67267+014367FM-12+001099999V0201101N007719999999N0600001N9+99999+99999999999ADDAY121999GF105991011051012501041071MW1011
0057011520999991959010315004+67267+014367FM-12+001099999V0201001N008219999999N0600001N9-00281+99999099451ADDAY121999GF105991011051012501041071MD1710051+9999MW1021
0043011520999991959010316004+67267+014367FM-12+001099999V0201001N008719999999N0700001N9+99999+99999999999ADDAY121999GF105991011051012501041071MW1021
0043011520999991959010317004+67267+014367FM-12+001099999V0201001N011319999999N0700001N9+99999+99999999999ADDAY121999GF106991021051012501041999MW1031
0083011520999991959010318004+67267+014367FM-12+001099999V0201001N009319999999N0700001N9-00331+99999099391ADDAY121999GF105991021051012501041001KA1999M-00221KA2999N-00391MD1010061+9999MW1011
0043011520999991959010319004+67267+014367FM-12+001099999V0200901N009319999999N0700001N9+99999+99999999999ADDAY111999GF103991021051012501041001MW1011
0043011520999991959010320004+67267+014367FM-12+001099999V0200901N006219999999N0700001N9+99999+99999999999ADDAY101999GF102991021051012501041001MW1011
0043011520999991959010321004+67267+014367FM-12+001099999V0200901N007219999999N0700001N9+99999+99999999999ADDAY111999GF107991021051012501041999MW1031
0043011520999991959010322004+67267+014367FM-12+001099999V0200901N007719999999N0700001N9+99999+99999999999ADDAY121999GF105991021051012501041001MW1011
0043011520999991959010323004+67267+014367FM-12+001099999V0201001N007719999999N0700001N9+99999+99999999999ADDAY121999GF106991011051012501041999MW1031
0057011520999991959010400004+67267+014367FM-12+001099999V0200801N005719999999N0700001N9-00281+99999099311ADDAY111999GF107991011051012501041999MD1610061+9999MW1031
0043011520999991959010401004+67267+014367FM-12+001099999V0200801N007219999999N0700001N9+99999+99999999999ADDAY121999GF108991021051012501041999MW1031
0043011520999991959010402004+67267+014367FM-12+001099999V0200901N008219999999N0700001N9+99999+99999999999ADDAY121999GF108991021051012501041999MW1021
0057011520999991959010403004+67267+014367FM-12+001099999V0200801N008219999999N0700001N9-00281+99999099291ADDAY121999GF108991021051012501041999MD1710021+9999MW1021
0043011520999991959010404004+67267+014367FM-12+001099999V0200801N009319999999N0700001N9+99999+99999999999ADDAY121999GF108991021051012501041999MW1021
0043011520999991959010405004+67267+014367FM-12+001099999V0200901N006219999999N0700001N9+99999+99999999999ADDAY121999GF108991021051012501041999MW1021
0089011520999991959010406004+67267+014367FM-12+001099999V0200901N008219999999N0700001N9-00331+99999099291ADDAY121999GF107991021051012501041051IA1009KA1999M-00221KA2999N-00441MD1410001+9999MW1011
0043011520999991959010407004+67267+014367FM-12+001099999V0200901N006219999999N0700001N9+99999+99999999999ADDAY121999GF105991021051012501071051MW1011
0043011520999991959010408004+67267+014367FM-12+001099999V0201101N010319999999N0700001N9+99999+99999999999ADDAY121999GF107991021051012501071071MW1031
0057011520999991959010409004+67267+014367FM-12+001099999V0201001N009319999999N0500001N9-00561+99999099341ADDAY121999GF107991031051012501071071MD1210051+9999MW1021
0043011520999991959010410004+67267+014367FM-12+001099999V0200901N007219999999N0500001N9+99999+99999999999ADDAY121999GF107991041051012501071999MW1021
0043011520999991959010411004+67267+014367FM-12+001099999V0200901N008219999999N0500001N9+99999+99999999999ADDAY121999GF107991041051012501071999MW1021
0057011520999991959010412004+67267+014367FM-12+001099999V0200801N008219999999N0500001N9-00561+99999099341ADDAY121999GF105991021051008001071999MD1410001+9999MW1011
0043011520999991959010413004+67267+014367FM-12+001099999V0201101N010319999999N0500001N9+99999+99999999999ADDAY121999GF106991021051008001071051MW1031
0043011520999991959010414004+67267+014367FM-12+001099999V0200801N008219999999N0500001N9+99999+99999999999ADDAY121999GF106991021051012501071051MW1021
0057011520999991959010415004+67267+014367FM-12+001099999V0201001N009319999999N0500001N9-00391+99999099361ADDAY121999GF106991031051012501071051MD1310021+9999MW1021
0043011520999991959010416004+67267+014367FM-12+001099999V0201001N010319999999N0500001N9+99999+99999999999ADDAY121999GF106991031051012501071051MW1021
0043011520999991959010417004+67267+014367FM-12+001099999V0201001N008719999999N0550001N9+99999+99999999999ADDAY121999GF105991021051012501071999MW1011
0083011520999991959010418004+67267+014367FM-12+001099999V0201001N010319999999N0550001N9-00331+99999099371ADDAY121999GF105991021051012501071999KA1999M-00281KA2999N-00721MD1310011+9999MW1021
0043011520999991959010419004+67267+014367FM-12+001099999V0200901N008719999999N0550001N9+99999+99999999999ADDAY121999GF105991021051012501071999MW1021
0043011520999991959010420004+67267+014367FM-12+001099999V0201001N011319999999N0550001N9+99999+99999999999ADDAY121999GF105991021051012501071999MW1021
0043011520999991959010421004+67267+014367FM-12+001099999V0201001N011319999999N0600001N9+99999+99999999999ADDAY121999GF104991021051012501071999MW1011
0043011520999991959010422004+67267+014367FM-12+001099999V0201101N010319999999N0600001N9+99999+99999999999ADDAY111999GF103991021051012501071999MW1011
0043011520999991959010423004+67267+014367FM-12+001099999V0201001N012919999999N0700001N9+99999+99999999999ADDAY101999GF102991021051012501041001MW1011
0057011520999991959010500004+67267+014367FM-12+001099999V0200801N008219999999N0700001N9-00221+99999099391ADDAY111999GF104991021051012501071011MD1210031+9999MW1031
0043011520999991959010501004+67267+014367FM-12+001099999V0200901N009319999999N0600001N9+99999+99999999999ADDAY121999GF107991031051012501071999MW1031
0043011520999991959010502004+67267+014367FM-12+001099999V0200801N007719999999N0600001N9+99999+99999999999ADDAY121999GF107991031051012501071999MW1021
0057011520999991959010503004+67267+014367FM-12+001099999V0201001N010319999999N0500001N9-00061+99999099391ADDAY121999GF107991031051012501071999MD1410001+9999MW1021
0043011520999991959010504004+67267+014367FM-12+001099999V0201001N011319999999N0500001N9+99999+99999999999ADDAY121999GF106991031051012501071999MW1011
0043011520999991959010505004+67267+014367FM-12+001099999V0201001N011319999999N0600001N9+99999+99999999999ADDAY121999GF104991021051012501071011MW1011
0089011520999991959010506004+67267+014367FM-12+001099999V0201101N011319999999N0600001N9-00061+99999099371ADDAY121999GF106991041051012501071011IA1009KA1999M-00061KA2999N-00611MD1510021+9999MW1031
0043011520999991959010507004+67267+014367FM-12+001099999V0201001N010319999999N0600001N9+99999+99999999999ADDAY121999GF105991031051012501071011MW1011
0043011520999991959010508004+67267+014367FM-12+001099999V0201101N01291012301CN0600001N9+99999+99999999999ADDAY121999GF107991061051012501071999MW1031
0057011520999991959010509004+67267+014367FM-12+001099999V0201001N01291012301CN0600001N9-00061+99999099371ADDAY121999GF106991051051012501071999MD1410001+9999MW1011
0043011520999991959010510004+67267+014367FM-12+001099999V0201001N01441012301CN0600001N9+99999+99999999999ADDAY121999GF106991051051012501071011MW1021
0043011520999991959010511004+67267+014367FM-12+001099999V0201001N01341012301CN0600001N9+99999+99999999999ADDAY121999GF107991051051012501071011MW1031
0057011520999991959010512004+67267+014367FM-12+001099999V0201001N009319999999N0600001N9-00171+99999099411ADDAY121999GF107991041051012501071011MD1110041+9999MW1021
0043011520999991959010513004+67267+014367FM-12+001099999V0201001N011319999999N0600001N9+99999+99999999999ADDAY121999GF107991021051012501071011MW1021
0043011520999991959010514004+67267+014367FM-12+001099999V0201001N009319999999N0600001N9+99999+99999999999ADDAY121999GF107991021051008001071011MW1021
0057011520999991959010515004+67267+014367FM-12+001099999V0201001N009319999999N0600001N9-00171+99999099481ADDAY121999GF106991021051008001071011MD1310071+9999MW1011
0043011520999991959010516004+67267+014367FM-12+001099999V0201001N012319999999N0600001N9+99999+99999999999ADDAY121999GF106991021051008001071011MW1021
0043011520999991959010517004+67267+014367FM-12+001099999V0201001N011319999999N0600001N9+99999+99999999999ADDAY121999GF106991021051008001071011MW1021
0083011520999991959010518004+67267+014367FM-12+001099999V0201001N011319999999N0600001N9-00171+99999099401ADDAY121999GF107991031051008001071999KA1999M+00001KA2999N-00221MD1710081+9999MW1031
0043011520999991959010519004+67267+014367FM-12+001099999V0201001N010319999999N0600001N9+99999+99999999999ADDAY121999GF107991031051008001071999MW1021
0043011520999991959010520004+67267+014367FM-12+001099999V0201001N008219999999N0600001N9+99999+99999999999ADDAY121999GF107991031051008001071999MW1021
0043011520999991959010521004+67267+014367FM-12+001099999V0201001N007219999999N0600001N9+99999+99999999999ADDAY121999GF106991021051008001071999MW1011
0043011520999991959010522004+67267+014367FM-12+001099999V0201001N005719999999N0600001N9+99999+99999999999ADDAY121999GF106991021051008001071999MW1021
0043011520999991959010523004+67267+014367FM-12+001099999V0201001N003619999999N0600001N9+99999+99999999999ADDAY121999GF105991011051008001071011MW1011
0057011520999991959010600004+67267+014367FM-12+001099999V0201001N004119999999N0600001N9-00281+99999099291ADDAY121999GF106991011051008001041011MD1710081+9999MW1031
0043011520999991959010601004+67267+014367FM-12+001099999V0201001N005119999999N0600001N9+99999+99999999999ADDAY121999GF104991011051008001041011MW1011
0043011520999991959010602004+67267+014367FM-12+001099999V0201001N003619999999N0600001N9+99999+99999999999ADDAY101999GF103991011051008001041011MW1011
0057011520999991959010603004+67267+014367FM-12+001099999V0201001N004119999999N0700001N9-00441+99999099111ADDAY111999GF101991011051008001001011MD1710181+9999MW1011
0043011520999991959010604004+67267+014367FM-12+001099999V0201001N003619999999N0700001N9+99999+99999999999ADDAY101999GF101991011051008001001011MW1021
0043011520999991959010605004+67267+014367FM-12+001099999V0201001N00261007801CN0600001N9+99999+99999999999ADDAY111999GF106991051051008001041999MW1031
0089011520999991959010606004+67267+014367FM-12+001099999V0200601N00051007801CN0600001N9-00501+99999098901ADDAY121999GF106991051051008001041999IA1009KA1999M-00171KA2999N-00611MD1710211+9999MW1021
0043011520999991959010607004+67267+014367FM-12+001099999V0200201N00311007801CN0600001N9+99999+99999999999ADDAY121999GF108991051051008001071999MW1031
0043011520999991959010608004+67267+014367FM-12+001099999V0200401N002619999999N0600001N9+99999+99999999999ADDAY121999GF108991031051008001021999MW1021
0057011520999991959010609004+67267+014367FM-12+001099999V0209991C000019999999N0600001N9-00111+99999098831ADDAY121999GF108991031051008001021999MD1710071+9999MW1021
0043011520999991959010610004+67267+014367FM-12+001099999V0201701N001019999999N0400001N9+99999+99999999999ADDAY121999GF108991021051008001021999MW1151
0043011520999991959010611004+67267+014367FM-12+001099999V0202201N00211007801CN0400001N9+99999+99999999999ADDAY121999GF108991051051008001021999MW1151
0057011520999991959010612004+67267+014367FM-12+001099999V0202201N00511004501CN0200001N9-00061+99999098741ADDAY171999GF108991051001004501021999MD1710091+9999MW1701
0043011520999991959010613004+67267+014367FM-12+001099999V0202201N00511002401CN0030001N9+99999+99999999999ADDAY171999GF108991051061002501021999MW1701
0043011520999991959010614004+67267+014367FM-12+001099999V0202001N00511001501CN0005001N9+99999+99999999999ADDAY171999GF109991091999001501999999MW1051
0057011520999991959010615004+67267+014367FM-12+001099999V0202001N00511001501CN0012001N9-00061+99999098741ADDAY171999GF109991091999001501999999MD1410001+9999MW1731
0043011520999991959010616004+67267+014367FM-12+001099999V0202001N00461002401CN0150001N9+99999+99999999999ADDAY171999GF105991051001002501001011MW1221
0043011520999991959010617004+67267+014367FM-12+001099999V0202001N00361004501CN0150001N9+99999+99999999999ADDAY121999GF107991071051004501999999MW1151
0094011520999991959010618004+67267+014367FM-12+001099999V0201901N00411004501CN0090001N9-00061+99999098751ADDAA199006091AY181999GF107991071081004501999999KA1999M+00001KA2999N-00561MD1210011+9999MW1851
0043011520999991959010619004+67267+014367FM-12+001099999V0201001N00311001501CN0010001N9+99999+99999999999ADDAY181999GF109991091999001501999999MW1861
0043011520999991959010620004+67267+014367FM-12+001099999V0200801N00361004501CN0120001N9+99999+99999999999ADDAY181999GF107991071081004501999999MW1261
0043011520999991959010621004+67267+014367FM-12+001099999V0200801N00361004501CN0150001N9+99999+99999999999ADDAY121999GF106991061081004501001001MW1151
0043011520999991959010622004+67267+014367FM-12+001099999V0200801N00411004501CN0150001N9+99999+99999999999ADDAY121999GF105991051081004501001001MW1151
0043011520999991959010623004+67267+014367FM-12+001099999V0200801N004619999999N0250001N9+99999+99999999999ADDAY121999GF104991041081004501001001MW1011
0057011520999991959010700004+67267+014367FM-12+001099999V0200701N004119999999N0700001N9-00441+99999098951ADDAY181999GF102991021081008001001001MD1210101+9999MW1011
0043011520999991959010701004+67267+014367FM-12+001099999V0200801N004119999999N0700001N9+99999+99999999999ADDAY101999GF101991011081008001001001MW1011
0043011520999991959010702004+67267+014367FM-12+001099999V0200801N004119999999N0700001N9+99999+99999999999ADDAY101999GF101991011081008001001001MW1021
0057011520999991959010703004+67267+014367FM-12+001099999V0200801N005119999999N0700001N9-00501+99999099051ADDAY101999GF102991021081008001001001MD1210101+9999MW1031
0043011520999991959010704004+67267+014367FM-12+001099999V0200801N004119999999N0600001N9+99999+99999999999ADDAY101999GF103991021081008001061001MW1031
0043011520999991959010705004+67267+014367FM-12+001099999V0200801N003619999999N0600001N9+99999+99999999999ADDAY101999GF103991021081008001061001MW1021
0100011520999991959010706004+67267+014367FM-12+001099999V0200801N004119999999N0600001N9-00501+99999099191ADDAA199001091AY101999GF104991031081008001061001IA1009KA1999M-00061KA2999N-00561MD1210141+9999MW1031
0043011520999991959010707004+67267+014367FM-12+001099999V0200801N004119999999N0700001N9+99999+99999999999ADDAY101999GF103991021051008001061001MW1011
0043011520999991959010708004+67267+014367FM-12+001099999V0200801N005119999999N0700001N9+99999+99999999999ADDAY101999GF103991021051008001041051MW1021
0057011520999991959010709004+67267+014367FM-12+001099999V0200801N005119999999N0700001N9-00391+99999099361ADDAY101999GF103991021051012501041051MD1210171+9999MW1021
0043011520999991959010710004+67267+014367FM-12+001099999V0200801N006219999999N0700001N9+99999+99999999999ADDAY101999GF104991021051012501041051MW1031
0043011520999991959010711004+67267+014367FM-12+001099999V0200801N006719999999N0700001N9+99999+99999999999ADDAY101999GF103991011051012501041051MW1011
0057011520999991959010712004+67267+014367FM-12+001099999V0200801N005119999999N0700001N9-00441+99999099481ADDAY101999GF103991011051012501041051MD1210121+9999MW1021
0043011520999991959010713004+67267+014367FM-12+001099999V0200801N005119999999N0700001N9+99999+99999999999ADDAY101999GF104991011051012501041051MW1031
0043011520999991959010714004+67267+014367FM-12+001099999V0200801N005719999999N0700001N9+99999+99999999999ADDAY111999GF105991011051012501071051MW1031
0057011520999991959010715004+67267+014367FM-12+001099999V0200801N005719999999N0700001N9-00501+99999099631ADDAY121999GF105991011051012501071051MD1210151+9999MW1021
0043011520999991959010716004+67267+014367FM-12+001099999V0200801N006219999999N0700001N9+99999+99999999999ADDAY111999GF103991011051012501071011MW1011
0043011520999991959010717004+67267+014367FM-12+001099999V0200801N006219999999N0700001N9+99999+99999999999ADDAY101999GF102991011051012501041011MW1011
0102011520999991959010718004+67267+014367FM-12+001099999V0200801N006219999999N0700001N9-00671+99999099711ADDAY111999GF101991011051012501001001KA1999M-00331KA2999N+99999MD1210081+9999MW1011EQDQ01 -00612ATMN  
0043011520999991959010719004+67267+014367FM-12+001099999V0200801N005119999999N0700001N9+99999+99999999999ADDAY101999GF101991011051012501001001MW1021
0043011520999991959010720004+67267+014367FM-12+001099999V0200901N006219999999N0700001N9+99999+99999999999ADDAY101999GF102991011051012501041001MW1031
0043011520999991959010721004+67267+014367FM-12+001099999V0200901N005119999999N0700001N9+99999+99999999999ADDAY101999GF101991011051012501001001MW1011
0043011520999991959010722004+67267+014367FM-12+001099999V0200901N005119999999N0700001N9+99999+99999999999ADDAY101999GF101991011051012501001001MW1021
0043011520999991959010723004+67267+014367FM-12+001099999V0200801N005119999999N0700001N9+99999+99999999999ADDAY101999GF101991011051012501001001MW1021
0057011520999991959010800004+67267+014367FM-12+001099999V0200801N004619999999N0700001N9-00781+99999099881ADDAY101999GF101991011051012501001001MD1110061+9999MW1021
0043011520999991959010801004+67267+014367FM-12+001099999V0201001N005119999999N0700001N9+99999+99999999999ADDAY101999GF101991011051012501001001MW1021
0043011520999991959010802004+67267+014367FM-12+001099999V0200901N005119999999N0700001N9+99999+99999999999ADDAY101999GF101991011051012501001001MW1021
0057011520999991959010803004+67267+014367FM-12+001099999V0200901N004619999999N0700001N9-00831+99999099941ADDAY101999GF102991021051012501001001MD1210061+9999MW1031
0043011520999991959010804004+67267+014367FM-12+001099999V0200901N004119999999N0700001N9+99999+99999999999ADDAY101999GF102991021051012501001001MW1021
0043011520999991959010805004+67267+014367FM-12+001099999V0200901N004119999999N0700001N9+99999+99999999999ADDAY101999GF101991011051012501001001MW1011
0089011520999991959010806004+67267+014367FM-12+001099999V0200801N005119999999N0700001N9-00781+99999100021ADDAY101999GF101991011051012501001001IA1009KA1999M-00671KA2999N-00891MD1210081+9999MW1021
0043011520999991959010807004+67267+014367FM-12+001099999V0200801N004119999999N0700001N9+99999+99999999999ADDAY101999GF103991011051012501041001MW1031
0043011520999991959010808004+67267+014367FM-12+001099999V0200801N004119999999N0700001N9+99999+99999999999ADDAY111999GF105991031081008001031011MW1031
0057011520999991959010809004+67267+014367FM-12+001099999V0200801N004119999999N0700001N9-00781+99999100171ADDAY111999GF106991011091008001031011MD1210151+9999MW1031
0043011520999991959010810004+67267+014367FM-12+001099999V0200901N004119999999N0700001N9+99999+99999999999ADDAY121999GF104991011091008001031011MW1151
0043011520999991959010811004+67267+014367FM-12+001099999V0200901N004119999999N0700001N9+99999+99999999999ADDAY111999GF103991011021008001031001MW1011
0057011520999991959010812004+67267+014367FM-12+001099999V0200901N004119999999N0700001N9-00781+99999100351ADDAY111999GF103991011091008001091001MD1210181+9999MW1151
0043011520999991959010813004+67267+014367FM-12+001099999V0200801N00411007801CN0700001N9+99999+99999999999ADDAY111999GF107991061091008001041999MW1151
0043011520999991959010814004+67267+014367FM-12+001099999V0200901N00411007801CN0200001N9+99999+99999999999ADDAY181999GF107991061091008001041999MW1851
0057011520999991959010815004+67267+014367FM-12+001099999V0200901N00411007801CN0200001N9-00611+99999100531ADDAY181999GF107991061091008001061999MD1210181+9999MW1261
0043011520999991959010816004+67267+014367FM-12+001099999V0200901N00511004501CN0250001N9+99999+99999999999ADDAY181999GF107991061091004501061999MW1851
0043011520999991959010817004+67267+014367FM-12+001099999V0201001N00511004501CN0150001N9+99999+99999999999ADDAY181999GF107991061091004501061999MW1851
0094011520999991959010818004+67267+014367FM-12+001099999V0200801N00411007801CN0300001N9-00721+99999100691ADDAA199000691AY181999GF106991051091008001061999KA1999M-00561KA2999N-00941MD1210161+9999MW1261
0043011520999991959010819004+67267+014367FM-12+001099999V0200801N00411004501CN0350001N9+99999+99999999999ADDAY121999GF106991051091004501061999MW1151
0043011520999991959010820004+67267+014367FM-12+001099999V0200801N004619999999N0400001N9+99999+99999999999ADDAY121999GF104991041021008001061001MW1151
0043011520999991959010821004+67267+014367FM-12+001099999V0200901N005119999999N0500001N9+99999+99999999999ADDAY121999GF104991041021008001061001MW1151
0043011520999991959010822004+67267+014367FM-12+001099999V0200901N00461004501CN0400001N9+99999+99999999999ADDAY121999GF106991051091004501061001MW1151
0043011520999991959010823004+67267+014367FM-12+001099999V0200901N00461004501CN0180001N9+99999+99999999999ADDAY181999GF107991061091004501061999MW1851
0057011520999991959010900004+67267+014367FM-12+001099999V0200901N00411004501CN0150001N9-00611+99999100981ADDAY181999GF107991061091004501061999MD1210101+9999MW1851
0043011520999991959010901004+67267+014367FM-12+001099999V0200901N00461007801CN0200001N9+99999+99999999999ADDAY181999GF106991051091008001061999MW1851
0043011520999991959010902004+67267+014367FM-12+001099999V0200901N005119999999N0400001N9+99999+99999999999ADDAY181999GF103991021091008001061001MW1261
0057011520999991959010903004+67267+014367FM-12+001099999V0200901N005119999999N0500001N9-00671+99999101081ADDAY181999GF102991021091008001001001MD1210101+9999MW1011
0043011520999991959010904004+67267+014367FM-12+001099999V0200901N005119999999N0500001N9+99999+99999999999ADDAY101999GF102991021091008001001001MW1021
0043011520999991959010905004+67267+014367FM-12+001099999V0200901N005719999999N0500001N9+99999+99999999999ADDAY101999GF102991021091008001001001MW1021
0100011520999991959010906004+67267+014367FM-12+001099999V0200901N005119999999N0600001N9-00781+99999101111ADDAA199000691AY181999GF101991011091008001001001IA1009KA1999M-00611KA2999N-00781MD1110031+9999MW1011
0043011520999991959010907004+67267+014367FM-12+001099999V0200901N006219999999N0700001N9+99999+99999999999ADDAY101999GF101991011081008001001001MW1021
0043011520999991959010908004+67267+014367FM-12+001099999V0200901N006219999999N0700001N9+99999+99999999999ADDAY101999GF101991011081008001041011MW1021
0057011520999991959010909004+67267+014367FM-12+001099999V0200901N006219999999N0700001N9-00781+99999101191ADDAY101999GF101991011081008001041011MD1210081+9999MW1151
0043011520999991959010910004+67267+014367FM-12+001099999V0200901N006219999999N0700001N9+99999+99999999999ADDAY101999GF102991021081008001041011MW1151
0043011520999991959010911004+67267+014367FM-12+001099999V0200901N005119999999N0700001N9+99999+99999999999ADDAY101999GF102991021081008001041011MW1151
0057011520999991959010912004+67267+014367FM-12+001099999V0200901N005719999999N0700001N9-00781+99999101241ADDAY101999GF102991021081008001041011MD1210051+9999MW1151
0043011520999991959010913004+67267+014367FM-12+001099999V0200901N006219999999N0700001N9+99999+99999999999ADDAY101999GF102991011091008001041011MW1151
0043011520999991959010914004+67267+014367FM-12+001099999V0200801N007219999999N0700001N9+99999+99999999999ADDAY101999GF102991011091008001041011MW1151
0057011520999991959010915004+67267+014367FM-12+001099999V0200901N007219999999N0700001N9-00781+99999101281ADDAY101999GF102991011091008001041011MD1210041+9999MW1151
0043011520999991959010916004+67267+014367FM-12+001099999V0200901N006219999999N0700001N9+99999+99999999999ADDAY101999GF102991011091008001041011MW1151
0043011520999991959010917004+67267+014367FM-12+001099999V0200901N006719999999N0700001N9+99999+99999999999ADDAY101999GF102991011021008001041011MW1021
0083011520999991959010918004+67267+014367FM-12+001099999V0200901N006719999999N0700001N9-00781+99999101301ADDAY101999GF102991011021008001041001KA1999M-00721KA2999N-01171MD1210021+9999MW1021
0043011520999991959010919004+67267+014367FM-12+001099999V0200901N006219999999N0700001N9+99999+99999999999ADDAY101999GF102991011021008001041001MW1021
0043011520999991959010920004+67267+014367FM-12+001099999V0200901N007719999999N0700001N9+99999+99999999999ADDAY101999GF102991011021008001041001MW1021
0062011520999991959010921004+67267+014367FM-12+001099999V0200901N00771220001CN0700001N9+99999+99999999999ADDAY101999GF101991999001999999041001MW1011EQDQ01+000002SCOTLC
0062011520999991959010922004+67267+014367FM-12+001099999V0200901N00821220001CN0700001N9+99999+99999999999ADDAY101999GF102991999001999999041001MW1031EQDQ01+000002SCOTLC
0062011520999991959010923004+67267+014367FM-12+001099999V0200801N00771220001CN0700001N9+99999+99999999999ADDAY101999GF102991999001999999041001MW1021EQDQ01+000002SCOTLC
0076011520999991959011000004+67267+014367FM-12+001099999V0200801N00721220001CN0700001N9-00781+99999101331ADDAY101999GF102991999001999999041001MD1410001+9999MW1021EQDQ01+000002SCOTLC
0043011520999991959011001004+67267+014367FM-12+001099999V0200801N00721220001CN0700001N9+99999+99999999999ADDAY101999GF100991001001999999001001MW1011
0043011520999991959011002004+67267+014367FM-12+001099999V0200801N00871220001CN0700001N9+99999+99999999999ADDAY101999GF100991001001999999001001MW1021
0057011520999991959011003004+67267+014367FM-12+001099999V0200801N00771220001CN0700001N9-00721+99999101331ADDAY101999GF100991001001999999001001MD1410001+9999MW1021
0043011520999991959011004004+67267+014367FM-12+001099999V0200801N00671220001CN0700001N9+99999+99999999999ADDAY101999GF100991001001999999001001MW1021
0043011520999991959011005004+67267+014367FM-12+001099999V0200801N006219999999N0700001N9+99999+99999999999ADDAY101999GF101991011021008001041001MW1031
0089011520999991959011006004+67267+014367FM-12+001099999V0200801N006219999999N0700001N9-00781+99999101311ADDAY101999GF101991011021008001041001IA1009KA1999M-00721KA2999N-00781MD1810021+9999MW1021
0043011520999991959011007004+67267+014367FM-12+001099999V0200801N006219999999N0700001N9+99999+99999999999ADDAY101999GF101991011021008001001001MW1021
0043011520999991959011008004+67267+014367FM-12+001099999V0200801N006719999999N0700001N9+99999+99999999999ADDAY101999GF104991011021008001041051MW1031
0057011520999991959011009004+67267+014367FM-12+001099999V0200801N007719999999N0700001N9-00781+99999101311ADDAY121999GF108991011021008001041071MD1410001+9999MW1031
0043011520999991959011010004+67267+014367FM-12+001099999V0200801N012319999999N0700001N9+99999+99999999999ADDAY121999GF108991021001022501041071MW1021
0043011520999991959011011004+67267+014367FM-12+001099999V0200901N010319999999N0700001N9+99999+99999999999ADDAY121999GF108991021001022501041071MW1021
0057011520999991959011012004+67267+014367FM-12+001099999V0200901N007219999999N0700001N9-00721+99999101211ADDAY121999GF107991021001022501041071MD1710101+9999MW1011
0043011520999991959011013004+67267+014367FM-12+001099999V0200601N005119999999N0700001N9+99999+99999999999ADDAY121999GF108991021001022501041071MW1031
0043011520999991959011014004+67267+014367FM-12+001099999V0200801N006719999999N0600001N9+99999+99999999999ADDAY121999GF108991021051017501021999MW1021
0057011520999991959011015004+67267+014367FM-12+001099999V0200801N005119999999N0500001N9-00611+99999101161ADDAY121999GF108991021051017501021999MD1710051+9999MW1021
0043011520999991959011016004+67267+014367FM-12+001099999V0200901N007219999999N0500001N9+99999+99999999999ADDAY121999GF108991021051017501021999MW1021
0043011520999991959011017004+67267+014367FM-12+001099999V0200701N007219999999N0500001N9+99999+99999999999ADDAY121999GF108991021051017501021999MW1021
0083011520999991959011018004+67267+014367FM-12+001099999V0200601N005119999999N0500001N9-00561+99999101111ADDAY121999GF108991021051012501021999KA1999M-00501KA2999N-00831MD1610051+9999MW1021
0043011520999991959011019004+67267+014367FM-12+001099999V0200701N007219999999N0500001N9+99999+99999999999ADDAY121999GF108991021051012501021999MW1021
0043011520999991959011020004+67267+014367FM-12+001099999V0200601N006219999999N0500001N9+99999+99999999999ADDAY121999GF108991021051012501021999MW1021
0043011520999991959011021004+67267+014367FM-12+001099999V0200801N006219999999N0500001N9+99999+99999999999ADDAY121999GF107991021051012501021999MW1011
0043011520999991959011022004+67267+014367FM-12+001099999V0200901N007219999999N0550001N9+99999+99999999999ADDAY121999GF106991021051012501021999MW1011
0043011520999991959011023004+67267+014367FM-12+001099999V0200901N007719999999N0700001N9+99999+99999999999ADDAY111999GF103991011051012501041999MW1011
0057011520999991959011100004+67267+014367FM-12+001099999V0201001N010319999999N0600001N9-00391+99999100881ADDAY111999GF105991021051012501041999MD1710191+9999MW1031
0043011520999991959011101004+67267+014367FM-12+001099999V0200801N009319999999N0600001N9+99999+99999999999ADDAY121999GF106991021051012501041999MW1031
0043011520999991959011102004+67267+014367FM-12+001099999V0201101N008219999999N0600001N9+99999+99999999999ADDAY121999GF106991021051012501041999MW1021
0057011520999991959011103004+67267+014367FM-12+001099999V0200901N009319999999N0600001N9-00331+99999100771ADDAY121999GF107991021051012501071999MD1710111+9999MW1031
0043011520999991959011104004+67267+014367FM-12+001099999V0200701N007719999999N0600001N9+99999+99999999999ADDAY121999GF107991021051012501071999MW1021
0043011520999991959011105004+67267+014367FM-12+001099999V0200601N006219999999N0600001N9+99999+99999999999ADDAY121999GF107991021051012501071999MW1021
0089011520999991959011106004+67267+014367FM-12+001099999V0200901N010319999999N0600001N9-00221+99999100631ADDAY121999GF108991031051012501071999IA1009KA1999M-00221KA2999N-00561MD1710141+9999MW1031
0043011520999991959011107004+67267+014367FM-12+001099999V0200901N008219999999N0600001N9+99999+99999999999ADDAY121999GF108991031051012501071999MW1021
0043011520999991959011108004+67267+014367FM-12+001099999V0200801N006719999999N0100001N9+99999+99999999999ADDAY171999GF108991021051008001021999MW1701
0057011520999991959011109004+67267+014367FM-12+001099999V0200801N005719999999N0080001N9-00221+99999100651ADDAY171999GF108991021051004501021999MD1310021+9999MW1711
0043011520999991959011110004+67267+014367FM-12+001099999V0200701N004119999999N0080001N9+99999+99999999999ADDAY171999GF108991021051004501021999MW1701
0043011520999991959011111004+67267+014367FM-12+001099999V0200601N00621002401CN0028001N9+99999+99999999999ADDAY171999GF109991091999002501999999MW1711
0057011520999991959011112004+67267+014367FM-12+001099999V0200901N00721002401CN0028001N9-00221+99999100521ADDAY171999GF109991091999002501999999MD1710131+9999MW1711
0043011520999991959011113004+67267+014367FM-12+001099999V0201201N00871001501CN0015001N9+99999+99999999999ADDAY171999GF109991091999001501999999MW1731
0043011520999991959011114004+67267+014367FM-12+001099999V0201101N00821001501CN0009001N9+99999+99999999999ADDAY171999GF109991091999001501999999MW1731
0057011520999991959011115004+67267+014367FM-12+001099999V0201001N00931004501CN0080001N9-00331+99999100421ADDAY171999GF108991061061004501071999MD1610101+9999MW1221
0043011520999991959011116004+67267+014367FM-12+001099999V0201001N00821007801CN0150001N9+99999+99999999999ADDAY121999GF108991071061008001071999MW1151
0043011520999991959011117004+67267+014367FM-12+001099999V0201001N00721007801CN0250001N9+99999+99999999999ADDAY121999GF108991071061008001071999MW1021
0094011520999991959011118004+67267+014367FM-12+001099999V0200901N00621007801CN0300001N9-00221+99999100291ADDAA199001091AY171999GF108991061051008001071999KA1999M-00171KA2999N-00391MD1710131+9999MW1021
0043011520999991959011119004+67267+014367FM-12+001099999V0200901N00721007801CN0200001N9+99999+99999999999ADDAY171999GF108991071051008001071999MW1701
0043011520999991959011120004+67267+014367FM-12+001099999V0200801N00571007801CN0300001N9+99999+99999999999ADDAY171999GF108991061051008001071999MW1221
0043011520999991959011121004+67267+014367FM-12+001099999V0200801N00771007801CN0350001N9+99999+99999999999ADDAY121999GF108991061051008001071999MW1021
0043011520999991959011122004+67267+014367FM-12+001099999V0200901N00621007801CN0350001N9+99999+99999999999ADDAY121999GF108991071051008001071999MW1021
0043011520999991959011123004+67267+014367FM-12+001099999V0200801N00621007801CN0200001N9+99999+99999999999ADDAY121999GF108991071051008001071999MW1151
0076011520999991959011200004+67267+014367FM-12+001099999V0200801N00511004501CN0100001N9-00331+99999100051ADDAY171999GF108991999051004501021999MD1710121+9999MW1701EQDQ01+000082SCOTLC
0062011520999991959011201004+67267+014367FM-12+001099999V0200701N00621004501CN0200001N9+99999+99999999999ADDAY171999GF108991999051004501021999MW1221EQDQ01+000082SCOTLC
0043011520999991959011202004+67267+014367FM-12+001099999V0200801N00671002401CN0020001N9+99999+99999999999ADDAY171999GF109991091999002501999999MW1731
0057011520999991959011203004+67267+014367FM-12+001099999V0200801N00621004501CN0040001N9-00441+99999999999ADDAY171999GF109991091999004501999999MD1710051+9999MW1711
0043011520999991959011204004+67267+014367FM-12+001099999V0200801N00671004501CN0030001N9+99999+99999999999ADDAY171999GF109991091999004501999999MW1711
0043011520999991959011205004+67267+014367FM-12+001099999V0200801N00571004501CN0040001N9+99999+99999999999ADDAY171999GF109991091999004501999999MW1711
0100011520999991959011206004+67267+014367FM-12+001099999V0200801N00511004501CN0040001N9-00441+99999099981ADDAA199000591AY171999GF109991091999004501999999IA1009KA1999M-00171KA2999N-00441MD1710021+9999MW1711
0043011520999991959011207004+67267+014367FM-12+001099999V0200701N00511004501CN0040001N9+99999+99999999999ADDAY171999GF109991091999004501999999MW1711
0043011520999991959011208004+67267+014367FM-12+001099999V0200701N00511004501CN0035001N9+99999+99999999999ADDAY171999GF107991061051004501071999MW1711
0057011520999991959011209004+67267+014367FM-12+001099999V0200701N00461004501CN0050001N9-00441+99999100101ADDAY171999GF107991051051004501071999MD1310121+9999MW1711
0043011520999991959011210004+67267+014367FM-12+001099999V0200701N00311002401CN0060001N9+99999+99999999999ADDAY171999GF108991081051002501999999MW1701
0043011520999991959011211004+67267+014367FM-12+001099999V0200701N00211004501CN0050001N9+99999+99999999999ADDAY171999GF108991081051004501999999MW1711
0057011520999991959011212004+67267+014367FM-12+001099999V0200801N00411004501CN0045001N9-00441+99999100181ADDAY171999GF108991081051004501999999MD1210081+9999MW1701
0043011520999991959011213004+67267+014367FM-12+001099999V0200801N00411004501CN0060001N9+99999+99999999999ADDAY171999GF108991071051004501071999MW1701
0043011520999991959011214004+67267+014367FM-12+001099999V0200801N00411004501CN0060001N9+99999+99999999999ADDAY171999GF108991071051004501071999MW1701
0057011520999991959011215004+67267+014367FM-12+001099999V0200801N00411004501CN0060001N9-00501+99999100221ADDAY171999GF107991061051004501071051MD1110041+9999MW1701
0043011520999991959011216004+67267+014367FM-12+001099999V0200801N00461004501CN0060001N9+99999+99999999999ADDAY171999GF108991061051004501071999MW1701
0043011520999991959011217004+67267+014367FM-12+001099999V0200801N00511007801CN0060001N9+99999+99999999999ADDAY171999GF108991061051008001071999MW1701
0094011520999991959011218004+67267+014367FM-12+001099999V0200801N00511007801CN0080001N9-00441+99999100281ADDAA199001091AY171999GF108991061051008001071999KA1999M-00391KA2999N-00561MD1210061+9999MW1221
0043011520999991959011219004+67267+014367FM-12+001099999V0200801N00411007801CN0100001N9+99999+99999999999ADDAY121999GF108991061051008001071999MW1021
0043011520999991959011220004+67267+014367FM-12+001099999V0200801N00461007801CN0150001N9+99999+99999999999ADDAY121999GF108991061051008001071999MW1021
0043011520999991959011221004+67267+014367FM-12+001099999V0200801N00461007801CN0200001N9+99999+99999999999ADDAY121999GF108991081051008001999999MW1021
0043011520999991959011222004+67267+014367FM-12+001099999V0200701N005119999999N0300001N9+99999+99999999999ADDAY121999GF104991041051008001001001MW1011
0043011520999991959011223004+67267+014367FM-12+001099999V0200801N005119999999N0300001N9+99999+99999999999ADDAY101999GF103991031051008001001001MW1011
0057011520999991959011300004+67267+014367FM-12+001099999V0200801N004619999999N0600001N9-00561+99999100311ADDAY111999GF103991031051012501001001MD1810021+9999MW1021
0043011520999991959011301004+67267+014367FM-12+001099999V0200801N004119999999N0600001N9+99999+99999999999ADDAY101999GF103991031051012501001001MW1021
0043011520999991959011302004+67267+014367FM-12+001099999V0200801N005119999999N0600001N9+99999+99999999999ADDAY101999GF103991031051008001001001MW1021
0057011520999991959011303004+67267+014367FM-12+001099999V0200801N005119999999N0600001N9-00611+99999100271ADDAY101999GF103991031051008001001001MD1710041+9999MW1021
0043011520999991959011304004+67267+014367FM-12+001099999V0200801N005119999999N0600001N9+99999+99999999999ADDAY111999GF105991031051008001041011MW1031
0043011520999991959011305004+67267+014367FM-12+001099999V0200801N004119999999N0600001N9+99999+99999999999ADDAY111999GF104991021051008001041011MW1011
0089011520999991959011306004+67267+014367FM-12+001099999V0200901N004119999999N0600001N9-00721+99999100191ADDAY111999GF102991011081008001041011IA1009KA1999M-00391KA2999N-00781MD1710081+9999MW1011
0043011520999991959011307004+67267+014367FM-12+001099999V0200901N005119999999N0500001N9+99999+99999999999ADDAY101999GF102991011081008001041011MW1021
0043011520999991959011308004+67267+014367FM-12+001099999V0200901N005119999999N0500001N9+99999+99999999999ADDAY101999GF102991011021008001041011MW1021
0057011520999991959011309004+67267+014367FM-12+001099999V0200901N005119999999N0500001N9-00781+99999100141ADDAY101999GF102991021021008001041011MD1710051+9999MW1021
0043011520999991959011310004+67267+014367FM-12+001099999V0201001N003119999999N0500001N9+99999+99999999999ADDAY101999GF102991021011008001041011MW1021
0043011520999991959011311004+67267+014367FM-12+001099999V0200801N005119999999N0600001N9+99999+99999999999ADDAY101999GF103991031011008001001011MW1031
0057011520999991959011312004+67267+014367FM-12+001099999V0200801N004119999999N0650001N9-00781+99999100081ADDAY101999GF103991031011008001001011MD1710061+9999MW1021
0043011520999991959011313004+67267+014367FM-12+001099999V0200801N004119999999N0700001N9+99999+99999999999ADDAY101999GF104991031011008001001011MW1031
0043011520999991959011314004+67267+014367FM-12+001099999V0200801N004119999999N0700001N9+99999+99999999999ADDAY101999GF103991031061004501001011MW1011
0057011520999991959011315004+67267+014367FM-12+001099999V0200901N004619999999N0700001N9-00781+99999999999ADDAY101999GF102991021061004501001011MD1710081+9999MW1011
0043011520999991959011316004+67267+014367FM-12+001099999V0200801N004119999999N0700001N9+99999+99999999999ADDAY101999GF102991011061004501041011MW1021
0043011520999991959011317004+67267+014367FM-12+001099999V0200901N005119999999N0700001N9+99999+99999999999ADDAY101999GF102991011061004501041011MW1021
0083011520999991959011318004+67267+014367FM-12+001099999V0200901N004619999999N0700001N9-00891+99999099991ADDAY101999GF101991011061004501001011KA1999M-00721KA2999N-01001MD1710011+9999MW1011
0043011520999991959011319004+67267+014367FM-12+001099999V0200801N004119999999N0700001N9+99999+99999999999ADDAY101999GF101991011051008001001011MW1021
0043011520999991959011320004+67267+014367FM-12+001099999V0200901N003619999999N0700001N9+99999+99999999999ADDAY101999GF101991011051008001001011MW1021
0043011520999991959011321004+67267+014367FM-12+001099999V0200801N004619999999N0700001N9+99999+99999999999ADDAY101999GF101991011051008001001011MW1021
0043011520999991959011322004+67267+014367FM-12+001099999V0200801N005119999999N0700001N9+99999+99999999999ADDAY101999GF101991011051008001001011MW1021
0043011520999991959011323004+67267+014367FM-12+001099999V0200801N005119999999N0700001N9+99999+99999999999ADDAY101999GF101991011051008001041011MW1021
0057011520999991959011400004+67267+014367FM-12+001099999V0200801N005119999999N0700001N9-01001+99999999999ADDAY101999GF101991011051008001001001MD1410001+9999MW1021
0043011520999991959011401004+67267+014367FM-12+001099999V0200901N005119999999N0700001N9+99999+99999999999ADDAY101999GF101991011051008001001001MW1021
0043011520999991959011402004+67267+014367FM-12+001099999V0200801N005119999999N0700001N9+99999+99999999999ADDAY101999GF101991011051008001001001MW1021
0057011520999991959011403004+67267+014367FM-12+001099999V0200801N005119999999N0700001N9-01001+99999100031ADDAY101999GF101991011051008001001001MD1210031+9999MW1021
0043011520999991959011404004+67267+014367FM-12+001099999V0200901N005119999999N0700001N9+99999+99999999999ADDAY101999GF101991011051008001001001MW1021
0043011520999991959011405004+67267+014367FM-12+001099999V0200801N005119999999N0700001N9+99999+99999999999ADDAY101999GF101991011051008001001001MW1021
0089011520999991959011406004+67267+014367FM-12+001099999V0200801N004119999999N0700001N9-01001+99999099991ADDAY101999GF101991011051008001001001IA1009KA1999M-00831KA2999N-01111MD1710041+9999MW1021
0043011520999991959011407004+67267+014367FM-12+001099999V0200801N004119999999N0700001N9+99999+99999999999ADDAY101999GF101991011051008001001001MW1021
0043011520999991959011408004+67267+014367FM-12+001099999V0200801N005119999999N0700001N9+99999+99999999999ADDAY101999GF101991011041008001041001MW1021
0057011520999991959011409004+67267+014367FM-12+001099999V0200801N005719999999N0700001N9-01061+99999100071ADDAY101999GF101991011041008001041001MD1210081+9999MW1021
0043011520999991959011410004+67267+014367FM-12+001099999V0200801N005119999999N0700001N9+99999+99999999999ADDAY101999GF101991011061000751041001MW1021
0043011520999991959011411004+67267+014367FM-12+001099999V0200901N006219999999N0700001N9+99999+99999999999ADDAY101999GF101991011061000751041001MW1021
0057011520999991959011412004+67267+014367FM-12+001099999V0200901N005719999999N0700001N9-01061+99999100081ADDAY101999GF101991011061000751041001MD1010011+9999MW1021
0043011520999991959011413004+67267+014367FM-12+001099999V0200901N005119999999N0700001N9+99999+99999999999ADDAY101999GF101991011061001501041001MW1021
0043011520999991959011414004+67267+014367FM-12+001099999V0200901N004619999999N0700001N9+99999+99999999999ADDAY101999GF101991011061000751041001MW1021
0057011520999991959011415004+67267+014367FM-12+001099999V0200901N005119999999N0700001N9-01111+99999100101ADDAY101999GF101991011081008001041001MD1210021+9999MW1021
0043011520999991959011416004+67267+014367FM-12+001099999V0200901N005719999999N0700001N9+99999+99999999999ADDAY101999GF101991011061001501041011MW1021
0043011520999991959011417004+67267+014367FM-12+001099999V0200801N005119999999N0700001N9+99999+99999999999ADDAY101999GF101991011061002501041011MW1021
0083011520999991959011418004+67267+014367FM-12+001099999V0200901N005719999999N0700001N9-01061+99999100051ADDAY101999GF103991011061001501041011KA1999M-01001KA2999N-01221MD1710051+9999MW1031
0043011520999991959011419004+67267+014367FM-12+001099999V0200901N005719999999N0600001N9+99999+99999999999ADDAY101999GF104991011061001501041011MW1031
0043011520999991959011420004+67267+014367FM-12+001099999V0200901N00621007801CN0600001N9+99999+99999999999ADDAY181999GF106991051081008001071999MW1261
0043011520999991959011421004+67267+014367FM-12+001099999V0200901N00511007801CN0080001N9+99999+99999999999ADDAY181999GF108991081021008001999999MW1851
0043011520999991959011422004+67267+014367FM-12+001099999V0200901N006219999999N0150001N9+99999+99999999999ADDAY181999GF104991031091004501061001MW1851
0043011520999991959011423004+67267+014367FM-12+001099999V0200901N00571004501CN0150001N9+99999+99999999999ADDAY181999GF107991061091004501061999MW1851
0057011520999991959011500004+67267+014367FM-12+001099999V0200901N00411004501CN0040001N9-00891+99999099951ADDAY181999GF108991081091004501999999MD1710091+9999MW1861
0043011520999991959011501004+67267+014367FM-12+001099999V0200901N00571004501CN0030001N9+99999+99999999999ADDAY181999GF108991081091004501999999MW1861
0043011520999991959011502004+67267+014367FM-12+001099999V0200801N00571004501CN0100001N9+99999+99999999999ADDAY181999GF105991051091004501999999MW1261
0057011520999991959011503004+67267+014367FM-12+001099999V0200901N00411004501CN0100001N9-00831+99999099931ADDAY181999GF105991051091004501999999MD1710021+9999MW1851
0043011520999991959011504004+67267+014367FM-12+001099999V0200801N004119999999N0300001N9+99999+99999999999ADDAY181999GF105991041091004501071999MW1261
0043011520999991959011505004+67267+014367FM-12+001099999V0200801N005119999999N0600001N9+99999+99999999999ADDAY111999GF103991031091004501001001MW1011
0100011520999991959011506004+67267+014367FM-12+001099999V0200801N005119999999N0600001N9-00941+99999099961ADDAA199001091AY181999GF103991031051008001001001IA1009KA1999M-00831KA2999N-01111MD1110031+9999MW1021
0043011520999991959011507004+67267+014367FM-12+001099999V0200801N004619999999N0700001N9+99999+99999999999ADDAY101999GF101991011061001501041001MW1011
0043011520999991959011508004+67267+014367FM-12+001099999V0200801N005119999999N0700001N9+99999+99999999999ADDAY101999GF101991011061001501001001MW1021
0057011520999991959011509004+67267+014367FM-12+001099999V0200801N004619999999N0700001N9-01061+99999100051ADDAY101999GF102991021091004501001001MD1210091+9999MW1151
0043011520999991959011510004+67267+014367FM-12+001099999V0200801N005119999999N0700001N9+99999+99999999999ADDAY101999GF102991021061001501001001MW1021
0043011520999991959011511004+67267+014367FM-12+001099999V0200901N005119999999N0700001N9+99999+99999999999ADDAY101999GF102991021061001501001001MW1021
0057011520999991959011512004+67267+014367FM-12+001099999V0200901N005719999999N0700001N9-01001+99999100081ADDAY101999GF103991031061001501001001MD1110031+9999MW1151
0043011520999991959011513004+67267+014367FM-12+001099999V0200901N005119999999N0700001N9+99999+99999999999ADDAY101999GF102991021061001501001001MW1151
0043011520999991959011514004+67267+014367FM-12+001099999V0200901N00571002401CN0500001N9+99999+99999999999ADDAY111999GF107991071061002501001001MW1151
0057011520999991959011515004+67267+014367FM-12+001099999V0200901N00511002401CN0025001N9-00891+99999100091ADDAY181999GF109991091999002501999999MD1210011+9999MW1851
0043011520999991959011516004+67267+014367FM-12+001099999V0200801N00621001501CN0010001N9+99999+99999999999ADDAY181999GF109991091999001501999999MW1861
0043011520999991959011517004+67267+014367FM-12+001099999V0200901N00511001501CN0015001N9+99999+99999999999ADDAY181999GF107991071061001501999999MW1861
0094011520999991959011518004+67267+014367FM-12+001099999V0200501N00361001501CN0020001N9-00781+99999100181ADDAA199002091AY181999GF109991091999001501999999KA1999M-00781KA2999N-01281MD1210091+9999MW1851
0043011520999991959011519004+67267+014367FM-12+001099999V0203601N00821004501CN0200001N9+99999+99999999999ADDAY181999GF106991061091004501001001MW1261
0043011520999991959011520004+67267+014367FM-12+001099999V0200201N00511004501CN0300001N9+99999+99999999999ADDAY121999GF106991061091004501001001MW1151
0043011520999991959011521004+67267+014367FM-12+001099999V0200801N00311007801CN0300001N9+99999+99999999999ADDAY121999GF105991051091008001001001MW1151
0043011520999991959011522004+67267+014367FM-12+001099999V0200801N00211001501CN0025001N9+99999+99999999999ADDAY181999GF109991091999001501999999MW1851
0043011520999991959011523004+67267+014367FM-12+001099999V0201001N00101004501CN0100001N9+99999+99999999999ADDAY181999GF108991081091004501999999MW1261
0057011520999991959011600004+67267+014367FM-12+001099999V0202901N00671002401CN0010001N9-00781+99999100241ADDAY181999GF109991091999002501999999MD1810011+9999MW1861
0043011520999991959011601004+67267+014367FM-12+001099999V0200901N00211007801CN0300001N9+99999+99999999999ADDAY181999GF105991051091008001041001MW1261
0043011520999991959011602004+67267+014367FM-12+001099999V0200801N003619999999N0500001N9+99999+99999999999ADDAY111999GF103991031091008001041001MW1151
0057011520999991959011603004+67267+014367FM-12+001099999V0201901N00361004501CN0040001N9-00721+99999100131ADDAY181999GF108991081091004501999999MD1710111+9999MW1851
0043011520999991959011604004+67267+014367FM-12+001099999V0202101N005719999999N0500001N9+99999+99999999999ADDAY181999GF103991031091004501041001MW1261
0043011520999991959011605004+67267+014367FM-12+001099999V0202401N00931004501CN0050001N9+99999+99999999999ADDAY181999GF106991061091004501041999MW1851
0100011520999991959011606004+67267+014367FM-12+001099999V0202401N01131004501CN0040001N9-00441+99999099811ADDAA199003091AY181999GF107991071091004501041999IA1009KA1999M-00281KA2999N-01001MD1810321+9999MW1381
0043011520999991959011607004+67267+014367FM-12+001099999V0201101N00821000601CN0008001N9+99999+99999999999ADDAY181999GF109991091999000751999999MW1861
0043011520999991959011608004+67267+014367FM-12+001099999V0200801N01131002401CN0040001N9+99999+99999999999ADDAY181999GF108991071091002501061999MW1361
0057011520999991959011609004+67267+014367FM-12+001099999V0200901N00821002401CN0050001N9-00671+99999100151ADDAY181999GF107991071091002501021999MD1310341+9999MW1261
0043011520999991959011610004+67267+014367FM-12+001099999V0200701N005119999999N0700001N9+99999+99999999999ADDAY111999GF102991021021008001041011MW1011
0043011520999991959011611004+67267+014367FM-12+001099999V0200801N003119999999N0700001N9+99999+99999999999ADDAY101999GF102991021021008001041011MW1021
0057011520999991959011612004+67267+014367FM-12+001099999V0200901N003619999999N0700001N9-01001+99999100471ADDAY181999GF103991021021008001041011MD1210321+9999MW1031
0043011520999991959011613004+67267+014367FM-12+001099999V0200801N004119999999N0700001N9+99999+99999999999ADDAY101999GF103991021021008001041011MW1151
0043011520999991959011614004+67267+014367FM-12+001099999V0200801N003119999999N0700001N9+99999+99999999999ADDAY101999GF103991021021008001041001MW1151
0057011520999991959011615004+67267+014367FM-12+001099999V0200801N001019999999N0700001N9-01061+99999100651ADDAY101999GF103991021021008001041001MD1210181+9999MW1151
0043011520999991959011616004+67267+014367FM-12+001099999V0200801N003119999999N0700001N9+99999+99999999999ADDAY101999GF103991021021008001041001MW1151
0043011520999991959011617004+67267+014367FM-12+001099999V0201301N002619999999N0700001N9+99999+99999999999ADDAY101999GF103991021021008001041001MW1151
0094011520999991959011618004+67267+014367FM-12+001099999V0200801N001519999999N0700001N9-00941+99999100821ADDAA199000391AY101999GF104991031081008001041011KA1999M-00331KA2999N-01221MD1210171+9999MW1151
0043011520999991959011619004+67267+014367FM-12+001099999V0201001N001019999999N0700001N9+99999+99999999999ADDAY121999GF104991041081008001001001MW1021
0043011520999991959011620004+67267+014367FM-12+001099999V0201301N002119999999N0700001N9+99999+99999999999ADDAY121999GF104991041081008001001001MW1021
0043011520999991959011621004+67267+014367FM-12+001099999V0201601N002619999999N0700001N9+99999+99999999999ADDAY101999GF102991021081008001001001MW1011
0043011520999991959011622004+67267+014367FM-12+001099999V0201401N003119999999N0700001N9+99999+99999999999ADDAY101999GF102991021041008001001001MW1021
0043011520999991959011623004+67267+014367FM-12+001099999V0200901N003619999999N0700001N9+99999+99999999999ADDAY101999GF101991011041008001001011MW1011
0057011520999991959011700004+67267+014367FM-12+001099999V0200901N004119999999N0700001N9-00941+99999101071ADDAY101999GF101991011041008001001011MD1210091+9999MW1021
0043011520999991959011701004+67267+014367FM-12+001099999V0200901N005119999999N0700001N9+99999+99999999999ADDAY101999GF101991011041012501001011MW1021
0043011520999991959011702004+67267+014367FM-12+001099999V0200901N005119999999N0700001N9+99999+99999999999ADDAY101999GF101991011041012501001011MW1021
0057011520999991959011703004+67267+014367FM-12+001099999V0200901N004119999999N0700001N9-00891+99999101111ADDAY101999GF103991031041012501001011MD1210041+9999MW1031
0043011520999991959011704004+67267+014367FM-12+001099999V0200901N00461002401CN0100001N9+99999+99999999999ADDAY111999GF107991061061002501071999MW1101
0043011520999991959011705004+67267+014367FM-12+001099999V0200901N005119999999N0150001N9+99999+99999999999ADDAY121999GF104991031061002501071011MW1101
0089011520999991959011706004+67267+014367FM-12+001099999V0200901N005719999999N0200001N9-00941+99999101111ADDAY111999GF102991011061002501041011IA1009KA1999M-00501KA2999N-01061MD1410001+9999MW1101
0043011520999991959011707004+67267+014367FM-12+001099999V0200901N005719999999N0300001N9+99999+99999999999ADDAY101999GF102991011061001501041011MW1021
0043011520999991959011708004+67267+014367FM-12+001099999V0200901N005719999999N0600001N9+99999+99999999999ADDAY101999GF102991011061002501041011MW1021
0057011520999991959011709004+67267+014367FM-12+001099999V0200801N005719999999N0600001N9-00941+99999101171ADDAY101999GF103991011061002501041011MD1210061+9999MW1031
0043011520999991959011710004+67267+014367FM-12+001099999V0200801N006219999999N0600001N9+99999+99999999999ADDAY101999GF103991011061002501041011MW1021
0043011520999991959011711004+67267+014367FM-12+001099999V0200801N006219999999N0700001N9+99999+99999999999ADDAY101999GF103991011061002501041011MW1021
0057011520999991959011712004+67267+014367FM-12+001099999V0200801N006219999999N0700001N9-01001+99999101131ADDAY101999GF103991011061002501041011MD1610041+9999MW1021
0043011520999991959011713004+67267+014367FM-12+001099999V0200801N006219999999N0700001N9+99999+99999999999ADDAY101999GF102991011091008001041011MW1011
0043011520999991959011714004+67267+014367FM-12+001099999V0200901N005719999999N0700001N9+99999+99999999999ADDAY101999GF101991011091008001041999MW1011
0057011520999991959011715004+67267+014367FM-12+001099999V0200801N005719999999N0700001N9-01061+99999101101ADDAY101999GF101991011091008001001001MD1710031+9999MW1021
0043011520999991959011716004+67267+014367FM-12+001099999V0200801N006219999999N0700001N9+99999+99999999999ADDAY101999GF102991021061004501001001MW1031
0043011520999991959011717004+67267+014367FM-12+001099999V0200901N004619999999N0700001N9+99999+99999999999ADDAY101999GF102991021061004501001001MW1021
0083011520999991959011718004+67267+014367FM-12+001099999V0200901N007219999999N0700001N9-01111+99999101081ADDAY101999GF102991021061004501001001KA1999M-00831KA2999N-01171MD1710031+9999MW1021
0043011520999991959011719004+67267+014367FM-12+001099999V0200901N006219999999N0700001N9+99999+99999999999ADDAY101999GF102991021061004501001001MW1021
0043011520999991959011720004+67267+014367FM-12+001099999V0200801N007219999999N0700001N9+99999+99999999999ADDAY101999GF102991021061004501001001MW1021
0043011520999991959011721004+67267+014367FM-12+001099999V0200901N007219999999N0700001N9+99999+99999999999ADDAY101999GF101991011061004501001001MW1011
0043011520999991959011722004+67267+014367FM-12+001099999V0200801N007219999999N0700001N9+99999+99999999999ADDAY101999GF101991011061004501001001MW1021
0043011520999991959011723004+67267+014367FM-12+001099999V0200901N006719999999N0700001N9+99999+99999999999ADDAY101999GF101991011061004501001001MW1021
0057011520999991959011800004+67267+014367FM-12+001099999V0200901N006219999999N0700001N9-01221+99999101101ADDAY101999GF101991011061004501001001MD1210021+9999MW1021
0043011520999991959011801004+67267+014367FM-12+001099999V0200801N005119999999N0700001N9+99999+99999999999ADDAY101999GF101991011061004501001001MW1021
0043011520999991959011802004+67267+014367FM-12+001099999V0200801N006219999999N0700001N9+99999+99999999999ADDAY101999GF101991011061004501001001MW1021
0057011520999991959011803004+67267+014367FM-12+001099999V0200901N006719999999N0700001N9-01171+99999101081ADDAY101999GF101991011061004501001001MD1810021+9999MW1021
0043011520999991959011804004+67267+014367FM-12+001099999V0200901N006719999999N0700001N9+99999+99999999999ADDAY101999GF101991011061004501041001MW1021
0043011520999991959011805004+67267+014367FM-12+001099999V0200901N006219999999N0700001N9+99999+99999999999ADDAY101999GF102991011061001501041001MW1031
0089011520999991959011806004+67267+014367FM-12+001099999V0200901N006219999999N0700001N9-01221+99999101011ADDAY101999GF103991011061001501041001IA1009KA1999M-01061KA2999N-01281MD1710071+9999MW1031
0043011520999991959011807004+67267+014367FM-12+001099999V0200901N00621001501CN0700001N9+99999+99999999999ADDAY111999GF105991051061001501041999MW1031
0043011520999991959011808004+67267+014367FM-12+001099999V0200901N00821001501CN0200001N9+99999+99999999999ADDAY121999GF107991071061001501999999MW1711
0057011520999991959011809004+67267+014367FM-12+001099999V0200801N00721001501CN0010001N9-01001+99999101041ADDAY121999GF108991081061001501999999MD1310031+9999MW1721
0043011520999991959011810004+67267+014367FM-12+001099999V0200801N00721007801CN0050001N9+99999+99999999999ADDAY171999GF107991071051008001021999MW1711
0043011520999991959011811004+67267+014367FM-12+001099999V0200901N00621002401CN0030001N9+99999+99999999999ADDAY181999GF109991091999002501999999MW1861
0057011520999991959011812004+67267+014367FM-12+001099999V0200801N00511001501CN0100001N9-00891+99999101131ADDAY181999GF108991081061001501999999MD1210091+9999MW1851
0043011520999991959011813004+67267+014367FM-12+001099999V0200801N005119999999N0250001N9+99999+99999999999ADDAY181999GF104991041061001501999999MW1151
0043011520999991959011814004+67267+014367FM-12+001099999V0200801N00411001501CN0015001N9+99999+99999999999ADDAY181999GF108991081061001501999999MW1871
0057011520999991959011815004+67267+014367FM-12+001099999V0200901N00311001501CN0100001N9-00941+99999101221ADDAY181999GF106991061061001501999999MD1110091+9999MW1151
0043011520999991959011816004+67267+014367FM-12+001099999V0200701N00411001501CN0300001N9+99999+99999999999ADDAY181999GF107991071061001501999999MW1151
0043011520999991959011817004+67267+014367FM-12+001099999V0200801N004119999999N0500001N9+99999+99999999999ADDAY111999GF103991031021008001001001MW1011
0094011520999991959011818004+67267+014367FM-12+001099999V0200901N004119999999N0500001N9-01061+99999101251ADDAA199001091AY181999GF103991031021008001001001KA1999M-00891KA2999N-01281MD1010031+9999MW1031
0043011520999991959011819004+67267+014367FM-12+001099999V0201401N005119999999N0600001N9+99999+99999999999ADDAY101999GF102991021021008001001001MW1011
0043011520999991959011820004+67267+014367FM-12+001099999V0201401N005119999999N0500001N9+99999+99999999999ADDAY111999GF105991041021008001001011MW1151
0043011520999991959011821004+67267+014367FM-12+001099999V0201801N00931004501CN0500001N9+99999+99999999999ADDAY121999GF107991061021004501071999MW1151
0043011520999991959011822004+67267+014367FM-12+001099999V0202601N00931002401CN0010001N9+99999+99999999999ADDAY181999GF109991091999002501999999MW1861
0043011520999991959011823004+67267+014367FM-12+001099999V0202701N01031004501CN0020001N9+99999+99999999999ADDAY181999GF109991091999004501999999MW1851
0057011520999991959011900004+67267+014367FM-12+001099999V0202701N00721004501CN0050001N9-00441+99999100781ADDAY181999GF107991071081004501999999MD1710301+9999MW1361
0043011520999991959011901004+67267+014367FM-12+001099999V0203301N01131000601CN0005001N9+99999+99999999999ADDAY181999GF109991091999000751999999MW1861
0043011520999991959011902004+67267+014367FM-12+001099999V0203501N011319999999N0150001N9+99999+99999999999ADDAY121999GF104991041011004501001001MW1011
0057011520999991959011903004+67267+014367FM-12+001099999V0203401N008219999999N0200001N9-00391+99999100841ADDAY121999GF104991041021008001001001MD1510061+9999MW1151
0043011520999991959011904004+67267+014367FM-12+001099999V0203401N00511007801CN0200001N9+99999+99999999999ADDAY121999GF105991051021008001001001MW1151
0043011520999991959011905004+67267+014367FM-12+001099999V0203401N00721007801CN0250001N9+99999+99999999999ADDAY121999GF105991051021008001001001MW1151
0100011520999991959011906004+67267+014367FM-12+001099999V0203501N00871001501CN0200001N9-00561+99999100951ADDAA199000391AY121999GF105991051061001501999999IA1009KA1999M-00221KA2999N-01221MD1310111+9999MW1151
0043011520999991959011907004+67267+014367FM-12+001099999V0203501N00671002401CN0010001N9+99999+99999999999ADDAY181999GF109991091999002501999999MW1861
0043011520999991959011908004+67267+014367FM-12+001099999V0203601N00511004501CN0350001N9+99999+99999999999ADDAY181999GF106991051091004501061999MW1261
0057011520999991959011909004+67267+014367FM-12+001099999V0200201N00511004501CN0100001N9-00561+99999101061ADDAY181999GF107991051091004501061999MD1210111+9999MW1871
0043011520999991959011910004+67267+014367FM-12+001099999V0203501N00411004501CN0150001N9+99999+99999999999ADDAY181999GF107991061091004501061999MW1851
0043011520999991959011911004+67267+014367FM-12+001099999V0200201N00511004501CN0300001N9+99999+99999999999ADDAY181999GF107991051091004501061999MW1261
0057011520999991959011912004+67267+014367FM-12+001099999V0203401N00621004501CN0250001N9-00781+99999101011ADDAY181999GF107991051091004501061999MD1710051+9999MW1151
0043011520999991959011913004+67267+014367FM-12+001099999V0201001N001519999999N0350001N9+99999+99999999999ADDAY121999GF105991041091004501061011MW1151
0043011520999991959011914004+67267+014367FM-12+001099999V0203201N00621002401CN0120001N9+99999+99999999999ADDAY121999GF107991071091002501999999MW1161
0057011520999991959011915004+67267+014367FM-12+001099999V0203001N00411004501CN0250001N9-00611+99999100961ADDAY121999GF105991051091004501001001MD1710051+9999MW1151
0043011520999991959011916004+67267+014367FM-12+001099999V0203301N00721004501CN0300001N9+99999+99999999999ADDAY121999GF105991051091004501001001MW1151
0043011520999991959011917004+67267+014367FM-12+001099999V0200801N003619999999N0600001N9+99999+99999999999ADDAY111999GF102991021021008001001001MW1011
0094011520999991959011918004+67267+014367FM-12+001099999V0200801N004619999999N0700001N9-01061+99999100911ADDAA199000691AY111999GF102991021021008001001001KA1999M-00501KA2999N-01061MD1710051+9999MW1021
0043011520999991959011919004+67267+014367FM-12+001099999V0200801N00511007801CN0600001N9+99999+99999999999ADDAY111999GF107991071081008001999999MW1151
0043011520999991959011920004+67267+014367FM-12+001099999V0200801N006219999999N0600001N9+99999+99999999999ADDAY121999GF106991031061004501001061MW1151
0043011520999991959011921004+67267+014367FM-12+001099999V0200801N007219999999N0600001N9+99999+99999999999ADDAY121999GF106991031061004501071061MW1151
0043011520999991959011922004+67267+014367FM-12+001099999V0200801N006219999999N0600001N9+99999+99999999999ADDAY121999GF107991031061004501071061MW1151
0043011520999991959011923004+67267+014367FM-12+001099999V0200901N01031007801CN0600001N9+99999+99999999999ADDAY121999GF107991051081008001071071MW1151
0057011520999991959012000004+67267+014367FM-12+001099999V0200801N00771007801CN0500001N9-00831+99999100621ADDAY111999GF107991051081008001071071MD1710211+9999MW1151
0043011520999991959012001004+67267+014367FM-12+001099999V0200901N00821007801CN0500001N9+99999+99999999999ADDAY121999GF107991051081008001071999MW1151
0043011520999991959012002004+67267+014367FM-12+001099999V0201301N00721004501CN0500001N9+99999+99999999999ADDAY121999GF107991051081004501071999MW1151
0057011520999991959012003004+67267+014367FM-12+001099999V0201301N00931004501CN0400001N9-00671+99999100351ADDAY121999GF108991061081004501071999MD1710271+9999MW1151
0043011520999991959012004004+67267+014367FM-12+001099999V0201201N00721004501CN0400001N9+99999+99999999999ADDAY121999GF108991061081004501071999MW1151
0043011520999991959012005004+67267+014367FM-12+001099999V0201401N00721004501CN0300001N9+99999+99999999999ADDAY121999GF108991061081004501071999MW1151
0089011520999991959012006004+67267+014367FM-12+001099999V0201301N008219999999N0300001N9-00501+99999100311ADDAY121999GF108991041081008001071081IA1009KA1999M-00501KA2999N-01111MD1610041+9999MW1151
0043011520999991959012007004+67267+014367FM-12+001099999V0201401N007719999999N0300001N9+99999+99999999999ADDAY121999GF108991041081008001071999MW1151
0043011520999991959012008004+67267+014367FM-12+001099999V0201201N008219999999N0300001N9+99999+99999999999ADDAY121999GF108991041081008001071999MW1151
0057011520999991959012009004+67267+014367FM-12+001099999V0201201N00721007801CN0400001N9-00561+99999100351ADDAY121999GF108991061081008001071999MD1310041+9999MW1151
0043011520999991959012010004+67267+014367FM-12+001099999V0201301N00821007801CN0500001N9+99999+99999999999ADDAY121999GF107991061081008001071999MW1151
0043011520999991959012011004+67267+014367FM-12+001099999V0200901N00621007801CN0600001N9+99999+99999999999ADDAY121999GF106991061081008001071011MW1151
0057011520999991959012012004+67267+014367FM-12+001099999V0200901N01231012301CN0700001N9-00721+99999100301ADDAY131999GF106991051051012501071011MD1710051+9999MW1361
0043011520999991959012013004+67267+014367FM-12+001099999V0200901N011319999999N0700001N9+99999+99999999999ADDAY121999GF104991031051012501071011MW1011
0043011520999991959012014004+67267+014367FM-12+001099999V0200901N012319999999N0700001N9+99999+99999999999ADDAY131999GF104991011051012501071011MW1361
0057011520999991959012015004+67267+014367FM-12+001099999V0200901N009319999999N0700001N9-00891+99999100201ADDAY131999GF103991011051012501041011MD1710101+9999MW1011
0043011520999991959012016004+67267+014367FM-12+001099999V0200801N010319999999N0700001N9+99999+99999999999ADDAY101999GF101991011051012501041999MW1011
0043011520999991959012017004+67267+014367FM-12+001099999V0200901N009319999999N0700001N9+99999+99999999999ADDAY101999GF101991011051012501999999MW1021
0083011520999991959012018004+67267+014367FM-12+001099999V0200901N00931220001CN0700001N9-00941+99999100101ADDAY101999GF100991001001999999001001KA1999M-00441KA2999N-00941MD1810101+9999MW1011
0043011520999991959012019004+67267+014367FM-12+001099999V0200901N01031220001CN0700001N9+99999+99999999999ADDAY101999GF100991001001999999001001MW1021
0043011520999991959012020004+67267+014367FM-12+001099999V0201101N01181220001CN0700001N9+99999+99999999999ADDAY101999GF100991001001999999001001MW1021
0043011520999991959012021004+67267+014367FM-12+001099999V0201101N01441220001CN0700001N9+99999+99999999999ADDAY131999GF100991001001999999001001MW1361
0043011520999991959012022004+67267+014367FM-12+001099999V0201001N01441220001CN0700001N9+99999+99999999999ADDAY131999GF100991001001999999001001MW1361
0043011520999991959012023004+67267+014367FM-12+001099999V0201001N01291220001CN0700001N9+99999+99999999999ADDAY131999GF100991001001999999001001MW1361
0057011520999991959012100004+67267+014367FM-12+001099999V0201101N01291220001CN0700001N9-01061+99999099751ADDAY101999GF100991001001999999001001MD1710191+9999MW1021
0043011520999991959012101004+67267+014367FM-12+001099999V0201101N01541220001CN0700001N9+99999+99999999999ADDAY101999GF100991001001999999001001MW1021
0043011520999991959012102004+67267+014367FM-12+001099999V0201101N01441220001CN0700001N9+99999+99999999999ADDAY101999GF100991001001999999001001MW1021
0057011520999991959012103004+67267+014367FM-12+001099999V0201101N013419999999N0700001N9-01111+99999099451ADDAY101999GF101991011051008001001001MD1710301+9999MW1031
0043011520999991959012104004+67267+014367FM-12+001099999V0201101N012919999999N0700001N9+99999+99999999999ADDAY101999GF101991011051008001001001MW1021
0043011520999991959012105004+67267+014367FM-12+001099999V0201101N012919999999N0700001N9+99999+99999999999ADDAY101999GF101991011051008001041001MW1021
0089011520999991959012106004+67267+014367FM-12+001099999V0201101N013419999999N0700001N9-01001+99999099031ADDAY131999GF101991011051008001041001IA1009KA1999M-00781KA2999N-01221MD1710421+9999MW1381
0043011520999991959012107004+67267+014367FM-12+001099999V0201101N010319999999N0700001N9+99999+99999999999ADDAY131999GF102991011051008001041011MW1381
0043011520999991959012108004+67267+014367FM-12+001099999V0201201N015419999999N0500001N9+99999+99999999999ADDAY131999GF107991021051008001021999MW1381
0057011520999991959012109004+67267+014367FM-12+001099999V0201301N014419999999N0400001N9-00831+99999098761ADDAY131999GF108991031051008001021999MD1710271+9999MW1381
0043011520999991959012110004+67267+014367FM-12+001099999V0201401N013419999999N0300001N9+99999+99999999999ADDAY131999GF108991041051008001021999MW1381
0043011520999991959012111004+67267+014367FM-12+001099999V0201301N012919999999N0300001N9+99999+99999999999ADDAY131999GF108991041051008001021999MW1361
0057011520999991959012112004+67267+014367FM-12+001099999V0201201N01131004501CN0250001N9-00891+99999098631ADDAY131999GF108991061001004501021999MD1710131+9999MW1151
0043011520999991959012113004+67267+014367FM-12+001099999V0201301N01291012301CN0500001N9+99999+99999999999ADDAY121999GF108991061001012501021999MW1021
0062011520999991959012114004+67267+014367FM-12+001099999V0201201N01131004501CN0400001N9+99999+99999999999ADDAY121999GF108991999051004501021999MW1151EQDQ01+000082SCOTLC
0076011520999991959012115004+67267+014367FM-12+001099999V0201001N01291004501CN0400001N9-00891+99999098531ADDAY131999GF108991999051004501021999MD1610101+9999MW1361EQDQ01+000082SCOTLC
0062011520999991959012116004+67267+014367FM-12+001099999V0201001N01541004501CN0250001N9+99999+99999999999ADDAY131999GF108991999051004501021999MW1361EQDQ01+000082SCOTLC
0043011520999991959012117004+67267+014367FM-12+001099999V0201101N01441004501CN0250001N9+99999+99999999999ADDAY131999GF108991081051004501999999MW1361
0083011520999991959012118004+67267+014367FM-12+001099999V0201101N01541004501CN0200001N9-00941+99999098471ADDAY131999GF108991081051004501999999KA1999M-00781KA2999N-01281MD1710061+9999MW1361
0062011520999991959012119004+67267+014367FM-12+001099999V0201001N01441004501CN0200001N9+99999+99999999999ADDAY131999GF108991999051004501021999MW1361EQDQ01+000082SCOTLC
0062011520999991959012120004+67267+014367FM-12+001099999V0201101N01441004501CN0200001N9+99999+99999999999ADDAY131999GF108991999051004501021999MW1361EQDQ01+000082SCOTLC
0062011520999991959012121004+67267+014367FM-12+001099999V0201101N01291004501CN0200001N9+99999+99999999999ADDAY131999GF108991999051004501021999MW1361EQDQ01+000082SCOTLC
0062011520999991959012122004+67267+014367FM-12+001099999V0201101N01291004501CN0250001N9+99999+99999999999ADDAY131999GF108991999051004501021999MW1361EQDQ01+000082SCOTLC
0062011520999991959012123004+67267+014367FM-12+001099999V0201101N01231004501CN0250001N9+99999+99999999999ADDAY131999GF108991999051004501021999MW1361EQDQ01+000082SCOTLC
0057011520999991959012200004+67267+014367FM-12+001099999V0201001N012919999999N0300001N9-00891+99999098461ADDAY131999GF105991031051008001021999MD1610021+9999MW1361
0043011520999991959012201004+67267+014367FM-12+001099999V0201001N012919999999N0600001N9+99999+99999999999ADDAY131999GF102991011051008001041001MW1011
0043011520999991959012202004+67267+014367FM-12+001099999V0201001N012919999999N0600001N9+99999+99999999999ADDAY101999GF101991011051008001041001MW1011
0057011520999991959012203004+67267+014367FM-12+001099999V0201001N011319999999N0700001N9-00831+99999098441ADDAY131999GF101991011051008001041011MD1310021+9999MW1021
0043011520999991959012204004+67267+014367FM-12+001099999V0201001N013419999999N0700001N9+99999+99999999999ADDAY101999GF101991011051008001041001MW1021
0043011520999991959012205004+67267+014367FM-12+001099999V0200901N010319999999N0700001N9+99999+99999999999ADDAY101999GF101991011051008001041001MW1021
0089011520999991959012206004+67267+014367FM-12+001099999V0200801N011319999999N0700001N9-00781+99999098521ADDAY131999GF102991011051008001041011IA1009KA1999M-00781KA2999N-01001MD1210081+9999MW1031
0043011520999991959012207004+67267+014367FM-12+001099999V0201001N011819999999N0700001N9+99999+99999999999ADDAY101999GF103991011051008001041011MW1031
0043011520999991959012208004+67267+014367FM-12+001099999V0201001N014419999999N0700001N9+99999+99999999999ADDAY101999GF104991011051008001041011MW1031
0057011520999991959012209004+67267+014367FM-12+001099999V0201101N012319999999N0700001N9-00781+99999098661ADDAY101999GF103991011051008001041011MD1210141+9999MW1011
0043011520999991959012210004+67267+014367FM-12+001099999V0201001N010319999999N0700001N9+99999+99999999999ADDAY101999GF103991011051008001041011MW1021
0043011520999991959012211004+67267+014367FM-12+001099999V0200901N011319999999N0700001N9+99999+99999999999ADDAY131999GF103991011051008001041011MW1361
0057011520999991959012212004+67267+014367FM-12+001099999V0200901N00931220001CN0600001N9-00721+99999098761ADDAY131999GF102991001001999999041011MD1210101+9999MW1011
0043011520999991959012213004+67267+014367FM-12+001099999V0200901N01031220001CN0600001N9+99999+99999999999ADDAY131999GF102991001001999999041011MW1361
0043011520999991959012214004+67267+014367FM-12+001099999V0200801N01031220001CN0600001N9+99999+99999999999ADDAY131999GF102991001001999999041011MW1021
0057011520999991959012215004+67267+014367FM-12+001099999V0200901N00931220001CN0600001N9-00831+99999098871ADDAY131999GF102991001001999999041011MD1210101+9999MW1021
0043011520999991959012216004+67267+014367FM-12+001099999V0200901N01131220001CN0600001N9+99999+99999999999ADDAY101999GF102991001001999999041011MW1021
0043011520999991959012217004+67267+014367FM-12+001099999V0200901N01131220001CN0600001N9+99999+99999999999ADDAY101999GF102991001001999999041011MW1021
0083011520999991959012218004+67267+014367FM-12+001099999V0200801N01231220001CN0600001N9-00891+99999098941ADDAY101999GF102991001001999999041011KA1999M-00671KA2999N-00941MD1210071+9999MW1021
0043011520999991959012219004+67267+014367FM-12+001099999V0200801N01031220001CN0600001N9+99999+99999999999ADDAY101999GF102991001001999999041011MW1021
0043011520999991959012220004+67267+014367FM-12+001099999V0200801N01231220001CN0600001N9+99999+99999999999ADDAY101999GF102991001001999999001011MW1021
0043011520999991959012221004+67267+014367FM-12+001099999V0200901N01131220001CN0700001N9+99999+99999999999ADDAY101999GF103991001001999999001011MW1031
0043011520999991959012222004+67267+014367FM-12+001099999V0201001N01441220001CN0700001N9+99999+99999999999ADDAY101999GF103991001001999999001011MW1021
0043011520999991959012223004+67267+014367FM-12+001099999V0200901N01231220001CN0700001N9+99999+99999999999ADDAY101999GF103991001001999999001011MW1021
0057011520999991959012300004+67267+014367FM-12+001099999V0201001N00931220001CN0700001N9-00781+99999099151ADDAY101999GF103991001001999999001011MD1210071+9999MW1021
0043011520999991959012301004+67267+014367FM-12+001099999V0200801N00871220001CN0700001N9+99999+99999999999ADDAY101999GF103991001001999999001011MW1021
0043011520999991959012302004+67267+014367FM-12+001099999V0200901N01031220001CN0700001N9+99999+99999999999ADDAY101999GF103991001001999999001011MW1021
0057011520999991959012303004+67267+014367FM-12+001099999V0200801N01031220001CN0700001N9-00781+99999099191ADDAY101999GF103991001001999999001011MD1010041+9999MW1021
0043011520999991959012304004+67267+014367FM-12+001099999V0200801N00931220001CN0700001N9+99999+99999999999ADDAY101999GF103991001001999999001011MW1021
0043011520999991959012305004+67267+014367FM-12+001099999V0200801N00931220001CN0700001N9+99999+99999999999ADDAY101999GF103991001001999999001011MW1021
0089011520999991959012306004+67267+014367FM-12+001099999V0200901N00931220001CN0700001N9-00831+99999099211ADDAY101999GF103991001001999999001011IA1009KA1999M-00721KA2999N-00941MD1110021+9999MW1021
0043011520999991959012307004+67267+014367FM-12+001099999V0200901N010319999999N0700001N9+99999+99999999999ADDAY111999GF105991021001022501041011MW1031
0043011520999991959012308004+67267+014367FM-12+001099999V0200901N014419999999N0700001N9+99999+99999999999ADDAY121999GF105991021001022501041011MW1021
0057011520999991959012309004+67267+014367FM-12+001099999V0200901N010319999999N0600001N9-00781+99999099281ADDAY121999GF107991021001022501041071MD1210071+9999MW1151
0043011520999991959012310004+67267+014367FM-12+001099999V0200801N010319999999N0700001N9+99999+99999999999ADDAY121999GF107991031001022501071071MW1021
0043011520999991959012311004+67267+014367FM-12+001099999V0200801N009319999999N0700001N9+99999+99999999999ADDAY121999GF107991021001022501071051MW1021
0057011520999991959012312004+67267+014367FM-12+001099999V0201001N009319999999N0700001N9-00781+99999099281ADDAY111999GF107991011051017501071051MD1010001+9999MW1021
0043011520999991959012313004+67267+014367FM-12+001099999V0201101N006719999999N0700001N9+99999+99999999999ADDAY121999GF107991011051017501071051MW1021
0043011520999991959012314004+67267+014367FM-12+001099999V0200801N006219999999N0600001N9+99999+99999999999ADDAY121999GF107991011051017501071051MW1021
0057011520999991959012315004+67267+014367FM-12+001099999V0201101N006719999999N0600001N9-00721+99999099321ADDAY121999GF107991011051017501071051MD1210041+9999MW1021
0043011520999991959012316004+67267+014367FM-12+001099999V0201101N006719999999N0600001N9+99999+99999999999ADDAY121999GF107991021051017501071061MW1021
0043011520999991959012317004+67267+014367FM-12+001099999V0200501N005719999999N0600001N9+99999+99999999999ADDAY121999GF107991021051017501071061MW1021
0083011520999991959012318004+67267+014367FM-12+001099999V0200601N005119999999N0700001N9-00831+99999099401ADDAY121999GF106991021051017501071061KA1999M-00721KA2999N-00891MD1210081+9999MW1011
0043011520999991959012319004+67267+014367FM-12+001099999V0200601N003619999999N0700001N9+99999+99999999999ADDAY121999GF106991021051017501071061MW1021
0043011520999991959012320004+67267+014367FM-12+001099999V0200601N003119999999N0700001N9+99999+99999999999ADDAY121999GF106991011051012501071061MW1021
0043011520999991959012321004+67267+014367FM-12+001099999V0200701N003119999999N0700001N9+99999+99999999999ADDAY121999GF107991011051012501071061MW1031
0043011520999991959012322004+67267+014367FM-12+001099999V0200701N002619999999N0700001N9+99999+99999999999ADDAY121999GF107991011051012501021061MW1021
0043011520999991959012323004+67267+014367FM-12+001099999V0200701N003119999999N0700001N9+99999+99999999999ADDAY121999GF107991011051012501021061MW1021
0057011520999991959012400004+67267+014367FM-12+001099999V0200701N002119999999N0700001N9-00891+99999099451ADDAY121999GF107991021001022501041061MD1210021+9999MW1021
0043011520999991959012401004+67267+014367FM-12+001099999V0200701N002619999999N0700001N9+99999+99999999999ADDAY121999GF107991011001022501041061MW1021
0043011520999991959012402004+67267+014367FM-12+001099999V0200701N002119999999N0700001N9+99999+99999999999ADDAY121999GF107991011001022501041061MW1021
0057011520999991959012403004+67267+014367FM-12+001099999V0200601N004619999999N0700001N9-00721+99999099521ADDAY121999GF108991011001022501041061MD1210071+9999MW1031
0043011520999991959012404004+67267+014367FM-12+001099999V0200401N006219999999N0700001N9+99999+99999999999ADDAY121999GF108991011001022501041061MW1021
0043011520999991959012405004+67267+014367FM-12+001099999V0200401N007219999999N0700001N9+99999+99999999999ADDAY121999GF108991021051012501011051MW1021
0089011520999991959012406004+67267+014367FM-12+001099999V0200401N008219999999N0700001N9-00501+99999099631ADDAY121999GF108991021051012501011051IA1009KA1999M-00501KA2999N-01061MD1210111+9999MW1021
0043011520999991959012407004+67267+014367FM-12+001099999V0200401N006219999999N0600001N9+99999+99999999999ADDAY121999GF108991021051012501011051MW1021
0043011520999991959012408004+67267+014367FM-12+001099999V0200401N006219999999N0500001N9+99999+99999999999ADDAY121999GF108991021051012501011999MW1021
0057011520999991959012409004+67267+014367FM-12+001099999V0200401N006219999999N0300001N9-00501+99999099861ADDAY121999GF108991021051008001011999MD1210231+9999MW1151
0043011520999991959012410004+67267+014367FM-12+001099999V0200501N005719999999N0400001N9+99999+99999999999ADDAY121999GF108991021051008001011999MW1151
0043011520999991959012411004+67267+014367FM-12+001099999V0200601N003619999999N0400001N9+99999+99999999999ADDAY121999GF108991031051008001011999MW1151
0057011520999991959012412004+67267+014367FM-12+001099999V0200601N002619999999N0400001N9-00501+99999100081ADDAY121999GF108991031051008001011999MD1210221+9999MW1151
0043011520999991959012413004+67267+014367FM-12+001099999V0200501N004119999999N0600001N9+99999+99999999999ADDAY121999GF108991031051008001011999MW1021
0043011520999991959012414004+67267+014367FM-12+001099999V0200401N005119999999N0500001N9+99999+99999999999ADDAY121999GF108991031051008001021999MW1021
0057011520999991959012415004+67267+014367FM-12+001099999V0200701N003119999999N0500001N9-00561+99999100351ADDAY121999GF108991041081008001021999MD1210271+9999MW1151
0043011520999991959012416004+67267+014367FM-12+001099999V0200701N002619999999N0500001N9+99999+99999999999ADDAY121999GF108991021011008001021999MW1021
0043011520999991959012417004+67267+014367FM-12+001099999V0200701N002619999999N0400001N9+99999+99999999999ADDAY121999GF108991021011008001021999MW1021
0083011520999991959012418004+67267+014367FM-12+001099999V0200801N003119999999N0500001N9-00721+99999100651ADDAY121999GF105991011011008001021011KA1999M-00441KA2999N-00781MD1210301+9999MW1011
0043011520999991959012419004+67267+014367FM-12+001099999V0200601N003119999999N0500001N9+99999+99999999999ADDAY121999GF105991011011008001021011MW1021
0043011520999991959012420004+67267+014367FM-12+001099999V0200701N002619999999N0600001N9+99999+99999999999ADDAY121999GF104991011011008001011011MW1011
0043011520999991959012421004+67267+014367FM-12+001099999V0200701N002119999999N0700001N9+99999+99999999999ADDAY101999GF102991011011008001001011MW1011
0043011520999991959012422004+67267+014367FM-12+001099999V0200701N003119999999N0700001N9+99999+99999999999ADDAY101999GF102991011011008001001011MW1021
0043011520999991959012423004+67267+014367FM-12+001099999V0200701N003119999999N0700001N9+99999+99999999999ADDAY101999GF101991011011008001001011MW1011
0057011520999991959012500004+67267+014367FM-12+001099999V0200701N003619999999N0700001N9-00941+99999101131ADDAY101999GF101991011011008001001011MD1210191+9999MW1021
0043011520999991959012501004+67267+014367FM-12+001099999V0200701N003119999999N0700001N9+99999+99999999999ADDAY101999GF101991011011008001001011MW1021
0043011520999991959012502004+67267+014367FM-12+001099999V0200701N00361220001CN0700001N9+99999+99999999999ADDAY101999GF100991001001999999001001MW1011
0057011520999991959012503004+67267+014367FM-12+001099999V0200801N00361220001CN0700001N9-00941+99999101321ADDAY101999GF100991001001999999001001MD1210191+9999MW1021
0043011520999991959012504004+67267+014367FM-12+001099999V0200801N00511220001CN0700001N9+99999+99999999999ADDAY101999GF100991001001999999001001MW1021
0043011520999991959012505004+67267+014367FM-12+001099999V0200801N00461220001CN0700001N9+99999+99999999999ADDAY101999GF102991001001999999001011MW1031
0089011520999991959012506004+67267+014367FM-12+001099999V0200801N00571220001CN0700001N9-00941+99999101391ADDAY101999GF102991001001999999001011IA1009KA1999M-00671KA2999N-01061MD1110071+9999MW1021
0043011520999991959012507004+67267+014367FM-12+001099999V0200801N007719999999N0700001N9+99999+99999999999ADDAY101999GF102991011001999999041011MW1021
0043011520999991959012508004+67267+014367FM-12+001099999V0200901N007219999999N0700001N9+99999+99999999999ADDAY101999GF102991011001999999041011MW1021
0057011520999991959012509004+67267+014367FM-12+001099999V0200901N006219999999N0700001N9-01001+99999101391ADDAY111999GF105991041051017501041011MD1510001+9999MW1031
0043011520999991959012510004+67267+014367FM-12+001099999V0200901N006219999999N0700001N9+99999+99999999999ADDAY121999GF104991031051017501041011MW1011
0043011520999991959012511004+67267+014367FM-12+001099999V0201001N007219999999N0700001N9+99999+99999999999ADDAY121999GF104991031051017501041001MW1021
0057011520999991959012512004+67267+014367FM-12+001099999V0200901N006719999999N0700001N9-00831+99999101381ADDAY111999GF105991021051017501031011MD1710011+9999MW1031
0043011520999991959012513004+67267+014367FM-12+001099999V0200901N00931015001CN0700001N9+99999+99999999999ADDAY121999GF106991051051017501031011MW1031
0043011520999991959012514004+67267+014367FM-12+001099999V0200801N00931007801CN0700001N9+99999+99999999999ADDAY121999GF107991061051008001031999MW1031
0057011520999991959012515004+67267+014367FM-12+001099999V0200901N009319999999N0700001N9-00671+99999101331ADDAY121999GF104991041051008001031001MD1710051+9999MW1011
0043011520999991959012516004+67267+014367FM-12+001099999V0200901N00931007801CN0600001N9+99999+99999999999ADDAY121999GF106991051051008001031011MW1031
0043011520999991959012517004+67267+014367FM-12+001099999V0200901N00931007801CN0500001N9+99999+99999999999ADDAY121999GF108991071051008001071999MW1031
0083011520999991959012518004+67267+014367FM-12+001099999V0201001N01031007801CN0500001N9-00561+99999101141ADDAY121999GF107991051051008001071999KA1999M-00501KA2999N-01061MD1710191+9999MW1011
0043011520999991959012519004+67267+014367FM-12+001099999V0200901N01131007801CN0500001N9+99999+99999999999ADDAY121999GF108991071051008001071999MW1031
0043011520999991959012520004+67267+014367FM-12+001099999V0200901N01031004501CN0050001N9+99999+99999999999ADDAY171999GF108991081051004501999999MW1701
0043011520999991959012521004+67267+014367FM-12+001099999V0200901N01131004501CN0030001N9+99999+99999999999ADDAY171999GF109991091999004501999999MW1711
0043011520999991959012522004+67267+014367FM-12+001099999V0200801N01031007801CN0200001N9+99999+99999999999ADDAY171999GF108991071051008001071999MW1221
0043011520999991959012523004+67267+014367FM-12+001099999V0200901N00931007801CN0300001N9+99999+99999999999ADDAY121999GF108991071051008001071999MW1151
0057011520999991959012600004+67267+014367FM-12+001099999V0200901N01031007801CN0100001N9-00221+99999100661ADDAY171999GF109991091999008001999999MD1710271+9999MW1711
0062011520999991959012601004+67267+014367FM-12+001099999V0202001N00981004501CN0150001N9+99999+99999999999ADDAY171999GF108991999061004501021999MW1681EQDQ01+000082SCOTLC
0043011520999991959012602004+67267+014367FM-12+001099999V0202101N01231002401CN0080001N9+99999+99999999999ADDAY161999GF108991081061002501999999MW1621
0057011520999991959012603004+67267+014367FM-12+001099999V0202201N01291002401CN0080001N9+00441+99999100331ADDAY161999GF108991081061002501999999MD1710331+9999MW1621
0043011520999991959012604004+67267+014367FM-12+001099999V0202301N01541001501CN0060001N9+99999+99999999999ADDAY161999GF108991081061001501999999MW1581
0043011520999991959012605004+67267+014367FM-12+001099999V0202301N01441001501CN0060001N9+99999+99999999999ADDAY161999GF108991081061001501999999MW1581
0119011520999991959012606004+67267+014367FM-12+001099999V0202401N01231002401CN0080001N9+00441+99999100251ADDAA199002091AY171999GF108991999061002501021999IA1009KA1999M+00561KA2999N-00561MD1610081+9999MW1581EQDQ01+000082SCOTLC
0043011520999991959012607004+67267+014367FM-12+001099999V0202401N00931002401CN0045001N9+99999+99999999999ADDAY151999GF109991091999002501999999MW1581
0043011520999991959012608004+67267+014367FM-12+001099999V0202501N01031001501CN0015001N9+99999+99999999999ADDAY151999GF109991091999001501999999MW1591
0057011520999991959012609004+67267+014367FM-12+001099999V0202501N01131002401CN0080001N9+00441+99999100291ADDAY151999GF108991081061002501999999MD1310041+9999MW1591
0043011520999991959012610004+67267+014367FM-12+001099999V0202401N01031002401CN0100001N9+99999+99999999999ADDAY121999GF108991081061002501999999MW1201
0043011520999991959012611004+67267+014367FM-12+001099999V0202401N01031002401CN0100001N9+99999+99999999999ADDAY121999GF108991081061002501999999MW1151
0057011520999991959012612004+67267+014367FM-12+001099999V0202401N01031002401CN0100001N9+00441+99999100321ADDAY151999GF108991081061002501999999MD1210031+9999MW1151
0043011520999991959012613004+67267+014367FM-12+001099999V0202401N01231004501CN0100001N9+99999+99999999999ADDAY121999GF108991081061004501999999MW1151
0043011520999991959012614004+67267+014367FM-12+001099999V0202501N01341004501CN0100001N9+99999+99999999999ADDAY181999GF108991081061004501999999MW1251
0057011520999991959012615004+67267+014367FM-12+001099999V0202901N01341002401CN0060001N9+00441+99999100491ADDAY181999GF108991081061002501999999MD1310171+9999MW1811
0043011520999991959012616004+67267+014367FM-12+001099999V0202801N01131002401CN0060001N9+99999+99999999999ADDAY181999GF108991081061002501999999MW1811
0043011520999991959012617004+67267+014367FM-12+001099999V0202901N01231002401CN0100001N9+99999+99999999999ADDAY181999GF108991081061002501999999MW1151
0094011520999991959012618004+67267+014367FM-12+001099999V0203001N01441002401CN0100001N9+00221+99999101001ADDAA199001091AY181999GF108991081061002501999999KA1999M+00501KA2999N+00221MD1210511+9999MW1151
0043011520999991959012619004+67267+014367FM-12+001099999V0203001N01441004501CN0100001N9+99999+99999999999ADDAY121999GF108991081061004501999999MW1151
0043011520999991959012620004+67267+014367FM-12+001099999V0202901N01131004501CN0150001N9+99999+99999999999ADDAY181999GF108991081061004501999999MW1271
0043011520999991959012621004+67267+014367FM-12+001099999V0202901N01341004501CN0200001N9+99999+99999999999ADDAY121999GF107991071081004501999999MW1151
0043011520999991959012622004+67267+014367FM-12+001099999V0202801N01131004501CN0200001N9+99999+99999999999ADDAY121999GF107991071081004501999999MW1151
0043011520999991959012623004+67267+014367FM-12+001099999V0202801N01031007801CN0300001N9+99999+99999999999ADDAY121999GF106991061081008001031999MW1011
0057011520999991959012700004+67267+014367FM-12+001099999V0202901N00871007801CN0500001N9+00171+99999101681ADDAY181999GF106991051081008001031999MD1210421+9999MW1021
0043011520999991959012701004+67267+014367FM-12+001099999V0202801N00621007801CN0500001N9+99999+99999999999ADDAY121999GF107991061081008001031999MW1031
0043011520999991959012702004+67267+014367FM-12+001099999V0202701N00931007801CN0500001N9+99999+99999999999ADDAY121999GF106991061021008001061999MW1151
0057011520999991959012703004+67267+014367FM-12+001099999V0202701N01031007801CN0500001N9+00171+99999101931ADDAY121999GF105991051021008001061071MD1210251+9999MW1011
0043011520999991959012704004+67267+014367FM-12+001099999V0202701N007719999999N0500001N9+99999+99999999999ADDAY121999GF107991031051012501071999MW1031
0043011520999991959012705004+67267+014367FM-12+001099999V0202801N007719999999N0500001N9+99999+99999999999ADDAY121999GF108991031051012501011999MW1031
0100011520999991959012706004+67267+014367FM-12+001099999V0202701N006219999999N0450001N9+00221+99999102121ADDAA199000691AY121999GF108991031051012501011999IA1009KA1999M+00281KA2999N+00171MD1210191+9999MW1021
0043011520999991959012707004+67267+014367FM-12+001099999V0202701N005719999999N0250001N9+99999+99999999999ADDAY121999GF108991041051008001011999MW1021
0043011520999991959012708004+67267+014367FM-12+001099999V0202501N005719999999N0100001N9+99999+99999999999ADDAY161999GF108991041051008001011999MW1581
0057011520999991959012709004+67267+014367FM-12+001099999V0202501N005119999999N0080001N9+00221+99999102151ADDAY161999GF108991031061001501021999MD1110031+9999MW1581
0043011520999991959012710004+67267+014367FM-12+001099999V0202301N002619999999N0100001N9+99999+99999999999ADDAY161999GF108991041051004501021999MW1581
0062011520999991959012711004+67267+014367FM-12+001099999V0201401N00311002401CN0060001N9+99999+99999999999ADDAY161999GF108991999061002501021999MW1681EQDQ01+000082SCOTLC
0076011520999991959012712004+67267+014367FM-12+001099999V0201201N00461002401CN0035001N9+00111+99999102081ADDAY171999GF108991999999002501999999MD1710071+9999MW1691EQDQ01+000092SCOTLC
0043011520999991959012713004+67267+014367FM-12+001099999V0201301N002619999999N0060001N9+99999+99999999999ADDAY161999GF108991031051004501021999MW1631
0062011520999991959012714004+67267+014367FM-12+001099999V0202401N00821002401CN0050001N9+99999+99999999999ADDAY161999GF108991999061002501021999MW1631EQDQ01+000082SCOTLC
