0057028640999991962010100004+65783+024583FM-12+001599999V0203201N00361220001CN0200001N9-00891-01001099331ADDAY171999GF103991001001999999001011MD1210011+9999MW1221
0057028640999991962010103004+65783+024583FM-12+001599999V0203201N00311220001CN0400001N9-01281-01391099501ADDAY101999GF100991001001999999001001MD1210161+9999MW1021
0081028640999991962010106004+65783+024583FM-12+001599999V0203301N00101220001CN0400001N9-01611-01721099721ADDAA199001091AY101999GF102991001001999999001011KA1999N-01611MD1210221+9999MW1031
0057028640999991962010109004+65783+024583FM-12+001599999V0203001N00211220001CN0300001N9-02111-02281100021ADDAY101999GF102991011001022501041011MD1210301+9999MW1011
0057028640999991962010112004+65783+024583FM-12+001599999V0203501N00101220001CN0300001N9-02111-02391100241ADDAY101999GF102991011001022501041011MD1210221+9999MW1021
0057028640999991962010115004+65783+024583FM-12+001599999V0209991C00001220001CN0300001N9-02391-02611100361ADDAY101999GF101991011001022501041011MD1210121+9999MW1011
0070028640999991962010118004+65783+024583FM-12+001599999V0203601N00151220001CN0300001N9-02501-02721100461ADDAY101999GF100991001001999999001001KA1999M-01501MD1210101+9999MW1021
0057028640999991962010121004+65783+024583FM-12+001599999V0209991C00001220001CN0300001N9-02721-03001100531ADDAY101999GF101991011001022501041999MD1210071+9999MW1021
0057028640999991962010200004+65783+024583FM-12+001599999V0209991C00001220001CN0300001N9-02721-02891100461ADDAY101999GF102991021001022501041999MD1810071+9999MW1021
0057028640999991962010203004+65783+024583FM-12+001599999V0209991C00001220001CN0300001N9-02721-02891100411ADDAY101999GF102991021001022501041999MD1110051+9999MW1021
0057028640999991962010209004+65783+024583FM-12+001599999V0201201N00211030001CN0150001N9-02001-02111100041ADDAY121999GF106991011051002501041011MD1710141+9999MW1011
0057028640999991962010212004+65783+024583FM-12+001599999V0201201N00261075001CN0300001N9-02001-02111099921ADDAY121999GF105991021051004501041011MD1610121+9999MW1031
0057028640999991962010215004+65783+024583FM-12+001599999V0201201N00211015001CN0150001N9-01501-01611099811ADDAY171999GF107991051041017501999999MD1710111+9999MW1221
0081028640999991962010218004+65783+024583FM-12+001599999V0201401N00051004501CN0300001N9-01281-01391099841ADDAA199000391AY121999GF108991081051004501999999KA1999M-01281MD1210031+9999MW1031
0057028640999991962010221004+65783+024583FM-12+001599999V0209991C00001002401CN0300001N9-01221-01281099921ADDAY171999GF108991081051002501999999MD1210081+9999MW1221
0057028640999991962010300004+65783+024583FM-12+001599999V0203201N00211220001CN0400001N9-01391-01501100191ADDAY171999GF100991001001999999001001MD1210271+9999MW1011
0057028640999991962010303004+65783+024583FM-12+001599999V0209991C00001220001CN0500001N9-01781-02001100401ADDAY101999GF100991001001999999001001MD1210211+9999MW1021
0081028640999991962010306004+65783+024583FM-12+001599999V0209991C000019999999N0400001N9-01721-01891100581ADDAA199000691AY101999GF106991021001022501071999KA1999N-02001MD1210181+9999MW1031
0057028640999991962010312004+65783+024583FM-12+001599999V0201401N00151021001CN0200001N9-01221-01391100371ADDAY111999GF108991081001022501021999MD1710231+9999MW1031
0057028640999991962010315004+65783+024583FM-12+001599999V0201401N00571001501CN0100001N9-00721-00781099931ADDAY171999GF108991081061001501999999MD1710441+9999MW1771
0081028640999991962010318004+65783+024583FM-12+001599999V0202401N00361220001CN0300001N9-00391-00501099891ADDAA199000391AY171999GF100991001001999999001001KA1999M-00391MD1510031+9999MW1021
0057028640999991962010321004+65783+024583FM-12+001599999V0202401N00411220001CN0400001N9-00391-00501100151ADDAY101999GF100991001001999999001001MD1210201+9999MW1021
0070028640999991962010406004+65783+024583FM-12+001599999V0202501N00311021001CN0400001N9-00221-00391100011ADDAY121999GF106991061001022501071999KA1999N-00501MD1710171+9999MW1011
0057028640999991962010409004+65783+024583FM-12+001599999V0202501N00211030001CN0400001N9-00281-00391099991ADDAY121999GF107991021051008001071071MD1710021+9999MW1031
0057028640999991962010412004+65783+024583FM-12+001599999V0202501N00101030001CN0400001N9-00391-00501099971ADDAY121999GF107991011051008001041021MD1710021+9999MW1011
0057028640999991962010415004+65783+024583FM-12+001599999V0202101N00261220001CN0400001N9-00611-00721099981ADDAY111999GF103991031001022501041001MD1010011+9999MW1011
0070028640999991962010418004+65783+024583FM-12+001599999V0202401N00101220001CN0400001N9-00391-00611099981ADDAY111999GF103991031001022501041001KA1999M-00221MD1510001+9999MW1031
0057028640999991962010421004+65783+024583FM-12+001599999V0202201N00151021001CN0400001N9-00391-00501099901ADDAY111999GF107991071001022501071999MD1710081+9999MW1031
0057028640999991962010500004+65783+024583FM-12+001599999V0201601N00261021001CN0020001N9-00221-00391099651ADDAY121999GF108991081001022501021999MD1710251+9999MW1721
0057028640999991962010503004+65783+024583FM-12+001599999V0201901N00261000151CN0015001N9-00111-00721099281ADDAY171999GF109991091999000251999999MD1710371+9999MW1741
0081028640999991962010506004+65783+024583FM-12+001599999V0209991C00001001501CN0020001N9+00001-00111099011ADDAA199003091AY171999GF108991081071001501999999KA1999N-00501MD1710271+9999MW1731
0057028640999991962010509004+65783+024583FM-12+001599999V0200201N00211001501CN0016001N9-00221-00221098891ADDAY171999GF108991081071001501999999MD1710121+9999MW1731
0057028640999991962010512004+65783+024583FM-12+001599999V0200401N00461002401CN0027001N9-00221-00221098681ADDAY171999GF108991051071002501021999MD1710211+9999MW1731
0057028640999991962010515004+65783+024583FM-12+001599999V0200201N00411002401CN0025001N9-00281-00281098561ADDAY171999GF108991051071002501021999MD1710121+9999MW1731
0081028640999991962010518004+65783+024583FM-12+001599999V0200101N00671000151CN0015001N9-00721-00721098471ADDAA199003091AY171999GF109991091999000251999999KA1999M+00001MD1710091+9999MW1741
0057028640999991962010521004+65783+024583FM-12+001599999V0203601N00821021001CN0060001N9-00781-00891098541ADDAY171999GF108991081001022501021999MD1210071+9999MW1711
0057028640999991962010600004+65783+024583FM-12+001599999V0200101N00721021001CN0150001N9-00781-01001098661ADDAY171999GF108991081001022501021999MD1210121+9999MW1221
0057028640999991962010603004+65783+024583FM-12+001599999V0203601N00621220001CN0400001N9-00891-01111098821ADDAY111999GF101991011001022501041001MD1210161+9999MW1011
0081028640999991962010606004+65783+024583FM-12+001599999V0203601N00511220001CN0400001N9-01001-01111098971ADDAA199000591AY111999GF105991001001999999001021KA1999N-01111MD1210141+9999MW1031
0057028640999991962010609004+65783+024583FM-12+001599999V0203501N00461075001CN0300001N9-01221-01281099351ADDAY111999GF105991021001022501041051MD1210381+9999MW1031
0057028640999991962010612004+65783+024583FM-12+001599999V0203501N00571220001CN0400001N9-01221-01391099681ADDAY111999GF104991021001022501041011MD1210331+9999MW1021
0057028640999991962010615004+65783+024583FM-12+001599999V0203301N00261220001CN0400001N9-01391-01501999999ADDAY121999GF105991021001022501041061MD1210321+9999MW1011
0057028640999991962010621004+65783+024583FM-12+001599999V0203301N00311220001CN0400001N9-01391-01501100661ADDAY101999GF100991001001999999001001MD1210341+9999MW1021
0057028640999991962010700004+65783+024583FM-12+001599999V0203501N00411220001CN0400001N9-01611-01721100941ADDAY101999GF100991001001999999001001MD1210281+9999MW1021
0057028640999991962010703004+65783+024583FM-12+001599999V0203601N00311220001CN0400001N9-01891-02001101211ADDAY101999GF100991001001999999001001MD1210271+9999MW1021
0070028640999991962010706004+65783+024583FM-12+001599999V0209991C00001220001CN0400001N9-02111-02281101321ADDAY101999GF101991011001022501041001KA1999N-02221MD1210111+9999MW1031
0057028640999991962010709004+65783+024583FM-12+001599999V0201201N00101021001CN0150001N9-02281-02501101331ADDAY101999GF106991061001022501041001MD1410001+9999MW1031
0057028640999991962010712004+65783+024583FM-12+001599999V0201201N00261000601CN0100001N9-01611-01721101241ADDAY111999GF108991081061000751999999MD1810081+9999MW1031
0057028640999991962010715004+65783+024583FM-12+001599999V0201801N00461021001CN0100001N9-00721-00721101011ADDAY121999GF106991061001022501071999MD1710231+9999MW1011
0070028640999991962010718004+65783+024583FM-12+001599999V0201401N00571001501CN0200001N9-00781-00891100751ADDAY121999GF107991071071001501999999KA1999M-00501MD1710261+9999MW1031
0057028640999991962010721004+65783+024583FM-12+001599999V0201401N01131002401CN0025001N9-00781-00891100341ADDAY171999GF108991081071002501999999MD1710411+9999MW1731
0057028640999991962010800004+65783+024583FM-12+001599999V0201401N01291000151CN0012001N9-00781-00891099841ADDAY171999GF109991091999000251999999MD1710501+9999MW1731
0057028640999991962010803004+65783+024583FM-12+001599999V0201601N00871000151CN0020001N9-00611-00611099391ADDAY171999GF109991091999000251999999MD1710441+9999MW1731
0081028640999991962010806004+65783+024583FM-12+001599999V0202001N00411004501CN0300001N9-00281-00391099241ADDAA199001091AY171999GF108991081071004501999999KA1999N-01221MD1710151+9999MW1021
0057028640999991962010809004+65783+024583FM-12+001599999V0202001N00361220001CN0400001N9-00391-00501099251ADDAY121999GF104991021071004501041011MD1310011+9999MW1011
0057028640999991962010812004+65783+024583FM-12+001599999V0201801N00311220001CN0400001N9-00391-00501099161ADDAY111999GF102991011051004501041011MD1710091+9999MW1011
0057028640999991962010815004+65783+024583FM-12+001599999V0201501N00261220001CN0400001N9-00281-00501099181ADDAY101999GF103991011051004501041001MD1210021+9999MW1031
0070028640999991962010818004+65783+024583FM-12+001599999V0201901N00361220001CN0400001N9-00281-00391099151ADDAY101999GF100991001001999999001001KA1999M-00221MD1710031+9999MW1011
0057028640999991962010821004+65783+024583FM-12+001599999V0202101N00511220001CN0400001N9-00111-00281099201ADDAY111999GF103991031001022501041001MD1210051+9999MW1011
0057028640999991962010900004+65783+024583FM-12+001599999V0202001N00211220001CN0400001N9-00281-00391099321ADDAY101999GF100991001001999999001001MD1210161+9999MW1011
0057028640999991962010903004+65783+024583FM-12+001599999V0209991C00001220001CN0400001N9-00891-00891099551ADDAY101999GF100991001001999999001001MD1210221+9999MW1021
0070028640999991962010906004+65783+024583FM-12+001599999V0201901N00151220001CN0002001N9-01221-01221099761ADDAY141999GF100991001001999999001001KA1999N-01221MD1210211+9999MW1461
0057028640999991962010909004+65783+024583FM-12+001599999V0200801N00101220001CN0045001N9-01221-01281099871ADDAY141999GF104991041001022501041051MD1210111+9999MW1111
0057028640999991962010912004+65783+024583FM-12+001599999V0201201N00151000601CN0010001N9-00781-00891099931ADDAY141999GF108991081061000751999999MD1210061+9999MW1101
0057028640999991962010915004+65783+024583FM-12+001599999V0201201N00311000151CN0025001N9-00221-00281099811ADDAY141999GF108991081061000251999999MD1710121+9999MW1101
0070028640999991962010918004+65783+024583FM-12+001599999V0201201N00511000151CN0013001N9-00221-00221099681ADDAY141999GF108991081061000251999999KA1999M-00221MD1710131+9999MW1781
0057028640999991962010921004+65783+024583FM-12+001599999V0201301N00621000151CN0015001N9+00001+00001099511ADDAY171999GF109991091999000251999999MD1710171+9999MW1751
0057028640999991962011000004+65783+024583FM-12+001599999V0201301N00821000151CN0019001N9+00001+00001099251ADDAY171999GF109991091999000251999999MD1710261+9999MW1731
0057028640999991962011003004+65783+024583FM-12+001599999V0201501N00721000601CN0045001N9+00001+00001099111ADDAY171999GF108991081071000751999999MD1710141+9999MW1711
0081028640999991962011006004+65783+024583FM-12+001599999V0201701N00571000601CN0045001N9+00111+00111099091ADDAA199004091AY171999GF108991081071000751999999KA1999N-00221MD1810021+9999MW1021
0057028640999991962011009004+65783+024583FM-12+001599999V0201801N00571000601CN0045001N9+00111+00111099181ADDAY121999GF108991081071000751999999MD1210091+9999MW1021
0057028640999991962011015004+65783+024583FM-12+001599999V0201801N00511001501CN0080001N9+00111+00001099431ADDAY121999GF108991081071001501999999MD1210111+9999MW1011
0070028640999991962011018004+65783+024583FM-12+001599999V0201901N00511002401CN0150001N9+00111-00111099451ADDAY121999GF108991081071002501999999KA1999M+00111MD1010021+9999MW1021
0057028640999991962011021004+65783+024583FM-12+001599999V0201801N00511002401CN0100001N9+00111+00001099571ADDAY121999GF108991081071002501999999MD1210121+9999MW1021
0057028640999991962011100004+65783+024583FM-12+001599999V0201501N00511002401CN0150001N9+00111+00111099681ADDAY121999GF108991081071002501999999MD1210111+9999MW1021
0057028640999991962011103004+65783+024583FM-12+001599999V0201501N00621004501CN0060001N9+00111+00001099701ADDAY171999GF108991081051004501999999MD1010021+9999MW1681
0057028640999991962011109004+65783+024583FM-12+001599999V0201301N00511004501CN0200001N9+00111-00111099611ADDAY121999GF108991061051004501021999MD1710031+9999MW1021
0057028640999991962011112004+65783+024583FM-12+001599999V0201101N00461001501CN0040001N9+00001+00001099411ADDAY171999GF108991081071001501999999MD1710201+9999MW1771
0057028640999991962011115004+65783+024583FM-12+001599999V0201301N00671001501CN0027001N9+00001+00001099231ADDAY171999GF108991081071001501999999MD1710181+9999MW1731
0081028640999991962011118004+65783+024583FM-12+001599999V0201301N00671001501CN0035001N9+00001+00001099131ADDAA199002091AY171999GF108991081071001501999999KA1999M+00111MD1710101+9999MW1711
0057028640999991962011121004+65783+024583FM-12+001599999V0201301N00621001501CN0025001N9-00111-00111099071ADDAY171999GF108991081071001501999999MD1710061+9999MW1731
0057028640999991962011200004+65783+024583FM-12+001599999V0201201N00721001501CN0040001N9-00111-00111098961ADDAY171999GF108991081071001501999999MD1710111+9999MW1711
0057028640999991962011203004+65783+024583FM-12+001599999V0201201N00511001501CN0040001N9-00221-00221098791ADDAY171999GF108991081071001501999999MD1710171+9999MW1711
0081028640999991962011206004+65783+024583FM-12+001599999V0200901N00511001501CN0020001N9-00221-00281098591ADDAA199001091AY171999GF108991081071001501999999KA1999N-00281MD1710201+9999MW1731
0057028640999991962011209004+65783+024583FM-12+001599999V0200801N00461001501CN0020001N9-00221-00281098331ADDAY171999GF108991081071001501999999MD1710261+9999MW1731
0057028640999991962011212004+65783+024583FM-12+001599999V0201001N00411001501CN0030001N9-00221-00281098121ADDAY171999GF108991081071001501999999MD1710211+9999MW1731
0057028640999991962011215004+65783+024583FM-12+001599999V0200801N00261002401CN0035001N9-00221-00221097981ADDAY171999GF108991081071002501999999MD1710141+9999MW1731
0081028640999991962011218004+65783+024583FM-12+001599999V0200901N00211002401CN0025001N9-00111-00111097871ADDAA199004091AY171999GF108991081071002501999999KA1999M-00111MD1710111+9999MW1731
0057028640999991962011221004+65783+024583FM-12+001599999V0201101N00211000601CN0025001N9+00001+00001097791ADDAY171999GF108991081071000751999999MD1710081+9999MW1681
0057028640999991962011300004+65783+024583FM-12+001599999V0201401N00461000151CN0008001N9+00001+00001097671ADDAY171999GF109991091999000251999999MD1710121+9999MW1751
0057028640999991962011303004+65783+024583FM-12+001599999V0201501N00411000151CN0016001N9+00001+00001097601ADDAY171999GF109991091999000251999999MD1710071+9999MW1731
0081028640999991962011306004+65783+024583FM-12+001599999V0202001N00311000601CN0025001N9+00001+00001097651ADDAA199006091AY171999GF108991081071000751999999KA1999N-00111MD1310051+9999MW1101
0057028640999991962011309004+65783+024583FM-12+001599999V0202301N00261002401CN0050001N9-00281-00391097921ADDAY171999GF108991081071002501999999MD1210271+9999MW1711
0057028640999991962011315004+65783+024583FM-12+001599999V0209991C00001004501CN0035001N9-00391-00391098181ADDAY171999GF107991051051004501071999MD1210121+9999MW1711
0057028640999991962011321004+65783+024583FM-12+001599999V0203601N00151002401CN0040001N9-00281-00281098161ADDAY171999GF108991081071002501999999MD1710021+9999MW1731
0057028640999991962011400004+65783+024583FM-12+001599999V0203401N00101004501CN0200001N9-00281-00281098051ADDAY121999GF108991081051004501999999MD1710141+9999MW1021
0057028640999991962011403004+65783+024583FM-12+001599999V0203601N00211004501CN0200001N9-00281-00281097951ADDAY121999GF107991051051004501071999MD1710101+9999MW1011
0081028640999991962011406004+65783+024583FM-12+001599999V0203601N00361030001CN0100001N9-00281-00281097971ADDAA199000591AY121999GF108991031051004501021999KA1999N-00391MD1310021+9999MW1031
0057028640999991962011409004+65783+024583FM-12+001599999V0202401N00511030001CN0080001N9-00281-00391098041ADDAY121999GF108991041051002501021999MD1210071+9999MW1031
0057028640999991962011415004+65783+024583FM-12+001599999V0203501N00571075001CN0080001N9-00501-00611098231ADDAY171999GF105991011001022501041021MD1210121+9999MW1711
0081028640999991962011418004+65783+024583FM-12+001599999V0203301N00461021001CN0150001N9-00611-00781098351ADDAA199000591AY171999GF106991061001022501041001KA1999M-00281MD1210121+9999MW1711
0057028640999991962011421004+65783+024583FM-12+001599999V0203401N00461220001CN0200001N9-00721-00891098571ADDAY171999GF103991031001022501041001MD1210221+9999MW1011
0057028640999991962011500004+65783+024583FM-12+001599999V0203301N00411220001CN0400001N9-00891-01111098701ADDAY111999GF101991011001022501041001MD1210121+9999MW1021
0057028640999991962011503004+65783+024583FM-12+001599999V0203201N00311220001CN0300001N9-01001-01221098831ADDAY101999GF100991001001999999001001MD1210131+9999MW1021
0081028640999991962011506004+65783+024583FM-12+001599999V0203301N00361220001CN0300001N9-01221-01281098941ADDAA199000691AY101999GF101991011001022501041001KA1999N-01221MD1210111+9999MW1031
0057028640999991962011509004+65783+024583FM-12+001599999V0203301N00461220001CN0400001N9-01281-01391099101ADDAY111999GF104991011001022501041051MD1210161+9999MW1011
0057028640999991962011512004+65783+024583FM-12+001599999V0203301N00261075001CN0400001N9-01281-01391099191ADDAY111999GF106991011001022501041071MD1210091+9999MW1021
0057028640999991962011515004+65783+024583FM-12+001599999V0203301N00311220001CN0400001N9-01391-01611099361ADDAY111999GF103991011001022501041071MD1210171+9999MW1011
0070028640999991962011518004+65783+024583FM-12+001599999V0203501N00211220001CN0500001N9-01891-02001099441ADDAY111999GF101991001001999999001021KA1999M-01221MD1210081+9999MW1011
0057028640999991962011521004+65783+024583FM-12+001599999V0203301N00101220001CN0500001N9-02001-02111099631ADDAY101999GF101991001001999999001011MD1210191+9999MW1021
0057028640999991962011600004+65783+024583FM-12+001599999V0209991C00001220001CN0500001N9-02501-02721099711ADDAY101999GF100991001001999999001001MD1210081+9999MW1011
0057028640999991962011603004+65783+024583FM-12+001599999V0201901N00101220001CN0500001N9-02721-03001099781ADDAY101999GF101991001001999999001011MD1210061+9999MW1031
0057028640999991962011606004+65783+024583FM-12+001599999V0209991C00001220001CN0400001N9-02281-02781099711ADDAY101999GF101991001001999999001011MD1710081+9999MW1021
0057028640999991962011609004+65783+024583FM-12+001599999V0209991C00001220001CN0400001N9-02281-02501099781ADDAY101999GF101991011001022501041011MD1310071+9999MW1021
0057028640999991962011612004+65783+024583FM-12+001599999V0201501N00151220001CN0400001N9-02001-02111099771ADDAY101999GF101991011001022501041011MD1710011+9999MW1031
0057028640999991962011615004+65783+024583FM-12+001599999V0200801N00101220001CN0300001N9-02221-02391099731ADDAY101999GF101991011001022501041011MD1710041+9999MW1031
0070028640999991962011618004+65783+024583FM-12+001599999V0201001N00211220001CN0300001N9-01781-02001099571ADDAY101999GF103991021051004501041001KA1999M-01781MD1710161+9999MW1031
0057028640999991962011621004+65783+024583FM-12+001599999V0201001N00511001501CN0040001N9-01111-01221099251ADDAY111999GF108991081071001501999999MD1710321+9999MW1031
0057028640999991962011700004+65783+024583FM-12+001599999V0200901N00621002401CN0025001N9-00891-00891098511ADDAY171999GF108991081071002501999999MD1710741+9999MW1771
0057028640999991962011703004+65783+024583FM-12+001599999V0201001N00721002401CN0030001N9-00611-00721097921ADDAY171999GF108991081071002501999999MD1710591+9999MW1731
0081028640999991962011706004+65783+024583FM-12+001599999V0201801N00411002401CN0050001N9-00111-00111097531ADDAA199002091AY171999GF108991081071002501999999KA1999N-01781MD1710391+9999MW1711
0057028640999991962011709004+65783+024583FM-12+001599999V0202201N00571002401CN0060001N9-00391-00501097651ADDAY121999GF108991081071002501999999MD1210121+9999MW1701
0057028640999991962011712004+65783+024583FM-12+001599999V0202501N00461004501CN0070001N9-00781-00891097871ADDAY121999GF107991061051004501071999MD1110221+9999MW1711
0057028640999991962011715004+65783+024583FM-12+001599999V0202601N00361021001CN0200001N9-01111-01281098351ADDAY171999GF107991061001022501071071MD1310481+9999MW1031
0081028640999991962011718004+65783+024583FM-12+001599999V0202701N00311220001CN0400001N9-01281-01501098661ADDAA199000391AY121999GF107991001001999999001071KA1999M-00111MD1210301+9999MW1011
0057028640999991962011721004+65783+024583FM-12+001599999V0202601N00151220001CN0500001N9-01721-01891099081ADDAY111999GF102991001001999999001011MD1210421+9999MW1011
0057028640999991962011800004+65783+024583FM-12+001599999V0209991C00001220001CN0500001N9-02111-02221099391ADDAY101999GF101991011001022501041051MD1210311+9999MW1031
0057028640999991962011803004+65783+024583FM-12+001599999V0209991C00001220001CN0500001N9-02221-02281099591ADDAY101999GF104991011001022501041071MD1210201+9999MW1031
0070028640999991962011806004+65783+024583FM-12+001599999V0209991C00001021001CN0500001N9-02001-02221099721ADDAY111999GF107991071001022501071999KA1999N-02391MD1210131+9999MW1031
0057028640999991962011809004+65783+024583FM-12+001599999V0203601N00311021001CN0500001N9-01611-01781099671ADDAY121999GF107991071001022501071999MD1710051+9999MW1021
0057028640999991962011812004+65783+024583FM-12+001599999V0200101N00361021001CN0100001N9-01391-01501099571ADDAY121999GF108991081001022501021999MD1710101+9999MW1701
0057028640999991962011815004+65783+024583FM-12+001599999V0200101N00461021001CN0030001N9-01111-01221099371ADDAY171999GF108991081001022501021999MD1710201+9999MW1731
0081028640999991962011818004+65783+024583FM-12+001599999V0200101N00511030001CN0060001N9-00891-01001099161ADDAA199002091AY171999GF108991041051004501021999KA1999M-00891MD1710211+9999MW1711
0057028640999991962011821004+65783+024583FM-12+001599999V0200101N00511004501CN0040001N9-00891-01001099051ADDAY171999GF108991051051004501021999MD1710111+9999MW1731
0057028640999991962011900004+65783+024583FM-12+001599999V0203601N00411021001CN0250001N9-00781-01001098981ADDAY171999GF108991081001022501071999MD1710061+9999MW1011
0057028640999991962011903004+65783+024583FM-12+001599999V0203501N00461030001CN0100001N9-00781-01001098941ADDAY121999GF108991021051004501021999MD1710041+9999MW1701
0081028640999991962011906004+65783+024583FM-12+001599999V0203501N00461004501CN0100001N9-00781-01001098951ADDAA199001091AY171999GF108991051051004501021999KA1999N-00891MD1310011+9999MW1711
0057028640999991962011909004+65783+024583FM-12+001599999V0203601N00461030001CN0100001N9-00781-00891099021ADDAY171999GF108991041051004501021999MD1210071+9999MW1711
0057028640999991962011912004+65783+024583FM-12+001599999V0203101N00311030001CN0150001N9-00891-01001099101ADDAY171999GF108991041051004501021999MD1210081+9999MW1221
0057028640999991962011915004+65783+024583FM-12+001599999V0203301N00101004501CN0100001N9-01001-01221099161ADDAY121999GF108991081051004501999999MD1210051+9999MW1711
0081028640999991962011918004+65783+024583FM-12+001599999V0203001N00151002401CN0100001N9-01111-01281099221ADDAA199000691AY121999GF108991081051002501999999KA1999M-00721MD1310061+9999MW1711
0057028640999991962011921004+65783+024583FM-12+001599999V0203001N00211004501CN0150001N9-01221-01281099251ADDAY171999GF108991081051004501999999MD1110031+9999MW1711
0057028640999991962012000004+65783+024583FM-12+001599999V0202901N00151004501CN0250001N9-01221-01281099301ADDAY171999GF108991081051004501999999MD1110051+9999MW1021
0057028640999991962012003004+65783+024583FM-12+001599999V0203001N00151004501CN0150001N9-01221-01391099311ADDAY121999GF108991081051004501999999MD1110011+9999MW1701
0081028640999991962012006004+65783+024583FM-12+001599999V0209991C00001220001CN0150001N9-01501-01611099381ADDAA199000691AY121999GF103991011051004501041001KA1999N-01501MD1310071+9999MW1701
0057028640999991962012009004+65783+024583FM-12+001599999V0209991C00001220001CN0500001N9-01891-02111099501ADDAY111999GF102991021001022501041001MD1110121+9999MW1011
0057028640999991962012012004+65783+024583FM-12+001599999V0209991C00001220001CN0500001N9-01891-02001099631ADDAY101999GF102991021001022501041001MD1210131+9999MW1021
0070028640999991962012018004+65783+024583FM-12+001599999V0203301N00101220001CN0500001N9-02501-02781099881ADDAY101999GF100991001001999999001001KA1999M-01501MD1210121+9999MW1011
0057028640999991962012021004+65783+024583FM-12+001599999V0209991C00001001501CN0150001N9-02501-02721100011ADDAY101999GF108991081061001501999999MD1210131+9999MW1031
0057028640999991962012100004+65783+024583FM-12+001599999V0209991C00001002401CN0040001N9-02001-02221100101ADDAY171999GF108991081071002501999999MD1210091+9999MW1781
0057028640999991962012103004+65783+024583FM-12+001599999V0209991C00001001501CN0060001N9-01721-01781100231ADDAY171999GF108991081071001501999999MD1210131+9999MW1781
0081028640999991962012106004+65783+024583FM-12+001599999V0203201N00101220001CN0300001N9-01781-01891100291ADDAA199000691AY171999GF102991021001022501041001KA1999N-02721MD1210061+9999MW1011
0057028640999991962012112004+65783+024583FM-12+001599999V0203301N00151220001CN0500001N9-01611-01781100681ADDAY101999GF101991011001022501041001MD1210201+9999MW1021
0057028640999991962012115004+65783+024583FM-12+001599999V0203201N00101220001CN0500001N9-01721-01891100901ADDAY101999GF100991001001999999001001MD1210221+9999MW1011
0070028640999991962012118004+65783+024583FM-12+001599999V0203301N00151220001CN0500001N9-02221-02281101091ADDAY101999GF100991001001999999001001KA1999M-01611MD1210191+9999MW1021
0057028640999991962012121004+65783+024583FM-12+001599999V0203401N00211220001CN0500001N9-02501-02501101241ADDAY101999GF100991001001999999001001MD1210151+9999MW1021
0057028640999991962012200004+65783+024583FM-12+001599999V0203601N00211220001CN0500001N9-02391-02721101371ADDAY101999GF100991001001999999001001MD1210131+9999MW1021
0057028640999991962012203004+65783+024583FM-12+001599999V0203401N00151220001CN0500001N9-02721-02891101371ADDAY101999GF100991001001999999001001MD1410001+9999MW1021
0070028640999991962012206004+65783+024583FM-12+001599999V0200101N00101220001CN0100001N9-03001-03281101391ADDAY101999GF100991001001999999001001KA1999N-03001MD1310021+9999MW1021
0057028640999991962012209004+65783+024583FM-12+001599999V0200101N00261220001CN0150001N9-03001-03281101391ADDAY101999GF101991011001022501041011MD1010001+9999MW1031
0057028640999991962012212004+65783+024583FM-12+001599999V0200101N00261220001CN0150001N9-02781-03111101371ADDAY101999GF101991011001022501041011MD1810021+9999MW1021
0057028640999991962012215004+65783+024583FM-12+001599999V0200301N00101220001CN0200001N9-02391-02721101171ADDAY101999GF102991021001022501041001MD1710201+9999MW1021
0070028640999991962012218004+65783+024583FM-12+001599999V0209991C00001075001CN0400001N9-02281-02501101081ADDAY101999GF107991021001022501041071KA1999M-02111MD1710091+9999MW1031
0057028640999991962012221004+65783+024583FM-12+001599999V0200601N00311021001CN0400001N9-01781-02001100921ADDAY111999GF107991071001022501071999MD1710151+9999MW1031
0057028640999991962012300004+65783+024583FM-12+001599999V0200601N00361021001CN0400001N9-01721-01891100741ADDAY121999GF105991051001022501041999MD1710181+9999MW1011
0057028640999991962012303004+65783+024583FM-12+001599999V0200701N00461220001CN0500001N9-01721-01891100541ADDAY111999GF105991011001022501041061MD1710201+9999MW1031
0070028640999991962012306004+65783+024583FM-12+001599999V0200601N00571220001CN0500001N9-01501-01721100441ADDAY111999GF104991021001022501041051KA1999N-02221MD1710101+9999MW1021
0057028640999991962012309004+65783+024583FM-12+001599999V0200501N00571220001CN0500001N9-01501-01781100291ADDAY111999GF106991021001022501041011MD1710151+9999MW1031
0057028640999991962012312004+65783+024583FM-12+001599999V0200501N00771075001CN0300001N9-01391-01611100161ADDAY111999GF106991031001022501041021MD1710131+9999MW1031
0057028640999991962012315004+65783+024583FM-12+001599999V0200401N00771075001CN0300001N9-01281-01721100101ADDAY121999GF107991041001022501041021MD1510061+9999MW1021
0070028640999991962012318004+65783+024583FM-12+001599999V0200201N00511220001CN0400001N9-01501-01781100081ADDAY121999GF102991021001022501041001KA1999M-01281MD1710021+9999MW1011
0057028640999991962012321004+65783+024583FM-12+001599999V0200101N00411220001CN0400001N9-01611-01781100071ADDAY101999GF102991011001022501041011MD1510011+9999MW1021
0057028640999991962012400004+65783+024583FM-12+001599999V0203601N00361021001CN0400001N9-01501-01781100101ADDAY121999GF107991071001022501071999MD1210031+9999MW1021
0057028640999991962012403004+65783+024583FM-12+001599999V0203601N00411021001CN0100001N9-01391-01611100181ADDAY171999GF108991081001022501021999MD1210081+9999MW1711
0057028640999991962012409004+65783+024583FM-12+001599999V0203501N00361030001CN0150001N9-01221-01391100341ADDAY171999GF108991041051004501021999MD1210121+9999MW1711
0057028640999991962012412004+65783+024583FM-12+001599999V0203501N00311004501CN0060001N9-01111-01281100441ADDAY171999GF108991051051004501021999MD1210101+9999MW1711
0057028640999991962012415004+65783+024583FM-12+001599999V0203501N00261030001CN0100001N9-01111-01281100531ADDAY171999GF108991021051004501021999MD1210091+9999MW1711
0081028640999991962012418004+65783+024583FM-12+001599999V0203501N00211007801CN0100001N9-01111-01221100631ADDAA199000391AY171999GF108991081051008001999999KA1999M-01111MD1210101+9999MW1711
0057028640999991962012421004+65783+024583FM-12+001599999V0203501N00261007801CN0100001N9-01111-01221100811ADDAY171999GF108991081051008001999999MD1210181+9999MW1711
0057028640999991962012503004+65783+024583FM-12+001599999V0203601N00151007801CN0100001N9-01001-01111100951ADDAY171999GF108991081051008001999999MD1210061+9999MW1711
0081028640999991962012506004+65783+024583FM-12+001599999V0203601N00151007801CN0100001N9-01001-01111101081ADDAA199000391AY171999GF108991081051008001999999KA1999N-01111MD1210131+9999MW1711
0057028640999991962012509004+65783+024583FM-12+001599999V0203601N00151007801CN0080001N9-01001-01111101201ADDAY171999GF108991061051008001021999MD1210121+9999MW1711
0057028640999991962012512004+65783+024583FM-12+001599999V0203401N00151021001CN0150001N9-01001-01111101291ADDAY171999GF107991071001022501071999MD1210091+9999MW1711
0057028640999991962012515004+65783+024583FM-12+001599999V0203501N00151021001CN0040001N9-01001-01111101411ADDAY171999GF108991081001022501071999MD1210121+9999MW1731
0081028640999991962012518004+65783+024583FM-12+001599999V0200101N00211021001CN0050001N9-01111-01221101451ADDAA199001091AY171999GF107991071001022501071999KA1999M-01001MD1210041+9999MW1711
0057028640999991962012600004+65783+024583FM-12+001599999V0200101N00361021001CN0060001N9-01221-01391101621ADDAY171999GF107991071001022501071999MD1210091+9999MW1711
0057028640999991962012603004+65783+024583FM-12+001599999V0200101N00411021001CN0200001N9-01281-01611101721ADDAY171999GF107991071001022501071999MD1210101+9999MW1021
0081028640999991962012606004+65783+024583FM-12+001599999V0203601N00411021001CN0250001N9-01501-01611101751ADDAA199000391AY121999GF106991061001022501041999KA1999N-01611MD1210031+9999MW1011
0057028640999991962012609004+65783+024583FM-12+001599999V0200101N00461021001CN0400001N9-01281-01611101801ADDAY121999GF107991071001022501071999MD1210051+9999MW1021
0057028640999991962012612004+65783+024583FM-12+001599999V0203401N00311030001CN0400001N9-01391-01611101751ADDAY121999GF107991021051012501071011MD1810051+9999MW1031
0057028640999991962012615004+65783+024583FM-12+001599999V0203601N00411030001CN0400001N9-01391-01611101711ADDAY121999GF107991011051008001071999MD1610041+9999MW1011
0070028640999991962012618004+65783+024583FM-12+001599999V0203601N00461030001CN0400001N9-01611-01781101651ADDAY121999GF106991011051004501071021KA1999M-01281MD1710061+9999MW1011
0057028640999991962012621004+65783+024583FM-12+001599999V0203501N00511220001CN0400001N9-01721-01891101631ADDAY111999GF103991021001022501041021MD1810021+9999MW1011
0057028640999991962012700004+65783+024583FM-12+001599999V0203601N00511220001CN0400001N9-01891-02111101611ADDAY111999GF104991001001999999001071MD1710021+9999MW1031
0092028640999991962012703004+65783+024583FM-12+001599999V0203601N00621075001CN0400001N9-01891-02111101601ADDAY121999GF107991031001022501031071MD1710011+9999MW1031EQDQ01+000042APCTENQ02+000012APC3  
0070028640999991962012706004+65783+024583FM-12+001599999V0203501N00511021001CN0400001N9-02001-02221101571ADDAY121999GF106991061001022501031999KA1999N-02281MD1810031+9999MW1021
0057028640999991962012709004+65783+024583FM-12+001599999V0203501N00461220001CN0300001N9-02111-02281101661ADDAY111999GF102991011001022501041011MD1210081+9999MW1011
0057028640999991962012715004+65783+024583FM-12+001599999V0203301N00771220001CN0200001N9-02001-02221101791ADDAY101999GF101991011001022501041001MD1210111+9999MW1021
0057028640999991962012721004+65783+024583FM-12+001599999V0209991C00001220001CN0500001N9-02111-02281102021ADDAY101999GF101991011001022501071001MD1210091+9999MW1011
0057028640999991962012803004+65783+024583FM-12+001599999V0200101N00151021001CN0040001N9-01721-01781102361ADDAY171999GF107991071001022501071999MD1210221+9999MW1711
0081028640999991962012806004+65783+024583FM-12+001599999V0203401N00411220001CN0400001N9-01721-01891102701ADDAA199001091AY171999GF101991011001022501041001KA1999N-02221MD1210331+9999MW1011
0057028640999991962012812004+65783+024583FM-12+001599999V0203401N00311220001CN0400001N9-01781-02001103211ADDAY101999GF102991011051012501041001MD1210251+9999MW1021
0057028640999991962012815004+65783+024583FM-12+001599999V0203601N00101220001CN0400001N9-02281-02501103421ADDAY101999GF101991011001022501041001MD1210211+9999MW1021
0070028640999991962012818004+65783+024583FM-12+001599999V0209991C00001220001CN0300001N9-02781-03111103591ADDAY101999GF100991001001999999001001KA1999M-01721MD1210171+9999MW1021
0057028640999991962012821004+65783+024583FM-12+001599999V0209991C00001220001CN0400001N9-03111-03391103691ADDAY101999GF100991001001999999001001MD1210101+9999MW1021
0057028640999991962012900004+65783+024583FM-12+001599999V0209991C00001220001CN0004001N9-02781-02891103711ADDAY141999GF100991001001999999001001MD1210021+9999MW1461
0057028640999991962012903004+65783+024583FM-12+001599999V0209991C00001000151CN0002001N9-02281-02611103771ADDAY141999GF109991091999000251999999MD1210061+9999MW1471
0070028640999991962012906004+65783+024583FM-12+001599999V0201001N00151000151CN0010001N9-02001-02221103681ADDAY141999GF108991081061000251999999KA1999N-03111MD1810091+9999MW1101
0057028640999991962012909004+65783+024583FM-12+001599999V0201501N00311030001CN0045001N9-02001-02221103601ADDAY121999GF107991011071001501041071MD1710081+9999MW1011
0089028640999991962012918004+65783+024583FM-12+001599999V0201901N00821021001CN0100001N9-00891-01111102891ADDAY121999GF107991071001022501041001KA1999M+99999MD1710301+9999MW1361EQDQ01 -01892ATMX  
0057028640999991962012921004+65783+024583FM-12+001599999V0201901N00931021001CN0070001N9-00721-00891102591ADDAY111999GF107991071001022501041001MD1710401+9999MW1361
0057028640999991962013000004+65783+024583FM-12+001599999V0202101N00871021001CN0080001N9-00611-00721102231ADDAY121999GF107991071001022501041001MD1710261+9999MW1361
0057028640999991962013003004+65783+024583FM-12+001599999V0202101N00821030001CN0080001N9-00391-00611101971ADDAY171999GF107991041051002501041001MD1710261+9999MW1361
0081028640999991962013006004+65783+024583FM-12+001599999V0202001N00621021001CN0100001N9-00391-00721101871ADDAA199000391AY121999GF107991071001022501041001KA1999N-00891MD1710101+9999MW1021
0057028640999991962013009004+65783+024583FM-12+001599999V0201801N00621030001CN0400001N9-00281-00391101891ADDAY121999GF107991031051004501071999MD1110021+9999MW1031
0057028640999991962013012004+65783+024583FM-12+001599999V0201901N00511030001CN0500001N9-00281-00391101891ADDAY121999GF107991021071001501071011MD1010001+9999MW1021
0057028640999991962013015004+65783+024583FM-12+001599999V0201901N00621030001CN0250001N9-00281-00281101831ADDAY121999GF108991041071001501071999MD1710061+9999MW1031
0081028640999991962013018004+65783+024583FM-12+001599999V0201901N00821002401CN0070001N9-00281-00391101671ADDAA199000691AY121999GF108991081071002501999999KA1999M-00221MD1710161+9999MW1761
0057028640999991962013021004+65783+024583FM-12+001599999V0202001N00721021001CN0200001N9-00391-00611101641ADDAY121999GF107991071001022501071999MD1510031+9999MW1011
0057028640999991962013100004+65783+024583FM-12+001599999V0201901N00361220001CN0200001N9-00501-00611101521ADDAY111999GF100991001001999999001001MD1610021+9999MW1011
0057028640999991962013103004+65783+024583FM-12+001599999V0202001N00511220001CN0200001N9-00501-00611101541ADDAY101999GF102991021001022501041001MD1710081+9999MW1031
0081028640999991962013106004+65783+024583FM-12+001599999V0201801N00871002401CN0020001N9-00221-00281101211ADDAA199000691AY111999GF108991081071002501999999KA1999N-00611MD1710321+9999MW1721
0057028640999991962013109004+65783+024583FM-12+001599999V0201801N01231000151CN0015001N9-00221-00221100701ADDAY171999GF109991091999000251999999MD1710511+9999MW1751
0057028640999991962013115004+65783+024583FM-12+001599999V0201801N01231000151CN0004001N9-00221-00221999999ADDAY171999GF109991091999000251999999MD1710331+9999MW1751
0081028640999991962013118004+65783+024583FM-12+001599999V0201901N01031002401CN0040001N9-00111-00221099911ADDAA199001091AY171999GF108991081071002501999999KA1999M-00111MD1710091+9999MW1711
0057028640999991962013121004+65783+024583FM-12+001599999V0201801N01031002401CN0040001N9-00111-00221099871ADDAY171999GF108991081071002501999999MD1710041+9999MW1711
0092028640999991962020100004+65783+024583FM-12+001599999V0201801N01231002401CN0035001N9-00111-00111099861ADDAY171999GF108991081071002501999999MD1710011+9999MW1361EQDQ01+000042APCTENQ02+000012APC3  
0057028640999991962020103004+65783+024583FM-12+001599999V0201701N01231002401CN0040001N9-00111-00221099551ADDAY171999GF108991081071002501999999MD1710311+9999MW1361
0081028640999991962020106004+65783+024583FM-12+001599999V0201901N01031002401CN0040001N9-00111-00111099411ADDAA199000391AY151999GF108991081071002501999999KA1999N-00221MD1710141+9999MW1681
0057028640999991962020109004+65783+024583FM-12+001599999V0201901N00931002401CN0015001N9-00111-00111099441ADDAY171999GF108991081071002501999999MD1110031+9999MW1731
0057028640999991962020112004+65783+024583FM-12+001599999V0201901N01031001501CN0006001N9-00111-00111099481ADDAY171999GF108991081071001501999999MD1210041+9999MW1751
0057028640999991962020115004+65783+024583FM-12+001599999V0201901N01031000151CN0010001N9-00111-00111099551ADDAY171999GF109991091999000251999999MD1210071+9999MW1731
0081028640999991962020118004+65783+024583FM-12+001599999V0201901N00931002401CN0025001N9-00111-00111099681ADDAA199001091AY171999GF108991081071002501999999KA1999M+00001MD1210131+9999MW1731
0057028640999991962020121004+65783+024583FM-12+001599999V0201901N01031002401CN0050001N9+00001-00111099781ADDAY171999GF108991081071002501999999MD1210101+9999MW1361
0057028640999991962020200004+65783+024583FM-12+001599999V0201901N00871004501CN0045001N9+00001-00111099911ADDAY171999GF108991081071004501999999MD1210131+9999MW1771
0057028640999991962020203004+65783+024583FM-12+001599999V0201901N00721004501CN0100001N9+00001-00111099961ADDAY121999GF108991071071004501999999MD1310051+9999MW1011
0081028640999991962020206004+65783+024583FM-12+001599999V0201901N00511002401CN0200001N9-00111-00221100091ADDAA199000691AY171999GF108991081071002501999999KA1999N-00111MD1210131+9999MW1031
0057028640999991962020209004+65783+024583FM-12+001599999V0202101N00461002401CN0200001N9-00111-00281100271ADDAY121999GF108991081071002501999999MD1210181+9999MW1021
0057028640999991962020212004+65783+024583FM-12+001599999V0201801N00311002401CN0300001N9-00221-00281100461ADDAY121999GF107991071051002501999999MD1210191+9999MW1011
0057028640999991962020215004+65783+024583FM-12+001599999V0201501N00261220001CN0080001N9-00501-00501100631ADDAY121999GF102991011051002501041001MD1210171+9999MW1011
0070028640999991962020218004+65783+024583FM-12+001599999V0201501N00101220001CN0001001N9-01001-01111100811ADDAY141999GF100991001001999999001001KA1999M+00001MD1210171+9999MW1421
0057028640999991962020221004+65783+024583FM-12+001599999V0209991C00001000151CN0001001N9-00891-01001100901ADDAY141999GF109991091999000251999999MD1210091+9999MW1451
0057028640999991962020300004+65783+024583FM-12+001599999V0209991C00001220001CN0015001N9-01501-01611100901ADDAY141999GF100991001001999999001001MD1410001+9999MW1101
0057028640999991962020303004+65783+024583FM-12+001599999V0209991C00001000151CN0002001N9-01501-01611100881ADDAY141999GF109991091999000251999999MD1710021+9999MW1451
0070028640999991962020306004+65783+024583FM-12+001599999V0209991C00001000151CN0003001N9-01611-01721100841ADDAY141999GF109991091999000251999999KA1999N-01611MD1710041+9999MW1491
0057028640999991962020309004+65783+024583FM-12+001599999V0209991C00001001501CN0025001N9-01281-01391100731ADDAY141999GF107991061071001501071999MD1710111+9999MW1101
0057028640999991962020312004+65783+024583FM-12+001599999V0201401N00511001501CN0150001N9-00391-01501100571ADDAY121999GF107991061071001501071999MD1710161+9999MW1031
0057028640999991962020315004+65783+024583FM-12+001599999V0201401N00511002401CN0200001N9-00391-00501100471ADDAY121999GF107991071051002501999999MD1710101+9999MW1031
0070028640999991962020318004+65783+024583FM-12+001599999V0201401N00571004501CN0300001N9-00281-00501100351ADDAY121999GF108991081051004501999999KA1999M-00281MD1710121+9999MW1021
0057028640999991962020321004+65783+024583FM-12+001599999V0201401N00671004501CN0300001N9-00391-00501100221ADDAY171999GF108991081051004501999999MD1710131+9999MW1021
0057028640999991962020400004+65783+024583FM-12+001599999V0201401N00771004501CN0300001N9-00281-00391100131ADDAY121999GF108991081051004501999999MD1710091+9999MW1021
0057028640999991962020403004+65783+024583FM-12+001599999V0201401N00721002401CN0250001N9-00281-00391100061ADDAY121999GF108991081051002501999999MD1710071+9999MW1021
0070028640999991962020406004+65783+024583FM-12+001599999V0201401N00571002401CN0250001N9-00281-00501100041ADDAY121999GF108991081051002501999999KA1999N-00391MD1610021+9999MW1021
0057028640999991962020409004+65783+024583FM-12+001599999V0201401N00511002401CN0045001N9-00281-00391099931ADDAY171999GF108991081071002501999999MD1710111+9999MW1761
0057028640999991962020412004+65783+024583FM-12+001599999V0201401N00511002401CN0045001N9-00281-00391099721ADDAY171999GF108991081071002501999999MD1710111+9999MW1761
0057028640999991962020415004+65783+024583FM-12+001599999V0201301N00721002401CN0020001N9-00221-00221099571ADDAY171999GF108991081071002501999999MD1710151+9999MW1731
0081028640999991962020418004+65783+024583FM-12+001599999V0201201N00621001501CN0035001N9-00221-00221099391ADDAA199002091AY171999GF108991081071001501999999KA1999M-00221MD1710181+9999MW1731
0057028640999991962020421004+65783+024583FM-12+001599999V0201101N00671000151CN0015001N9-00221-00221099271ADDAY171999GF109991091999000251999999MD1710121+9999MW1731
0057028640999991962020500004+65783+024583FM-12+001599999V0200901N00621004501CN0050001N9-00221-00281099211ADDAY171999GF108991081071004501999999MD1710061+9999MW1711
0057028640999991962020503004+65783+024583FM-12+001599999V0200901N00311001501CN0030001N9-00281-00281099151ADDAY171999GF108991081071001501999999MD1710061+9999MW1731
0081028640999991962020506004+65783+024583FM-12+001599999V0200901N00261004501CN0035001N9-00281-00281099141ADDAA199003091AY171999GF108991081051004501999999KA1999N-00281MD1710011+9999MW1721
0057028640999991962020509004+65783+024583FM-12+001599999V0209991C00001030001CN0025001N9-00391-00391099191ADDAY171999GF107991041051004501071999MD1310051+9999MW1731
0057028640999991962020512004+65783+024583FM-12+001599999V0209991C00001004501CN0030001N9-00391-00391099341ADDAY171999GF108991051051004501021999MD1210151+9999MW1731
0057028640999991962020515004+65783+024583FM-12+001599999V0209991C00001030001CN0045001N9-00391-00391099481ADDAY171999GF108991041051004501021999MD1210141+9999MW1021
0081028640999991962020518004+65783+024583FM-12+001599999V0202101N00411000151CN0008001N9-00391-00391099721ADDAA199001091AY121999GF109991091999000251999999KA1999M-00281MD1210241+9999MW1471
0057028640999991962020521004+65783+024583FM-12+001599999V0201801N00151000601CN0040001N9-00501-00501099911ADDAY141999GF108991081071000751999999MD1210191+9999MW1021
0057028640999991962020600004+65783+024583FM-12+001599999V0201301N00311001501CN0040001N9-00391-00391099991ADDAY121999GF108991081071001501999999MD1210091+9999MW1011
0057028640999991962020603004+65783+024583FM-12+001599999V0201301N00511002401CN0050001N9-00221-00281100031ADDAY121999GF108991081071002501999999MD1210041+9999MW1011
0070028640999991962020606004+65783+024583FM-12+001599999V0201501N00311002401CN0100001N9-00391-00501100121ADDAY121999GF107991061071002501071999KA1999N-00501MD1210091+9999MW1011
0057028640999991962020609004+65783+024583FM-12+001599999V0201701N00151002401CN0100001N9-00391-00391100211ADDAY121999GF108991081071002501999999MD1210091+9999MW1711
0057028640999991962020612004+65783+024583FM-12+001599999V0201701N00671001501CN0020001N9+00001+00001100191ADDAY121999GF108991081071001501999999MD1810021+9999MW1731
0057028640999991962020615004+65783+024583FM-12+001599999V0201601N00771001501CN0020001N9-00111-00111100151ADDAY171999GF108991081071001501999999MD1710041+9999MW1731
0081028640999991962020618004+65783+024583FM-12+001599999V0201701N00211000151CN0015001N9+00001-00391100131ADDAA199002091AY171999GF109991091999000251999999KA1999M+00001MD1510021+9999MW1731
0057028640999991962020621004+65783+024583FM-12+001599999V0202001N00411004501CN0300001N9-00391-00501100191ADDAY121999GF107991071051004501999999MD1210061+9999MW1011
0057028640999991962020700004+65783+024583FM-12+001599999V0201501N00411220001CN0300001N9-00781-00891100221ADDAY171999GF100991001001999999001001MD1010021+9999MW1111
0092028640999991962020703004+65783+024583FM-12+001599999V0201401N00361004501CN0400001N9-00391-00501100211ADDAY121999GF107991071051004501999999MD1710011+9999MW1031EQDQ01+000022APCTENQ02+000002APC3  
0081028640999991962020706004+65783+024583FM-12+001599999V0201401N00821000151CN0012001N9-00281-00281100061ADDAA199000591AY171999GF109991091999000251999999KA1999N-00891MD1710151+9999MW1731
0057028640999991962020709004+65783+024583FM-12+001599999V0201301N00871000151CN0005001N9-00281-00281099931ADDAY171999GF109991091999000251999999MD1710131+9999MW1751
0057028640999991962020712004+65783+024583FM-12+001599999V0201301N00821000151CN0012001N9-00281-00281099681ADDAY171999GF109991091999000251999999MD1710251+9999MW1731
0057028640999991962020715004+65783+024583FM-12+001599999V0201301N00871000151CN0012001N9-00221-00221099471ADDAY171999GF109991091999000251999999MD1710211+9999MW1731
0081028640999991962020718004+65783+024583FM-12+001599999V0201501N00671000601CN0050001N9-00111-00111099381ADDAA199002091AY171999GF108991081071000751999999KA1999M-00111MD1710091+9999MW1791
0057028640999991962020721004+65783+024583FM-12+001599999V0201501N00621001501CN0020001N9+00001+00001099331ADDAY171999GF108991081071001501999999MD1710051+9999MW1731
0057028640999991962020800004+65783+024583FM-12+001599999V0201601N00621000151CN0008001N9+00111+00001099161ADDAY171999GF108991081061000251999999MD1710171+9999MW1511
0057028640999991962020803004+65783+024583FM-12+001599999V0201801N00511000601CN0010001N9+00001+00001099091ADDAY161999GF108991081061000751999999MD1710071+9999MW1511
0081028640999991962020806004+65783+024583FM-12+001599999V0201801N00511000151CN0010001N9+00111+00111099031ADDAA199006091AY151999GF109991091999000251999999KA1999N-00111MD1710061+9999MW1691
0057028640999991962020809004+65783+024583FM-12+001599999V0201701N00511000151CN0010001N9+00001+00001098961ADDAY171999GF109991091999000251999999MD1710071+9999MW1691
0057028640999991962020812004+65783+024583FM-12+001599999V0201801N00411000601CN0012001N9+00001+00001098881ADDAY171999GF108991081071000751999999MD1710081+9999MW1691
0057028640999991962020815004+65783+024583FM-12+001599999V0202901N00361001501CN0050001N9-00221-00281099011ADDAY171999GF108991081071001501999999MD1210131+9999MW1711
0081028640999991962020818004+65783+024583FM-12+001599999V0202801N00311021001CN0200001N9-00501-00611099281ADDAA199005091AY171999GF107991071001022501041999KA1999M+00111MD1210271+9999MW1021
0057028640999991962020821004+65783+024583FM-12+001599999V0202601N00151021001CN0300001N9-00611-00721099481ADDAY121999GF105991051001022501041999MD1210201+9999MW1021
0057028640999991962020900004+65783+024583FM-12+001599999V0202201N00151021001CN0300001N9-01001-01111099721ADDAY121999GF105991051001022501041999MD1210231+9999MW1021
0076028640999991962020903004+65783+024583FM-12+001599999V0201801N00101220001CN0300001N9-00891-01001099951ADDAY111999GF102991999001017501011001MD1210231+9999MW1011EQDQ01+000012SCOTLC
0070028640999991962020906004+65783+024583FM-12+001599999V0201701N00151220001CN0300001N9-01391-01611100121ADDAY101999GF101991011001022501041001KA1999N-01501MD1210201+9999MW1011
0057028640999991962020909004+65783+024583FM-12+001599999V0201701N00101220001CN0300001N9-01281-01391100411ADDAY101999GF102991011001022501041011MD1210291+9999MW1031
0057028640999991962020912004+65783+024583FM-12+001599999V0201801N00211021001CN0400001N9-01001-01111100511ADDAY111999GF107991071001022501071999MD1210101+9999MW1031
0057028640999991962020915004+65783+024583FM-12+001599999V0201801N00411021001CN0300001N9-00501-00611100411ADDAY121999GF107991061001022501071071MD1210101+9999MW1011
0070028640999991962020918004+65783+024583FM-12+001599999V0201701N00671021001CN0300001N9-00281-00281100161ADDAY121999GF107991071001022501021999KA1999M-00221MD1710251+9999MW1031
0057028640999991962020921004+65783+024583FM-12+001599999V0201801N00871000151CN0010001N9-00111-00111099711ADDAY121999GF109991091999000251999999MD1710451+9999MW1731
0057028640999991962021000004+65783+024583FM-12+001599999V0201801N00821004501CN0200001N9-00111-00111099441ADDAY121999GF106991061051004501999999MD1710271+9999MW1011
0057028640999991962021003004+65783+024583FM-12+001599999V0201901N00771004501CN0300001N9+00001-00111099161ADDAY171999GF107991071051004501999999MD1610281+9999MW1031
0081028640999991962021006004+65783+024583FM-12+001599999V0202101N00621075001CN0300001N9+00281+00001099251ADDAA199000591AY121999GF107991021001022501041071KA1999N-00281MD1210091+9999MW1011
0057028640999991962021009004+65783+024583FM-12+001599999V0202101N00771030001CN0300001N9+00221+00001099451ADDAY121999GF107991011051004501041071MD1210201+9999MW1011
0057028640999991962021012004+65783+024583FM-12+001599999V0202101N00821030001CN0400001N9+00221-00111099481ADDAY121999GF107991011051004501041071MD1010031+9999MW1031
0057028640999991962021015004+65783+024583FM-12+001599999V0202001N00411075001CN0500001N9+00001-00221099391ADDAY121999GF107991031001022501071071MD1710091+9999MW1031
0081028640999991962021018004+65783+024583FM-12+001599999V0201801N00511001501CN0030001N9+00001+00001099081ADDAA199000691AY121999GF108991071071001501071999KA1999M+00281MD1710311+9999MW1681
0057028640999991962021021004+65783+024583FM-12+001599999V0202701N00311001501CN0035001N9+00111+00001098861ADDAY171999GF108991061071001501071999MD1710221+9999MW1871
0057028640999991962021100004+65783+024583FM-12+001599999V0202401N00411220001CN0400001N9-00391-00501099331ADDAY101999GF100991001001999999001001MD1210471+9999MW1011
0057028640999991962021103004+65783+024583FM-12+001599999V0202401N00311220001CN0400001N9-00611-00721099331ADDAY101999GF100991001001999999001001MD1410001+9999MW1021
0081028640999991962021106004+65783+024583FM-12+001599999V0201801N00411220001CN0400001N9-00721-00781099331ADDAA199003091AY101999GF103991031001022501041001KA1999N-01001MD1410001+9999MW1031
0057028640999991962021109004+65783+024583FM-12+001599999V0201601N00361220001CN0300001N9-00721-00891099361ADDAY101999GF102991011051004501041001MD1310031+9999MW1021
0057028640999991962021112004+65783+024583FM-12+001599999V0201901N00261220001CN0400001N9-00611-00781099361ADDAY101999GF102991011001022501041021MD1010001+9999MW1021
0057028640999991962021115004+65783+024583FM-12+001599999V0209991C00001220001CN0400001N9-00781-00891099241ADDAY101999GF102991011001022501041011MD1710121+9999MW1011
0070028640999991962021118004+65783+024583FM-12+001599999V0201401N00261075001CN0200001N9-01221-01281099141ADDAY101999GF106991011051004501001071KA1999M-00501MD1610111+9999MW1031
0057028640999991962021121004+65783+024583FM-12+001599999V0201401N00261220001CN0400001N9-01501-01611098971ADDAY121999GF102991001001999999001011MD1710171+9999MW1011
0057028640999991962021200004+65783+024583FM-12+001599999V0201201N00211000151CN0011001N9-01221-01391098741ADDAY121999GF108991081061000251999999MD1710231+9999MW1101
0057028640999991962021203004+65783+024583FM-12+001599999V0201301N00151000601CN0030001N9-01001-01001098491ADDAY121999GF108991081061000751999999MD1710251+9999MW1101
0070028640999991962021206004+65783+024583FM-12+001599999V0201301N00311002401CN0200001N9-00721-00781098251ADDAY121999GF108991081071002501999999KA1999N-01611MD1710231+9999MW1021
0057028640999991962021209004+65783+024583FM-12+001599999V0201401N00621000601CN0100001N9-00501-00611098091ADDAY121999GF108991081071000751999999MD1710161+9999MW1021
0057028640999991962021212004+65783+024583FM-12+001599999V0201401N00621002401CN0300001N9-00501-00501097981ADDAY121999GF107991071051002501999999MD1710111+9999MW1011
0057028640999991962021215004+65783+024583FM-12+001599999V0200801N00261004501CN0300001N9-00501-00611097821ADDAY121999GF107991071051004501999999MD1710161+9999MW1021
0081028640999991962021218004+65783+024583FM-12+001599999V0200501N00361030001CN0300001N9-00501-00611097671ADDAA199000691AY121999GF107991031051004501071999KA1999M-00391MD1710151+9999MW1011
0057028640999991962021221004+65783+024583FM-12+001599999V0200301N00361000151CN0025001N9-00501-00501097461ADDAY171999GF109991091999000251999999MD1710211+9999MW1731
0057028640999991962021300004+65783+024583FM-12+001599999V0200201N00621000151CN0020001N9-00391-00501097321ADDAY171999GF109991091999000251999999MD1710141+9999MW1731
0057028640999991962021303004+65783+024583FM-12+001599999V0200201N00671000151CN0015001N9-00391-00501097161ADDAY171999GF109991091999000251999999MD1710301+9999MW1751
0081028640999991962021306004+65783+024583FM-12+001599999V0200201N00771004501CN0050001N9-00391-00501097191ADDAA199003091AY171999GF108991051051004501021999KA1999N-00501MD1310031+9999MW1711
0057028640999991962021309004+65783+024583FM-12+001599999V0200201N00671002401CN0036001N9-00391-00501097281ADDAY171999GF108991061051002501021999MD1210091+9999MW1731
0057028640999991962021312004+65783+024583FM-12+001599999V0200201N00721004501CN0020001N9-00391-00501097411ADDAY171999GF108991061071004501021999MD1210131+9999MW1751
0081028640999991962021318004+65783+024583FM-12+001599999V0203601N00871021001CN0035001N9-00501-00721097861ADDAA199001091AY171999GF108991081001022501021999KA1999M-00391MD1210291+9999MW1711
0057028640999991962021321004+65783+024583FM-12+001599999V0203501N00871004501CN0150001N9-00611-00781098151ADDAY171999GF107991071051004501999999MD1210291+9999MW1221
0057028640999991962021403004+65783+024583FM-12+001599999V0203401N00771004501CN0150001N9-00721-00891098581ADDAY121999GF106991061051004501001001MD1210191+9999MW1701
0081028640999991962021406004+65783+024583FM-12+001599999V0203301N00671030001CN0200001N9-00721-01111098911ADDAA199000391AY171999GF107991021051004501071999KA1999N-00781MD1210331+9999MW1031
0057028640999991962021409004+65783+024583FM-12+001599999V0203301N00721075001CN0500001N9-00781-01221099241ADDAY121999GF107991031001022501071071MD1210331+9999MW1021
0057028640999991962021412004+65783+024583FM-12+001599999V0203301N00721220001CN0500001N9-00781-01281099571ADDAY121999GF103991021001022501041011MD1210321+9999MW1011
0057028640999991962021415004+65783+024583FM-12+001599999V0203301N00721220001CN0400001N9-01001-01391099931ADDAY111999GF104991031001022501041021MD1210361+9999MW1031
0070028640999991962021418004+65783+024583FM-12+001599999V0203101N00511220001CN0500001N9-01221-01611100201ADDAY111999GF100991001001999999001001KA1999M-00721MD1210271+9999MW1011
0057028640999991962021421004+65783+024583FM-12+001599999V0203101N00261220001CN0500001N9-01391-01781100521ADDAY101999GF100991001001999999001001MD1210321+9999MW1021
0057028640999991962021500004+65783+024583FM-12+001599999V0200101N00151220001CN0500001N9-01781-02001100701ADDAY101999GF100991001001999999001001MD1210181+9999MW1021
0057028640999991962021503004+65783+024583FM-12+001599999V0203301N00101220001CN0500001N9-02111-02221100831ADDAY101999GF100991001001999999001001MD1110131+9999MW1021
0089028640999991962021506004+65783+024583FM-12+001599999V0203601N00101220001CN0500001N9-02501-02721100981ADDAY101999GF100991001001999999001001KA1999N+99999MD1210141+9999MW1021EQDQ01 -02112ATMN  
0057028640999991962021509004+65783+024583FM-12+001599999V0209991C00001220001CN0400001N9-02281-02501101031ADDAY101999GF101991011001022501041001MD1210051+9999MW1021
0057028640999991962021515004+65783+024583FM-12+001599999V0209991C00001220001CN0200001N9-02001-02221100821ADDAY101999GF100991001001999999001001MD1710121+9999MW1041
0070028640999991962021518004+65783+024583FM-12+001599999V0200601N00151220001CN0200001N9-02721-02891100591ADDAY101999GF100991001001999999001001KA1999M-01391MD1710231+9999MW1041
0057028640999991962021521004+65783+024583FM-12+001599999V0201001N00211220001CN0150001N9-02281-02501100271ADDAY101999GF103991031071001501001001MD1210321+9999MW1031
0057028640999991962021600004+65783+024583FM-12+001599999V0200901N00411000601CN0020001N9-01781-02001099831ADDAY111999GF107991071071000751999999MD1710441+9999MW1101
0057028640999991962021603004+65783+024583FM-12+001599999V0200901N00311030001CN0060001N9-01891-02111099361ADDAY111999GF106991021071001501041051MD1710471+9999MW1031
0070028640999991962021606004+65783+024583FM-12+001599999V0200901N00511021001CN0200001N9-01721-01891098841ADDAY121999GF107991061001022501071071KA1999N-02781MD1710521+9999MW1011
0057028640999991962021609004+65783+024583FM-12+001599999V0201001N01031030001CN0250001N9-01391-01781098391ADDAY121999GF107991021051008001021999MD1710451+9999MW1361
0057028640999991962021612004+65783+024583FM-12+001599999V0200901N00981021001CN0150001N9-01221-01781098051ADDAY131999GF108991081001022501021999MD1710331+9999MW1711
0057028640999991962021615004+65783+024583FM-12+001599999V0200801N01031021001CN0200001N9-01111-01721097941ADDAY171999GF108991081001022501021999MD1710111+9999MW1361
0081028640999991962021618004+65783+024583FM-12+001599999V0200801N00981021001CN0250001N9-01281-01781098031ADDAA199000591AY171999GF108991081001022501021999KA1999M-01111MD1210091+9999MW1021
0057028640999991962021621004+65783+024583FM-12+001599999V0200601N00771075001CN0500001N9-01281-01721098291ADDAY121999GF107991021001022501071071MD1210261+9999MW1011
0057028640999991962021700004+65783+024583FM-12+001599999V0200501N00621220001CN0500001N9-01221-01611098521ADDAY121999GF107991001001999999001071MD1210221+9999MW1021
0057028640999991962021703004+65783+024583FM-12+001599999V0200201N00571021001CN0500001N9-01281-01611098811ADDAY121999GF108991081001022501021999MD1210291+9999MW1021
0070028640999991962021706004+65783+024583FM-12+001599999V0200201N00621021001CN0500001N9-01391-01721099201ADDAY121999GF108991081001022501021999KA1999N-01501MD1210391+9999MW1021
0057028640999991962021709004+65783+024583FM-12+001599999V0203601N00571021001CN0500001N9-01281-01611099461ADDAY121999GF108991081001022501021999MD1210261+9999MW1021
0057028640999991962021712004+65783+024583FM-12+001599999V0200101N00671021001CN0400001N9-01221-01501099681ADDAY121999GF108991081001022501021999MD1210221+9999MW1021
0057028640999991962021715004+65783+024583FM-12+001599999V0200101N00771021001CN0300001N9-01221-01611099931ADDAY121999GF108991081001022501021999MD1210251+9999MW1021
0070028640999991962021718004+65783+024583FM-12+001599999V0203601N00621021001CN0400001N9-01281-01501100181ADDAY121999GF108991081001022501021999KA1999M-01111MD1210251+9999MW1021
0057028640999991962021721004+65783+024583FM-12+001599999V0203601N00571021001CN0080001N9-01221-01281100331ADDAY171999GF108991081001022501021999MD1210151+9999MW1711
0057028640999991962021800004+65783+024583FM-12+001599999V0203601N00511021001CN0050001N9-01221-01391100441ADDAY171999GF108991081001022501021999MD1210111+9999MW1731
0081028640999991962021806004+65783+024583FM-12+001599999V0203301N00361030001CN0080001N9-01221-01391100681ADDAA199001091AY171999GF108991021051004501021999KA1999N-01281MD1210071+9999MW1711
0057028640999991962021809004+65783+024583FM-12+001599999V0203401N00361075001CN0200001N9-01281-01501100791ADDAY171999GF107991041001022501041071MD1210111+9999MW1221
0057028640999991962021812004+65783+024583FM-12+001599999V0203301N00311075001CN0400001N9-01221-01391100851ADDAY121999GF105991031001022501041051MD1210061+9999MW1011
0057028640999991962021815004+65783+024583FM-12+001599999V0203301N00101220001CN0400001N9-01281-01501100851ADDAY111999GF101991001001999999001011MD1410001+9999MW1011
0081028640999991962021818004+65783+024583FM-12+001599999V0203101N00101220001CN0400001N9-02111-02281100871ADDAA199000391AY111999GF100991001001999999001001KA1999M-01221MD1010011+9999MW1011
0057028640999991962021821004+65783+024583FM-12+001599999V0209991C00001220001CN0300001N9-02501-02721100881ADDAY101999GF100991001001999999001001MD1310011+9999MW1021
0057028640999991962021900004+65783+024583FM-12+001599999V0203401N00211220001CN0400001N9-02611-02891100891ADDAY101999GF100991001001999999001001MD1110011+9999MW1021
0057028640999991962021903004+65783+024583FM-12+001599999V0203601N00101220001CN0300001N9-02781-03111100911ADDAY101999GF100991001001999999001001MD1110021+9999MW1021
0070028640999991962021906004+65783+024583FM-12+001599999V0203601N00101220001CN0200001N9-02891-03111100961ADDAY101999GF100991001001999999001001KA1999N-03001MD1310051+9999MW1021
0057028640999991962021909004+65783+024583FM-12+001599999V0209991C00001220001CN0300001N9-02611-02891101031ADDAY101999GF101991001001999999001011MD1310071+9999MW1011
0057028640999991962021912004+65783+024583FM-12+001599999V0209991C00001220001CN0200001N9-02001-02111101071ADDAY101999GF102991011001022501041011MD1210051+9999MW1041
0057028640999991962021915004+65783+024583FM-12+001599999V0209991C00001030001CN0150001N9-02001-02281101011ADDAY111999GF107991011051004501041071MD1710061+9999MW1041
0070028640999991962021918004+65783+024583FM-12+001599999V0201001N00101000601CN0070001N9-02111-02281100851ADDAY111999GF108991081061000751999999KA1999M-01891MD1710161+9999MW1031
0057028640999991962021921004+65783+024583FM-12+001599999V0200701N00261001501CN0070001N9-01891-02111100721ADDAY121999GF108991081061001501999999MD1710131+9999MW1021
0057028640999991962022000004+65783+024583FM-12+001599999V0200701N00511021001CN0200001N9-01611-01781100421ADDAY121999GF107991071001022501071999MD1710301+9999MW1011
0057028640999991962022003004+65783+024583FM-12+001599999V0200601N00621021001CN0030001N9-01391-01611100311ADDAY121999GF108991081001022501021999MD1710111+9999MW1711
0081028640999991962022006004+65783+024583FM-12+001599999V0200401N00571021001CN0060001N9-01501-01721100291ADDAA199000591AY171999GF108991081001022501021999KA1999N-02221MD1710021+9999MW1711
0057028640999991962022009004+65783+024583FM-12+001599999V0200201N00621030001CN0100001N9-01281-01611100581ADDAY171999GF108991021051004501021999MD1310291+9999MW1711
0057028640999991962022015004+65783+024583FM-12+001599999V0203401N00571021001CN0400001N9-01281-01611101501ADDAY121999GF107991071001022501071999MD1210481+9999MW1021
0081028640999991962022018004+65783+024583FM-12+001599999V0203501N00311021001CN0050001N9-01281-01611101971ADDAA199000391AY121999GF107991071001022501021999KA1999M-01281MD1210471+9999MW1711
0057028640999991962022021004+65783+024583FM-12+001599999V0203401N00211030001CN0060001N9-01391-01611102291ADDAY171999GF107991021051008001021999MD1210321+9999MW1711
0057028640999991962022100004+65783+024583FM-12+001599999V0209991C00001220001CN0200001N9-01501-01721102581ADDAY171999GF103991031001022501041001MD1210291+9999MW1011
0057028640999991962022103004+65783+024583FM-12+001599999V0203401N00211220001CN0500001N9-01891-02111102951ADDAY111999GF102991021001022501041001MD1210371+9999MW1011
0081028640999991962022106004+65783+024583FM-12+001599999V0203501N00101001501CN0100001N9-01891-02111103311ADDAA199000391AY101999GF108991071071001501071999KA1999N-02281MD1210361+9999MW1031
0057028640999991962022109004+65783+024583FM-12+001599999V0209991C00001001501CN0050001N9-01281-01391103661ADDAY121999GF108991081071001501999999MD1210361+9999MW1771
0057028640999991962022112004+65783+024583FM-12+001599999V0203301N00211001501CN0100001N9-00781-00891103971ADDAY171999GF107991071071001501999999MD1210311+9999MW1021
0057028640999991962022115004+65783+024583FM-12+001599999V0200201N00151002401CN0200001N9-00891-01001104221ADDAY121999GF107991071071002501999999MD1210251+9999MW1021
0081028640999991962022118004+65783+024583FM-12+001599999V0209991C00001000151CN0005001N9-01111-01111104461ADDAA199000691AY141999GF109991091999000251999999KA1999M-00781MD1210241+9999MW1471
0057028640999991962022121004+65783+024583FM-12+001599999V0209991C00001000151CN0003001N9-01221-01281104611ADDAY141999GF109991091999000251999999MD1210141+9999MW1451
0057028640999991962022200004+65783+024583FM-12+001599999V0209991C00001000151CN0016001N9-01501-01611104671ADDAY141999GF108991081061000251999999MD1210061+9999MW1101
0076028640999991962022203004+65783+024583FM-12+001599999V0201201N00211000601CN0030001N9-01501-01611104671ADDAY141999GF107991071061000751999999MD1410001+9999MW1771EQDQ01+000022APCTEN
0081028640999991962022206004+65783+024583FM-12+001599999V0201301N00311220001CN0100001N9-01721-01781104631ADDAA199000691AY171999GF103991021001022501071011KA1999N-01721MD1510041+9999MW1011
0057028640999991962022212004+65783+024583FM-12+001599999V0201501N00721002401CN0080001N9-00781-00891104391ADDAY111999GF106991061071002501001001MD1510131+9999MW1361
0057028640999991962022215004+65783+024583FM-12+001599999V0201501N00671001501CN0035001N9-00781-00891104341ADDAY131999GF107991071071001501999999MD1710101+9999MW1101
0081028640999991962022218004+65783+024583FM-12+001599999V0201501N00621001501CN0060001N9-00611-00721104181ADDAA199000691AY171999GF108991081071001501999999KA1999M-00611MD1710111+9999MW1761
0057028640999991962022221004+65783+024583FM-12+001599999V0201401N00311220001CN0400001N9-00781-00891104061ADDAY171999GF100991001001999999001001MD1710121+9999MW1021
0057028640999991962022300004+65783+024583FM-12+001599999V0201401N00361220001CN0500001N9-00891-00891104021ADDAY101999GF100991001001999999001001MD1710041+9999MW1021
0057028640999991962022303004+65783+024583FM-12+001599999V0209991C00001220001CN0500001N9-01001-01111104031ADDAY101999GF102991011001022501041011MD1210021+9999MW1021
0081028640999991962022306004+65783+024583FM-12+001599999V0209991C00001075001CN0200001N9-01111-01111104151ADDAA199000691AY111999GF107991031001022501041071KA1999N-01111MD1310121+9999MW1021
0057028640999991962022309004+65783+024583FM-12+001599999V0200201N00211000151CN0003001N9-01111-01221104311ADDAY121999GF108991081071000251999999MD1210161+9999MW1441
0057028640999991962022312004+65783+024583FM-12+001599999V0203401N00211220001CN0100001N9-00781-00891104591ADDAY141999GF103991031001022501041041MD1210281+9999MW1011
0057028640999991962022315004+65783+024583FM-12+001599999V0203301N00211220001CN0300001N9-00611-00721104831ADDAY101999GF101991011001022501041001MD1210241+9999MW1011
0089028640999991962022318004+65783+024583FM-12+001599999V0203501N00311220001CN0400001N9-01221-01281095002ADDAY101999GF101991011001022501041001KA1999M-00611MD1210171+9999MW1021EQDQ01+095003APOSLP
0057028640999991962022321004+65783+024583FM-12+001599999V0203501N00311220001CN0400001N9-01391-01611095171ADDAY101999GF102991021001022501041001MD1210161+9999MW1031
0057028640999991962022400004+65783+024583FM-12+001599999V0203601N00211021001CN0400001N9-01281-01391095171ADDAY101999GF107991071001022501041999MD1010001+9999MW1031
0057028640999991962022403004+65783+024583FM-12+001599999V0203601N00211021001CN0400001N9-01281-01391095191ADDAY121999GF105991051001022501041001MD1510021+9999MW1011
0070028640999991962022406004+65783+024583FM-12+001599999V0209991C00001220001CN0300001N9-01781-01891095151ADDAY111999GF104991021001022501041021KA1999N-01891MD1810041+9999MW1031
0057028640999991962022409004+65783+024583FM-12+001599999V0209991C00001220001CN0300001N9-01391-01611095191ADDAY111999GF102991001001999999001011MD1010041+9999MW1021
0057028640999991962022412004+65783+024583FM-12+001599999V0209991C00001220001CN0400001N9-00611-00891095151ADDAY101999GF101991001001999999001011MD1510031+9999MW1021
0076028640999991962022415004+65783+024583FM-12+001599999V0209991C00001220001CN0250001N9-00891-01001104992ADDAY101999GF101991001001999999001011MD1710161+9999MW1041EQDQ01+104993APOSLP
0070028640999991962022418004+65783+024583FM-12+001599999V0201301N00101220001CN0200001N9-01281-01391104891ADDAY101999GF100991001001999999001001KA1999M-00611MD1710101+9999MW1041
0057028640999991962022421004+65783+024583FM-12+001599999V0209991C00001220001CN0200001N9-01391-01501104811ADDAY101999GF100991001001999999001001MD1710081+9999MW1021
0057028640999991962022500004+65783+024583FM-12+001599999V0201301N00311000151CN0015001N9-01281-01391104631ADDAY111999GF108991081061000251999999MD1710181+9999MW1101
0070028640999991962022506004+65783+024583FM-12+001599999V0201301N00361000151CN0020001N9-01221-01281104331ADDAY141999GF108991081061000251999999KA1999N-01501MD1710191+9999MW1101
0057028640999991962022509004+65783+024583FM-12+001599999V0201301N00311001501CN0080001N9-01221-01281104181ADDAY121999GF107991051061001501041999MD1710151+9999MW1021
0057028640999991962022512004+65783+024583FM-12+001599999V0201501N00511030001CN0200001N9-00891-01001104001ADDAY121999GF105991011061001501041001MD1710181+9999MW1031
0057028640999991962022515004+65783+024583FM-12+001599999V0201901N00411000151CN0020001N9-00721-00781103841ADDAY121999GF108991081061000251999999MD1510161+9999MW1761
0081028640999991962022518004+65783+024583FM-12+001599999V0201701N00261021001CN0200001N9-00781-00891103771ADDAA199000691AY171999GF106991061001022501071999KA1999M-00721MD1510071+9999MW1011
0092028640999991962022521004+65783+024583FM-12+001599999V0209991C000019999999N0200001N9-01001-01001103771ADDAY111999GF106991999001022501071999MD1410001+9999MW1031EQDQ01+000002SCOTLCQ02+000032APCTEN
0057028640999991962022600004+65783+024583FM-12+001599999V0200101N00151021001CN0300001N9-01001-01111103831ADDAY121999GF106991061001022501071999MD1010061+9999MW1011
0057028640999991962022603004+65783+024583FM-12+001599999V0203501N00101220001CN0400001N9-01111-01221103911ADDAY121999GF102991021001022501071001MD1210081+9999MW1011
0089028640999991962022606004+65783+024583FM-12+001599999V0203601N00151220001CN0500001N9-01501-01501103981ADDAY101999GF101991011001022501041001KA1999N+99999MD1210071+9999MW1021EQDQ01 -01112ATMN  
0057028640999991962022615004+65783+024583FM-12+001599999V0202601N00151075001CN0500001N9-00501-01001103861ADDAY101999GF105991011001022501041051MD1710061+9999MW1031
0070028640999991962022618004+65783+024583FM-12+001599999V0209991C00001220001CN0300001N9-01611-01721103751ADDAY101999GF101991001001999999001011KA1999M-00281MD1710111+9999MW1011
0057028640999991962022621004+65783+024583FM-12+001599999V0209991C00001220001CN0300001N9-01891-02111103681ADDAY101999GF100991001001999999001001MD1710071+9999MW1011
0057028640999991962022700004+65783+024583FM-12+001599999V0209991C00001220001CN0300001N9-02111-02281103611ADDAY101999GF100991001001999999001001MD1710071+9999MW1021
0057028640999991962022703004+65783+024583FM-12+001599999V0209991C00001030001CN0300001N9-02001-02221103431ADDAY101999GF107991031051004501071999MD1710181+9999MW1031
0070028640999991962022706004+65783+024583FM-12+001599999V0209991C00001030001CN0250001N9-01611-01721103261ADDAY111999GF105991011051004501041051KA1999N-02221MD1710171+9999MW1041
0057028640999991962022709004+65783+024583FM-12+001599999V0201501N00151030001CN0150001N9-01391-01501103071ADDAY111999GF107991021051004501071999MD1710191+9999MW1031
0057028640999991962022712004+65783+024583FM-12+001599999V0201801N00151030001CN0200001N9-01111-01281102751ADDAY111999GF107991031051004501071999MD1710321+9999MW1031
0057028640999991962022715004+65783+024583FM-12+001599999V0201901N00361004501CN0150001N9-00721-00891102291ADDAY121999GF108991061051004501021999MD1710461+9999MW1711
0081028640999991962022718004+65783+024583FM-12+001599999V0202201N00261030001CN0200001N9-00721-00781101921ADDAA199000691AY171999GF108991031051004501021999KA1999M-00611MD1710371+9999MW1701
0057028640999991962022721004+65783+024583FM-12+001599999V0202001N00101030001CN0040001N9-00611-00721101531ADDAY171999GF108991041051004501021999MD1710391+9999MW1731
0057028640999991962022800004+65783+024583FM-12+001599999V0200901N00211000151CN0030001N9-00611-00721101121ADDAY171999GF109991091999000251999999MD1710411+9999MW1731
0057028640999991962022803004+65783+024583FM-12+001599999V0203501N00151220001CN0300001N9-01111-01221100901ADDAY171999GF101991011001022501041001MD1710221+9999MW1221
0081028640999991962022806004+65783+024583FM-12+001599999V0209991C00001021001CN0300001N9-01111-01221100741ADDAA199002091AY171999GF107991071001022501071999KA1999N-01281MD1710161+9999MW1021
0057028640999991962022812004+65783+024583FM-12+001599999V0203501N00211024001CN0040001N9-00781-00891100901ADDAY171999GF107991061001999999021071MD1510151+9999MW1731
0057028640999991962022815004+65783+024583FM-12+001599999V0203301N00411004501CN0100001N9-00781-01111100951ADDAY171999GF106991061051004501001001MD1310051+9999MW1711
0081028640999991962022818004+65783+024583FM-12+001599999V0203201N00261220001CN0400001N9-01221-01391101061ADDAA199000391AY171999GF101991011001022501041001KA1999M-00721MD1210111+9999MW1021
0057028640999991962022821004+65783+024583FM-12+001599999V0203601N00101220001CN0400001N9-01721-01891101051ADDAY101999GF101991001001999999001071MD1810011+9999MW1021
0057028640999991962030100004+65783+024583FM-12+001599999V0201401N00151220001CN0300001N9-02391-02611100951ADDAY101999GF100991001001999999001001MD1710111+9999MW1021
0057028640999991962030103004+65783+024583FM-12+001599999V0201501N00151220001CN0400001N9-02001-02221100651ADDAY101999GF100991001001999999001001MD1710291+9999MW1021
0070028640999991962030106004+65783+024583FM-12+001599999V0201401N00101075001CN0300001N9-01721-01891100401ADDAY101999GF105991031001022501041051KA1999N-02501MD1710251+9999MW1031
0057028640999991962030109004+65783+024583FM-12+001599999V0209991C00001220001CN0400001N9-01721-01781100461ADDAY111999GF102991011001022501041021MD1310061+9999MW1011
0057028640999991962030112004+65783+024583FM-12+001599999V0203301N00101220001CN0500001N9-01001-01501100571ADDAY101999GF102991011001022501041011MD1210111+9999MW1021
0057028640999991962030115004+65783+024583FM-12+001599999V0202901N00211220001CN0500001N9-01001-01611100641ADDAY101999GF103991011051004501041011MD1210071+9999MW1031
0070028640999991962030118004+65783+024583FM-12+001599999V0209991C00001220001CN0500001N9-02281-02501100691ADDAY101999GF101991011001022501041001KA1999M-00891MD1210041+9999MW1011
0057028640999991962030121004+65783+024583FM-12+001599999V0200101N00101220001CN0500001N9-02781-03001100771ADDAY101999GF100991001001999999001001MD1210081+9999MW1011
0057028640999991962030200004+65783+024583FM-12+001599999V0201601N00101220001CN0500001N9-02891-03221100901ADDAY101999GF100991001001999999001001MD1210131+9999MW1021
0057028640999991962030203004+65783+024583FM-12+001599999V0203501N00101220001CN0500001N9-02721-02891100971ADDAY101999GF101991011001022501041001MD1210071+9999MW1031
0070028640999991962030206004+65783+024583FM-12+001599999V0209991C00001220001CN0100001N9-02611-02781101101ADDAY101999GF105991011001022501041011KA1999N-03001MD1210131+9999MW1031
0057028640999991962030209004+65783+024583FM-12+001599999V0203401N00101220001CN0400001N9-02221-02501101271ADDAY111999GF103991011001022501041011MD1210171+9999MW1011
0057028640999991962030212004+65783+024583FM-12+001599999V0209991C00001220001CN0500001N9-01391-01781101341ADDAY101999GF101991001001999999001011MD1210081+9999MW1021
0057028640999991962030215004+65783+024583FM-12+001599999V0201701N00101220001CN0500001N9-01891-02111101321ADDAY101999GF101991001001999999001011MD1710021+9999MW1021
0070028640999991962030218004+65783+024583FM-12+001599999V0202101N00211220001CN0300001N9-01891-02221101251ADDAY101999GF104991021001022501041071KA1999M-01391MD1710071+9999MW1031
0057028640999991962030221004+65783+024583FM-12+001599999V0202301N00311015001CN0025001N9-01611-01721101141ADDAY111999GF108991081051017501999999MD1710111+9999MW1731
0092028640999991962030300004+65783+024583FM-12+001599999V0202001N00211004501CN0050001N9-01391-01611101151ADDAY171999GF108991061051004501071999MD1210011+9999MW1701EQDQ01+000042APCTENQ02+000012APC3  
0057028640999991962030303004+65783+024583FM-12+001599999V0203101N00101030001CN0050001N9-01221-01391101171ADDAY171999GF108991031051008001071999MD1210021+9999MW1711
0081028640999991962030306004+65783+024583FM-12+001599999V0209991C00001004501CN0100001N9-01391-01611101181ADDAA199000591AY171999GF107991051051004501071999KA1999N-02001MD1310021+9999MW1711
0057028640999991962030309004+65783+024583FM-12+001599999V0209991C00001220001CN0150001N9-01221-01611101191ADDAY171999GF102991011051004501041001MD1310011+9999MW1021
0057028640999991962030312004+65783+024583FM-12+001599999V0201801N00361220001CN0150001N9-01221-01501101121ADDAY171999GF101991011051008001001001MD1710071+9999MW1011
0057028640999991962030315004+65783+024583FM-12+001599999V0201501N00211220001CN0400001N9-01721-02001100961ADDAY101999GF101991011001022501041001MD1710161+9999MW1021
0070028640999991962030318004+65783+024583FM-12+001599999V0201501N00151220001CN0400001N9-02001-02221100811ADDAY101999GF101991011001022501041001KA1999M-01111MD1710151+9999MW1021
0057028640999991962030321004+65783+024583FM-12+001599999V0201601N00211220001CN0500001N9-01891-02111100651ADDAY101999GF101991011001022501071001MD1710161+9999MW1031
0057028640999991962030400004+65783+024583FM-12+001599999V0201801N00461220001CN0500001N9-01721-02001100561ADDAY101999GF101991011001022501041001MD1710091+9999MW1021
0057028640999991962030403004+65783+024583FM-12+001599999V0201501N00461220001CN0500001N9-01721-01891100431ADDAY101999GF101991011001022501041001MD1710131+9999MW1021
0070028640999991962030406004+65783+024583FM-12+001599999V0201601N00511220001CN0500001N9-01721-01891100341ADDAY101999GF106991011001022501041061KA1999N-02111MD1710091+9999MW1031
0057028640999991962030409004+65783+024583FM-12+001599999V0201601N00461220001CN0400001N9-01281-01611100271ADDAY121999GF107991001001999999001071MD1710071+9999MW1031
0057028640999991962030412004+65783+024583FM-12+001599999V0201801N00621030001CN0300001N9-01111-01281100171ADDAY121999GF107991011051004501021071MD1710101+9999MW1031
0057028640999991962030415004+65783+024583FM-12+001599999V0201601N00571030001CN0300001N9-01001-01111100081ADDAY121999GF107991011051004501021999MD1710091+9999MW1011
0081028640999991962030418004+65783+024583FM-12+001599999V0201601N00511001501CN0050001N9-00891-01001099961ADDAA199000691AY171999GF108991071071001501021999KA1999M-00891MD1710121+9999MW1771
0043028640999991962030421004+65783+024583FM-12+001599999V0201601N005719999999N0150001N9-00781-00891099901ADDAY171999GF108991031999999999999999MW1021
0057028640999991962030500004+65783+024583FM-12+001599999V0201801N00621220001CN0300001N9-00891-01111099911ADDAY121999GF103991031001022501071001MD1210011+9999MW1011
0057028640999991962030503004+65783+024583FM-12+001599999V0201801N00571220001CN0300001N9-01001-01221099911ADDAY101999GF100991001001999999001001MD1410001+9999MW1011
0081028640999991962030506004+65783+024583FM-12+001599999V0201901N00411030001CN0040001N9-01001-01221099931ADDAA199000691AY171999GF107991031051002501071999KA1999N-01111MD1310021+9999MW1721
0057028640999991962030509004+65783+024583FM-12+001599999V0201901N00211030001CN0050001N9-01001-01111100051ADDAY171999GF107991021051004501071999MD1210121+9999MW1711
0057028640999991962030512004+65783+024583FM-12+001599999V0201901N00211030001CN0200001N9-01001-01221100221ADDAY171999GF106991021051004501021071MD1210171+9999MW1221
0081028640999991962030518004+65783+024583FM-12+001599999V0209991C00001220001CN0300001N9-02001-02221100591ADDAA199000691AY111999GF101991011001022501041001KA1999M-00891MD1210161+9999MW1011
0057028640999991962030521004+65783+024583FM-12+001599999V0209991C00001220001CN0300001N9-02611-02891100791ADDAY101999GF100991001001999999001001MD1210201+9999MW1011
0057028640999991962030600004+65783+024583FM-12+001599999V0209991C00001220001CN0300001N9-02781-03111100991ADDAY101999GF100991001001999999001001MD1210191+9999MW1021
0057028640999991962030603004+65783+024583FM-12+001599999V0209991C00001220001CN0050001N9-02611-02891101101ADDAY141999GF102991021061000751001001MD1210121+9999MW1031
0070028640999991962030606004+65783+024583FM-12+001599999V0209991C00001030001CN0030001N9-02391-02611101251ADDAY101999GF107991041061000751041051KA1999N-03001MD1210151+9999MW1281
0057028640999991962030609004+65783+024583FM-12+001599999V0201201N00311220001CN0400001N9-01781-02001101401ADDAY101999GF101991001001999999001011MD1210151+9999MW1021
0057028640999991962030612004+65783+024583FM-12+001599999V0201801N00101000601CN0030001N9-01281-01391101511ADDAY171999GF106991061071000751999999MD1210111+9999MW1781
0057028640999991962030615004+65783+024583FM-12+001599999V0201801N00211002401CN0060001N9-01111-01221101541ADDAY171999GF107991061071002501021999MD1310031+9999MW1771
0081028640999991962030618004+65783+024583FM-12+001599999V0201701N00311002401CN0050001N9-01001-01111101551ADDAA199000691AY171999GF108991081071002501999999KA1999M-01001MD1510011+9999MW1771
0057028640999991962030621004+65783+024583FM-12+001599999V0202401N00101000601CN0050001N9-01001-01111101591ADDAY171999GF108991081071000751999999MD1210041+9999MW1771
0057028640999991962030700004+65783+024583FM-12+001599999V0201801N00101000601CN0050001N9-01001-01111101591ADDAY171999GF108991081071000751999999MD1410001+9999MW1771
0057028640999991962030703004+65783+024583FM-12+001599999V0202201N00101000601CN0010001N9-01111-01221101571ADDAY171999GF108991081071000751999999MD1610021+9999MW1771
0081028640999991962030706004+65783+024583FM-12+001599999V0201901N00211000601CN0005001N9-01221-01281101571ADDAA199000691AY171999GF108991081071000751999999KA1999N-01221MD1410001+9999MW1771
0057028640999991962030709004+65783+024583FM-12+001599999V0202101N00211075001CN0150001N9-01221-01281101591ADDAY171999GF105991021071001501041011MD1210011+9999MW1711
0057028640999991962030712004+65783+024583FM-12+001599999V0202401N00151030001CN0400001N9-01001-01221101601ADDAY171999GF105991011071001501041051MD1210021+9999MW1031
0057028640999991962030715004+65783+024583FM-12+001599999V0201801N00151075001CN0060001N9-01281-01501101571ADDAY171999GF106991031001022501071051MD1810041+9999MW1711
0081028640999991962030718004+65783+024583FM-12+001599999V0201801N00211021001CN0050001N9-01891-02111101531ADDAA199000391AY171999GF107991071001022501071999KA1999M-01001MD1710041+9999MW1781
0057028640999991962030721004+65783+024583FM-12+001599999V0203101N00151001501CN0050001N9-01391-01501101521ADDAY171999GF108991081071001501999999MD1510011+9999MW1781
0057028640999991962030800004+65783+024583FM-12+001599999V0209991C00001001501CN0050001N9-01781-02001101561ADDAY171999GF108991081071001501999999MD1210041+9999MW1781
0057028640999991962030803004+65783+024583FM-12+001599999V0209991C00001000601CN0050001N9-02111-02281101591ADDAY171999GF108991081071000751999999MD1210031+9999MW1781
0081028640999991962030806004+65783+024583FM-12+001599999V0209991C00001030001CN0040001N9-01781-02111101671ADDAA199000591AY171999GF107991031071001501071999KA1999N-02281MD1210081+9999MW1781
0057028640999991962030809004+65783+024583FM-12+001599999V0203501N00101220001CN0060001N9-01721-01891101811ADDAY171999GF102991021071002501001001MD1210141+9999MW1221
0057028640999991962030812004+65783+024583FM-12+001599999V0209991C00001220001CN0080001N9-01281-01391101901ADDAY171999GF103991031071002501001001MD1210091+9999MW1051
0057028640999991962030815004+65783+024583FM-12+001599999V0202201N00101220001CN0070001N9-01501-01721101961ADDAY101999GF102991021001022501041001MD1210061+9999MW1051
0081028640999991962030818004+65783+024583FM-12+001599999V0202001N00101000151CN0004001N9-02501-02611101941ADDAA199000691AY101999GF107991071061000251999999KA1999M-01111MD1510021+9999MW1461
0057028640999991962030821004+65783+024583FM-12+001599999V0201901N00101000151CN0001001N9-02501-02611101971ADDAY141999GF109991091999000251999999MD1310021+9999MW1451
0057028640999991962030900004+65783+024583FM-12+001599999V0209991C00001000151CN0002001N9-02001-02111101891ADDAY141999GF109991091999000251999999MD1610071+9999MW1471
0057028640999991962030903004+65783+024583FM-12+001599999V0202001N00211000151CN0004001N9-01611-01721101751ADDAY141999GF109991091999000251999999MD1710141+9999MW1771
0081028640999991962030906004+65783+024583FM-12+001599999V0201701N00361000151CN0020001N9-01501-01611101641ADDAA199000391AY141999GF108991081061000251999999KA1999N-02611MD1710111+9999MW1781
0057028640999991962030909004+65783+024583FM-12+001599999V0201701N00211000601CN0020001N9-01391-01501101631ADDAY141999GF108991081061000751999999MD1710011+9999MW1711
0092028640999991962030912004+65783+024583FM-12+001599999V0202301N00151030001CN0050001N9-01111-01221101621ADDAY141999GF106991041061001501021999MD1710011+9999MW1711EQDQ01+000032APCTENQ02+000002APC3  
0057028640999991962030915004+65783+024583FM-12+001599999V0201701N00151030001CN0070001N9-01221-01281101571ADDAY171999GF106991021071002501041021MD1710051+9999MW1041
0081028640999991962030918004+65783+024583FM-12+001599999V0200801N00211030001CN0080001N9-01391-01501101521ADDAA199000391AY171999GF107991041051004501071999KA1999M-01001MD1710061+9999MW1011
0057028640999991962030921004+65783+024583FM-12+001599999V0200301N00211030001CN0045001N9-01221-01281101401ADDAY171999GF108991021051004501021999MD1710111+9999MW1731
0057028640999991962031000004+65783+024583FM-12+001599999V0200301N00361030001CN0070001N9-01001-01111101191ADDAY171999GF108991031051004501021999MD1710211+9999MW1711
0057028640999991962031003004+65783+024583FM-12+001599999V0200401N00361001501CN0050001N9-00891-01001100961ADDAY171999GF108991081071001501999999MD1710231+9999MW1771
0081028640999991962031006004+65783+024583FM-12+001599999V0200301N00571000151CN0015001N9-00891-01001100701ADDAA199002091AY171999GF109991091999000251999999KA1999N-01391MD1710261+9999MW1751
0057028640999991962031009004+65783+024583FM-12+001599999V0200301N00721030001CN0035001N9-00891-01001100531ADDAY171999GF107991041071002501071999MD1710171+9999MW1731
0057028640999991962031012004+65783+024583FM-12+001599999V0200601N00721030001CN0200001N9-00781-01001100511ADDAY171999GF106991021051004501071021MD1610021+9999MW1221
0057028640999991962031015004+65783+024583FM-12+001599999V0200101N00931220001CN0200001N9-00891-01221100581ADDAY121999GF104991031051004501071021MD1310081+9999MW1011
0081028640999991962031018004+65783+024583FM-12+001599999V0203501N00511220001CN0200001N9-01221-01391100691ADDAA199003091AY171999GF103991011051004501041001KA1999M-00781MD1210101+9999MW1011
0057028640999991962031021004+65783+024583FM-12+001599999V0203501N00411220001CN0300001N9-01501-01721100701ADDAY101999GF100991001001999999001001MD1110011+9999MW1011
0057028640999991962031100004+65783+024583FM-12+001599999V0203501N00461220001CN0300001N9-01611-01721100721ADDAY101999GF100991001001999999001001MD1010011+9999MW1021
0057028640999991962031103004+65783+024583FM-12+001599999V0203501N00411220001CN0300001N9-01781-01891100751ADDAY101999GF101991011001022501041001MD1210031+9999MW1031
0070028640999991962031106004+65783+024583FM-12+001599999V0203501N00411220001CN0400001N9-01611-01781100771ADDAY101999GF101991011001022501041001KA1999N-01891MD1210021+9999MW1021
0057028640999991962031109004+65783+024583FM-12+001599999V0203601N00511220001CN0500001N9-01111-01391100811ADDAY101999GF105991001001999999001051MD1210051+9999MW1031
0057028640999991962031112004+65783+024583FM-12+001599999V0203401N00461220001CN0500001N9-00891-01281100841ADDAY111999GF105991001001999999001051MD1210031+9999MW1021
0092028640999991962031115004+65783+024583FM-12+001599999V0203201N00461220001CN0500001N9-00781-01281100851ADDAY111999GF102991001001999999001051MD1210011+9999MW1011EQDQ01+000042APCTENQ02+000012APC3  
0070028640999991962031118004+65783+024583FM-12+001599999V0203501N00311220001CN0300001N9-01611-01721100841ADDAY111999GF101991011001022501041001KA1999M-00721MD1010021+9999MW1011
0057028640999991962031121004+65783+024583FM-12+001599999V0203601N00211220001CN0300001N9-02281-02391100811ADDAY101999GF100991001001999999001001MD1610031+9999MW1021
0057028640999991962031200004+65783+024583FM-12+001599999V0203601N00211220001CN0300001N9-02611-02781100821ADDAY101999GF100991001001999999001001MD1010101+9999MW1021
0057028640999991962031203004+65783+024583FM-12+001599999V0200101N00311220001CN0300001N9-02281-02611100841ADDAY101999GF100991001001999999001001MD1010021+9999MW1021
0070028640999991962031206004+65783+024583FM-12+001599999V0200101N00311220001CN0300001N9-02281-02611100891ADDAY101999GF101991011001022501041001KA1999N-02721MD1210051+9999MW1021
0057028640999991962031209004+65783+024583FM-12+001599999V0200101N00261075001CN0100001N9-01391-01611100921ADDAY171999GF107991041001022501071071MD1210041+9999MW1711
0057028640999991962031212004+65783+024583FM-12+001599999V0203601N00361030001CN0400001N9-00781-01111100941ADDAY171999GF107991011051008001041071MD1210021+9999MW1031
0057028640999991962031215004+65783+024583FM-12+001599999V0203501N00211075001CN0100001N9-00721-00891100931ADDAY121999GF107991041051004501001071MD1810011+9999MW1701
0081028640999991962031218004+65783+024583FM-12+001599999V0203101N00311220001CN0300001N9-00781-01111100941ADDAA199000391AY171999GF104991021051004501071001KA1999M-00611MD1310011+9999MW1011
0057028640999991962031221004+65783+024583FM-12+001599999V0200201N00211220001CN0300001N9-01391-01611100981ADDAY111999GF103991011051004501041001MD1210041+9999MW1021
0057028640999991962031300004+65783+024583FM-12+001599999V0200201N00211220001CN0300001N9-02221-02501101021ADDAY101999GF103991011051004501041001MD1210041+9999MW1021
0057028640999991962031303004+65783+024583FM-12+001599999V0203501N00211220001CN0400001N9-02221-02391100991ADDAY101999GF101991011001022501041001MD1710031+9999MW1011
0070028640999991962031306004+65783+024583FM-12+001599999V0203501N00101220001CN0400001N9-02391-02611100991ADDAY101999GF102991011001022501041021KA1999N-02501MD1410001+9999MW1031
0057028640999991962031309004+65783+024583FM-12+001599999V0203501N00411220001CN0400001N9-01281-01501101071ADDAY101999GF101991011001022501041011MD1210091+9999MW1011
0057028640999991962031312004+65783+024583FM-12+001599999V0203501N00361220001CN0500001N9-00891-01391101061ADDAY101999GF101991001001999999001011MD1810011+9999MW1021
0057028640999991962031315004+65783+024583FM-12+001599999V0200301N00361220001CN0500001N9-01001-01281101061ADDAY101999GF100991001001999999001001MD1410001+9999MW1021
0070028640999991962031318004+65783+024583FM-12+001599999V0203501N00151220001CN0400001N9-01891-02001101091ADDAY101999GF100991001001999999001001KA1999M-00781MD1110021+9999MW1021
0057028640999991962031321004+65783+024583FM-12+001599999V0200101N00261220001CN0500001N9-02111-02281101071ADDAY101999GF100991001001999999001001MD1710021+9999MW1021
0057028640999991962031400004+65783+024583FM-12+001599999V0200101N00261220001CN0500001N9-02611-02721101041ADDAY101999GF100991001001999999001001MD1710031+9999MW1021
0057028640999991962031403004+65783+024583FM-12+001599999V0200301N00151220001CN0500001N9-02781-02891101011ADDAY101999GF100991001001999999001001MD1710041+9999MW1021
0070028640999991962031406004+65783+024583FM-12+001599999V0203601N00211000151CN0020001N9-02611-02781101011ADDAY101999GF107991071061000251999999KA1999N-02891MD1210011+9999MW1101
0057028640999991962031409004+65783+024583FM-12+001599999V0203601N00151220001CN0050001N9-01891-02001100991ADDAY121999GF102991021061000751001001MD1710021+9999MW1011
0057028640999991962031412004+65783+024583FM-12+001599999V0203501N00311220001CN0300001N9-01111-01221100931ADDAY121999GF101991011001022501041001MD1710051+9999MW1051
0057028640999991962031415004+65783+024583FM-12+001599999V0203501N00311220001CN0300001N9-00891-01221100931ADDAY101999GF101991011001022501041001MD1410001+9999MW1031
0070028640999991962031418004+65783+024583FM-12+001599999V0203501N00151220001CN0400001N9-02001-02111100981ADDAY101999GF100991001001999999001001KA1999M-00891MD1210041+9999MW1021
0057028640999991962031421004+65783+024583FM-12+001599999V0200101N00261220001CN0400001N9-02501-02781101011ADDAY101999GF100991001001999999001001MD1210031+9999MW1021
0057028640999991962031500004+65783+024583FM-12+001599999V0200101N00311220001CN0400001N9-02611-02891101041ADDAY101999GF100991001001999999001001MD1210031+9999MW1021
0057028640999991962031503004+65783+024583FM-12+001599999V0200101N00261220001CN0400001N9-02721-03001101121ADDAY101999GF100991001001999999001001MD1210081+9999MW1021
0070028640999991962031506004+65783+024583FM-12+001599999V0200101N00211220001CN0100001N9-03001-03221101201ADDAY101999GF102991011061000751041001KA1999N-03001MD1210071+9999MW1031
0057028640999991962031509004+65783+024583FM-12+001599999V0200101N00101000601CN0025001N9-01891-02111101291ADDAY111999GF107991071071000751999999MD1210091+9999MW1771
0057028640999991962031512004+65783+024583FM-12+001599999V0201801N00211220001CN0150001N9-01611-01781101391ADDAY171999GF104991011071002501041021MD1210101+9999MW1021
0057028640999991962031515004+65783+024583FM-12+001599999V0201601N00361030001CN0080001N9-01611-01781101371ADDAY171999GF107991021051004501071999MD1810021+9999MW1711
0081028640999991962031518004+65783+024583FM-12+001599999V0201601N00101004501CN0070001N9-01501-01721101461ADDAA199000691AY171999GF107991061051004501071999KA1999M-01391MD1210091+9999MW1711
0057028640999991962031521004+65783+024583FM-12+001599999V0201701N00151004501CN0130001N9-01281-01501101451ADDAY171999GF108991081051004501999999MD1010001+9999MW1711
0081028640999991962031606004+65783+024583FM-12+001599999V0201601N00461000151CN0009001N9-01221-01281101561ADDAA199000391AY141999GF107991071061000251999999KA1999N-01501MD1210051+9999MW1771
0057028640999991962031609004+65783+024583FM-12+001599999V0201701N00571030001CN0080001N9-01111-01221101621ADDAY171999GF107991021071002501071071MD1210051+9999MW1781
0057028640999991962031612004+65783+024583FM-12+001599999V0201701N00571004501CN0200001N9-00891-01001101551ADDAY171999GF108991071071004501021999MD1610061+9999MW1771
0057028640999991962031615004+65783+024583FM-12+001599999V0201901N00411004501CN0150001N9-00891-01001101571ADDAY171999GF108991071071004501021999MD1310021+9999MW1771
0081028640999991962031618004+65783+024583FM-12+001599999V0201401N00261030001CN0150001N9-01391-01501101561ADDAA199000591AY171999GF106991021071004501041051KA1999M-00721MD1710021+9999MW1011
0057028640999991962031621004+65783+024583FM-12+001599999V0201501N00151220001CN0200001N9-01391-01501101561ADDAY121999GF107991001001999999001071MD1410001+9999MW1031
0057028640999991962031700004+65783+024583FM-12+001599999V0201301N00211075001CN0200001N9-01391-01501101571ADDAY121999GF107991011051004501001071MD1310011+9999MW1031
0076028640999991962031703004+65783+024583FM-12+001599999V0200201N00211220001CN0400001N9-01891-02111101571ADDAY111999GF103991999001022501041011MD1410001+9999MW1011EQDQ01+000002SCOTLC
0057028640999991962031709004+65783+024583FM-12+001599999V0200401N00311001501CN0060001N9-01001-01111101751ADDAY171999GF107991071071001501999999MD1210151+9999MW1711
0057028640999991962031712004+65783+024583FM-12+001599999V0200201N00621001501CN0050001N9-00781-00891101891ADDAY171999GF108991061071001501021999MD1210141+9999MW1731
0057028640999991962031715004+65783+024583FM-12+001599999V0200101N00621220001CN0500001N9-00781-01221102031ADDAY171999GF105991001001999999001071MD1210151+9999MW1011
0081028640999991962031718004+65783+024583FM-12+001599999V0203501N00411220001CN0500001N9-01221-01611102201ADDAA199000691AY111999GF102991001001999999001051KA1999M-00781MD1210171+9999MW1011
0057028640999991962031721004+65783+024583FM-12+001599999V0200101N00311220001CN0500001N9-01781-02001102291ADDAY101999GF100991001001999999001001MD1210061+9999MW1011
0057028640999991962031800004+65783+024583FM-12+001599999V0203601N00311220001CN0500001N9-02221-02391102271ADDAY101999GF100991001001999999001001MD1710021+9999MW1021
0057028640999991962031803004+65783+024583FM-12+001599999V0209991C00001220001CN0500001N9-02721-03001102151ADDAY101999GF101991011001022501041001MD1710121+9999MW1031
0070028640999991962031806004+65783+024583FM-12+001599999V0209991C00001220001CN0300001N9-02781-03001102041ADDAY101999GF104991011061000751041051KA1999N-03001MD1710111+9999MW1111
0057028640999991962031809004+65783+024583FM-12+001599999V0202001N00261075001CN0100001N9-01721-02001101871ADDAY101999GF106991011001022501041021MD1710161+9999MW1051
0057028640999991962031812004+65783+024583FM-12+001599999V0202101N00361075001CN0300001N9-01221-01501101631ADDAY101999GF107991011001022501041081MD1710231+9999MW1021
0057028640999991962031815004+65783+024583FM-12+001599999V0202001N00361030001CN0300001N9-01111-01391101421ADDAY121999GF107991011051004501041071MD1710211+9999MW1031
0070028640999991962031818004+65783+024583FM-12+001599999V0201701N00151220001CN0300001N9-01611-01781101261ADDAY121999GF104991021001022501041041KA1999M-01001MD1710171+9999MW1011
0057028640999991962031821004+65783+024583FM-12+001599999V0201101N00101220001CN0400001N9-02001-02221101171ADDAY101999GF101991011001022501041001MD1710091+9999MW1021
0057028640999991962031900004+65783+024583FM-12+001599999V0209991C00001220001CN0500001N9-02611-02721101101ADDAY101999GF100991001001999999001001MD1710071+9999MW1021
0057028640999991962031903004+65783+024583FM-12+001599999V0200401N00151030001CN0045001N9-02611-02781101071ADDAY111999GF106991021061000751071999MD1610031+9999MW1011
0070028640999991962031906004+65783+024583FM-12+001599999V0209991C00001220001CN0200001N9-02391-02501101031ADDAY141999GF101991011001022501071001KA1999N-02721MD1710041+9999MW1011
0057028640999991962031909004+65783+024583FM-12+001599999V0209991C00001220001CN0150001N9-01391-01611101031ADDAY101999GF100991001001999999001001MD1210011+9999MW1051
0057028640999991962031912004+65783+024583FM-12+001599999V0201901N00361220001CN0150001N9-01001-01391100981ADDAY101999GF101991001001999999001021MD1710051+9999MW1051
0057028640999991962031915004+65783+024583FM-12+001599999V0202001N00211220001CN0200001N9-01111-01281100971ADDAY101999GF102991011001022501041021MD1610011+9999MW1051
0070028640999991962031918004+65783+024583FM-12+001599999V0201801N00211030001CN0200001N9-01281-01391100961ADDAY111999GF107991031051004501071999KA1999M-00781MD1710011+9999MW1031
0057028640999991962031921004+65783+024583FM-12+001599999V0201601N00211075001CN0300001N9-01391-01501100891ADDAY121999GF107991031001022501041071MD1710081+9999MW1011
0057028640999991962032000004+65783+024583FM-12+001599999V0201301N00211075001CN0500001N9-01721-01781100861ADDAY121999GF107991021001022501041071MD1710031+9999MW1031
0057028640999991962032003004+65783+024583FM-12+001599999V0201301N00151075001CN0400001N9-01611-01721100851ADDAY121999GF107991041001022501071071MD1710011+9999MW1031
0070028640999991962032006004+65783+024583FM-12+001599999V0200101N00211075001CN0300001N9-01781-01891100961ADDAY121999GF106991031001022501041071KA1999N-02001MD1310111+9999MW1031
0057028640999991962032009004+65783+024583FM-12+001599999V0203601N00411220001CN0400001N9-01111-01391101091ADDAY121999GF102991021001022501041001MD1210131+9999MW1011
0057028640999991962032012004+65783+024583FM-12+001599999V0200401N00101220001CN0500001N9-00501-01001101241ADDAY101999GF101991001001999999001021MD1210151+9999MW1011
