0057028640999991959010100004+65783+024583FM-12+001599999V0201601N00511004501CN0080001N9-00781-01001099781ADDAY171999GF108991081051004501999999MD1710121+9999MW1711
0057028640999991959010103004+65783+024583FM-12+001599999V0201401N00411004501CN0070001N9-00891-00891099661ADDAY171999GF108991081051004501999999MD1710101+9999MW1711
0081028640999991959010106004+65783+024583FM-12+001599999V0201401N00461004501CN0100001N9-00891-01001099581ADDAA199000591AY171999GF108991081051004501999999KA1999N-01001MD1710101+9999MW1711
0057028640999991959010109004+65783+024583FM-12+001599999V0201401N00461004501CN0100001N9-00781-00891099511ADDAY171999GF108991081051004501999999MD1710061+9999MW1711
0057028640999991959010112004+65783+024583FM-12+001599999V0201401N00261004501CN0030001N9-00781-00781099461ADDAY171999GF108991081051004501999999MD1710041+9999MW1771
0057028640999991959010115004+65783+024583FM-12+001599999V0201401N00311004501CN0100001N9-00721-00721099411ADDAY171999GF108991081051004501999999MD1710061+9999MW1771
0081028640999991959010118004+65783+024583FM-12+001599999V0201401N00261007801CN0150001N9-00721-00721099341ADDAA199000391AY171999GF108991081051008001999999KA1999M-00721MD1710081+9999MW1021
0057028640999991959010121004+65783+024583FM-12+001599999V0201401N00361007801CN0150001N9-00611-00611099351ADDAY121999GF108991081051008001999999MD1110011+9999MW1021
0057028640999991959010200004+65783+024583FM-12+001599999V0201401N00151007801CN0100001N9-00611-00721099381ADDAY121999GF108991081051008001999999MD1210031+9999MW1771
0057028640999991959010203004+65783+024583FM-12+001599999V0201401N00261007801CN0150001N9-00501-00611099401ADDAY171999GF108991081051008001999999MD1210021+9999MW1221
0081028640999991959010206004+65783+024583FM-12+001599999V0200901N00211012301CN0200001N9-00501-00721099441ADDAA199000691AY121999GF108991081051012501999999KA1999N-00721MD1210051+9999MW1021
0057028640999991959010209004+65783+024583FM-12+001599999V0200901N00361030001CN0250001N9-00501-00721099521ADDAY121999GF106991041051008001031999MD1210081+9999MW1021
0057028640999991959010212004+65783+024583FM-12+001599999V0200501N00211007801CN0250001N9-00891-01111099641ADDAY121999GF107991061051008001031999MD1210121+9999MW1031
0057028640999991959010215004+65783+024583FM-12+001599999V0200901N00361004501CN0200001N9-00891-01111099791ADDAY121999GF108991061051004501071999MD1210141+9999MW1021
0070028640999991959010218004+65783+024583FM-12+001599999V0200901N00361004501CN0300001N9-01001-01221099781ADDAY121999GF108991081051004501999999KA1999M-00501MD1810011+9999MW1021
0057028640999991959010221004+65783+024583FM-12+001599999V0200901N00411007801CN0200001N9-01001-01221099921ADDAY121999GF108991081051008001999999MD1210151+9999MW1021
0057028640999991959010300004+65783+024583FM-12+001599999V0200901N00461007801CN0250001N9-01001-01221099991ADDAY121999GF108991081051008001999999MD1210061+9999MW1021
0057028640999991959010303004+65783+024583FM-12+001599999V0200901N00511007801CN0200001N9-01001-01111099991ADDAY121999GF108991081051008001999999MD1410001+9999MW1021
0057028640999991959010309004+65783+024583FM-12+001599999V0200901N00571004501CN0100001N9-00891-01111999999ADDAY121999GF108991061051004501021999MD1010041+9999MW1221
0057028640999991959010312004+65783+024583FM-12+001599999V0200701N00571004501CN0080001N9-00781-01001099891ADDAY171999GF108991061051004501021999MD1710101+9999MW1771
0057028640999991959010315004+65783+024583FM-12+001599999V0200701N00571004501CN0100001N9-00781-01001099741ADDAY121999GF108991061051004501021071MD1710161+9999MW1021
0081028640999991959010318004+65783+024583FM-12+001599999V0200701N00621004501CN0020001N9-00781-01001099601ADDAA199000591AY171999GF108991051051004501021999KA1999M-00781MD1710141+9999MW1731
0057028640999991959010321004+65783+024583FM-12+001599999V0200901N00621004501CN0050001N9-00721-00891099521ADDAY171999GF108991081051004501999999MD1710071+9999MW1711
0057028640999991959010400004+65783+024583FM-12+001599999V0200901N00721004501CN0050001N9-00721-00891099451ADDAY171999GF108991061051004501021999MD1710071+9999MW1711
0057028640999991959010403004+65783+024583FM-12+001599999V0201101N00721004501CN0050001N9-00391-00501099451ADDAY171999GF108991061051004501021999MD1410001+9999MW1711
0081028640999991959010406004+65783+024583FM-12+001599999V0200901N00721004501CN0060001N9-00501-00721099571ADDAA199002091AY171999GF108991061051004501021999KA1999N-00891MD1210101+9999MW1711
0057028640999991959010409004+65783+024583FM-12+001599999V0200901N00671004501CN0150001N9-00611-00781099651ADDAY171999GF108991071051004501021999MD1210101+9999MW1711
0057028640999991959010412004+65783+024583FM-12+001599999V0200901N00361004501CN0150001N9-00611-00781099741ADDAY171999GF108991071051004501021999MD1210091+9999MW1711
0057028640999991959010415004+65783+024583FM-12+001599999V0200701N00411004501CN0050001N9-00721-00781099781ADDAY171999GF108991061051004501021999MD1110041+9999MW1711
0081028640999991959010418004+65783+024583FM-12+001599999V0200701N00311004501CN0120001N9-00611-00721099801ADDAA199000591AY171999GF108991061071004501021999KA1999M-00611MD1010021+9999MW1711
0057028640999991959010421004+65783+024583FM-12+001599999V0200901N00511220001CN0300001N9-00611-00721099851ADDAY171999GF102991021001022501071001MD1210061+9999MW1011
0057028640999991959010503004+65783+024583FM-12+001599999V0200901N00461004501CN0035001N9-00281-00281099881ADDAY171999GF108991051071004501021999MD1410001+9999MW1731
0081028640999991959010506004+65783+024583FM-12+001599999V0201101N00511002401CN0300001N9-00111-00221099911ADDAA199001091AY171999GF108991051071002501021999KA1999N-00611MD1310031+9999MW1221
0057028640999991959010509004+65783+024583FM-12+001599999V0201101N00511002401CN0060001N9-00111-00111099951ADDAY121999GF108991051071002501021999MD1110031+9999MW1711
0057028640999991959010512004+65783+024583FM-12+001599999V0200901N00411030001CN0025001N9-00111-00221099881ADDAY181999GF108991041071002501021999MD1810061+9999MW1731
0057028640999991959010515004+65783+024583FM-12+001599999V0200501N00411004501CN0200001N9-00221-00281099661ADDAY171999GF108991051051004501021999MD1710211+9999MW1011
0081028640999991959010518004+65783+024583FM-12+001599999V0200201N00461004501CN0025001N9-00391-00391099091ADDAA199001091AY121999GF108991071071004501021999KA1999M-00111MD1710581+9999MW1721
0057028640999991959010521004+65783+024583FM-12+001599999V0203601N00361000151CN0009001N9-00391-00391098511ADDAY171999GF109991091999000251999999MD1710581+9999MW1751
0057028640999991959010600004+65783+024583FM-12+001599999V0203601N00311030001CN0030001N9-00391-00501098091ADDAY171999GF108991041051004501021999MD1710411+9999MW1731
0057028640999991959010603004+65783+024583FM-12+001599999V0209991C00001030001CN0036001N9-00391-00391098001ADDAY171999GF108991031051004501021999MD1610111+9999MW1731
0081028640999991959010606004+65783+024583FM-12+001599999V0202301N00311004501CN0080001N9-00611-00611098151ADDAA199006091AY171999GF108991081051004501999999KA1999N-00611MD1210151+9999MW1711
0057028640999991959010609004+65783+024583FM-12+001599999V0202301N00511030001CN0100001N9-00611-00781098611ADDAY171999GF108991031051004501071071MD1210471+9999MW1221
0057028640999991959010612004+65783+024583FM-12+001599999V0202001N00511030001CN0150001N9-00501-00721098891ADDAY171999GF107991041051004501071071MD1210291+9999MW1021
0057028640999991959010615004+65783+024583FM-12+001599999V0202001N00511002401CN0100001N9-00281-00391099121ADDAY121999GF108991081071002501999999MD1210221+9999MW1701
0081028640999991959010618004+65783+024583FM-12+001599999V0201601N00571004501CN0150001N9-00391-00501099321ADDAA199000691AY171999GF108991061051004501021999KA1999M-00221MD1210201+9999MW1711
0057028640999991959010621004+65783+024583FM-12+001599999V0201601N00511002401CN0080001N9-00281-00391099401ADDAY171999GF108991061071002501021999MD1210071+9999MW1711
0057028640999991959010700004+65783+024583FM-12+001599999V0201401N00461002401CN0100001N9-00221-00281099451ADDAY171999GF108991081051002501999999MD1210061+9999MW1711
0081028640999991959010706004+65783+024583FM-12+001599999V0201101N00511002401CN0060001N9-00221-00221099401ADDAA199000591AY171999GF108991061071002501021999KA1999N-00391MD1610061+9999MW1711
0057028640999991959010709004+65783+024583FM-12+001599999V0201601N00411004501CN0200001N9-00221-00391099581ADDAY171999GF107991061051004501021999MD1210181+9999MW1771
0057028640999991959010712004+65783+024583FM-12+001599999V0201401N00311004501CN0100001N9-00391-00501099621ADDAY121999GF107991061051004501071999MD1110051+9999MW1701
0057028640999991959010715004+65783+024583FM-12+001599999V0201101N00311004501CN0080001N9-00391-00501099691ADDAY171999GF108991061051004501071999MD1210081+9999MW1701
0081028640999991959010718004+65783+024583FM-12+001599999V0200501N00261004501CN0050001N9-00501-00611099661ADDAA199000591AY171999GF108991061051004501071999KA1999M-00111MD1810031+9999MW1711
0057028640999991959010721004+65783+024583FM-12+001599999V0200901N00311004501CN0060001N9-00501-00611099621ADDAY171999GF108991081051004501999999MD1710051+9999MW1711
0057028640999991959010800004+65783+024583FM-12+001599999V0201601N00211004501CN0050001N9-00391-00391099621ADDAY171999GF108991081051004501999999MD1410001+9999MW1711
0057028640999991959010803004+65783+024583FM-12+001599999V0201801N00101030001CN0080001N9-00501-00611099641ADDAY171999GF106991041051004501021999MD1210021+9999MW1011
0081028640999991959010806004+65783+024583FM-12+001599999V0201101N00211220001CN0100001N9-00781-00891099751ADDAA199002091AY171999GF103991031051004501001001KA1999N-00891MD1210101+9999MW1031
0057028640999991959010809004+65783+024583FM-12+001599999V0201401N00151030001CN0003001N9-01281-01501099971ADDAY111999GF105991011051004501071001MD1210211+9999MW1461
0057028640999991959010812004+65783+024583FM-12+001599999V0200201N00151030001CN0003001N9-01501-01501100221ADDAY111999GF106991021051004501071999MD1210271+9999MW1461
0070028640999991959010818004+65783+024583FM-12+001599999V0209991C00001000151CN0004001N9-01281-01501100741ADDAY141999GF109991091999000251999999KA1999M-00781MD1210221+9999MW1431
0057028640999991959010900004+65783+024583FM-12+001599999V0209991C00001000151CN0004001N9-01221-01281101111ADDAY141999GF109991091999000251999999MD1210171+9999MW1451
0057028640999991959010903004+65783+024583FM-12+001599999V0209991C00001000151CN0007001N9-01111-01221101221ADDAY141999GF109991091999000251999999MD1210111+9999MW1471
0081028640999991959010906004+65783+024583FM-12+001599999V0209991C00001000151CN0018001N9-01001-01111101341ADDAA199000691AY141999GF108991081061000251999999KA1999N-01391MD1210111+9999MW1101
0057028640999991959010909004+65783+024583FM-12+001599999V0201101N00151001501CN0050001N9-00781-00891101421ADDAY121999GF108991081071001501999999MD1210091+9999MW1781
0057028640999991959010912004+65783+024583FM-12+001599999V0200501N00151004501CN0050001N9-00781-00891101481ADDAY171999GF108991061051004501021999MD1110061+9999MW1711
0081028640999991959010918004+65783+024583FM-12+001599999V0200501N00211007801CN0150001N9-01001-01111101481ADDAA199000591AY111999GF108991081051008001999999KA1999M-00781MD1710031+9999MW1701
0057028640999991959010921004+65783+024583FM-12+001599999V0200501N00261220001CN0150001N9-01111-01221101421ADDAY171999GF102991021051008001001001MD1710061+9999MW1221
0057028640999991959011000004+65783+024583FM-12+001599999V0200501N00311007801CN0250001N9-01111-01221101401ADDAY171999GF108991081051008001999999MD1710031+9999MW1031
0057028640999991959011003004+65783+024583FM-12+001599999V0200501N00361007801CN0250001N9-00891-01001101281ADDAY121999GF108991081051008001999999MD1710111+9999MW1021
0081028640999991959011006004+65783+024583FM-12+001599999V0200501N00311004501CN0080001N9-00781-00891101211ADDAA199000691AY121999GF108991081051004501999999KA1999N-01281MD1710071+9999MW1711
0057028640999991959011009004+65783+024583FM-12+001599999V0200701N00311004501CN0080001N9-00611-00721101241ADDAY171999GF108991081051004501999999MD1310031+9999MW1701
0057028640999991959011012004+65783+024583FM-12+001599999V0200701N00461004501CN0050001N9-00611-00721101211ADDAY171999GF108991081051004501999999MD1810031+9999MW1711
0057028640999991959011015004+65783+024583FM-12+001599999V0200701N00461004501CN0060001N9-00501-00611101211ADDAY171999GF108991081051004501999999MD1410001+9999MW1711
0081028640999991959011018004+65783+024583FM-12+001599999V0200901N00511012301CN0150001N9-00391-00721101201ADDAA199000591AY171999GF108991081051012501999999KA1999M-00391MD1610021+9999MW1221
0057028640999991959011021004+65783+024583FM-12+001599999V0200901N00411007801CN0080001N9-00391-00611101201ADDAY171999GF108991081051008001999999MD1410001+9999MW1711
0057028640999991959011100004+65783+024583FM-12+001599999V0200901N00671007801CN0250001N9-00281-00501101061ADDAY171999GF108991051051008001071999MD1710121+9999MW1021
0057028640999991959011103004+65783+024583FM-12+001599999V0200701N00771220001CN0300001N9-00391-00501100891ADDAY121999GF102991001001999999001011MD1710171+9999MW1011
0081028640999991959011106004+65783+024583FM-12+001599999V0200701N00821015001CN0010001N9-00391-00501100801ADDAA199000691AY121999GF108991081001017501021999KA1999N-00501MD1710111+9999MW1731
0057028640999991959011109004+65783+024583FM-12+001599999V0200901N00511015001CN0020001N9-00391-00391100821ADDAY171999GF108991081001017501021999MD1310031+9999MW1731
0057028640999991959011112004+65783+024583FM-12+001599999V0201101N00571015001CN0035001N9-00391-00501100681ADDAY171999GF108991081001017501021999MD1710141+9999MW1731
0057028640999991959011115004+65783+024583FM-12+001599999V0200901N00571015001CN0012001N9-00391-00501100551ADDAY171999GF108991081001017501021999MD1710141+9999MW1731
0081028640999991959011118004+65783+024583FM-12+001599999V0200901N00571030001CN0030001N9-00501-00611100351ADDAA199006091AY171999GF108991031071004501021999KA1999M-00281MD1710201+9999MW1731
0057028640999991959011121004+65783+024583FM-12+001599999V0200901N00311015001CN0030001N9-00281-00391100241ADDAY171999GF108991081001017501021999MD1710101+9999MW1731
0057028640999991959011200004+65783+024583FM-12+001599999V0201801N00571015001CN0035001N9-00111-00111100241ADDAY171999GF108991081001017501021999MD1410001+9999MW1731
0057028640999991959011203004+65783+024583FM-12+001599999V0202001N00571030001CN0020001N9-00111-00111100401ADDAY171999GF108991041071004501021999MD1210151+9999MW1731
0081028640999991959011206004+65783+024583FM-12+001599999V0202001N00621021001CN0060001N9-00221-00281100661ADDAA199004091AY171999GF107991071001022501021999KA1999N-00391MD1210261+9999MW1711
0057028640999991959011212004+65783+024583FM-12+001599999V0202001N00571007801CN0200001N9-00221-00391100861ADDAY171999GF107991071051008001999999MD1410001+9999MW1021
0057028640999991959011215004+65783+024583FM-12+001599999V0201601N00361001501CN0100001N9-00391-00501100821ADDAY121999GF108991081071001501999999MD1710051+9999MW1031
0081028640999991959011218004+65783+024583FM-12+001599999V0201601N00361001501CN0070001N9-00501-00501100791ADDAA199000691AY121999GF108991081061001501999999KA1999M-00221MD1510041+9999MW1021
0057028640999991959011221004+65783+024583FM-12+001599999V0201101N00261004501CN0100001N9-00501-00501100561ADDAY121999GF108991081071004501999999MD1710231+9999MW1021
0057028640999991959011300004+65783+024583FM-12+001599999V0200401N00311004501CN0150001N9-00501-00721100241ADDAY121999GF108991081051004501999999MD1710311+9999MW1021
0081028640999991959011306004+65783+024583FM-12+001599999V0200401N00511015001CN0020001N9-00611-00721099661ADDAA199000691AY121999GF108991081001017501021999KA1999N-00611MD1710281+9999MW1731
0057028640999991959011309004+65783+024583FM-12+001599999V0200501N00621015001CN0020001N9-00611-00721099491ADDAY171999GF108991081001017501021999MD1710181+9999MW1731
0057028640999991959011312004+65783+024583FM-12+001599999V0200601N00411015001CN0020001N9-00611-00721099361ADDAY171999GF108991081001017501021999MD1710141+9999MW1731
0081028640999991959011318004+65783+024583FM-12+001599999V0200501N00311015001CN0025001N9-00721-00781099281ADDAA199003091AY171999GF108991081001017501021999KA1999M-00501MD1610041+9999MW1721
0057028640999991959011321004+65783+024583FM-12+001599999V0200501N00261015001CN0045001N9-00721-00781099311ADDAY171999GF108991081001017501021999MD1310031+9999MW1711
0057028640999991959011400004+65783+024583FM-12+001599999V0200501N00361015001CN0050001N9-00781-00781099311ADDAY171999GF108991081001017501021999MD1410001+9999MW1711
0057028640999991959011403004+65783+024583FM-12+001599999V0200501N00311015001CN0050001N9-00781-00781099321ADDAY171999GF108991081001017501021999MD1210011+9999MW1711
0081028640999991959011406004+65783+024583FM-12+001599999V0200401N00311015001CN0045001N9-00891-01001099341ADDAA199002091AY171999GF108991081001017501021999KA1999N-00891MD1310011+9999MW1711
0057028640999991959011409004+65783+024583FM-12+001599999V0200501N00311007801CN0050001N9-01001-01111099401ADDAY171999GF108991061061008001021999MD1210061+9999MW1711
0057028640999991959011412004+65783+024583FM-12+001599999V0200201N00261007801CN0060001N9-01111-01111099411ADDAY171999GF108991061051008001071999MD1010021+9999MW1701
0057028640999991959011415004+65783+024583FM-12+001599999V0200201N00211004501CN0050001N9-01001-01111099391ADDAY171999GF108991061051004501071999MD1810031+9999MW1711
0081028640999991959011418004+65783+024583FM-12+001599999V0203601N00361021001CN0050001N9-01111-01281099341ADDAA199000591AY171999GF108991081001022501021999KA1999M-00891MD1710051+9999MW1711
0057028640999991959011421004+65783+024583FM-12+001599999V0209991C00001220001CN0400001N9-01611-01721099321ADDAY171999GF105991001001999999001051MD1510011+9999MW1221
0057028640999991959011500004+65783+024583FM-12+001599999V0209991C00001021001CN0060001N9-01281-01501099211ADDAY171999GF108991081001022501021999MD1710111+9999MW1711
0057028640999991959011503004+65783+024583FM-12+001599999V0203401N00511015001CN0025001N9-00891-01001099201ADDAY171999GF108991081001017501021999MD1710021+9999MW1731
0081028640999991959011506004+65783+024583FM-12+001599999V0203601N00511015001CN0050001N9-00891-01001099251ADDAA199001091AY171999GF108991081001017501021999KA1999N-01781MD1310061+9999MW1711
0057028640999991959011509004+65783+024583FM-12+001599999V0203601N00411021001CN0300001N9-01111-01221099491ADDAY121999GF107991071001022501071071MD1210241+9999MW1021
0057028640999991959011512004+65783+024583FM-12+001599999V0200201N00311075001CN0400001N9-01281-01501099651ADDAY121999GF106991021001022501041051MD1210161+9999MW1011
0057028640999991959011515004+65783+024583FM-12+001599999V0203601N00211220001CN0300001N9-01721-02001099801ADDAY111999GF104991021001022501041051MD1210141+9999MW1021
0081028640999991959011518004+65783+024583FM-12+001599999V0203601N00211220001CN0300001N9-02111-02281099911ADDAA199000691AY111999GF101991011001022501041001KA1999M-00891MD1210121+9999MW1021
0057028640999991959011521004+65783+024583FM-12+001599999V0203601N00211220001CN0300001N9-02281+99999100161ADDAY101999GF102991021001022501041001MD1210231+9999MW1031
0057028640999991959011600004+65783+024583FM-12+001599999V0203601N00101220001CN0006001N9-02391+99999100161ADDAY101999GF100991001001999999001001MD1210401+9999MW1421
0092028640999991959011603004+65783+024583FM-12+001599999V0209991C00001220001CN0030001N9-02721+99999100151ADDAY141999GF103991031001022501041001MD1710011+9999MW1281EQDQ01+000042APCTENQ02+000012APC3  
0070028640999991959011606004+65783+024583FM-12+001599999V0209991C00001030001CN0050001N9-02391+99999100151ADDAY111999GF107991041071000751021071KA1999N-02891MD1410001+9999MW1031
0057028640999991959011609004+65783+024583FM-12+001599999V0203601N00101030001CN0100001N9-02281+99999100191ADDAY171999GF106991021051004501071999MD1310041+9999MW1031
0057028640999991959011612004+65783+024583FM-12+001599999V0201101N00101220001CN0400001N9-02281+99999100141ADDAY121999GF102991021001022501041001MD1710051+9999MW1011
0076028640999991959011615004+65783+024583FM-12+001599999V0201601N00211220001CN0080001N9-02221+99999100141ADDAY111999GF105991011001022501071061MD1410001+9999MW1011EQDQ01+000022APCTEN
0081028640999991959011618004+65783+024583FM-12+001599999V0201401N00311001501CN0060001N9-01781-02001100161ADDAA199000691AY111999GF108991081061001501999999KA1999M-01781MD1310031+9999MW1781
0057028640999991959011621004+65783+024583FM-12+001599999V0200701N00461000601CN0050001N9-02001-02111100211ADDAY121999GF107991071061000751999999MD1310061+9999MW1021
0057028640999991959011700004+65783+024583FM-12+001599999V0203601N00361220001CN0400001N9-02221+99999100581ADDAY101999GF100991001001999999001001MD1210341+9999MW1011
0057028640999991959011703004+65783+024583FM-12+001599999V0200201N00411220001CN0500001N9-02391+99999100771ADDAY101999GF100991001001999999001001MD1210191+9999MW1021
0070028640999991959011706004+65783+024583FM-12+001599999V0200201N00211220001CN0300001N9-02501+99999100891ADDAY101999GF102991011001022501041011KA1999N-02611MD1210141+9999MW1031
0057028640999991959011709004+65783+024583FM-12+001599999V0200201N00151030001CN0400001N9-02281+99999100941ADDAY121999GF105991021051008001071001MD1310051+9999MW1011
0057028640999991959011712004+65783+024583FM-12+001599999V0209991C00001075001CN0200001N9-02391+99999100941ADDAY111999GF105991011001022501041021MD1710011+9999MW1031
0057028640999991959011715004+65783+024583FM-12+001599999V0209991C00001075001CN0100001N9-03001+99999100891ADDAY111999GF105991011051012501041021MD1810041+9999MW1031
0081028640999991959011718004+65783+024583FM-12+001599999V0209991C00001220001CN0060001N9-02781+99999100861ADDAA199001091AY111999GF104991041001022501071001KA1999M-02281MD1810031+9999MW1771
0057028640999991959011721004+65783+024583FM-12+001599999V0200401N00101220001CN0100001N9-02281+99999100911ADDAY171999GF107991001001999999001071MD1310051+9999MW1771
0057028640999991959011800004+65783+024583FM-12+001599999V0200201N00211220001CN0300001N9-02501+99999100941ADDAY171999GF100991001001999999001001MD1210021+9999MW1021
0057028640999991959011803004+65783+024583FM-12+001599999V0209991C00001220001CN0400001N9-03001+99999100941ADDAY101999GF100991001001999999001001MD1410001+9999MW1021
0081028640999991959011806004+65783+024583FM-12+001599999V0209991C00001220001CN0400001N9-03281+99999100951ADDAA199000391AY101999GF100991001001999999001001KA1999N-03281MD1010011+9999MW1021
0057028640999991959011809004+65783+024583FM-12+001599999V0209991C00001220001CN0400001N9-03391+99999100981ADDAY101999GF102991021001022501041001MD1210021+9999MW1031
0057028640999991959011812004+65783+024583FM-12+001599999V0209991C00001220001CN0060001N9-03221+99999100901ADDAY101999GF104991041061000751041001MD1410001+9999MW1011
0057028640999991959011815004+65783+024583FM-12+001599999V0209991C00001075001CN0070001N9-03111+99999100981ADDAY111999GF105991021001022501041051MD1410001+9999MW1011
0070028640999991959011818004+65783+024583FM-12+001599999V0209991C00001000601CN0050001N9-03281+99999100981ADDAY121999GF107991071061000751999999KA1999M-03001MD1410001+9999MW1031
0057028640999991959011821004+65783+024583FM-12+001599999V0209991C00001000151CN0050001N9-03281+99999101021ADDAY121999GF106991061061000251001001MD1210061+9999MW1011
0057028640999991959011900004+65783+024583FM-12+001599999V0209991C00001220001CN0150001N9-03501+99999101001ADDAY121999GF100991001001999999001001MD1710031+9999MW1011
0057028640999991959011903004+65783+024583FM-12+001599999V0201101N00101000601CN0060001N9-03221+99999100821ADDAY101999GF107991061061000751041999MD1710171+9999MW1031
0070028640999991959011906004+65783+024583FM-12+001599999V0201401N00101220001CN0080001N9-03111+99999100621ADDAY111999GF102991021071001501001001KA1999N-03721MD1710201+9999MW1011
0076028640999991959011909004+65783+024583FM-12+001599999V0201101N00211030001CN0030001N9-02721+99999100621ADDAY121999GF107991031051001501071999MD1410001+9999MW1781EQDQ01+000032APCTEN
0057028640999991959011912004+65783+024583FM-12+001599999V0203601N00101220001CN0150001N9-02721+99999100641ADDAY121999GF102991021001022501041011MD1210011+9999MW1011
0057028640999991959011915004+65783+024583FM-12+001599999V0200201N00211220001CN0100001N9-03221+99999100651ADDAY101999GF102991021001022501041001MD1210021+9999MW1021
0081028640999991959011918004+65783+024583FM-12+001599999V0203201N00101220001CN0100001N9-03281+99999100611ADDAA199000691AY101999GF102991021001022501041001KA1999M-02501MD1710051+9999MW1021
0092028640999991959011921004+65783+024583FM-12+001599999V0202901N00261220001CN0250001N9-02281+99999100601ADDAY101999GF102991021001022501041021MD1710011+9999MW1031EQDQ01+000042APCTENQ02+000012APC3  
0057028640999991959012000004+65783+024583FM-12+001599999V0203201N00261220001CN0200001N9-02611+99999100741ADDAY101999GF100991001001999999001001MD1210101+9999MW1011
0057028640999991959012003004+65783+024583FM-12+001599999V0209991C00001220001CN0200001N9-03001+99999100851ADDAY101999GF100991001001999999001001MD1210121+9999MW1021
0070028640999991959012006004+65783+024583FM-12+001599999V0209991C00001220001CN0250001N9-03221+99999100891ADDAY101999GF100991001001999999001001KA1999N-03281MD1210041+9999MW1021
0057028640999991959012009004+65783+024583FM-12+001599999V0203401N00151220001CN0100001N9-03221+99999101011ADDAY101999GF101991001001999999001011MD1210111+9999MW1041
0057028640999991959012012004+65783+024583FM-12+001599999V0209991C00001220001CN0150001N9-02891+99999101011ADDAY101999GF100991001001999999001001MD1410001+9999MW1041
0057028640999991959012015004+65783+024583FM-12+001599999V0209991C00001220001CN0080001N9-03221+99999100941ADDAY101999GF100991001001999999001001MD1710071+9999MW1041
0070028640999991959012018004+65783+024583FM-12+001599999V0203601N00151220001CN0080001N9-03281+99999100881ADDAY101999GF100991001001999999001001KA1999M-02891MD1710051+9999MW1011
0057028640999991959012021004+65783+024583FM-12+001599999V0209991C00001220001CN0040001N9-03611+99999100861ADDAY101999GF103991031061000251001001MD1710021+9999MW1031
0057028640999991959012100004+65783+024583FM-12+001599999V0209991C00001220001CN0050001N9-03611+99999100721ADDAY101999GF102991021061000251001001MD1710141+9999MW1011
0057028640999991959012103004+65783+024583FM-12+001599999V0209991C00001000601CN0040001N9-03281+99999100551ADDAY111999GF106991061061000751999999MD1710181+9999MW1031
0070028640999991959012106004+65783+024583FM-12+001599999V0200201N00261021001CN0080001N9-03111+99999100261ADDAY111999GF106991061001022501071999KA1999N-03721MD1710281+9999MW1011
0057028640999991959012109004+65783+024583FM-12+001599999V0200201N00101021001CN0060001N9-02721+99999099991ADDAY121999GF107991071001022501071999MD1710281+9999MW1021
0057028640999991959012112004+65783+024583FM-12+001599999V0200501N00211030001CN0100001N9-02111-02281099641ADDAY121999GF108991011051008001021999MD1710351+9999MW1031
0057028640999991959012115004+65783+024583FM-12+001599999V0200701N00571030001CN0045001N9-01501-01611099191ADDAY121999GF108991011051008001021999MD1710441+9999MW1711
0081028640999991959012118004+65783+024583FM-12+001599999V0200701N00571021001CN0100001N9-01391-01501098891ADDAA199000591AY121999GF108991081001022501021999KA1999M-01391MD1710281+9999MW1711
0057028640999991959012121004+65783+024583FM-12+001599999V0200701N00621015001CN0100001N9-01281-01501098661ADDAY171999GF108991081001017501071999MD1710231+9999MW1711
0057028640999991959012200004+65783+024583FM-12+001599999V0200701N00571015001CN0300001N9-01281-01501098651ADDAY121999GF108991081051017501999999MD1610021+9999MW1021
0057028640999991959012203004+65783+024583FM-12+001599999V0200701N00571021001CN0080001N9-01391-01611098651ADDAY121999GF108991081001022501021999MD1410001+9999MW1701
0081028640999991959012206004+65783+024583FM-12+001599999V0200501N00511021001CN0080001N9-01391-01501098681ADDAA199000691AY121999GF108991081001022501021999KA1999N-01501MD1310031+9999MW1711
0057028640999991959012209004+65783+024583FM-12+001599999V0200501N00211021001CN0100001N9-01281-01501098841ADDAY171999GF108991081001022501021999MD1210161+9999MW1221
0057028640999991959012212004+65783+024583FM-12+001599999V0200501N00361030001CN0050001N9-01281-01391098961ADDAY171999GF108991041051004501021999MD1210111+9999MW1711
0081028640999991959012218004+65783+024583FM-12+001599999V0200201N00261021001CN0100001N9-01391-01611099251ADDAA199000391AY171999GF108991081001022501071999KA1999M-01221MD1210161+9999MW1711
0057028640999991959012221004+65783+024583FM-12+001599999V0203601N00211021001CN0300001N9-01391-01611099441ADDAY171999GF108991081001022501071999MD1210191+9999MW1021
0057028640999991959012400004+65783+024583FM-12+001599999V0200701N00821015001CN0010001N9-01221-01391098801ADDAY171999GF108991081001017501021999MD1210031+9999MW1751
0057028640999991959012403004+65783+024583FM-12+001599999V0200701N00721015001CN0050001N9-01221-01391098791ADDAY171999GF108991081001017501021999MD1710011+9999MW1731
0081028640999991959012406004+65783+024583FM-12+001599999V0200701N00671007801CN0050001N9-01221-01501098941ADDAA199003091AY171999GF108991061051008001021999KA1999N-01281MD1210141+9999MW1711
0057028640999991959012409004+65783+024583FM-12+001599999V0200701N00621007801CN0100001N9-01281-01501099211ADDAY171999GF108991081051008001999999MD1210291+9999MW1711
0057028640999991959012412004+65783+024583FM-12+001599999V0200501N00671007801CN0100001N9-01281-01611099481ADDAY171999GF108991061051008001021999MD1210271+9999MW1711
0057028640999991959012415004+65783+024583FM-12+001599999V0200401N00571030001CN0300001N9-01281-01721099791ADDAY171999GF108991031051008001021999MD1210301+9999MW1221
0081028640999991959012418004+65783+024583FM-12+001599999V0200201N00511075001CN0400001N9-01391-01721100081ADDAA199000391AY121999GF107991021001022501041071KA1999M-01281MD1210301+9999MW1011
0057028640999991959012421004+65783+024583FM-12+001599999V0200201N00361220001CN0500001N9-01391-01611100321ADDAY121999GF107991001001999999001071MD1210241+9999MW1021
0057028640999991959012500004+65783+024583FM-12+001599999V0200201N00461075001CN0200001N9-01281-01501100491ADDAY121999GF107991021001022501071071MD1210181+9999MW1701
0057028640999991959012503004+65783+024583FM-12+001599999V0200401N00461021001CN0120001N9-01281-01611100661ADDAY171999GF107991051001022501071071MD1210171+9999MW1711
0081028640999991959012506004+65783+024583FM-12+001599999V0200201N00311075001CN0100001N9-01501-01611100851ADDAA199000691AY171999GF107991041001022501011071KA1999N-01501MD1210181+9999MW1781
0057028640999991959012509004+65783+024583FM-12+001599999V0203601N00361220001CN0150001N9-01611-01781101051ADDAY171999GF104991041001022501041001MD1210201+9999MW1221
0057028640999991959012512004+65783+024583FM-12+001599999V0203601N00311220001CN0400001N9-01611-01781101141ADDAY101999GF102991021001022501041001MD1210081+9999MW1031
0057028640999991959012515004+65783+024583FM-12+001599999V0203601N00311220001CN0400001N9-01781-01891101321ADDAY101999GF102991021001022501041001MD1210191+9999MW1021
0081028640999991959012518004+65783+024583FM-12+001599999V0200201N00311220001CN0400001N9-01891-02111101441ADDAA199000391AY101999GF100991001001999999001001KA1999M-01391MD1210101+9999MW1021
0057028640999991959012521004+65783+024583FM-12+001599999V0203601N00411220001CN0500001N9-02111-02281101571ADDAY101999GF100991001001999999001001MD1210121+9999MW1021
0057028640999991959012600004+65783+024583FM-12+001599999V0203601N00411220001CN0500001N9-02501+99999101601ADDAY101999GF100991001001999999001001MD1210051+9999MW1021
0057028640999991959012603004+65783+024583FM-12+001599999V0209991C00001220001CN0400001N9-03001+99999101491ADDAY101999GF101991001001999999001011MD1810101+9999MW1031
0070028640999991959012606004+65783+024583FM-12+001599999V0201401N00211075001CN0200001N9-02721+99999101261ADDAY101999GF105991021001022501071021KA1999N-03221MD1710231+9999MW1031
0057028640999991959012609004+65783+024583FM-12+001599999V0201601N00361075001CN0150001N9-01721-01891100851ADDAY111999GF107991041001022501071071MD1710401+9999MW1031
0057028640999991959012612004+65783+024583FM-12+001599999V0202001N00571030001CN0050001N9-00891-01001100391ADDAY121999GF108991031051008001021999MD1710421+9999MW1711
0057028640999991959012615004+65783+024583FM-12+001599999V0202501N00361030001CN0070001N9-00781-00891100151ADDAY171999GF106991011051004501071001MD1710241+9999MW1011
0081028640999991959012618004+65783+024583FM-12+001599999V0202301N00211220001CN0400001N9-00721-00721099981ADDAA199000691AY111999GF101991011001022501041001KA1999M-00391MD1710171+9999MW1031
0057028640999991959012621004+65783+024583FM-12+001599999V0202901N00511220001CN0400001N9-00221-00391100141ADDAY101999GF101991011001022501041001MD1310161+9999MW1021
0057028640999991959012700004+65783+024583FM-12+001599999V0202901N00311220001CN0500001N9-00391-00721100741ADDAY101999GF101991011001022501041001MD1210601+9999MW1021
0057028640999991959012703004+65783+024583FM-12+001599999V0202901N00311220001CN0500001N9-00721-00891101121ADDAY101999GF100991001001999999001001MD1210391+9999MW1011
0070028640999991959012706004+65783+024583FM-12+001599999V0202701N00411220001CN0500001N9-00891-01111101441ADDAY101999GF100991001001999999001001KA1999N-01001MD1210321+9999MW1021
0057028640999991959012709004+65783+024583FM-12+001599999V0202901N00411220001CN0500001N9-00721-01001101781ADDAY101999GF101991011001022501041001MD1210331+9999MW1021
0057028640999991959012712004+65783+024583FM-12+001599999V0202201N00361220001CN0500001N9-00781-01001101991ADDAY101999GF102991011001022501041011MD1210211+9999MW1031
0057028640999991959012715004+65783+024583FM-12+001599999V0201801N00151030001CN0200001N9-01391-01501102021ADDAY111999GF107991041051004501071999MD1210041+9999MW1031
0070028640999991959012718004+65783+024583FM-12+001599999V0201601N00151220001CN0250001N9-00781-00891102201ADDAY121999GF104991031051004501021999KA1999M-00721MD1210131+9999MW1011
0057028640999991959012721004+65783+024583FM-12+001599999V0201401N00151015001CN0100001N9-00611-00781101791ADDAY111999GF108991081001017501021999MD1710271+9999MW1711
0057028640999991959012800004+65783+024583FM-12+001599999V0209991C00001000601CN0050001N9-00281-00281101511ADDAY171999GF108991081071000751999999MD1710271+9999MW1711
0057028640999991959012803004+65783+024583FM-12+001599999V0201801N00261030001CN0080001N9-00111-00111101181ADDAY171999GF108991031071001501021999MD1710341+9999MW1021
0081028640999991959012806004+65783+024583FM-12+001599999V0202001N00461030001CN0200001N9+00111+00111100981ADDAA199000691AY121999GF108991041051004501021999KA1999N-00891MD1710201+9999MW1031
0057028640999991959012809004+65783+024583FM-12+001599999V0201801N00151030001CN0200001N9+00001+00001100981ADDAY111999GF107991041051004501041061MD1010001+9999MW1031
0057028640999991959012812004+65783+024583FM-12+001599999V0201801N00311220001CN0150001N9-00111-00111101011ADDAY111999GF102991011001022501041051MD1310041+9999MW1011
0057028640999991959012815004+65783+024583FM-12+001599999V0209991C00001030001CN0002001N9-00501-00501101001ADDAY101999GF106991011051008001071021MD1710021+9999MW1461
0070028640999991959012818004+65783+024583FM-12+001599999V0202701N00261220001CN0005001N9-01001-01001101081ADDAY141999GF101991011001022501041001KA1999M+00111MD1210091+9999MW1421
0057028640999991959012821004+65783+024583FM-12+001599999V0209991C00001220001CN0500001N9-00781-00781101211ADDAY141999GF101991011001022501041001MD1210131+9999MW1021
0057028640999991959012900004+65783+024583FM-12+001599999V0209991C00001220001CN0300001N9-01501-01501101491ADDAY101999GF100991001001999999001001MD1210281+9999MW1121
0057028640999991959012903004+65783+024583FM-12+001599999V0209991C00001220001CN0400001N9-01221-01281101711ADDAY101999GF101991001001999999001011MD1210221+9999MW1021
0070028640999991959012906004+65783+024583FM-12+001599999V0200501N00311220001CN0400001N9-01391-01391101801ADDAY101999GF102991001001999999001021KA1999N-01611MD1210081+9999MW1021
0057028640999991959012909004+65783+024583FM-12+001599999V0202501N00211220001CN0150001N9-01391-01501101801ADDAY101999GF102991011051012501041021MD1410001+9999MW1111
0057028640999991959012912004+65783+024583FM-12+001599999V0201601N00151220001CN0150001N9-00721-00721101801ADDAY101999GF102991011001022501041051MD1410001+9999MW1021
0057028640999991959012918004+65783+024583FM-12+001599999V0201801N00461000601CN0070001N9-00221-00281101191ADDAY111999GF108991081061000751999999MD1710301+9999MW1021
0057028640999991959012921004+65783+024583FM-12+001599999V0201601N00461001501CN0120001N9-00221-00281101001ADDAY121999GF108991081071001501999999MD1710191+9999MW1031
0057028640999991959013000004+65783+024583FM-12+001599999V0202001N00311001501CN0150001N9-00111-00111100781ADDAY121999GF108991081071001501999999MD1710221+9999MW1021
0057028640999991959013003004+65783+024583FM-12+001599999V0202901N00411015001CN0120001N9+00111+00111100771ADDAY171999GF108991081001017501021999MD1610021+9999MW1681
0081028640999991959013006004+65783+024583FM-12+001599999V0209991C00001075001CN0300001N9+00111+00111100921ADDAA199001091AY171999GF107991041001022501071071KA1999N-00391MD1210171+9999MW1011
0057028640999991959013009004+65783+024583FM-12+001599999V0209991C00001030001CN0002001N9-00501-00501101081ADDAY121999GF105991011061004501071999MD1210161+9999MW1461
0057028640999991959013012004+65783+024583FM-12+001599999V0202901N00311220001CN0300001N9-00501-00501101181ADDAY111999GF102991021001022501041001MD1210091+9999MW1011
0057028640999991959013015004+65783+024583FM-12+001599999V0209991C00001220001CN0100001N9-01001-01111101181ADDAY101999GF101991011001022501041001MD1410001+9999MW1021
0070028640999991959013018004+65783+024583FM-12+001599999V0209991C00001220001CN0200001N9-01501-01721101201ADDAY101999GF100991001001999999001001KA1999M+00111MD1310021+9999MW1021
0057028640999991959013021004+65783+024583FM-12+001599999V0209991C00001220001CN0200001N9-01611-01781101241ADDAY101999GF100991001001999999001001MD1310051+9999MW1021
0057028640999991959013100004+65783+024583FM-12+001599999V0209991C00001220001CN0009001N9-01721-01891101281ADDAY101999GF100991001001999999001001MD1210031+9999MW1461
0057028640999991959013103004+65783+024583FM-12+001599999V0209991C00001000151CN0050001N9-01781-01891101291ADDAY141999GF108991081061000251999999MD1210011+9999MW1031
0070028640999991959013106004+65783+024583FM-12+001599999V0209991C00001000151CN0040001N9-01781-02001101251ADDAY121999GF108991081061000251999999KA1999N-02001MD1710041+9999MW1021
0057028640999991959013109004+65783+024583FM-12+001599999V0209991C00001000151CN0006001N9-01611-01721101311ADDAY121999GF109991091999000251999999MD1210071+9999MW1471
0076028640999991959013112004+65783+024583FM-12+001599999V0209991C00001000151CN0035001N9-01221-01281101311ADDAY141999GF107991071061000251999999MD1410001+9999MW1721EQDQ01+000032APCTEN
0057028640999991959013115004+65783+024583FM-12+001599999V0209991C00001000601CN0025001N9-01221-01281101401ADDAY171999GF107991061061000751071999MD1210081+9999MW1221
0070028640999991959013118004+65783+024583FM-12+001599999V0209991C00001220001CN0050001N9-01611-01781101661ADDAY121999GF100991001001999999001001KA1999M-01001MD1210281+9999MW1281
0057028640999991959013121004+65783+024583FM-12+001599999V0209991C00001220001CN0150001N9-02111-02281101941ADDAY101999GF100991001001999999001001MD1210261+9999MW1021
0057028640999991959020100004+65783+024583FM-12+001599999V0209991C00001220001CN0300001N9-02221-02391102021ADDAY101999GF102991021001022501041001MD1210081+9999MW1031
0057028640999991959020103004+65783+024583FM-12+001599999V0209991C00001220001CN0300001N9-02281-02391102341ADDAY101999GF100991001001999999001001MD1210281+9999MW1011
0070028640999991959020106004+65783+024583FM-12+001599999V0200501N00151220001CN0300001N9-02111-02281102461ADDAY101999GF101991011001022501041001KA1999N-02501MD1210161+9999MW1021
0057028640999991959020109004+65783+024583FM-12+001599999V0209991C00001220001CN0050001N9-02281-02391102611ADDAY141999GF101991011001022501041001MD1210141+9999MW1041
0057028640999991959020112004+65783+024583FM-12+001599999V0209991C00001075001CN0012001N9-01611-01721102591ADDAY101999GF106991011001022501041051MD1810021+9999MW1101
0057028640999991959020115004+65783+024583FM-12+001599999V0209991C00001075001CN0050001N9-01781-01891102451ADDAY111999GF106991011001022501041051MD1710131+9999MW1031
0070028640999991959020118004+65783+024583FM-12+001599999V0201601N00261075001CN0150001N9-01391-01501102061ADDAY121999GF106991011001022501041071KA1999M-01391MD1710371+9999MW1031
0057028640999991959020121004+65783+024583FM-12+001599999V0201801N00261075001CN0300001N9-00721-00781101721ADDAY121999GF106991041001022501071071MD1710351+9999MW1011
0057028640999991959020203004+65783+024583FM-12+001599999V0209991C00001220001CN0400001N9-01281-01281101511ADDAY101999GF101991011001022501041001MD1310031+9999MW1021
0070028640999991959020206004+65783+024583FM-12+001599999V0201801N00101220001CN0400001N9-01501-01611101651ADDAY101999GF100991001001999999001001KA1999N-01611MD1210141+9999MW1011
0057028640999991959020209004+65783+024583FM-12+001599999V0209991C00001075001CN0150001N9-01001-01111101721ADDAY101999GF105991021001022501041051MD1210071+9999MW1111
0057028640999991959020215004+65783+024583FM-12+001599999V0202801N00511220001CN0500001N9-00221-00391101651ADDAY121999GF102991011051008001041021MD1110011+9999MW1011
0070028640999991959020218004+65783+024583FM-12+001599999V0202901N00571220001CN0500001N9-00221-00391101681ADDAY111999GF101991011001022501041001KA1999M-00111MD1310031+9999MW1011
0057028640999991959020221004+65783+024583FM-12+001599999V0202901N00621220001CN0500001N9-00111-00391101861ADDAY101999GF101991011001022501041001MD1210191+9999MW1011
0057028640999991959020300004+65783+024583FM-12+001599999V0203201N00361220001CN0050001N9-00111-00391102091ADDAY101999GF102991021001022501041001MD1210231+9999MW1031
0057028640999991959020303004+65783+024583FM-12+001599999V0209991C00001220001CN0500001N9-01001-01111102281ADDAY101999GF104991041001022501041001MD1210181+9999MW1031
0081028640999991959020306004+65783+024583FM-12+001599999V0209991C00001021001CN0400001N9-00501-00501102411ADDAA199000691AY121999GF107991071001022501071999KA1999N-01111MD1210131+9999MW1021
0057028640999991959020309004+65783+024583FM-12+001599999V0201801N00101030001CN0150001N9-00281-00281102511ADDAY121999GF108991031051004501071999MD1210101+9999MW1031
0057028640999991959020315004+65783+024583FM-12+001599999V0201801N00261007801CN0300001N9-00221-00221102261ADDAY121999GF107991051051008001071999MD1710151+9999MW1031
0070028640999991959020318004+65783+024583FM-12+001599999V0202301N00311021001CN0400001N9-00111-00221102141ADDAY121999GF106991061001022501071999KA1999M+00001MD1710141+9999MW1021
0057028640999991959020321004+65783+024583FM-12+001599999V0202701N00211021001CN0400001N9-00221-00281101971ADDAY111999GF106991061001022501071999MD1710181+9999MW1031
0057028640999991959020400004+65783+024583FM-12+001599999V0202701N00511015001CN0500001N9-00221-00611101741ADDAY121999GF108991081001017501071999MD1710221+9999MW1031
0057028640999991959020403004+65783+024583FM-12+001599999V0202701N00511220001CN0500001N9+00111-00111101681ADDAY101999GF100991001001999999001001MD1710051+9999MW1011
0070028640999991959020406004+65783+024583FM-12+001599999V0202701N00511021001CN0500001N9+00221-00221101481ADDAY101999GF106991051001022501071021KA1999N-00501MD1710201+9999MW1031
0057028640999991959020409004+65783+024583FM-12+001599999V0202701N00721220001CN0500001N9+00111-00281101221ADDAY121999GF105991011001022501041061MD1710261+9999MW1011
0057028640999991959020412004+65783+024583FM-12+001599999V0203201N00981220001CN0500001N9+00281-00501101311ADDAY101999GF103991011011008001001061MD1210091+9999MW1031
0057028640999991959020415004+65783+024583FM-12+001599999V0203201N00871220001CN0500001N9+00221-00501101491ADDAY101999GF102991001001999999001051MD1210181+9999MW1021
0070028640999991959020418004+65783+024583FM-12+001599999V0202901N00721220001CN0500001N9+00111-00501101621ADDAY101999GF101991011001022501041001KA1999M+00391MD1210131+9999MW1021
0057028640999991959020500004+65783+024583FM-12+001599999V0202901N00771220001CN0500001N9+00001-00611101841ADDAY101999GF100991001001999999001001MD1210061+9999MW1021
0057028640999991959020503004+65783+024583FM-12+001599999V0202901N00361220001CN0500001N9-00281-00781102001ADDAY101999GF100991001001999999001001MD1210151+9999MW1021
0070028640999991959020506004+65783+024583FM-12+001599999V0202901N00311220001CN0500001N9-00501-00781102151ADDAY101999GF101991011051008001001001KA1999N-00501MD1210151+9999MW1021
0057028640999991959020512004+65783+024583FM-12+001599999V0203301N00621030001CN0500001N9+00001-00611102641ADDAY111999GF107991021051008001041071MD1210251+9999MW1011
0057028640999991959020515004+65783+024583FM-12+001599999V0203201N00311220001CN0500001N9-00221-00611102811ADDAY121999GF106991021001022501041061MD1210171+9999MW1011
0070028640999991959020518004+65783+024583FM-12+001599999V0209991C00001021001CN0400001N9-00781-01001102861ADDAY121999GF106991061001022501071999KA1999M+00001MD1110061+9999MW1031
0057028640999991959020521004+65783+024583FM-12+001599999V0209991C00001021001CN0400001N9-00721-00781102891ADDAY121999GF108991081001022501071999MD1310021+9999MW1031
0057028640999991959020600004+65783+024583FM-12+001599999V0202001N00151220001CN0500001N9-00501-00721102801ADDAY101999GF101991011001022501041001MD1810011+9999MW1011
0057028640999991959020603004+65783+024583FM-12+001599999V0202001N00411220001CN0500001N9-00611-00721102541ADDAY101999GF101991011001022501041001MD1710261+9999MW1021
0070028640999991959020606004+65783+024583FM-12+001599999V0201801N00261000151CN0010001N9-00721-00721102371ADDAY101999GF108991081061000251999999KA1999N-00891MD1710181+9999MW1101
0057028640999991959020609004+65783+024583FM-12+001599999V0202501N00211075001CN0150001N9-00501-00501102211ADDAY141999GF105991011071000751041011MD1610141+9999MW1761
0057028640999991959020612004+65783+024583FM-12+001599999V0202301N00211021001CN0100001N9-00611-00611102081ADDAY121999GF107991061001022501071011MD1710131+9999MW1041
0057028640999991959020615004+65783+024583FM-12+001599999V0209991C00001021001CN0150001N9-00891-00891102011ADDAY121999GF106991061001022501071999MD1710071+9999MW1011
0057028640999991959020621004+65783+024583FM-12+001599999V0209991C00001220001CN0250001N9-00891-00891101821ADDAY101999GF101991011001022501041001MD1710101+9999MW1021
0057028640999991959020700004+65783+024583FM-12+001599999V0201701N00211220001CN0200001N9-01001-01001101791ADDAY101999GF105991001001999999001051MD1710041+9999MW1031
0057028640999991959020703004+65783+024583FM-12+001599999V0201801N00311021001CN0250001N9-00781-00891101721ADDAY111999GF105991051001022501071001MD1710061+9999MW1011
0070028640999991959020706004+65783+024583FM-12+001599999V0201801N00261021001CN0200001N9-00721-00721101711ADDAY111999GF107991071001022501071999KA1999N-01221MD1610011+9999MW1021
0057028640999991959020709004+65783+024583FM-12+001599999V0201801N00101030001CN0200001N9-00721-00721101761ADDAY121999GF107991021051008001071999MD1210081+9999MW1021
0057028640999991959020712004+65783+024583FM-12+001599999V0202301N00151030001CN0200001N9-00281-00391101761ADDAY121999GF107991031051008001071999MD1410001+9999MW1031
0057028640999991959020715004+65783+024583FM-12+001599999V0209991C00001030001CN0200001N9-00281-00391101811ADDAY121999GF107991031051008001071999MD1210061+9999MW1031
0070028640999991959020718004+65783+024583FM-12+001599999V0209991C00001021001CN0300001N9-00391-00501101941ADDAY121999GF107991071001022501071999KA1999M-00221MD1210121+9999MW1021
0057028640999991959020721004+65783+024583FM-12+001599999V0209991C00001007801CN0300001N9-00391-00391102121ADDAY121999GF108991051051008001071999MD1210191+9999MW1031
0057028640999991959020803004+65783+024583FM-12+001599999V0209991C00001220001CN0400001N9-00611-00611102221ADDAY101999GF103991031001022501041001MD1210071+9999MW1021
0070028640999991959020806004+65783+024583FM-12+001599999V0201401N00101220001CN0500001N9-00721-00781102261ADDAY101999GF103991021001022501041011KA1999N-00891MD1010051+9999MW1031
0057028640999991959020812004+65783+024583FM-12+001599999V0201801N00361220001CN0500001N9-00391-00611102341ADDAY101999GF101991001001999999001011MD1810011+9999MW1021
0057028640999991959020815004+65783+024583FM-12+001599999V0201401N00211220001CN0300001N9-00721-00781102281ADDAY101999GF102991011001022501041011MD1710051+9999MW1021
0081028640999991959020818004+65783+024583FM-12+001599999V0201801N00411000601CN0040001N9-00721-00721102141ADDAA199000691AY101999GF108991081071000751999999KA1999M-00391MD1710151+9999MW1771
0057028640999991959020821004+65783+024583FM-12+001599999V0202001N00721000601CN0030001N9-00281-00281102001ADDAY121999GF108991081071000751999999MD1710141+9999MW1761
0057028640999991959020900004+65783+024583FM-12+001599999V0201801N00821000601CN0045001N9-00391-00391101821ADDAY171999GF107991071071000751999999MD1710171+9999MW1761
0057028640999991959020903004+65783+024583FM-12+001599999V0202301N00621000601CN0050001N9-00391-00501101591ADDAY171999GF108991081071000751999999MD1710241+9999MW1031
0081028640999991959020906004+65783+024583FM-12+001599999V0202701N00411021001CN0200001N9-00501-00611101661ADDAA199000591AY121999GF106991061001022501071999KA1999N-00611MD1510091+9999MW1031
0057028640999991959020909004+65783+024583FM-12+001599999V0202801N00461030001CN0400001N9-00281-00501101861ADDAY121999GF107991011081008001041081MD1210201+9999MW1031
0057028640999991959020912004+65783+024583FM-12+001599999V0202701N00311030001CN0500001N9-00221-00501102091ADDAY121999GF107991011051008001041081MD1210231+9999MW1031
0057028640999991959020915004+65783+024583FM-12+001599999V0202701N00261220001CN0500001N9-00281-00611102341ADDAY121999GF105991011001022501041061MD1210231+9999MW1011
0070028640999991959020918004+65783+024583FM-12+001599999V0202701N00311220001CN0500001N9-00721-00781102591ADDAY121999GF101991011001022501041001KA1999M-00111MD1210251+9999MW1011
0057028640999991959020921004+65783+024583FM-12+001599999V0203401N00101220001CN0500001N9-01111-01221102861ADDAY101999GF100991001001999999001001MD1210291+9999MW1021
0057028640999991959021000004+65783+024583FM-12+001599999V0209991C00001220001CN0500001N9-01221-01281103041ADDAY101999GF100991001001999999001001MD1210171+9999MW1021
0057028640999991959021003004+65783+024583FM-12+001599999V0209991C00001220001CN0500001N9-01501-01721103181ADDAY101999GF100991001001999999001001MD1210131+9999MW1021
0070028640999991959021006004+65783+024583FM-12+001599999V0200201N00101220001CN0400001N9-01721-01781103211ADDAY101999GF102991001001999999001011KA1999N-01781MD1210021+9999MW1031
0057028640999991959021012004+65783+024583FM-12+001599999V0201801N00101220001CN0100001N9-00781-00891103311ADDAY101999GF102991001001999999001021MD1710011+9999MW1041
0057028640999991959021015004+65783+024583FM-12+001599999V0201601N00211220001CN0250001N9-01001-01001103261ADDAY101999GF104991001001999999041021MD1510041+9999MW1011
0070028640999991959021018004+65783+024583FM-12+001599999V0201601N00211220001CN0300001N9-01111-01221103181ADDAY111999GF101991011001022501041001KA1999M-00721MD1710101+9999MW1021
0057028640999991959021021004+65783+024583FM-12+001599999V0201601N00211220001CN0300001N9-01001-01111103111ADDAY101999GF100991001001999999001001MD1710061+9999MW1021
0057028640999991959021100004+65783+024583FM-12+001599999V0209991C00001220001CN0200001N9-01391-01501103041ADDAY101999GF102991021061001501001001MD1710071+9999MW1031
0057028640999991959021103004+65783+024583FM-12+001599999V0209991C00001000601CN0060001N9-01281-01501103001ADDAY101999GF105991051061000751001001MD1710051+9999MW1031
0070028640999991959021106004+65783+024583FM-12+001599999V0201801N00211220001CN0100001N9-01221-01281102961ADDAY111999GF104991031061000751041001KA1999N-01501MD1710041+9999MW1031
0057028640999991959021112004+65783+024583FM-12+001599999V0201801N00461220001CN0200001N9-00501-00611102871ADDAY101999GF102991011051002501041001MD1710061+9999MW1041
0057028640999991959021115004+65783+024583FM-12+001599999V0201801N00311220001CN0200001N9-00611-00721102811ADDAY101999GF101991011001022501041001MD1710071+9999MW1011
0070028640999991959021118004+65783+024583FM-12+001599999V0201801N00101220001CN0400001N9-00611-00611102781ADDAY101999GF100991001001999999001001KA1999M-00501MD1710041+9999MW1011
0057028640999991959021121004+65783+024583FM-12+001599999V0201801N00101220001CN0500001N9-00721-00721102781ADDAY101999GF100991001001999999001001MD1410001+9999MW1021
0057028640999991959021200004+65783+024583FM-12+001599999V0209991C00001220001CN0500001N9-00611-00721102741ADDAY101999GF100991001001999999001001MD1710041+9999MW1021
0057028640999991959021203004+65783+024583FM-12+001599999V0202001N00211220001CN0500001N9-00611-00721102721ADDAY101999GF100991001001999999001001MD1710011+9999MW1021
0057028640999991959021209004+65783+024583FM-12+001599999V0201801N00151220001CN0400001N9-00611-00611102801ADDAY101999GF100991001001999999001001MD1210071+9999MW1021
0057028640999991959021212004+65783+024583FM-12+001599999V0201801N00211220001CN0400001N9-00501-00501102811ADDAY101999GF100991001001999999001001MD1310021+9999MW1021
0057028640999991959021215004+65783+024583FM-12+001599999V0201801N00571000601CN0040001N9-00391-00501102811ADDAY101999GF108991081061000751999999MD1410001+9999MW1701
0081028640999991959021218004+65783+024583FM-12+001599999V0201801N00511000601CN0035001N9-00281-00391102751ADDAA199000691AY171999GF108991081061000751999999KA1999M-00281MD1710071+9999MW1761
0057028640999991959021221004+65783+024583FM-12+001599999V0201801N00571220001CN0100001N9-00391-00501102661ADDAY171999GF104991041071001501999999MD1710071+9999MW1221
0057028640999991959021300004+65783+024583FM-12+001599999V0201801N00211220001CN0200001N9-00781-00891102751ADDAY111999GF101991011001022501041001MD1210071+9999MW1011
0092028640999991959021303004+65783+024583FM-12+001599999V0201801N00211220001CN0200001N9-01001-01111102741ADDAY101999GF103991031001022501041001MD1710011+9999MW1031EQDQ01+000042APCTENQ02+000012APC3  
0081028640999991959021306004+65783+024583FM-12+001599999V0201801N00101220001CN0200001N9-01221-01281102991ADDAA199000591AY101999GF104991011051004501041001KA1999N-01391MD1210251+9999MW1031
0057028640999991959021309004+65783+024583FM-12+001599999V0209991C00001030001CN0040001N9-01281-01391103211ADDAY111999GF107991011011004501041071MD1210231+9999MW1041
0057028640999991959021312004+65783+024583FM-12+001599999V0209991C00001220001CN0035001N9-00891-01001103391ADDAY121999GF104991011051004501041051MD1210171+9999MW1041
0057028640999991959021315004+65783+024583FM-12+001599999V0209991C00001220001CN0200001N9-01001-01111103511ADDAY101999GF102991011001022501041041MD1210131+9999MW1011
0070028640999991959021318004+65783+024583FM-12+001599999V0201601N00151220001CN0100001N9-01001-01001103571ADDAY101999GF101991011001022501071001KA1999M-00781MD1110041+9999MW1021
0057028640999991959021321004+65783+024583FM-12+001599999V0201601N00151220001CN0200001N9-00721-00721103481ADDAY101999GF101991011001022501071001MD1710071+9999MW1021
0057028640999991959021400004+65783+024583FM-12+001599999V0209991C00001220001CN0150001N9-00891-01001103341ADDAY101999GF102991021061001501001001MD1710151+9999MW1031
0057028640999991959021403004+65783+024583FM-12+001599999V0201601N00311001501CN0150001N9-00721-00721103241ADDAY121999GF108991081061001501999999MD1710091+9999MW1021
0070028640999991959021406004+65783+024583FM-12+001599999V0201801N00511001501CN0050001N9-00611-00611103141ADDAY121999GF108991081061001501999999KA1999N-01001MD1710111+9999MW1021
0057028640999991959021409004+65783+024583FM-12+001599999V0201801N00411001501CN0040001N9-00721-00721103021ADDAY121999GF108991081061001501999999MD1710111+9999MW1031
0057028640999991959021412004+65783+024583FM-12+001599999V0202001N00821001501CN0020001N9-00391-00391102891ADDAY171999GF108991081061001501999999MD1710121+9999MW1771
0057028640999991959021415004+65783+024583FM-12+001599999V0202001N00671001501CN0045001N9-00501-00501102711ADDAY171999GF108991081071001501999999MD1710191+9999MW1771
0057028640999991959021421004+65783+024583FM-12+001599999V0201801N00771001501CN0040001N9-00501-00611102111ADDAY171999GF108991081071001501999999MD1710281+9999MW1771
0057028640999991959021500004+65783+024583FM-12+001599999V0201901N00871001501CN0045001N9-00501-00611101821ADDAY171999GF108991081071001501999999MD1710291+9999MW1771
0057028640999991959021503004+65783+024583FM-12+001599999V0201901N00771001501CN0020001N9-00391-00391101521ADDAY171999GF108991081071001501999999MD1710301+9999MW1771
0057028640999991959021509004+65783+024583FM-12+001599999V0202301N00361021001CN0100001N9-00501-00501101621ADDAY171999GF107991071001022501041999MD1210211+9999MW1221
0057028640999991959021515004+65783+024583FM-12+001599999V0202301N00101220001CN0500001N9-00391-00611102111ADDAY101999GF101991001001999999001011MD1210321+9999MW1031
0081028640999991959021518004+65783+024583FM-12+001599999V0209991C00001220001CN0500001N9-00501-00611102451ADDAA199001091AY101999GF100991001001999999001001KA1999M-00221MD1210341+9999MW1011
0057028640999991959021521004+65783+024583FM-12+001599999V0209991C00001220001CN0500001N9-00611-00781102661ADDAY101999GF100991001001999999001001MD1210221+9999MW1021
0057028640999991959021600004+65783+024583FM-12+001599999V0202301N00101220001CN0500001N9-00611-00721102711ADDAY101999GF102991001001999999001021MD1210041+9999MW1031
0057028640999991959021603004+65783+024583FM-12+001599999V0202301N00511220001CN0500001N9-00281-00501102551ADDAY101999GF104991001001999999001051MD1710171+9999MW1031
0070028640999991959021606004+65783+024583FM-12+001599999V0202301N00931075001CN0500001N9-00281-00501102311ADDAY121999GF106991031001022501041051KA1999N-01111MD1710231+9999MW1031
0057028640999991959021609004+65783+024583FM-12+001599999V0202001N00771075001CN0500001N9-00221-00391102041ADDAY121999GF107991041001022501071071MD1710271+9999MW1011
0057028640999991959021612004+65783+024583FM-12+001599999V0202001N00821075001CN0500001N9-00221-00391101721ADDAY121999GF107991021001022501041071MD1710321+9999MW1011
0057028640999991959021615004+65783+024583FM-12+001599999V0202301N00821030001CN0250001N9-00221-00281101241ADDAY121999GF108991021071001501071999MD1710481+9999MW1031
0070028640999991959021618004+65783+024583FM-12+001599999V0201801N00721030001CN0200001N9-00221-00281100481ADDAY121999GF108991021071002501071999KA1999M-00221MD1710761+9999MW1761
0092028640999991959021621004+65783+024583FM-12+001599999V0202001N01131075001CN0250001N9+00001-00111999999ADDAY121999GF108991041001022501041071MD1710762+9999MW1221EQDQ01+099723APOSLPQ02+000762APC3  
0057028640999991959021700004+65783+024583FM-12+001599999V0202301N00931220001CN0300001N9+00221-00391100791ADDAY121999GF108991001001999999071071MD1710141+9999MW1011
0057028640999991959021703004+65783+024583FM-12+001599999V0202301N00771220001CN0500001N9-00221-00611100921ADDAY121999GF100991001001999999001001MD1210421+9999MW1011
0081028640999991959021706004+65783+024583FM-12+001599999V0202201N00571030001CN0500001N9-00281-00501100911ADDAA199000691AY101999GF107991011051004501071999KA1999N-00611MD1710011+9999MW1031
0057028640999991959021709004+65783+024583FM-12+001599999V0202301N00571004501CN0250001N9-00111-00111100581ADDAY121999GF107991051051004501071999MD1710341+9999MW1711
0057028640999991959021712004+65783+024583FM-12+001599999V0202801N00671004501CN0500001N9-00111-00391100771ADDAY171999GF106991051091004501041021MD1210181+9999MW1011
0057028640999991959021715004+65783+024583FM-12+001599999V0202701N00461220001CN0500001N9-00391-00781101021ADDAY101999GF104991011081008001041051MD1210271+9999MW1011
0057028640999991959021721004+65783+024583FM-12+001599999V0202901N00261220001CN0500001N9-00281-00721101191ADDAY111999GF103991031001012501041001MD1210141+9999MW1011
0057028640999991959021800004+65783+024583FM-12+001599999V0202401N00411220001CN0500001N9-00501-00611101281ADDAY101999GF102991021001022501071001MD1210101+9999MW1011
0057028640999991959021803004+65783+024583FM-12+001599999V0209991C00001220001CN0500001N9-00611-00781101411ADDAY101999GF101991011001022501071001MD1210131+9999MW1011
0057028640999991959021809004+65783+024583FM-12+001599999V0201101N00211030001CN0400001N9-00501-00721101571ADDAY121999GF107991011051008001071999MD1210071+9999MW1011
0057028640999991959021812004+65783+024583FM-12+001599999V0201501N00571021001CN0400001N9-00281-00721101481ADDAY121999GF108991081001022501071999MD1710071+9999MW1031
0081028640999991959021818004+65783+024583FM-12+001599999V0201701N00931001501CN0250001N9+00001-00111100751ADDAA199000691AY151999GF108991081061001501999999KA1999M+00001MD1710431+9999MW1031
0057028640999991959021821004+65783+024583FM-12+001599999V0202201N00871021001CN0300001N9+00221+00001100381ADDAY121999GF106991061001022501071999MD1710371+9999MW1011
0057028640999991959021900004+65783+024583FM-12+001599999V0202401N00871220001CN0300001N9+00281-00111100111ADDAY121999GF107991001001999999001071MD1710261+9999MW1021
0057028640999991959021903004+65783+024583FM-12+001599999V0202401N00511220001CN0250001N9+00221+00001099941ADDAY121999GF106991001001999999071021MD1710181+9999MW1031
0070028640999991959021906004+65783+024583FM-12+001599999V0202501N00671030001CN0300001N9+00221-00221099611ADDAY121999GF107991021051004501021999KA1999N+00001MD1710321+9999MW1031
0057028640999991959021912004+65783+024583FM-12+001599999V0202701N00621030001CN0400001N9+00111-00221099381ADDAY121999GF107991031051008001071999MD1710071+9999MW1021
0057028640999991959021915004+65783+024583FM-12+001599999V0202701N00571075001CN0500001N9+00001-00611099461ADDAY121999GF106991031001022501041051MD1210101+9999MW1031
0070028640999991959021918004+65783+024583FM-12+001599999V0202501N00621075001CN0500001N9-00281-00891099441ADDAY121999GF105991011001022501041021KA1999M+00281MD1810031+9999MW1031
0057028640999991959021921004+65783+024583FM-12+001599999V0202001N00931021001CN0500001N9-00221-00391099001ADDAY121999GF106991051001022501071021MD1710451+9999MW1011
0057028640999991959022000004+65783+024583FM-12+001599999V0202001N01231004501CN0020001N9+00001+00001098061ADDAY171999GF108991051071004501021999MD1710911+9999MW1681
0057028640999991959022003004+65783+024583FM-12+001599999V0202201N01031220001CN0500001N9-00111-00281097571ADDAY111999GF102991021001022501041001MD1710441+9999MW1011
0081028640999991959022006004+65783+024583FM-12+001599999V0202001N01131021001CN0200001N9-00111-00221097221ADDAA199001091AY131999GF107991071001022501071999KA1999N-00391MD1710331+9999MW1031
0057028640999991959022012004+65783+024583FM-12+001599999V0202501N00671030001CN0500001N9+00001-00281096591ADDAY131999GF107991041051004501071999MD1710261+9999MW1021
0057028640999991959022015004+65783+024583FM-12+001599999V0202701N00571002401CN0200001N9+00001-00111096641ADDAY121999GF108991051051002501071999MD1210061+9999MW1281
0057028640999991959022021004+65783+024583FM-12+001599999V0203201N00621030001CN0200001N9-00501-00721096821ADDAY121999GF107991021051004501071999MD1210091+9999MW1701
0057028640999991959022100004+65783+024583FM-12+001599999V0203301N00621021001CN0050001N9-00391-00611096851ADDAY171999GF107991071001022501071999MD1210031+9999MW1711
0057028640999991959022103004+65783+024583FM-12+001599999V0203401N00871030001CN0050001N9-00501-00611097011ADDAY171999GF108991021051004501021999MD1210151+9999MW1701
0057028640999991959022109004+65783+024583FM-12+001599999V0203401N01031004501CN0200001N9-00501-00891097411ADDAY171999GF107991051051004501071999MD1210261+9999MW1711
0057028640999991959022112004+65783+024583FM-12+001599999V0203501N00821030001CN0250001N9-00391-00781097601ADDAY171999GF106991041051004501071999MD1210201+9999MW1221
0057028640999991959022115004+65783+024583FM-12+001599999V0203401N01131030001CN0150001N9-00501-00891097851ADDAY171999GF108991021071004501071999MD1210261+9999MW1711
0081028640999991959022118004+65783+024583FM-12+001599999V0203401N01081021001CN0300001N9-00611-01001098041ADDAA199000591AY171999GF107991071001022501071999KA1999M-00391MD1210171+9999MW1221
0057028640999991959022121004+65783+024583FM-12+001599999V0203401N00721220001CN0500001N9-00721-01221098161ADDAY121999GF106991001001999999001071MD1210111+9999MW1011
0057028640999991959022200004+65783+024583FM-12+001599999V0203401N01031021001CN0500001N9-00611-00891098211ADDAY121999GF107991071001022501071999MD1210061+9999MW1031
0057028640999991959022203004+65783+024583FM-12+001599999V0203401N00771021001CN0100001N9-00501-00781098351ADDAY121999GF107991071001022501071999MD1210131+9999MW1701
0081028640999991959022206004+65783+024583FM-12+001599999V0203401N00871030001CN0030001N9-00501-00611098641ADDAA199000591AY171999GF108991021071004501021999KA1999N-00721MD1210301+9999MW1731
0057028640999991959022209004+65783+024583FM-12+001599999V0203401N00871220001CN0250001N9-00391-00721099041ADDAY171999GF103991021001022501041021MD1210401+9999MW1361
0057028640999991959022212004+65783+024583FM-12+001599999V0203501N00771030001CN0400001N9-00281-00781099421ADDAY111999GF107991011051004501041071MD1210381+9999MW1031
0057028640999991959022215004+65783+024583FM-12+001599999V0203501N00671220001CN0500001N9-00391-00891099861ADDAY121999GF103991011051008001041021MD1210451+9999MW1011
0081028640999991959022218004+65783+024583FM-12+001599999V0203501N00461220001CN0500001N9-00611-01111100241ADDAA199000391AY111999GF101991011001022501041001KA1999M-00281MD1210371+9999MW1011
0057028640999991959022221004+65783+024583FM-12+001599999V0203501N00261220001CN0500001N9-01001-01281100541ADDAY101999GF100991001001999999001001MD1210291+9999MW1021
0057028640999991959022300004+65783+024583FM-12+001599999V0209991C00001220001CN0500001N9-01611-01781100681ADDAY101999GF107991001001999999001071MD1210151+9999MW1031
0057028640999991959022303004+65783+024583FM-12+001599999V0209991C00001075001CN0500001N9-01781-01891100841ADDAY121999GF107991021001022501041071MD1210141+9999MW1031
0070028640999991959022306004+65783+024583FM-12+001599999V0209991C00001075001CN0150001N9-01721-01781100841ADDAY121999GF107991021001022501021071KA1999N-01781MD1410001+9999MW1041
0092028640999991959022309004+65783+024583FM-12+001599999V0209991C00001075001CN0200001N9-01221-01281100811ADDAY121999GF107991031001022501021071MD1710031+9999MW1041EQDQ01+000042APCTENQ02+000012APC3  
0057028640999991959022312004+65783+024583FM-12+001599999V0201601N00461075001CN0400001N9-01001-01221100581ADDAY121999GF108991031001022501021071MD1710241+9999MW1021
0057028640999991959022315004+65783+024583FM-12+001599999V0201601N00931021001CN0400001N9-00781-00891100221ADDAY121999GF108991081001022501021999MD1710351+9999MW1031
0057028640999991959022318004+65783+024583FM-12+001599999V0201701N00931021001CN0080001N9-00721-00891099851ADDAY121999GF108991081001022501021999MD1710271+9999MW1711
0057028640999991959022321004+65783+024583FM-12+001599999V0201701N01131000151CN0007001N9-00611-00611099421ADDAY171999GF109991091999000251999999MD1710431+9999MW1751
0057028640999991959022400004+65783+024583FM-12+001599999V0201701N00931015001CN0020001N9-00391-00501099041ADDAY171999GF108991081001017501021999MD1710381+9999MW1731
0057028640999991959022403004+65783+024583FM-12+001599999V0201701N00931000151CN0008001N9-00391-00501098641ADDAY171999GF109991091999000251999999MD1710401+9999MW1751
0057028640999991959022409004+65783+024583FM-12+001599999V0201501N00771015001CN0025001N9-00501-00501098201ADDAY171999GF108991081001017501021999MD1610141+9999MW1731
0057028640999991959022412004+65783+024583FM-12+001599999V0201401N00411015001CN0013001N9-00391-00391098291ADDAY171999GF108991081001017501021999MD1210081+9999MW1731
0057028640999991959022415004+65783+024583FM-12+001599999V0209991C00001030001CN0035001N9-00281-00391098591ADDAY171999GF108991021071002501021999MD1210291+9999MW1731
0081028640999991959022418004+65783+024583FM-12+001599999V0209991C00001220001CN0100001N9-00501-00611098781ADDAA199004091AY171999GF104991021051002501071001KA1999M-00281MD1210191+9999MW1011
0057028640999991959022421004+65783+024583FM-12+001599999V0202901N00211220001CN0500001N9-00781-00891098881ADDAY111999GF100991001001999999001001MD1210111+9999MW1011
0057028640999991959022500004+65783+024583FM-12+001599999V0202701N00211021001CN0500001N9-00781-00891099081ADDAY101999GF105991051001022501041001MD1210201+9999MW1031
0057028640999991959022503004+65783+024583FM-12+001599999V0202701N00211030001CN0400001N9-00891-01001099261ADDAY121999GF106991011051008001071999MD1210191+9999MW1031
0070028640999991959022506004+65783+024583FM-12+001599999V0202901N00101220001CN0500001N9-00891-01001099391ADDAY111999GF101991011001022501041001KA1999N-01001MD1210111+9999MW1011
0057028640999991959022509004+65783+024583FM-12+001599999V0209991C00001220001CN0150001N9-00891-01111099571ADDAY101999GF101991011001022501041001MD1210171+9999MW1041
0057028640999991959022512004+65783+024583FM-12+001599999V0202801N00311220001CN0400001N9-00781-00781099781ADDAY101999GF101991011001022501041001MD1210221+9999MW1021
0070028640999991959022518004+65783+024583FM-12+001599999V0209991C00001220001CN0500001N9-01391-01391100151ADDAY101999GF101991011001022501071001KA1999M-00781MD1210251+9999MW1021
0057028640999991959022521004+65783+024583FM-12+001599999V0209991C00001220001CN0300001N9-01611-01721100161ADDAY101999GF107991001001999999001071MD1110011+9999MW1031
0057028640999991959022600004+65783+024583FM-12+001599999V0209991C00001075001CN0500001N9-01281-01391100061ADDAY121999GF107991041001022501071071MD1710081+9999MW1031
0057028640999991959022603004+65783+024583FM-12+001599999V0209991C00001030001CN0500001N9-00721-00891099641ADDAY121999GF108991031051004501021999MD1710431+9999MW1031
0081028640999991959022606004+65783+024583FM-12+001599999V0201401N00931015001CN0010001N9-00501-00501099181ADDAA199000591AY121999GF108991081001017501021999KA1999N-01781MD1710471+9999MW1751
0057028640999991959022609004+65783+024583FM-12+001599999V0201501N00931015001CN0020001N9-00391-00391098851ADDAY171999GF108991081001017501021999MD1710321+9999MW1731
0057028640999991959022612004+65783+024583FM-12+001599999V0201701N00311030001CN0040001N9-00281-00281098981ADDAY171999GF108991011071004501021999MD1310121+9999MW1711
0057028640999991959022615004+65783+024583FM-12+001599999V0202701N00311220001CN0080001N9-00281-00281099391ADDAY121999GF102991021001022501041001MD1210411+9999MW1011
0081028640999991959022618004+65783+024583FM-12+001599999V0202701N00361220001CN0300001N9-00281-00501099761ADDAA199003091AY121999GF101991011001022501041001KA1999M+00111MD1210371+9999MW1021
0057028640999991959022621004+65783+024583FM-12+001599999V0202501N00311220001CN0300001N9-00391-00721999999ADDAY101999GF101991011001022501041001MD1210241+9999MW1021
0057028640999991959022700004+65783+024583FM-12+001599999V0202201N00361220001CN0400001N9-00391-00611099911ADDAY101999GF107991001001999999001071MD1810081+9999MW1031
0070028640999991959022706004+65783+024583FM-12+001599999V0202501N00721030001CN0400001N9-00111-00281099011ADDAY121999GF108991021051008001021999KA1999N-00891MD1710461+9999MW1031
0057028640999991959022709004+65783+024583FM-12+001599999V0202301N00821001501CN0020001N9+00001+00001098841ADDAY121999GF108991061071001501021999MD1710171+9999MW1691
0057028640999991959022712004+65783+024583FM-12+001599999V0201401N00621220001CN0500001N9+00111-00111098861ADDAY121999GF102991011051004501041001MD1310031+9999MW1011
0057028640999991959022715004+65783+024583FM-12+001599999V0202601N00871007801CN0500001N9+00281-00221098851ADDAY101999GF107991051051008001071999MD1610011+9999MW1031
0081028640999991959022718004+65783+024583FM-12+001599999V0203201N00721220001CN0500001N9+00281-00221099261ADDAA199000591AY121999GF103991031001022501071001KA1999M+00391MD1210411+9999MW1011
0057028640999991959022721004+65783+024583FM-12+001599999V0203401N00621220001CN0500001N9+00111-00611100061ADDAY101999GF100991001001999999001001MD1210791+9999MW1011
0057028640999991959022800004+65783+024583FM-12+001599999V0203201N00361220001CN0500001N9-00281-00611100591ADDAY101999GF100991001001999999001001MD1210511+9999MW1021
0057028640999991959022803004+65783+024583FM-12+001599999V0209991C00001220001CN0500001N9-00781-01111100781ADDAY101999GF101991001001999999001011MD1210191+9999MW1031
0070028640999991959022806004+65783+024583FM-12+001599999V0209991C00001075001CN0500001N9-01111-01111100741ADDAY101999GF105991011001022501041021KA1999N-01281MD1810041+9999MW1031
0057028640999991959022809004+65783+024583FM-12+001599999V0201801N00461075001CN0500001N9-00501-00721100721ADDAY121999GF107991021001022501041071MD1710011+9999MW1031
0057028640999991959022812004+65783+024583FM-12+001599999V0201801N00671030001CN0500001N9-00111-00281100581ADDAY121999GF107991011051008001071999MD1710141+9999MW1031
0057028640999991959022815004+65783+024583FM-12+001599999V0202001N00721030001CN0500001N9+00001-00221100381ADDAY121999GF107991021051008001071999MD1710211+9999MW1031
0057028640999991959022818004+65783+024583FM-12+001599999V0202001N00511000151CN0006001N9-00111-00111100371ADDAY121999GF109991091999000251999999MD1610021+9999MW1471
0081028640999991959030106004+65783+024583FM-12+001599999V0202501N00461021001CN0500001N9+00221-00111100371ADDAA199000691AY121999GF107991071001022501071999KA1999N-00221MD1210071+9999MW1021
0057028640999991959030109004+65783+024583FM-12+001599999V0202401N00461021001CN0400001N9+00221-00111100421ADDAY121999GF106991061001022501071999MD1210071+9999MW1031
0057028640999991959030112004+65783+024583FM-12+001599999V0202401N00621220001CN0400001N9+00391-00281100441ADDAY111999GF102991021001022501041001MD1210021+9999MW1021
0057028640999991959030115004+65783+024583FM-12+001599999V0202901N00311220001CN0500001N9+00281-00111100721ADDAY101999GF104991011081012501041021MD1210271+9999MW1031
0070028640999991959030118004+65783+024583FM-12+001599999V0202501N00211220001CN0500001N9-00221-00501101041ADDAY101999GF101991011001022501071001KA1999M+00501MD1210321+9999MW1031
0057028640999991959030121004+65783+024583FM-12+001599999V0202501N00511220001CN0500001N9+00001-00281101221ADDAY101999GF100991001001999999001001MD1210181+9999MW1011
0057028640999991959030200004+65783+024583FM-12+001599999V0202701N00571220001CN0500001N9+00001-00221101381ADDAY101999GF101991011001022501041001MD1210151+9999MW1031
0070028640999991959030206004+65783+024583FM-12+001599999V0202701N00621030001CN0500001N9+00221+00001101581ADDAY121999GF107991021051008001071999KA1999N-00221MD1210051+9999MW1021
0057028640999991959030209004+65783+024583FM-12+001599999V0202201N00571075001CN0500001N9+00221-00111101541ADDAY121999GF106991011001022501041051MD1610041+9999MW1021
0057028640999991959030212004+65783+024583FM-12+001599999V0201901N00621075001CN0500001N9+00111-00221101481ADDAY121999GF107991011001022501041071MD1710051+9999MW1021
0057028640999991959030215004+65783+024583FM-12+001599999V0201601N00311075001CN0300001N9-00221-00281101411ADDAY121999GF107991011001022501041061MD1710071+9999MW1021
0070028640999991959030218004+65783+024583FM-12+001599999V0202001N00361220001CN0500001N9-00221-00391101441ADDAY121999GF102991021001022501041011KA1999M+00281MD1310031+9999MW1011
0057028640999991959030221004+65783+024583FM-12+001599999V0202201N00721021001CN0500001N9+00001-00281101441ADDAY101999GF107991071001022501071999MD1010001+9999MW1031
0057028640999991959030300004+65783+024583FM-12+001599999V0202001N00461220001CN0500001N9+00001-00111101421ADDAY111999GF103991031051004501001001MD1710021+9999MW1011
0057028640999991959030303004+65783+024583FM-12+001599999V0201701N00511220001CN0400001N9-00111-00111101361ADDAY101999GF102991021051004501001001MD1710071+9999MW1021
0070028640999991959030306004+65783+024583FM-12+001599999V0201901N00461000601CN0050001N9+00001-00111101381ADDAY101999GF108991081061000751999999KA1999N-00221MD1010021+9999MW1021
0057028640999991959030309004+65783+024583FM-12+001599999V0202001N00461000601CN0050001N9+00111+00001101421ADDAY121999GF108991081061000751999999MD1110051+9999MW1021
0057028640999991959030312004+65783+024583FM-12+001599999V0201701N00511000601CN0050001N9+00111+00001101421ADDAY121999GF108991081061000751999999MD1410001+9999MW1011
0057028640999991959030315004+65783+024583FM-12+001599999V0202001N00621000151CN0005001N9+00001+00001101421ADDAY141999GF109991091999000251999999MD1410001+9999MW1471
0070028640999991959030318004+65783+024583FM-12+001599999V0201901N00621000151CN0020001N9+00001+00001101491ADDAY141999GF108991081061000251999999KA1999M+00001MD1210071+9999MW1101
0057028640999991959030321004+65783+024583FM-12+001599999V0201701N00511000151CN0015001N9+00111+00111101461ADDAY151999GF108991081061000251999999MD1610021+9999MW1511
0057028640999991959030400004+65783+024583FM-12+001599999V0201601N00511000151CN0015001N9+00111+00111101461ADDAY151999GF108991081061000251999999MD1410001+9999MW1511
0057028640999991959030403004+65783+024583FM-12+001599999V0201601N00621000151CN0010001N9+00111+00111101401ADDAY151999GF108991081061000251999999MD1710081+9999MW1511
0081028640999991959030406004+65783+024583FM-12+001599999V0201601N00671000601CN0020001N9+00111+00111101291ADDAA199000391AY151999GF108991081061000751999999KA1999N+00001MD1710091+9999MW1511
0057028640999991959030409004+65783+024583FM-12+001599999V0201601N00671000151CN0020001N9+00111+00111101281ADDAY151999GF108991081061000251999999MD1610021+9999MW1511
0057028640999991959030412004+65783+024583FM-12+001599999V0201601N00621000151CN0015001N9+00111+00111101181ADDAY151999GF108991081061000251999999MD1810111+9999MW1511
0057028640999991959030415004+65783+024583FM-12+001599999V0201701N00621000151CN0012001N9+00111+00111101051ADDAY151999GF108991081061000251999999MD1710121+9999MW1501
0081028640999991959030418004+65783+024583FM-12+001599999V0201601N00671000601CN0030001N9+00111+00111100801ADDAA199000691AY151999GF108991081061000751999999KA1999M+00111MD1710261+9999MW1511
0057028640999991959030421004+65783+024583FM-12+001599999V0201701N00721000601CN0025001N9+00111+00111100691ADDAY151999GF108991081061000751999999MD1710101+9999MW1511
0057028640999991959030500004+65783+024583FM-12+001599999V0201501N01031000601CN0025001N9+00111+00111100551ADDAY151999GF108991081061000751999999MD1710161+9999MW1511
0057028640999991959030503004+65783+024583FM-12+001599999V0201701N00721000601CN0030001N9+00111+00111100371ADDAY151999GF108991081061000751999999MD1710191+9999MW1581
0081028640999991959030506004+65783+024583FM-12+001599999V0201701N00671000601CN0012001N9+00111+00111100351ADDAA199002091AY151999GF108991081061000751999999KA1999N+00001MD1810011+9999MW1511
0057028640999991959030509004+65783+024583FM-12+001599999V0201901N00571000151CN0006001N9+00111+00111100441ADDAY151999GF109991091999000251999999MD1210101+9999MW1471
0057028640999991959030512004+65783+024583FM-12+001599999V0201701N00461000151CN0003001N9+00111+00111100581ADDAY141999GF109991091999000251999999MD1210131+9999MW1451
0081028640999991959030518004+65783+024583FM-12+001599999V0201601N00411000601CN0040001N9+00001+00001100811ADDAA199000391AY141999GF108991081071000751999999KA1999M+00111MD1210091+9999MW1681
0057028640999991959030521004+65783+024583FM-12+001599999V0201601N00461000601CN0035001N9+00001+00001100801ADDAY171999GF108991081071000751999999MD1810021+9999MW1731
0057028640999991959030600004+65783+024583FM-12+001599999V0201401N00411000601CN0040001N9+00001+00001100751ADDAY171999GF108991081071000751999999MD1710051+9999MW1711
0057028640999991959030603004+65783+024583FM-12+001599999V0201501N00571001501CN0080001N9+00001+00001100611ADDAY171999GF108991081071001501999999MD1710131+9999MW1211
0081028640999991959030606004+65783+024583FM-12+001599999V0201601N00621001501CN0020001N9+00001+00001100541ADDAA199003091AY171999GF108991081071001501999999KA1999N+00001MD1710081+9999MW1691
0057028640999991959030609004+65783+024583FM-12+001599999V0201601N00931000151CN0010001N9+00111+00111100481ADDAY171999GF108991081061000251999999MD1610051+9999MW1541
0057028640999991959030612004+65783+024583FM-12+001599999V0201701N00931000151CN0009001N9+00111+00111100511ADDAY151999GF109991091999000251999999MD1310031+9999MW1511
0057028640999991959030615004+65783+024583FM-12+001599999V0201601N00821001501CN0050001N9+00111+00111100411ADDAY141999GF108991081071001501999999MD1710101+9999MW1681
0081028640999991959030618004+65783+024583FM-12+001599999V0201401N00871001501CN0050001N9+00111+00001100261ADDAA199002091AY141999GF108991081071001501999999KA1999M+00111MD1710141+9999MW1681
0057028640999991959030621004+65783+024583FM-12+001599999V0201501N00821000601CN0040001N9+00111+00111100151ADDAY171999GF108991081071000751999999MD1710131+9999MW1681
0057028640999991959030700004+65783+024583FM-12+001599999V0201501N00931000601CN0030001N9+00001+00001099981ADDAY171999GF108991081071000751999999MD1710171+9999MW1681
0057028640999991959030703004+65783+024583FM-12+001599999V0201301N00771000151CN0006001N9+00001+00001099571ADDAY171999GF109991091999000251999999MD1710421+9999MW1751
0081028640999991959030706004+65783+024583FM-12+001599999V0201301N00721000151CN0008001N9-00111-00111099191ADDAA199007091AY171999GF109991091999000251999999KA1999N-00111MD1710361+9999MW1751
0057028640999991959030709004+65783+024583FM-12+001599999V0201301N00821001501CN0030001N9-00111-00111098811ADDAY171999GF108991081071001501999999MD1710371+9999MW1731
0057028640999991959030712004+65783+024583FM-12+001599999V0201001N00871001501CN0012001N9+00001+00001098541ADDAY171999GF108991081071001501999999MD1710281+9999MW1751
0057028640999991959030715004+65783+024583FM-12+001599999V0201601N00721001501CN0012001N9+00001+00001098351ADDAY171999GF108991071071001501021999MD1710191+9999MW1691
0081028640999991959030718004+65783+024583FM-12+001599999V0202001N00671001501CN0100001N9+00001+00001098441ADDAA199004091AY171999GF108991081061001501999999KA1999M+00001MD1210101+9999MW1021
0057028640999991959030721004+65783+024583FM-12+001599999V0201701N00511004501CN0060001N9+00001+00001098461ADDAY121999GF108991081051004501999999MD1010031+9999MW1711
0057028640999991959030800004+65783+024583FM-12+001599999V0201801N00721000601CN0050001N9+00001+00001098321ADDAY171999GF108991081061000751999999MD1710151+9999MW1021
0081028640999991959030806004+65783+024583FM-12+001599999V0202401N00621220001CN0500001N9-00391-00391098241ADDAA199003091AY171999GF106991031001022501071041KA1999N-00391MD1210121+9999MW1011
0057028640999991959030809004+65783+024583FM-12+001599999V0202101N00621220001CN0500001N9-00501-00611098511ADDAY111999GF102991011001022501041011MD1210271+9999MW1021
0057028640999991959030812004+65783+024583FM-12+001599999V0201901N00671220001CN0500001N9-00391-00391098691ADDAY101999GF101991011001022501041001MD1210181+9999MW1021
0081028640999991959030818004+65783+024583FM-12+001599999V0202001N00621000151CN0010001N9-00281-00281098951ADDAA199000591AY121999GF109991091999000251999999KA1999M-00221MD1210101+9999MW1751
0057028640999991959030821004+65783+024583FM-12+001599999V0203201N00821001501CN0050001N9-00221-00221099361ADDAY171999GF108991081071001501999999MD1210411+9999MW1711
0057028640999991959030900004+65783+024583FM-12+001599999V0203001N01131001501CN0050001N9-00221-00221099891ADDAY171999GF108991081071001501999999MD1210541+9999MW1701
0057028640999991959030903004+65783+024583FM-12+001599999V0202801N00621220001CN0200001N9-00501-00611100411ADDAY171999GF103991031001022501041001MD1210521+9999MW1011
0081028640999991959030906004+65783+024583FM-12+001599999V0202801N00571220001CN0500001N9-00721-01111100791ADDAA199002091AY101999GF101991011001022501041001KA1999N-00781MD1210371+9999MW1011
0057028640999991959030909004+65783+024583FM-12+001599999V0202801N00511220001CN0400001N9-00501-00891101171ADDAY101999GF102991011001022501041011MD1210371+9999MW1031
0057028640999991959030912004+65783+024583FM-12+001599999V0202601N00261075001CN0500001N9-00281-00721101421ADDAY101999GF106991011001022501041051MD1210271+9999MW1031
0057028640999991959030915004+65783+024583FM-12+001599999V0202301N00461075001CN0500001N9-00391-00721101511ADDAY121999GF107991041001022501071071MD1110091+9999MW1011
0070028640999991959030918004+65783+024583FM-12+001599999V0202201N00621075001CN0500001N9-00391-00611101461ADDAY121999GF106991011001022501041071KA1999M-00221MD1810041+9999MW1011
0076028640999991959030921004+65783+024583FM-12+001599999V0202001N00411220001CN0500001N9-00501-00611101461ADDAY101999GF102991021001022501041001MD1410001+9999MW1031EQDQ01+000082APCTEN
0057028640999991959031000004+65783+024583FM-12+001599999V0209991C00001220001CN0500001N9-00721-00781101521ADDAY101999GF101991011001022501041001MD1210051+9999MW1011
0057028640999991959031003004+65783+024583FM-12+001599999V0202001N00211075001CN0500001N9-00611-00721101651ADDAY101999GF107991031001022501071071MD1210131+9999MW1031
0070028640999991959031006004+65783+024583FM-12+001599999V0202401N00461075001CN0500001N9-00221-00391101761ADDAY121999GF107991041001022501071071KA1999N-00891MD1210101+9999MW1031
0057028640999991959031009004+65783+024583FM-12+001599999V0201901N00411220001CN0500001N9-00111-00391101921ADDAY121999GF107991001001999999001081MD1210171+9999MW1011
0057028640999991959031012004+65783+024583FM-12+001599999V0202001N00461220001CN0500001N9+00111-00221102051ADDAY121999GF107991001001999999001081MD1210131+9999MW1021
0057028640999991959031015004+65783+024583FM-12+001599999V0201701N00211220001CN0500001N9+00111-00111102151ADDAY121999GF107991001001999999001081MD1210091+9999MW1021
0070028640999991959031018004+65783+024583FM-12+001599999V0202601N00361220001CN0500001N9-00281-00611102221ADDAY121999GF103991011051008001001021KA1999M+00281MD1110081+9999MW1011
0057028640999991959031021004+65783+024583FM-12+001599999V0202201N00211220001CN0500001N9-00501-00611102291ADDAY101999GF100991001001999999001001MD1210071+9999MW1021
0057028640999991959031100004+65783+024583FM-12+001599999V0201501N00211220001CN0500001N9-00891-00891102351ADDAY101999GF100991001001999999001001MD1210051+9999MW1021
0076028640999991959031103004+65783+024583FM-12+001599999V0201501N00361220001CN0400001N9-01111-01221102391ADDAY101999GF101991999001999999041001MD1210041+9999MW1031EQDQ01+000002SCOTLC
0070028640999991959031106004+65783+024583FM-12+001599999V0201501N00211220001CN0200001N9-01221-01281102421ADDAY101999GF103991001001999999001021KA1999N-01281MD1110041+9999MW1041
0057028640999991959031109004+65783+024583FM-12+001599999V0201501N00101075001CN0250001N9-00501-00611102521ADDAY101999GF107991021001022501041071MD1210101+9999MW1041
0057028640999991959031112004+65783+024583FM-12+001599999V0201901N00261075001CN0250001N9-00221-00611102591ADDAY121999GF107991021001022501041061MD1210061+9999MW1041
0057028640999991959031115004+65783+024583FM-12+001599999V0201701N00101220001CN0400001N9-00281-00501102591ADDAY121999GF107991001001999999001081MD1410001+9999MW1011
0070028640999991959031118004+65783+024583FM-12+001599999V0209991C00001220001CN0500001N9-00891-01001102611ADDAY121999GF100991001001999999001001KA1999M-00221MD1310031+9999MW1011
0057028640999991959031121004+65783+024583FM-12+001599999V0209991C00001220001CN0008001N9-01221-01281102651ADDAY121999GF100991001001999999001001MD1210041+9999MW1461
0057028640999991959031200004+65783+024583FM-12+001599999V0209991C00001220001CN0200001N9-01611-01781102621ADDAY101999GF100991001001999999001001MD1710041+9999MW1021
0057028640999991959031203004+65783+024583FM-12+001599999V0209991C00001220001CN0250001N9-01611-01721102541ADDAY101999GF100991001001999999001001MD1710081+9999MW1021
0057028640999991959031209004+65783+024583FM-12+001599999V0201701N00101000151CN0008001N9-00891-00891102561ADDAY141999GF109991091999000251999999MD1810021+9999MW1451
0076028640999991959031212004+65783+024583FM-12+001599999V0209991C00001000151CN0020001N9-00721-00781102561ADDAY141999GF108991081061000251999999MD1410001+9999MW1281EQDQ01+000082APCTEN
0057028640999991959031215004+65783+024583FM-12+001599999V0209991C00001000151CN0010001N9-00721-00781102561ADDAY141999GF108991081061000251999999MD1410001+9999MW1101
0081028640999991959031218004+65783+024583FM-12+001599999V0209991C00001000151CN0009001N9-00611-00721102481ADDAA199000691AY171999GF109991091999000251999999KA1999M-00611MD1710071+9999MW1471
0057028640999991959031300004+65783+024583FM-12+001599999V0209991C00001000151CN0008001N9-00721-00781102461ADDAY141999GF109991091999000251999999MD1710011+9999MW1431
0057028640999991959031303004+65783+024583FM-12+001599999V0209991C00001000151CN0006001N9-00781-00891102451ADDAY141999GF109991091999000251999999MD1710021+9999MW1451
0116028640999991959031306004+65783+024583FM-12+001599999V0209991C00001000151CN0003001N9-00721-00721102441ADDAA199000691AY141999GF109991091999000251999999KA1999N-00891MD1710011+9999MW1451EQDQ01+000042APCTENQ02+000012APC3  
0057028640999991959031309004+65783+024583FM-12+001599999V0209991C00001000151CN0004001N9-00501-00611102451ADDAY141999GF109991091999000251999999MD1210011+9999MW1451
0057028640999991959031312004+65783+024583FM-12+001599999V0209991C00001000151CN0006001N9-00611-00611102491ADDAY141999GF109991091999000251999999MD1210051+9999MW1771
0057028640999991959031315004+65783+024583FM-12+001599999V0202001N00151000151CN0005001N9-00611-00721102551ADDAY171999GF109991091999000251999999MD1210041+9999MW1471
0081028640999991959031318004+65783+024583FM-12+001599999V0209991C00001000151CN0005001N9-00891-00891102601ADDAA199000391AY141999GF109991091999000251999999KA1999M-00501MD1210051+9999MW1451
0057028640999991959031321004+65783+024583FM-12+001599999V0209991C00001000151CN0003001N9-01001-01001102641ADDAY141999GF109991091999000251999999MD1210051+9999MW1451
0057028640999991959031400004+65783+024583FM-12+001599999V0209991C00001000151CN0003001N9-01001-01001102661ADDAY141999GF109991091999000251999999MD1210031+9999MW1451
0057028640999991959031403004+65783+024583FM-12+001599999V0209991C00001000151CN0006001N9-01221-01221102771ADDAY141999GF109991091999000251999999MD1210081+9999MW1781
0081028640999991959031406004+65783+024583FM-12+001599999V0209991C00001000151CN0010001N9-01221-01281102911ADDAA199000391AY141999GF108991081061000251999999KA1999N-01281MD1210161+9999MW1781
0057028640999991959031412004+65783+024583FM-12+001599999V0209991C00001000151CN0005001N9-00891-01001103121ADDAY171999GF109991091999000251999999MD1210101+9999MW1451
0057028640999991959031415004+65783+024583FM-12+001599999V0209991C00001220001CN0030001N9-00891-01001103201ADDAY121999GF102991021061000251041001MD1210071+9999MW1121
0081028640999991959031418004+65783+024583FM-12+001599999V0209991C00001000151CN0002001N9-00781-00891103181ADDAA199000691AY111999GF109991091999000251999999KA1999M-00781MD1610021+9999MW1451
0057028640999991959031421004+65783+024583FM-12+001599999V0201601N00151000151CN0300001N9-00781-00781103151ADDAY141999GF108991081061000251999999MD1810031+9999MW1021
0057028640999991959031500004+65783+024583FM-12+001599999V0201701N00151220001CN0300001N9-00721-00721103081ADDAY141999GF100991001001999999001001MD1710061+9999MW1021
0057028640999991959031503004+65783+024583FM-12+001599999V0201701N00151004501CN0300001N9-00721-00781102981ADDAY101999GF108991081051004501999999MD1710111+9999MW1031
0070028640999991959031506004+65783+024583FM-12+001599999V0201601N00571220001CN0300001N9-00781-00781102841ADDAY111999GF100991001001999999001001KA1999N-00891MD1710131+9999MW1021
0057028640999991959031509004+65783+024583FM-12+001599999V0201701N00671220001CN0500001N9-00501-00611102741ADDAY101999GF100991001001999999001001MD1710111+9999MW1021
0057028640999991959031512004+65783+024583FM-12+001599999V0201701N00821220001CN0500001N9-00221-00281102491ADDAY101999GF101991011001022501041001MD1710231+9999MW1021
0057028640999991959031515004+65783+024583FM-12+001599999V0201701N01031220001CN0500001N9+00001-00281102321ADDAY101999GF104991001001999999001051MD1710181+9999MW1031
0070028640999991959031518004+65783+024583FM-12+001599999V0201801N00931001501CN0300001N9-00221-00281102221ADDAY101999GF108991081051001501999999KA1999M+00001MD1710101+9999MW1031
0057028640999991959031521004+65783+024583FM-12+001599999V0201801N01031004501CN0500001N9-00221-00281102081ADDAY121999GF108991081051004501999999MD1710141+9999MW1021
0057028640999991959031600004+65783+024583FM-12+001599999V0201901N01131004501CN0400001N9+00001-00221101881ADDAY121999GF108991081051004501999999MD1710201+9999MW1021
0057028640999991959031603004+65783+024583FM-12+001599999V0201801N00871001501CN0400001N9-00111-00111101691ADDAY121999GF108991081051001501999999MD1710181+9999MW1021
0081028640999991959031606004+65783+024583FM-12+001599999V0201901N00721000601CN0030001N9-00111-00221101681ADDAA199000391AY171999GF108991081051000751999999KA1999N-00281MD1810021+9999MW1711
0057028640999991959031609004+65783+024583FM-12+001599999V0202001N00671001501CN0080001N9-00111-00221101691ADDAY171999GF108991081051001501999999MD1310021+9999MW1021
0057028640999991959031612004+65783+024583FM-12+001599999V0202001N00721001501CN0100001N9+00001-00111101741ADDAY121999GF108991081071001501999999MD1310031+9999MW1031
0057028640999991959031615004+65783+024583FM-12+001599999V0201901N00721001501CN0060001N9-00111-00111101741ADDAY121999GF108991081071001501999999MD1410001+9999MW1021
0081028640999991959031618004+65783+024583FM-12+001599999V0201801N00621001501CN0060001N9-00221-00221101761ADDAA199000391AY121999GF107991071071001501999999KA1999M+00001MD1510021+9999MW1011
0092028640999991959031621004+65783+024583FM-12+001599999V0201901N00621030001CN0100001N9-00221-00281101751ADDAY121999GF107991031071001501031999MD1710011+9999MW1011EQDQ01+000042APCTENQ02+000012APC3  
0092028640999991959031700004+65783+024583FM-12+001599999V0201901N00721075001CN0200001N9-00221-00221101741ADDAY121999GF107991041001022501041061MD1710011+9999MW1011EQDQ01+000042APCTENQ02+000012APC3  
0057028640999991959031703004+65783+024583FM-12+001599999V0201701N00721021001CN0200001N9-00111-00111101611ADDAY121999GF107991061001022501041021MD1710121+9999MW1021
0070028640999991959031706004+65783+024583FM-12+001599999V0201701N00621075001CN0400001N9-00111-00221101491ADDAY121999GF107991021001022501041061KA1999N-00281MD1710121+9999MW1011
0057028640999991959031709004+65783+024583FM-12+001599999V0201901N00571030001CN0200001N9+00221+00001101441ADDAY121999GF108991031051004501021999MD1610051+9999MW1601
0057028640999991959031712004+65783+024583FM-12+001599999V0202201N00771220001CN0300001N9+00391+00111101321ADDAY161999GF107991001001999999071999MD1710121+9999MW1021
0057028640999991959031715004+65783+024583FM-12+001599999V0202501N00771021001CN0400001N9+00391+00001101261ADDAY121999GF108991061001022501071071MD1710051+9999MW1011
0081028640999991959031718004+65783+024583FM-12+001599999V0202501N00871021001CN0400001N9+00391+00001101171ADDAA199000391AY121999GF107991071001022501071999KA1999M+00501MD1710121+9999MW1021
0057028640999991959031721004+65783+024583FM-12+001599999V0202501N00771075001CN0500001N9+00281-00111101461ADDAY121999GF107991011001022501041071MD1210321+9999MW1011
0057028640999991959031800004+65783+024583FM-12+001599999V0202501N00511220001CN0500001N9+00221-00281101811ADDAY121999GF106991011001022501041061MD1210341+9999MW1011
0057028640999991959031803004+65783+024583FM-12+001599999V0202601N00511021001CN0500001N9+00111-00221101951ADDAY121999GF107991071001022501071999MD1210131+9999MW1031
0070028640999991959031806004+65783+024583FM-12+001599999V0202001N00461021001CN0400001N9+00111-00111101711ADDAY121999GF107991061001022501021071KA1999N-00111MD1710231+9999MW1011
0057028640999991959031809004+65783+024583FM-12+001599999V0201701N00461075001CN0400001N9+00111-00111101481ADDAY121999GF107991041001022501041071MD1710231+9999MW1031
0057028640999991959031812004+65783+024583FM-12+001599999V0201801N00621030001CN0400001N9+00111+00111101011ADDAY121999GF107991021071001501021999MD1710471+9999MW1031
0057028640999991959031815004+65783+024583FM-12+001599999V0201901N00771030001CN0300001N9+00221+00001100661ADDAY121999GF108991041071002501021999MD1710341+9999MW1601
0081028640999991959031818004+65783+024583FM-12+001599999V0202001N00931004501CN0400001N9+00221+00001100381ADDAA199000391AY161999GF107991051051004501021999KA1999M+00221MD1710301+9999MW1021
0057028640999991959031903004+65783+024583FM-12+001599999V0202901N00621220001CN0500001N9-00111-00611101111ADDAY111999GF102991021051008001001001MD1210491+9999MW1011
0070028640999991959031906004+65783+024583FM-12+001599999V0202901N00571220001CN0500001N9-00281-00891101591ADDAY101999GF101991011051008001041001KA1999N-00281MD1210471+9999MW1011
0057028640999991959031909004+65783+024583FM-12+001599999V0202901N00571220001CN0500001N9-00111-00891102051ADDAY101999GF101991011001022501041001MD1210471+9999MW1031
0057028640999991959031912004+65783+024583FM-12+001599999V0202801N00671220001CN0500001N9+00111-00281102311ADDAY101999GF103991011011012501041021MD1210261+9999MW1031
0057028640999991959031915004+65783+024583FM-12+001599999V0202501N00311220001CN0500001N9+00111-00501102351ADDAY101999GF104991011011008001001051MD1210021+9999MW1011
0070028640999991959031918004+65783+024583FM-12+001599999V0202301N00461021001CN0500001N9-00281-00611102371ADDAY121999GF108991081001022501021999KA1999M+00111MD1310011+9999MW1031
0057028640999991959031921004+65783+024583FM-12+001599999V0202501N00311021001CN0500001N9-00281-00611102311ADDAY121999GF107991061001022501011071MD1810041+9999MW1011
0057028640999991959032000004+65783+024583FM-12+001599999V0202001N00511021001CN0500001N9-00281-00391102201ADDAY121999GF108991081001022501021999MD1710121+9999MW1031
0057028640999991959032003004+65783+024583FM-12+001599999V0202201N00511075001CN0500001N9-00111-00391102051ADDAY121999GF107991041001022501021071MD1710141+9999MW1011
0070028640999991959032006004+65783+024583FM-12+001599999V0202301N00411021001CN0500001N9-00221-00391102081ADDAY121999GF108991081001022501021999KA1999N-00391MD1110031+9999MW1031
0057028640999991959032009004+65783+024583FM-12+001599999V0202501N00571075001CN0500001N9+00221-00221102021ADDAY121999GF107991021001022501041071MD1810061+9999MW1021
0057028640999991959032012004+65783+024583FM-12+001599999V0202501N00621075001CN0500001N9+00281+00001101991ADDAY121999GF106991021001022501041071MD1610041+9999MW1031
0057028640999991959032015004+65783+024583FM-12+001599999V0202301N00511075001CN0500001N9+00391+00001101991ADDAY121999GF106991021001022501041051MD1410001+9999MW1021
0070028640999991959032018004+65783+024583FM-12+001599999V0202301N00411220001CN0500001N9+00111-00111102041ADDAY121999GF103991021001022501041011KA1999M+00501MD1210061+9999MW1011
0092028640999991959032021004+65783+024583FM-12+001599999V0201701N00311220001CN0500001N9+00001-00221102051ADDAY101999GF101991011001022501041001MD1210011+9999MW1011EQDQ01+000042APCTENQ02+000012APC3  
0057028640999991959032100004+65783+024583FM-12+001599999V0202401N00511075001CN0500001N9+00001-00221102051ADDAY111999GF107991021001022501041071MD1410001+9999MW1031
0057028640999991959032103004+65783+024583FM-12+001599999V0202001N00311075001CN0500001N9-00111-00221102111ADDAY121999GF107991031001022501041071MD1210061+9999MW1031
0070028640999991959032106004+65783+024583FM-12+001599999V0202701N00311075001CN0500001N9-00111-00281102051ADDAY121999GF107991041001022501041071KA1999N-00281MD1710061+9999MW1031
0057028640999991959032109004+65783+024583FM-12+001599999V0202001N00311021001CN0500001N9+00111-00721102021ADDAY121999GF107991071001022501071999MD1810021+9999MW1021
0057028640999991959032112004+65783+024583FM-12+001599999V0202301N00411030001CN0400001N9+00281-00111101991ADDAY101999GF107991011051008001071999MD1810041+9999MW1021
0057028640999991959032115004+65783+024583FM-12+001599999V0202401N00511030001CN0300001N9+00281+00001101821ADDAY121999GF107991011051008001071999MD1710161+9999MW1021
0070028640999991959032118004+65783+024583FM-12+001599999V0202401N00511030001CN0300001N9+00391+00001101781ADDAY121999GF107991021051008001021999KA1999M+00501MD1610051+9999MW1031
0092028640999991959032121004+65783+024583FM-12+001599999V0202601N00511075001CN0400001N9+00281+00111101791ADDAY121999GF107991041001022501041061MD1210011+9999MW1011EQDQ01+000042APCTENQ02+000012APC3  
0057028640999991959032200004+65783+024583FM-12+001599999V0202801N00511075001CN0500001N9+00281+00111101861ADDAY121999GF107991011001022501041071MD1210091+9999MW1011
0057028640999991959032203004+65783+024583FM-12+001599999V0202801N00411075001CN0500001N9+00391+00111102011ADDAY121999GF107991011001022501041071MD1210141+9999MW1021
0070028640999991959032206004+65783+024583FM-12+001599999V0202901N00411075001CN0500001N9+00281-00221102141ADDAY121999GF107991011001022501041071KA1999N+00111MD1210121+9999MW1031
0057028640999991959032209004+65783+024583FM-12+001599999V0203101N00671021001CN0500001N9+00501-00501102321ADDAY121999GF107991071001022501071999MD1210191+9999MW1031
0057028640999991959032212004+65783+024583FM-12+001599999V0203201N00571075001CN0500001N9+00501-00391102481ADDAY121999GF106991011001022501041051MD1210161+9999MW1011
0057028640999991959032215004+65783+024583FM-12+001599999V0203201N00511220001CN0500001N9+00501-00391102601ADDAY101999GF101991001001999999001021MD1210111+9999MW1011
0070028640999991959032218004+65783+024583FM-12+001599999V0209991C00001220001CN0500001N9-00221-00391102581ADDAY101999GF101991001001999999001011KA1999M+00501MD1710021+9999MW1021
0057028640999991959032221004+65783+024583FM-12+001599999V0209991C00001220001CN0500001N9-00501-00501102591ADDAY101999GF100991001001999999001001MD1110011+9999MW1021
