0057028640999991961010100004+65783+024583FM-12+001599999V0201201N00211002401CN0150001N9-00391-00501102001ADDAY151999GF108991081071002501999999MD1710031+9999MW1021
0057028640999991961010103004+65783+024583FM-12+001599999V0200901N00211002401CN0200001N9-00501-00611102001ADDAY121999GF108991081071002501999999MD1410001+9999MW1021
0081028640999991961010106004+65783+024583FM-12+001599999V0200901N00211000601CN0030001N9-00501-00501101951ADDAA199000591AY171999GF108991081061000751999999KA1999N-00501MD1810051+9999MW1561
0057028640999991961010109004+65783+024583FM-12+001599999V0201101N00211002401CN0070001N9-00501-00611102031ADDAY151999GF108991081071002501999999MD1310081+9999MW1711
0057028640999991961010112004+65783+024583FM-12+001599999V0200601N00101004501CN0100001N9-00611-00721101961ADDAY171999GF108991051071004501021999MD1810071+9999MW1011
0057028640999991961010115004+65783+024583FM-12+001599999V0200601N00101007801CN0200001N9-00611-00721101911ADDAY121999GF108991051051008001021999MD1810051+9999MW1021
0081028640999991961010118004+65783+024583FM-12+001599999V0200401N00311007801CN0300001N9-00611-00721101791ADDAA199000691AY121999GF108991081051008001999999KA1999M-00501MD1710121+9999MW1021
0057028640999991961010121004+65783+024583FM-12+001599999V0200401N00311007801CN0250001N9-00611-00721101691ADDAY121999GF108991081051008001999999MD1710101+9999MW1021
0057028640999991961010200004+65783+024583FM-12+001599999V0200401N00311007801CN0100001N9-00501-00611101501ADDAY121999GF107991071051008001061061MD1710151+9999MW1711
0057028640999991961010203004+65783+024583FM-12+001599999V0200601N00311004501CN0035001N9-00501-00501101311ADDAY171999GF108991081051004501999999MD1710191+9999MW1731
0081028640999991961010206004+65783+024583FM-12+001599999V0200601N00311004501CN0035001N9-00501-00501101141ADDAA199002091AY171999GF108991081051004501999999KA1999N-00611MD1710171+9999MW1731
0057028640999991961010209004+65783+024583FM-12+001599999V0200701N00261004501CN0035001N9-00501-00501101081ADDAY171999GF108991061051004501021999MD1710061+9999MW1731
0057028640999991961010212004+65783+024583FM-12+001599999V0200901N00261004501CN0045001N9-00391-00501100991ADDAY171999GF108991061051004501021999MD1710091+9999MW1711
0057028640999991961010215004+65783+024583FM-12+001599999V0200901N00261004501CN0150001N9-00391-00391100931ADDAY171999GF108991071051004501021999MD1710061+9999MW1711
0081028640999991961010218004+65783+024583FM-12+001599999V0201401N00261021001CN0050001N9-00391-00501100901ADDAA199002091AY171999GF107991051001022501071071KA1999M-00391MD1610031+9999MW1711
0057028640999991961010221004+65783+024583FM-12+001599999V0201301N00261001501CN0050001N9-00501-00611100921ADDAY171999GF108991051071001501021999MD1110021+9999MW1731
0057028640999991961010300004+65783+024583FM-12+001599999V0202201N00311030001CN0025001N9-00611-00721101021ADDAY171999GF108991031071002501021999MD1210101+9999MW1731
0057028640999991961010303004+65783+024583FM-12+001599999V0202001N00151004501CN0100001N9-00611-00721101061ADDAY171999GF107991051071004501071999MD1210041+9999MW1711
0081028640999991961010306004+65783+024583FM-12+001599999V0201201N00261030001CN0100001N9-00501-00611101011ADDAA199000591AY171999GF108991041071004501021999KA1999N-00611MD1710051+9999MW1711
0057028640999991961010309004+65783+024583FM-12+001599999V0201201N00261000151CN0018001N9-00391-00501100961ADDAY171999GF109991091999000251999999MD1610051+9999MW1731
0057028640999991961010312004+65783+024583FM-12+001599999V0201601N00211002401CN0050001N9-00281-00281100981ADDAY171999GF108991051071002501021999MD1310031+9999MW1711
0057028640999991961010315004+65783+024583FM-12+001599999V0201901N00311004501CN0100001N9-00221-00281101081ADDAY171999GF107991071051004501999999MD1210101+9999MW1221
0081028640999991961010318004+65783+024583FM-12+001599999V0201501N00411007801CN0150001N9-00221-00281101131ADDAA199001091AY171999GF108991081051008001999999KA1999M-00221MD1210051+9999MW1021
0057028640999991961010321004+65783+024583FM-12+001599999V0201301N00461004501CN0100001N9-00221-00281101161ADDAY121999GF108991081051004501999999MD1010031+9999MW1021
0057028640999991961010400004+65783+024583FM-12+001599999V0201701N00621001501CN0100001N9-00111-00111101171ADDAY151999GF108991081071001501999999MD1210011+9999MW1021
0057028640999991961010403004+65783+024583FM-12+001599999V0201501N00571004501CN0300001N9-00111-00221101251ADDAY121999GF108991081051004501999999MD1210081+9999MW1031
0057028640999991961010409004+65783+024583FM-12+001599999V0201201N00511004501CN0200001N9-00281-00391101221ADDAY121999GF108991081051004501999999MD1710031+9999MW1021
0076028640999991961010412004+65783+024583FM-12+001599999V0200901N00621004501CN0150001N9-00281-00391101131ADDAY121999GF108991999051004501021999MD1710091+9999MW1011EQDQ01+000082SCOTLC
0057028640999991961010415004+65783+024583FM-12+001599999V0201101N00621004501CN0200001N9-00281-00501100951ADDAY121999GF108991051051004501021999MD1710181+9999MW1011
0057028640999991961010418004+65783+024583FM-12+001599999V0201101N00511030001CN0050001N9-00281-00391100871ADDAY171999GF108991021071004501021999MD1710091+9999MW1711
0057028640999991961010421004+65783+024583FM-12+001599999V0201201N00721030001CN0050001N9-00281-00391100841ADDAY171999GF108991041071004501071999MD1810031+9999MW1711
0057028640999991961010500004+65783+024583FM-12+001599999V0201201N00511004501CN0050001N9-00281-00391100751ADDAY171999GF108991081071004501999999MD1710091+9999MW1221
0057028640999991961010503004+65783+024583FM-12+001599999V0201201N00411004501CN0050001N9-00281-00391100701ADDAY121999GF108991081071004501999999MD1810051+9999MW1021
0081028640999991961010506004+65783+024583FM-12+001599999V0200901N00311002401CN0070001N9-00281-00281100501ADDAA199000691AY121999GF108991081071002501999999KA1999N-00281MD1710201+9999MW1021
0057028640999991961010509004+65783+024583FM-12+001599999V0200901N00511002401CN0060001N9-00281-00391100301ADDAY121999GF108991081071002501999999MD1710201+9999MW1701
0057028640999991961010512004+65783+024583FM-12+001599999V0200601N00511001501CN0010001N9-00281-00281100021ADDAY171999GF108991081071001501999999MD1710281+9999MW1731
0057028640999991961010515004+65783+024583FM-12+001599999V0201201N00411001501CN0050001N9-00221-00281099781ADDAY171999GF108991081071001501999999MD1710241+9999MW1011
0081028640999991961010518004+65783+024583FM-12+001599999V0201801N00411000601CN0050001N9+00001-00111099721ADDAA199004091AY171999GF108991081071000751999999KA1999M+00001MD1710061+9999MW1711
0057028640999991961010521004+65783+024583FM-12+001599999V0201801N00311000151CN0010001N9+00001+00001099761ADDAY171999GF108991081061000251999999MD1210041+9999MW1681
0057028640999991961010600004+65783+024583FM-12+001599999V0203001N00311001501CN0060001N9-00281-00281099911ADDAY171999GF108991081071001501999999MD1210151+9999MW1711
0057028640999991961010603004+65783+024583FM-12+001599999V0209991C00001220001CN0040001N9-00781-00781100101ADDAY111999GF100991001001999999001001MD1210191+9999MW1111
0057028640999991961010612004+65783+024583FM-12+001599999V0209991C00001030001CN0030001N9-01501-01611100301ADDAY141999GF108991031071000751071999MD1810061+9999MW1281
0057028640999991961010615004+65783+024583FM-12+001599999V0209991C00001000151CN0002001N9-01501-01611100351ADDAY141999GF106991061061000251999999MD1210051+9999MW1421
0070028640999991961010618004+65783+024583FM-12+001599999V0209991C00001000601CN0040001N9-01391-01611100351ADDAY141999GF108991081061000751999999KA1999M-01281MD1410001+9999MW1011
0057028640999991961010621004+65783+024583FM-12+001599999V0209991C00001000601CN0010001N9-01391-01501100451ADDAY141999GF108991081061000751999999MD1210101+9999MW1101
0057028640999991961010700004+65783+024583FM-12+001599999V0209991C00001000151CN0003001N9-01281-01391100471ADDAY121999GF109991091999000251999999MD1210021+9999MW1451
0057028640999991961010703004+65783+024583FM-12+001599999V0209991C00001000601CN0020001N9-01391-01611100521ADDAY141999GF107991071061000751999999MD1110051+9999MW1101
0070028640999991961010706004+65783+024583FM-12+001599999V0209991C00001000601CN0020001N9-01781-02001100531ADDAY111999GF106991061061000751999999KA1999N-01781MD1310011+9999MW1101
0057028640999991961010712004+65783+024583FM-12+001599999V0209991C00001000151CN0002001N9-01391-01501100631ADDAY121999GF109991091999000251999999MD1010011+9999MW1491
0057028640999991961010715004+65783+024583FM-12+001599999V0209991C00001001501CN0040001N9-01221-01281100681ADDAY141999GF108991081071001501999999MD1210051+9999MW1771
0081028640999991961010718004+65783+024583FM-12+001599999V0200201N00151002401CN0100001N9-01111-01221100651ADDAA199000591AY171999GF108991081071002501999999KA1999M-01111MD1610031+9999MW1711
0057028640999991961010800004+65783+024583FM-12+001599999V0209991C00001000151CN0020001N9-01001-01111100761ADDAY171999GF108991081061000251999999MD1110051+9999MW1101
0057028640999991961010803004+65783+024583FM-12+001599999V0209991C00001000601CN0030001N9-01001-01111100791ADDAY141999GF108991081061000751999999MD1310031+9999MW1771
0081028640999991961010806004+65783+024583FM-12+001599999V0209991C00001000151CN0020001N9-01001-01111100751ADDAA199000691AY171999GF108991081061000251999999KA1999N-01221MD1710041+9999MW1101
0057028640999991961010809004+65783+024583FM-12+001599999V0203601N00101000601CN0022001N9-01001-01001100731ADDAY121999GF108991081061000751999999MD1710021+9999MW1021
0057028640999991961010812004+65783+024583FM-12+001599999V0200101N00211004501CN0050001N9-00891-01111100661ADDAY121999GF108991081071004501999999MD1710071+9999MW1771
0057028640999991961010815004+65783+024583FM-12+001599999V0200101N00211004501CN0050001N9-00781-00891100621ADDAY171999GF108991081071004501999999MD1710041+9999MW1771
0081028640999991961010818004+65783+024583FM-12+001599999V0203601N00211004501CN0100001N9-00781-00891100531ADDAA199000591AY171999GF105991051051004501001001KA1999M-00781MD1710091+9999MW1011
0057028640999991961010821004+65783+024583FM-12+001599999V0203601N00261004501CN0150001N9-00781-00891100471ADDAY121999GF108991081051004501999999MD1710061+9999MW1021
0057028640999991961010900004+65783+024583FM-12+001599999V0203601N00361004501CN0150001N9-00721-00721100391ADDAY171999GF108991071051004501021999MD1710081+9999MW1711
0057028640999991961010903004+65783+024583FM-12+001599999V0203501N00311000151CN0050001N9-00721-00781100341ADDAY171999GF109991091999000251999999MD1710051+9999MW1731
0081028640999991961010906004+65783+024583FM-12+001599999V0203101N00261004501CN0040001N9-00891-01001100361ADDAA199002091AY171999GF108991071051004501021999KA1999N-01001MD1210021+9999MW1731
0057028640999991961010909004+65783+024583FM-12+001599999V0203001N00211004501CN0035001N9-01001-01111100521ADDAY171999GF108991051071004501021999MD1210161+9999MW1731
0057028640999991961010912004+65783+024583FM-12+001599999V0202401N00211004501CN0060001N9-01111-01221100561ADDAY171999GF108991051071004501021999MD1210041+9999MW1711
0057028640999991961010915004+65783+024583FM-12+001599999V0209991C00001000601CN0020001N9-01281-01391100611ADDAY171999GF108991081061000751999999MD1210051+9999MW1781
0057028640999991961010918004+65783+024583FM-12+001599999V0209991C00001000151CN0010001N9-01391-01501100671ADDAY141999GF109991091999000251999999MD1210061+9999MW1781
0057028640999991961010921004+65783+024583FM-12+001599999V0209991C00001000151CN0002001N9-01221-01281100681ADDAY171999GF109991091999000251999999MD1310011+9999MW1471
0076028640999991961011000004+65783+024583FM-12+001599999V0209991C00001000151CN0004001N9-01001-01111100681ADDAY171999GF109991091999000251999999MD1410001+9999MW1431EQDQ01+000082APCTEN
0057028640999991961011009004+65783+024583FM-12+001599999V0209991C00001030001CN0080001N9-00781-00891100871ADDAY171999GF107991041051004501071999MD1210151+9999MW1701
0057028640999991961011012004+65783+024583FM-12+001599999V0202701N00151002401CN0045001N9-01001-01111100941ADDAY171999GF108991071051002501021999MD1210081+9999MW1711
0057028640999991961011015004+65783+024583FM-12+001599999V0209991C00001030001CN0060001N9-01111-01111101071ADDAY171999GF108991041051004501021999MD1210131+9999MW1711
0100028640999991961011018004+65783+024583FM-12+001599999V0201301N00151004501CN0200001N9-00781-00891101121ADDAA199000591AY171999GF108991999051004501999021KA1999M-00781MD1210051+9999MW1021EQDQ01+000082SCOTLC
0057028640999991961011021004+65783+024583FM-12+001599999V0201301N00261007801CN0300001N9-00611-00721101191ADDAY121999GF107991071051008001999999MD1210071+9999MW1021
0057028640999991961011100004+65783+024583FM-12+001599999V0201401N00411007801CN0300001N9-00611-00611101271ADDAY171999GF108991081051008001999999MD1210081+9999MW1221
0057028640999991961011103004+65783+024583FM-12+001599999V0201101N00411021001CN0400001N9-00721-00721101301ADDAY121999GF107991071001022501071999MD1210031+9999MW1011
0070028640999991961011106004+65783+024583FM-12+001599999V0200501N00311004501CN0050001N9-00721-00781101201ADDAY171999GF108991051051004501021999KA1999N-00891MD1710101+9999MW1731
0057028640999991961011109004+65783+024583FM-12+001599999V0200701N00411004501CN0040001N9-00611-00721101171ADDAY171999GF108991061051004501021999MD1710031+9999MW1731
0057028640999991961011112004+65783+024583FM-12+001599999V0200901N00261004501CN0035001N9-00611-00611101181ADDAY171999GF108991061051004501021999MD1310011+9999MW1731
0057028640999991961011115004+65783+024583FM-12+001599999V0209991C00001002401CN0100001N9-00611-00611101221ADDAY171999GF108991081071002501999999MD1210041+9999MW1711
0081028640999991961011118004+65783+024583FM-12+001599999V0200501N00101001501CN0100001N9-00611-00721101261ADDAA199003091AY171999GF108991081071001501999999KA1999M-00501MD1210041+9999MW1781
0057028640999991961011121004+65783+024583FM-12+001599999V0203001N00211220001CN0200001N9-01281-01501101371ADDAY171999GF100991001001999999001001MD1210111+9999MW1011
0081028640999991961011306004+65783+024583FM-12+001599999V0201001N00311002401CN0100001N9-00891-01001100781ADDAA199000691AY141999GF108991081071002501999999KA1999N-01281MD1710221+9999MW1771
0057028640999991961011309004+65783+024583FM-12+001599999V0201001N00261001501CN0050001N9-00721-00781100701ADDAY171999GF108991081071001501999999MD1710081+9999MW1771
0057028640999991961011312004+65783+024583FM-12+001599999V0201001N00101004501CN0040001N9-00611-00721100691ADDAY171999GF108991081071004501999999MD1710011+9999MW1771
0057028640999991961011315004+65783+024583FM-12+001599999V0209991C00001004501CN0100001N9-00611-00611100731ADDAY171999GF108991081051004501999999MD1310041+9999MW1221
0081028640999991961011318004+65783+024583FM-12+001599999V0209991C00001002401CN0080001N9-00611-00611100741ADDAA199000391AY171999GF108991081071002501999999KA1999M-00611MD1210011+9999MW1771
0057028640999991961011321004+65783+024583FM-12+001599999V0201201N00151001501CN0100001N9-00501-00611100761ADDAY171999GF108991081071001501999999MD1210021+9999MW1021
0057028640999991961011400004+65783+024583FM-12+001599999V0202101N00211000151CN0006001N9-00721-00781100821ADDAY171999GF109991091999000251999999MD1210061+9999MW1471
0057028640999991961011403004+65783+024583FM-12+001599999V0202201N00211000151CN0020001N9-00891-01001100851ADDAY141999GF108991081071000251999999MD1210031+9999MW1101
0081028640999991961011406004+65783+024583FM-12+001599999V0202001N00151001501CN0060001N9-01001-01111100841ADDAA199000391AY141999GF108991081071001501999999KA1999N-01111MD1710011+9999MW1771
0057028640999991961011409004+65783+024583FM-12+001599999V0209991C00001000601CN0030001N9-01001-01111100871ADDAY121999GF108991081061000751999999MD1710031+9999MW1771
0057028640999991961011412004+65783+024583FM-12+001599999V0209991C00001000151CN0009001N9-01001-01111100941ADDAY141999GF109991091999000251999999MD1210071+9999MW1771
0057028640999991961011415004+65783+024583FM-12+001599999V0209991C00001000151CN0008001N9-01001-01111101051ADDAY171999GF109991091999000251999999MD1210111+9999MW1771
0081028640999991961011418004+65783+024583FM-12+001599999V0209991C00001000151CN0004001N9-01281-01391101111ADDAA199000591AY171999GF109991091999000251999999KA1999M-01001MD1210061+9999MW1471
0057028640999991961011500004+65783+024583FM-12+001599999V0201501N00101002401CN0100001N9-01721-01891100951ADDAY141999GF107991071071002501999999MD1710141+9999MW1021
0057028640999991961011503004+65783+024583FM-12+001599999V0201301N00151000151CN0014001N9-01281-01391100511ADDAY121999GF109991091999000251999999MD1710441+9999MW1741
0081028640999991961011506004+65783+024583FM-12+001599999V0200901N00151002401CN0050001N9-00721-00781100101ADDAA199003091AY121999GF108991081071002501999999KA1999N-01781MD1710401+9999MW1701
0076028640999991961011509004+65783+024583FM-12+001599999V0203601N00511004501CN0150001N9-01001-01111100471ADDAY121999GF108991999051004501071999MD1210371+9999MW1011EQDQ01+000082SCOTLC
0057028640999991961011512004+65783+024583FM-12+001599999V0203601N00461220001CN0400001N9-01281-01391100971ADDAY171999GF102991021001022501071011MD1210501+9999MW1031
0057028640999991961011515004+65783+024583FM-12+001599999V0203501N00571030001CN0200001N9-01111-01221101421ADDAY171999GF107991041051004501071999MD1210451+9999MW1011
0081028640999991961011518004+65783+024583FM-12+001599999V0203601N00461220001CN0300001N9-01001-01111101871ADDAA199001091AY171999GF103991031001022501071001KA1999M-00721MD1210451+9999MW1021
0057028640999991961011521004+65783+024583FM-12+001599999V0203601N00311220001CN0500001N9-01221-01391102471ADDAY111999GF100991001001999999001001MD1210601+9999MW1011
0057028640999991961011600004+65783+024583FM-12+001599999V0203501N00311220001CN0500001N9-01611-01721102871ADDAY101999GF100991001001999999001001MD1210401+9999MW1021
0057028640999991961011603004+65783+024583FM-12+001599999V0203601N00261220001CN0500001N9-01891-02111103101ADDAY101999GF100991001001999999001001MD1210231+9999MW1021
0070028640999991961011606004+65783+024583FM-12+001599999V0203601N00211220001CN0500001N9-02221-02391103261ADDAY101999GF100991001001999999001001KA1999N-02221MD1210161+9999MW1021
0057028640999991961011609004+65783+024583FM-12+001599999V0200101N00101220001CN0300001N9-02281-02501103461ADDAY101999GF102991001001999999001021MD1210201+9999MW1031
0057028640999991961011612004+65783+024583FM-12+001599999V0200201N00051075001CN0400001N9-02391-02721103531ADDAY111999GF107991011001022501041061MD1210071+9999MW1031
0057028640999991961011615004+65783+024583FM-12+001599999V0209991C00001220001CN0200001N9-02281-02611103581ADDAY101999GF103991011001022501041061MD1310051+9999MW1031
0070028640999991961011618004+65783+024583FM-12+001599999V0201201N00211000601CN0080001N9-01781-02001103581ADDAY111999GF108991081071000751999999KA1999M-01781MD1410001+9999MW1031
0057028640999991961011621004+65783+024583FM-12+001599999V0201201N00311000601CN0060001N9-01501-01721103561ADDAY121999GF108991081071000751999999MD1810021+9999MW1031
0057028640999991961011700004+65783+024583FM-12+001599999V0201601N00311000601CN0050001N9-01501-01611103521ADDAY121999GF108991081071000751999999MD1710041+9999MW1021
0057028640999991961011703004+65783+024583FM-12+001599999V0201601N00411002401CN0150001N9-01221-01391103421ADDAY121999GF108991081071002501999999MD1710101+9999MW1011
0070028640999991961011706004+65783+024583FM-12+001599999V0201601N00511004501CN0200001N9-01111-01221103291ADDAY121999GF108991081071004501999999KA1999N-01781MD1710131+9999MW1011
0057028640999991961011709004+65783+024583FM-12+001599999V0201701N00621004501CN0030001N9-00721-00781103201ADDAY171999GF108991081071004501999999MD1710091+9999MW1711
0057028640999991961011712004+65783+024583FM-12+001599999V0201801N00511001501CN0019001N9-00391-00501103031ADDAY171999GF108991081071001501999999MD1710171+9999MW1701
0057028640999991961011715004+65783+024583FM-12+001599999V0201901N00621000601CN0020001N9-00221-00281102861ADDAY171999GF108991081071000751999999MD1710171+9999MW1761
0081028640999991961011718004+65783+024583FM-12+001599999V0202101N00571001501CN0150001N9-00111-00111102741ADDAA199000391AY171999GF108991081071001501999999KA1999M-00111MD1710121+9999MW1021
0057028640999991961011721004+65783+024583FM-12+001599999V0202101N00511001501CN0150001N9-00111-00221102771ADDAY121999GF108991081071001501999999MD1210031+9999MW1021
0057028640999991961011800004+65783+024583FM-12+001599999V0201901N00151000151CN0150001N9-00391-00391102801ADDAY121999GF108991081061000251999999MD1210031+9999MW1021
0057028640999991961011803004+65783+024583FM-12+001599999V0201801N00151000151CN0002001N9-00501-00611102811ADDAY141999GF109991091999000251999999MD1310011+9999MW1451
0070028640999991961011806004+65783+024583FM-12+001599999V0201801N00261000151CN0006001N9-00391-00501102821ADDAY141999GF109991091999000251999999KA1999N-00611MD1010011+9999MW1431
0057028640999991961011809004+65783+024583FM-12+001599999V0201801N00311000151CN0003001N9-00281-00281102831ADDAY141999GF109991091999000251999999MD1310011+9999MW1471
0057028640999991961011812004+65783+024583FM-12+001599999V0201801N00311000151CN0003001N9-00281-00281102801ADDAY141999GF109991091999000251999999MD1710031+9999MW1451
0057028640999991961011815004+65783+024583FM-12+001599999V0201801N00311000151CN0005001N9-00281-00281102771ADDAY141999GF109991091999000251999999MD1510031+9999MW1431
0081028640999991961011818004+65783+024583FM-12+001599999V0201901N00411000151CN0012001N9-00281-00391102731ADDAA199000391AY141999GF109991091999000251999999KA1999M-00221MD1710041+9999MW1101
0057028640999991961011821004+65783+024583FM-12+001599999V0201801N00261000151CN0010001N9-00391-00391102691ADDAY141999GF109991091999000251999999MD1710041+9999MW1101
0057028640999991961011900004+65783+024583FM-12+001599999V0201901N00311001501CN0060001N9-00611-00611102671ADDAY141999GF105991051071001501001001MD1710021+9999MW1011
0057028640999991961011903004+65783+024583FM-12+001599999V0201901N00311220001CN0300001N9-00721-00781102671ADDAY111999GF100991001001999999001001MD1410001+9999MW1021
0070028640999991961011906004+65783+024583FM-12+001599999V0201801N00311000151CN0007001N9-00501-00611102671ADDAY141999GF109991091999000251999999KA1999N-00781MD1410001+9999MW1451
0057028640999991961011909004+65783+024583FM-12+001599999V0201901N00311000601CN0030001N9-00391-00391102721ADDAY141999GF108991081071000751999999MD1210051+9999MW1101
0057028640999991961011915004+65783+024583FM-12+001599999V0202001N00311000601CN0050001N9-00221-00221102641ADDAY171999GF108991081071000751999999MD1710081+9999MW1761
0081028640999991961011918004+65783+024583FM-12+001599999V0202101N00361001501CN0150001N9-00221-00221102661ADDAA199000591AY171999GF108991081071001501999999KA1999M-00221MD1210021+9999MW1021
0057028640999991961011921004+65783+024583FM-12+001599999V0201901N00361001501CN0080001N9-00281-00281102631ADDAY121999GF108991081071001501999999MD1810031+9999MW1021
0057028640999991961012000004+65783+024583FM-12+001599999V0201701N00361004501CN0150001N9-00281-00281102531ADDAY121999GF108991081051004501999999MD1710101+9999MW1021
0057028640999991961012003004+65783+024583FM-12+001599999V0201801N00411004501CN0200001N9-00281-00391102461ADDAY121999GF108991081051004501999999MD1710071+9999MW1021
0070028640999991961012006004+65783+024583FM-12+001599999V0201601N00411004501CN0200001N9-00391-00501102381ADDAY121999GF108991081051004501999999KA1999N-00391MD1710081+9999MW1021
0057028640999991961012009004+65783+024583FM-12+001599999V0201601N00311004501CN0150001N9-00391-00501102411ADDAY121999GF108991081051004501999999MD1210031+9999MW1771
0057028640999991961012012004+65783+024583FM-12+001599999V0201501N00361004501CN0050001N9-00391-00501102371ADDAY171999GF108991081071004501999999MD1710041+9999MW1771
0057028640999991961012015004+65783+024583FM-12+001599999V0201601N00361002401CN0060001N9-00391-00501102361ADDAY171999GF108991081071002501999999MD1510011+9999MW1021
0081028640999991961012018004+65783+024583FM-12+001599999V0201701N00261002401CN0150001N9-00391-00501102351ADDAA199000691AY121999GF108991081071002501999999KA1999M-00281MD1810011+9999MW1021
0057028640999991961012021004+65783+024583FM-12+001599999V0201601N00311002401CN0150001N9-00501-00501102371ADDAY121999GF108991081071002501999999MD1310021+9999MW1021
0057028640999991961012100004+65783+024583FM-12+001599999V0201401N00361002401CN0150001N9-00611-00721102411ADDAY121999GF108991081071002501001001MD1210041+9999MW1021
0057028640999991961012103004+65783+024583FM-12+001599999V0201401N00361001501CN0050001N9-00721-00721102411ADDAY121999GF108991081071001501999999MD1410001+9999MW1021
0070028640999991961012106004+65783+024583FM-12+001599999V0201301N00211001501CN0100001N9-00721-00781102421ADDAY121999GF108991081071001501999999KA1999N-00721MD1310011+9999MW1241
0057028640999991961012109004+65783+024583FM-12+001599999V0201301N00151001501CN0040001N9-00721-00781102501ADDAY121999GF108991081071001501999999MD1210081+9999MW1791
0057028640999991961012112004+65783+024583FM-12+001599999V0201401N00151004501CN0040001N9-00721-00781102531ADDAY171999GF108991071051004501021999MD1010031+9999MW1731
0057028640999991961012115004+65783+024583FM-12+001599999V0209991C00001004501CN0050001N9-00781-00891102501ADDAY171999GF108991081071004501999999MD1610031+9999MW1781
0081028640999991961012118004+65783+024583FM-12+001599999V0209991C00001004501CN0080001N9-00781-00891102501ADDAA199000591AY171999GF108991081071004501999999KA1999M-00721MD1410001+9999MW1221
0057028640999991961012121004+65783+024583FM-12+001599999V0203401N00101004501CN0070001N9-00781-01001102531ADDAY171999GF108991081071004501999999MD1210031+9999MW1781
0057028640999991961012200004+65783+024583FM-12+001599999V0209991C00001004501CN0100001N9-00781-00891102531ADDAY171999GF108991081071004501999999MD1410001+9999MW1781
0057028640999991961012203004+65783+024583FM-12+001599999V0209991C00001004501CN0100001N9-00781-00891102551ADDAY171999GF108991081071004501999999MD1210021+9999MW1781
0081028640999991961012206004+65783+024583FM-12+001599999V0209991C00001004501CN0100001N9-00781-00891102571ADDAA199000391AY171999GF108991081071004501999999KA1999N-00781MD1210021+9999MW1781
0057028640999991961012209004+65783+024583FM-12+001599999V0203101N00151002401CN0050001N9-00891-01001102671ADDAY171999GF108991081071002501999999MD1210101+9999MW1701
0057028640999991961012212004+65783+024583FM-12+001599999V0209991C00001001501CN0080001N9-01001-01001102661ADDAY171999GF107991071061001501999999MD1710011+9999MW1781
0081028640999991961012218004+65783+024583FM-12+001599999V0202501N00151000601CN0100001N9-01111-01221102421ADDAA199000691AY171999GF108991081061000751999999KA1999M-00781MD1710111+9999MW1021
0057028640999991961012221004+65783+024583FM-12+001599999V0202701N00151004501CN0100001N9-01221-01281102261ADDAY121999GF106991061071004501999999MD1710161+9999MW1011
0057028640999991961012300004+65783+024583FM-12+001599999V0209991C00001021001CN0300001N9-01281-01501102151ADDAY121999GF105991051001022501071999MD1710111+9999MW1031
0057028640999991961012303004+65783+024583FM-12+001599999V0203101N00211220001CN0400001N9-01001-01111102021ADDAY121999GF101991011001022501071001MD1710131+9999MW1011
0070028640999991961012306004+65783+024583FM-12+001599999V0203501N00411030001CN0400001N9-00501-00611101991ADDAY111999GF107991031051008001071999KA1999N-01501MD1510031+9999MW1011
0057028640999991961012309004+65783+024583FM-12+001599999V0203401N00411220001CN0500001N9-00611-00721102171ADDAY101999GF101991011001022501041001MD1210181+9999MW1011
0057028640999991961012312004+65783+024583FM-12+001599999V0203501N00411220001CN0400001N9-00611-00781102281ADDAY101999GF102991011051008001041001MD1210111+9999MW1031
0057028640999991961012315004+65783+024583FM-12+001599999V0203501N00411220001CN0500001N9-00891-01111102451ADDAY111999GF101991011051008001001001MD1210171+9999MW1011
0070028640999991961012318004+65783+024583FM-12+001599999V0203601N00311220001CN0400001N9-01281-01391102471ADDAY111999GF100991001001999999001001KA1999M-00501MD1210021+9999MW1021
0057028640999991961012321004+65783+024583FM-12+001599999V0203401N00261220001CN0400001N9-01391-01611102471ADDAY101999GF100991001001999999001001MD1410001+9999MW1021
0057028640999991961012400004+65783+024583FM-12+001599999V0203501N00101220001CN0400001N9-02111-02221102501ADDAY101999GF100991001001999999001001MD1210031+9999MW1021
0057028640999991961012403004+65783+024583FM-12+001599999V0203601N00101220001CN0400001N9-02111-02281102471ADDAY101999GF100991001001999999001001MD1810041+9999MW1021
0070028640999991961012406004+65783+024583FM-12+001599999V0200501N00101220001CN0400001N9-02111-02281102431ADDAY101999GF102991021001022501041001KA1999N-02221MD1710041+9999MW1021
0057028640999991961012409004+65783+024583FM-12+001599999V0200201N00101007801CN0400001N9-01721-01891102431ADDAY111999GF106991061051008001001001MD1410001+9999MW1031
0057028640999991961012412004+65783+024583FM-12+001599999V0200201N00211007801CN0400001N9-01281-01391102411ADDAY121999GF107991071051008001999999MD1810021+9999MW1031
0057028640999991961012415004+65783+024583FM-12+001599999V0209991C00001007801CN0400001N9-01281-01391102311ADDAY121999GF106991061051008001999999MD1610101+9999MW1011
0070028640999991961012418004+65783+024583FM-12+001599999V0209991C00001220001CN0400001N9-01891-02111102201ADDAY121999GF100991001001999999001001KA1999M-01111MD1710121+9999MW1011
0057028640999991961012421004+65783+024583FM-12+001599999V0203501N00101220001CN0400001N9-02221-02391101961ADDAY101999GF102991021001022501041001MD1710241+9999MW1031
0057028640999991961012500004+65783+024583FM-12+001599999V0209991C00001220001CN0400001N9-02501-02781101731ADDAY101999GF101991011001022501041001MD1710231+9999MW1011
0057028640999991961012503004+65783+024583FM-12+001599999V0209991C00001220001CN0400001N9-02391-02721101421ADDAY101999GF100991001001999999001001MD1710311+9999MW1011
0070028640999991961012506004+65783+024583FM-12+001599999V0202201N00101030001CN0300001N9-02111-02281101091ADDAY101999GF106991021051008001071999KA1999N-02501MD1710321+9999MW1031
0057028640999991961012509004+65783+024583FM-12+001599999V0202501N00211030001CN0400001N9-01501-01721100861ADDAY121999GF107991031051008001071999MD1710231+9999MW1021
0057028640999991961012512004+65783+024583FM-12+001599999V0209991C00001030001CN0200001N9-01611-01721100561ADDAY121999GF105991011051008001041051MD1710301+9999MW1011
0057028640999991961012515004+65783+024583FM-12+001599999V0200401N00101030001CN0200001N9-01721-01891100471ADDAY121999GF106991021051008001041051MD1710091+9999MW1031
0070028640999991961012518004+65783+024583FM-12+001599999V0203201N00211007801CN0300001N9-01391-01501100501ADDAY121999GF107991071051008001999999KA1999M-01391MD1110031+9999MW1031
0057028640999991961012521004+65783+024583FM-12+001599999V0203201N00101220001CN0400001N9-01721-01781100641ADDAY111999GF102991011001022501041011MD1210141+9999MW1011
0057028640999991961012600004+65783+024583FM-12+001599999V0209991C00001075001CN0200001N9-01501-01611100711ADDAY111999GF106991011001022501041021MD1110071+9999MW1031
0057028640999991961012603004+65783+024583FM-12+001599999V0209991C00001075001CN0300001N9-01501-01721100711ADDAY121999GF107991041001022501071021MD1410001+9999MW1031
0070028640999991961012606004+65783+024583FM-12+001599999V0209991C00001021001CN0200001N9-01221-01281100691ADDAY121999GF107991071001022501071999KA1999N-01781MD1610021+9999MW1771
0057028640999991961012609004+65783+024583FM-12+001599999V0209991C00001030001CN0040001N9-01001-01111100741ADDAY171999GF107991031051004501071999MD1210051+9999MW1021
0057028640999991961012612004+65783+024583FM-12+001599999V0203601N00101220001CN0400001N9-01001-01111100861ADDAY121999GF103991011051004501071001MD1210121+9999MW1011
0076028640999991961012615004+65783+024583FM-12+001599999V0209991C000019999999N0012001N9-01721-01891101011ADDAY101999GF108991999061000251001001MD1210151+9999MW1101EQDQ01+000042SCOTLC
0057028640999991961012621004+65783+024583FM-12+001599999V0209991C00001220001CN0020001N9-02111-02281101151ADDAY101999GF102991001001999999001011MD1210041+9999MW1041
0057028640999991961012700004+65783+024583FM-12+001599999V0209991C00001220001CN0020001N9-02221-02391101261ADDAY101999GF102991001001999999001011MD1210111+9999MW1101
0070028640999991961012706004+65783+024583FM-12+001599999V0201201N00101000601CN0045001N9-01501-02721101151ADDAY111999GF108991081071000751999999KA1999N-02281MD1710081+9999MW1221
0057028640999991961012712004+65783+024583FM-12+001599999V0201201N00101000601CN0020001N9-01221-01281101131ADDAY141999GF108991081071000751999999MD1110041+9999MW1771
0057028640999991961012715004+65783+024583FM-12+001599999V0201101N00101000601CN0012001N9-01221-01281101041ADDAY171999GF108991081071000751999999MD1810091+9999MW1771
0081028640999991961012718004+65783+024583FM-12+001599999V0201201N00101000601CN0040001N9-01001-01111100951ADDAA199000391AY171999GF108991081061000751999999KA1999M-01001MD1810091+9999MW1771
0057028640999991961012721004+65783+024583FM-12+001599999V0201501N00211000151CN0020001N9-00781-00891100851ADDAY171999GF108991081061000251999999MD1710101+9999MW1771
0057028640999991961012800004+65783+024583FM-12+001599999V0201301N00211000151CN0008001N9-00721-00781100681ADDAY141999GF109991091999000251999999MD1710171+9999MW1771
0057028640999991961012803004+65783+024583FM-12+001599999V0201401N00311001501CN0150001N9-00501-00611100361ADDAY171999GF108991081071001501999999MD1710321+9999MW1021
0081028640999991961012806004+65783+024583FM-12+001599999V0201301N00461002401CN0150001N9-00501-00611099951ADDAA199000691AY171999GF108991081071002501999999KA1999N-01111MD1710411+9999MW1021
0057028640999991961012809004+65783+024583FM-12+001599999V0201301N00621000151CN0012001N9-00501-00501099641ADDAY171999GF109991091999000251999999MD1710311+9999MW1731
0057028640999991961012812004+65783+024583FM-12+001599999V0201301N00621000151CN0010001N9-00391-00501099271ADDAY171999GF109991091999000251999999MD1710371+9999MW1731
0057028640999991961012815004+65783+024583FM-12+001599999V0202101N00411030001CN0100001N9-00501-00611099171ADDAY171999GF107991021051004501071051MD1610101+9999MW1011
0081028640999991961012818004+65783+024583FM-12+001599999V0202201N00361030001CN0150001N9-00501-00501099141ADDAA199004091AY171999GF106991021051008001071999KA1999M-00281MD1710031+9999MW1011
0057028640999991961012821004+65783+024583FM-12+001599999V0202001N00361030001CN0200001N9-00221-00281099051ADDAY121999GF107991021051004501071999MD1710091+9999MW1021
0057028640999991961012900004+65783+024583FM-12+001599999V0202401N00571075001CN0400001N9+00001-00221099051ADDAY121999GF107991041001022501071071MD1510001+9999MW1011
0057028640999991961012903004+65783+024583FM-12+001599999V0202201N00821021001CN0200001N9-00111-00221099021ADDAY121999GF105991051001022501071001MD1810031+9999MW1361
0070028640999991961012906004+65783+024583FM-12+001599999V0202101N00771220001CN0300001N9-00221-00391099001ADDAY131999GF103991031001022501071001KA1999N-00501MD1710021+9999MW1011
0057028640999991961012909004+65783+024583FM-12+001599999V0202201N00721220001CN0400001N9-00221-00391099011ADDAY101999GF103991021001022501051021MD1310011+9999MW1361
0057028640999991961012912004+65783+024583FM-12+001599999V0202101N00621075001CN0300001N9-00281-00391099051ADDAY131999GF105991011071002501041061MD1210041+9999MW1041
0057028640999991961012915004+65783+024583FM-12+001599999V0202401N00571001501CN0050001N9-00111-00111099011ADDAY121999GF108991081071001501999999MD1810041+9999MW1031
0081028640999991961012918004+65783+024583FM-12+001599999V0201501N00411001501CN0045001N9-00111-00111098831ADDAA199000691AY121999GF108991081071001501999999KA1999M-00111MD1710181+9999MW1561
0057028640999991961012921004+65783+024583FM-12+001599999V0200901N00511001501CN0010001N9-00221-00221098641ADDAY151999GF108991081071001501999999MD1710191+9999MW1721
0057028640999991961013000004+65783+024583FM-12+001599999V0200701N00311000151CN0025001N9-00281-00391098421ADDAY151999GF109991091999000251999999MD1710221+9999MW1721
0057028640999991961013003004+65783+024583FM-12+001599999V0200501N00311002401CN0045001N9-00281-00281098291ADDAY171999GF108991081071002501999999MD1710131+9999MW1711
0081028640999991961013006004+65783+024583FM-12+001599999V0200201N00511004501CN0035001N9-00501-00611098171ADDAA199003091AY171999GF108991081071004501999999KA1999N-00501MD1710121+9999MW1731
0057028640999991961013009004+65783+024583FM-12+001599999V0200201N00571002401CN0080001N9-00501-00611098081ADDAY171999GF108991081071002501999999MD1710091+9999MW1711
0081028640999991961013018004+65783+024583FM-12+001599999V0200401N00571004501CN0050001N9-00781-00891097971ADDAA199002091AY171999GF108991061071004501021999KA1999M-00501MD1710041+9999MW1711
0057028640999991961013021004+65783+024583FM-12+001599999V0200401N00621030001CN0040001N9-00721-00891097981ADDAY171999GF108991041071004501021999MD1310011+9999MW1731
0057028640999991961013100004+65783+024583FM-12+001599999V0200401N00621007801CN0060001N9-00721-00891097981ADDAY171999GF108991051071008001021999MD1410001+9999MW1711
0057028640999991961013103004+65783+024583FM-12+001599999V0200401N00671021001CN0050001N9-00721-01001098011ADDAY171999GF107991071001022501071999MD1310031+9999MW1721
0081028640999991961013106004+65783+024583FM-12+001599999V0200401N00721021001CN0040001N9-00781-01001098071ADDAA199001091AY171999GF108991081001022501021999KA1999N-00781MD1210061+9999MW1721
0057028640999991961013109004+65783+024583FM-12+001599999V0200401N00621021001CN0040001N9-00891-01111098251ADDAY171999GF108991081001022501021999MD1210181+9999MW1711
0057028640999991961013112004+65783+024583FM-12+001599999V0200301N00671021001CN0040001N9-01001-01221098391ADDAY171999GF108991081001022501021999MD1210141+9999MW1731
0057028640999991961013115004+65783+024583FM-12+001599999V0200401N00461015001CN0040001N9-01001-01221098591ADDAY171999GF108991081001017501021999MD1210201+9999MW1731
0081028640999991961013118004+65783+024583FM-12+001599999V0200401N00411015001CN0070001N9-01111-01281098711ADDAA199002091AY171999GF108991081001017501021999KA1999M-00781MD1210101+9999MW1711
0057028640999991961013121004+65783+024583FM-12+001599999V0200401N00411015001CN0050001N9-01111-01281098891ADDAY171999GF108991081001017501021999MD1210181+9999MW1711
0057028640999991961020100004+65783+024583FM-12+001599999V0200401N00211015001CN0050001N9-01221-01391099021ADDAY171999GF107991071001017501021999MD1210131+9999MW1711
0057028640999991961020103004+65783+024583FM-12+001599999V0200401N00311015001CN0060001N9-01281-01501099111ADDAY171999GF107991071001017501071999MD1210091+9999MW1711
0081028640999991961020106004+65783+024583FM-12+001599999V0200501N00211030001CN0070001N9-01281-01501099201ADDAA199001091AY171999GF108991021051008001071999KA1999N-01391MD1210091+9999MW1711
0057028640999991961020109004+65783+024583FM-12+001599999V0200301N00211021001CN0130001N9-01391-01611099331ADDAY171999GF106991061001022501071999MD1210131+9999MW1011
0057028640999991961020115004+65783+024583FM-12+001599999V0200501N00211220001CN0080001N9-02111-02281099551ADDAY101999GF102991021001022501041001MD1210121+9999MW1021
0081028640999991961020118004+65783+024583FM-12+001599999V0200401N00151220001CN0100001N9-02221-02391099591ADDAA199000691AY101999GF104991041001022501071001KA1999M-01281MD1210041+9999MW1031
0057028640999991961020121004+65783+024583FM-12+001599999V0209991C00001030001CN0100001N9-01891-02111099661ADDAY121999GF107991021051008001071999MD1210071+9999MW1031
0057028640999991961020200004+65783+024583FM-12+001599999V0200301N00101030001CN0200001N9-01611-01781099701ADDAY121999GF107991031051008001071999MD1110041+9999MW1021
0057028640999991961020203004+65783+024583FM-12+001599999V0201001N00151004501CN0100001N9-01501-01611099751ADDAY121999GF108991081051004501999999MD1210051+9999MW1701
0089028640999991961020206004+65783+024583FM-12+001599999V0201401N00151004501CN0100001N9-01281-01391099751ADDAY171999GF108991081071004501999999KA1999N-02221MD1410001+9999MW1711EQDQ01+000032APCTEN
0057028640999991961020209004+65783+024583FM-12+001599999V0201401N00361007801CN0150001N9-01221-01281099761ADDAY121999GF108991081051008001999999MD1310011+9999MW1021
0057028640999991961020215004+65783+024583FM-12+001599999V0201201N00151030001CN0050001N9-01111-01221099891ADDAY121999GF107991041051008001071999MD1210051+9999MW1701
0081028640999991961020218004+65783+024583FM-12+001599999V0200801N00361007801CN0100001N9-01001-01221099951ADDAA199000391AY171999GF108991081051008001999999KA1999M-01001MD1210061+9999MW1711
0057028640999991961020221004+65783+024583FM-12+001599999V0200601N00311002401CN0100001N9-01001-01111100021ADDAY171999GF108991081051002501999999MD1210071+9999MW1711
0057028640999991961020300004+65783+024583FM-12+001599999V0200201N00311002401CN0200001N9-00891-01111100061ADDAY171999GF108991081071002501999999MD1210041+9999MW1221
0057028640999991961020303004+65783+024583FM-12+001599999V0200701N00261001501CN0200001N9-00781-00891100101ADDAY121999GF108991081071001501999999MD1210041+9999MW1031
0057028640999991961020309004+65783+024583FM-12+001599999V0200201N00101030001CN0200001N9-00891-01001100061ADDAY121999GF107991021051004501031071MD1410001+9999MW1011
0081028640999991961020318004+65783+024583FM-12+001599999V0200301N00771021001CN0060001N9-00891-01111100211ADDAA199001091AY171999GF107991071001022501071999KA1999M-00781MD1210151+9999MW1711
0057028640999991961020400004+65783+024583FM-12+001599999V0200101N00671220001CN0400001N9-01221-01391100401ADDAY171999GF105991001001999999001021MD1210081+9999MW1031
0057028640999991961020403004+65783+024583FM-12+001599999V0200101N00721220001CN0500001N9-01391-01611100391ADDAY121999GF102991001001999999001021MD1710011+9999MW1011
0081028640999991961020406004+65783+024583FM-12+001599999V0200301N00671030001CN0400001N9-01221-01391100381ADDAA199000391AY111999GF107991031051004501071999KA1999N-01391MD1810011+9999MW1021
0076028640999991961020409004+65783+024583FM-12+001599999V0200301N00671004501CN0020001N9-01001-01221100381ADDAY171999GF108991081071004501999999MD1410001+9999MW1731EQDQ01+000082APCTEN
0057028640999991961020415004+65783+024583FM-12+001599999V0200401N00411007801CN0150001N9-00781-01001100411ADDAY171999GF108991061071008001021999MD1210041+9999MW1221
0081028640999991961020418004+65783+024583FM-12+001599999V0200401N00511021001CN0200001N9-00891-01221100561ADDAA199001091AY121999GF106991061001022501071999KA1999M-00781MD1210151+9999MW1011
0057028640999991961020421004+65783+024583FM-12+001599999V0200401N00511021001CN0400001N9-01001-01281100781ADDAY111999GF105991051001022501071001MD1210221+9999MW1011
0057028640999991961020500004+65783+024583FM-12+001599999V0200201N00671220001CN0500001N9-01391-01721100911ADDAY111999GF105991001001999999001011MD1210131+9999MW1011
0057028640999991961020503004+65783+024583FM-12+001599999V0200201N00671220001CN0500001N9-01501-01721100991ADDAY121999GF107991001001999999001071MD1110081+9999MW1031
0070028640999991961020506004+65783+024583FM-12+001599999V0200701N00571075001CN0500001N9-01611-01721101071ADDAY121999GF107991011001022501041071KA1999N-01611MD1010081+9999MW1031
0057028640999991961020509004+65783+024583FM-12+001599999V0200201N00621075001CN0500001N9-01501-01721101231ADDAY121999GF107991021001022501041071MD1210161+9999MW1021
0057028640999991961020515004+65783+024583FM-12+001599999V0200101N00511075001CN0500001N9-01611-01891101291ADDAY121999GF107991021001022501041071MD1210041+9999MW1021
0070028640999991961020518004+65783+024583FM-12+001599999V0200201N00511220001CN0500001N9-01721-01781101301ADDAY121999GF102991011001022501041021KA1999M-01391MD1210011+9999MW1011
0057028640999991961020521004+65783+024583FM-12+001599999V0203601N00411220001CN0500001N9-01891-02111101281ADDAY101999GF100991001001999999001001MD1710021+9999MW1011
0057028640999991961020600004+65783+024583FM-12+001599999V0203601N00411220001CN0500001N9-02281-02501101311ADDAY101999GF100991001001999999001001MD1810031+9999MW1021
0057028640999991961020603004+65783+024583FM-12+001599999V0203601N00411220001CN0500001N9-02501-02721101281ADDAY101999GF101991001001999999001011MD1710031+9999MW1031
0070028640999991961020606004+65783+024583FM-12+001599999V0203601N00311220001CN0500001N9-02721-03001101231ADDAY101999GF101991011001022501041001KA1999N-02721MD1710051+9999MW1021
0057028640999991961020609004+65783+024583FM-12+001599999V0200101N00261220001CN0300001N9-02721-03001101171ADDAY101999GF101991011001022501041001MD1610061+9999MW1021
0057028640999991961020615004+65783+024583FM-12+001599999V0200801N00211030001CN0300001N9-02111-02281100901ADDAY121999GF108991021051008001071999MD1710201+9999MW1031
0070028640999991961020618004+65783+024583FM-12+001599999V0201101N00411030001CN0400001N9-01891-02111100591ADDAY121999GF107991021071004501071999KA1999M-01891MD1710311+9999MW1021
0057028640999991961020621004+65783+024583FM-12+001599999V0201101N00671004501CN0060001N9-01611-01781100201ADDAY171999GF108991081071004501999999MD1710391+9999MW1731
0057028640999991961020700004+65783+024583FM-12+001599999V0201201N00931004501CN0040001N9-01111-01221099701ADDAY171999GF108991061071004501021999MD1710501+9999MW1731
0057028640999991961020703004+65783+024583FM-12+001599999V0201301N01031000151CN0016001N9-00781-00891099271ADDAY171999GF109991091999000251999999MD1710431+9999MW1731
0081028640999991961020706004+65783+024583FM-12+001599999V0201401N01081002401CN0040001N9-00501-00611098941ADDAA199000591AY171999GF108991081071002501999999KA1999N-01891MD1710331+9999MW1731
0057028640999991961020709004+65783+024583FM-12+001599999V0201301N01131000151CN0010001N9-00281-00391098831ADDAY171999GF109991091999000251999999MD1710111+9999MW1731
0057028640999991961020712004+65783+024583FM-12+001599999V0201401N01031001501CN0100001N9-00221-00221098801ADDAY171999GF108991071071001501021999MD1610031+9999MW1711
0057028640999991961020715004+65783+024583FM-12+001599999V0201401N00931002401CN0100001N9-00111-00221098821ADDAY171999GF108991061071002501021999MD1810021+9999MW1711
0081028640999991961020718004+65783+024583FM-12+001599999V0201301N01031002401CN0070001N9+00001-00111098731ADDAA199002091AY171999GF108991061071002501021999KA1999M+00001MD1710091+9999MW1561
0057028640999991961020721004+65783+024583FM-12+001599999V0201401N01131000151CN0010001N9+00001+00001098571ADDAY151999GF109991091999000251999999MD1710161+9999MW1751
0057028640999991961020800004+65783+024583FM-12+001599999V0201601N009319999999N0015001N9+00001+00001098671ADDAY171999GF108991081999999999999999MD1310101+9999MW1731
0057028640999991961020803004+65783+024583FM-12+001599999V0201801N00771000151CN0020001N9+00001+00001098811ADDAY171999GF109991091999000251999999MD1210141+9999MW1731
0100028640999991961020806004+65783+024583FM-12+001599999V0202401N00771000151CN0020001N9-00221-00391099001ADDAA199006091AY171999GF109991091999000251999999KA1999N+99999MD1210191+9999MW1571EQDQ01 -00112ATMN  
0057028640999991961020815004+65783+024583FM-12+001599999V0203301N00261030001CN0030001N9-00721-00721099761ADDAY171999GF108991041071004501021999MD1210291+9999MW1731
0081028640999991961020818004+65783+024583FM-12+001599999V0203201N00211004501CN0030001N9-00611-00721100111ADDAA199005091AY171999GF108991051051004501021999KA1999M+00001MD1210351+9999MW1731
0057028640999991961020821004+65783+024583FM-12+001599999V0203301N00101030001CN0040001N9-00611-00721100391ADDAY171999GF107991041051004501071999MD1210281+9999MW1731
0057028640999991961020900004+65783+024583FM-12+001599999V0203601N00411030001CN0040001N9-00391-00501100581ADDAY171999GF108991041051004501071999MD1210191+9999MW1731
0057028640999991961020903004+65783+024583FM-12+001599999V0200201N00211030001CN0050001N9-00391-00501100791ADDAY171999GF108991031051004501071999MD1210211+9999MW1731
0081028640999991961020906004+65783+024583FM-12+001599999V0200101N00411030001CN0100001N9-00391-00501100991ADDAA199003091AY171999GF108991031051004501071999KA1999N-00611MD1210201+9999MW1711
0057028640999991961020909004+65783+024583FM-12+001599999V0200201N00311004501CN0200001N9-00501-00501101181ADDAY171999GF108991051071004501071999MD1210191+9999MW1781
0057028640999991961020915004+65783+024583FM-12+001599999V0200201N00311220001CN0300001N9-00721-00781101511ADDAY171999GF103991021071004501041021MD1210131+9999MW1011
0057028640999991961020921004+65783+024583FM-12+001599999V0200201N00101220001CN0400001N9-01391-01501101861ADDAY101999GF100991001001999999001001MD1210131+9999MW1021
0057028640999991961021000004+65783+024583FM-12+001599999V0200601N00211220001CN0400001N9-01501-01611101971ADDAY101999GF100991001001999999001001MD1210111+9999MW1021
0057028640999991961021003004+65783+024583FM-12+001599999V0200201N00211220001CN0400001N9-02111-02281102011ADDAY101999GF100991001001999999001001MD1210041+9999MW1021
0070028640999991961021006004+65783+024583FM-12+001599999V0200201N00211004501CN0060001N9-01501-01721101971ADDAY101999GF108991081051004501999999KA1999N-02221MD1710041+9999MW1701
0057028640999991961021009004+65783+024583FM-12+001599999V0201201N00101002401CN0100001N9-00891-01001101931ADDAY171999GF108991081071002501999999MD1710041+9999MW1021
0057028640999991961021015004+65783+024583FM-12+001599999V0201401N00151001501CN0050001N9-00721-00781101661ADDAY171999GF108991081071001501999999MD1710151+9999MW1771
0081028640999991961021018004+65783+024583FM-12+001599999V0201601N00311000601CN0030001N9-00781-00891101451ADDAA199002091AY171999GF108991081071000751999999KA1999M-00721MD1710211+9999MW1221
0057028640999991961021021004+65783+024583FM-12+001599999V0201801N00311000151CN0012001N9-00891-01001101171ADDAY171999GF108991081061000251999999MD1710281+9999MW1771
0057028640999991961021103004+65783+024583FM-12+001599999V0201201N00211000601CN0015001N9-01001-01111100541ADDAY171999GF108991081061000751999999MD1710401+9999MW1101
0081028640999991961021106004+65783+024583FM-12+001599999V0201101N00311001501CN0100001N9-00891-01001100161ADDAA199000391AY121999GF107991051071001501071999KA1999N-01221MD1710381+9999MW1011
0057028640999991961021109004+65783+024583FM-12+001599999V0201201N00261004501CN0035001N9-00781-00781099851ADDAY121999GF107991051071004501071999MD1710311+9999MW1771
0057028640999991961021115004+65783+024583FM-12+001599999V0201301N00261030001CN0040001N9-00721-00721099461ADDAY171999GF108991021071004501021999MD1710131+9999MW1711
0081028640999991961021118004+65783+024583FM-12+001599999V0201301N00261004501CN0100001N9-00611-00721099301ADDAA199001091AY171999GF108991081071004501999999KA1999M-00611MD1710161+9999MW1711
0057028640999991961021121004+65783+024583FM-12+001599999V0209991C00001002401CN0100001N9-00611-00721099261ADDAY171999GF108991081071002501999999MD1710041+9999MW1711
0057028640999991961021200004+65783+024583FM-12+001599999V0209991C00001001501CN0100001N9-00611-00611099251ADDAY171999GF108991081071001501999999MD1810011+9999MW1771
0057028640999991961021203004+65783+024583FM-12+001599999V0209991C00001001501CN0100001N9-00611-00611099301ADDAY171999GF108991081071001501999999MD1310051+9999MW1761
0081028640999991961021206004+65783+024583FM-12+001599999V0202501N00151000151CN0020001N9-00611-00721099421ADDAA199000591AY171999GF108991081061000251999999KA1999N-00611MD1210121+9999MW1421
0057028640999991961021209004+65783+024583FM-12+001599999V0202501N00211000151CN0006001N9-00891-01001099591ADDAY141999GF109991091999000251999999MD1210191+9999MW1431
0057028640999991961021215004+65783+024583FM-12+001599999V0201301N00101220001CN0060001N9-01281-01391099941ADDAY111999GF102991011051004501041001MD1210141+9999MW1021
0070028640999991961021218004+65783+024583FM-12+001599999V0209991C00001220001CN0050001N9-01781-02001100061ADDAY111999GF101991011001022501041001KA1999M-00611MD1210121+9999MW1021
0057028640999991961021221004+65783+024583FM-12+001599999V0209991C00001000151CN0010001N9-02001-02221100291ADDAY141999GF105991051061000251001001MD1310231+9999MW1101
0057028640999991961021300004+65783+024583FM-12+001599999V0209991C00001220001CN0008001N9-02221-02391100581ADDAY141999GF100991001001999999001001MD1310361+9999MW1421
0057028640999991961021303004+65783+024583FM-12+001599999V0209991C00001000151CN0001001N9-02281-02501100861ADDAY141999GF107991071061000251999999MD1210281+9999MW1461
0057028640999991961021306004+65783+024583FM-12+001599999V0209991C00001220001CN0020001N9-02391-02721101081ADDAY141999GF101991011001022501071001MD1210221+9999MW1101
0057028640999991961021309004+65783+024583FM-12+001599999V0209991C00001000601CN0003001N9-02111-02281101281ADDAY141999GF106991061071000751001021MD1210201+9999MW1421
0057028640999991961021315004+65783+024583FM-12+001599999V0201501N00261030001CN0100001N9-01221-01391101361ADDAY121999GF107991011061000751041071MD1710051+9999MW1021
0070028640999991961021318004+65783+024583FM-12+001599999V0201601N00411075001CN0150001N9-00891-00891101141ADDAY121999GF107991041001022501071071KA1999M-00781MD1710221+9999MW1011
0057028640999991961021321004+65783+024583FM-12+001599999V0201601N00771021001CN0200001N9-00611-00721100741ADDAY121999GF108991051001022501071071MD1710401+9999MW1031
0057028640999991961021400004+65783+024583FM-12+001599999V0201601N00821000151CN0018001N9-00391-00391100361ADDAY121999GF109991091999000251999999MD1710371+9999MW1731
0057028640999991961021403004+65783+024583FM-12+001599999V0201801N00671001501CN0035001N9-00111-00111100011ADDAY171999GF108991081061001501999999MD1710351+9999MW1711
0081028640999991961021406004+65783+024583FM-12+001599999V0201901N00671001501CN0070001N9+00001+00001099781ADDAA199001091AY171999GF108991081071001501999999KA1999N-00781MD1710231+9999MW1221
0057028640999991961021409004+65783+024583FM-12+001599999V0201901N00571000601CN0050001N9+00001+00001099601ADDAY161999GF108991081071000751999999MD1710181+9999MW1661
0057028640999991961021412004+65783+024583FM-12+001599999V0201901N00771001501CN0100001N9+00111+00001099571ADDAY161999GF108991081071001501999999MD1810031+9999MW1601
0057028640999991961021415004+65783+024583FM-12+001599999V0201901N00771000601CN0060001N9+00111+00001099481ADDAY161999GF108991061071000751021999MD1710091+9999MW1031
0081028640999991961021418004+65783+024583FM-12+001599999V0201901N00361001501CN0150001N9+00001+00001099481ADDAA199001091AY121999GF106991061071001501999999KA1999M+00111MD1410001+9999MW1011
0057028640999991961021500004+65783+024583FM-12+001599999V0202701N00211021001CN0200001N9-00111-00111099671ADDAY121999GF107991071001022501071999MD1210161+9999MW1021
0057028640999991961021503004+65783+024583FM-12+001599999V0203001N00621004501CN0300001N9+00111+00001100071ADDAY121999GF108991081051004501999999MD1210401+9999MW1031
0070028640999991961021506004+65783+024583FM-12+001599999V0203001N00511220001CN0500001N9-00221-00391100581ADDAY121999GF101991011051008001041001KA1999N-00281MD1210511+9999MW1011
0057028640999991961021509004+65783+024583FM-12+001599999V0203101N00411220001CN0500001N9-00391-00611101141ADDAY111999GF104991021051004501041001MD1210561+9999MW1011
0057028640999991961021515004+65783+024583FM-12+001599999V0203001N00101220001CN0500001N9-00391-00891101821ADDAY101999GF101991011001022501041001MD1210281+9999MW1031
0070028640999991961021518004+65783+024583FM-12+001599999V0202701N00311220001CN0500001N9-00721-01001102011ADDAY101999GF101991011001022501041001KA1999M-00111MD1210191+9999MW1021
0057028640999991961021521004+65783+024583FM-12+001599999V0201901N00211220001CN0300001N9-00891-01111101721ADDAY111999GF101991011001022501041001MD1710141+9999MW1021
0057028640999991961021600004+65783+024583FM-12+001599999V0201801N00511030001CN0200001N9-00501-00611101691ADDAY101999GF105991011051004501041999MD1710011+9999MW1031
0057028640999991961021603004+65783+024583FM-12+001599999V0201601N00621220001CN0300001N9-00501-00721101271ADDAY111999GF102991021001022501041001MD1710421+9999MW1011
0057028640999991961021615004+65783+024583FM-12+001599999V0201801N00311220001CN0250001N9-00721-00721101031ADDAY121999GF103991011001022501041021MD1710011+9999MW1011
0070028640999991961021618004+65783+024583FM-12+001599999V0201801N00311220001CN0300001N9-00611-00721100951ADDAY111999GF101991011001022501071001KA1999M-00391MD1710081+9999MW1011
0057028640999991961021621004+65783+024583FM-12+001599999V0209991C00001220001CN0300001N9-01111-01221101041ADDAY101999GF100991001001999999001001MD1210091+9999MW1011
0057028640999991961021700004+65783+024583FM-12+001599999V0209991C00001220001CN0300001N9-01221-01281101331ADDAY101999GF101991011001022501071001MD1210291+9999MW1021
0057028640999991961021703004+65783+024583FM-12+001599999V0200101N00151030001CN0400001N9-01001-01111101521ADDAY121999GF108991031051008001071999MD1210191+9999MW1031
0070028640999991961021706004+65783+024583FM-12+001599999V0200101N00211030001CN0400001N9-00721-00781101551ADDAY121999GF107991031051008001071999KA1999N-01281MD1010031+9999MW1011
0057028640999991961021709004+65783+024583FM-12+001599999V0200401N00101021001CN0400001N9-00611-00721101581ADDAY121999GF108991081001022501021999MD1210031+9999MW1031
0057028640999991961021712004+65783+024583FM-12+001599999V0201201N00411030001CN0400001N9-00281-00501101391ADDAY121999GF107991021051012501071999MD1810191+9999MW1011
0057028640999991961021715004+65783+024583FM-12+001599999V0201501N00621004501CN0035001N9-00221-00281100991ADDAY121999GF108991071051004501021999MD1710401+9999MW1771
0081028640999991961021718004+65783+024583FM-12+001599999V0201801N00671001501CN0060001N9+00111+00111100561ADDAA199003091AY171999GF108991081071001501999999KA1999M+00111MD1710431+9999MW1611
0057028640999991961021721004+65783+024583FM-12+001599999V0202301N00671030001CN0150001N9+00221+00111100261ADDAY161999GF108991041071002501021999MD1710301+9999MW1211
0057028640999991961021800004+65783+024583FM-12+001599999V0202401N00511021001CN0300001N9+00221+00111100121ADDAY161999GF108991081001022501071999MD1710281+9999MW1021
0057028640999991961021803004+65783+024583FM-12+001599999V0202701N00261021001CN0300001N9+00281+00111100041ADDAY121999GF108991071001022501071999MD1710081+9999MW1011
0081028640999991961021806004+65783+024583FM-12+001599999V0202601N00411030001CN0400001N9+00281+00111100091ADDAA199001091AY111999GF107991041051008001071999KA1999N+00111MD1310051+9999MW1031
0057028640999991961021809004+65783+024583FM-12+001599999V0203001N00211220001CN0500001N9+00391+00111100311ADDAY111999GF103991011051008001041001MD1210221+9999MW1011
0057028640999991961021812004+65783+024583FM-12+001599999V0203601N00511030001CN0500001N9+00001-00111100701ADDAY111999GF106991021051004501071011MD1210391+9999MW1031
0057028640999991961021815004+65783+024583FM-12+001599999V0200101N00571030001CN0500001N9-00221-00501101001ADDAY121999GF107991021051008001071999MD1210301+9999MW1031
0070028640999991961021818004+65783+024583FM-12+001599999V0203601N00511220001CN0500001N9-00501-00721101311ADDAY121999GF103991031001022501041001KA1999M+00501MD1210311+9999MW1011
0057028640999991961021821004+65783+024583FM-12+001599999V0200101N00361220001CN0500001N9-00891-01001101511ADDAY101999GF100991001001999999001001MD1210191+9999MW1021
0057028640999991961021900004+65783+024583FM-12+001599999V0209991C00001012301CN0400001N9-01281-01391101751ADDAY101999GF106991061051012501001001MD1210241+9999MW1031
0057028640999991961021903004+65783+024583FM-12+001599999V0203601N00151220001CN0400001N9-01611-01721101821ADDAY111999GF100991001001999999001001MD1210071+9999MW1021
0070028640999991961021906004+65783+024583FM-12+001599999V0203601N00151220001CN0400001N9-01891-02111101921ADDAY101999GF102991011001022501041021KA1999N-01891MD1210101+9999MW1031
0057028640999991961021909004+65783+024583FM-12+001599999V0203601N00101075001CN0150001N9-01611-01781102051ADDAY111999GF107991021001022501071071MD1110131+9999MW1041
0057028640999991961021915004+65783+024583FM-12+001599999V0201801N00211075001CN0150001N9-00891-01001102101ADDAY121999GF108991031001022501071071MD1310011+9999MW1041
0081028640999991961021918004+65783+024583FM-12+001599999V0201301N00261021001CN0100001N9-00781-00891102051ADDAA199000591AY121999GF108991081001022501021999KA1999M-00781MD1710051+9999MW1711
0057028640999991961021921004+65783+024583FM-12+001599999V0201601N00361007801CN0150001N9-00611-00721101921ADDAY171999GF108991081051008001999999MD1710131+9999MW1221
0057028640999991961022000004+65783+024583FM-12+001599999V0201601N00511001501CN0100001N9-00501-00501101671ADDAY121999GF108991081071001501999999MD1710251+9999MW1021
0057028640999991961022003004+65783+024583FM-12+001599999V0201801N00511000151CN0006001N9-00281-00281101361ADDAY141999GF109991091999000251999999MD1710311+9999MW1451
0081028640999991961022006004+65783+024583FM-12+001599999V0201901N00511000601CN0060001N9+00001+00001100901ADDAA199001091AY171999GF108991081071000751999999KA1999N-00781MD1710461+9999MW1211
0057028640999991961022009004+65783+024583FM-12+001599999V0202601N00721075001CN0250001N9+00221+00111100731ADDAY121999GF107991031001022501071071MD1710171+9999MW1011
0057028640999991961022015004+65783+024583FM-12+001599999V0202501N00721075001CN0400001N9+00221+00001100981ADDAY121999GF106991021001022501071071MD1210151+9999MW1011
0070028640999991961022018004+65783+024583FM-12+001599999V0202401N00511220001CN0400001N9+00001-00221101081ADDAY111999GF102991011001022501041021KA1999M+00281MD1210101+9999MW1011
0057028640999991961022021004+65783+024583FM-12+001599999V0202501N00621220001CN0300001N9+00001-00281101121ADDAY111999GF106991021001022501041061MD1210081+9999MW1031
0057028640999991961022100004+65783+024583FM-12+001599999V0209991C00001075001CN0300001N9+00001-00281101131ADDAY121999GF108991041001022501021071MD1010011+9999MW1031
0057028640999991961022103004+65783+024583FM-12+001599999V0201401N00211021001CN0300001N9-00221-00281100901ADDAY121999GF108991081001022501021999MD1710231+9999MW1031
0081028640999991961022106004+65783+024583FM-12+001599999V0201101N00211030001CN0050001N9+00111+00001100471ADDAA199000391AY121999GF108991011071008001021999KA1999N-00221MD1710431+9999MW1681
0057028640999991961022109004+65783+024583FM-12+001599999V0200101N00411000151CN0008001N9+00001+00001100531ADDAY171999GF109991091999000251999999MD1310061+9999MW1751
0057028640999991961022112004+65783+024583FM-12+001599999V0203001N00261075001CN0300001N9+00111+00001101051ADDAY171999GF105991011051004501041021MD1210521+9999MW1011
0057028640999991961022115004+65783+024583FM-12+001599999V0209991C00001220001CN0150001N9-00221-00281101371ADDAY111999GF102991011051008001041021MD1210321+9999MW1121
0081028640999991961022118004+65783+024583FM-12+001599999V0202001N00151220001CN0080001N9-00781-00781101641ADDAA199007091AY111999GF102991011001022501041011KA1999M+00111MD1210271+9999MW1111
0057028640999991961022121004+65783+024583FM-12+001599999V0202501N00361220001CN0400001N9-00281-00501101731ADDAY101999GF102991011001022501041011MD1210091+9999MW1021
0057028640999991961022200004+65783+024583FM-12+001599999V0202601N00261220001CN0500001N9-00281-00501101821ADDAY101999GF102991011001022501071011MD1210091+9999MW1031
0057028640999991961022203004+65783+024583FM-12+001599999V0202401N00511021001CN0500001N9-00221-00391101961ADDAY101999GF107991071001022501071999MD1210141+9999MW1031
0070028640999991961022206004+65783+024583FM-12+001599999V0202501N00621030001CN0500001N9+00001-00221101881ADDAY121999GF107991011051008001071071KA1999N-00891MD1510031+9999MW1031
0057028640999991961022209004+65783+024583FM-12+001599999V0202901N00511030001CN0500001N9+00281-00221101921ADDAY121999GF106991011051012501071021MD1310041+9999MW1011
0057028640999991961022212004+65783+024583FM-12+001599999V0202401N00511030001CN0500001N9+00221-00111101971ADDAY121999GF107991011051012501071999MD1110051+9999MW1031
0057028640999991961022215004+65783+024583FM-12+001599999V0202401N00621007801CN0500001N9+00221-00111101941ADDAY121999GF107991051051008001071999MD1810031+9999MW1031
0070028640999991961022218004+65783+024583FM-12+001599999V0202301N00621030001CN0400001N9+00221-00111101911ADDAY121999GF107991021051008001071999KA1999M+00391MD1710031+9999MW1021
0057028640999991961022221004+65783+024583FM-12+001599999V0202501N00721021001CN0300001N9+00221+00001101931ADDAY121999GF107991071001022501071999MD1310021+9999MW1021
0057028640999991961022300004+65783+024583FM-12+001599999V0202601N00511021001CN0400001N9+00221+00001102031ADDAY121999GF108991081001022501071999MD1210101+9999MW1021
0057028640999991961022303004+65783+024583FM-12+001599999V0202801N00411021001CN0400001N9+00391+00001102061ADDAY121999GF107991071001022501071999MD1210031+9999MW1021
0070028640999991961022306004+65783+024583FM-12+001599999V0200201N00101030001CN0400001N9+00501+00001102161ADDAY121999GF107991021051008001071999KA1999N+00221MD1210101+9999MW1021
0057028640999991961022309004+65783+024583FM-12+001599999V0202701N00211075001CN0500001N9+00391+00111102291ADDAY121999GF107991041001022501041071MD1210131+9999MW1011
0070028640999991961022318004+65783+024583FM-12+001599999V0203001N00151021001CN0400001N9+00001-00111102741ADDAY121999GF106991061001022501051001KA1999M+00721MD1210191+9999MW1011
0057028640999991961022321004+65783+024583FM-12+001599999V0209991C00001030001CN0200001N9+00001-00111102841ADDAY161999GF107991021051008001071999MD1210101+9999MW1021
0057028640999991961022400004+65783+024583FM-12+001599999V0203001N00151021001CN0400001N9-00111-00221102951ADDAY121999GF107991071001022501071999MD1210111+9999MW1021
0057028640999991961022403004+65783+024583FM-12+001599999V0203201N00151021001CN0400001N9-00111-00111103011ADDAY121999GF107991071001022501071999MD1110061+9999MW1021
0070028640999991961022406004+65783+024583FM-12+001599999V0209991C00001030001CN0400001N9+00111-00111103091ADDAY121999GF105991021051017501041001KA1999N-00221MD1210081+9999MW1011
0057028640999991961022409004+65783+024583FM-12+001599999V0209991C00001220001CN0100001N9-00221-00221103151ADDAY141999GF102991011001022501071011MD1210061+9999MW1121
0057028640999991961022415004+65783+024583FM-12+001599999V0201801N00211220001CN0150001N9-00111-00221103191ADDAY101999GF103991021001022501041021MD1410001+9999MW1041
0070028640999991961022418004+65783+024583FM-12+001599999V0201701N00211220001CN0002001N9-00501-00501103181ADDAY101999GF100991001001999999001001KA1999M+00221MD1810011+9999MW1461
0057028640999991961022421004+65783+024583FM-12+001599999V0201701N00101220001CN0002001N9-00721-00721103181ADDAY141999GF100991001001999999001001MD1410001+9999MW1461
0057028640999991961022503004+65783+024583FM-12+001599999V0201301N00151220001CN0022001N9-00721-00781103131ADDAY141999GF100991001001999999001001MD1810031+9999MW1101
0070028640999991961022506004+65783+024583FM-12+001599999V0201601N00211000601CN0025001N9-00721-00721103101ADDAY141999GF106991061071000751999999KA1999N-00721MD1510031+9999MW1101
0057028640999991961022509004+65783+024583FM-12+001599999V0201501N00311000601CN0040001N9-00501-00501103061ADDAY121999GF106991061071000751999999MD1710041+9999MW1101
0057028640999991961022515004+65783+024583FM-12+001599999V0201801N00621001501CN0080001N9-00221-00221102981ADDAY171999GF108991081071001501999999MD1710091+9999MW1221
0081028640999991961022518004+65783+024583FM-12+001599999V0201801N00721001501CN0100001N9-00221-00221102781ADDAA199000591AY171999GF108991081071001501999999KA1999M-00111MD1710201+9999MW1701
0057028640999991961022521004+65783+024583FM-12+001599999V0201801N00821000601CN0035001N9-00111-00111102611ADDAY171999GF108991081071000751999999MD1710171+9999MW1731
0057028640999991961022600004+65783+024583FM-12+001599999V0201801N00721000601CN0050001N9-00111-00111102371ADDAY171999GF108991081071000751999999MD1710241+9999MW1701
0057028640999991961022603004+65783+024583FM-12+001599999V0202001N00721000601CN0020001N9+00001-00111102131ADDAY171999GF108991081071000751999999MD1710241+9999MW1501
0081028640999991961022606004+65783+024583FM-12+001599999V0202101N00511000601CN0025001N9+00001+00001102001ADDAA199000591AY151999GF108991071071000751021999KA1999N-00221MD1710131+9999MW1511
0057028640999991961022609004+65783+024583FM-12+001599999V0202301N00411000601CN0040001N9+00001+00001102011ADDAY121999GF108991081071000751999999MD1210011+9999MW1501
0057028640999991961022615004+65783+024583FM-12+001599999V0201801N00571000151CN0040001N9+00001+00001101711ADDAY141999GF109991091999000251999999MD1710211+9999MW1501
0070028640999991961022618004+65783+024583FM-12+001599999V0201901N00931002401CN0150001N9+00001-00111101521ADDAY141999GF108991081071002501999999KA1999M+00111MD1710191+9999MW1021
0057028640999991961022621004+65783+024583FM-12+001599999V0201801N00821000601CN0030001N9+00001+00001101211ADDAY151999GF108991081071000751999999MD1710311+9999MW1511
0057028640999991961022700004+65783+024583FM-12+001599999V0201901N00721001501CN0035001N9+00001+00001100911ADDAY151999GF108991081071001501999999MD1710301+9999MW1681
0057028640999991961022703004+65783+024583FM-12+001599999V0202001N00721000151CN0025001N9+00001+00001100711ADDAY121999GF108991081061000251999999MD1710201+9999MW1101
0081028640999991961022706004+65783+024583FM-12+001599999V0202001N00571000601CN0030001N9+00001+00001100521ADDAA199002091AY171999GF108991081061000751999999KA1999N-00111MD1710191+9999MW1421
0057028640999991961022709004+65783+024583FM-12+001599999V0202001N00571000151CN0007001N9+00001+00001100471ADDAY141999GF109991091999000251999999MD1710051+9999MW1431
0057028640999991961022715004+65783+024583FM-12+001599999V0201701N00571000601CN0030001N9+00111+00111099901ADDAY141999GF108991081071000751999999MD1710361+9999MW1681
0081028640999991961022718004+65783+024583FM-12+001599999V0201601N00621001501CN0030001N9+00111+00111099561ADDAA199002091AY141999GF108991081071001501999999KA1999M+00111MD1710341+9999MW1631
0057028640999991961022721004+65783+024583FM-12+001599999V0201701N00361000151CN0004001N9+00111+00111099291ADDAY151999GF109991091999000251999999MD1710271+9999MW1471
0057028640999991961022800004+65783+024583FM-12+001599999V0201801N00311000151CN0003001N9+00001+00001099121ADDAY141999GF109991091999000251999999MD1710171+9999MW1451
0057028640999991961022803004+65783+024583FM-12+001599999V0201801N00411000151CN0004001N9+00001+00001098981ADDAY141999GF109991091999000251999999MD1710141+9999MW1511
0081028640999991961022806004+65783+024583FM-12+001599999V0201601N00311000151CN0004001N9+00001-00111098901ADDAA199003091AY151999GF109991091999000251999999KA1999N-00111MD1710081+9999MW1431
0057028640999991961022809004+65783+024583FM-12+001599999V0201601N00311030001CN0100001N9+00001+00001098851ADDAY141999GF107991041071002501071999MD1710051+9999MW1011
0081028640999991961022818004+65783+024583FM-12+001599999V0201401N00101001501CN0070001N9+00111+00111099161ADDAA199000391AY121999GF108991051071001501021999KA1999M+00111MD1210201+9999MW1581
0057028640999991961022821004+65783+024583FM-12+001599999V0203301N00211000601CN0030001N9+00111+00111099411ADDAY151999GF108991081071000751999999MD1210251+9999MW1681
0057028640999991961030100004+65783+024583FM-12+001599999V0203101N00261001501CN0035001N9+00111+00111099661ADDAY171999GF108991081071001501999999MD1210251+9999MW1681
0081028640999991961030106004+65783+024583FM-12+001599999V0203201N00311001501CN0050001N9+00111+00111100051ADDAA199002091AY171999GF108991081071001501999999KA1999N+00001MD1210201+9999MW1681
0057028640999991961030109004+65783+024583FM-12+001599999V0203401N00311001501CN0070001N9+00111+00111100351ADDAY171999GF108991081071001501999999MD1210301+9999MW1611
0057028640999991961030112004+65783+024583FM-12+001599999V0203501N00361030001CN0150001N9+00221+00111100591ADDAY161999GF107991041071004501071999MD1210241+9999MW1011
0057028640999991961030115004+65783+024583FM-12+001599999V0203501N00411002401CN0120001N9+00111+00001100871ADDAY121999GF108991081071002501999999MD1210281+9999MW1031
0081028640999991961030118004+65783+024583FM-12+001599999V0203201N00361004501CN0200001N9+00111+00001101031ADDAA199000691AY121999GF108991081051004501999999KA1999M+00281MD1210161+9999MW1021
0057028640999991961030121004+65783+024583FM-12+001599999V0203301N00361007801CN0300001N9+00111+00001101231ADDAY121999GF107991071051008001999999MD1210201+9999MW1011
0057028640999991961030200004+65783+024583FM-12+001599999V0203201N00311012301CN0400001N9+00001-00111101361ADDAY121999GF107991071051012501999999MD1210131+9999MW1021
0057028640999991961030203004+65783+024583FM-12+001599999V0203101N00151007801CN0400001N9+00001-00111101461ADDAY121999GF107991071051008001999999MD1210101+9999MW1021
0070028640999991961030206004+65783+024583FM-12+001599999V0203501N00101030001CN0400001N9+00001-00111101541ADDAY121999GF107991041051008001071999KA1999N+00001MD1210081+9999MW1011
0057028640999991961030209004+65783+024583FM-12+001599999V0203601N00211030001CN0300001N9+00111-00111101601ADDAY121999GF107991041051004501071999MD1210061+9999MW1011
0057028640999991961030212004+65783+024583FM-12+001599999V0203201N00101030001CN0400001N9+00111-00221101631ADDAY121999GF107991031051008001071999MD1210031+9999MW1011
0057028640999991961030215004+65783+024583FM-12+001599999V0202301N00101030001CN0200001N9+00111-00221101631ADDAY121999GF108991031051008001021999MD1510001+9999MW1021
0070028640999991961030218004+65783+024583FM-12+001599999V0201801N00211030001CN0250001N9+00001-00221101621ADDAY121999GF108991041051008001021999KA1999M+00221MD1810011+9999MW1031
0057028640999991961030221004+65783+024583FM-12+001599999V0202401N00311004501CN0250001N9+00001-00221101621ADDAY121999GF108991071051004501021999MD1410001+9999MW1031
0057028640999991961030300004+65783+024583FM-12+001599999V0201801N00411004501CN0250001N9-00111-00281101601ADDAY121999GF108991071051004501021999MD1710021+9999MW1021
0057028640999991961030303004+65783+024583FM-12+001599999V0201801N00511000601CN0050001N9-00221-00221101591ADDAY121999GF108991071071000751021999MD1810011+9999MW1701
0081028640999991961030306004+65783+024583FM-12+001599999V0201801N00511001501CN0020001N9-00221-00221101571ADDAA199000391AY171999GF108991081071001501999999KA1999N-00221MD1710021+9999MW1771
0057028640999991961030309004+65783+024583FM-12+001599999V0201901N00511001501CN0020001N9-00111-00111101531ADDAY171999GF108991081071001501999999MD1510041+9999MW1771
0057028640999991961030312004+65783+024583FM-12+001599999V0202101N00621000601CN0035001N9+00001-00111101541ADDAY171999GF108991081071000751999999MD1010011+9999MW1101
0057028640999991961030315004+65783+024583FM-12+001599999V0201901N00621000601CN0020001N9-00111-00111101501ADDAY121999GF108991081071000751999999MD1710041+9999MW1101
0081028640999991961030318004+65783+024583FM-12+001599999V0201801N00771000601CN0025001N9-00111-00111101331ADDAA199001091AY141999GF108991081061000751999999KA1999M+00001MD1710171+9999MW1761
0057028640999991961030321004+65783+024583FM-12+001599999V0201901N00671030001CN0300001N9+00111-00111101161ADDAY121999GF107991011051004501071999MD1710171+9999MW1021
0057028640999991961030400004+65783+024583FM-12+001599999V0202101N00721030001CN0300001N9+00221-00111101041ADDAY121999GF108991011051008001021999MD1710121+9999MW1031
0057028640999991961030403004+65783+024583FM-12+001599999V0201901N00721021001CN0400001N9+00111-00111100891ADDAY121999GF107991051001022501071071MD1710151+9999MW1031
0070028640999991961030406004+65783+024583FM-12+001599999V0202001N00671030001CN0400001N9+00111-00111100631ADDAY121999GF107991021051008001071071KA1999N-00111MD1710261+9999MW1011
0057028640999991961030409004+65783+024583FM-12+001599999V0201901N00721004501CN0400001N9+00111-00111100331ADDAY121999GF107991061051004501071999MD1710301+9999MW1031
0057028640999991961030412004+65783+024583FM-12+001599999V0201801N00721001501CN0400001N9+00111+00001100011ADDAY121999GF108991061071001501021999MD1710321+9999MW1031
0057028640999991961030415004+65783+024583FM-12+001599999V0202201N00721030001CN0300001N9+00221-00111099921ADDAY121999GF106991011051004501041021MD1710091+9999MW1011
0081028640999991961030418004+65783+024583FM-12+001599999V0202401N00721220001CN0400001N9+00111-00221099931ADDAA199000691AY121999GF102991021001022501041001KA1999M+00281MD1210011+9999MW1011
0057028640999991961030421004+65783+024583FM-12+001599999V0202001N00311220001CN0400001N9-00111-00391100051ADDAY101999GF102991021001022501041001MD1210121+9999MW1021
0057028640999991961030500004+65783+024583FM-12+001599999V0202801N00261220001CN0500001N9-00281-00611100281ADDAY101999GF103991011001022501041021MD1210231+9999MW1011
0057028640999991961030503004+65783+024583FM-12+001599999V0202801N00311030001CN0500001N9-00221-00501100471ADDAY111999GF106991011051004501071001MD1210191+9999MW1011
0070028640999991961030506004+65783+024583FM-12+001599999V0202201N00211220001CN0400001N9-00501-00611100631ADDAY111999GF104991011051008001071001KA1999N-00721MD1210161+9999MW1021
0057028640999991961030509004+65783+024583FM-12+001599999V0202301N00511075001CN0500001N9-00221-00611100711ADDAY111999GF106991021001022501041051MD1210081+9999MW1031
0057028640999991961030512004+65783+024583FM-12+001599999V0202401N00511075001CN0500001N9+00111-00391100781ADDAY121999GF107991021001022501041071MD1210071+9999MW1031
0057028640999991961030515004+65783+024583FM-12+001599999V0202101N00721030001CN0300001N9+00111-00221100541ADDAY121999GF108991041051008001021999MD1710241+9999MW1031
0081028640999991961030518004+65783+024583FM-12+001599999V0202101N00771001501CN0100001N9+00001+00001100021ADDAA199003091AY171999GF108991081071001501999999KA1999M+00221MD1710521+9999MW1031
0057028640999991961030521004+65783+024583FM-12+001599999V0202201N00571220001CN0400001N9+00111+00001099761ADDAY121999GF101991011051004501001001MD1710261+9999MW1011
0057028640999991961030600004+65783+024583FM-12+001599999V0202401N00821220001CN0500001N9+00221-00111099831ADDAY101999GF100991001001999999001001MD1310071+9999MW1021
0057028640999991961030603004+65783+024583FM-12+001599999V0202401N00871220001CN0500001N9+00281+00001099791ADDAY101999GF101991011001022501041001MD1610041+9999MW1031
0070028640999991961030606004+65783+024583FM-12+001599999V0202801N00671220001CN0500001N9+00281-00111099931ADDAY101999GF103991011051004501041041KA1999N+00001MD1210141+9999MW1021
0057028640999991961030609004+65783+024583FM-12+001599999V0202901N00571220001CN0500001N9+00281-00501100221ADDAY111999GF103991021051008001001011MD1210291+9999MW1031
0057028640999991961030612004+65783+024583FM-12+001599999V0203301N00261075001CN0500001N9+00221-00611100311ADDAY111999GF106991011051008001041061MD1210091+9999MW1011
0057028640999991961030615004+65783+024583FM-12+001599999V0201501N00211030001CN0250001N9+00111-00501100171ADDAY121999GF107991011051008001041071MD1710141+9999MW1041
0070028640999991961030618004+65783+024583FM-12+001599999V0201201N00151021001CN0500001N9-00221-00501099911ADDAY121999GF107991061001022501021071KA1999M+00281MD1710261+9999MW1011
0057028640999991961030621004+65783+024583FM-12+001599999V0201301N00101021001CN0030001N9-00221-00281099621ADDAY121999GF108991081001022501021999MD1710291+9999MW1731
0057028640999991961030700004+65783+024583FM-12+001599999V0200501N00261000151CN0030001N9-00221-00221099381ADDAY171999GF109991091999000251999999MD1710241+9999MW1731
0081028640999991961030706004+65783+024583FM-12+001599999V0203101N00411220001CN0500001N9-00391-00611099981ADDAA199002091AY171999GF104991031051008001041001KA1999N-00391MD1210371+9999MW1011
0057028640999991961030709004+65783+024583FM-12+001599999V0203201N00621220001CN0500001N9-00281-00781100371ADDAY101999GF103991011051012501041021MD1210391+9999MW1031
0057028640999991961030712004+65783+024583FM-12+001599999V0203401N00721220001CN0500001N9+00111-00781100641ADDAY101999GF102991011001022501041011MD1210271+9999MW1011
0057028640999991961030715004+65783+024583FM-12+001599999V0203101N00571220001CN0500001N9+00111-00781100981ADDAY101999GF101991011041008001001001MD1210341+9999MW1011
0070028640999991961030718004+65783+024583FM-12+001599999V0203001N00511220001CN0500001N9-00111-00781101281ADDAY101999GF101991011001022501041001KA1999M+00221MD1210301+9999MW1011
0057028640999991961030721004+65783+024583FM-12+001599999V0203001N00511220001CN0500001N9-00501-01001101551ADDAY101999GF100991001001999999001001MD1210271+9999MW1011
0057028640999991961030800004+65783+024583FM-12+001599999V0203001N00511220001CN0500001N9-00501-00891101731ADDAY101999GF100991001001999999001001MD1210181+9999MW1021
0057028640999991961030803004+65783+024583FM-12+001599999V0202801N00411220001CN0500001N9-00611-01111101921ADDAY101999GF100991001001999999001001MD1210191+9999MW1021
0070028640999991961030806004+65783+024583FM-12+001599999V0202801N00411220001CN0500001N9-00781-01221102031ADDAY101999GF106991021001022501041061KA1999N-00781MD1210111+9999MW1031
0057028640999991961030809004+65783+024583FM-12+001599999V0202701N00211075001CN0300001N9-00501-01111101921ADDAY121999GF107991021051008001001071MD1710111+9999MW1031
0057028640999991961030812004+65783+024583FM-12+001599999V0201801N00311021001CN0300001N9-00721-01001101671ADDAY121999GF107991071001022501071999MD1710251+9999MW1021
0057028640999991961030815004+65783+024583FM-12+001599999V0201801N00621030001CN0020001N9-00281-00501101221ADDAY121999GF108991041051004501021999MD1710441+9999MW1731
0081028640999991961030818004+65783+024583FM-12+001599999V0201701N00821002401CN0040001N9-00281-00391100731ADDAA199000591AY171999GF108991071071002501021999KA1999M-00281MD1710491+9999MW1711
0057028640999991961030821004+65783+024583FM-12+001599999V0202301N00101030001CN0200001N9-00391-00391100491ADDAY171999GF107991021071002501021999MD1710241+9999MW1011
0057028640999991961030900004+65783+024583FM-12+001599999V0209991C00001000601CN0100001N9-00501-00611100421ADDAY171999GF107991061071000751071999MD1710071+9999MW1031
0076028640999991961030903004+65783+024583FM-12+001599999V0202301N00211220001CN0200001N9-00501-00611100421ADDAY101999GF103991031001022501071001MD1410001+9999MW1021EQDQ01+000022APCTEN
0081028640999991961030906004+65783+024583FM-12+001599999V0202001N00151075001CN0150001N9-00891-01001100411ADDAA199000391AY101999GF106991021001022501071051KA1999N-01001MD1810011+9999MW1031
0057028640999991961030909004+65783+024583FM-12+001599999V0201901N00211021001CN0150001N9-00391-00501100311ADDAY121999GF108991081001022501021999MD1710101+9999MW1031
0057028640999991961030912004+65783+024583FM-12+001599999V0202401N00511021001CN0100001N9+00221-00111100041ADDAY121999GF108991081001022501021999MD1710271+9999MW1601
0057028640999991961030915004+65783+024583FM-12+001599999V0201901N00571001501CN0080001N9+00111+00111099401ADDAY171999GF108991081071001501999999MD1710641+9999MW1231
0081028640999991961030918004+65783+024583FM-12+001599999V0203001N00721030001CN0200001N9+00281+00111099251ADDAA199002091AY171999GF107991011051004501041071KA1999M+00281MD1510151+9999MW1011
0057028640999991961031000004+65783+024583FM-12+001599999V0203001N00211220001CN0500001N9-00221-00391100271ADDAY101999GF101991011001022501041001MD1210371+9999MW1031
0057028640999991961031003004+65783+024583FM-12+001599999V0202001N00211021001CN0400001N9-00221-00391100341ADDAY111999GF107991071001022501071031MD1210071+9999MW1021
0070028640999991961031006004+65783+024583FM-12+001599999V0202101N00311030001CN0400001N9-00111-00281100251ADDAY121999GF107991021051008001071999KA1999N-00391MD1810091+9999MW1031
0057028640999991961031009004+65783+024583FM-12+001599999V0202401N00311030001CN0400001N9+00221-00111100111ADDAY121999GF107991011051008001031071MD1710141+9999MW1011
0057028640999991961031012004+65783+024583FM-12+001599999V0202201N00411030001CN0500001N9+00221+00001099941ADDAY111999GF106991011051008001041051MD1710171+9999MW1011
0057028640999991961031015004+65783+024583FM-12+001599999V0201601N00361030001CN0500001N9+00111+00001099671ADDAY121999GF106991041051008001071001MD1710271+9999MW1031
0070028640999991961031018004+65783+024583FM-12+001599999V0201901N00511030001CN0400001N9+00221+00111099401ADDAY121999GF107991021051008001071999KA1999M+00281MD1710271+9999MW1011
0057028640999991961031021004+65783+024583FM-12+001599999V0202101N00511007801CN0250001N9+00281+00111099171ADDAY121999GF106991061051008001999999MD1710231+9999MW1011
0057028640999991961031100004+65783+024583FM-12+001599999V0202201N00461220001CN0250001N9+00281+00111098871ADDAY121999GF100991001001999999001001MD1710301+9999MW1021
0057028640999991961031103004+65783+024583FM-12+001599999V0202101N00571220001CN0250001N9+00221+00001098581ADDAY101999GF101991011001022501041001MD1710291+9999MW1021
0081028640999991961031106004+65783+024583FM-12+001599999V0202201N00511030001CN0150001N9+00221+00001098271ADDAA199000691AY101999GF108991041051008001021999KA1999N+00111MD1710311+9999MW1611
0057028640999991961031109004+65783+024583FM-12+001599999V0202501N00261004501CN0200001N9+00221+00111098071ADDAY161999GF108991051071004501021999MD1710201+9999MW1211
0057028640999991961031112004+65783+024583FM-12+001599999V0202501N00411030001CN0400001N9+00221+00001098101ADDAY121999GF107991011051008001071999MD1310031+9999MW1011
0057028640999991961031115004+65783+024583FM-12+001599999V0202801N00671220001CN0500001N9+00221-00611098161ADDAY121999GF102991011011008001041021MD1210061+9999MW1021
0081028640999991961031118004+65783+024583FM-12+001599999V0202701N00511220001CN0500001N9-00111-00611098291ADDAA199003091AY101999GF101991011001022501041001KA1999M+00391MD1210131+9999MW1011
0057028640999991961031121004+65783+024583FM-12+001599999V0202401N00571220001CN0500001N9-00281-00611098241ADDAY101999GF100991001001999999001001MD1810051+9999MW1011
0057028640999991961031203004+65783+024583FM-12+001599999V0202401N00671220001CN0500001N9-00221-00501097911ADDAY101999GF101991011001022501041001MD1710211+9999MW1031
0070028640999991961031206004+65783+024583FM-12+001599999V0202401N00511220001CN0500001N9-00281-00611097851ADDAY101999GF102991011001022501041011KA1999N-00281MD1610061+9999MW1031
0057028640999991961031209004+65783+024583FM-12+001599999V0202401N00571220001CN0500001N9-00111-00501097911ADDAY101999GF102991021001022501071001MD1310061+9999MW1011
0057028640999991961031212004+65783+024583FM-12+001599999V0202401N00411220001CN0500001N9+00221-00281097941ADDAY101999GF103991021001022501071011MD1210031+9999MW1021
0070028640999991961031218004+65783+024583FM-12+001599999V0202501N00211030001CN0500001N9-00281-00611097971ADDAY111999GF106991011051008001041999KA1999M+00281MD1210051+9999MW1011
0057028640999991961031300004+65783+024583FM-12+001599999V0202401N00311220001CN0500001N9-00501-00781098001ADDAY101999GF100991001001999999001001MD1210031+9999MW1011
0057028640999991961031303004+65783+024583FM-12+001599999V0202101N00211220001CN0400001N9-00891-01001098111ADDAY101999GF102991021001022501041001MD1210111+9999MW1031
0081028640999991961031306004+65783+024583FM-12+001599999V0202301N00101030001CN0030001N9-00721-00781098271ADDAA199000391AY121999GF108991031051004501021999KA1999N-00891MD1210161+9999MW1731
0057028640999991961031309004+65783+024583FM-12+001599999V0203001N00311030001CN0150001N9-00221-00611098581ADDAY171999GF106991011051004501041021MD1210311+9999MW1041
0057028640999991961031312004+65783+024583FM-12+001599999V0203201N00571007801CN0500001N9+00221-00501098911ADDAY171999GF106991051051008001041041MD1210331+9999MW1031
0057028640999991961031315004+65783+024583FM-12+001599999V0203201N00671007801CN0400001N9+00221-00391099351ADDAY171999GF107991051051008001071999MD1210441+9999MW1221
0081028640999991961031318004+65783+024583FM-12+001599999V0203201N00621004501CN0070001N9-00111-00391099691ADDAA199000591AY171999GF108991061071004501021999KA1999M+00391MD1210341+9999MW1711
0057028640999991961031321004+65783+024583FM-12+001599999V0203201N00571030001CN0200001N9-00111-00721099921ADDAY171999GF108991031071004501021999MD1210231+9999MW1701
0057028640999991961031400004+65783+024583FM-12+001599999V0203301N00411030001CN0400001N9-00281-00891100101ADDAY171999GF107991021051008001071999MD1210181+9999MW1021
0057028640999991961031403004+65783+024583FM-12+001599999V0203301N00311220001CN0500001N9-00611-01001100191ADDAY121999GF101991011001022501071001MD1210091+9999MW1011
0081028640999991961031406004+65783+024583FM-12+001599999V0203601N00261075001CN0500001N9-01001-01221100181ADDAA199000691AY121999GF107991011001022501071071KA1999N-01001MD1710011+9999MW1011
0057028640999991961031409004+65783+024583FM-12+001599999V0209991C00001075001CN0500001N9-00721-01001100031ADDAY121999GF107991031001022501071071MD1710151+9999MW1031
0057028640999991961031412004+65783+024583FM-12+001599999V0201701N00311075001CN0500001N9-00281-00781099931ADDAY121999GF107991021001022501041071MD1710101+9999MW1011
0057028640999991961031415004+65783+024583FM-12+001599999V0201801N00261021001CN0400001N9-00611-00721099771ADDAY121999GF107991071001022501071999MD1710161+9999MW1031
0070028640999991961031418004+65783+024583FM-12+001599999V0201201N00511030001CN0300001N9-00611-00721099511ADDAY121999GF107991021051004501071999KA1999M-00281MD1710261+9999MW1031
0057028640999991961031503004+65783+024583FM-12+001599999V0201101N00461004501CN0100001N9-00391-00501098781ADDAY171999GF108991051071004501021999MD1710161+9999MW1711
0081028640999991961031506004+65783+024583FM-12+001599999V0200701N00261030001CN0040001N9-00501-00611098811ADDAA199001091AY171999GF108991021051008001021999KA1999N-00611MD1310031+9999MW1731
0057028640999991961031509004+65783+024583FM-12+001599999V0203601N003119999999N0100001N9-00391-00611098981ADDAY171999GF107991011011008001999071MD1210181+9999MW1711
0057028640999991961031512004+65783+024583FM-12+001599999V0203601N00461030001CN0500001N9-00221-00501099311ADDAY171999GF106991041051008001041999MD1210331+9999MW1011
0057028640999991961031515004+65783+024583FM-12+001599999V0203201N00411007801CN0200001N9-00221-00391099581ADDAY171999GF107991051051008001071999MD1210271+9999MW1711
0081028640999991961031518004+65783+024583FM-12+001599999V0203201N00211030001CN0300001N9-00281-00501099771ADDAA199000591AY171999GF107991021051008001041021KA1999M-00111MD1210191+9999MW1011
0057028640999991961031521004+65783+024583FM-12+001599999V0203001N00311021001CN0300001N9-00391-00781099741ADDAY101999GF106991061001022501071999MD1610031+9999MW1031
0057028640999991961031603004+65783+024583FM-12+001599999V0203001N00211220001CN0400001N9-00891-01221099791ADDAY111999GF101991011001022501041001MD1210021+9999MW1031
0070028640999991961031606004+65783+024583FM-12+001599999V0203101N00261220001CN0400001N9-01001-01281099891ADDAY111999GF102991011051004501041001KA1999N-01281MD1210101+9999MW1031
0057028640999991961031609004+65783+024583FM-12+001599999V0209991C00001220001CN0500001N9-00501-01111100081ADDAY101999GF102991011001022501071021MD1210191+9999MW1021
0057028640999991961031612004+65783+024583FM-12+001599999V0202501N00261030001CN0500001N9-00281-00781100271ADDAY101999GF107991041051008001071999MD1210191+9999MW1031
0057028640999991961031615004+65783+024583FM-12+001599999V0203001N00411220001CN0500001N9-00111-00721100311ADDAY111999GF103991031051008001041001MD1210041+9999MW1011
0070028640999991961031618004+65783+024583FM-12+001599999V0202901N00151030001CN0500001N9-00891-01221100471ADDAY111999GF105991021051008001071001KA1999M-00111MD1210161+9999MW1011
0057028640999991961031621004+65783+024583FM-12+001599999V0209991C00001220001CN0500001N9-01281-01391100591ADDAY101999GF100991001001999999001001MD1210121+9999MW1011
0057028640999991961031700004+65783+024583FM-12+001599999V0203401N00211220001CN0500001N9-01611-01721100661ADDAY101999GF100991001001999999001001MD1210071+9999MW1021
0057028640999991961031703004+65783+024583FM-12+001599999V0201201N00211220001CN0500001N9-01721-01891100631ADDAY101999GF100991001001999999001001MD1610031+9999MW1021
0070028640999991961031706004+65783+024583FM-12+001599999V0201201N00151075001CN0500001N9-01501-01721100411ADDAY101999GF107991031001022501041071KA1999N-01781MD1710221+9999MW1031
0057028640999991961031709004+65783+024583FM-12+001599999V0201201N00411021001CN0400001N9-00781-01221100161ADDAY121999GF107991061001022501071071MD1710251+9999MW1021
0057028640999991961031712004+65783+024583FM-12+001599999V0201201N00621021001CN0020001N9-00391-00721099851ADDAY171999GF108991081001022501021999MD1710301+9999MW1731
0057028640999991961031715004+65783+024583FM-12+001599999V0200901N00821000151CN0004001N9-00501-00611099521ADDAY171999GF109991091999000251999999MD1710331+9999MW1751
0081028640999991961031718004+65783+024583FM-12+001599999V0200401N00511030001CN0050001N9-00501-00611099401ADDAA199002091AY171999GF108991041071004501071999KA1999M-00391MD1710131+9999MW1711
0057028640999991961031721004+65783+024583FM-12+001599999V0200201N00511030001CN0100001N9-00501-00721099341ADDAY171999GF107991041071004501071999MD1710061+9999MW1701
0057028640999991961031803004+65783+024583FM-12+001599999V0203301N00461220001CN0300001N9-01001-01221099341ADDAY111999GF101991011051004501001001MD1110021+9999MW1011
0081028640999991961031806004+65783+024583FM-12+001599999V0203301N00411220001CN0500001N9-01391-01501099291ADDAA199000391AY101999GF101991011001022501041001KA1999N-01391MD1810051+9999MW1021
0057028640999991961031809004+65783+024583FM-12+001599999V0200101N00361220001CN0400001N9-01001-01221099201ADDAY111999GF104991041051004501001001MD1710091+9999MW1031
0057028640999991961031812004+65783+024583FM-12+001599999V0203501N00511220001CN0400001N9-00611-00891099091ADDAY111999GF102991011051004501001011MD1710101+9999MW1031
0057028640999991961031815004+65783+024583FM-12+001599999V0203601N00621030001CN0500001N9-00501-00891099071ADDAY101999GF105991011051004501041051MD1510021+9999MW1031
0070028640999991961031818004+65783+024583FM-12+001599999V0203501N00511075001CN0500001N9-00721-01221099131ADDAY111999GF107991011001022501041071KA1999M-00391MD1210061+9999MW1011
0057028640999991961031821004+65783+024583FM-12+001599999V0203301N00621220001CN0500001N9-00891-01221099201ADDAY101999GF101991011001022501041091MD1210071+9999MW1011
0057028640999991961031900004+65783+024583FM-12+001599999V0203401N00621220001CN0500001N9-01001-01281099281ADDAY101999GF101991011001022501041001MD1210081+9999MW1021
0057028640999991961031903004+65783+024583FM-12+001599999V0203301N00261220001CN0500001N9-01281-01501099381ADDAY101999GF101991011001022501041001MD1210101+9999MW1031
0070028640999991961031906004+65783+024583FM-12+001599999V0203401N00211220001CN0500001N9-01721-02001099461ADDAY101999GF101991001001999999001021KA1999N-02111MD1010081+9999MW1021
0057028640999991961031909004+65783+024583FM-12+001599999V0203001N00261220001CN0500001N9-00781-01391099421ADDAY101999GF103991001001999999001011MD1810041+9999MW1031
0057028640999991961031912004+65783+024583FM-12+001599999V0203401N00411220001CN0500001N9-00391-01111099401ADDAY101999GF101991011051012501001021MD1610021+9999MW1031
0070028640999991961031918004+65783+024583FM-12+001599999V0203201N00311220001CN0500001N9-00721-01221099531ADDAY101999GF102991011051008001041001KA1999M-00281MD1210081+9999MW1031
0057028640999991961031921004+65783+024583FM-12+001599999V0203301N00151220001CN0400001N9-01501-01611099501ADDAY101999GF100991001001999999001001MD1810031+9999MW1011
0057028640999991961032000004+65783+024583FM-12+001599999V0209991C00001220001CN0500001N9-01891-02111099441ADDAY101999GF101991011001022501041001MD1710061+9999MW1011
0057028640999991961032003004+65783+024583FM-12+001599999V0203201N00101220001CN0400001N9-02111-02281099381ADDAY101999GF103991011051004501071001MD1710061+9999MW1031
0078028640999991961032009004+65783+024583FM-12+001599999V0203001N00311075001CN0500001N9-00781-01001099351ADDAY121999GF107991021001022501041071MW1011EQDQ01+000042APCTENQ02+000012APC3  
0057028640999991961032012004+65783+024583FM-12+001599999V0202901N00411220001CN0500001N9-00391-01001099351ADDAY111999GF105991001001999999001071MD1410001+9999MW1011
0057028640999991961032015004+65783+024583FM-12+001599999V0203001N00511075001CN0500001N9-00391-01111099351ADDAY121999GF106991011051008001041061MD1410001+9999MW1031
0057028640999991961032100004+65783+024583FM-12+001599999V0203001N00151220001CN0300001N9-01611-01721099591ADDAY101999GF100991001001999999001001MD1310041+9999MW1021
0057028640999991961032103004+65783+024583FM-12+001599999V0203001N00101220001CN0300001N9-01501-01611099611ADDAY101999GF102991021051004501001001MD1210021+9999MW1031
0070028640999991961032106004+65783+024583FM-12+001599999V0203001N00151030001CN0300001N9-01721-01891099711ADDAY101999GF106991021051008001041021KA1999N-01891MD1210101+9999MW1031
0057028640999991961032109004+65783+024583FM-12+001599999V0203501N00261220001CN0500001N9-00781-01221099831ADDAY111999GF103991011001022501041011MD1210121+9999MW1021
0057028640999991961032112004+65783+024583FM-12+001599999V0202701N00411220001CN0500001N9-00221-01001099921ADDAY101999GF102991011011008001041011MD1210091+9999MW1031
0057028640999991961032115004+65783+024583FM-12+001599999V0203001N00461220001CN0500001N9-00281-00891099551ADDAY101999GF103991021011008001041011MD1210031+9999MW1031
0070028640999991961032118004+65783+024583FM-12+001599999V0202901N00151220001CN0500001N9-01001-01221100011ADDAY101999GF102991011051012501041001KA1999M-00221MD1110061+9999MW1011
0057028640999991961032121004+65783+024583FM-12+001599999V0202901N00101220001CN0400001N9-01721-01891100031ADDAY101999GF100991001001999999001001MD1110021+9999MW1011
0057028640999991961032200004+65783+024583FM-12+001599999V0202901N00211220001CN0300001N9-02001-02221100031ADDAY101999GF100991001001999999001001MD1410001+9999MW1021
0057028640999991961032203004+65783+024583FM-12+001599999V0201401N00361000601CN0010001N9-01501-01721099971ADDAY101999GF108991081061000751999999MD1710061+9999MW1761
0062028640999991961032206004+65783+024583FM-12+001599999V0201301N00461030001CN0060001N9-01391-01501099881ADDGF106991011071000751041021KA1999N-02111MD1710091+9999MW1761
0057028640999991961032209004+65783+024583FM-12+001599999V0201601N00621220001CN0400001N9-00891-00891099881ADDAY121999GF106991021001022501041061MD1010001+9999MW1011
0057028640999991961032212004+65783+024583FM-12+001599999V0201801N00621075001CN0400001N9-00391-00721099711ADDAY121999GF107991011001022501041071MD1710161+9999MW1011
0057028640999991961032215004+65783+024583FM-12+001599999V0201801N00771030001CN0500001N9-00281-00501099481ADDAY121999GF107991021051008001071071MD1710231+9999MW1031
0070028640999991961032218004+65783+024583FM-12+001599999V0201801N00931030001CN0400001N9-00281-00501099111ADDAY121999GF107991011051008001071071KA1999M-00281MD1710371+9999MW1011
0057028640999991961032221004+65783+024583FM-12+001599999V0201601N00931030001CN0020001N9-00281-00391098601ADDAY121999GF108991041071004501021999MD1710511+9999MW1731
0057028640999991961032300004+65783+024583FM-12+001599999V0201601N01031000151CN0010001N9-00281-00391098131ADDAY171999GF109991091999000251999999MD1710471+9999MW1751
0057028640999991961032303004+65783+024583FM-12+001599999V0201801N00511030001CN0100001N9-00111-00111097831ADDAY171999GF108991041071004501021999MD1710301+9999MW1221
0081028640999991961032306004+65783+024583FM-12+001599999V0202201N00511030001CN0100001N9-00111-00281097531ADDAA199000591AY171999GF108991041071004501021999KA1999N-00391MD1710301+9999MW1771
0057028640999991961032309004+65783+024583FM-12+001599999V0202301N00511220001CN0300001N9+00001-00391097451ADDAY121999GF102991011081004501041041MD1610081+9999MW1021
0076028640999991961032312004+65783+024583FM-12+001599999V0202801N00621007801CN0300001N9+00111-00281097451ADDAY111999GF107991061081008001041999MD1410001+9999MW1851EQDQ01+000032APCTEN
0057028640999991961032315004+65783+024583FM-12+001599999V0203001N00671007801CN0400001N9+00111-00721097591ADDAY181999GF107991071081008001999999MD1210141+9999MW1261
0070028640999991961032318004+65783+024583FM-12+001599999V0202601N00361220001CN0500001N9-00281-00891097731ADDAY181999GF102991011041008001041021KA1999M+00221MD1210141+9999MW1011
0057028640999991961032321004+65783+024583FM-12+001599999V0202401N00151220001CN0500001N9-00891-01281097711ADDAY101999GF102991021001022501041001MD1710021+9999MW1031
0057028640999991961032400004+65783+024583FM-12+001599999V0202601N00151220001CN0500001N9-01281-01391097701ADDAY101999GF101991011001022501041001MD1710011+9999MW1021
0057028640999991961032403004+65783+024583FM-12+001599999V0202401N00101220001CN0500001N9-01391-01501097731ADDAY101999GF101991011001022501041011MD1310031+9999MW1021
0070028640999991961032406004+65783+024583FM-12+001599999V0202501N00211220001CN0400001N9-01391-01611097791ADDAY101999GF102991011001022501041021KA1999N-01891MD1310061+9999MW1021
0057028640999991961032409004+65783+024583FM-12+001599999V0202401N00261075001CN0400001N9-00721-01111097881ADDAY121999GF107991031001022501041071MD1210091+9999MW1031
0057028640999991961032412004+65783+024583FM-12+001599999V0203001N00511075001CN0500001N9-00111-00721098041ADDAY121999GF106991011051012501041061MD1210161+9999MW1011
0057028640999991961032415004+65783+024583FM-12+001599999V0203001N00311007801CN0040001N9-00111-00221098281ADDAY121999GF107991071091008001999999MD1210241+9999MW1861
0081028640999991961032418004+65783+024583FM-12+001599999V0203201N00671030001CN0400001N9-00111-00501098441ADDAA199000691AY181999GF106991031051008001071999KA1999M+00221MD1210161+9999MW1011
0057028640999991961032421004+65783+024583FM-12+001599999V0203001N00511075001CN0400001N9-00221-00611098561ADDAY121999GF107991031001022501041071MD1210121+9999MW1031
0057028640999991961032500004+65783+024583FM-12+001599999V0203101N00211021001CN0400001N9-00281-00501098891ADDAY171999GF107991071001022501071999MD1210431+9999MW1031
0076028640999991961032503004+65783+024583FM-12+001599999V0203001N00311220001CN0400001N9-00391-00611099091ADDAY121999GF103991999001022501071999MD1210201+9999MW1031EQDQ01+000002SCOTLC
0081028640999991961032506004+65783+024583FM-12+001599999V0203001N00411075001CN0400001N9-00221-00721099331ADDAA199000691AY121999GF107991021001022501041071KA1999N-00391MD1210241+9999MW1011
