0057028640999991963010100004+65783+024583FM-12+001599999V0209991C00001220001CN0400001N9-01281-01391101591ADDAY101999GF100991001001999999001001MD1110061+9999MW1021
0057028640999991963010103004+65783+024583FM-12+001599999V0203301N00211220001CN0400001N9-01001-01221101701ADDAY101999GF100991001001999999001001MD1210121+9999MW1021
0081028640999991963010106004+65783+024583FM-12+001599999V0209991C00001220001CN0400001N9-01501-01611101761ADDAA199000591AY101999GF100991001001999999001001KA1999N-01501MD1210051+9999MW1021
0057028640999991963010109004+65783+024583FM-12+001599999V0202501N00411220001CN0400001N9-01001-01221101591ADDAY101999GF103991021001022501041021MD1810161+9999MW1031
0057028640999991963010112004+65783+024583FM-12+001599999V0202501N00511220001CN0400001N9-00781-01111101351ADDAY111999GF106991041001022501071041MD1710241+9999MW1031
0057028640999991963010115004+65783+024583FM-12+001599999V0202601N00511220001CN0500001N9-00781-01001101181ADDAY111999GF102991011001022501041051MD1710171+9999MW1011
0070028640999991963010118004+65783+024583FM-12+001599999V0202601N00411220001CN0500001N9-00781-01001101081ADDAY111999GF102991021001022501041001KA1999M-00721MD1710101+9999MW1021
0057028640999991963010121004+65783+024583FM-12+001599999V0202401N00311220001CN0400001N9-01001-01221101161ADDAY101999GF101991011001022501041001MD1210081+9999MW1021
0057028640999991963010200004+65783+024583FM-12+001599999V0202401N00311220001CN0300001N9-00891-01001101141ADDAY101999GF103991031001022501041001MD1710021+9999MW1031
0057028640999991963010203004+65783+024583FM-12+001599999V0202401N00461220001CN0300001N9-00781-01001101031ADDAY101999GF103991031001022501041001MD1710111+9999MW1021
0070028640999991963010206004+65783+024583FM-12+001599999V0202501N00211220001CN0400001N9-00781-01001100741ADDAY101999GF103991021001022501041021KA1999N-01391MD1710291+9999MW1011
0057028640999991963010209004+65783+024583FM-12+001599999V0202401N00261021001CN0300001N9-00781-01001100501ADDAY111999GF107991071001022501071999MD1710241+9999MW1031
0057028640999991963010212004+65783+024583FM-12+001599999V0209991C00001220001CN0300001N9-01281-01391100391ADDAY121999GF104991011051008001041021MD1710111+9999MW1011
0057028640999991963010215004+65783+024583FM-12+001599999V0203001N00311220001CN0400001N9-01001-01221100511ADDAY101999GF101991011001022501041001MD1310121+9999MW1011
0070028640999991963010218004+65783+024583FM-12+001599999V0203001N00411220001CN0500001N9-01111-01281100661ADDAY101999GF100991001001999999001001KA1999M-00781MD1210151+9999MW1011
0057028640999991963010221004+65783+024583FM-12+001599999V0202801N00361220001CN0500001N9-01111-01391100851ADDAY101999GF101991011001022501041001MD1210191+9999MW1021
0057028640999991963010300004+65783+024583FM-12+001599999V0202901N00461220001CN0500001N9-01001-01281100991ADDAY101999GF100991001001999999001001MD1210141+9999MW1011
0057028640999991963010303004+65783+024583FM-12+001599999V0202801N00361220001CN0500001N9-01001-01281101161ADDAY101999GF100991001001999999001001MD1210171+9999MW1021
0070028640999991963010306004+65783+024583FM-12+001599999V0202901N00511220001CN0500001N9-01001-01281101361ADDAY101999GF100991001001999999001001KA1999N-01221MD1210201+9999MW1021
0057028640999991963010309004+65783+024583FM-12+001599999V0202801N00511220001CN0500001N9-01001-01391101571ADDAY101999GF101991001001999999001011MD1210211+9999MW1031
0057028640999991963010312004+65783+024583FM-12+001599999V0202801N00311220001CN0500001N9-01111-01391101721ADDAY101999GF102991001001999999001021MD1110151+9999MW1031
0057028640999991963010315004+65783+024583FM-12+001599999V0209991C00001220001CN0500001N9-01721-02001101821ADDAY101999GF101991011001022501041011MD1010091+9999MW1011
0070028640999991963010318004+65783+024583FM-12+001599999V0202301N00151075001CN0400001N9-01721-02001101731ADDAY111999GF107991021001022501041061KA1999M-01001MD1710091+9999MW1031
0057028640999991963010321004+65783+024583FM-12+001599999V0201101N00311075001CN0400001N9-01281-01501101481ADDAY121999GF107991021001022501041071MD1710251+9999MW1021
0057028640999991963010400004+65783+024583FM-12+001599999V0201901N00621075001CN0500001N9-00611-00781101091ADDAY121999GF105991021001022501041021MD1710381+9999MW1011
0057028640999991963010403004+65783+024583FM-12+001599999V0202001N00571075001CN0400001N9-00501-00721100681ADDAY111999GF106991041001022501071021MD1710411+9999MW1031
0070028640999991963010406004+65783+024583FM-12+001599999V0202201N00671220001CN0400001N9-00391-00611100301ADDAY111999GF103991031001022501071001KA1999N-01781MD1710381+9999MW1011
0057028640999991963010409004+65783+024583FM-12+001599999V0202301N00671030001CN0400001N9-00391-00721100191ADDAY111999GF107991011051008001071071MD1710111+9999MW1031
0057028640999991963010412004+65783+024583FM-12+001599999V0202501N00411220001CN0400001N9-00721-00781100131ADDAY121999GF103991011051008001041051MD1710061+9999MW1011
0057028640999991963010415004+65783+024583FM-12+001599999V0202401N00511220001CN0500001N9-00611-00891100181ADDAY101999GF101991011001022501041001MD1210051+9999MW1011
0070028640999991963010418004+65783+024583FM-12+001599999V0202601N00511220001CN0500001N9-00721-01111100201ADDAY101999GF100991001001999999001001KA1999M-00391MD1110021+9999MW1021
0057028640999991963010421004+65783+024583FM-12+001599999V0202401N00311220001CN0500001N9-00891-01221100231ADDAY101999GF100991001001999999001001MD1210031+9999MW1021
0057028640999991963010500004+65783+024583FM-12+001599999V0202301N00261220001CN0500001N9-01001-01391100211ADDAY101999GF100991001001999999001001MD1810021+9999MW1021
0057028640999991963010503004+65783+024583FM-12+001599999V0202301N00311220001CN0500001N9-01221-01501100181ADDAY101999GF100991001001999999001001MD1610031+9999MW1021
0070028640999991963010506004+65783+024583FM-12+001599999V0202301N00151220001CN0500001N9-01891-02111100161ADDAY101999GF100991001001999999001001KA1999N-01891MD1510031+9999MW1021
0057028640999991963010509004+65783+024583FM-12+001599999V0202201N00211220001CN0400001N9-01891-02111100271ADDAY101999GF101991011001022501041001MD1210111+9999MW1021
0057028640999991963010512004+65783+024583FM-12+001599999V0209991C00001220001CN0300001N9-02001-02221100311ADDAY101999GF101991011001022501041001MD1210041+9999MW1021
0057028640999991963010515004+65783+024583FM-12+001599999V0201101N00101220001CN0100001N9-02391-02611100331ADDAY101999GF101991011001022501041001MD1310021+9999MW1041
0070028640999991963010518004+65783+024583FM-12+001599999V0200201N00211220001CN0400001N9-02611-02891100401ADDAY101999GF100991001001999999001001KA1999M-01501MD1210071+9999MW1011
0057028640999991963010521004+65783+024583FM-12+001599999V0201001N00211220001CN0300001N9-02001-02221100561ADDAY101999GF100991001001999999001001MD1210161+9999MW1101
0057028640999991963010600004+65783+024583FM-12+001599999V0200101N00261000601CN0050001N9-02221-02391100651ADDAY101999GF108991081071000751999999MD1210091+9999MW1101
0057028640999991963010603004+65783+024583FM-12+001599999V0200101N00261000151CN0010001N9-02001-02221100691ADDAY121999GF108991081071000251999999MD1210041+9999MW1761
0081028640999991963010606004+65783+024583FM-12+001599999V0200101N00261000151CN0005001N9-02001-02221100671ADDAA199000691AY121999GF109991091999000251999999KA1999N-02611MD1810021+9999MW1451
0057028640999991963010609004+65783+024583FM-12+001599999V0203601N00151000601CN0050001N9-02111-02281100731ADDAY171999GF107991051071000751071999MD1210061+9999MW1101
0057028640999991963010612004+65783+024583FM-12+001599999V0203601N00151030001CN0100001N9-01891-02111100701ADDAY121999GF107991031071002501071011MD1810031+9999MW1011
0057028640999991963010615004+65783+024583FM-12+001599999V0203601N00151075001CN0300001N9-01781-02001100651ADDAY121999GF107991021001022501071071MD1610051+9999MW1011
0070028640999991963010618004+65783+024583FM-12+001599999V0200101N00261075001CN0060001N9-01721-01891100561ADDAY121999GF107991021001022501071071KA1999M-01721MD1710091+9999MW1781
0057028640999991963010621004+65783+024583FM-12+001599999V0203601N00311075001CN0300001N9-01781-02001100471ADDAY171999GF106991031001022501071071MD1710091+9999MW1021
0057028640999991963010700004+65783+024583FM-12+001599999V0203601N00311075001CN0300001N9-01781-02001100371ADDAY121999GF106991021001022501041071MD1710161+9999MW1021
0057028640999991963010703004+65783+024583FM-12+001599999V0203601N00311075001CN0400001N9-01781-02001100171ADDAY121999GF105991011001022501041051MD1710141+9999MW1021
0081028640999991963010706004+65783+024583FM-12+001599999V0203501N00211220001CN0200001N9-02001-02221099991ADDAA199000591AY111999GF103991011001022501041051KA1999N-02001MD1710181+9999MW1011
0057028640999991963010709004+65783+024583FM-12+001599999V0203601N00261220001CN0300001N9-02111-02281099941ADDAY101999GF103991021001022501041021MD1710051+9999MW1031
0057028640999991963010712004+65783+024583FM-12+001599999V0203601N00261021001CN0080001N9-01891-02111099861ADDAY101999GF106991061001022501071999MD1710081+9999MW1771
0057028640999991963010715004+65783+024583FM-12+001599999V0203401N00261021001CN0100001N9-01781-02001099871ADDAY121999GF106991061001022501071999MD1510011+9999MW1701
0081028640999991963010718004+65783+024583FM-12+001599999V0202901N00151075001CN0080001N9-02001-02111099921ADDAA199000591AY171999GF107991021001022501071071KA1999M-01781MD1210051+9999MW1771
0057028640999991963010721004+65783+024583FM-12+001599999V0202901N00151075001CN0070001N9-01781-02001099961ADDAY171999GF107991031001022501071071MD1010041+9999MW1771
0057028640999991963010800004+65783+024583FM-12+001599999V0202801N00211220001CN0060001N9-01721-01891999999ADDAY171999GF107991001001999999001071MD1110041+9999MW1711
0057028640999991963010803004+65783+024583FM-12+001599999V0202901N00151220001CN0120001N9-01721-01781100011ADDAY171999GF107991001001999999001071MD1110011+9999MW1711
0081028640999991963010806004+65783+024583FM-12+001599999V0202901N00151220001CN0300001N9-02111-02281100021ADDAA199000591AY171999GF102991011001022501041061KA1999N-02111MD1210011+9999MW1011
0057028640999991963010809004+65783+024583FM-12+001599999V0209991C00001075001CN0050001N9-01891-02221100101ADDAY171999GF107991021001022501041061MD1210081+9999MW1711
0057028640999991963010812004+65783+024583FM-12+001599999V0209991C00001021001CN0020001N9-01281-01501100201ADDAY171999GF108991081001022501021999MD1210111+9999MW1731
0057028640999991963010815004+65783+024583FM-12+001599999V0203601N00151021001CN0250001N9-01111-01221100511ADDAY171999GF108991081001022501021999MD1210311+9999MW1221
0081028640999991963010818004+65783+024583FM-12+001599999V0203501N00311021001CN0300001N9-00781-00891100781ADDAA199001091AY171999GF108991081001022501021999KA1999M-00721MD1210271+9999MW1021
0057028640999991963010821004+65783+024583FM-12+001599999V0203601N00211021001CN0300001N9-01111-01221101121ADDAY121999GF106991061001022501021999MD1210341+9999MW1011
0057028640999991963010903004+65783+024583FM-12+001599999V0203601N00151075001CN0400001N9-01781-01891101651ADDAY111999GF105991011001022501041071MD1210231+9999MW1031
0070028640999991963010906004+65783+024583FM-12+001599999V0203601N00311220001CN0300001N9-02001-02111101791ADDAY111999GF103991011001022501041021KA1999N-02001MD1210141+9999MW1021
0057028640999991963010909004+65783+024583FM-12+001599999V0209991C00001220001CN0300001N9-02281-02501102071ADDAY101999GF103991021001022501041021MD1210381+9999MW1021
0057028640999991963010912004+65783+024583FM-12+001599999V0200301N00311075001CN0300001N9-02281-02611102171ADDAY111999GF105991021001022501041051MD1210101+9999MW1031
0057028640999991963010915004+65783+024583FM-12+001599999V0200101N00211220001CN0300001N9-02501-02721102231ADDAY111999GF104991011001022501041021MD1010061+9999MW1011
0070028640999991963010918004+65783+024583FM-12+001599999V0209991C00001220001CN0300001N9-02611-02781102271ADDAY111999GF107991001001999999001071KA1999M-02001MD1310031+9999MW1031
0057028640999991963010921004+65783+024583FM-12+001599999V0201201N00211220001CN0200001N9-02281-02501102301ADDAY121999GF107991001001999999001071MD1110041+9999MW1021
0057028640999991963011000004+65783+024583FM-12+001599999V0201301N00261075001CN0200001N9-02221-02391102251ADDAY121999GF107991041061001501001071MD1710051+9999MW1031
0057028640999991963011003004+65783+024583FM-12+001599999V0201301N00361220001CN0300001N9-02111-02281102151ADDAY121999GF103991011001022501041021MD1710101+9999MW1011
0070028640999991963011006004+65783+024583FM-12+001599999V0201501N00311021001CN0300001N9-01721-01891102041ADDAY111999GF107991051001022501041021KA1999N-02721MD1710111+9999MW1031
0057028640999991963011009004+65783+024583FM-12+001599999V0201601N00511030001CN0025001N9-01391-01501102001ADDAY171999GF108991031071004501021999MD1610041+9999MW1731
0057028640999991963011012004+65783+024583FM-12+001599999V0201601N00411004501CN0100001N9-01221-01281101911ADDAY171999GF108991081051004501999999MD1710091+9999MW1771
0057028640999991963011015004+65783+024583FM-12+001599999V0201501N00511004501CN0100001N9-00891-01001101881ADDAY171999GF108991081051004501999999MD1710021+9999MW1711
0081028640999991963011018004+65783+024583FM-12+001599999V0200101N00211004501CN0100001N9-01111-01221101981ADDAA199000391AY171999GF108991081051004501999999KA1999M-00891MD1710101+9999MW1711
0057028640999991963011021004+65783+024583FM-12+001599999V0200301N00261004501CN0150001N9-01221-01221102201ADDAY171999GF108991061051004501071999MD1710211+9999MW1221
0057028640999991963011100004+65783+024583FM-12+001599999V0203601N00311220001CN0200001N9-01611-01721102361ADDAY171999GF103991031001022501071001MD1210161+9999MW1221
0100028640999991963011106004+65783+024583FM-12+001599999V0200101N00311220001CN0300001N9-02281-02501102571ADDAA199000691AY101999GF101991011001022501071001KA1999N+99999MD1210081+9999MW1011EQDQ01 -01502ATMN  
0057028640999991963011109004+65783+024583FM-12+001599999V0202801N00101030001CN0250001N9-02111-02221102631ADDAY121999GF107991021051008001071999MD1210071+9999MW1031
0057028640999991963011112004+65783+024583FM-12+001599999V0201801N00101075001CN0150001N9-02111-02221102551ADDAY121999GF107991041001022501041071MD1810081+9999MW1011
0057028640999991963011115004+65783+024583FM-12+001599999V0201701N00151001501CN0080001N9-01721-01891102421ADDAY121999GF108991081071001501999999MD1710131+9999MW1771
0057028640999991963011121004+65783+024583FM-12+001599999V0202001N00621220001CN0150001N9-01111-01221101811ADDAY111999GF106991021001022501041061MD1710331+9999MW1031
0057028640999991963011200004+65783+024583FM-12+001599999V0202001N00621030001CN0060001N9-01001-01111101361ADDAY111999GF107991021071001501041071MD1710451+9999MW1031
0057028640999991963011203004+65783+024583FM-12+001599999V0202201N00621001501CN0020001N9-00891-01001101021ADDAY121999GF108991081071001501999999MD1710341+9999MW1731
0081028640999991963011206004+65783+024583FM-12+001599999V0202401N00411030001CN0100001N9-00891-01001100841ADDAA199001091AY171999GF106991011071002501071071KA1999N-01221MD1710181+9999MW1221
0057028640999991963011209004+65783+024583FM-12+001599999V0203401N00151075001CN0150001N9-01611-01781100941ADDAY121999GF105991011051004501041021MD1310091+9999MW1011
0057028640999991963011212004+65783+024583FM-12+001599999V0203601N00151220001CN0300001N9-01721-01781101111ADDAY121999GF104991011051008001041021MD1210171+9999MW1011
0057028640999991963011215004+65783+024583FM-12+001599999V0203201N00211030001CN0250001N9-01611-01781101281ADDAY111999GF107991021051008001071999MD1210171+9999MW1031
0070028640999991963011218004+65783+024583FM-12+001599999V0200101N00211021001CN0300001N9-01781-01891101311ADDAY121999GF106991061001022501071999KA1999M-01001MD1010031+9999MW1031
0057028640999991963011300004+65783+024583FM-12+001599999V0209991C00001220001CN0500001N9-02611-02721101191ADDAY111999GF101991011001022501041001MD1710101+9999MW1021
0057028640999991963011303004+65783+024583FM-12+001599999V0201001N00151220001CN0022001N9-02501-02721100971ADDAY141999GF100991001001999999001001MD1710221+9999MW1101
0081028640999991963011306004+65783+024583FM-12+001599999V0200201N00261000601CN0080001N9-02221-02281100881ADDAA199000691AY141999GF106991061071000751999999KA1999N-02781MD1810091+9999MW1771
0057028640999991963011309004+65783+024583FM-12+001599999V0203401N00151002401CN0080001N9-02221-02391100891ADDAY141999GF107991051071002501021999MD1210011+9999MW1281
0057028640999991963011312004+65783+024583FM-12+001599999V0203601N00311030001CN0100001N9-02391-02501100971ADDAY171999GF107991031071002501071999MD1210081+9999MW1021
0057028640999991963011315004+65783+024583FM-12+001599999V0203501N00261021001CN0400001N9-02501-02611101001ADDAY121999GF106991061001022501071999MD1110031+9999MW1011
0081028640999991963011318004+65783+024583FM-12+001599999V0200101N00261021001CN0300001N9-02611-02781101121ADDAA199000691AY111999GF106991061001022501071999KA1999M-02001MD1210121+9999MW1031
0057028640999991963011321004+65783+024583FM-12+001599999V0200101N00411021001CN0030001N9-01781-02001101251ADDAY171999GF108991081001022501021999MD1210131+9999MW1731
0057028640999991963011400004+65783+024583FM-12+001599999V0203601N00361021001CN0300001N9-01891-02001101431ADDAY171999GF107991051001022501071071MD1210181+9999MW1011
0057028640999991963011403004+65783+024583FM-12+001599999V0203601N00461220001CN0400001N9-02501-02611101551ADDAY111999GF103991011001022501041021MD1210121+9999MW1011
0081028640999991963011406004+65783+024583FM-12+001599999V0203601N00361220001CN0500001N9-02781-03001101541ADDAA199001091AY101999GF101991011001022501041001KA1999N-02891MD1510011+9999MW1021
0057028640999991963011409004+65783+024583FM-12+001599999V0200101N00211220001CN0300001N9-03001-03221101601ADDAY101999GF102991021001022501041001MD1210061+9999MW1031
0057028640999991963011412004+65783+024583FM-12+001599999V0200601N00101220001CN0200001N9-02891-03221101631ADDAY101999GF102991021001022501041001MD1110021+9999MW1041
0057028640999991963011415004+65783+024583FM-12+001599999V0200201N00101220001CN0150001N9-03111-03111101611ADDAY101999GF102991021001022501041001MD1510011+9999MW1021
0070028640999991963011418004+65783+024583FM-12+001599999V0200101N00261220001CN0300001N9-03281-03611101731ADDAY101999GF101991011001022501041001KA1999M-02721MD1210121+9999MW1021
0057028640999991963011421004+65783+024583FM-12+001599999V0200101N00311220001CN0300001N9-03221-03501102001ADDAY101999GF100991001001999999001001MD1210271+9999MW1011
0057028640999991963011503004+65783+024583FM-12+001599999V0200101N00461220001CN0400001N9-02891-03221102491ADDAY101999GF101991011001022501041001MD1210261+9999MW1031
0070028640999991963011506004+65783+024583FM-12+001599999V0200101N00461220001CN0400001N9-02781-03221102711ADDAY101999GF102991021001022501041001KA1999N-03391MD1210221+9999MW1021
0057028640999991963011509004+65783+024583FM-12+001599999V0200101N00411220001CN0300001N9-03001-03221103011ADDAY101999GF102991011001022501041061MD1210301+9999MW1031
0057028640999991963011512004+65783+024583FM-12+001599999V0203601N00361220001CN0400001N9-02781-03001103191ADDAY101999GF101991011001022501041001MD1210181+9999MW1021
0057028640999991963011515004+65783+024583FM-12+001599999V0203601N00211220001CN0300001N9-03001-03281103271ADDAY101999GF102991021001022501041001MD1210081+9999MW1031
0070028640999991963011518004+65783+024583FM-12+001599999V0203501N00151220001CN0200001N9-03111-03221103501ADDAY101999GF101991011001022501041001KA1999M-02781MD1210231+9999MW1021
0057028640999991963011521004+65783+024583FM-12+001599999V0200101N00151220001CN0200001N9-03001-03221103611ADDAY101999GF100991001001999999001001MD1210111+9999MW1011
0057028640999991963011600004+65783+024583FM-12+001599999V0200101N00101220001CN0200001N9-03001-03221103631ADDAY101999GF101991011001022501041001MD1010021+9999MW1021
0057028640999991963011603004+65783+024583FM-12+001599999V0200101N00151220001CN0200001N9-03221-03391103651ADDAY101999GF100991001001999999001001MD1110021+9999MW1011
0070028640999991963011606004+65783+024583FM-12+001599999V0200101N00151220001CN0200001N9-03221-03391103541ADDAY101999GF101991011001022501041001KA1999N-03221MD1710111+9999MW1031
0057028640999991963011609004+65783+024583FM-12+001599999V0200101N00101021001CN0150001N9-02781-03111103601ADDAY121999GF107991051001022501071021MD1310061+9999MW1031
0057028640999991963011612004+65783+024583FM-12+001599999V0209991C00001075001CN0100001N9-02611-02781103491ADDAY121999GF107991041001022501071051MD1810111+9999MW1031
0057028640999991963011615004+65783+024583FM-12+001599999V0209991C00001075001CN0060001N9-02721-02891103511ADDAY121999GF106991011001022501041071MD1210021+9999MW1041
0070028640999991963011618004+65783+024583FM-12+001599999V0201301N00151220001CN0050001N9-03001-03221103311ADDAY101999GF102991001001999999001021KA1999M-02501MD1710201+9999MW1101
0057028640999991963011621004+65783+024583FM-12+001599999V0200501N00101220001CN0050001N9-03111-03391103201ADDAY101999GF101991001001999999001021MD1710111+9999MW1021
0057028640999991963011700004+65783+024583FM-12+001599999V0203601N00211220001CN0100001N9-03221-03501103141ADDAY101999GF100991001001999999001001MD1710061+9999MW1021
0057028640999991963011703004+65783+024583FM-12+001599999V0203601N00101220001CN0100001N9-03221-03501103141ADDAY101999GF100991001001999999001001MD1410001+9999MW1021
0070028640999991963011706004+65783+024583FM-12+001599999V0203601N00311220001CN0050001N9-03221-03501103201ADDAY101999GF103991031071000751041001KA1999N-03281MD1310061+9999MW1101
0057028640999991963011709004+65783+024583FM-12+001599999V0201301N00361075001CN0100001N9-03221-03281103261ADDAY111999GF105991021071000751041021MD1110061+9999MW1011
0057028640999991963011712004+65783+024583FM-12+001599999V0201201N00211001501CN0070001N9-02501-02721103261ADDAY101999GF108991081061001501999999MD1010001+9999MW1771
0057028640999991963011715004+65783+024583FM-12+001599999V0201201N00211001501CN0100001N9-02281-02501103231ADDAY171999GF108991081061001501999999MD1710031+9999MW1021
0081028640999991963011718004+65783+024583FM-12+001599999V0201401N00361021001CN0200001N9-02001-02221103081ADDAA199000691AY111999GF105991051001022501071999KA1999M-02001MD1710151+9999MW1031
0057028640999991963011721004+65783+024583FM-12+001599999V0201701N00411021001CN0200001N9-01391-01501103001ADDAY121999GF108991081001022501021999MD1710081+9999MW1221
0057028640999991963011800004+65783+024583FM-12+001599999V0201901N00511030001CN0200001N9-01111-01221102841ADDAY121999GF108991041071004501021999MD1710161+9999MW1701
0057028640999991963011803004+65783+024583FM-12+001599999V0201901N00771004501CN0150001N9-00891-00891102621ADDAY171999GF108991081071004501999999MD1710221+9999MW1711
0081028640999991963011806004+65783+024583FM-12+001599999V0201601N00361030001CN0300001N9-00891-01001102471ADDAA199000391AY171999GF105991021071002501041999KA1999N-02001MD1710151+9999MW1011
0057028640999991963011809004+65783+024583FM-12+001599999V0201301N00261001501CN0150001N9-01001-01001102401ADDAY121999GF108991061071001501021999MD1310071+9999MW1031
0057028640999991963011815004+65783+024583FM-12+001599999V0201801N00151030001CN0100001N9-00781-00891101901ADDAY121999GF107991031071002501071999MD1710311+9999MW1011
0070028640999991963011818004+65783+024583FM-12+001599999V0201701N00261001501CN0100001N9-00781-00891101621ADDAY121999GF105991051071001501001001KA1999M-00781MD1710281+9999MW1011
0057028640999991963011821004+65783+024583FM-12+001599999V0202301N00151220001CN0150001N9-01001-01001101261ADDAY101999GF102991021001022501041001MD1710361+9999MW1031
0057028640999991963011900004+65783+024583FM-12+001599999V0203401N00411220001CN0300001N9-00891-01001101251ADDAY101999GF100991001001999999001001MD1310151+9999MW1021
0057028640999991963011903004+65783+024583FM-12+001599999V0203301N00461220001CN0250001N9-00221-00281101461ADDAY101999GF104991041001022501071001MD1210211+9999MW1701
0081028640999991963011906004+65783+024583FM-12+001599999V0203201N00721220001CN0300001N9-00391-00611101861ADDAA199001091AY171999GF103991031001022501071001KA1999N-01221MD1210401+9999MW1011
0057028640999991963011909004+65783+024583FM-12+001599999V0203301N00621220001CN0300001N9-00721-01111102331ADDAY101999GF102991011051004501041001MD1210471+9999MW1011
0057028640999991963011912004+65783+024583FM-12+001599999V0202901N005119999999N0500001N9-00891-01281102381ADDAY101999GF106991031041004501999999MD1210051+9999MW1031
0057028640999991963011915004+65783+024583FM-12+001599999V0202901N00311004501CN0050001N9-00891-01111102361ADDAY121999GF108991051071004501041999MD1510021+9999MW1731
0081028640999991963011918004+65783+024583FM-12+001599999V0203001N00511220001CN0200001N9-01111-01281102421ADDAA199000691AY171999GF102991011051004501041999KA1999M-00391MD1210061+9999MW1021
0057028640999991963011921004+65783+024583FM-12+001599999V0203001N00621220001CN0300001N9-01111-01391102471ADDAY101999GF102991021001022501041999MD1210051+9999MW1701
0057028640999991963012000004+65783+024583FM-12+001599999V0203101N00671220001CN0300001N9-01111-01391102531ADDAY101999GF101991011001022501041999MD1110061+9999MW1021
0057028640999991963012003004+65783+024583FM-12+001599999V0203301N00721220001CN0400001N9-01111-01501102561ADDAY101999GF101991011001022501041999MD1210031+9999MW1021
0081028640999991963012006004+65783+024583FM-12+001599999V0203401N00771220001CN0400001N9-01111-01501102641ADDAA199000691AY101999GF100991001001999999001001KA1999N-01221MD1210081+9999MW1021
0057028640999991963012009004+65783+024583FM-12+001599999V0203401N00871220001CN0500001N9-01001-01501102871ADDAY101999GF101991011001022501041001MD1210231+9999MW1021
0057028640999991963012012004+65783+024583FM-12+001599999V0203301N00771220001CN0500001N9-01001-01501103061ADDAY101999GF101991001001999999001011MD1210201+9999MW1031
0057028640999991963012015004+65783+024583FM-12+001599999V0203301N00671220001CN0500001N9-01111-01501103231ADDAY101999GF102991001001999999001021MD1210171+9999MW1031
0070028640999991963012018004+65783+024583FM-12+001599999V0203401N00511220001CN0300001N9-01281-01501103321ADDAY101999GF100991001001999999001001KA1999M-01001MD1210091+9999MW1011
0057028640999991963012021004+65783+024583FM-12+001599999V0203201N00211220001CN0300001N9-01611-01891103281ADDAY101999GF100991001001999999001001MD1810041+9999MW1021
0057028640999991963012100004+65783+024583FM-12+001599999V0203601N00261220001CN0300001N9-01891-02001103131ADDAY101999GF100991001001999999001001MD1710151+9999MW1021
0057028640999991963012103004+65783+024583FM-12+001599999V0209991C00001220001CN0200001N9-01721-01891102881ADDAY101999GF104991041001022501071001MD1710251+9999MW1031
0081028640999991963012106004+65783+024583FM-12+001599999V0201301N00211002401CN0050001N9-01391-01501102641ADDAA199000391AY101999GF108991061051002501021999KA1999N-02111MD1710231+9999MW1731
0057028640999991963012109004+65783+024583FM-12+001599999V0201401N00211004501CN0070001N9-01111-01221102531ADDAY171999GF108991051051004501021999MD1710121+9999MW1711
0057028640999991963012112004+65783+024583FM-12+001599999V0202801N00211004501CN0150001N9-00891-01001102401ADDAY171999GF107991061081004501071999MD1710121+9999MW1851
0057028640999991963012115004+65783+024583FM-12+001599999V0202701N00101030001CN0300001N9-01111-01221102341ADDAY121999GF107991021051004501071999MD1710061+9999MW1031
0081028640999991963012118004+65783+024583FM-12+001599999V0209991C00001220001CN0200001N9-01281-01501102361ADDAA199005091AY111999GF104991011051004501071001KA1999M-00891MD1310021+9999MW1011
0057028640999991963012121004+65783+024583FM-12+001599999V0203301N00311220001CN0200001N9-00611-00781102421ADDAY101999GF101991011001022501041001MD1210071+9999MW1011
0057028640999991963012200004+65783+024583FM-12+001599999V0203601N00151220001CN0200001N9-01111-01221102551ADDAY101999GF100991001001999999001001MD1210031+9999MW1011
0057028640999991963012203004+65783+024583FM-12+001599999V0201801N00151021001CN0200001N9-01281-01391102551ADDAY101999GF107991071001022501071999MD1410001+9999MW1031
0070028640999991963012206004+65783+024583FM-12+001599999V0201801N00411030001CN0150001N9-00781-01001102191ADDAY121999GF108991031051004501071999KA1999N-01611MD1710361+9999MW1711
0057028640999991963012209004+65783+024583FM-12+001599999V0202201N00621004501CN0100001N9-00281-00391101731ADDAY171999GF107991051051004501071999MD1710461+9999MW1711
0057028640999991963012215004+65783+024583FM-12+001599999V0203501N00461030001CN0400001N9-00281-00891101581ADDAY121999GF106991031051004501071999MD1310121+9999MW1011
0081028640999991963012218004+65783+024583FM-12+001599999V0202801N00461220001CN0500001N9-00611-01221101531ADDAA199000691AY121999GF104991041001022501071001KA1999M-00281MD1810051+9999MW1031
0057028640999991963012221004+65783+024583FM-12+001599999V0203001N00461220001CN0500001N9-00611-01221101601ADDAY101999GF100991001001999999001001MD1210071+9999MW1011
0057028640999991963012300004+65783+024583FM-12+001599999V0200101N00211220001CN0500001N9-00891-01281101711ADDAY101999GF105991011001022501041061MD1210111+9999MW1031
0057028640999991963012303004+65783+024583FM-12+001599999V0200201N00101220001CN0500001N9-01501-01721101681ADDAY111999GF103991011001022501041061MD1810031+9999MW1021
0070028640999991963012306004+65783+024583FM-12+001599999V0201401N00101220001CN0400001N9-01781-01891101511ADDAY101999GF102991011001022501041051KA1999N-01891MD1710171+9999MW1031
0057028640999991963012309004+65783+024583FM-12+001599999V0201501N00411021001CN0400001N9-01221-01281101101ADDAY101999GF106991051001022501071021MD1710401+9999MW1031
0057028640999991963012312004+65783+024583FM-12+001599999V0201701N00721030001CN0400001N9-00611-00781100341ADDAY121999GF107991021051004501021999MD1710761+9999MW1701
0057028640999991963012315004+65783+024583FM-12+001599999V0201901N00821001501CN0050001N9-00221-00221099511ADDAY121999GF108991081071001501999999MD1710821+9999MW1771
0081028640999991963012318004+65783+024583FM-12+001599999V0202201N00931002401CN0060001N9-00111-00111098941ADDAA199000591AY171999GF108991061071002501021999KA1999M-00111MD1710571+9999MW1711
0057028640999991963012321004+65783+024583FM-12+001599999V0202801N00671021001CN0200001N9+00001-00221098891ADDAY171999GF107991071001022501071999MD1510051+9999MW1031
0057028640999991963012400004+65783+024583FM-12+001599999V0203101N00871021001CN0400001N9-00891-01221099591ADDAY111999GF106991061001022501071999MD1310691+9999MW1031
0057028640999991963012403004+65783+024583FM-12+001599999V0203301N00821220001CN0300001N9-00891-01281100231ADDAY111999GF101991011001022501041001MD1210641+9999MW1011
0081028640999991963012406004+65783+024583FM-12+001599999V0203301N00821220001CN0400001N9-00891-01501100811ADDAA199000591AY101999GF101991011001022501041001KA1999N-01001MD1210581+9999MW1031
0057028640999991963012409004+65783+024583FM-12+001599999V0203301N00511220001CN0500001N9-01111-01611101411ADDAY101999GF101991011001022501041001MD1210791+9999MW1021
0057028640999991963012412004+65783+024583FM-12+001599999V0203301N00211220001CN0500001N9-01281-01721101791ADDAY101999GF100991001001999999001001MD1210371+9999MW1011
0057028640999991963012415004+65783+024583FM-12+001599999V0209991C00001220001CN0500001N9-02001-02221102031ADDAY101999GF101991011001022501041001MD1210241+9999MW1021
0070028640999991963012418004+65783+024583FM-12+001599999V0203001N00101220001CN0400001N9-02281-02611102141ADDAY101999GF100991001001999999001001KA1999M-01001MD1210111+9999MW1021
0057028640999991963012421004+65783+024583FM-12+001599999V0203001N00151220001CN0400001N9-02281-02501102261ADDAY101999GF100991001001999999001001MD1210121+9999MW1021
0057028640999991963012503004+65783+024583FM-12+001599999V0202101N00461220001CN0500001N9-01221-01281102191ADDAY101999GF100991001001999999001001MD1710111+9999MW1021
0070028640999991963012506004+65783+024583FM-12+001599999V0201601N00771220001CN0500001N9-01221-01391102101ADDAY101999GF101991011001022501041001KA1999N-02501MD1710091+9999MW1031
0057028640999991963012509004+65783+024583FM-12+001599999V0201601N00821030001CN0500001N9-01111-01281101891ADDAY121999GF106991011051004501041051MD1710211+9999MW1031
0057028640999991963012512004+65783+024583FM-12+001599999V0201601N01181030001CN0150001N9-00891-01111101571ADDAY121999GF108991031071004501021999MD1710321+9999MW1701
0057028640999991963012515004+65783+024583FM-12+001599999V0201601N01131030001CN0025001N9-00721-00891101271ADDAY171999GF108991041071004501021999MD1710301+9999MW1731
0081028640999991963012518004+65783+024583FM-12+001599999V0201401N01031030001CN0060001N9-00781-01001100921ADDAA199000391AY171999GF108991041071004501021999KA1999M-00721MD1710351+9999MW1021
0057028640999991963012521004+65783+024583FM-12+001599999V0201401N01231000151CN0020001N9-00721-00891100501ADDAY121999GF109991091999000251999999MD1710421+9999MW1741
0057028640999991963012600004+65783+024583FM-12+001599999V0201601N01231000151CN0020001N9-00391-00391100311ADDAY171999GF109991091999000251999999MD1710191+9999MW1751
0057028640999991963012603004+65783+024583FM-12+001599999V0201801N01031000151CN0010001N9-00281-00281100291ADDAY171999GF109991091999000251999999MD1610021+9999MW1751
0081028640999991963012606004+65783+024583FM-12+001599999V0201901N00821001501CN0040001N9-00281-00281100441ADDAA199000591AY171999GF108991081071001501999999KA1999N-00781MD1210151+9999MW1731
0057028640999991963012609004+65783+024583FM-12+001599999V0201901N00511001501CN0040001N9-00111-00221100701ADDAY171999GF107991071071001501999999MD1210261+9999MW1101
0057028640999991963012615004+65783+024583FM-12+001599999V0201901N00361220001CN0200001N9-00781-00891101141ADDAY101999GF103991011001022501041051MD1210211+9999MW1031
0081028640999991963012618004+65783+024583FM-12+001599999V0202201N00311030001CN0150001N9-00721-00781101341ADDAA199001091AY111999GF105991011051004501071999KA1999M-00221MD1210201+9999MW1031
0057028640999991963012621004+65783+024583FM-12+001599999V0202001N00311220001CN0200001N9-01111-01281101551ADDAY111999GF101991011001022501041001MD1210211+9999MW1011
0057028640999991963012700004+65783+024583FM-12+001599999V0202001N00211220001CN0200001N9-01501-01611101741ADDAY101999GF100991001001999999001001MD1210171+9999MW1011
0057028640999991963012703004+65783+024583FM-12+001599999V0202001N00311220001CN0200001N9-01611-01721101821ADDAY101999GF100991001001999999001001MD1210111+9999MW1021
0070028640999991963012706004+65783+024583FM-12+001599999V0202101N00101220001CN0200001N9-01611-01781102021ADDAY101999GF101991011001022501041001KA1999N-01721MD1210201+9999MW1031
0057028640999991963012709004+65783+024583FM-12+001599999V0202001N00151021001CN0400001N9-01281-01501102231ADDAY101999GF105991051001022501041001MD1210211+9999MW1021
0057028640999991963012712004+65783+024583FM-12+001599999V0202001N00211030001CN0400001N9-01221-01281102411ADDAY111999GF105991011051008001041001MD1210181+9999MW1011
0057028640999991963012715004+65783+024583FM-12+001599999V0202001N00151075001CN0200001N9-01281-01281102681ADDAY101999GF105991021001022501041021MD1210271+9999MW1031
0070028640999991963012718004+65783+024583FM-12+001599999V0201401N00151220001CN0300001N9-01281-01391102931ADDAY101999GF100991001001999999001001KA1999M-01111MD1210251+9999MW1011
0057028640999991963012721004+65783+024583FM-12+001599999V0201701N00261220001CN0400001N9-01221-01281103001ADDAY101999GF100991001001999999001001MD1210071+9999MW1021
0057028640999991963012800004+65783+024583FM-12+001599999V0201801N00311220001CN0400001N9-00891-01001103011ADDAY101999GF101991011001022501041001MD1710011+9999MW1021
0057028640999991963012803004+65783+024583FM-12+001599999V0201601N00311220001CN0400001N9-00891-01001102961ADDAY101999GF100991001001999999001001MD1710051+9999MW1011
0070028640999991963012806004+65783+024583FM-12+001599999V0201701N00261075001CN0300001N9-00891-01001102991ADDAY101999GF105991021001022501041051KA1999N-01391MD1110031+9999MW1031
0057028640999991963012809004+65783+024583FM-12+001599999V0202001N00261075001CN0200001N9-00611-00721102991ADDAY121999GF106991011001022501041051MD1410001+9999MW1031
0057028640999991963012812004+65783+024583FM-12+001599999V0201801N00311075001CN0150001N9-00611-00721102971ADDAY121999GF106991021001022501041051MD1810021+9999MW1031
0057028640999991963012815004+65783+024583FM-12+001599999V0201801N00311075001CN0150001N9-00501-00501102971ADDAY121999GF106991021001022501041051MD1010001+9999MW1021
0070028640999991963012818004+65783+024583FM-12+001599999V0201701N00311220001CN0400001N9-00501-00611103021ADDAY121999GF101991011001022501041001KA1999M-00391MD1210051+9999MW1011
0057028640999991963012821004+65783+024583FM-12+001599999V0201701N00311001501CN0200001N9-00501-00611103011ADDAY111999GF105991051061001501001001MD1710011+9999MW1011
0043028640999991963012903004+65783+024583FM-12+001599999V0202001N00571000601CN9999999N9-00391-00391102751ADDGF108991081061000751999999MD1710101+9999
0081028640999991963012906004+65783+024583FM-12+001599999V0202001N00671000601CN0015001N9-00221-00221102551ADDAA199000691AY151999GF108991081061000751999999KA1999N-00611MD1710201+9999MW1771
0057028640999991963012909004+65783+024583FM-12+001599999V0202001N00511030001CN0200001N9-00221-00281102411ADDAY171999GF106991021051004501071051MD1710141+9999MW1011
0057028640999991963012912004+65783+024583FM-12+001599999V0202001N00511030001CN0300001N9-00111-00221102131ADDAY121999GF106991011051004501071051MD1710281+9999MW1011
0057028640999991963012915004+65783+024583FM-12+001599999V0202001N00821075001CN0400001N9-00111-00221101941ADDAY121999GF106991031001022501041051MD1710191+9999MW1011
0070028640999991963012918004+65783+024583FM-12+001599999V0202101N00871021001CN0150001N9-00221-00221101881ADDAY111999GF106991061001022501041999KA1999M+00001MD1710061+9999MW1031
0057028640999991963012921004+65783+024583FM-12+001599999V0202101N00771001501CN0100001N9-00221-00221101851ADDAY121999GF108991081061001501999999MD1610031+9999MW1031
0057028640999991963013000004+65783+024583FM-12+001599999V0202001N00621002401CN0030001N9-00221-00221101831ADDAY121999GF108991081051002501999999MD1810021+9999MW1731
0057028640999991963013003004+65783+024583FM-12+001599999V0202101N00361001501CN0030001N9-00221-00221101801ADDAY171999GF108991081071001501999999MD1510031+9999MW1731
0081028640999991963013006004+65783+024583FM-12+001599999V0202301N00101001501CN0030001N9-00111-00221101841ADDAA199003091AY171999GF108991081071001501999999KA1999N-00221MD1210041+9999MW1731
0057028640999991963013012004+65783+024583FM-12+001599999V0200101N00771004501CN0040001N9-00501-00611102221ADDAY171999GF108991051071004501021999MD1210161+9999MW1711
0057028640999991963013015004+65783+024583FM-12+001599999V0200101N00721004501CN0040001N9-00611-00781102411ADDAY171999GF108991051071004501021999MD1210191+9999MW1711
0081028640999991963013018004+65783+024583FM-12+001599999V0200101N00621021001CN0200001N9-00721-01001102431ADDAA199002091AY171999GF108991081001022501021999KA1999M-00111MD1210021+9999MW1011
0057028640999991963013021004+65783+024583FM-12+001599999V0200101N00411220001CN0400001N9-01221-01611102511ADDAY121999GF100991001001999999001001MD1210071+9999MW1011
0057028640999991963013103004+65783+024583FM-12+001599999V0200101N00311220001CN0400001N9-02001-02221102441ADDAY101999GF100991001001999999001001MD1710031+9999MW1021
0070028640999991963013106004+65783+024583FM-12+001599999V0200101N00411220001CN0400001N9-02111-02281102441ADDAY101999GF101991011001022501041001KA1999N-02221MD1410001+9999MW1031
0057028640999991963013109004+65783+024583FM-12+001599999V0200101N00511220001CN0300001N9-01891-02001102511ADDAY101999GF101991011001022501041001MD1210071+9999MW1021
0057028640999991963013112004+65783+024583FM-12+001599999V0200101N00461220001CN0500001N9-01721-01891102641ADDAY101999GF101991011001022501041001MD1210131+9999MW1021
0057028640999991963013115004+65783+024583FM-12+001599999V0203601N00511220001CN0500001N9-01611-01781102791ADDAY101999GF101991011001022501071001MD1210151+9999MW1021
0070028640999991963013118004+65783+024583FM-12+001599999V0203401N00621220001CN0400001N9-01611-01891102921ADDAY101999GF100991001001999999001001KA1999M-01501MD1210131+9999MW1011
0057028640999991963013121004+65783+024583FM-12+001599999V0203501N00621220001CN0400001N9-01501-01721103111ADDAY101999GF100991001001999999001001MD1210191+9999MW1021
0057028640999991963020100004+65783+024583FM-12+001599999V0203501N00721220001CN0400001N9-01501-01721103251ADDAY101999GF100991001001999999001001MD1210141+9999MW1021
0057028640999991963020103004+65783+024583FM-12+001599999V0203501N00621220001CN0400001N9-01611-01781103391ADDAY101999GF100991001001999999001001MD1210141+9999MW1021
0070028640999991963020106004+65783+024583FM-12+001599999V0203601N00621220001CN0400001N9-01781-02001103551ADDAY101999GF101991011001022501041001KA1999N-01781MD1210161+9999MW1031
0057028640999991963020109004+65783+024583FM-12+001599999V0203601N00411220001CN0400001N9-01891-02111103581ADDAY101999GF101991011001022501041011MD1110031+9999MW1031
0057028640999991963020112004+65783+024583FM-12+001599999V0203601N00261075001CN0400001N9-01721-02001103571ADDAY101999GF106991011001022501041021MD1810011+9999MW1031
0057028640999991963020115004+65783+024583FM-12+001599999V0203601N00101220001CN0200001N9-02111-02221103531ADDAY111999GF104991011001022501041021MD1710051+9999MW1021
0070028640999991963020118004+65783+024583FM-12+001599999V0201301N00101075001CN0150001N9-02001-02221103431ADDAY111999GF106991031071001501001071KA1999M-01721MD1710101+9999MW1031
0057028640999991963020121004+65783+024583FM-12+001599999V0201801N00151001501CN0100001N9-01611-01721103241ADDAY121999GF108991081071001501999999MD1710191+9999MW1031
0057028640999991963020200004+65783+024583FM-12+001599999V0201801N00361001501CN0150001N9-01221-01281102961ADDAY121999GF108991081071001501999999MD1710281+9999MW1021
0057028640999991963020203004+65783+024583FM-12+001599999V0201901N00461075001CN0200001N9-01001-01111102691ADDAY121999GF107991021071001501001071MD1710251+9999MW1011
0070028640999991963020206004+65783+024583FM-12+001599999V0202001N00571030001CN0300001N9-01001-01111102511ADDAY121999GF107991041071002501071071KA1999N-02001MD1710181+9999MW1031
0057028640999991963020209004+65783+024583FM-12+001599999V0202001N00621001501CN0040001N9-01001-01111102271ADDAY121999GF107991051071001501041071MD1710231+9999MW1101
0057028640999991963020212004+65783+024583FM-12+001599999V0201801N00771030001CN0035001N9-00891-01001102091ADDAY121999GF107991031071002501041061MD1710181+9999MW1101
0057028640999991963020215004+65783+024583FM-12+001599999V0201901N00871030001CN0150001N9-00891-01001101801ADDAY121999GF107991011071004501041071MD1710291+9999MW1011
0081028640999991963020218004+65783+024583FM-12+001599999V0202001N00821002401CN0050001N9-00891-01001101571ADDAA199000591AY121999GF107991051071002501021999KA1999M-00891MD1710231+9999MW1771
0057028640999991963020221004+65783+024583FM-12+001599999V0202001N00931030001CN0100001N9-00781-00891101381ADDAY171999GF106991031071002501071999MD1710191+9999MW1361
0057028640999991963020300004+65783+024583FM-12+001599999V0202001N00931002401CN0080001N9-00721-00781101251ADDAY171999GF108991071071002501999999MD1710131+9999MW1711
0057028640999991963020303004+65783+024583FM-12+001599999V0202001N00981004501CN0150001N9-00721-00781101091ADDAY121999GF107991071071004501999999MD1710161+9999MW1021
0081028640999991963020306004+65783+024583FM-12+001599999V0201901N00931004501CN0150001N9-00611-00781100991ADDAA199000691AY121999GF107991071051004501999999KA1999N-00891MD1710101+9999MW1021
0057028640999991963020309004+65783+024583FM-12+001599999V0201801N00721004501CN0100001N9-00611-00721100931ADDAY121999GF108991061071004501071999MD1710061+9999MW1701
0092028640999991963020312004+65783+024583FM-12+001599999V0202301N00511002401CN0045001N9-00721-00781100921ADDAY171999GF108991061071002501021999MD1710011+9999MW1711EQDQ01+000042APCTENQ02+000012APC3  
0057028640999991963020315004+65783+024583FM-12+001599999V0201901N00411002401CN0060001N9-00721-00781100951ADDAY171999GF108991081071002501999999MD1210031+9999MW1711
0081028640999991963020318004+65783+024583FM-12+001599999V0201901N00101004501CN0150001N9-00721-00781101051ADDAA199001091AY171999GF107991071051004501999999KA1999M-00611MD1210101+9999MW1221
0057028640999991963020321004+65783+024583FM-12+001599999V0201901N00151002401CN0060001N9-00781-00891101151ADDAY121999GF108991081071002501999999MD1210101+9999MW1711
0057028640999991963020400004+65783+024583FM-12+001599999V0201401N00311001501CN0030001N9-00781-00781101281ADDAY171999GF108991081061001501999999MD1210131+9999MW1771
0057028640999991963020403004+65783+024583FM-12+001599999V0201301N00151001501CN0030001N9-00781-00891101341ADDAY171999GF108991081071001501999999MD1010061+9999MW1721
0081028640999991963020406004+65783+024583FM-12+001599999V0200701N00261004501CN0020001N9-00891-00891101331ADDAA199000691AY171999GF108991081051004501999999KA1999N-00891MD1510011+9999MW1731
0057028640999991963020409004+65783+024583FM-12+001599999V0200601N00361004501CN0020001N9-00891-01001101391ADDAY171999GF108991061071004501021999MD1210061+9999MW1731
0057028640999991963020412004+65783+024583FM-12+001599999V0200701N00311004501CN0035001N9-00781-01001101291ADDAY171999GF108991051071004501021999MD1710101+9999MW1711
0057028640999991963020415004+65783+024583FM-12+001599999V0200401N00511004501CN0040001N9-00891-01001101151ADDAY171999GF108991051071004501021999MD1710141+9999MW1711
0081028640999991963020418004+65783+024583FM-12+001599999V0200401N00571021001CN0150001N9-00891-01001100911ADDAA199002091AY171999GF108991081001022501021999KA1999M-00781MD1710241+9999MW1011
0057028640999991963020421004+65783+024583FM-12+001599999V0200401N00931021001CN0150001N9-00891-01111100421ADDAY121999GF108991081001022501021999MD1710491+9999MW1021
0057028640999991963020500004+65783+024583FM-12+001599999V0200501N00871000151CN0010001N9-00721-00781100121ADDAY171999GF109991091999000251999999MD1710311+9999MW1731
0057028640999991963020503004+65783+024583FM-12+001599999V0200601N00821007801CN0050001N9-00781-01111099941ADDAY171999GF108991081051008001999999MD1710181+9999MW1711
0081028640999991963020506004+65783+024583FM-12+001599999V0200601N00621007801CN0025001N9-00781-00891099781ADDAA199001091AY171999GF108991081051008001999999KA1999N-00891MD1710181+9999MW1731
0057028640999991963020509004+65783+024583FM-12+001599999V0201001N00511000151CN0005001N9-00611-00721099891ADDAY171999GF109991091999000251999999MD1310111+9999MW1751
0057028640999991963020512004+65783+024583FM-12+001599999V0201201N00671004501CN0025001N9-00611-00721100171ADDAY171999GF108991061071004501021999MD1210281+9999MW1731
0057028640999991963020515004+65783+024583FM-12+001599999V0201301N00411021001CN0030001N9-00781-00891100431ADDAY171999GF107991071001022501071999MD1210261+9999MW1711
0081028640999991963020518004+65783+024583FM-12+001599999V0201101N00311004501CN0040001N9-00781-01001100711ADDAA199001091AY171999GF108991051071004501021999KA1999M-00611MD1210281+9999MW1711
0057028640999991963020521004+65783+024583FM-12+001599999V0201001N00311004501CN0040001N9-00891-01111101001ADDAY171999GF108991071051004501021999MD1210291+9999MW1711
0057028640999991963020600004+65783+024583FM-12+001599999V0201001N00311030001CN0040001N9-00891-01001101251ADDAY171999GF108991041071004501021999MD1210251+9999MW1711
0057028640999991963020603004+65783+024583FM-12+001599999V0200701N00211004501CN0040001N9-00891-01111101441ADDAY171999GF108991051071004501021999MD1210191+9999MW1711
0081028640999991963020606004+65783+024583FM-12+001599999V0203601N00211004501CN0040001N9-01001-01111101641ADDAA199001091AY171999GF108991051071004501021999KA1999N-01111MD1210201+9999MW1711
0057028640999991963020609004+65783+024583FM-12+001599999V0203601N00151030001CN0035001N9-01721-01781101961ADDAY171999GF108991031051004501021999MD1210311+9999MW1101
0057028640999991963020612004+65783+024583FM-12+001599999V0200101N00151030001CN0035001N9-01221-01391102171ADDAY121999GF107991041051004501071999MD1210211+9999MW1771
0057028640999991963020615004+65783+024583FM-12+001599999V0203401N00101004501CN0045001N9-01221-01281102301ADDAY171999GF108991061051004501021999MD1210131+9999MW1711
0081028640999991963020618004+65783+024583FM-12+001599999V0209991C00001021001CN0035001N9-01891-02001102441ADDAA199000391AY171999GF105991051001022501071999KA1999M-01001MD1210141+9999MW1101
0057028640999991963020621004+65783+024583FM-12+001599999V0209991C00001000151CN0001001N9-01501-01611102551ADDAY141999GF109991091999000251999999MD1210111+9999MW1781
0057028640999991963020700004+65783+024583FM-12+001599999V0209991C00001000151CN0012001N9-01281-01391102621ADDAY141999GF108991081061000251999999MD1210071+9999MW1781
0057028640999991963020703004+65783+024583FM-12+001599999V0209991C00001000151CN0015001N9-01281-01391102651ADDAY171999GF108991081061000251999999MD1310031+9999MW1781
0081028640999991963020706004+65783+024583FM-12+001599999V0209991C00001000151CN0018001N9-01281-01391102701ADDAA199000391AY171999GF108991081061000251999999KA1999N-01891MD1210051+9999MW1781
0057028640999991963020709004+65783+024583FM-12+001599999V0209991C00001001501CN0030001N9-01221-01391102741ADDAY171999GF108991081071001501999999MD1210041+9999MW1711
0057028640999991963020712004+65783+024583FM-12+001599999V0209991C00001021001CN0030001N9-01221-01391102791ADDAY171999GF107991071001022501041999MD1210051+9999MW1711
0057028640999991963020715004+65783+024583FM-12+001599999V0209991C00001030001CN0040001N9-01281-01501102711ADDAY171999GF107991031051004501071999MD1710081+9999MW1711
0081028640999991963020718004+65783+024583FM-12+001599999V0209991C00001030001CN0040001N9-01611-01781102731ADDAA199000391AY171999GF107991021051004501071999KA1999M-01221MD1210021+9999MW1101
0057028640999991963020721004+65783+024583FM-12+001599999V0209991C00001021001CN0050001N9-01781-02001102771ADDAY171999GF108991081001022501021999MD1210041+9999MW1711
0057028640999991963020800004+65783+024583FM-12+001599999V0209991C00001021001CN0050001N9-02221-02281102761ADDAY171999GF106991061001022501071999MD1710011+9999MW1101
0057028640999991963020803004+65783+024583FM-12+001599999V0200101N00101021001CN0080001N9-02501-02721102751ADDAY121999GF106991061001022501071999MD1710021+9999MW1031
0081028640999991963020806004+65783+024583FM-12+001599999V0209991C00001030001CN0040001N9-02221-02391102771ADDAA199000691AY171999GF108991031051004501021999KA1999N-02721MD1310031+9999MW1711
0057028640999991963020809004+65783+024583FM-12+001599999V0209991C00001075001CN0050001N9-02001-02111102781ADDAY171999GF105991021051004501071021MD1810011+9999MW1221
0057028640999991963020812004+65783+024583FM-12+001599999V0209991C00001220001CN0100001N9-01721-01781102741ADDAY171999GF103991021051004501071001MD1810041+9999MW1221
0057028640999991963020815004+65783+024583FM-12+001599999V0201801N00151021001CN0060001N9-01891-02111102641ADDAY101999GF106991061001022501041999MD1610101+9999MW1101
0081028640999991963020818004+65783+024583FM-12+001599999V0201801N00151220001CN0150001N9-02391-02611102581ADDAA199000691AY111999GF101991011001022501041001KA1999M-01721MD1810061+9999MW1021
0057028640999991963020821004+65783+024583FM-12+001599999V0201701N00151220001CN0100001N9-02611-02891102501ADDAY101999GF103991001001999999001051MD1710091+9999MW1041
0057028640999991963020900004+65783+024583FM-12+001599999V0201501N00101075001CN0150001N9-02221-02501102401ADDAY101999GF107991021001022501041071MD1710091+9999MW1031
0057028640999991963020903004+65783+024583FM-12+001599999V0209991C00001075001CN0150001N9-01891-02111102311ADDAY121999GF107991021001022501041071MD1610091+9999MW1021
0070028640999991963020906004+65783+024583FM-12+001599999V0201601N00151075001CN0150001N9-01721-01891102251ADDAY121999GF107991021001022501041071KA1999N-02611MD1710061+9999MW1011
0057028640999991963020909004+65783+024583FM-12+001599999V0209991C00001021001CN0150001N9-01611-01721102261ADDAY121999GF107991071001022501071999MD1010011+9999MW1031
0057028640999991963020912004+65783+024583FM-12+001599999V0209991C00001021001CN0100001N9-01221-01281102151ADDAY121999GF108991081001022501071999MD1710111+9999MW1011
0057028640999991963020915004+65783+024583FM-12+001599999V0201801N00311021001CN0050001N9-01001-01001101931ADDAY121999GF107991071001022501071999MD1710211+9999MW1101
0070028640999991963020918004+65783+024583FM-12+001599999V0202001N00101021001CN0050001N9-01111-01221101821ADDAY121999GF105991051001022501071001KA1999M-00891MD1710111+9999MW1101
0057028640999991963020921004+65783+024583FM-12+001599999V0200201N00261021001CN0050001N9-01281-01391101961ADDAY121999GF107991071001022501071999MD1210141+9999MW1101
0057028640999991963021000004+65783+024583FM-12+001599999V0200201N00511021001CN0100001N9-01281-01391102361ADDAY121999GF107991071001022501071999MD1210401+9999MW1021
0057028640999991963021003004+65783+024583FM-12+001599999V0200201N00411220001CN0200001N9-02001-02111102681ADDAY111999GF102991021001022501071001MD1210311+9999MW1011
0070028640999991963021006004+65783+024583FM-12+001599999V0209991C00001220001CN0200001N9-02221-02391102951ADDAY111999GF101991011001022501041001KA1999N-02221MD1210271+9999MW1011
0057028640999991963021009004+65783+024583FM-12+001599999V0209991C00001220001CN0300001N9-02111-02281103141ADDAY101999GF101991011001022501041001MD1210191+9999MW1021
0057028640999991963021015004+65783+024583FM-12+001599999V0201801N00101220001CN0200001N9-02111-02221103081ADDAY101999GF101991011001022501071001MD1710081+9999MW1021
0070028640999991963021018004+65783+024583FM-12+001599999V0201501N00311021001CN0100001N9-01781-01891102901ADDAY101999GF107991071001022501071999KA1999M-01391MD1710181+9999MW1021
0057028640999991963021021004+65783+024583FM-12+001599999V0201801N00411021001CN0100001N9-01501-01611102751ADDAY121999GF108991081001022501021999MD1710151+9999MW1031
0057028640999991963021100004+65783+024583FM-12+001599999V0201801N00411030001CN0100001N9-01391-01501102471ADDAY121999GF108991021041017501021999MD1710281+9999MW1021
0057028640999991963021103004+65783+024583FM-12+001599999V0201601N00511004501CN0070001N9-01501-01611102191ADDAY121999GF108991081051004501999999MD1710281+9999MW1701
0081028640999991963021106004+65783+024583FM-12+001599999V0202001N00721002401CN0040001N9-01001-01111101861ADDAA199000691AY171999GF108991081051002501999999KA1999N-01781MD1710321+9999MW1731
0057028640999991963021109004+65783+024583FM-12+001599999V0202001N00821001501CN0035001N9-00781-00891101581ADDAY171999GF108991061071001501021999MD1710281+9999MW1731
0057028640999991963021112004+65783+024583FM-12+001599999V0202201N00771030001CN0050001N9-00781-00891101421ADDAY171999GF107991031071002501041071MD1710161+9999MW1711
0057028640999991963021115004+65783+024583FM-12+001599999V0202201N00721002401CN0050001N9-00721-00781101241ADDAY171999GF108991061071002501021999MD1710181+9999MW1031
0081028640999991963021118004+65783+024583FM-12+001599999V0202001N00721007801CN0150001N9-00611-00721101081ADDAA199000391AY121999GF108991081051008001999999KA1999M-00611MD1710161+9999MW1031
0057028640999991963021121004+65783+024583FM-12+001599999V0202001N00871004501CN0020001N9-00611-00721100911ADDAY121999GF108991081071004501999999MD1710171+9999MW1791
0057028640999991963021200004+65783+024583FM-12+001599999V0201901N00931002401CN0020001N9-00611-00721100731ADDAY171999GF108991081071002501999999MD1710181+9999MW1731
0057028640999991963021203004+65783+024583FM-12+001599999V0201901N00931002401CN0020001N9-00781-00891100561ADDAY171999GF108991081071002501999999MD1710171+9999MW1731
0081028640999991963021206004+65783+024583FM-12+001599999V0201901N00871002401CN0025001N9-00781-00781100471ADDAA199000391AY171999GF108991081071002501999999KA1999N-00781MD1710091+9999MW1761
0057028640999991963021209004+65783+024583FM-12+001599999V0201901N00871002401CN0025001N9-00781-00891100441ADDAY171999GF108991061071002501021999MD1710031+9999MW1761
0057028640999991963021212004+65783+024583FM-12+001599999V0201901N00821001501CN0035001N9-00721-00891100351ADDAY171999GF108991081071001501999999MD1710091+9999MW1101
0057028640999991963021215004+65783+024583FM-12+001599999V0201901N00721001501CN0045001N9-00721-00781100311ADDAY121999GF108991081071001501999999MD1710041+9999MW1771
0081028640999991963021218004+65783+024583FM-12+001599999V0202101N00211002401CN0050001N9-00721-00781100371ADDAA199000691AY171999GF107991071071002501999999KA1999M-00611MD1310061+9999MW1101
0057028640999991963021221004+65783+024583FM-12+001599999V0203601N002119999999N0100001N9-01001-01111100521ADDAY121999GF107991999999999999999999MD1210141+9999MW1011
0057028640999991963021300004+65783+024583FM-12+001599999V0203201N00211021001CN0150001N9-01111-01221100681ADDAY121999GF107991071001022501071999MD1210171+9999MW1031
0057028640999991963021303004+65783+024583FM-12+001599999V0200101N00151000601CN0025001N9-01001-01001100841ADDAY121999GF108991081071000751999999MD1210161+9999MW1101
0081028640999991963021306004+65783+024583FM-12+001599999V0201001N00211000151CN0010001N9-01111-01221100901ADDAA199000691AY141999GF107991071071000251999999KA1999N-01221MD1210061+9999MW1771
0057028640999991963021309004+65783+024583FM-12+001599999V0209991C00001000151CN0004001N9-01111-01221101071ADDAY141999GF109991091061000251999999MD1210171+9999MW1451
0057028640999991963021315004+65783+024583FM-12+001599999V0201601N00261220001CN0150001N9-01281-01501101061ADDAY111999GF103991011001022501041011MD1710041+9999MW1011
0081028640999991963021318004+65783+024583FM-12+001599999V0201601N00151220001CN0100001N9-01611-01721101101ADDAA199000691AY111999GF101991011001022501041001KA1999M-01111MD1210031+9999MW1021
0057028640999991963021321004+65783+024583FM-12+001599999V0200901N00101220001CN0100001N9-01781-01891101121ADDAY101999GF102991021001022501041001MD1110021+9999MW1011
0057028640999991963021400004+65783+024583FM-12+001599999V0201401N00151220001CN0300001N9-01781-02001101101ADDAY101999GF100991001001999999001001MD1810021+9999MW1011
0057028640999991963021403004+65783+024583FM-12+001599999V0201801N00151220001CN0250001N9-01611-01721100981ADDAY101999GF102991021001022501041001MD1710121+9999MW1021
0081028640999991963021406004+65783+024583FM-12+001599999V0201601N00411030001CN0060001N9-01281-01281100891ADDAA199000691AY101999GF107991041071001501021999KA1999N-01891MD1710081+9999MW1781
0057028640999991963021409004+65783+024583FM-12+001599999V0201601N00361220001CN0200001N9-01281-01391100841ADDAY111999GF104991011071002501071041MD1710051+9999MW1031
0057028640999991963021412004+65783+024583FM-12+001599999V0201601N00361220001CN0200001N9-00891-01001100801ADDAY111999GF104991021071002501041051MD1710041+9999MW1011
0057028640999991963021415004+65783+024583FM-12+001599999V0201201N00211030001CN0200001N9-01221-01221100861ADDAY121999GF106991011071002501041051MD1310021+9999MW1031
0070028640999991963021418004+65783+024583FM-12+001599999V0201101N00311001501CN0070001N9-01111-01221100801ADDAY121999GF108991081071001501999999KA1999M-00891MD1710021+9999MW1031
0057028640999991963021421004+65783+024583FM-12+001599999V0201101N00211001501CN0100001N9-01001-01111100831ADDAY121999GF108991081071001501999999MD1210031+9999MW1021
0057028640999991963021500004+65783+024583FM-12+001599999V0201201N00361001501CN0080001N9-01001-01111100791ADDAY121999GF108991081071001501999999MD1710041+9999MW1021
0057028640999991963021503004+65783+024583FM-12+001599999V0201801N00511000151CN0040001N9-00891-01001100631ADDAY121999GF108991081071000251999999MD1710161+9999MW1101
0070028640999991963021506004+65783+024583FM-12+001599999V0201801N00511001501CN0080001N9-00781-00891100421ADDAY121999GF108991081071001501999999KA1999N-01111MD1710211+9999MW1021
0057028640999991963021509004+65783+024583FM-12+001599999V0201901N00621001501CN0070001N9-00781-00781100261ADDAY121999GF108991081071001501999999MD1710161+9999MW1101
0057028640999991963021512004+65783+024583FM-12+001599999V0201801N00671001501CN0080001N9-00781-00781100021ADDAY121999GF108991081071001501999999MD1710241+9999MW1021
0057028640999991963021515004+65783+024583FM-12+001599999V0201901N00411002401CN0150001N9-00781-00781099811ADDAY121999GF107991071071002501999999MD1710211+9999MW1011
0070028640999991963021518004+65783+024583FM-12+001599999V0200101N00211001501CN0025001N9-00721-00781099851ADDAY121999GF108991061071001501021999KA1999M-00611MD1210031+9999MW1731
0057028640999991963021521004+65783+024583FM-12+001599999V0203601N00511030001CN0050001N9-00721-00781100071ADDAY171999GF108991041071004501021999MD1210231+9999MW1701
0057028640999991963021600004+65783+024583FM-12+001599999V0200101N00511030001CN0050001N9-00781-01001100291ADDAY171999GF108991041071004501021999MD1210121+9999MW1021
0057028640999991963021603004+65783+024583FM-12+001599999V0203501N00311220001CN0150001N9-01501-01721100431ADDAY121999GF103991011051004501041001MD1210141+9999MW1011
0081028640999991963021606004+65783+024583FM-12+001599999V0203601N00211220001CN0400001N9-01781-02111100561ADDAA199001091AY101999GF103991031001022501041001KA1999N-01891MD1310131+9999MW1011
0057028640999991963021609004+65783+024583FM-12+001599999V0203601N00461220001CN0400001N9-01781-02001100711ADDAY101999GF102991011051004501041011MD1210141+9999MW1021
0057028640999991963021612004+65783+024583FM-12+001599999V0203501N00311220001CN0300001N9-01501-01721100771ADDAY101999GF103991011051004501041021MD1210071+9999MW1031
0057028640999991963021615004+65783+024583FM-12+001599999V0200101N00361021001CN0080001N9-01721-01781100851ADDAY111999GF107991051001022501071071MD1210071+9999MW1701
0081028640999991963021618004+65783+024583FM-12+001599999V0209991C00001021001CN0400001N9-01721-01781100921ADDAA199000691AY171999GF105991051001022501071999KA1999M-01501MD1210071+9999MW1011
0057028640999991963021621004+65783+024583FM-12+001599999V0203601N00311021001CN0045001N9-01611-01721100991ADDAY171999GF108991081001022501021999MD1210071+9999MW1711
0057028640999991963021700004+65783+024583FM-12+001599999V0203601N00211075001CN0100001N9-01781-01891101031ADDAY171999GF107991041001022501071071MD1210041+9999MW1711
0076028640999991963021703004+65783+024583FM-12+001599999V0200201N00361021001CN0050001N9-01611-01721101031ADDAY171999GF107991071001022501071999MD1410001+9999MW1711EQDQ01+000022APCTEN
0081028640999991963021706004+65783+024583FM-12+001599999V0200201N00461021001CN0300001N9-01781-02001101081ADDAA199001091AY171999GF107991071001022501071999KA1999N-02001MD1210051+9999MW1221
0057028640999991963021709004+65783+024583FM-12+001599999V0200101N00411220001CN0300001N9-01891-02111101081ADDAY121999GF105991021001022501041011MD1410001+9999MW1011
0057028640999991963021712004+65783+024583FM-12+001599999V0200201N00511220001CN0150001N9-01721-01891101061ADDAY111999GF102991021001022501041001MD1710021+9999MW1011
0057028640999991963021715004+65783+024583FM-12+001599999V0203601N00461021001CN0400001N9-01781-02001101071ADDAY101999GF105991051001022501041001MD1310011+9999MW1011
0081028640999991963021718004+65783+024583FM-12+001599999V0203601N00411220001CN0300001N9-02111-02281101091ADDAA199000691AY101999GF100991001001999999001001KA1999M-01611MD1210021+9999MW1021
0057028640999991963021721004+65783+024583FM-12+001599999V0203601N00411220001CN0400001N9-02501-02721101091ADDAY101999GF100991001001999999001001MD1410001+9999MW1021
0057028640999991963021800004+65783+024583FM-12+001599999V0203501N00311220001CN0400001N9-02721-02891101101ADDAY101999GF100991001001999999001001MD1410001+9999MW1021
0057028640999991963021803004+65783+024583FM-12+001599999V0203601N00211220001CN0400001N9-03111-03281101081ADDAY101999GF100991001001999999001001MD1710021+9999MW1021
0070028640999991963021806004+65783+024583FM-12+001599999V0200101N00101220001CN0300001N9-03281-03501101061ADDAY101999GF100991001001999999001001KA1999N-03281MD1710021+9999MW1021
0057028640999991963021809004+65783+024583FM-12+001599999V0209991C00001220001CN0250001N9-03001-03221101031ADDAY101999GF103991011071000751041001MD1710031+9999MW1041
0057028640999991963021812004+65783+024583FM-12+001599999V0201901N00211075001CN0150001N9-02221-02391100911ADDAY111999GF107991021001022501041071MD1710111+9999MW1041
0057028640999991963021815004+65783+024583FM-12+001599999V0201501N00211220001CN0150001N9-02281-02501100711ADDAY111999GF102991011001022501041021MD1710201+9999MW1011
0070028640999991963021818004+65783+024583FM-12+001599999V0201801N00101220001CN0300001N9-02721-03001100611ADDAY111999GF101991011001022501041021KA1999M-02221MD1710101+9999MW1021
0057028640999991963021821004+65783+024583FM-12+001599999V0201801N00101220001CN0250001N9-02721-02891100481ADDAY101999GF100991001001999999001001MD1710131+9999MW1021
0057028640999991963021900004+65783+024583FM-12+001599999V0201901N00151220001CN0300001N9-02721-02891100381ADDAY101999GF100991001001999999001001MD1710101+9999MW1021
0057028640999991963021903004+65783+024583FM-12+001599999V0201601N00151220001CN0150001N9-02501-02721100271ADDAY101999GF104991041061000751001001MD1710111+9999MW1031
0070028640999991963021906004+65783+024583FM-12+001599999V0201201N00151004501CN0200001N9-02001-02221100131ADDAY111999GF106991061051004501999999KA1999N-03001MD1710141+9999MW1031
0057028640999991963021909004+65783+024583FM-12+001599999V0201701N00361220001CN0300001N9-01501-01611099941ADDAY121999GF106991021001022501041061MD1710191+9999MW1011
0057028640999991963021912004+65783+024583FM-12+001599999V0201701N00671002401CN0030001N9-01281-01501099651ADDAY171999GF108991051071002501021999MD1710291+9999MW1731
0057028640999991963021915004+65783+024583FM-12+001599999V0201901N00411004501CN0100001N9-00891-01111099331ADDAY171999GF107991051071004501021999MD1710321+9999MW1701
0081028640999991963021918004+65783+024583FM-12+001599999V0202001N00871001501CN0060001N9-00781-00781099041ADDAA199000691AY171999GF108991081071001501999999KA1999M-00781MD1710291+9999MW1711
0057028640999991963021921004+65783+024583FM-12+001599999V0202101N00871021001CN0100001N9-00611-00721098831ADDAY171999GF108991081001022501021999MD1710211+9999MW1711
0057028640999991963022000004+65783+024583FM-12+001599999V0202501N00461220001CN0400001N9-00611-00781098811ADDAY121999GF103991031001022501071001MD1510021+9999MW1011
0057028640999991963022003004+65783+024583FM-12+001599999V0202401N00211220001CN0400001N9-00891-01111098911ADDAY111999GF100991001001999999001001MD1210101+9999MW1011
0081028640999991963022006004+65783+024583FM-12+001599999V0202201N00211021001CN0030001N9-01281-01391098961ADDAA199000691AY171999GF108991081001022501021999KA1999N-01501MD1210051+9999MW1711
0057028640999991963022009004+65783+024583FM-12+001599999V0203501N00621220001CN0300001N9-01001-01221099341ADDAY171999GF104991011051004501041011MD1210381+9999MW1011
0057028640999991963022012004+65783+024583FM-12+001599999V0203601N00461220001CN0400001N9-01221-01611099631ADDAY101999GF102991011001022501041011MD1210291+9999MW1011
0057028640999991963022015004+65783+024583FM-12+001599999V0203601N00261075001CN0500001N9-01281-01721099811ADDAY101999GF106991021001022501041051MD1010181+9999MW1031
0057028640999991963022021004+65783+024583FM-12+001599999V0201701N00411030001CN0200001N9-01501-01721099601ADDAY111999GF106991021051004501041071MD1710141+9999MW1031
0057028640999991963022100004+65783+024583FM-12+001599999V0201201N00311030001CN0035001N9-01391-01501099411ADDAY171999GF108991041071004501021999MD1710161+9999MW1731
0057028640999991963022103004+65783+024583FM-12+001599999V0202401N00211220001CN0050001N9-01501-01611099391ADDAY171999GF104991021071004501021999MD1710051+9999MW1711
0081028640999991963022106004+65783+024583FM-12+001599999V0202801N00101220001CN0300001N9-01391-01611099581ADDAA199002091AY171999GF102991021001022501041001KA1999N-01391MD1210181+9999MW1011
0057028640999991963022109004+65783+024583FM-12+001599999V0202601N00361220001CN0400001N9-01501-01721099661ADDAY101999GF102991011051008001041001MD1110091+9999MW1031
0057028640999991963022112004+65783+024583FM-12+001599999V0202401N00461220001CN0400001N9-01111-01721099701ADDAY101999GF103991011051008001041001MD1210041+9999MW1031
0057028640999991963022115004+65783+024583FM-12+001599999V0202601N00411220001CN0400001N9-01221-01781099851ADDAY111999GF103991011051008001041001MD1210151+9999MW1011
0070028640999991963022118004+65783+024583FM-12+001599999V0202901N00621220001CN0400001N9-01221-01891099891ADDAY111999GF101991011071004501001001KA1999M-00891MD1310041+9999MW1031
0057028640999991963022121004+65783+024583FM-12+001599999V0202801N00571220001CN0300001N9-01281-01721100021ADDAY111999GF102991021071004501001001MD1210131+9999MW1011
0057028640999991963022200004+65783+024583FM-12+001599999V0203001N00621220001CN0500001N9-01281-01611100191ADDAY101999GF100991001001999999001001MD1210171+9999MW1011
0057028640999991963022203004+65783+024583FM-12+001599999V0203201N00461220001CN0500001N9-01221-01501100511ADDAY101999GF101991011001022501041001MD1210321+9999MW1011
0070028640999991963022206004+65783+024583FM-12+001599999V0203401N00571220001CN0500001N9-01391-01721100961ADDAY101999GF101991001001999999001011KA1999N-01391MD1210451+9999MW1011
0057028640999991963022209004+65783+024583FM-12+001599999V0203501N00311220001CN0500001N9-01281-01721101321ADDAY101999GF102991001001999999001011MD1210361+9999MW1031
0057028640999991963022212004+65783+024583FM-12+001599999V0209991C00001220001CN0500001N9-01001-01611101471ADDAY101999GF102991001001999999001021MD1210151+9999MW1021
0057028640999991963022215004+65783+024583FM-12+001599999V0201901N00211075001CN0400001N9-01611-01891101521ADDAY101999GF107991021001022501041021MD1010041+9999MW1031
0070028640999991963022218004+65783+024583FM-12+001599999V0201701N00411021001CN0300001N9-01391-01721101351ADDAY121999GF107991071001022501071999KA1999M-01111MD1710161+9999MW1031
0057028640999991963022221004+65783+024583FM-12+001599999V0201901N00821000151CN0025001N9-01221-01391101141ADDAY121999GF109991091999000251999999MD1710211+9999MW1731
0057028640999991963022300004+65783+024583FM-12+001599999V0201901N00931000151CN0010001N9-01111-01221100761ADDAY171999GF109991091999000251999999MD1710381+9999MW1751
0057028640999991963022303004+65783+024583FM-12+001599999V0202301N00571030001CN0100001N9-01001-01111100541ADDAY171999GF108991031051004501021001MD1710271+9999MW1711
0081028640999991963022306004+65783+024583FM-12+001599999V0202001N00311220001CN0300001N9-01281-01391100441ADDAA199000591AY171999GF103991021001022501041021KA1999N-01391MD1710101+9999MW1011
0057028640999991963022309004+65783+024583FM-12+001599999V0202301N00411075001CN0400001N9-01111-01281100201ADDAY111999GF106991021001022501041051MD1710241+9999MW1031
0057028640999991963022312004+65783+024583FM-12+001599999V0202401N00721030001CN0400001N9-00721-00891099861ADDAY121999GF106991011091008001071051MD1710341+9999MW1261
0057028640999991963022315004+65783+024583FM-12+001599999V0202701N00621220001CN0400001N9-00721-00891099701ADDAY121999GF104991031091008001001021MD1610161+9999MW1261
0081028640999991963022318004+65783+024583FM-12+001599999V0203301N00771004501CN0200001N9-00781-01001100241ADDAA199000591AY181999GF105991051071004501001001KA1999M-00501MD1210541+9999MW1321
0057028640999991963022321004+65783+024583FM-12+001599999V0203301N00671220001CN0400001N9-01281-01611100911ADDAY131999GF101991011001022501041001MD1210671+9999MW1011
0057028640999991963022400004+65783+024583FM-12+001599999V0203101N00311220001CN0500001N9-01611-01891101251ADDAY101999GF100991001001999999001001MD1210331+9999MW1021
0057028640999991963022403004+65783+024583FM-12+001599999V0203501N00101220001CN0500001N9-01891-02111101471ADDAY101999GF102991001001999999001021MD1210221+9999MW1031
0070028640999991963022406004+65783+024583FM-12+001599999V0200101N00411030001CN0500001N9-01611-01781101601ADDAY101999GF107991021051004501021999KA1999N-02001MD1210131+9999MW1031
0057028640999991963022409004+65783+024583FM-12+001599999V0200101N00261030001CN0500001N9-01501-01721101781ADDAY121999GF108991031051004501021999MD1210181+9999MW1031
0057028640999991963022412004+65783+024583FM-12+001599999V0200101N00411220001CN0500001N9-01281-01721101851ADDAY121999GF101991001001999999001021MD1210071+9999MW1011
0057028640999991963022415004+65783+024583FM-12+001599999V0203101N00211220001CN0500001N9-01281-01611101851ADDAY101999GF102991001001999999001021MD1410001+9999MW1031
0070028640999991963022418004+65783+024583FM-12+001599999V0209991C00001220001CN0500001N9-02501-02721101831ADDAY101999GF100991001001999999001001KA1999M-01221MD1710021+9999MW1011
0057028640999991963022421004+65783+024583FM-12+001599999V0209991C00001220001CN0500001N9-02721-03001101801ADDAY101999GF100991001001999999001001MD1710041+9999MW1021
0057028640999991963022500004+65783+024583FM-12+001599999V0209991C00001220001CN0500001N9-03111-03391101931ADDAY101999GF100991001001999999001001MD1210131+9999MW1021
0057028640999991963022503004+65783+024583FM-12+001599999V0209991C00001000151CN0100001N9-02891-03221101961ADDAY121999GF106991061071000251999999MD1210031+9999MW1031
0070028640999991963022506004+65783+024583FM-12+001599999V0209991C00001220001CN0100001N9-03281-03501102071ADDAY121999GF104991041071004501041001KA1999N-03281MD1210111+9999MW1011
0057028640999991963022509004+65783+024583FM-12+001599999V0209991C00001220001CN0100001N9-02721-03001102301ADDAY121999GF104991031071001501041001MD1210231+9999MW1031
0057028640999991963022512004+65783+024583FM-12+001599999V0201001N00101075001CN0400001N9-01781-01892102351ADDAY111999GF105991021071001501041021MD1210061+9999MW1011
0057028640999991963022515004+65783+024583FM-12+001599999V0209991C00001220001CN0300001N9-01781-02001102471ADDAY111999GF103991011071001501041051MD1210121+9999MW1011
0070028640999991963022518004+65783+024583FM-12+001599999V0209991C00001220001CN0100001N9-02611-02781102561ADDAY111999GF103991011071001501041051KA1999M-01721MD1210081+9999MW1031
0057028640999991963022521004+65783+024583FM-12+001599999V0200401N00101220001CN0100001N9-02781-03001102611ADDAY101999GF102991021001022501041001MD1210051+9999MW1011
0057028640999991963022600004+65783+024583FM-12+001599999V0201201N00211004501CN0060001N9-02111-02281102661ADDAY101999GF108991051051004501071999MD1210061+9999MW1701
0057028640999991963022603004+65783+024583FM-12+001599999V0201201N00211220001CN0100001N9-02001-02221102641ADDAY171999GF104991011051004501041001MD1710021+9999MW1221
0081028640999991963022606004+65783+024583FM-12+001599999V0201801N00411075001CN0050001N9-01611-01781102541ADDAA199000391AY171999GF105991021071001501041011KA1999N-03001MD1710101+9999MW1761
0057028640999991963022609004+65783+024583FM-12+001599999V0201601N00671002401CN0050001N9-01281-01391102501ADDAY171999GF108991061071002501021999MD1810041+9999MW1701
0057028640999991963022612004+65783+024583FM-12+001599999V0201801N00511030001CN0100001N9-01111-01221102381ADDAY171999GF108991041071004501021999MD1710111+9999MW1221
0057028640999991963022615004+65783+024583FM-12+001599999V0201901N00261030001CN0100001N9-01001-01111102381ADDAY171999GF107991011051004501071071MD1510001+9999MW1011
0081028640999991963022618004+65783+024583FM-12+001599999V0202401N00101021001CN0100001N9-01281-01391102591ADDAA199000391AY171999GF107991071001022501071999KA1999M-00891MD1210211+9999MW1031
0057028640999991963022621004+65783+024583FM-12+001599999V0201401N00151021001CN0100001N9-01391-01501102761ADDAY121999GF108991081001022501021999MD1210171+9999MW1041
0057028640999991963022700004+65783+024583FM-12+001599999V0201501N00261075001CN0100001N9-01501-01611102691ADDAY121999GF107991031001022501071071MD1710071+9999MW1041
0057028640999991963022703004+65783+024583FM-12+001599999V0201301N00261075001CN0150001N9-01111-01221102641ADDAY121999GF107991031001022501071071MD1710051+9999MW1011
0070028640999991963022706004+65783+024583FM-12+001599999V0201501N00511075001CN0150001N9-00891-01001102441ADDAY121999GF107991031001022501071071KA1999N-01501MD1710201+9999MW1011
0057028640999991963022709004+65783+024583FM-12+001599999V0201801N00721030001CN0040001N9-00611-00721102261ADDAY121999GF107991041071001501071999MD1710181+9999MW1101
0057028640999991963022712004+65783+024583FM-12+001599999V0201801N00411030001CN0060001N9-00501-00611102101ADDAY121999GF107991031071001501041051MD1710161+9999MW1101
0057028640999991963022715004+65783+024583FM-12+001599999V0202301N00411030001CN0100001N9-00281-00501101951ADDAY121999GF107991021051008001041051MD1710151+9999MW1051
0070028640999991963022718004+65783+024583FM-12+001599999V0202701N00101220001CN0250001N9-00221-00501102071ADDAY121999GF104991041001022501071001KA1999M-00111MD1310121+9999MW1011
0057028640999991963022721004+65783+024583FM-12+001599999V0202901N00361021001CN0300001N9+00001-00501102271ADDAY121999GF107991071001022501071999MD1210201+9999MW1021
0057028640999991963022800004+65783+024583FM-12+001599999V0201701N00151021001CN0300001N9-00281-00721102241ADDAY121999GF108991081001022501021999MD1810031+9999MW1031
0057028640999991963022803004+65783+024583FM-12+001599999V0202401N00511021001CN0300001N9-00221-00391102221ADDAY121999GF108991081001022501021999MD1710021+9999MW1021
0070028640999991963022806004+65783+024583FM-12+001599999V0202301N00361021001CN0300001N9-00221-00281102181ADDAY121999GF107991071001022501071999KA1999N-00501MD1710041+9999MW1021
0057028640999991963022809004+65783+024583FM-12+001599999V0202301N00411021001CN0300001N9-00111-00391102181ADDAY121999GF107991071001022501071999MD1410001+9999MW1021
0057028640999991963022812004+65783+024583FM-12+001599999V0202301N00211075001CN0500001N9+00221-00281102091ADDAY121999GF107991031001022501041071MD1710081+9999MW1021
0057028640999991963022815004+65783+024583FM-12+001599999V0202501N00211075001CN0400001N9-00111-00281101981ADDAY121999GF107991031001022501041061MD1710121+9999MW1021
0070028640999991963022818004+65783+024583FM-12+001599999V0202301N00311220001CN0400001N9-00391-00501101871ADDAY121999GF103991011051002501041061KA1999M+00221MD1710111+9999MW1031
0057028640999991963022821004+65783+024583FM-12+001599999V0202101N00261220001CN0300001N9-00391-00611101781ADDAY101999GF102991021001022501041061MD1710091+9999MW1021
0057028640999991963030100004+65783+024583FM-12+001599999V0202401N00151220001CN0300001N9-00391-00501101721ADDAY101999GF103991001001999999001061MD1610061+9999MW1021
0057028640999991963030103004+65783+024583FM-12+001599999V0202501N00311220001CN0300001N9-00221-00391101691ADDAY101999GF100991001001999999001001MD1510031+9999MW1021
0057028640999991963030109004+65783+024583FM-12+001599999V0203101N00461220001CN0500001N9+00501-00221102061ADDAY101999GF104991021001022501051051MD1110141+9999MW1031
0057028640999991963030112004+65783+024583FM-12+001599999V0203401N00151021001CN0500001N9+00391-00501102141ADDAY111999GF107991051001022501071071MD1210081+9999MW1031
0057028640999991963030115004+65783+024583FM-12+001599999V0202301N00211021001CN0500001N9+00221-00281102081ADDAY121999GF107991051001022501051071MD1710061+9999MW1021
0070028640999991963030118004+65783+024583FM-12+001599999V0200101N00051030001CN0250001N9-00111-00221102061ADDAY121999GF108991031051008001071999KA1999M+00501MD1710031+9999MW1031
0057028640999991963030121004+65783+024583FM-12+001599999V0200101N00261007801CN0300001N9+00001-00221102061ADDAY121999GF108991081051008001999999MD1410001+9999MW1031
0057028640999991963030200004+65783+024583FM-12+001599999V0200501N00211007801CN0300001N9-00111-00501102111ADDAY121999GF108991081051008001999999MD1210051+9999MW1021
0057028640999991963030203004+65783+024583FM-12+001599999V0200601N00211007801CN0300001N9-00281-00721102201ADDAY121999GF108991081051008001999999MD1210091+9999MW1021
0070028640999991963030206004+65783+024583FM-12+001599999V0201001N00311030001CN0400001N9-00281-00611102191ADDAY121999GF108991021051008001021999KA1999N-00281MD1710011+9999MW1011
0057028640999991963030209004+65783+024583FM-12+001599999V0201101N00461030001CN0250001N9-00391-00781102201ADDAY171999GF108991021051008001021999MD1010011+9999MW1711
0057028640999991963030212004+65783+024583FM-12+001599999V0201201N00511030001CN0200001N9-00391-00781102041ADDAY171999GF108991021051004501021999MD1710161+9999MW1701
0057028640999991963030215004+65783+024583FM-12+001599999V0201201N00461030001CN0020001N9-00611-00781101831ADDAY171999GF108991031071004501021999MD1710191+9999MW1731
0081028640999991963030218004+65783+024583FM-12+001599999V0201101N00511015001CN0016001N9-00721-00781101611ADDAA199001091AY171999GF108991081001017501021999KA1999M-00281MD1710221+9999MW1731
0057028640999991963030221004+65783+024583FM-12+001599999V0200301N00211015001CN0035001N9-00611-00781101541ADDAY171999GF108991081001017501021999MD1710071+9999MW1731
0057028640999991963030300004+65783+024583FM-12+001599999V0200701N00311015001CN0050001N9-00611-00721101581ADDAY171999GF108991081001017501021999MD1210041+9999MW1221
0057028640999991963030303004+65783+024583FM-12+001599999V0200601N00211015001CN0050001N9-00721-00781101661ADDAY171999GF108991081001017501021999MD1210081+9999MW1021
0081028640999991963030306004+65783+024583FM-12+001599999V0200501N00101030001CN0200001N9-00721-00891101751ADDAA199002091AY121999GF108991041051004501071999KA1999N-00781MD1210091+9999MW1031
0057028640999991963030309004+65783+024583FM-12+001599999V0201801N00101007801CN0200001N9-00721-00891101821ADDAY121999GF107991061051008001071999MD1310071+9999MW1031
0057028640999991963030312004+65783+024583FM-12+001599999V0202001N00261007801CN0300001N9-00611-00891101791ADDAY121999GF107991051051008001041999MD1710031+9999MW1031
0057028640999991963030315004+65783+024583FM-12+001599999V0202001N00311007801CN0250001N9-00721-00891101731ADDAY121999GF107991071051008001999999MD1710061+9999MW1031
0070028640999991963030318004+65783+024583FM-12+001599999V0201601N00211030001CN0200001N9-00781-00781101711ADDAY121999GF107991021051004501071999KA1999M-00611MD1510021+9999MW1011
0057028640999991963030321004+65783+024583FM-12+001599999V0201901N00261001501CN0200001N9-00721-00721101681ADDAY171999GF108991081071001501999999MD1610031+9999MW1031
0057028640999991963030400004+65783+024583FM-12+001599999V0209991C00001000151CN0002001N9-00611-00721101681ADDAY171999GF109991091999000251999999MD1410001+9999MW1471
0057028640999991963030403004+65783+024583FM-12+001599999V0209991C00001000151CN0002001N9-00781-00781101701ADDAY141999GF109991091999000251999999MD1010021+9999MW1451
0081028640999991963030406004+65783+024583FM-12+001599999V0202001N00101000151CN0005001N9-00721-00781101661ADDAA199001091AY141999GF109991091999000251999999KA1999N-00781MD1810041+9999MW1431
0057028640999991963030409004+65783+024583FM-12+001599999V0201801N00261000151CN0012001N9-00721-00781101571ADDAY121999GF108991081071000251999999MD1710091+9999MW1101
0057028640999991963030412004+65783+024583FM-12+001599999V0201801N00261004501CN0150001N9-00501-00721101561ADDAY121999GF107991061051004501041999MD1710111+9999MW1011
0057028640999991963030415004+65783+024583FM-12+001599999V0201301N00151007801CN0150001N9-00391-00391101371ADDAY121999GF107991071051008001999999MD1710091+9999MW1021
0070028640999991963030418004+65783+024583FM-12+001599999V0202401N00151004501CN0100001N9-00391-00391101241ADDAY121999GF107991051051004501071999KA1999M-00391MD1710131+9999MW1021
0057028640999991963030421004+65783+024583FM-12+001599999V0209991C00001030001CN0300001N9-00501-00501101141ADDAY121999GF107991041051008001071999MD1710101+9999MW1021
0057028640999991963030500004+65783+024583FM-12+001599999V0202501N00101220001CN0400001N9-00391-00501101081ADDAY121999GF102991021001022501041001MD1710061+9999MW1011
0070028640999991963030506004+65783+024583FM-12+001599999V0209991C00001021001CN0100001N9-00781-00781101071ADDAY121999GF107991061001022501041071KA1999N-01111MD1710021+9999MW1011
0057028640999991963030509004+65783+024583FM-12+001599999V0202401N00211075001CN0300001N9-00281-00391101111ADDAY121999GF107991041001022501041071MD1210041+9999MW1011
0057028640999991963030512004+65783+024583FM-12+001599999V0202701N00101075001CN0500001N9+00221-00281101141ADDAY121999GF105991011001022501041051MD1210041+9999MW1011
0057028640999991963030515004+65783+024583FM-12+001599999V0202801N00211220001CN0500001N9+00391-00111101141ADDAY121999GF103991011001022501041021MD1410001+9999MW1011
0070028640999991963030518004+65783+024583FM-12+001599999V0209991C00001220001CN0500001N9-00501-00611101101ADDAY111999GF103991011001022501041021KA1999M+00501MD1710051+9999MW1021
0057028640999991963030521004+65783+024583FM-12+001599999V0201901N00211220001CN0150001N9-01001-01111101001ADDAY101999GF104991021001022501041021MD1710101+9999MW1101
0057028640999991963030600004+65783+024583FM-12+001599999V0201601N00151220001CN0300001N9-01281-01391100851ADDAY101999GF103991001001999999001011MD1710151+9999MW1021
0057028640999991963030603004+65783+024583FM-12+001599999V0201201N00151220001CN0300001N9-01281-01391100621ADDAY101999GF105991001001999999001071MD1710231+9999MW1031
0070028640999991963030606004+65783+024583FM-12+001599999V0201201N00151220001CN0100001N9-01281-01391100361ADDAY111999GF103991011051004501041021KA1999N-01281MD1810261+9999MW1101
0057028640999991963030609004+65783+024583FM-12+001599999V0201201N00211000601CN0030001N9-00891-01001100161ADDAY111999GF106991061061000751999999MD1710201+9999MW1101
0057028640999991963030615004+65783+024583FM-12+001599999V0201301N00311000151CN0004001N9-00721-00781099721ADDAY141999GF109991091999000251999999MD1710201+9999MW1471
0070028640999991963030618004+65783+024583FM-12+001599999V0200601N00151000151CN0003001N9-00721-00781099561ADDAY141999GF109991091999000251999999KA1999M-00611MD1710161+9999MW1451
0057028640999991963030621004+65783+024583FM-12+001599999V0203601N00101000151CN0003001N9-00721-00781099461ADDAY141999GF109991091999000251999999MD1710101+9999MW1451
0057028640999991963030700004+65783+024583FM-12+001599999V0200101N00211000601CN0050001N9-00721-00781099371ADDAY141999GF108991081071000751999999MD1710091+9999MW1101
0057028640999991963030703004+65783+024583FM-12+001599999V0209991C00001002401CN0200001N9-00781-00891099331ADDAY121999GF107991071071002501999999MD1710041+9999MW1011
0070028640999991963030706004+65783+024583FM-12+001599999V0209991C00001030001CN0200001N9-00781-00891099321ADDAY121999GF107991021051008001071999KA1999N-00781MD1610011+9999MW1011
0057028640999991963030709004+65783+024583FM-12+001599999V0203601N00151030001CN0080001N9-00721-00781099381ADDAY121999GF108991041051004501021999MD1210061+9999MW1711
0057028640999991963030712004+65783+024583FM-12+001599999V0203601N00261004501CN0100001N9-00391-00501099421ADDAY171999GF107991071051004501999999MD1210041+9999MW1711
0057028640999991963030715004+65783+024583FM-12+001599999V0203601N00461030001CN0400001N9-00281-00501099451ADDAY181999GF107991041081004501071999MD1110031+9999MW1021
0081028640999991963030718004+65783+024583FM-12+001599999V0203501N00461075001CN0500001N9-00501-01001099551ADDAA199000691AY121999GF105991021051004501041011KA1999M-00221MD1210101+9999MW1011
0057028640999991963030721004+65783+024583FM-12+001599999V0203401N00411030001CN0400001N9-00391-00891099601ADDAY121999GF107991041051004501071999MD1210051+9999MW1031
0057028640999991963030800004+65783+024583FM-12+001599999V0203501N00511030001CN0500001N9-00611-00891099701ADDAY121999GF106991011051004501071021MD1210091+9999MW1011
0057028640999991963030803004+65783+024583FM-12+001599999V0203501N00821030001CN0500001N9-00781-01221100041ADDAY121999GF107991021051004501071999MD1210341+9999MW1031
0081028640999991963030806004+65783+024583FM-12+001599999V0203601N00821030001CN0150001N9-01001-01281100361ADDAA199000691AY121999GF107991031051004501071999KA1999N-01001MD1210321+9999MW1711
0057028640999991963030809004+65783+024583FM-12+001599999V0200101N00931220001CN0300001N9-01001-01281100791ADDAY171999GF102991011051008001041021MD1210431+9999MW1361
0057028640999991963030812004+65783+024583FM-12+001599999V0203601N00771220001CN0500001N9-00891-01391101131ADDAY171999GF101991011001022501041001MD1210341+9999MW1011
0057028640999991963030815004+65783+024583FM-12+001599999V0203601N00511220001CN0500001N9-00891-01501101381ADDAY101999GF100991001001999999001001MD1210251+9999MW1011
0070028640999991963030818004+65783+024583FM-12+001599999V0203601N00261220001CN0500001N9-01391-01891101641ADDAY101999GF100991001001999999001001KA1999M-00781MD1210251+9999MW1021
0057028640999991963030821004+65783+024583FM-12+001599999V0203601N00211220001CN0500001N9-01891-02221101771ADDAY101999GF100991001001999999001001MD1210141+9999MW1021
0057028640999991963030900004+65783+024583FM-12+001599999V0203401N00151220001CN0500001N9-02501-02721101841ADDAY101999GF100991001001999999001001MD1110071+9999MW1021
0057028640999991963030903004+65783+024583FM-12+001599999V0209991C00001220001CN0500001N9-02611-02781101851ADDAY101999GF100991001001999999001001MD1210011+9999MW1021
0070028640999991963030906004+65783+024583FM-12+001599999V0201801N00101220001CN0150001N9-02721-02781101781ADDAY101999GF103991011001022501041011KA1999N-02781MD1610071+9999MW1011
0057028640999991963030909004+65783+024583FM-12+001599999V0201801N00101220001CN0150001N9-01721-02001101681ADDAY101999GF101991001001999999001011MD1710091+9999MW1041
0057028640999991963030915004+65783+024583FM-12+001599999V0202001N00311075001CN0300001N9-01221-01501101391ADDAY101999GF107991011001022501041071MD1710181+9999MW1021
0070028640999991963030918004+65783+024583FM-12+001599999V0201701N00311075001CN0250001N9-01391-01611101211ADDAY111999GF106991021001022501041071KA1999M-01221MD1710181+9999MW1031
0057028640999991963030921004+65783+024583FM-12+001599999V0201901N00261021001CN0300001N9-01281-01501101071ADDAY121999GF107991071001022501071999MD1710141+9999MW1021
0057028640999991963031000004+65783+024583FM-12+001599999V0201601N00101220001CN0400001N9-01611-01781100971ADDAY111999GF102991021001022501041001MD1710111+9999MW1011
0057028640999991963031003004+65783+024583FM-12+001599999V0201701N00411075001CN0300001N9-01501-01611100771ADDAY101999GF105991031001022501041021MD1710221+9999MW1031
0070028640999991963031006004+65783+024583FM-12+001599999V0201901N00361220001CN0500001N9-01391-01501100581ADDAY111999GF106991031001022501041061KA1999N-01721MD1710181+9999MW1031
0057028640999991963031009004+65783+024583FM-12+001599999V0201801N00511075001CN0500001N9-01221-01501100471ADDAY121999GF107991031001022501041071MD1710111+9999MW1031
0057028640999991963031012004+65783+024583FM-12+001599999V0201901N00511030001CN0500001N9-01001-01281100451ADDAY121999GF107991021081004501041071MD1710021+9999MW1031
0057028640999991963031015004+65783+024583FM-12+001599999V0201801N00261075001CN0400001N9-01001-01281100361ADDAY121999GF107991041001022501041071MD1710091+9999MW1011
0070028640999991963031018004+65783+024583FM-12+001599999V0200601N00151021001CN0400001N9-01391-01501100351ADDAY121999GF106991061001022501041999KA1999M-01001MD1710011+9999MW1031
0057028640999991963031021004+65783+024583FM-12+001599999V0203601N00261021001CN0400001N9-01721-01781100371ADDAY111999GF106991061001022501041999MD1110021+9999MW1031
0057028640999991963031100004+65783+024583FM-12+001599999V0203601N00261021001CN0400001N9-01501-01611100441ADDAY111999GF107991071001022501071999MD1210071+9999MW1021
0057028640999991963031103004+65783+024583FM-12+001599999V0200301N00151021001CN0500001N9-01501-01611100441ADDAY121999GF107991071001022501071999MD1410001+9999MW1021
0070028640999991963031106004+65783+024583FM-12+001599999V0200201N00211030001CN0200001N9-01391-01501100491ADDAY121999GF107991021051008001071999KA1999N-01721MD1010051+9999MW1031
0057028640999991963031109004+65783+024583FM-12+001599999V0209991C00001220001CN0300001N9-01001-01221100521ADDAY101999GF102991011001022501071011MD1210031+9999MW1011
0057028640999991963031112004+65783+024583FM-12+001599999V0209991C00001220001CN0300001N9-00391-01001100541ADDAY101999GF102991011001022501041011MD1010021+9999MW1051
0057028640999991963031115004+65783+024583FM-12+001599999V0202201N00211220001CN0300001N9-00891-01111100541ADDAY101999GF103991011001022501041011MD1410001+9999MW1051
0070028640999991963031118004+65783+024583FM-12+001599999V0209991C00001220001CN0030001N9-01721-01721100471ADDAY101999GF102991021001022501041001KA1999M-00391MD1710071+9999MW1101
0057028640999991963031121004+65783+024583FM-12+001599999V0200501N00211021001CN0200001N9-01501-01721100471ADDAY101999GF107991071001022501041001MD1410001+9999MW1031
0057028640999991963031200004+65783+024583FM-12+001599999V0209991C00001030001CN0050001N9-01501-01611100471ADDAY121999GF107991041051008001071999MD1410001+9999MW1101
0070028640999991963031206004+65783+024583FM-12+001599999V0209991C00001021001CN0200001N9-01391-01501100481ADDAY121999GF107991071001022501071999KA1999N-01781MD1210051+9999MW1021
0057028640999991963031209004+65783+024583FM-12+001599999V0200601N00411030001CN0400001N9-01001-01221100681ADDAY181999GF106991031081008001071999MD1210201+9999MW1851
0057028640999991963031212004+65783+024583FM-12+001599999V0200501N00511030001CN0500001N9-00721-01391100741ADDAY181999GF107991021051008001071999MD1210061+9999MW1031
0057028640999991963031215004+65783+024583FM-12+001599999V0200301N00621220001CN0500001N9-00781-01391100851ADDAY111999GF102991011001022501041011MD1210111+9999MW1011
0081028640999991963031218004+65783+024583FM-12+001599999V0200201N00511220001CN0500001N9-01221-01721101031ADDAA199000691AY101999GF102991011001022501041011KA1999M-00611MD1210181+9999MW1021
0057028640999991963031221004+65783+024583FM-12+001599999V0203601N00411220001CN0400001N9-01721-02221101261ADDAY101999GF101991011001022501041001MD1210221+9999MW1011
0057028640999991963031300004+65783+024583FM-12+001599999V0203601N00311220001CN0500001N9-02001-02281101441ADDAY101999GF100991001001999999001001MD1210181+9999MW1021
0057028640999991963031303004+65783+024583FM-12+001599999V0203601N00311220001CN0500001N9-02501-02721101581ADDAY101999GF100991001001999999001001MD1210141+9999MW1021
0070028640999991963031306004+65783+024583FM-12+001599999V0200101N00211220001CN0400001N9-02781-03001101721ADDAY101999GF103991021001022501041011KA1999N-02781MD1210131+9999MW1031
0057028640999991963031309004+65783+024583FM-12+001599999V0203601N00211220001CN0400001N9-01611-02001101891ADDAY101999GF100991001001999999001001MD1210181+9999MW1011
0057028640999991963031312004+65783+024583FM-12+001599999V0203401N00261220001CN0500001N9-01221-01781101971ADDAY101999GF100991001001999999001001MD1210081+9999MW1021
0057028640999991963031315004+65783+024583FM-12+001599999V0203301N00261220001CN0500001N9-01221-01721101971ADDAY101999GF100991001001999999001001MD1410001+9999MW1021
0070028640999991963031318004+65783+024583FM-12+001599999V0209991C00001220001CN0500001N9-02111-02391102021ADDAY101999GF100991001001999999001001KA1999M-01111MD1210051+9999MW1021
0057028640999991963031321004+65783+024583FM-12+001599999V0201801N00101220001CN0300001N9-02501-02721102001ADDAY101999GF100991001001999999001001MD1810021+9999MW1021
0057028640999991963031400004+65783+024583FM-12+001599999V0201901N00211220001CN0400001N9-02391-02611101911ADDAY101999GF101991011001022501041001MD1810091+9999MW1031
0057028640999991963031403004+65783+024583FM-12+001599999V0202201N00361021001CN0400001N9-01501-01611101691ADDAY101999GF106991061001022501071999MD1710221+9999MW1031
0070028640999991963031406004+65783+024583FM-12+001599999V0202401N00211030001CN0300001N9-01391-01721101631ADDAY121999GF107991031051008001071999KA1999N-02721MD1610061+9999MW1021
0057028640999991963031409004+65783+024583FM-12+001599999V0202701N00051220001CN0400001N9-01221-01721101751ADDAY121999GF103991011081008001041011MD1210121+9999MW1011
0057028640999991963031412004+65783+024583FM-12+001599999V0203501N00211220001CN0400001N9-00611-01281101881ADDAY111999GF103991031001022501041001MD1210141+9999MW1011
0057028640999991963031415004+65783+024583FM-12+001599999V0202401N00151220001CN0400001N9-00721-01221101981ADDAY111999GF102991011081008001041001MD1210101+9999MW1011
0070028640999991963031418004+65783+024583FM-12+001599999V0202701N00101220001CN0400001N9-01391-01611102101ADDAY111999GF103991031001022501071001KA1999M-00501MD1210111+9999MW1011
0057028640999991963031421004+65783+024583FM-12+001599999V0209991C00001220001CN0400001N9-01781-02001102221ADDAY101999GF102991021001022501041001MD1210121+9999MW1011
0057028640999991963031500004+65783+024583FM-12+001599999V0200901N00151030001CN0400001N9-01781-01891102291ADDAY111999GF107991021051008001071999MD1210071+9999MW1031
0057028640999991963031503004+65783+024583FM-12+001599999V0201201N00101021001CN0300001N9-01611-01781102321ADDAY121999GF107991071001022501071999MD1210031+9999MW1011
0081028640999991963031506004+65783+024583FM-12+001599999V0201101N00211021001CN0050001N9-01391-01501102321ADDAA199000691AY171999GF108991081001022501021999KA1999N-02001MD1010001+9999MW1731
0057028640999991963031509004+65783+024583FM-12+001599999V0201401N00411030001CN0300001N9-00891-01221102211ADDAY171999GF107991031051004501071999MD1710101+9999MW1011
0057028640999991963031512004+65783+024583FM-12+001599999V0201501N00511030001CN0500001N9-00891-01221102141ADDAY121999GF107991041051008001071999MD1710071+9999MW1021
0057028640999991963031515004+65783+024583FM-12+001599999V0201701N00361075001CN0500001N9-00781-01001102011ADDAY121999GF106991021051008001071041MD1710131+9999MW1011
0081028640999991963031518004+65783+024583FM-12+001599999V0201201N00151220001CN0400001N9-01281-01281102041ADDAA199000691AY121999GF104991021001022501041021KA1999M-00781MD1310021+9999MW1011
0057028640999991963031521004+65783+024583FM-12+001599999V0201001N00211220001CN0400001N9-01781-02001102041ADDAY101999GF100991001001999999001001MD1410001+9999MW1011
0057028640999991963031600004+65783+024583FM-12+001599999V0200301N00101220001CN0400001N9-02221-02391102081ADDAY101999GF100991001001999999001001MD1310041+9999MW1021
0057028640999991963031603004+65783+024583FM-12+001599999V0200201N00311220001CN0400001N9-02391-02611102131ADDAY101999GF102991001001999999001051MD1310051+9999MW1031
0057028640999991963031612004+65783+024583FM-12+001599999V0200401N00721220001CN0500001N9-00891-01391102851ADDAY101999GF101991001001999999001051MD1210221+9999MW1011
0057028640999991963031615004+65783+024583FM-12+001599999V0200601N00721220001CN0500001N9-00891-01391103041ADDAY101999GF101991001001999999001051MD1210191+9999MW1021
0070028640999991963031618004+65783+024583FM-12+001599999V0200301N00311220001CN0500001N9-01611-02221103301ADDAY101999GF101991011001022501041001KA1999M-00891MD1210251+9999MW1031
0057028640999991963031621004+65783+024583FM-12+001599999V0200201N00151220001CN0500001N9-02001-02221103581ADDAY101999GF100991001001999999001001MD1210271+9999MW1011
0057028640999991963031700004+65783+024583FM-12+001599999V0200901N00361220001CN0500001N9-01781-02111103771ADDAY101999GF100991001001999999001001MD1210201+9999MW1021
0057028640999991963031703004+65783+024583FM-12+001599999V0201001N00411220001CN0500001N9-02111-02281103991ADDAY101999GF100991001001999999001001MD1210211+9999MW1021
0057028640999991963031709004+65783+024583FM-12+001599999V0201301N00511220001CN0500001N9-01281-01891104251ADDAY101999GF101991001001999999001011MD1210121+9999MW1021
0057028640999991963031712004+65783+024583FM-12+001599999V0201401N00621220001CN0500001N9-01221-01891104241ADDAY101999GF100991001001999999001001MD1710011+9999MW1021
0057028640999991963031715004+65783+024583FM-12+001599999V0201401N00621220001CN0500001N9-01111-01781104091ADDAY101999GF101991001001999999001011MD1710151+9999MW1031
0070028640999991963031718004+65783+024583FM-12+001599999V0201201N00311220001CN0500001N9-01611-02221104021ADDAY101999GF101991001001999999001051KA1999M-01111MD1710071+9999MW1021
0057028640999991963031721004+65783+024583FM-12+001599999V0201301N00511220001CN0500001N9-01721-02281104011ADDAY101999GF101991001001999999001051MD1710011+9999MW1021
0057028640999991963031800004+65783+024583FM-12+001599999V0201401N00511220001CN0400001N9-01781-02221103921ADDAY101999GF101991001001999999001021MD1710071+9999MW1021
0057028640999991963031803004+65783+024583FM-12+001599999V0201401N00511220001CN0400001N9-02001-02391103791ADDAY101999GF101991011001022501041001MD1710141+9999MW1021
0070028640999991963031806004+65783+024583FM-12+001599999V0201501N00411075001CN0400001N9-02001-02391103671ADDAY101999GF105991021001022501041051KA1999N-02111MD1710121+9999MW1031
0057028640999991963031812004+65783+024583FM-12+001599999V0201601N00571075001CN0300001N9-01501-02001103441ADDAY171999GF107991041001022501041071MD1710101+9999MW1011
0057028640999991963031815004+65783+024583FM-12+001599999V0201601N00511075001CN0300001N9-01281-02001103221ADDAY121999GF107991031001022501041071MD1710221+9999MW1021
0081028640999991963031818004+65783+024583FM-12+001599999V0201401N00311030001CN0400001N9-01281-01891103091ADDAA199000691AY121999GF107991041051008001071999KA1999M-01221MD1710131+9999MW1031
0057028640999991963031821004+65783+024583FM-12+001599999V0201401N00361007801CN0400001N9-01281-01891103021ADDAY121999GF108991081051008001999999MD1710071+9999MW1021
0057028640999991963031900004+65783+024583FM-12+001599999V0201301N00261220001CN0500001N9-01501-02001102921ADDAY121999GF102991011051008001071001MD1710101+9999MW1011
0057028640999991963031903004+65783+024583FM-12+001599999V0201401N00211007801CN0300001N9-01501-02111102851ADDAY101999GF105991051051008001999999MD1710071+9999MW1031
0070028640999991963031906004+65783+024583FM-12+001599999V0201301N00261004501CN0150001N9-01501-02111102811ADDAY121999GF108991081051004501999999KA1999N-01721MD1810041+9999MW1701
0057028640999991963031909004+65783+024583FM-12+001599999V0201101N00361075001CN0060001N9-01391-01721102821ADDAY171999GF107991031001022501041061MD1210011+9999MW1711
