0057028640999991960010100004+65783+024583FM-12+001599999V0201401N01031220001CN0400001N9-01501-01611101401ADDAY101999GF100991001001999999001001MD1710251+9999MW1011
0057028640999991960010103004+65783+024583FM-12+001599999V0201401N01131004501CN0200001N9-01281-01501101341ADDAY101999GF108991081051004501999999MD1710211+9999MW1761
0081028640999991960010106004+65783+024583FM-12+001599999V0201501N01441004501CN0045001N9-01001-01221101111ADDAA199000391AY101999GF108991081051004501999999KA1999N-01501MD1710231+9999MW1711
0057028640999991960010109004+65783+024583FM-12+001599999V0201501N01541004501CN0012001N9-00891-01001100841ADDAY171999GF108991081051004501999999MD1710271+9999MW1751
0057028640999991960010112004+65783+024583FM-12+001599999V0201501N01541004501CN0012001N9-00721-00781100651ADDAY171999GF108991081051004501999999MD1710091+9999MW1751
0057028640999991960010115004+65783+024583FM-12+001599999V0201501N01541000151CN0010001N9-00611-00721100391ADDAY171999GF109991091999000251999999MD1710251+9999MW1751
0081028640999991960010118004+65783+024583FM-12+001599999V0201501N01491000151CN0010001N9-00501-00501100311ADDAA199000591AY171999GF109991091999000251999999KA1999M-00501MD1710081+9999MW1751
0057028640999991960010121004+65783+024583FM-12+001599999V0201701N01391000151CN0012001N9-00221-00221100291ADDAY171999GF109991091999000251999999MD1510021+9999MW1751
0057028640999991960010300004+65783+024583FM-12+001599999V0201901N00311220001CN0150001N9-00391-00391101681ADDAY101999GF100991001001999999001001MD1210121+9999MW1011
0057028640999991960010303004+65783+024583FM-12+001599999V0201901N00311220001CN0150001N9-00501-00721101771ADDAY101999GF103991031071000751001001MD1210091+9999MW1031
0070028640999991960010306004+65783+024583FM-12+001599999V0201901N00211220001CN0150001N9-00721-00721101891ADDAY101999GF101991011071001501001001KA1999N-00891MD1210121+9999MW1011
0057028640999991960010309004+65783+024583FM-12+001599999V0209991C00001220001CN0045001N9-00891-01001102081ADDAY101999GF104991011061000751041021MD1210191+9999MW1031
0057028640999991960010312004+65783+024583FM-12+001599999V0201901N00151075001CN0003001N9-00781-00891102251ADDAY101999GF105991031061000251001051MD1210171+9999MW1461
0057028640999991960010315004+65783+024583FM-12+001599999V0201901N00101000151CN0015001N9-01001-01001102351ADDAY141999GF107991071061000251999999MD1210101+9999MW1401
0070028640999991960010318004+65783+024583FM-12+001599999V0201901N00101000151CN0013001N9-01001-01001102451ADDAY141999GF107991071061000251999999KA1999M-00611MD1210101+9999MW1101
0057028640999991960010321004+65783+024583FM-12+001599999V0209991C00001000151CN0002001N9-00611-00721102511ADDAY141999GF109991091999000251999999MD1210061+9999MW1471
0057028640999991960010400004+65783+024583FM-12+001599999V0209991C00001000151CN0012001N9-00281-00391102611ADDAY141999GF108991081061000251999999MD1210101+9999MW1101
0057028640999991960010403004+65783+024583FM-12+001599999V0201901N00151000151CN0025001N9-00281-00281102591ADDAY121999GF108991081061000251999999MD1710021+9999MW1421
0070028640999991960010406004+65783+024583FM-12+001599999V0201801N00151000151CN0003001N9-00281-00281102661ADDAY141999GF109991091999000251999999KA1999N-01001MD1110071+9999MW1471
0057028640999991960010409004+65783+024583FM-12+001599999V0209991C00001000601CN0050001N9-00391-00391102711ADDAY141999GF108991081071000751999999MD1210061+9999MW1281
0057028640999991960010412004+65783+024583FM-12+001599999V0201101N00101000151CN0010001N9-00221-00221102671ADDAY141999GF108991081061000251999999MD1810041+9999MW1101
0057028640999991960010415004+65783+024583FM-12+001599999V0202101N00261002401CN0100001N9-00221-00221102581ADDAY121999GF108991081051002501999999MD1510091+9999MW1021
0081028640999991960010418004+65783+024583FM-12+001599999V0202101N00101000601CN0045001N9-00221-00221102411ADDAA199000691AY121999GF108991081061000751999999KA1999M-00221MD1810171+9999MW1021
0057028640999991960010421004+65783+024583FM-12+001599999V0201701N00101000151CN0003001N9+00001+00001102141ADDAY151999GF109991091999000251999999MD1710261+9999MW1471
0057028640999991960010500004+65783+024583FM-12+001599999V0201501N00721000151CN0012001N9+00001+00001101881ADDAY141999GF108991081061000251999999MD1710261+9999MW1771
0057028640999991960010503004+65783+024583FM-12+001599999V0201501N00671002401CN0020001N9-00111-00391101531ADDAY171999GF108991081071002501999999MD1710351+9999MW1721
0081028640999991960010506004+65783+024583FM-12+001599999V0201501N00771002401CN0020001N9-00221-00221101171ADDAA199002091AY171999GF108991081071002501999999KA1999N-00221MD1710361+9999MW1731
0057028640999991960010512004+65783+024583FM-12+001599999V0202401N00101000151CN0003001N9+00001+00001100801ADDAY141999GF109991091999000251999999MD1710141+9999MW1451
0057028640999991960010515004+65783+024583FM-12+001599999V0209991C00001001501CN0050001N9-00221-00391100701ADDAY141999GF108991081071001501999999MD1710101+9999MW1021
0081028640999991960010518004+65783+024583FM-12+001599999V0209991C00001004501CN0050001N9-00111-00391100601ADDAA199001091AY121999GF108991081051004501999999KA1999M+00001MD1610101+9999MW1021
0057028640999991960010521004+65783+024583FM-12+001599999V0209991C00001004501CN0100001N9-00221-00221100531ADDAY121999GF108991081051004501999999MD1710071+9999MW1021
0057028640999991960010600004+65783+024583FM-12+001599999V0202801N00211004501CN0200001N9-00221-00221100501ADDAY121999GF108991081051004501999999MD1710031+9999MW1021
0057028640999991960010603004+65783+024583FM-12+001599999V0203301N00211001501CN0200001N9-00391-00501100531ADDAY121999GF108991081071001501999999MD1210031+9999MW1021
0070028640999991960010606004+65783+024583FM-12+001599999V0203301N00411001501CN0060001N9-00501-00611100561ADDAY121999GF108991081071001501999999KA1999N-00501MD1210031+9999MW1761
0057028640999991960010609004+65783+024583FM-12+001599999V0203301N00311002401CN0080001N9-00391-00391100661ADDAY171999GF108991061071002501021999MD1210101+9999MW1711
0057028640999991960010612004+65783+024583FM-12+001599999V0200501N00511030001CN0120001N9-00721-00891100851ADDAY171999GF108991031051004501021999MD1210191+9999MW1711
0057028640999991960010615004+65783+024583FM-12+001599999V0200301N00621030001CN0200001N9-01001-01111101101ADDAY171999GF105991021051004501021999MD1210251+9999MW1011
0081028640999991960010618004+65783+024583FM-12+001599999V0200301N00621030001CN0200001N9-01001-01221101281ADDAA199000691AY111999GF107991031051004501071999KA1999M-00281MD1210181+9999MW1031
0057028640999991960010621004+65783+024583FM-12+001599999V0200301N00721030001CN0200001N9-01111-01221101431ADDAY121999GF106991021051004501071999MD1210151+9999MW1011
0057028640999991960010700004+65783+024583FM-12+001599999V0200401N00721030001CN0200001N9-01111-01221101471ADDAY121999GF107991041051004501071999MD1210041+9999MW1031
0057028640999991960010703004+65783+024583FM-12+001599999V0200401N00621220001CN0200001N9-01611-01781101751ADDAY121999GF102991021001022501041001MD1210281+9999MW1011
0070028640999991960010706004+65783+024583FM-12+001599999V0200301N00721220001CN0200001N9-01721-01781101861ADDAY101999GF100991001001999999001001KA1999N-01721MD1210111+9999MW1011
0057028640999991960010709004+65783+024583FM-12+001599999V0200101N00621220001CN0400001N9-01781-02001102071ADDAY101999GF101991011001022501041001MD1210111+9999MW1021
0057028640999991960010712004+65783+024583FM-12+001599999V0200101N00621220001CN0400001N9-01781-02001102241ADDAY101999GF101991011051012501001001MD1210171+9999MW1031
0057028640999991960010715004+65783+024583FM-12+001599999V0203601N00511007801CN0400001N9-01721-01781102321ADDAY111999GF107991071051008001999999MD1210081+9999MW1021
0070028640999991960010718004+65783+024583FM-12+001599999V0203601N00621007801CN0500001N9-01281-01501102401ADDAY121999GF107991051051008001071999KA1999M-01281MD1210081+9999MW1021
0057028640999991960010721004+65783+024583FM-12+001599999V0203601N00511030001CN0500001N9-01111-01281102431ADDAY121999GF107991041051008001071999MD1210051+9999MW1021
0057028640999991960010800004+65783+024583FM-12+001599999V0203601N00621030001CN0500001N9-01221-01281102471ADDAY121999GF107991041051008001071999MD1210021+9999MW1021
0057028640999991960010803004+65783+024583FM-12+001599999V0203601N00621220001CN0500001N9-01391-01611102541ADDAY111999GF102991021001022501071001MD1210071+9999MW1011
0070028640999991960010806004+65783+024583FM-12+001599999V0203601N00571220001CN0500001N9-01501-01721102631ADDAY101999GF101991011001022501041001KA1999N-01501MD1110091+9999MW1021
0057028640999991960010809004+65783+024583FM-12+001599999V0203601N00621220001CN0500001N9-01501-01781102711ADDAY101999GF101991001001999999001021MD1210081+9999MW1011
0057028640999991960010812004+65783+024583FM-12+001599999V0203601N00511002401CN0400001N9-01501-01721102811ADDAY101999GF105991051071002501001001MD1210101+9999MW1031
0057028640999991960010815004+65783+024583FM-12+001599999V0203301N00621002401CN0300001N9-01391-01501102871ADDAY121999GF107991071071002501999999MD1210061+9999MW1781
0070028640999991960010818004+65783+024583FM-12+001599999V0203601N00621001501CN0300001N9-01501-01611102941ADDAY171999GF107991071071001501999999KA1999M-01281MD1210071+9999MW1021
0057028640999991960010821004+65783+024583FM-12+001599999V0203601N00771001501CN0200001N9-01391-01611103021ADDAY121999GF105991051071001501001001MD1210081+9999MW1781
0057028640999991960010900004+65783+024583FM-12+001599999V0203601N00621220001CN0400001N9-01501-01721103101ADDAY171999GF101991011001022501041001MD1210081+9999MW1021
0057028640999991960010903004+65783+024583FM-12+001599999V0203601N00621220001CN0400001N9-01891-02111103141ADDAY101999GF101991011001022501041001MD1210041+9999MW1021
0081028640999991960010906004+65783+024583FM-12+001599999V0203601N00211220001CN0300001N9-02001-02221103121ADDAA199000691AY101999GF100991001001999999001001KA1999N-02001MD1810021+9999MW1011
0057028640999991960010909004+65783+024583FM-12+001599999V0203601N00101220001CN0200001N9-02281-02501103091ADDAY101999GF102991021001022501041001MD1710031+9999MW1031
0057028640999991960010912004+65783+024583FM-12+001599999V0203601N00211075001CN0080001N9-02111-02281102871ADDAY111999GF107991021001022501041071MD1710221+9999MW1041
0057028640999991960010915004+65783+024583FM-12+001599999V0201701N00721021001CN0200001N9-01221-01391102371ADDAY121999GF108991081001022501071999MD1710501+9999MW1031
0081028640999991960010918004+65783+024583FM-12+001599999V0201701N01341000151CN0015001N9-00891-01001101841ADDAA199000391AY171999GF109991091999000251999999KA1999M-00781MD1710531+9999MW1751
0057028640999991960010921004+65783+024583FM-12+001599999V0201701N01441030001CN0020001N9-01221-01391101361ADDAY171999GF108991031071004501021999MD1710481+9999MW1731
0057028640999991960011000004+65783+024583FM-12+001599999V0201701N01441000151CN0010001N9-01281-01391100961ADDAY171999GF109991091999000251999999MD1710401+9999MW1751
0057028640999991960011003004+65783+024583FM-12+001599999V0201001N01441000151CN0012001N9-01221-01501101041ADDAY171999GF109991091999000251999999MD1210081+9999MW1751
0076028640999991960011009004+65783+024583FM-12+001599999V0200501N00721075001CN0400001N9-01721-02001102131ADDAY121999GF105991021001022501041051MD1210662+9999MW1011EQDQ01+000662APC3  
0057028640999991960011012004+65783+024583FM-12+001599999V0200201N00621220001CN0500001N9-01891-02111102391ADDAY111999GF102991011001022501041011MD1210261+9999MW1021
0057028640999991960011015004+65783+024583FM-12+001599999V0200201N00721220001CN0500001N9-02001-02221102481ADDAY101999GF101991001001999999001011MD1210091+9999MW1021
0070028640999991960011018004+65783+024583FM-12+001599999V0203601N00721220001CN0500001N9-02111-02281102541ADDAY101999GF100991001001999999001001KA1999M-01281MD1210061+9999MW1011
0057028640999991960011100004+65783+024583FM-12+001599999V0203601N00821004501CN0050001N9-01891-02111102461ADDAY121999GF108991051051004501071999MD1710091+9999MW1711
0057028640999991960011103004+65783+024583FM-12+001599999V0200201N00721030001CN0050001N9-01611-01721102361ADDAY171999GF108991031051004501071999MD1710151+9999MW1221
0081028640999991960011106004+65783+024583FM-12+001599999V0200201N00931021001CN0150001N9-01391-01721102211ADDAA199000391AY171999GF105991051001022501071999KA1999N-02221MD1710101+9999MW1221
0057028640999991960011109004+65783+024583FM-12+001599999V0200101N00931075001CN0400001N9-01501-01891102191ADDAY111999GF106991021001022501041021MD1810021+9999MW1021
0057028640999991960011112004+65783+024583FM-12+001599999V0200101N00871021001CN0035001N9-01391-01611102121ADDAY111999GF107991071001022501071999MD1610071+9999MW1731
0057028640999991960011115004+65783+024583FM-12+001599999V0200101N00981030001CN0080001N9-01221-01391102121ADDAY171999GF108991021051008001021999MD1410001+9999MW1711
0081028640999991960011118004+65783+024583FM-12+001599999V0200101N00871021001CN0080001N9-01221-01391102201ADDAA199000591AY171999GF107991051001022501011071KA1999M-01221MD1210081+9999MW1711
0057028640999991960011121004+65783+024583FM-12+001599999V0200201N00771021001CN0100001N9-01221-01501102281ADDAY171999GF107991071001022501071999MD1210081+9999MW1711
0057028640999991960011200004+65783+024583FM-12+001599999V0203601N00671021001CN0080001N9-01221-01281102281ADDAY171999GF107991071001022501071999MD1410001+9999MW1711
0057028640999991960011203004+65783+024583FM-12+001599999V0200101N00671021001CN0150001N9-01221-01391102261ADDAY171999GF107991071001022501071999MD1810021+9999MW1711
0081028640999991960011206004+65783+024583FM-12+001599999V0200101N00771021001CN0200001N9-01281-01501102551ADDAA199000391AY171999GF107991071001022501071999KA1999N-01281MD1710011+9999MW1701
0057028640999991960011209004+65783+024583FM-12+001599999V0200101N00821021001CN0030001N9-01281-01501102291ADDAY171999GF108991081001022501021999MD1010041+9999MW1721
0057028640999991960011212004+65783+024583FM-12+001599999V0200101N00721021001CN0100001N9-01281-01501102321ADDAY171999GF108991061001022501021071MD1210031+9999MW1711
0057028640999991960011215004+65783+024583FM-12+001599999V0203601N00511021001CN0400001N9-01501-01721102381ADDAY171999GF107991071001022501071999MD1210061+9999MW1031
0081028640999991960011218004+65783+024583FM-12+001599999V0200101N00511021001CN0200001N9-01611-01721102461ADDAA199000391AY111999GF106991061001022501071001KA1999M-01281MD1210081+9999MW1701
0057028640999991960011221004+65783+024583FM-12+001599999V0200101N00511021001CN0150001N9-01501-01721102581ADDAY171999GF106991061001022501071001MD1210121+9999MW1781
0057028640999991960011300004+65783+024583FM-12+001599999V0200101N00511021001CN0150001N9-01281-01391102661ADDAY171999GF108991081001022501021999MD1210081+9999MW1781
0057028640999991960011303004+65783+024583FM-12+001599999V0200101N00461021001CN0200001N9-01391-01501102711ADDAY171999GF106991061001022501071001MD1210051+9999MW1011
0081028640999991960011306004+65783+024583FM-12+001599999V0200101N00261030001CN0300001N9-01391-01501102801ADDAA199000391AY121999GF107991011051012501071999KA1999N-01721MD1210091+9999MW1031
0057028640999991960011309004+65783+024583FM-12+001599999V0200101N00311075001CN0200001N9-01781-01891102931ADDAY111999GF105991011051012501041071MD1210131+9999MW1041
0057028640999991960011312004+65783+024583FM-12+001599999V0200101N00311220001CN0150001N9-02001-02221103021ADDAY101999GF102991021001022501041001MD1210091+9999MW1041
0057028640999991960011315004+65783+024583FM-12+001599999V0200101N00311220001CN0200001N9-02281+99999103041ADDAY101999GF101991011001022501041001MD1210021+9999MW1011
0070028640999991960011318004+65783+024583FM-12+001599999V0209991C00001021001CN0200001N9-02611+99999103041ADDAY101999GF106991061001022501071001KA1999M-01391MD1410001+9999MW1031
0057028640999991960011321004+65783+024583FM-12+001599999V0209991C00001000601CN0060001N9-02611+99999103051ADDAY111999GF107991071061000751999999MD1210011+9999MW1031
0057028640999991960011400004+65783+024583FM-12+001599999V0200601N00211220001CN0400001N9-02781+99999103021ADDAY121999GF101991001001999999001021MD1710031+9999MW1011
0057028640999991960011403004+65783+024583FM-12+001599999V0209991C00001000151CN0400001N9-02221-02391102971ADDAY101999GF108991081061000251999999MD1710051+9999MW1031
0070028640999991960011406004+65783+024583FM-12+001599999V0209991C00001001501CN0050001N9-01781-02001102801ADDAY121999GF108991081071001501999999KA1999N-02891MD1710171+9999MW1021
0057028640999991960011409004+65783+024583FM-12+001599999V0209991C00001030001CN0100001N9-01721-01781102731ADDAY121999GF107991031051004501071999MD1710071+9999MW1021
0057028640999991960011412004+65783+024583FM-12+001599999V0202201N00151030001CN0100001N9-01501-01611102501ADDAY121999GF107991031051008001071999MD1710231+9999MW1021
0057028640999991960011415004+65783+024583FM-12+001599999V0202301N00211007801CN0060001N9-00891-01001102211ADDAY121999GF107991051051008001071999MD1710291+9999MW1701
0081028640999991960011418004+65783+024583FM-12+001599999V0202301N00211030001CN0080001N9-01221-01221101931ADDAA199001091AY171999GF106991011051004501071999KA1999M-00891MD1710281+9999MW1221
0057028640999991960011421004+65783+024583FM-12+001599999V0201701N00261220001CN0200001N9-01281-01391101631ADDAY171999GF102991021001022501041001MD1710301+9999MW1011
0057028640999991960011500004+65783+024583FM-12+001599999V0201801N00311075001CN0200001N9-00891-01001101271ADDAY101999GF107991021001022501041071MD1710361+9999MW1031
0057028640999991960011503004+65783+024583FM-12+001599999V0203601N00211030001CN0150001N9-01001-01111100951ADDAY121999GF108991021051004501071999MD1710321+9999MW1031
0081028640999991960011506004+65783+024583FM-12+001599999V0203601N00511021001CN0080001N9-01111-01221101031ADDAA199000691AY121999GF108991081001022501021999KA1999N-01501MD1710021+9999MW1711
0057028640999991960011509004+65783+024583FM-12+001599999V0200101N00361030001CN0200001N9-01111-01221100951ADDAY171999GF107991041051004501071999MD1710081+9999MW1011
0057028640999991960011512004+65783+024583FM-12+001599999V0203501N00411030001CN0300001N9-01221-01281100931ADDAY171999GF106991011051004501041051MD1610021+9999MW1011
0057028640999991960011515004+65783+024583FM-12+001599999V0203601N00211220001CN0200001N9-01891-02111100841ADDAY101999GF101991011001022501071001MD1710091+9999MW1011
0081028640999991960011518004+65783+024583FM-12+001599999V0203401N00151220001CN0200001N9-02501+99999100781ADDAA199000691AY101999GF100991001001999999001001KA1999M-01111MD1710061+9999MW1021
0057028640999991960011521004+65783+024583FM-12+001599999V0200501N00101220001CN0400001N9-02891+99999100661ADDAY101999GF100991001001999999001001MD1710121+9999MW1021
0057028640999991960011600004+65783+024583FM-12+001599999V0209991C00001220001CN0200001N9-03001+99999100491ADDAY101999GF101991011001022501041001MD1710171+9999MW1031
0070028640999991960011606004+65783+024583FM-12+001599999V0209991C00001220001CN0100001N9-03221+99999100121ADDAY101999GF101991011001022501041001KA1999N-03281MD1710191+9999MW1021
0057028640999991960011609004+65783+024583FM-12+001599999V0209991C00001220001CN0080001N9-03281+99999099941ADDAY101999GF102991011051012501041001MD1710181+9999MW1041
0057028640999991960011612004+65783+024583FM-12+001599999V0200101N00211220001CN0100001N9-02781+99999099911ADDAY101999GF103991011051008001041001MD1710031+9999MW1041
0057028640999991960011615004+65783+024583FM-12+001599999V0209991C00001220001CN0045001N9-02781+99999099911ADDAY111999GF102991021001022501041001MD1410001+9999MW1011
0070028640999991960011618004+65783+024583FM-12+001599999V0209991C00001220001CN0150001N9-03001+99999099861ADDAY111999GF101991011001022501041001KA1999M-02721MD1710051+9999MW1021
0057028640999991960011621004+65783+024583FM-12+001599999V0209991C00001220001CN0035001N9-03111+99999099811ADDAY101999GF103991001001999999001041MD1710051+9999MW1041
0057028640999991960011700004+65783+024583FM-12+001599999V0209991C00001220001CN0050001N9-02781+99999099681ADDAY101999GF107991001001999999001071MD1710121+9999MW1041
0057028640999991960011703004+65783+024583FM-12+001599999V0209991C00001021001CN0015001N9-01891-02111099481ADDAY121999GF108991081001022501021999MD1710201+9999MW1731
0081028640999991960011706004+65783+024583FM-12+001599999V0209991C00001220001CN0150001N9-02221-02391099441ADDAA199001091AY171999GF102991021001022501041001KA1999N-03221MD1510041+9999MW1021
0057028640999991960011709004+65783+024583FM-12+001599999V0209991C00001220001CN0040001N9-02111-02221099501ADDAY101999GF104991011071000751041011MD1210061+9999MW1041
0057028640999991960011715004+65783+024583FM-12+001599999V0209991C00001030001CN0150001N9-02001-02111099621ADDAY111999GF106991021051004501071001MD1210101+9999MW1021
0070028640999991960011718004+65783+024583FM-12+001599999V0209991C00001021001CN0200001N9-01891-02111099731ADDAY121999GF107991071001022501071999KA1999M-01611MD1210111+9999MW1031
0057028640999991960011721004+65783+024583FM-12+001599999V0209991C00001220001CN0300001N9-02281+99999099791ADDAY101999GF101991001001999999001011MD1210061+9999MW1011
0057028640999991960011800004+65783+024583FM-12+001599999V0200701N00101000601CN0040001N9-02611+99999099901ADDAY101999GF108991081061000751999999MD1210111+9999MW1781
0057028640999991960011803004+65783+024583FM-12+001599999V0200101N00101002401CN0150001N9-01721-01781099901ADDAY171999GF108991081071002501999999MD1410001+9999MW1781
0081028640999991960011806004+65783+024583FM-12+001599999V0200801N00101002401CN0100001N9-01281-01501099881ADDAA199000691AY171999GF108991081071002501999999KA1999N-02891MD1710021+9999MW1711
0057028640999991960011809004+65783+024583FM-12+001599999V0201901N00311000601CN0045001N9-01111-01221100011ADDAY171999GF108991081061000751999999MD1210131+9999MW1781
0057028640999991960011812004+65783+024583FM-12+001599999V0201701N00211220001CN0100001N9-01391-01611100111ADDAY171999GF102991011051004501071011MD1210101+9999MW1221
0057028640999991960011815004+65783+024583FM-12+001599999V0209991C00001001501CN0050001N9-01721-01891100171ADDAY171999GF107991071071001501999999MD1210061+9999MW1041
0057028640999991960011821004+65783+024583FM-12+001599999V0201701N00311002401CN0080001N9-00891-01001100151ADDAY171999GF108991081071002501999999MD1410001+9999MW1701
0057028640999991960011900004+65783+024583FM-12+001599999V0201001N00311030001CN0050001N9-01221-01281100071ADDAY171999GF108991041071002501021999MD1710081+9999MW1701
0057028640999991960011909004+65783+024583FM-12+001599999V0200801N00361007801CN0060001N9-01281-01391099801ADDAY171999GF107991051051008001071999MD1710021+9999MW1711
0057028640999991960011912004+65783+024583FM-12+001599999V0200501N00361030001CN0050001N9-01391-01501099671ADDAY171999GF107991021051008001071071MD1710131+9999MW1221
0057028640999991960011915004+65783+024583FM-12+001599999V0200301N00411030001CN0025001N9-01221-01281099481ADDAY121999GF108991041071008001021999MD1710191+9999MW1721
0081028640999991960011918004+65783+024583FM-12+001599999V0200101N00461030001CN0050001N9-01281-01391099301ADDAA199001091AY171999GF108991031071008001021999KA1999M-01111MD1710181+9999MW1711
0057028640999991960011921004+65783+024583FM-12+001599999V0200101N00571015001CN0040001N9-01281-01391099211ADDAY171999GF108991081001017501021999MD1710091+9999MW1731
0057028640999991960012000004+65783+024583FM-12+001599999V0203501N00361015001CN0060001N9-01391-01501099211ADDAY171999GF108991081001017501021999MD1410001+9999MW1711
0057028640999991960012003004+65783+024583FM-12+001599999V0203301N00511021001CN0080001N9-01501-01611099281ADDAY171999GF108991081001022501021999MD1210071+9999MW1711
0081028640999991960012006004+65783+024583FM-12+001599999V0202901N00461021001CN0300001N9-01721-01891099451ADDAA199001091AY171999GF107991071001022501071999KA1999N-01721MD1210171+9999MW1021
0057028640999991960012009004+65783+024583FM-12+001599999V0202601N00101220001CN0200001N9-02111-02281099731ADDAY111999GF103991001001999999001021MD1210281+9999MW1011
0057028640999991960012012004+65783+024583FM-12+001599999V0202301N00211220001CN0200001N9-02281-02501099961ADDAY101999GF101991011001022501041001MD1210231+9999MW1011
0057028640999991960012015004+65783+024583FM-12+001599999V0201901N00151220001CN0150001N9-02391-02611100181ADDAY101999GF100991001001999999001001MD1210221+9999MW1021
0070028640999991960012018004+65783+024583FM-12+001599999V0201901N00361220001CN0200001N9-02221-02391100331ADDAY101999GF100991001001999999001001KA1999M-01721MD1210151+9999MW1021
0057028640999991960012021004+65783+024583FM-12+001599999V0202301N00361220001CN0200001N9-01611-01721100591ADDAY101999GF100991001001999999001001MD1210261+9999MW1021
0057028640999991960012100004+65783+024583FM-12+001599999V0202301N00211220001CN0300001N9-01611-01721100801ADDAY101999GF100991001001999999001001MD1210211+9999MW1021
0057028640999991960012103004+65783+024583FM-12+001599999V0202101N00261220001CN0300001N9-01281-01391101021ADDAY101999GF100991001001999999001001MD1210221+9999MW1021
0070028640999991960012106004+65783+024583FM-12+001599999V0201401N00311021001CN0300001N9-01391-01501101161ADDAY101999GF106991061001022501071999KA1999N-02281MD1210141+9999MW1031
0057028640999991960012109004+65783+024583FM-12+001599999V0201701N00621030001CN0300001N9-00891-01001101291ADDAY111999GF107991021051004501071999MD1210131+9999MW1031
0057028640999991960012112004+65783+024583FM-12+001599999V0201801N00621030001CN0100001N9-00611-00721101321ADDAY121999GF108991041071001501071999MD1210031+9999MW1031
0057028640999991960012115004+65783+024583FM-12+001599999V0201901N00721001501CN0080001N9-00611-00611101361ADDAY121999GF107991071071001501999999MD1210041+9999MW1701
0081028640999991960012118004+65783+024583FM-12+001599999V0202401N00211220001CN0300001N9-01281-01391101471ADDAA199000391AY171999GF100991001001999999001001KA1999M-00501MD1210111+9999MW1011
0057028640999991960012121004+65783+024583FM-12+001599999V0209991C00001220001CN0012001N9-01501-01721101621ADDAY101999GF100991001001999999001001MD1210151+9999MW1101
0057028640999991960012200004+65783+024583FM-12+001599999V0201201N00211220001CN0050001N9-01721-01781101661ADDAY101999GF100991001001999999001001MD1210041+9999MW1011
0057028640999991960012203004+65783+024583FM-12+001599999V0201201N00211000601CN0100001N9-01501-01721101661ADDAY111999GF106991061061000751999999MD1410001+9999MW1031
0070028640999991960012206004+65783+024583FM-12+001599999V0209991C00001220001CN0300001N9-01781-02001101711ADDAY101999GF100991001001999999001001KA1999N-02001MD1310051+9999MW1011
0057028640999991960012209004+65783+024583FM-12+001599999V0209991C00001000151CN0004001N9-02281-02391101841ADDAY101999GF106991061061000251999999MD1210131+9999MW1461
0057028640999991960012215004+65783+024583FM-12+001599999V0201801N00311000601CN0050001N9-00721-00781101691ADDAY141999GF108991081071000751999999MD1710101+9999MW1781
0081028640999991960012218004+65783+024583FM-12+001599999V0201501N00721000601CN0030001N9-00611-00611101451ADDAA199000591AY171999GF108991081071000751999999KA1999M-00611MD1710241+9999MW1771
0057028640999991960012221004+65783+024583FM-12+001599999V0201701N01031001501CN0012001N9-00501-00501101151ADDAY171999GF108991081071001501999999MD1710301+9999MW1751
0057028640999991960012300004+65783+024583FM-12+001599999V0201701N01231001501CN0012001N9-00501-00501100691ADDAY171999GF108991081071001501999999MD1710461+9999MW1751
0081028640999991960012306004+65783+024583FM-12+001599999V0201701N00411001501CN0050001N9-00221-00281100311ADDAA199001091AY171999GF108991081071001501999999KA1999N-00611MD1710081+9999MW1711
0057028640999991960012309004+65783+024583FM-12+001599999V0202301N00261002401CN0050001N9-00281-00281100391ADDAY121999GF108991081071002501999999MD1210081+9999MW1771
0057028640999991960012312004+65783+024583FM-12+001599999V0209991C00001030001CN0040001N9-00281-00281100441ADDAY121999GF107991041071000751071999MD1210051+9999MW1771
0057028640999991960012315004+65783+024583FM-12+001599999V0203501N00261002401CN0050001N9-00391-00391100501ADDAY171999GF108991061071002501021999MD1110061+9999MW1771
0081028640999991960012318004+65783+024583FM-12+001599999V0202601N00261001501CN0100001N9-00501-00611100591ADDAA199000391AY171999GF108991081061001501999999KA1999M-00221MD1210091+9999MW1021
0057028640999991960012321004+65783+024583FM-12+001599999V0203501N00311001501CN0100001N9-00611-00721100691ADDAY121999GF108991081061001501999999MD1210101+9999MW1021
0057028640999991960012400004+65783+024583FM-12+001599999V0203501N00311001501CN0100001N9-00611-00721100801ADDAY121999GF108991081061001501999999MD1210111+9999MW1021
0057028640999991960012403004+65783+024583FM-12+001599999V0200301N00461004501CN0200001N9-00501-00611100881ADDAY121999GF108991081051004501999999MD1210081+9999MW1021
0070028640999991960012406004+65783+024583FM-12+001599999V0200301N00461007801CN0200001N9-00611-00721101021ADDAY121999GF108991081051008001999999KA1999N-00721MD1210141+9999MW1011
0057028640999991960012409004+65783+024583FM-12+001599999V0200601N00621021001CN0300001N9-00501-00611101171ADDAY121999GF108991081001022501071999MD1210151+9999MW1011
0057028640999991960012412004+65783+024583FM-12+001599999V0200601N00311021001CN0300001N9-00611-00721101291ADDAY121999GF107991071001022501071999MD1210121+9999MW1011
0057028640999991960012415004+65783+024583FM-12+001599999V0200801N00771030001CN0300001N9-00781-00891101371ADDAY121999GF107991031051004501071999MD1210081+9999MW1031
0057028640999991960012421004+65783+024583FM-12+001599999V0200901N00771007801CN0150001N9-00721-00781101331ADDAY121999GF108991081051008001999999MD1810041+9999MW1021
0057028640999991960012500004+65783+024583FM-12+001599999V0201001N00671000151CN0015001N9-00501-00611101231ADDAY121999GF109991091999000251999999MD1710101+9999MW1721
0057028640999991960012503004+65783+024583FM-12+001599999V0201201N00721004501CN0050001N9-00391-00501101101ADDAY171999GF108991081051004501999999MD1710121+9999MW1711
0081028640999991960012506004+65783+024583FM-12+001599999V0201001N00771004501CN0045001N9-00391-00501100981ADDAA199002091AY171999GF108991081051004501999999KA1999N-00891MD1710121+9999MW1711
0057028640999991960012509004+65783+024583FM-12+001599999V0201401N00721000601CN0015001N9-00281-00391100911ADDAY171999GF108991081061000751999999MD1710081+9999MW1501
0057028640999991960012512004+65783+024583FM-12+001599999V0201301N00511000151CN0006001N9-00281-00721100771ADDAY151999GF108991081061000251999999MD1710141+9999MW1561
0057028640999991960012515004+65783+024583FM-12+001599999V0201301N00621000601CN0020001N9-00221-00221100591ADDAY161999GF108991081071000751999999MD1710181+9999MW1661
0081028640999991960012518004+65783+024583FM-12+001599999V0201501N00621000601CN0050001N9+00001-00111100371ADDAA199002091AY161999GF108991081071000751999999KA1999M+00001MD1710221+9999MW1661
0057028640999991960012521004+65783+024583FM-12+001599999V0201701N00311000601CN0020001N9+00001+00001100181ADDAY171999GF108991081071000751999999MD1710191+9999MW1691
0057028640999991960012600004+65783+024583FM-12+001599999V0201801N00311000601CN0018001N9+00001-00111099981ADDAY171999GF108991081071000751999999MD1710201+9999MW1691
0057028640999991960012603004+65783+024583FM-12+001599999V0209991C00001000151CN0010001N9+00001+00001099871ADDAY171999GF109991091999000251999999MD1710111+9999MW1731
0081028640999991960012606004+65783+024583FM-12+001599999V0203501N00821002401CN0020001N9-00391-00501099871ADDAA199005091AY171999GF108991081061002501999999KA1999N-00501MD1510001+9999MW1731
0057028640999991960012609004+65783+024583FM-12+001599999V0203601N00821030001CN0200001N9-00721-00891100151ADDAY171999GF107991031051004501071999MD1210281+9999MW1011
0057028640999991960012612004+65783+024583FM-12+001599999V0200101N00771021001CN0200001N9-00781-01001100471ADDAY171999GF106991061001022501071011MD1210321+9999MW1021
0057028640999991960012615004+65783+024583FM-12+001599999V0200101N00721220001CN0200001N9-00781-01111100841ADDAY121999GF104991041001022501071001MD1210371+9999MW1011
0081028640999991960012618004+65783+024583FM-12+001599999V0200301N00621220001CN0200001N9-01111-01281101131ADDAA199000591AY101999GF101991011001022501041001KA1999M-00391MD1210291+9999MW1011
0057028640999991960012621004+65783+024583FM-12+001599999V0203601N00621220001CN0250001N9-01281-01501101351ADDAY101999GF100991001001999999001001MD1210221+9999MW1011
0057028640999991960012700004+65783+024583FM-12+001599999V0203601N00511220001CN0250001N9-01111-01281101571ADDAY101999GF102991021001022501041001MD1210271+9999MW1031
0057028640999991960012703004+65783+024583FM-12+001599999V0200401N00411021001CN0200001N9-01221-01281101611ADDAY101999GF107991071001022501071999MD1210041+9999MW1031
0070028640999991960012706004+65783+024583FM-12+001599999V0200101N00311030001CN0150001N9-01221-01281101731ADDAY121999GF107991031051004501071999KA1999N-01391MD1210121+9999MW1701
0057028640999991960012709004+65783+024583FM-12+001599999V0200401N00151030001CN0080001N9-01111-01221101901ADDAY171999GF107991031051004501071999MD1210171+9999MW1711
0057028640999991960012712004+65783+024583FM-12+001599999V0200601N00411021001CN0050001N9-01111-01221102041ADDAY171999GF107991071001022501071999MD1210141+9999MW1711
0057028640999991960012715004+65783+024583FM-12+001599999V0200601N00361030001CN0200001N9-01391-01501102191ADDAY121999GF107991021051008001071999MD1210151+9999MW1031
0081028640999991960012718004+65783+024583FM-12+001599999V0200301N00311220001CN0300001N9-01721-01891102301ADDAA199000391AY171999GF102991021001022501071001KA1999M-01111MD1210111+9999MW1011
0057028640999991960012721004+65783+024583FM-12+001599999V0200301N00361220001CN0300001N9-02111-02391102401ADDAY101999GF100991001001999999001001MD1210101+9999MW1011
0057028640999991960012800004+65783+024583FM-12+001599999V0200101N00361220001CN0400001N9-02391+99999102451ADDAY101999GF101991011001022501041001MD1210051+9999MW1031
0057028640999991960012803004+65783+024583FM-12+001599999V0200101N00211220001CN0300001N9-02781+99999102451ADDAY101999GF101991011001022501041001MD1410001+9999MW1021
0070028640999991960012806004+65783+024583FM-12+001599999V0200101N00361220001CN0300001N9-02721+99999102431ADDAY101999GF102991011001022501041011KA1999N-02891MD1710021+9999MW1031
0057028640999991960012809004+65783+024583FM-12+001599999V0200101N00211075001CN0300001N9-02611+99999102461ADDAY121999GF106991011001022501041051MD1210031+9999MW1031
0057028640999991960012812004+65783+024583FM-12+001599999V0200101N00311220001CN0250001N9-02501+99999102461ADDAY121999GF106991021001022501041061MD1410001+9999MW1031
0057028640999991960012815004+65783+024583FM-12+001599999V0200101N00211030001CN0100001N9-02721+99999102441ADDAY121999GF107991011051008001051021MD1810021+9999MW1031
0070028640999991960012818004+65783+024583FM-12+001599999V0209991C00001220001CN0100001N9-02781+99999102401ADDAY121999GF102991021001022501041001KA1999M-02501MD1710041+9999MW1021
0057028640999991960012821004+65783+024583FM-12+001599999V0209991C00001220001CN0130001N9-02721+99999102421ADDAY101999GF103991001001999999001021MD1210021+9999MW1011
0057028640999991960012900004+65783+024583FM-12+001599999V0209991C00001220001CN0150001N9-03111+99999102421ADDAY101999GF100991001001999999001001MD1410001+9999MW1021
0057028640999991960012903004+65783+024583FM-12+001599999V0200101N00211220001CN0200001N9-03281+99999102391ADDAY101999GF100991001001999999001001MD1810031+9999MW1021
0070028640999991960012906004+65783+024583FM-12+001599999V0200101N00101220001CN0100001N9-03281+99999102421ADDAY101999GF101991011001022501041001KA1999N-03391MD1210031+9999MW1031
0057028640999991960012909004+65783+024583FM-12+001599999V0203601N00211220001CN0080001N9-03221+99999102481ADDAY101999GF101991011001022501041001MD1210061+9999MW1041
0057028640999991960012912004+65783+024583FM-12+001599999V0203601N00211220001CN0040001N9-02891+99999102491ADDAY101999GF102991011071001501041001MD1210011+9999MW1041
0057028640999991960012915004+65783+024583FM-12+001599999V0209991C00001220001CN0150001N9-03001+99999102411ADDAY101999GF102991011001022501041021MD1710081+9999MW1011
0070028640999991960012918004+65783+024583FM-12+001599999V0203501N00101220001CN0200001N9-02891+99999102341ADDAY101999GF100991001001999999001001KA1999M-02781MD1710071+9999MW1011
0057028640999991960012921004+65783+024583FM-12+001599999V0203501N00211220001CN0200001N9-02891+99999102291ADDAY101999GF100991001001999999001001MD1710051+9999MW1021
0057028640999991960013000004+65783+024583FM-12+001599999V0200101N00211021001CN0200001N9-02501+99999102251ADDAY111999GF107991071001022501071999MD1710041+9999MW1031
0092028640999991960013003004+65783+024583FM-12+001599999V0200101N00211021001CN0250001N9-01781-02001102241ADDAY121999GF107991071001022501071999MD1710011+9999MW1021EQDQ01+000042APCTENQ02+000012APC3  
0070028640999991960013006004+65783+024583FM-12+001599999V0200101N00311220001CN0300001N9-02111-02281102321ADDAY101999GF101991011001022501071001KA1999N-03111MD1210081+9999MW1011
0057028640999991960013009004+65783+024583FM-12+001599999V0200101N00361220001CN0300001N9-02221-02391102501ADDAY101999GF101991001001999999001011MD1210181+9999MW1021
0057028640999991960013015004+65783+024583FM-12+001599999V0209991C00001220001CN0100001N9-02391+99999102721ADDAY101999GF101991001001999999001011MD1210031+9999MW1041
0070028640999991960013018004+65783+024583FM-12+001599999V0203601N00311220001CN0050001N9-02781+99999102751ADDAY101999GF102991021071002501001001KA1999M-01891MD1210031+9999MW1041
0057028640999991960013021004+65783+024583FM-12+001599999V0203601N00101220001CN0060001N9-02891+99999102811ADDAY101999GF100991001001999999001001MD1210061+9999MW1011
0057028640999991960013100004+65783+024583FM-12+001599999V0203501N00101220001CN0100001N9-02891+99999102831ADDAY101999GF100991001001999999001001MD1210031+9999MW1021
0057028640999991960013103004+65783+024583FM-12+001599999V0200601N00101220001CN0080001N9-02721+99999102831ADDAY101999GF102991021071000751001001MD1410001+9999MW1031
0070028640999991960013106004+65783+024583FM-12+001599999V0200601N00101000151CN0080001N9-02501+99999102761ADDAY111999GF108991081071000251999999KA1999N-03001MD1710071+9999MW1031
0057028640999991960013109004+65783+024583FM-12+001599999V0200801N00101000151CN0080001N9-02281+99999102701ADDAY121999GF107991071061000251999999MD1510061+9999MW1021
0057028640999991960013112004+65783+024583FM-12+001599999V0200501N00101000151CN0030001N9-02281-02501102681ADDAY121999GF106991061061000251001001MD1510021+9999MW1021
0057028640999991960013115004+65783+024583FM-12+001599999V0209991C00001000151CN0080001N9-02501+99999102691ADDAY121999GF106991061061000251001001MD1210011+9999MW1011
0070028640999991960013118004+65783+024583FM-12+001599999V0209991C00001220001CN0150001N9-02721+99999102731ADDAY111999GF100991001001999999001001KA1999M-02111MD1310041+9999MW1021
0057028640999991960013121004+65783+024583FM-12+001599999V0209991C00001220001CN0100001N9-02781+99999102911ADDAY101999GF101991011001022501041001MD1210181+9999MW1031
0057028640999991960020100004+65783+024583FM-12+001599999V0203601N00151007801CN0150001N9-02281+99999102981ADDAY111999GF107991071051008001999999MD1210071+9999MW1031
0057028640999991960020103004+65783+024583FM-12+001599999V0209991C00001007801CN0200001N9-02111-02281103021ADDAY121999GF107991071051008001999999MD1210041+9999MW1021
0070028640999991960020106004+65783+024583FM-12+001599999V0200201N00101220001CN0200001N9-02001-02221103051ADDAY121999GF102991021001022501071001KA1999N-02781MD1210021+9999MW1011
0057028640999991960020109004+65783+024583FM-12+001599999V0209991C00001220001CN0200001N9-02221-02391103081ADDAY101999GF102991021001022501071001MD1210041+9999MW1021
0057028640999991960020112004+65783+024583FM-12+001599999V0209991C00001220001CN0200001N9-01891-02111103081ADDAY101999GF102991021001022501071001MD1410001+9999MW1021
0057028640999991960020115004+65783+024583FM-12+001599999V0203501N00101007801CN0040001N9-01391-01501103101ADDAY111999GF107991051051008001071999MD1310031+9999MW1701
0081028640999991960020118004+65783+024583FM-12+001599999V0203601N00101030001CN0200001N9-01001-01111103221ADDAA199000391AY171999GF107991031051008001071999KA1999M-01001MD1210121+9999MW1011
0057028640999991960020121004+65783+024583FM-12+001599999V0209991C00001220001CN0300001N9-01781-02001103341ADDAY101999GF104991041001022501041001MD1210111+9999MW1031
0057028640999991960020200004+65783+024583FM-12+001599999V0203501N00101220001CN0400001N9-01501-01721103421ADDAY111999GF100991001001999999001001MD1210091+9999MW1021
0057028640999991960020203004+65783+024583FM-12+001599999V0209991C00001220001CN0350001N9-02391+99999103461ADDAY101999GF100991001001999999001001MD1210031+9999MW1021
0070028640999991960020206004+65783+024583FM-12+001599999V0203501N00101220001CN0400001N9-02501+99999103491ADDAY101999GF101991011001022501041001KA1999N-02501MD1210031+9999MW1031
0057028640999991960020209004+65783+024583FM-12+001599999V0203501N00101030001CN0300001N9-02501+99999103521ADDAY111999GF107991021051004501041071MD1210031+9999MW1031
0057028640999991960020212004+65783+024583FM-12+001599999V0201501N00101030001CN0100001N9-01891-02111103541ADDAY141999GF107991011071000751041071MD1210021+9999MW1011
0057028640999991960020215004+65783+024583FM-12+001599999V0202001N00101000601CN0100001N9-01781-02001103481ADDAY121999GF107991051061000751071999MD1710061+9999MW1031
0070028640999991960020218004+65783+024583FM-12+001599999V0201601N00211000601CN0030001N9-01891-02111103401ADDAY121999GF108991081061000751999999KA1999M-01781MD1710081+9999MW1051
0057028640999991960020221004+65783+024583FM-12+001599999V0201601N00411000601CN0030001N9-01781-02001103351ADDAY121999GF108991081061000751999999MD1710051+9999MW1051
0057028640999991960020300004+65783+024583FM-12+001599999V0201401N00311000601CN0050001N9-01501-01721103181ADDAY121999GF108991081071000751999999MD1710171+9999MW1701
0057028640999991960020303004+65783+024583FM-12+001599999V0201701N00311220001CN0300001N9-01501-01721103061ADDAY121999GF101991001001999999001011MD1710121+9999MW1011
0081028640999991960020306004+65783+024583FM-12+001599999V0201701N00511021001CN0300001N9-01891-02111102921ADDAA199000391AY171999GF105991051001022501071001KA1999N-02001MD1710141+9999MW1031
0057028640999991960020309004+65783+024583FM-12+001599999V0201701N00461220001CN0400001N9-01721-01891102771ADDAY121999GF102991021051008001041001MD1710151+9999MW1011
0057028640999991960020312004+65783+024583FM-12+001599999V0201701N00511002401CN0300001N9-01501-01721102511ADDAY121999GF106991061071002501999999MD1710261+9999MW1011
0057028640999991960020315004+65783+024583FM-12+001599999V0201801N00721001501CN0050001N9-00891-01001102291ADDAY121999GF108991081071001501999999MD1710221+9999MW1771
0081028640999991960020318004+65783+024583FM-12+001599999V0201901N00821001501CN0050001N9-00611-00721102091ADDAA199000691AY171999GF108991081071001501999999KA1999M-00611MD1710201+9999MW1771
0057028640999991960020321004+65783+024583FM-12+001599999V0201901N00931002401CN0050001N9-00501-00611101931ADDAY171999GF108991081071002501999999MD1710161+9999MW1771
0057028640999991960020400004+65783+024583FM-12+001599999V0201801N00931002401CN0050001N9-00391-00501101731ADDAY171999GF108991081071002501999999MD1710201+9999MW1771
0057028640999991960020403004+65783+024583FM-12+001599999V0202101N01031002401CN0050001N9-00281-00391101571ADDAY171999GF108991081071002501999999MD1710161+9999MW1021
0081028640999991960020406004+65783+024583FM-12+001599999V0201901N00931002401CN0050001N9-00391-00501101411ADDAA199000691AY121999GF108991081071002501999999KA1999N-00611MD1710161+9999MW1701
0057028640999991960020409004+65783+024583FM-12+001599999V0201901N00931002401CN0020001N9-00281-00281101281ADDAY171999GF108991081071002501999999MD1710131+9999MW1771
0057028640999991960020412004+65783+024583FM-12+001599999V0202101N01131000151CN0006001N9-00221-00221101121ADDAY171999GF109991091999000251999999MD1710161+9999MW1731
0057028640999991960020415004+65783+024583FM-12+001599999V0202101N00981002401CN0020001N9-00221-00281101051ADDAY171999GF108991071071002501021999MD1610071+9999MW1731
0081028640999991960020418004+65783+024583FM-12+001599999V0202201N00931004501CN0100001N9-00221-00281101041ADDAA199000591AY171999GF108991081071004501999999KA1999M-00221MD1610011+9999MW1771
0057028640999991960020500004+65783+024583FM-12+001599999V0202301N00721004501CN0200001N9-00221-00281101051ADDAY121999GF108991081051004501999999MD1210031+9999MW1021
0057028640999991960020503004+65783+024583FM-12+001599999V0202301N00821004501CN0200001N9-00221-00391101061ADDAY121999GF108991081051004501999999MD1210011+9999MW1021
0070028640999991960020506004+65783+024583FM-12+001599999V0202201N00821004501CN0200001N9-00221-00391101121ADDAY121999GF108991081051004501999999KA1999N-00281MD1210061+9999MW1021
0057028640999991960020509004+65783+024583FM-12+001599999V0202101N00771004501CN0200001N9-00281-00391101231ADDAY121999GF108991081051004501999999MD1210111+9999MW1021
0057028640999991960020515004+65783+024583FM-12+001599999V0202101N00621220001CN0400001N9-00391-00611101441ADDAY121999GF101991011001022501041011MD1210101+9999MW1021
0057028640999991960020521004+65783+024583FM-12+001599999V0202101N00511220001CN0300001N9-00611-00721101571ADDAY101999GF101991011001022501041001MD1210031+9999MW1031
0057028640999991960020600004+65783+024583FM-12+001599999V0202201N00511220001CN0300001N9-00611-00721101641ADDAY101999GF101991011001022501041001MD1210071+9999MW1021
0070028640999991960020606004+65783+024583FM-12+001599999V0202201N00411030001CN0200001N9-00721-00781101791ADDAY101999GF105991011051004501041001KA1999N-00891MD1210061+9999MW1031
0057028640999991960020612004+65783+024583FM-12+001599999V0201801N00211030001CN0200001N9-00611-00721102001ADDAY121999GF105991011051004501041051MD1210101+9999MW1041
0057028640999991960020615004+65783+024583FM-12+001599999V0202301N00511030001CN0200001N9-00611-00721102051ADDAY121999GF106991031051004501071999MD1210051+9999MW1031
0070028640999991960020618004+65783+024583FM-12+001599999V0202601N00101220001CN0400001N9-00781-00891102141ADDAY121999GF100991001001999999001001KA1999M-00501MD1210091+9999MW1011
0057028640999991960020621004+65783+024583FM-12+001599999V0202401N00211220001CN0400001N9-01001-01111102191ADDAY101999GF100991001001999999001001MD1210051+9999MW1021
0057028640999991960020700004+65783+024583FM-12+001599999V0202401N00211075001CN0400001N9-01001-01111102171ADDAY111999GF107991031001022501041071MD1710021+9999MW1031
0057028640999991960020703004+65783+024583FM-12+001599999V0202401N00211021001CN0400001N9-00501-00611101901ADDAY121999GF108991081001022501021999MD1710181+9999MW1031
0070028640999991960020706004+65783+024583FM-12+001599999V0202801N00411021001CN0400001N9-00221-00281101721ADDAY121999GF106991061001022501071999KA1999N-01281MD1710271+9999MW1011
0057028640999991960020712004+65783+024583FM-12+001599999V0203501N00621007801CN0100001N9+00001-00111102441ADDAY111999GF105991051081008001001001MD1210491+9999MW1851
0057028640999991960020715004+65783+024583FM-12+001599999V0203601N00411030001CN0300001N9-00391-00611102901ADDAY181999GF106991021071004501041071MD1210461+9999MW1031
0081028640999991960020718004+65783+024583FM-12+001599999V0200101N00101030001CN0300001N9-00721-00781103111ADDAA199000591AY121999GF106991011051004501041071KA1999M+00111MD1210211+9999MW1011
0057028640999991960020721004+65783+024583FM-12+001599999V0203501N00101220001CN0300001N9-00891-01001103171ADDAY121999GF107991001001999999001071MD1210061+9999MW1031
0057028640999991960020800004+65783+024583FM-12+001599999V0209991C00001220001CN0300001N9-00891-01001103171ADDAY121999GF106991001001999999001071MD1410001+9999MW1011
0057028640999991960020803004+65783+024583FM-12+001599999V0201801N00101030001CN0250001N9-00891-01001103051ADDAY121999GF108991031061008001021999MD1710121+9999MW1031
0070028640999991960020806004+65783+024583FM-12+001599999V0201301N00511021001CN0250001N9-00891-01111102811ADDAY121999GF107991071001022501071999KA1999N-01111MD1710241+9999MW1011
0057028640999991960020809004+65783+024583FM-12+001599999V0201401N00571015001CN0050001N9-00891-01111102651ADDAY171999GF108991081001017501021999MD1710161+9999MW1711
0057028640999991960020812004+65783+024583FM-12+001599999V0201401N00621015001CN0040001N9-00781-00891102291ADDAY171999GF108991081001017501021999MD1710361+9999MW1731
0057028640999991960020815004+65783+024583FM-12+001599999V0201501N00821015001CN0018001N9-00611-00781101851ADDAY171999GF108991081001017501021999MD1710441+9999MW1731
0081028640999991960020818004+65783+024583FM-12+001599999V0201601N00821015001CN0020001N9-00501-00611101311ADDAA199002091AY171999GF108991081001017501021999KA1999M-00501MD1710541+9999MW1731
0057028640999991960020821004+65783+024583FM-12+001599999V0201701N00571000151CN0020001N9-00221-00221100751ADDAY121999GF108991081061000251999999MD1710561+9999MW1761
0057028640999991960020900004+65783+024583FM-12+001599999V0202401N00721030001CN0200001N9+00281+00221100151ADDAY171999GF108991031051004501021999MD1710601+9999MW1011
0057028640999991960020903004+65783+024583FM-12+001599999V0202301N01031220001CN0300001N9+00281+00111099691ADDAY121999GF103991001001999999001061MD1710461+9999MW1011
0081028640999991960020906004+65783+024583FM-12+001599999V0202201N01181220001CN0400001N9+00221+00001099081ADDAA199000591AY111999GF106991031001022501071061KA1999N-00501MD1710611+9999MW1031
0057028640999991960020909004+65783+024583FM-12+001599999V0202901N00821030001CN0500001N9+00391-00111098681ADDAY111999GF105991041021008001041001MD1710041+9999MW1011
0057028640999991960020912004+65783+024583FM-12+001599999V0202901N00821220001CN0500001N9+00221-00281098581ADDAY111999GF102991011021008001041001MD1710101+9999MW1011
0057028640999991960020915004+65783+024583FM-12+001599999V0203001N00571220001CN0500001N9-00111-00611098291ADDAY101999GF103991021021008001041011MD1710291+9999MW1031
0070028640999991960020918004+65783+024583FM-12+001599999V0203001N00671220001CN0500001N9-00281-00781098081ADDAY101999GF102991021051008001041001KA1999M+00391MD1710211+9999MW1031
0057028640999991960020921004+65783+024583FM-12+001599999V0202701N00511220001CN0500001N9-00721-01111097861ADDAY101999GF101991011001022501041001MD1710221+9999MW1011
0057028640999991960021000004+65783+024583FM-12+001599999V0202601N00261220001CN0500001N9-00721-00891097541ADDAY101999GF102991011051008001001021MD1710321+9999MW1031
0057028640999991960021003004+65783+024583FM-12+001599999V0209991C00001220001CN0500001N9-01111-01221097481ADDAY101999GF102991011001022501041021MD1610061+9999MW1021
0070028640999991960021006004+65783+024583FM-12+001599999V0203501N00151030001CN0400001N9-01221-01281097551ADDAY101999GF106991011051008001041021KA1999N-01501MD1210071+9999MW1031
0057028640999991960021009004+65783+024583FM-12+001599999V0203501N00621030001CN0035001N9-00781-00891097661ADDAY171999GF108991041061004501071999MD1110111+9999MW1711
0057028640999991960021012004+65783+024583FM-12+001599999V0200101N01031030001CN0150001N9-00611-01391098061ADDAY171999GF107991041081004501041051MD1210401+9999MW1361
0057028640999991960021015004+65783+024583FM-12+001599999V0200101N00981030001CN0500001N9-00781-01111098541ADDAY121999GF107991021051004501041071MD1210481+9999MW1011
0081028640999991960021018004+65783+024583FM-12+001599999V0203501N00721220001CN0500001N9-00891-01281098901ADDAA199000391AY121999GF106991001001999999001061KA1999M-00611MD1210361+9999MW1011
0057028640999991960021021004+65783+024583FM-12+001599999V0203501N00821220001CN0500001N9-01111-01391099351ADDAY101999GF100991001001999999001001MD1210451+9999MW1011
0057028640999991960021100004+65783+024583FM-12+001599999V0203501N00511220001CN0500001N9-01221-01281099751ADDAY101999GF100991001001999999001001MD1210401+9999MW1021
0057028640999991960021103004+65783+024583FM-12+001599999V0200201N00211220001CN0500001N9-01781-02001099961ADDAY101999GF102991001001999999001021MD1210211+9999MW1031
0070028640999991960021106004+65783+024583FM-12+001599999V0200201N00211220001CN0500001N9-01891-02111100131ADDAY101999GF103991021001022501041021KA1999N-02221MD1210171+9999MW1031
0057028640999991960021109004+65783+024583FM-12+001599999V0200101N00211220001CN0500001N9-01781-02111100461ADDAY101999GF102991011001022501041011MD1210331+9999MW1021
0057028640999991960021112004+65783+024583FM-12+001599999V0203601N00361220001CN0500001N9-01221-01611100631ADDAY101999GF102991001001999999001021MD1210171+9999MW1021
0057028640999991960021115004+65783+024583FM-12+001599999V0203301N00361075001CN0500001N9-01281-01721100801ADDAY121999GF107991021001022501041071MD1210171+9999MW1031
0070028640999991960021118004+65783+024583FM-12+001599999V0203301N00211220001CN0500001N9-01781-02001100961ADDAY111999GF103991001001999999001051KA1999M-01221MD1210161+9999MW1011
0057028640999991960021200004+65783+024583FM-12+001599999V0209991C00001220001CN0500001N9-02781+99999101101ADDAY101999GF101991001001999999001021MD1210031+9999MW1021
0057028640999991960021203004+65783+024583FM-12+001599999V0209991C00001220001CN0500001N9-02781+99999101101ADDAY101999GF101991001001999999001021MD1410001+9999MW1021
0070028640999991960021206004+65783+024583FM-12+001599999V0202701N00101030001CN0300001N9-02111-02281101011ADDAY121999GF107991031051008001071999KA1999N-02891MD1710091+9999MW1031
0057028640999991960021209004+65783+024583FM-12+001599999V0201901N00151030001CN0200001N9-01781-01891101021ADDAY121999GF107991031051008001071999MD1010011+9999MW1221
0057028640999991960021212004+65783+024583FM-12+001599999V0201901N00511075001CN0300001N9-01501-01891100921ADDAY171999GF106991021051012501001071MD1710101+9999MW1011
0057028640999991960021215004+65783+024583FM-12+001599999V0201901N00311075001CN0300001N9-01721-01891100731ADDAY121999GF107991011001022501041071MD1710191+9999MW1021
0070028640999991960021218004+65783+024583FM-12+001599999V0202001N00361220001CN0400001N9-01611-01781100491ADDAY121999GF107991001001999999001071KA1999M-01391MD1710241+9999MW1021
0057028640999991960021221004+65783+024583FM-12+001599999V0202101N00311220001CN0500001N9-01611-01721100341ADDAY121999GF107991001001999999001071MD1710151+9999MW1021
0057028640999991960021300004+65783+024583FM-12+001599999V0202301N00571220001CN0500001N9-01281-01501100151ADDAY111999GF103991011001022501041061MD1710191+9999MW1031
0070028640999991960021306004+65783+024583FM-12+001599999V0202201N00621030001CN0400001N9-01111-01281099901ADDAY121999GF107991021051008001071999KA1999N-01611MD1510061+9999MW1031
0057028640999991960021309004+65783+024583FM-12+001599999V0202201N00511075001CN0500001N9-01111-01281099871ADDAY111999GF105991011051008001051021MD1710031+9999MW1011
0057028640999991960021312004+65783+024583FM-12+001599999V0201901N00411220001CN0500001N9-01001-01281099851ADDAY111999GF101991011001022501051001MD1710021+9999MW1011
0057028640999991960021315004+65783+024583FM-12+001599999V0201701N00361220001CN0300001N9-01221-01391099771ADDAY101999GF102991011001022501041021MD1710081+9999MW1031
0070028640999991960021318004+65783+024583FM-12+001599999V0201801N00511220001CN0500001N9-01281-01391099691ADDAY101999GF102991011001022501051021KA1999M-01001MD1710081+9999MW1031
0057028640999991960021321004+65783+024583FM-12+001599999V0201701N00511220001CN0500001N9-01281-01391099651ADDAY101999GF100991001001999999001001MD1710041+9999MW1011
0057028640999991960021400004+65783+024583FM-12+001599999V0201701N00671021001CN0500001N9-01221-01281099611ADDAY101999GF106991061001022501051001MD1710041+9999MW1031
0057028640999991960021403004+65783+024583FM-12+001599999V0201801N00571002401CN0400001N9-01221-01281099571ADDAY121999GF108991081051002501999999MD1710041+9999MW1021
0070028640999991960021406004+65783+024583FM-12+001599999V0201701N00411220001CN0500001N9-01721-01781099551ADDAY121999GF104991031051002501041001KA1999N-01721MD1710021+9999MW1011
0057028640999991960021409004+65783+024583FM-12+001599999V0201701N00511030001CN0500001N9-01721-01891099591ADDAY121999GF106991021051002501041051MD1210041+9999MW1031
0057028640999991960021412004+65783+024583FM-12+001599999V0201701N00411220001CN0500001N9-01391-01781099581ADDAY111999GF102991011051004501041001MD1710011+9999MW1011
0057028640999991960021415004+65783+024583FM-12+001599999V0201501N00211220001CN0500001N9-01391-01781099511ADDAY101999GF104991031051008001041001MD1710071+9999MW1031
0070028640999991960021418004+65783+024583FM-12+001599999V0201401N00461004501CN0300001N9-01221-01781099471ADDAY111999GF107991071051004501999999KA1999M-01221MD1710041+9999MW1001
0057028640999991960021421004+65783+024583FM-12+001599999V0201001N00411021001CN0500001N9-01611-02111099491ADDAY121999GF107991071001022501051999MD1210021+9999MW1011
0057028640999991960021500004+65783+024583FM-12+001599999V0200701N00211220001CN0500001N9-02111-02281099501ADDAY121999GF102991021001022501051001MD1210011+9999MW1011
0057028640999991960021503004+65783+024583FM-12+001599999V0200501N00311220001CN0500001N9-02221-02391099451ADDAY101999GF102991021001022501051001MD1710051+9999MW1021
0070028640999991960021506004+65783+024583FM-12+001599999V0200801N00411220001CN0500001N9-01781-02001099461ADDAY101999GF103991021001022501071011KA1999N-02391MD1210011+9999MW1031
0057028640999991960021509004+65783+024583FM-12+001599999V0200901N00411002401CN0150001N9-01781-02001099551ADDAY101999GF107991071051002501999999MD1210091+9999MW1701
0057028640999991960021512004+65783+024583FM-12+001599999V0200801N00361004501CN0300001N9-01501-01721099521ADDAY171999GF106991061051004501999999MD1810031+9999MW1781
0057028640999991960021515004+65783+024583FM-12+001599999V0200801N00361030001CN0150001N9-01611-01721099551ADDAY171999GF107991031051004501021999MD1210031+9999MW1781
0081028640999991960021518004+65783+024583FM-12+001599999V0201201N00311030001CN0100001N9-01611-01721099571ADDAA199000691AY171999GF106991021051002501071999KA1999M-01501MD1210021+9999MW1781
0057028640999991960021521004+65783+024583FM-12+001599999V0201201N00311030001CN0050001N9-01391-01501099581ADDAY171999GF107991021071002501021999MD1210011+9999MW1711
0057028640999991960021600004+65783+024583FM-12+001599999V0201301N00511030001CN0050001N9-01391-01501099631ADDAY171999GF107991041051002501071999MD1210051+9999MW1711
0057028640999991960021603004+65783+024583FM-12+001599999V0201201N00511030001CN0100001N9-01391-01781099641ADDAY171999GF107991021051004501071999MD1210011+9999MW1221
0081028640999991960021606004+65783+024583FM-12+001599999V0201201N00311030001CN0150001N9-01721-01891099721ADDAA199000591AY171999GF107991011051004501071999KA1999N-01781MD1210081+9999MW1011
0057028640999991960021609004+65783+024583FM-12+001599999V0201001N00151075001CN0400001N9-01611-01781099791ADDAY121999GF105991021001022501051021MD1210071+9999MW1011
0057028640999991960021612004+65783+024583FM-12+001599999V0200601N00261220001CN0500001N9-01281-01501099801ADDAY111999GF104991011001022501041021MD1110011+9999MW1031
0057028640999991960021615004+65783+024583FM-12+001599999V0200401N00361220001CN0500001N9-01611-01721099761ADDAY111999GF102991011001022501041011MD1710041+9999MW1011
0070028640999991960021618004+65783+024583FM-12+001599999V0200401N00411220001CN0500001N9-01891-02111099731ADDAY111999GF100991001001999999001001KA1999M-01111MD1710031+9999MW1011
0057028640999991960021621004+65783+024583FM-12+001599999V0200301N00511030001CN0400001N9-01611-01891099671ADDAY101999GF107991021051008001071999MD1710061+9999MW1031
0057028640999991960021700004+65783+024583FM-12+001599999V0200401N00411030001CN0150001N9-01281-01391099611ADDAY171999GF108991021051008001021999MD1710061+9999MW1711
0057028640999991960021703004+65783+024583FM-12+001599999V0200401N00361015001CN0060001N9-01281-01391099591ADDAY171999GF108991081001017501021999MD1710021+9999MW1711
0081028640999991960021706004+65783+024583FM-12+001599999V0200701N00411015001CN0020001N9-01111-01221099621ADDAA199001091AY171999GF108991081001017501021999KA1999N-02221MD1310071+9999MW1731
0057028640999991960021709004+65783+024583FM-12+001599999V0200701N00511021001CN0050001N9-01111-01281099711ADDAY171999GF108991081001022501021999MD1210091+9999MW1711
0057028640999991960021712004+65783+024583FM-12+001599999V0200801N00621021001CN0300001N9-01221-01501099751ADDAY171999GF107991051001022501021051MD1210041+9999MW1011
0057028640999991960021715004+65783+024583FM-12+001599999V0200501N00461030001CN0400001N9-01281-01501099811ADDAY121999GF106991021051008001071999MD1210061+9999MW1011
0081028640999991960021718004+65783+024583FM-12+001599999V0200501N00571007801CN0200001N9-01501-01781099851ADDAA199000591AY121999GF108991081051008001999999KA1999M-01111MD1210041+9999MW1711
0057028640999991960021721004+65783+024583FM-12+001599999V0200401N00571030001CN0200001N9-01611-01891099911ADDAY171999GF108991031051008001021999MD1210061+9999MW1781
0057028640999991960021800004+65783+024583FM-12+001599999V0200501N00571030001CN0150001N9-01611-01781099921ADDAY171999GF106991021051004501021999MD1110011+9999MW1771
0057028640999991960021803004+65783+024583FM-12+001599999V0200501N00571021001CN0100001N9-01611-01891099931ADDAY171999GF107991071001022501021999MD1310011+9999MW1711
0081028640999991960021806004+65783+024583FM-12+001599999V0200401N00461030001CN0020001N9-01611-01721099961ADDAA199001091AY171999GF108991021051004501021999KA1999N-01721MD1210031+9999MW1731
0057028640999991960021809004+65783+024583FM-12+001599999V0200601N00511030001CN0030001N9-01501-01721100061ADDAY171999GF108991021051004501021999MD1210101+9999MW1731
0057028640999991960021812004+65783+024583FM-12+001599999V0200601N00311030001CN0100001N9-01501-01721100141ADDAY171999GF107991011051004501021071MD1210081+9999MW1011
0057028640999991960021815004+65783+024583FM-12+001599999V0200501N00311021001CN0150001N9-01781-02001100241ADDAY121999GF108991081001022501021999MD1210101+9999MW1701
0081028640999991960021818004+65783+024583FM-12+001599999V0200601N00511021001CN0300001N9-01721-01891100371ADDAA199000591AY171999GF107991071001022501071999KA1999M-01501MD1210131+9999MW1221
0057028640999991960021821004+65783+024583FM-12+001599999V0200701N00511220001CN0400001N9-01891-02111100581ADDAY121999GF106991001001999999001061MD1210211+9999MW1011
0057028640999991960021900004+65783+024583FM-12+001599999V0200701N00511220001CN0400001N9-02001-02391100731ADDAY121999GF100991001001999999001001MD1210151+9999MW1011
0057028640999991960021903004+65783+024583FM-12+001599999V0200601N00411021001CN0150001N9-02001-02221100821ADDAY111999GF106991061001022501071999MD1210091+9999MW1701
0081028640999991960021906004+65783+024583FM-12+001599999V0200701N00461030001CN0100001N9-02001-02221100871ADDAA199000691AY171999GF108991041051008001021999KA1999N-02111MD1210051+9999MW1711
0057028640999991960021909004+65783+024583FM-12+001599999V0200901N00411075001CN0100001N9-01891-02221101041ADDAY171999GF107991031001022501071071MD1210171+9999MW1711
0057028640999991960021912004+65783+024583FM-12+001599999V0200701N00261075001CN0300001N9-01781-02111101111ADDAY171999GF107991031001022501071071MD1210071+9999MW1221
0057028640999991960021915004+65783+024583FM-12+001599999V0200701N00211075001CN0050001N9-01781-02111101111ADDAY171999GF107991041001022501071071MD1410001+9999MW1781
0092028640999991960021918004+65783+024583FM-12+001599999V0200801N00211075001CN0050001N9-01891-02111101101ADDAY171999GF108991041001022501071071MD1710011+9999MW1781EQDQ01+000042APCTENQ02+000012APC3  
0057028640999991960021921004+65783+024583FM-12+001599999V0200901N00101220001CN0100001N9-02001-02221101081ADDAY171999GF103991001001999999001021MD1710021+9999MW1221
0057028640999991960022000004+65783+024583FM-12+001599999V0209991C00001220001CN0300001N9-02891+99999101071ADDAY101999GF102991001001999999001021MD1710011+9999MW1011
0057028640999991960022003004+65783+024583FM-12+001599999V0200301N00211220001CN0300001N9-03111+99999101031ADDAY101999GF102991001001999999001021MD1710041+9999MW1021
0081028640999991960022006004+65783+024583FM-12+001599999V0200801N00101000601CN0300001N9-02781+99999101021ADDAA199000591AY121999GF107991071061000751999999KA1999N-03111MD1710011+9999MW1031
0057028640999991960022009004+65783+024583FM-12+001599999V0200601N00101000601CN0030001N9-02391+99999101091ADDAY121999GF107991071061000751999999MD1210071+9999MW1771
0092028640999991960022012004+65783+024583FM-12+001599999V0201801N00311075001CN0040001N9-01891-02111101081ADDAY121999GF107991021051004501001071MD1710011+9999MW1771EQDQ01+000032APCTENQ02+000002APC3  
0057028640999991960022015004+65783+024583FM-12+001599999V0200501N00311021001CN0200001N9-01891-02111101031ADDAY171999GF107991051001022501071071MD1710051+9999MW1221
0081028640999991960022018004+65783+024583FM-12+001599999V0200401N00311030001CN0200001N9-01891-02111100971ADDAA199000391AY171999GF108991021051008001071999KA1999M-01781MD1710061+9999MW1021
0057028640999991960022021004+65783+024583FM-12+001599999V0200501N00311021001CN0100001N9-01611-01781100901ADDAY171999GF108991081001022501021999MD1710071+9999MW1711
0057028640999991960022100004+65783+024583FM-12+001599999V0200501N00361015001CN0045001N9-01501-01721100771ADDAY171999GF108991081001017501021999MD1710131+9999MW1711
0057028640999991960022103004+65783+024583FM-12+001599999V0200601N00311015001CN0040001N9-01391-01611100631ADDAY171999GF108991081001017501021999MD1710141+9999MW1711
0081028640999991960022106004+65783+024583FM-12+001599999V0200501N00311015001CN0040001N9-01391-01611100501ADDAA199001091AY171999GF108991081001017501021999KA1999N-01891MD1710131+9999MW1711
0057028640999991960022109004+65783+024583FM-12+001599999V0200601N00311030001CN0040001N9-01281-01391100371ADDAY171999GF108991021051012501021999MD1710131+9999MW1711
0057028640999991960022112004+65783+024583FM-12+001599999V0200401N00721030001CN0050001N9-01221-01391100161ADDAY171999GF108991031051008001021999MD1710211+9999MW1711
0057028640999991960022115004+65783+024583FM-12+001599999V0200401N00671015001CN0100001N9-01221-01391099901ADDAY171999GF108991081001017501021999MD1710261+9999MW1711
0081028640999991960022118004+65783+024583FM-12+001599999V0200301N00671030001CN0025001N9-01281-01391099731ADDAA199001091AY121999GF108991021051008001021999KA1999M-01221MD1710171+9999MW1721
0057028640999991960022121004+65783+024583FM-12+001599999V0200101N00671007801CN0020001N9-01281-01391099641ADDAY171999GF108991061051008001021999MD1710091+9999MW1731
0057028640999991960022200004+65783+024583FM-12+001599999V0200301N00771021001CN0045001N9-01391-01501099681ADDAY171999GF106991061001022501011999MD1310041+9999MW1711
0057028640999991960022203004+65783+024583FM-12+001599999V0203601N00411220001CN0200001N9-01611-01891099711ADDAY171999GF100991001001999999001001MD1210031+9999MW1021
0081028640999991960022206004+65783+024583FM-12+001599999V0200101N00461220001CN0200001N9-01721-01891099711ADDAA199002091AY171999GF100991001001999999001001KA1999N-01781MD1010001+9999MW1011
0057028640999991960022209004+65783+024583FM-12+001599999V0200101N00511220001CN0150001N9-01611-01891099741ADDAY111999GF104991021001022501041051MD1210031+9999MW1051
0057028640999991960022215004+65783+024583FM-12+001599999V0200101N00571021001CN0040001N9-01221-01391099561ADDAY171999GF108991081001022501021999MD1710071+9999MW1711
0081028640999991960022218004+65783+024583FM-12+001599999V0200201N00571007801CN0060001N9-01221-01391099521ADDAA199000391AY171999GF108991051051008001021999KA1999M-01221MD1710041+9999MW1711
0057028640999991960022221004+65783+024583FM-12+001599999V0200101N00411015001CN0020001N9-01221-01391099521ADDAY171999GF108991081001017501021999MD1410001+9999MW1731
0057028640999991960022300004+65783+024583FM-12+001599999V0200101N00571015001CN0020001N9-01221-01391099521ADDAY171999GF108991081001017501021999MD1410001+9999MW1731
0057028640999991960022303004+65783+024583FM-12+001599999V0200101N00571021001CN0025001N9-01221-01501099551ADDAY171999GF108991081001022501021999MD1210031+9999MW1731
0081028640999991960022306004+65783+024583FM-12+001599999V0200101N00621015001CN0025001N9-01221-01391099641ADDAA199002091AY171999GF108991081001017501021999KA1999N-01281MD1210091+9999MW1731
0057028640999991960022309004+65783+024583FM-12+001599999V0200101N00511021001CN0100001N9-01221-01391099881ADDAY171999GF108991081001022501021999MD1210241+9999MW1711
0057028640999991960022312004+65783+024583FM-12+001599999V0200101N00511075001CN0150001N9-01221-01391100071ADDAY171999GF107991031001022501071071MD1210191+9999MW1711
0081028640999991960022318004+65783+024583FM-12+001599999V0203501N00211220001CN0300001N9-01611-01891100501ADDAA199001091AY121999GF102991021001022501041001KA1999M-01111MD1210211+9999MW1011
0057028640999991960022321004+65783+024583FM-12+001599999V0203501N00311220001CN0300001N9-01891-02111100691ADDAY101999GF100991001001999999001001MD1210191+9999MW1011
0057028640999991960022400004+65783+024583FM-12+001599999V0209991C00001220001CN0300001N9-02501+99999100931ADDAY101999GF100991001001999999001001MD1210241+9999MW1021
0057028640999991960022403004+65783+024583FM-12+001599999V0209991C00001220001CN0300001N9-03111+99999101131ADDAY101999GF100991001001999999001001MD1210201+9999MW1021
0070028640999991960022406004+65783+024583FM-12+001599999V0200401N00211220001CN0300001N9-03221+99999101391ADDAY101999GF102991021001022501041001KA1999N-03391MD1210261+9999MW1031
0057028640999991960022409004+65783+024583FM-12+001599999V0200601N00151220001CN0100001N9-02721+99999101601ADDAY101999GF101991011001022501041001MD1210211+9999MW1041
0057028640999991960022412004+65783+024583FM-12+001599999V0201501N00261220001CN0250001N9-01612-01781101821ADDAY101999GF101991001001999999001011MD1210231+9999MW1011
0057028640999991960022415004+65783+024583FM-12+001599999V0201501N00311220001CN0300001N9-01781-02001101961ADDAY101999GF104991011001022501041011MD1010141+9999MW1031
0070028640999991960022418004+65783+024583FM-12+001599999V0201401N00311004501CN0150001N9-01781-01891102061ADDAY101999GF108991081051004501999999KA1999M-01611MD1210101+9999MW1701
0057028640999991960022500004+65783+024583FM-12+001599999V0201301N00511015001CN0150001N9-01391-01501102011ADDAY171999GF108991081001017501021999MD1710111+9999MW1711
0057028640999991960022503004+65783+024583FM-12+001599999V0201601N00821004501CN0200001N9-01221-01391101811ADDAY171999GF108991081051004501999999MD1710201+9999MW1711
0081028640999991960022506004+65783+024583FM-12+001599999V0201501N00771004501CN0300001N9-01221-01391101711ADDAA199000391AY171999GF108991081051004501999999KA1999N-01781MD1710101+9999MW1021
0057028640999991960022515004+65783+024583FM-12+001599999V0201901N00461030001CN0250001N9-00721-00781101721ADDAY121999GF108991011071002501021999MD1210071+9999MW1031
0081028640999991960022518004+65783+024583FM-12+001599999V0201701N00571000151CN0015001N9-00611-00611101711ADDAA199000591AY121999GF109991091999000251999999KA1999M-00611MD1810011+9999MW1741
0057028640999991960022521004+65783+024583FM-12+001599999V0201901N00361030001CN0020001N9-00611-00611101721ADDAY171999GF108991031051004501021999MD1310011+9999MW1731
0057028640999991960022600004+65783+024583FM-12+001599999V0201901N00511000151CN0015001N9-00611-00611101721ADDAY171999GF109991091999000251999999MD1410001+9999MW1751
0057028640999991960022603004+65783+024583FM-12+001599999V0201901N00721030001CN0020001N9-00611-00721101701ADDAY171999GF108991041051004501021999MD1810021+9999MW1731
0081028640999991960022606004+65783+024583FM-12+001599999V0202801N00411021001CN0020001N9-00781-00891101791ADDAA199006091AY171999GF108991081001022501021999KA1999N-00891MD1310091+9999MW1721
0057028640999991960022609004+65783+024583FM-12+001599999V0202801N00211075001CN0050001N9-01111-01391102121ADDAY171999GF107991041001022501071071MD1210331+9999MW1711
0057028640999991960022612004+65783+024583FM-12+001599999V0202801N00211220001CN0400001N9-01111-01391102311ADDAY171999GF103991021001022501071051MD1210191+9999MW1011
0057028640999991960022615004+65783+024583FM-12+001599999V0209991C00001220001CN0400001N9-01501-01781102451ADDAY111999GF101991011001022501041001MD1210141+9999MW1011
0081028640999991960022618004+65783+024583FM-12+001599999V0203401N00211220001CN0400001N9-02111-02281102531ADDAA199000591AY101999GF100991001001999999001001KA1999M-00891MD1110081+9999MW1011
0057028640999991960022621004+65783+024583FM-12+001599999V0203601N00311220001CN0400001N9-02281-02501102601ADDAY101999GF100991001001999999001001MD1210071+9999MW1021
0070028640999991960022706004+65783+024583FM-12+001599999V0203601N00411002401CN0060001N9-01501-01721102541ADDAY121999GF108991081051002501999999KA1999N-02611MD1710061+9999MW1711
0057028640999991960022709004+65783+024583FM-12+001599999V0203601N00411030001CN0045001N9-01281-01391102571ADDAY171999GF107991031051004501071999MD1010031+9999MW1711
0057028640999991960022712004+65783+024583FM-12+001599999V0203601N00571220001CN0400001N9-01221-01391102561ADDAY171999GF107991041001022501051011MD1710011+9999MW1011
0057028640999991960022715004+65783+024583FM-12+001599999V0203601N00411220001CN0400001N9-01281-01501102531ADDAY111999GF102991021001022501041001MD1710031+9999MW1011
0081028640999991960022718004+65783+024583FM-12+001599999V0200101N00411220001CN0300001N9-01781-02001102531ADDAA199000591AY101999GF101991011001022501041001KA1999M-01221MD1410001+9999MW1011
0057028640999991960022721004+65783+024583FM-12+001599999V0200401N00311030001CN0200001N9-01781-01891102551ADDAY111999GF106991021051004501071999MD1210031+9999MW1031
0057028640999991960022800004+65783+024583FM-12+001599999V0200401N00411220001CN0300001N9-02001-02221102541ADDAY121999GF100991001001999999001001MD1710011+9999MW1011
0057028640999991960022803004+65783+024583FM-12+001599999V0200401N00411220001CN0300001N9-02111-02281102541ADDAY101999GF100991001001999999001001MD1410001+9999MW1021
0070028640999991960022806004+65783+024583FM-12+001599999V0200301N00511220001CN0300001N9-02111-02281102491ADDAY101999GF101991011001022501041001KA1999N-02221MD1710051+9999MW1021
0057028640999991960022809004+65783+024583FM-12+001599999V0200301N00511220001CN0300001N9-01781-02001102501ADDAY101999GF100991001001999999001001MD1110011+9999MW1021
0057028640999991960022812004+65783+024583FM-12+001599999V0200301N00721220001CN0300001N9-01391-01721102461ADDAY101999GF100991001001999999001001MD1810031+9999MW1021
0057028640999991960022815004+65783+024583FM-12+001599999V0200101N00361220001CN0500001N9-01281-01611102451ADDAY101999GF100991001001999999001001MD1510011+9999MW1021
0070028640999991960022818004+65783+024583FM-12+001599999V0200101N00461220001CN0500001N9-01611-01781102471ADDAY101999GF100991001001999999001001KA1999M-01221MD1210021+9999MW1021
0057028640999991960022821004+65783+024583FM-12+001599999V0200301N00411220001CN0500001N9-01781-01891102591ADDAY101999GF100991001001999999001001MD1210121+9999MW1021
0057028640999991960022900004+65783+024583FM-12+001599999V0203601N00311220001CN0500001N9-01891-02221102691ADDAY101999GF100991001001999999001001MD1210101+9999MW1021
0057028640999991960022903004+65783+024583FM-12+001599999V0200201N00361220001CN0500001N9-02111-02281102811ADDAY101999GF100991001001999999001001MD1210111+9999MW1021
0070028640999991960022906004+65783+024583FM-12+001599999V0203601N00411007801CN0300001N9-01781-02001102841ADDAY101999GF108991061051008001071999KA1999N-02281MD1210031+9999MW1031
0057028640999991960022909004+65783+024583FM-12+001599999V0203601N00361220001CN0500001N9-01501-01721102921ADDAY111999GF102991011001022501051051MD1210081+9999MW1011
0057028640999991960022912004+65783+024583FM-12+001599999V0203601N00211220001CN0500001N9-01001-01391102891ADDAY101999GF101991011051008001041001MD1810031+9999MW1011
0057028640999991960022915004+65783+024583FM-12+001599999V0200601N00211220001CN0500001N9-01221-01501102901ADDAY101999GF100991001001999999001001MD1010011+9999MW1011
0070028640999991960022918004+65783+024583FM-12+001599999V0200601N00101220001CN0500001N9-02281-02501102931ADDAY101999GF101991011001022501041001KA1999M-01001MD1010021+9999MW1021
0057028640999991960022921004+65783+024583FM-12+001599999V0200601N00211220001CN0400001N9-02611+99999102941ADDAY101999GF100991001001999999001001MD1110011+9999MW1021
0057028640999991960030100004+65783+024583FM-12+001599999V0200801N00151220001CN0400001N9-03111-03281102951ADDAY101999GF100991001001999999001001MD1110011+9999MW1021
0057028640999991960030103004+65783+024583FM-12+001599999V0201201N00311220001CN0300001N9-02221-02391102871ADDAY101999GF100991001001999999001001MD1710081+9999MW1021
0070028640999991960030106004+65783+024583FM-12+001599999V0201201N00311220001CN0500001N9-02281-02501102741ADDAY101999GF103991011001022501041041KA1999N-03111MD1710131+9999MW1031
0057028640999991960030112004+65783+024583FM-12+001599999V0201401N00621075001CN0500001N9-01501-01781102431ADDAY121999GF107991041001022501041071MD1710271+9999MW1031
0057028640999991960030115004+65783+024583FM-12+001599999V0201301N00721021001CN0500001N9-01281-01721102181ADDAY121999GF108991081001022501021999MD1710251+9999MW1031
0070028640999991960030118004+65783+024583FM-12+001599999V0201501N00931021001CN0500001N9-01281-01781101991ADDAY121999GF107991071001022501071999KA1999M-01281MD1710191+9999MW1011
0057028640999991960030121004+65783+024583FM-12+001599999V0201401N01031007801CN0500001N9-01281-01611101791ADDAY121999GF108991081051008001999999MD1710201+9999MW1031
0057028640999991960030200004+65783+024583FM-12+001599999V0201501N01131000151CN0008001N9-01281-01501101631ADDAY171999GF109991091999000251999999MD1710161+9999MW1751
0057028640999991960030203004+65783+024583FM-12+001599999V0201601N01131000151CN0008001N9-01221-01391101431ADDAY171999GF109991091999000251999999MD1710201+9999MW1751
0081028640999991960030206004+65783+024583FM-12+001599999V0201601N01181000151CN0008001N9-01281-01391101331ADDAA199000391AY171999GF109991091999000251999999KA1999N-01281MD1710101+9999MW1751
0057028640999991960030209004+65783+024583FM-12+001599999V0201501N01131000151CN0015001N9-01281-01391101391ADDAY171999GF109991091999000251999999MD1210061+9999MW1731
0057028640999991960030212004+65783+024583FM-12+001599999V0201601N01181000151CN0010001N9-01221-01391101381ADDAY171999GF109991091999000251999999MD1710011+9999MW1731
0057028640999991960030215004+65783+024583FM-12+001599999V0201601N01131000151CN0010001N9-01221-01281101351ADDAY171999GF109991091999000251999999MD1710031+9999MW1731
0081028640999991960030218004+65783+024583FM-12+001599999V0201601N01131000151CN0010001N9-01111-01221101391ADDAA199000591AY171999GF109991091999000251999999KA1999M-01111MD1210041+9999MW1731
0057028640999991960030300004+65783+024583FM-12+001599999V0201601N01031000151CN0050001N9-01111-01281101411ADDAY171999GF109991091999000251999999MD1210111+9999MW1731
0057028640999991960030303004+65783+024583FM-12+001599999V0201601N00931000151CN0040001N9-01111-01221101651ADDAY171999GF109991091999000251999999MD1210091+9999MW1731
0081028640999991960030306004+65783+024583FM-12+001599999V0201601N00821000151CN0020001N9-01111-01221101771ADDAA199001091AY171999GF109991091999000251999999KA1999N-01221MD1210121+9999MW1731
0057028640999991960030309004+65783+024583FM-12+001599999V0201501N00671030001CN0045001N9-01001-01221101931ADDAY171999GF107991021051004501071999MD1210161+9999MW1711
0057028640999991960030312004+65783+024583FM-12+001599999V0201501N00671030001CN0070001N9-01001-01221102051ADDAY171999GF108991041051004501021999MD1210121+9999MW1711
0057028640999991960030315004+65783+024583FM-12+001599999V0201501N00571021001CN0050001N9-00891-01111102111ADDAY171999GF108991081001022501021999MD1210061+9999MW1711
0081028640999991960030318004+65783+024583FM-12+001599999V0201501N00511030001CN0040001N9-00891-01001102191ADDAA199000391AY171999GF108991031051004501021999KA1999M-00891MD1210081+9999MW1701
0057028640999991960030400004+65783+024583FM-12+001599999V0201501N00621004501CN0150001N9-00781-01111102291ADDAY171999GF108991081051004501999999MD1210071+9999MW1711
0057028640999991960030403004+65783+024583FM-12+001599999V0201501N00571007801CN0100001N9-00781-01001102371ADDAY171999GF108991081051008001999999MD1210081+9999MW1711
0081028640999991960030406004+65783+024583FM-12+001599999V0201501N00571004501CN0060001N9-00891-01111102471ADDAA199000391AY171999GF108991061051004501021999KA1999N-00891MD1210101+9999MW1711
0057028640999991960030409004+65783+024583FM-12+001599999V0201701N00721015001CN0017001N9-00891-01001102561ADDAY171999GF108991081001017501021999MD1210091+9999MW1731
0057028640999991960030412004+65783+024583FM-12+001599999V0201601N00721015001CN0060001N9-00781-01001102681ADDAY171999GF108991081001017501021999MD1210121+9999MW1711
0057028640999991960030415004+65783+024583FM-12+001599999V0201701N00621004501CN0100001N9-00721-00891102811ADDAY171999GF108991051051004501021999MD1210131+9999MW1711
0081028640999991960030418004+65783+024583FM-12+001599999V0201701N00671007801CN0100001N9-00611-01111102931ADDAA199001091AY121999GF108991081051008001999999KA1999M-00611MD1210121+9999MW1711
0057028640999991960030421004+65783+024583FM-12+001599999V0201701N00821004501CN0030001N9-00611-00781103001ADDAY171999GF108991081051004501999999MD1210071+9999MW1731
0057028640999991960030500004+65783+024583FM-12+001599999V0201801N00671004501CN0040001N9-00501-00611103141ADDAY171999GF108991081051004501999999MD1210141+9999MW1731
0057028640999991960030503004+65783+024583FM-12+001599999V0201901N00571004501CN0030001N9-00501-00611103301ADDAY171999GF108991061051004501021999MD1210161+9999MW1731
0057028640999991960030509004+65783+024583FM-12+001599999V0201901N00311000601CN0030001N9-00391-00391103641ADDAY171999GF108991081071000751999999MD1210191+9999MW1731
0057028640999991960030512004+65783+024583FM-12+001599999V0201901N00411000601CN0020001N9-00391-00391103811ADDAY171999GF108991081071000751999999MD1210171+9999MW1781
0081028640999991960030518004+65783+024583FM-12+001599999V0201801N00411000151CN0015001N9-00391-00391103981ADDAA199000391AY171999GF108991081061000251999999KA1999M-00281MD1010061+9999MW1761
0057028640999991960030521004+65783+024583FM-12+001599999V0201801N00511000601CN0025001N9-00391-00391104001ADDAY171999GF108991081061000751999999MD1210021+9999MW1761
0057028640999991960030600004+65783+024583FM-12+001599999V0201901N00511000601CN0025001N9-00391-00391103951ADDAY171999GF108991081061000751999999MD1710051+9999MW1761
0057028640999991960030603004+65783+024583FM-12+001599999V0201901N00621000601CN0025001N9-00281-00281103771ADDAY171999GF108991081061000751999999MD1710181+9999MW1761
0081028640999991960030606004+65783+024583FM-12+001599999V0202001N00571000151CN0015001N9-00221-00221103591ADDAA199000691AY171999GF108991081061000251999999KA1999N-00391MD1710151+9999MW1761
0057028640999991960030609004+65783+024583FM-12+001599999V0202201N00621000151CN0050001N9-00111-00111103551ADDAY121999GF108991081061000251999999MD1710041+9999MW1021
0057028640999991960030612004+65783+024583FM-12+001599999V0202201N00571000601CN0050001N9+00001-00111103491ADDAY121999GF108991081061000751999999MD1710061+9999MW1021
0057028640999991960030615004+65783+024583FM-12+001599999V0201901N00571000601CN0050001N9-00111-00221103471ADDAY121999GF107991071071000751999999MD1710021+9999MW1011
0081028640999991960030618004+65783+024583FM-12+001599999V0202201N00511000601CN0020001N9-00111-00221103461ADDAA199000691AY121999GF108991081071000751999999KA1999M+00001MD1710011+9999MW1761
0057028640999991960030621004+65783+024583FM-12+001599999V0202201N00571000151CN0005001N9-00111-00111103451ADDAY171999GF108991081061000251999999MD1710051+9999MW1761
0057028640999991960030700004+65783+024583FM-12+001599999V0201801N00311000151CN0005001N9-00221-00221103391ADDAY171999GF109991091999000251999999MD1710021+9999MW1471
0057028640999991960030703004+65783+024583FM-12+001599999V0201801N00511000151CN0004001N9-00221-00221103321ADDAY141999GF109991091999000251999999MD1710071+9999MW1451
0081028640999991960030706004+65783+024583FM-12+001599999V0201901N00511000151CN0004001N9-00221-00221103281ADDAA199000691AY141999GF109991091999000251999999KA1999N-00221MD1710041+9999MW1451
0057028640999991960030712004+65783+024583FM-12+001599999V0202201N00461000151CN0002001N9-00221-00221103271ADDAY141999GF109991091999000251999999MD1210021+9999MW1451
0057028640999991960030715004+65783+024583FM-12+001599999V0201901N00361000151CN0004001N9-00221-00221103261ADDAY141999GF109991091999000251999999MD1510011+9999MW1431
0070028640999991960030718004+65783+024583FM-12+001599999V0202101N00261000151CN0008001N9-00281-00281103241ADDAY141999GF109991091999000251999999KA1999M-00111MD1510021+9999MW1431
0057028640999991960030721004+65783+024583FM-12+001599999V0201901N00101000151CN0005001N9-00281-00281103221ADDAY141999GF109991091999000251999999MD1810021+9999MW1471
0057028640999991960030800004+65783+024583FM-12+001599999V0209991C00001000151CN0003001N9-00391-00391103241ADDAY141999GF109991091999000251999999MD1210021+9999MW1471
0057028640999991960030803004+65783+024583FM-12+001599999V0209991C00001000151CN0004001N9-00391-00501103291ADDAY141999GF109991091999000251999999MD1210051+9999MW1451
0070028640999991960030806004+65783+024583FM-12+001599999V0209991C00001000151CN0003001N9-00611-00611103331ADDAY141999GF109991091999000251999999KA1999N-00611MD1310041+9999MW1471
0057028640999991960030809004+65783+024583FM-12+001599999V0209991C00001000151CN0005001N9-00611-00611103391ADDAY141999GF109991091999000251999999MD1210061+9999MW1431
0057028640999991960030812004+65783+024583FM-12+001599999V0209991C00001000151CN0005001N9-00391-00501103491ADDAY141999GF109991091999000251999999MD1210101+9999MW1451
0057028640999991960030815004+65783+024583FM-12+001599999V0202201N00101000151CN0002001N9-00501-00501103541ADDAY171999GF109991091999000251999999MD1210051+9999MW1451
0081028640999991960030818004+65783+024583FM-12+001599999V0202301N00101000151CN0001001N9-00721-00781103581ADDAA199000691AY171999GF109991091999000251999999KA1999M-00501MD1210041+9999MW1451
0057028640999991960030821004+65783+024583FM-12+001599999V0209991C00001000601CN0020001N9-01001-01111103661ADDAY141999GF108991081061000751999999MD1210081+9999MW1281
0057028640999991960030900004+65783+024583FM-12+001599999V0209991C00001000151CN0002001N9-00891-01001103661ADDAY121999GF109991091999000251999999MD1410001+9999MW1451
0057028640999991960030903004+65783+024583FM-12+001599999V0209991C00001000151CN0002001N9-00891-01001103661ADDAY141999GF109991091999000251999999MD1410001+9999MW1451
0070028640999991960030906004+65783+024583FM-12+001599999V0209991C00001000151CN0003001N9-00891-01001103641ADDAY121999GF109991091999000251999999KA1999N-01001MD1810021+9999MW1471
0057028640999991960030909004+65783+024583FM-12+001599999V0209991C00001000151CN0005001N9-00781-00781103631ADDAY141999GF109991091999000251999999MD1810011+9999MW1431
0057028640999991960030912004+65783+024583FM-12+001599999V0201901N00101001501CN0100001N9-00721-00721103581ADDAY141999GF108991081071001501999999MD1810051+9999MW1011
0057028640999991960030915004+65783+024583FM-12+001599999V0202101N00101001501CN0100001N9-00611-00721103481ADDAY121999GF108991081071001501999999MD1710101+9999MW1021
0070028640999991960030918004+65783+024583FM-12+001599999V0201901N00151000151CN0004001N9-00721-00781103401ADDAY121999GF109991091999000251999999KA1999M-00611MD1710081+9999MW1451
0057028640999991960030921004+65783+024583FM-12+001599999V0209991C00001000151CN0006001N9-00721-00781103371ADDAY141999GF109991091999000251999999MD1810031+9999MW1471
0057028640999991960031000004+65783+024583FM-12+001599999V0209991C00001000151CN0005001N9-00781-00891103341ADDAY141999GF109991091999000251999999MD1710031+9999MW1471
0057028640999991960031003004+65783+024583FM-12+001599999V0209991C00001000151CN0004001N9-00891-01001103301ADDAY141999GF109991091999000251999999MD1710041+9999MW1471
0070028640999991960031006004+65783+024583FM-12+001599999V0209991C00001000151CN0004001N9-00891-01001103261ADDAY141999GF109991091999000251999999KA1999N-00891MD1710041+9999MW1451
0057028640999991960031009004+65783+024583FM-12+001599999V0209991C00001000151CN0010001N9-00891-00891103331ADDAY141999GF108991081061000251999999MD1210071+9999MW1771
0057028640999991960031012004+65783+024583FM-12+001599999V0209991C00001000151CN0013001N9-00781-00891103321ADDAY141999GF108991081061000251999999MD1710011+9999MW1771
0057028640999991960031015004+65783+024583FM-12+001599999V0202101N00101000151CN0004001N9-00781-00781103271ADDAY171999GF109991091999000251999999MD1610051+9999MW1771
0081028640999991960031018004+65783+024583FM-12+001599999V0201901N00101000151CN0004001N9-00721-00781103211ADDAA199000691AY171999GF109991091999000251999999KA1999M-00721MD1710061+9999MW1771
0057028640999991960031021004+65783+024583FM-12+001599999V0201901N00101000601CN0020001N9-00721-00781103111ADDAY171999GF108991081061000751999999MD1710101+9999MW1771
0057028640999991960031100004+65783+024583FM-12+001599999V0202301N00101000151CN0010001N9-00721-00781103001ADDAY171999GF108991081061000251999999MD1710111+9999MW1771
0057028640999991960031103004+65783+024583FM-12+001599999V0202301N00211000601CN0030001N9-00721-00721102841ADDAY171999GF108991081061000751999999MD1710161+9999MW1771
0057028640999991960031109004+65783+024583FM-12+001599999V0202301N00151000151CN0004001N9-00501-00611102471ADDAY141999GF109991091999000251999999MD1710181+9999MW1771
0057028640999991960031112004+65783+024583FM-12+001599999V0202201N00151001501CN0040001N9-00611-00721102371ADDAY141999GF108991081071001501999999MD1710101+9999MW1771
0057028640999991960031115004+65783+024583FM-12+001599999V0202201N00261001501CN0050001N9-00611-00721102251ADDAY171999GF108991081071001501999999MD1710121+9999MW1771
0081028640999991960031118004+65783+024583FM-12+001599999V0202201N00101001501CN0050001N9-00721-00721102161ADDAA199000691AY171999GF108991081061001501999999KA1999M-00391MD1710091+9999MW1221
0057028640999991960031121004+65783+024583FM-12+001599999V0201201N00151000601CN0050001N9-00721-00721102121ADDAY121999GF108991081061000751999999MD1610041+9999MW1021
0057028640999991960031200004+65783+024583FM-12+001599999V0201201N00151000151CN0018001N9-00721-00781102031ADDAY171999GF108991081061000251999999MD1710091+9999MW1101
0057028640999991960031203004+65783+024583FM-12+001599999V0201501N00101000151CN0012001N9-00611-00721101961ADDAY121999GF108991081061000251999999MD1710071+9999MW1101
0070028640999991960031206004+65783+024583FM-12+001599999V0201701N00211000601CN0030001N9-00611-00721101881ADDAY121999GF108991081061000751999999KA1999N-00781MD1710081+9999MW1771
0057028640999991960031209004+65783+024583FM-12+001599999V0201701N00211001501CN0040001N9-00611-00611101861ADDAY171999GF108991081071001501999999MD1710021+9999MW1771
0057028640999991960031212004+65783+024583FM-12+001599999V0201901N00211001501CN0040001N9-00501-00501101831ADDAY171999GF108991081071001501999999MD1710031+9999MW1771
0057028640999991960031215004+65783+024583FM-12+001599999V0201701N00151002401CN0050001N9-00501-00501101851ADDAY171999GF108991081071002501999999MD1310021+9999MW1771
0081028640999991960031218004+65783+024583FM-12+001599999V0201201N00101004501CN0050001N9-00611-00611101851ADDAA199000391AY171999GF108991081051004501999999KA1999M-00611MD1410001+9999MW1771
0057028640999991960031221004+65783+024583FM-12+001599999V0202601N00101004501CN0060001N9-00721-00721101851ADDAY121999GF108991081051004501999999MD1410001+9999MW1771
0057028640999991960031300004+65783+024583FM-12+001599999V0209991C00001000601CN0018001N9-00721-00781101871ADDAY171999GF108991081061000751999999MD1310021+9999MW1101
0057028640999991960031303004+65783+024583FM-12+001599999V0209991C00001000151CN0004001N9-00611-00721101831ADDAY171999GF109991091999000251999999MD1710041+9999MW1471
0057028640999991960031306004+65783+024583FM-12+001599999V0200601N00101002401CN0070001N9-00611-00611101791ADDAY141999GF108991081051002501999999MD1510271+9999MW1771
0057028640999991960031309004+65783+024583FM-12+001599999V0200901N00211002401CN0070001N9-00501-00501101781ADDAY171999GF108991081071002501999999MD1810011+9999MW1221
0057028640999991960031312004+65783+024583FM-12+001599999V0200801N00211002401CN0080001N9-00391-00501101761ADDAY121999GF108991081071002501999999MD1610021+9999MW1021
0057028640999991960031315004+65783+024583FM-12+001599999V0200801N00311004501CN0100001N9-00501-00611101671ADDAY121999GF108991081051004501999999MD1710091+9999MW1021
0070028640999991960031318004+65783+024583FM-12+001599999V0200801N00261004501CN0100001N9-00611-00721101631ADDAY121999GF108991081051004501999999KA1999M-00391MD1610041+9999MW1021
0057028640999991960031321004+65783+024583FM-12+001599999V0200701N00361021001CN0200001N9-00611-00721101611ADDAY121999GF107991071001022501071999MD1610021+9999MW1011
0057028640999991960031400004+65783+024583FM-12+001599999V0200801N00511007801CN0200001N9-00501-00611101621ADDAY121999GF108991081051008001999999MD1210011+9999MW1031
0057028640999991960031403004+65783+024583FM-12+001599999V0200901N00671004501CN0200001N9-00501-00721101651ADDAY121999GF108991081051004501999999MD1210031+9999MW1021
0070028640999991960031406004+65783+024583FM-12+001599999V0200801N00671004501CN0018001N9-00611-00721101691ADDAY121999GF108991061051004501021999KA1999N-00611MD1210041+9999MW1731
0057028640999991960031409004+65783+024583FM-12+001599999V0200801N00571030001CN0018001N9-00501-00611101831ADDAY171999GF108991021071004501021999MD1210141+9999MW1731
0057028640999991960031412004+65783+024583FM-12+001599999V0200801N00671030001CN0018001N9-00391-00611101891ADDAY171999GF108991031071004501021999MD1210061+9999MW1731
0057028640999991960031415004+65783+024583FM-12+001599999V0200801N00721030001CN0020001N9-00391-00501101991ADDAY171999GF108991031071004501021999MD1210101+9999MW1731
0081028640999991960031418004+65783+024583FM-12+001599999V0200801N00821030001CN0020001N9-00611-00721102191ADDAA199003091AY171999GF108991031071004501021999KA1999M-00391MD1210201+9999MW1731
0057028640999991960031421004+65783+024583FM-12+001599999V0200801N00821007801CN0020001N9-00721-00781102351ADDAY171999GF108991081061008001999999MD1210161+9999MW1731
0057028640999991960031500004+65783+024583FM-12+001599999V0200801N01031007801CN0020001N9-00891-01111102461ADDAY171999GF108991081051008001999999MD1210111+9999MW1731
0057028640999991960031503004+65783+024583FM-12+001599999V0200801N00931004501CN0030001N9-01111-01281102631ADDAY171999GF108991081051004501999999MD1210171+9999MW1731
0081028640999991960031506004+65783+024583FM-12+001599999V0200801N00721030001CN0035001N9-01111-01281102741ADDAA199001091AY171999GF107991011051012501041071KA1999N-01221MD1210111+9999MW1711
0057028640999991960031509004+65783+024583FM-12+001599999V0200901N00821021001CN0040001N9-01001-01221102841ADDAY171999GF107991071001022501071999MD1210101+9999MW1711
0057028640999991960031512004+65783+024583FM-12+001599999V0200901N00721075001CN0050001N9-00781-01111102881ADDAY121999GF107991031001022501071071MD1210041+9999MW1711
0057028640999991960031515004+65783+024583FM-12+001599999V0200901N00671075001CN0400001N9-00721-01221102941ADDAY121999GF107991021001022501071071MD1210061+9999MW1011
0081028640999991960031518004+65783+024583FM-12+001599999V0200901N00621075001CN0400001N9-00891-01391102991ADDAA199000391AY171999GF106991011001022501041051KA1999M-00721MD1210051+9999MW1011
0057028640999991960031521004+65783+024583FM-12+001599999V0201001N00671220001CN0500001N9-01001-01391103091ADDAY101999GF103991021001022501041011MD1210101+9999MW1031
0057028640999991960031600004+65783+024583FM-12+001599999V0201201N00671021001CN0400001N9-01111-01391103121ADDAY111999GF108991081001022501021999MD1210031+9999MW1031
0057028640999991960031603004+65783+024583FM-12+001599999V0201201N00621030001CN0400001N9-01001-01391103111ADDAY121999GF108991021051008001021999MD1810011+9999MW1031
0070028640999991960031606004+65783+024583FM-12+001599999V0201001N00671075001CN0150001N9-01111-01391103151ADDAY121999GF107991031001022501071071KA1999N-01221MD1210041+9999MW1001
0057028640999991960031612004+65783+024583FM-12+001599999V0201301N00621075001CN0500001N9-00721-01221103141ADDAY101999GF105991011051012501041021MD1810031+9999MW1031
0057028640999991960031615004+65783+024583FM-12+001599999V0201401N00361030001CN0400001N9-00721-01001103101ADDAY121999GF106991021051008001041021MD1710041+9999MW1011
0070028640999991960031618004+65783+024583FM-12+001599999V0201401N00151030001CN0300001N9-00781-01001103061ADDAY121999GF107991021051008001071999KA1999M-00721MD1710041+9999MW1021
0057028640999991960031621004+65783+024583FM-12+001599999V0201801N00571007801CN0300001N9-00721-00891103031ADDAY121999GF108991081051008001999999MD1710031+9999MW1021
0057028640999991960031800004+65783+024583FM-12+001599999V0201601N00411220001CN0300001N9-01001-01111102481ADDAY101999GF100991001001999999001001MD1710041+9999MW1021
0057028640999991960031803004+65783+024583FM-12+001599999V0200901N00211075001CN0300001N9-01221-01281102541ADDAY121999GF107991041001022501041071MD1210061+9999MW1031
0070028640999991960031806004+65783+024583FM-12+001599999V0200301N00101000601CN0040001N9-01001-01111102621ADDAY121999GF108991081061000751999999KA1999N-01281MD1210081+9999MW1021
0057028640999991960031809004+65783+024583FM-12+001599999V0203601N00311000601CN0045001N9-00781-00891102841ADDAY121999GF108991081071000751999999MD1210221+9999MW1771
0057028640999991960031812004+65783+024583FM-12+001599999V0200101N00311030001CN0150001N9-00391-00611102931ADDAY171999GF107991021071004501071071MD1210091+9999MW1011
0057028640999991960031815004+65783+024583FM-12+001599999V0203001N00101075001CN0200001N9-00111-00391102951ADDAY121999GF105991021001022501041071MD1210021+9999MW1011
0081028640999991960031818004+65783+024583FM-12+001599999V0209991C00001220001CN0030001N9-00891-01001103071ADDAA199000691AY111999GF103991021001022501041051KA1999M-00111MD1210121+9999MW1041
0057028640999991960031821004+65783+024583FM-12+001599999V0201901N00101220001CN0100001N9-01281-01391103151ADDAY101999GF100991001001999999001001MD1210081+9999MW1051
0057028640999991960031900004+65783+024583FM-12+001599999V0209991C00001220001CN0200001N9-01501-01781103251ADDAY101999GF102991021001022501041001MD1210101+9999MW1031
0057028640999991960031903004+65783+024583FM-12+001599999V0209991C00001220001CN0250001N9-01501-01611103301ADDAY101999GF103991021001022501041999MD1210051+9999MW1031
0070028640999991960031906004+65783+024583FM-12+001599999V0209991C00001220001CN0250001N9-01281-01391103381ADDAY101999GF103991011001022501041021KA1999N-01611MD1210081+9999MW1041
0057028640999991960031909004+65783+024583FM-12+001599999V0201901N00261075001CN0100001N9-00781-01001103501ADDAY101999GF105991011001022501041021MD1210121+9999MW1051
0057028640999991960031912004+65783+024583FM-12+001599999V0202101N00361220001CN0150001N9-00611-00891103581ADDAY111999GF106991001001999999001061MD1010081+9999MW1021
0057028640999991960031915004+65783+024583FM-12+001599999V0201801N00261220001CN0300001N9-00611-00781103631ADDAY111999GF103991001001999999001011MD1210051+9999MW1031
0070028640999991960031918004+65783+024583FM-12+001599999V0201801N00211220001CN0150001N9-01001-01111103651ADDAY111999GF104991001001999999001061KA1999M-00501MD1010021+9999MW1021
0057028640999991960031921004+65783+024583FM-12+001599999V0201201N00101000151CN0150001N9-01281-01391103661ADDAY111999GF105991051061000251001001MD1310011+9999MW1031
0057028640999991960032000004+65783+024583FM-12+001599999V0201501N00211220001CN0100001N9-01501-01611103641ADDAY111999GF102991021061000751001001MD1710021+9999MW1011
0057028640999991960032003004+65783+024583FM-12+001599999V0201301N00101220001CN0150001N9-01721-01781103571ADDAY101999GF104991011061000751041061MD1710071+9999MW1031
0070028640999991960032006004+65783+024583FM-12+001599999V0201401N00101075001CN0300001N9-01611-01781103541ADDAY121999GF107991031001022501041071KA1999N-01721MD1710031+9999MW1031
0057028640999991960032009004+65783+024583FM-12+001599999V0201901N00211075001CN0050001N9-01111-01221103561ADDAY121999GF106991011001022501041051MD1310031+9999MW1041
0057028640999991960032012004+65783+024583FM-12+001599999V0201901N00361075001CN0100001N9-00721-01001103561ADDAY131999GF107991011001022501041081MD1010001+9999MW1041
0057028640999991960032015004+65783+024583FM-12+001599999V0201901N00261030001CN0400001N9-00391-00611103511ADDAY121999GF107991011051012501041071MD1810051+9999MW1021
0057028640999991960032021004+65783+024583FM-12+001599999V0201801N00411220001CN0200001N9-00781-01001103231ADDAY111999GF102991021001022501041001MD1710151+9999MW1021
0057028640999991960032100004+65783+024583FM-12+001599999V0201801N00361220001CN0400001N9-00891-01111103051ADDAY111999GF101991011001022501041001MD1710181+9999MW1021
0057028640999991960032103004+65783+024583FM-12+001599999V0201901N00361220001CN0300001N9-01001-01221102891ADDAY101999GF102991021001022501041001MD1710161+9999MW1021
0070028640999991960032106004+65783+024583FM-12+001599999V0202101N00361220001CN0300001N9-01001-01221102761ADDAY101999GF101991001001999999001011KA1999N-01111MD1710131+9999MW1011
0057028640999991960032109004+65783+024583FM-12+001599999V0202101N00511220001CN0500001N9-00611-00891102711ADDAY101999GF101991001001999999001011MD1710051+9999MW1021
0057028640999991960032112004+65783+024583FM-12+001599999V0202101N00511220001CN0500001N9-00111-00611102551ADDAY101999GF100991001001999999001001MD1710161+9999MW1021
0057028640999991960032115004+65783+024583FM-12+001599999V0202401N00511075001CN0500001N9+00001-00501102411ADDAY101999GF106991021001022501041051MD1710141+9999MW1031
0070028640999991960032118004+65783+024583FM-12+001599999V0202501N00771021001CN0500001N9+00001-00501102311ADDAY111999GF107991071001022501071999KA1999M+00111MD1510101+9999MW1031
