0057029720999991962010100004+60517+022267FM-12+005499999V0202201N00511004501CN0100001N9+00221+00111099671ADDAY121999GF108991081061004501999999MD1210061+9999MW1021
0057029720999991962010103004+60517+022267FM-12+005499999V0201801N00211002401CN0100001N9+00221+00221099621ADDAY121999GF108991081061002501999999MD1710051+9999MW1021
0057029720999991962010109004+60517+022267FM-12+005499999V0200901N00311000601CN0010001N9+00001+00001099411ADDAY171999GF108991081061000751999999MD1710151+9999MW1681
0057029720999991962010112004+60517+022267FM-12+005499999V0200401N00411000601CN0010001N9+00001+00001099291ADDAY171999GF108991081061000751999999MD1710121+9999MW1731
0057029720999991962010115004+60517+022267FM-12+005499999V0200401N00411001501CN0060001N9+00001+00001099141ADDAY171999GF108991081061001501999999MD1710151+9999MW1681
0081029720999991962010118004+60517+022267FM-12+005499999V0200401N00721002401CN0030001N9-00221-00281099141ADDAA199012091AY171999GF108991081061002501999999KA1999M+00111MD1210011+9999MW1751
0057029720999991962010121004+60517+022267FM-12+005499999V0200201N00821002401CN0010001N9-00391-00391099191ADDAY171999GF108991081061002501999999MD1210051+9999MW1751
0043029720999991962010200004+60517+022267FM-12+005499999V0203601N00931001501CN0010001N9-00501-00501099311ADDAY171999GF108991081061001501999999MW1751
0057029720999991962010203004+60517+022267FM-12+005499999V0203601N00821001501CN0020001N9-00501-00611099521ADDAY171999GF108991081061001501999999MD1210201+9999MW1731
0081029720999991962010206004+60517+022267FM-12+005499999V0203201N00621001501CN0040001N9-00611-00721099761ADDAA199003091AY171999GF108991081061001501999999KA1999N-00721MD1210241+9999MW1711
0057029720999991962010209004+60517+022267FM-12+005499999V0203201N00721024001CN0400001N9-00891-01221099961ADDAY121999GF107991061001999999071011MD1210201+9999MW1011
0057029720999991962010212004+60517+022267FM-12+005499999V0203201N00511024001CN0400001N9-00891-01221100111ADDAY121999GF107991051001999999071021MD1210151+9999MW1021
0057029720999991962010215004+60517+022267FM-12+005499999V0203201N00211075001CN0400001N9-00891-01111100081ADDAY121999GF105991031001999999041021MD1710041+9999MW1021
0081029720999991962010218004+60517+022267FM-12+005499999V0202701N00101007801CN0150001N9-00781-01001100051ADDAA199000391AY171999GF108991061051008001071999KA1999M-00611MD1710021+9999MW1711
0057029720999991962010221004+60517+022267FM-12+005499999V0202701N00101004501CN0100001N9-00721-00891100161ADDAY171999GF108991081051004501999999MD1310111+9999MW1221
0057029720999991962010300004+60517+022267FM-12+005499999V0209991C00001007801CN0150001N9-00611-00721100351ADDAY121999GF108991081051008001999999MD1210181+9999MW1021
0057029720999991962010303004+60517+022267FM-12+005499999V0202701N00311220001CN0300001N9-00721-00781100621ADDAY111999GF102991011001999999041011MD1210271+9999MW1011
0081029720999991962010306004+60517+022267FM-12+005499999V0203201N00311220001CN0300001N9-00721-00781100861ADDAA199001091AY101999GF102991001001999999001011KA1999N-00781MD1210241+9999MW1021
0057029720999991962010309004+60517+022267FM-12+005499999V0203601N00151000151CN0004001N9-00781-00891101121ADDAY141999GF108991081061000251999999MD1210261+9999MW1441
0057029720999991962010312004+60517+022267FM-12+005499999V0203001N00211002401CN0100001N9-00781-00891101241ADDAY121999GF107991061061002501041021MD1210121+9999MW1021
0057029720999991962010315004+60517+022267FM-12+005499999V0202701N00211002401CN0060001N9-00391-00501101281ADDAY121999GF108991081061002501999999MD1210041+9999MW1021
0070029720999991962010318004+60517+022267FM-12+005499999V0202701N00411220001CN0150001N9-00111-00111101281ADDAY121999GF106991031001999999071061KA1999M-00111MD1210011+9999MW1011
0057029720999991962010321004+60517+022267FM-12+005499999V0202701N00311220001CN0200001N9+00001-00111101381ADDAY101999GF100991001001999999001001MD1210101+9999MW1011
0057029720999991962010400004+60517+022267FM-12+005499999V0202701N00311220001CN0200001N9-00111-00111101441ADDAY101999GF100991001001999999001001MD1210061+9999MW1021
0057029720999991962010403004+60517+022267FM-12+005499999V0202701N00311220001CN0150001N9-00111-00221101411ADDAY101999GF102991021001999999031001MD1710031+9999MW1031
0070029720999991962010406004+60517+022267FM-12+005499999V0202401N00211030001CN0100001N9-00111-00221101231ADDAY121999GF108991031061002501071999KA1999N-00281MD1710181+9999MW1031
0057029720999991962010409004+60517+022267FM-12+005499999V0202201N00211024001CN0150001N9+00001-00111101111ADDAY121999GF108991081001999999021999MD1710121+9999MW1021
0057029720999991962010412004+60517+022267FM-12+005499999V0202701N00211024001CN0200001N9+00001+00001101011ADDAY121999GF105991051001999999071001MD1710111+9999MW1011
0057029720999991962010415004+60517+022267FM-12+005499999V0202701N00311220001CN0200001N9-00111-00221101091ADDAY101999GF102991021001999999041001MD1210081+9999MW1021
0070029720999991962010418004+60517+022267FM-12+005499999V0202901N00311220001CN0200001N9-00221-00281101231ADDAY101999GF103991031001999999041001KA1999M+00001MD1210141+9999MW1021
0057029720999991962010421004+60517+022267FM-12+005499999V0202501N00311030001CN0100001N9-00221-00281101231ADDAY111999GF106991021051008001041001MD1410001+9999MW1031
0057029720999991962010500004+60517+022267FM-12+005499999V0202301N00311002401CN0100001N9-00221-00221101121ADDAY121999GF108991051061002501071999MD1710111+9999MW1021
0057029720999991962010503004+60517+022267FM-12+005499999V0202301N00411030001CN0200001N9-00111-00221100821ADDAY121999GF107991041061002501071999MD1710291+9999MW1021
0070029720999991962010506004+60517+022267FM-12+005499999V0202301N00511030001CN0200001N9+00001-00111100361ADDAY121999GF106991041061002501071999KA1999N-00391MD1710461+9999MW1011
0057029720999991962010509004+60517+022267FM-12+005499999V0202301N00621002401CN0200001N9+00001-00111100081ADDAY121999GF108991071061002501071999MD1710281+9999MW1031
0057029720999991962010512004+60517+022267FM-12+005499999V0202301N00511002401CN0200001N9+00111+00001099771ADDAY121999GF108991081051002501999999MD1710301+9999MW1021
0057029720999991962010515004+60517+022267FM-12+005499999V0202301N00411002401CN0150001N9+00111+00001099461ADDAY121999GF108991071061002501999999MD1710311+9999MW1011
0070029720999991962010518004+60517+022267FM-12+005499999V0202501N00511004501CN0100001N9+00111+00111099211ADDAY121999GF108991081061004501999999KA1999M+00111MD1710251+9999MW1031
0057029720999991962010521004+60517+022267FM-12+005499999V0202501N00511002401CN0100001N9+00111+00111099051ADDAY121999GF108991081061002501999999MD1710161+9999MW1021
0057029720999991962010603004+60517+022267FM-12+005499999V0202701N00311220001CN0200001N9+00111+00111098951ADDAY171999GF102991021061002501001001MD1710031+9999MW1011
0057029720999991962010609004+60517+022267FM-12+005499999V0202701N00411220001CN0400001N9+00001-00221099171ADDAY101999GF101991011001999999041001MD1210141+9999MW1021
0057029720999991962010612004+60517+022267FM-12+005499999V0202701N00311007801CN0400001N9+00111-00111099251ADDAY111999GF107991061051008001041999MD1210081+9999MW1031
0057029720999991962010615004+60517+022267FM-12+005499999V0203201N00311004501CN0300001N9+00001-00111099391ADDAY121999GF107991061051004501041999MD1210141+9999MW1261
0070029720999991962010618004+60517+022267FM-12+005499999V0203601N00211004501CN0300001N9-00221-00281099621ADDAY121999GF108991081051004501999999KA1999M+00221MD1210221+9999MW1031
0057029720999991962010621004+60517+022267FM-12+005499999V0203601N00511004501CN0300001N9-00281-00391099961ADDAY171999GF108991081051004501999999MD1210341+9999MW1021
0057029720999991962010700004+60517+022267FM-12+005499999V0203601N00511002401CN0150001N9-00391-00611100381ADDAY171999GF108991081061002501999999MD1210411+9999MW1711
0057029720999991962010703004+60517+022267FM-12+005499999V0203601N00621004501CN0200001N9-00611-00781100871ADDAY171999GF108991081061004501999999MD1210481+9999MW1021
0081029720999991962010706004+60517+022267FM-12+005499999V0203601N00621004501CN0200001N9-00891-01281101341ADDAA199000691AY121999GF108991081061004501999999KA1999N-01001MD1210461+9999MW1021
0057029720999991962010709004+60517+022267FM-12+005499999V0203201N00211075001CN0400001N9-01221-01391101661ADDAY111999GF106991011001999999041091MD1210311+9999MW1031
0057029720999991962010712004+60517+022267FM-12+005499999V0209991C00001220001CN0500001N9-01111-01281101781ADDAY101999GF104991001001999999001021MD1210131+9999MW1021
0057029720999991962010715004+60517+022267FM-12+005499999V0209991C00001220001CN0500001N9-01391-01611101901ADDAY111999GF105991001001999999001021MD1010101+9999MW1021
0070029720999991962010718004+60517+022267FM-12+005499999V0201401N00211220001CN0300001N9-01391-01501101841ADDAY121999GF106991001001999999001021KA1999M-00781MD1810061+9999MW1021
0057029720999991962010803004+60517+022267FM-12+005499999V0201801N00511002401CN0020001N9+00001+00001100761ADDAY171999GF108991081061002501999999MD1710381+9999MW1731
0081029720999991962010806004+60517+022267FM-12+005499999V0202301N00721002401CN0100001N9+00111+00001100671ADDAA199001091AY171999GF108991081061002501999999KA1999N-01391MD1710091+9999MW1021
0057029720999991962010809004+60517+022267FM-12+005499999V0202301N00411002401CN0070001N9+00111+00001100641ADDAY121999GF108991081051002501999999MD1710031+9999MW1021
0057029720999991962010815004+60517+022267FM-12+005499999V0202301N00311220001CN0200001N9+00001-00111100721ADDAY111999GF101991011001999999041001MD1210151+9999MW1021
0070029720999991962010818004+60517+022267FM-12+005499999V0202201N00411220001CN0200001N9-00221-00281100771ADDAY101999GF100991001001999999001001KA1999M+00221MD1010041+9999MW1011
0057029720999991962010821004+60517+022267FM-12+005499999V0202301N00311220001CN0200001N9+00001-00221100831ADDAY101999GF100991001001999999001001MD1310071+9999MW1021
0057029720999991962010900004+60517+022267FM-12+005499999V0202301N00311220001CN0200001N9-00111-00221100881ADDAY101999GF100991001001999999001001MD1210051+9999MW1021
0057029720999991962010903004+60517+022267FM-12+005499999V0202301N00411004501CN0150001N9+00111+00001100871ADDAY101999GF106991061051004501999999MD1710011+9999MW1031
0070029720999991962010906004+60517+022267FM-12+005499999V0202301N00511002401CN0150001N9+00111+00111100831ADDAY121999GF108991081061002501999999KA1999N-00221MD1710041+9999MW1021
0092029720999991962010909004+60517+022267FM-12+005499999V0202001N00621001501CN0100001N9+00221+00111100821ADDAY121999GF108991081061001501999999MD1710011+9999MW1021EQDQ01+000042APCTENQ02+000012APC3  
0057029720999991962010912004+60517+022267FM-12+005499999V0202201N00511001501CN0100001N9+00221+00001100701ADDAY121999GF108991081061001501999999MD1710121+9999MW1021
0057029720999991962010915004+60517+022267FM-12+005499999V0202201N00511002401CN0100001N9+00221-00111100531ADDAY121999GF108991081061002501999999MD1710171+9999MW1021
0070029720999991962010918004+60517+022267FM-12+005499999V0202001N00621002401CN0100001N9+00281+00111100371ADDAY121999GF108991081071002501999999KA1999M+00281MD1710161+9999MW1211
0057029720999991962010921004+60517+022267FM-12+005499999V0201801N00511002401CN0080001N9+00221+00221100151ADDAY161999GF108991081071002501999999MD1710211+9999MW1621
0057029720999991962011003004+60517+022267FM-12+005499999V0202301N00411004501CN0100001N9+00111+00001999999ADDAY161999GF108991081051004501999999MD1210041+9999MW1021
0081029720999991962011006004+60517+022267FM-12+005499999V0202301N00511002401CN0100001N9+00221+00111100121ADDAA199004091AY121999GF108991081051002501999999KA1999N+00111MD1210111+9999MW1021
0057029720999991962011009004+60517+022267FM-12+005499999V0202301N00311002401CN0150001N9+00221+00111100191ADDAY121999GF108991061061002501071999MD1210071+9999MW1021
0057029720999991962011012004+60517+022267FM-12+005499999V0202301N00411002401CN0150001N9+00221+00111100261ADDAY121999GF108991061061002501071999MD1210071+9999MW1021
0092029720999991962011015004+60517+022267FM-12+005499999V0202001N00511002401CN0150001N9+00221+00111100271ADDAY121999GF108991071061002501071999MD1210011+9999MW1021EQDQ01+000042APCTENQ02+000012APC3  
0070029720999991962011018004+60517+022267FM-12+005499999V0201801N00311030001CN0150001N9+00221-00221100271ADDAY121999GF108991041051008001071999KA1999M+00221MD1410001+9999MW1021
0057029720999991962011021004+60517+022267FM-12+005499999V0201801N00511001501CN0040001N9+00221+00111100171ADDAY151999GF108991081061001501999999MD1710101+9999MW1101
0057029720999991962011100004+60517+022267FM-12+005499999V0201601N00511000151CN0010001N9+00001+00001099951ADDAY171999GF109991091999000251999999MD1710221+9999MW1691
0057029720999991962011103004+60517+022267FM-12+005499999V0201601N00511000151CN0015001N9+00001+00001099751ADDAY171999GF109991091999000251999999MD1710201+9999MW1731
0057029720999991962011109004+60517+022267FM-12+005499999V0201601N00621000601CN0015001N9+00001-00111099561ADDAY171999GF108991081061000751999999MD1710041+9999MW1561
0057029720999991962011112004+60517+022267FM-12+005499999V0201601N00511000601CN0020001N9-00111-00111099491ADDAY151999GF108991081061000751999999MD1710071+9999MW1771
0057029720999991962011115004+60517+022267FM-12+005499999V0201601N00511000151CN0010001N9+00001+00001099391ADDAY171999GF108991081061000251999999MD1710101+9999MW1561
0081029720999991962011118004+60517+022267FM-12+005499999V0201801N00511000151CN0012001N9+00111+00001099241ADDAA199001091AY171999GF108991081061000251999999KA1999M+00111MD1710151+9999MW1611
0057029720999991962011121004+60517+022267FM-12+005499999V0201801N00621001501CN0040001N9+00111+00111099041ADDAY161999GF108991081061001501999999MD1710201+9999MW1021
0057029720999991962011203004+60517+022267FM-12+005499999V0201601N00721001501CN0015001N9+00281+00221098481ADDAY171999GF108991081061001501999999MD1710201+9999MW1101
0081029720999991962011206004+60517+022267FM-12+005499999V0201801N00821002401CN0060001N9+00391+00281098391ADDAA199003091AY171999GF108991081061002501999999KA1999N+00001MD1710091+9999MW1211
0057029720999991962011209004+60517+022267FM-12+005499999V0202001N00821002401CN0150001N9+00391+00221098481ADDAY121999GF108991081061002501999999MD1710091+9999MW1021
0057029720999991962011212004+60517+022267FM-12+005499999V0202201N00821002401CN0150001N9+00391+00221098571ADDAY161999GF108991061061002501071999MD1210091+9999MW1021
0057029720999991962011215004+60517+022267FM-12+005499999V0202201N00821002401CN0200001N9+00281+00001098771ADDAY121999GF108991061051002501071999MD1210201+9999MW1021
0081029720999991962011218004+60517+022267FM-12+005499999V0202301N00721004501CN0200001N9+00281+00001098881ADDAA199000691AY121999GF108991051051004501071999KA1999M+00391MD1210111+9999MW1031
0057029720999991962011221004+60517+022267FM-12+005499999V0202301N00721004501CN0200001N9+00221+00111098881ADDAY121999GF108991051051004501071999MD1410001+9999MW1021
0057029720999991962011300004+60517+022267FM-12+005499999V0202301N00721004501CN0200001N9+00221+00111098841ADDAY121999GF108991081051004501999999MD1810041+9999MW1021
0057029720999991962011303004+60517+022267FM-12+005499999V0201801N00411030001CN0300001N9+00221-00221098741ADDAY121999GF108991041051008001071999MD1710101+9999MW1021
0070029720999991962011306004+60517+022267FM-12+005499999V0201401N00411001501CN0100001N9+00111+00001098531ADDAY121999GF108991081061001501999999KA1999N+00111MD1710211+9999MW1681
0057029720999991962011309004+60517+022267FM-12+005499999V0201201N00411001501CN0015001N9+00001-00111098341ADDAY171999GF108991081061001501999999MD1710201+9999MW1691
0057029720999991962011312004+60517+022267FM-12+005499999V0201201N00511000601CN0012001N9+00001+00001097981ADDAY171999GF108991081061000751999999MD1710361+9999MW1681
0057029720999991962011315004+60517+022267FM-12+005499999V0201401N00411001501CN0030001N9+00001+00001097711ADDAY171999GF108991081061001501999999MD1710271+9999MW1681
0081029720999991962011318004+60517+022267FM-12+005499999V0201801N00311001501CN0040001N9+00001+00001097641ADDAA199004091AY171999GF108991081061001501999999KA1999M+00221MD1710061+9999MW1231
0057029720999991962011321004+60517+022267FM-12+005499999V0201601N00311001501CN0020001N9+00111+00001097611ADDAY121999GF108991081061001501999999MD1210011+9999MW1101
0057029720999991962011400004+60517+022267FM-12+005499999V0201601N00311001501CN0030001N9+00111+00111097531ADDAY161999GF108991081061001501999999MD1710111+9999MW1611
0057029720999991962011403004+60517+022267FM-12+005499999V0200901N00101001501CN0020001N9+00001+00001097461ADDAY161999GF108991081061001501999999MD1710081+9999MW1681
0081029720999991962011406004+60517+022267FM-12+005499999V0209991C00001002401CN0030001N9+00001+00001097601ADDAA199002091AY121999GF108991081061002501999999KA1999N+00001MD1210141+9999MW1681
0057029720999991962011409004+60517+022267FM-12+005499999V0202701N00411000601CN0020001N9+00111+00001097951ADDAY171999GF108991081061000751999999MD1210251+9999MW1681
0057029720999991962011415004+60517+022267FM-12+005499999V0202701N00411001501CN0100001N9+00001+00001098501ADDAY171999GF108991081061001501999999MD1210281+9999MW1021
0081029720999991962011418004+60517+022267FM-12+005499999V0202301N00311007801CN0200001N9+00001-00221098751ADDAA199002091AY121999GF108991081051008001999999KA1999M+00111MD1210251+9999MW1021
0057029720999991962011421004+60517+022267FM-12+005499999V0202301N00101030001CN0200001N9+00001-00111098941ADDAY121999GF108991031051008001071999MD1210191+9999MW1021
0057029720999991962011500004+60517+022267FM-12+005499999V0202301N00101002401CN0150001N9+00001-00111098961ADDAY121999GF108991081061002501999999MD1710021+9999MW1701
0057029720999991962011503004+60517+022267FM-12+005499999V0202301N00211002401CN0100001N9+00001-00111098961ADDAY171999GF108991081061002501999999MD1410001+9999MW1721
0081029720999991962011506004+60517+022267FM-12+005499999V0202701N00211002401CN0050001N9-00111-00221099071ADDAA199001091AY171999GF108991081061002501999999KA1999N-00111MD1210101+9999MW1711
0057029720999991962011509004+60517+022267FM-12+005499999V0202701N00211004501CN0300001N9-00111-00391099281ADDAY171999GF108991081061004501999999MD1210211+9999MW1021
0057029720999991962011512004+60517+022267FM-12+005499999V0202701N00621004501CN0150001N9-00221-00391099421ADDAY121999GF108991081061004501999999MD1210141+9999MW1701
0057029720999991962011515004+60517+022267FM-12+005499999V0203201N00721004501CN0100001N9-00221-00281099671ADDAY171999GF108991081061004501999999MD1210251+9999MW1711
0081029720999991962011518004+60517+022267FM-12+005499999V0202901N00721004501CN0200001N9-00391-00781100011ADDAA199000391AY171999GF107991051051004501071001KA1999M-00111MD1210341+9999MW1021
0057029720999991962011521004+60517+022267FM-12+005499999V0202701N00621004501CN0200001N9-00391-00721100241ADDAY171999GF107991071051004501999999MD1210231+9999MW1711
0057029720999991962011600004+60517+022267FM-12+005499999V0202701N00311220001CN0400001N9-00281-00721100371ADDAY171999GF103991031051004501001001MD1210121+9999MW1011
0057029720999991962011603004+60517+022267FM-12+005499999V0202701N00311220001CN0400001N9-00611-00891100581ADDAY101999GF101991011001999999041001MD1210201+9999MW1011
0081029720999991962011606004+60517+022267FM-12+005499999V0202301N00211220001CN0400001N9-00891-01001100731ADDAA199000691AY101999GF101991011001999999041001KA1999N-01001MD1210141+9999MW1021
0057029720999991962011609004+60517+022267FM-12+005499999V0201801N00211075001CN0100001N9-00721-00891100791ADDAY121999GF106991021051008001041061MD1210071+9999MW1021
0057029720999991962011612004+60517+022267FM-12+005499999V0201801N00311030001CN0150001N9-00391-00611100721ADDAY121999GF107991041051008001041061MD1710061+9999MW1031
0057029720999991962011615004+60517+022267FM-12+005499999V0201401N00411004501CN0070001N9-00281-00391100421ADDAY121999GF108991081051004501999999MD1710301+9999MW1701
0081029720999991962011618004+60517+022267FM-12+005499999V0201801N00821001501CN0030001N9+00111+00001099991ADDAA199001091AY171999GF108991081051001501999999KA1999M+00111MD1710421+9999MW1681
0057029720999991962011621004+60517+022267FM-12+005499999V0202001N01081001501CN0040001N9+00221+00111099561ADDAY171999GF108991081051001501999999MD1710421+9999MW1631
0057029720999991962011700004+60517+022267FM-12+005499999V0202301N00931001501CN0100001N9+00221+00111099341ADDAY161999GF108991081061001501999999MD1710221+9999MW1021
0057029720999991962011703004+60517+022267FM-12+005499999V0202501N00721007801CN0100001N9+00501+00001099371ADDAY121999GF108991081061008001999999MD1210041+9999MW1021
0081029720999991962011706004+60517+022267FM-12+005499999V0202501N00511220001CN0150001N9+00221+00001099481ADDAA199005091AY111999GF101991011051008001001001KA1999N+00111MD1210101+9999MW1011
0057029720999991962011709004+60517+022267FM-12+005499999V0202301N00821075001CN0200001N9+00221+00001099551ADDAY121999GF105991021061004501071011MD1210071+9999MW1031
0057029720999991962011712004+60517+022267FM-12+005499999V0202301N00621002401CN0150001N9+00281+00001099621ADDAY121999GF108991061051002501071999MD1210071+9999MW1021
0057029720999991962011715004+60517+022267FM-12+005499999V0202301N00511004501CN0150001N9+00221+00001099691ADDAY121999GF108991061061004501071999MD1210051+9999MW1021
0070029720999991962011718004+60517+022267FM-12+005499999V0202301N00511004501CN0150001N9+00281+00111099721ADDAY121999GF108991061051004501999999KA1999M+00281MD1210031+9999MW1021
0057029720999991962011721004+60517+022267FM-12+005499999V0202301N00621004501CN0150001N9+00281+00111099811ADDAY161999GF108991081051004501999999MD1210101+9999MW1211
0057029720999991962011800004+60517+022267FM-12+005499999V0202301N00511004501CN0100001N9+00281+00111099961ADDAY121999GF108991081051004501999999MD1210151+9999MW1021
0057029720999991962011803004+60517+022267FM-12+005499999V0202301N00621004501CN0550001N9+00281+00111099961ADDAY121999GF108991081051004501999999MD1410001+9999MW1031
0081029720999991962011806004+60517+022267FM-12+005499999V0202201N00621002401CN0150001N9+00281+00221099841ADDAA199000391AY161999GF108991081061002501999999KA1999N+00221MD1710121+9999MW1021
0057029720999991962011809004+60517+022267FM-12+005499999V0202201N00621001501CN0050001N9+00391+00221099821ADDAY161999GF108991081061001501999999MD1510021+9999MW1211
0057029720999991962011812004+60517+022267FM-12+005499999V0202201N00621002401CN0100001N9+00391+00221099711ADDAY161999GF108991081061002501999999MD1810011+9999MW1021
0057029720999991962011815004+60517+022267FM-12+005499999V0202201N00621001501CN0050001N9+00281+00221099621ADDAY121999GF108991081061001501999999MD1710051+9999MW1101
0081029720999991962011818004+60517+022267FM-12+005499999V0202201N00621002401CN0080001N9+00281+00221099511ADDAA199000691AY121999GF107991051061002501071999KA1999M+00391MD1710111+9999MW1011
0057029720999991962011821004+60517+022267FM-12+005499999V0202201N00721004501CN0100001N9+00391+00221099451ADDAY121999GF108991051051004501071999MD1710061+9999MW1031
0057029720999991962011900004+60517+022267FM-12+005499999V0202201N00721004501CN0150001N9+00281+00111099371ADDAY121999GF108991081051004501999999MD1710081+9999MW1021
0057029720999991962011903004+60517+022267FM-12+005499999V0202201N00511004501CN0150001N9+00281+00111099361ADDAY161999GF108991061051004501071999MD1710011+9999MW1021
0081029720999991962011906004+60517+022267FM-12+005499999V0202501N00621004501CN0200001N9+00221+00001099571ADDAA199000691AY121999GF108991061051004501071999KA1999N+00221MD1210201+9999MW1021
0057029720999991962011909004+60517+022267FM-12+005499999V0202601N00621030001CN0300001N9+00111-00111099761ADDAY121999GF108991031051008001071999MD1210191+9999MW1021
0057029720999991962011912004+60517+022267FM-12+005499999V0202501N00621220001CN0300001N9+00221-00391099891ADDAY101999GF102991021051008001001001MD1210131+9999MW1011
0057029720999991962011915004+60517+022267FM-12+005499999V0202501N00511004501CN0300001N9+00111-00221099931ADDAY121999GF108991081061004501999999MD1210041+9999MW1031
0070029720999991962011918004+60517+022267FM-12+005499999V0202301N00621004501CN0300001N9+00111-00111099831ADDAY121999GF107991051051004501071999KA1999M+00281MD1710101+9999MW1021
0057029720999991962011921004+60517+022267FM-12+005499999V0202301N00511004501CN0300001N9+00221+00001099751ADDAY121999GF107991071051004501999999MD1710081+9999MW1021
0057029720999991962012000004+60517+022267FM-12+005499999V0202001N00411030001CN0300001N9+00111-00111099661ADDAY121999GF107991041051008001071999MD1710091+9999MW1021
0057029720999991962012003004+60517+022267FM-12+005499999V0201801N00211004501CN0300001N9+00111+00001099441ADDAY121999GF108991081051004501999999MD1710221+9999MW1021
0070029720999991962012006004+60517+022267FM-12+005499999V0201401N00211001501CN0080001N9+00001+00001099301ADDAY121999GF108991081061001501999999KA1999N+00001MD1710171+9999MW1681
0057029720999991962012009004+60517+022267FM-12+005499999V0200901N00211001501CN0012001N9+00001+00001099311ADDAY171999GF108991081061001501999999MD1210011+9999MW1731
0057029720999991962012012004+60517+022267FM-12+005499999V0203601N00101001501CN0025001N9+00001+00001099411ADDAY171999GF108991061061001501071999MD1210101+9999MW1221
0057029720999991962012015004+60517+022267FM-12+005499999V0202701N00511002401CN0100001N9+00001+00001099661ADDAY171999GF108991071061002501071999MD1210251+9999MW1701
0081029720999991962012018004+60517+022267FM-12+005499999V0203201N00511030001CN0100001N9-00221-00391099961ADDAA199002091AY171999GF106991041051004501041001KA1999M+00111MD1210291+9999MW1221
0057029720999991962012021004+60517+022267FM-12+005499999V0203201N00411004501CN0150001N9-00391-00611100251ADDAY171999GF106991061051004501001001MD1210281+9999MW1221
0057029720999991962012100004+60517+022267FM-12+005499999V0202701N00511004501CN0150001N9-00391-00721100301ADDAY121999GF107991061051004501041001MD1010051+9999MW1011
0057029720999991962012103004+60517+022267FM-12+005499999V0202701N00311004501CN0150001N9-00391-00611100311ADDAY121999GF108991081051004501999999MD1210011+9999MW1021
0070029720999991962012106004+60517+022267FM-12+005499999V0203601N00211004501CN0200001N9-00391-00721100291ADDAY121999GF108991081051004501999999KA1999N-00611MD1810021+9999MW1021
0057029720999991962012112004+60517+022267FM-12+005499999V0203201N00211004501CN0200001N9-00281-00611100691ADDAY121999GF108991051051004501071999MD1210251+9999MW1021
0057029720999991962012115004+60517+022267FM-12+005499999V0203601N00211220001CN0200001N9-00611-00721100971ADDAY121999GF104991031051004501071011MD1210271+9999MW1011
0081029720999991962012118004+60517+022267FM-12+005499999V0200401N00101220001CN0200001N9-01001-01111101191ADDAA199000391AY101999GF101991011001999999041001KA1999M-00281MD1210211+9999MW1011
0057029720999991962012121004+60517+022267FM-12+005499999V0201401N00101220001CN0200001N9-01221-01281101321ADDAY101999GF100991001001999999001001MD1210121+9999MW1011
0057029720999991962012200004+60517+022267FM-12+005499999V0200901N00311220001CN0200001N9-01281-01391101311ADDAY101999GF100991001001999999001001MD1710011+9999MW1021
0057029720999991962012209004+60517+022267FM-12+005499999V0201401N00621002401CN0300001N9-00611-00781100751ADDAY121999GF108991051061002501021999MD1710171+9999MW1031
0057029720999991962012212004+60517+022267FM-12+005499999V0201201N00821002401CN0040001N9-00391-00891100431ADDAY171999GF108991081061002501999999MD1710311+9999MW1731
0057029720999991962012215004+60517+022267FM-12+005499999V0201201N00931030001CN0015001N9-00391-00891999999ADDAY171999GF108991041051004501071999MD1710421+9999MW1721
0081029720999991962012218004+60517+022267FM-12+005499999V0201201N00931007801CN0012001N9-00391-00501099551ADDAA199000591AY171999GF108991051051008001071999KA1999M-00281MD1710451+9999MW1731
0057029720999991962012221004+60517+022267FM-12+005499999V0201201N01031004501CN0012001N9-00281-00501099031ADDAY171999GF108991081051004501999999MD1710521+9999MW1731
0057029720999991962012300004+60517+022267FM-12+005499999V0201201N00821002401CN0020001N9-00391-00501098511ADDAY171999GF108991081061002501999999MD1710521+9999MW1731
0057029720999991962012303004+60517+022267FM-12+005499999V0200901N00821002401CN0070001N9-00281-00391098111ADDAY171999GF108991081061002501999999MD1710371+9999MW1711
0081029720999991962012306004+60517+022267FM-12+005499999V0200401N00621002401CN0010001N9-00221-00221097711ADDAA199002091AY171999GF108991081061002501999999KA1999N-00391MD1710421+9999MW1731
0057029720999991962012309004+60517+022267FM-12+005499999V0200401N00411002401CN0010001N9-00111-00111097651ADDAY171999GF108991081061002501999999MD1510051+9999MW1681
0057029720999991962012312004+60517+022267FM-12+005499999V0203401N00411002401CN0050001N9-00221-00221097881ADDAY171999GF108991081061002501999999MD1210221+9999MW1711
0057029720999991962012315004+60517+022267FM-12+005499999V0203201N00621002401CN0150001N9-00501-00611098391ADDAY171999GF108991071061002501999999MD1210501+9999MW1021
0081029720999991962012318004+60517+022267FM-12+005499999V0202701N00411002401CN0050001N9-00501-00501098891ADDAA199004091AY171999GF108991081071002501999999KA1999M+00001MD1210501+9999MW1731
0057029720999991962012321004+60517+022267FM-12+005499999V0202701N00411002401CN0100001N9-00281-00391099181ADDAY171999GF108991081071002501999999MD1210311+9999MW1221
0057029720999991962012400004+60517+022267FM-12+005499999V0202701N00311004501CN0150001N9-00391-00501099441ADDAY121999GF108991081061004501999999MD1210261+9999MW1021
0081029720999991962012406004+60517+022267FM-12+005499999V0203201N00211004501CN0200001N9-00501-00611099811ADDAA199001091AY121999GF108991081051004501999999KA1999N-00501MD1210181+9999MW1021
0057029720999991962012409004+60517+022267FM-12+005499999V0203201N00211004501CN0300001N9-00501-00721100041ADDAY171999GF108991081051004501999999MD1210221+9999MW1701
0057029720999991962012412004+60517+022267FM-12+005499999V0203401N00511004501CN0200001N9-00611-00891100171ADDAY171999GF108991051051004501071999MD1210121+9999MW1711
0057029720999991962012415004+60517+022267FM-12+005499999V0203201N00311030001CN0200001N9-00781-00891100361ADDAY171999GF108991041051004501071999MD1210191+9999MW1021
0081029720999991962012418004+60517+022267FM-12+005499999V0203201N00311030001CN0200001N9-00781-01001100551ADDAA199000391AY171999GF108991041051004501071999KA1999M-00391MD1210191+9999MW1021
0057029720999991962012421004+60517+022267FM-12+005499999V0203201N00211030001CN0200001N9-00891-01111100691ADDAY121999GF107991021051008001071999MD1110131+9999MW1021
0057029720999991962012500004+60517+022267FM-12+005499999V0203201N00211030001CN0300001N9-00891-01001100811ADDAY121999GF107991041051008001071999MD1210131+9999MW1021
0057029720999991962012503004+60517+022267FM-12+005499999V0203201N00211004501CN0300001N9-00781-01001100901ADDAY121999GF108991051051004501071999MD1210091+9999MW1021
0081029720999991962012506004+60517+022267FM-12+005499999V0203601N00211004501CN0200001N9-00781-00891101011ADDAA199000691AY171999GF108991061051004501071999KA1999N-01001MD1210101+9999MW1711
0057029720999991962012509004+60517+022267FM-12+005499999V0203201N00211004501CN0200001N9-00781-00891101141ADDAY171999GF108991051051004501071999MD1210131+9999MW1711
0057029720999991962012512004+60517+022267FM-12+005499999V0203201N00211030001CN0200001N9-00721-00891101201ADDAY171999GF108991031051008001071999MD1210071+9999MW1221
0057029720999991962012515004+60517+022267FM-12+005499999V0203401N00211030001CN0200001N9-00721-00891101261ADDAY171999GF108991041051008001071999MD1210061+9999MW1701
0081029720999991962012518004+60517+022267FM-12+005499999V0203201N00101030001CN0200001N9-00721-00891101331ADDAA199000691AY171999GF108991041051008001071999KA1999M-00611MD1210061+9999MW1711
0057029720999991962012600004+60517+022267FM-12+005499999V0203601N00211030001CN0200001N9-00891-01001101341ADDAY121999GF108991041051008001071999MD1210021+9999MW1031
0057029720999991962012603004+60517+022267FM-12+005499999V0203201N00211007801CN0200001N9-00781-00891101311ADDAY121999GF108991051051008001071999MD1710031+9999MW1701
0116029720999991962012606004+60517+022267FM-12+005499999V0203601N00211007801CN0100001N9-00781-00891101321ADDAA199000591AY171999GF108991061051008001071999KA1999N-01111MD1210011+9999MW1711EQDQ01+000042APCTENQ02+000012APC3  
0092029720999991962012609004+60517+022267FM-12+005499999V0203601N00211007801CN0150001N9-00781-01001101341ADDAY171999GF108991061051008001071999MD1210021+9999MW1711EQDQ01+000042APCTENQ02+000022APC3  
0057029720999991962012612004+60517+022267FM-12+005499999V0203601N00101220001CN0200001N9-00781-01001101281ADDAY111999GF102991011001999999041011MD1710061+9999MW1011
0057029720999991962012615004+60517+022267FM-12+005499999V0203601N00101030001CN0110001N9-00891-01001101261ADDAY171999GF108991041051004501021999MD1710021+9999MW1711
0081029720999991962012618004+60517+022267FM-12+005499999V0203601N00101030001CN0150001N9-00891-01111101221ADDAA199000391AY171999GF108991021051004501021999KA1999M-00721MD1710041+9999MW1021
0057029720999991962012621004+60517+022267FM-12+005499999V0203601N00101004501CN0150001N9-00891-01111101171ADDAY121999GF108991051051004501021999MD1710051+9999MW1021
0057029720999991962012700004+60517+022267FM-12+005499999V0203201N00101004501CN0200001N9-00891-01111101131ADDAY121999GF108991061051004501021999MD1710041+9999MW1021
0057029720999991962012703004+60517+022267FM-12+005499999V0203401N00211004501CN0200001N9-01111-01281101091ADDAY121999GF108991071051004501021999MD1710041+9999MW1021
0070029720999991962012706004+60517+022267FM-12+005499999V0200401N00101030001CN0200001N9-01221-01391101041ADDAY121999GF108991041051004501071999KA1999N-01281MD1710051+9999MW1701
0057029720999991962012709004+60517+022267FM-12+005499999V0203601N00101004501CN0120001N9-01221-01501101051ADDAY171999GF108991081051004501999999MD1310011+9999MW1711
0057029720999991962012712004+60517+022267FM-12+005499999V0200401N00211004501CN0100001N9-01221-01391101041ADDAY171999GF108991081051004501999999MD1710011+9999MW1711
0057029720999991962012715004+60517+022267FM-12+005499999V0200201N00411030001CN0150001N9-01281-01611101101ADDAY171999GF107991021051008001041021MD1210051+9999MW1011
0081029720999991962012718004+60517+022267FM-12+005499999V0203601N00311024001CN0200001N9-01391-01721101241ADDAA199000691AY171999GF107991071001999999071999KA1999M-01111MD1210141+9999MW1031
0057029720999991962012721004+60517+022267FM-12+005499999V0203601N00411024001CN0200001N9-01501-01721101351ADDAY121999GF108991081001999999021999MD1210111+9999MW1021
0057029720999991962012803004+60517+022267FM-12+005499999V0203601N00511024001CN0300001N9-01501-01891101691ADDAY121999GF108991081001999999011999MD1210221+9999MW1021
0070029720999991962012806004+60517+022267FM-12+005499999V0203601N00621220001CN0300001N9-01721-02001101901ADDAY101999GF103991031001999999071001KA1999N-01721MD1210211+9999MW1031
0057029720999991962012812004+60517+022267FM-12+005499999V0203601N00821220001CN0500001N9-01501-01891102341ADDAY101999GF102991011051008001001011MD1210191+9999MW1021
0057029720999991962012815004+60517+022267FM-12+005499999V0203601N00511220001CN0300001N9-01501-01781102591ADDAY101999GF102991001001999999001011MD1210251+9999MW1021
0070029720999991962012818004+60517+022267FM-12+005499999V0203601N00721220001CN0300001N9-01501-01781102901ADDAY111999GF103991021001999999041011KA1999M-01501MD1210291+9999MW1021
0057029720999991962012821004+60517+022267FM-12+005499999V0203601N00511220001CN0300001N9-01721-02001103221ADDAY101999GF100991001001999999001001MD1210321+9999MW1011
0057029720999991962012900004+60517+022267FM-12+005499999V0203601N00411220001CN0300001N9-01721-02001103411ADDAY101999GF100991001001999999001001MD1210181+9999MW1021
0057029720999991962012903004+60517+022267FM-12+005499999V0203601N00411220001CN0300001N9-01781-02111103651ADDAY101999GF100991001001999999001001MD1210241+9999MW1021
0070029720999991962012906004+60517+022267FM-12+005499999V0203601N00511220001CN0300001N9-01891-02221103841ADDAY101999GF100991001001999999001001KA1999N-01891MD1210191+9999MW1021
0057029720999991962012909004+60517+022267FM-12+005499999V0200401N00411220001CN0400001N9-01781-02221104031ADDAY101999GF101991001001999999001051MD1210191+9999MW1021
0057029720999991962012912004+60517+022267FM-12+005499999V0200401N00311220001CN0400001N9-01501-01891104091ADDAY101999GF101991001001999999001051MD1210061+9999MW1021
0057029720999991962012915004+60517+022267FM-12+005499999V0200401N00211220001CN0400001N9-01721-01891104141ADDAY101999GF101991001001999999001051MD1210051+9999MW1021
0070029720999991962012918004+60517+022267FM-12+005499999V0203601N00211220001CN0300001N9-02111-02281104191ADDAY101999GF101991001001999999001011KA1999M-01501MD1210041+9999MW1021
0057029720999991962012921004+60517+022267FM-12+005499999V0200901N00311220001CN0300001N9-02111-02281104251ADDAY101999GF100991001001999999001001MD1210061+9999MW1021
0057029720999991962013000004+60517+022267FM-12+005499999V0201601N00101220001CN0300001N9-02391-02611104201ADDAY101999GF100991001001999999001001MD1710061+9999MW1021
0057029720999991962013003004+60517+022267FM-12+005499999V0201601N00101000601CN0015001N9-02001-02221104061ADDAY111999GF107991071061000751999999MD1710131+9999MW1101
0070029720999991962013006004+60517+022267FM-12+005499999V0201801N00101220001CN0030001N9-01891-02111103981ADDAY101999GF102991011061001501031011KA1999N-02611MD1710081+9999MW1101
0057029720999991962013009004+60517+022267FM-12+005499999V0201801N00211024001CN0030001N9-01391-01611103921ADDAY121999GF107991071001999999071999MD1710041+9999MW1101
0057029720999991962013012004+60517+022267FM-12+005499999V0202301N00211220001CN0200001N9-00781-00891103821ADDAY121999GF106991031001999999041061MD1710101+9999MW1011
0057029720999991962013015004+60517+022267FM-12+005499999V0202301N00511220001CN0200001N9-00611-01001103701ADDAY121999GF106991011001999999041061MD1710121+9999MW1011
0070029720999991962013018004+60517+022267FM-12+005499999V0202301N00511220001CN0200001N9-00611-00781103571ADDAY121999GF105991011001999999041061KA1999M-00501MD1710131+9999MW1021
0057029720999991962013021004+60517+022267FM-12+005499999V0202301N00621220001CN0300001N9-00501-00781103511ADDAY121999GF102991001001999999001051MD1710061+9999MW1011
0057029720999991962013100004+60517+022267FM-12+005499999V0202001N00721220001CN0300001N9-00501-00781103361ADDAY101999GF100991001001999999001001MD1710141+9999MW1011
0057029720999991962013103004+60517+022267FM-12+005499999V0202001N00721220001CN0300001N9-00501-00781103301ADDAY101999GF101991011051004501001001MD1710061+9999MW1031
0070029720999991962013106004+60517+022267FM-12+005499999V0203201N00621220001CN0300001N9-00391-00781103161ADDAY101999GF103991031051004501001001KA1999N-00611MD1710141+9999MW1031
0057029720999991962013109004+60517+022267FM-12+005499999V0202301N00721007801CN0300001N9-00281-00721103021ADDAY121999GF107991071051008001999999MD1810131+9999MW1031
0057029720999991962013112004+60517+022267FM-12+005499999V0202301N01031007801CN0300001N9-00221-00611102811ADDAY131999GF107991071051008001999999MD1710211+9999MW1361
0057029720999991962013115004+60517+022267FM-12+005499999V0202101N01031004501CN0300001N9-00111-00611102551ADDAY121999GF108991081051004501999999MD1710261+9999MW1021
0070029720999991962013118004+60517+022267FM-12+005499999V0202201N01081004501CN0300001N9-00111-00611102331ADDAY121999GF108991081051004501999999KA1999M-00111MD1710211+9999MW1021
0057029720999991962013121004+60517+022267FM-12+005499999V0202201N01181004501CN0300001N9-00111-00611102041ADDAY121999GF108991081051004501999999MD1710301+9999MW1021
0057029720999991962020100004+60517+022267FM-12+005499999V0202301N01291004501CN0300001N9-00221-00501101801ADDAY121999GF108991081061004501999999MD1710231+9999MW1021
0057029720999991962020103004+60517+022267FM-12+005499999V0202301N01291004501CN0300001N9-00221-00611101631ADDAY121999GF106991061061004501999999MD1710171+9999MW1011
0070029720999991962020106004+60517+022267FM-12+005499999V0202201N01231004501CN0300001N9-00221-00611101481ADDAY121999GF106991061051004501001001KA1999N-00221MD1710151+9999MW1021
0057029720999991962020109004+60517+022267FM-12+005499999V0202001N01231004501CN0300001N9-00111-00501101441ADDAY121999GF107991071051004501999999MD1710041+9999MW1031
0057029720999991962020112004+60517+022267FM-12+005499999V0202001N01181007801CN0300001N9-00111-00611101361ADDAY121999GF107991071051008001999999MD1710081+9999MW1021
0057029720999991962020115004+60517+022267FM-12+005499999V0202001N01081004501CN0400001N9-00111-00611101271ADDAY121999GF106991061051004501001001MD1710091+9999MW1021
0070029720999991962020118004+60517+022267FM-12+005499999V0202001N01081220001CN0300001N9+00001-00611101201ADDAY121999GF104991041051004501001001KA1999M+00001MD1710071+9999MW1021
0057029720999991962020121004+60517+022267FM-12+005499999V0201801N00981004501CN0300001N9-00221-00501101201ADDAY121999GF108991081051004501999999MD1410001+9999MW1031
0057029720999991962020200004+60517+022267FM-12+005499999V0201801N00821007801CN0300001N9-00221-00501101131ADDAY121999GF108991081051008001999999MD1710071+9999MW1021
0057029720999991962020203004+60517+022267FM-12+005499999V0201801N00981004501CN0300001N9-00281-00501101061ADDAY121999GF108991081051004501999999MD1710071+9999MW1021
0081029720999991962020206004+60517+022267FM-12+005499999V0201601N00621004501CN0070001N9-00391-00391101031ADDAA199000391AY171999GF108991081051004501999999KA1999N-00391MD1710031+9999MW1731
0057029720999991962020209004+60517+022267FM-12+005499999V0201601N00511002401CN0010001N9-00281-00281101121ADDAY171999GF108991081061002501999999MD1210091+9999MW1731
0057029720999991962020212004+60517+022267FM-12+005499999V0201901N00311002401CN0030001N9-00111-00221101191ADDAY171999GF108991081061002501999999MD1210071+9999MW1711
0057029720999991962020215004+60517+022267FM-12+005499999V0201701N00511001501CN0015001N9-00111-00221101261ADDAY171999GF108991081061001501999999MD1210071+9999MW1771
0081029720999991962020218004+60517+022267FM-12+005499999V0202001N00411001501CN0020001N9-00111-00111101341ADDAA199002091AY171999GF108991081061001501999999KA1999M+00001MD1210081+9999MW1711
0057029720999991962020221004+60517+022267FM-12+005499999V0202701N00101001501CN0050001N9-00111-00221101421ADDAY171999GF108991081061001501999999MD1210081+9999MW1711
0057029720999991962020300004+60517+022267FM-12+005499999V0202701N00101001501CN0100001N9-00221-00281101491ADDAY171999GF108991081061001501999999MD1210071+9999MW1021
0057029720999991962020303004+60517+022267FM-12+005499999V0202201N00211001501CN0100001N9-00221-00281101491ADDAY121999GF108991081061001501999999MD1410001+9999MW1021
0081029720999991962020306004+60517+022267FM-12+005499999V0202201N00211001501CN0150001N9-00221-00281101571ADDAA199000591AY121999GF108991081061001501999999KA1999N-00221MD1210081+9999MW1021
0057029720999991962020309004+60517+022267FM-12+005499999V0202301N00311001501CN0200001N9-00281-00391101601ADDAY141999GF107991071071001501999999MD1210021+9999MW1021
0057029720999991962020312004+60517+022267FM-12+005499999V0202301N00511002401CN0200001N9-00221-00391101491ADDAY121999GF107991051071002501031999MD1710101+9999MW1021
0057029720999991962020315004+60517+022267FM-12+005499999V0202301N00621002401CN0200001N9-00111-00221101301ADDAY121999GF108991081061002501999999MD1710191+9999MW1031
0081029720999991962020318004+60517+022267FM-12+005499999V0202301N00621004501CN0200001N9-00111-00221101191ADDAA199000691AY171999GF108991081051004501999999KA1999M-00111MD1710111+9999MW1711
0057029720999991962020321004+60517+022267FM-12+005499999V0202301N00511004501CN0200001N9-00111-00281101111ADDAY171999GF108991081051004501999999MD1710071+9999MW1021
0057029720999991962020400004+60517+022267FM-12+005499999V0202001N00511004501CN0200001N9+00001-00281100921ADDAY171999GF108991081051004501999999MD1710191+9999MW1021
0057029720999991962020403004+60517+022267FM-12+005499999V0201801N00721004501CN0200001N9+00111-00111100621ADDAY121999GF108991081051004501999999MD1710301+9999MW1021
0081029720999991962020406004+60517+022267FM-12+005499999V0201801N00721004501CN0100001N9+00001-00281100291ADDAA199000691AY121999GF108991081051004501999999KA1999N-00111MD1710331+9999MW1721
0057029720999991962020409004+60517+022267FM-12+005499999V0201801N00931002401CN0010001N9+00001+00001099861ADDAY171999GF108991081061002501999999MD1710421+9999MW1731
0057029720999991962020412004+60517+022267FM-12+005499999V0201801N00931002401CN0010001N9+00001-00111099471ADDAY171999GF108991081061002501999999MD1710391+9999MW1731
0057029720999991962020415004+60517+022267FM-12+005499999V0201801N00821002401CN0010001N9+00001+00001099131ADDAY171999GF108991081061002501999999MD1710341+9999MW1731
0081029720999991962020418004+60517+022267FM-12+005499999V0202001N00721002401CN0060001N9+00001+00001099051ADDAA199004091AY171999GF108991081061002501999999KA1999M+00111MD1510081+9999MW1681
0057029720999991962020421004+60517+022267FM-12+005499999V0202701N00821002401CN0040001N9+00001+00001099341ADDAY171999GF108991081061002501999999MD1210311+9999MW1681
0057029720999991962020500004+60517+022267FM-12+005499999V0202501N00621220001CN0300001N9+00001-00221099761ADDAY171999GF100991001001999999001001MD1210421+9999MW1011
0057029720999991962020503004+60517+022267FM-12+005499999V0202401N00511220001CN0300001N9-00221-00281099971ADDAY101999GF100991001001999999001001MD1210201+9999MW1021
0081029720999991962020506004+60517+022267FM-12+005499999V0202301N00211220001CN0300001N9-00501-00611100051ADDAA199000591AY101999GF101991011001999999041001KA1999N-00501MD1210071+9999MW1031
0057029720999991962020509004+60517+022267FM-12+005499999V0202301N00411001501CN0150001N9-00221-00281100101ADDAY121999GF108991081061001501999999MD1210061+9999MW1011
0057029720999991962020512004+60517+022267FM-12+005499999V0202201N00411004501CN0150001N9+00001-00221100131ADDAY121999GF108991081061004501999999MD1210041+9999MW1701
0057029720999991962020515004+60517+022267FM-12+005499999V0201601N00311004501CN0080001N9+00001-00111100211ADDAY171999GF108991081061004501999999MD1210071+9999MW1021
0081029720999991962020518004+60517+022267FM-12+005499999V0201401N00211004501CN0080001N9+00001+00001100261ADDAA199000691AY171999GF108991081061004501999999KA1999M+00001MD1210051+9999MW1021
0057029720999991962020521004+60517+022267FM-12+005499999V0201801N00511004501CN0100001N9+00001+00001100351ADDAY121999GF108991081061004501999999MD1210091+9999MW1021
0057029720999991962020600004+60517+022267FM-12+005499999V0201401N00511002401CN0100001N9-00111-00221100351ADDAY121999GF108991081061002501999999MD1410001+9999MW1021
0057029720999991962020603004+60517+022267FM-12+005499999V0201401N00211002401CN0100001N9-00111-00281100481ADDAY121999GF108991081061002501999999MD1210131+9999MW1021
0070029720999991962020606004+60517+022267FM-12+005499999V0201401N00101007801CN0150001N9-00221-00391100611ADDAY121999GF108991081051008001999999KA1999N-00221MD1210121+9999MW1021
0057029720999991962020609004+60517+022267FM-12+005499999V0201401N00311004501CN0150001N9-00221-00391100701ADDAY121999GF108991081051004501999999MD1210091+9999MW1021
0057029720999991962020612004+60517+022267FM-12+005499999V0201401N00211075001CN0040001N9-00111-00281100801ADDAY121999GF107991041051004501001071MD1210101+9999MW1771
0057029720999991962020615004+60517+022267FM-12+005499999V0201401N00101004501CN0100001N9-00221-00281100921ADDAY171999GF107991071061004501999999MD1210121+9999MW1221
0081029720999991962020618004+60517+022267FM-12+005499999V0201401N00101220001CN0200001N9-00391-00501101021ADDAA199000591AY121999GF102991021051004501001001KA1999M-00111MD1210101+9999MW1011
0057029720999991962020621004+60517+022267FM-12+005499999V0201601N00101000151CN0002001N9-00391-00501101091ADDAY121999GF109991091999000251999999MD1210071+9999MW1471
0092029720999991962020700004+60517+022267FM-12+005499999V0201401N00101004501CN0030001N9-00391-00501101111ADDAY141999GF108991081051004501999999MD1210021+9999MW1101EQDQ01+000042APCTENQ02+000022APC3  
0057029720999991962020703004+60517+022267FM-12+005499999V0201801N00211004501CN0200001N9-00391-00501101051ADDAY121999GF108991081051004501999999MD1810061+9999MW1011
0070029720999991962020706004+60517+022267FM-12+005499999V0201801N00411004501CN0200001N9-00221-00281100871ADDAY121999GF107991061051004501071999KA1999N-00501MD1710181+9999MW1021
0057029720999991962020709004+60517+022267FM-12+005499999V0202001N00931002401CN0200001N9+00001-00221100771ADDAY121999GF108991081051002501999999MD1710091+9999MW1021
0057029720999991962020712004+60517+022267FM-12+005499999V0201901N00931002401CN0010001N9+00001+00001100591ADDAY171999GF108991081061002501999999MD1710181+9999MW1691
0057029720999991962020715004+60517+022267FM-12+005499999V0202001N00821000601CN0030001N9+00111+00111100501ADDAY161999GF108991081061000751999999MD1710091+9999MW1581
0081029720999991962020718004+60517+022267FM-12+005499999V0201801N00821000601CN0015001N9+00221+00221100471ADDAA199002091AY121999GF108991081061000751999999KA1999M+00221MD1710031+9999MW1101
0057029720999991962020721004+60517+022267FM-12+005499999V0202001N00721000601CN0008001N9+00221+00221100421ADDAY141999GF108991081061000751999999MD1710051+9999MW1501
0057029720999991962020800004+60517+022267FM-12+005499999V0202001N00721000151CN0005001N9+00221+00221100331ADDAY151999GF109991091999000251999999MD1710091+9999MW1451
0057029720999991962020803004+60517+022267FM-12+005499999V0202001N00721000601CN0015001N9+00221+00221100211ADDAY141999GF108991081061000751999999MD1710121+9999MW1511
0081029720999991962020806004+60517+022267FM-12+005499999V0201801N00821000601CN0035001N9+00221+00111100071ADDAA199001091AY151999GF108991081061000751999999KA1999N+00111MD1710131+9999MW1631
0057029720999991962020809004+60517+022267FM-12+005499999V0201901N00821001501CN0050001N9+00221+00221100011ADDAY151999GF108991081061001501999999MD1710061+9999MW1631
0057029720999991962020812004+60517+022267FM-12+005499999V0202001N00981001501CN0050001N9+00221+00221099911ADDAY161999GF108991081061001501999999MD1710101+9999MW1631
0057029720999991962020815004+60517+022267FM-12+005499999V0202001N00721001501CN0030001N9+00111+00111099901ADDAY161999GF108991081061001501999999MD1710011+9999MW1681
0081029720999991962020818004+60517+022267FM-12+005499999V0202201N00411000151CN0010001N9+00111+00111100061ADDAA199012091AY171999GF108991081061000251999999KA1999M+00221MD1210161+9999MW1531
0057029720999991962020821004+60517+022267FM-12+005499999V0202701N00311001501CN0040001N9+00001+00001100271ADDAY171999GF108991081061001501999999MD1210201+9999MW1731
0057029720999991962020900004+60517+022267FM-12+005499999V0203201N00311002401CN0030001N9+00001+00001100541ADDAY171999GF108991081061002501999999MD1210271+9999MW1731
0057029720999991962020903004+60517+022267FM-12+005499999V0203201N00311220001CN0150001N9-00111-00111100821ADDAY171999GF100991001001999999001001MD1210281+9999MW1011
0081029720999991962020906004+60517+022267FM-12+005499999V0203201N00211220001CN0200001N9-00281-00391101091ADDAA199001091AY101999GF102991021001999999041001KA1999N-00391MD1210251+9999MW1031
0057029720999991962020909004+60517+022267FM-12+005499999V0202701N00101220001CN0300001N9-00111-00221101371ADDAY101999GF101991011051004501041001MD1210291+9999MW1011
0057029720999991962020912004+60517+022267FM-12+005499999V0202701N00211002401CN0300001N9+00111-00111101571ADDAY121999GF106991051061002501001011MD1210211+9999MW1031
0057029720999991962020915004+60517+022267FM-12+005499999V0202301N00311075001CN0200001N9-00111-00111101751ADDAY121999GF107991021061001501001071MD1210171+9999MW1011
0105029720999991962020918004+60517+022267FM-12+005499999V0202001N00411220001CN0150001N9-00221-00281101741ADDAY121999GF105991001001999999001021KA1999M+00221MD1710011+9999MW1011EQDQ01+000042APCTENQ02+000012APC3  
0057029720999991962020921004+60517+022267FM-12+005499999V0202001N00511024001CN0150001N9-00111-00281101671ADDAY121999GF107991071001999999011999MD1710071+9999MW1031
0057029720999991962021000004+60517+022267FM-12+005499999V0202001N00721030001CN0100001N9+00111-00111101491ADDAY171999GF108991041051004501021999MD1710181+9999MW1711
0057029720999991962021003004+60517+022267FM-12+005499999V0202201N00821002401CN0200001N9+00111+00001101391ADDAY171999GF108991081061002501999999MD1710091+9999MW1021
0081029720999991962021006004+60517+022267FM-12+005499999V0202301N00721002401CN0200001N9+00111+00001101251ADDAA199000691AY121999GF108991081061002501999999KA1999N-00281MD1710141+9999MW1021
0057029720999991962021009004+60517+022267FM-12+005499999V0202301N00621000601CN0015001N9+00111+00111101211ADDAY121999GF108991081061000751999999MD1710041+9999MW1511
0057029720999991962021012004+60517+022267FM-12+005499999V0202301N00511000151CN0006001N9+00111+00111100961ADDAY151999GF109991091999000251999999MD1710251+9999MW1451
0057029720999991962021015004+60517+022267FM-12+005499999V0202301N00621000151CN0004001N9+00221+00221100801ADDAY141999GF109991091999000251999999MD1710161+9999MW1451
0081029720999991962021018004+60517+022267FM-12+005499999V0202301N00511000601CN0020001N9+00221+00221100621ADDAA199000391AY141999GF108991081061000751999999KA1999M+00221MD1710181+9999MW1601
0057029720999991962021100004+60517+022267FM-12+005499999V0202301N00411002401CN0100001N9+00281+00221100341ADDAY121999GF108991081061002501999999MD1710151+9999MW1021
0057029720999991962021103004+60517+022267FM-12+005499999V0202301N00511001501CN0040001N9+00221+00221100081ADDAY121999GF108991081061001501999999MD1710261+9999MW1101
0081029720999991962021106004+60517+022267FM-12+005499999V0202301N00621001501CN0100001N9+00221+00221099851ADDAA199000391AY121999GF108991081061001501999999KA1999N+00221MD1710221+9999MW1021
0057029720999991962021109004+60517+022267FM-12+005499999V0202301N00511001501CN0150001N9+00221+00111099701ADDAY121999GF107991071061001501999999MD1710151+9999MW1011
0057029720999991962021112004+60517+022267FM-12+005499999V0203001N00721002401CN0300001N9+00111+00001099811ADDAY151999GF107991061061002501041001MD1210111+9999MW1851
0057029720999991962021115004+60517+022267FM-12+005499999V0202701N00511220001CN0500001N9+00111-00281099861ADDAY181999GF104991031061004501041001MD1210051+9999MW1021
0081029720999991962021118004+60517+022267FM-12+005499999V0202301N00311220001CN0500001N9+00001-00221099931ADDAA199000691AY111999GF102991021001999999041001KA1999M+00221MD1210071+9999MW1011
0057029720999991962021200004+60517+022267FM-12+005499999V0202301N00411220001CN0500001N9-00221-00501099711ADDAY101999GF100991001001999999001001MD1710131+9999MW1011
0057029720999991962021203004+60517+022267FM-12+005499999V0202001N00511220001CN0500001N9-00221-00501099301ADDAY101999GF100991001001999999001001MD1710411+9999MW1021
0092029720999991962021209004+60517+022267FM-12+005499999V0201601N00821002401CN0008001N9+00001-00111097902ADDAY171999GF108991081061002501999999MD1710792+9999MW1731EQDQ01+097903APOSLPQ02+000792APC3  
0076029720999991962021212004+60517+022267FM-12+005499999V0201601N00931002401CN0008001N9-00111-00221999999ADDAY171999GF108991081061002501999999MD1710991+9999MW1731EQDQ01 096883APOSLP
0092029720999991962021215004+60517+022267FM-12+005499999V0201201N00931000151CN0006001N9-00221-00221999999ADDAY171999GF109991091999000251999999MD1710992+9999MW1751EQDQ01+095893APOSLPQ02+000992APC3  
0057029720999991962021221004+60517+022267FM-12+005499999V0200701N00621002401CN0020001N9-00111-00111104722ADDAY171999GF108991081061002501999999MD1710341+9999MW1731
0057029720999991962021300004+60517+022267FM-12+005499999V0200401N00511002401CN0025001N9-00111-00111104651ADDAY171999GF108991081061002501999999MD1710071+9999MW1731
0057029720999991962021303004+60517+022267FM-12+005499999V0203601N00511002401CN0020001N9-00111-00111104741ADDAY171999GF108991081061002501999999MD1210091+9999MW1731
0100029720999991962021306004+60517+022267FM-12+005499999V0203601N00411002401CN0030001N9-00111-00111095012ADDAA199007091AY171999GF108991081061002501999999KA1999N-00221MD1210271+9999MW1711EQDQ01+095013APOSLP
0057029720999991962021309004+60517+022267FM-12+005499999V0203601N00621002401CN0015001N9-00111-00221095341ADDAY171999GF108991081061002501999999MD1210321+9999MW1731
0057029720999991962021312004+60517+022267FM-12+005499999V0203401N00721002401CN0040001N9-00221-00281095681ADDAY171999GF108991081061002501999999MD1210341+9999MW1711
0057029720999991962021321004+60517+022267FM-12+005499999V0203201N00511002401CN0100001N9-00611-00721096911ADDAY171999GF108991051061002501021999MD1210401+9999MW1731
0057029720999991962021400004+60517+022267FM-12+005499999V0203401N00621030001CN0100001N9-00721-00891097301ADDAY171999GF108991041061004501011999MD1210381+9999MW1771
0057029720999991962021403004+60517+022267FM-12+005499999V0203201N00511004501CN0070001N9-00721-00891097701ADDAY171999GF108991051061004501021999MD1210401+9999MW1731
0081029720999991962021406004+60517+022267FM-12+005499999V0203401N00621004501CN0100001N9-00721-00891098171ADDAA199000591AY171999GF108991061061004501021999KA1999N-00781MD1210461+9999MW1711
0057029720999991962021409004+60517+022267FM-12+005499999V0203401N00721030001CN0100001N9-00721-00891098631ADDAY171999GF108991031071004501071999MD1210471+9999MW1021
0057029720999991962021412004+60517+022267FM-12+005499999V0203601N00721002401CN0100001N9-00611-01001099061ADDAY171999GF107991051061002501001071MD1210431+9999MW1701
0057029720999991962021415004+60517+022267FM-12+005499999V0203401N00621030001CN0100001N9-00611-01001099501ADDAY171999GF107991041061004501011071MD1210431+9999MW1701
0081029720999991962021418004+60517+022267FM-12+005499999V0203401N00721024001CN0150001N9-00721-01001099951ADDAA199000691AY121999GF107991051001999999041071KA1999M-00501MD1210451+9999MW1011
0057029720999991962021421004+60517+022267FM-12+005499999V0203401N00621004501CN0080001N9-00721-01001100331ADDAY171999GF108991061051004501021999MD1210381+9999MW1711
0057029720999991962021503004+60517+022267FM-12+005499999V0203401N00511220001CN0500001N9-01111-01391100921ADDAY101999GF100991001001999999001001MD1210271+9999MW1021
0081029720999991962021506004+60517+022267FM-12+005499999V0203201N00411220001CN0500001N9-01281-01611101211ADDAA199000691AY101999GF100991001001999999001001KA1999N-01391MD1210281+9999MW1021
0057029720999991962021509004+60517+022267FM-12+005499999V0203401N00311220001CN0500001N9-01001-01391101251ADDAY101999GF101991011051000251001001MD1210051+9999MW1021
0057029720999991962021512004+60517+022267FM-12+005499999V0203201N00411220001CN0500001N9-00891-01281101251ADDAY101999GF101991011001999999041001MD1410001+9999MW1021
0057029720999991962021515004+60517+022267FM-12+005499999V0203601N00621220001CN0500001N9-00781-01281101151ADDAY101999GF103991031001999999041051MD1710091+9999MW1031
0057029720999991962021521004+60517+022267FM-12+005499999V0201601N00511220001CN0300001N9-01391-01611100601ADDAY101999GF104991041001999999041001MD1710351+9999MW1031
0057029720999991962021600004+60517+022267FM-12+005499999V0201401N00621004501CN0070001N9-01111-01391099931ADDAY171999GF108991051061004501011999MD1710651+9999MW1731
0057029720999991962021603004+60517+022267FM-12+005499999V0201801N00621002401CN0020001N9-00501-01611099101ADDAY171999GF108991081061002501999999MD1710821+9999MW1731
0081029720999991962021606004+60517+022267FM-12+005499999V0201601N00821002401CN0010001N9-00391-00501098301ADDAA199001091AY171999GF108991081061002501999999KA1999N-01501MD1710791+9999MW1751
0057029720999991962021609004+60517+022267FM-12+005499999V0201601N01131002401CN0009001N9-00281-00391097411ADDAY171999GF108991081061002501999999MD1710881+9999MW1731
0057029720999991962021612004+60517+022267FM-12+005499999V0201601N01181001501CN0004001N9-00391-00391096551ADDAY141999GF109991091999001501999999MD1710851+9999MW1751
0057029720999991962021615004+60517+022267FM-12+005499999V0201401N01081001501CN0004001N9-00391-00501096021ADDAY131999GF109991091999001501999999MD1710531+9999MW1751
0081029720999991962021618004+60517+022267FM-12+005499999V0201201N01081001501CN0006001N9-00501-00611095731ADDAA199006091AY131999GF109991091999001501999999KA1999M-00281MD1710291+9999MW1751
0076029720999991962021621004+60517+022267FM-12+005499999V0200901N00981001501CN0015001N9-00501-00611095731ADDAY171999GF109991091999001501999999MD1410001+9999MW1751EQDQ01+000062APCTEN
0057029720999991962021700004+60517+022267FM-12+005499999V0200701N00821001501CN0040001N9-00391-00391095951ADDAY171999GF108991081061001501999999MD1210221+9999MW1711
0057029720999991962021703004+60517+022267FM-12+005499999V0200401N00821001501CN0100001N9-00391-00501096261ADDAY171999GF108991081061001501999999MD1210311+9999MW1711
0081029720999991962021706004+60517+022267FM-12+005499999V0200401N00981002401CN0100001N9-00501-00611096731ADDAA199006091AY171999GF108991081061002501999999KA1999N-00501MD1210471+9999MW1711
0057029720999991962021709004+60517+022267FM-12+005499999V0200401N00821004501CN0200001N9-00611-00891097321ADDAY171999GF107991051051004501071999MD1210571+9999MW1021
0057029720999991962021712004+60517+022267FM-12+005499999V0200201N00931004501CN0150001N9-00721-00891097821ADDAY171999GF108991071051004501071999MD1210501+9999MW1361
0057029720999991962021715004+60517+022267FM-12+005499999V0200201N00821030001CN0200001N9-00721-01001098341ADDAY171999GF107991041051004501071021MD1210521+9999MW1701
0081029720999991962021718004+60517+022267FM-12+005499999V0203601N00821004501CN0100001N9-00891-01221098891ADDAA199001091AY171999GF108991061051004501071999KA1999M-00391MD1210541+9999MW1731
0057029720999991962021721004+60517+022267FM-12+005499999V0203601N00721030001CN0100001N9-01001-01281099281ADDAY171999GF107991041061004501071061MD1210381+9999MW1711
0057029720999991962021800004+60517+022267FM-12+005499999V0203601N00721220001CN0150001N9-01111-01391099571ADDAY171999GF103991011001999999031051MD1210291+9999MW1011
0057029720999991962021803004+60517+022267FM-12+005499999V0203401N00821004501CN0100001N9-01001-01281099931ADDAY121999GF108991061051004501071999MD1210361+9999MW1701
0081029720999991962021806004+60517+022267FM-12+005499999V0203401N00721220001CN0200001N9-01221-01391100361ADDAA199000391AY111999GF104991041001999999071001KA1999N-01221MD1210421+9999MW1011
0057029720999991962021809004+60517+022267FM-12+005499999V0203401N00621220001CN0300001N9-01001-01391100631ADDAY111999GF103991011001999999041051MD1210271+9999MW1011
0057029720999991962021812004+60517+022267FM-12+005499999V0203601N00771220001CN0400001N9-00781-01281100841ADDAY101999GF103991021051004501041001MD1210221+9999MW1021
0057029720999991962021815004+60517+022267FM-12+005499999V0203401N00461220001CN0400001N9-00891-01281101051ADDAY101999GF101991011051004501041001MD1210201+9999MW1011
0070029720999991962021818004+60517+022267FM-12+005499999V0203201N00311220001CN0400001N9-01221-01391101151ADDAY101999GF101991001001999999001011KA1999M-00781MD1210101+9999MW1021
0057029720999991962021821004+60517+022267FM-12+005499999V0203201N00311220001CN0300001N9-01391-01611101221ADDAY101999GF100991001001999999001001MD1210061+9999MW1021
0057029720999991962021900004+60517+022267FM-12+005499999V0209991C00001220001CN0200001N9-01721-01891101201ADDAY101999GF100991001001999999001001MD1710021+9999MW1111
0057029720999991962021903004+60517+022267FM-12+005499999V0202701N00211220001CN0200001N9-01891-02111101191ADDAY101999GF100991001001999999001001MD1710021+9999MW1021
0070029720999991962021906004+60517+022267FM-12+005499999V0201401N00211220001CN0150001N9-02391-02611101151ADDAY101999GF104991021051004501041001KA1999N-02391MD1710061+9999MW1031
0057029720999991962021909004+60517+022267FM-12+005499999V0201401N00311220001CN0300001N9-01111-01281101131ADDAY101999GF104991041001999999041011MD1210011+9999MW1021
0057029720999991962021912004+60517+022267FM-12+005499999V0201801N00311024001CN0300001N9-00721-01111101041ADDAY121999GF107991071001999999071001MD1810071+9999MW1021
0057029720999991962021915004+60517+022267FM-12+005499999V0201401N00411024001CN0200001N9-00501-00721100921ADDAY121999GF108991081001999999071999MD1710121+9999MW1031
0081029720999991962021918004+60517+022267FM-12+005499999V0201401N00411001501CN0060001N9-00391-00501100761ADDAA199000691AY171999GF108991081061001501999999KA1999M-00391MD1710151+9999MW1771
0057029720999991962021921004+60517+022267FM-12+005499999V0201601N00511001501CN0020001N9-00221-00281100531ADDAY171999GF108991081061001501999999MD1710231+9999MW1731
0057029720999991962022000004+60517+022267FM-12+005499999V0201801N00621001501CN0020001N9-00111-00221100241ADDAY171999GF108991081061001501999999MD1710291+9999MW1571
0057029720999991962022003004+60517+022267FM-12+005499999V0201801N00411001501CN0070001N9+00001+00001099871ADDAY151999GF108991081061001501999999MD1710341+9999MW1241
0081029720999991962022006004+60517+022267FM-12+005499999V0202001N00511000601CN0010001N9+00001+00001099571ADDAA199001091AY171999GF109991091999000751999999KA1999N-00391MD1710311+9999MW1681
0057029720999991962022009004+60517+022267FM-12+005499999V0203201N00411001501CN0200001N9+00001-00111099571ADDAY121999GF108991081061001501999999MD1410001+9999MW1021
0057029720999991962022012004+60517+022267FM-12+005499999V0203201N00411030001CN0200001N9+00221+00001099671ADDAY121999GF107991031061001501071999MD1210101+9999MW1021
0057029720999991962022015004+60517+022267FM-12+005499999V0203201N00821001501CN0060001N9-00111-00221099971ADDAY171999GF108991081061001501999999MD1210301+9999MW1681
0081029720999991962022018004+60517+022267FM-12+005499999V0203401N01081001501CN0060001N9-00281-00501100591ADDAA199000391AY171999GF108991081061001501999999KA1999M+00221MD1210601+9999MW1711
0092029720999991962022100004+60517+022267FM-12+005499999V0203601N00821030001CN0100001N9-00721-01111101872ADDAY171999GF108991041051004501071999MD1210602+9999MW1021EQDQ01+101873APOSLPQ02+000602APC3  
0057029720999991962022103004+60517+022267FM-12+005499999V0203601N00821002401CN0060001N9-00781-01221102431ADDAY121999GF108991081061002501999999MD1210551+9999MW1701
0081029720999991962022106004+60517+022267FM-12+005499999V0203601N00621220001CN0300001N9-00891-01281102911ADDAA199000691AY121999GF103991031001999999041001KA1999N-01001MD1210481+9999MW1011
0057029720999991962022109004+60517+022267FM-12+005499999V0200301N00621002401CN0150001N9-01001-01391103241ADDAY171999GF105991051061002501001001MD1210321+9999MW1711
0057029720999991962022112004+60517+022267FM-12+005499999V0200401N00621220001CN0200001N9-00891-01391103511ADDAY171999GF101991011051004501001001MD1210271+9999MW1021
0057029720999991962022115004+60517+022267FM-12+005499999V0200401N00621220001CN0200001N9-00891-01391103791ADDAY101999GF100991001001999999001001MD1210281+9999MW1021
0081029720999991962022118004+60517+022267FM-12+005499999V0203601N00411220001CN0200001N9-01111-01391104021ADDAA199000691AY101999GF104991001001999999001011KA1999M-00781MD1210331+9999MW1021
0057029720999991962022121004+60517+022267FM-12+005499999V0203601N00511220001CN0300001N9-01281-01501104391ADDAY101999GF100991001001999999001001MD1210261+9999MW1011
0057029720999991962022200004+60517+022267FM-12+005499999V0203601N00311220001CN0300001N9-01501-01611104541ADDAY101999GF100991001001999999001001MD1210131+9999MW1021
0057029720999991962022203004+60517+022267FM-12+005499999V0203601N00311220001CN0300001N9-01611-01781104681ADDAY101999GF102991001001999999001011MD1210141+9999MW1031
0070029720999991962022206004+60517+022267FM-12+005499999V0200401N00311220001CN0200001N9-01721-01891104791ADDAY101999GF104991001001999999001011KA1999N-01781MD1210101+9999MW1021
0057029720999991962022212004+60517+022267FM-12+005499999V0200201N00311220001CN0300001N9-00501-01001104761ADDAY101999GF100991001001999999001001MD1810031+9999MW1011
0057029720999991962022215004+60517+022267FM-12+005499999V0200201N00411220001CN0300001N9-00501-01111104731ADDAY101999GF100991001001999999001001MD1710031+9999MW1021
0070029720999991962022218004+60517+022267FM-12+005499999V0203601N00311220001CN0300001N9-01001-01221104761ADDAY101999GF100991001001999999001001KA1999M-00281MD1210011+9999MW1021
0057029720999991962022221004+60517+022267FM-12+005499999V0203601N00211220001CN0300001N9-01221-01281104721ADDAY101999GF100991001001999999001001MD1810041+9999MW1021
0057029720999991962022300004+60517+022267FM-12+005499999V0203601N00311220001CN0300001N9-01281-01501104651ADDAY101999GF100991001001999999001001MD1710081+9999MW1021
0057029720999991962022303004+60517+022267FM-12+005499999V0203601N00211220001CN0300001N9-01501-01721104551ADDAY101999GF100991001001999999001001MD1710101+9999MW1021
0070029720999991962022306004+60517+022267FM-12+005499999V0203601N00311220001CN0300001N9-01611-01781104421ADDAY101999GF101991011051008001001001KA1999N-01721MD1710131+9999MW1031
0057029720999991962022309004+60517+022267FM-12+005499999V0203601N00211024001CN0400001N9-01001-01111104361ADDAY111999GF105991051001999999051001MD1710051+9999MW1031
0057029720999991962022312004+60517+022267FM-12+005499999V0200201N00211220001CN0400001N9-00501-01001104251ADDAY101999GF102991011001999999041011MD1710091+9999MW1011
0057029720999991962022315004+60517+022267FM-12+005499999V0203601N00311220001CN0400001N9-00281-00781104111ADDAY101999GF102991011001999999041011MD1710141+9999MW1021
0070029720999991962022318004+60517+022267FM-12+005499999V0203601N00411001501CN0100001N9-00781-00781104061ADDAY111999GF108991081071001501999999KA1999M-00281MD1710051+9999MW1031
0057029720999991962022321004+60517+022267FM-12+005499999V0200201N00511220001CN0300001N9-00781-00891104141ADDAY111999GF101991001001999999001011MD1210081+9999MW1011
0057029720999991962022400004+60517+022267FM-12+005499999V0200201N00411024001CN0300001N9-00781-00891104171ADDAY111999GF106991061001999999071001MD1210031+9999MW1031
0057029720999991962022403004+60517+022267FM-12+005499999V0200601N00511220001CN0300001N9-00781-00891104171ADDAY101999GF102991021001999999041001MD1410001+9999MW1011
0070029720999991962022406004+60517+022267FM-12+005499999V0200401N00511220001CN0300001N9-00891-01111104271ADDAY101999GF101991011001999999041001KA1999N-01001MD1210091+9999MW1011
0057029720999991962022409004+60517+022267FM-12+005499999V0200401N00621007801CN0300001N9-00721-01001104431ADDAY121999GF107991061051008001041999MD1210171+9999MW1031
0057029720999991962022412004+60517+022267FM-12+005499999V0200701N00621220001CN0300001N9-00391-00891104431ADDAY121999GF102991001001999999001011MD1410001+9999MW1011
0057029720999991962022415004+60517+022267FM-12+005499999V0200701N00621220001CN0200001N9-00391-00781104461ADDAY111999GF104991001001999999001051MD1210031+9999MW1031
0070029720999991962022418004+60517+022267FM-12+005499999V0200401N00411220001CN0150001N9-00611-00781104501ADDAY101999GF101991001001999999001051KA1999M-00281MD1210041+9999MW1011
0057029720999991962022421004+60517+022267FM-12+005499999V0200401N00311220001CN0150001N9-00891-01001104591ADDAY101999GF100991001001999999001001MD1210081+9999MW1021
0057029720999991962022500004+60517+022267FM-12+005499999V0200701N00211002401CN0100001N9-01001-01111104571ADDAY121999GF108991081061002501999999MD1710041+9999MW1031
0057029720999991962022503004+60517+022267FM-12+005499999V0200701N00311002401CN0100001N9-00781-01001104511ADDAY121999GF108991081061002501999999MD1710051+9999MW1021
0070029720999991962022506004+60517+022267FM-12+005499999V0200801N00311001501CN0030001N9-00891-01001104221ADDAY121999GF108991081061001501999999KA1999N-01111MD1710091+9999MW1101
0057029720999991962022509004+60517+022267FM-12+005499999V0200901N00311000601CN0040001N9-00781-00891104411ADDAY121999GF108991081061000751999999MD1710011+9999MW1101
0057029720999991962022512004+60517+022267FM-12+005499999V0200901N00311002401CN0050001N9-00611-00721104311ADDAY171999GF108991081051002501999999MD1710091+9999MW1221
0057029720999991962022515004+60517+022267FM-12+005499999V0200901N00211004501CN0100001N9-00501-00721104231ADDAY171999GF108991081051004501999999MD1710081+9999MW1021
0081029720999991962022518004+60517+022267FM-12+005499999V0200901N00101004501CN0100001N9-00611-00781104231ADDAA199000691AY121999GF108991081051004501999999KA1999M-00501MD1410001+9999MW1021
0057029720999991962022521004+60517+022267FM-12+005499999V0200901N00101002401CN0100001N9-00611-00721104241ADDAY121999GF108991081051002501999999MD1210011+9999MW1021
0057029720999991962022603004+60517+022267FM-12+005499999V0203601N00211001501CN0100001N9-00721-00781104131ADDAY121999GF108991081061001501999999MD1710091+9999MW1021
0057029720999991962022612004+60517+022267FM-12+005499999V0200401N00511004501CN0080001N9-00721-01111103881ADDAY171999GF108991081051004501999999MD1710131+9999MW1771
0057029720999991962022615004+60517+022267FM-12+005499999V0200201N00411075001CN0100001N9-00721-01001103721ADDAY171999GF106991031051008001001071MD1710161+9999MW1011
0081029720999991962022618004+60517+022267FM-12+005499999V0200401N00511004501CN0100001N9-00721-01001103671ADDAA199000691AY121999GF108991081051004501999999KA1999M-00721MD1710051+9999MW1021
0057029720999991962022621004+60517+022267FM-12+005499999V0200701N00411004501CN0150001N9-00721-01001103601ADDAY121999GF108991081051004501999999MD1710071+9999MW1021
0057029720999991962022700004+60517+022267FM-12+005499999V0200401N00411002401CN0100001N9-00721-01001103551ADDAY121999GF108991081061002501999999MD1710051+9999MW1031
0057029720999991962022703004+60517+022267FM-12+005499999V0200401N00411002401CN0100001N9-00721-00891103481ADDAY121999GF108991081061002501999999MD1710071+9999MW1021
0070029720999991962022706004+60517+022267FM-12+005499999V0200401N00311002401CN0150001N9-00721-00891103391ADDAY121999GF108991081061002501999999KA1999N-00781MD1710091+9999MW1021
0057029720999991962022709004+60517+022267FM-12+005499999V0200401N00311002401CN0200001N9-00721-00891103371ADDAY171999GF108991081061002501999999MD1810021+9999MW1771
0057029720999991962022712004+60517+022267FM-12+005499999V0200201N00211004501CN0300001N9-00781-01111103261ADDAY171999GF105991051051004501001051MD1710111+9999MW1011
0057029720999991962022715004+60517+022267FM-12+005499999V0201801N00101220001CN0200001N9-00721-01221103031ADDAY111999GF103991021051004501001051MD1710221+9999MW1021
0081029720999991962022718004+60517+022267FM-12+005499999V0201201N00101004501CN0100001N9-01111-01281102921ADDAA199000691AY111999GF108991081051004501999999KA1999M-00501MD1710121+9999MW1031
0057029720999991962022721004+60517+022267FM-12+005499999V0201801N00101004501CN0150001N9-00891-01111102751ADDAY121999GF108991081051004501999999MD1710171+9999MW1021
0057029720999991962022800004+60517+022267FM-12+005499999V0202201N00211004501CN0150001N9-00891-01221102461ADDAY121999GF108991081051004501999999MD1710291+9999MW1021
0057029720999991962022803004+60517+022267FM-12+005499999V0202201N00211030001CN0200001N9-01111-01221102181ADDAY121999GF107991031051004501071999MD1710271+9999MW1011
0081029720999991962022806004+60517+022267FM-12+005499999V0202201N00311004501CN0100001N9-00781-00891101801ADDAA199000691AY171999GF108991081051004501999999KA1999N-01221MD1710381+9999MW1711
0057029720999991962022809004+60517+022267FM-12+005499999V0202401N00411075001CN0200001N9-00501-00781101511ADDAY171999GF107991021001999999071071MD1710281+9999MW1021
0057029720999991962022812004+60517+022267FM-12+005499999V0202701N00511030001CN0250001N9-00391-00781101241ADDAY121999GF107991011051004501071999MD1710271+9999MW1021
0057029720999991962022815004+60517+022267FM-12+005499999V0202701N00511030001CN0150001N9-00391-00611101041ADDAY171999GF108991041051004501071999MD1710201+9999MW1711
0081029720999991962022818004+60517+022267FM-12+005499999V0202701N00311220001CN0200001N9-00391-00501100981ADDAA199000691AY121999GF101991011001999999041001KA1999M-00221MD1710051+9999MW1011
0057029720999991962022821004+60517+022267FM-12+005499999V0203201N00411220001CN0200001N9-00501-00781101011ADDAY101999GF100991001001999999001001MD1210021+9999MW1021
0057029720999991962030100004+60517+022267FM-12+005499999V0203201N00411220001CN0200001N9-00781-01001101151ADDAY101999GF100991001001999999001001MD1210141+9999MW1021
0057029720999991962030103004+60517+022267FM-12+005499999V0203201N00411220001CN0300001N9-01221-01391101191ADDAY101999GF100991001001999999001001MD1210031+9999MW1021
0070029720999991962030106004+60517+022267FM-12+005499999V0203201N00411220001CN0300001N9-01501-01611101241ADDAY101999GF102991001001999999001011KA1999N-01501MD1210031+9999MW1031
0057029720999991962030109004+60517+022267FM-12+005499999V0203201N00211220001CN0300001N9-01111-01281101241ADDAY101999GF103991011001999999041011MD1210021+9999MW1031
0057029720999991962030112004+60517+022267FM-12+005499999V0202301N00411220001CN0300001N9-00611-01721101061ADDAY121999GF106991031001999999041011MD1810171+9999MW1021
0057029720999991962030115004+60517+022267FM-12+005499999V0202301N00311004501CN0020001N9-00611-01281100951ADDAY171999GF108991081051004501999999MD1710111+9999MW1731
0081029720999991962030118004+60517+022267FM-12+005499999V0202101N00211004501CN0050001N9-00721-00781100851ADDAA199000691AY171999GF108991081051004501999999KA1999M-00501MD1710101+9999MW1711
0057029720999991962030121004+60517+022267FM-12+005499999V0202001N00211004501CN0050001N9-00721-00721100781ADDAY171999GF108991061051004501021999MD1710071+9999MW1711
0057029720999991962030200004+60517+022267FM-12+005499999V0203601N00211220001CN0200001N9-00781-00891100821ADDAY171999GF103991031001999999071001MD1210041+9999MW1011
0057029720999991962030203004+60517+022267FM-12+005499999V0200401N00411220001CN0200001N9-01111-01281100831ADDAY101999GF101991011001999999041001MD1410001+9999MW1011
0116029720999991962030206004+60517+022267FM-12+005499999V0200401N00411004501CN0200001N9-00891-01111100841ADDAA199000391AY121999GF108991061051004501071999KA1999N-01281MD1210011+9999MW1021EQDQ01+000042APCTENQ02+000012APC3  
0092029720999991962030209004+60517+022267FM-12+005499999V0200701N00511030001CN0300001N9-00891-01001100851ADDAY121999GF108991031061002501011999MD1210011+9999MW1011EQDQ01+000042APCTENQ02+000022APC3  
0057029720999991962030212004+60517+022267FM-12+005499999V0200901N00511030001CN0400001N9-00611-01111100821ADDAY121999GF108991031061004501021999MD1710031+9999MW1021
0057029720999991962030215004+60517+022267FM-12+005499999V0200901N00511002401CN0008001N9-00721-00891100841ADDAY171999GF108991081061002501999999MD1510021+9999MW1731
0081029720999991962030218004+60517+022267FM-12+005499999V0200901N00511002401CN0010001N9-00781-01001100891ADDAA199001091AY171999GF108991081061002501999999KA1999M-00611MD1210051+9999MW1731
0057029720999991962030221004+60517+022267FM-12+005499999V0201201N00511002401CN0040001N9-00781-01111100961ADDAY171999GF108991081061002501999999MD1210071+9999MW1711
0057029720999991962030303004+60517+022267FM-12+005499999V0200901N00411220001CN0100001N9-01001-01221101031ADDAY101999GF102991021001999999041001MD1210011+9999MW1021
0081029720999991962030306004+60517+022267FM-12+005499999V0200401N00411220001CN0200001N9-01281-01391101131ADDAA199000591AY111999GF104991031001999999041011KA1999N-01281MD1210101+9999MW1031
0057029720999991962030309004+60517+022267FM-12+005499999V0200901N00411220001CN0200001N9-01001-01281101171ADDAY171999GF103991011001999999041011MD1210041+9999MW1011
0057029720999991962030312004+60517+022267FM-12+005499999V0200901N00411220001CN0300001N9-00721-01111101151ADDAY171999GF103991011011012501041011MD1710011+9999MW1011
0057029720999991962030315004+60517+022267FM-12+005499999V0200401N00511220001CN0400001N9-00781-01221101081ADDAY101999GF101991011051008001001011MD1710071+9999MW1011
0081029720999991962030318004+60517+022267FM-12+005499999V0200601N00311220001CN0200001N9-01111-01281101101ADDAA199000691AY101999GF100991001001999999001001KA1999M-00611MD1210011+9999MW1021
0057029720999991962030321004+60517+022267FM-12+005499999V0200701N00311220001CN0200001N9-01501-01781101091ADDAY101999GF100991001001999999001001MD1810021+9999MW1021
0057029720999991962030400004+60517+022267FM-12+005499999V0200401N00311220001CN0200001N9-01781-02001101041ADDAY101999GF100991001001999999001001MD1710061+9999MW1021
0057029720999991962030403004+60517+022267FM-12+005499999V0200701N00311220001CN0200001N9-01891-02111100921ADDAY101999GF100991001001999999001001MD1710121+9999MW1021
0070029720999991962030406004+60517+022267FM-12+005499999V0200401N00311220001CN0200001N9-01891-02111100831ADDAY101999GF101991011001999999041011KA1999N-02001MD1710091+9999MW1031
0057029720999991962030409004+60517+022267FM-12+005499999V0200601N00311220001CN0200001N9-01281-01721100721ADDAY101999GF100991001001999999001001MD1710091+9999MW1021
0057029720999991962030412004+60517+022267FM-12+005499999V0200601N00411220001CN0300001N9-00891-01391100591ADDAY101999GF100991001001999999001001MD1710121+9999MW1021
0057029720999991962030415004+60517+022267FM-12+005499999V0200401N00211004501CN0200001N9-00891-01281100531ADDAY111999GF105991051051004501001001MD1710061+9999MW1031
0070029720999991962030418004+60517+022267FM-12+005499999V0200401N00211220001CN0150001N9-01281-01391100521ADDAY111999GF101991001001999999001051KA1999M-00781MD1710031+9999MW1011
0057029720999991962030421004+60517+022267FM-12+005499999V0200401N00211220001CN0200001N9-01721-01891100531ADDAY101999GF100991001001999999001001MD1410001+9999MW1011
0057029720999991962030500004+60517+022267FM-12+005499999V0200401N00101220001CN0200001N9-01891-02111100561ADDAY101999GF100991001001999999001001MD1210031+9999MW1021
0057029720999991962030503004+60517+022267FM-12+005499999V0200401N00101220001CN0200001N9-02111-02221100581ADDAY101999GF100991001001999999001001MD1210021+9999MW1021
0070029720999991962030506004+60517+022267FM-12+005499999V0200401N00211220001CN0200001N9-02221-02391100611ADDAY101999GF101991011001999999041051KA1999N-02281MD1210021+9999MW1021
0057029720999991962030509004+60517+022267FM-12+005499999V0200401N00211220001CN0300001N9-01281-01501100711ADDAY101999GF100991001001999999001001MD1210131+9999MW1021
0057029720999991962030512004+60517+022267FM-12+005499999V0200401N00211220001CN0300001N9-00891-01391100751ADDAY101999GF100991001001999999001001MD1210051+9999MW1021
0057029720999991962030515004+60517+022267FM-12+005499999V0203601N00101220001CN0300001N9-00781-01501100811ADDAY101999GF100991001001999999001001MD1210061+9999MW1021
0070029720999991962030518004+60517+022267FM-12+005499999V0209991C00001220001CN0150001N9-01391-01611100961ADDAY101999GF101991001001999999001051KA1999M-00721MD1210131+9999MW1011
0057029720999991962030521004+60517+022267FM-12+005499999V0203601N00101220001CN0150001N9-02001-02221101121ADDAY101999GF100991001001999999001001MD1210151+9999MW1021
0057029720999991962030600004+60517+022267FM-12+005499999V0200901N00211220001CN0150001N9-02221-02391101181ADDAY101999GF100991001001999999001001MD1210241+9999MW1021
0057029720999991962030603004+60517+022267FM-12+005499999V0200401N00211004501CN0150001N9-01721-01891101191ADDAY121999GF108991081051004501999999MD1210031+9999MW1031
0070029720999991962030606004+60517+022267FM-12+005499999V0200701N00311030001CN0150001N9-01611-01891101211ADDAY121999GF105991021051004501041001KA1999N-02281MD1210011+9999MW1011
0057029720999991962030609004+60517+022267FM-12+005499999V0200401N00311075001CN0200001N9-01281-01501101241ADDAY121999GF106991031001999999041021MD1210031+9999MW1031
0057029720999991962030612004+60517+022267FM-12+005499999V0200701N00511220001CN0300001N9-00781-01391101121ADDAY121999GF108991001001999999001071MD1810091+9999MW1031
0057029720999991962030615004+60517+022267FM-12+005499999V0200401N00511075001CN0200001N9-00781-01501101051ADDAY121999GF107991021001999999041071MD1710071+9999MW1011
0105029720999991962030618004+60517+022267FM-12+005499999V0200201N00621075001CN0200001N9-00891-01391101041ADDAY121999GF107991021001999999041071KA1999M-00721MD1710011+9999MW1021EQDQ01+000042APCTENQ02+000022APC3  
0057029720999991962030700004+60517+022267FM-12+005499999V0203601N00411220001CN0400001N9-01281-02001101251ADDAY101999GF100991001001999999001001MD1210121+9999MW1021
0057029720999991962030703004+60517+022267FM-12+005499999V0203601N00311220001CN0400001N9-01501-02111101411ADDAY101999GF100991001001999999001001MD1210161+9999MW1021
0070029720999991962030706004+60517+022267FM-12+005499999V0203601N00211220001CN0300001N9-01721-02221101591ADDAY101999GF101991011001999999041001KA1999N-01781MD1210171+9999MW1011
0057029720999991962030709004+60517+022267FM-12+005499999V0203601N00211220001CN0500001N9-01111-01891101781ADDAY101999GF101991011001999999041001MD1210211+9999MW1031
0057029720999991962030712004+60517+022267FM-12+005499999V0203201N00311220001CN0500001N9-00501-01721101871ADDAY101999GF101991001001999999001051MD1210111+9999MW1021
0057029720999991962030715004+60517+022267FM-12+005499999V0203201N00411220001CN0500001N9-00501-01501101951ADDAY101999GF101991001001999999001051MD1210081+9999MW1021
0070029720999991962030718004+60517+022267FM-12+005499999V0203201N00101220001CN0300001N9-01001-01781101951ADDAY101999GF101991001001999999001051KA1999M-00391MD1210131+9999MW1021
0057029720999991962030721004+60517+022267FM-12+005499999V0202701N00101220001CN0300001N9-01391-01501102181ADDAY101999GF100991001001999999001001MD1210071+9999MW1021
0057029720999991962030800004+60517+022267FM-12+005499999V0201801N00101220001CN0300001N9-01781-02001102211ADDAY101999GF100991001001999999001001MD1210021+9999MW1011
0057029720999991962030803004+60517+022267FM-12+005499999V0201401N00211220001CN0300001N9-02001-02221102151ADDAY101999GF100991001001999999001001MD1710071+9999MW1021
0070029720999991962030806004+60517+022267FM-12+005499999V0201401N00211220001CN0300001N9-02001-02221102161ADDAY101999GF103991021001999999041011KA1999N-02111MD1210021+9999MW1031
0057029720999991962030809004+60517+022267FM-12+005499999V0201401N00211220001CN0150001N9-00611-01111102181ADDAY121999GF104991011001999999041011MD1210061+9999MW1051
0057029720999991962030812004+60517+022267FM-12+005499999V0201801N00411007801CN0300001N9-00221-00781102211ADDAY111999GF106991051011008001041001MD1210031+9999MW1031
0057029720999991962030815004+60517+022267FM-12+005499999V0202201N00411004501CN0070001N9-00281-00611102261ADDAY121999GF107991051031004501041001MD1210051+9999MW1861
0081029720999991962030818004+60517+022267FM-12+005499999V0201801N00311030001CN0100001N9-00501-00611102341ADDAA199000691AY121999GF105991031051004501041001KA1999M-00221MD1210071+9999MW1011
0057029720999991962030821004+60517+022267FM-12+005499999V0201801N00311220001CN0150001N9-00721-00781102401ADDAY111999GF102991021051004501001001MD1210061+9999MW1011
0057029720999991962030900004+60517+022267FM-12+005499999V0202001N00211220001CN0150001N9-00781-01001102401ADDAY101999GF100991001001999999001001MD1410001+9999MW1011
0057029720999991962030903004+60517+022267FM-12+005499999V0202001N00211220001CN0150001N9-00781-00891102371ADDAY101999GF100991001001999999001001MD1810041+9999MW1021
0070029720999991962030906004+60517+022267FM-12+005499999V0202201N00311220001CN0150001N9-00891-01001102321ADDAY101999GF101991011001999999041011KA1999N-00891MD1710061+9999MW1051
0057029720999991962030909004+60517+022267FM-12+005499999V0202201N00311075001CN0150001N9-00501-00721102421ADDAY121999GF106991011001999999041021MD1210111+9999MW1051
0057029720999991962030912004+60517+022267FM-12+005499999V0202201N00511220001CN0200001N9+00001-00891102381ADDAY121999GF107991001001999999001071MD1810021+9999MW1021
0057029720999991962030915004+60517+022267FM-12+005499999V0202001N00621030001CN0200001N9-00111-00391102281ADDAY121999GF108991011051004501011071MD1710101+9999MW1031
0070029720999991962030918004+60517+022267FM-12+005499999V0202201N00621004501CN0300001N9-00221-00391102221ADDAY121999GF108991051051004501021999KA1999M+00001MD1710071+9999MW1021
0057029720999991962030921004+60517+022267FM-12+005499999V0201801N00931007801CN0300001N9-00111-00501102101ADDAY121999GF108991051051008001021999MD1710111+9999MW1021
0057029720999991962031000004+60517+022267FM-12+005499999V0201801N00931007801CN0300001N9-00281-00611101881ADDAY121999GF107991061051008001071999MD1710251+9999MW1011
0057029720999991962031003004+60517+022267FM-12+005499999V0201801N00621220001CN0300001N9-00391-00781101631ADDAY101999GF100991001001999999001001MD1710261+9999MW1011
0070029720999991962031006004+60517+022267FM-12+005499999V0201801N00721004501CN0200001N9-00391-00721101321ADDAY121999GF107991061071004501071999KA1999N-00501MD1710311+9999MW1021
0057029720999991962031009004+60517+022267FM-12+005499999V0201801N00821004501CN0150001N9-00281-00501101121ADDAY121999GF108991081071004501999999MD1710201+9999MW1021
0057029720999991962031012004+60517+022267FM-12+005499999V0201801N00821001501CN0030001N9-00221-00391100911ADDAY171999GF108991081071001501999999MD1710201+9999MW1731
0057029720999991962031015004+60517+022267FM-12+005499999V0201801N00821001501CN0025001N9-00221-00281100741ADDAY171999GF108991081071001501999999MD1710171+9999MW1731
0081029720999991962031018004+60517+022267FM-12+005499999V0201801N00511001501CN0010001N9-00111-00221100621ADDAA199003091AY171999GF108991081061001501999999KA1999M-00111MD1710121+9999MW1731
0057029720999991962031021004+60517+022267FM-12+005499999V0202001N00511002401CN0030001N9-00111-00221100471ADDAY171999GF108991081061002501999999MD1710151+9999MW1731
0057029720999991962031100004+60517+022267FM-12+005499999V0201801N00311002401CN0030001N9-00221-00221100331ADDAY171999GF108991081061002501999999MD1710141+9999MW1731
0057029720999991962031103004+60517+022267FM-12+005499999V0201801N00211002401CN0030001N9-00221-00281100171ADDAY171999GF108991081061002501999999MD1710151+9999MW1731
0081029720999991962031106004+60517+022267FM-12+005499999V0203601N00511004501CN0050001N9-00501-00611100171ADDAA199008091AY171999GF108991051061004501071999KA1999N-00611MD1310011+9999MW1731
0057029720999991962031109004+60517+022267FM-12+005499999V0203601N00621220001CN0300001N9-00781-01001100271ADDAY171999GF104991021051004501041011MD1210091+9999MW1011
0057029720999991962031112004+60517+022267FM-12+005499999V0203601N00721220001CN0300001N9-00721-00891100441ADDAY101999GF104991031051004501041001MD1210171+9999MW1021
0057029720999991962031115004+60517+022267FM-12+005499999V0203601N00621220001CN0300001N9-00611-01001100561ADDAY101999GF102991021051004501001001MD1210121+9999MW1021
0081029720999991962031118004+60517+022267FM-12+005499999V0203501N00511220001CN0300001N9-01001-01281100721ADDAA199000591AY101999GF100991001001999999001001KA1999M+00001MD1210151+9999MW1021
0057029720999991962031121004+60517+022267FM-12+005499999V0203201N00311220001CN0300001N9-01391-01611100851ADDAY101999GF100991001001999999001001MD1210121+9999MW1021
0049029720999991962031200004+60517+022267FM-12+005499999V0203201N00311220001CN0300001N9-01721-01891100921ADDGF100991001001999999001001MD1210071+9999MW1101
0057029720999991962031203004+60517+022267FM-12+005499999V0203601N00311220001CN0300001N9-01721-01891100981ADDAY101999GF100991001001999999001001MD1210061+9999MW1021
0070029720999991962031206004+60517+022267FM-12+005499999V0203601N00211220001CN0300001N9-01891-02111101031ADDAY101999GF103991001001999999001011KA1999N-02001MD1210041+9999MW1031
0057029720999991962031209004+60517+022267FM-12+005499999V0203601N00311220001CN0500001N9-01281-01391101081ADDAY101999GF104991001001999999001011MD1210071+9999MW1021
0057029720999991962031212004+60517+022267FM-12+005499999V0203601N00411220001CN0500001N9-00721-01281101011ADDAY101999GF101991001001999999001011MD1710061+9999MW1011
0057029720999991962031215004+60517+022267FM-12+005499999V0203601N00411220001CN0400001N9-00721-01281100981ADDAY111999GF105991001001999999001021MD1710031+9999MW1031
0070029720999991962031218004+60517+022267FM-12+005499999V0203201N00101220001CN0300001N9-01001-01281101001ADDAY101999GF102991011001999999041011KA1999M-00611MD1210011+9999MW1011
0057029720999991962031221004+60517+022267FM-12+005499999V0203601N00211220001CN0300001N9-01281-01501101031ADDAY101999GF101991001001999999001011MD1210021+9999MW1011
0057029720999991962031300004+60517+022267FM-12+005499999V0203601N00101220001CN0300001N9-01501-01611101031ADDAY101999GF103991001001999999001011MD1710011+9999MW1031
0057029720999991962031303004+60517+022267FM-12+005499999V0203601N00101220001CN0300001N9-01611-01781100961ADDAY101999GF103991001001999999001011MD1710061+9999MW1021
0070029720999991962031306004+60517+022267FM-12+005499999V0203601N00311220001CN0300001N9-01721-01891100961ADDAY111999GF107991001001999999001021KA1999N-01781MD1710011+9999MW1031
0057029720999991962031309004+60517+022267FM-12+005499999V0203601N00621220001CN0300001N9-01221-01501100891ADDAY121999GF103991001001999999001011MD1710051+9999MW1011
0057029720999991962031312004+60517+022267FM-12+005499999V0203601N00721075001CN0400001N9-00781-01281100751ADDAY121999GF107991011011008001001071MD1710131+9999MW1021
0057029720999991962031315004+60517+022267FM-12+005499999V0200201N00721075001CN0400001N9-00611-01221100681ADDAY121999GF107991021051008001001071MD1610071+9999MW1021
0105029720999991962031318004+60517+022267FM-12+005499999V0203601N00511220001CN0500001N9-00891-01281100691ADDAY121999GF107991001001999999001061KA1999M-00611MD1210011+9999MW1021EQDQ01+000042APCTENQ02+000012APC3  
0057029720999991962031321004+60517+022267FM-12+005499999V0203601N00511220001CN0500001N9-01001-01281100671ADDAY121999GF103991001001999999001011MD1710031+9999MW1011
0057029720999991962031400004+60517+022267FM-12+005499999V0203601N00511220001CN0500001N9-01281-01501100621ADDAY101999GF101991001001999999001011MD1710061+9999MW1021
0057029720999991962031403004+60517+022267FM-12+005499999V0203201N00511220001CN0500001N9-01501-01721100581ADDAY121999GF107991031001999999041011MD1710041+9999MW1031
0070029720999991962031406004+60517+022267FM-12+005499999V0203201N00411220001CN0400001N9-01281-01891100631ADDAY121999GF107991001001999999001021KA1999N-01721MD1210051+9999MW1021
0057029720999991962031409004+60517+022267FM-12+005499999V0203201N00411220001CN0500001N9-01111-01501100631ADDAY121999GF105991001001999999001021MD1010011+9999MW1021
0057029720999991962031412004+60517+022267FM-12+005499999V0203201N00511220001CN0500001N9-00721-01391100691ADDAY111999GF104991011051004501001051MD1210071+9999MW1021
0057029720999991962031415004+60517+022267FM-12+005499999V0203201N00621220001CN0400001N9-00721-01501100741ADDAY101999GF103991011011004501001051MD1210051+9999MW1011
0070029720999991962031418004+60517+022267FM-12+005499999V0203201N00411220001CN0300001N9-01111-01391100951ADDAY111999GF102991001001999999001051KA1999M-00721MD1210201+9999MW1011
0057029720999991962031421004+60517+022267FM-12+005499999V0203201N00311220001CN0300001N9-01391-01501101161ADDAY101999GF100991001001999999001001MD1210201+9999MW1011
0057029720999991962031500004+60517+022267FM-12+005499999V0203201N00311220001CN0300001N9-01501-01721101301ADDAY101999GF100991001001999999001001MD1210131+9999MW1021
0057029720999991962031503004+60517+022267FM-12+005499999V0203201N00101220001CN0300001N9-01781-02001101471ADDAY101999GF100991001001999999001001MD1210161+9999MW1021
0070029720999991962031506004+60517+022267FM-12+005499999V0202401N00211220001CN0200001N9-02001-02221101611ADDAY101999GF102991021001999999041051KA1999N-02111MD1210141+9999MW1021
0057029720999991962031509004+60517+022267FM-12+005499999V0202001N00311220001CN0050001N9-01001-01221101711ADDAY121999GF104991001001999999001021MD1210131+9999MW1101
0070029720999991962031512004+60517+022267FM-12+005499999V0201801N00621030001CN0150001N9-00501-01111101771ADDAY121999GF108991031051008001071999MD1210071+9999EQDQ01+000802PRSWM1
0057029720999991962031515004+60517+022267FM-12+005499999V0202001N00621030001CN0300001N9-00281-00891101681ADDAY181999GF106991011051008001041021MD1710081+9999MW1011
0081029720999991962031518004+60517+022267FM-12+005499999V0202201N00411220001CN0300001N9-00501-01001101771ADDAA199000691AY111999GF104991001001999999001021KA1999M-00281MD1210081+9999MW1021
0057029720999991962031521004+60517+022267FM-12+005499999V0202201N00511220001CN0300001N9-00721-00891101881ADDAY121999GF103991001001999999001021MD1210111+9999MW1011
0057029720999991962031603004+60517+022267FM-12+005499999V0202301N00311220001CN0300001N9-01001-01111102121ADDAY101999GF100991001001999999001001MD1210121+9999MW1021
0070029720999991962031606004+60517+022267FM-12+005499999V0202301N00411220001CN0200001N9-00781-00891102231ADDAY101999GF100991001001999999001001KA1999N-01001MD1210101+9999MW1021
0057029720999991962031609004+60517+022267FM-12+005499999V0202301N00621220001CN0300001N9-00221-00721102421ADDAY101999GF100991001001999999001001MD1210211+9999MW1021
0076029720999991962031612004+60517+022267FM-12+005499999V0202301N00721220001CN0400001N9+00001-00721102421ADDAY101999GF101991011011008001001001MD1410001+9999MW1021EQDQ01+000012APC3  
0057029720999991962031615004+60517+022267FM-12+005499999V0202301N00621220001CN0400001N9-00111-00781102491ADDAY101999GF101991011001999999041001MD1210061+9999MW1021
0070029720999991962031618004+60517+022267FM-12+005499999V0202301N00311220001CN0300001N9-00501-00781102501ADDAY101999GF101991001001999999001051KA1999M+00001MD1410001+9999MW1021
0057029720999991962031621004+60517+022267FM-12+005499999V0201801N00311220001CN0200001N9-00781-00781102561ADDAY101999GF101991001001999999001051MD1210051+9999MW1021
0057029720999991962031700004+60517+022267FM-12+005499999V0201801N00311220001CN0012001N9-00781-00891102501ADDAY101999GF100991001001999999001001MD1710061+9999MW1101
0057029720999991962031703004+60517+022267FM-12+005499999V0201801N00311220001CN0050001N9-01001-01111102361ADDAY101999GF101991011001999999041001MD1710141+9999MW1101
0057029720999991962031709004+60517+022267FM-12+005499999V0202801N00211220001CN0200001N9-00281-00391102331ADDAY101999GF102991021001999999041001MD1710021+9999MW1021
0057029720999991962031712004+60517+022267FM-12+005499999V0203201N00411220001CN0400001N9+00001-00781102181ADDAY101999GF101991011011008001001001MD1710131+9999MW1011
0057029720999991962031715004+60517+022267FM-12+005499999V0203201N00411220001CN0400001N9+00001-00891102121ADDAY101999GF101991011011008001001001MD1710061+9999MW1021
0070029720999991962031718004+60517+022267FM-12+005499999V0203201N00211220001CN0300001N9-00391-00781102101ADDAY101999GF100991001001999999001001KA1999M+00111MD1710041+9999MW1011
0057029720999991962031721004+60517+022267FM-12+005499999V0203201N00101220001CN0300001N9-00721-00781102001ADDAY101999GF100991001001999999001001MD1710111+9999MW1021
0057029720999991962031800004+60517+022267FM-12+005499999V0203201N00411220001CN0300001N9-00781-00891101851ADDAY101999GF100991001001999999001001MD1710141+9999MW1021
0057029720999991962031803004+60517+022267FM-12+005499999V0203601N00621004501CN0300001N9-00721-00781101811ADDAY121999GF108991081051004501999999MD1710041+9999MW1031
0070029720999991962031806004+60517+022267FM-12+005499999V0203601N00511002401CN0100001N9-01001-01111101831ADDAY121999GF108991081061002501999999KA1999N-01111MD1210021+9999MW1701
0057029720999991962031809004+60517+022267FM-12+005499999V0203601N00621004501CN0200001N9-00891-01221101811ADDAY171999GF105991051061004501001001MD1710021+9999MW1221
0057029720999991962031815004+60517+022267FM-12+005499999V0203401N00411220001CN0400001N9-00391-01001101591ADDAY101999GF101991011051008001001001MD1710101+9999MW1011
0070029720999991962031818004+60517+022267FM-12+005499999V0203201N00211220001CN0400001N9-00611-01111101651ADDAY101999GF101991011001999999041001KA1999M-00281MD1710041+9999MW1011
0057029720999991962031821004+60517+022267FM-12+005499999V0203201N00311220001CN0400001N9-01111-01221101651ADDAY101999GF100991001001999999001001MD1710011+9999MW1011
0057029720999991962031903004+60517+022267FM-12+005499999V0203201N00211220001CN0300001N9-01501-01721101531ADDAY111999GF106991001001999999001061MD1710061+9999MW1031
0070029720999991962031906004+60517+022267FM-12+005499999V0201801N00211075001CN0150001N9-01391-01611101451ADDAY121999GF107991031001999999041071KA1999N-01721MD1710081+9999MW1021
0057029720999991962031909004+60517+022267FM-12+005499999V0202201N00311030001CN0150001N9-00611-01111101391ADDAY121999GF107991031061002501041071MD1710031+9999MW1021
0057029720999991962031912004+60517+022267FM-12+005499999V0202501N00621075001CN0300001N9-00221-00781101341ADDAY121999GF105991031011008001001021MD1710041+9999MW1011
0057029720999991962031915004+60517+022267FM-12+005499999V0202701N00411004501CN0200001N9-00281-00721101351ADDAY181999GF107991071031004501999999MD1410001+9999MW1021
0081029720999991962031918004+60517+022267FM-12+005499999V0202701N00411004501CN0150001N9-00501-00611101411ADDAA199000691AY171999GF108991081051004501999999KA1999M-00221MD1210061+9999MW1701
0057029720999991962031921004+60517+022267FM-12+005499999V0202701N00211000151CN0008001N9-00781-00891101481ADDAY121999GF109991091999000251999999MD1210061+9999MW1471
0057029720999991962032000004+60517+022267FM-12+005499999V0202701N00101000151CN0005001N9-01001-01111101531ADDAY141999GF109991091999000251999999MD1210051+9999MW1471
0057029720999991962032003004+60517+022267FM-12+005499999V0209991C00001000151CN0007001N9-01281-01391101581ADDAY141999GF109991091999000251999999MD1210041+9999MW1431
0081029720999991962032006004+60517+022267FM-12+005499999V0202201N00101075001CN0300001N9-01221-01391101571ADDAA199000391AY121999GF105991011051004501041011KA1999N-01391MD1710011+9999MW1011
0057029720999991962032009004+60517+022267FM-12+005499999V0201801N00311030001CN0300001N9-00611-00721101591ADDAY121999GF106991021051008001041021MD1210041+9999MW1021
0057029720999991962032012004+60517+022267FM-12+005499999V0201801N00511030001CN0300001N9-00111-00611101661ADDAY181999GF106991041051008001041021MD1210081+9999MW1021
