0057029700999991961010100004+60117+019900FM-12+000399999V0201001N00311004501CN0100001N9+00001-00221101431ADDAY121999GF108991081051004501999999MD1710031+9999MW1021
0057029700999991961010103004+60117+019900FM-12+000399999V0201001N00311004501CN0100001N9+00001-00221101431ADDAY121999GF108991081051004501999999MD1410001+9999MW1021
0070029700999991961010106004+60117+019900FM-12+000399999V0201201N00261004501CN0100001N9+00001-00221101361ADDAY121999GF108991081051004501999999KA1999N+00001MD1610091+9999MW1021
0057029700999991961010109004+60117+019900FM-12+000399999V0201001N00311007801CN0150001N9+00001-00281101401ADDAY121999GF108991081051008001999999MD1110051+9999MW1021
0057029700999991961010112004+60117+019900FM-12+000399999V0201001N00211007801CN0150001N9+00001-00221101351ADDAY121999GF108991081051008001999999MD1810071+9999MW1021
0057029700999991961010115004+60117+019900FM-12+000399999V0201001N00101004501CN0150001N9+00001-00111101301ADDAY121999GF108991081051004501999999MD1710071+9999MW1701
0081029700999991961010118004+60117+019900FM-12+000399999V0201101N00211004501CN0100001N9+00111-00111101241ADDAA199000691AY121999GF108991081051004501999999KA1999M+00111MD1610081+9999MW1701
0057029700999991961010121004+60117+019900FM-12+000399999V0201201N00211075001CN0150001N9+00001-00111101211ADDAY171999GF107991011031004501001061MD1610041+9999MW1221
0076029700999991961010200004+60117+019900FM-12+000399999V0209991C00001007801CN0100001N9-00111-00111101211ADDAY171999GF108991999051008001061999MD1410001+9999MW1711EQDQ01+000082SCOTLC
0057029700999991961010203004+60117+019900FM-12+000399999V0209991C00001004501CN0100001N9-00221-00221101161ADDAY121999GF108991081051004501999999MD1710071+9999MW1021
0081029700999991961010206004+60117+019900FM-12+000399999V0209991C00001004501CN0150001N9-00221-00221101131ADDAA199000391AY121999GF108991081051004501999999KA1999N-00221MD1710041+9999MW1021
0057029700999991961010209004+60117+019900FM-12+000399999V0209991C00001002401CN0015001N9-00111-00111101171ADDAY171999GF108991081071002501999999MD1710051+9999MW1731
0057029700999991961010212004+60117+019900FM-12+000399999V0209991C00001002401CN0040001N9+00111+00001101041ADDAY171999GF108991081071002501999999MD1710171+9999MW1711
0057029700999991961010215004+60117+019900FM-12+000399999V0209991C00001002401CN0050001N9+00001+00001101001ADDAY151999GF108991081071002501999999MD1710051+9999MW1511
0081029700999991961010218004+60117+019900FM-12+000399999V0209991C00001004501CN0030001N9+00001+00001100961ADDAA199004091AY121999GF108991081051004501999999KA1999M+00111MD1710051+9999MW1101
0076029700999991961010221004+60117+019900FM-12+000399999V0209991C00001004501CN0050001N9+00001-00111100971ADDAY151999GF108991999051004501041999MD1010011+9999MW1201EQDQ01+000082SCOTLC
0057029700999991961010300004+60117+019900FM-12+000399999V0201501N00211004501CN0050001N9+00001+00001100841ADDAY121999GF108991081051004501999999MD1710171+9999MW1031
0057029700999991961010303004+60117+019900FM-12+000399999V0201501N00261007801CN0080001N9+00221+00111100841ADDAY121999GF108991081051008001999999MD1410001+9999MW1021
0081029700999991961010306004+60117+019900FM-12+000399999V0201601N00311004501CN0080001N9+00111+00111100731ADDAA199000591AY171999GF108991081051004501999999KA1999N-00111MD1710151+9999MW1231
0057029700999991961010309004+60117+019900FM-12+000399999V0201301N00411004501CN0100001N9+00221+00001100771ADDAY121999GF108991071051004501999999MD1210051+9999MW1021
0057029700999991961010312004+60117+019900FM-12+000399999V0201401N00511004501CN0100001N9+00111-00221100741ADDAY121999GF108991081051004501999999MD1610041+9999MW1021
0057029700999991961010315004+60117+019900FM-12+000399999V0201401N00571002401CN0100001N9+00111-00221100621ADDAY121999GF108991081061002501999999MD1610161+9999MW1021
0070029700999991961010318004+60117+019900FM-12+000399999V0201201N00821002401CN0100001N9+00111-00221100511ADDAY121999GF108991081061002501999999KA1999M+00221MD1710151+9999MW1021
0057029700999991961010321004+60117+019900FM-12+000399999V0201301N00821004501CN0100001N9+00001-00281100351ADDAY121999GF108991081051004501999999MD1710211+9999MW1021
0057029700999991961010400004+60117+019900FM-12+000399999V0201301N00931004501CN0020001N9+00001-00111100091ADDAY121999GF108991081051004501999999MD1710351+9999MW1681
0057029700999991961010403004+60117+019900FM-12+000399999V0201501N00931002401CN0020001N9+00111+00111099971ADDAY171999GF108991081061002501999999MD1710161+9999MW1681
0081029700999991961010406004+60117+019900FM-12+000399999V0201501N00721001501CN0035001N9+00111+00111099981ADDAA199004091AY151999GF108991081071001501999999KA1999N+00001MD1310011+9999MW1511
0057029700999991961010409004+60117+019900FM-12+000399999V0201601N00621000601CN0030001N9+00281+00221100121ADDAY151999GF108991081071000751999999MD1310191+9999MW1511
0057029700999991961010412004+60117+019900FM-12+000399999V0201601N00411220001CN0045001N9+00281+00281100131ADDAY121999GF104991041061001501001011MD1010031+9999MW1011
0057029700999991961010415004+60117+019900FM-12+000399999V0201601N00311002401CN0060001N9+00281+00281100251ADDAY121999GF107991071061002501999999MD1210101+9999MW1031
0081029700999991961010418004+60117+019900FM-12+000399999V0201201N00461001501CN0060001N9+00281+00221100171ADDAA199000391AY121999GF108991081061001501999999KA1999M+00281MD1810091+9999MW1021
0057029700999991961010421004+60117+019900FM-12+000399999V0200701N00411000151CN0013001N9+00001+00001100031ADDAY171999GF109991091999000251999999MD1710171+9999MW1691
0057029700999991961010500004+60117+019900FM-12+000399999V0201001N00721000151CN0035001N9+00221+00111099671ADDAY171999GF109991091999000251999999MD1710481+9999MW1691
0057029700999991961010503004+60117+019900FM-12+000399999V0201501N00721001501CN0035001N9+00501+00281099351ADDAY161999GF108991081071001501999999MD1710411+9999MW1631
0081029700999991961010506004+60117+019900FM-12+000399999V0201901N00931001501CN0050001N9+00281+00111099291ADDAA199012091AY121999GF108991081071001501999999KA1999N+00001MD1510081+9999MW1021
0057029700999991961010509004+60117+019900FM-12+000399999V0202301N01031001501CN0250001N9+00221+00111099521ADDAY151999GF108991081061001501999999MD1310311+9999MW1201
0057029700999991961010512004+60117+019900FM-12+000399999V0202501N00671002401CN0300001N9+00111-00111100021ADDAY121999GF108991081051002501999999MD1210651+9999MW1021
0057029700999991961010515004+60117+019900FM-12+000399999V0202701N00261004501CN0300001N9+00111-00111100261ADDAY121999GF108991081051004501999999MD1210321+9999MW1021
0081029700999991961010518004+60117+019900FM-12+000399999V0209991C00001220001CN0200001N9-00111-00221100371ADDAA199000691AY101999GF103991021051004501041001KA1999M+00281MD1210151+9999MW1031
0057029700999991961010521004+60117+019900FM-12+000399999V0209991C00001007801CN0200001N9+00001-00111100411ADDAY121999GF107991071051008001999999MD1210051+9999MW1021
0057029700999991961010600004+60117+019900FM-12+000399999V0209991C00001004501CN0200001N9+00001-00111100391ADDAY121999GF107991071051004501999999MD1810031+9999MW1021
0057029700999991961010612004+60117+019900FM-12+000399999V0209991C00001004501CN0040001N9+00001+00001100421ADDAY171999GF108991081051004501999999MD1410001+9999MW1711
0057029700999991961010615004+60117+019900FM-12+000399999V0209991C00001001501CN0020001N9+00001-00111100521ADDAY121999GF108991081071001501999999MD1210131+9999MW1101
0081029700999991961010618004+60117+019900FM-12+000399999V0209991C00001001501CN0020001N9-00111-00111100561ADDAA199001091AY121999GF108991081071001501999999KA1999M+00001MD1210051+9999MW1101
0057029700999991961010621004+60117+019900FM-12+000399999V0202601N00211002401CN0100001N9+00001-00111100741ADDAY121999GF108991081051002501999999MD1210241+9999MW1021
0057029700999991961010700004+60117+019900FM-12+000399999V0202501N00511007801CN0200001N9+00001-00281100781ADDAY121999GF108991081051008001999999MD1110051+9999MW1021
0057029700999991961010703004+60117+019900FM-12+000399999V0202201N00411007801CN0200001N9+00001-00221100821ADDAY121999GF108991081051008001999999MD1210051+9999MW1021
0057029700999991961010712004+60117+019900FM-12+000399999V0200601N00211004501CN0015001N9+00001+00001100661ADDAY171999GF108991081061004501999999MD1810161+9999MW1711
0057029700999991961010715004+60117+019900FM-12+000399999V0200201N00261002401CN0030001N9+00001+00001100631ADDAY121999GF108991081061002501999999MD1510041+9999MW1721
0081029700999991961010718004+60117+019900FM-12+000399999V0209991C00001002401CN0020001N9+00001+00001100721ADDAA199005091AY171999GF108991081061002501999999KA1999M+00221MD1710121+9999MW1711
0057029700999991961010800004+60117+019900FM-12+000399999V0209991C00001001501CN0050001N9-00111-00111100661ADDAY171999GF108991081071001501999999MD1210051+9999MW1221
0057029700999991961010803004+60117+019900FM-12+000399999V0209991C00001030001CN0100001N9-00221-00391100671ADDAY121999GF107991041071001501041999MD1210011+9999MW1021
0081029700999991961010806004+60117+019900FM-12+000399999V0209991C00001004501CN0100001N9-00281-00281100621ADDAA199001091AY121999GF107991061051004501041999KA1999N-00611MD1810051+9999MW1021
0057029700999991961010809004+60117+019900FM-12+000399999V0209991C00001004501CN0150001N9-00391-00391100691ADDAY121999GF107991061051004501041999MD1310081+9999MW1021
0057029700999991961010812004+60117+019900FM-12+000399999V0209991C00001004501CN0200001N9-00281-00501100631ADDAY121999GF106991061051004501001001MD1010081+9999MW1011
0057029700999991961010815004+60117+019900FM-12+000399999V0209991C00001030001CN0050001N9-00781-00781100631ADDAY141999GF105991011051004501041999MD1510001+9999MW1281
0070029700999991961010818004+60117+019900FM-12+000399999V0209991C00001004501CN0100001N9-00611-00721100631ADDAY121999GF107991051051004501041999KA1999M-00221MD1410001+9999MW1021
0057029700999991961010821004+60117+019900FM-12+000399999V0209991C00001220001CN0100001N9-01001-01111100621ADDAY111999GF104991041001999999041001MD1710011+9999MW1021
0057029700999991961010900004+60117+019900FM-12+000399999V0209991C00001220001CN0200001N9-01001-01111100621ADDAY101999GF102991021001999999041001MD1410001+9999MW1021
0057029700999991961010903004+60117+019900FM-12+000399999V0209991C00001220001CN0200001N9-01001-01001100641ADDAY101999GF102991021001999999041001MD1210031+9999MW1021
0070029700999991961010906004+60117+019900FM-12+000399999V0209991C00001220001CN0200001N9-01001-01111100621ADDAY121999GF103991031001999999041001KA1999N-01221MD1710031+9999MW1021
0057029700999991961010909004+60117+019900FM-12+000399999V0209991C00001075001CN0200001N9-01001-01111100701ADDAY121999GF105991011051008001041011MD1210111+9999MW1011
0057029700999991961010912004+60117+019900FM-12+000399999V0209991C00001030001CN0200001N9-00781-00781100671ADDAY111999GF106991011051008001041051MD1710041+9999MW1031
0057029700999991961010915004+60117+019900FM-12+000399999V0209991C00001075001CN0200001N9-00891-01001100711ADDAY111999GF105991011051008001041011MD1310051+9999MW1011
0057029700999991961010918004+60117+019900FM-12+000399999V0209991C00001220001CN0200001N9-01111-01221100761ADDAY101999GF103991021001999999041011MD1310071+9999MW1031
0057029700999991961010921004+60117+019900FM-12+000399999V0209991C00001220001CN0200001N9-01221-01281100801ADDAY101999GF102991021001999999041001MD1510051+9999MW1021
0057029700999991961011000004+60117+019900FM-12+000399999V0209991C00001220001CN0200001N9-01001-01111100791ADDAY101999GF102991021001999999041001MD1810011+9999MW1021
0057029700999991961011009004+60117+019900FM-12+000399999V0209999999999004501CN0200001N9+00111+00001100571ADDAY121999GF108991081051004501999999MD1710091+9999MW1021
0057029700999991961011012004+60117+019900FM-12+000399999V0201701N00511004501CN0200001N9+00111+00111100471ADDAY161999GF107991061051004501041999MD1710191+9999MW1211
0057029700999991961011015004+60117+019900FM-12+000399999V0202101N00621001501CN0040001N9+00111+00001100471ADDAY121999GF108991081071001501999999MD1710051+9999MW1681
0081029700999991961011018004+60117+019900FM-12+000399999V0201601N00361000601CN0050001N9+00111+00111100411ADDAA199003091AY121999GF108991081071000751999999KA1999M+00221MD1710081+9999MW1021
0057029700999991961011021004+60117+019900FM-12+000399999V0201801N00621002401CN0080001N9+00221+00111100461ADDAY121999GF107991071071002501999999MD1110071+9999MW1031
0057029700999991961011100004+60117+019900FM-12+000399999V0202101N00411007801CN0100001N9+00111-00111100581ADDAY121999GF107991071051008001999999MD1210161+9999MW1021
0057029700999991961011103004+60117+019900FM-12+000399999V0202301N00511004501CN0100001N9+00111-00111100721ADDAY121999GF108991081051004501999999MD1210191+9999MW1021
0081029700999991961011106004+60117+019900FM-12+000399999V0203001N00411002401CN0080001N9+00001-00111100901ADDAA199000391AY171999GF108991081071002501999999KA1999N+00001MD1210241+9999MW1231
0057029700999991961011109004+60117+019900FM-12+000399999V0203201N00311001501CN0150001N9+00001-00221101171ADDAY121999GF106991051071001501041999MD1210361+9999MW1021
0057029700999991961011112004+60117+019900FM-12+000399999V0203301N00211004501CN0300001N9+00001-00281101311ADDAY121999GF108991061061004501041999MD1210191+9999MW1021
0057029700999991961011115004+60117+019900FM-12+000399999V0203601N00411004501CN0250001N9-00111-00281101471ADDAY121999GF108991061061004501021999MD1210211+9999MW1021
0070029700999991961011118004+60117+019900FM-12+000399999V0203501N00511004501CN0200001N9-00111-00281101611ADDAY121999GF108991081051004501999999KA1999M+00001MD1210191+9999MW1021
0081029700999991961011306004+60117+019900FM-12+000399999V0202301N00931001501CN0020001N9+00001+00001101091ADDAA199002091AY171999GF109991091999001501999999KA1999N-00281MD1810151+9999MW1731
0057029700999991961011309004+60117+019900FM-12+000399999V0202401N00671001501CN0050001N9+00111+00111100921ADDAY171999GF108991081071001501999999MD1710231+9999MW1681
0057029700999991961011312004+60117+019900FM-12+000399999V0202801N00411001501CN0100001N9+00111+00001100871ADDAY121999GF108991081071001501999999MD1510071+9999MW1021
0057029700999991961011315004+60117+019900FM-12+000399999V0203001N00511001501CN0150001N9+00111+00001101051ADDAY121999GF108991081071001501999999MD1210241+9999MW1021
0081029700999991961011318004+60117+019900FM-12+000399999V0203101N00511220001CN0150001N9+00111+00111101181ADDAA199001091AY121999GF104991041061002501999999KA1999M+00111MD1210171+9999MW1011
0057029700999991961011321004+60117+019900FM-12+000399999V0202901N00261220001CN0200001N9-00111-00111101391ADDAY101999GF100991001001999999001001MD1210281+9999MW1011
0057029700999991961011400004+60117+019900FM-12+000399999V0202901N00101220001CN0200001N9-00111-00221101471ADDAY101999GF100991001001999999001001MD1210111+9999MW1021
0057029700999991961011403004+60117+019900FM-12+000399999V0209991C00001220001CN0200001N9-00501-00611101631ADDAY101999GF100991001001999999001001MD1210211+9999MW1021
0070029700999991961011406004+60117+019900FM-12+000399999V0202701N00211220001CN0300001N9-00391-00391101721ADDAY101999GF101991011001999999041001KA1999N-00611MD1210121+9999MW1031
0057029700999991961011409004+60117+019900FM-12+000399999V0203001N00311220001CN0300001N9-00111-00221101871ADDAY101999GF101991011051008001041001MD1210201+9999MW1021
0057029700999991961011412004+60117+019900FM-12+000399999V0203001N00511220001CN0300001N9+00111-00281101931ADDAY101999GF104991021051004501041001MD1210081+9999MW1021
0076029700999991961011415004+60117+019900FM-12+000399999V0203101N00621220001CN0400001N9+00111-00221101931ADDAY121999GF103991999001999999041001MD1410001+9999MW1011EQDQ01+000002SCOTLC
0070029700999991961011418004+60117+019900FM-12+000399999V0203201N00621220001CN0300001N9+00111-00221102081ADDAY111999GF103991011001999999041011KA1999M+00111MD1210201+9999MW1031
0057029700999991961011500004+60117+019900FM-12+000399999V0202701N00461220001CN0300001N9+00001-00221102131ADDAY101999GF100991001001999999001001MD1810111+9999MW1011
0057029700999991961011503004+60117+019900FM-12+000399999V0202801N00511021001CN0300001N9+00281+00111101921ADDAY111999GF107991071001022501011999MD1710281+9999MW1031
0081029700999991961011506004+60117+019900FM-12+000399999V0203001N00721030001CN0150001N9+00391+00001101791ADDAA199000391AY121999GF108991041051004501021999KA1999N+00001MD1710171+9999MW1021
0057029700999991961011509004+60117+019900FM-12+000399999V0202901N00821021001CN0300001N9+00501+00001101801ADDAY121999GF107991071001022501011999MD1210011+9999MW1021
0057029700999991961011512004+60117+019900FM-12+000399999V0203201N009319999999N0400001N9+00611+00001101541ADDAY121999GF107991999999999999999999MD1010071+9999MW1021
0057029700999991961011515004+60117+019900FM-12+000399999V0203201N01031220001CN0400001N9+00501+00001101771ADDAY111999GF102991011051008001041011MD1710111+9999MW1011
0070029700999991961011518004+60117+019900FM-12+000399999V0203401N01031220001CN0400001N9+00501+00111101861ADDAY101999GF102991001001999999001021KA1999M+00611MD1210121+9999MW1021
0057029700999991961011521004+60117+019900FM-12+000399999V0203601N01031220001CN0400001N9+00391+00111102021ADDAY101999GF101991001001999999001011MD1210211+9999MW1021
0057029700999991961011600004+60117+019900FM-12+000399999V0200101N00821220001CN0400001N9+00281+00001102321ADDAY101999GF100991001001999999001001MD1210401+9999MW1011
0057029700999991961011603004+60117+019900FM-12+000399999V0200201N01031220001CN0400001N9+00111-00281102571ADDAY101999GF100991001001999999001001MD1210311+9999MW1021
0070029700999991961011606004+60117+019900FM-12+000399999V0200201N00931002401CN0300001N9-00281-00391102871ADDAY111999GF107991071051002501999999KA1999N-00281MD1210401+9999MW1031
0057029700999991961011609004+60117+019900FM-12+000399999V0200301N00411220001CN0300001N9-00391-00721103181ADDAY101999GF102991021051004501001011MD1210411+9999MW1021
0057029700999991961011612004+60117+019900FM-12+000399999V0200301N00511220001CN0300001N9-00281-00721103421ADDAY101999GF102991001001999999041011MD1210321+9999MW1021
0057029700999991961011615004+60117+019900FM-12+000399999V0200301N00211220001CN0500001N9-00501-00891103491ADDAY101999GF102991001001999999041041MD1110091+9999MW1021
0089029700999991961011618004+60117+019900FM-12+000399999V0203601N00211220001CN0300001N9-00781-00891103611ADDAY101999GF101991999001999999041001KA1999M-00281MD1210161+9999MW1011EQDQ01+000002SCOTLC
0057029700999991961011621004+60117+019900FM-12+000399999V0209991C00001220001CN0300001N9-00891-01001103731ADDAY101999GF100991001001999999001001MD1310161+9999MW1011
0057029700999991961011700004+60117+019900FM-12+000399999V0209991C00001220001CN0300001N9-00781-00891103721ADDAY101999GF100991001001999999001001MD1810011+9999MW1021
0076029700999991961011703004+60117+019900FM-12+000399999V0209991C00001220001CN0300001N9-00391-00721103711ADDAY101999GF103991999001999999041001MD1810011+9999MW1031EQDQ01+000002SCOTLC
0056029700999991961011706004+60117+019900FM-12+000399999V0201301N00311075001CN0300001N9-00281-00721103771ADDAY121999GF107991041001022501041081KA1999N-00891MW1031
0057029700999991961011709004+60117+019900FM-12+000399999V0201801N00511021001CN0400001N9-00221-00721103841ADDAY121999GF107991071001022501071999MD1110041+9999MW1021
0057029700999991961011712004+60117+019900FM-12+000399999V0201901N00621030001CN0500001N9-00111-00611103841ADDAY121999GF108991011051008001071999MD1410001+9999MW1021
0057029700999991961011715004+60117+019900FM-12+000399999V0202201N00721004501CN0100001N9-00111-00281103801ADDAY121999GF108991061051004501071999MD1610051+9999MW1001
0070029700999991961011718004+60117+019900FM-12+000399999V0202201N00931007801CN0250001N9+00001-00391103701ADDAY121999GF108991081051008001999999KA1999M+00001MD1710131+9999MW1021
0057029700999991961011721004+60117+019900FM-12+000399999V0202401N00821007801CN0200001N9+00111-00391103641ADDAY121999GF106991061051008001001001MD1710081+9999MW1011
0057029700999991961011800004+60117+019900FM-12+000399999V0202401N00721004501CN0200001N9+00001-00221103631ADDAY121999GF108991081061004501999999MD1710011+9999MW1031
0057029700999991961011803004+60117+019900FM-12+000399999V0202701N00511004501CN0200001N9+00111-00221103601ADDAY121999GF108991081061004501999999MD1710041+9999MW1021
0070029700999991961011806004+60117+019900FM-12+000399999V0202601N00411004501CN0200001N9+00111-00111103601ADDAY121999GF108991081051004501999999KA1999N+00001MD1410001+9999MW1021
0057029700999991961011809004+60117+019900FM-12+000399999V0202701N00621030001CN0400001N9+00111-00281103621ADDAY121999GF107991041051008001041999MD1110031+9999MW1021
0057029700999991961011812004+60117+019900FM-12+000399999V0202601N00721030001CN0300001N9+00001-00281103571ADDAY111999GF105991031051008001041001MD1710071+9999MW1021
0057029700999991961011815004+60117+019900FM-12+000399999V0202601N00721220001CN0300001N9+00001-00391103471ADDAY101999GF103991011051004501001011MD1710131+9999MW1021
0070029700999991961011818004+60117+019900FM-12+000399999V0202701N00721220001CN0300001N9-00111-00391103431ADDAY101999GF102991011051004501001011KA1999M+00111MD1710051+9999MW1021
0057029700999991961011821004+60117+019900FM-12+000399999V0202701N00511220001CN0300001N9-00221-00391103361ADDAY101999GF100991001001999999001001MD1710091+9999MW1021
0057029700999991961011900004+60117+019900FM-12+000399999V0202701N00511220001CN0300001N9-00221-00391103321ADDAY121999GF100991001001999999001001MD1710051+9999MW1021
0057029700999991961011903004+60117+019900FM-12+000399999V0202801N00511220001CN0300001N9-00281-00391103261ADDAY121999GF100991001001999999001001MD1710081+9999MW1021
0070029700999991961011906004+60117+019900FM-12+000399999V0202801N00311220001CN0300001N9-00281-00391103141ADDAY101999GF100991001001999999001001KA1999N-00281MD1710161+9999MW1021
0057029700999991961011909004+60117+019900FM-12+000399999V0202701N00211220001CN0300001N9-00281-00391103171ADDAY101999GF102991001001999999001011MD1210041+9999MW1021
0057029700999991961011912004+60117+019900FM-12+000399999V0202701N00411220001CN0250001N9-00111-00391103101ADDAY101999GF103991001001999999041011MD1810091+9999MW1031
0057029700999991961011915004+60117+019900FM-12+000399999V0202501N00261220001CN0250001N9-00221-00501103021ADDAY101999GF103991031001022501041011MD1710111+9999MW1021
0070029700999991961011918004+60117+019900FM-12+000399999V0202401N00511220001CN0250001N9-00281-00501103001ADDAY101999GF102991001001999999001011KA1999M-00111MD1710031+9999MW1021
0057029700999991961011921004+60117+019900FM-12+000399999V0202401N00511220001CN0250001N9-00391-00501102981ADDAY101999GF102991001001999999001011MD1710031+9999MW1021
0057029700999991961012003004+60117+019900FM-12+000399999V0202401N00311220001CN0300001N9-00501-00781102871ADDAY101999GF100991001001999999001001MD1710091+9999MW1021
0070029700999991961012006004+60117+019900FM-12+000399999V0202501N00311220001CN0300001N9-00391-00611102801ADDAY101999GF101991011001999999041011KA1999N-00501MD1710091+9999MW1021
0057029700999991961012009004+60117+019900FM-12+000399999V0202401N00511220001CN0200001N9-00391-00611102821ADDAY101999GF101991001001999999001011MD1310031+9999MW1021
0057029700999991961012012004+60117+019900FM-12+000399999V0202501N00411220001CN0300001N9-00221-00611102731ADDAY101999GF101991001001999999001011MD1710121+9999MW1021
0057029700999991961012015004+60117+019900FM-12+000399999V0202401N00211220001CN0300001N9-00281-00611102651ADDAY101999GF101991011001999999041011MD1610111+9999MW1021
0070029700999991961012018004+60117+019900FM-12+000399999V0202101N00101220001CN0300001N9-00721-00781102551ADDAY101999GF102991011001999999041011KA1999M-00221MD1810131+9999MW1021
0057029700999991961012021004+60117+019900FM-12+000399999V0209991C00001220001CN0300001N9-00781-00891102461ADDAY101999GF102991011001999999041011MD1210121+9999MW1021
0057029700999991961012100004+60117+019900FM-12+000399999V0202401N00311220001CN0200001N9-00611-00611102341ADDAY101999GF101991001001999999001011MD1710161+9999MW1011
0057029700999991961012103004+60117+019900FM-12+000399999V0203601N00051220001CN0200001N9-00781-00781102311ADDAY101999GF101991001001999999001011MD1710041+9999MW1021
0070029700999991961012106004+60117+019900FM-12+000399999V0209991C00001220001CN0300001N9-00891-00891102231ADDAY101999GF102991001001999999001011KA1999N-00891MD1210111+9999MW1021
0057029700999991961012109004+60117+019900FM-12+000399999V0209991C00001220001CN0200001N9-00891-00891102211ADDAY101999GF103991001001999999001011MD1710031+9999MW1021
0057029700999991961012112004+60117+019900FM-12+000399999V0209991C00001004501CN0100001N9-00391-00391102161ADDAY121999GF107991061051004501041999MD1810071+9999MW1021
0057029700999991961012115004+60117+019900FM-12+000399999V0209991C00001220001CN0070001N9-00721-00721102051ADDAY111999GF103991011051004501041999MD1710151+9999MW1021
0070029700999991961012118004+60117+019900FM-12+000399999V0209991C00001030001CN0050001N9-00611-00721102031ADDAY121999GF106991031051008001011001KA1999M-00391MD1710031+9999MW1101
0057029700999991961012121004+60117+019900FM-12+000399999V0203601N00051030001CN0050001N9-00501-00501102011ADDAY121999GF108991041051008001021001MD1010031+9999MW1101
0057029700999991961012200004+60117+019900FM-12+000399999V0201001N00261004501CN0050001N9-00281-00281101921ADDAY121999GF108991081051004501999999MD1710121+9999MW1101
0057029700999991961012203004+60117+019900FM-12+000399999V0200901N00511004501CN0150001N9-00221-00391101991ADDAY121999GF108991081061004501999999MD1210091+9999MW1021
0070029700999991961012206004+60117+019900FM-12+000399999V0200501N00311004501CN0200001N9-00281-00721102051ADDAY121999GF108991081051004501999999KA1999N-00611MD1210081+9999MW1021
0057029700999991961012209004+60117+019900FM-12+000399999V0201001N00411004501CN0150001N9-00281-00611102231ADDAY121999GF108991081051004501999999MD1210241+9999MW1001
0057029700999991961012212004+60117+019900FM-12+000399999V0201101N00411004501CN0300001N9-00281-00611102221ADDAY121999GF106991061051004501001001MD1710011+9999MW1021
0070029700999991961012218004+60117+019900FM-12+000399999V0200701N00211007801CN0300001N9-00391-00781102491ADDAY121999GF107991071051008001999999KA1999M-00281MD1110091+9999MW1021
0057029700999991961012221004+60117+019900FM-12+000399999V0200101N00211007801CN0300001N9-00391-00721102521ADDAY121999GF108991081051008001999999MD1010041+9999MW1021
0057029700999991961012300004+60117+019900FM-12+000399999V0202301N00261007801CN0200001N9-00391-00721102481ADDAY121999GF108991081051008001999999MD1710051+9999MW1021
0057029700999991961012303004+60117+019900FM-12+000399999V0209991C00001007801CN0200001N9-00391-00721102371ADDAY121999GF108991081051008001999999MD1710151+9999MW1021
0070029700999991961012306004+60117+019900FM-12+000399999V0209991C00001007801CN0200001N9-00391-00721102201ADDAY121999GF108991081051008001999999KA1999N-00501MD1710231+9999MW1021
0057029700999991961012309004+60117+019900FM-12+000399999V0203401N00361007801CN0250001N9-00281-00611102131ADDAY121999GF108991081051008001999999MD1710091+9999MW1021
0057029700999991961012312004+60117+019900FM-12+000399999V0203601N00721004501CN0250001N9-00501-00721102031ADDAY121999GF108991081061004501999999MD1810131+9999MW1021
0057029700999991961012315004+60117+019900FM-12+000399999V0200201N00571002401CN0200001N9-00221-00611101901ADDAY181999GF108991071061002501999999MD1710171+9999MW1271
0081029700999991961012318004+60117+019900FM-12+000399999V0200201N00621004501CN0200001N9-00281-00611101931ADDAA199000691AY121999GF108991081051004501999999KA1999M-00221MD1210041+9999MW1701
0057029700999991961012321004+60117+019900FM-12+000399999V0200101N00721004501CN0200001N9-00281-00721102011ADDAY121999GF106991061051004501001001MD1210111+9999MW1011
0057029700999991961012400004+60117+019900FM-12+000399999V0200201N00411004501CN0200001N9-00391-00721102051ADDAY121999GF106991061051004501001001MD1210051+9999MW1021
0057029700999991961012403004+60117+019900FM-12+000399999V0200201N00211220001CN0200001N9-00501-00781102111ADDAY121999GF104991041051004501001001MD1210081+9999MW1011
0070029700999991961012406004+60117+019900FM-12+000399999V0200201N00211030001CN0200001N9-00721-01001102111ADDAY121999GF105991041051008001041001KA1999N-00781MD1410001+9999MW1031
0057029700999991961012409004+60117+019900FM-12+000399999V0200301N00511004501CN0030001N9-00611-01001102221ADDAY171999GF108991081031004501999999MD1110151+9999MW1731
0057029700999991961012412004+60117+019900FM-12+000399999V0200201N00511007801CN0300001N9-00611-01221102161ADDAY181999GF107991071051008001999999MD1810081+9999MW1851
0057029700999991961012415004+60117+019900FM-12+000399999V0200401N00571004501CN0200001N9-00611-01221102181ADDAY171999GF107991071051004501999999MD1310031+9999MW1701
0081029700999991961012418004+60117+019900FM-12+000399999V0209991C00001220001CN0300001N9-00891-01111102251ADDAA199000691AY111999GF104991041051008001999999KA1999M-00611MD1310091+9999MW1021
0057029700999991961012421004+60117+019900FM-12+000399999V0200501N00211004501CN0200001N9-00781-01111102261ADDAY121999GF107991071051004501999999MD1010011+9999MW1701
0057029700999991961012500004+60117+019900FM-12+000399999V0209991C00001004501CN0300001N9-01001-01111102211ADDAY121999GF107991071051004501999999MD1710071+9999MW1021
0057029700999991961012503004+60117+019900FM-12+000399999V0209991C00001220001CN0300001N9-01111-01221102151ADDAY111999GF101991011051008001999999MD1710081+9999MW1021
0081029700999991961012506004+60117+019900FM-12+000399999V0203401N00101007801CN0150001N9-01001-01111101961ADDAA199000691AY171999GF107991071051008001999999KA1999N-01221MD1810251+9999MW1711
0057029700999991961012509004+60117+019900FM-12+000399999V0203101N00051007801CN0300001N9-00721-00781101881ADDAY171999GF107991071051008001999999MD1710111+9999MW1221
0057029700999991961012512004+60117+019900FM-12+000399999V0202701N00411004501CN0250001N9-00501-00781101711ADDAY121999GF107991071051004501999999MD1710231+9999MW1711
0057029700999991961012515004+60117+019900FM-12+000399999V0202801N00511220001CN0400001N9-00721-01111101491ADDAY101999GF102991011001999999041011MD1710291+9999MW1021
0081029700999991961012518004+60117+019900FM-12+000399999V0202901N00311220001CN0300001N9-00891-01111101371ADDAA199000391AY101999GF103991031051008001001001KA1999M-00501MD1710161+9999MW1031
0057029700999991961012521004+60117+019900FM-12+000399999V0202701N00311220001CN0300001N9-00611-00721101311ADDAY111999GF103991031051008001001001MD1610081+9999MW1011
0057029700999991961012600004+60117+019900FM-12+000399999V0203201N00511007801CN0200001N9-00281-00391101301ADDAY121999GF107991071051008001999999MD1710011+9999MW1701
0057029700999991961012603004+60117+019900FM-12+000399999V0203401N00411007801CN0250001N9-00111-00281101371ADDAY171999GF107991071051008001999999MD1310091+9999MW1021
0070029700999991961012606004+60117+019900FM-12+000399999V0203401N00621007801CN0300001N9-00111-00281101501ADDAY121999GF107991071051008001999999KA1999N-00891MD1210171+9999MW1021
0057029700999991961012609004+60117+019900FM-12+000399999V0203401N00511007801CN0300001N9+00001-00221101711ADDAY121999GF107991071051008001999999MD1210281+9999MW1021
0057029700999991961012612004+60117+019900FM-12+000399999V0203201N00621220001CN0400001N9+00001-00281101771ADDAY121999GF106991041051008001001011MD1210081+9999MW1021
0057029700999991961012615004+60117+019900FM-12+000399999V0203001N00511220001CN0400001N9-00221-00391101861ADDAY121999GF106991041001999999041011MD1210121+9999MW1021
0057029700999991961012621004+60117+019900FM-12+000399999V0203001N00311220001CN0300001N9-00391-00501101931ADDAY101999GF100991001001999999001001MD1810051+9999MW1021
0057029700999991961012700004+60117+019900FM-12+000399999V0209991C00001220001CN0300001N9-00721-00781102031ADDAY101999GF100991001001999999001001MD1210131+9999MW1021
0070029700999991961012706004+60117+019900FM-12+000399999V0202701N00721220001CN0300001N9-00111-00891102051ADDAY101999GF103991001001999999001011KA1999N-00721MD1410001+9999MW1031
0057029700999991961012712004+60117+019900FM-12+000399999V0202601N00721030001CN0300001N9-00221-00501101961ADDAY121999GF106991011051008001041081MD1610091+9999MW1011
0057029700999991961012715004+60117+019900FM-12+000399999V0202401N00721220001CN0400001N9-00221-00781101771ADDAY111999GF104991011001022501041011MD1710251+9999MW1011
0070029700999991961012718004+60117+019900FM-12+000399999V0202401N00721220001CN0300001N9-00221-00781101631ADDAY121999GF107991041001999999041011KA1999M-00111MD1710191+9999MW1021
0057029700999991961012721004+60117+019900FM-12+000399999V0202401N00821220001CN0300001N9-00221-00781101401ADDAY121999GF105991031001999999041011MD1710311+9999MW1021
0057029700999991961012800004+60117+019900FM-12+000399999V0202801N00931220001CN0300001N9-00111-00721101041ADDAY121999GF104991021001999999041011MD1710081+9999MW1011
0057029700999991961012803004+60117+019900FM-12+000399999V0202201N00931220001CN0300001N9-00111-00611100851ADDAY111999GF104991031001999999041011MD1710251+9999MW1021
0070029700999991961012806004+60117+019900FM-12+000399999V0202401N00931002401CN0013001N9-00111-00391100631ADDAY121999GF108991081071002501999999KA1999N-00281MD1810291+9999MW1731
0076029700999991961012809004+60117+019900FM-12+000399999V0202201N00721004501CN0050001N9+00001-00281100481ADDAY121999GF108991999061004501021999MD1610201+9999MW1101EQDQ01+000082SCOTLC
0057029700999991961012812004+60117+019900FM-12+000399999V0202501N00721004501CN0080001N9+00221+00001100491ADDAY121999GF108991081051004501999999MD1310011+9999MW1021
0057029700999991961012815004+60117+019900FM-12+000399999V0202501N00511220001CN0150001N9+00221+00001100581ADDAY101999GF102991021001999999051001MD1210121+9999MW1021
0070029700999991961012818004+60117+019900FM-12+000399999V0202601N00461220001CN0150001N9+00221+00111100651ADDAY111999GF103991001001999999041081KA1999M+00281MD1210091+9999MW1011
0057029700999991961012821004+60117+019900FM-12+000399999V0202201N00411220001CN0150001N9+00111+00001100811ADDAY111999GF103991001001999999041081MD1310211+9999MW1021
0057029700999991961012900004+60117+019900FM-12+000399999V0202201N00511220001CN0100001N9+00111-00111100661ADDAY121999GF106991001001999999051061MD1710201+9999MW1031
0057029700999991961012903004+60117+019900FM-12+000399999V0202001N00511004501CN0100001N9+00111+00001100471ADDAY121999GF108991081051004501999999MD1710251+9999MW1031
0070029700999991961012906004+60117+019900FM-12+000399999V0201901N00931002401CN0100001N9+00111+00111100111ADDAY121999GF108991081071002501999999KA1999N-00111MD1710481+9999MW1021
0057029700999991961012909004+60117+019900FM-12+000399999V0201701N00931004501CN0080001N9+00221+00001099721ADDAY121999GF108991081051004501999999MD1710521+9999MW1021
0057029700999991961012912004+60117+019900FM-12+000399999V0201901N01131001501CN0020001N9+00111+00001099231ADDAY171999GF108991081071001501999999MD1710471+9999MW1681
0057029700999991961012915004+60117+019900FM-12+000399999V0202101N01031001501CN0080001N9+00111+00111099001ADDAY171999GF108991081071001501999999MD1610291+9999MW1231
0081029700999991961012918004+60117+019900FM-12+000399999V0202201N00931004501CN0100001N9+00221+00111098951ADDAA199003091AY121999GF107991071051004501999999KA1999M+00221MD1710071+9999MW1021
0057029700999991961012921004+60117+019900FM-12+000399999V0202201N01031007801CN0250001N9+00221+00001098941ADDAY121999GF107991071051008001999999MD1810011+9999MW1021
0057029700999991961013000004+60117+019900FM-12+000399999V0202001N01131007801CN0250001N9+00221+00221098571ADDAY121999GF107991071051008001999999MD1810491+9999MW1021
0057029700999991961013003004+60117+019900FM-12+000399999V0202001N01441004501CN0060001N9+00281+00221098011ADDAY161999GF108991081051004501999999MD1810751+9999MW1631
0081029700999991961013006004+60117+019900FM-12+000399999V0202101N00931001501CN0100001N9+00281+00221097741ADDAA199003091AY161999GF108991081071001501999999KA1999N-00111MD1710361+9999MW1211
0057029700999991961013009004+60117+019900FM-12+000399999V0202101N01031002401CN0250001N9+00281+00221097721ADDAY121999GF107991071051002501071999MD1510031+9999MW1011
0076029700999991961013012004+60117+019900FM-12+000399999V0202101N01031007801CN0300001N9+00281+00221097551ADDAY121999GF108991999051008001071999MD1710231+9999MW1021EQDQ01+000082SCOTLC
0081029700999991961013018004+60117+019900FM-12+000399999V0202201N00721004501CN0250001N9+00281+00221097481ADDAA199000391AY121999GF108991081051004501999999KA1999M+00281MD1310051+9999MW1021
0057029700999991961013021004+60117+019900FM-12+000399999V0202901N00771004501CN0300001N9+00001-00111097761ADDAY121999GF108991081051004501999999MD1310371+9999MW1021
0057029700999991961013100004+60117+019900FM-12+000399999V0202901N00771007801CN0300001N9+00001-00281098041ADDAY121999GF108991081051008001999999MD1210371+9999MW1021
0057029700999991961013103004+60117+019900FM-12+000399999V0202901N00511007801CN0300001N9+00001-00391098251ADDAY121999GF108991081051008001999999MD1210281+9999MW1021
0070029700999991961013106004+60117+019900FM-12+000399999V0202901N00311007801CN0300001N9-00111-00221098361ADDAY121999GF107991071051008001999999KA1999N-00111MD1210151+9999MW1021
0057029700999991961013109004+60117+019900FM-12+000399999V0202701N00211007801CN0300001N9-00111-00281098471ADDAY121999GF105991051051008001021999MD1210151+9999MW1021
0057029700999991961013112004+60117+019900FM-12+000399999V0209991C00001004501CN0250001N9+00001-00111098501ADDAY121999GF108991061061004501021999MD1810041+9999MW1021
0057029700999991961013115004+60117+019900FM-12+000399999V0209991C00001001501CN0040001N9+00001+00001098561ADDAY151999GF108991081071001501999999MD1210081+9999MW1501
0070029700999991961013118004+60117+019900FM-12+000399999V0202201N00211004501CN0050001N9+00221+00111098601ADDAY121999GF107991071051004501999999KA1999M+00221MD1210051+9999MW1021
0057029700999991961013121004+60117+019900FM-12+000399999V0202401N00311004501CN0080001N9+00221+00111098721ADDAY121999GF107991071051004501999999MD1210161+9999MW1021
0057029700999991961020100004+60117+019900FM-12+000399999V0202001N00211007801CN0080001N9+00221+00111098771ADDAY121999GF107991071051008001999999MD1210071+9999MW1501
0057029700999991961020103004+60117+019900FM-12+000399999V0209991C00001007801CN0100001N9+00111+00111098801ADDAY121999GF108991071051008001999999MD1210041+9999MW1021
0081029700999991961020106004+60117+019900FM-12+000399999V0202401N00051004501CN0100001N9+00221+00111098881ADDAA199000691AY151999GF108991081071004501999999KA1999N+00111MD1810111+9999MW1511
0057029700999991961020109004+60117+019900FM-12+000399999V0202301N00361007801CN0200001N9+00221+00001099021ADDAY121999GF107991071061008001999999MD1210191+9999MW1021
0057029700999991961020112004+60117+019900FM-12+000399999V0202501N00411007801CN0150001N9+00221-00111099161ADDAY121999GF105991051081008001031001MD1210191+9999MW1051
0057029700999991961020115004+60117+019900FM-12+000399999V0202501N00211007801CN0300001N9+00111-00221099321ADDAY121999GF108991081051008001999999MD1210211+9999MW1031
0081029700999991961020118004+60117+019900FM-12+000399999V0202901N00211030001CN0300001N9+00111-00221099411ADDAA199000391AY121999GF105991031051008001041999KA1999M+00221MD1210121+9999MW1011
0057029700999991961020121004+60117+019900FM-12+000399999V0209991C00001007801CN0300001N9+00001-00111099511ADDAY121999GF108991051051008001999999MD1210131+9999MW1021
0057029700999991961020200004+60117+019900FM-12+000399999V0201301N00211004501CN0200001N9-00111-00221099521ADDAY181999GF108991081061004501999999MD1210011+9999MW1871
0057029700999991961020203004+60117+019900FM-12+000399999V0201901N00211004501CN0200001N9+00111+00111099451ADDAY121999GF108991081061004501999999MD1710091+9999MW1111
0057029700999991961020206004+60117+019900FM-12+000399999V0201201N00211030001CN0100001N9+00001-00111099421ADDAY121999GF106991031051004501071999MD1710051+9999MW1021
0057029700999991961020209004+60117+019900FM-12+000399999V0200901N00101002401CN0070001N9+00111+00001099401ADDAY121999GF108991061071002501071999MD1810031+9999MW1021
0057029700999991961020215004+60117+019900FM-12+000399999V0200701N00621001501CN0015001N9+00001-00111099081ADDAY171999GF108991081071001501999999MD1710241+9999MW1731
0081029700999991961020218004+60117+019900FM-12+000399999V0200701N00571001501CN0020001N9+00001-00111098971ADDAA199001091AY171999GF108991081071001501999999KA1999M+00111MD1710151+9999MW1731
0057029700999991961020221004+60117+019900FM-12+000399999V0200601N00361001501CN0060001N9+00111+00001098941ADDAY121999GF108991081071001501999999MD1610041+9999MW1021
0057029700999991961020300004+60117+019900FM-12+000399999V0201301N00151004501CN0100001N9+00111+00001098961ADDAY121999GF107991071051004501071999MD1110031+9999MW1011
0057029700999991961020303004+60117+019900FM-12+000399999V0201201N00311007801CN0150001N9+00111+00111099031ADDAY121999GF107991051051008001031999MD1210091+9999MW1021
0057029700999991961020309004+60117+019900FM-12+000399999V0201301N00311002401CN0035001N9+00221+00111099211ADDAY121999GF108991081071002501999999MD1210171+9999MW1101
0081029700999991961020318004+60117+019900FM-12+000399999V0201201N00311002401CN0100001N9+00111+00111099451ADDAA199001091AY121999GF108991081071002501999999KA1999M+00221MD1110071+9999MW1021
0057029700999991961020400004+60117+019900FM-12+000399999V0201001N00211002401CN0020001N9+00001+00001099491ADDAY171999GF108991081071002501999999MD1710031+9999MW1731
0057029700999991961020403004+60117+019900FM-12+000399999V0209991C00001000151CN0015001N9+00001+00001099431ADDAY171999GF109991091999000251999999MD1710081+9999MW1751
0081029700999991961020406004+60117+019900FM-12+000399999V0209991C00001000601CN0025001N9+00001+00001099411ADDAA199005091AY171999GF108991081071000751999999KA1999N+00001MD1710031+9999MW1221
0057029700999991961020409004+60117+019900FM-12+000399999V0209991C00001000601CN0030001N9+00001+00001099421ADDAY171999GF108991081071000751999999MD1210011+9999MW1231
0057029700999991961020415004+60117+019900FM-12+000399999V0201201N00211001501CN0016001N9+00001+00001099501ADDAY171999GF108991081071001501999999MD1310081+9999MW1711
0081029700999991961020418004+60117+019900FM-12+000399999V0200701N00211001501CN0060001N9+00001+00001099681ADDAA199002091AY171999GF108991081071001501999999KA1999M+00001MD1210241+9999MW1221
0057029700999991961020421004+60117+019900FM-12+000399999V0200301N00261002401CN0080001N9-00111-00221099861ADDAY121999GF107991071071002501999999MD1210231+9999MW1021
0057029700999991961020500004+60117+019900FM-12+000399999V0200201N00151002401CN0020001N9-00221-00221100041ADDAY121999GF107991071071002501999999MD1210241+9999MW1101
0057029700999991961020503004+60117+019900FM-12+000399999V0209991C00001002401CN0006001N9-00501-00611100171ADDAY121999GF106991061071002501999999MD1210171+9999MW1461
0081029700999991961020506004+60117+019900FM-12+000399999V0203601N00361002401CN0060001N9-00221-00221100331ADDAA199001091AY121999GF107991071071002501999999KA1999N-00611MD1310211+9999MW1021
0076029700999991961020509004+60117+019900FM-12+000399999V0203501N00511002401CN0040001N9-00221-00281100541ADDAY171999GF108991999071002501031999MD1610281+9999MW1701EQDQ01+000082SCOTLC
0057029700999991961020515004+60117+019900FM-12+000399999V0203201N00411002401CN0150001N9-00391-00611100871ADDAY121999GF108991081071002501999999MD1210211+9999MW1021
0081029700999991961020518004+60117+019900FM-12+000399999V0202801N00361002401CN0100001N9-00391-00501101011ADDAA199000691AY121999GF108991081071002501999999KA1999M-00111MD1110191+9999MW1021
0057029700999991961020521004+60117+019900FM-12+000399999V0203001N00311002401CN0100001N9-00391-00501101111ADDAY121999GF108991081071002501999999MD1210131+9999MW1021
0057029700999991961020600004+60117+019900FM-12+000399999V0202701N00311002401CN0100001N9-00391-00501101241ADDAY121999GF108991081071002501999999MD1210171+9999MW1021
0057029700999991961020603004+60117+019900FM-12+000399999V0209991C00001002401CN0100001N9-00501-00501101251ADDAY121999GF108991081071002501999999MD1210011+9999MW1021
0070029700999991961020606004+60117+019900FM-12+000399999V0201901N00621002401CN0150001N9-00721-00781101231ADDAY121999GF108991081071002501999999KA1999N-00721MD1810031+9999MW1021
0057029700999991961020609004+60117+019900FM-12+000399999V0202101N00821004501CN0300001N9-00221-00391101021ADDAY121999GF108991081051004501999999MD1710231+9999MW1021
0076029700999991961020615004+60117+019900FM-12+000399999V0201801N01231002401CN0030001N9+00111-00111100331ADDAY171999GF108991081071002501999999MD1710592+9999MW1721EQDQ01+000592APC3  
0081029700999991961020618004+60117+019900FM-12+000399999V0201801N01391001501CN0050001N9+00111-00111099901ADDAA199001091AY171999GF108991081071001501999999KA1999M+00111MD1710571+9999MW1681
0057029700999991961020621004+60117+019900FM-12+000399999V0201901N01491004501CN0100001N9+00111+00001099541ADDAY171999GF108991081051004501999999MD1710481+9999MW1231
0057029700999991961020700004+60117+019900FM-12+000399999V0201901N01491004501CN0050001N9+00221+00001099231ADDAY161999GF108991081051004501999999MD1710411+9999MW1631
0057029700999991961020703004+60117+019900FM-12+000399999V0201901N01341004501CN0070001N9+00221+00111099001ADDAY161999GF108991081051004501999999MD1710311+9999MW1611
0081029700999991961020706004+60117+019900FM-12+000399999V0201901N01231002401CN0100001N9+00221+00111098931ADDAA199002091AY121999GF105991051051002501999999KA1999N+00111MD1610091+9999MW1011
0057029700999991961020709004+60117+019900FM-12+000399999V0201901N01341001501CN0100001N9+00281+00111098911ADDAY111999GF107991071051001501999999MD1510031+9999MW1031
0057029700999991961020712004+60117+019900FM-12+000399999V0202001N01441002401CN0150001N9+00281+00111098951ADDAY121999GF108991071061002501021999MD1210051+9999MW1021
0057029700999991961020715004+60117+019900FM-12+000399999V0202001N01291030001CN0150001N9+00281+00111099001ADDAY111999GF105991021061004501081001MD1310071+9999MW1011
0081029700999991961020718004+60117+019900FM-12+000399999V0202001N01291004501CN0150001N9+00281+00111099101ADDAA199000691AY111999GF106991061051004501001001KA1999M+00391MD1210131+9999MW1031
0057029700999991961020721004+60117+019900FM-12+000399999V0202101N01231004501CN0100001N9+00281+00221099151ADDAY121999GF108991081051004501999999MD1210071+9999MW1021
0057029700999991961020800004+60117+019900FM-12+000399999V0202401N00411004501CN0100001N9+00221+00001099391ADDAY121999GF107991071051004501999999MD1210321+9999MW1501
0057029700999991961020803004+60117+019900FM-12+000399999V0202501N00411030001CN0150001N9+00111+00001099621ADDAY151999GF106991041051004501041001MD1210311+9999MW1201
0081029700999991961020806004+60117+019900FM-12+000399999V0202601N00461004501CN0200001N9+00111+00001099881ADDAA199000691AY121999GF108991081051004501999999KA1999N+00001MD1210351+9999MW1031
0057029700999991961020815004+60117+019900FM-12+000399999V0209991C00001220001CN0300001N9+00001-00221100701ADDAY111999GF102991021051004501041001MD1210331+9999MW1011
0070029700999991961020818004+60117+019900FM-12+000399999V0203201N00211220001CN0300001N9-00221-00281101001ADDAY121999GF103991031051004501041001KA1999M+00221MD1210401+9999MW1021
0057029700999991961020821004+60117+019900FM-12+000399999V0209991C00001220001CN0300001N9-00391-00501101131ADDAY101999GF102991021051004501001001MD1210171+9999MW1021
0057029700999991961020900004+60117+019900FM-12+000399999V0209991C00001220001CN0300001N9-00501-00611101181ADDAY101999GF102991021051008001001001MD1210071+9999MW1021
0057029700999991961020903004+60117+019900FM-12+000399999V0209991C00001220001CN0300001N9-00611-00721101201ADDAY101999GF102991011051008001041001MD1110021+9999MW1021
0070029700999991961020906004+60117+019900FM-12+000399999V0209991C00001220001CN0200001N9-00721-00781101191ADDAY101999GF102991011051004501041001KA1999N-00721MD1010011+9999MW1031
0057029700999991961020909004+60117+019900FM-12+000399999V0209991C00001004501CN0250001N9-00391-00501101211ADDAY121999GF107991071051004501041001MD1110031+9999MW1021
0057029700999991961020915004+60117+019900FM-12+000399999V0209991C00001004501CN0400001N9-00221-00391101261ADDAY121999GF107991071051004501999999MD1110051+9999MW1021
0057029700999991961020921004+60117+019900FM-12+000399999V0209991C00001004501CN0400001N9-00281-00501101621ADDAY121999GF107991071051004501999999MD1210231+9999MW1021
0057029700999991961021000004+60117+019900FM-12+000399999V0209991C00001004501CN0300001N9-00221-00391101771ADDAY121999GF107991071051004501999999MD1210201+9999MW1021
0057029700999991961021003004+60117+019900FM-12+000399999V0209991C00001004501CN0300001N9-00281-00501101861ADDAY121999GF108991081051004501999999MD1210151+9999MW1031
0070029700999991961021006004+60117+019900FM-12+000399999V0209991C00001004501CN0300001N9-00221-00391101971ADDAY121999GF108991081051004501999999KA1999N-00391MD1210151+9999MW1021
0057029700999991961021009004+60117+019900FM-12+000399999V0202801N00051030001CN0300001N9-00221-00391101941ADDAY171999GF108991041051008001071999MD1510041+9999MW1221
0057029700999991961021015004+60117+019900FM-12+000399999V0202201N00721030001CN0300001N9+00001-00221101591ADDAY171999GF108991031051004501071999MD1710401+9999MW1231
0081029700999991961021018004+60117+019900FM-12+000399999V0202201N00721004501CN0300001N9+00111-00111101401ADDAA199000691AY121999GF108991081051004501999999KA1999M+00111MD1610251+9999MW1021
0057029700999991961021021004+60117+019900FM-12+000399999V0202201N00721004501CN0080001N9+00111+00001101021ADDAY121999GF108991081051004501999999MD1810511+9999MW1681
0057029700999991961021100004+60117+019900FM-12+000399999V0202101N00931001501CN0100001N9+00111+00111100611ADDAY171999GF108991081071001501999999MD1810401+9999MW1681
0057029700999991961021103004+60117+019900FM-12+000399999V0202101N00821001501CN0100001N9+00111+00111100211ADDAY171999GF108991081071001501999999MD1710431+9999MW1231
0081029700999991961021106004+60117+019900FM-12+000399999V0202101N00621001501CN0060001N9+00221+00111099961ADDAA199001091AY121999GF108991081061001501999999KA1999N+00111MD1710331+9999MW1021
0057029700999991961021109004+60117+019900FM-12+000399999V0202301N00511001501CN0100001N9+00221+00221099831ADDAY121999GF108991081061001501999999MD1710171+9999MW1021
0057029700999991961021115004+60117+019900FM-12+000399999V0202101N00411220001CN0150001N9+00221+00111099571ADDAY121999GF103991011051004501001011MD1710121+9999MW1051
0070029700999991961021118004+60117+019900FM-12+000399999V0202401N00411220001CN0100001N9+00221+00111099541ADDAY111999GF104991021001999999041051KA1999M+00281MD1510041+9999MW1031
0057029700999991961021121004+60117+019900FM-12+000399999V0202501N00311220001CN0150001N9+00111+00111099601ADDAY111999GF103991001001999999001051MD1310081+9999MW1021
0057029700999991961021200004+60117+019900FM-12+000399999V0203101N00211220001CN0200001N9+00001+00001099681ADDAY101999GF103991031051008001999999MD1210111+9999MW1021
0057029700999991961021203004+60117+019900FM-12+000399999V0203401N00411220001CN0250001N9+00111-00111099791ADDAY101999GF101991011001999999041001MD1210151+9999MW1011
0070029700999991961021206004+60117+019900FM-12+000399999V0203401N00211220001CN0300001N9-00111-00221100071ADDAY101999GF103991011001999999041011KA1999N-00111MD1210371+9999MW1031
0057029700999991961021209004+60117+019900FM-12+000399999V0203501N00511220001CN0400001N9+00111+00001100401ADDAY101999GF103991011001999999041011MD1210441+9999MW1021
0076029700999991961021215004+60117+019900FM-12+000399999V0202901N004119999999N0400001N9+00111-00281100851ADDAY121999GF106991031041999999041061MD1210311+9999MW1021EQDQ01+000992SCOLCB
0070029700999991961021218004+60117+019900FM-12+000399999V0203101N00411220001CN0400001N9+00001-00391101041ADDAY121999GF103991011001999999041011KA1999M+00221MD1210251+9999MW1011
0057029700999991961021221004+60117+019900FM-12+000399999V0203101N00411220001CN0400001N9-00111-00391101211ADDAY101999GF103991011001999999041011MD1210231+9999MW1021
0057029700999991961021300004+60117+019900FM-12+000399999V0203101N00411220001CN0400001N9-00111-00391101381ADDAY101999GF102991001001999999001011MD1210231+9999MW1011
0057029700999991961021303004+60117+019900FM-12+000399999V0203201N00211220001CN0400001N9-00221-00391101571ADDAY101999GF100991001001999999001001MD1210251+9999MW1011
0070029700999991961021306004+60117+019900FM-12+000399999V0200101N00211220001CN0400001N9-00281-00391101691ADDAY101999GF100991001001999999001001KA1999N-00391MD1210161+9999MW1021
0057029700999991961021309004+60117+019900FM-12+000399999V0209991C00001220001CN0400001N9+00001-00281101941ADDAY101999GF103991021001999999041021MD1210331+9999MW1031
0057029700999991961021315004+60117+019900FM-12+000399999V0202301N00411220001CN0400001N9+00001-00221102071ADDAY121999GF106991021001999999051061MD1210041+9999MW1021
0070029700999991961021318004+60117+019900FM-12+000399999V0202001N00511220001CN0400001N9+00111-00111102001ADDAY121999GF103991031001999999041001KA1999M+00111MD1610091+9999MW1011
0057029700999991961021321004+60117+019900FM-12+000399999V0202001N00931220001CN0300001N9+00111-00221101791ADDAY121999GF104991041001999999041001MD1810281+9999MW1011
0057029700999991961021400004+60117+019900FM-12+000399999V0202201N01031004501CN0100001N9+00111+00111101651ADDAY171999GF108991081071004501999999MD1710191+9999MW1691
0076029700999991961021403004+60117+019900FM-12+000399999V0202101N01031220001CN0100001N9+00221+00111101351ADDAY171999GF103991999061002501001001MD1710401+9999MW1231EQDQ01+000022SCOTLC
0081029700999991961021406004+60117+019900FM-12+000399999V0202201N00821002401CN0100001N9+00221+00111101151ADDAA199003091AY121999GF108991081071002501999999KA1999N+00001MD1710271+9999MW1021
0057029700999991961021409004+60117+019900FM-12+000399999V0202201N01031004501CN0150001N9+00221+00111101001ADDAY121999GF108991081071004501999999MD1610201+9999MW1021
0057029700999991961021412004+60117+019900FM-12+000399999V0202301N00721002401CN0150001N9+00281+00221100901ADDAY121999GF108991081061002501999999MD1810131+9999MW1021
0057029700999991961021415004+60117+019900FM-12+000399999V0202501N00721002401CN0150001N9+00391+00281100851ADDAY121999GF108991081061002501999999MD1510071+9999MW1021
0070029700999991961021418004+60117+019900FM-12+000399999V0202701N00621004501CN0100001N9+00391+00281100831ADDAY121999GF108991081051004501999999KA1999M+00391MD1610031+9999MW1021
0057029700999991961021500004+60117+019900FM-12+000399999V0202701N00721004501CN0100001N9+00391+00281100951ADDAY121999GF108991081051004501999999MD1310131+9999MW1021
0057029700999991961021503004+60117+019900FM-12+000399999V0203401N00931220001CN0100001N9+00501+00221101171ADDAY121999GF104991041051004501001001MD1210291+9999MW1021
0070029700999991961021506004+60117+019900FM-12+000399999V0203401N00721220001CN0200001N9+00281+00111101551ADDAY121999GF103991011051004501041001KA1999N+00281MD1210511+9999MW1011
0057029700999991961021509004+60117+019900FM-12+000399999V0203501N00621220001CN0400001N9+00281+00001102011ADDAY111999GF104991011001999999041051MD1210411+9999MW1031
0057029700999991961021515004+60117+019900FM-12+000399999V0203601N00411220001CN0400001N9+00281-00281102551ADDAY101999GF102991001001999999001011MD1210361+9999MW1021
0070029700999991961021518004+60117+019900FM-12+000399999V0209991C00001220001CN0300001N9-00221-00221102691ADDAY101999GF101991001001999999001011KA1999M+00501MD1210191+9999MW1021
0057029700999991961021521004+60117+019900FM-12+000399999V0209991C00001220001CN0300001N9-00281-00281102781ADDAY101999GF101991001001999999001011MD1010121+9999MW1021
0057029700999991961021600004+60117+019900FM-12+000399999V0209991C00001220001CN0300001N9-00391-00391102821ADDAY101999GF101991001001999999001011MD1210051+9999MW1021
0057029700999991961021603004+60117+019900FM-12+000399999V0202301N00101007801CN0300001N9+00111-00111102551ADDAY121999GF108991081051008001999999MD1710361+9999MW1031
0057029700999991961021615004+60117+019900FM-12+000399999V0202601N00621220001CN0300001N9+00391+00111102271ADDAY111999GF104991021001999999081051MD1310011+9999MW1051
0070029700999991961021618004+60117+019900FM-12+000399999V0202501N00621220001CN0300001N9+00281+00221102251ADDAY101999GF103991031001999999041011KA1999M+00391MD1710031+9999MW1021
0031029700999991961021621004+60117+019900FM-12+000399999V02099999999999999999N0300001N9+00111+00111102231ADDAY101999MD1710031+9999MW1021
0057029700999991961021700004+60117+019900FM-12+000399999V0203001N00211220001CN0300001N9+00221+00111102181ADDAY101999GF102991001001999999001011MD1710071+9999MW1021
0057029700999991961021703004+60117+019900FM-12+000399999V0209991C00001220001CN0300001N9+00221+00111102151ADDAY101999GF102991001001999999001011MD1710041+9999MW1021
0070029700999991961021706004+60117+019900FM-12+000399999V0202401N00051024001CN0200001N9+00111+00001102181ADDAY121999GF106991061001999999051001KA1999N+00111MD1510041+9999MW1031
0057029700999991961021709004+60117+019900FM-12+000399999V0202601N00511075001CN0250001N9+00281+00111102211ADDAY121999GF106991021001999999041021MD1510041+9999MW1021
0057029700999991961021712004+60117+019900FM-12+000399999V0202601N00511004501CN0150001N9+00391+00221102161ADDAY121999GF107991071061004501999999MD1810071+9999MW1031
0057029700999991961021715004+60117+019900FM-12+000399999V0202601N00511004501CN0100001N9+00391+00221102031ADDAY121999GF106991061061004501999999MD1710171+9999MW1011
0070029700999991961021718004+60117+019900FM-12+000399999V0202401N00311220001CN0060001N9+00281+00221102031ADDAY111999GF103991031001999999031001KA1999M+00391MD1410001+9999MW1101
0057029700999991961021721004+60117+019900FM-12+000399999V0202501N00461220001CN0060001N9+00221+00111101961ADDAY101999GF102991021001999999031001MD1710091+9999MW1101
0057029700999991961021800004+60117+019900FM-12+000399999V0202501N00621220001CN0100001N9+00281+00111101841ADDAY101999GF101991011001999999031001MD1710161+9999MW1101
0057029700999991961021803004+60117+019900FM-12+000399999V0202701N00721220001CN0200001N9+00281+00001101711ADDAY101999GF101991011001999999041001MD1710171+9999MW1021
0070029700999991961021806004+60117+019900FM-12+000399999V0202801N00311030001CN0060001N9+00281+00111101741ADDAY121999GF105991011051008001081001KA1999N+00221MD1110041+9999MW1101
0057029700999991961021809004+60117+019900FM-12+000399999V0202801N00511024001CN0060001N9+00391+00111101791ADDAY121999GF106991061001999999031011MD1010071+9999MW1101
0057029700999991961021812004+60117+019900FM-12+000399999V0203001N00511220001CN0200001N9+00721+00111101851ADDAY121999GF106991011001999999041011MD1210081+9999MW1051
0057029700999991961021815004+60117+019900FM-12+000399999V0203001N00101220001CN0200001N9+00501+00111101841ADDAY121999GF106991011001999999041011MD1710011+9999MW1051
0070029700999991961021818004+60117+019900FM-12+000399999V0203001N00211220001CN0300001N9+00281+00111101801ADDAY101999GF100991001001999999001001KA1999M+00721MD1610051+9999MW1021
0057029700999991961021821004+60117+019900FM-12+000399999V0209991C00001220001CN0250001N9+00001-00111101811ADDAY101999GF100991001001999999001001MD1310011+9999MW1021
0057029700999991961021900004+60117+019900FM-12+000399999V0209991C00001220001CN0250001N9-00111-00221101811ADDAY101999GF100991001001999999001001MD1410001+9999MW1021
0057029700999991961021903004+60117+019900FM-12+000399999V0209991C00001220001CN0250001N9-00111-00221101811ADDAY101999GF101991001001999999001011MD1410001+9999MW1021
0070029700999991961021906004+60117+019900FM-12+000399999V0203301N00051030001CN0060001N9+00001+00001101871ADDAY121999GF108991021061004501071999KA1999N-00221MD1210081+9999MW1101
0057029700999991961021909004+60117+019900FM-12+000399999V0203401N00511030001CN0070001N9+00111+00111102031ADDAY121999GF108991041061008001071999MD1110211+9999MW1101
0057029700999991961021915004+60117+019900FM-12+000399999V0203601N00311220001CN0300001N9+00391+00111102301ADDAY111999GF103991001001999999001011MD1210191+9999MW1011
0070029700999991961021918004+60117+019900FM-12+000399999V0209991C00001220001CN0200001N9-00111-00111102471ADDAY101999GF102991001001999999001011KA1999M+00501MD1210231+9999MW1021
0057029700999991961021921004+60117+019900FM-12+000399999V0209991C00001220001CN0150001N9-00221-00221102571ADDAY101999GF102991021001999999051001MD1210131+9999MW1031
0057029700999991961022000004+60117+019900FM-12+000399999V0209991C00001220001CN0200001N9-00111-00221102581ADDAY101999GF102991021001999999041001MD1110011+9999MW1021
0057029700999991961022003004+60117+019900FM-12+000399999V0209991C00001220001CN0200001N9+00001+00001102531ADDAY101999GF101991011001999999041001MD1810071+9999MW1011
0070029700999991961022006004+60117+019900FM-12+000399999V0202201N00211220001CN0200001N9+00221+00111102421ADDAY101999GF106991031001999999041011KA1999N-00221MD1710151+9999MW1021
0078029700999991961022015004+60117+019900FM-12+000399999V0202801N00511220001CN0200001N9+00501+00221102211ADDAY111999GF102991011051008001041011MW1051EQDQ01+000032APCTENQ02+000002APC3  
0070029700999991961022018004+60117+019900FM-12+000399999V0202401N00311220001CN0200001N9+00221+00001102221ADDAY101999GF102991001001999999001011KA1999M+00611MD1710011+9999MW1021
0057029700999991961022021004+60117+019900FM-12+000399999V0202501N00411220001CN0300001N9+00281+00221102161ADDAY101999GF103991001001999999001011MD1710081+9999MW1021
0057029700999991961022100004+60117+019900FM-12+000399999V0202201N00411220001CN0200001N9+00221+00221102041ADDAY101999GF103991001001999999001011MD1710161+9999MW1021
0070029700999991961022106004+60117+019900FM-12+000399999V0202801N00721220001CN0200001N9+00281+00111101901ADDAY111999GF104991021001999999041021KA1999N-00111MD1310031+9999MW1051
0057029700999991961022109004+60117+019900FM-12+000399999V0203101N00621075001CN0250001N9+00501+00001102211ADDAY121999GF105991011001999999041051MD1710411+9999MW1051
0057029700999991961022112004+60117+019900FM-12+000399999V0203001N00671075001CN0300001N9+00781-00111102441ADDAY121999GF105991011001999999041051MD1210311+9999MW1021
0057029700999991961022115004+60117+019900FM-12+000399999V0203201N00671220001CN0400001N9+00721-00111102671ADDAY101999GF102991001001999999001081MD1210311+9999MW1011
0070029700999991961022118004+60117+019900FM-12+000399999V0203401N00411220001CN0300001N9+00281-00221102941ADDAY101999GF101991001001999999001011KA1999M+00781MD1210351+9999MW1021
0057029700999991961022121004+60117+019900FM-12+000399999V0209991C00001220001CN0300001N9-00221-00221103161ADDAY101999GF100991001001999999001001MD1210291+9999MW1021
0057029700999991961022200004+60117+019900FM-12+000399999V0209991C00001220001CN0300001N9-00221-00281103361ADDAY101999GF101991011001999999041001MD1210271+9999MW1031
0057029700999991961022203004+60117+019900FM-12+000399999V0209991C00001220001CN0300001N9-00281-00391103451ADDAY101999GF100991001001999999001001MD1210121+9999MW1011
0070029700999991961022206004+60117+019900FM-12+000399999V0209991C00001220001CN0400001N9-00391-00391103481ADDAY101999GF101991001001999999001011KA1999N-00391MD1010041+9999MW1021
0057029700999991961022209004+60117+019900FM-12+000399999V0209991C00001220001CN0400001N9+00221-00221103591ADDAY101999GF102991001001999999001011MD1010151+9999MW1021
0057029700999991961022212004+60117+019900FM-12+000399999V0202701N00411220001CN0400001N9+00611-00281103591ADDAY101999GF102991001001999999001021MD1010001+9999MW1021
0057029700999991961022215004+60117+019900FM-12+000399999V0202201N00261075001CN0400001N9+00281+00001103531ADDAY111999GF107991021001999999041061MD1710081+9999MW1031
0070029700999991961022218004+60117+019900FM-12+000399999V0202201N00211220001CN0300001N9+00111-00111103421ADDAY101999GF103991011001999999041081KA1999M+00611MD1710151+9999MW1021
0057029700999991961022221004+60117+019900FM-12+000399999V0202401N00511220001CN0300001N9+00111+00001103391ADDAY101999GF103991001001999999001011MD1610041+9999MW1021
0057029700999991961022300004+60117+019900FM-12+000399999V0202601N00411000601CN0015001N9-00111-00221103391ADDAY121999GF108991081061000751999999MD1410001+9999MW1101
0057029700999991961022303004+60117+019900FM-12+000399999V0202701N00311024001CN0100001N9-00111-00221103311ADDAY121999GF108991081001999999071999MD1810111+9999MW1021
0070029700999991961022306004+60117+019900FM-12+000399999V0202901N00411030001CN0100001N9-00111-00111103341ADDAY121999GF108991041061004501071999KA1999N-00111MD1310041+9999MW1021
0057029700999991961022309004+60117+019900FM-12+000399999V0202701N00311001501CN0200001N9+00001-00221103291ADDAY111999GF105991051051001501999999MD1710071+9999MW1011
0070029700999991961022318004+60117+019900FM-12+000399999V0209991C00001220001CN0300001N9-00221-00221103241ADDAY101999GF102991001001999999001011KA1999M+00391MD1210081+9999MW1021
0057029700999991961022321004+60117+019900FM-12+000399999V0209991C00001220001CN0300001N9-00281-00281103211ADDAY101999GF101991001001999999001011MD1710041+9999MW1021
0057029700999991961022400004+60117+019900FM-12+000399999V0209991C00001220001CN0300001N9-00391-00391103151ADDAY101999GF101991001001999999001011MD1710081+9999MW1021
0057029700999991961022403004+60117+019900FM-12+000399999V0209991C00001220001CN0300001N9-00391-00391103201ADDAY101999GF100991001001999999001001MD1310071+9999MW1011
0070029700999991961022406004+60117+019900FM-12+000399999V0209991C00001220001CN0300001N9-00391-00501103201ADDAY101999GF101991001001999999001011KA1999N-00391MD1410001+9999MW1021
0057029700999991961022409004+60117+019900FM-12+000399999V0209991C00001220001CN0150001N9+00111-00111103231ADDAY101999GF101991001001999999001011MD1210031+9999MW1051
0057029700999991961022415004+60117+019900FM-12+000399999V0202201N00211220001CN0250001N9+00281+00111103211ADDAY101999GF101991001001999999001011MD1810031+9999MW1051
0070029700999991961022418004+60117+019900FM-12+000399999V0201601N00511000601CN0007001N9-00111-00111103241ADDAY141999GF108991081071000751999999KA1999M+00501MD1710041+9999MW1501
0057029700999991961022421004+60117+019900FM-12+000399999V0201801N00621000601CN0012001N9+00001-00111103241ADDAY151999GF108991081071000751999999MD1410001+9999MW1511
0057029700999991961022500004+60117+019900FM-12+000399999V0201801N00621001501CN0020001N9+00001+00001103261ADDAY121999GF108991081071001501999999MD1210031+9999MW1501
0057029700999991961022503004+60117+019900FM-12+000399999V0201901N00721001501CN0030001N9+00001+00001103411ADDAY151999GF108991081071001501999999MD1210201+9999MW1201
0081029700999991961022506004+60117+019900FM-12+000399999V0201801N00721001501CN0050001N9+00111+00001103221ADDAA199000391AY121999GF108991081071001501999999KA1999N+00001MD1710251+9999MW1501
0057029700999991961022509004+60117+019900FM-12+000399999V0201901N00721002401CN0050001N9+00111-00111103291ADDAY121999GF108991081071002501999999MD1210091+9999MW1101
0057029700999991961022515004+60117+019900FM-12+000399999V0201701N00821001501CN0060001N9+00111+00001103201ADDAY121999GF108991081061001501999999MD1810121+9999MW1101
0081029700999991961022518004+60117+019900FM-12+000399999V0201801N00931002401CN0050001N9+00111+00001103131ADDAA199000391AY121999GF108991081061002501999999KA1999M+00111MD1710091+9999MW1101
0057029700999991961022521004+60117+019900FM-12+000399999V0202001N01031001501CN0050001N9+00111+00111103111ADDAY121999GF108991081061001501999999MD1810031+9999MW1101
0057029700999991961022600004+60117+019900FM-12+000399999V0202001N01131001501CN0050001N9+00221+00111103061ADDAY121999GF108991081061001501999999MD1710071+9999MW1101
0057029700999991961022603004+60117+019900FM-12+000399999V0202101N01131001501CN0050001N9+00111+00111102941ADDAY121999GF108991081061001501999999MD1710161+9999MW1101
0070029700999991961022606004+60117+019900FM-12+000399999V0202001N01131001501CN0030001N9+00111+00001102861ADDAY121999GF108991081061001501999999KA1999N+00111MD1610111+9999MW1101
0057029700999991961022609004+60117+019900FM-12+000399999V0202001N01341001501CN0070001N9+00111+00001102801ADDAY121999GF108991081061001501999999MD1610081+9999MW1021
0057029700999991961022615004+60117+019900FM-12+000399999V0202101N01231001501CN0070001N9+00221+00001102441ADDAY121999GF108991081071001501999999MD1710281+9999MW1501
0081029700999991961022618004+60117+019900FM-12+000399999V0202201N01181001501CN0040001N9+00221+00111102271ADDAA199001091AY121999GF108991081071001501999999KA1999M+00221MD1710231+9999MW1101
0057029700999991961022621004+60117+019900FM-12+000399999V0202201N00821001501CN0030001N9+00221+00111102211ADDAY121999GF108991081061001501999999MD1810081+9999MW1101
0057029700999991961022700004+60117+019900FM-12+000399999V0202201N00821000601CN0020001N9+00221+00111102091ADDAY121999GF108991081061000751999999MD1710161+9999MW1101
0057029700999991961022703004+60117+019900FM-12+000399999V0202001N00721000601CN0015001N9+00221+00221101841ADDAY121999GF108991081061000751999999MD1810331+9999MW1101
0081029700999991961022706004+60117+019900FM-12+000399999V0202001N00721000151CN0013001N9+00221+00221101501ADDAA199000591AY151999GF108991081071000251999999KA1999N+00111MD1710451+9999MW1581
0057029700999991961022709004+60117+019900FM-12+000399999V0202001N00931000601CN0020001N9+00281+00221101101ADDAY161999GF108991081071000751999999MD1810431+9999MW1601
0057029700999991961022715004+60117+019900FM-12+000399999V0202201N00821030001CN0040001N9+00281+00281100621ADDAY121999GF107991031071001501011999MD1710241+9999MW1101
0081029700999991961022718004+60117+019900FM-12+000399999V0202201N00511030001CN0050001N9+00281+00221100531ADDAA199000591AY121999GF106991031061004501041999KA1999M+00391MD1610111+9999MW1101
0057029700999991961022721004+60117+019900FM-12+000399999V0202501N00721220001CN0100001N9+00391+00001100401ADDAY111999GF104991021061004501041999MD1610161+9999MW1031
0057029700999991961022800004+60117+019900FM-12+000399999V0202601N01031220001CN0200001N9+00281+00001100431ADDAY111999GF104991041001999999081001MD1210041+9999MW1021
0057029700999991961022803004+60117+019900FM-12+000399999V0202401N00821220001CN0200001N9+00221+00001100411ADDAY101999GF100991001001999999001001MD1710041+9999MW1011
0070029700999991961022806004+60117+019900FM-12+000399999V0202601N00621220001CN0200001N9+00221+00001100351ADDAY101999GF100991001001999999001001KA1999N+00221MD1710081+9999MW1021
0057029700999991961022809004+60117+019900FM-12+000399999V0202601N00511220001CN0300001N9+00281+00111100301ADDAY101999GF100991001001999999001001MD1710071+9999MW1021
0070029700999991961022818004+60117+019900FM-12+000399999V0202601N00211220001CN0250001N9-00111-00111100361ADDAY101999GF103991001001999999001011KA1999M+00611MD1210071+9999MW1021
0057029700999991961022821004+60117+019900FM-12+000399999V0209991C00001220001CN0250001N9+00111+00111100501ADDAY101999GF103991001001999999001011MD1210191+9999MW1021
0057029700999991961030100004+60117+019900FM-12+000399999V0209991C00001220001CN0150001N9-00221-00281100541ADDAY101999GF102991001001999999001011MD1210051+9999MW1021
0070029700999991961030106004+60117+019900FM-12+000399999V0203401N00311220001CN0300001N9+00001-00221100761ADDAY101999GF102991011001999999041011KA1999N-00391MD1310211+9999MW1021
0057029700999991961030109004+60117+019900FM-12+000399999V0203101N00511220001CN0500001N9+00391-00111100871ADDAY101999GF102991021001022501051051MD1110151+9999MW1021
0057029700999991961030112004+60117+019900FM-12+000399999V0203401N00621220001CN0450001N9+00611-00111100981ADDAY101999GF101991011001999999041011MD1110161+9999MW1021
0057029700999991961030115004+60117+019900FM-12+000399999V0203401N00461220001CN0500001N9+00501-00221101061ADDAY101999GF101991011001999999041011MD1310091+9999MW1021
0070029700999991961030118004+60117+019900FM-12+000399999V0203401N00311220001CN0500001N9+00001-00221101211ADDAY101999GF103991031001022501081001KA1999M+00611MD1310201+9999MW1021
0057029700999991961030121004+60117+019900FM-12+000399999V0203501N00311021001CN0300001N9+00001-00111101351ADDAY121999GF106991061001022501081001MD1310191+9999MW1031
0057029700999991961030200004+60117+019900FM-12+000399999V0203501N00211030001CN0300001N9+00001-00111101471ADDAY121999GF107991031051008001051001MD1210151+9999MW1031
0057029700999991961030203004+60117+019900FM-12+000399999V0203501N00211007801CN0300001N9+00001+00001101561ADDAY121999GF107991051051008001999999MD1210121+9999MW1021
0070029700999991961030206004+60117+019900FM-12+000399999V0203401N00311000601CN0020001N9+00001+00001101701ADDAY141999GF108991071061000751051999KA1999N-00221MD1210191+9999MW1281
0057029700999991961030209004+60117+019900FM-12+000399999V0200101N00261220001CN0050001N9+00001+00001101821ADDAY121999GF102991011061000751041001MD1210161+9999MW1011
0057029700999991961030212004+60117+019900FM-12+000399999V0202401N00411220001CN0400001N9+00501+00221101781ADDAY101999GF101991011011004501001001MD1710051+9999MW1021
0057029700999991961030215004+60117+019900FM-12+000399999V0202201N00361220001CN0400001N9+00391+00111101771ADDAY101999GF101991011001999999041011MD1810011+9999MW1021
0070029700999991961030218004+60117+019900FM-12+000399999V0201701N00101220001CN0300001N9-00111-00111101801ADDAY101999GF101991001001999999001011KA1999M+00611MD1010041+9999MW1021
0057029700999991961030221004+60117+019900FM-12+000399999V0209991C00001220001CN0300001N9-00221-00221101811ADDAY101999GF100991001001999999001001MD1110011+9999MW1011
0057029700999991961030300004+60117+019900FM-12+000399999V0209991C00001220001CN0200001N9-00221-00221101821ADDAY101999GF100991001001999999001001MD1310011+9999MW1021
0057029700999991961030303004+60117+019900FM-12+000399999V0209991C00001024001CN0200001N9+00001-00111101841ADDAY101999GF107991071001999999071999MD1210031+9999MW1031
0081029700999991961030306004+60117+019900FM-12+000399999V0202101N00151004501CN0150001N9+00111+00111101951ADDAA199000691AY121999GF108991071051004501071999KA1999N-00221MD1210151+9999MW1021
0057029700999991961030309004+60117+019900FM-12+000399999V0202501N00261001501CN0060001N9+00221+00221102141ADDAY161999GF108991081071001501999999MD1210251+9999MW1581
0057029700999991961030312004+60117+019900FM-12+000399999V0202601N00101002401CN0100001N9+00281+00281102221ADDAY121999GF107991071051002501999999MD1110111+9999MW1021
0057029700999991961030315004+60117+019900FM-12+000399999V0203101N00311220001CN0200001N9+00391+00111102351ADDAY121999GF103991031051004501001001MD1210171+9999MW1011
0081029700999991961030318004+60117+019900FM-12+000399999V0209991C00001220001CN0300001N9+00001-00111102481ADDAA199000691AY101999GF102991011051004501041001KA1999M+00391MD1210171+9999MW1011
0057029700999991961030321004+60117+019900FM-12+000399999V0201901N002619999999N0200001N9+00111+00001102451ADDAY111999GF105991011001004501041051MD1810041+9999MW1021
0057029700999991961030400004+60117+019900FM-12+000399999V0202101N00411220001CN0200001N9+00221+00111102321ADDAY111999GF104991001001999999001051MD1710171+9999MW1011
0057029700999991961030403004+60117+019900FM-12+000399999V0202001N00621220001CN0200001N9+00221+00111102101ADDAY111999GF106991021001999999041061MD1710291+9999MW1031
0070029700999991961030406004+60117+019900FM-12+000399999V0202101N00931030001CN0250001N9+00221+00111101781ADDAY121999GF107991041051008001071999KA1999N-00221MD1810431+9999MW1021
0057029700999991961030409004+60117+019900FM-12+000399999V0202101N00671030001CN0250001N9+00281+00111101691ADDAY121999GF108991011051004501071061MD1010121+9999MW1021
0057029700999991961030412004+60117+019900FM-12+000399999V0202101N00511024001CN0150001N9+00391+00221101541ADDAY121999GF108991081001999999071999MD1710201+9999MW1021
0057029700999991961030415004+60117+019900FM-12+000399999V0202401N00721030001CN0100001N9+00611+00281101201ADDAY121999GF106991021061008001081011MD1710321+9999MW1011
0089029700999991961030418004+60117+019900FM-12+000399999V0202501N00771220001CN0150001N9+00501+00281101211ADDAY111999GF102991999001999999041001KA1999M+00611MD1610111+9999MW1011EQDQ01+000012SCOTLC
0057029700999991961030421004+60117+019900FM-12+000399999V0203201N00931220001CN0150001N9+00611-00111101331ADDAY121999GF104991031051008001041001MD1010161+9999MW1011
0057029700999991961030500004+60117+019900FM-12+000399999V0203101N00821220001CN0200001N9+00391-00111101601ADDAY111999GF100991001001999999001001MD1210351+9999MW1011
0057029700999991961030503004+60117+019900FM-12+000399999V0203001N00821220001CN0200001N9+00281-00281101841ADDAY101999GF101991001001999999001011MD1210321+9999MW1031
0070029700999991961030506004+60117+019900FM-12+000399999V0203101N00821220001CN0400001N9+00391-00391102061ADDAY111999GF104991021001999999041011KA1999N+00281MD1110291+9999MW1031
0057029700999991961030509004+60117+019900FM-12+000399999V0203101N00931024001CN0500001N9+00501-00281102291ADDAY121999GF107991051001999999051021MD1110311+9999MW1031
0057029700999991961030512004+60117+019900FM-12+000399999V0203301N00771030001CN0500001N9+00721-00281102361ADDAY121999GF107991011051012501041061MD1010091+9999MW1011
0057029700999991961030515004+60117+019900FM-12+000399999V0202201N00411220001CN0500001N9+00611+00001102251ADDAY121999GF107991001001999999041061MD1610151+9999MW1021
0070029700999991961030518004+60117+019900FM-12+000399999V0202501N00411030001CN0400001N9+00501-00111102131ADDAY121999GF108991031061008001051999KA1999M+00781MD1810161+9999MW1021
0057029700999991961030521004+60117+019900FM-12+000399999V0202401N00311030001CN0400001N9+00391-00111102071ADDAY121999GF108991031061008001051999MD1710081+9999MW1021
0057029700999991961030600004+60117+019900FM-12+000399999V0202801N00621030001CN0400001N9+00391-00111102091ADDAY121999GF107991021051012501011999MD1710031+9999MW1011
0057029700999991961030603004+60117+019900FM-12+000399999V0202801N00511220001CN0400001N9+00391-00111101891ADDAY121999GF103991001001999999001051MD1710271+9999MW1011
0070029700999991961030606004+60117+019900FM-12+000399999V0209991C00001220001CN0400001N9+00281+00001101821ADDAY101999GF103991031001999999041011KA1999N+00281MD1810091+9999MW1031
0057029700999991961030609004+60117+019900FM-12+000399999V0203101N00511220001CN0400001N9+00721+00001101821ADDAY111999GF104991011001999999041011MD1710011+9999MW1031
0057029700999991961030612004+60117+019900FM-12+000399999V0202601N00511220001CN0400001N9+01001+00111101761ADDAY111999GF105991001001999999001011MD1710071+9999MW1021
0057029700999991961030615004+60117+019900FM-12+000399999V0202501N00621075001CN0400001N9+01001+00221101541ADDAY121999GF107991011001999999051061MD1710291+9999MW1031
0076029700999991961030618004+60117+019900FM-12+000399999V0202401N00621220001CN0400001N9+00611+00221101251ADDAY121999GF103991999001999999041001MD1710371+9999MW1011EQDQ01+000012SCOTLC
0057029700999991961030621004+60117+019900FM-12+000399999V0202601N00721024001CN0300001N9+00611+00111100981ADDAY101999GF107991071001999999071999MD1710361+9999MW1031
0057029700999991961030700004+60117+019900FM-12+000399999V0202701N00721220001CN0400001N9+00501+00111100931ADDAY121999GF106991001001999999001061MD1710081+9999MW1011
0070029700999991961030706004+60117+019900FM-12+000399999V0203001N01031220001CN0450001N9+00611-00111100971ADDAY111999GF103991031001999999071001KA1999N+00501MD1310051+9999MW1031
0057029700999991961030709004+60117+019900FM-12+000399999V0203301N01341220001CN0450001N9+00611-00221101401ADDAY111999GF103991021051008001041001MD1210471+9999MW1031
0076029700999991961030712004+60117+019900FM-12+000399999V0203501N01341220001CN0450001N9+00391-00391101821ADDAY111999GF103991999001999999041001MD1210461+9999MW1031EQDQ01+000022SCOTLC
0057029700999991961030715004+60117+019900FM-12+000399999V0203401N00931220001CN0500001N9+00281-00391102161ADDAY101999GF103991031001999999041001MD1210451+9999MW1021
0070029700999991961030718004+60117+019900FM-12+000399999V0203201N00101220001CN0400001N9+00001-00391102301ADDAY101999GF102991011001999999041011KA1999M+00721MD1210191+9999MW1021
0057029700999991961030721004+60117+019900FM-12+000399999V0202701N00151220001CN0400001N9-00111-00391102441ADDAY101999GF102991021001999999041001MD1210191+9999MW1031
0057029700999991961030800004+60117+019900FM-12+000399999V0209991C00001220001CN0400001N9-00221-00391102561ADDAY101999GF103991011001999999041011MD1210161+9999MW1031
0057029700999991961030803004+60117+019900FM-12+000399999V0209991C00001021001CN0400001N9-00221-00281102601ADDAY111999GF105991051001022501051001MD1110051+9999MW1031
0089029700999991961030806004+60117+019900FM-12+000399999V0209991C00001220001CN0400001N9-00281-00281102631ADDAY111999GF105991031001999999041011KA1999N+99999MD1210041+9999MW1021EQDQ01 -00222ATMN  
0057029700999991961030809004+60117+019900FM-12+000399999V0209991C00001220001CN0400001N9+00111+00001102631ADDAY111999GF105991031001999999041011MD1410001+9999MW1021
0057029700999991961030812004+60117+019900FM-12+000399999V0201901N00411021001CN0400001N9+00281+00001102481ADDAY121999GF108991081001022501071999MD1810201+9999MW1021
0057029700999991961030815004+60117+019900FM-12+000399999V0202101N00511021001CN0400001N9+00281+00111102201ADDAY121999GF108991081001022501071999MD1710371+9999MW1021
0081029700999991961030818004+60117+019900FM-12+000399999V0202401N00511004501CN0300001N9+00391+00221101871ADDAA199000391AY151999GF108991061051004501071999KA1999M+00611MD1710441+9999MW1021
0057029700999991961030821004+60117+019900FM-12+000399999V0203001N00621220001CN0300001N9+00501+00001101751ADDAY121999GF103991031001999999041001MD1710161+9999MW1011
0076029700999991961030900004+60117+019900FM-12+000399999V0203101N00621220001CN0300001N9+00501-00391101811ADDAY111999GF101991001001999999001011MD1710081+9999MW1011EQDQ01+000012SCOTLC
0057029700999991961030903004+60117+019900FM-12+000399999V0203101N00311220001CN0300001N9+00501+00111101771ADDAY101999GF103991021001999999041011MD1710051+9999MW1031
0070029700999991961030906004+60117+019900FM-12+000399999V0203501N00211024001CN0300001N9+00501+00111101701ADDAY121999GF107991051001999999051011KA1999N+00391MD1810081+9999MW1021
0057029700999991961030909004+60117+019900FM-12+000399999V0202601N00511024001CN0300001N9+00721+00221101621ADDAY121999GF106991051001999999071011MD1810121+9999MW1011
0057029700999991961030912004+60117+019900FM-12+000399999V0202601N00461024001CN0300001N9+00611+00391101421ADDAY121999GF107991071001999999051999MD1810251+9999MW1021
0057029700999991961030915004+60117+019900FM-12+000399999V0203001N00511030001CN0200001N9+01111+00391101261ADDAY121999GF108991011051008001071999MD1610211+9999MW1021
0081029700999991961030918004+60117+019900FM-12+000399999V0203101N00931021001CN0250001N9+01281+00281101311ADDAA199000691AY121999GF108991081001022501071999KA1999M+01281MD1310071+9999MW1021
0076029700999991961031000004+60117+019900FM-12+000399999V0203001N003119999999N0250001N9+01001+00281101441ADDAY111999GF108991999001999999041001MD1210071+9999MW1011EQDQ01+000032SCOTLC
0076029700999991961031003004+60117+019900FM-12+000399999V0203001N003119999999N0300001N9+00721+00281101381ADDAY111999GF108991999001999999041001MD1710081+9999MW1021EQDQ01+000022SCOTLC
0070029700999991961031006004+60117+019900FM-12+000399999V0202401N00311075001CN0300001N9+00391+00281101221ADDAY111999GF107991031001999999071061KA1999N+00281MD1710231+9999MW1031
0057029700999991961031009004+60117+019900FM-12+000399999V0202701N00621075001CN0080001N9+00721+00391101061ADDAY121999GF107991011001999999041061MD1710201+9999MW1101
0057029700999991961031012004+60117+019900FM-12+000399999V0202601N00511220001CN0100001N9+01111+00391100861ADDAY111999GF103991001001999999001051MD1710271+9999MW1051
0049029700999991961031015004+60117+019900FM-12+000399999V0202601N00411220001CN0100001N9+01001+00391100701ADDGF101991001001999999001011MD1710211+9999MW1051
0070029700999991961031018004+60117+019900FM-12+000399999V0202501N00511220001CN0150001N9+00611+00281100601ADDAY101999GF100991001001999999001001KA1999M+01221MD1610131+9999MW1011
0057029700999991961031021004+60117+019900FM-12+000399999V0202501N00411220001CN0150001N9+00391+00221100431ADDAY101999GF100991001001999999001001MD1710231+9999MW1021
0057029700999991961031100004+60117+019900FM-12+000399999V0202501N00621220001CN0200001N9+00281+00281100241ADDAY101999GF100991001001999999001001MD1710251+9999MW1021
0057029700999991961031103004+60117+019900FM-12+000399999V0202501N00621220001CN0100001N9+00221+00111099951ADDAY101999GF104991041001999999041999MD1710391+9999MW1031
0070029700999991961031106004+60117+019900FM-12+000399999V0202601N00821002401CN0040001N9+00391+00221099901ADDAY121999GF108991071061002501071999KA1999N+00221MD1510071+9999MW1101
0057029700999991961031109004+60117+019900FM-12+000399999V0203001N00621002401CN0100001N9+00501+00281100101ADDAY161999GF108991071061002501071999MD1210271+9999MW1211
0057029700999991961031112004+60117+019900FM-12+000399999V0203001N00931220001CN0400001N9+00891-00281100261ADDAY111999GF104991011001999999041011MD1210211+9999MW1021
0057029700999991961031115004+60117+019900FM-12+000399999V0202701N00821220001CN0400001N9+00781-00221100331ADDAY111999GF104991011051008001001011MD1210091+9999MW1021
0081029700999991961031118004+60117+019900FM-12+000399999V0202601N00511220001CN0400001N9+00611-00501100281ADDAA199000691AY111999GF103991011051008001041011KA1999M+01001MD1810071+9999MW1011
0057029700999991961031121004+60117+019900FM-12+000399999V0202701N00721220001CN0400001N9+00501-00391100161ADDAY101999GF102991001001999999001011MD1710161+9999MW1021
0057029700999991961031200004+60117+019900FM-12+000399999V0202601N00721220001CN0300001N9+00391-00111099991ADDAY101999GF102991021001999999041001MD1710231+9999MW1021
0057029700999991961031203004+60117+019900FM-12+000399999V0202501N00721220001CN0300001N9+00281-00221099811ADDAY101999GF103991031001999999041011MD1710241+9999MW1031
0070029700999991961031206004+60117+019900FM-12+000399999V0202601N00721220001CN0400001N9+00281+00001099601ADDAY121999GF107991031001999999041011KA1999N+00281MD1710281+9999MW1021
0057029700999991961031209004+60117+019900FM-12+000399999V0202701N00621024001CN0400001N9+00391+00221099401ADDAY121999GF108991051001999999041061MD1710271+9999MW1021
0057029700999991961031212004+60117+019900FM-12+000399999V0202401N00511030001CN0400001N9+00611+00221099151ADDAY121999GF108991041051008001071999MD1810331+9999MW1021
0100029700999991961031218004+60117+019900FM-12+000399999V0201901N00411001501CN0030001N9+00281+00281098361ADDAA199002091AY161999GF108991081071001501999999KA1999M+00611MD1710552+9999MW1631EQDQ01+000552APC3  
0057029700999991961031300004+60117+019900FM-12+000399999V0203501N00621220001CN0100001N9+00001-00111098521ADDAY121999GF102991021001999999041001MD1210121+9999MW1011
0057029700999991961031303004+60117+019900FM-12+000399999V0203401N01031220001CN0200001N9+00111-00111098871ADDAY101999GF103991031051008001001001MD1210471+9999MW1021
0081029700999991961031306004+60117+019900FM-12+000399999V0203401N00931004501CN0400001N9+00001-00611099151ADDAA199005091AY111999GF105991051051004501001001KA1999N+00001MD1210371+9999MW1021
0057029700999991961031309004+60117+019900FM-12+000399999V0203401N01131007801CN0500001N9+00111-00281099361ADDAY121999GF106991061051008001001001MD1110281+9999MW1031
0057029700999991961031312004+60117+019900FM-12+000399999V0203401N01131004501CN0500001N9+00281-00281099751ADDAY121999GF107991071051004501999999MD1510191+9999MW1021
0057029700999991961031315004+60117+019900FM-12+000399999V0203401N01131220001CN0500001N9+00281-00391100181ADDAY101999GF101991011051008001001001MD1210591+9999MW1011
0081029700999991961031318004+60117+019900FM-12+000399999V0203401N00771220001CN0500001N9+00221-00391100491ADDAA199000691AY101999GF101991001001999999001011KA1999M+00391MD1210401+9999MW1021
0057029700999991961031321004+60117+019900FM-12+000399999V0203401N00411220001CN0500001N9+00111-00281100661ADDAY101999GF100991001001999999001001MD1210231+9999MW1021
0057029700999991961031400004+60117+019900FM-12+000399999V0203501N00311220001CN0500001N9-00111-00281100731ADDAY101999GF100991001001999999001001MD1210091+9999MW1021
0057029700999991961031403004+60117+019900FM-12+000399999V0209991C00001220001CN0500001N9-00501-00501100731ADDAY101999GF100991001001999999001001MD1410001+9999MW1021
0070029700999991961031406004+60117+019900FM-12+000399999V0209991C00001024001CN0400001N9-00501-00501100651ADDAY101999GF106991061001999999051999KA1999N-00501MD1810111+9999MW1031
0057029700999991961031409004+60117+019900FM-12+000399999V0202201N00511024001CN0500001N9+00111-00391100561ADDAY121999GF107991071001999999071999MD1010121+9999MW1021
0057029700999991961031415004+60117+019900FM-12+000399999V0202201N00411030001CN0400001N9+00281+00111099991ADDAY121999GF107991031061004501071999MD1710331+9999MW1031
0057029700999991961031503004+60117+019900FM-12+000399999V0203101N00411004501CN0450001N9+00391-00111099791ADDAY111999GF108991081051004501999999MD1210191+9999MW1021
0081029700999991961031506004+60117+019900FM-12+000399999V0203301N00821220001CN0500001N9+00281-00391100041ADDAA199001091AY111999GF102991021051008001041001KA1999N+00111MD1210321+9999MW1011
0057029700999991961031509004+60117+019900FM-12+000399999V0203301N01231220001CN0500001N9+00281-00611100341ADDAY101999GF103991031051008001001001MD1210401+9999MW1031
0057029700999991961031512004+60117+019900FM-12+000399999V0203201N01341220001CN0500001N9+00281-00721100621ADDAY101999GF103991031051008001001001MD1210371+9999MW1021
0057029700999991961031515004+60117+019900FM-12+000399999V0203101N01341220001CN0500001N9+00281-00721100861ADDAY101999GF103991021051008001999001MD1210321+9999MW1021
0070029700999991961031518004+60117+019900FM-12+000399999V0203201N00771030001CN0400001N9+00221-00501101021ADDAY111999GF106991021051008001041051KA1999M+00281MD1210211+9999MW1031
0057029700999991961031521004+60117+019900FM-12+000399999V0202601N00211024001CN0300001N9+00111-00281100921ADDAY111999GF105991051001999999041999MD1810131+9999MW1011
0057029700999991961031600004+60117+019900FM-12+000399999V0209991C00001220001CN0300001N9-00221-00391100751ADDAY111999GF103991031001999999051001MD1710231+9999MW1011
0057029700999991961031603004+60117+019900FM-12+000399999V0202601N00261220001CN0300001N9+00111-00391100501ADDAY101999GF102991011051008001041001MD1710331+9999MW1011
0081029700999991961031606004+60117+019900FM-12+000399999V0202301N00101030001CN0300001N9+00001-00111100301ADDAA199000691AY121999GF108991041051004501041999KA1999N-00221MD1710271+9999MW1701
0057029700999991961031609004+60117+019900FM-12+000399999V0201901N00311002401CN0200001N9+00111+00111100381ADDAY171999GF108991071051002501041999MD1210111+9999MW1221
0057029700999991961031612004+60117+019900FM-12+000399999V0202701N00211004501CN0250001N9+00221+00001100611ADDAY121999GF108991061061004501021999MD1310311+9999MW1021
0057029700999991961031615004+60117+019900FM-12+000399999V0203401N00511007801CN0250001N9+00221+00001100911ADDAY121999GF107991061061008001051999MD1310401+9999MW1021
0081029700999991961031618004+60117+019900FM-12+000399999V0209991C00001002401CN0300001N9+00111-00111101081ADDAA199000691AY121999GF107991061051002501051999KA1999M+00281MD1210231+9999MW1011
0057029700999991961031621004+60117+019900FM-12+000399999V0209991C00001004501CN0200001N9+00111+00111101091ADDAY121999GF108991081051004501999999MD1310011+9999MW1501
0057029700999991961031700004+60117+019900FM-12+000399999V0209991C00001002401CN0200001N9+00111+00111100901ADDAY151999GF108991081051002501999999MD1710251+9999MW1511
0057029700999991961031703004+60117+019900FM-12+000399999V0209991C00001002401CN0200001N9+00111+00001100861ADDAY151999GF108991081051002501999999MD1710111+9999MW1201
0081029700999991961031706004+60117+019900FM-12+000399999V0201201N00151001501CN0200001N9+00221+00001100611ADDAA199000391AY121999GF108991071061001501041999KA1999N-00111MD1710331+9999MW1021
0057029700999991961031709004+60117+019900FM-12+000399999V0202201N005119999999N0350001N9+00391+00111100351ADDAY121999GF108991031051008001999999MD1710331+9999MW1021
0057029700999991961031712004+60117+019900FM-12+000399999V0202701N00511030001CN0350001N9+00721+00111100151ADDAY121999GF107991021051008001071999MD1710271+9999MW1021
0057029700999991961031715004+60117+019900FM-12+000399999V0202601N00461030001CN0350001N9+00781+00111099981ADDAY121999GF107991011051012501071999MD1610231+9999MW1021
0070029700999991961031718004+60117+019900FM-12+000399999V0203001N00511030001CN0300001N9+00781-00111099871ADDAY121999GF107991021051008001071999KA1999M+00781MD1610151+9999MW1021
0057029700999991961031721004+60117+019900FM-12+000399999V0201901N00211220001CN0300001N9+00391+00111099601ADDAY111999GF104991041001999999031001MD1810281+9999MW1011
0076029700999991961031803004+60117+019900FM-12+000399999V0201001N00411002401CN0250001N9+00391+00281098561ADDAY121999GF108991081061002501999999MD1710972+9999MW1031EQDQ01+000972APC3  
0070029700999991961031806004+60117+019900FM-12+000399999V0201301N00411001501CN0040001N9+00391+00281098001ADDAY121999GF108991081071001501999999KA1999N+00221MD1710751+9999MW1601
0057029700999991961031809004+60117+019900FM-12+000399999V0202701N00721001501CN0050001N9+00221+00111097441ADDAY161999GF108991081071001501999999MD1610751+9999MW1681
0057029700999991961031812004+60117+019900FM-12+000399999V0203501N00621001501CN0150001N9+00221+00111097241ADDAY161999GF108991081071001501999999MD1710271+9999MW1611
0076029700999991961031815004+60117+019900FM-12+000399999V0203501N01031000601CN0020001N9-00221-00281097931ADDAY171999GF108991081071000751999999MD1210691+9999MW1691EQDQ01+000922APC3  
0081029700999991961031818004+60117+019900FM-12+000399999V0203501N01031004501CN0200001N9-00221-00501098461ADDAA199009091AY171999GF107991071051004501999999KA1999M+00281MD1210711+9999MW1021
0057029700999991961031821004+60117+019900FM-12+000399999V0203501N01031007801CN0200001N9-00221-00221098691ADDAY121999GF108991081051008001999999MD1210291+9999MW1021
0057029700999991961031900004+60117+019900FM-12+000399999V0200101N01031007801CN0200001N9-00221-00611098991ADDAY121999GF108991081051008001999999MD1210401+9999MW1021
0057029700999991961031903004+60117+019900FM-12+000399999V0203601N00931007801CN0200001N9-00221-00721099251ADDAY121999GF108991081051008001999999MD1210351+9999MW1021
0070029700999991961031906004+60117+019900FM-12+000399999V0200101N01031004501CN0400001N9-00221-00721099501ADDAY121999GF108991081051004501999999KA1999N-00221MD1210331+9999MW1011
0057029700999991961031909004+60117+019900FM-12+000399999V0203601N01031004501CN0250001N9-00221-00611099831ADDAY181999GF107991051051004501071011MD1210441+9999MW1261
0057029700999991961031912004+60117+019900FM-12+000399999V0203401N00931004501CN0300001N9-00221-00721100031ADDAY121999GF106991051051004501071001MD1210271+9999MW1011
0081029700999991961031918004+60117+019900FM-12+000399999V0203301N00411220001CN0300001N9-00281-01111100241ADDAA199000691AY101999GF100991001001999999001001KA1999M-00111MD1210151+9999MW1011
0057029700999991961031921004+60117+019900FM-12+000399999V0202801N00211220001CN0300001N9-00281-00721100171ADDAY101999GF100991001001999999001001MD1810091+9999MW1021
0057029700999991961032000004+60117+019900FM-12+000399999V0203001N00311220001CN0300001N9-00221-00501100041ADDAY101999GF101991011001999999041001MD1710171+9999MW1031
0057029700999991961032003004+60117+019900FM-12+000399999V0209991C00001220001CN0300001N9-00611-00721099931ADDAY101999GF102991021051008001001001MD1710151+9999MW1031
0070029700999991961032006004+60117+019900FM-12+000399999V0202801N00211220001CN0300001N9-00391-00501099851ADDAY101999GF103991011051008001001011KA1999N-00721MD1710111+9999MW1021
0057029700999991961032009004+60117+019900FM-12+000399999V0202501N00511220001CN0400001N9-00111-00391099701ADDAY101999GF104991001001999999001021MD1710201+9999MW1021
0057029700999991961032012004+60117+019900FM-12+000399999V0202401N00411220001CN0500001N9+00001-00721099611ADDAY111999GF104991011051008001001051MD1610121+9999MW1011
0057029700999991961032015004+60117+019900FM-12+000399999V0202001N00311075001CN0450001N9+00111-00611099481ADDAY111999GF105991021051008001051011MD1710161+9999MW1031
0057029700999991961032021004+60117+019900FM-12+000399999V0200301N00211220001CN0300001N9-00391-00611099581ADDAY121999GF103991011001999999041011MD1210071+9999MW1011
0057029700999991961032100004+60117+019900FM-12+000399999V0200301N00311220001CN0300001N9-00501-00611099661ADDAY101999GF108991001001999999001011MD1210111+9999MW1011
0070029700999991961032106004+60117+019900FM-12+000399999V0200101N00211220001CN0300001N9-00611-00781099931ADDAY111999GF104991021081008001041011KA1999N-00721MD1210201+9999MW1031
0076029700999991961032109004+60117+019900FM-12+000399999V0200201N005119999999N0250001N9-00221-00501100081ADDAY171999GF106991999071002501001001MD1210201+9999MW1711EQDQ01+000042SCOTLC
0057029700999991961032112004+60117+019900FM-12+000399999V0200201N00511004501CN0300001N9-00111-00781100241ADDAY171999GF106991061031004501001001MD1110241+9999MW1261
0057029700999991961032115004+60117+019900FM-12+000399999V0200201N00621220001CN0300001N9-00111-00891100391ADDAY111999GF103991031041008001001001MD1210171+9999MW1011
0089029700999991961032118004+60117+019900FM-12+000399999V0203501N00211220001CN0400001N9-00281-00891100551ADDAY101999GF101991999001999999041001KA1999M+00001MD1210211+9999MW1021EQDQ01+000002SCOTLC
0057029700999991961032121004+60117+019900FM-12+000399999V0209991C00001220001CN0300001N9-00721-00781100561ADDAY101999GF100991001001999999001001MD1110011+9999MW1021
0057029700999991961032200004+60117+019900FM-12+000399999V0209991C00001220001CN0300001N9-00891-01001100531ADDAY101999GF100991001001999999001001MD1710041+9999MW1021
0076029700999991961032203004+60117+019900FM-12+000399999V0209991C00001220001CN0300001N9-00891-01001100481ADDAY101999GF101991999001999999041001MD1710071+9999MW1031EQDQ01+000002SCOTLC
0070029700999991961032206004+60117+019900FM-12+000399999V0209991C00001220001CN0350001N9-00781-00781100401ADDAY101999GF101991001001999999001011KA1999N-01001MD1710111+9999MW1011
0057029700999991961032209004+60117+019900FM-12+000399999V0202101N00771075001CN0400001N9+00111-00501100371ADDAY111999GF107991011001999999041061MD1710041+9999MW1031
0057029700999991961032212004+60117+019900FM-12+000399999V0202101N00931220001CN0400001N9+00221-00391100301ADDAY121999GF107991001001999999001061MD1810091+9999MW1031
0057029700999991961032215004+60117+019900FM-12+000399999V0202101N00931030001CN0400001N9+00221-00221100141ADDAY121999GF107991011051008001041061MD1710211+9999MW1021
0070029700999991961032218004+60117+019900FM-12+000399999V0202101N00771004501CN0400001N9+00111-00111100071ADDAY121999GF108991061051004501071999KA1999M+00221MD1810091+9999MW1021
0057029700999991961032221004+60117+019900FM-12+000399999V0202201N00821007801CN0300001N9+00221-00111099841ADDAY121999GF108991081051008001999999MD1710311+9999MW1021
0057029700999991961032300004+60117+019900FM-12+000399999V0202201N00771007801CN0200001N9+00111+00111099571ADDAY121999GF108991081051008001999999MD1710361+9999MW1021
0057029700999991961032303004+60117+019900FM-12+000399999V0202401N00621007801CN0200001N9+00221+00111099271ADDAY121999GF108991061051008001071999MD1710321+9999MW1021
0081029700999991961032306004+60117+019900FM-12+000399999V0202501N00311030001CN0350001N9+00281-00111099271ADDAA199000691AY121999GF107991011051008001071999KA1999N+00111MD1410001+9999MW1021
0057029700999991961032309004+60117+019900FM-12+000399999V0202701N00511030001CN0400001N9+00501-00111099311ADDAY121999GF107991011051008001071999MD1110051+9999MW1021
0057029700999991961032312004+60117+019900FM-12+000399999V0202301N00571030001CN0300001N9+00611+00001099151ADDAY121999GF107991031051012501071011MD1810211+9999MW1021
0057029700999991961032315004+60117+019900FM-12+000399999V0202401N00511030001CN0300001N9+00721+00111098981ADDAY121999GF106991021051008001071011MD1610231+9999MW1011
0070029700999991961032318004+60117+019900FM-12+000399999V0202501N00511030001CN0400001N9+00721+00111098841ADDAY121999GF107991021051008001071999KA1999M+00721MD1710191+9999MW1021
0057029700999991961032321004+60117+019900FM-12+000399999V0203001N00511021001CN0300001N9+00611+00111098821ADDAY121999GF107991071001022501071999MD1510031+9999MW1021
0057029700999991961032400004+60117+019900FM-12+000399999V0209991C00001030001CN0300001N9+00111+00001098991ADDAY121999GF107991041051004501071999MD1310231+9999MW1021
0057029700999991961032403004+60117+019900FM-12+000399999V0202501N00511002401CN0300001N9+00111+00001098991ADDAY121999GF108991081071002501999999MD1410001+9999MW1231
0081029700999991961032406004+60117+019900FM-12+000399999V0202301N00511220001CN0500001N9+00221-00281099151ADDAA199000691AY101999GF102991011051004501051011KA1999N+00001MD1110211+9999MW1011
0057029700999991961032409004+60117+019900FM-12+000399999V0203101N00931220001CN0500001N9+00281-00611099361ADDAY101999GF102991021051008001041001MD1110281+9999MW1031
0057029700999991961032412004+60117+019900FM-12+000399999V0203001N01131220001CN0400001N9+00391-00781099511ADDAY111999GF104991031081004501091021MD1210201+9999MW1031
0057029700999991961032415004+60117+019900FM-12+000399999V0203101N00931220001CN0400001N9+00501-00721099631ADDAY101999GF102991021081008001041001MD1110161+9999MW1021
0057029700999991961032421004+60117+019900FM-12+000399999V0203101N00821220001CN0400001N9+00221-00611099971ADDAY101999GF100991001001999999001001MD1210201+9999MW1021
0057029700999991961032500004+60117+019900FM-12+000399999V0203001N00621220001CN0400001N9+00111-00391100151ADDAY101999GF103991001001999999001011MD1210231+9999MW1031
0057029700999991961032503004+60117+019900FM-12+000399999V0203301N00721220001CN0400001N9+00111-00501100221ADDAY101999GF101991001001999999001011MD1210091+9999MW1011
0070029700999991961032506004+60117+019900FM-12+000399999V0203401N00621030001CN0450001N9+00111-00391100401ADDAY111999GF105991041051004501041001KA1999N+00001MD1210241+9999MW1031
