0057029700999991963010100004+60117+019900FM-12+000399999V0202401N00511002401CN0200001N9-00281-00501102331ADDAY121999GF107991071051002501999999MD1810071+9999MW1031
0057029700999991963010103004+60117+019900FM-12+000399999V0202501N00511004501CN0200001N9-00281-00391102221ADDAY121999GF107991071051004501999999MD1710111+9999MW1021
0070029700999991963010106004+60117+019900FM-12+000399999V0202701N00511004501CN0200001N9-00281-00281102131ADDAY121999GF107991071051004501999999KA1999N-00391MD1810091+9999MW1011
0057029700999991963010109004+60117+019900FM-12+000399999V0203501N00411007801CN0045001N9+00001-00111102311ADDAY171999GF108991081051008001999999MD1310181+9999MW1711
0057029700999991963010112004+60117+019900FM-12+000399999V0200301N00101220001CN0300001N9-00221-00611102541ADDAY171999GF104991041051008001001001MD1210321+9999MW1221
0057029700999991963010115004+60117+019900FM-12+000399999V0209991C00001220001CN0020001N9-01221-01281102671ADDAY111999GF101991001001999999001011MD1210131+9999MW1121
0081029700999991963010118004+60117+019900FM-12+000399999V0209991C00001007801CN0100001N9-00891-01001102691ADDAA199000391AY121999GF108991081051008001999999KA1999M+00001MD1010021+9999MW1701
0057029700999991963010121004+60117+019900FM-12+000399999V0209991C00001220001CN0200001N9-01391-01501102651ADDAY101999GF101991011001999999041001MD1610041+9999MW1021
0057029700999991963010200004+60117+019900FM-12+000399999V0203001N00151220001CN0200001N9-00891-00891102551ADDAY101999GF100991001001999999001001MD1710101+9999MW1021
0057029700999991963010203004+60117+019900FM-12+000399999V0202701N00411220001CN0200001N9-00611-00611102401ADDAY101999GF103991031001999999041001MD1710151+9999MW1031
0070029700999991963010206004+60117+019900FM-12+000399999V0202701N00411220001CN0250001N9-00721-00721102231ADDAY101999GF101991011001999999041001KA1999N-01501MD1710171+9999MW1011
0057029700999991963010209004+60117+019900FM-12+000399999V0202601N00311220001CN0300001N9-00501-00611102111ADDAY101999GF102991011051008001001011MD1710121+9999MW1031
0057029700999991963010212004+60117+019900FM-12+000399999V0202601N00311220001CN0400001N9-00281-00501102031ADDAY101999GF101991011001022501031001MD1710081+9999MW1021
0057029700999991963010215004+60117+019900FM-12+000399999V0202701N00621220001CN0300001N9-00391-00611101751ADDAY101999GF101991011001022501031001MD1710281+9999MW1021
0070029700999991963010218004+60117+019900FM-12+000399999V0203001N00621220001CN0300001N9-00221-00391101681ADDAY101999GF101991001001999999001011KA1999M-00221MD1710071+9999MW1021
0057029700999991963010221004+60117+019900FM-12+000399999V0203201N00511220001CN0300001N9-00111-00391101781ADDAY101999GF101991001001999999001081MD1210101+9999MW1021
0057029700999991963010300004+60117+019900FM-12+000399999V0203301N00411220001CN0300001N9-00111-00391101921ADDAY101999GF101991011051004501001001MD1210141+9999MW1031
0057029700999991963010303004+60117+019900FM-12+000399999V0203201N00101220001CN0300001N9-00501-00611102091ADDAY101999GF100991001001999999001001MD1210171+9999MW1011
0070029700999991963010306004+60117+019900FM-12+000399999V0209991C00001220001CN0250001N9-01221-01281102251ADDAY101999GF100991001001999999001001KA1999N-01221MD1210161+9999MW1021
0057029700999991963010309004+60117+019900FM-12+000399999V0209991C00001220001CN0200001N9-01281-01501102431ADDAY101999GF102991011051008001001011MD1210181+9999MW1031
0057029700999991963010312004+60117+019900FM-12+000399999V0209991C00001220001CN0200001N9-01001-01111102511ADDAY101999GF103991021051008001041001MD1110081+9999MW1041
0057029700999991963010315004+60117+019900FM-12+000399999V0203201N00101220001CN0150001N9-01391-01391102571ADDAY101999GF102991021051008001041001MD1110061+9999MW1111
0070029700999991963010318004+60117+019900FM-12+000399999V0209991C00001220001CN0150001N9-01611-01721102581ADDAY101999GF102991001001999999001011KA1999M-00891MD1210011+9999MW1031
0076029700999991963010321004+60117+019900FM-12+000399999V0209991C00001220001CN0150001N9-01721-01781102551ADDAY101999GF101991999001999999041001MD1810031+9999MW1011EQDQ01+000002SCOTLC
0057029700999991963010400004+60117+019900FM-12+000399999V0209991C00001220001CN0150001N9-01611-01781102431ADDAY101999GF101991001001999999001011MD1710121+9999MW1021
0057029700999991963010403004+60117+019900FM-12+000399999V0202401N00411220001CN0150001N9-00281-00721102311ADDAY101999GF102991001001999999001011MD1710121+9999MW1031
0070029700999991963010406004+60117+019900FM-12+000399999V0202301N00511024001CN0150001N9-00111-00501102091ADDAY121999GF107991071001999999071999KA1999N-01781MD1610221+9999MW1021
0057029700999991963010409004+60117+019900FM-12+000399999V0202201N00621007801CN0300001N9-00111-00611102051ADDAY121999GF107991061051008001999999MD1810041+9999MW1011
0057029700999991963010412004+60117+019900FM-12+000399999V0202001N00621075001CN0450001N9-00221-00611101861ADDAY121999GF107991031051008001001071MD1710191+9999MW1021
0057029700999991963010415004+60117+019900FM-12+000399999V0201901N00621030001CN0450001N9-00221-00611101621ADDAY121999GF107991021051008001071061MD1710241+9999MW1021
0070029700999991963010418004+60117+019900FM-12+000399999V0201701N00361030001CN0450001N9-00281-00611101311ADDAY121999GF107991021051008001031999KA1999M-00111MD1710311+9999MW1021
0057029700999991963010421004+60117+019900FM-12+000399999V0201301N00101007801CN0400001N9-00281-00611101081ADDAY121999GF107991061051008001041999MD1710231+9999MW1021
0057029700999991963010500004+60117+019900FM-12+000399999V0200901N00211004501CN0300001N9-00281-00501100741ADDAY121999GF108991081051004501999999MD1710341+9999MW1701
0057029700999991963010503004+60117+019900FM-12+000399999V0201401N00211001501CN0150001N9-00221-00281100431ADDAY171999GF108991081071001501999999MD1710311+9999MW1681
0081029700999991963010506004+60117+019900FM-12+000399999V0201001N00261004501CN0100001N9-00281-00281100211ADDAA199000391AY171999GF108991081071004501999999KA1999N-00281MD1710221+9999MW1561
0057029700999991963010509004+60117+019900FM-12+000399999V0200801N00261001501CN0040001N9-00281-00281100171ADDAY151999GF108991081071001501999999MD1710041+9999MW1791
0057029700999991963010512004+60117+019900FM-12+000399999V0200701N00261001501CN0025001N9-00281-00281099991ADDAY171999GF108991081071001501999999MD1810181+9999MW1731
0057029700999991963010515004+60117+019900FM-12+000399999V0200601N00261002401CN0040001N9-00221-00281099901ADDAY171999GF108991081071002501999999MD1610091+9999MW1711
0081029700999991963010518004+60117+019900FM-12+000399999V0200401N00151002401CN0050001N9-00281-00281099821ADDAA199003091AY171999GF108991081071002501999999KA1999M-00221MD1710081+9999MW1711
0057029700999991963010521004+60117+019900FM-12+000399999V0203601N00361002401CN0030001N9-00281-00391099801ADDAY171999GF109991091999002501999999MD1610021+9999MW1721
0057029700999991963010600004+60117+019900FM-12+000399999V0203601N00211004501CN0050001N9-00281-00391099771ADDAY171999GF108991081071004501999999MD1710031+9999MW1711
0057029700999991963010603004+60117+019900FM-12+000399999V0203601N00261004501CN0050001N9-00391-00391099761ADDAY171999GF108991081071004501999999MD1810011+9999MW1711
0081029700999991963010606004+60117+019900FM-12+000399999V0200201N00621000151CN0018001N9-00501-00501099751ADDAA199003091AY171999GF109991091999000251999999KA1999N-00501MD1610011+9999MW1731
0057029700999991963010609004+60117+019900FM-12+000399999V0200101N00721002401CN0025001N9-00391-00501099841ADDAY171999GF108991081071002501999999MD1310091+9999MW1731
0057029700999991963010612004+60117+019900FM-12+000399999V0203601N00771002401CN0030001N9-00501-00611099951ADDAY171999GF107991051071002501041999MD1210111+9999MW1851
0057029700999991963010615004+60117+019900FM-12+000399999V0203601N00721220001CN0200001N9-00501-00721100201ADDAY181999GF106991041071002501001011MD1210251+9999MW1011
0081029700999991963010618004+60117+019900FM-12+000399999V0203401N00721030001CN0150001N9-00611-00891100451ADDAA199003091AY121999GF105991041051004501041001KA1999M-00391MD1210251+9999MW1361
0057029700999991963010621004+60117+019900FM-12+000399999V0203401N00671004501CN0300001N9-00611-00891100621ADDAY171999GF107991071051004501999999MD1210171+9999MW1221
0057029700999991963010700004+60117+019900FM-12+000399999V0203201N00511004501CN0250001N9-00611-00891100721ADDAY121999GF107991071051004501999999MD1210101+9999MW1701
0057029700999991963010703004+60117+019900FM-12+000399999V0203001N00511220001CN0250001N9-00721-00891100801ADDAY171999GF103991031051004501001001MD1210081+9999MW1011
0081029700999991963010706004+60117+019900FM-12+000399999V0202901N00411220001CN0300001N9-00721-00891100851ADDAA199000591AY101999GF103991031051004501041001KA1999N-00891MD1310051+9999MW1021
0057029700999991963010709004+60117+019900FM-12+000399999V0202701N00411220001CN0400001N9-00721-00781100921ADDAY101999GF101991011051004501041001MD1210071+9999MW1011
0057029700999991963010712004+60117+019900FM-12+000399999V0202901N00511220001CN0400001N9-00501-00781101041ADDAY101999GF101991011001022501031001MD1210121+9999MW1021
0057029700999991963010715004+60117+019900FM-12+000399999V0202701N00511220001CN0400001N9-00501-00721101201ADDAY101999GF101991011001022501031001MD1210161+9999MW1011
0070029700999991963010718004+60117+019900FM-12+000399999V0202901N00931220001CN0400001N9-00721-00781101291ADDAY101999GF100991001001999999001001KA1999M-00391MD1210091+9999MW1021
0057029700999991963010721004+60117+019900FM-12+000399999V0202601N00361220001CN0500001N9-00721-00891101431ADDAY101999GF100991001001999999001001MD1110141+9999MW1021
0057029700999991963010800004+60117+019900FM-12+000399999V0202701N00361220001CN0500001N9-00721-01001101441ADDAY101999GF100991001001999999001001MD1110011+9999MW1021
0057029700999991963010803004+60117+019900FM-12+000399999V0202701N00211220001CN0500001N9-00721-00891101471ADDAY101999GF100991001001999999001001MD1310031+9999MW1021
0070029700999991963010806004+60117+019900FM-12+000399999V0202601N00311220001CN0400001N9-00781-01001101451ADDAY101999GF100991001001999999001001KA1999N-01001MD1810021+9999MW1021
0057029700999991963010809004+60117+019900FM-12+000399999V0202401N00411220001CN0400001N9-00721-00891101541ADDAY101999GF100991001001999999001001MD1110091+9999MW1021
0057029700999991963010812004+60117+019900FM-12+000399999V0202401N00571220001CN0400001N9-00611-00891101471ADDAY101999GF101991011051004501001001MD1810071+9999MW1031
0057029700999991963010815004+60117+019900FM-12+000399999V0202401N00621030001CN0400001N9-00611-00891101401ADDAY111999GF106991021051004501041051MD1710071+9999MW1031
0070029700999991963010818004+60117+019900FM-12+000399999V0202701N00621030001CN0300001N9-00501-00781101301ADDAY121999GF105991021051008001071999KA1999M-00501MD1610101+9999MW1031
0057029700999991963010821004+60117+019900FM-12+000399999V0202901N00621220001CN0300001N9-00611-00891101341ADDAY101999GF101991011001999999031001MD1310041+9999MW1021
0057029700999991963010900004+60117+019900FM-12+000399999V0202901N00571220001CN0300001N9-00501-00721101411ADDAY101999GF101991011001999999041001MD1210071+9999MW1021
0057029700999991963010903004+60117+019900FM-12+000399999V0203501N00461012301CN0300001N9-00391-00781101641ADDAY121999GF106991061051012501999999MD1310231+9999MW1031
0070029700999991963010906004+60117+019900FM-12+000399999V0203201N00571030001CN0300001N9-00501-00891101821ADDAY121999GF105991041051008001041001KA1999N-00611MD1210181+9999MW1021
0057029700999991963010909004+60117+019900FM-12+000399999V0203301N00311030001CN0400001N9-00501-00781102021ADDAY121999GF105991041051008001041001MD1210201+9999MW1011
0057029700999991963010912004+60117+019900FM-12+000399999V0203401N00311004501CN0080001N9-00501-00611102101ADDAY121999GF105991051031004501001001MD1210081+9999MW1851
0057029700999991963010915004+60117+019900FM-12+000399999V0209991C00001220001CN0006001N9-01391-01501102251ADDAY181999GF101991011051004501041001MD1210151+9999MW1421
0081029700999991963010918004+60117+019900FM-12+000399999V0209991C00001220001CN0300001N9-01781-01891102311ADDAA199001091AY101999GF100991001001999999001001KA1999M-00391MD1210061+9999MW1011
0057029700999991963010921004+60117+019900FM-12+000399999V0209991C00001220001CN0003001N9-01781-01891102401ADDAY101999GF100991001001999999001001MD1110191+9999MW1461
0057029700999991963011000004+60117+019900FM-12+000399999V0209991C00001220001CN0200001N9-02111-02221102391ADDAY141999GF104991021001022501041011MD1710011+9999MW1281
0057029700999991963011003004+60117+019900FM-12+000399999V0209991C00001024001CN0200001N9-01721-01781102351ADDAY111999GF107991051001999999031011MD1710041+9999MW1031
0070029700999991963011006004+60117+019900FM-12+000399999V0209991C00001030001CN0200001N9-01501-01611102311ADDAY101999GF107991041051004501031999KA1999N-02221MD1710041+9999MW1021
0057029700999991963011009004+60117+019900FM-12+000399999V0202401N00311030001CN0150001N9-00721-00781102331ADDAY121999GF107991041051004501031999MD1210021+9999MW1701
0057029700999991963011012004+60117+019900FM-12+000399999V0202401N00361030001CN0250001N9-00501-00611102271ADDAY121999GF107991031051004501071999MD1810061+9999MW1781
0057029700999991963011015004+60117+019900FM-12+000399999V0209991C00001030001CN0200001N9-01001-01111102211ADDAY121999GF106991011051004501071999MD1710061+9999MW1111
0100029700999991963011018004+60117+019900FM-12+000399999V0209991C00001220001CN0200001N9-01611-01721102231ADDAA199000691AY121999GF103991999001022501041001KA1999M-00501MD1210021+9999MW1011EQDQ01+000012SCOTLC
0057029700999991963011021004+60117+019900FM-12+000399999V0209991C00001220001CN0200001N9-01611-01721102281ADDAY121999GF104991041001999999031001MD1210051+9999MW1021
0057029700999991963011100004+60117+019900FM-12+000399999V0203101N00151220001CN0200001N9-01721-01781102301ADDAY101999GF101991001001999999001011MD1210021+9999MW1021
0057029700999991963011103004+60117+019900FM-12+000399999V0209991C00001220001CN0300001N9-01721-01891102341ADDAY101999GF103991031001022501031001MD1210041+9999MW1031
0070029700999991963011106004+60117+019900FM-12+000399999V0209991C00001220001CN0300001N9-01611-01721102331ADDAY121999GF104991041001999999031001KA1999N-01891MD1810011+9999MW1011
0057029700999991963011109004+60117+019900FM-12+000399999V0209991C00001220001CN0100001N9-01721-01891102451ADDAY111999GF104991031081008001031001MD1310121+9999MW1041
0057029700999991963011112004+60117+019900FM-12+000399999V0203101N00051030001CN0060001N9-01281-01391102461ADDAY121999GF105991031081008001041001MD1210011+9999MW1051
0057029700999991963011115004+60117+019900FM-12+000399999V0203001N00051220001CN0150001N9-01391-01501102491ADDAY121999GF103991021081008001041001MD1210031+9999MW1011
0081029700999991963011118004+60117+019900FM-12+000399999V0203101N00101030001CN0100001N9-01281-01391102511ADDAA199000391AY171999GF106991041051008001051001KA1999M-01281MD1010021+9999MW1221
0057029700999991963011121004+60117+019900FM-12+000399999V0209991C00001220001CN0150001N9-01721-01891102531ADDAY101999GF102991021051008001041001MD1010021+9999MW1011
0057029700999991963011200004+60117+019900FM-12+000399999V0209991C00001220001CN0050001N9-02111-02221102471ADDAY101999GF100991001001999999001001MD1710061+9999MW1111
0057029700999991963011203004+60117+019900FM-12+000399999V0209991C00001220001CN0200001N9-02281-02391102351ADDAY101999GF102991021051004501001001MD1710121+9999MW1031
0057029700999991963011212004+60117+019900FM-12+000399999V0202301N00511001501CN0250001N9-00721-00781101791ADDAY121999GF107991061051001501071999MD1710291+9999MW1031
0057029700999991963011215004+60117+019900FM-12+000399999V0202901N00411001501CN0050001N9-00721-00721101601ADDAY121999GF108991051051001501071999MD1710191+9999MW1731
0068029700999991963011218004+60117+019900FM-12+000399999V0203001N00311220001CN0150001N9-01111-01111101551ADDAA199000691AY121999GF104991021051004501041999MD1710051+9999MW1111
0057029700999991963011221004+60117+019900FM-12+000399999V0203001N00151220001CN0300001N9-01391-01501101611ADDAY101999GF101991011051008001001001MD1010061+9999MW1021
0057029700999991963011300004+60117+019900FM-12+000399999V0209991C00001220001CN0020001N9-01721-01781101571ADDAY101999GF100991001001999999001001MD1710041+9999MW1121
0057029700999991963011303004+60117+019900FM-12+000399999V0209991C00001220001CN0300001N9-02001-02111101421ADDAY101999GF103991031001999999031001MD1710151+9999MW1031
0070029700999991963011306004+60117+019900FM-12+000399999V0209991C00001220001CN0300001N9-01781-01891101131ADDAY101999GF103991011051008001031001KA1999N-02111MD1710291+9999MW1011
0057029700999991963011309004+60117+019900FM-12+000399999V0202101N00671002401CN0200001N9-00392-00502100811ADDAY121999GF108991061061002501071999MD1710321+9999MW1031
0057029700999991963011312004+60117+019900FM-12+000399999V0202101N00771030001CN0020001N9-00501-00611100171ADDAY171999GF108991041051002501021999MD1810641+9999MW1731
0057029700999991963011315004+60117+019900FM-12+000399999V0202201N00671000151CN0015001N9-00391-00501099731ADDAY171999GF109991091999000251999999MD1710441+9999MW1731
0081029700999991963011318004+60117+019900FM-12+000399999V0202501N00621001501CN0013001N9-00391-00391099411ADDAA199001091AY171999GF109991091999001501999999KA1999M-00281MD1710321+9999MW1731
0057029700999991963011321004+60117+019900FM-12+000399999V0203001N00411007801CN0200001N9-00611-00891099401ADDAY171999GF108991081051008001999999MD1510011+9999MW1221
0057029700999991963011400004+60117+019900FM-12+000399999V0202601N00101024001CN0200001N9-00781-00891099231ADDAY121999GF107991071001999999011999MD1810171+9999MW1011
0057029700999991963011403004+60117+019900FM-12+000399999V0203001N00211007801CN0250001N9-01001-01111099241ADDAY121999GF107991051051008001071999MD1310011+9999MW1031
0081029700999991963011406004+60117+019900FM-12+000399999V0203601N00931004501CN0045001N9-00721-00891099401ADDAA199001091AY171999GF108991071051004501071999KA1999N-01221MD1010161+9999MW1771
0057029700999991963011409004+60117+019900FM-12+000399999V0200201N01031002401CN0015001N9-00891-01111099631ADDAY171999GF108991081071002501999999MD1210231+9999MW1731
0057029700999991963011412004+60117+019900FM-12+000399999V0200101N01341000151CN0015001N9-00891-01001099741ADDAY171999GF109991091999000251999999MD1210111+9999MW1731
0057029700999991963011415004+60117+019900FM-12+000399999V0200201N01441000151CN0006001N9-00781-01111100131ADDAY171999GF109991091999000251999999MD1310391+9999MW1731
0081029700999991963011418004+60117+019900FM-12+000399999V0200201N01291000151CN0010001N9-01001-01221100401ADDAA199004091AY171999GF109991091999000251999999KA1999M-00611MD1210371+9999MW1711
0057029700999991963011421004+60117+019900FM-12+000399999V0200201N01031002401CN0015001N9-01001-01221100701ADDAY171999GF109991091999002501999999MD1210301+9999MW1711
0057029700999991963011503004+60117+019900FM-12+000399999V0200201N00621004501CN0030001N9-01111-01281101071ADDAY171999GF108991081071004501999999MD1210171+9999MW1711
0081029700999991963011506004+60117+019900FM-12+000399999V0200201N00671004501CN0100001N9-01221-01281101221ADDAA199000591AY171999GF108991051051004501011999KA1999N-01221MD1310151+9999MW1711
0057029700999991963011509004+60117+019900FM-12+000399999V0200401N00621007801CN0200001N9-01221-01281101541ADDAY171999GF108991051051008001011999MD1210321+9999MW1221
0057029700999991963011512004+60117+019900FM-12+000399999V0200401N00411030001CN0200001N9-01001-01111101791ADDAY181999GF108991011051008001011999MD1210251+9999MW1261
0057029700999991963011515004+60117+019900FM-12+000399999V0200501N00511220001CN0300001N9-01111-01221102131ADDAY171999GF102991011001999999031011MD1210341+9999MW1011
0081029700999991963011518004+60117+019900FM-12+000399999V0200301N00511220001CN0200001N9-01281-01391102481ADDAA199000391AY101999GF100991001001999999001001KA1999M-01001MD1210351+9999MW1021
0057029700999991963011521004+60117+019900FM-12+000399999V0200301N00411220001CN0200001N9-01391-01721102741ADDAY101999GF100991001001999999001001MD1210261+9999MW1021
0057029700999991963011600004+60117+019900FM-12+000399999V0200101N00411220001CN0200001N9-01501-01611102901ADDAY101999GF103991031061002501001001MD1210161+9999MW1031
0057029700999991963011603004+60117+019900FM-12+000399999V0200201N00721220001CN0300001N9-01221-01281103021ADDAY101999GF100991001001999999001001MD1210121+9999MW1021
0070029700999991963011606004+60117+019900FM-12+000399999V0200201N00621220001CN0300001N9-01281-01501103111ADDAY101999GF100991001001999999001001KA1999N-01721MD1210091+9999MW1021
0057029700999991963011609004+60117+019900FM-12+000399999V0200201N00511220001CN0300001N9-01391-01501103291ADDAY101999GF100991001001999999001001MD1310181+9999MW1021
0057029700999991963011612004+60117+019900FM-12+000399999V0200301N00511220001CN0250001N9-01281-01501103411ADDAY101999GF100991001001999999001001MD1210121+9999MW1021
0076029700999991963011615004+60117+019900FM-12+000399999V0203601N00211220001CN0400001N9-01721-01891103391ADDAY101999GF101991001001999999001011MD1210081+9999MW1031EQDQ01+000012SCOTLC
0070029700999991963011618004+60117+019900FM-12+000399999V0203601N00511220001CN0300001N9-01111-01221103441ADDAY101999GF102991021001999999031001KA1999M-01111MD1010051+9999MW1021
0057029700999991963011621004+60117+019900FM-12+000399999V0203601N00621220001CN0300001N9-00891-01111103441ADDAY101999GF102991011051004501041001MD1410001+9999MW1011
0057029700999991963011700004+60117+019900FM-12+000399999V0203501N00621220001CN0300001N9-00611-00891103321ADDAY101999GF104991021001999999041051MD1710121+9999MW1031
0057029700999991963011703004+60117+019900FM-12+000399999V0203501N00621030001CN0300001N9-00611-00781103191ADDAY111999GF107991011051008001041081MD1710131+9999MW1031
0070029700999991963011706004+60117+019900FM-12+000399999V0203301N00311075001CN0300001N9-00781-01001102991ADDAY121999GF105991011051008001001021KA1999N-01111MD1710101+9999MW1011
0057029700999991963011712004+60117+019900FM-12+000399999V0200501N00361220001CN0300001N9-00891-01501102911ADDAY111999GF101991011051008001001001MD1210041+9999MW1011
0057029700999991963011715004+60117+019900FM-12+000399999V0200501N00621220001CN0300001N9-01391-01611103121ADDAY101999GF101991011051008001001001MD1210211+9999MW1031
0081029700999991963011718004+60117+019900FM-12+000399999V0200601N00411004501CN0200001N9-01611-01721103391ADDAA199000391AY101999GF107991071051004501999999KA1999M-00611MD1210271+9999MW1701
0057029700999991963011721004+60117+019900FM-12+000399999V0200201N00511220001CN0200001N9-01721-01891103611ADDAY171999GF102991001001999999001011MD1210221+9999MW1781
0057029700999991963011800004+60117+019900FM-12+000399999V0209991C00001004501CN0060001N9-01501-01611103741ADDAY171999GF108991081051004501999999MD1210131+9999MW1711
0057029700999991963011803004+60117+019900FM-12+000399999V0209991C00001004501CN0080001N9-01391-01501103781ADDAY171999GF108991081051004501999999MD1210041+9999MW1711
0081029700999991963011806004+60117+019900FM-12+000399999V0202301N00511004501CN0150001N9-00721-01001103721ADDAA199000391AY121999GF108991081051004501999999KA1999N-01721MD1810061+9999MW1711
0057029700999991963011809004+60117+019900FM-12+000399999V0202401N00621030001CN0250001N9-00721-01111103751ADDAY121999GF105991031051008001011999MD1110031+9999MW1011
0057029700999991963011815004+60117+019900FM-12+000399999V0202401N00771030001CN0100001N9-00721-00891103231ADDAY121999GF108991021051004501071999MD1710311+9999MW1701
0081029700999991963011818004+60117+019900FM-12+000399999V0202601N00721004501CN0150001N9-00611-00721102911ADDAA199003091AY121999GF108991081051004501999999KA1999M-00611MD1710321+9999MW1701
0057029700999991963011821004+60117+019900FM-12+000399999V0202801N00571001501CN0100001N9-00391-00501102641ADDAY121999GF108991081071001501999999MD1710271+9999MW1031
0057029700999991963011900004+60117+019900FM-12+000399999V0202801N00931002401CN0100001N9-00221-00391102471ADDAY121999GF106991061071002501999999MD1610171+9999MW1011
0057029700999991963011903004+60117+019900FM-12+000399999V0202901N00461024001CN0150001N9-00111-00281102281ADDAY121999GF106991061001999999031999MD1710191+9999MW1021
0081029700999991963011906004+60117+019900FM-12+000399999V0203301N00721024001CN0200001N9+00111-00221102061ADDAA199000391AY121999GF105991051001999999031999KA1999N-00611MD1710221+9999MW1021
0057029700999991963011909004+60117+019900FM-12+000399999V0203401N00771030001CN0300001N9+00221+00001102151ADDAY111999GF106991031051008001031001MD1210091+9999MW1031
0057029700999991963011912004+60117+019900FM-12+000399999V0203601N00821030001CN0450001N9+00111-00611102391ADDAY121999GF107991031051008001051999MD1210241+9999MW1031
0057029700999991963011915004+60117+019900FM-12+000399999V0200101N00931030001CN0450001N9-00221-00611102751ADDAY121999GF106991011051008001051999MD1310361+9999MW1021
0070029700999991963011918004+60117+019900FM-12+000399999V0200201N00461220001CN0450001N9-00721-01221103021ADDAY121999GF101991011001999999041001KA1999M+00221MD1210271+9999MW1011
0057029700999991963011921004+60117+019900FM-12+000399999V0209991C00001220001CN0400001N9-01721-01721102991ADDAY101999GF100991001001999999001001MD1710031+9999MW1011
0057029700999991963012000004+60117+019900FM-12+000399999V0203601N00511004501CN0100001N9-00392-00502102851ADDAY101999GF106991061051004501999999MD1710141+9999MW1701
0057029700999991963012003004+60117+019900FM-12+000399999V0203601N00511220001CN0300001N9-00611-01001102911ADDAY171999GF103991031051004501001001MD1210061+9999MW1221
0081029700999991963012006004+60117+019900FM-12+000399999V0203601N00511004501CN0150001N9-00611-00891102901ADDAA199001091AY171999GF106991061051004501999999KA1999N-01721MD1010011+9999MW1851
0057029700999991963012009004+60117+019900FM-12+000399999V0200101N01341004501CN0200001N9-00611-01111103001ADDAY181999GF107991071091004501999999MD1110101+9999MW1381
0057029700999991963012012004+60117+019900FM-12+000399999V0203601N01031004501CN0038001N9-00721-01001102921ADDAY181999GF106991061091004501999999MD1810021+9999MW1381
0057029700999991963012015004+60117+019900FM-12+000399999V0200101N01031004501CN0030001N9-00721-01111103031ADDAY131999GF106991061051004501999999MD1310051+9999MW1381
0081029700999991963012018004+60117+019900FM-12+000399999V0200101N01031004501CN0200001N9-00721-01111103151ADDAA199000591AY131999GF105991051051004501999999KA1999M-00611MD1210121+9999MW1371
0057029700999991963012021004+60117+019900FM-12+000399999V0200101N01131004501CN0200001N9-00721-01391103261ADDAY131999GF105991051051004501999999MD1210111+9999MW1371
0057029700999991963012100004+60117+019900FM-12+000399999V0200101N00931220001CN0300001N9-00721-01281103301ADDAY101999GF100991001001999999001001MD1110041+9999MW1021
0057029700999991963012103004+60117+019900FM-12+000399999V0203601N00571220001CN0300001N9-00781-01281103361ADDAY101999GF100991001001999999001001MD1210061+9999MW1021
0070029700999991963012106004+60117+019900FM-12+000399999V0203601N00101220001CN0300001N9-01391-01611103331ADDAY101999GF102991021001999999031001KA1999N-01501MD1810031+9999MW1031
0057029700999991963012109004+60117+019900FM-12+000399999V0209991C00001024001CN0060001N9-01221-01281103261ADDAY121999GF108991081001999999071999MD1710071+9999MW1701
0057029700999991963012112004+60117+019900FM-12+000399999V0202601N00311004501CN0150001N9-00501-00721103101ADDAY171999GF108991061051004501021999MD1710161+9999MW1701
0057029700999991963012115004+60117+019900FM-12+000399999V0202601N00051004501CN0070001N9-00391-00501103031ADDAY171999GF108991061051004501021999MD1710071+9999MW1701
0081029700999991963012118004+60117+019900FM-12+000399999V0202701N00211220001CN0005001N9-00781-00781102971ADDAA199000591AY171999GF102991011051004501041001KA1999M-00281MD1510061+9999MW1411
0057029700999991963012121004+60117+019900FM-12+000399999V0203101N00411220001CN0100001N9-00221-00221102941ADDAY141999GF103991021001999999041011MD1810031+9999MW1011
0057029700999991963012200004+60117+019900FM-12+000399999V0203201N00621007801CN0150001N9+00001-00221102941ADDAY111999GF107991071051008001999999MD1410001+9999MW1031
0057029700999991963012203004+60117+019900FM-12+000399999V0203201N00411220001CN0150001N9-00111-00281102931ADDAY111999GF102991021051008001001001MD1610011+9999MW1011
0070029700999991963012206004+60117+019900FM-12+000399999V0203201N00411220001CN0200001N9-00111-00281102941ADDAY101999GF104991011051008001041001KA1999N-01111MD1010011+9999MW1031
0057029700999991963012209004+60117+019900FM-12+000399999V0203001N00361220001CN0300001N9-00111-00221102981ADDAY111999GF104991031001999999041011MD1110041+9999MW1021
0057029700999991963012212004+60117+019900FM-12+000399999V0203101N00461075001CN0400001N9+00001-00221102921ADDAY111999GF105991021001999999041051MD1810061+9999MW1031
0057029700999991963012215004+60117+019900FM-12+000399999V0203001N00511007801CN0500001N9+00111-00221102821ADDAY121999GF107991071051008001999999MD1710101+9999MW1031
0070029700999991963012218004+60117+019900FM-12+000399999V0203001N00411220001CN0500001N9+00001-00391102681ADDAY121999GF102991021051008001001001KA1999M+00111MD1710141+9999MW1011
0057029700999991963012221004+60117+019900FM-12+000399999V0203001N00511024001CN0450001N9+00111-00391102641ADDAY101999GF107991071001999999071999MD1710041+9999MW1031
0057029700999991963012300004+60117+019900FM-12+000399999V0203001N00721024001CN0400001N9+00111-00391102461ADDAY111999GF108991081001999999071999MD1710181+9999MW1021
0057029700999991963012303004+60117+019900FM-12+000399999V0202901N00511030001CN0400001N9+00001-00391102321ADDAY121999GF108991041051008001071999MD1710141+9999MW1021
0070029700999991963012306004+60117+019900FM-12+000399999V0202801N00361007801CN0400001N9-00111-00391102171ADDAY121999GF107991071051008001999999KA1999N-00111MD1710151+9999MW1021
0057029700999991963012309004+60117+019900FM-12+000399999V0202701N00411015001CN0450001N9-00111-00391102041ADDAY121999GF108991061051017501021999MD1810131+9999MW1701
0057029700999991963012312004+60117+019900FM-12+000399999V0202601N00411030001CN0450001N9+00001-00281101841ADDAY121999GF107991011051017501051021MD1710201+9999MW1021
0057029700999991963012315004+60117+019900FM-12+000399999V0202401N00361075001CN0450001N9-00281-00391101601ADDAY121999GF106991031001999999041051MD1710241+9999MW1011
0081029700999991963012318004+60117+019900FM-12+000399999V0202401N00311220001CN0400001N9-00281-00611101291ADDAA199000691AY121999GF106991031001999999041061KA1999M+00001MD1810311+9999MW1031
0057029700999991963012321004+60117+019900FM-12+000399999V0202301N00411024001CN0300001N9-00221-00501101091ADDAY121999GF108991081001999999071999MD1810201+9999MW1031
0057029700999991963012400004+60117+019900FM-12+000399999V0202701N00621220001CN0300001N9-00281-00611101011ADDAY121999GF104991021001999999031081MD1610081+9999MW1011
0057029700999991963012403004+60117+019900FM-12+000399999V0203001N00461220001CN0300001N9-00221-00501100991ADDAY101999GF103991031001999999031011MD1710021+9999MW1011
0070029700999991963012406004+60117+019900FM-12+000399999V0203301N00671220001CN0300001N9+00001-00281101201ADDAY101999GF102991021001999999031001KA1999N-00281MD1310211+9999MW1021
0057029700999991963012409004+60117+019900FM-12+000399999V0203501N00821030001CN0400001N9-00111-00611101691ADDAY131999GF105991031091008001061001MD1310491+9999MW1031
0057029700999991963012412004+60117+019900FM-12+000399999V0203601N00771220001CN0500001N9-00221-00781102071ADDAY111999GF101991011051008001001001MD1110381+9999MW1011
0057029700999991963012415004+60117+019900FM-12+000399999V0200101N00101220001CN0500001N9-00611-01001102401ADDAY101999GF104991041051008001071011MD1110331+9999MW1031
0070029700999991963012418004+60117+019900FM-12+000399999V0209991C00001220001CN0500001N9-01391-01501102361ADDAY101999GF101991011051008001041001KA1999M+00001MD1210231+9999MW1011
0057029700999991963012421004+60117+019900FM-12+000399999V0200101N00051220001CN0500001N9-01721-01781102621ADDAY101999GF100991001001999999001001MD1210261+9999MW1011
0057029700999991963012503004+60117+019900FM-12+000399999V0209991C00001220001CN0500001N9-01891-01891103031ADDAY101999GF100991001001999999001001MD1210041+9999MW1021
0070029700999991963012506004+60117+019900FM-12+000399999V0200101N00051220001CN0500001N9-01721-01721103011ADDAY101999GF101991011001999999041001KA1999N-01891MD1810021+9999MW1031
0057029700999991963012509004+60117+019900FM-12+000399999V0202001N00621220001CN0500001N9-00281-00721102981ADDAY101999GF105991031001999999041011MD1710031+9999MW1031
0057029700999991963012512004+60117+019900FM-12+000399999V0202001N01131220001CN0500001N9-00221-00611102741ADDAY121999GF105991041001999999051091MD1810241+9999MW1021
0057029700999991963012515004+60117+019900FM-12+000399999V0202001N01231220001CN0400001N9-00221-00501102491ADDAY101999GF102991021001999999051091MD1710251+9999MW1021
0070029700999991963012518004+60117+019900FM-12+000399999V0202001N01441024001CN0350001N9-00111-00281102161ADDAY111999GF108991081001999999071999KA1999M-00111MD1710331+9999MW1031
0057029700999991963012521004+60117+019900FM-12+000399999V0202001N01801001501CN0020001N9-00221-00281101761ADDAY131999GF109991091999001501999999MD1710401+9999MW1721
0057029700999991963012600004+60117+019900FM-12+000399999V0202001N01651004501CN0200001N9-00111-00221101321ADDAY171999GF108991081051004501999999MD1710441+9999MW1361
0081029700999991963012606004+60117+019900FM-12+000399999V0201901N00871002401CN0300001N9+00001-00221101101ADDAA199000691AY131999GF108991081051002501999999KA1999N-00281MD1510081+9999MW1021
0057029700999991963012609004+60117+019900FM-12+000399999V0201801N00621004501CN0250001N9+00001-00221101301ADDAY121999GF107991071051004501999999MD1510201+9999MW1021
0057029700999991963012612004+60117+019900FM-12+000399999V0202201N00211004501CN0100001N9+00001-00221101531ADDAY121999GF108991081051004501999999MD1210231+9999MW1701
0057029700999991963012615004+60117+019900FM-12+000399999V0209991C00001002401CN0040001N9-00111-00111101831ADDAY171999GF108991081071002501999999MD1210301+9999MW1681
0081029700999991963012618004+60117+019900FM-12+000399999V0209991C00001002401CN0020001N9-00111-00111102191ADDAA199001091AY171999GF108991081071002501999999KA1999M+00001MD1210361+9999MW1731
0057029700999991963012621004+60117+019900FM-12+000399999V0203201N00261004501CN0050001N9-00221-00221102471ADDAY171999GF108991081051004501999999MD1210281+9999MW1711
0057029700999991963012700004+60117+019900FM-12+000399999V0209991C00001220001CN0060001N9-00891-01111102711ADDAY101999GF100991001001999999001001MD1210241+9999MW1111
0057029700999991963012703004+60117+019900FM-12+000399999V0209991C00001220001CN0100001N9-01391-01391102831ADDAY101999GF100991001001999999001001MD1110121+9999MW1021
0081029700999991963012706004+60117+019900FM-12+000399999V0209991C00001220001CN0100001N9-01501-01611102921ADDAA199000391AY101999GF104991041001999999051001KA1999N-01611MD1210091+9999MW1031
0057029700999991963012709004+60117+019900FM-12+000399999V0209991C00001024001CN0100001N9-01281-01391103021ADDAY111999GF106991061001999999031001MD1210101+9999MW1111
0057029700999991963012712004+60117+019900FM-12+000399999V0201201N00211007801CN0200001N9-00221-00282102991ADDAY121999GF105991051051008001031999MD1610031+9999MW1021
0057029700999991963012715004+60117+019900FM-12+000399999V0209991C00001220001CN0006001N9-00721-00781103141ADDAY101999GF101991011001022501031001MD1310151+9999MW1461
0070029700999991963012718004+60117+019900FM-12+000399999V0200301N00211220001CN0040001N9-01221-01281103331ADDAY141999GF101991011001999999041001KA1999M-00221MD1210191+9999MW1111
0057029700999991963012721004+60117+019900FM-12+000399999V0200101N00151220001CN0200001N9-01111-01221103471ADDAY101999GF100991001001999999001001MD1210141+9999MW1281
0057029700999991963012800004+60117+019900FM-12+000399999V0209991C00001220001CN0200001N9-01281-01391103591ADDAY101999GF100991001001999999001001MD1210121+9999MW1021
0057029700999991963012803004+60117+019900FM-12+000399999V0209991C00001000151CN0005001N9-01281-01391103671ADDAY141999GF106991061061000251999999MD1110081+9999MW1441
0070029700999991963012806004+60117+019900FM-12+000399999V0209991C00001000151CN0006001N9-00891-01001103691ADDAY141999GF107991071061000251999999KA1999N-01501MD1310021+9999MW1441
0057029700999991963012809004+60117+019900FM-12+000399999V0209991C00001000151CN0000001N9-00781-00891103771ADDAY141999GF109991091999000251999999MD1210081+9999MW1471
0057029700999991963012812004+60117+019900FM-12+000399999V0209991C00001000151CN0001001N9-00281-00391103761ADDAY141999GF109991091999000251999999MD1810011+9999MW1451
0057029700999991963012815004+60117+019900FM-12+000399999V0209991C00001001501CN0060001N9-00221-00221103761ADDAY121999GF108991081061001501999999MD1410001+9999MW1011
0070029700999991963012818004+60117+019900FM-12+000399999V0209991C00001001501CN0060001N9-00221-00221103801ADDAY121999GF108991081061001501999999KA1999M-00221MD1010041+9999MW1021
0057029700999991963012821004+60117+019900FM-12+000399999V0209991C00001002401CN0060001N9-00221-00221103801ADDAY121999GF108991081061002501999999MD1410001+9999MW1021
0057029700999991963012903004+60117+019900FM-12+000399999V0202001N00211007801CN0100001N9-00221-00281103731ADDAY121999GF108991081051008001999999MD1710051+9999MW1021
0070029700999991963012906004+60117+019900FM-12+000399999V0209991C00001007801CN0100001N9-00281-00391103631ADDAY121999GF108991081051008001999999KA1999N-00281MD1710101+9999MW1021
0057029700999991963012909004+60117+019900FM-12+000399999V0202501N00101007801CN0200001N9-00281-00501103491ADDAY121999GF108991081051008001999999MD1710141+9999MW1021
0057029700999991963012912004+60117+019900FM-12+000399999V0202301N00211007801CN0300001N9-00281-00611103331ADDAY121999GF108991081051008001999999MD1810161+9999MW1021
0057029700999991963012915004+60117+019900FM-12+000399999V0202301N00361007801CN0300001N9-00281-00611103201ADDAY121999GF108991081051008001999999MD1710131+9999MW1021
0070029700999991963012918004+60117+019900FM-12+000399999V0202201N00511007801CN0250001N9-00391-00721103011ADDAY121999GF108991081051008001999999KA1999M-00281MD1710191+9999MW1021
0057029700999991963012921004+60117+019900FM-12+000399999V0202401N00411004501CN0200001N9-00501-00721102851ADDAY121999GF108991081051004501999999MD1710161+9999MW1021
0057029700999991963013000004+60117+019900FM-12+000399999V0202101N00411004501CN0200001N9-00501-00721102721ADDAY121999GF108991081051004501999999MD1710131+9999MW1021
0057029700999991963013003004+60117+019900FM-12+000399999V0201801N00411004501CN0150001N9-00501-00781102621ADDAY121999GF108991081051004501999999MD1710101+9999MW1021
0070029700999991963013006004+60117+019900FM-12+000399999V0202101N00211004501CN0150001N9-00611-00781102581ADDAY121999GF108991081051004501999999KA1999N-00611MD1610041+9999MW1021
0057029700999991963013012004+60117+019900FM-12+000399999V0202001N00261030001CN0180001N9-00721-00891102431ADDAY121999GF105991021051004501051999MD1810161+9999MW1031
0057029700999991963013015004+60117+019900FM-12+000399999V0209991C00001030001CN0100001N9-00721-00781102391ADDAY121999GF106991031051004501071999MD1810041+9999MW1851
0070029700999991963013018004+60117+019900FM-12+000399999V0200501N00101220001CN0150001N9-01221-01281102351ADDAY121999GF102991021051004501001001KA1999M-00501MD1710041+9999MW1021
0057029700999991963013021004+60117+019900FM-12+000399999V0200501N00151004501CN0100001N9-00781-00781102291ADDAY121999GF107991071071004501999999MD1710061+9999MW1701
0057029700999991963013103004+60117+019900FM-12+000399999V0200501N00151002401CN0080001N9-00721-00781102201ADDAY171999GF108991081071002501999999MD1710031+9999MW1711
0081029700999991963013106004+60117+019900FM-12+000399999V0200101N00511007801CN0200001N9-00501-00781102181ADDAA199001091AY171999GF106991061051008001999999KA1999N-01221MD1610021+9999MW1011
0057029700999991963013109004+60117+019900FM-12+000399999V0203601N00621220001CN0400001N9-00611-01111102151ADDAY111999GF102991011051008001031001MD1710031+9999MW1011
0057029700999991963013112004+60117+019900FM-12+000399999V0203601N00721220001CN0400001N9-00501-01111102081ADDAY101999GF103991021051008001031001MD1710071+9999MW1031
0057029700999991963013115004+60117+019900FM-12+000399999V0203601N00621220001CN0400001N9-00611-01221102071ADDAY101999GF103991021051008001001011MD1810011+9999MW1021
0070029700999991963013118004+60117+019900FM-12+000399999V0203601N00621220001CN0300001N9-00611-01111102091ADDAY101999GF103991021051008001031001KA1999M-00391MD1010021+9999MW1021
0057029700999991963013121004+60117+019900FM-12+000399999V0200401N00361004501CN0150001N9-00781-01001102121ADDAY121999GF107991051051004501031999MD1110031+9999MW1031
0057029700999991963020100004+60117+019900FM-12+000399999V0200301N00361004501CN0200001N9-01001-01111102211ADDAY171999GF108991081051004501999999MD1210091+9999MW1031
0057029700999991963020103004+60117+019900FM-12+000399999V0200301N00311220001CN0300001N9-01281-01391102301ADDAY111999GF101991011051004501001001MD1210091+9999MW1011
0081029700999991963020106004+60117+019900FM-12+000399999V0200301N00361220001CN0300001N9-01281-01391102401ADDAA199000391AY101999GF102991021001999999041001KA1999N-01281MD1210101+9999MW1031
0057029700999991963020109004+60117+019900FM-12+000399999V0200401N00361030001CN0200001N9-01221-01391102581ADDAY121999GF107991011061004501071011MD1210181+9999MW1701
0057029700999991963020112004+60117+019900FM-12+000399999V0200501N00671030001CN0100001N9-01111-01391102721ADDAY171999GF107991031071004501071999MD1210141+9999MW1711
0057029700999991963020115004+60117+019900FM-12+000399999V0200501N00511220001CN0100001N9-01281-01611102891ADDAY101999GF103991021061004501031001MD1210171+9999MW1021
0081029700999991963020118004+60117+019900FM-12+000399999V0200301N00461220001CN0200001N9-01391-01501103011ADDAA199000691AY111999GF100991001001999999001001KA1999M-01001MD1210121+9999MW1021
0057029700999991963020121004+60117+019900FM-12+000399999V0200201N00461220001CN0150001N9-01501-01611103021ADDAY101999GF100991001001999999001001MD1010011+9999MW1021
0057029700999991963020200004+60117+019900FM-12+000399999V0200201N00511220001CN0150001N9-01501-01611102991ADDAY101999GF100991001001999999001001MD1010031+9999MW1021
0057029700999991963020203004+60117+019900FM-12+000399999V0200301N00411004501CN0150001N9-01501-01721102911ADDAY111999GF108991081051004501999999MD1610081+9999MW1031
0070029700999991963020206004+60117+019900FM-12+000399999V0209991C00001004501CN0100001N9-01281-01501102881ADDAY121999GF108991081051004501999999KA1999N-01611MD1710031+9999MW1021
0057029700999991963020209004+60117+019900FM-12+000399999V0200401N00211004501CN0080001N9-01111-01281102801ADDAY121999GF108991081061004501999999MD1710081+9999MW1701
0057029700999991963020212004+60117+019900FM-12+000399999V0200501N00311002401CN0050001N9-01001-01111102641ADDAY171999GF108991081071002501999999MD1710161+9999MW1711
0057029700999991963020215004+60117+019900FM-12+000399999V0200501N00261002401CN0070001N9-00891-01001102431ADDAY171999GF108991081061002501999999MD1710211+9999MW1031
0081029700999991963020218004+60117+019900FM-12+000399999V0200601N00101002401CN0040001N9-00781-00891102251ADDAA199000391AY121999GF108991081061002501999999KA1999M-00781MD1710181+9999MW1101
0057029700999991963020221004+60117+019900FM-12+000399999V0200601N00211000601CN0030001N9-00781-00891102061ADDAY121999GF108991081061000751999999MD1710191+9999MW1101
0057029700999991963020300004+60117+019900FM-12+000399999V0200201N00101002401CN0045001N9-00781-00891101831ADDAY121999GF108991081061002501999999MD1710231+9999MW1101
0057029700999991963020303004+60117+019900FM-12+000399999V0200501N00311002401CN0050001N9-00781-00781101511ADDAY171999GF108991081071002501999999MD1710321+9999MW1701
0081029700999991963020306004+60117+019900FM-12+000399999V0200301N00461000601CN0030001N9-00721-00781101281ADDAA199000391AY121999GF108991081061000751999999KA1999N-00891MD1610231+9999MW1101
0057029700999991963020309004+60117+019900FM-12+000399999V0200601N00411001501CN0045001N9-00501-00611101091ADDAY121999GF108991081061001501999999MD1710191+9999MW1771
0057029700999991963020312004+60117+019900FM-12+000399999V0200601N00461001501CN0030001N9-00501-00611100871ADDAY171999GF108991081071001501999999MD1710221+9999MW1771
0057029700999991963020315004+60117+019900FM-12+000399999V0200601N00411001501CN0030001N9-00391-00391100671ADDAY171999GF108991081071001501999999MD1710201+9999MW1771
0081029700999991963020318004+60117+019900FM-12+000399999V0200901N00311002401CN0050001N9-00221-00281100581ADDAA199000591AY171999GF108991081071002501999999KA1999M-00221MD1710091+9999MW1711
0057029700999991963020321004+60117+019900FM-12+000399999V0201301N00411002401CN0100001N9-00221-00281100581ADDAY171999GF108991081071002501999999MD1410001+9999MW1711
0057029700999991963020400004+60117+019900FM-12+000399999V0209991C00001002401CN0100001N9-00281-00391100541ADDAY171999GF108991081071002501999999MD1710041+9999MW1711
0057029700999991963020403004+60117+019900FM-12+000399999V0200801N00211002401CN0080001N9-00281-00281100471ADDAY171999GF108991081071002501999999MD1710071+9999MW1711
0081029700999991963020406004+60117+019900FM-12+000399999V0200601N00311004501CN0200001N9-00281-00501100241ADDAA199002091AY171999GF108991081051004501999999KA1999N-00281MD1710231+9999MW1021
0057029700999991963020409004+60117+019900FM-12+000399999V0200601N00721000601CN0030001N9-00281-00281099971ADDAY121999GF108991081071000751999999MD1710271+9999MW1721
0057029700999991963020412004+60117+019900FM-12+000399999V0200401N00771001501CN0070001N9-00281-00501099341ADDAY171999GF108991081071001501999999MD1810631+9999MW1021
0057029700999991963020415004+60117+019900FM-12+000399999V0200301N00771001501CN0007001N9-00391-00501098971ADDAY171999GF109991091999001501999999MD1710371+9999MW1751
0081029700999991963020418004+60117+019900FM-12+000399999V0200301N00621001501CN0018001N9-00501-00611098741ADDAA199002091AY171999GF108991081071001501999999KA1999M-00281MD1710231+9999MW1731
0057029700999991963020421004+60117+019900FM-12+000399999V0200301N00511004501CN0100001N9-00501-00611098641ADDAY171999GF108991081071004501999999MD1610101+9999MW1711
0057029700999991963020500004+60117+019900FM-12+000399999V0209991C00001001501CN0018001N9-00501-00501098681ADDAY171999GF108991081071001501999999MD1310041+9999MW1731
0057029700999991963020503004+60117+019900FM-12+000399999V0201201N001019999999N0025001N9-00391-00391098821ADDAY171999GF108991081071999999999999MD1210141+9999MW1711
0081029700999991963020506004+60117+019900FM-12+000399999V0209991C00001001501CN0020001N9-00501-00501099101ADDAA199002091AY171999GF108991081071001501999999KA1999N-00611MD1210281+9999MW1711
0057029700999991963020509004+60117+019900FM-12+000399999V0203001N00571002401CN0200001N9-00391-00611099631ADDAY121999GF108991061061002501021999MD1210531+9999MW1021
0057029700999991963020512004+60117+019900FM-12+000399999V0202401N00621002401CN0200001N9-00721-00891100291ADDAY121999GF108991061061002501021999MD1210661+9999MW1021
0057029700999991963020515004+60117+019900FM-12+000399999V0202401N00621220001CN0250001N9-00781-01111100811ADDAY121999GF102991021051004501001001MD1210521+9999MW1011
0081029700999991963020518004+60117+019900FM-12+000399999V0202401N00461220001CN0250001N9-00891-01111101221ADDAA199000391AY101999GF102991021051004501001001KA1999M-00391MD1210411+9999MW1021
0057029700999991963020521004+60117+019900FM-12+000399999V0202401N00411220001CN0300001N9-01001-01221101611ADDAY101999GF100991001001999999001001MD1210391+9999MW1011
0057029700999991963020600004+60117+019900FM-12+000399999V0202301N00101220001CN0300001N9-01391-01501101871ADDAY101999GF100991001001999999001001MD1210261+9999MW1021
0057029700999991963020603004+60117+019900FM-12+000399999V0209991C00001007801CN0200001N9-01501-01611102031ADDAY111999GF107991071051008001999999MD1110161+9999MW1701
0081029700999991963020606004+60117+019900FM-12+000399999V0209991C00001004501CN0250001N9-00781-00891102101ADDAA199000691AY121999GF108991081051004501999999KA1999N-01781MD1310071+9999MW1021
0057029700999991963020609004+60117+019900FM-12+000399999V0202301N00151007801CN0200001N9-00721-00721102341ADDAY171999GF107991061051008001041999MD1210241+9999MW1701
0057029700999991963020612004+60117+019900FM-12+000399999V0202401N00101030001CN0200001N9-00501-00611102441ADDAY121999GF106991021051008001031999MD1110101+9999MW1021
0057029700999991963020615004+60117+019900FM-12+000399999V0209991C00001220001CN0200001N9-01281-01501102491ADDAY101999GF102991001001999999001011MD1310051+9999MW1121
0081029700999991963020618004+60117+019900FM-12+000399999V0209991C00001220001CN0020001N9-01721-01891102571ADDAA199000691AY141999GF101991001001999999001011KA1999M-00501MD1210081+9999MW1101
0057029700999991963020621004+60117+019900FM-12+000399999V0203301N00211001501CN0020001N9-01721-01781102631ADDAY141999GF107991071061001501999999MD1310061+9999MW1121
0057029700999991963020700004+60117+019900FM-12+000399999V0203601N00211000601CN0020001N9-01501-01611102601ADDAY121999GF109991091999000751999999MD1010031+9999MW1101
0057029700999991963020703004+60117+019900FM-12+000399999V0203601N00261220001CN0100001N9-01721-01891102581ADDAY121999GF100991001001999999001001MD1810021+9999MW1011
0070029700999991963020706004+60117+019900FM-12+000399999V0200101N00101000601CN0010001N9-01221-01391102501ADDAY111999GF109991091999000751999999KA1999N-01891MD1710081+9999MW1101
0057029700999991963020709004+60117+019900FM-12+000399999V0200101N00151030001CN0080001N9-01221-01281102551ADDAY121999GF107991021051004501071061MD1210051+9999MW1021
0057029700999991963020712004+60117+019900FM-12+000399999V0200101N00361220001CN0150001N9-00781-00781102501ADDAY121999GF105991011051004501001011MD1810051+9999MW1011
0057029700999991963020715004+60117+019900FM-12+000399999V0200201N00261030001CN0150001N9-00891-01001102511ADDAY121999GF106991011051008001031011MD1310011+9999MW1021
0070029700999991963020718004+60117+019900FM-12+000399999V0200201N00101030001CN0150001N9-00891-01001102561ADDAY121999GF108991021051008001041071KA1999M-00721MD1210051+9999MW1031
0057029700999991963020721004+60117+019900FM-12+000399999V0200201N00311220001CN0200001N9-01111-01111102681ADDAY121999GF108991001001999999001071MD1210121+9999MW1021
0057029700999991963020800004+60117+019900FM-12+000399999V0200201N00101220001CN0150001N9-01221-01221102721ADDAY121999GF104991001001999999001051MD1210041+9999MW1011
0057029700999991963020803004+60117+019900FM-12+000399999V0200201N00311220001CN0150001N9-01111-01221102751ADDAY111999GF103991031001999999041001MD1310031+9999MW1011
0070029700999991963020806004+60117+019900FM-12+000399999V0200101N00411002401CN0150001N9-01111-01111102811ADDAY111999GF106991061061002501001001KA1999N-01221MD1210061+9999MW1031
0057029700999991963020809004+60117+019900FM-12+000399999V0203601N00411220001CN0060001N9-01001-01111102901ADDAY121999GF107991001001999999001061MD1210091+9999MW1011
0057029700999991963020812004+60117+019900FM-12+000399999V0203601N00621220001CN0060001N9-00891-01001102971ADDAY121999GF100991001001999999001001MD1010071+9999MW1051
0057029700999991963020815004+60117+019900FM-12+000399999V0203601N00151220001CN0090001N9-01221-01281103031ADDAY101999GF101991011001999999041001MD1510061+9999MW1031
0070029700999991963020818004+60117+019900FM-12+000399999V0209991C00001024001CN0045001N9-01391-01611103111ADDAY121999GF107991071001999999031999KA1999M-00781MD1310031+9999MW1111
0057029700999991963020821004+60117+019900FM-12+000399999V0209991C00001220001CN0040001N9-01891-02111103241ADDAY111999GF101991011001999999031001MD1210131+9999MW1101
0057029700999991963020900004+60117+019900FM-12+000399999V0209991C00001024001CN0060001N9-01611-01721103311ADDAY121999GF105991051001999999031999MD1110071+9999MW1021
0057029700999991963020903004+60117+019900FM-12+000399999V0209991C00001030001CN0050001N9-01221-01281103281ADDAY121999GF108991041051008001071999MD1810031+9999MW1101
0070029700999991963020906004+60117+019900FM-12+000399999V0203301N00211004501CN0060001N9-01001-01111103301ADDAY121999GF108991081051004501999999KA1999N-02111MD1610021+9999MW1021
0057029700999991963020909004+60117+019900FM-12+000399999V0202301N00411001501CN0050001N9-00781-00891103331ADDAY121999GF108991081071001501999999MD1310031+9999MW1761
0057029700999991963020912004+60117+019900FM-12+000399999V0202301N00411002401CN0045001N9-00891-01001103301ADDAY171999GF108991081071002501999999MD1010031+9999MW1711
0057029700999991963020915004+60117+019900FM-12+000399999V0202301N00311220001CN0070001N9-01001-01221103231ADDAY171999GF104991041051004501001001MD1710071+9999MW1011
0070029700999991963020918004+60117+019900FM-12+000399999V0202301N00361220001CN0100001N9-01111-01221103111ADDAY101999GF100991001001999999001001KA1999M-00781MD1710121+9999MW1021
0057029700999991963021000004+60117+019900FM-12+000399999V0202401N00311030001CN0150001N9-01001-01001102951ADDAY101999GF105991031061004501031999MD1710081+9999MW1031
0057029700999991963021003004+60117+019900FM-12+000399999V0202401N00361220001CN0150001N9-01001-01111102811ADDAY111999GF100991001001999999001001MD1710141+9999MW1021
0070029700999991963021006004+60117+019900FM-12+000399999V0202401N00051220001CN0150001N9-01781-02001102851ADDAY101999GF100991001001999999001001KA1999N-01781MD1310041+9999MW1021
0057029700999991963021009004+60117+019900FM-12+000399999V0209991C00001220001CN0080001N9-01781-02001102891ADDAY101999GF102991001001999999001011MD1310041+9999MW1031
0057029700999991963021015004+60117+019900FM-12+000399999V0209991C00001220001CN0100001N9-01501-01611102891ADDAY101999GF101991011001999999031011MD1310011+9999MW1051
0070029700999991963021018004+60117+019900FM-12+000399999V0201101N00151004501CN0050001N9-01281-01391102921ADDAY121999GF107991071051004501999999KA1999M-00781MD1210031+9999MW1101
0057029700999991963021021004+60117+019900FM-12+000399999V0200901N00311004501CN0080001N9-00891-00891102851ADDAY121999GF108991081051004501999999MD1710071+9999MW1101
0057029700999991963021100004+60117+019900FM-12+000399999V0201001N00361004501CN0100001N9-00721-00721102771ADDAY121999GF108991081051004501999999MD1710081+9999MW1021
0057029700999991963021103004+60117+019900FM-12+000399999V0201301N00621004501CN0150001N9-00611-00721102641ADDAY121999GF108991081051004501999999MD1710131+9999MW1021
0070029700999991963021106004+60117+019900FM-12+000399999V0201301N00671004501CN0200001N9-00611-00781102461ADDAY121999GF107991051051004501031999KA1999N-01281MD1710181+9999MW1011
0057029700999991963021109004+60117+019900FM-12+000399999V0201401N00721030001CN0250001N9-00501-00721102341ADDAY121999GF107991041051004501031999MD1710121+9999MW1021
0057029700999991963021112004+60117+019900FM-12+000399999V0201501N00821220001CN0250001N9-00391-00721102151ADDAY111999GF102991011051004501031001MD1710191+9999MW1011
0057029700999991963021115004+60117+019900FM-12+000399999V0201601N00771004501CN0250001N9-00501-00721101931ADDAY121999GF106991051051004501031999MD1710221+9999MW1031
0070029700999991963021118004+60117+019900FM-12+000399999V0201401N00771004501CN0250001N9-00611-00721101751ADDAY121999GF105991051051004501999999KA1999M-00391MD1710181+9999MW1031
0057029700999991963021121004+60117+019900FM-12+000399999V0201601N00721004501CN0200001N9-00501-00611101551ADDAY121999GF106991061051004501999999MD1710201+9999MW1021
0057029700999991963021200004+60117+019900FM-12+000399999V0201701N00871004501CN0200001N9-00501-00721101341ADDAY121999GF107991071051004501999999MD1710211+9999MW1031
0057029700999991963021203004+60117+019900FM-12+000399999V0201801N00721004501CN0200001N9-00391-00611101101ADDAY121999GF108991081051004501999999MD1710241+9999MW1031
0070029700999991963021206004+60117+019900FM-12+000399999V0201701N00511004501CN0150001N9-00281-00391100961ADDAY121999GF108991081051004501999999KA1999N-00501MD1610141+9999MW1221
0057029700999991963021209004+60117+019900FM-12+000399999V0201701N00621002401CN0080001N9-00221-00391100921ADDAY121999GF108991081071002501999999MD1610041+9999MW1771
0057029700999991963021212004+60117+019900FM-12+000399999V0201701N00311001501CN0025001N9-00221-00281100871ADDAY171999GF108991081071001501999999MD1810051+9999MW1771
0057029700999991963021215004+60117+019900FM-12+000399999V0201601N00571001501CN0030001N9-00221-00281100821ADDAY171999GF108991081071001501999999MD1610051+9999MW1771
0081029700999991963021218004+60117+019900FM-12+000399999V0201801N00311002401CN0040001N9-00221-00281100851ADDAA199001091AY171999GF108991081071002501999999KA1999M-00221MD1310031+9999MW1101
0057029700999991963021221004+60117+019900FM-12+000399999V0201801N00261001501CN0025001N9-00221-00221100861ADDAY171999GF108991081071001501999999MD1310011+9999MW1761
0057029700999991963021300004+60117+019900FM-12+000399999V0201801N00311000601CN0015001N9-00221-00221100901ADDAY171999GF108991081061000751999999MD1210041+9999MW1561
0057029700999991963021303004+60117+019900FM-12+000399999V0201701N00211000601CN0010001N9-00221-00221100931ADDAY151999GF108991081061000751999999MD1210031+9999MW1561
0081029700999991963021306004+60117+019900FM-12+000399999V0201801N00261000601CN0015001N9-00221-00221101001ADDAA199000591AY151999GF108991081061000751999999KA1999N-00221MD1210071+9999MW1561
0057029700999991963021309004+60117+019900FM-12+000399999V0201701N00211001501CN0020001N9-00221-00281101101ADDAY171999GF108991081071001501999999MD1210101+9999MW1731
0057029700999991963021315004+60117+019900FM-12+000399999V0200701N00361004501CN0100001N9-00501-00611101241ADDAY171999GF108991081071004501999999MD1210081+9999MW1711
0081029700999991963021318004+60117+019900FM-12+000399999V0200501N00261004501CN0100001N9-00721-00781101311ADDAA199001091AY171999GF108991081071004501999999KA1999M-00221MD1210071+9999MW1701
0057029700999991963021321004+60117+019900FM-12+000399999V0200801N00311004501CN0150001N9-00781-00891101381ADDAY171999GF108991081051004501999999MD1210071+9999MW1711
0057029700999991963021400004+60117+019900FM-12+000399999V0200401N00261004501CN0200001N9-00781-00891101381ADDAY171999GF108991081051004501999999MD1410001+9999MW1221
0057029700999991963021403004+60117+019900FM-12+000399999V0200301N00211004501CN0150001N9-00781-00781101301ADDAY121999GF108991081051004501999999MD1710081+9999MW1701
0081029700999991963021406004+60117+019900FM-12+000399999V0200601N00211002401CN0100001N9-00781-00781101301ADDAA199000391AY171999GF108991081071002501999999KA1999N-00781MD1410001+9999MW1711
0057029700999991963021409004+60117+019900FM-12+000399999V0200501N00311004501CN0100001N9-00781-00891101351ADDAY171999GF108991081051004501999999MD1210051+9999MW1711
0057029700999991963021412004+60117+019900FM-12+000399999V0200501N00311030001CN0150001N9-00721-00891101271ADDAY171999GF108991041051004501071999MD1810081+9999MW1021
0057029700999991963021415004+60117+019900FM-12+000399999V0200801N00261004501CN0120001N9-00781-01001101201ADDAY121999GF108991051051004501071999MD1710071+9999MW1021
0081029700999991963021418004+60117+019900FM-12+000399999V0200701N00101004501CN0100001N9-00891-01111101191ADDAA199000691AY121999GF107991071051004501999999KA1999M-00721MD1710011+9999MW1011
0057029700999991963021421004+60117+019900FM-12+000399999V0200701N00151220001CN0150001N9-01611-01721101141ADDAY101999GF101991011051004501999999MD1710051+9999MW1011
0057029700999991963021500004+60117+019900FM-12+000399999V0200501N00311220001CN0200001N9-01391-01501101041ADDAY101999GF100991001001999999001001MD1710101+9999MW1011
0057029700999991963021503004+60117+019900FM-12+000399999V0200301N00151220001CN0200001N9-01781-01891100891ADDAY101999GF100991001001999999001001MD1710151+9999MW1021
0070029700999991963021506004+60117+019900FM-12+000399999V0200301N00151030001CN0150001N9-01281-01391100761ADDAY121999GF108991041051008001071999KA1999N-02001MD1710131+9999MW1021
0057029700999991963021509004+60117+019900FM-12+000399999V0200201N00261030001CN0150001N9-01111-01221100701ADDAY171999GF108991031051008001071999MD1710061+9999MW1711
0057029700999991963021512004+60117+019900FM-12+000399999V0200301N00211030001CN0200001N9-00891-01111100571ADDAY171999GF108991031051008001071999MD1710131+9999MW1221
0057029700999991963021515004+60117+019900FM-12+000399999V0200401N00211004501CN0150001N9-00891-01111100441ADDAY121999GF108991051051004501071999MD1710131+9999MW1711
0081029700999991963021518004+60117+019900FM-12+000399999V0200401N00101030001CN0150001N9-00891-01111100441ADDAA199000591AY171999GF108991021051004501071999KA1999M-00891MD1410001+9999MW1701
0057029700999991963021521004+60117+019900FM-12+000399999V0200401N00101030001CN0200001N9-01001-01111100381ADDAY171999GF108991031051004501071999MD1610061+9999MW1021
0057029700999991963021600004+60117+019900FM-12+000399999V0200401N00101021001CN0250001N9-01001-01111100311ADDAY121999GF108991081001022501071999MD1710071+9999MW1021
0057029700999991963021603004+60117+019900FM-12+000399999V0200401N00101021001CN0250001N9-01001-01111100231ADDAY121999GF108991071001022501031999MD1710081+9999MW1021
0081029700999991963021606004+60117+019900FM-12+000399999V0200401N00051021001CN0200001N9-01001-01111100251ADDAA199000691AY121999GF107991071001022501031999KA1999N-01001MD1510031+9999MW1021
0057029700999991963021609004+60117+019900FM-12+000399999V0200401N00151030001CN0100001N9-00781-00891100281ADDAY121999GF107991031051004501031999MD1110031+9999MW1711
0057029700999991963021612004+60117+019900FM-12+000399999V0200501N00261030001CN0100001N9-00611-00721100301ADDAY121999GF107991031051004501031999MD1010021+9999MW1031
0057029700999991963021615004+60117+019900FM-12+000399999V0200501N00151030001CN0100001N9-00611-00721100301ADDAY171999GF107991041061002501051999MD1410001+9999MW1221
0081029700999991963021618004+60117+019900FM-12+000399999V0200501N00261004501CN0100001N9-00781-00891100351ADDAA199000691AY171999GF107991071071004501999999KA1999M-00501MD1110051+9999MW1771
0057029700999991963021621004+60117+019900FM-12+000399999V0200501N00211004501CN0080001N9-01221-01281100391ADDAY171999GF106991061051004501999999MD1010041+9999MW1221
0057029700999991963021700004+60117+019900FM-12+000399999V0200501N00051004501CN0050001N9-01001-01111100471ADDAY171999GF108991081051004501999999MD1110081+9999MW1771
0057029700999991963021703004+60117+019900FM-12+000399999V0200501N00151004501CN0060001N9-00891-01001100461ADDAY171999GF108991081051004501999999MD1010011+9999MW1781
0081029700999991963021706004+60117+019900FM-12+000399999V0203601N00261002401CN0020001N9-00721-00781100541ADDAA199000591AY171999GF108991081071002501999999KA1999N-01281MD1310081+9999MW1731
0057029700999991963021709004+60117+019900FM-12+000399999V0203601N00621004501CN0150001N9-00891-01001100651ADDAY171999GF107991061051004501051999MD1210111+9999MW1711
0057029700999991963021712004+60117+019900FM-12+000399999V0203601N00721004501CN0300001N9-00891-01221100751ADDAY121999GF105991051051004501001001MD1210101+9999MW1021
0057029700999991963021715004+60117+019900FM-12+000399999V0203601N00771030001CN0300001N9-01111-01281100831ADDAY121999GF105991041051004501031001MD1210081+9999MW1021
0081029700999991963021718004+60117+019900FM-12+000399999V0203501N00821220001CN0250001N9-01221-01391100921ADDAA199000391AY121999GF104991041051004501031999KA1999M-00721MD1210091+9999MW1761
0057029700999991963021721004+60117+019900FM-12+000399999V0200201N00721004501CN0200001N9-01281-01501100991ADDAY171999GF105991051051004501999999MD1210071+9999MW1781
0057029700999991963021800004+60117+019900FM-12+000399999V0203601N00821220001CN0250001N9-01281-01501101011ADDAY111999GF103991031051008001001001MD1110021+9999MW1011
0057029700999991963021803004+60117+019900FM-12+000399999V0203401N00771004501CN0250001N9-01281-01501101031ADDAY171999GF105991051051004501999999MD1210021+9999MW1781
0081029700999991963021806004+60117+019900FM-12+000399999V0203601N00771004501CN0300001N9-01391-01611101121ADDAA199000691AY171999GF106991061051004501999999KA1999N-01391MD1310091+9999MW1021
0057029700999991963021809004+60117+019900FM-12+000399999V0203601N00721220001CN0350001N9-01281-01501101141ADDAY101999GF101991011051004501001001MD1110021+9999MW1781
0057029700999991963021812004+60117+019900FM-12+000399999V0200101N00511220001CN0400001N9-01111-01501101181ADDAY171999GF101991001001999999001011MD1110041+9999MW1031
0057029700999991963021815004+60117+019900FM-12+000399999V0200101N00311220001CN0450001N9-01221-01611101201ADDAY101999GF101991001001999999001011MD1310021+9999MW1021
0081029700999991963021818004+60117+019900FM-12+000399999V0209991C00001220001CN0400001N9-02111-02111101221ADDAA199000691AY101999GF101991011001999999041011KA1999M-01111MD1210021+9999MW1021
0057029700999991963021821004+60117+019900FM-12+000399999V0209991C00001220001CN0300001N9-02391-02501101211ADDAY101999GF100991001001999999001001MD1810011+9999MW1011
0057029700999991963021900004+60117+019900FM-12+000399999V0209991C00001220001CN0300001N9-02611-02721101201ADDAY101999GF100991001001999999001001MD1810011+9999MW1021
0057029700999991963021903004+60117+019900FM-12+000399999V0209991C00001220001CN0300001N9-02001-02221101201ADDAY101999GF100991001001999999001001MD1810011+9999MW1021
0070029700999991963021906004+60117+019900FM-12+000399999V0209991C00001075001CN0300001N9-02221-02391101141ADDAY101999GF105991031001999999031021KA1999N-02611MD1710021+9999MW1031
0057029700999991963021909004+60117+019900FM-12+000399999V0202201N00311024001CN0400001N9-01111-01222101141ADDAY111999GF106991051001999999051021MD1410001+9999MW1031
0057029700999991963021912004+60117+019900FM-12+000399999V0202101N00621220001CN0500001N9-00891-01221101101ADDAY111999GF101991011001999999041001MD1810031+9999MW1011
0057029700999991963021915004+60117+019900FM-12+000399999V0202001N00361220001CN0500001N9-01001-01221101051ADDAY101999GF101991011001999999031001MD1710051+9999MW1021
0070029700999991963021918004+60117+019900FM-12+000399999V0202001N00051220001CN0300001N9-01781-01891101031ADDAY101999GF100991001001999999001001KA1999M-00891MD1610021+9999MW1021
0057029700999991963021921004+60117+019900FM-12+000399999V0209991C00001220001CN0300001N9-02001-02111100971ADDAY101999GF100991001001999999001001MD1810061+9999MW1021
0057029700999991963022000004+60117+019900FM-12+000399999V0209991C00001220001CN0300001N9-02111-02221100891ADDAY101999GF100991001001999999001001MD1710081+9999MW1021
0057029700999991963022003004+60117+019900FM-12+000399999V0209991C00001220001CN0300001N9-02281-02391100731ADDAY101999GF100991001001999999001001MD1710161+9999MW1021
0070029700999991963022006004+60117+019900FM-12+000399999V0209991C00001220001CN0250001N9-02501-02611100661ADDAY101999GF100991001001999999001001KA1999N-02501MD1610061+9999MW1021
0057029700999991963022009004+60117+019900FM-12+000399999V0202101N00511220001CN0400001N9-01111-01501100571ADDAY101999GF101991011001022501031001MD1710091+9999MW1021
0057029700999991963022012004+60117+019900FM-12+000399999V0202201N00621024001CN0400001N9-00891-01391100481ADDAY101999GF106991061001999999051001MD1710091+9999MW1031
0057029700999991963022015004+60117+019900FM-12+000399999V0202301N00311220001CN0300001N9-00891-01281100391ADDAY121999GF103991021001999999041011MD1710091+9999MW1011
0070029700999991963022018004+60117+019900FM-12+000399999V0202101N00211220001CN0300001N9-01221-01501100411ADDAY101999GF102991021001999999041001KA1999M-00781MD1010021+9999MW1021
0057029700999991963022021004+60117+019900FM-12+000399999V0202101N00261220001CN0300001N9-01391-01501100401ADDAY101999GF103991031001999999041001MD1510011+9999MW1021
0057029700999991963022100004+60117+019900FM-12+000399999V0202101N00211220001CN0300001N9-01391-01501100381ADDAY101999GF101991011001999999041001MD1710021+9999MW1011
0057029700999991963022103004+60117+019900FM-12+000399999V0202001N00211220001CN0300001N9-01391-01501100361ADDAY101999GF100991001001999999001001MD1710021+9999MW1011
0070029700999991963022106004+60117+019900FM-12+000399999V0202001N00151030001CN0300001N9-01501-01611100361ADDAY121999GF107991011051008001031999KA1999N-01501MD1510001+9999MW1031
0057029700999991963022109004+60117+019900FM-12+000399999V0209991C00001030001CN0300001N9-00721-00891100511ADDAY121999GF107991021051008001031999MD1210151+9999MW1001
0057029700999991963022112004+60117+019900FM-12+000399999V0203301N00411021001CN0400001N9-00221-00721100601ADDAY121999GF105991051001022501031999MD1210091+9999MW1021
0057029700999991963022115004+60117+019900FM-12+000399999V0203601N00411220001CN0400001N9-00391-00891100851ADDAY121999GF103991011051008001031001MD1210251+9999MW1011
0070029700999991963022118004+60117+019900FM-12+000399999V0209991C00001220001CN0300001N9-01391-01391101061ADDAY111999GF100991001001999999001001KA1999M-00221MD1210211+9999MW1011
0057029700999991963022121004+60117+019900FM-12+000399999V0209991C00001220001CN0300001N9-01781-01891101201ADDAY101999GF100991001001999999001001MD1110141+9999MW1021
0057029700999991963022200004+60117+019900FM-12+000399999V0209991C00001220001CN0300001N9-02001-02111101231ADDAY101999GF100991001001999999001001MD1110031+9999MW1021
0057029700999991963022203004+60117+019900FM-12+000399999V0203401N00151024001CN0300001N9-01721-01781101291ADDAY111999GF108991081001999999071999MD1510061+9999MW1771
0070029700999991963022206004+60117+019900FM-12+000399999V0203601N00511220001CN0500001N9-01001-01281101521ADDAY171999GF101991011001999999041001KA1999N-02001MD1210231+9999MW1021
0057029700999991963022209004+60117+019900FM-12+000399999V0203501N00461220001CN0500001N9-01001-01391101911ADDAY101999GF101991001001999999001011MD1310391+9999MW1021
0057029700999991963022212004+60117+019900FM-12+000399999V0203301N00511220001CN0500001N9-00781-01501102101ADDAY101999GF102991001001999999001011MD1210191+9999MW1021
0057029700999991963022215004+60117+019900FM-12+000399999V0203201N00261220001CN0500001N9-01001-01611102221ADDAY101999GF103991001001999999001011MD1210121+9999MW1031
0070029700999991963022218004+60117+019900FM-12+000399999V0209991C00001220001CN0400001N9-02001-02221102331ADDAY101999GF102991021001999999051001KA1999M-00781MD1110111+9999MW1021
0057029700999991963022221004+60117+019900FM-12+000399999V0209991C00001220001CN0400001N9-02111-02221102311ADDAY101999GF102991021001999999031001MD1810021+9999MW1011
0057029700999991963022300004+60117+019900FM-12+000399999V0202101N00721024001CN0400001N9-00891-01391102231ADDAY111999GF105991051001999999051999MD1710081+9999MW1031
0057029700999991963022303004+60117+019900FM-12+000399999V0202101N00621024001CN0400001N9-00781-01221102121ADDAY121999GF108991081001999999071999MD1710111+9999MW1031
0070029700999991963022306004+60117+019900FM-12+000399999V0202201N00411021001CN0400001N9-00781-01001101971ADDAY121999GF107991071001022501071999KA1999N-02221MD1710151+9999MW1021
0057029700999991963022309004+60117+019900FM-12+000399999V0202401N00571021001CN0250001N9-00781-00781101961ADDAY121999GF107991051001022501031011MD1510011+9999MW1021
0057029700999991963022312004+60117+019900FM-12+000399999V0202401N00621220001CN0150001N9-00611-00891101851ADDAY121999GF106991011001999999041061MD1810111+9999MW1051
0057029700999991963022315004+60117+019900FM-12+000399999V0202001N00361075001CN0150001N9-00611-00781101661ADDAY121999GF107991041001999999051061MD1710191+9999MW1051
0070029700999991963022318004+60117+019900FM-12+000399999V0202601N00411024001CN0250001N9-00501-00781101641ADDAY121999GF105991051001999999041001KA1999M-00501MD1710021+9999MW1011
0057029700999991963022321004+60117+019900FM-12+000399999V0202901N00311024001CN0250001N9-00501-00781101721ADDAY121999GF105991051001999999041001MD1210081+9999MW1021
0057029700999991963022400004+60117+019900FM-12+000399999V0209991C00001024001CN0200001N9-01281-01391101861ADDAY121999GF106991061001999999041001MD1210141+9999MW1031
0057029700999991963022403004+60117+019900FM-12+000399999V0209991C00001220001CN0200001N9-01501-01501101881ADDAY121999GF103991031001999999041001MD1310021+9999MW1011
0070029700999991963022406004+60117+019900FM-12+000399999V0209991C00001220001CN0300001N9-01611-01721101901ADDAY101999GF103991001001999999001011KA1999N-01611MD1310021+9999MW1021
0057029700999991963022409004+60117+019900FM-12+000399999V0202501N00051220001CN0250001N9-01001-01111101981ADDAY101999GF101991001001999999001011MD1210081+9999MW1011
0057029700999991963022412004+60117+019900FM-12+000399999V0202501N00361021001CN0400001N9-00221-00611101921ADDAY121999GF107991071001022501071999MD1810071+9999MW1031
0057029700999991963022415004+60117+019900FM-12+000399999V0202501N00151075001CN0400001N9-00281-00721101761ADDAY121999GF106991031001999999041051MD1710161+9999MW1031
0070029700999991963022418004+60117+019900FM-12+000399999V0200801N00361021001CN0300001N9-00391-00611101721ADDAY121999GF108991081001022501021999KA1999M-00111MD1610041+9999MW1021
0057029700999991963022421004+60117+019900FM-12+000399999V0200701N00511000151CN0015001N9-00611-00721101591ADDAY171999GF109991091999000251999999MD1710131+9999MW1731
0057029700999991963022500004+60117+019900FM-12+000399999V0200601N00821000151CN0020001N9-00781-00781101601ADDAY171999GF109991091999000251999999MD1310011+9999MW1731
0057029700999991963022503004+60117+019900FM-12+000399999V0200301N00411220001CN0300001N9-01111-01221101791ADDAY111999GF100991001001999999001001MD1210191+9999MW1021
0081029700999991963022506004+60117+019900FM-12+000399999V0200501N00461030001CN0300001N9-01281-01501102031ADDAA199002091AY121999GF106991041051008001031011KA1999N-01281MD1210241+9999MW1021
0057029700999991963022509004+60117+019900FM-12+000399999V0200801N00361024001CN0300001N9-01281-01501102381ADDAY121999GF108991081001999999021999MD1210351+9999MW1021
0057029700999991963022512004+60117+019900FM-12+000399999V0201101N00211075001CN0400001N9-01111-01391102601ADDAY121999GF106991011001999999041081MD1210221+9999MW1011
0057029700999991963022515004+60117+019900FM-12+000399999V0201101N00211220001CN0400001N9-01111-01501102761ADDAY121999GF101991011001999999041011MD1210161+9999MW1011
0070029700999991963022518004+60117+019900FM-12+000399999V0201101N00311220001CN0300001N9-01891-02001103001ADDAY101999GF101991001001999999001011KA1999M-01001MD1210241+9999MW1011
0057029700999991963022521004+60117+019900FM-12+000399999V0201201N00411220001CN0300001N9-01391-01501103121ADDAY101999GF100991001001999999001001MD1210121+9999MW1011
0057029700999991963022600004+60117+019900FM-12+000399999V0201501N00621007801CN0300001N9-00891-01221103241ADDAY111999GF107991071051008001999999MD1110121+9999MW1031
0057029700999991963022603004+60117+019900FM-12+000399999V0201701N00571007801CN0300001N9-00781-01111103291ADDAY121999GF108991081051008001999999MD1210051+9999MW1031
0070029700999991963022606004+60117+019900FM-12+000399999V0202001N00721030001CN0450001N9-00721-01001103321ADDAY121999GF108991031051004501021999KA1999N-02001MD1310031+9999MW1031
0057029700999991963022609004+60117+019900FM-12+000399999V0202001N00821030001CN0200001N9-00611-00781103461ADDAY171999GF108991041051004501071999MD1210141+9999MW1711
0057029700999991963022612004+60117+019900FM-12+000399999V0202001N01131030001CN0200001N9-00501-00611103231ADDAY171999GF107991031061004501071999MD1810031+9999MW1011
0057029700999991963022615004+60117+019900FM-12+000399999V0202101N00871030001CN0300001N9-00391-00501103401ADDAY121999GF108991011061004501021999MD1810031+9999MW1011
0081029700999991963022618004+60117+019900FM-12+000399999V0202201N00621030001CN0300001N9-00281-00391103451ADDAA199000691AY121999GF108991041051008001071999KA1999M-00281MD1510051+9999MW1031
0057029700999991963022621004+60117+019900FM-12+000399999V0202101N00461001501CN0200001N9-00391-00501103401ADDAY121999GF108991081061001501999999MD1710051+9999MW1021
0057029700999991963022700004+60117+019900FM-12+000399999V0202401N00361000601CN0025001N9-00221-00281103321ADDAY121999GF108991081061000751999999MD1710081+9999MW1101
0057029700999991963022703004+60117+019900FM-12+000399999V0202701N00411001501CN0050001N9-00221-00281103251ADDAY121999GF108991081061001501999999MD1010071+9999MW1101
0070029700999991963022706004+60117+019900FM-12+000399999V0202701N00211001501CN0050001N9-00221-00281103231ADDAY121999GF108991081061001501999999KA1999N-00391MD1510021+9999MW1101
0057029700999991963022709004+60117+019900FM-12+000399999V0202701N00261001501CN0080001N9-00111-00221103231ADDAY121999GF108991081061001501999999MD1010001+9999MW1021
0057029700999991963022712004+60117+019900FM-12+000399999V0202601N00361002401CN0150001N9+00001-00281103181ADDAY121999GF108991081061002501999999MD1510051+9999MW1021
0057029700999991963022715004+60117+019900FM-12+000399999V0202201N00151002401CN0100001N9-00111-00221103221ADDAY121999GF108991081061002501999999MD1210041+9999MW1021
0070029700999991963022718004+60117+019900FM-12+000399999V0202401N00051002401CN0070001N9-00111-00281103341ADDAY121999GF108991081061002501999999KA1999M+00001MD1310121+9999MW1021
0057029700999991963022721004+60117+019900FM-12+000399999V0202401N00051220001CN0002001N9-00891-01001103371ADDAY141999GF104991041051004501001001MD1310031+9999MW1461
0057029700999991963022800004+60117+019900FM-12+000399999V0209991C00001220001CN0020001N9-01221-01281103481ADDAY101999GF100991001001999999001001MD1210111+9999MW1101
0057029700999991963022803004+60117+019900FM-12+000399999V0209991C00001220001CN0030001N9-01281-01391103391ADDAY101999GF100991001001999999001001MD1810091+9999MW1101
0070029700999991963022806004+60117+019900FM-12+000399999V0209991C00001220001CN0050001N9-01501-01611103411ADDAY101999GF101991001001999999001011KA1999N-01501MD1310021+9999MW1101
0057029700999991963022809004+60117+019900FM-12+000399999V0202401N00151075001CN0070001N9-00781-00891103421ADDAY121999GF106991041001999999041051MD1010011+9999MW1031
0057029700999991963022812004+60117+019900FM-12+000399999V0202101N00311220001CN0200001N9+00001-00281103341ADDAY111999GF107991001001999999001061MD1810081+9999MW1051
0057029700999991963022815004+60117+019900FM-12+000399999V0202701N00211220001CN0250001N9+00281-00281103271ADDAY121999GF107991001001999999001061MD1610071+9999MW1051
0070029700999991963022818004+60117+019900FM-12+000399999V0202701N00511075001CN0300001N9-00111-00391103251ADDAY121999GF105991011001999999041021KA1999M+00391MD1710021+9999MW1011
0057029700999991963022821004+60117+019900FM-12+000399999V0202701N00411220001CN0300001N9-00111-00391103171ADDAY111999GF103991001001999999001011MD1710081+9999MW1011
0057029700999991963030100004+60117+019900FM-12+000399999V0203101N00311220001CN0300001N9-00111-00501103081ADDAY101999GF100991001001999999001001MD1210091+9999MW1011
0057029700999991963030103004+60117+019900FM-12+000399999V0203001N00311220001CN0300001N9-00281-00781103041ADDAY101999GF100991001001999999001001MD1710041+9999MW1021
0057029700999991963030109004+60117+019900FM-12+000399999V0203401N00721220001CN0400001N9+00111-00281103061ADDAY101999GF102991001001999999001011MD1210011+9999MW1011
0057029700999991963030112004+60117+019900FM-12+000399999V0203201N00771220001CN0400001N9+00221-00391103061ADDAY111999GF105991001001999999001051MD1410001+9999MW1031
0057029700999991963030115004+60117+019900FM-12+000399999V0203301N00621220001CN0400001N9+00221-00501102991ADDAY111999GF104991001001999999001011MD1810071+9999MW1011
0070029700999991963030118004+60117+019900FM-12+000399999V0203001N00361220001CN0500001N9+00111-00781102991ADDAY101999GF103991031001999999041001KA1999M+00281MD1410001+9999MW1021
0057029700999991963030121004+60117+019900FM-12+000399999V0203201N00361220001CN0300001N9-00111-00721102901ADDAY111999GF106991031001022501031011MD1710091+9999MW1031
0057029700999991963030200004+60117+019900FM-12+000399999V0203101N00511220001CN0300001N9-00111-00781102781ADDAY111999GF101991001001999999001011MD1710121+9999MW1011
0057029700999991963030203004+60117+019900FM-12+000399999V0203101N00511220001CN0300001N9+00111-00891102631ADDAY101999GF102991001001999999001011MD1710151+9999MW1021
0070029700999991963030206004+60117+019900FM-12+000399999V0203201N00461220001CN0400001N9-00221-00891102611ADDAY111999GF106991021001999999031011KA1999N-00221MD1510021+9999MW1031
0057029700999991963030209004+60117+019900FM-12+000399999V0203301N00411075001CN0400001N9+00111-00781102521ADDAY121999GF107991031001999999031021MD1810091+9999MW1021
0057029700999991963030212004+60117+019900FM-12+000399999V0203401N00621075001CN0400001N9+00501-00111102421ADDAY121999GF107991021001999999031021MD1710101+9999MW1021
0057029700999991963030215004+60117+019900FM-12+000399999V0203001N00311075001CN0400001N9+00281-00611102301ADDAY121999GF108991021001999999031071MD1710121+9999MW1031
0070029700999991963030218004+60117+019900FM-12+000399999V0209991C00001024001CN0450001N9-00111-00781102231ADDAY121999GF107991071001999999051999KA1999M+00501MD1710071+9999MW1021
0057029700999991963030221004+60117+019900FM-12+000399999V0203201N00411024001CN0400001N9+00111-00611102111ADDAY121999GF107991071001999999011999MD1710121+9999MW1011
0057029700999991963030300004+60117+019900FM-12+000399999V0203301N00461004501CN0100001N9+00221-00221101961ADDAY121999GF108991081051004501999999MD1710151+9999MW1681
0057029700999991963030303004+60117+019900FM-12+000399999V0203201N00871012301CN0250001N9+00281-00281101831ADDAY171999GF108991081051012501999999MD1710131+9999MW1021
0081029700999991963030306004+60117+019900FM-12+000399999V0203201N00821024001CN0450001N9+00221-00111101741ADDAA199000691AY121999GF108991081001999999071999KA1999N-00391MD1610091+9999MW1011
0057029700999991963030309004+60117+019900FM-12+000399999V0203501N00721075001CN0450001N9+00281+00111101781ADDAY121999GF107991021001999999041061MD1510041+9999MW1021
0057029700999991963030312004+60117+019900FM-12+000399999V0203501N00721024001CN0500001N9+00281-00111101891ADDAY121999GF107991051001999999041011MD1210111+9999MW1031
0057029700999991963030315004+60117+019900FM-12+000399999V0203301N00621075001CN0400001N9+00221-00111101941ADDAY121999GF107991011001999999041021MD1210051+9999MW1011
0070029700999991963030318004+60117+019900FM-12+000399999V0203301N00261220001CN0400001N9-00111-00281102011ADDAY121999GF105991001001999999001061KA1999M+00391MD1210071+9999MW1011
0057029700999991963030321004+60117+019900FM-12+000399999V0203401N00211220001CN0300001N9-00391-00501102041ADDAY121999GF104991011001999999041051MD1110031+9999MW1011
0057029700999991963030400004+60117+019900FM-12+000399999V0203401N00311007801CN0300001N9+00001-00111101961ADDAY121999GF108991081051008001999999MD1710081+9999MW1031
0057029700999991963030403004+60117+019900FM-12+000399999V0203401N00411012301CN0300001N9+00111-00111101941ADDAY121999GF108991081051012501999999MD1710021+9999MW1021
0070029700999991963030406004+60117+019900FM-12+000399999V0200301N00151001501CN0200001N9+00001-00111102041ADDAY111999GF108991081061001501999999KA1999N-00391MD1510101+9999MW1021
0057029700999991963030409004+60117+019900FM-12+000399999V0201401N00211030001CN0030001N9+00001-00221102191ADDAY121999GF106991011061000751041051MD1210151+9999MW1101
0057029700999991963030412004+60117+019900FM-12+000399999V0202001N00361030001CN0010001N9-00281-00281102261ADDAY141999GF107991041061000751041051MD1210071+9999MW1461
0057029700999991963030415004+60117+019900FM-12+000399999V0202101N00261000601CN0006001N9+00001-00221102241ADDAY141999GF109991091999000751999999MD1610021+9999MW1451
0070029700999991963030418004+60117+019900FM-12+000399999V0202101N00311000151CN0006001N9-00221-00221102181ADDAY141999GF107991071061000251999999KA1999M+00111MD1810061+9999MW1421
0057029700999991963030421004+60117+019900FM-12+000399999V0202101N00361000151CN0005001N9-00281-00281102121ADDAY141999GF107991071061000251999999MD1710061+9999MW1441
0057029700999991963030500004+60117+019900FM-12+000399999V0209991C00001220001CN0080001N9-00501-00611101971ADDAY141999GF102991001001999999001011MD1810151+9999MW1281
0070029700999991963030506004+60117+019900FM-12+000399999V0209991C00001220001CN0120001N9-01001-01111101921ADDAY101999GF100991001001999999001001KA1999N-01111MD1310011+9999MW1021
0057029700999991963030509004+60117+019900FM-12+000399999V0203201N00261220001CN0100001N9-00111-00221101951ADDAY101999GF100991001001999999001001MD1210031+9999MW1021
0057029700999991963030512004+60117+019900FM-12+000399999V0203301N00361220001CN0150001N9+00221-00111101951ADDAY101999GF101991001001999999001011MD1010001+9999MW1051
0057029700999991963030515004+60117+019900FM-12+000399999V0202901N00261220001CN0200001N9+00281+00001101951ADDAY101999GF101991001001999999001011MD1010001+9999MW1051
0070029700999991963030518004+60117+019900FM-12+000399999V0202101N00051220001CN0200001N9-00391-00391101921ADDAY101999GF101991001001999999001011KA1999M+00391MD1710031+9999MW1021
0057029700999991963030521004+60117+019900FM-12+000399999V0202401N00211220001CN0200001N9-00501-00611101821ADDAY101999GF100991001001999999001001MD1710101+9999MW1011
0057029700999991963030600004+60117+019900FM-12+000399999V0202101N00311004501CN0200001N9-00781-00891101631ADDAY101999GF105991051051004501001001MD1710131+9999MW1031
0057029700999991963030603004+60117+019900FM-12+000399999V0201901N00411004501CN0200001N9-00281-00391101421ADDAY111999GF108991081051004501999999MD1710211+9999MW1031
0070029700999991963030606004+60117+019900FM-12+000399999V0202101N00511002401CN0060001N9-00111-00221101091ADDAY121999GF108991081061002501999999KA1999N-00781MD1710331+9999MW1661
0057029700999991963030609004+60117+019900FM-12+000399999V0201801N00621002401CN0040001N9+00001+00001100671ADDAY161999GF108991081061002501999999MD1710421+9999MW1631
0057029700999991963030615004+60117+019900FM-12+000399999V0202301N00511000601CN0027001N9+00221+00221099951ADDAY121999GF108991081061000751999999MD1610301+9999MW1101
0081029700999991963030618004+60117+019900FM-12+000399999V0202601N00511001501CN0070001N9+00281+00111099821ADDAA199003091AY121999GF108991081061001501999999KA1999M+00281MD1610131+9999MW1101
0057029700999991963030621004+60117+019900FM-12+000399999V0202701N00511220001CN0200001N9+00221+00111099781ADDAY111999GF101991011001022501031001MD1610041+9999MW1021
0057029700999991963030700004+60117+019900FM-12+000399999V0202701N00511220001CN0200001N9+00221+00001099741ADDAY101999GF101991001001999999001011MD1610041+9999MW1021
0057029700999991963030703004+60117+019900FM-12+000399999V0202901N00311220001CN0200001N9+00111-00111099741ADDAY101999GF102991001001999999001011MD1410001+9999MW1021
0070029700999991963030706004+60117+019900FM-12+000399999V0202801N00511021001CN0200001N9+00111+00001099811ADDAY111999GF106991061001022501031999KA1999N+00001MD1110071+9999MW1031
0057029700999991963030709004+60117+019900FM-12+000399999V0202601N00311220001CN0200001N9+00221+00001099841ADDAY111999GF101991011061001501001001MD1310031+9999MW1011
0057029700999991963030712004+60117+019900FM-12+000399999V0202701N00411220001CN0300001N9+00501+00001099771ADDAY101999GF101991001001999999001011MD1710071+9999MW1021
0057029700999991963030715004+60117+019900FM-12+000399999V0202501N00511220001CN0400001N9+00611-00111099651ADDAY101999GF102991001001999999001011MD1710121+9999MW1031
0070029700999991963030718004+60117+019900FM-12+000399999V0202501N00411220001CN0300001N9+00281-00111099561ADDAY101999GF103991011001999999041011KA1999M+00611MD1710091+9999MW1021
0057029700999991963030721004+60117+019900FM-12+000399999V0202601N00461220001CN0300001N9+00111-00111099431ADDAY101999GF102991021001999999041001MD1710131+9999MW1021
0057029700999991963030800004+60117+019900FM-12+000399999V0203001N00211220001CN0300001N9+00001-00221099351ADDAY101999GF101991011001999999041001MD1710071+9999MW1011
0057029700999991963030803004+60117+019900FM-12+000399999V0203401N00671007801CN0300001N9+00111+00001099451ADDAY111999GF108991081051008001999999MD1310101+9999MW1031
0081029700999991963030806004+60117+019900FM-12+000399999V0203601N01131220001CN0350001N9-00281-00611099931ADDAA199000691AY171999GF103991011051004501031001KA1999N-00281MD1210471+9999MW1031
0057029700999991963030809004+60117+019900FM-12+000399999V0203501N01231030001CN0400001N9-00501-00781100391ADDAY111999GF105991041051002501031001MD1210461+9999MW1031
0057029700999991963030812004+60117+019900FM-12+000399999V0203501N01651004501CN0400001N9-00611-01111100601ADDAY121999GF106991061051004501001001MD1110211+9999MW1021
0057029700999991963030815004+60117+019900FM-12+000399999V0203501N01441004501CN0400001N9-00721-01221100921ADDAY121999GF105991051051004501001001MD1210321+9999MW1011
0070029700999991963030818004+60117+019900FM-12+000399999V0203501N01291004501CN0300001N9-00781-01111101171ADDAY121999GF106991061051004501001001KA1999M-00281MD1210251+9999MW1851
0057029700999991963030821004+60117+019900FM-12+000399999V0203501N00871220001CN0400001N9-00781-01111101361ADDAY181999GF104991041051004501001001MD1210191+9999MW1221
0057029700999991963030900004+60117+019900FM-12+000399999V0203601N00821220001CN0500001N9-00891-01111101611ADDAY111999GF100991001001999999001001MD1210251+9999MW1011
0057029700999991963030903004+60117+019900FM-12+000399999V0200101N00511220001CN0500001N9-01221-01391101781ADDAY101999GF100991001001999999001001MD1210171+9999MW1021
0081029700999991963030906004+60117+019900FM-12+000399999V0200301N00411220001CN0500001N9-01281-01721101881ADDAA199000691AY101999GF100991001001999999001001KA1999N-01281MD1210101+9999MW1021
0057029700999991963030909004+60117+019900FM-12+000399999V0200601N00411220001CN0500001N9-01001-01501102041ADDAY101999GF101991001001999999001011MD1210161+9999MW1021
0057029700999991963030915004+60117+019900FM-12+000399999V0201101N00261220001CN0500001N9-00721-01501101991ADDAY101999GF101991001001999999001011MD1710111+9999MW1031
0070029700999991963030918004+60117+019900FM-12+000399999V0209991C00001220001CN0400001N9-01391-01721101991ADDAY101999GF101991001001999999001041KA1999M-00501MD1410001+9999MW1021
0057029700999991963030921004+60117+019900FM-12+000399999V0209991C00001220001CN0400001N9-01781-02001101971ADDAY101999GF102991001001999999001041MD1810021+9999MW1031
0057029700999991963031000004+60117+019900FM-12+000399999V0209991C00001220001CN0300001N9-01721-01891101871ADDAY101999GF101991001001999999001041MD1710101+9999MW1021
0057029700999991963031003004+60117+019900FM-12+000399999V0209991C00001220001CN0300001N9-01781-01891101751ADDAY101999GF101991001001999999001011MD1710101+9999MW1011
0070029700999991963031006004+60117+019900FM-12+000399999V0209991C00001220001CN0300001N9-01781-01891101621ADDAY101999GF104991031051008001001051KA1999N-01891MD1710131+9999MW1031
0057029700999991963031009004+60117+019900FM-12+000399999V0202001N00671220001CN0400001N9-00391-00781101501ADDAY111999GF105991011051008001001061MD1710121+9999MW1031
0057029700999991963031012004+60117+019900FM-12+000399999V0201901N00771220001CN0400001N9-00281-00721101411ADDAY111999GF104991011051008001041011MD1710091+9999MW1031
0057029700999991963031015004+60117+019900FM-12+000399999V0201701N00721220001CN0350001N9-00391-00721101181ADDAY111999GF104991011051008001001051MD1710231+9999MW1031
0070029700999991963031018004+60117+019900FM-12+000399999V0201701N00511220001CN0350001N9-00501-00891101021ADDAY111999GF104991011001999999041011KA1999M-00281MD1710161+9999MW1011
0057029700999991963031021004+60117+019900FM-12+000399999V0201701N00621220001CN0300001N9-00391-00781100921ADDAY111999GF106991031001999999041011MD1710101+9999MW1031
0057029700999991963031100004+60117+019900FM-12+000399999V0201801N00511220001CN0300001N9-00501-00721100781ADDAY121999GF105991031001999999041011MD1710141+9999MW1011
0057029700999991963031103004+60117+019900FM-12+000399999V0201601N00311007801CN0300001N9-00391-00721100591ADDAY121999GF107991071051008001999999MD1710191+9999MW1031
0070029700999991963031106004+60117+019900FM-12+000399999V0201701N00311007801CN0300001N9-00281-00391100481ADDAY121999GF108991081051008001999999KA1999N-00501MD1710111+9999MW1021
0057029700999991963031109004+60117+019900FM-12+000399999V0201701N00311007801CN0300001N9-00281-00281100481ADDAY121999GF108991081051008001999999MD1710031+9999MW1021
0057029700999991963031112004+60117+019900FM-12+000399999V0201501N00511002401CN0030001N9-00111-00221100391ADDAY171999GF108991081071002501999999MD1710061+9999MW1731
0057029700999991963031115004+60117+019900FM-12+000399999V0201601N00461002401CN0030001N9-00221-00281100261ADDAY171999GF108991081071002501999999MD1810131+9999MW1731
0081029700999991963031118004+60117+019900FM-12+000399999V0201301N00461002401CN0025001N9-00221-00281100241ADDAA199003091AY171999GF108991081071002501999999KA1999M-00111MD1610021+9999MW1731
0057029700999991963031121004+60117+019900FM-12+000399999V0201201N00311004501CN0030001N9-00281-00391100131ADDAY171999GF108991081071004501999999MD1710111+9999MW1731
0057029700999991963031200004+60117+019900FM-12+000399999V0200701N00261004501CN0100001N9-00281-00391100021ADDAY171999GF108991081071004501999999MD1710111+9999MW1711
0081029700999991963031206004+60117+019900FM-12+000399999V0200201N00311002401CN0100001N9-00391-00501099851ADDAA199003091AY171999GF108991081071002501999999KA1999N-00391MD1610011+9999MW1711
0057029700999991963031209004+60117+019900FM-12+000399999V0200401N00411001501CN0100001N9-00391-00501099851ADDAY171999GF108991081071001501999999MD1410001+9999MW1711
0057029700999991963031212004+60117+019900FM-12+000399999V0200301N00511001501CN0150001N9-00391-00501099831ADDAY171999GF106991051071001501041999MD1710021+9999MW1711
0057029700999991963031215004+60117+019900FM-12+000399999V0200201N00621030001CN0200001N9-00391-00611099881ADDAY171999GF107991041071002501021999MD1210051+9999MW1711
0081029700999991963031218004+60117+019900FM-12+000399999V0200201N00511004501CN0150001N9-00501-00611099961ADDAA199000691AY121999GF108991061051004501071999KA1999M-00281MD1210081+9999MW1701
0057029700999991963031221004+60117+019900FM-12+000399999V0200301N00361030001CN0100001N9-00611-00781100041ADDAY171999GF108991041051004501071999MD1210081+9999MW1711
0057029700999991963031300004+60117+019900FM-12+000399999V0200301N00571030001CN0250001N9-00891-01111100201ADDAY121999GF106991011051008001031999MD1210161+9999MW1011
0057029700999991963031303004+60117+019900FM-12+000399999V0200201N00721220001CN0250001N9-01001-01221100351ADDAY111999GF102991021001999999031001MD1210151+9999MW1011
0081029700999991963031306004+60117+019900FM-12+000399999V0200201N00721220001CN0300001N9-00891-01221100601ADDAA199000691AY101999GF102991021001999999071001KA1999N-01001MD1210251+9999MW1021
0057029700999991963031309004+60117+019900FM-12+000399999V0200101N00821220001CN0300001N9-00721-01111100921ADDAY101999GF100991001001999999001001MD1210321+9999MW1011
0057029700999991963031312004+60117+019900FM-12+000399999V0200101N01031220001CN0300001N9-00781-01221101181ADDAY101999GF100991001001999999001001MD1210261+9999MW1021
0057029700999991963031315004+60117+019900FM-12+000399999V0203601N01231220001CN0300001N9-01001-01501101401ADDAY101999GF100991001001999999001001MD1210221+9999MW1361
0070029700999991963031318004+60117+019900FM-12+000399999V0203501N01031220001CN0450001N9-01111-01501101651ADDAY131999GF101991011051004501001001KA1999M-00721MD1210251+9999MW1361
0057029700999991963031321004+60117+019900FM-12+000399999V0200101N00821220001CN0450001N9-01221-01721101951ADDAY131999GF100991001001999999001001MD1210301+9999MW1021
0057029700999991963031400004+60117+019900FM-12+000399999V0203501N00411220001CN0500001N9-01611-01781102141ADDAY101999GF100991001001999999001001MD1210191+9999MW1021
0057029700999991963031403004+60117+019900FM-12+000399999V0203501N00411220001CN0500001N9-01611-01781102311ADDAY101999GF100991001001999999001001MD1210171+9999MW1021
0070029700999991963031406004+60117+019900FM-12+000399999V0203401N00361220001CN0500001N9-01781-01891102511ADDAY101999GF100991001001999999001001KA1999N-01781MD1210201+9999MW1021
0057029700999991963031409004+60117+019900FM-12+000399999V0203601N00721220001CN0500001N9-01221-01611102611ADDAY101999GF100991001001999999001001MD1210201+9999MW1021
0057029700999991963031412004+60117+019900FM-12+000399999V0203101N00361220001CN0500001N9-00891-01501102751ADDAY101999GF100991001001999999001001MD1210081+9999MW1021
0057029700999991963031415004+60117+019900FM-12+000399999V0203101N00361220001CN0500001N9-00721-01281102721ADDAY101999GF100991001001999999001001MD1810031+9999MW1021
0070029700999991963031418004+60117+019900FM-12+000399999V0209991C00001220001CN0500001N9-01501-01781102711ADDAY101999GF100991001001999999001001KA1999M-00721MD1510011+9999MW1021
0057029700999991963031421004+60117+019900FM-12+000399999V0209991C00001220001CN0300001N9-01781-01891102751ADDAY101999GF100991001001999999001001MD1010041+9999MW1021
0057029700999991963031500004+60117+019900FM-12+000399999V0209991C00001220001CN0300001N9-01891-02001102751ADDAY101999GF100991001001999999001001MD1410001+9999MW1021
0057029700999991963031503004+60117+019900FM-12+000399999V0209991C00001220001CN0300001N9-01891-02001102731ADDAY101999GF100991001001999999001001MD1810021+9999MW1021
0070029700999991963031506004+60117+019900FM-12+000399999V0209991C00001220001CN0400001N9-02001-02221102771ADDAY101999GF100991001001999999001001KA1999N-02001MD1310041+9999MW1021
0057029700999991963031509004+60117+019900FM-12+000399999V0202501N00411220001CN0500001N9-00502-01002102821ADDAY101999GF101991001001999999001011MD1210051+9999MW1021
0057029700999991963031512004+60117+019900FM-12+000399999V0202001N00621220001CN0500001N9-00501-01111102821ADDAY101999GF105991001001999999001061MD1010001+9999MW1031
0057029700999991963031515004+60117+019900FM-12+000399999V0202001N00821220001CN0300001N9-00501-00781102711ADDAY111999GF103991001001999999001051MD1710111+9999MW1011
0070029700999991963031518004+60117+019900FM-12+000399999V0202001N00871220001CN0300001N9-00611-00781102641ADDAY101999GF102991011001999999041011KA1999M-00391MD1710071+9999MW1011
0057029700999991963031521004+60117+019900FM-12+000399999V0202101N01031024001CN0300001N9-00501-00721102561ADDAY101999GF106991051001999999051011MD1710081+9999MW1031
0057029700999991963031600004+60117+019900FM-12+000399999V0202101N00931024001CN0200001N9-00391-00501102511ADDAY121999GF108991081001999999021999MD1710051+9999MW1031
0057029700999991963031603004+60117+019900FM-12+000399999V0202301N01031024001CN0200001N9-00391-00721102411ADDAY121999GF108991081001999999021999MD1710101+9999MW1021
0057029700999991963031612004+60117+019900FM-12+000399999V0202201N00721024001CN0400001N9-00111-00501102561ADDAY121999GF107991071001999999051999MD1010011+9999MW1021
0057029700999991963031615004+60117+019900FM-12+000399999V0202101N00821024001CN0400001N9-00111-00501102561ADDAY121999GF107991071001999999071999MD1410001+9999MW1021
0070029700999991963031618004+60117+019900FM-12+000399999V0202001N00621024001CN0400001N9-00221-00391102631ADDAY121999GF107991071001999999071999KA1999M+00001MD1210071+9999MW1021
0057029700999991963031621004+60117+019900FM-12+000399999V0202101N00411021001CN0300001N9-00281-00611102741ADDAY121999GF106991061001022501071999MD1210111+9999MW1021
0057029700999991963031700004+60117+019900FM-12+000399999V0202301N00211220001CN0300001N9-00391-00501102841ADDAY121999GF104991041001022501031999MD1210101+9999MW1011
0057029700999991963031703004+60117+019900FM-12+000399999V0209991C00001021001CN0300001N9-00721-00781102941ADDAY121999GF105991051001022501031999MD1210101+9999MW1021
0070029700999991963031706004+60117+019900FM-12+000399999V0202301N00051220001CN0250001N9-00891-00891103021ADDAY121999GF106991031001022501031011KA1999N-00891MD1210081+9999MW1011
0057029700999991963031709004+60117+019900FM-12+000399999V0201301N00311030001CN0250001N9-00111-00501103181ADDAY121999GF107991041051008001031999MD1210161+9999MW1031
0057029700999991963031712004+60117+019900FM-12+000399999V0200901N00621007801CN0350001N9-00111-00611103241ADDAY121999GF107991071051008001999999MD1210061+9999MW1021
0057029700999991963031715004+60117+019900FM-12+000399999V0201201N00721004501CN0150001N9-00611-00721103321ADDAY121999GF108991081051004501999999MD1110081+9999MW1701
0081029700999991963031718004+60117+019900FM-12+000399999V0201001N00511220001CN0250001N9-01001-01221103441ADDAA199000691AY111999GF103991011051008001041011KA1999M-00111MD1210121+9999MW1011
0057029700999991963031721004+60117+019900FM-12+000399999V0201001N00721220001CN0250001N9-01111-01391103481ADDAY101999GF103991001001999999001011MD1110041+9999MW1021
0057029700999991963031800004+60117+019900FM-12+000399999V0201001N00721220001CN0250001N9-01111-01281103481ADDAY101999GF102991001001999999001011MD1410001+9999MW1011
0057029700999991963031803004+60117+019900FM-12+000399999V0200901N00571220001CN0250001N9-01221-01391103461ADDAY101999GF102991011001999999041011MD1810021+9999MW1021
0070029700999991963031806004+60117+019900FM-12+000399999V0200701N00411220001CN0400001N9-01281-01501103431ADDAY101999GF104991011001999999041091KA1999N-01281MD1710031+9999MW1031
0057029700999991963031812004+60117+019900FM-12+000399999V0201301N00621030001CN0350001N9-00611-01111103281ADDAY101999GF107991011051008001031061MD1710051+9999MW1021
0057029700999991963031815004+60117+019900FM-12+000399999V0201301N00571220001CN0400001N9-00721-01001103141ADDAY121999GF106991011021004501001061MD1710141+9999MW1011
0070029700999991963031818004+60117+019900FM-12+000399999V0201101N00361030001CN0350001N9-00891-01221103071ADDAY121999GF107991011051004501051011KA1999M-00611MD1710071+9999MW1021
0057029700999991963031821004+60117+019900FM-12+000399999V0201101N00261220001CN0350001N9-01281-01501102941ADDAY111999GF100991001001999999001001MD1710131+9999MW1011
0057029700999991963031900004+60117+019900FM-12+000399999V0200801N00311220001CN0300001N9-01501-01611102891ADDAY101999GF100991001001999999001001MD1710051+9999MW1021
0057029700999991963031903004+60117+019900FM-12+000399999V0200201N00151220001CN0300001N9-01781-02001102791ADDAY101999GF100991001001999999001001MD1710101+9999MW1021
