0057029700999991962010100004+60117+019900FM-12+000399999V0202201N00621004501CN0100001N9+00281+00111099611ADDAY121999GF108991081051004501999999MD1210071+9999MW1021
0057029700999991962010103004+60117+019900FM-12+000399999V0209991C00001004501CN0050001N9+00111+00001099531ADDAY121999GF108991081051004501999999MD1710081+9999MW1691
0067029700999991962010106004+60117+019900FM-12+000399999V0200401N00211004501CN0020001N9+00001-00221099361ADDAA199005091AY171999GF108991081051004501999999KA1999N+00001MW1691
0043029700999991962010109004+60117+019900FM-12+000399999V0200201N00411002401CN0025001N9+00001+00001099261ADDAY171999GF108991081071002501999999MW1681
0057029700999991962010112004+60117+019900FM-12+000399999V0200201N00571001501CN0300001N9+00221+00001099121ADDAY111999GF108991081071001501999999MD1710131+9999MW1211
0057029700999991962010115004+60117+019900FM-12+000399999V0200201N00671001501CN0050001N9+00001+00001099121ADDAY121999GF108991081071001501999999MD1510011+9999MW1021
0057029700999991962010121004+60117+019900FM-12+000399999V0203601N01341004501CN0020001N9-00221-00391099431ADDAY171999GF108991081051004501999999MD1210191+9999MW1711
0057029700999991962010200004+60117+019900FM-12+000399999V0203601N01541004501CN0015001N9-00281-00391099721ADDAY171999GF108991081051004501999999MD1210291+9999MW1711
0057029700999991962010203004+60117+019900FM-12+000399999V0203601N01031220001CN0200001N9-00221-00721099951ADDAY171999GF101991011051004501001001MD1210231+9999MW1011
0081029700999991962010206004+60117+019900FM-12+000399999V0203501N00821220001CN0300001N9-00391-00891100201ADDAA199000691AY101999GF101991011051004501041001KA1999N-00391MD1210251+9999MW1021
0057029700999991962010209004+60117+019900FM-12+000399999V0203501N00511004501CN0350001N9-00281-00721100321ADDAY111999GF105991051051004501041001MD1210121+9999MW1031
0057029700999991962010212004+60117+019900FM-12+000399999V0203101N00671004501CN0400001N9-00221-00501100381ADDAY121999GF106991061081004501051001MD1210061+9999MW1031
0057029700999991962010215004+60117+019900FM-12+000399999V0203001N00361030001CN0500001N9-00281-00501100241ADDAY121999GF107991021051012501051999MD1810141+9999MW1031
0070029700999991962010218004+60117+019900FM-12+000399999V0203101N00571220001CN0300001N9-00281-00501100181ADDAY121999GF104991041051002501001001KA1999M-00221MD1510061+9999MW1011
0057029700999991962010221004+60117+019900FM-12+000399999V0203101N00511004501CN0300001N9+00111-00111100271ADDAY121999GF107991071051004501999999MD1310091+9999MW1021
0057029700999991962010300004+60117+019900FM-12+000399999V0203201N00621004501CN0300001N9+00221+00001100511ADDAY121999GF106991061051004501999999MD1210241+9999MW1011
0057029700999991962010303004+60117+019900FM-12+000399999V0203301N00411220001CN0300001N9+00001-00111100781ADDAY111999GF101991011051004501001001MD1210271+9999MW1011
0070029700999991962010306004+60117+019900FM-12+000399999V0203201N00311220001CN0400001N9-00221-00221101051ADDAY101999GF102991011051004501041001KA1999N-00281MD1210271+9999MW1031
0057029700999991962010309004+60117+019900FM-12+000399999V0203101N00211030001CN0250001N9-00281-00391101291ADDAY141999GF106991011061002501041051MD1210241+9999MW1281
0057029700999991962010312004+60117+019900FM-12+000399999V0202901N00311024001CN0300001N9+00111+00001101381ADDAY121999GF107991061001999999051011MD1210091+9999MW1021
0057029700999991962010315004+60117+019900FM-12+000399999V0202901N00311220001CN0300001N9-00111-00111101451ADDAY101999GF103991011001999999041011MD1110071+9999MW1021
0070029700999991962010318004+60117+019900FM-12+000399999V0203001N00361024001CN0300001N9+00221+00001101531ADDAY121999GF106991061001999999051999KA1999M+00221MD1210081+9999MW1031
0057029700999991962010321004+60117+019900FM-12+000399999V0203001N00311220001CN0300001N9-00221-00281101631ADDAY111999GF103991031001999999041001MD1210101+9999MW1011
0057029700999991962010400004+60117+019900FM-12+000399999V0203001N00101220001CN0300001N9+00001-00111101671ADDAY101999GF104991041001999999031999MD1110041+9999MW1021
0057029700999991962010403004+60117+019900FM-12+000399999V0203001N00101024001CN0300001N9-00111-00111101521ADDAY121999GF106991061001999999071999MD1810151+9999MW1031
0070029700999991962010406004+60117+019900FM-12+000399999V0202201N00311024001CN0300001N9+00001+00001101241ADDAY121999GF107991061001999999071999KA1999N-00611MD1710281+9999MW1021
0057029700999991962010409004+60117+019900FM-12+000399999V0202901N00311024001CN0250001N9-00111-00221101211ADDAY121999GF107991071001999999031999MD1710031+9999MW1021
0057029700999991962010412004+60117+019900FM-12+000399999V0202601N00411220001CN0250001N9+00001-00281101131ADDAY121999GF104991011061001501031041MD1610081+9999MW1011
0057029700999991962010415004+60117+019900FM-12+000399999V0203101N00511220001CN0400001N9-00221-00281101311ADDAY101999GF102991011001999999041011MD1310181+9999MW1011
0070029700999991962010418004+60117+019900FM-12+000399999V0203301N00411220001CN0400001N9+00111-00111101421ADDAY101999GF102991011001999999041011KA1999M+00111MD1110111+9999MW1021
0057029700999991962010421004+60117+019900FM-12+000399999V0209991C00001220001CN0400001N9-00111-00221101371ADDAY101999GF101991011001999999041001MD1710051+9999MW1011
0057029700999991962010500004+60117+019900FM-12+000399999V0202601N00311220001CN0400001N9+00001-00111101251ADDAY101999GF103991031001999999041011MD1710121+9999MW1031
0057029700999991962010503004+60117+019900FM-12+000399999V0202201N00511021001CN0400001N9+00111-00111100851ADDAY101999GF107991071001022501021999MD1710401+9999MW1031
0070029700999991962010506004+60117+019900FM-12+000399999V0202301N00511004501CN0300001N9+00111-00111100501ADDAY121999GF108991081051004501999999KA1999N-00391MD1710351+9999MW1021
0057029700999991962010509004+60117+019900FM-12+000399999V0202301N00721004501CN0300001N9+00221+00111100171ADDAY121999GF108991081061004501999999MD1710331+9999MW1021
0057029700999991962010512004+60117+019900FM-12+000399999V0202401N00721004501CN0250001N9+00281+00111099861ADDAY121999GF108991071061004501071999MD1710311+9999MW1031
0057029700999991962010515004+60117+019900FM-12+000399999V0202401N00721030001CN0250001N9+00281+00111099591ADDAY121999GF106991021051004501071999MD1710271+9999MW1021
0070029700999991962010518004+60117+019900FM-12+000399999V0202401N00721024001CN0200001N9+00281+00111099351ADDAY101999GF107991071001999999071999KA1999M+00281MD1710241+9999MW1031
0057029700999991962010521004+60117+019900FM-12+000399999V0202601N00461030001CN0200001N9+00281+00111099231ADDAY121999GF107991021051008001071999MD1610121+9999MW1601
0057029700999991962010600004+60117+019900FM-12+000399999V0202901N00311001501CN0150001N9+00111+00111099201ADDAY161999GF108991081071001501999999MD1710031+9999MW1681
0057029700999991962010603004+60117+019900FM-12+000399999V0202901N00261220001CN0300001N9+00111+00111099191ADDAY171999GF100991001001999999001001MD1510011+9999MW1011
0081029700999991962010606004+60117+019900FM-12+000399999V0203001N00361220001CN0250001N9+00001-00221099271ADDAA199000691AY121999GF100991001001999999001001KA1999N+00001MD1210081+9999MW1021
0057029700999991962010609004+60117+019900FM-12+000399999V0202701N00311220001CN0300001N9+00001-00111099401ADDAY101999GF101991011001999999041001MD1210131+9999MW1021
0057029700999991962010612004+60117+019900FM-12+000399999V0203201N00511220001CN0300001N9+00111-00221099391ADDAY101999GF104991041001999999041001MD1810011+9999MW1031
0057029700999991962010615004+60117+019900FM-12+000399999V0203101N00311220001CN0400001N9-00111-00281099561ADDAY101999GF101991011001999999041011MD1310171+9999MW1011
0057029700999991962010621004+60117+019900FM-12+000399999V0203401N00261004501CN0200001N9+00001-00111100101ADDAY121999GF108991081051004501999999MD1210241+9999MW1701
0057029700999991962010700004+60117+019900FM-12+000399999V0203501N01031004501CN0250001N9-00111-00221100541ADDAY171999GF107991071051004501999999MD1210441+9999MW1221
0057029700999991962010703004+60117+019900FM-12+000399999V0203601N00821220001CN0300001N9-00281-00611101091ADDAY111999GF103991031051004501001001MD1210551+9999MW1011
0081029700999991962010706004+60117+019900FM-12+000399999V0203601N00361220001CN0300001N9-00501-00781101481ADDAA199000691AY101999GF100991001001999999001001KA1999N-00501MD1110391+9999MW1021
0057029700999991962010709004+60117+019900FM-12+000399999V0200201N00211220001CN0350001N9-00781-00891101761ADDAY101999GF104991021051008001031011MD1210281+9999MW1021
0057029700999991962010712004+60117+019900FM-12+000399999V0200501N00101220001CN0350001N9-00391-00781101871ADDAY101999GF103991011001999999031011MD1210111+9999MW1031
0057029700999991962010715004+60117+019900FM-12+000399999V0201101N00101075001CN0300001N9-00721-00721101861ADDAY131999GF107991021001999999041061MD1710011+9999MW1021
0070029700999991962010718004+60117+019900FM-12+000399999V0202001N00151024001CN0400001N9-00221-00721101661ADDAY121999GF108991081001999999071999KA1999M-00221MD1810201+9999MW1031
0057029700999991962010721004+60117+019900FM-12+000399999V0202001N01231007801CN0300001N9+00001-00281101381ADDAY121999GF108991051051008001071999MD1710281+9999MW1031
0057029700999991962010800004+60117+019900FM-12+000399999V0202001N01541007801CN0300001N9+00111-00111101001ADDAY121999GF108991061051008001071999MD1710381+9999MW1021
0057029700999991962010803004+60117+019900FM-12+000399999V0202201N00931004501CN0300001N9+00111-00111100831ADDAY121999GF108991081051004501999999MD1610171+9999MW1031
0070029700999991962010806004+60117+019900FM-12+000399999V0202401N00721004501CN0250001N9+00221+00111100691ADDAY121999GF108991081051004501999999KA1999N-00221MD1710141+9999MW1021
0057029700999991962010809004+60117+019900FM-12+000399999V0202401N00621030001CN0300001N9+00281+00111100681ADDAY121999GF106991041051008001041001MD1710011+9999MW1011
0057029700999991962010812004+60117+019900FM-12+000399999V0202501N00511220001CN0200001N9+00391+00111100731ADDAY121999GF101991001001999999041011MD1110051+9999MW1021
0057029700999991962010815004+60117+019900FM-12+000399999V0202501N00511220001CN0250001N9+00281+00001100881ADDAY101999GF101991001001999999041011MD1210151+9999MW1021
0089029700999991962010818004+60117+019900FM-12+000399999V0202401N00721220001CN0250001N9+00281+00111100891ADDAY101999GF101991999001999999041001KA1999M+00391MD1210011+9999MW1021EQDQ01+000002SCOTLC
0057029700999991962010821004+60117+019900FM-12+000399999V0202701N00721220001CN0250001N9+00281+00001100921ADDAY101999GF103991001001999999041011MD1210031+9999MW1031
0057029700999991962010900004+60117+019900FM-12+000399999V0202401N00621024001CN0250001N9+00281+00111100951ADDAY101999GF105991051001999999041001MD1210031+9999MW1031
0057029700999991962010903004+60117+019900FM-12+000399999V0202201N00511004501CN0200001N9+00221+00111100961ADDAY111999GF108991081051004501999999MD1210011+9999MW1031
0070029700999991962010906004+60117+019900FM-12+000399999V0202101N00101002401CN0150001N9+00221+00001100821ADDAY121999GF108991081061002501999999KA1999N+00221MD1710141+9999MW1021
0057029700999991962010909004+60117+019900FM-12+000399999V0202001N00821002401CN0150001N9+00111+00001100721ADDAY121999GF108991081061002501999999MD1710101+9999MW1021
0057029700999991962010912004+60117+019900FM-12+000399999V0202001N01031002401CN0250001N9+00221+00001100511ADDAY121999GF108991081061002501999999MD1810211+9999MW1021
0057029700999991962010915004+60117+019900FM-12+000399999V0202001N01131004501CN0250001N9+00281+00111100301ADDAY121999GF108991051061004501071999MD1710211+9999MW1021
0070029700999991962010918004+60117+019900FM-12+000399999V0201801N01131004501CN0200001N9+00281+00111100151ADDAY121999GF108991081051004501999999KA1999M+00281MD1710151+9999MW1211
0057029700999991962010921004+60117+019900FM-12+000399999V0201901N01131001501CN0080001N9+00221+00111099951ADDAY161999GF108991081071001501999999MD1710201+9999MW1631
0057029700999991962011000004+60117+019900FM-12+000399999V0202201N00671002401CN0150001N9+00221+00111099951ADDAY121999GF108991081071002501999999MD1410001+9999MW1021
0057029700999991962011003004+60117+019900FM-12+000399999V0202101N00821007801CN0200001N9+00221+00111100021ADDAY121999GF108991081051008001999999MD1210071+9999MW1021
0070029700999991962011006004+60117+019900FM-12+000399999V0202001N00721007801CN0200001N9+00281+00111100111ADDAY111999GF108991081051008001999999KA1999N+00111MD1210091+9999MW1031
0057029700999991962011009004+60117+019900FM-12+000399999V0202001N00721007801CN0250001N9+00221+00111100111ADDAY121999GF107991051051008001071999MD1410001+9999MW1011
0057029700999991962011015004+60117+019900FM-12+000399999V0202001N00821007801CN0300001N9+00221-00111100141ADDAY121999GF108991081081008001999999MD1010011+9999MW1031
0070029700999991962011018004+60117+019900FM-12+000399999V0201701N00671004501CN0300001N9+00281+00111100051ADDAY121999GF108991081051004501999999KA1999M+00281MD1710091+9999MW1021
0057029700999991962011021004+60117+019900FM-12+000399999V0201501N00721004501CN0200001N9+00281+00221099891ADDAY121999GF108991081071004501999999MD1710161+9999MW1601
0057029700999991962011100004+60117+019900FM-12+000399999V0201501N00771002401CN0100001N9+00221+00111099581ADDAY161999GF108991081071002501999999MD1710311+9999MW1611
0057029700999991962011103004+60117+019900FM-12+000399999V0201501N00821002401CN0080001N9+00221+00221099371ADDAY161999GF108991081071002501999999MD1710201+9999MW1621
0057029700999991962011109004+60117+019900FM-12+000399999V0201701N00771001501CN0080001N9+00281+00111099241ADDAY161999GF108991081071001501999999MD1810011+9999MW1211
0057029700999991962011112004+60117+019900FM-12+000399999V0201801N00771000601CN0020001N9+00281+00221099171ADDAY121999GF108991081071000751999999MD1710071+9999MW1501
0057029700999991962011115004+60117+019900FM-12+000399999V0201801N00981000601CN0100001N9+00221+00221099081ADDAY121999GF108991081071000751999999MD1710091+9999MW1021
0081029700999991962011118004+60117+019900FM-12+000399999V0201601N00771004501CN0100001N9+00281+00221098881ADDAA199000391AY121999GF108991061051004501999999KA1999M+00281MD1810201+9999MW1011
0057029700999991962011121004+60117+019900FM-12+000399999V0201601N01031002401CN0070001N9+00281+00221098541ADDAY161999GF108991081071002501999999MD1710341+9999MW1631
0057029700999991962011200004+60117+019900FM-12+000399999V0201801N01131001501CN0100001N9+00391+00281098271ADDAY161999GF108991081071001501999999MD1710271+9999MW1211
0057029700999991962011203004+60117+019900FM-12+000399999V0201701N01031001501CN0100001N9+00391+00281098151ADDAY161999GF108991081071001501999999MD1610121+9999MW1211
0081029700999991962011206004+60117+019900FM-12+000399999V0201901N00931002401CN0100001N9+00391+00281098081ADDAA199002091AY161999GF108991081071002501999999KA1999N+00221MD1710071+9999MW1211
0057029700999991962011209004+60117+019900FM-12+000399999V0202001N00931030001CN0350001N9+00391+00281098251ADDAY121999GF106991041051008001041021MD1210171+9999MW1021
0057029700999991962011212004+60117+019900FM-12+000399999V0202001N01031004501CN0300001N9+00391+00221098481ADDAY121999GF107991061051004501041011MD1210231+9999MW1021
0057029700999991962011215004+60117+019900FM-12+000399999V0202001N00931220001CN0300001N9+00281+00111098651ADDAY121999GF102991011051004501041001MD1210171+9999MW1011
0070029700999991962011218004+60117+019900FM-12+000399999V0202001N00931220001CN0300001N9+00281+00111098691ADDAY101999GF101991011001022501041001KA1999M+00391MD1310041+9999MW1021
0057029700999991962011221004+60117+019900FM-12+000399999V0202101N00821220001CN0300001N9+00221+00111098721ADDAY101999GF102991021001022501041001MD1210031+9999MW1021
0057029700999991962011300004+60117+019900FM-12+000399999V0201901N00721007801CN0300001N9+00221+00111098691ADDAY101999GF107991071051008001999999MD1710031+9999MW1031
0057029700999991962011303004+60117+019900FM-12+000399999V0201601N00311001501CN0200001N9+00221+00111098531ADDAY121999GF108991081071001501999999MD1710161+9999MW1031
0070029700999991962011306004+60117+019900FM-12+000399999V0201401N00621001501CN0100001N9+00281+00221098251ADDAY121999GF108991081071001501999999KA1999N+00221MD1610281+9999MW1501
0057029700999991962011309004+60117+019900FM-12+000399999V0201301N00621001501CN0050001N9+00221+00221097991ADDAY161999GF108991081071001501999999MD1710261+9999MW1611
0057029700999991962011315004+60117+019900FM-12+000399999V0201701N00411001501CN0060001N9+00281+00111097521ADDAY121999GF108991081071001501999999MD1610181+9999MW1021
0081029700999991962011318004+60117+019900FM-12+000399999V0201701N00151220001CN0150001N9+00221+00111097471ADDAA199004091AY121999GF104991021051008001031999KA1999M+00281MD1010051+9999MW1011
0057029700999991962011321004+60117+019900FM-12+000399999V0201301N00151002401CN0100001N9+00111+00111097421ADDAY161999GF108991081071002501999999MD1810051+9999MW1671
0057029700999991962011400004+60117+019900FM-12+000399999V0203601N00211002401CN0100001N9+00001+00001097381ADDAY171999GF108991081071002501999999MD1710041+9999MW1681
0057029700999991962011403004+60117+019900FM-12+000399999V0202901N00361030001CN0100001N9+00111+00001097541ADDAY121999GF105991031051004501041999MD1310161+9999MW1011
0081029700999991962011406004+60117+019900FM-12+000399999V0202801N00311001501CN0150001N9+00111+00001097821ADDAA199004091AY121999GF107991061051001501999999KA1999N+00001MD1210281+9999MW1031
0057029700999991962011409004+60117+019900FM-12+000399999V0202801N00571000601CN0100001N9+00111+00111098081ADDAY121999GF108991081071000751999999MD1210261+9999MW1601
0057029700999991962011415004+60117+019900FM-12+000399999V0202901N00211002401CN0250001N9+00111+00001098671ADDAY121999GF107991071071002501999999MD1210271+9999MW1011
0081029700999991962011418004+60117+019900FM-12+000399999V0202601N00261004501CN0250001N9+00001-00111098821ADDAA199000391AY121999GF107991051051004501041999KA1999M+00111MD1210151+9999MW1031
0057029700999991962011421004+60117+019900FM-12+000399999V0202001N00411002401CN0150001N9-00111-00221098971ADDAY121999GF108991081051002501999999MD1210151+9999MW1701
0057029700999991962011500004+60117+019900FM-12+000399999V0202601N00311004501CN0100001N9-00111-00221098971ADDAY171999GF108991081071004501999999MD1410001+9999MW1711
0057029700999991962011503004+60117+019900FM-12+000399999V0203001N00261004501CN0200001N9-00111-00281099061ADDAY171999GF108991081071004501999999MD1310091+9999MW1021
0081029700999991962011506004+60117+019900FM-12+000399999V0202901N00411004501CN0300001N9-00221-00281099201ADDAA199000591AY121999GF108991081051004501999999KA1999N-00221MD1210141+9999MW1031
0057029700999991962011509004+60117+019900FM-12+000399999V0203001N00671004501CN0400001N9-00281-00501099461ADDAY121999GF107991071051004501999999MD1310261+9999MW1011
0057029700999991962011512004+60117+019900FM-12+000399999V0203001N00721004501CN0350001N9-00221-00501099761ADDAY121999GF107991071051004501999999MD1210301+9999MW1011
0057029700999991962011515004+60117+019900FM-12+000399999V0203101N00621004501CN0400001N9-00281-00721100241ADDAY121999GF106991061051004501999999MD1210481+9999MW1011
0070029700999991962011518004+60117+019900FM-12+000399999V0202901N00361220001CN0400001N9-00391-00611100301ADDAY101999GF101991011001999999041001KA1999M-00221MD1110241+9999MW1021
0057029700999991962011521004+60117+019900FM-12+000399999V0202601N00261220001CN0400001N9-00391-00611100441ADDAY101999GF100991001001999999001001MD1210141+9999MW1021
0057029700999991962011600004+60117+019900FM-12+000399999V0202601N00361220001CN0400001N9-00391-00611100551ADDAY101999GF101991011001999999041001MD1110111+9999MW1021
0057029700999991962011603004+60117+019900FM-12+000399999V0203201N00101220001CN0400001N9-00721-00721100661ADDAY101999GF101991011001999999041001MD1210111+9999MW1021
0070029700999991962011606004+60117+019900FM-12+000399999V0209991C00001220001CN0300001N9-00781-00781100741ADDAY101999GF100991001001999999001001KA1999N-00781MD1210081+9999MW1021
0076029700999991962011609004+60117+019900FM-12+000399999V0202101N004119999999N0300001N9-00391-00501100771ADDAY111999GF108991001001999999001071MD1110031+9999MW1031EQDQ01+000012SCOTLC
0057029700999991962011612004+60117+019900FM-12+000399999V0201901N00621004501CN0300001N9+00111-00111100531ADDAY121999GF108991081071004501999999MD1810241+9999MW1701
0057029700999991962011615004+60117+019900FM-12+000399999V0201801N01131002401CN0100001N9+00111+00111100191ADDAY161999GF108991081071002501999999MD1710341+9999MW1681
0081029700999991962011618004+60117+019900FM-12+000399999V0201901N01131002401CN0150001N9+00281+00111099651ADDAA199000591AY121999GF108991081071002501999999KA1999M+00281MD1710541+9999MW1601
0057029700999991962011621004+60117+019900FM-12+000399999V0202101N01341002401CN0150001N9+00221+00111099381ADDAY161999GF108991081071002501999999MD1710271+9999MW1211
0057029700999991962011700004+60117+019900FM-12+000399999V0202301N00821004501CN0200001N9+00281+00111099321ADDAY121999GF107991071051004501999999MD1710161+9999MW1011
0057029700999991962011703004+60117+019900FM-12+000399999V0202401N00721220001CN0250001N9+00281+00111099451ADDAY121999GF101991011051004501001001MD1210131+9999MW1011
0081029700999991962011706004+60117+019900FM-12+000399999V0202201N00721220001CN0300001N9+00281+00001099441ADDAA199000391AY101999GF100991001001999999001001KA1999N+00221MD1010011+9999MW1011
0057029700999991962011709004+60117+019900FM-12+000399999V0202201N00821004501CN0200001N9+00281+00111099611ADDAY121999GF107991071051004501999999MD1210161+9999MW1021
0057029700999991962011712004+60117+019900FM-12+000399999V0202201N00771007801CN0300001N9+00281+00111099671ADDAY121999GF108991081051008001999999MD1110061+9999MW1021
0057029700999991962011715004+60117+019900FM-12+000399999V0202201N00771004501CN0200001N9+00281+00111099671ADDAY121999GF108991071051004501021999MD1410001+9999MW1021
0070029700999991962011718004+60117+019900FM-12+000399999V0202001N00821007801CN0250001N9+00281+00111099721ADDAY121999GF108991081051008001999999KA1999M+00281MD1210051+9999MW1021
0057029700999991962011721004+60117+019900FM-12+000399999V0202201N00821007801CN0300001N9+00281+00221099851ADDAY121999GF108991061051008001071999MD1210131+9999MW1021
0057029700999991962011800004+60117+019900FM-12+000399999V0202101N00931012301CN0300001N9+00391+00111099921ADDAY121999GF107991061051012501041999MD1210081+9999MW1011
0057029700999991962011803004+60117+019900FM-12+000399999V0202001N01031007801CN0300001N9+00281+00221099871ADDAY121999GF108991081051008001999999MD1010051+9999MW1031
0070029700999991962011806004+60117+019900FM-12+000399999V0202001N00931030001CN0250001N9+00281+00221099711ADDAY121999GF108991041051004501071999KA1999N+00281MD1710161+9999MW1021
0057029700999991962011809004+60117+019900FM-12+000399999V0202001N00931002401CN0080001N9+00391+00221099711ADDAY121999GF107991071051002501071999MD1410001+9999MW1021
0057029700999991962011812004+60117+019900FM-12+000399999V0202001N01031030001CN0090001N9+00391+00221099591ADDAY121999GF108991011061002501071999MD1810121+9999MW1021
0057029700999991962011815004+60117+019900FM-12+000399999V0202001N00931007801CN0120001N9+00391+00221099471ADDAY121999GF106991051051008001071011MD1710121+9999MW1031
0070029700999991962011818004+60117+019900FM-12+000399999V0202001N00931220001CN0200001N9+00281+00221099371ADDAY121999GF103991001001999999001091KA1999M+00391MD1710101+9999MW1011
0057029700999991962011821004+60117+019900FM-12+000399999V0202001N01131021001CN0300001N9+00391+00221099351ADDAY121999GF106991061001022501031001MD1510021+9999MW1021
0057029700999991962011900004+60117+019900FM-12+000399999V0202201N00821021001CN0200001N9+00281+00221099381ADDAY121999GF107991071001022501031001MD1210031+9999MW1021
0057029700999991962011903004+60117+019900FM-12+000399999V0202401N00721220001CN0300001N9+00281+00001099501ADDAY121999GF101991011001022501031001MD1210121+9999MW1011
0070029700999991962011906004+60117+019900FM-12+000399999V0202601N00511220001CN0300001N9+00111-00111099721ADDAY101999GF102991021001999999031001KA1999N+00111MD1310221+9999MW1011
0057029700999991962011909004+60117+019900FM-12+000399999V0202501N00621220001CN0450001N9+00111-00391100021ADDAY101999GF101991001001999999001011MD1210301+9999MW1011
0057029700999991962011912004+60117+019900FM-12+000399999V0202401N00821007801CN0450001N9+00221-00111099961ADDAY121999GF106991061051008001031999MD1610061+9999MW1021
0057029700999991962011915004+60117+019900FM-12+000399999V0202301N00721012301CN0400001N9+00221-00111099891ADDAY121999GF107991061051012501001011MD1710071+9999MW1031
0070029700999991962011918004+60117+019900FM-12+000399999V0202001N00621220001CN0400001N9+00221+00001099811ADDAY121999GF104991031001999999031011KA1999M+00221MD1610081+9999MW1011
0057029700999991962011921004+60117+019900FM-12+000399999V0202101N00771220001CN0400001N9+00221-00111099721ADDAY101999GF103991001001999999001041MD1810091+9999MW1031
0057029700999991962012000004+60117+019900FM-12+000399999V0202001N00671007801CN0400001N9+00221+00001099561ADDAY121999GF108991071051008001999999MD1710161+9999MW1031
0057029700999991962012003004+60117+019900FM-12+000399999V0209991C00001004501CN0200001N9+00111+00001099281ADDAY121999GF108991081051004501999999MD1810281+9999MW1031
0081029700999991962012006004+60117+019900FM-12+000399999V0200601N00211001501CN0100001N9+00111+00001099171ADDAA199000691AY121999GF108991081071001501999999KA1999N+00111MD1710111+9999MW1581
0057029700999991962012009004+60117+019900FM-12+000399999V0203501N00211002401CN0120001N9+00111+00001099351ADDAY151999GF107991071071002501999999MD1210181+9999MW1201
0057029700999991962012012004+60117+019900FM-12+000399999V0203201N00621002401CN0080001N9+00111-00111099661ADDAY121999GF108991081071002501999999MD1210301+9999MW1681
0081029700999991962012018004+60117+019900FM-12+000399999V0203101N00721004501CN0400001N9-00281-00611100361ADDAA199000691AY121999GF107991071051004501999999KA1999M+00111MD1210311+9999MW1021
0057029700999991962012021004+60117+019900FM-12+000399999V0202901N00211220001CN0400001N9-00391-00781100481ADDAY111999GF103991021051004501031001MD1210121+9999MW1011
0057029700999991962012100004+60117+019900FM-12+000399999V0202901N00051220001CN0400001N9-00391-00611100431ADDAY121999GF103991021051004501001011MD1810051+9999MW1021
0057029700999991962012103004+60117+019900FM-12+000399999V0202901N00051220001CN0400001N9-00611-00611100251ADDAY101999GF103991011051008001041011MD1710171+9999MW1021
0070029700999991962012106004+60117+019900FM-12+000399999V0200501N00051220001CN0400001N9-00391-00611100251ADDAY121999GF104991001001999999001051KA1999N-00611MD1510011+9999MW1011
0057029700999991962012112004+60117+019900FM-12+000399999V0203201N00211007801CN0060001N9-00281-00281100801ADDAY171999GF108991081051008001999999MD1210321+9999MW1711
0057029700999991962012115004+60117+019900FM-12+000399999V0203101N00101007801CN0200001N9-00281-00391100971ADDAY121999GF105991051051008001001001MD1210171+9999MW1711
0081029700999991962012118004+60117+019900FM-12+000399999V0203401N00101030001CN0250001N9-00611-00721101151ADDAA199000591AY101999GF106991031051008001071999KA1999M-00281MD1210181+9999MW1031
0057029700999991962012121004+60117+019900FM-12+000399999V0209991C00001030001CN0300001N9-00501-00501101181ADDAY121999GF107991041051012501071999MD1210031+9999MW1021
0057029700999991962012200004+60117+019900FM-12+000399999V0201301N00411012301CN0300001N9-00221-00501101051ADDAY121999GF107991071051012501999999MD1710131+9999MW1021
0057029700999991962012203004+60117+019900FM-12+000399999V0201301N00671004501CN0250001N9+00001-00391100751ADDAY121999GF107991071051004501999999MD1710301+9999MW1021
0070029700999991962012206004+60117+019900FM-12+000399999V0201301N00931004501CN0200001N9-00111-00391100441ADDAY121999GF108991081061004501999999KA1999N-00611MD1710311+9999MW1021
0057029700999991962012209004+60117+019900FM-12+000399999V0201301N00821002401CN0300001N9-00111-00221100141ADDAY101999GF108991081061002501999999MD1710301+9999MW1111
0057029700999991962012212004+60117+019900FM-12+000399999V0201301N01031002401CN0030001N9+00001-00111099761ADDAY171999GF108991081071002501999999MD1710381+9999MW1711
0057029700999991962012215004+60117+019900FM-12+000399999V0201201N01031001501CN0031001N9-00111-00111099421ADDAY131999GF108991081071001501999999MD1710341+9999MW1271
0081029700999991962012218004+60117+019900FM-12+000399999V0201201N00931002401CN0030001N9-00111-00221098881ADDAA199010091AY171999GF108991081071002501999999KA1999M+00001MD1710541+9999MW1721
0057029700999991962012221004+60117+019900FM-12+000399999V0201101N01031001501CN0015001N9+00001-00111098361ADDAY171999GF108991081071001501999999MD1710521+9999MW1731
0057029700999991962012300004+60117+019900FM-12+000399999V0201201N00511004501CN0150001N9+00221+00111097971ADDAY171999GF108991081051004501999999MD1710391+9999MW1221
0057029700999991962012303004+60117+019900FM-12+000399999V0200801N00411002401CN0150001N9+00221+00111097571ADDAY121999GF108991081061002501999999MD1710401+9999MW1021
0081029700999991962012306004+60117+019900FM-12+000399999V0200301N00511002401CN0025001N9+00001-00111097551ADDAA199011091AY171999GF108991081071002501999999KA1999N-00111MD1610021+9999MW1731
0057029700999991962012309004+60117+019900FM-12+000399999V0203201N00411002401CN0040001N9-00111-00111097871ADDAY171999GF108991071071002501999999MD1310321+9999MW1731
0057029700999991962012312004+60117+019900FM-12+000399999V0203201N00411002401CN0100001N9-00111-00221098331ADDAY171999GF108991071071002501999999MD1210461+9999MW1221
0057029700999991962012315004+60117+019900FM-12+000399999V0203101N00621002401CN0200001N9-00111-00281098851ADDAY121999GF108991071071002501999999MD1210521+9999MW1021
0081029700999991962012318004+60117+019900FM-12+000399999V0202901N00511004501CN0015001N9-00111-00221099201ADDAA199000591AY171999GF108991081051004501999999KA1999M+00001MD1110351+9999MW1731
0057029700999991962012321004+60117+019900FM-12+000399999V0202901N00621004501CN0080001N9-00221-00281099441ADDAY171999GF108991081051004501999999MD1210241+9999MW1711
0057029700999991962012400004+60117+019900FM-12+000399999V0203101N00411004501CN0300001N9-00221-00281099641ADDAY121999GF107991071051004501999999MD1210201+9999MW1011
0057029700999991962012403004+60117+019900FM-12+000399999V0203101N00211004501CN0250001N9-00221-00391099811ADDAY121999GF108991081051004501999999MD1110171+9999MW1021
0081029700999991962012406004+60117+019900FM-12+000399999V0203001N00101004501CN0300001N9-00221-00281099901ADDAA199001091AY121999GF108991081051004501999999KA1999N-00221MD1210091+9999MW1021
0057029700999991962012409004+60117+019900FM-12+000399999V0202901N00051007801CN0300001N9-00221-00391100141ADDAY171999GF108991081051008001999999MD1210241+9999MW1711
0057029700999991962012412004+60117+019900FM-12+000399999V0203401N00361004501CN0100001N9-00221-00281100291ADDAY171999GF108991081051004501999999MD1110151+9999MW1711
0057029700999991962012415004+60117+019900FM-12+000399999V0203501N00311004501CN0200001N9-00281-00391100471ADDAY171999GF108991081051004501999999MD1210181+9999MW1711
0081029700999991962012418004+60117+019900FM-12+000399999V0203601N00101004501CN0200001N9-00281-00391100621ADDAA199000691AY171999GF108991081051004501999999KA1999M-00221MD1210151+9999MW1711
0057029700999991962012421004+60117+019900FM-12+000399999V0203601N00211004501CN0200001N9-00281-00501100761ADDAY171999GF108991081051004501999999MD1210141+9999MW1711
0057029700999991962012503004+60117+019900FM-12+000399999V0203601N00051004501CN0200001N9-00281-00501100951ADDAY171999GF108991081051004501999999MD1210081+9999MW1711
0081029700999991962012506004+60117+019900FM-12+000399999V0209991C00001004501CN0250001N9-00391-00501101041ADDAA199001091AY121999GF108991081051004501999999KA1999N-00391MD1210091+9999MW1021
0057029700999991962012509004+60117+019900FM-12+000399999V0209991C00001007801CN0250001N9-00281-00391101161ADDAY121999GF108991071051008001071999MD1210121+9999MW1701
0057029700999991962012512004+60117+019900FM-12+000399999V0203501N00101007801CN0150001N9-00221-00281101201ADDAY171999GF108991071051008001999999MD1210041+9999MW1711
0057029700999991962012515004+60117+019900FM-12+000399999V0203001N00261007801CN0300001N9-00391-00501101281ADDAY171999GF105991051051008001999999MD1110081+9999MW1221
0081029700999991962012518004+60117+019900FM-12+000399999V0209991C00001007801CN0250001N9-00611-00721101361ADDAA199000391AY101999GF107991071051008001999999KA1999M-00221MD1310081+9999MW1031
0057029700999991962012600004+60117+019900FM-12+000399999V0203201N00361004501CN0150001N9-00281-00611101371ADDAY171999GF108991081051004501999999MD1110021+9999MW1711
0057029700999991962012603004+60117+019900FM-12+000399999V0203101N00411007801CN0200001N9-00391-00721101411ADDAY121999GF108991081051008001999999MD1110041+9999MW1021
0081029700999991962012606004+60117+019900FM-12+000399999V0202901N00411007801CN0200001N9-00501-00721101321ADDAA199000691AY121999GF108991081051008001999999KA1999N-00611MD1110091+9999MW1701
0057029700999991962012609004+60117+019900FM-12+000399999V0203501N00211004501CN0030001N9-00391-00501101341ADDAY171999GF108991081051004501999999MD1110021+9999MW1731
0057029700999991962012612004+60117+019900FM-12+000399999V0209991C00001004501CN0040001N9-00391-00501101331ADDAY171999GF107991061051004501031999MD1810011+9999MW1731
0057029700999991962012615004+60117+019900FM-12+000399999V0209991C00001004501CN0070001N9-00611-00721101291ADDAY181999GF108991061051004501071999MD1710041+9999MW1861
0081029700999991962012618004+60117+019900FM-12+000399999V0200501N00211004501CN0200001N9-00721-00781101201ADDAA199001091AY171999GF108991081051004501999999KA1999M-00391MD1710091+9999MW1701
0057029700999991962012621004+60117+019900FM-12+000399999V0209991C00001007801CN0200001N9-00611-00611101171ADDAY171999GF108991081051008001999999MD1610031+9999MW1701
0057029700999991962012700004+60117+019900FM-12+000399999V0200601N00101004501CN0150001N9-00611-00721101121ADDAY171999GF108991081051004501999999MD1810051+9999MW1701
0057029700999991962012703004+60117+019900FM-12+000399999V0209991C00001004501CN0150001N9-00611-00721101051ADDAY171999GF108991081051004501999999MD1710071+9999MW1711
0081029700999991962012706004+60117+019900FM-12+000399999V0200801N00101030001CN0070001N9-00611-00721100991ADDAA199000591AY171999GF108991041051004501071999KA1999N-00721MD1710061+9999MW1711
0057029700999991962012709004+60117+019900FM-12+000399999V0201001N00211030001CN0040001N9-00611-00721100951ADDAY171999GF108991021071004501021999MD1610041+9999MW1731
0057029700999991962012715004+60117+019900FM-12+000399999V0200301N00311030001CN0080001N9-00721-00891100991ADDAY171999GF108991031051004501071999MD1210051+9999MW1711
0057029700999991962012721004+60117+019900FM-12+000399999V0203601N00871030001CN0200001N9-00721-01001101431ADDAY121999GF108991041051004501021999MD1110201+9999MW1021
0057029700999991962012803004+60117+019900FM-12+000399999V0203601N00621004501CN0050001N9-00891-01111101741ADDAY171999GF108991081051004501999999MD1310171+9999MW1711
0076029700999991962012806004+60117+019900FM-12+000399999V0200201N00821007801CN0100001N9-00501-00611102191ADDAY171999GF108991999061008001041999MD1210221+9999MW1221EQDQ01+000082SCOTLC
0057029700999991962012812004+60117+019900FM-12+000399999V0200101N00931220001CN0300001N9-00611-00891102381ADDAY171999GF104991041051004501041001MD1110171+9999MW1361
0057029700999991962012815004+60117+019900FM-12+000399999V0200201N00821004501CN0300001N9-00781-01111102661ADDAY131999GF107991071051004501999999MD1210281+9999MW1701
0081029700999991962012818004+60117+019900FM-12+000399999V0200201N00931004501CN0300001N9-00891-01281102951ADDAA199000591AY121999GF106991061051004501999999KA1999M-00611MD1210291+9999MW1021
0057029700999991962012821004+60117+019900FM-12+000399999V0200301N00511220001CN0300001N9-01001-01281103251ADDAY111999GF103991031051004501001001MD1210301+9999MW1011
0057029700999991962012900004+60117+019900FM-12+000399999V0200201N00311220001CN0300001N9-01281-01501103481ADDAY101999GF102991021001999999041001MD1210231+9999MW1701
0057029700999991962012903004+60117+019900FM-12+000399999V0200201N00411220001CN0300001N9-01281-01391103631ADDAY171999GF100991001001999999001001MD1210151+9999MW1221
0081029700999991962012906004+60117+019900FM-12+000399999V0200101N00361220001CN0300001N9-01281-01501103831ADDAA199000691AY101999GF100991001001999999001001KA1999N-01501MD1210201+9999MW1021
0057029700999991962012909004+60117+019900FM-12+000399999V0200201N00151220001CN0250001N9-01501-01721104041ADDAY101999GF101991001001999999001011MD1210211+9999MW1021
0057029700999991962012915004+60117+019900FM-12+000399999V0200301N00101220001CN0400001N9-01281-01611104131ADDAY101999GF101991001001999999001011MD1110031+9999MW1021
0070029700999991962012918004+60117+019900FM-12+000399999V0209991C00001220001CN0350001N9-01891-02001104201ADDAY101999GF100991001001999999001001KA1999M-00891MD1210071+9999MW1021
0057029700999991962012921004+60117+019900FM-12+000399999V0209991C00001220001CN0350001N9-02111-02281104191ADDAY101999GF100991001001999999001001MD1010011+9999MW1021
0057029700999991962013000004+60117+019900FM-12+000399999V0209991C00001007801CN0300001N9-01781-02001104151ADDAY101999GF106991061051008001999999MD1810041+9999MW1031
0057029700999991962013003004+60117+019900FM-12+000399999V0200401N00151220001CN0300001N9-01781-02001104061ADDAY111999GF101991011051008001001001MD1710091+9999MW1011
0057029700999991962013009004+60117+019900FM-12+000399999V0202401N00511220001CN0400001N9-00721-01001103951ADDAY111999GF105991011051002501001061MD1610021+9999MW1031
0057029700999991962013012004+60117+019900FM-12+000399999V0202401N00821030001CN0350001N9-00611-01001103901ADDAY121999GF106991011051004501031011MD1810051+9999MW1031
0057029700999991962013015004+60117+019900FM-12+000399999V0202401N00871220001CN0400001N9-00501-00891103761ADDAY121999GF105991011051004501001011MD1710141+9999MW1011
0070029700999991962013018004+60117+019900FM-12+000399999V0202401N00931220001CN0300001N9-00501-00781103661ADDAY121999GF105991021051004501001011KA1999M-00501MD1710101+9999MW1021
0057029700999991962013021004+60117+019900FM-12+000399999V0202301N00931220001CN0300001N9-00501-00781103571ADDAY111999GF102991001001999999001011MD1710091+9999MW1011
0057029700999991962013100004+60117+019900FM-12+000399999V0202401N01031220001CN0300001N9-00501-00721103411ADDAY101999GF101991011051004501001001MD1710161+9999MW1021
0057029700999991962013103004+60117+019900FM-12+000399999V0202401N00931004501CN0300001N9-00391-00721103371ADDAY111999GF105991051051004501001001MD1710041+9999MW1031
0070029700999991962013106004+60117+019900FM-12+000399999V0202201N01031220001CN0400001N9-00391-00721103101ADDAY101999GF101991011051008001001011KA1999N-00501MD1810271+9999MW1011
0057029700999991962013109004+60117+019900FM-12+000399999V0202201N01341004501CN0400001N9-00281-00611103021ADDAY121999GF107991051081004501001061MD1610081+9999MW1031
0057029700999991962013115004+60117+019900FM-12+000399999V0202101N01441004501CN0300001N9-00221-00501102421ADDAY121999GF108991081051004501999999MD1710321+9999MW1381
0070029700999991962013118004+60117+019900FM-12+000399999V0202101N01541030001CN0300001N9-00111-00501102211ADDAY121999GF107991031051004501011999KA1999M-00111MD1710211+9999MW1381
0057029700999991962013121004+60117+019900FM-12+000399999V0202001N01751030001CN0300001N9-00221-00501101881ADDAY121999GF105991021051004501071999MD1810331+9999MW1381
0057029700999991962020100004+60117+019900FM-12+000399999V0202001N01951220001CN0050001N9-00221-00391101581ADDAY131999GF104991011051004501071999MD1710301+9999MW1381
0057029700999991962020103004+60117+019900FM-12+000399999V0202001N01901220001CN0080001N9+00001-00391101381ADDAY131999GF102991011051004501031011MD1710201+9999MW1381
0070029700999991962020106004+60117+019900FM-12+000399999V0202101N01851220001CN0200001N9+00001-00391101221ADDAY111999GF104991021051004501041011KA1999N-00281MD1710161+9999MW1381
0057029700999991962020109004+60117+019900FM-12+000399999V0202001N018519999999N0200001N9+00001-00391101191ADDAY111999GF199999041051004501041011MD1710031+9999MW1381
0057029700999991962020112004+60117+019900FM-12+000399999V0202001N01801030001CN0250001N9+00001-00391101121ADDAY131999GF105991041051004501041001MD1010071+9999MW1361
0057029700999991962020115004+60117+019900FM-12+000399999V0202001N01541220001CN0250001N9+00001-00391101031ADDAY131999GF104991041051004501041999MD1710091+9999MW1361
0070029700999991962020118004+60117+019900FM-12+000399999V0202101N01541004501CN0250001N9+00001-00391100991ADDAY131999GF105991051051004501041999KA1999M+00001MD1710041+9999MW1361
0057029700999991962020121004+60117+019900FM-12+000399999V0202101N01541004501CN0250001N9+00001-00281100991ADDAY131999GF106991061051004501999999MD1410001+9999MW1361
0057029700999991962020200004+60117+019900FM-12+000399999V0201901N01441004501CN0150001N9+00001-00221100931ADDAY131999GF108991081051004501999999MD1710061+9999MW1701
0057029700999991962020203004+60117+019900FM-12+000399999V0202201N00771004501CN0100001N9-00111-00221100861ADDAY171999GF108991081051004501999999MD1710071+9999MW1731
0081029700999991962020206004+60117+019900FM-12+000399999V0202201N00621002401CN0050001N9-00111-00221100911ADDAA199001091AY171999GF108991081071002501999999KA1999N-00111MD1210051+9999MW1731
0057029700999991962020209004+60117+019900FM-12+000399999V0202101N00411075001CN0060001N9-00221-00221101031ADDAY171999GF107991031051004501001061MD1210121+9999MW1711
0057029700999991962020212004+60117+019900FM-12+000399999V0202401N00311004501CN0150001N9-00111-00281101161ADDAY121999GF108991071051004501001061MD1210131+9999MW1031
0057029700999991962020215004+60117+019900FM-12+000399999V0202301N00151004501CN0100001N9-00111-00281101251ADDAY121999GF108991081051004501999999MD1210091+9999MW1021
0081029700999991962020218004+60117+019900FM-12+000399999V0202901N00101002401CN0100001N9-00221-00281101361ADDAA199000591AY121999GF108991081061002501999999KA1999M-00111MD1210111+9999MW1021
0057029700999991962020221004+60117+019900FM-12+000399999V0202801N00211002401CN0100001N9-00221-00281101481ADDAY171999GF108991081071002501999999MD1210121+9999MW1021
0057029700999991962020300004+60117+019900FM-12+000399999V0202401N00361002401CN0100001N9-00221-00221101551ADDAY121999GF108991081061002501999999MD1210071+9999MW1021
0057029700999991962020303004+60117+019900FM-12+000399999V0202401N00311002401CN0150001N9-00281-00391101611ADDAY121999GF108991081061002501999999MD1210061+9999MW1021
0057029700999991962020309004+60117+019900FM-12+000399999V0202301N00571220001CN0350001N9-00281-00501101601ADDAY111999GF105991011051008001001061MD1810031+9999MW1031
0057029700999991962020312004+60117+019900FM-12+000399999V0202101N00721002401CN0300001N9-00221-00391101441ADDAY121999GF107991051061002501051999MD1810161+9999MW1011
0057029700999991962020315004+60117+019900FM-12+000399999V0202101N00871002401CN0250001N9-00111-00221101301ADDAY121999GF108991061061002501071999MD1810141+9999MW1031
0070029700999991962020318004+60117+019900FM-12+000399999V0202401N00721004501CN0250001N9+00001-00221101241ADDAY121999GF108991051051004501071999KA1999M+00001MD1710061+9999MW1021
0057029700999991962020321004+60117+019900FM-12+000399999V0202201N00721007801CN0250001N9+00001-00221101091ADDAY121999GF108991061051008001071999MD1710151+9999MW1021
0057029700999991962020400004+60117+019900FM-12+000399999V0202001N00931004501CN0200001N9+00111-00111100771ADDAY121999GF108991081051004501999999MD1710321+9999MW1021
0057029700999991962020403004+60117+019900FM-12+000399999V0202001N01231004501CN0200001N9+00001-00111100341ADDAY121999GF108991081051004501999999MD1710431+9999MW1021
0081029700999991962020406004+60117+019900FM-12+000399999V0201801N01291004501CN0015001N9+00001-00111099851ADDAA199000691AY171999GF108991081051004501999999KA1999N+00001MD1710491+9999MW1731
0057029700999991962020409004+60117+019900FM-12+000399999V0201801N01231002401CN0100001N9+00111+00111099441ADDAY171999GF108991081071002501999999MD1710441+9999MW1681
0057029700999991962020412004+60117+019900FM-12+000399999V0201801N01341004501CN0200001N9+00221-00111099001ADDAY121999GF108991081051004501999999MD1710441+9999MW1021
0057029700999991962020415004+60117+019900FM-12+000399999V0202401N00621001501CN0040001N9+00111+00001098981ADDAY171999GF108991081071001501999999MD1210021+9999MW1691
0081029700999991962020418004+60117+019900FM-12+000399999V0202801N00821002401CN0030001N9+00111+00001099401ADDAA199001091AY171999GF108991081071002501999999KA1999M+00111MD1310421+9999MW1681
0057029700999991962020421004+60117+019900FM-12+000399999V0202601N00771220001CN0200001N9+00111-00221099811ADDAY121999GF104991031051004501071999MD1210411+9999MW1011
0057029700999991962020500004+60117+019900FM-12+000399999V0202501N00671220001CN0300001N9-00111-00281100041ADDAY101999GF100991001001999999001001MD1110231+9999MW1021
0057029700999991962020503004+60117+019900FM-12+000399999V0202501N00311220001CN0300001N9-00221-00281100091ADDAY101999GF100991001001999999001001MD1110051+9999MW1021
0081029700999991962020506004+60117+019900FM-12+000399999V0202301N00511030001CN0300001N9-00221-00221100081ADDAA199000691AY101999GF105991021051004501041001KA1999N-00221MD1710011+9999MW1031
0057029700999991962020509004+60117+019900FM-12+000399999V0202201N00621030001CN0300001N9+00111-00111100031ADDAY121999GF107991041051004501051999MD1710051+9999MW1021
0057029700999991962020512004+60117+019900FM-12+000399999V0201901N00461004501CN0300001N9+00111+00001100021ADDAY121999GF107991071051004501999999MD1010011+9999MW1021
0057029700999991962020515004+60117+019900FM-12+000399999V0201801N00721004501CN0300001N9+00111-00111100051ADDAY161999GF108991081051004501999999MD1510031+9999MW1231
0081029700999991962020518004+60117+019900FM-12+000399999V0201301N00411004501CN0300001N9+00111+00001100081ADDAA199000391AY121999GF108991081051004501999999KA1999M+00221MD1210031+9999MW1681
0057029700999991962020521004+60117+019900FM-12+000399999V0201501N00411004501CN0300001N9+00111-00111100131ADDAY121999GF108991081051004501999999MD1110051+9999MW1021
0057029700999991962020600004+60117+019900FM-12+000399999V0201601N00411004501CN0300001N9+00111-00111100241ADDAY121999GF108991081051004501999999MD1210111+9999MW1701
0057029700999991962020603004+60117+019900FM-12+000399999V0201701N00101004501CN0250001N9+00001-00111100321ADDAY171999GF108991081051004501999999MD1210081+9999MW1711
0081029700999991962020606004+60117+019900FM-12+000399999V0201301N00151001501CN0010001N9+00001-00111100461ADDAA199002091AY171999GF109991091999001501999999KA1999N-00221MD1210141+9999MW1751
0057029700999991962020609004+60117+019900FM-12+000399999V0201401N00261001501CN0060001N9+00001+00001100621ADDAY171999GF108991081071001501999999MD1210161+9999MW1711
0057029700999991962020612004+60117+019900FM-12+000399999V0201701N00211001501CN0150001N9+00111-00111100691ADDAY171999GF107991071051001501999999MD1010071+9999MW1221
0057029700999991962020615004+60117+019900FM-12+000399999V0209991C00001002401CN0250001N9-00111-00111100891ADDAY121999GF108991081051002501999999MD1210201+9999MW1221
0081029700999991962020618004+60117+019900FM-12+000399999V0209991C00001000601CN0008001N9-00501-00501100991ADDAA199002091AY141999GF109991091999000751999999KA1999M+00111MD1210101+9999MW1431
0057029700999991962020621004+60117+019900FM-12+000399999V0202201N00361002401CN0200001N9-00111-00221101041ADDAY121999GF108991081051002501999999MD1010051+9999MW1021
0057029700999991962020700004+60117+019900FM-12+000399999V0202001N00771002401CN0200001N9-00111-00221101011ADDAY121999GF108991081061002501999999MD1010031+9999MW1021
0057029700999991962020703004+60117+019900FM-12+000399999V0201901N00821220001CN0300001N9-00111-00221100861ADDAY111999GF103991031051002501001001MD1710151+9999MW1011
0070029700999991962020706004+60117+019900FM-12+000399999V0201801N01031002401CN0200001N9+00111+00001100671ADDAY121999GF107991061051002501041999KA1999N-00501MD1710191+9999MW1031
0057029700999991962020709004+60117+019900FM-12+000399999V0201801N01131001501CN0030001N9+00111+00111100461ADDAY171999GF108991081071001501999999MD1710211+9999MW1681
0057029700999991962020712004+60117+019900FM-12+000399999V0202001N01231000601CN0030001N9+00221+00221100391ADDAY171999GF108991081061000751999999MD1610071+9999MW1231
0057029700999991962020715004+60117+019900FM-12+000399999V0202001N01031000601CN0010001N9+00221+00221100321ADDAY141999GF109991091999000751999999MD1610071+9999MW1431
0081029700999991962020718004+60117+019900FM-12+000399999V0201901N00821000151CN0007001N9+00221+00221100311ADDAA199001091AY141999GF109991091999000251999999KA1999M+00221MD1810011+9999MW1451
0057029700999991962020721004+60117+019900FM-12+000399999V0201901N00821000601CN0008001N9+00221+00221100241ADDAY141999GF109991091999000751999999MD1710071+9999MW1431
0057029700999991962020800004+60117+019900FM-12+000399999V0202001N00931000151CN0008001N9+00221+00221100131ADDAY141999GF109991091999000251999999MD1710111+9999MW1451
0057029700999991962020803004+60117+019900FM-12+000399999V0201901N00931000151CN0005001N9+00221+00221099991ADDAY141999GF109991091999000251999999MD1710141+9999MW1611
0081029700999991962020806004+60117+019900FM-12+000399999V0201901N00931000151CN0008001N9+00221+00221099871ADDAA199000591AY161999GF109991091999000251999999KA1999N+00221MD1610121+9999MW1611
0057029700999991962020809004+60117+019900FM-12+000399999V0201901N01131000601CN0020001N9+00221+00221099801ADDAY161999GF108991081061000751999999MD1610071+9999MW1581
0057029700999991962020812004+60117+019900FM-12+000399999V0202201N00721000601CN0050001N9+00221+00221099811ADDAY121999GF108991081071000751999999MD1110011+9999MW1581
0057029700999991962020815004+60117+019900FM-12+000399999V0202701N00511000601CN0025001N9+00221+00111099931ADDAY121999GF108991081061000751999999MD1110121+9999MW1511
0081029700999991962020818004+60117+019900FM-12+000399999V0203201N00361002401CN0040001N9+00111+00001100211ADDAA199002091AY171999GF108991081071002501999999KA1999M+00221MD1310281+9999MW1681
0057029700999991962020821004+60117+019900FM-12+000399999V0203301N00411002401CN0080001N9+00001+00001100461ADDAY171999GF108991081071002501999999MD1210251+9999MW1711
0057029700999991962020900004+60117+019900FM-12+000399999V0203201N00361024001CN0200001N9+00001-00111100721ADDAY171999GF108991081001999999071999MD1210261+9999MW1011
0057029700999991962020903004+60117+019900FM-12+000399999V0203201N00211220001CN0250001N9-00111-00281101021ADDAY121999GF103991031001999999031001MD1210301+9999MW1011
0081029700999991962020906004+60117+019900FM-12+000399999V0209991C00001220001CN0400001N9-00221-00221101301ADDAA199001091AY101999GF100991001001999999001001KA1999N-00221MD1210081+9999MW1021
0057029700999991962020909004+60117+019900FM-12+000399999V0209991C00001220001CN0500001N9-00111-00221101521ADDAY101999GF102991001001999999001011MD1210221+9999MW1031
0057029700999991962020912004+60117+019900FM-12+000399999V0202501N00311075001CN0400001N9+00001-00111101721ADDAY111999GF107991011001999999041061MD1210201+9999MW1031
0070029700999991962020918004+60117+019900FM-12+000399999V0202201N00511220001CN0500001N9+00001-00281101771ADDAY111999GF105991031001999999041011KA1999M+00001MD1710031+9999MW1031
0057029700999991962020921004+60117+019900FM-12+000399999V0202101N00821075001CN0400001N9+00111-00281101621ADDAY121999GF107991021001999999041061MD1710151+9999MW1021
0057029700999991962021000004+60117+019900FM-12+000399999V0202201N01031007801CN0300001N9+00111-00111101481ADDAY121999GF108991081051008001999999MD1710141+9999MW1021
0057029700999991962021003004+60117+019900FM-12+000399999V0202201N00821004501CN0300001N9+00111+00111101321ADDAY121999GF108991081051004501999999MD1710161+9999MW1021
0070029700999991962021006004+60117+019900FM-12+000399999V0202201N00821001501CN0200001N9+00221+00111101221ADDAY121999GF108991081061001501999999KA1999N+00001MD1610101+9999MW1021
0057029700999991962021009004+60117+019900FM-12+000399999V0202201N00621000601CN0008001N9+00111+00111101151ADDAY141999GF109991091999000751999999MD1510071+9999MW1451
0057029700999991962021012004+60117+019900FM-12+000399999V0202101N00621000151CN0008001N9+00221+00221100951ADDAY141999GF109991091999000251999999MD1710201+9999MW1451
0057029700999991962021015004+60117+019900FM-12+000399999V0202001N00721000601CN0018001N9+00221+00221100761ADDAY121999GF109991091999000751999999MD1710191+9999MW1101
0070029700999991962021018004+60117+019900FM-12+000399999V0202401N00511004501CN0150001N9+00391+00281100591ADDAY121999GF108991081061004501999999KA1999M+00391MD1610171+9999MW1021
0057029700999991962021021004+60117+019900FM-12+000399999V0202401N00621004501CN0200001N9+00391+00281100531ADDAY121999GF108991081051004501999999MD1010051+9999MW1021
0057029700999991962021100004+60117+019900FM-12+000399999V0202501N00621007801CN0200001N9+00391+00221100361ADDAY121999GF108991081051008001999999MD1710171+9999MW1021
0057029700999991962021103004+60117+019900FM-12+000399999V0202301N00621007801CN0200001N9+00281+00221100131ADDAY121999GF108991081051008001999999MD1710241+9999MW1021
0070029700999991962021106004+60117+019900FM-12+000399999V0202601N00621004501CN0200001N9+00281+00221099921ADDAY121999GF108991081051004501999999KA1999N+00221MD1710201+9999MW1211
0057029700999991962021109004+60117+019900FM-12+000399999V0203201N00311002401CN0250001N9+00111+00001100021ADDAY161999GF108991081051002501999999MD1010101+9999MW1211
0057029700999991962021112004+60117+019900FM-12+000399999V0202601N00511004501CN0500001N9+00281-00111100061ADDAY111999GF105991051021004501041001MD1110041+9999MW1021
0057029700999991962021115004+60117+019900FM-12+000399999V0202401N00261220001CN0500001N9+00221-00111100011ADDAY111999GF101991011041004501041001MD1810051+9999MW1011
0057029700999991962021121004+60117+019900FM-12+000399999V0202501N00311220001CN0400001N9+00001-00391099991ADDAY101999GF101991011001999999041001MD1710071+9999MW1031
0057029700999991962021200004+60117+019900FM-12+000399999V0202501N00721220001CN0400001N9+00001-00391099791ADDAY101999GF102991021001999999041001MD1710221+9999MW1031
0057029700999991962021203004+60117+019900FM-12+000399999V0202001N00771007801CN0300001N9+00001-00111099201ADDAY111999GF108991051051008001071999MD1710561+9999MW1701
0081029700999991962021206004+60117+019900FM-12+000399999V0201901N01231004501CN0020001N9+00001+00001098361ADDAA199000691AY171999GF108991081051004501999999KA1999N-00111MD1810841+9999MW1731
0076029700999991962021209004+60117+019900FM-12+000399999V0201701N012319999999N0010001N9+00001+00001999999ADDAY171999GF108991081071999999999999MD1810991+9999MW1731EQDQ01 097373APOSLP
0092029700999991962021212004+60117+019900FM-12+000399999V0201401N01131001501CN0015001N9+00001+00001999999ADDAY171999GF108991081071001501999999MD1710992+9999MW1731EQDQ01+095953APOSLPQ02+000992APC3  
0092029700999991962021215004+60117+019900FM-12+000399999V0201201N00211001501CN0017001N9+00001+00001104952ADDAY171999GF108991081071001501999999MD1710992+9999MW1731EQDQ01+104953APOSLPQ02+000992APC3  
0081029700999991962021218004+60117+019900FM-12+000399999V0200901N00311001501CN0060001N9+00001+00001104601ADDAA199009091AY171999GF108991081071001501999999KA1999M+00001MD1610351+9999MW1711
0057029700999991962021221004+60117+019900FM-12+000399999V0200201N01031001501CN0010001N9-00111-00221104621ADDAY171999GF108991081071001501999999MD1310021+9999MW1731
0057029700999991962021300004+60117+019900FM-12+000399999V0203601N01541004501CN0015001N9-00111-00221104951ADDAY171999GF108991081051004501999999MD1310331+9999MW1731
0076029700999991962021303004+60117+019900FM-12+000399999V0203401N01441004501CN0010001N9-00111-00221095292ADDAY171999GF108991081051004501999999MD1210341+9999MW1731EQDQ01+095293APOSLP
0070029700999991962021306004+60117+019900FM-12+000399999V0203301N01341004501CN0010001N9-00221-00221095601ADDAY171999GF108991081051004501999999KA1999N-00221MD1210311+9999MW1731
0057029700999991962021309004+60117+019900FM-12+000399999V0203301N01441002401CN0015001N9-00221-00221095911ADDAY171999GF108991081071002501999999MD1210311+9999MW1711
0057029700999991962021312004+60117+019900FM-12+000399999V0203301N01341002401CN0012001N9-00221-00281096181ADDAY171999GF108991081071002501999999MD1210271+9999MW1711
0081029700999991962021318004+60117+019900FM-12+000399999V0203501N00721004501CN0050001N9-00221-00391096891ADDAA199001091AY171999GF106991061051004501999999KA1999M-00111MD1210481+9999MW1711
0057029700999991962021321004+60117+019900FM-12+000399999V0203501N00721030001CN0040001N9-00281-00501097271ADDAY171999GF108991031051004501011999MD1210381+9999MW1731
0057029700999991962021403004+60117+019900FM-12+000399999V0203501N00621001501CN0040001N9-00501-00611098011ADDAY171999GF108991081071001501999999MD1210381+9999MW1731
0081029700999991962021406004+60117+019900FM-12+000399999V0203601N00931004501CN0050001N9-00391-00721098491ADDAA199001091AY171999GF108991081071004501999999KA1999N-00501MD1210481+9999MW1711
0057029700999991962021409004+60117+019900FM-12+000399999V0200101N00821004501CN0030001N9-00391-00501098951ADDAY171999GF107991061051004501071011MD1210461+9999MW1861
0057029700999991962021412004+60117+019900FM-12+000399999V0203601N00771004501CN0060001N9-00281-00501099371ADDAY181999GF107991071051004501071999MD1210421+9999MW1261
0057029700999991962021415004+60117+019900FM-12+000399999V0203501N00931004501CN0050001N9-00391-00611099811ADDAY121999GF107991051051004501041011MD1210441+9999MW1381
0081029700999991962021418004+60117+019900FM-12+000399999V0203501N00871004501CN0050001N9-00391-00611100231ADDAA199006091AY181999GF108991081051004501999999KA1999M-00281MD1210421+9999MW1851
0057029700999991962021421004+60117+019900FM-12+000399999V0203601N01031004501CN0015001N9-00501-00611100591ADDAY181999GF108991081051004501999999MD1210361+9999MW1861
0057029700999991962021500004+60117+019900FM-12+000399999V0203501N00821004501CN0050001N9-00501-00721100851ADDAY181999GF108991081071004501999999MD1210261+9999MW1851
0057029700999991962021503004+60117+019900FM-12+000399999V0203601N00511220001CN0150001N9-00611-00891101121ADDAY181999GF102991021051004501001001MD1210271+9999MW1011
0081029700999991962021506004+60117+019900FM-12+000399999V0200201N00211004501CN0200001N9-00611-00891101311ADDAA199008091AY181999GF108991081051004501999999KA1999N-00781MD1210191+9999MW1261
0057029700999991962021509004+60117+019900FM-12+000399999V0200901N00211030001CN0400001N9-00611-00721101431ADDAY121999GF107991041051008001041999MD1310121+9999MW1021
0057029700999991962021515004+60117+019900FM-12+000399999V0202901N00151220001CN0500001N9-00611-00891101231ADDAY101999GF102991011041008001001051MD1810111+9999MW1011
0081029700999991962021518004+60117+019900FM-12+000399999V0202101N00571220001CN0500001N9-00781-01111100831ADDAA199000691AY101999GF103991021051008001041001KA1999M-00391MD1710401+9999MW1031
0057029700999991962021521004+60117+019900FM-12+000399999V0202001N00931075001CN0300001N9-00391-00611100331ADDAY121999GF108991021051008001001071MD1710501+9999MW1031
0057029700999991962021600004+60117+019900FM-12+000399999V0201801N01341004501CN0030001N9-00281-00281099581ADDAY121999GF108991081071004501999999MD1710751+9999MW1711
0057029700999991962021603004+60117+019900FM-12+000399999V0201801N01441004501CN0020001N9-00221-00221098601ADDAY171999GF108991081071004501999999MD1710981+9999MW1711
0081029700999991962021606004+60117+019900FM-12+000399999V0201701N01751002401CN0020001N9-00111-00111097521ADDAA199000691AY171999GF108991081071002501999999KA1999N-00781MD1710991+9999MW1711
0057029700999991962021609004+60117+019900FM-12+000399999V0201701N01441002401CN0015001N9+00001+00001096621ADDAY171999GF108991081071002501999999MD1710901+9999MW1731
0057029700999991962021612004+60117+019900FM-12+000399999V0201801N01131000601CN0030001N9+00001+00001095701ADDAY171999GF108991081071000751999999MD1710921+9999MW1681
0081029700999991962021618004+60117+019900FM-12+000399999V0201801N00621002401CN0150001N9+00001+00001095111ADDAA199023091AY171999GF108991081071002501999999KA1999M+00111MD1610091+9999MW1681
0057029700999991962021621004+60117+019900FM-12+000399999V0201101N00361001501CN0015001N9+00001+00001095051ADDAY171999GF108991081071001501999999MD1610061+9999MW1731
0057029700999991962021700004+60117+019900FM-12+000399999V0200601N00311002401CN0020001N9+00001+00001095281ADDAY171999GF108991081071002501999999MD1310231+9999MW1731
0057029700999991962021703004+60117+019900FM-12+000399999V0200301N00621001501CN0010001N9+00001-00111095911ADDAY171999GF109991091999001501999999MD1210631+9999MW1731
0081029700999991962021706004+60117+019900FM-12+000399999V0203601N00771002401CN0100001N9-00221-00281096691ADDAA199007091AY171999GF108991081071002501999999KA1999N-00221MD1210781+9999MW1221
0057029700999991962021709004+60117+019900FM-12+000399999V0203601N00931002401CN0020001N9-00391-00611097351ADDAY171999GF108991081071002501999999MD1210661+9999MW1711
0057029700999991962021712004+60117+019900FM-12+000399999V0203601N01031004501CN0020001N9-00501-00611097951ADDAY171999GF108991081071004501999999MD1210591+9999MW1731
0057029700999991962021715004+60117+019900FM-12+000399999V0203501N01131004501CN0030001N9-00611-00721098571ADDAY171999GF108991081071004501999999MD1210621+9999MW1731
0081029700999991962021718004+60117+019900FM-12+000399999V0200201N01131004501CN0025001N9-00611-00781099071ADDAA199002091AY171999GF108991081071004501999999KA1999M-00221MD1210501+9999MW1711
0057029700999991962021721004+60117+019900FM-12+000399999V0200201N01031004501CN0040001N9-00611-00891099491ADDAY171999GF108991081071004501999999MD1210421+9999MW1361
0057029700999991962021800004+60117+019900FM-12+000399999V0203601N01031002401CN0015001N9-00611-00891099851ADDAY131999GF108991081999002501999999MD1210361+9999MW1701
0057029700999991962021803004+60117+019900FM-12+000399999V0203501N00931004501CN0020001N9-00611-00891100221ADDAY171999GF108991081071004501999999MD1210371+9999MW1711
0081029700999991962021806004+60117+019900FM-12+000399999V0203601N00931004501CN0040001N9-00611-00781100581ADDAA199000591AY171999GF108991081071004501999999KA1999N-00721MD1210361+9999MW1711
0057029700999991962021809004+60117+019900FM-12+000399999V0203601N00821004501CN0035001N9-00501-00721100841ADDAY171999GF107991071051004501999999MD1110261+9999MW1731
0057029700999991962021812004+60117+019900FM-12+000399999V0203501N00771004501CN0080001N9-00501-00721101091ADDAY171999GF107991071051004501999999MD1210251+9999MW1711
0057029700999991962021815004+60117+019900FM-12+000399999V0203401N00671004501CN0100001N9-00501-00781101301ADDAY171999GF107991051051004501071999MD1210211+9999MW1711
0081029700999991962021818004+60117+019900FM-12+000399999V0203301N00151220001CN0200001N9-00721-01001101351ADDAA199002091AY171999GF103991031051004501041999KA1999M-00391MD1510051+9999MW1011
0057029700999991962021821004+60117+019900FM-12+000399999V0209991C00001220001CN0300001N9-01501-01611101301ADDAY101999GF101991011051004501041999MD1710051+9999MW1011
0057029700999991962021900004+60117+019900FM-12+000399999V0209991C00001220001CN0300001N9-01611-01781101271ADDAY101999GF101991011001999999041001MD1610031+9999MW1021
0057029700999991962021903004+60117+019900FM-12+000399999V0209991C00001220001CN0300001N9-01391-01611101111ADDAY101999GF103991031001999999031001MD1710161+9999MW1031
0070029700999991962021906004+60117+019900FM-12+000399999V0209991C00001024001CN0300001N9-00891-01001100991ADDAY121999GF107991071001999999071999KA1999N-01611MD1710121+9999MW1021
0057029700999991962021909004+60117+019900FM-12+000399999V0202101N00671004501CN0300001N9-00111-00391100931ADDAY121999GF108991051051004501071999MD1610061+9999MW1701
0057029700999991962021912004+60117+019900FM-12+000399999V0201801N00721002401CN0040001N9-00111-00111100771ADDAY171999GF108991051071002501021999MD1810061+9999MW1731
0057029700999991962021915004+60117+019900FM-12+000399999V0202101N00621002401CN0200001N9+00001-00111100671ADDAY171999GF108991081071002501999999MD1610101+9999MW1221
0081029700999991962021918004+60117+019900FM-12+000399999V0202301N00261001501CN0150001N9+00001-00111100631ADDAA199000691AY121999GF108991081071001501999999KA1999M+00001MD1710041+9999MW1021
0057029700999991962021921004+60117+019900FM-12+000399999V0202101N00411002401CN0200001N9+00001-00111100431ADDAY121999GF108991081071002501999999MD1810201+9999MW1011
0057029700999991962022000004+60117+019900FM-12+000399999V0202001N00511002401CN0250001N9+00001-00111100141ADDAY121999GF106991061071002501999999MD1710281+9999MW1011
0057029700999991962022003004+60117+019900FM-12+000399999V0202301N00511004501CN0250001N9+00001-00111099781ADDAY121999GF106991061051004501041999MD1710361+9999MW1021
0081029700999991962022006004+60117+019900FM-12+000399999V0202901N00361024001CN0350001N9+00001-00221099681ADDAA199000691AY121999GF105991051001999999031999KA1999N-00111MD1610101+9999MW1221
0057029700999991962022009004+60117+019900FM-12+000399999V0202901N00411030001CN0400001N9+00221-00111099751ADDAY121999GF107991031051008001031999MD1310071+9999MW1031
0076029700999991962022015004+60117+019900FM-12+000399999V0203401N01541001501CN0008001N9-00111-00221100601ADDAY171999GF108991081091001501999999MD1210592+9999MW1681EQDQ01+000592APC3  
0081029700999991962022018004+60117+019900FM-12+000399999V0203501N01541004501CN0250001N9-00281-00611101091ADDAA199000591AY121999GF108991081051004501999999KA1999M+00281MD1210491+9999MW1361
0057029700999991962022021004+60117+019900FM-12+000399999V0203601N01441007801CN0100001N9-00501-00721101581ADDAY171999GF108991081051008001999999MD1210491+9999MW1711
0057029700999991962022100004+60117+019900FM-12+000399999V0203601N01541007801CN0250001N9-00501-00721102051ADDAY171999GF108991081051008001999999MD1210471+9999MW1021
0057029700999991962022103004+60117+019900FM-12+000399999V0200101N01341007801CN0040001N9-00501-00721102531ADDAY171999GF108991051051008001071999MD1210481+9999MW1711
0081029700999991962022106004+60117+019900FM-12+000399999V0200101N00871007801CN0120001N9-00391-00721103021ADDAA199000391AY121999GF108991061051008001071999KA1999N-00611MD1210491+9999MW1021
0057029700999991962022109004+60117+019900FM-12+000399999V0200101N00771220001CN0250001N9-00611-00891103311ADDAY121999GF104991041051004501001001MD1210291+9999MW1011
0057029700999991962022112004+60117+019900FM-12+000399999V0200201N00721004501CN0035001N9-00501-00721103601ADDAY121999GF107991071051004501999999MD1110291+9999MW1861
0057029700999991962022115004+60117+019900FM-12+000399999V0200201N00621220001CN0200001N9-00721-01001103871ADDAY171999GF102991011051004501001011MD1310271+9999MW1021
0081029700999991962022118004+60117+019900FM-12+000399999V0200301N00311220001CN0250001N9-00781-01111104201ADDAA199000691AY111999GF104991031051004501001011KA1999M-00391MD1210331+9999MW1001
0057029700999991962022121004+60117+019900FM-12+000399999V0200301N00211220001CN0400001N9-00891-01221104411ADDAY101999GF100991001001999999001001MD1210211+9999MW1021
0057029700999991962022200004+60117+019900FM-12+000399999V0200201N00311220001CN0400001N9-01221-01391104551ADDAY101999GF100991001001999999001001MD1210141+9999MW1021
0057029700999991962022203004+60117+019900FM-12+000399999V0209991C00001220001CN0400001N9-00611-01611104681ADDAY101999GF100991001001999999001001MD1210131+9999MW1021
0070029700999991962022206004+60117+019900FM-12+000399999V0200301N00211220001CN0400001N9-01221-01281104771ADDAY101999GF102991001001999999001011KA1999N-01721MD1210091+9999MW1021
0057029700999991962022212004+60117+019900FM-12+000399999V0200301N00411220001CN0400001N9-00281-01001104871ADDAY101999GF100991001001999999001001MD1310041+9999MW1041
0057029700999991962022215004+60117+019900FM-12+000399999V0200201N00461220001CN0400001N9-00391-01001104821ADDAY101999GF100991001001999999001001MD1610051+9999MW1021
0070029700999991962022218004+60117+019900FM-12+000399999V0200101N00211220001CN0400001N9-00891-01001104811ADDAY101999GF100991001001999999001001KA1999M-00281MD1710011+9999MW1021
0057029700999991962022221004+60117+019900FM-12+000399999V0200501N00151220001CN0400001N9-01281-01281104781ADDAY101999GF100991001001999999001001MD1710031+9999MW1021
0057029700999991962022300004+60117+019900FM-12+000399999V0200501N00151220001CN0400001N9-01611-01721104691ADDAY101999GF100991001001999999001001MD1710091+9999MW1021
0057029700999991962022303004+60117+019900FM-12+000399999V0209991C00001220001CN0400001N9-01721-01781104591ADDAY101999GF100991001001999999001001MD1710101+9999MW1021
0070029700999991962022306004+60117+019900FM-12+000399999V0200501N00151220001CN0300001N9-01721-01781104451ADDAY101999GF107991001001999999001011KA1999N-01781MD1710141+9999MW1031
0057029700999991962022309004+60117+019900FM-12+000399999V0200401N001019999999N0100001N9-01111-01221104401ADDAY111999GF106991021071999999041999MD1710051+9999MW1041
0057029700999991962022312004+60117+019900FM-12+000399999V0200301N00211220001CN0150001N9-00221-00281104291ADDAY101999GF102991011071002501031091MD1610111+9999MW1041
0057029700999991962022315004+60117+019900FM-12+000399999V0203601N00461220001CN0200001N9-00111-00281104191ADDAY101999GF101991011061002501041001MD1610101+9999MW1021
0070029700999991962022318004+60117+019900FM-12+000399999V0200201N00511000601CN0050001N9-00221-00221104051ADDAY121999GF107991071071000751999999KA1999M+00001MD1710141+9999MW1021
0057029700999991962022321004+60117+019900FM-12+000399999V0200301N00721001501CN0030001N9-00281-00281104121ADDAY121999GF108991081071001501999999MD1210071+9999MW1101
0057029700999991962022400004+60117+019900FM-12+000399999V0200201N00511220001CN0150001N9-00501-00611104161ADDAY121999GF104991041061002501001001MD1210041+9999MW1011
0057029700999991962022403004+60117+019900FM-12+000399999V0200201N00511220001CN0300001N9-00611-00721104151ADDAY111999GF103991001001999999001011MD1710011+9999MW1021
0070029700999991962022406004+60117+019900FM-12+000399999V0200301N00411220001CN0200001N9-00611-00891104221ADDAY101999GF101991011001999999041001KA1999N-00721MD1110071+9999MW1041
0057029700999991962022409004+60117+019900FM-12+000399999V0200601N00511220001CN0300001N9-00611-00781104391ADDAY101999GF101991001001999999001011MD1110171+9999MW1021
0057029700999991962022412004+60117+019900FM-12+000399999V0200601N00511220001CN0400001N9-00391-00781104361ADDAY101999GF101991001001999999001011MD1610031+9999MW1021
0057029700999991962022415004+60117+019900FM-12+000399999V0200501N00511220001CN0400001N9-00391-00781104391ADDAY101999GF101991001001999999001011MD1210031+9999MW1011
0070029700999991962022418004+60117+019900FM-12+000399999V0200401N00311220001CN0300001N9-00611-00781104421ADDAY101999GF100991001001999999001001KA1999M-00281MD1110031+9999MW1021
0057029700999991962022421004+60117+019900FM-12+000399999V0200501N00261004501CN0300001N9-00501-00721104511ADDAY111999GF105991051051004501999999MD1310091+9999MW1031
0057029700999991962022500004+60117+019900FM-12+000399999V0200501N00311004501CN0300001N9-00501-00611104451ADDAY121999GF108991081051004501999999MD1810061+9999MW1021
0070029700999991962022506004+60117+019900FM-12+000399999V0200601N00511002401CN0050001N9-00501-00611104351ADDAY121999GF108991081071002501999999KA1999N-00611MD1710021+9999MW1021
0057029700999991962022509004+60117+019900FM-12+000399999V0200401N00311001501CN0050001N9-00611-00721104311ADDAY121999GF108991081071001501999999MD1610041+9999MW1701
0057029700999991962022512004+60117+019900FM-12+000399999V0200201N00311002401CN0050001N9-00391-00501104251ADDAY171999GF108991081071002501999999MD1810061+9999MW1711
0057029700999991962022515004+60117+019900FM-12+000399999V0200601N00311004501CN0050001N9-00391-00611104171ADDAY171999GF108991081071004501999999MD1510081+9999MW1771
0081029700999991962022518004+60117+019900FM-12+000399999V0200301N00211004501CN0050001N9-00501-00611104181ADDAA199000691AY171999GF108991081071004501999999KA1999M-00281MD1210011+9999MW1771
0057029700999991962022521004+60117+019900FM-12+000399999V0200101N00211004501CN0100001N9-00501-00611104201ADDAY121999GF108991081051004501999999MD1210021+9999MW1021
0057029700999991962022600004+60117+019900FM-12+000399999V0200401N00211004501CN0100001N9-00391-00501104161ADDAY121999GF108991081051004501999999MD1710041+9999MW1021
0057029700999991962022603004+60117+019900FM-12+000399999V0200301N00211004501CN0100001N9-00391-00501104101ADDAY121999GF108991081051004501999999MD1710061+9999MW1021
0081029700999991962022606004+60117+019900FM-12+000399999V0203601N00311002401CN0070001N9-00391-00501104031ADDAA199000691AY121999GF108991081061002501999999KA1999N-00501MD1710071+9999MW1021
0057029700999991962022615004+60117+019900FM-12+000399999V0200501N00311004501CN0100001N9-00391-00611103751ADDAY171999GF108991071061004501001061MD1710141+9999MW1221
0081029700999991962022618004+60117+019900FM-12+000399999V0200401N00261004501CN0200001N9-00501-00611103671ADDAA199000691AY121999GF108991081051004501999999KA1999M-00281MD1510081+9999MW1021
0057029700999991962022621004+60117+019900FM-12+000399999V0200501N00511004501CN0200001N9-00611-00781103591ADDAY121999GF108991081051004501999999MD1710081+9999MW1021
0057029700999991962022700004+60117+019900FM-12+000399999V0200501N00311004501CN0200001N9-00611-00781103601ADDAY121999GF108991081051004501999999MD1610011+9999MW1021
0057029700999991962022703004+60117+019900FM-12+000399999V0200701N00311004501CN0200001N9-00611-00781103481ADDAY121999GF108991081051004501999999MD1710121+9999MW1021
0070029700999991962022706004+60117+019900FM-12+000399999V0200501N00311004501CN0200001N9-00721-00781103411ADDAY121999GF108991081051004501999999KA1999N-00721MD1710071+9999MW1021
0057029700999991962022709004+60117+019900FM-12+000399999V0200401N00261002401CN0070001N9-00721-00781103371ADDAY171999GF108991081071002501999999MD1710041+9999MW1711
0057029700999991962022712004+60117+019900FM-12+000399999V0200401N00151004501CN0100001N9-00611-00781103291ADDAY171999GF108991081051004501999999MD1810081+9999MW1711
0057029700999991962022715004+60117+019900FM-12+000399999V0200501N00051004501CN0200001N9-00721-00891103071ADDAY171999GF108991081051004501999999MD1810221+9999MW1221
0081029700999991962022718004+60117+019900FM-12+000399999V0203401N00151004501CN0200001N9-00721-00891102921ADDAA199000691AY121999GF108991081051004501999999KA1999M-00611MD1710151+9999MW1021
0057029700999991962022721004+60117+019900FM-12+000399999V0209991C00001220001CN0250001N9-01221-01281102781ADDAY121999GF102991021051008001999999MD1710141+9999MW1011
0057029700999991962022800004+60117+019900FM-12+000399999V0209991C00001220001CN0250001N9-01501-01611102541ADDAY101999GF102991021051008001999999MD1710241+9999MW1021
0057029700999991962022803004+60117+019900FM-12+000399999V0209991C00001220001CN0250001N9-01281-01391102241ADDAY101999GF103991011051008001041001MD1710301+9999MW1031
0070029700999991962022806004+60117+019900FM-12+000399999V0202701N00211075001CN0250001N9-01281-01501101901ADDAY111999GF106991021001999999041051KA1999N-01611MD1710341+9999MW1031
0057029700999991962022809004+60117+019900FM-12+000399999V0202601N00411030001CN0350001N9-00501-00781101681ADDAY121999GF107991011051008001011061MD1710221+9999MW1031
0057029700999991962022812004+60117+019900FM-12+000399999V0202201N00511220001CN0400001N9-00221-00721101411ADDAY121999GF106991031001999999041061MD1710271+9999MW1021
0057029700999991962022815004+60117+019900FM-12+000399999V0202801N00411030001CN0300001N9-00221-00721101261ADDAY171999GF106991031051017501041021MD1710271+9999MW1221
0081029700999991962022818004+60117+019900FM-12+000399999V0203001N00411220001CN0400001N9-00221-00501101221ADDAA199000591AY101999GF103991031001999999031001KA1999M-00111MD1610041+9999MW1031
0057029700999991962022821004+60117+019900FM-12+000399999V0203501N00361220001CN0300001N9-00391-00611101231ADDAY121999GF104991041001999999031001MD1310011+9999MW1011
0057029700999991962030100004+60117+019900FM-12+000399999V0200201N00411220001CN0300001N9-00501-00721101351ADDAY101999GF102991021001999999041001MD1210121+9999MW1021
0057029700999991962030103004+60117+019900FM-12+000399999V0209991C00001220001CN0300001N9-01221-01221101351ADDAY101999GF100991001001999999001001MD1410001+9999MW1021
0070029700999991962030106004+60117+019900FM-12+000399999V0209991C00001220001CN0400001N9-01281-01501101311ADDAY111999GF103991011001999999041011KA1999N-01391MD1710041+9999MW1011
0057029700999991962030109004+60117+019900FM-12+000399999V0200301N00051220001CN0400001N9-00611-00781101221ADDAY111999GF104991021001999999041011MD1710091+9999MW1021
0057029700999991962030112004+60117+019900FM-12+000399999V0202201N00721004501CN0450001N9-00221-00501101121ADDAY121999GF107991061051004501071061MD1710191+9999MW1021
0057029700999991962030115004+60117+019900FM-12+000399999V0202301N00621030001CN0450001N9-00111-00391100961ADDAY121999GF107991031051004501041061MD1710161+9999MW1031
0081029700999991962030118004+60117+019900FM-12+000399999V0202301N00051030001CN0400001N9-00221-00281100871ADDAA199000691AY171999GF107991041051004501041999KA1999M-00111MD1710091+9999MW1711
0057029700999991962030121004+60117+019900FM-12+000399999V0209991C00001030001CN0400001N9-00501-00611100801ADDAY121999GF106991031051008001041999MD1710071+9999MW1031
0057029700999991962030200004+60117+019900FM-12+000399999V0209991C00001220001CN0300001N9-00611-00611100761ADDAY121999GF104991041051004501001001MD1710041+9999MW1701
0057029700999991962030203004+60117+019900FM-12+000399999V0200601N00101220001CN0300001N9-00501-00501100671ADDAY171999GF104991041051004501001001MD1710091+9999MW1711
0081029700999991962030206004+60117+019900FM-12+000399999V0200801N00311004501CN0040001N9-00391-00501100651ADDAA199000391AY171999GF108991061051004501071999KA1999N-00721MD1610021+9999MW1711
0057029700999991962030209004+60117+019900FM-12+000399999V0200701N00361030001CN0045001N9-00501-00611100631ADDAY171999GF108991031051008001011999MD1510021+9999MW1711
0057029700999991962030212004+60117+019900FM-12+000399999V0200801N00511002401CN0070001N9-00501-00611100601ADDAY171999GF108991061051002501021999MD1810031+9999MW1711
0057029700999991962030215004+60117+019900FM-12+000399999V0200701N00571002401CN0040001N9-00501-00611100551ADDAY171999GF108991081071002501999999MD1610051+9999MW1731
0081029700999991962030218004+60117+019900FM-12+000399999V0200601N00621001501CN0060001N9-00501-00611100581ADDAA199002091AY171999GF108991081071001501999999KA1999M-00391MD1110031+9999MW1711
0057029700999991962030221004+60117+019900FM-12+000399999V0201301N00411002401CN0060001N9-00281-00391100651ADDAY171999GF108991081071002501999999MD1310071+9999MW1711
0057029700999991962030300004+60117+019900FM-12+000399999V0200801N00411220001CN0300001N9-00611-00721100741ADDAY181999GF100991001001999999001001MD1210091+9999MW1261
0057029700999991962030303004+60117+019900FM-12+000399999V0200801N00411220001CN0300001N9-00721-00781100781ADDAY101999GF102991021001999999041001MD1310041+9999MW1031
0081029700999991962030306004+60117+019900FM-12+000399999V0200701N00511030001CN0300001N9-00721-00781100881ADDAA199001091AY121999GF107991011051004501041999KA1999N-00721MD1210101+9999MW1031
0057029700999991962030309004+60117+019900FM-12+000399999V0200701N00511030001CN0300001N9-00721-00781100971ADDAY121999GF107991031051004501031011MD1210091+9999MW1021
0057029700999991962030312004+60117+019900FM-12+000399999V0200701N00621015001CN0150001N9-00611-00721100991ADDAY171999GF107991061051017501031999MD1110021+9999MW1711
0057029700999991962030315004+60117+019900FM-12+000399999V0200701N00511075001CN0150001N9-00721-00781100951ADDAY171999GF105991021051012501071011MD1810041+9999MW1711
0081029700999991962030318004+60117+019900FM-12+000399999V0200701N00461220001CN0250001N9-00891-01111100991ADDAA199000591AY121999GF104991021051008001041001KA1999M-00501MD1110041+9999MW1011
0057029700999991962030321004+60117+019900FM-12+000399999V0200601N00511220001CN0250001N9-01001-01221100941ADDAY101999GF101991011001999999041001MD1810051+9999MW1011
0057029700999991962030400004+60117+019900FM-12+000399999V0200601N00511220001CN0250001N9-01221-01391100901ADDAY101999GF103991031001999999041001MD1710041+9999MW1031
0057029700999991962030403004+60117+019900FM-12+000399999V0200601N00211220001CN0250001N9-01391-01611100791ADDAY101999GF100991001001999999001001MD1710111+9999MW1011
0070029700999991962030406004+60117+019900FM-12+000399999V0200301N00151024001CN0250001N9-01391-01501100691ADDAY121999GF106991061001999999051051KA1999N-01391MD1710101+9999MW1031
0057029700999991962030409004+60117+019900FM-12+000399999V0200501N00261220001CN0300001N9-01111-01281100621ADDAY101999GF100991001001999999001001MD1610071+9999MW1021
0057029700999991962030412004+60117+019900FM-12+000399999V0200301N00311220001CN0350001N9-00891-01221100601ADDAY101999GF100991001001999999001001MD1710021+9999MW1021
0057029700999991962030415004+60117+019900FM-12+000399999V0200801N00311220001CN0300001N9-00781-01111100501ADDAY101999GF101991001001999999001011MD1610101+9999MW1021
0070029700999991962030418004+60117+019900FM-12+000399999V0200401N00101220001CN0300001N9-01391-01501100461ADDAY101999GF100991001001999999001001KA1999M-00721MD1710041+9999MW1021
0057029700999991962030421004+60117+019900FM-12+000399999V0209991C00001220001CN0250001N9-01781-01891100501ADDAY101999GF100991001001999999001001MD1510041+9999MW1021
0057029700999991962030500004+60117+019900FM-12+000399999V0209991C00001220001CN0250001N9-02001-02111100541ADDAY101999GF100991001001999999001001MD1310041+9999MW1021
0057029700999991962030503004+60117+019900FM-12+000399999V0209991C00001220001CN0250001N9-02221-02281100551ADDAY101999GF100991001001999999001001MD1110011+9999MW1021
0070029700999991962030506004+60117+019900FM-12+000399999V0209991C00001220001CN0250001N9-01281-02391100591ADDAY101999GF100991001001999999001001KA1999N-02281MD1310041+9999MW1021
0057029700999991962030509004+60117+019900FM-12+000399999V0209991C00001220001CN0150001N9-01391-01611100691ADDAY101999GF100991001001999999001001MD1210101+9999MW1051
0057029700999991962030512004+60117+019900FM-12+000399999V0201401N00311220001CN0200001N9-00611-00891100761ADDAY101999GF100991001001999999001001MD1210071+9999MW1051
0057029700999991962030515004+60117+019900FM-12+000399999V0201401N00151220001CN0250001N9-00721-01001100801ADDAY101999GF101991011051004501001001MD1110041+9999MW1051
0070029700999991962030518004+60117+019900FM-12+000399999V0209991C00001220001CN0250001N9-01501-01611100901ADDAY101999GF100991001001999999001001KA1999M-00611MD1210101+9999MW1011
0057029700999991962030521004+60117+019900FM-12+000399999V0209991C00001220001CN0250001N9-01781-01891101031ADDAY101999GF100991001001999999001001MD1210131+9999MW1021
0057029700999991962030600004+60117+019900FM-12+000399999V0201401N00101220001CN0250001N9-02001-02111101071ADDAY101999GF100991001001999999001001MD1210041+9999MW1021
0057029700999991962030603004+60117+019900FM-12+000399999V0201401N00101220001CN0250001N9-02001-02221101071ADDAY101999GF100991001001999999001001MD1410001+9999MW1021
0070029700999991962030606004+60117+019900FM-12+000399999V0201401N00151220001CN0150001N9-02111-02221101141ADDAY101999GF101991011001999999041011KA1999N-02221MD1210071+9999MW1021
0057029700999991962030609004+60117+019900FM-12+000399999V0200201N00261220001CN0100001N9-01221-01281101141ADDAY101999GF103991001001999999001011MD1410001+9999MW1041
0057029700999991962030612004+60117+019900FM-12+000399999V0200401N00361075001CN0100001N9-00781-01111101121ADDAY121999GF107991011051004501001061MD1710021+9999MW1021
0057029700999991962030615004+60117+019900FM-12+000399999V0200201N004119999999N0150001N9-00891-01221101091ADDAY121999GF107991011001004501041061MD1610031+9999MW1021
0070029700999991962030618004+60117+019900FM-12+000399999V0200101N00261220001CN0200001N9-01281-01281101141ADDAY101999GF100991001001999999001001KA1999M-00781MD1210051+9999MW1021
0057029700999991962030621004+60117+019900FM-12+000399999V0203601N00361220001CN0250001N9-01721-01781101251ADDAY101999GF100991001001999999001001MD1210111+9999MW1021
0057029700999991962030700004+60117+019900FM-12+000399999V0203601N00361220001CN0250001N9-01781-02111101391ADDAY101999GF100991001001999999001001MD1210141+9999MW1021
0057029700999991962030703004+60117+019900FM-12+000399999V0203401N00211220001CN0250001N9-01781-01891101511ADDAY101999GF100991001001999999001001MD1210121+9999MW1021
0070029700999991962030706004+60117+019900FM-12+000399999V0209991C00001220001CN0350001N9-02001-02221101721ADDAY101999GF101991011001999999041001KA1999N-02221MD1210211+9999MW1031
0057029700999991962030709004+60117+019900FM-12+000399999V0209991C00001220001CN0400001N9-01221-01281101901ADDAY101999GF102991011001999999041041MD1210181+9999MW1031
0057029700999991962030712004+60117+019900FM-12+000399999V0203101N00151220001CN0500001N9-00281-01221101981ADDAY101999GF102991001001999999001011MD1110081+9999MW1031
0057029700999991962030715004+60117+019900FM-12+000399999V0202501N00261220001CN0500001N9-00391-01111102031ADDAY101999GF101991001001999999001011MD1110051+9999MW1011
0070029700999991962030718004+60117+019900FM-12+000399999V0209991C00001220001CN0400001N9-01501-01611102121ADDAY101999GF100991001001999999001001KA1999M-00221MD1210091+9999MW1021
0057029700999991962030721004+60117+019900FM-12+000399999V0209991C00001220001CN0400001N9-01721-01781102161ADDAY101999GF100991001001999999001001MD1210041+9999MW1021
0057029700999991962030800004+60117+019900FM-12+000399999V0209991C00001220001CN0400001N9-01721-01781102121ADDAY101999GF100991001001999999001001MD1810041+9999MW1021
0057029700999991962030803004+60117+019900FM-12+000399999V0209991C00001024001CN0300001N9-01221-01281102041ADDAY111999GF107991071001999999031999MD1710081+9999MW1031
0070029700999991962030806004+60117+019900FM-12+000399999V0202501N00101024001CN0100001N9-01111-01221102021ADDAY121999GF106991051001999999071061KA1999N-01781MD1810021+9999MW1021
0057029700999991962030809004+60117+019900FM-12+000399999V0209991C00001220001CN0100001N9-00721-00781102111ADDAY111999GF102991011011008001001021MD1310091+9999MW1051
0057029700999991962030812004+60117+019900FM-12+000399999V0201901N00411220001CN0250001N9-00281-00611102191ADDAY101999GF101991001001999999001011MD1210081+9999MW1021
0057029700999991962030815004+60117+019900FM-12+000399999V0202001N00311220001CN0200001N9-00501-00721102251ADDAY101999GF101991001001999999001011MD1210061+9999MW1051
0070029700999991962030818004+60117+019900FM-12+000399999V0202001N00051220001CN0250001N9-01221-01281102321ADDAY101999GF101991011001004501091001KA1999M-00221MD1210071+9999MW1021
0057029700999991962030821004+60117+019900FM-12+000399999V0202001N00101220001CN0200001N9-00721-00781102361ADDAY101999GF104991041001999999051999MD1210041+9999MW1031
0057029700999991962030900004+60117+019900FM-12+000399999V0209991C00001220001CN0200001N9-01281-01281102401ADDAY101999GF100991001001999999001001MD1210041+9999MW1021
0049029700999991962030903004+60117+019900FM-12+000399999V0209991C00001220001CN0200001N9-01391-01501102401ADDGF100991001001999999001001MD1410001+9999MW1021
0070029700999991962030906004+60117+019900FM-12+000399999V0209991C00001220001CN0200001N9-01501-01501102381ADDAY101999GF103991001001999999001011KA1999N-01611MD1810021+9999MW1111
0057029700999991962030909004+60117+019900FM-12+000399999V0202001N00411220001CN0300001N9-00391-00611102431ADDAY121999GF107991001001999999001071MD1210051+9999MW1021
0057029700999991962030912004+60117+019900FM-12+000399999V0202101N00671075001CN0350001N9-00111-00391102361ADDAY121999GF108991011001999999041071MD1010071+9999MW1021
0057029700999991962030915004+60117+019900FM-12+000399999V0202001N00771024001CN0450001N9-00111-00281102251ADDAY121999GF108991061001999999071071MD1710111+9999MW1021
0070029700999991962030918004+60117+019900FM-12+000399999V0201901N01031030001CN0400001N9-00111-00281102121ADDAY121999GF108991041051017501021999KA1999M-00111MD1710131+9999MW1021
0057029700999991962030921004+60117+019900FM-12+000399999V0201801N01131030001CN0400001N9-00111-00391101931ADDAY121999GF107991031051012501021999MD1710191+9999MW1021
0057029700999991962031000004+60117+019900FM-12+000399999V0201701N01131030001CN0300001N9-00111-00391101581ADDAY121999GF108991031051008001021999MD1710351+9999MW1361
0057029700999991962031003004+60117+019900FM-12+000399999V0201701N01231030001CN0300001N9-00111-00281101331ADDAY131999GF107991031051008001031999MD1710251+9999MW1361
0070029700999991962031006004+60117+019900FM-12+000399999V0201901N01131004501CN0250001N9-00111-00281101051ADDAY131999GF108991061051004501071999KA1999N-00111MD1710281+9999MW1361
0057029700999991962031009004+60117+019900FM-12+000399999V0201901N00981004501CN0250001N9+00001-00221100871ADDAY131999GF108991081061004501999999MD1710181+9999MW1361
0057029700999991962031012004+60117+019900FM-12+000399999V0201901N00931002401CN0020001N9-00111-00111100721ADDAY171999GF108991081071002501999999MD1710151+9999MW1731
0057029700999991962031015004+60117+019900FM-12+000399999V0202101N00621002401CN0025001N9-00111-00111100631ADDAY171999GF108991081071002501999999MD1710091+9999MW1731
0081029700999991962031018004+60117+019900FM-12+000399999V0202101N00261001501CN0016001N9-00111-00111100491ADDAA199002091AY171999GF108991081071001501999999KA1999M+00001MD1710141+9999MW1731
0057029700999991962031021004+60117+019900FM-12+000399999V0203101N00261001501CN0020001N9-00221-00221100411ADDAY171999GF108991081071001501999999MD1610081+9999MW1731
0057029700999991962031100004+60117+019900FM-12+000399999V0200101N00511001501CN0020001N9-00221-00281100361ADDAY171999GF108991081071001501999999MD1610051+9999MW1731
0057029700999991962031103004+60117+019900FM-12+000399999V0203601N00771001501CN0035001N9-00391-00501100361ADDAY171999GF108991081071001501999999MD1410001+9999MW1731
0081029700999991962031106004+60117+019900FM-12+000399999V0203601N00821002401CN0100001N9-00611-00721100451ADDAA199003091AY171999GF107991071051002501999999KA1999N-00611MD1010091+9999MW1711
0057029700999991962031109004+60117+019900FM-12+000399999V0203601N00821002401CN0120001N9-00721-00781100581ADDAY131999GF108991081051002501999999MD1210131+9999MW1361
0057029700999991962031112004+60117+019900FM-12+000399999V0203601N01031004501CN0200001N9-00611-00781100711ADDAY121999GF106991061051004501001001MD1210131+9999MW1361
0057029700999991962031115004+60117+019900FM-12+000399999V0203501N00821220001CN0300001N9-00611-00891100841ADDAY111999GF103991031051008001001001MD1210131+9999MW1361
0081029700999991962031118004+60117+019900FM-12+000399999V0203501N00671007801CN0250001N9-00721-00891100951ADDAA199001091AY121999GF107991071051008001001001KA1999M-00501MD1310111+9999MW1851
0057029700999991962031121004+60117+019900FM-12+000399999V0203501N00571004501CN0250001N9-00721-00891101001ADDAY181999GF106991061051004501001001MD1210051+9999MW1851
0057029700999991962031200004+60117+019900FM-12+000399999V0203501N00511220001CN0300001N9-00891-01111101101ADDAY181999GF103991031051008001001001MD1210101+9999MW1261
0057029700999991962031203004+60117+019900FM-12+000399999V0203601N00151220001CN0300001N9-01781-02001101091ADDAY101999GF101991011051008001001001MD1810011+9999MW1011
0081029700999991962031206004+60117+019900FM-12+000399999V0203601N00051220001CN0400001N9-02001-02281101111ADDAA199000691AY111999GF104991011021008001001051KA1999N-02111MD1010021+9999MW1031
0057029700999991962031209004+60117+019900FM-12+000399999V0200201N00461220001CN0500001N9-00721-01002101151ADDAY101999GF102991011031004501001011MD1310041+9999MW1011
0057029700999991962031212004+60117+019900FM-12+000399999V0200301N00621220001CN0500001N9-00501-01001101121ADDAY101999GF104991021031004501001011MD1810031+9999MW1031
0057029700999991962031215004+60117+019900FM-12+000399999V0203601N00511075001CN0500001N9-00611-01111101101ADDAY111999GF105991011051008001001051MD1810021+9999MW1031
0070029700999991962031218004+60117+019900FM-12+000399999V0203601N00101220001CN0450001N9-01001-01221101121ADDAY111999GF104991011051008001001081KA1999M-00501MD1210021+9999MW1011
0057029700999991962031221004+60117+019900FM-12+000399999V0203601N00311220001CN0400001N9-01221-01281101141ADDAY101999GF102991001001999999001011MD1010021+9999MW1021
0057029700999991962031300004+60117+019900FM-12+000399999V0200201N00211220001CN0300001N9-01391-01391101141ADDAY101999GF100991001001999999001001MD1410001+9999MW1021
0057029700999991962031303004+60117+019900FM-12+000399999V0200201N00151220001CN0300001N9-01781-01781101061ADDAY101999GF102991001001999999001011MD1810081+9999MW1031
0070029700999991962031306004+60117+019900FM-12+000399999V0200301N00211220001CN0300001N9-01281-01391101021ADDAY121999GF106991031051004501001011KA1999N-01891MD1710041+9999MW1021
0057029700999991962031309004+60117+019900FM-12+000399999V0200201N00721220001CN0200001N9-00781-01111101031ADDAY171999GF105991041051004501001011MD1210011+9999MW1711
0057029700999991962031312004+60117+019900FM-12+000399999V0200101N00821004501CN0060001N9-00611-00891100951ADDAY171999GF107991051051004501001061MD1810081+9999MW1731
0057029700999991962031315004+60117+019900FM-12+000399999V0203601N00771075001CN0300001N9-00611-00891100921ADDAY171999GF107991011011004501001061MD1710031+9999MW1261
0081029700999991962031318004+60117+019900FM-12+000399999V0203501N00511220001CN0300001N9-00781-01111100901ADDAA199000691AY111999GF104991011011004501001011KA1999M-00611MD1710021+9999MW1021
0057029700999991962031321004+60117+019900FM-12+000399999V0203601N00511220001CN0300001N9-01001-01111100841ADDAY101999GF102991001001999999001011MD1710061+9999MW1011
0057029700999991962031400004+60117+019900FM-12+000399999V0203501N00411220001CN0300001N9-01281-01391100801ADDAY101999GF100991001001999999001001MD1710041+9999MW1011
0057029700999991962031403004+60117+019900FM-12+000399999V0200301N00411220001CN0300001N9-01611-01721100781ADDAY101999GF100991001001999999001001MD1710021+9999MW1021
0070029700999991962031406004+60117+019900FM-12+000399999V0203601N00311220001CN0300001N9-01611-01721100831ADDAY101999GF104991031081004501001011KA1999N-01781MD1210051+9999MW1031
0057029700999991962031409004+60117+019900FM-12+000399999V0200101N00621220001CN0300001N9-00781-01001100861ADDAY101999GF103991021051004501001011MD1210031+9999MW1021
0057029700999991962031412004+60117+019900FM-12+000399999V0203601N00621220001CN0500001N9-00721-01001100951ADDAY101999GF102991021051004501041001MD1210091+9999MW1021
0057029700999991962031415004+60117+019900FM-12+000399999V0203301N00571220001CN0500001N9-00721-01111101061ADDAY101999GF103991031011004501001001MD1210111+9999MW1021
0070029700999991962031418004+60117+019900FM-12+000399999V0203501N00101220001CN0450001N9-01501-01721101181ADDAY101999GF101991011051004501001001KA1999M-00611MD1210121+9999MW1021
0057029700999991962031421004+60117+019900FM-12+000399999V0209991C00001220001CN0500001N9-02001-02111101311ADDAY101999GF100991001001999999001001MD1110131+9999MW1021
0057029700999991962031500004+60117+019900FM-12+000399999V0209991C00001220001CN0005001N9-02221-02281101421ADDAY101999GF100991001001999999001001MD1210111+9999MW1401
0057029700999991962031503004+60117+019900FM-12+000399999V0209991C00001220001CN0400001N9-02281-02391101511ADDAY141999GF100991001001999999001001MD1210091+9999MW1021
0070029700999991962031506004+60117+019900FM-12+000399999V0209991C00001220001CN0300001N9-02221-02391101571ADDAY101999GF104991011051004501041051KA1999N-02281MD1210061+9999MW1031
0076029700999991962031509004+60117+019900FM-12+000399999V0202101N00721030001CN0400001N9-00392-00891101641ADDAY121999GF107991011011004501051011MD1210071+9999MW1021EQDQ01+026933ATOT  
0057029700999991962031512004+60117+019900FM-12+000399999V0202001N00721220001CN0500001N9-00281-00781101641ADDAY101999GF101991011011008001041001MD1410001+9999MW1031
0057029700999991962031515004+60117+019900FM-12+000399999V0202001N00771220001CN0400001N9-00281-00721101621ADDAY101999GF101991001001999999001021MD1810021+9999MW1021
0070029700999991962031518004+60117+019900FM-12+000399999V0202301N00621220001CN0400001N9-00281-00721101771ADDAY101999GF102991011001999999041021KA1999M-00221MD1310151+9999MW1021
0057029700999991962031521004+60117+019900FM-12+000399999V0202301N00721220001CN0400001N9-00281-00721101961ADDAY101999GF100991001001999999001001MD1210191+9999MW1021
0057029700999991962031600004+60117+019900FM-12+000399999V0202401N00311220001CN0300001N9-00611-00781102141ADDAY101999GF100991001001999999001001MD1210081+9999MW1021
0070029700999991962031606004+60117+019900FM-12+000399999V0202401N00311220001CN0400001N9-00721-00891102241ADDAY101999GF100991001001999999001001KA1999N-00721MD1210101+9999MW1021
0057029700999991962031609004+60117+019900FM-12+000399999V0202301N00621220001CN0350001N9-00281-00611102391ADDAY101999GF100991001001999999001001MD1210151+9999MW1021
0057029700999991962031612004+60117+019900FM-12+000399999V0202101N00721220001CN0400001N9-00111-00611102421ADDAY101999GF100991001001999999001001MD1210031+9999MW1021
0057029700999991962031615004+60117+019900FM-12+000399999V0202101N00511220001CN0400001N9-00111-00501102441ADDAY101999GF100991001001999999001001MD1210021+9999MW1021
0070029700999991962031618004+60117+019900FM-12+000399999V0202201N00511220001CN0400001N9-00391-00611102471ADDAY101999GF101991001001999999001011KA1999M+00001MD1210031+9999MW1021
0057029700999991962031621004+60117+019900FM-12+000399999V0202101N00311220001CN0400001N9-00721-00781102541ADDAY101999GF100991001001999999001001MD1110071+9999MW1021
0057029700999991962031700004+60117+019900FM-12+000399999V0209991C00001220001CN0006001N9-01281-01391102481ADDAY101999GF100991001001999999001001MD1810061+9999MW1411
0057029700999991962031703004+60117+019900FM-12+000399999V0209991C00001220001CN0005001N9-01611-01721102431ADDAY141999GF100991001001999999001001MD1710051+9999MW1481
0057029700999991962031709004+60117+019900FM-12+000399999V0203301N00511220001CN0500001N9-00111-00611102401ADDAY101999GF102991011001999999041011MD1210011+9999MW1021
0057029700999991962031712004+60117+019900FM-12+000399999V0203201N00461220001CN0450001N9+00001-00501102331ADDAY101999GF101991011051004501001011MD1710071+9999MW1021
0057029700999991962031715004+60117+019900FM-12+000399999V0203201N00511220001CN0500001N9-00111-00611102311ADDAY101999GF100991001001999999001001MD1710021+9999MW1011
0070029700999991962031718004+60117+019900FM-12+000399999V0203201N00211220001CN0500001N9-00501-00721102241ADDAY101999GF100991001001999999001001KA1999M+00001MD1710071+9999MW1021
0057029700999991962031721004+60117+019900FM-12+000399999V0203301N00311220001CN0500001N9-00611-00721102171ADDAY101999GF100991001001999999001001MD1710071+9999MW1021
0057029700999991962031800004+60117+019900FM-12+000399999V0203601N00621220001CN0400001N9-00281-00781102131ADDAY101999GF100991001001999999001001MD1710041+9999MW1021
0057029700999991962031803004+60117+019900FM-12+000399999V0203501N00721220001CN0400001N9-00781-00891102111ADDAY101999GF104991041051004501041001MD1710021+9999MW1031
0070029700999991962031806004+60117+019900FM-12+000399999V0203601N00411220001CN0450001N9-00781-01001102071ADDAY121999GF101991011051004501001001KA1999N-01001MD1710041+9999MW1011
0057029700999991962031809004+60117+019900FM-12+000399999V0203501N00771004501CN0400001N9-00501-00781102011ADDAY181999GF107991071051004501001001MD1710061+9999MW1361
0057029700999991962031812004+60117+019900FM-12+000399999V0203501N00871004501CN0400001N9-00391-00611101981ADDAY121999GF107991071051004501001001MD1710031+9999MW1851
0057029700999991962031815004+60117+019900FM-12+000399999V0203401N00771004501CN0450001N9-00281-00611101901ADDAY121999GF106991061051004501001001MD1710081+9999MW1021
0070029700999991962031818004+60117+019900FM-12+000399999V0203301N00211220001CN0450001N9-00721-00891101851ADDAY121999GF101991011051004501001001KA1999M-00281MD1810051+9999MW1021
0057029700999991962031821004+60117+019900FM-12+000399999V0203301N00101220001CN0500001N9-01391-01501101801ADDAY101999GF104991001001999999001011MD1710051+9999MW1031
0057029700999991962031900004+60117+019900FM-12+000399999V0209991C00001220001CN0400001N9-01721-01721101691ADDAY111999GF107991001001999999001061MD1710111+9999MW1031
0057029700999991962031903004+60117+019900FM-12+000399999V0209991C00001075001CN0400001N9-01001-01001101531ADDAY121999GF107991021001999999071061MD1710161+9999MW1021
0081029700999991962031906004+60117+019900FM-12+000399999V0202401N00361004501CN0400001N9-00611-00611101441ADDAA199000691AY171999GF108991081051004501999999KA1999N-01891MD1610091+9999MW1221
0057029700999991962031909004+60117+019900FM-12+000399999V0203401N00621004501CN0500001N9-00281-00611101461ADDAY121999GF106991061021004501041001MD1310021+9999MW1011
0057029700999991962031912004+60117+019900FM-12+000399999V0203401N00721220001CN0500001N9-00221-00611101481ADDAY111999GF104991041021008001001001MD1210021+9999MW1021
0057029700999991962031915004+60117+019900FM-12+000399999V0203301N00511220001CN0500001N9-00281-00721101521ADDAY101999GF102991021041008001001001MD1110041+9999MW1011
0081029700999991962031918004+60117+019900FM-12+000399999V0209991C00001220001CN0500001N9-00721-00891101571ADDAA199000691AY101999GF102991021051008001001001KA1999M-00111MD1310051+9999MW1021
0057029700999991962031921004+60117+019900FM-12+000399999V0209991C00001220001CN0050001N9-01501-01611101551ADDAY141999GF100991001001999999001001MD1510021+9999MW1401
0057029700999991962032000004+60117+019900FM-12+000399999V0209991C00001220001CN0200001N9-01721-01781101531ADDAY141999GF103991031001999999031001MD1810021+9999MW1111
0057029700999991962032003004+60117+019900FM-12+000399999V0209991C00001220001CN0300001N9-01721-01891101491ADDAY101999GF103991031001999999041011MD1710041+9999MW1021
