0057029700999991960010100004+60117+019900FM-12+000399999V0201701N00931004501CN0200001N9+00281+00001101301ADDAY121999GF108991081051004501999999MD1710201+9999MW1031
0057029700999991960010103004+60117+019900FM-12+000399999V0201701N01131002401CN0060001N9+00281+00221101081ADDAY161999GF108991081071002501999999MD1710291+9999MW1611
0081029700999991960010106004+60117+019900FM-12+000399999V0201701N01131002401CN0060001N9+00281+00281100911ADDAA199002091AY161999GF108991081071002501999999KA1999N+00111MD1710231+9999MW1631
0057029700999991960010109004+60117+019900FM-12+000399999V0201701N01031001501CN0060001N9+00391+00221100851ADDAY121999GF108991081071001501999999MD1510081+9999MW1021
0057029700999991960010112004+60117+019900FM-12+000399999V0201601N01231002401CN0080001N9+00391+00221100711ADDAY121999GF108991081071002501999999MD1710091+9999MW1021
0057029700999991960010115004+60117+019900FM-12+000399999V0202101N01291002401CN0070001N9+00391+00221100681ADDAY121999GF108991081071002501999999MD1510041+9999MW1601
0081029700999991960010118004+60117+019900FM-12+000399999V0201701N01031004501CN0080001N9+00391+00221100651ADDAA199002091AY121999GF108991081051004501999999KA1999M+00391MD1810041+9999MW1021
0057029700999991960010121004+60117+019900FM-12+000399999V0201701N01131004501CN0060001N9+00391+00221100751ADDAY121999GF108991081051004501999999MD1210131+9999MW1021
0057029700999991960010300004+60117+019900FM-12+000399999V0201501N00411004501CN0100001N9+00281+00221101931ADDAY151999GF108991081051004501999999MD1210191+9999MW1201
0057029700999991960010303004+60117+019900FM-12+000399999V0201301N00211004501CN0070001N9+00221+00221102081ADDAY151999GF108991081051004501999999MD1210211+9999MW1501
0081029700999991960010306004+60117+019900FM-12+000399999V0201501N00311002401CN0080001N9+00221+00111102191ADDAA199000691AY121999GF108991081071002501999999KA1999N+00221MD1210151+9999MW1021
0057029700999991960010309004+60117+019900FM-12+000399999V0201301N00211002401CN0050001N9+00221+00111102361ADDAY121999GF108991081071002501999999MD1210231+9999MW1021
0057029700999991960010312004+60117+019900FM-12+000399999V0201301N00311004501CN0060001N9+00221+00001102471ADDAY121999GF108991081051004501999999MD1210151+9999MW1021
0057029700999991960010315004+60117+019900FM-12+000399999V0201201N00211004501CN0060001N9+00111+00001102601ADDAY121999GF108991081051004501999999MD1210171+9999MW1021
0070029700999991960010318004+60117+019900FM-12+000399999V0201001N00101004501CN0060001N9+00111-00391102701ADDAY121999GF108991081051004501999999KA1999M+00221MD1210131+9999MW1021
0057029700999991960010321004+60117+019900FM-12+000399999V0201201N00621004501CN0060001N9+00111-00391102791ADDAY121999GF108991081051004501999999MD1210121+9999MW1021
0057029700999991960010400004+60117+019900FM-12+000399999V0201201N00101004501CN0060001N9+00111-00111102761ADDAY121999GF108991081051004501999999MD1210091+9999MW1021
0057029700999991960010403004+60117+019900FM-12+000399999V0201301N00621004501CN0060001N9+00111-00111102941ADDAY121999GF108991081051004501999999MD1210111+9999MW1021
0081029700999991960010406004+60117+019900FM-12+000399999V0201301N00211002401CN0050001N9+00001-00111103021ADDAA199000591AY121999GF108991081071002501999999KA1999N+00001MD1110111+9999MW1501
0076029700999991960010409004+60117+019900FM-12+000399999V0201201N00311004501CN0100001N9+00111-00111103041ADDAY121999GF108991999051004501071999MD1310031+9999MW1021EQDQ01+000082SCOTLC
0057029700999991960010412004+60117+019900FM-12+000399999V0202101N00511004501CN0200001N9+00221-00281103071ADDAY121999GF108991081051004501999999MD1110041+9999MW1021
0057029700999991960010415004+60117+019900FM-12+000399999V0202101N00361004501CN0150001N9+00111-00221103011ADDAY121999GF108991081051004501999999MD1710081+9999MW1021
0081029700999991960010418004+60117+019900FM-12+000399999V0202001N00461007801CN0150001N9+00221+00001102891ADDAA199000391AY121999GF108991081051008001999999KA1999M+00221MD1010161+9999MW1021
0057029700999991960010421004+60117+019900FM-12+000399999V0202001N00721007801CN0150001N9+00221-00221102751ADDAY121999GF108991081051008001999999MD1210191+9999MW1021
0057029700999991960010500004+60117+019900FM-12+000399999V0202001N00771004501CN0150001N9+00281+00001102561ADDAY121999GF108991081051004501999999MD1710251+9999MW1021
0057029700999991960010503004+60117+019900FM-12+000399999V0202101N00821004501CN0150001N9+00281+00221102291ADDAY121999GF108991081051004501999999MD1710361+9999MW1021
0070029700999991960010506004+60117+019900FM-12+000399999V0202001N00771002401CN0100001N9+00281+00221101981ADDAY121999GF108991081051002501999999KA1999N+00221MD1710311+9999MW1021
0076029700999991960010512004+60117+019900FM-12+000399999V0202001N00771001501CN0050001N9+00391+00281101301ADDAY161999GF108991081071001501999999MD1710552+9999MW1631EQDQ01+000552APC3  
0057029700999991960010515004+60117+019900FM-12+000399999V0202001N00821001501CN0060001N9+00391+00281100831ADDAY161999GF108991081071001501999999MD1710621+9999MW1631
0081029700999991960010518004+60117+019900FM-12+000399999V0201601N00871002401CN0060001N9+00221+00221100281ADDAA199014091AY161999GF108991081071002501999999KA1999M+00391MD1710731+9999MW1631
0057029700999991960010521004+60117+019900FM-12+000399999V0201901N00311002401CN0150001N9+00391+00281099781ADDAY161999GF108991081071002501999999MD1710671+9999MW1021
0057029700999991960010600004+60117+019900FM-12+000399999V0200301N00311000601CN0005001N9+00281+00281099511ADDAY161999GF108991081999000751999999MD1710361+9999MW1771
0057029700999991960010603004+60117+019900FM-12+000399999V0200201N00361004501CN0060001N9+00111+00001099431ADDAY171999GF108991081071004501999999MD1610111+9999MW1681
0081029700999991960010606004+60117+019900FM-12+000399999V0203501N00261002401CN0050001N9+00001-00391099601ADDAA199006091AY171999GF108991081071002501999999KA1999N+00001MD1310231+9999MW1681
0057029700999991960010609004+60117+019900FM-12+000399999V0203601N00771002401CN0035001N9+00111-00391099861ADDAY171999GF108991081071002501999999MD1210351+9999MW1691
0057029700999991960010612004+60117+019900FM-12+000399999V0203601N00721002401CN0060001N9+00111+00001100021ADDAY171999GF108991081071002501999999MD1210211+9999MW1681
0057029700999991960010615004+60117+019900FM-12+000399999V0200101N00771002401CN0100001N9+00001+00001100191ADDAY121999GF108991081071002501999999MD1210231+9999MW1021
0081029700999991960010618004+60117+019900FM-12+000399999V0203501N00721004501CN0060001N9+00111+00001100371ADDAA199001091AY121999GF108991081051004501999999KA1999M+00111MD1110241+9999MW1681
0057029700999991960010621004+60117+019900FM-12+000399999V0203401N00821007801CN0150001N9+00001-00221100471ADDAY121999GF108991081051008001999999MD1310131+9999MW1021
0057029700999991960010700004+60117+019900FM-12+000399999V0203401N00721007801CN0050001N9+00001-00281100561ADDAY171999GF108991081051008001999999MD1210121+9999MW1711
0057029700999991960010703004+60117+019900FM-12+000399999V0203501N00771012301CN0070001N9+00001-00221100631ADDAY171999GF108991081051012501999999MD1210091+9999MW1681
0081029700999991960010706004+60117+019900FM-12+000399999V0203601N00721007801CN0100001N9+00001-00281100781ADDAA199000591AY121999GF108991081051008001999999KA1999N+00001MD1210201+9999MW1021
0057029700999991960010709004+60117+019900FM-12+000399999V0203601N00621007801CN0100001N9-00111-00391100861ADDAY121999GF108991081051008001999999MD1210111+9999MW1021
0057029700999991960010712004+60117+019900FM-12+000399999V0203501N00621004501CN0400001N9-00111-00281100871ADDAY121999GF108991081051004501999999MD1010011+9999MW1021
0057029700999991960010715004+60117+019900FM-12+000399999V0203601N00671004501CN0300001N9-00281-00391100981ADDAY171999GF108991081051004501999999MD1310151+9999MW1701
0081029700999991960010718004+60117+019900FM-12+000399999V0200101N00821004501CN0100001N9-00391-00721101181ADDAA199000391AY171999GF108991081051004501999999KA1999M+00001MD1210271+9999MW1021
0057029700999991960010721004+60117+019900FM-12+000399999V0203601N00931004501CN0100001N9-00611-00891101431ADDAY121999GF106991061051004501999999MD1210331+9999MW1021
0057029700999991960010800004+60117+019900FM-12+000399999V0203601N00821004501CN0150001N9-00611-01001101571ADDAY121999GF108991061051004501999999MD1210191+9999MW1021
0057029700999991960010803004+60117+019900FM-12+000399999V0203601N00931220001CN0200001N9-00721-01111101671ADDAY121999GF100991001001999999001001MD1210131+9999MW1011
0070029700999991960010806004+60117+019900FM-12+000399999V0203601N00871220001CN0300001N9-00721-01391101701ADDAY101999GF101991011051004501001001KA1999N-00721MD1210041+9999MW1031
0057029700999991960010809004+60117+019900FM-12+000399999V0200101N01031220001CN0450001N9-00501-01001101741ADDAY101999GF102991021051004501001001MD1510051+9999MW1261
0057029700999991960010812004+60117+019900FM-12+000399999V0200101N01131220001CN0400001N9-00501-01111101751ADDAY111999GF104991031051004501041001MD1010011+9999MW1261
0057029700999991960010815004+60117+019900FM-12+000399999V0200101N01131220001CN0400001N9-00501-01221101851ADDAY101999GF102991021051004501041001MD1110351+9999MW1011
0070029700999991960010818004+60117+019900FM-12+000399999V0200101N00931220001CN0500001N9-00501-01221101971ADDAY101999GF100991001001999999001001KA1999M-00391MD1210161+9999MW1011
0057029700999991960010821004+60117+019900FM-12+000399999V0200101N00931220001CN0500001N9-00501-01221102081ADDAY101999GF100991001001999999001001MD1210151+9999MW1021
0057029700999991960010900004+60117+019900FM-12+000399999V0200201N01031220001CN0500001N9-00611-01221102211ADDAY121999GF100991001001999999001001MD1210171+9999MW1021
0057029700999991960010903004+60117+019900FM-12+000399999V0200101N01031220001CN0500001N9-00611-01221102291ADDAY121999GF100991001001999999001001MD1210111+9999MW1021
0070029700999991960010906004+60117+019900FM-12+000399999V0200201N00931220001CN0500001N9-00501-01221102481ADDAY101999GF100991001001999999001001KA1999N-00611MD1210251+9999MW1021
0057029700999991960010909004+60117+019900FM-12+000399999V0200101N00721220001CN0450001N9-00501-01221102611ADDAY101999GF102991021051008001001001MD1110171+9999MW1021
0057029700999991960010912004+60117+019900FM-12+000399999V0200201N00771220001CN0400001N9-00501-01111102611ADDAY101999GF101991011051008001001001MD1410001+9999MW1011
0057029700999991960010915004+60117+019900FM-12+000399999V0200201N00771004501CN0150001N9-00611-00781102571ADDAY181999GF105991051051004501001001MD1810051+9999MW1851
0081029700999991960010918004+60117+019900FM-12+000399999V0200201N00511220001CN0300001N9-00721-01111102601ADDAA199000691AY101999GF103991031051004501001001KA1999M-00501MD1010041+9999MW1011
0057029700999991960010921004+60117+019900FM-12+000399999V0200201N00101220001CN0400001N9-01001-01111102421ADDAY101999GF101991011051008001001001MD1710241+9999MW1021
0057029700999991960011000004+60117+019900FM-12+000399999V0209991C00001024001CN0400001N9-00781-00891102011ADDAY111999GF105991051001999999041001MD1710451+9999MW1031
0076029700999991960011003004+60117+019900FM-12+000399999V0202601N00311004501CN0020001N9-00501-00721101321ADDAY171999GF108991081071004501999999MD1710691+9999MW1731EQDQ01+000922APC3  
0092029700999991960011009004+60117+019900FM-12+000399999V0202401N00311002401CN0012001N9-00281-00391100072ADDAY171999GF108991081071002501999999MD1710792+9999MW1731EQDQ01+100073APOSLPQ02+000792APC3  
0057029700999991960011012004+60117+019900FM-12+000399999V0201901N00211001501CN0009001N9-00221-00281099561ADDAY171999GF108991081999001501999999MD1710681+9999MW1751
0057029700999991960011015004+60117+019900FM-12+000399999V0200901N00821001501CN0009001N9-00281-00281099761ADDAY171999GF108991081999001501999999MD1210271+9999MW1751
0100029700999991960011018004+60117+019900FM-12+000399999V0200401N01031001501CN0010001N9-00891-01001100521ADDAA199009091AY171999GF109991091999001501999999KA1999M-00221MD1210761+9999MW1731EQDQ01+000992APC3  
0057029700999991960011100004+60117+019900FM-12+000399999V0200201N00771004501CN0050001N9-01221-01501100951ADDAY121999GF108991081051004501999999MD1110071+9999MW1711
0057029700999991960011103004+60117+019900FM-12+000399999V0200201N00721004501CN0100001N9-01221-01391100881ADDAY171999GF108991081051004501999999MD1810091+9999MW1711
0081029700999991960011106004+60117+019900FM-12+000399999V0200201N00621004501CN0060001N9-00891-01111100801ADDAA199000391AY171999GF108991081051004501999999KA1999N-01281MD1710111+9999MW1711
0057029700999991960011109004+60117+019900FM-12+000399999V0200201N00821004501CN0015001N9-01001-01221100831ADDAY171999GF108991081051004501999999MD1310041+9999MW1731
0057029700999991960011112004+60117+019900FM-12+000399999V0200201N00721004501CN0020001N9-01221-01391100791ADDAY171999GF108991071051004501031999MD1710051+9999MW1731
0057029700999991960011115004+60117+019900FM-12+000399999V0200201N00621004501CN0035001N9-01281-01611100791ADDAY171999GF108991081051004501999999MD1410001+9999MW1701
0081029700999991960011118004+60117+019900FM-12+000399999V0200501N00511004501CN0035001N9-01281-01721100781ADDAA199000591AY171999GF107991071051004501999999KA1999M-00891MD1510011+9999MW1711
0057029700999991960011121004+60117+019900FM-12+000399999V0200401N00411004501CN0050001N9-01281-01611100911ADDAY121999GF106991061051004501001001MD1210171+9999MW1011
0057029700999991960011200004+60117+019900FM-12+000399999V0200201N00411004501CN0070001N9-01281-01611101031ADDAY121999GF106991061051004501001001MD1210161+9999MW1021
0057029700999991960011203004+60117+019900FM-12+000399999V0200601N00511004501CN0050001N9-01611-01611101131ADDAY121999GF108991081051004501999999MD1210131+9999MW1701
0081029700999991960011206004+60117+019900FM-12+000399999V0200401N00721004501CN0050001N9-01281-01501101311ADDAA199000691AY171999GF108991081051004501999999KA1999N-01721MD1210241+9999MW1711
0057029700999991960011209004+60117+019900FM-12+000399999V0200401N00511004501CN0080001N9-01221-01391101491ADDAY171999GF107991071051004501041999MD1210241+9999MW1711
0057029700999991960011212004+60117+019900FM-12+000399999V0200601N00311220001CN0100001N9-01221-01391101601ADDAY121999GF104991031051004501031999MD1210151+9999MW1011
0057029700999991960011215004+60117+019900FM-12+000399999V0200301N00211004501CN0080001N9-01111-01281101691ADDAY171999GF108991071051004501031999MD1210121+9999MW1711
0081029700999991960011218004+60117+019900FM-12+000399999V0200501N00151004501CN0100001N9-01111-01281101781ADDAA199000691AY121999GF108991081051004501999999KA1999M-01111MD1210121+9999MW1031
0057029700999991960011221004+60117+019900FM-12+000399999V0200401N00211075001CN0200001N9-01281-01391101981ADDAY171999GF107991031001999999041061MD1210271+9999MW1221
0057029700999991960011300004+60117+019900FM-12+000399999V0200401N00211075001CN0300001N9-01391-01501102091ADDAY111999GF105991021001999999041051MD1210151+9999MW1011
0057029700999991960011303004+60117+019900FM-12+000399999V0200301N00211220001CN0300001N9-01781-01891102211ADDAY101999GF103991011001999999041081MD1210161+9999MW1011
0081029700999991960011306004+60117+019900FM-12+000399999V0200201N00311220001CN0300001N9-01781-01891102321ADDAA199000691AY101999GF103991001001999999001011KA1999N-02001MD1210151+9999MW1031
0057029700999991960011312004+60117+019900FM-12+000399999V0200301N00511220001CN0200001N9-01221-01281102511ADDAY101999GF102991011051008001001011MD1110081+9999MW1021
0057029700999991960011315004+60117+019900FM-12+000399999V0200301N00311220001CN0250001N9-01221-01391102561ADDAY101999GF104991011051008001001051MD1210071+9999MW1021
0070029700999991960011318004+60117+019900FM-12+000399999V0200201N00311220001CN0250001N9-01221-01391102741ADDAY121999GF106991001001999999041081KA1999M-01221MD1210241+9999MW1011
0057029700999991960011321004+60117+019900FM-12+000399999V0200201N00311220001CN0300001N9-01391-01611102751ADDAY121999GF105991001001999999001081MD1110011+9999MW1011
0057029700999991960011400004+60117+019900FM-12+000399999V0200201N00511220001CN0300001N9-01281-01501102761ADDAY111999GF103991001001999999001051MD1110011+9999MW1011
0057029700999991960011403004+60117+019900FM-12+000399999V0200201N00571220001CN0300001N9-01281-01501102771ADDAY111999GF105991001001999999001051MD1310011+9999MW1031
0070029700999991960011406004+60117+019900FM-12+000399999V0200201N00621220001CN0300001N9-01391-01611102741ADDAY101999GF103991011001999999031081KA1999N-01391MD1810041+9999MW1011
0057029700999991960011409004+60117+019900FM-12+000399999V0200201N00621220001CN0350001N9-01391-01611102831ADDAY101999GF101991011051008001031011MD1310121+9999MW1031
0057029700999991960011412004+60117+019900FM-12+000399999V0200301N00621220001CN0350001N9-01221-01391102751ADDAY101999GF101991011001999999031011MD1710111+9999MW1021
0057029700999991960011415004+60117+019900FM-12+000399999V0200101N00411220001CN0300001N9-01391-01611102691ADDAY101999GF101991011001999999031001MD1710081+9999MW1021
0070029700999991960011418004+60117+019900FM-12+000399999V0200101N00101220001CN0300001N9-01611-01781102621ADDAY101999GF100991001001999999001001KA1999M-01221MD1710091+9999MW1021
0057029700999991960011421004+60117+019900FM-12+000399999V0203501N00311220001CN0300001N9-01891-02001102611ADDAY101999GF100991001001999999001001MD1610011+9999MW1021
0057029700999991960011500004+60117+019900FM-12+000399999V0200301N00101220001CN0350001N9-02001-02221102421ADDAY101999GF100991001001999999001001MD1810251+9999MW1021
0057029700999991960011503004+60117+019900FM-12+000399999V0209991C00001220001CN0350001N9-02221-02391102241ADDAY101999GF100991001001999999001001MD1710241+9999MW1021
0070029700999991960011506004+60117+019900FM-12+000399999V0209991C00001001501CN0100001N9-01611-01781101971ADDAY111999GF106991061061001501001001KA1999N-02281MD1710361+9999MW1021
0057029700999991960011509004+60117+019900FM-12+000399999V0209991C00001002401CN0025001N9-01221-01281101711ADDAY121999GF108991081051002501999999MD1710351+9999MW1101
0057029700999991960011512004+60117+019900FM-12+000399999V0202401N00461001501CN0060001N9-00501-00611101411ADDAY121999GF108991081061001501999999MD1710401+9999MW1021
0057029700999991960011515004+60117+019900FM-12+000399999V0202501N00571001501CN0300001N9-00391-00501101111ADDAY121999GF107991051061001501041999MD1710391+9999MW1021
0081029700999991960011518004+60117+019900FM-12+000399999V0203001N00311002401CN0050001N9-00391-00391100961ADDAA199000391AY171999GF108991081061002501999999KA1999M-00391MD1710211+9999MW1711
0057029700999991960011521004+60117+019900FM-12+000399999V0203601N00721002401CN0050001N9-00281-00391100911ADDAY121999GF108991081061002501999999MD1710071+9999MW1701
0057029700999991960011600004+60117+019900FM-12+000399999V0203501N00211004501CN0100001N9-00781-01221100991ADDAY121999GF107991071051004501999999MD1210111+9999MW1011
0081029700999991960011606004+60117+019900FM-12+000399999V0203201N00051220001CN0250001N9-01891-02111100891ADDAA199000391AY101999GF101991011051004501041001KA1999N-02001MD1810171+9999MW1011
0057029700999991960011609004+60117+019900FM-12+000399999V0203201N00051220001CN0060001N9-02001-02221100881ADDAY101999GF102991021051004501041011MD1710011+9999MW1411
0076029700999991960011612004+60117+019900FM-12+000399999V0202701N00311004501CN0200001N9-00612-00612100851ADDAY181999GF105991051051004501041001MD1710041+9999MW1261EQDQ01+026713ATOD  
0057029700999991960011615004+60117+019900FM-12+000399999V0202701N00261220001CN0200001N9-00721-00781100801ADDAY121999GF104991041051004501001001MD1610071+9999MW1021
0081029700999991960011618004+60117+019900FM-12+000399999V0202801N00311220001CN0250001N9-00781-00891100711ADDAA199001091AY101999GF101991011051004501001001KA1999M-00501MD1810121+9999MW1021
0057029700999991960011621004+60117+019900FM-12+000399999V0202701N00261220001CN0300001N9-01281-01281100681ADDAY101999GF101991011051004501001001MD1010041+9999MW1021
0057029700999991960011700004+60117+019900FM-12+000399999V0202901N00211220001CN0300001N9-01391-01501100601ADDAY101999GF101991011051004501001001MD1710111+9999MW1021
0057029700999991960011703004+60117+019900FM-12+000399999V0202601N00361004501CN0300001N9-00611-00721100581ADDAY101999GF107991071051004501999999MD1710051+9999MW1031
0070029700999991960011706004+60117+019900FM-12+000399999V0202701N00211220001CN0300001N9-00781-00781100591ADDAY101999GF101991011051004501001001KA1999N-01721MD1210041+9999MW1021
0057029700999991960011709004+60117+019900FM-12+000399999V0202401N00411220001CN0300001N9-00721-00781100561ADDAY121999GF104991041051004501041001MD1710041+9999MW1011
0057029700999991960011715004+60117+019900FM-12+000399999V0202401N00511220001CN0500001N9-00721-01001100441ADDAY101999GF104991011051004501041051MD1410001+9999MW1031
0070029700999991960011718004+60117+019900FM-12+000399999V0202301N00621004501CN0300001N9-00501-00611100411ADDAY121999GF106991061051004501999999KA1999M-00501MD1610041+9999MW1011
0057029700999991960011721004+60117+019900FM-12+000399999V0202301N00671004501CN0300001N9-00391-00611100381ADDAY111999GF105991051051004501041999MD1810041+9999MW1011
0057029700999991960011800004+60117+019900FM-12+000399999V0202401N00671004501CN0300001N9-00281-00611100401ADDAY111999GF107991051051004501041999MD1710031+9999MW1011
0057029700999991960011803004+60117+019900FM-12+000399999V0202201N00511030001CN0200001N9-00281-00781100241ADDAY121999GF108991031051004501011999MD1710211+9999MW1021
0081029700999991960011806004+60117+019900FM-12+000399999V0201801N01031004501CN0040001N9-00281-00611099951ADDAA199000391AY171999GF107991061051004501999999KA1999N-00501MD1710251+9999MW1711
0057029700999991960011809004+60117+019900FM-12+000399999V0201701N01341004501CN0020001N9-00281-00501099801ADDAY171999GF108991081051004501999999MD1710201+9999MW1711
0057029700999991960011812004+60117+019900FM-12+000399999V0201301N01231001501CN0010001N9-00391-00611099461ADDAY171999GF108991081999001501999999MD1710451+9999MW1731
0057029700999991960011815004+60117+019900FM-12+000399999V0201801N01231001501CN0030001N9-00221-00391099081ADDAY171999GF106991061071001501001001MD1710511+9999MW1221
0057029700999991960011821004+60117+019900FM-12+000399999V0202001N00821007801CN0150001N9-00391-00781099251ADDAY121999GF108991081051008001999999MD1110161+9999MW1021
0057029700999991960011900004+60117+019900FM-12+000399999V0200601N00311004501CN0020001N9-00391-00721098921ADDAY171999GF108991081051004501999999MD1810441+9999MW1731
0076029700999991960011909004+60117+019900FM-12+000399999V0202601N01441001501CN0100001N9+00001-00221999999ADDAY171999GF107991071071001501999999MD1710451+9999MW1011EQDQ01 096803APOSLP
0057029700999991960011912004+60117+019900FM-12+000399999V0203001N01541000601CN0000001N9-00281-00391097691ADDAY171999GF109991091999000751999999MD1210991+9999MW1731
0057029700999991960011915004+60117+019900FM-12+000399999V0203001N01441000601CN0000001N9-00611-00721098741ADDAY171999GF109991091999000751999999MD1210991+9999MW1731
0100029700999991960011918004+60117+019900FM-12+000399999V0203001N01031001501CN0015001N9-00721-00721099451ADDAA199001091AY171999GF108991081071001501999999KA1999M+00111MD1210711+9999MW1221EQDQ01+000952APC3  
0057029700999991960011921004+60117+019900FM-12+000399999V0203001N00721004501CN0050001N9-00611-00721099901ADDAY121999GF108991081051004501999999MD1210401+9999MW1021
0057029700999991960012000004+60117+019900FM-12+000399999V0203001N00511220001CN0100001N9-00611-00721100371ADDAY121999GF104991041051004501001001MD1210481+9999MW1011
0057029700999991960012003004+60117+019900FM-12+000399999V0203001N00411220001CN0100001N9-00891-01001100461ADDAY111999GF104991041051004501001001MD1210121+9999MW1021
0081029700999991960012006004+60117+019900FM-12+000399999V0203101N00101220001CN0100001N9-01501-01611100601ADDAA199003091AY111999GF104991021051004501001011KA1999N-01721MD1310191+9999MW1021
0057029700999991960012009004+60117+019900FM-12+000399999V0209991C00001030001CN0080001N9-01281-01391100751ADDAY121999GF107991011051008001041061MD1210201+9999MW1021
0057029700999991960012012004+60117+019900FM-12+000399999V0203101N00101030001CN0050001N9-01111-01221100861ADDAY121999GF107991021051008001041061MD1210151+9999MW1021
0057029700999991960012015004+60117+019900FM-12+000399999V0200601N00211030001CN0150001N9-00781-00891100991ADDAY121999GF107991011051008001031081MD1210171+9999MW1021
0070029700999991960012018004+60117+019900FM-12+000399999V0200801N00311021001CN0300001N9-00611-00721101081ADDAY121999GF107991071001022501041999KA1999M-00611MD1210121+9999MW1021
0057029700999991960012021004+60117+019900FM-12+000399999V0200801N00361024001CN0300001N9-00721-00781101281ADDAY121999GF106991061001999999041999MD1210271+9999MW1011
0057029700999991960012100004+60117+019900FM-12+000399999V0200801N00361075001CN0300001N9-00721-00891101401ADDAY121999GF107991031001999999041061MD1210161+9999MW1031
0057029700999991960012103004+60117+019900FM-12+000399999V0200801N00411021001CN0200001N9-00721-00781101611ADDAY121999GF107991071001022501041999MD1210281+9999MW1021
0070029700999991960012106004+60117+019900FM-12+000399999V0200801N00411030001CN0200001N9-00501-00721101751ADDAY121999GF107991031051008001041999KA1999N-00781MD1210191+9999MW1021
0057029700999991960012109004+60117+019900FM-12+000399999V0200801N00211220001CN0150001N9-00721-00781101901ADDAY111999GF105991041001022501041011MD1210201+9999MW1011
0057029700999991960012112004+60117+019900FM-12+000399999V0200301N00101220001CN0150001N9-00781-00891102021ADDAY101999GF101991011001999999041001MD1210161+9999MW1021
0057029700999991960012115004+60117+019900FM-12+000399999V0203601N00101220001CN0150001N9-01391-01501102161ADDAY101999GF101991011001999999031001MD1210191+9999MW1111
0070029700999991960012118004+60117+019900FM-12+000399999V0203601N00101220001CN0100001N9-01781-01891102301ADDAY101999GF101991011001999999041001KA1999M-00501MD1210191+9999MW1021
0057029700999991960012121004+60117+019900FM-12+000399999V0209991C00001220001CN0100001N9-01221-01281102411ADDAY141999GF100991001001999999001001MD1210151+9999MW1111
0057029700999991960012200004+60117+019900FM-12+000399999V0209991C00001220001CN0200001N9-01781-01891102451ADDAY121999GF100991001001999999001001MD1110051+9999MW1021
0057029700999991960012203004+60117+019900FM-12+000399999V0209991C00001220001CN0200001N9-01781-02001102511ADDAY121999GF100991001001999999001001MD1210081+9999MW1021
0070029700999991960012206004+60117+019900FM-12+000399999V0203601N00101024001CN0300001N9-01501-01611102481ADDAY121999GF106991061001999999051001KA1999N-02001MD1710041+9999MW1031
0057029700999991960012209004+60117+019900FM-12+000399999V0202301N00511024001CN0550001N9-01501-01611102481ADDAY121999GF106991061001999999041011MD1410001+9999MW1011
0057029700999991960012212004+60117+019900FM-12+000399999V0202001N00721030001CN0400001N9-00281-00611102411ADDAY121999GF108991031051004501011051MD1810091+9999MW1031
0057029700999991960012215004+60117+019900FM-12+000399999V0201901N00821004501CN0300001N9-00111-00391102281ADDAY121999GF108991071051004501011999MD1610171+9999MW1031
0070029700999991960012218004+60117+019900FM-12+000399999V0201901N01231004501CN0200001N9-00111-00281102011ADDAY121999GF108991081051004501999999KA1999M+00001MD1810361+9999MW1701
0057029700999991960012221004+60117+019900FM-12+000399999V0201801N01341004501CN0010001N9-00111-00111101821ADDAY171999GF108991081051004501999999MD1710251+9999MW1731
0057029700999991960012300004+60117+019900FM-12+000399999V0201801N01391004501CN0020001N9+00001-00111101531ADDAY171999GF108991081051004501999999MD1710391+9999MW1711
0081029700999991960012306004+60117+019900FM-12+000399999V0201801N01131002401CN0030001N9+00111+00111101111ADDAA199004091AY171999GF108991081071002501999999KA1999N-00111MD1710271+9999MW1631
0057029700999991960012309004+60117+019900FM-12+000399999V0201901N01131000601CN0020001N9+00111+00111100951ADDAY161999GF108991081071000751999999MD1710211+9999MW1631
0057029700999991960012312004+60117+019900FM-12+000399999V0202001N00931001501CN0025001N9+00221+00111100791ADDAY161999GF108991081071001501999999MD1710211+9999MW1631
0057029700999991960012315004+60117+019900FM-12+000399999V0202001N00931000601CN0025001N9+00221+00221100661ADDAY161999GF108991081071000751999999MD1710171+9999MW1581
0081029700999991960012318004+60117+019900FM-12+000399999V0202001N00931001501CN0020001N9+00221+00221100641ADDAA199015091AY161999GF108991081071001501999999KA1999M+00221MD1710031+9999MW1631
0057029700999991960012321004+60117+019900FM-12+000399999V0202001N00621000601CN0008001N9+00221+00221100681ADDAY161999GF109991091999000751999999MD1210051+9999MW1471
0057029700999991960012400004+60117+019900FM-12+000399999V0202001N00511000601CN0008001N9+00221+00221100771ADDAY141999GF108991081999000751999999MD1210121+9999MW1441
0057029700999991960012403004+60117+019900FM-12+000399999V0202001N00511000151CN0005001N9+00221+00221100801ADDAY141999GF108991081999000251999999MD1210041+9999MW1441
0081029700999991960012406004+60117+019900FM-12+000399999V0202001N00361000601CN0012001N9+00221+00221100851ADDAA199001091AY141999GF108991081999000751999999KA1999N+00111MD1210071+9999MW1101
0057029700999991960012409004+60117+019900FM-12+000399999V0201901N00361000601CN0015001N9+00221+00111100981ADDAY121999GF109991091999000751999999MD1210171+9999MW1101
0057029700999991960012412004+60117+019900FM-12+000399999V0201801N00511000601CN0018001N9+00221+00221100991ADDAY161999GF109991091999000751999999MD1310011+9999MW1101
0057029700999991960012415004+60117+019900FM-12+000399999V0201901N00621000601CN0007001N9+00221+00221100941ADDAY141999GF109991091999000751999999MD1510071+9999MW1471
0057029700999991960012421004+60117+019900FM-12+000399999V0201701N00411000601CN0006001N9+00221+00111101011ADDAY141999GF109991091999000751999999MD1210091+9999MW1431
0057029700999991960012500004+60117+019900FM-12+000399999V0201801N00411000151CN0005001N9+00221+00111101011ADDAY141999GF109991091999000251999999MD1410001+9999MW1451
0057029700999991960012503004+60117+019900FM-12+000399999V0201801N00511000151CN0006001N9+00111+00111101011ADDAY151999GF109991091999000251999999MD1410001+9999MW1511
0081029700999991960012506004+60117+019900FM-12+000399999V0201501N00511000151CN0006001N9+00111+00111100961ADDAA199000391AY141999GF109991091999000251999999KA1999N+00001MD1810071+9999MW1451
0057029700999991960012509004+60117+019900FM-12+000399999V0201501N00721000151CN0006001N9+00221+00111100861ADDAY141999GF109991091999000251999999MD1710131+9999MW1451
0057029700999991960012512004+60117+019900FM-12+000399999V0201501N00771001501CN0027001N9+00221+00221100681ADDAY161999GF108991081071001501999999MD1710241+9999MW1211
0057029700999991960012515004+60117+019900FM-12+000399999V0201601N00771000601CN0025001N9+00221+00111100561ADDAY161999GF108991081071000751999999MD1610161+9999MW1211
0081029700999991960012518004+60117+019900FM-12+000399999V0201701N00721001501CN0025001N9+00221+00111100501ADDAA199002091AY121999GF108991081071001501999999KA1999M+00221MD1810081+9999MW1021
0057029700999991960012521004+60117+019900FM-12+000399999V0201901N00411000601CN0010001N9+00221+00111100471ADDAY121999GF109991091999000751999999MD1610041+9999MW1101
0057029700999991960012600004+60117+019900FM-12+000399999V0201901N00411000601CN0012001N9+00221+00111100401ADDAY121999GF109991091999000751999999MD1710091+9999MW1101
0049029700999991960012603004+60117+019900FM-12+000399999V0202201N00311000151CN0014001N9+00221+00221100361ADDGF109991091999000251999999MD1710051+9999MW1101
0070029700999991960012606004+60117+019900FM-12+000399999V0202201N00151000151CN0003001N9+00221+00221100371ADDAY141999GF109991091999000251999999KA1999N+00111MD1610011+9999MW1471
0057029700999991960012609004+60117+019900FM-12+000399999V0202701N00261000151CN0004001N9+00221+00221100441ADDAY141999GF109991091999000251999999MD1310091+9999MW1451
0057029700999991960012612004+60117+019900FM-12+000399999V0203001N00411000151CN0007001N9+00221+00221100581ADDAY141999GF109991091999000251999999MD1210191+9999MW1471
0057029700999991960012615004+60117+019900FM-12+000399999V0203001N00101000601CN0010001N9+00221+00221100651ADDAY141999GF109991091999000751999999MD1210091+9999MW1101
0070029700999991960012618004+60117+019900FM-12+000399999V0203201N00101000601CN0009001N9+00111+00111100691ADDAY141999GF109991091999000751999999KA1999M+00221MD1210051+9999MW1431
0057029700999991960012621004+60117+019900FM-12+000399999V0200201N00101000151CN0009001N9+00111+00111100801ADDAY141999GF109991091999000251999999MD1210151+9999MW1451
0057029700999991960012700004+60117+019900FM-12+000399999V0200201N00511002401CN0050001N9+00001-00111100861ADDAY141999GF108991081061002501999999MD1210081+9999MW1281
0057029700999991960012703004+60117+019900FM-12+000399999V0200101N00511004501CN0100001N9-00111-00281100881ADDAY171999GF108991081051004501999999MD1110031+9999MW1711
0081029700999991960012706004+60117+019900FM-12+000399999V0203601N00511002401CN0100001N9-00221-00391100841ADDAA199000691AY121999GF108991081061002501999999KA1999N-00221MD1710051+9999MW1021
0057029700999991960012709004+60117+019900FM-12+000399999V0200201N00511002401CN0030001N9-00281-00501100941ADDAY171999GF108991081061002501999999MD1210131+9999MW1711
0057029700999991960012712004+60117+019900FM-12+000399999V0200201N00361004501CN0045001N9-00281-00391100941ADDAY171999GF108991081071004501999999MD1410001+9999MW1711
0057029700999991960012715004+60117+019900FM-12+000399999V0200101N00311002401CN0016001N9-00281-00391101001ADDAY171999GF108991081071002501999999MD1310081+9999MW1731
0081029700999991960012718004+60117+019900FM-12+000399999V0200201N00311002401CN0050001N9-00281-00391101051ADDAA199000391AY171999GF108991081071002501999999KA1999M-00221MD1210071+9999MW1711
0057029700999991960012800004+60117+019900FM-12+000399999V0200501N00211002401CN0050001N9-00501-00611101221ADDAY171999GF108991081071002501999999MD1210091+9999MW1711
0057029700999991960012803004+60117+019900FM-12+000399999V0200501N00211002401CN0050001N9-00611-00721101281ADDAY171999GF108991081071002501999999MD1210081+9999MW1711
0081029700999991960012806004+60117+019900FM-12+000399999V0200401N00101002401CN0080001N9-00721-00781101391ADDAA199002091AY171999GF108991081071002501999999KA1999N-00721MD1210151+9999MW1711
0057029700999991960012809004+60117+019900FM-12+000399999V0200401N00311004501CN0150001N9-00721-00891101451ADDAY121999GF108991081071004501999999MD1310081+9999MW1031
0057029700999991960012812004+60117+019900FM-12+000399999V0200501N00311004501CN0150001N9-00721-00891101451ADDAY121999GF108991081061004501999999MD1410001+9999MW1021
0057029700999991960012815004+60117+019900FM-12+000399999V0200501N00211004501CN0150001N9-00781-00891101551ADDAY121999GF108991081061004501999999MD1310131+9999MW1021
0070029700999991960012818004+60117+019900FM-12+000399999V0200501N00261004501CN0250001N9-00781-01001101471ADDAY121999GF108991081051004501999999KA1999M-00721MD1710111+9999MW1021
0057029700999991960012821004+60117+019900FM-12+000399999V0200501N00361004501CN0200001N9-00781-00891101471ADDAY121999GF108991081061004501999999MD1410001+9999MW1021
0057029700999991960012900004+60117+019900FM-12+000399999V0200501N00361002401CN0060001N9-00721-00781101411ADDAY171999GF108991081071002501999999MD1710081+9999MW1711
0057029700999991960012903004+60117+019900FM-12+000399999V0200501N00411002401CN0035001N9-00781-00891101401ADDAY171999GF108991081071002501999999MD1710011+9999MW1731
0081029700999991960012906004+60117+019900FM-12+000399999V0200601N00511002401CN0045001N9-01001-01111101341ADDAA199002091AY171999GF108991081071002501999999KA1999N-01001MD1510081+9999MW1711
0057029700999991960012909004+60117+019900FM-12+000399999V0200701N00511002401CN0030001N9-01221-01281101461ADDAY171999GF108991081071002501999999MD1210161+9999MW1731
0057029700999991960012912004+60117+019900FM-12+000399999V0200301N00411007801CN0100001N9-01281-01391101501ADDAY171999GF108991081051008001999999MD1110051+9999MW1221
0057029700999991960012915004+60117+019900FM-12+000399999V0200501N00411007801CN0200001N9-01391-01611101581ADDAY121999GF108991081051008001999999MD1310111+9999MW1021
0081029700999991960012918004+60117+019900FM-12+000399999V0200501N00511007801CN0150001N9-01501-01721101741ADDAA199000391AY121999GF108991081051008001999999KA1999M-01001MD1210211+9999MW1021
0057029700999991960012921004+60117+019900FM-12+000399999V0200301N00511220001CN0300001N9-01611-01891101881ADDAY111999GF103991021051008001041999MD1210191+9999MW1011
0057029700999991960013003004+60117+019900FM-12+000399999V0200201N00361220001CN0300001N9-01501-01781102061ADDAY101999GF100991001001999999001001MD1210151+9999MW1011
0070029700999991960013006004+60117+019900FM-12+000399999V0200201N00311220001CN0300001N9-01721-01781102111ADDAY101999GF101991011001999999031001KA1999N-01721MD1110071+9999MW1021
0057029700999991960013009004+60117+019900FM-12+000399999V0200301N00261220001CN0200001N9-01391-01501102261ADDAY101999GF101991011051008001031001MD1310201+9999MW1761
0057029700999991960013015004+60117+019900FM-12+000399999V0200501N00211030001CN0200001N9-01221-01281102311ADDAY111999GF105991011051008001031001MD1110031+9999MW1021
0081029700999991960013018004+60117+019900FM-12+000399999V0200501N00411030001CN0100001N9-01281-01391102371ADDAA199000391AY171999GF106991031051008001071999KA1999M-01001MD1310081+9999MW1711
0057029700999991960013021004+60117+019900FM-12+000399999V0200401N00361030001CN0300001N9-01281-01391102611ADDAY121999GF105991031051004501071999MD1310321+9999MW1011
0057029700999991960013100004+60117+019900FM-12+000399999V0200401N00361004501CN0250001N9-01281-01391102841ADDAY121999GF106991061051004501999999MD1210311+9999MW1761
0057029700999991960013103004+60117+019900FM-12+000399999V0200401N00211220001CN0300001N9-01721-01781103031ADDAY111999GF100991001001999999001001MD1210251+9999MW1011
0081029700999991960013106004+60117+019900FM-12+000399999V0209991C00001220001CN0300001N9-01891-02001103131ADDAA199000391AY171999GF101991011051008001001001KA1999N-02111MD1210131+9999MW1761
0057029700999991960013109004+60117+019900FM-12+000399999V0209991C00001220001CN0150001N9-01611-01781103341ADDAY171999GF104991041051008001001001MD1210281+9999MW1761
0057029700999991960013112004+60117+019900FM-12+000399999V0200401N00101220001CN0150001N9-01281-01391103401ADDAY121999GF101991011051008001001001MD1310081+9999MW1021
0057029700999991960013115004+60117+019900FM-12+000399999V0201301N00101220001CN0300001N9-01611-01721103431ADDAY101999GF101991011051004501001001MD1310031+9999MW1111
0081029700999991960013118004+60117+019900FM-12+000399999V0209991C00001004501CN0200001N9-01281-01501103371ADDAA199000391AY121999GF107991071051004501999999KA1999M-01111MD1710071+9999MW1021
0057029700999991960013121004+60117+019900FM-12+000399999V0202701N00211004501CN0150001N9-00721-00721103341ADDAY121999GF107991071051004501999999MD1710041+9999MW1011
0057029700999991960020100004+60117+019900FM-12+000399999V0202801N00101004501CN0020001N9-01391-01501103271ADDAY121999GF105991051051004501001001MD1710091+9999MW1121
0057029700999991960020103004+60117+019900FM-12+000399999V0202801N00101004501CN0100001N9-00891-01001103211ADDAY121999GF105991051051004501001001MD1710081+9999MW1021
0070029700999991960020106004+60117+019900FM-12+000399999V0203101N00261004501CN0150001N9-00391-00501103141ADDAY121999GF108991081051004501999999KA1999N-01611MD1710091+9999MW1031
0057029700999991960020109004+60117+019900FM-12+000399999V0203401N00511004501CN0300001N9-00281-00391103241ADDAY121999GF108991081051004501999999MD1210131+9999MW1021
0057029700999991960020112004+60117+019900FM-12+000399999V0203501N00411004501CN0300001N9-00221-00501103321ADDAY121999GF108991081051004501999999MD1110111+9999MW1031
0057029700999991960020115004+60117+019900FM-12+000399999V0203601N00311004501CN0300001N9-00611-00781103451ADDAY121999GF105991051051004501999999MD1210171+9999MW1011
0081029700999991960020118004+60117+019900FM-12+000399999V0203601N00101220001CN0300001N9-00891-01001103471ADDAA199000691AY111999GF103991031051004501001001KA1999M-00221MD1110031+9999MW1011
0057029700999991960020121004+60117+019900FM-12+000399999V0203301N00101004501CN0100001N9-00721-00721103441ADDAY111999GF106991061051004501999999MD1710041+9999MW1701
0057029700999991960020200004+60117+019900FM-12+000399999V0203101N00411220001CN0150001N9-00391-00501103461ADDAY111999GF103991031051004501001001MD1210031+9999MW1011
0057029700999991960020203004+60117+019900FM-12+000399999V0203001N00411004501CN0150001N9-00391-00611103441ADDAY121999GF107991071051004501999999MD1710031+9999MW1021
0081029700999991960020206004+60117+019900FM-12+000399999V0203201N00211004501CN0200001N9-00391-00501103451ADDAA199000391AY171999GF105991051051004501999999KA1999N-01111MD1310011+9999MW1021
0057029700999991960020209004+60117+019900FM-12+000399999V0203201N00101030001CN0060001N9-01221-01281103491ADDAY111999GF105991021051004501031999MD1110051+9999MW1111
0057029700999991960020212004+60117+019900FM-12+000399999V0200301N00311220001CN0200001N9-00391-00611103481ADDAY101999GF101991011051008001031001MD1610011+9999MW1011
0057029700999991960020215004+60117+019900FM-12+000399999V0209991C00001220001CN0300001N9-01001-01111103541ADDAY101999GF101991011051008001031001MD1110081+9999MW1111
0070029700999991960020218004+60117+019900FM-12+000399999V0209991C00001220001CN0300001N9-01501-01611103551ADDAY101999GF102991001001999999031999KA1999M-00391MD1010011+9999MW1021
0057029700999991960020221004+60117+019900FM-12+000399999V0200601N00101220001CN0300001N9-01781-01891103581ADDAY101999GF101991011001999999041001MD1010041+9999MW1021
0057029700999991960020300004+60117+019900FM-12+000399999V0209991C00001220001CN0300001N9-01721-01781103551ADDAY101999GF100991001001999999001001MD1810041+9999MW1021
0057029700999991960020303004+60117+019900FM-12+000399999V0202501N00101220001CN0300001N9-00891-01001103551ADDAY101999GF104991041051004501001001MD1410001+9999MW1031
0070029700999991960020306004+60117+019900FM-12+000399999V0202201N00211004501CN0300001N9-00611-00611103481ADDAY121999GF108991081051004501999999KA1999N-01781MD1810091+9999MW1021
0057029700999991960020312004+60117+019900FM-12+000399999V0201801N00721001501CN0040001N9-00281-00391103321ADDAY171999GF108991081061001501999999MD1710151+9999MW1701
0057029700999991960020315004+60117+019900FM-12+000399999V0201801N00821001501CN0025001N9-00281-00391103201ADDAY171999GF107991071061001501999999MD1710161+9999MW1711
0081029700999991960020318004+60117+019900FM-12+000399999V0201801N00871004501CN0150001N9-00221-00501103031ADDAA199001091AY121999GF107991051051004501031999KA1999M-00221MD1810231+9999MW1021
0057029700999991960020321004+60117+019900FM-12+000399999V0201901N01131004501CN0150001N9-00111-00501102851ADDAY121999GF108991051051004501071999MD1710241+9999MW1021
0057029700999991960020400004+60117+019900FM-12+000399999V0201901N01341030001CN0150001N9-00111-00611102741ADDAY121999GF108991041051004501071999MD1710151+9999MW1361
0057029700999991960020403004+60117+019900FM-12+000399999V0201801N01441007801CN0250001N9-00221-00501102641ADDAY121999GF108991081051008001999999MD1610131+9999MW1361
0070029700999991960020406004+60117+019900FM-12+000399999V0201901N01441007801CN0100001N9-00221-00501102531ADDAY121999GF106991061051008001999999KA1999N-00221MD1710151+9999MW1361
0057029700999991960020409004+60117+019900FM-12+000399999V0201901N01441004501CN0250001N9-00221-00501102501ADDAY121999GF108991081051004501999999MD1810041+9999MW1361
0057029700999991960020412004+60117+019900FM-12+000399999V0201901N01541030001CN0400001N9-00221-00501102431ADDAY121999GF107991041051004501071061MD1810091+9999MW1361
0057029700999991960020415004+60117+019900FM-12+000399999V0201801N01291030001CN0400001N9-00111-00501102421ADDAY121999GF107991041051004501071061MD1510011+9999MW1361
0070029700999991960020418004+60117+019900FM-12+000399999V0201801N01341004501CN0400001N9-00221-00501102341ADDAY121999GF106991061051004501001061KA1999M-00111MD1710111+9999MW1361
0057029700999991960020421004+60117+019900FM-12+000399999V0201801N01341004501CN0400001N9-00221-00501102311ADDAY121999GF106991061051004501999999MD1710041+9999MW1361
0057029700999991960020500004+60117+019900FM-12+000399999V0202001N01291004501CN0400001N9-00221-00501102311ADDAY121999GF108991081051004501999999MD1410001+9999MW1361
0057029700999991960020503004+60117+019900FM-12+000399999V0201901N01341004501CN0400001N9-00221-00501102311ADDAY121999GF108991081051004501999999MD1410001+9999MW1361
0081029700999991960020506004+60117+019900FM-12+000399999V0202001N01291004501CN0300001N9-00221-00391102331ADDAA199000591AY121999GF107991071051004501999999KA1999N-00221MD1310031+9999MW1011
0057029700999991960020509004+60117+019900FM-12+000399999V0202001N01231004501CN0400001N9-00111-00501102471ADDAY121999GF107991061051004501999999MD1310191+9999MW1021
0057029700999991960020515004+60117+019900FM-12+000399999V0202001N01131004501CN0400001N9-00111-00501102621ADDAY121999GF107991051051004501041999MD1010071+9999MW1021
0057029700999991960020521004+60117+019900FM-12+000399999V0202001N00871004501CN0300001N9-00111-00501102851ADDAY121999GF107991061051004501031999MD1210191+9999MW1021
0057029700999991960020600004+60117+019900FM-12+000399999V0202101N00931004501CN0300001N9-00111-00501102921ADDAY121999GF107991051051004501071999MD1210091+9999MW1021
0070029700999991960020606004+60117+019900FM-12+000399999V0202201N00821030001CN0300001N9-00391-00611103091ADDAY111999GF105991021051004501071999KA1999N-00391MD1210091+9999MW1031
0057029700999991960020612004+60117+019900FM-12+000399999V0202401N00621007801CN0300001N9-00281-00501103281ADDAY121999GF107991061051008001999999MD1210051+9999MW1031
0057029700999991960020615004+60117+019900FM-12+000399999V0202501N00621220001CN0250001N9-00221-00501103291ADDAY111999GF103991011051004501041001MD1310011+9999MW1011
0070029700999991960020618004+60117+019900FM-12+000399999V0202601N00621007801CN0200001N9-00281-00501103361ADDAY121999GF107991061051008001041999KA1999M-00221MD1010091+9999MW1021
0057029700999991960020621004+60117+019900FM-12+000399999V0202701N00311030001CN0200001N9-00281-00391103431ADDAY111999GF106991011051008001031999MD1110091+9999MW1031
0057029700999991960020700004+60117+019900FM-12+000399999V0209991C00001220001CN0200001N9-00501-00501103451ADDAY111999GF102991021001999999041001MD1110031+9999MW1011
0057029700999991960020703004+60117+019900FM-12+000399999V0209991C00001220001CN0200001N9-00611-00721103491ADDAY101999GF102991021001999999041001MD1310051+9999MW1021
0070029700999991960020706004+60117+019900FM-12+000399999V0203001N00151220001CN0150001N9-00611-00611103421ADDAY101999GF101991001001999999001011KA1999N-00721MD1610091+9999MW1021
0076029700999991960020712004+60117+019900FM-12+000399999V0203001N00721024001CN0300001N9+00391-00111103001ADDAY121999GF106991001001999999001041MD1710291+9999MW1021EQDQ01+000062SCOTLC
0057029700999991960020715004+60117+019900FM-12+000399999V0203101N00621075001CN0300001N9+00391-00111103201ADDAY121999GF105991011001999999041021MD1710121+9999MW1021
0070029700999991960020718004+60117+019900FM-12+000399999V0203201N00621075001CN0300001N9+00221+00001103231ADDAY121999GF107991031001999999041051KA1999M+00391MD1010041+9999MW1031
0057029700999991960020721004+60117+019900FM-12+000399999V0203201N00361220001CN0250001N9+00111+00001103311ADDAY121999GF106991021001999999071061MD1310111+9999MW1021
0057029700999991960020800004+60117+019900FM-12+000399999V0203201N00311030001CN0250001N9+00221-00221103341ADDAY121999GF108991011051008001011071MD1110041+9999MW1021
0057029700999991960020803004+60117+019900FM-12+000399999V0203201N00211024001CN0250001N9+00111-00111103281ADDAY121999GF108991081001999999071999MD1810081+9999MW1031
0081029700999991960020806004+60117+019900FM-12+000399999V0203201N00411001501CN0100001N9+00111+00001103201ADDAA199000691AY121999GF108991081071001501999999KA1999N+00111MD1710111+9999MW1021
0057029700999991960020809004+60117+019900FM-12+000399999V0202601N00311001501CN0300001N9+00221+00111103071ADDAY121999GF108991081071001501999999MD1710171+9999MW1021
0057029700999991960020812004+60117+019900FM-12+000399999V0202601N00361001501CN0030001N9+00221+00111102901ADDAY151999GF108991081071001501999999MD1710231+9999MW1511
0057029700999991960020815004+60117+019900FM-12+000399999V0202601N00461000601CN0060001N9+00221+00221102691ADDAY161999GF108991081071000751999999MD1710281+9999MW1631
0081029700999991960020818004+60117+019900FM-12+000399999V0202701N00621001501CN0050001N9+00221+00111102551ADDAA199006091AY161999GF108991081071001501999999KA1999M+00221MD1710191+9999MW1631
0057029700999991960020821004+60117+019900FM-12+000399999V0202801N00511007801CN0150001N9+00221+00111102461ADDAY121999GF107991071051008001999999MD1710121+9999MW1011
0057029700999991960020900004+60117+019900FM-12+000399999V0202701N00411007801CN0200001N9+00221-00111102271ADDAY121999GF108991081051008001999999MD1710251+9999MW1021
0057029700999991960020903004+60117+019900FM-12+000399999V0202601N00511007801CN0200001N9+00221+00111101981ADDAY121999GF108991081051008001999999MD1710391+9999MW1021
0070029700999991960020906004+60117+019900FM-12+000399999V0202601N00511030001CN0300001N9+00111-00111101651ADDAY121999GF107991011051008001071999KA1999N+00111MD1710441+9999MW1031
0057029700999991960020909004+60117+019900FM-12+000399999V0202601N00511015001CN0300001N9+00111-00221101351ADDAY121999GF108991061001017501071071MD1710401+9999MW1031
0057029700999991960020912004+60117+019900FM-12+000399999V0202601N00721021001CN0300001N9+00111-00221100811ADDAY121999GF108991051001022501071071MD1710641+9999MW1021
0076029700999991960020915004+60117+019900FM-12+000399999V0202601N00771030001CN0300001N9+00111-00221100291ADDAY121999GF108991021051008001071071MD1710521+9999MW1021EQDQ01+000772APC3  
0070029700999991960020918004+60117+019900FM-12+000399999V0202601N00771030001CN0300001N9+00111-00111099861ADDAY121999GF108991011051008001071999KA1999M+00111MD1710471+9999MW1021
0057029700999991960020921004+60117+019900FM-12+000399999V0202701N00671015001CN0200001N9+00221-00111099521ADDAY121999GF108991081001017501071999MD1610451+9999MW1681
0057029700999991960021000004+60117+019900FM-12+000399999V0203101N00721015001CN0300001N9+00221-00221099241ADDAY121999GF106991061001017501071999MD1710371+9999MW1011
0057029700999991960021003004+60117+019900FM-12+000399999V0202801N00871220001CN0300001N9+00001-00721098991ADDAY101999GF100991001001999999001001MD1710331+9999MW1011
0081029700999991960021006004+60117+019900FM-12+000399999V0203001N01031220001CN0400001N9+00001-00721098791ADDAA199000691AY101999GF100991001001999999001001KA1999N+00001MD1710271+9999MW1021
0057029700999991960021009004+60117+019900FM-12+000399999V0202901N01231220001CN0400001N9+00111-00721098841ADDAY101999GF102991021001999999041001MD1310071+9999MW1031
0057029700999991960021012004+60117+019900FM-12+000399999V0203001N01231220001CN0400001N9+00221-00501098821ADDAY101999GF100991001001999999001001MD1510031+9999MW1021
0057029700999991960021015004+60117+019900FM-12+000399999V0203401N00771007801CN0300001N9+00111-00391098861ADDAY111999GF106991061051008001001011MD1310051+9999MW1851
0081029700999991960021018004+60117+019900FM-12+000399999V0203001N00311220001CN0300001N9-00221-00391099031ADDAA199000691AY111999GF104991031051008001041001KA1999M+00221MD1210231+9999MW1851
0057029700999991960021021004+60117+019900FM-12+000399999V0203101N00411220001CN0400001N9-00221-00391099161ADDAY111999GF102991021051008001041001MD1210171+9999MW1011
0057029700999991960021100004+60117+019900FM-12+000399999V0200201N00411220001CN0400001N9-00391-00611099421ADDAY111999GF104991041041008001041001MD1210351+9999MW1021
0057029700999991960021103004+60117+019900FM-12+000399999V0200401N00511220001CN0400001N9-00721-01111099661ADDAY111999GF102991021001999999041001MD1210311+9999MW1011
0081029700999991960021106004+60117+019900FM-12+000399999V0200601N00511220001CN0300001N9-00891-01391099951ADDAA199000691AY101999GF103991021001999999041011KA1999N-00891MD1210391+9999MW1021
0057029700999991960021109004+60117+019900FM-12+000399999V0200401N00311075001CN0400001N9-00781-01391100291ADDAY121999GF107991011001999999041061MD1210451+9999MW1031
0057029700999991960021112004+60117+019900FM-12+000399999V0200201N00211220001CN0400001N9-00721-01281100461ADDAY121999GF107991001001999999041061MD1210231+9999MW1021
0057029700999991960021115004+60117+019900FM-12+000399999V0200401N00211220001CN0400001N9-00781-01281100691ADDAY121999GF107991001001999999041061MD1210321+9999MW1021
0070029700999991960021118004+60117+019900FM-12+000399999V0200401N00361075001CN0400001N9-00891-01221100961ADDAY121999GF108991041001999999071071KA1999M-00611MD1210361+9999MW1011
0057029700999991960021200004+60117+019900FM-12+000399999V0200701N00211220001CN0400001N9-01001-01501101381ADDAY121999GF108991001001999999001071MD1210231+9999MW1021
0057029700999991960021203004+60117+019900FM-12+000399999V0200701N00211220001CN0400001N9-01221-01501101511ADDAY121999GF104991001001999999001081MD1210171+9999MW1011
0070029700999991960021206004+60117+019900FM-12+000399999V0200701N00101220001CN0400001N9-01391-01611101671ADDAY101999GF103991001001999999001081KA1999N-01501MD1210211+9999MW1011
0057029700999991960021209004+60117+019900FM-12+000399999V0201201N00101220001CN0350001N9-00891-01281101811ADDAY101999GF101991001001999999001011MD1210191+9999MW1021
0057029700999991960021212004+60117+019900FM-12+000399999V0201301N00311220001CN0250001N9-00721-01221101791ADDAY101999GF101991011051008001001081MD1010031+9999MW1021
0057029700999991960021215004+60117+019900FM-12+000399999V0200801N00261220001CN0250001N9-00781-01281101711ADDAY101999GF102991001001999999001081MD1710111+9999MW1031
0070029700999991960021218004+60117+019900FM-12+000399999V0200901N00101220001CN0250001N9-01111-01391101661ADDAY101999GF102991001001999999001081KA1999M-00611MD1710071+9999MW1021
0057029700999991960021221004+60117+019900FM-12+000399999V0200801N00211220001CN0250001N9-01221-01391101581ADDAY101999GF100991001001999999001001MD1710111+9999MW1021
0057029700999991960021300004+60117+019900FM-12+000399999V0200801N00511220001CN0250001N9-01221-01391101451ADDAY101999GF100991001001999999001001MD1710171+9999MW1021
0070029700999991960021306004+60117+019900FM-12+000399999V0200801N00311220001CN0300001N9-01281-01391101091ADDAY101999GF101991001001999999001081KA1999N-01611MD1610211+9999MW1031
0057029700999991960021309004+60117+019900FM-12+000399999V0200801N00261220001CN0250001N9-01221-01501100881ADDAY101999GF102991001001999999001081MD1710261+9999MW1021
0057029700999991960021312004+60117+019900FM-12+000399999V0200401N00511220001CN0300001N9-01001-01721100651ADDAY101999GF102991001001999999001081MD1710311+9999MW1021
0057029700999991960021315004+60117+019900FM-12+000399999V0200501N00461220001CN0300001N9-01001-01781100391ADDAY101999GF102991001001999999001011MD1710351+9999MW1021
0070029700999991960021318004+60117+019900FM-12+000399999V0200201N00461220001CN0300001N9-01221-01781100121ADDAY101999GF102991001001999999001011KA1999M-00891MD1610361+9999MW1031
0057029700999991960021321004+60117+019900FM-12+000399999V0200101N00461220001CN0400001N9-01281-01891099891ADDAY101999GF102991001001999999001011MD1710311+9999MW1021
0057029700999991960021400004+60117+019900FM-12+000399999V0203601N00411220001CN0400001N9-01281-01891099711ADDAY101999GF102991001001999999001081MD1710241+9999MW1021
0057029700999991960021403004+60117+019900FM-12+000399999V0203601N00511220001CN0400001N9-01281-01721099531ADDAY101999GF102991001001999999001081MD1710241+9999MW1021
0070029700999991960021406004+60117+019900FM-12+000399999V0203601N00311220001CN0400001N9-01281-01721099471ADDAY101999GF102991001001999999001081KA1999N-01501MD1710081+9999MW1021
0057029700999991960021409004+60117+019900FM-12+000399999V0203501N00311220001CN0400001N9-00891-01391099461ADDAY101999GF102991001001999999001011MD1610011+9999MW1021
0057029700999991960021412004+60117+019900FM-12+000399999V0203201N00361220001CN0500001N9-00501-01281099411ADDAY101999GF101991001001999999001011MD1710071+9999MW1021
0057029700999991960021415004+60117+019900FM-12+000399999V0203301N00151220001CN0500001N9-00501-01221099421ADDAY101999GF101991011001999999041001MD1310011+9999MW1021
0070029700999991960021418004+60117+019900FM-12+000399999V0203301N00101220001CN0500001N9-01221-01281099441ADDAY101999GF103991021001999999041011KA1999M-00501MD1310031+9999MW1031
0057029700999991960021421004+60117+019900FM-12+000399999V0209991C00001220001CN0400001N9-01281-01501099451ADDAY101999GF102991021001999999041011MD1310011+9999MW1021
0057029700999991960021500004+60117+019900FM-12+000399999V0201801N00571220001CN0400001N9-00501-01001099431ADDAY121999GF102991021051008001041001MD1810031+9999MW1021
0057029700999991960021503004+60117+019900FM-12+000399999V0201501N00511007801CN0400001N9-00281-00721099291ADDAY111999GF106991051051008001041001MD1710191+9999MW1031
0070029700999991960021506004+60117+019900FM-12+000399999V0201701N00461004501CN0500001N9-00281-00721099271ADDAY121999GF108991061051004501071999KA1999N-01281MD1810031+9999MW1021
0057029700999991960021509004+60117+019900FM-12+000399999V0201401N00461030001CN0400001N9-00221-00721099241ADDAY121999GF107991041051004501071999MD1710041+9999MW1011
0057029700999991960021512004+60117+019900FM-12+000399999V0201301N00621004501CN0020001N9-00281-00281099171ADDAY171999GF108991061051004501071999MD1710091+9999MW1731
0057029700999991960021515004+60117+019900FM-12+000399999V0201201N00621004501CN0050001N9-00281-00281099111ADDAY171999GF108991081051004501999999MD1710081+9999MW1711
0081029700999991960021518004+60117+019900FM-12+000399999V0201201N00671002401CN0150001N9-00501-00501099161ADDAA199002091AY121999GF108991081071002501999999KA1999M-00221MD1310071+9999MW1021
0057029700999991960021521004+60117+019900FM-12+000399999V0200901N00511001501CN0100001N9-00501-00501099061ADDAY121999GF108991081071001501999999MD1810131+9999MW1021
0057029700999991960021600004+60117+019900FM-12+000399999V0200601N00621001501CN0080001N9-00501-00611098891ADDAY121999GF108991081071001501999999MD1710211+9999MW1021
0057029700999991960021603004+60117+019900FM-12+000399999V0200701N00511002401CN0060001N9-00391-00501098721ADDAY121999GF108991081071002501999999MD1710241+9999MW1701
0081029700999991960021606004+60117+019900FM-12+000399999V0200601N00511001501CN0040001N9-00281-00391098621ADDAA199001091AY171999GF108991081071001501999999KA1999N-00501MD1710131+9999MW1711
0057029700999991960021609004+60117+019900FM-12+000399999V0200701N00461001501CN0020001N9-00281-00391098611ADDAY171999GF108991081071001501999999MD1610011+9999MW1731
0057029700999991960021612004+60117+019900FM-12+000399999V0202101N00461001501CN0060001N9+00001-00111098621ADDAY171999GF107991071071001501999999MD1210011+9999MW1221
0057029700999991960021615004+60117+019900FM-12+000399999V0201901N00311001501CN0060001N9-00221-00281098651ADDAY121999GF107991071051001501041999MD1110041+9999MW1031
0081029700999991960021618004+60117+019900FM-12+000399999V0201901N001019999999N0020001N9-00391-00501098721ADDAA199001091AY121999GF108991081071999999999999KA1999M+00001MD1210071+9999MW1111
0057029700999991960021621004+60117+019900FM-12+000399999V0202401N00311002401CN0050001N9-00221-00221098791ADDAY121999GF108991081051002501999999MD1210091+9999MW1021
0057029700999991960021700004+60117+019900FM-12+000399999V0202401N00101004501CN0100001N9-00281-00391098821ADDAY121999GF107991071051004501999999MD1210041+9999MW1011
0057029700999991960021703004+60117+019900FM-12+000399999V0201901N00211004501CN0100001N9-00221-00391098831ADDAY121999GF107991071051004501999999MD1210011+9999MW1021
0081029700999991960021706004+60117+019900FM-12+000399999V0202101N00211002401CN0060001N9-00281-00281098831ADDAA199000691AY171999GF107991071071002501999999KA1999N-00611MD1410001+9999MW1711
0057029700999991960021709004+60117+019900FM-12+000399999V0209991C00001002401CN0045001N9-00281-00391098851ADDAY171999GF107991071051002501999999MD1210031+9999MW1221
0057029700999991960021712004+60117+019900FM-12+000399999V0200801N00361002401CN0060001N9-00221-00281098801ADDAY121999GF107991071051002501071999MD1810071+9999MW1701
0057029700999991960021715004+60117+019900FM-12+000399999V0200301N00311002401CN0060001N9-00221-00281098761ADDAY171999GF108991081071002501999999MD1610051+9999MW1701
0081029700999991960021718004+60117+019900FM-12+000399999V0200301N00411002401CN0020001N9-00281-00391098771ADDAA199000591AY171999GF108991081071002501999999KA1999M-00221MD1110011+9999MW1731
0057029700999991960021721004+60117+019900FM-12+000399999V0200201N00311002401CN0050001N9-00281-00391098771ADDAY171999GF108991081071002501999999MD1410001+9999MW1711
0057029700999991960021800004+60117+019900FM-12+000399999V0200101N00411002401CN0060001N9-00281-00281098781ADDAY121999GF108991081071002501999999MD1210011+9999MW1701
0057029700999991960021803004+60117+019900FM-12+000399999V0200201N00361002401CN0060001N9-00281-00391098821ADDAY171999GF108991081071002501999999MD1210051+9999MW1711
0081029700999991960021806004+60117+019900FM-12+000399999V0200201N00411002401CN0050001N9-00391-00391098881ADDAA199001091AY171999GF107991071051002501999999KA1999N-00391MD1210081+9999MW1711
0043029700999991960021809004+60117+019900FM-12+000399999V0200201N00411002401CN0030001N9-00391-00501099041ADDAY171999GF107991071051002501999999MW1711
0057029700999991960021812004+60117+019900FM-12+000399999V0203501N00571002401CN0070001N9-00281-00501099191ADDAY121999GF108991081071002501999999MD1210201+9999MW1021
0057029700999991960021815004+60117+019900FM-12+000399999V0203601N00411002401CN0030001N9-00281-00501099411ADDAY171999GF108991081071002501999999MD1210291+9999MW1711
0081029700999991960021818004+60117+019900FM-12+000399999V0203501N00411002401CN0050001N9-00281-00391099641ADDAA199001091AY171999GF108991081071002501999999KA1999M-00281MD1210311+9999MW1711
0057029700999991960021821004+60117+019900FM-12+000399999V0203301N00571004501CN0100001N9-00391-00501099901ADDAY171999GF108991081071004501999999MD1210351+9999MW1711
0057029700999991960021900004+60117+019900FM-12+000399999V0203201N00511004501CN0150001N9-00391-00611100181ADDAY121999GF108991081051004501999999MD1210371+9999MW1021
0057029700999991960021903004+60117+019900FM-12+000399999V0203301N00511004501CN0150001N9-00501-00721100361ADDAY121999GF108991081051004501999999MD1210241+9999MW1021
0081029700999991960021906004+60117+019900FM-12+000399999V0203201N00411004501CN0150001N9-00501-00781100611ADDAA199000391AY121999GF108991081051004501999999KA1999N-00501MD1210331+9999MW1021
0057029700999991960021909004+60117+019900FM-12+000399999V0203201N00311004501CN0030001N9-00501-00721100831ADDAY171999GF108991081051004501999999MD1210291+9999MW1711
0057029700999991960021912004+60117+019900FM-12+000399999V0203301N00211004501CN0050001N9-00501-00611101011ADDAY171999GF108991081051004501999999MD1210241+9999MW1711
0057029700999991960021915004+60117+019900FM-12+000399999V0203201N00211004501CN0100001N9-00501-00611101101ADDAY121999GF107991071051004501999999MD1210121+9999MW1011
0081029700999991960021918004+60117+019900FM-12+000399999V0202001N00261004501CN0150001N9-00501-00781101141ADDAA199000391AY121999GF105991051051004501999999KA1999M-00391MD1010051+9999MW1011
0057029700999991960021921004+60117+019900FM-12+000399999V0202101N00411220001CN0200001N9-00501-00781101241ADDAY121999GF104991041051004501999999MD1310131+9999MW1011
0057029700999991960022000004+60117+019900FM-12+000399999V0202201N00411004501CN0300001N9-00281-00611101171ADDAY121999GF107991071051004501999999MD1010091+9999MW1031
0057029700999991960022003004+60117+019900FM-12+000399999V0201701N00511007801CN0200001N9-00221-00611101051ADDAY121999GF108991081051008001999999MD1710161+9999MW1021
0070029700999991960022006004+60117+019900FM-12+000399999V0201401N00621004501CN0150001N9-00221-00501100871ADDAY121999GF108991081051004501999999KA1999N-00721MD1210241+9999MW1021
0057029700999991960022009004+60117+019900FM-12+000399999V0201201N00721001501CN0120001N9-00221-00391100661ADDAY121999GF108991081071001501999999MD1710281+9999MW1021
0057029700999991960022012004+60117+019900FM-12+000399999V0201201N00621001501CN0020001N9-00221-00391100441ADDAY121999GF108991081071001501999999MD1810291+9999MW1721
0057029700999991960022015004+60117+019900FM-12+000399999V0201201N00621001501CN0050001N9-00221-00281100131ADDAY171999GF108991081071001501999999MD1710171+9999MW1221
0081029700999991960022018004+60117+019900FM-12+000399999V0202601N00261004501CN0100001N9-00111-00221100191ADDAA199001091AY121999GF106991061051004501999999KA1999M+00001MD1310081+9999MW1011
0057029700999991960022100004+60117+019900FM-12+000399999V0201601N00411001501CN0060001N9+00001-00111100151ADDAY121999GF108991081071001501999999MD1710151+9999MW1711
0057029700999991960022103004+60117+019900FM-12+000399999V0201801N00721001501CN0100001N9+00111-00111099831ADDAY171999GF108991081071001501999999MD1710431+9999MW1221
0081029700999991960022106004+60117+019900FM-12+000399999V0201801N01031001501CN0030001N9+00111+00001099521ADDAA199002091AY171999GF108991081071001501999999KA1999N-00221MD1710411+9999MW1601
0057029700999991960022109004+60117+019900FM-12+000399999V0201901N01131000601CN0030001N9+00111+00001099431ADDAY161999GF108991081071000751999999MD1710121+9999MW1211
0057029700999991960022112004+60117+019900FM-12+000399999V0201901N00821001501CN0030001N9+00111+00001099381ADDAY121999GF108991081071001501999999MD1710071+9999MW1021
0057029700999991960022115004+60117+019900FM-12+000399999V0202001N00621000601CN0025001N9+00111+00001099421ADDAY121999GF108991081071000751999999MD1310051+9999MW1101
0081029700999991960022118004+60117+019900FM-12+000399999V0202201N00211004501CN0080001N9+00111+00001099421ADDAA199000391AY121999GF108991081051004501999999KA1999M+00111MD1410001+9999MW1021
0057029700999991960022121004+60117+019900FM-12+000399999V0202101N00101000601CN0012001N9+00001+00001099351ADDAY121999GF109991091999000751999999MD1710091+9999MW1101
0057029700999991960022200004+60117+019900FM-12+000399999V0202501N00101000151CN0004001N9+00001+00001099251ADDAY141999GF109991091999000251999999MD1710131+9999MW1471
0057029700999991960022203004+60117+019900FM-12+000399999V0200301N00151001501CN0050001N9-00111-00221099201ADDAY171999GF108991081071001501999999MD1710071+9999MW1781
0081029700999991960022206004+60117+019900FM-12+000399999V0203601N00411001501CN0020001N9-00281-00281099311ADDAA199001091AY171999GF108991081071001501999999KA1999N-00281MD1210151+9999MW1731
0057029700999991960022209004+60117+019900FM-12+000399999V0203501N00621002401CN0035001N9-00391-00611099481ADDAY171999GF108991081071002501999999MD1210231+9999MW1711
0057029700999991960022215004+60117+019900FM-12+000399999V0203301N00621004501CN0035001N9-00611-00781099891ADDAY171999GF108991081051004501999999MD1210271+9999MW1711
0081029700999991960022218004+60117+019900FM-12+000399999V0203401N00311004501CN0030001N9-00781-01001100091ADDAA199002091AY171999GF108991081051004501999999KA1999M-00281MD1210271+9999MW1711
0057029700999991960022221004+60117+019900FM-12+000399999V0203101N00311004501CN0045001N9-00721-00891100251ADDAY171999GF108991081051004501999999MD1210211+9999MW1711
0057029700999991960022300004+60117+019900FM-12+000399999V0203001N00101220001CN0100001N9-00781-01111100361ADDAY121999GF104991041051004501999999MD1210151+9999MW1011
0057029700999991960022303004+60117+019900FM-12+000399999V0209991C00001220001CN0300001N9-00781-01001100401ADDAY101999GF101991011001999999041001MD1110051+9999MW1011
0081029700999991960022306004+60117+019900FM-12+000399999V0202601N00101220001CN0300001N9-00611-00891100401ADDAA199000391AY101999GF100991001001999999001001KA1999N-00891MD1410001+9999MW1021
0057029700999991960022309004+60117+019900FM-12+000399999V0202701N00211220001CN0350001N9-00721-00891100631ADDAY101999GF101991011051008001001001MD1310311+9999MW1031
0057029700999991960022312004+60117+019900FM-12+000399999V0203001N00511004501CN0250001N9-00501-00781100841ADDAY121999GF106991061051004501999999MD1210281+9999MW1031
0070029700999991960022318004+60117+019900FM-12+000399999V0203101N00101220001CN0200001N9-01221-01391101181ADDAY111999GF103991031051004501001001KA1999M-00501MD1310281+9999MW1111
0057029700999991960022321004+60117+019900FM-12+000399999V0209991C00001220001CN0250001N9-01781-01891101371ADDAY101999GF101991011051004501001001MD1210251+9999MW1021
0057029700999991960022400004+60117+019900FM-12+000399999V0209991C00001220001CN0250001N9-01891-02001101541ADDAY101999GF100991001001999999001001MD1210231+9999MW1021
0057029700999991960022403004+60117+019900FM-12+000399999V0209991C00001220001CN0250001N9-02001-02221101671ADDAY101999GF100991001001999999001001MD1210171+9999MW1021
0070029700999991960022406004+60117+019900FM-12+000399999V0209991C00001220001CN0050001N9-02001-02221101781ADDAY101999GF100991001001999999001001KA1999N-02111MD1210151+9999MW1101
0057029700999991960022409004+60117+019900FM-12+000399999V0202301N00101220001CN0150001N9-01001-01111101931ADDAY101999GF101991011001999999041001MD1210201+9999MW1051
0057029700999991960022412004+60117+019900FM-12+000399999V0202001N00511220001CN0250001N9-00281-00721102121ADDAY101999GF102991011051004501001011MD1110251+9999MW1021
0057029700999991960022415004+60117+019900FM-12+000399999V0202001N00361220001CN0200001N9-00281-00611102151ADDAY101999GF106991011051004501001061MD1310041+9999MW1031
0089029700999991960022418004+60117+019900FM-12+000399999V0209991C000019999999N0015001N9-01281-01391102221ADDAY111999GF105991001001999999001081KA1999M-00281MD1210091+9999MW1101EQDQ01+000042SCOTLC
0057029700999991960022500004+60117+019900FM-12+000399999V0201501N00211220001CN0100001N9-01391-01501102401ADDAY101999GF100991001001999999001001MD1210051+9999MW1021
0057029700999991960022503004+60117+019900FM-12+000399999V0201301N00211220001CN0100001N9-01001-01111102451ADDAY101999GF100991001001999999001001MD1210071+9999MW1021
0070029700999991960022506004+60117+019900FM-12+000399999V0201201N00261220001CN0100001N9-00891-01001102501ADDAY101999GF107991001001999999041061KA1999N-01781MD1010071+9999MW1031
0057029700999991960022512004+60117+019900FM-12+000399999V0201301N00511220001CN0250001N9-00501-01001102561ADDAY101999GF104991001001999999001011MD1810051+9999MW1011
0057029700999991960022515004+60117+019900FM-12+000399999V0201401N00311220001CN0300001N9-00611-01281102561ADDAY101999GF101991001001999999041011MD1410001+9999MW1021
0070029700999991960022518004+60117+019900FM-12+000399999V0200801N00311220001CN0250001N9-01221-01391102541ADDAY101999GF101991001001999999001011KA1999M-00501MD1710031+9999MW1021
0057029700999991960022521004+60117+019900FM-12+000399999V0200701N00261220001CN0300001N9-01501-01611102551ADDAY101999GF100991001001999999001001MD1010011+9999MW1021
0057029700999991960022603004+60117+019900FM-12+000399999V0200701N00101220001CN0300001N9-01891-02001102531ADDAY101999GF100991001001999999001001MD1510011+9999MW1021
0070029700999991960022606004+60117+019900FM-12+000399999V0200701N00101220001CN0250001N9-01611-01781102601ADDAY101999GF105991001001999999001051KA1999N-02001MD1310091+9999MW1031
0057029700999991960022609004+60117+019900FM-12+000399999V0201401N00211220001CN0300001N9-01001-01501102631ADDAY101999GF106991001001999999001061MD1210041+9999MW1021
0057029700999991960022612004+60117+019900FM-12+000399999V0201501N00101220001CN0200001N9-00611-01281102631ADDAY101999GF104991001001999999001081MD1410001+9999MW1051
0057029700999991960022615004+60117+019900FM-12+000399999V0202001N00261220001CN0300001N9-00611-01281102611ADDAY101999GF101991001001999999001011MD1710031+9999MW1021
0070029700999991960022618004+60117+019900FM-12+000399999V0209991C00001220001CN0300001N9-01501-01611102651ADDAY101999GF103991001001999999041011KA1999M-00391MD1310051+9999MW1021
0057029700999991960022621004+60117+019900FM-12+000399999V0202201N00101220001CN0300001N9-01721-01891102641ADDAY101999GF100991001001999999001001MD1810011+9999MW1011
0057029700999991960022703004+60117+019900FM-12+000399999V0202101N00101220001CN0300001N9-01281-01391102481ADDAY101999GF100991001001999999001001MD1610091+9999MW1021
0070029700999991960022706004+60117+019900FM-12+000399999V0202101N00101075001CN0150001N9-01221-01281102391ADDAY121999GF108991021001999999031071KA1999N-01781MD1710121+9999MW1031
0057029700999991960022709004+60117+019900FM-12+000399999V0201901N00411024001CN0200001N9-00281-00281102351ADDAY121999GF108991081001999999071999MD1710051+9999MW1031
0057029700999991960022712004+60117+019900FM-12+000399999V0201701N00511002401CN0150001N9-00221-00281102241ADDAY121999GF108991051051002501011999MD1710151+9999MW1021
0057029700999991960022715004+60117+019900FM-12+000399999V0201801N00511002401CN0150001N9-00221-00391102101ADDAY121999GF108991051051002501011999MD1710191+9999MW1021
0070029700999991960022718004+60117+019900FM-12+000399999V0201401N00411002401CN0150001N9-00221-00391101911ADDAY121999GF108991081071002501999999KA1999M-00111MD1710251+9999MW1021
0057029700999991960022721004+60117+019900FM-12+000399999V0201401N00511002401CN0150001N9-00221-00281101721ADDAY121999GF108991081071002501999999MD1710251+9999MW1021
0057029700999991960022800004+60117+019900FM-12+000399999V0201501N00511001501CN0040001N9-00221-00221101461ADDAY171999GF108991081071001501999999MD1810351+9999MW1711
0057029700999991960022803004+60117+019900FM-12+000399999V0201401N00411001501CN0010001N9-00221-00281101181ADDAY171999GF109991091999001501999999MD1710371+9999MW1731
0081029700999991960022806004+60117+019900FM-12+000399999V0200901N00211001501CN0010001N9-00281-00281100951ADDAA199004091AY171999GF109991091071001501999999KA1999N-00281MD1710311+9999MW1711
0057029700999991960022809004+60117+019900FM-12+000399999V0200101N00311001501CN0020001N9-00391-00391100981ADDAY171999GF108991081071001501999999MD1310041+9999MW1731
0057029700999991960022812004+60117+019900FM-12+000399999V0203401N00621002401CN0070001N9-00391-00611101171ADDAY121999GF107991071051002501051999MD1310251+9999MW1021
0057029700999991960022815004+60117+019900FM-12+000399999V0200101N00771002401CN0080001N9-00611-00721101261ADDAY121999GF108991081071002501999999MD1210121+9999MW1701
0081029700999991960022818004+60117+019900FM-12+000399999V0203601N00511002401CN0150001N9-00611-00781101451ADDAA199000391AY121999GF108991081071002501999999KA1999M-00281MD1210251+9999MW1021
0057029700999991960022821004+60117+019900FM-12+000399999V0200301N00411004501CN0150001N9-00721-00891101601ADDAY121999GF108991081071004501999999MD1210201+9999MW1021
0057029700999991960022900004+60117+019900FM-12+000399999V0200101N00411002401CN0150001N9-01221-01391101831ADDAY121999GF108991081071002501999999MD1210311+9999MW1021
0057029700999991960022903004+60117+019900FM-12+000399999V0203601N00721002401CN0100001N9-01111-01221101931ADDAY121999GF108991081071002501999999MD1210131+9999MW1701
0081029700999991960022906004+60117+019900FM-12+000399999V0203601N00621004501CN0100001N9-01111-01221102111ADDAA199000691AY121999GF108991081071004501999999KA1999N-01221MD1210241+9999MW1701
0057029700999991960022909004+60117+019900FM-12+000399999V0203601N00621004501CN0050001N9-01221-01391102261ADDAY171999GF106991061051004501999999MD1310201+9999MW1711
0057029700999991960022912004+60117+019900FM-12+000399999V0203501N00721220001CN0200001N9-01111-01391102431ADDAY171999GF102991021051004501001001MD1110231+9999MW1221
0057029700999991960022915004+60117+019900FM-12+000399999V0200201N00411220001CN0250001N9-01111-01501102501ADDAY101999GF103991001001999999001011MD1210091+9999MW1021
0081029700999991960022918004+60117+019900FM-12+000399999V0203601N00101220001CN0250001N9-01781-01891102561ADDAA199000691AY101999GF101991001001999999001011KA1999M-01111MD1210081+9999MW1011
0057029700999991960022921004+60117+019900FM-12+000399999V0203601N00211220001CN0300001N9-01781-01891102611ADDAY101999GF101991001001999999001011MD1210071+9999MW1021
0057029700999991960030100004+60117+019900FM-12+000399999V0200401N00311220001CN0300001N9-01501-01781102631ADDAY101999GF100991001001999999001001MD1210031+9999MW1021
0057029700999991960030103004+60117+019900FM-12+000399999V0200401N00411220001CN0300001N9-01721-01891102481ADDAY101999GF100991001001999999001001MD1710201+9999MW1021
0070029700999991960030106004+60117+019900FM-12+000399999V0200401N00411220001CN0300001N9-01611-01781102371ADDAY101999GF103991011001999999041011KA1999N-02111MD1710151+9999MW1021
0057029700999991960030112004+60117+019900FM-12+000399999V0201301N00721030001CN0400001N9-01001-01281102191ADDAY121999GF108991011051004501011999MD1710131+9999MW1021
0057029700999991960030115004+60117+019900FM-12+000399999V0201401N00771030001CN0400001N9-00891-01221101971ADDAY121999GF108991011051004501021999MD1810291+9999MW1021
0081029700999991960030118004+60117+019900FM-12+000399999V0201301N008219999999N0300001N9-01001-01221101831ADDAA199000691AY121999GF108991999051004501021999KA1999M-00891MD1710191+9999MW1021
0057029700999991960030121004+60117+019900FM-12+000399999V0201301N00821004501CN0035001N9-00891-01111101701ADDAY171999GF108991081071004501999999MD1710171+9999MW1731
0057029700999991960030200004+60117+019900FM-12+000399999V0201301N00821004501CN0060001N9-00891-01001101561ADDAY171999GF108991081071004501999999MD1710191+9999MW1711
0057029700999991960030203004+60117+019900FM-12+000399999V0201301N00821004501CN0100001N9-00781-00891101321ADDAY171999GF108991081071004501999999MD1710321+9999MW1021
0081029700999991960030206004+60117+019900FM-12+000399999V0201401N00821002401CN0150001N9-00611-00781101181ADDAA199001091AY121999GF108991081071002501999999KA1999N-01111MD1710191+9999MW1021
0057029700999991960030209004+60117+019900FM-12+000399999V0201401N00871002401CN0040001N9-00611-00721101151ADDAY171999GF108991081071002501999999MD1610041+9999MW1711
0057029700999991960030212004+60117+019900FM-12+000399999V0201401N00871002401CN0050001N9-00501-00611101081ADDAY171999GF108991081071002501999999MD1710091+9999MW1221
0057029700999991960030215004+60117+019900FM-12+000399999V0201401N00721001501CN0050001N9-00501-00611101091ADDAY121999GF108991081071001501999999MD1210011+9999MW1021
0081029700999991960030218004+60117+019900FM-12+000399999V0201301N00771001501CN0018001N9-00391-00501101101ADDAA199000591AY171999GF108991081071001501999999KA1999M-00391MD1210011+9999MW1561
0057029700999991960030300004+60117+019900FM-12+000399999V0201401N00821001501CN0025001N9-00281-00391101241ADDAY171999GF108991081071001501999999MD1110111+9999MW1771
0057029700999991960030303004+60117+019900FM-12+000399999V0201301N00621001501CN0015001N9-00281-00281101281ADDAY171999GF108991081071001501999999MD1210051+9999MW1561
0081029700999991960030306004+60117+019900FM-12+000399999V0201301N00621000601CN0012001N9-00281-00281101411ADDAA199002091AY151999GF108991081071000751999999KA1999N-00501MD1210171+9999MW1561
0057029700999991960030309004+60117+019900FM-12+000399999V0201301N00621000601CN0012001N9-00281-00281101521ADDAY151999GF108991081071000751999999MD1210151+9999MW1561
0057029700999991960030312004+60117+019900FM-12+000399999V0201201N00511000601CN0020001N9-00281-00281101621ADDAY151999GF108991081071000751999999MD1210131+9999MW1561
0057029700999991960030315004+60117+019900FM-12+000399999V0201301N00621000601CN0030001N9-00281-00281101641ADDAY121999GF108991081071000751999999MD1110031+9999MW1101
0081029700999991960030318004+60117+019900FM-12+000399999V0201301N00721001501CN0040001N9-00281-00391101751ADDAA199001091AY121999GF108991081071001501999999KA1999M-00221MD1210151+9999MW1021
0057029700999991960030400004+60117+019900FM-12+000399999V0201301N00511002401CN0050001N9-00221-00391101831ADDAY121999GF108991081071002501999999MD1210151+9999MW1021
0057029700999991960030403004+60117+019900FM-12+000399999V0201201N00511004501CN0100001N9-00281-00501101871ADDAY121999GF108991081051004501999999MD1210051+9999MW1021
0070029700999991960030406004+60117+019900FM-12+000399999V0201201N00411007801CN0200001N9-00391-00501102041ADDAY121999GF107991051051008001041999KA1999N-00391MD1210231+9999MW1031
0057029700999991960030409004+60117+019900FM-12+000399999V0201201N00621007801CN0200001N9-00281-00611102241ADDAY121999GF107991061051008001041999MD1210271+9999MW1021
0057029700999991960030412004+60117+019900FM-12+000399999V0201301N00511007801CN0300001N9-00221-00611102471ADDAY121999GF107991051051008001031999MD1210311+9999MW1021
0057029700999991960030415004+60117+019900FM-12+000399999V0201301N00621030001CN0300001N9-00221-00611102681ADDAY121999GF107991031051008001031999MD1210281+9999MW1021
0070029700999991960030418004+60117+019900FM-12+000399999V0201301N00461220001CN0300001N9-00391-00611102861ADDAY121999GF101991011001999999041999KA1999M-00221MD1210241+9999MW1011
0057029700999991960030421004+60117+019900FM-12+000399999V0201201N00261015001CN0200001N9-00391-00611103131ADDAY121999GF107991071051017501999999MD1210361+9999MW1021
0057029700999991960030500004+60117+019900FM-12+000399999V0200801N00261007801CN0300001N9-00391-00611103311ADDAY121999GF108991081051008001999999MD1210241+9999MW1031
0057029700999991960030503004+60117+019900FM-12+000399999V0201101N00311004501CN0200001N9-00501-00721103501ADDAY121999GF108991081061004501999999MD1210251+9999MW1021
0070029700999991960030506004+60117+019900FM-12+000399999V0200901N00101012301CN0200001N9-00611-00721103691ADDAY121999GF107991061051012501041999KA1999N-00611MD1210251+9999MW1021
0057029700999991960030509004+60117+019900FM-12+000399999V0201301N00101220001CN0150001N9-00391-00781103881ADDAY101999GF101991011001999999041001MD1210251+9999MW1021
0057029700999991960030512004+60117+019900FM-12+000399999V0201201N00411220001CN0150001N9-00111-00721104021ADDAY101999GF100991001001999999001001MD1210191+9999MW1051
0070029700999991960030518004+60117+019900FM-12+000399999V0201201N00211220001CN0150001N9-00721-00781104211ADDAY101999GF100991001001999999001001KA1999M-00111MD1210171+9999MW1021
0057029700999991960030521004+60117+019900FM-12+000399999V0209991C00001220001CN0150001N9-01281-01391104351ADDAY101999GF100991001001999999001001MD1210151+9999MW1021
0057029700999991960030600004+60117+019900FM-12+000399999V0209991C00001220001CN0200001N9-01501-01611104391ADDAY101999GF100991001001999999001001MD1210051+9999MW1021
0057029700999991960030603004+60117+019900FM-12+000399999V0201201N00151220001CN0200001N9-01501-01611104421ADDAY101999GF100991001001999999001001MD1110041+9999MW1021
0070029700999991960030606004+60117+019900FM-12+000399999V0209991C00001220001CN0100001N9-01611-01721104411ADDAY101999GF100991001001999999001001KA1999N-01721MD1810011+9999MW1111
0057029700999991960030609004+60117+019900FM-12+000399999V0201401N00261220001CN0150001N9-00501-00721104411ADDAY101999GF100991001001999999001001MD1410001+9999MW1051
0057029700999991960030612004+60117+019900FM-12+000399999V0201401N00511220001CN0250001N9-00221-00781104451ADDAY101999GF100991001001999999001001MD1210051+9999MW1021
0057029700999991960030615004+60117+019900FM-12+000399999V0201601N00411220001CN0200001N9-00221-00721104401ADDAY101999GF100991001001999999001001MD1710071+9999MW1021
0070029700999991960030618004+60117+019900FM-12+000399999V0201301N00101220001CN0150001N9-00721-00891104351ADDAY101999GF101991001001999999001011KA1999M-00221MD1510071+9999MW1021
0057029700999991960030621004+60117+019900FM-12+000399999V0201301N00101220001CN0100001N9-01281-01391104301ADDAY101999GF100991001001999999001001MD1810071+9999MW1021
0057029700999991960030700004+60117+019900FM-12+000399999V0209991C00001220001CN0100001N9-01391-01501104231ADDAY101999GF101991001001999999001011MD1710091+9999MW1021
0057029700999991960030703004+60117+019900FM-12+000399999V0209991C00001220001CN0100001N9-01501-01611104131ADDAY101999GF102991011001999999041011MD1710131+9999MW1021
0070029700999991960030706004+60117+019900FM-12+000399999V0209991C00001024001CN0050001N9-01111-01221104081ADDAY101999GF107991071001999999051999KA1999N-01611MD1710071+9999MW1101
0057029700999991960030712004+60117+019900FM-12+000399999V0201901N00511030001CN0120001N9-00221-00501104011ADDAY121999GF107991031051012501051999MD1710011+9999MW1021
0057029700999991960030715004+60117+019900FM-12+000399999V0201901N00511030001CN0150001N9-00221-00391103881ADDAY121999GF107991021051004501071999MD1710171+9999MW1021
0070029700999991960030718004+60117+019900FM-12+000399999V0201801N00511024001CN0200001N9-00221-00391103831ADDAY121999GF107991071001999999071999KA1999M-00111MD1710071+9999MW1021
0057029700999991960030721004+60117+019900FM-12+000399999V0201801N00411024001CN0200001N9-00391-00501103831ADDAY121999GF105991051001999999041999MD1410001+9999MW1011
0057029700999991960030800004+60117+019900FM-12+000399999V0209991C00001220001CN0020001N9-01111-01221103841ADDAY101999GF100991001001999999001001MD1210011+9999MW1111
0057029700999991960030803004+60117+019900FM-12+000399999V0209991C00001220001CN0200001N9-01281-01391103811ADDAY101999GF100991001001999999001001MD1710041+9999MW1021
0070029700999991960030806004+60117+019900FM-12+000399999V0201801N00101220001CN0060001N9-01391-01501103821ADDAY101999GF100991001001999999001001KA1999N-01611MD1510011+9999MW1411
0057029700999991960030809004+60117+019900FM-12+000399999V0201901N00211024001CN0200001N9-00281-00611103821ADDAY101999GF105991051001999999051999MD1410001+9999MW1051
0057029700999991960030812004+60117+019900FM-12+000399999V0201801N00511220001CN0200001N9-00221-00501103841ADDAY111999GF104991011051008001041001MD1010031+9999MW1051
0057029700999991960030815004+60117+019900FM-12+000399999V0201801N00311220001CN0300001N9-00391-00721103801ADDAY101999GF101991011001999999041001MD1710051+9999MW1021
0070029700999991960030818004+60117+019900FM-12+000399999V0201401N00101220001CN0200001N9-00781-01001103731ADDAY101999GF104991041001022501031001KA1999M-00221MD1710091+9999MW1031
0057029700999991960030821004+60117+019900FM-12+000399999V0209991C00001220001CN0100001N9-01221-01221103681ADDAY101999GF102991021001022501041001MD1710071+9999MW1011
0057029700999991960030900004+60117+019900FM-12+000399999V0209991C00001021001CN0150001N9-01111-01221103671ADDAY101999GF105991051001022501041999MD1210031+9999MW1021
0057029700999991960030903004+60117+019900FM-12+000399999V0209991C00001021001CN0150001N9-01221-01221103591ADDAY121999GF106991061001022501041999MD1710111+9999MW1031
0070029700999991960030906004+60117+019900FM-12+000399999V0209991C00001021001CN0200001N9-01001-01111103571ADDAY121999GF107991071001022501051999KA1999N-01281MD1510031+9999MW1021
0057029700999991960030909004+60117+019900FM-12+000399999V0201301N00101220001CN0200001N9-00281-01221103561ADDAY111999GF104991041001999999041001MD1710011+9999MW1011
0057029700999991960030912004+60117+019900FM-12+000399999V0201901N00311220001CN0400001N9+00001-01111103471ADDAY101999GF101991011001999999041001MD1710121+9999MW1021
0057029700999991960030915004+60117+019900FM-12+000399999V0201901N00101220001CN0400001N9+00001-01001103401ADDAY101999GF101991011001999999041001MD1710091+9999MW1021
0070029700999991960030918004+60117+019900FM-12+000399999V0209991C00001220001CN0300001N9-00781-01001103331ADDAY101999GF101991011001999999041001KA1999M+00111MD1710091+9999MW1021
0057029700999991960030921004+60117+019900FM-12+000399999V0200101N00211220001CN0020001N9-00891-00891103341ADDAY101999GF100991001001999999001001MD1310011+9999MW1101
0057029700999991960031000004+60117+019900FM-12+000399999V0200401N00211000601CN0010001N9-00781-00781103351ADDAY141999GF109991091999000751999999MD1110011+9999MW1471
0057029700999991960031003004+60117+019900FM-12+000399999V0209991C00001000601CN0010001N9-00891-01001103381ADDAY141999GF109991091999000751999999MD1210041+9999MW1451
0070029700999991960031006004+60117+019900FM-12+000399999V0201201N00101000601CN0020001N9-01001-01111103341ADDAY141999GF108991081071000751999999KA1999N-01111MD1810051+9999MW1281
0057029700999991960031009004+60117+019900FM-12+000399999V0201201N00101000601CN0009001N9-00781-00891103361ADDAY121999GF109991091071000751999999MD1310031+9999MW1471
0057029700999991960031012004+60117+019900FM-12+000399999V0201101N00101000601CN0040001N9-00501-00501103361ADDAY121999GF108991081071000751999999MD1410001+9999MW1021
0057029700999991960031015004+60117+019900FM-12+000399999V0209991C00001220001CN0200001N9-00391-00501103271ADDAY111999GF103991031051004501001001MD1710121+9999MW1011
0070029700999991960031018004+60117+019900FM-12+000399999V0201201N00101000151CN0005001N9-00721-00781103261ADDAY141999GF109991091999000251999999KA1999M-00281MD1610011+9999MW1471
0057029700999991960031021004+60117+019900FM-12+000399999V0201201N00101000601CN0006001N9-00781-00781103221ADDAY141999GF107991071061000751999999MD1610051+9999MW1421
0057029700999991960031100004+60117+019900FM-12+000399999V0200601N00101000601CN0006001N9-01001-01001103231ADDAY141999GF107991071061000751999999MD1310011+9999MW1441
0057029700999991960031103004+60117+019900FM-12+000399999V0200601N00101000151CN0004001N9-01111-01111103221ADDAY141999GF109991091999000251999999MD1810011+9999MW1451
0070029700999991960031106004+60117+019900FM-12+000399999V0201201N00101000151CN0005001N9-01111-01221103151ADDAY141999GF109991091999000251999999KA1999N-01221MD1710091+9999MW1451
0057029700999991960031109004+60117+019900FM-12+000399999V0201001N00101000601CN0007001N9-00781-00781103051ADDAY141999GF109991091061000751999999MD1710131+9999MW1761
0057029700999991960031112004+60117+019900FM-12+000399999V0201501N00461000601CN0030001N9-00501-00611102981ADDAY171999GF109991091999000751999999MD1710091+9999MW1771
0057029700999991960031115004+60117+019900FM-12+000399999V0201401N00411000601CN0030001N9-00611-00611102831ADDAY121999GF109991091999000751999999MD1710201+9999MW1101
0081029700999991960031118004+60117+019900FM-12+000399999V0201201N00311000151CN0008001N9-00611-00721102691ADDAA199000691AY141999GF109991091999000251999999KA1999M-00501MD1710141+9999MW1451
0057029700999991960031121004+60117+019900FM-12+000399999V0201301N00211000151CN0008001N9-00611-00611102561ADDAY141999GF109991091999000251999999MD1710171+9999MW1451
0057029700999991960031200004+60117+019900FM-12+000399999V0201301N00211000151CN0008001N9-00501-00501102431ADDAY141999GF109991091999000251999999MD1710171+9999MW1451
0057029700999991960031203004+60117+019900FM-12+000399999V0201301N00211000151CN0009001N9-00501-00611102231ADDAY141999GF109991091999000251999999MD1710271+9999MW1451
0070029700999991960031206004+60117+019900FM-12+000399999V0201101N00211000601CN0020001N9-00501-00501102061ADDAY121999GF109991091999000751999999KA1999N-00721MD1710231+9999MW1101
0057029700999991960031209004+60117+019900FM-12+000399999V0201001N00261000601CN0030001N9-00391-00391101891ADDAY121999GF108991081061000751999999MD1710231+9999MW1101
0057029700999991960031212004+60117+019900FM-12+000399999V0201001N00211030001CN0040001N9-00281-00281101811ADDAY121999GF107991031051001501031999MD1610111+9999MW1021
0057029700999991960031215004+60117+019900FM-12+000399999V0200901N00411030001CN0050001N9-00281-00391101571ADDAY121999GF107991021051004501031999MD1710321+9999MW1021
0070029700999991960031218004+60117+019900FM-12+000399999V0201101N00411030001CN0050001N9-00391-00501101451ADDAY121999GF107991021051008001071999KA1999M-00221MD1710161+9999MW1021
0057029700999991960031221004+60117+019900FM-12+000399999V0201201N00411021001CN0100001N9-00281-00391101331ADDAY121999GF107991071001022501071999MD1810161+9999MW1011
0057029700999991960031300004+60117+019900FM-12+000399999V0201301N00361021001CN0100001N9-00221-00391101231ADDAY121999GF108991081001022501011999MD1710131+9999MW1021
0057029700999991960031303004+60117+019900FM-12+000399999V0201201N00311004501CN0080001N9-00221-00281101101ADDAY121999GF108991051061004501071999MD1710171+9999MW1661
0057029700999991960031309004+60117+019900FM-12+000399999V0201501N00101001501CN0050001N9+00001-00111101151ADDAY121999GF108991081061001501999999MD1010041+9999MW1021
0057029700999991960031312004+60117+019900FM-12+000399999V0201501N00101002401CN0070001N9+00111-00111101191ADDAY121999GF108991081061002501999999MD1710051+9999MW1021
0057029700999991960031315004+60117+019900FM-12+000399999V0201401N00051004501CN0080001N9+00111+00001101161ADDAY121999GF108991081061004501999999MD1710041+9999MW1021
0070029700999991960031318004+60117+019900FM-12+000399999V0203501N00211002401CN0080001N9+00001-00111101191ADDAY121999GF108991081061002501999999KA1999M+00111MD1310041+9999MW1021
0057029700999991960031321004+60117+019900FM-12+000399999V0203401N00261001501CN0050001N9+00001-00111101201ADDAY121999GF108991081061001501999999MD1010011+9999MW1021
0057029700999991960031400004+60117+019900FM-12+000399999V0209991C00001002401CN0060001N9-00111-00111101181ADDAY121999GF108991081061002501999999MD1610031+9999MW1701
0057029700999991960031403004+60117+019900FM-12+000399999V0203601N00151002401CN0060001N9-00111-00221101171ADDAY121999GF108991081061002501999999MD1710011+9999MW1701
0081029700999991960031406004+60117+019900FM-12+000399999V0203601N00211002401CN0040001N9-00111-00111101181ADDAA199000591AY121999GF108991081061002501999999KA1999N-00111MD1010011+9999MW1021
0057029700999991960031409004+60117+019900FM-12+000399999V0200101N00261004501CN0050001N9+00001-00111101211ADDAY171999GF108991081071004501999999MD1310041+9999MW1221
0057029700999991960031412004+60117+019900FM-12+000399999V0200401N00311002401CN0070001N9+00111-00111101191ADDAY121999GF108991081071002501999999MD1710031+9999MW1021
0057029700999991960031415004+60117+019900FM-12+000399999V0200101N00411002401CN0050001N9+00001-00111101241ADDAY121999GF108991081071002501999999MD1210071+9999MW1021
0081029700999991960031418004+60117+019900FM-12+000399999V0200101N00261002401CN0040001N9+00001-00111101301ADDAA199000391AY171999GF108991081071002501999999KA1999M+00111MD1210081+9999MW1701
0057029700999991960031421004+60117+019900FM-12+000399999V0200101N00261004501CN0050001N9+00001-00111101361ADDAY121999GF108991081071004501999999MD1110081+9999MW1021
0057029700999991960031500004+60117+019900FM-12+000399999V0200901N00311002401CN0050001N9+00001-00111101401ADDAY121999GF108991081071002501999999MD1210051+9999MW1021
0057029700999991960031503004+60117+019900FM-12+000399999V0200701N00211000601CN0015001N9-00111-00111101441ADDAY121999GF108991081071000751999999MD1210051+9999MW1101
0070029700999991960031506004+60117+019900FM-12+000399999V0200801N00211001501CN0080001N9-00111-00221101531ADDAY121999GF108991081071001501999999KA1999N-00111MD1210121+9999MW1021
0057029700999991960031509004+60117+019900FM-12+000399999V0200601N00511004501CN0080001N9-00281-00611101751ADDAY121999GF106991061051004501001001MD1210231+9999MW1011
0057029700999991960031512004+60117+019900FM-12+000399999V0200601N00511004501CN0080001N9-00111-00611101791ADDAY121999GF106991061051004501001011MD1210121+9999MW1051
0057029700999991960031515004+60117+019900FM-12+000399999V0200601N00411004501CN0080001N9-00111-00611101891ADDAY121999GF107991071051004501041999MD1210131+9999MW1051
0070029700999991960031518004+60117+019900FM-12+000399999V0200101N00211004501CN0150001N9-00221-00611101981ADDAY121999GF108991081051004501999999KA1999M-00111MD1210121+9999MW1021
0057029700999991960031521004+60117+019900FM-12+000399999V0200201N00211004501CN0150001N9-00221-00611102041ADDAY121999GF108991081051004501999999MD1210081+9999MW1021
0057029700999991960031600004+60117+019900FM-12+000399999V0200301N00211004501CN0150001N9-00281-00611102151ADDAY121999GF108991081051004501999999MD1210151+9999MW1021
0057029700999991960031603004+60117+019900FM-12+000399999V0200301N00311004501CN0150001N9-00391-00611102151ADDAY121999GF107991071051004501999999MD1410001+9999MW1011
0070029700999991960031606004+60117+019900FM-12+000399999V0200301N00411004501CN0150001N9-00391-00611102241ADDAY121999GF108991081051004501999999KA1999N-00391MD1210121+9999MW1021
0057029700999991960031609004+60117+019900FM-12+000399999V0200301N00361004501CN0045001N9-00281-00501102321ADDAY171999GF108991081051004501999999MD1310111+9999MW1771
0057029700999991960031612004+60117+019900FM-12+000399999V0200301N00411002401CN0040001N9-00221-00281102471ADDAY171999GF108991081061002501999999MD1210141+9999MW1711
0057029700999991960031615004+60117+019900FM-12+000399999V0200601N00411002401CN0035001N9-00221-00281102571ADDAY171999GF108991081071002501999999MD1210131+9999MW1711
0081029700999991960031618004+60117+019900FM-12+000399999V0200601N00411004501CN0080001N9-00221-00501102641ADDAA199000591AY171999GF108991081071004501999999KA1999M-00221MD1210231+9999MW1221
0057029700999991960031621004+60117+019900FM-12+000399999V0200601N00411004501CN0100001N9-00391-00721102721ADDAY121999GF108991081051004501999999MD1110111+9999MW1021
0057029700999991960031800004+60117+019900FM-12+000399999V0203601N00311004501CN0200001N9-00391-00501102461ADDAY121999GF108991081051004501999999MD1710051+9999MW1021
0057029700999991960031803004+60117+019900FM-12+000399999V0203601N00411004501CN0200001N9-00281-00501102421ADDAY121999GF108991081051004501999999MD1710051+9999MW1021
0081029700999991960031806004+60117+019900FM-12+000399999V0203601N00511004501CN0200001N9-00281-00501102401ADDAA199000391AY121999GF105991051051004501999999KA1999N-00391MD1710031+9999MW1011
0057029700999991960031809004+60117+019900FM-12+000399999V0203601N00621220001CN0200001N9-00111-00501102491ADDAY101999GF101991011051004501001001MD1310121+9999MW1051
0057029700999991960031812004+60117+019900FM-12+000399999V0203601N00721030001CN0200001N9-00111-00281102611ADDAY111999GF106991041051004501041001MD1210161+9999MW1051
0057029700999991960031815004+60117+019900FM-12+000399999V0203501N00621220001CN0200001N9+00001-00281102721ADDAY121999GF103991031051004501001001MD1210181+9999MW1051
0070029700999991960031818004+60117+019900FM-12+000399999V0203601N00411220001CN0300001N9-00221-00501102921ADDAY101999GF100991001001999999001001KA1999M+00001MD1310271+9999MW1021
0057029700999991960031821004+60117+019900FM-12+000399999V0203601N00511220001CN0200001N9-00391-00501103111ADDAY101999GF100991001001999999001001MD1210251+9999MW1021
0057029700999991960031900004+60117+019900FM-12+000399999V0200101N00411220001CN0200001N9-00501-00501103281ADDAY101999GF100991001001999999001001MD1210231+9999MW1021
0057029700999991960031903004+60117+019900FM-12+000399999V0203501N00261220001CN0200001N9-00721-00721103431ADDAY101999GF100991001001999999001001MD1210201+9999MW1021
0070029700999991960031906004+60117+019900FM-12+000399999V0209991C00001220001CN0013001N9-00781-00781103641ADDAY121999GF100991001001999999001001KA1999N-00891MD1210281+9999MW1101
0057029700999991960031909004+60117+019900FM-12+000399999V0209991C00001220001CN0150001N9-00111-00391103861ADDAY101999GF100991001001999999001001MD1210281+9999MW1051
0057029700999991960031912004+60117+019900FM-12+000399999V0203601N00361220001CN0150001N9+00281-00501104011ADDAY101999GF100991001001999999001001MD1210201+9999MW1051
0057029700999991960031915004+60117+019900FM-12+000399999V0200201N00361220001CN0100001N9+00391-00391104081ADDAY101999GF100991001001999999001001MD1210091+9999MW1051
0070029700999991960031918004+60117+019900FM-12+000399999V0200101N00101220001CN0200001N9-00221-00391104181ADDAY101999GF100991001001999999001001KA1999M+00391MD1210131+9999MW1021
0057029700999991960031921004+60117+019900FM-12+000399999V0209991C00001220001CN0200001N9-00611-00611104261ADDAY101999GF100991001001999999001001MD1210111+9999MW1021
0057029700999991960032000004+60117+019900FM-12+000399999V0209991C00001220001CN0200001N9-00891-01001104271ADDAY101999GF100991001001999999001001MD1210011+9999MW1021
0057029700999991960032003004+60117+019900FM-12+000399999V0209991C00001220001CN0200001N9-01001-01111104311ADDAY101999GF100991001001999999001001MD1210051+9999MW1021
0070029700999991960032006004+60117+019900FM-12+000399999V0200201N00101220001CN0030001N9-01111-01221104451ADDAY101999GF100991001001999999001001KA1999N-01221MD1310191+9999MW1411
0057029700999991960032009004+60117+019900FM-12+000399999V0200101N00101220001CN0150001N9+00221-00281104471ADDAY101999GF100991001001999999001001MD1110031+9999MW1051
0057029700999991960032012004+60117+019900FM-12+000399999V0201901N00411220001CN0150001N9+00281-00281104471ADDAY101999GF100991001001999999001001MD1410001+9999MW1051
0057029700999991960032015004+60117+019900FM-12+000399999V0201901N00311220001CN0200001N9+00281-00111104401ADDAY101999GF100991001001999999001001MD1710091+9999MW1051
0057029700999991960032021004+60117+019900FM-12+000399999V0201901N00151220001CN0200001N9-00281-00391104321ADDAY101999GF100991001001999999001001MD1610031+9999MW1021
0057029700999991960032100004+60117+019900FM-12+000399999V0209991C00001220001CN0200001N9-00721-00781104261ADDAY101999GF100991001001999999001001MD1710081+9999MW1021
0057029700999991960032103004+60117+019900FM-12+000399999V0209991C00001220001CN0150001N9-00891-00891104221ADDAY101999GF100991001001999999001001MD1710051+9999MW1021
0070029700999991960032106004+60117+019900FM-12+000399999V0209991C00001220001CN0150001N9-00891-00891104141ADDAY101999GF100991001001999999001001KA1999N-01001MD1710111+9999MW1051
0057029700999991960032109004+60117+019900FM-12+000399999V0209991C00001220001CN0200001N9+00001-00281104081ADDAY101999GF100991001001999999001001MD1710081+9999MW1051
0057029700999991960032112004+60117+019900FM-12+000399999V0201901N00461220001CN0150001N9+00001-00221104021ADDAY101999GF100991001001999999001001MD1710081+9999MW1051
0057029700999991960032115004+60117+019900FM-12+000399999V0201801N00461220001CN0180001N9+00221-00221103821ADDAY101999GF100991001001999999001001MD1810271+9999MW1051
0070029700999991960032118004+60117+019900FM-12+000399999V0201801N00461220001CN0200001N9-00111-00391103731ADDAY101999GF100991001001999999001001KA1999M+00221MD1710121+9999MW1021
