0057029720999991960010100004+60517+022267FM-12+005499999V0201401N00411002401CN0150001N9-00391-00501101691ADDAY121999GF108991081061002501999999MD1710141+9999MW1021
0057029720999991960010103004+60517+022267FM-12+005499999V0201601N00511001501CN0150001N9-00281-00391101561ADDAY121999GF108991081061001501999999MD1710131+9999MW1021
0070029720999991960010106004+60517+022267FM-12+005499999V0201601N00511001501CN0150001N9-00281-00281101361ADDAY121999GF108991081061001501999999KA1999N-00721MD1710091+9999MW1711
0057029720999991960010109004+60517+022267FM-12+005499999V0201601N00721001501CN0100001N9-00111-00221101271ADDAY171999GF108991081061001501999999MD1710091+9999MW1701
0057029720999991960010112004+60517+022267FM-12+005499999V0201801N00621001501CN0100001N9+00001-00111101171ADDAY121999GF108991081061001501999999MD1710101+9999MW1021
0057029720999991960010115004+60517+022267FM-12+005499999V0201801N00721001501CN0100001N9+00001-00221101071ADDAY121999GF108991081061001501999999MD1710101+9999MW1021
0070029720999991960010118004+60517+022267FM-12+005499999V0201801N00621002401CN0100001N9-00111-00391101071ADDAY121999GF108991081061002501999999KA1999M+00001MD1410001+9999MW1021
0092029720999991960010121004+60517+022267FM-12+005499999V0201801N00621001501CN0100001N9-00111-00111101091ADDAY151999GF108991081061001501999999MD1210021+9999MW1561EQDQ01+000042APCTENQ02+000022APC3  
0057029720999991960010212004+60517+022267FM-12+005499999V0201801N00411001501CN0025001N9+00001-00111101601ADDAY171999GF108991081061001501999999MD1210071+9999MW1711
0057029720999991960010300004+60517+022267FM-12+005499999V0201801N00101001501CN0060001N9+00001-00111102071ADDAY171999GF108991081061001501999999MD1210081+9999MW1021
0057029720999991960010303004+60517+022267FM-12+005499999V0201401N00101002401CN0060001N9+00001-00111102211ADDAY121999GF108991081061002501999999MD1210141+9999MW1021
0081029720999991960010306004+60517+022267FM-12+005499999V0201401N00101004501CN0100001N9-00111-00111102331ADDAA199001091AY121999GF108991081061004501999999KA1999N-00111MD1210121+9999MW1021
0057029720999991960010309004+60517+022267FM-12+005499999V0201401N00101002401CN0060001N9-00111-00111102491ADDAY151999GF108991081061002501999999MD1210161+9999MW1241
0057029720999991960010312004+60517+022267FM-12+005499999V0209991C00001002401CN0100001N9-00111-00111102571ADDAY151999GF108991081061002501999999MD1210081+9999MW1021
0057029720999991960010315004+60517+022267FM-12+005499999V0209991C00001001501CN0040001N9-00111-00111102701ADDAY121999GF108991081061001501999999MD1210131+9999MW1561
0081029720999991960010318004+60517+022267FM-12+005499999V0209991C00001000601CN0020001N9-00111-00221102801ADDAA199000691AY151999GF108991081061000751999999KA1999M+00001MD1210101+9999MW1561
0057029720999991960010321004+60517+022267FM-12+005499999V0209991C00001001501CN0030001N9-00111-00221102901ADDAY151999GF108991081061001501999999MD1210101+9999MW1561
0057029720999991960010400004+60517+022267FM-12+005499999V0209991C00001002401CN0100001N9-00221-00221102961ADDAY151999GF108991081061002501999999MD1210061+9999MW1021
0057029720999991960010403004+60517+022267FM-12+005499999V0209991C00001000601CN0100001N9-00221-00221103011ADDAY121999GF108991081061000751999999MD1210051+9999MW1031
0081029720999991960010406004+60517+022267FM-12+005499999V0209991C00001004501CN0100001N9-00221-00221103091ADDAA199000691AY121999GF108991081061004501999999KA1999N-00221MD1210081+9999MW1011
0057029720999991960010412004+60517+022267FM-12+005499999V0201801N00101004501CN0100001N9-00221-00221103101ADDAY121999GF108991081061004501999999MD1710051+9999MW1021
0057029720999991960010415004+60517+022267FM-12+005499999V0201801N00101001501CN0015001N9-00281-00501103111ADDAY151999GF108991081061001501999999MD1410001+9999MW1561
0100029720999991960010418004+60517+022267FM-12+005499999V0201801N00101001501CN0030001N9-00391+99999103021ADDAA199000591AY151999GF108991081061001501999999KA1999M-00111MD1710091+9999MW1701EQDQ01+027092ATOD  
0057029720999991960010421004+60517+022267FM-12+005499999V0201801N00211001501CN0030001N9+00001+00001102871ADDAY171999GF108991081061001501999999MD1710141+9999MW1561
0057029720999991960010500004+60517+022267FM-12+005499999V0202201N00311001501CN0030001N9+00111+00001102611ADDAY151999GF108991081061001501999999MD1710261+9999MW1241
0057029720999991960010503004+60517+022267FM-12+005499999V0202201N00411001501CN0080001N9+00111+00001102391ADDAY121999GF108991081061001501999999MD1710221+9999MW1021
0081029720999991960010506004+60517+022267FM-12+005499999V0202201N00621001501CN0080001N9+00111+00001102031ADDAA199000391AY121999GF108991081061001501999999KA1999N-00111MD1710361+9999MW1021
0057029720999991960010509004+60517+022267FM-12+005499999V0202301N00621000601CN0040001N9+00221+00111101801ADDAY161999GF108991081061000751999999MD1710231+9999MW1611
0057029720999991960010515004+60517+022267FM-12+005499999V0201801N00511000601CN0020001N9+00111+00001101061ADDAY161999GF108991081061000751999999MD1710381+9999MW1681
0081029720999991960010518004+60517+022267FM-12+005499999V0201801N00311000601CN0015001N9+00001+00001100641ADDAA199008091AY161999GF108991081061000751999999KA1999M+00221MD1710411+9999MW1681
0057029720999991960010521004+60517+022267FM-12+005499999V0201801N00411000601CN0015001N9+00001+00001100241ADDAY171999GF108991081061000751999999MD1710401+9999MW1681
0057029720999991960010600004+60517+022267FM-12+005499999V0200901N00311001501CN0015001N9+00001+00001099841ADDAY171999GF108991081061001501999999MD1710391+9999MW1681
0057029720999991960010603004+60517+022267FM-12+005499999V0200901N00311001501CN0015001N9+00001+00001099631ADDAY171999GF108991081061001501999999MD1710211+9999MW1681
0081029720999991960010606004+60517+022267FM-12+005499999V0200401N00511000601CN0013001N9-00391-00391099541ADDAA199012091AY171999GF108991081061000751999999KA1999N-00391MD1710121+9999MW1731
0057029720999991960010609004+60517+022267FM-12+005499999V0200401N00511001501CN0014001N9-00111-00391099671ADDAY171999GF108991081061001501999999MD1210161+9999MW1731
0057029720999991960010612004+60517+022267FM-12+005499999V0200401N00511001501CN0020001N9-00111-00111099841ADDAY171999GF108991081061001501999999MD1210171+9999MW1711
0057029720999991960010615004+60517+022267FM-12+005499999V0203601N00511001501CN0050001N9-00111-00221100021ADDAY171999GF108991081061001501999999MD1210181+9999MW1711
0081029720999991960010618004+60517+022267FM-12+005499999V0200201N00411030001CN0080001N9-00111-00221100131ADDAA199005091AY171999GF108991031061002501011999KA1999M+00001MD1210111+9999MW1021
0057029720999991960010621004+60517+022267FM-12+005499999V0203601N00311001501CN0050001N9+00001-00111100211ADDAY171999GF108991081061001501999999MD1210081+9999MW1711
0057029720999991960010700004+60517+022267FM-12+005499999V0203601N00511001501CN0200001N9+00001-00221100301ADDAY171999GF108991081061001501999999MD1210091+9999MW1021
0057029720999991960010703004+60517+022267FM-12+005499999V0203601N00511001501CN0200001N9-00111-00221100451ADDAY121999GF108991081061001501999999MD1210151+9999MW1021
0081029720999991960010706004+60517+022267FM-12+005499999V0203601N00511001501CN0200001N9-00111-00281100571ADDAA199000391AY121999GF108991081061001501999999KA1999N-00221MD1210121+9999MW1021
0057029720999991960010709004+60517+022267FM-12+005499999V0203601N00511001501CN0200001N9-00391-00501100731ADDAY121999GF108991081061001501999999MD1210161+9999MW1021
0057029720999991960010712004+60517+022267FM-12+005499999V0203601N00411002401CN0200001N9-00501-00501100751ADDAY121999GF108991081061002501999999MD1210021+9999MW1021
0057029720999991960010715004+60517+022267FM-12+005499999V0200401N00621002401CN0100001N9-00781-00891100921ADDAY121999GF108991081061002501999999MD1210161+9999MW1021
0081029720999991960010718004+60517+022267FM-12+005499999V0200401N00721004501CN0100001N9-01001-01221101081ADDAA199000391AY171999GF108991081061004501999999KA1999M-00111MD1210151+9999MW1711
0057029720999991960010721004+60517+022267FM-12+005499999V0203601N00721004501CN0100001N9-01281-01611101311ADDAY171999GF107991071061004501999999MD1210211+9999MW1011
0057029720999991960010800004+60517+022267FM-12+005499999V0203601N00621220001CN0100001N9-01501-01781101421ADDAY101999GF100991001001999999001001MD1210111+9999MW1011
0057029720999991960010803004+60517+022267FM-12+005499999V0203601N00721220001CN0100001N9-01611-01891101421ADDAY101999GF100991001001999999001001MD1410001+9999MW1021
0070029720999991960010806004+60517+022267FM-12+005499999V0203601N00621220001CN0100001N9-01501-01891101531ADDAY101999GF100991001001999999001001KA1999N-01721MD1210111+9999MW1021
0057029720999991960010809004+60517+022267FM-12+005499999V0203601N00621024001CN0200001N9-01281-01721101531ADDAY121999GF106991061001999999071061MD1510001+9999MW1021
0057029720999991960010812004+60517+022267FM-12+005499999V0203601N00721075001CN0200001N9-01281-01721101551ADDAY121999GF106991021001999999041021MD1210031+9999MW1021
0057029720999991960010815004+60517+022267FM-12+005499999V0200401N00721220001CN0300001N9-01221-01611101661ADDAY101999GF102991001001999999001051MD1210111+9999MW1011
0070029720999991960010818004+60517+022267FM-12+005499999V0203601N00511220001CN0300001N9-01281-01721101831ADDAY101999GF100991001001999999001001KA1999M-01221MD1210171+9999MW1021
0057029720999991960010821004+60517+022267FM-12+005499999V0203601N00621220001CN0300001N9-01281-01721101961ADDAY101999GF100991001001999999001001MD1210131+9999MW1021
0057029720999991960010900004+60517+022267FM-12+005499999V0203601N00621220001CN0300001N9-01391-01781102061ADDAY101999GF100991001001999999001001MD1210101+9999MW1021
0057029720999991960010903004+60517+022267FM-12+005499999V0203601N00621220001CN0300001N9-01391-01781102171ADDAY101999GF100991001001999999001001MD1210111+9999MW1021
0070029720999991960010906004+60517+022267FM-12+005499999V0203601N00621220001CN0300001N9-01281-01781102301ADDAY101999GF100991001001999999001001KA1999N-01501MD1210131+9999MW1021
0057029720999991960010909004+60517+022267FM-12+005499999V0203601N00511220001CN0300001N9-01391-01781102461ADDAY101999GF101991011001999999041001MD1210161+9999MW1021
0057029720999991960010912004+60517+022267FM-12+005499999V0203601N00621220001CN0400001N9-01391-01721102501ADDAY101999GF102991021001999999041001MD1210041+9999MW1031
0092029720999991960010915004+60517+022267FM-12+005499999V0203601N00411220001CN0400001N9-01391-01721102491ADDAY101999GF101991011001999999041001MD1710011+9999MW1021EQDQ01+000042APCTENQ02+000012APC3  
0070029720999991960010918004+60517+022267FM-12+005499999V0203601N00311220001CN0400001N9-01721-01891102501ADDAY101999GF100991001001999999001001KA1999M-01281MD1410001+9999MW1011
0057029720999991960010921004+60517+022267FM-12+005499999V0203601N00211220001CN0300001N9-01891-02111102341ADDAY101999GF100991001001999999001001MD1710171+9999MW1021
0057029720999991960011000004+60517+022267FM-12+005499999V0202701N00101220001CN0300001N9-02001-02221102001ADDAY101999GF100991001001999999001001MD1710291+9999MW1021
0057029720999991960011003004+60517+022267FM-12+005499999V0201801N00101002401CN0030001N9-01721-01891101431ADDAY101999GF108991081061002501999999MD1710611+9999MW1721
0081029720999991960011006004+60517+022267FM-12+005499999V0201801N00411002401CN0030001N9-01391-01611100831ADDAA199000591AY171999GF108991081061002501999999KA1999N-02111MD1710581+9999MW1731
0057029720999991960011009004+60517+022267FM-12+005499999V0201401N00511004501CN0060001N9-01001-01221100351ADDAY171999GF106991061051004501999999MD1710521+9999MW1711
0057029720999991960011012004+60517+022267FM-12+005499999V0201401N00721002401CN0020001N9-00891-01001100241ADDAY171999GF108991081051002501999999MD1710101+9999MW1731
0057029720999991960011015004+60517+022267FM-12+005499999V0200901N00721002401CN0080001N9-01221-01391100561ADDAY171999GF108991081051002501999999MD1210311+9999MW1021
0081029720999991960011018004+60517+022267FM-12+005499999V0200701N00821004501CN0150001N9-01391-01721100881ADDAA199001091AY171999GF108991081051004501999999KA1999M-00781MD1210301+9999MW1021
0057029720999991960011100004+60517+022267FM-12+005499999V0200201N00511004501CN0200001N9-01611-01891101001ADDAY171999GF108991081051004501999999MD1710051+9999MW1021
0057029720999991960011103004+60517+022267FM-12+005499999V0200201N00511004501CN0150001N9-01501-01721100841ADDAY171999GF108991081051004501999999MD1710161+9999MW1731
0081029720999991960011106004+60517+022267FM-12+005499999V0200401N00621004501CN0150001N9-01501-01721100781ADDAA199000691AY171999GF108991081061004501999999KA1999N-01721MD1710061+9999MW1711
0057029720999991960011109004+60517+022267FM-12+005499999V0200401N00621004501CN0150001N9-01721-01891100811ADDAY171999GF108991051051004501071071MD1210031+9999MW1021
0057029720999991960011112004+60517+022267FM-12+005499999V0203601N00411220001CN0200001N9-01781-02111100731ADDAY171999GF107991001001999999001021MD1810081+9999MW1021
0057029720999991960011115004+60517+022267FM-12+005499999V0200401N00411220001CN0200001N9-01721-02111100731ADDAY121999GF107991001001999999041021MD1410001+9999MW1021
0081029720999991960011118004+60517+022267FM-12+005499999V0200401N00411075001CN0200001N9-01611-01891100801ADDAA199000391AY171999GF107991031001022501071021KA1999M-01391MD1210071+9999MW1711
0057029720999991960011121004+60517+022267FM-12+005499999V0200401N00311021001CN0150001N9-01611-01781100951ADDAY171999GF108991071001022501071021MD1210151+9999MW1701
0057029720999991960011200004+60517+022267FM-12+005499999V0200601N00511021001CN0150001N9-01391-01721101051ADDAY171999GF108991071001022501021021MD1210101+9999MW1711
0081029720999991960011206004+60517+022267FM-12+005499999V0200401N00311021001CN0200001N9-01501-01721101331ADDAA199000391AY171999GF107991071001022501071999KA1999N-01721MD1210111+9999MW1031
0057029720999991960011209004+60517+022267FM-12+005499999V0200501N00411004501CN0200001N9-01391-01721101511ADDAY171999GF108991081051004501999999MD1210181+9999MW1701
0057029720999991960011212004+60517+022267FM-12+005499999V0200401N00311030001CN0300001N9-01391-01721101571ADDAY171999GF106991011051004501041011MD1210061+9999MW1011
0057029720999991960011215004+60517+022267FM-12+005499999V0203601N00211075001CN0300001N9-01721-01891101681ADDAY111999GF105991011001999999041051MD1210111+9999MW1011
0070029720999991960011218004+60517+022267FM-12+005499999V0200401N00211024001CN0100001N9-01501-01721101801ADDAY171999GF108991081001999999011999KA1999M-01281MD1210121+9999MW1711
0057029720999991960011221004+60517+022267FM-12+005499999V0200401N00211024001CN0150001N9-01611-01891101941ADDAY171999GF108991051001999999011071MD1210141+9999MW1711
0057029720999991960011303004+60517+022267FM-12+005499999V0200401N00101220001CN0150001N9-01781-02001102201ADDAY121999GF106991031001999999011061MD1210101+9999MW1031
0081029720999991960011306004+60517+022267FM-12+005499999V0200401N00101220001CN0150001N9-01891-02111102361ADDAA199000591AY111999GF102991001001999999001051KA1999N-01891MD1210161+9999MW1011
0057029720999991960011309004+60517+022267FM-12+005499999V0200401N00211220001CN0200001N9-01891-02221102541ADDAY101999GF102991021001999999071051MD1210171+9999MW1021
0057029720999991960011312004+60517+022267FM-12+005499999V0200401N00261220001CN0300001N9-01721-02001102601ADDAY121999GF102991011001999999041051MD1210071+9999MW1221
0057029720999991960011315004+60517+022267FM-12+005499999V0200401N00211220001CN0300001N9-01781-02111102661ADDAY101999GF103991011001999999041051MD1210061+9999MW1021
0057029720999991960011318004+60517+022267FM-12+005499999V0200401N00211075001CN0300001N9-01781-02001102781ADDAY121999GF107991031001999999041061MD1010171+9999MW1031
0057029720999991960011321004+60517+022267FM-12+005499999V0200401N00211220001CN0300001N9-01891-02111102831ADDAY101999GF101991001001999999001011MD1210051+9999MW1011
0057029720999991960011400004+60517+022267FM-12+005499999V0200401N00211220001CN0300001N9-01891-02111102831ADDAY101999GF101991001001999999001011MD1410001+9999MW1011
0057029720999991960011403004+60517+022267FM-12+005499999V0200401N00211220001CN0300001N9-02001-02221102851ADDAY101999GF101991001001999999001011MD1210021+9999MW1021
0070029720999991960011406004+60517+022267FM-12+005499999V0200401N00211220001CN0300001N9-02001-02221102801ADDAY101999GF101991001001999999001051KA1999N-02111MD1710051+9999MW1021
0057029720999991960011409004+60517+022267FM-12+005499999V0200401N00411220001CN0400001N9-02001-02221102881ADDAY101999GF101991001001999999001051MD1210081+9999MW1021
0057029720999991960011412004+60517+022267FM-12+005499999V0200401N00311220001CN0400001N9-01781-02111102771ADDAY101999GF101991001001999999001051MD1710101+9999MW1021
0070029720999991960011418004+60517+022267FM-12+005499999V0200401N00311220001CN0300001N9-02111-02281102681ADDAY101999GF100991001001999999001001KA1999M-01781MD1710061+9999MW1011
0057029720999991960011421004+60517+022267FM-12+005499999V0200401N00211220001CN0300001N9-02281-02501102591ADDAY101999GF100991001001999999001001MD1710091+9999MW1021
0057029720999991960011500004+60517+022267FM-12+005499999V0200401N00101220001CN0300001N9-02281-02501102401ADDAY101999GF100991001001999999001001MD1710201+9999MW1021
0057029720999991960011503004+60517+022267FM-12+005499999V0200901N00101220001CN0300001N9-02501-02721102221ADDAY101999GF100991001001999999001001MD1710181+9999MW1021
0070029720999991960011506004+60517+022267FM-12+005499999V0209991C00001220001CN0300001N9-02611-02721101961ADDAY101999GF100991001001999999001001KA1999N-02611MD1710261+9999MW1021
0057029720999991960011509004+60517+022267FM-12+005499999V0201801N00101030001CN0020001N9-02391-02721101751ADDAY121999GF105991031061000751041011MD1710211+9999MW1101
0057029720999991960011512004+60517+022267FM-12+005499999V0202301N00211000601CN0020001N9-01501-01781101361ADDAY171999GF108991081061000751999999MD1710371+9999MW1711
0057029720999991960011521004+60517+022267FM-12+005499999V0203601N00311004501CN0150001N9-00611-00611100751ADDAY121999GF108991081051004501999999MD1710041+9999MW1021
0057029720999991960011600004+60517+022267FM-12+005499999V0203601N00311220001CN0200001N9-01001-01111100831ADDAY171999GF101991011001999999041001MD1210071+9999MW1011
0057029720999991960011603004+60517+022267FM-12+005499999V0203201N00211220001CN0200001N9-01221-01391100891ADDAY101999GF100991001001999999001001MD1210061+9999MW1021
0081029720999991960011606004+60517+022267FM-12+005499999V0203201N00211220001CN0200001N9-01501-01721100781ADDAA199000691AY101999GF101991011001999999041001KA1999N-01611MD1710121+9999MW1021
0057029720999991960011609004+60517+022267FM-12+005499999V0202301N00211220001CN0200001N9-01501-01721100751ADDAY101999GF102991021031004501001011MD1710031+9999MW1031
0057029720999991960011612004+60517+022267FM-12+005499999V0202301N00211004501CN0150001N9-01001-01221100601ADDAY171999GF106991051031004501041011MD1710151+9999MW1851
0057029720999991960011615004+60517+022267FM-12+005499999V0202301N00211220001CN0150001N9-01221-01391100651ADDAY171999GF103991031031004501041001MD1710051+9999MW1011
0081029720999991960011618004+60517+022267FM-12+005499999V0202301N00211220001CN0200001N9-01221-01391100571ADDAA199000591AY181999GF101991011031004501001001KA1999M-00891MD1710081+9999MW1011
0057029720999991960011621004+60517+022267FM-12+005499999V0203301N00211220001CN0200001N9-01281-01501100521ADDAY181999GF101991011031008001001001MD1510061+9999MW1021
0057029720999991960011700004+60517+022267FM-12+005499999V0202301N00211030001CN0200001N9-01111-01221100451ADDAY111999GF105991041031008001071001MD1710061+9999MW1851
0057029720999991960011703004+60517+022267FM-12+005499999V0202301N00211001501CN0009001N9-00891-01001100421ADDAY181999GF108991081061001501999999MD1710031+9999MW1721
0081029720999991960011706004+60517+022267FM-12+005499999V0202701N00101220001CN0150001N9-01221-01391100441ADDAA199001091AY171999GF101991011001999999041001KA1999N-01391MD1210021+9999MW1111
0057029720999991960011709004+60517+022267FM-12+005499999V0201801N00101220001CN0004001N9-01391-01611100461ADDAY141999GF101991011001999999041001MD1210021+9999MW1421
0057029720999991960011712004+60517+022267FM-12+005499999V0202201N00101000601CN0016001N9-01001-01111100471ADDAY141999GF108991081061000751999999MD1210021+9999MW1101
0057029720999991960011715004+60517+022267FM-12+005499999V0201801N00101220001CN0100001N9-01221-01281100441ADDAY111999GF102991011001999999041051MD1710031+9999MW1011
0070029720999991960011718004+60517+022267FM-12+005499999V0201801N00101220001CN0100001N9-01281-01391100391ADDAY101999GF100991001001999999001001KA1999M-00891MD1710051+9999MW1011
0057029720999991960011721004+60517+022267FM-12+005499999V0201801N00101024001CN0100001N9-01221-01391100411ADDAY121999GF108991081001999999011001MD1210021+9999MW1031
0057029720999991960011800004+60517+022267FM-12+005499999V0201801N00101024001CN0100001N9-01001-01221100401ADDAY121999GF107991071001999999071999MD1710011+9999MW1011
0057029720999991960011803004+60517+022267FM-12+005499999V0201801N00211220001CN0100001N9-01001-01111100451ADDAY121999GF106991031001999999071061MD1210051+9999MW1011
0070029720999991960011806004+60517+022267FM-12+005499999V0201401N00211024001CN0100001N9-00781-00891100311ADDAY121999GF108991081001999999021999KA1999N-01391MD1710141+9999MW1011
0057029720999991960011809004+60517+022267FM-12+005499999V0201801N00511075001CN0100001N9-00501-00611100281ADDAY171999GF108991031061002501001071MD1710021+9999MW1361
0057029720999991960011812004+60517+022267FM-12+005499999V0201601N00621024001CN0200001N9-00721-01111100081ADDAY121999GF108991061001999999021071MD1710201+9999MW1031
0057029720999991960011815004+60517+022267FM-12+005499999V0201401N00621004501CN0010001N9-00891-01001099751ADDAY171999GF108991081061004501999999MD1710331+9999MW1731
0081029720999991960011818004+60517+022267FM-12+005499999V0201401N00821004501CN0020001N9-00721-00781099521ADDAA199003091AY171999GF108991081061004501999999KA1999M-00391MD1710231+9999MW1731
0057029720999991960011821004+60517+022267FM-12+005499999V0201801N00721004501CN0030001N9-00501-00611099451ADDAY171999GF108991081061004501999999MD1710071+9999MW1731
0057029720999991960011900004+60517+022267FM-12+005499999V0201401N00721004501CN0150001N9-00281-00391099261ADDAY171999GF108991081051004501999999MD1710191+9999MW1221
0057029720999991960011903004+60517+022267FM-12+005499999V0201401N00621004501CN0008001N9-00391-00501098711ADDAY171999GF108991081051004501999999MD1710531+9999MW1731
0081029720999991960011906004+60517+022267FM-12+005499999V0201601N01031000151CN0008001N9-00281-00391098011ADDAA199002091AY171999GF109991091999000251999999KA1999N-00721MD1710691+9999MW1751
0057029720999991960011909004+60517+022267FM-12+005499999V0201801N01131002401CN0012001N9-00111-00221097491ADDAY171999GF108991081061002501999999MD1710511+9999MW1731
0057029720999991960011912004+60517+022267FM-12+005499999V0201801N01231002401CN0030001N9-00391-00611097241ADDAY171999GF108991081061002501999999MD1710251+9999MW1731
0057029720999991960011915004+60517+022267FM-12+005499999V0203001N00931001501CN0100001N9-00391-00501097521ADDAY171999GF108991071061001501999999MD1210281+9999MW1021
0081029720999991960011918004+60517+022267FM-12+005499999V0203201N01231004501CN0012001N9-00611-00781098611ADDAA199001091AY171999GF108991081051004501999999KA1999M+00001MD1210991+9999MW1731
0076029720999991960012000004+60517+022267FM-12+005499999V0203001N00621004501CN0040001N9-00611-00781099892ADDAY171999GF108991081061004501999999MD1210491+9999MW1711EQDQ01+099893APOSLP
0057029720999991960012003004+60517+022267FM-12+005499999V0203001N00311007801CN0100001N9-00611-00891100291ADDAY171999GF107991071051008001999999MD1210391+9999MW1221
0081029720999991960012006004+60517+022267FM-12+005499999V0202201N00311220001CN0200001N9-01221-01281100521ADDAA199001091AY101999GF101991001001999999001011KA1999N-01281MD1210231+9999MW1031
0057029720999991960012009004+60517+022267FM-12+005499999V0202701N00211075001CN0100001N9-01221-01281100801ADDAY121999GF107991031001022501071021MD1210281+9999MW1031
0057029720999991960012012004+60517+022267FM-12+005499999V0202301N00211021001CN0080001N9-00891-01001100961ADDAY121999GF107991051001022501071061MD1210171+9999MW1021
0057029720999991960012015004+60517+022267FM-12+005499999V0201801N00211021001CN0100001N9-01111-01221101091ADDAY121999GF108991081001022501071999MD1210121+9999MW1031
0070029720999991960012018004+60517+022267FM-12+005499999V0200901N00211030001CN0150001N9-01111-01221101251ADDAY121999GF108991031051008001071999KA1999M-00781MD1210161+9999MW1021
0057029720999991960012021004+60517+022267FM-12+005499999V0200601N00311030001CN0150001N9-01001-01111101411ADDAY121999GF107991031051008001071999MD1210161+9999MW1021
0057029720999991960012100004+60517+022267FM-12+005499999V0200401N00211075001CN0150001N9-01001-01111101521ADDAY121999GF107991041001999999071071MD1210111+9999MW1011
0057029720999991960012103004+60517+022267FM-12+005499999V0200401N00311030001CN0100001N9-00781-01001101631ADDAY171999GF108991031051008001071999MD1210111+9999MW1721
0081029720999991960012106004+60517+022267FM-12+005499999V0200401N00411002401CN0100001N9-00781-01001101771ADDAA199000391AY171999GF108991081061002501999999KA1999N-01111MD1210141+9999MW1711
0057029720999991960012109004+60517+022267FM-12+005499999V0200401N00311030001CN0100001N9-00891-01001101911ADDAY171999GF108991041061004501071999MD1210141+9999MW1711
0057029720999991960012112004+60517+022267FM-12+005499999V0200901N00311220001CN0150001N9-00891-01111101991ADDAY171999GF106991031001999999041011MD1210081+9999MW1011
0057029720999991960012115004+60517+022267FM-12+005499999V0200901N00211220001CN0100001N9-01111-01221102171ADDAY101999GF103991011001999999041011MD1210131+9999MW1021
0081029720999991960012118004+60517+022267FM-12+005499999V0200901N00101220001CN0050001N9-01611-01781102271ADDAA199000691AY101999GF101991001001999999001011KA1999M-00781MD1210101+9999MW1411
0057029720999991960012121004+60517+022267FM-12+005499999V0201401N00101001501CN0008001N9-01891-02111102401ADDAY101999GF107991071061001501001001MD1210131+9999MW1461
0057029720999991960012200004+60517+022267FM-12+005499999V0209991C00001000151CN0003001N9-01501-01781102491ADDAY141999GF109991091999000251999999MD1210091+9999MW1491
0057029720999991960012203004+60517+022267FM-12+005499999V0201401N00101000151CN0002001N9-01611-01721102571ADDAY141999GF109991091999000251999999MD1210081+9999MW1491
0070029720999991960012206004+60517+022267FM-12+005499999V0201401N00101000601CN0040001N9-01501-01611102571ADDAY141999GF108991081061000751999999KA1999N-02001MD1410001+9999MW1281
0057029720999991960012209004+60517+022267FM-12+005499999V0201801N00101000601CN0014001N9-01111-01281102601ADDAY141999GF108991081061000751999999MD1210031+9999MW1101
0057029720999991960012212004+60517+022267FM-12+005499999V0201801N00101000601CN0010001N9-00781-00891102541ADDAY141999GF108991081061000751999999MD1710061+9999MW1101
0057029720999991960012215004+60517+022267FM-12+005499999V0201801N00101001501CN0080001N9-00721-00781102461ADDAY121999GF108991081061001501999999MD1710071+9999MW1021
0070029720999991960012218004+60517+022267FM-12+005499999V0201801N00411001501CN0080001N9-00391-00501102281ADDAY121999GF108991081061001501999999KA1999M-00391MD1710181+9999MW1021
0057029720999991960012221004+60517+022267FM-12+005499999V0201801N00621002401CN0080001N9-00611-00611102171ADDAY121999GF108991081061002501999999MD1710111+9999MW1021
0057029720999991960012300004+60517+022267FM-12+005499999V0201801N00621001501CN0050001N9-00611-00611101841ADDAY121999GF108991081061001501999999MD1710321+9999MW1721
0057029720999991960012303004+60517+022267FM-12+005499999V0201801N00821001501CN0030001N9-00391-00501101521ADDAY171999GF108991081061001501999999MD1710321+9999MW1731
0081029720999991960012306004+60517+022267FM-12+005499999V0201801N00931001501CN0030001N9-00221-00281101321ADDAA199001091AY171999GF108991081061001501999999KA1999N-00611MD1710191+9999MW1731
0057029720999991960012309004+60517+022267FM-12+005499999V0202001N00721001501CN0040001N9+00001-00111101171ADDAY171999GF108991081061001501999999MD1710141+9999MW1771
0057029720999991960012312004+60517+022267FM-12+005499999V0201801N00721000601CN0040001N9+00111+00001100981ADDAY161999GF108991081061000751999999MD1710191+9999MW1791
0057029720999991960012315004+60517+022267FM-12+005499999V0201801N00821000601CN0015001N9+00221+00111100771ADDAY171999GF108991081061000751999999MD1710211+9999MW1631
0081029720999991960012318004+60517+022267FM-12+005499999V0202301N00621000601CN0020001N9+00221+00111100721ADDAA199018091AY161999GF108991081061000751999999KA1999M+00221MD1710051+9999MW1631
0057029720999991960012321004+60517+022267FM-12+005499999V0202301N00511000601CN0025001N9+00221+00111100661ADDAY161999GF108991081061000751999999MD1710061+9999MW1611
0057029720999991960012400004+60517+022267FM-12+005499999V0202301N00511000151CN0006001N9+00221+00111100731ADDAY161999GF109991091999000251999999MD1310071+9999MW1471
0057029720999991960012403004+60517+022267FM-12+005499999V0202301N00411000151CN0006001N9+00221+00111100801ADDAY141999GF109991091999000251999999MD1210071+9999MW1451
0081029720999991960012406004+60517+022267FM-12+005499999V0202301N00311000151CN0005001N9+00221+00111100861ADDAA199003091AY141999GF109991091999000251999999KA1999N+00111MD1210081+9999MW1451
0057029720999991960012412004+60517+022267FM-12+005499999V0201801N00311000151CN0002001N9+00221+00221101031ADDAY141999GF109991091999000251999999MD1210031+9999MW1471
0081029720999991960012418004+60517+022267FM-12+005499999V0201801N00511000151CN0003001N9+00111+00111101061ADDAA199000591AY141999GF109991091999000251999999KA1999M+00221MD1410001+9999MW1471
0057029720999991960012421004+60517+022267FM-12+005499999V0201801N00411000151CN0002001N9+00111+00111101141ADDAY141999GF109991091999000251999999MD1210081+9999MW1451
0057029720999991960012500004+60517+022267FM-12+005499999V0201801N00411000151CN0002001N9+00111+00111101151ADDAY141999GF109991091999000251999999MD1210011+9999MW1451
0057029720999991960012503004+60517+022267FM-12+005499999V0201801N00621000151CN0002001N9+00111+00111101171ADDAY141999GF109991091999000251999999MD1210021+9999MW1451
0081029720999991960012506004+60517+022267FM-12+005499999V0201801N00621000151CN0002001N9+00111+00111101121ADDAA199000391AY151999GF109991091999000251999999KA1999N+00001MD1710051+9999MW1511
0092029720999991960012509004+60517+022267FM-12+005499999V0201901N00621000151CN0005001N9+00001+00001101111ADDAY151999GF109991091999000251999999MD1710011+9999MW1431EQDQ01+000042APCTENQ02+000012APC3  
0057029720999991960012512004+60517+022267FM-12+005499999V0201801N00511000151CN0007001N9+00001+00001100991ADDAY141999GF109991091999000251999999MD1710121+9999MW1601
0057029720999991960012515004+60517+022267FM-12+005499999V0201801N00621001501CN0015001N9+00001-00111100851ADDAY161999GF108991081061001501999999MD1710141+9999MW1101
0057029720999991960012521004+60517+022267FM-12+005499999V0201801N00621000601CN0012001N9+00001+00001100641ADDAY121999GF108991081061000751999999MD1710051+9999MW1101
0057029720999991960012600004+60517+022267FM-12+005499999V0201801N00511000151CN0004001N9+00111+00111100501ADDAY141999GF109991091999000251999999MD1710141+9999MW1451
0057029720999991960012603004+60517+022267FM-12+005499999V0202001N00511000151CN0004001N9+00111+00111100401ADDAY141999GF109991091999000251999999MD1710101+9999MW1511
0081029720999991960012606004+60517+022267FM-12+005499999V0202301N00211000151CN0002001N9+00111+00111100341ADDAA199000391AY151999GF109991091999000251999999KA1999N+00001MD1710061+9999MW1471
0057029720999991960012609004+60517+022267FM-12+005499999V0202301N00211000151CN0002001N9+00111+00111100411ADDAY141999GF109991091999000251999999MD1210071+9999MW1451
0057029720999991960012612004+60517+022267FM-12+005499999V0202701N00311000151CN0002001N9+00111+00111100481ADDAY141999GF109991091999000251999999MD1210071+9999MW1451
0057029720999991960012615004+60517+022267FM-12+005499999V0202701N00311000151CN0002001N9+00111+00111100561ADDAY141999GF109991091999000251999999MD1210081+9999MW1451
0070029720999991960012618004+60517+022267FM-12+005499999V0203201N00311000151CN0004001N9+00111+00111100631ADDAY141999GF109991091999000251999999KA1999M+00111MD1210071+9999MW1451
0057029720999991960012621004+60517+022267FM-12+005499999V0203401N00311000151CN0030001N9+00001+00001100701ADDAY151999GF109991091999000251999999MD1210071+9999MW1501
0057029720999991960012700004+60517+022267FM-12+005499999V0203601N00311002401CN0100001N9-00111-00111100771ADDAY151999GF108991081061002501999999MD1210071+9999MW1021
0057029720999991960012703004+60517+022267FM-12+005499999V0200201N00511002401CN0200001N9-00221-00281100811ADDAY121999GF108991081061002501999999MD1210041+9999MW1021
0070029720999991960012706004+60517+022267FM-12+005499999V0200401N00621001501CN0150001N9-00391-00501100851ADDAY121999GF108991081061001501999999KA1999N-00391MD1210041+9999MW1021
0057029720999991960012709004+60517+022267FM-12+005499999V0200901N00511002401CN0150001N9-00391-00501100951ADDAY121999GF108991081061002501999999MD1210101+9999MW1021
0057029720999991960012712004+60517+022267FM-12+005499999V0200701N00621001501CN0120001N9-00281-00391100961ADDAY121999GF108991081061001501999999MD1210011+9999MW1021
0057029720999991960012715004+60517+022267FM-12+005499999V0200901N00621001501CN0080001N9-00391-00501101031ADDAY121999GF108991081061001501999999MD1210071+9999MW1021
0070029720999991960012718004+60517+022267FM-12+005499999V0200401N00721002401CN0080001N9-00501-00611101091ADDAY121999GF108991081061002501999999KA1999M-00281MD1210051+9999MW1701
0057029720999991960012721004+60517+022267FM-12+005499999V0200901N00621002401CN0070001N9-00721-00781101181ADDAY171999GF108991081061002501999999MD1210091+9999MW1711
0057029720999991960012800004+60517+022267FM-12+005499999V0200401N00511002401CN0070001N9-00781-01001101281ADDAY171999GF108991081061002501999999MD1210091+9999MW1711
0081029720999991960012806004+60517+022267FM-12+005499999V0200901N00511002401CN0050001N9-01111-01391101461ADDAA199002091AY171999GF108991081061002501999999KA1999N-01221MD1210081+9999MW1731
0057029720999991960012809004+60517+022267FM-12+005499999V0200901N00411030001CN0080001N9-01111-01391101551ADDAY171999GF107991021051004501041061MD1210091+9999MW1711
0057029720999991960012812004+60517+022267FM-12+005499999V0200901N00411075001CN0300001N9-01111-01391101531ADDAY171999GF106991041001999999041021MD1710021+9999MW1011
0057029720999991960012815004+60517+022267FM-12+005499999V0200901N00311220001CN0300001N9-01281-01501101581ADDAY101999GF103991031001999999041001MD1210051+9999MW1011
0081029720999991960012818004+60517+022267FM-12+005499999V0200901N00411220001CN0300001N9-01391-01721101661ADDAA199000391AY111999GF106991021001999999041011KA1999M-01111MD1210081+9999MW1031
0057029720999991960012821004+60517+022267FM-12+005499999V0200901N00311024001CN0300001N9-01501-01781101711ADDAY121999GF108991051001999999071021MD1210051+9999MW1031
0057029720999991960012900004+60517+022267FM-12+005499999V0200901N00361024001CN0200001N9-01501-01781101631ADDAY121999GF108991081001999999071999MD1710081+9999MW1031
0057029720999991960012903004+60517+022267FM-12+005499999V0200901N00311004501CN0100001N9-01501-01781101581ADDAY171999GF108991081061004501999999MD1710051+9999MW1711
0081029720999991960012906004+60517+022267FM-12+005499999V0200901N00511004501CN0020001N9-01611-01891101531ADDAA199001091AY171999GF108991051051004501071999KA1999N-01611MD1710051+9999MW1731
0057029720999991960012909004+60517+022267FM-12+005499999V0200901N00411004501CN0050001N9-01611-01891101601ADDAY171999GF107991051051004501071999MD1210071+9999MW1731
0057029720999991960012912004+60517+022267FM-12+005499999V0200601N00621030001CN0100001N9-01611-01891101681ADDAY171999GF108991031051004501071999MD1210081+9999MW1021
0108029720999991960012915004+60517+022267FM-12+005499999V0200401N00511021001CN0150001N9-01611-02001101591ADDAY121999GF108991999001022501071001MD1710091+9999MW1021EQDQ01+000062SCOTLCQ02+000042APCTENQ03+000012APC3  
0081029720999991960012918004+60517+022267FM-12+005499999V0200401N00511220001CN0200001N9-01721-02111101741ADDAA199000591AY121999GF102991021001999999071001KA1999M-01501MD1210051+9999MW1011
0057029720999991960012921004+60517+022267FM-12+005499999V0200401N00411220001CN0200001N9-01781-02221101861ADDAY101999GF100991001001999999001001MD1210111+9999MW1011
0057029720999991960013000004+60517+022267FM-12+005499999V0200401N00511220001CN0200001N9-01781-02281101921ADDAY101999GF100991001001999999001001MD1210061+9999MW1021
0057029720999991960013003004+60517+022267FM-12+005499999V0200401N00311220001CN0200001N9-02001-02281101971ADDAY101999GF100991001001999999001001MD1210051+9999MW1021
0070029720999991960013006004+60517+022267FM-12+005499999V0200201N00311220001CN0200001N9-02221-02391102071ADDAY101999GF101991011001999999041011KA1999N-02221MD1210101+9999MW1031
0057029720999991960013009004+60517+022267FM-12+005499999V0203601N00311012301CN0300001N9-02111-02281102181ADDAY111999GF106991061051012501071001MD1210111+9999MW1031
0057029720999991960013012004+60517+022267FM-12+005499999V0200401N00311007801CN0200001N9-01721-01891102201ADDAY171999GF107991071051008001999999MD1210021+9999MW1031
0057029720999991960013015004+60517+022267FM-12+005499999V0203601N00211220001CN0200001N9-01781-02001102271ADDAY121999GF103991011051008001041001MD1210071+9999MW1011
0081029720999991960013018004+60517+022267FM-12+005499999V0200401N00211220001CN0200001N9-01781-02001102391ADDAA199000691AY171999GF104991041001999999041001KA1999M-01611MD1210121+9999MW1021
0057029720999991960013021004+60517+022267FM-12+005499999V0200401N00211220001CN0200001N9-01781-02111102591ADDAY171999GF103991031001999999041001MD1210201+9999MW1761
0057029720999991960013100004+60517+022267FM-12+005499999V0200401N00101220001CN0300001N9-01891-02111102771ADDAY171999GF101991011001999999041001MD1210181+9999MW1021
0057029720999991960013103004+60517+022267FM-12+005499999V0203601N00101220001CN0300001N9-02111-02281102951ADDAY101999GF100991001001999999001001MD1210171+9999MW1021
0081029720999991960013106004+60517+022267FM-12+005499999V0203601N00101220001CN0300001N9-02281-02501103111ADDAA199000691AY101999GF100991001001999999001001KA1999N-02281MD1210151+9999MW1021
0057029720999991960013109004+60517+022267FM-12+005499999V0200401N00101220001CN0300001N9-02111-02391103271ADDAY101999GF101991001001999999001011MD1210161+9999MW1031
0057029720999991960013112004+60517+022267FM-12+005499999V0203201N00101220001CN0300001N9-01611-01891103331ADDAY101999GF100991001001999999001001MD1210061+9999MW1021
0057029720999991960013115004+60517+022267FM-12+005499999V0203201N00101220001CN0300001N9-01781-02001103351ADDAY101999GF100991001001999999001001MD1210021+9999MW1021
0070029720999991960013118004+60517+022267FM-12+005499999V0202701N00051220001CN0200001N9-02111-02391103271ADDAY101999GF102991021061000751001001KA1999M-01501MD1710081+9999MW1031
0057029720999991960013121004+60517+022267FM-12+005499999V0202301N00211030001CN0100001N9-01501-01781103181ADDAY141999GF107991031061002501021001MD1710091+9999MW1011
0057029720999991960020100004+60517+022267FM-12+005499999V0202301N00211007801CN0150001N9-01001-01111103081ADDAY121999GF107991071051008001999999MD1710101+9999MW1021
0057029720999991960020103004+60517+022267FM-12+005499999V0202701N00211004501CN0150001N9-00611-00721102981ADDAY121999GF108991081051004501999999MD1710101+9999MW1021
0070029720999991960020106004+60517+022267FM-12+005499999V0203601N00211004501CN0200001N9-00611-00721102991ADDAY121999GF108991081051004501999999KA1999N-02111MD1310011+9999MW1021
0057029720999991960020109004+60517+022267FM-12+005499999V0203601N00311220001CN0400001N9-00721-01001103111ADDAY101999GF101991011061002501041001MD1210121+9999MW1011
0057029720999991960020112004+60517+022267FM-12+005499999V0200401N00101220001CN0400001N9-00781-01111103201ADDAY111999GF102991021001999999041001MD1210091+9999MW1021
0057029720999991960020115004+60517+022267FM-12+005499999V0203201N00311024001CN0400001N9-00781-01111103281ADDAY121999GF107991071001999999071999MD1210081+9999MW1031
0070029720999991960020118004+60517+022267FM-12+005499999V0203601N00311030001CN0300001N9-00781-01001103311ADDAY121999GF108991031051008001071999KA1999M-00501MD1210031+9999MW1031
0057029720999991960020121004+60517+022267FM-12+005499999V0203201N00311007801CN0200001N9-00781-00891103301ADDAY121999GF108991081051008001999999MD1710011+9999MW1021
0057029720999991960020200004+60517+022267FM-12+005499999V0203601N00211220001CN0200001N9-01001-01111103311ADDAY121999GF102991021001999999041001MD1410001+9999MW1011
0057029720999991960020203004+60517+022267FM-12+005499999V0203601N00211030001CN0200001N9-01001-01111103311ADDAY121999GF107991021051008001071999MD1410001+9999MW1031
0070029720999991960020206004+60517+022267FM-12+005499999V0203601N00211024001CN0300001N9-00891-01111103331ADDAY121999GF106991061001999999071001KA1999N-01221MD1210021+9999MW1011
0057029720999991960020209004+60517+022267FM-12+005499999V0200401N00211220001CN0400001N9-01111-01281103461ADDAY101999GF101991011001999999041001MD1210131+9999MW1011
0057029720999991960020212004+60517+022267FM-12+005499999V0200401N00211220001CN0400001N9-01001-01281103501ADDAY101999GF100991001001999999001001MD1210041+9999MW1021
0057029720999991960020215004+60517+022267FM-12+005499999V0200401N00211220001CN0400001N9-01281-01501103561ADDAY101999GF101991001001999999001011MD1210061+9999MW1021
0070029720999991960020218004+60517+022267FM-12+005499999V0200401N00211220001CN0300001N9-01781-02001103621ADDAY101999GF100991001001999999001001KA1999M-00721MD1210061+9999MW1011
0057029720999991960020221004+60517+022267FM-12+005499999V0200401N00101220001CN0300001N9-02111-02281103671ADDAY101999GF100991001001999999001001MD1210051+9999MW1021
0092029720999991960020300004+60517+022267FM-12+005499999V0200401N00101220001CN0300001N9-02001-02221103681ADDAY101999GF100991001001999999001001MD1210011+9999MW1021EQDQ01+000042APCTENQ02+000012APC3  
0057029720999991960020303004+60517+022267FM-12+005499999V0200401N00101001501CN0100001N9-01611-01781103681ADDAY141999GF108991081061001501999999MD1410001+9999MW1021
0081029720999991960020306004+60517+022267FM-12+005499999V0200901N00101001501CN0100001N9-01611-01781103631ADDAA199000691AY171999GF106991061061001501999999KA1999N-02221MD1710051+9999MW1031
0057029720999991960020309004+60517+022267FM-12+005499999V0201801N00211000601CN0012001N9-01391-01781103611ADDAY121999GF106991061061000751999999MD1710011+9999MW1101
0057029720999991960020312004+60517+022267FM-12+005499999V0201801N00311001501CN0050001N9-01001-01111103551ADDAY171999GF108991071061001501999999MD1710061+9999MW1781
0057029720999991960020315004+60517+022267FM-12+005499999V0201801N00411002401CN0080001N9-00891-01001103481ADDAY171999GF108991081061002501999999MD1710071+9999MW1781
0081029720999991960020318004+60517+022267FM-12+005499999V0201801N00411004501CN0100001N9-01001-01111103321ADDAA199000691AY171999GF108991081061004501999999KA1999M-00891MD1710161+9999MW1021
0057029720999991960020321004+60517+022267FM-12+005499999V0201801N00511001501CN0080001N9-00891-01001103161ADDAY121999GF108991081061001501999999MD1710151+9999MW1021
0057029720999991960020400004+60517+022267FM-12+005499999V0201801N00511002401CN0080001N9-00781-00891102981ADDAY121999GF108991081061002501999999MD1710181+9999MW1021
0057029720999991960020403004+60517+022267FM-12+005499999V0201801N00821001501CN0080001N9-00611-00611102821ADDAY121999GF108991081061001501999999MD1710151+9999MW1021
0070029720999991960020406004+60517+022267FM-12+005499999V0202001N00821007801CN0150001N9-00281-00611102741ADDAY121999GF108991081051008001999999KA1999N-01001MD1710081+9999MW1021
0057029720999991960020412004+60517+022267FM-12+005499999V0201901N00771004501CN0200001N9-00391-00721102671ADDAY121999GF108991061051004501021999MD1710081+9999MW1021
0057029720999991960020415004+60517+022267FM-12+005499999V0201901N00721002401CN0200001N9-00391-00611102671ADDAY121999GF108991071051002501021999MD1710031+9999MW1021
0070029720999991960020418004+60517+022267FM-12+005499999V0201801N00821004501CN0300001N9-00391-00611102571ADDAY121999GF108991081051004501999999KA1999M-00281MD1710071+9999MW1021
0057029720999991960020421004+60517+022267FM-12+005499999V0202001N00721004501CN0300001N9-00391-00611102501ADDAY121999GF108991081051004501999999MD1710071+9999MW1021
0057029720999991960020500004+60517+022267FM-12+005499999V0202001N00721004501CN0200001N9-00391-00611102491ADDAY121999GF108991081051004501999999MD1710011+9999MW1021
0057029720999991960020503004+60517+022267FM-12+005499999V0202001N00621004501CN0200001N9-00281-00611102501ADDAY121999GF108991081051004501999999MD1210011+9999MW1021
0070029720999991960020506004+60517+022267FM-12+005499999V0202201N00721004501CN0300001N9-00281-00501102531ADDAY121999GF108991081051004501999999KA1999N-00281MD1410001+9999MW1021
0057029720999991960020509004+60517+022267FM-12+005499999V0202201N00771004501CN0300001N9-00281-00501102591ADDAY121999GF108991081051004501999999MD1210111+9999MW1021
0057029720999991960020512004+60517+022267FM-12+005499999V0202301N00721004501CN0300001N9-00221-00611102661ADDAY121999GF107991071051004501999999MD1210071+9999MW1011
0057029720999991960020515004+60517+022267FM-12+005499999V0202301N00721004501CN0300001N9-00221-00611102721ADDAY101999GF107991051051004501041999MD1210061+9999MW1011
0070029720999991960020518004+60517+022267FM-12+005499999V0202201N00621007801CN0300001N9-00281-00501102781ADDAY121999GF107991061051008001071999KA1999M-00221MD1210061+9999MW1021
0057029720999991960020521004+60517+022267FM-12+005499999V0202201N00511007801CN0300001N9-00281-00501102891ADDAY121999GF108991081051008001999999MD1210111+9999MW1031
0057029720999991960020600004+60517+022267FM-12+005499999V0202301N00511007801CN0300001N9-00281-00391102961ADDAY121999GF107991071051008001999999MD1210071+9999MW1011
0057029720999991960020612004+60517+022267FM-12+005499999V0202501N00621075001CN0300001N9-00281-00721103241ADDAY121999GF105991011011004501041011MD1210071+9999MW1011
0057029720999991960020615004+60517+022267FM-12+005499999V0202501N00311030001CN0200001N9-00281-00611103221ADDAY121999GF108991011051004501071061MD1710021+9999MW1031
0070029720999991960020618004+60517+022267FM-12+005499999V0202701N00511030001CN0200001N9-00391-00611103241ADDAY121999GF108991031051004501041999KA1999M-00281MD1210021+9999MW1021
0057029720999991960020621004+60517+022267FM-12+005499999V0202601N00211004501CN0150001N9-00391-00611103281ADDAY121999GF108991061051004501041999MD1210041+9999MW1031
0057029720999991960020700004+60517+022267FM-12+005499999V0202201N00211002401CN0100001N9-00391-00501103301ADDAY121999GF108991081051002501999999MD1210021+9999MW1031
0057029720999991960020703004+60517+022267FM-12+005499999V0202701N00051000151CN0007001N9-00391-00391103271ADDAY121999GF109991091999000251999999MD1710031+9999MW1471
0070029720999991960020706004+60517+022267FM-12+005499999V0202701N00211220001CN0030001N9-00391-00501103061ADDAY141999GF106991001001999999041011KA1999N-00501MD1710051+9999MW1101
0057029720999991960020712004+60517+022267FM-12+005499999V0203201N00411075001CN0300001N9+00221-00111102951ADDAY121999GF105991011061002501041021MD1710151+9999MW1021
0070029720999991960020718004+60517+022267FM-12+005499999V0203401N00411220001CN0300001N9+00001-00111102921ADDAY111999GF101991001001999999001011KA1999M+00281MD1210121+9999MW1011
0057029720999991960020721004+60517+022267FM-12+005499999V0203601N00311220001CN0200001N9-00111-00281103041ADDAY101999GF103991001001999999001051MD1210111+9999MW1031
0057029720999991960020800004+60517+022267FM-12+005499999V0203601N00311220001CN0200001N9-00221-00391103111ADDAY101999GF101991001001999999001051MD1210071+9999MW1021
0070029720999991960020806004+60517+022267FM-12+005499999V0209991C00001030001CN0200001N9-00391-00501103101ADDAY121999GF107991031051004501071999KA1999N-00501MD1710051+9999MW1021
0057029720999991960020809004+60517+022267FM-12+005499999V0201801N00211004501CN0250001N9-00221-00221103051ADDAY121999GF108991051051004501071999MD1710051+9999MW1701
0057029720999991960020812004+60517+022267FM-12+005499999V0202001N00511004501CN0030001N9-00221-00221102801ADDAY171999GF108991071051004501021999MD1710251+9999MW1711
0057029720999991960020815004+60517+022267FM-12+005499999V0202001N00311000151CN0010001N9+00001-00111102501ADDAY151999GF109991091999000251999999MD1710301+9999MW1511
0081029720999991960020818004+60517+022267FM-12+005499999V0202701N00211001501CN0030001N9+00111+00111102321ADDAA199001091AY151999GF108991081061001501999999KA1999M+00111MD1710181+9999MW1531
0057029720999991960020821004+60517+022267FM-12+005499999V0202701N00311002401CN0080001N9+00221+00111102201ADDAY161999GF108991081061002501999999MD1710121+9999MW1211
0057029720999991960020900004+60517+022267FM-12+005499999V0202701N00311220001CN0200001N9+00111+00111102011ADDAY121999GF101991011001999999041001MD1710181+9999MW1011
0057029720999991960020903004+60517+022267FM-12+005499999V0203001N00511024001CN0200001N9+00221+00111101751ADDAY111999GF107991071001999999041001MD1710261+9999MW1031
0081029720999991960020906004+60517+022267FM-12+005499999V0202901N00311024001CN0200001N9+00281+00111101411ADDAA199001091AY121999GF107991071001999999071001KA1999N+00111MD1710341+9999MW1021
0057029720999991960020909004+60517+022267FM-12+005499999V0202501N00511024001CN0400001N9+00221-00111101031ADDAY121999GF108991051001999999071071MD1710381+9999MW1021
0057029720999991960020912004+60517+022267FM-12+005499999V0202701N00721024001CN0400001N9+00281-00111100511ADDAY121999GF108991081001999999071071MD1710421+9999MW1021
0057029720999991960020915004+60517+022267FM-12+005499999V0202701N00821030001CN0400001N9+00281-00111100041ADDAY121999GF108991011051004501071071MD1710471+9999MW1021
0070029720999991960020918004+60517+022267FM-12+005499999V0202701N00621030001CN0300001N9+00221-00111099561ADDAY121999GF108991021051008001071999KA1999M+00281MD1710471+9999MW1021
0057029720999991960020921004+60517+022267FM-12+005499999V0203001N00621024001CN0300001N9+00221-00111099221ADDAY121999GF108991081001999999071999MD1710341+9999MW1021
0057029720999991960021000004+60517+022267FM-12+005499999V0203201N00821220001CN0300001N9+00111-00611098931ADDAY111999GF103991031001999999041001MD1710291+9999MW1011
0057029720999991960021003004+60517+022267FM-12+005499999V0202701N00821220001CN0300001N9-00111-00721098661ADDAY101999GF100991001001999999001001MD1710271+9999MW1011
0070029720999991960021006004+60517+022267FM-12+005499999V0203001N00931007801CN0400001N9-00111-00391098331ADDAY121999GF107991051051008001071999KA1999N-00221MD1710331+9999MW1031
0057029720999991960021009004+60517+022267FM-12+005499999V0203401N01031007801CN0050001N9+00111-00501098321ADDAY181999GF108991081051008001999999MD1310011+9999MW1861
0057029720999991960021012004+60517+022267FM-12+005499999V0203201N01031007801CN0200001N9+00111-00281098341ADDAY181999GF107991071031008001999999MD1210021+9999MW1261
0057029720999991960021015004+60517+022267FM-12+005499999V0203201N01131220001CN0300001N9-00281-00391098571ADDAY121999GF103991031051008001001001MD1210231+9999MW1011
0057029720999991960021021004+60517+022267FM-12+005499999V0203601N00311007801CN0300001N9-00391-00781099031ADDAY121999GF107991071051008001999999MD1210231+9999MW1031
0057029720999991960021100004+60517+022267FM-12+005499999V0200201N00621075001CN0400001N9-00781-01611099381ADDAY121999GF107991031001999999041071MD1210231+9999MW1021
0057029720999991960021103004+60517+022267FM-12+005499999V0200201N00311220001CN0400001N9-01111-01501099691ADDAY111999GF102991001001999999001021MD1210311+9999MW1011
0070029720999991960021106004+60517+022267FM-12+005499999V0203601N00211075001CN0400001N9-01111-01391099981ADDAY121999GF107991031001999999041021KA1999N-01221MD1210291+9999MW1021
0057029720999991960021109004+60517+022267FM-12+005499999V0200401N00211075001CN0400001N9-01111-01501100321ADDAY121999GF107991031001999999041021MD1210341+9999MW1021
0057029720999991960021112004+60517+022267FM-12+005499999V0200401N00101075001CN0400001N9-01111-01501100531ADDAY121999GF105991011001999999041021MD1210211+9999MW1011
0057029720999991960021115004+60517+022267FM-12+005499999V0200401N00311075001CN0400001N9-01001-01501100731ADDAY121999GF105991011001999999041021MD1210201+9999MW1021
0089029720999991960021118004+60517+022267FM-12+005499999V0200401N00101220001CN0400001N9-01391-01611101021ADDAY101999GF102991001001999999001011KA1999M-00891MD1210281+9999MW1011EQDQ01+000022SCOTLC
0076029720999991960021200004+60517+022267FM-12+005499999V0200401N00101220001CN0300001N9-01611-01781101391ADDAY101999GF101991001001999999001011MD1210141+9999MW1021EQDQ01+000012SCOTLC
0057029720999991960021203004+60517+022267FM-12+005499999V0200401N00101220001CN0300001N9-02001-02111101581ADDAY101999GF100991001001999999001001MD1210181+9999MW1021
0070029720999991960021206004+60517+022267FM-12+005499999V0200401N00211220001CN0400001N9-02111-02281101711ADDAY101999GF100991001001999999001001KA1999N-02111MD1210131+9999MW1021
0057029720999991960021209004+60517+022267FM-12+005499999V0209991C00001220001CN0400001N9-01611-02001101841ADDAY101999GF100991001001999999001001MD1210141+9999MW1021
0057029720999991960021212004+60517+022267FM-12+005499999V0209991C00001220001CN0400001N9-01111-01391101821ADDAY101999GF101991011001999999041001MD1710011+9999MW1021
0057029720999991960021215004+60517+022267FM-12+005499999V0201801N00101220001CN0300001N9-01111-01611101781ADDAY101999GF102991011001999999041051MD1710041+9999MW1021
0057029720999991960021221004+60517+022267FM-12+005499999V0201801N00101220001CN0300001N9-02221-02391101721ADDAY101999GF100991001001999999001001MD1710011+9999MW1021
0057029720999991960021300004+60517+022267FM-12+005499999V0201801N00101220001CN0300001N9-02501-02721101591ADDAY101999GF101991001001999999999999MD1710131+9999MW1031
0057029720999991960021309004+60517+022267FM-12+005499999V0200901N00211220001CN0300001N9-01891-02111101011ADDAY101999GF104991001001999999001051MD1710221+9999MW1021
0057029720999991960021312004+60517+022267FM-12+005499999V0200901N00311220001CN0300001N9-01391-01781100731ADDAY101999GF103991001001999999001051MD1710281+9999MW1021
0057029720999991960021315004+60517+022267FM-12+005499999V0200401N00311220001CN0300001N9-01391-01891100421ADDAY101999GF105991001001999999001081MD1710311+9999MW1031
0070029720999991960021318004+60517+022267FM-12+005499999V0200401N00511220001CN0300001N9-01611-02111100151ADDAY111999GF101991001001999999001051KA1999M-01281MD1710271+9999MW1011
0057029720999991960021321004+60517+022267FM-12+005499999V0200401N00511220001CN0300001N9-01611-02221099851ADDAY121999GF102991021001999999041011MD1710301+9999MW1031
0057029720999991960021400004+60517+022267FM-12+005499999V0200401N00721220001CN0300001N9-01611-02281099651ADDAY101999GF100991001001999999001001MD1710201+9999MW1011
0057029720999991960021403004+60517+022267FM-12+005499999V0200401N00511220001CN0300001N9-01501-02111099421ADDAY101999GF107991001001999999001071MD1710221+9999MW1031
0081029720999991960021406004+60517+022267FM-12+005499999V0203601N00411075001CN0150001N9-01611-01781099311ADDAA199000691AY121999GF108991031001999999021071KA1999N-01721MD1710121+9999MW1711
0057029720999991960021409004+60517+022267FM-12+005499999V0203601N00311220001CN0200001N9-01391-01891099291ADDAY171999GF108991001001999999001071MD1710021+9999MW1021
0057029720999991960021412004+60517+022267FM-12+005499999V0203401N00311220001CN0250001N9-01111-01781099271ADDAY121999GF105991001001999999001051MD1710011+9999MW1021
0057029720999991960021415004+60517+022267FM-12+005499999V0203401N00211220001CN0300001N9-01001-01611099301ADDAY121999GF104991001001999999001051MD1210031+9999MW1011
0070029720999991960021418004+60517+022267FM-12+005499999V0203201N00101220001CN0300001N9-01391-02111099431ADDAY101999GF101991001001999999001011KA1999M-00891MD1210131+9999MW1011
0057029720999991960021421004+60517+022267FM-12+005499999V0202701N00101220001CN0300001N9-01891-02391099521ADDAY101999GF102991001001999999001011MD1210091+9999MW1031
0057029720999991960021500004+60517+022267FM-12+005499999V0202301N00101220001CN0300001N9-02221-02391099601ADDAY101999GF103991001001999999001011MD1210181+9999MW1031
0057029720999991960021503004+60517+022267FM-12+005499999V0201801N00211220001CN0300001N9-02391-02611099621ADDAY101999GF104991001001999999001011MD1210021+9999MW1031
0057029720999991960021509004+60517+022267FM-12+005499999V0201201N00311024001CN0300001N9-01281-01611099601ADDAY121999GF106991051001999999071061MD1210031+9999MW1021
0057029720999991960021512004+60517+022267FM-12+005499999V0201401N00311024001CN0300001N9-00891-01221099471ADDAY121999GF106991061001999999041001MD1810131+9999MW1011
0057029720999991960021515004+60517+022267FM-12+005499999V0201401N00311030001CN0300001N9-00891-01111099451ADDAY121999GF107991021051004501041021MD1710021+9999MW1011
0070029720999991960021518004+60517+022267FM-12+005499999V0201401N00411004501CN0150001N9-00891-01111099381ADDAY121999GF108991081061004501999999KA1999M-00721MD1810071+9999MW1031
0057029720999991960021521004+60517+022267FM-12+005499999V0201201N00411002401CN0100001N9-00781-01001099321ADDAY121999GF108991081061002501999999MD1710061+9999MW1021
0057029720999991960021600004+60517+022267FM-12+005499999V0201201N00511002401CN0100001N9-00781-00891099171ADDAY171999GF108991081061002501999999MD1710151+9999MW1711
0057029720999991960021603004+60517+022267FM-12+005499999V0200901N00411002401CN0060001N9-00721-00781098971ADDAY171999GF108991081061002501999999MD1710201+9999MW1701
0081029720999991960021606004+60517+022267FM-12+005499999V0200901N00411002401CN0060001N9-00611-00721098861ADDAA199001091AY171999GF108991081061002501999999KA1999N-00891MD1710111+9999MW1711
0057029720999991960021609004+60517+022267FM-12+005499999V0200901N00411004501CN0070001N9-00501-00611098811ADDAY171999GF108991081061004501999999MD1710041+9999MW1221
0057029720999991960021612004+60517+022267FM-12+005499999V0200901N00411001501CN0025001N9-00281-00391098761ADDAY171999GF108991081061001501999999MD1710041+9999MW1731
0057029720999991960021615004+60517+022267FM-12+005499999V0201801N00411030001CN0150001N9-00111-00221098811ADDAY121999GF108991041061002501071999MD1210051+9999MW1021
0081029720999991960021618004+60517+022267FM-12+005499999V0201801N00311002401CN0150001N9-00111-00221098841ADDAA199001091AY121999GF108991051061002501071999KA1999M-00111MD1210031+9999MW1021
0057029720999991960021621004+60517+022267FM-12+005499999V0201401N00211002401CN0100001N9-00221-00281098841ADDAY171999GF108991081061002501999999MD1410001+9999MW1711
0057029720999991960021700004+60517+022267FM-12+005499999V0201801N00211002401CN0100001N9-00221-00221098801ADDAY171999GF108991081061002501999999MD1710041+9999MW1711
0057029720999991960021703004+60517+022267FM-12+005499999V0202301N00101001501CN0080001N9-00221-00281098841ADDAY171999GF108991081061001501999999MD1210041+9999MW1021
0081029720999991960021706004+60517+022267FM-12+005499999V0202001N00101001501CN0025001N9-00281-00281098891ADDAA199001091AY171999GF108991081061001501999999KA1999N-00281MD1210051+9999MW1711
0057029720999991960021709004+60517+022267FM-12+005499999V0201601N00311001501CN0035001N9-00281-00281098931ADDAY171999GF108991081061001501999999MD1210041+9999MW1701
0057029720999991960021712004+60517+022267FM-12+005499999V0201401N00211002401CN0015001N9-00221-00221098911ADDAY171999GF108991061061002501071999MD1710021+9999MW1731
0057029720999991960021715004+60517+022267FM-12+005499999V0201401N00311002401CN0080001N9-00221-00391098891ADDAY171999GF108991081061002501999999MD1610021+9999MW1021
0081029720999991960021718004+60517+022267FM-12+005499999V0201401N00311002401CN0060001N9-00281-00391098891ADDAA199001091AY171999GF108991081061002501999999KA1999M-00221MD1410001+9999MW1711
0057029720999991960021721004+60517+022267FM-12+005499999V0200901N00311004501CN0050001N9-00281-00391098891ADDAY171999GF108991081061004501999999MD1410001+9999MW1731
0057029720999991960021800004+60517+022267FM-12+005499999V0200901N00511004501CN0040001N9-00391-00501098891ADDAY171999GF108991081061004501999999MD1410001+9999MW1731
0092029720999991960021803004+60517+022267FM-12+005499999V0200901N00511004501CN0060001N9-00391-00501098901ADDAY171999GF108991081061004501999999MD1210011+9999MW1711EQDQ01+000042APCTENQ02+000012APC3  
0057029720999991960021809004+60517+022267FM-12+005499999V0200901N00411030001CN0040001N9-00501-00611099001ADDAY171999GF107991041061002501041071MD1210071+9999MW1731
0057029720999991960021812004+60517+022267FM-12+005499999V0200401N00411002401CN0030001N9-00391-00501099141ADDAY171999GF108991081061002501999999MD1210141+9999MW1731
0057029720999991960021815004+60517+022267FM-12+005499999V0200401N00311004501CN0080001N9-00281-00501099301ADDAY171999GF108991081061004501999999MD1210161+9999MW1021
0081029720999991960021818004+60517+022267FM-12+005499999V0200401N00211004501CN0060001N9-00391-00501099501ADDAA199001091AY171999GF108991081051004501999999KA1999M-00281MD1210201+9999MW1711
0057029720999991960021821004+60517+022267FM-12+005499999V0200401N00101004501CN0060001N9-00501-00501099731ADDAY171999GF108991081051004501999999MD1210231+9999MW1711
0057029720999991960021900004+60517+022267FM-12+005499999V0203601N00101024001CN0150001N9-00501-00501100011ADDAY171999GF108991081001999999071999MD1210281+9999MW1221
0057029720999991960021903004+60517+022267FM-12+005499999V0203601N00101004501CN0150001N9-00611-00611100161ADDAY111999GF108991081051004501999999MD1210141+9999MW1021
0057029720999991960021912004+60517+022267FM-12+005499999V0203201N00311004501CN0080001N9-00611-00781100861ADDAY171999GF108991081061004501999999MD1210191+9999MW1021
0081029720999991960021918004+60517+022267FM-12+005499999V0209991C00001004501CN0100001N9-00721-00891101171ADDAA199000691AY171999GF108991081051004501999999KA1999M-00501MD1210141+9999MW1711
0057029720999991960021921004+60517+022267FM-12+005499999V0201801N00211007801CN0150001N9-00721-00781101241ADDAY171999GF108991081051008001999999MD1210071+9999MW1021
0057029720999991960022000004+60517+022267FM-12+005499999V0209991C00001007801CN0150001N9-00721-00891101281ADDAY121999GF108991081051008001999999MD1210041+9999MW1021
0057029720999991960022003004+60517+022267FM-12+005499999V0201801N00211007801CN0150001N9-00611-00781101241ADDAY121999GF108991081051008001999999MD1710041+9999MW1021
0081029720999991960022006004+60517+022267FM-12+005499999V0201401N00211007801CN0150001N9-00611-00781101161ADDAA199000691AY121999GF108991081051008001999999KA1999N-00781MD1710081+9999MW1021
0057029720999991960022009004+60517+022267FM-12+005499999V0201801N00621007801CN0150001N9-00501-00721101081ADDAY121999GF108991081051008001999999MD1710081+9999MW1021
0057029720999991960022012004+60517+022267FM-12+005499999V0201401N00511004501CN0150001N9-00391-00611100841ADDAY171999GF108991071061004501999999MD1710261+9999MW1021
0057029720999991960022015004+60517+022267FM-12+005499999V0201401N00511002401CN0030001N9-00391-00611100541ADDAY171999GF108991081061002501999999MD1710281+9999MW1731
0081029720999991960022018004+60517+022267FM-12+005499999V0201401N00511002401CN0040001N9-00391-00501100371ADDAA199000591AY171999GF108991081061002501999999KA1999M-00391MD1710171+9999MW1731
0057029720999991960022100004+60517+022267FM-12+005499999V0201801N00311001501CN0015001N9-00281-00281100221ADDAY121999GF108991081061001501999999MD1710091+9999MW1101
0057029720999991960022103004+60517+022267FM-12+005499999V0201801N00311002401CN0010001N9-00221-00221100101ADDAY171999GF108991081061002501999999MD1710121+9999MW1751
0081029720999991960022106004+60517+022267FM-12+005499999V0201801N00621001501CN0020001N9+00001+00001099811ADDAA199002091AY171999GF108991081061001501999999KA1999N-00391MD1710291+9999MW1731
0057029720999991960022109004+60517+022267FM-12+005499999V0201801N00721001501CN0015001N9+00001+00001099641ADDAY171999GF108991081061001501999999MD1710171+9999MW1681
0057029720999991960022112004+60517+022267FM-12+005499999V0202201N00821000601CN0010001N9+00001+00001099481ADDAY171999GF108991081061000751999999MD1710161+9999MW1101
0057029720999991960022115004+60517+022267FM-12+005499999V0202201N00511000601CN0011001N9+00001+00001099461ADDAY171999GF108991081061000751999999MD1710021+9999MW1691
0081029720999991960022118004+60517+022267FM-12+005499999V0202201N00311000601CN0025001N9+00001+00001099481ADDAA199004091AY171999GF108991081061000751999999KA1999M+00111MD1210021+9999MW1421
0057029720999991960022121004+60517+022267FM-12+005499999V0201801N00211000601CN0010001N9+00001+00001099401ADDAY141999GF108991081061000751999999MD1710081+9999MW1681
0057029720999991960022200004+60517+022267FM-12+005499999V0201801N00211000601CN0012001N9+00001-00111099201ADDAY171999GF108991081061000751999999MD1710201+9999MW1731
0057029720999991960022203004+60517+022267FM-12+005499999V0203601N00101001501CN0040001N9-00111-00111099071ADDAY171999GF108991081061001501999999MD1710131+9999MW1711
0081029720999991960022206004+60517+022267FM-12+005499999V0203001N00411001501CN0060001N9-00281-00391099181ADDAA199005091AY171999GF108991081061001501999999KA1999N-00281MD1210101+9999MW1221
0057029720999991960022209004+60517+022267FM-12+005499999V0203201N00311001501CN0080001N9-00501-00501099321ADDAY121999GF108991061061001501071061MD1210141+9999MW1221
0057029720999991960022212004+60517+022267FM-12+005499999V0203401N00411001501CN0080001N9-00501-00611099461ADDAY171999GF108991081061001501999999MD1210131+9999MW1771
0057029720999991960022215004+60517+022267FM-12+005499999V0203201N00411002401CN0100001N9-00781-01001099651ADDAY171999GF107991071061002501999999MD1210191+9999MW1021
0081029720999991960022218004+60517+022267FM-12+005499999V0203201N00511002401CN0100001N9-01001-01221099891ADDAA199000691AY121999GF108991081061002501999999KA1999M-00221MD1210241+9999MW1021
0057029720999991960022221004+60517+022267FM-12+005499999V0203601N00411004501CN0100001N9-01221-01391100181ADDAY171999GF108991081061004501999999MD1210291+9999MW1711
0057029720999991960022303004+60517+022267FM-12+005499999V0201801N00211004501CN0100001N9-01111-01281100331ADDAY171999GF108991081051004501999999MD1210031+9999MW1711
0081029720999991960022306004+60517+022267FM-12+005499999V0202201N00411030001CN0150001N9-00891-01111100371ADDAA199000391AY171999GF107991041051008001071999KA1999N-01281MD1210031+9999MW1221
0057029720999991960022309004+60517+022267FM-12+005499999V0202201N00511004501CN0200001N9-00781-01001100471ADDAY111999GF105991051051004501001001MD1210111+9999MW1031
0057029720999991960022312004+60517+022267FM-12+005499999V0203201N00411004501CN0150001N9-00611-00891100701ADDAY171999GF107991071061004501001001MD1210231+9999MW1711
0057029720999991960022315004+60517+022267FM-12+005499999V0202701N00311220001CN0200001N9-00721-01001100831ADDAY111999GF104991041051004501001001MD1210131+9999MW1031
0081029720999991960022318004+60517+022267FM-12+005499999V0203001N00511004501CN0100001N9-00721-00891101061ADDAA199000691AY111999GF108991081051004501999999KA1999M-00501MD1210231+9999MW1711
0057029720999991960022321004+60517+022267FM-12+005499999V0202701N00311220001CN0150001N9-00781-01111101291ADDAY171999GF103991031051004501001001MD1210221+9999MW1221
0057029720999991960022400004+60517+022267FM-12+005499999V0203201N00211220001CN0200001N9-01501-01721101501ADDAY101999GF100991001001999999001001MD1210191+9999MW1011
0057029720999991960022403004+60517+022267FM-12+005499999V0202201N00211220001CN0200001N9-01781-02001101701ADDAY101999GF100991001001999999001001MD1210191+9999MW1021
0081029720999991960022406004+60517+022267FM-12+005499999V0202001N00211220001CN0050001N9-02111-02281101791ADDAA199000691AY101999GF103991011061001501001011KA1999N-02111MD1210091+9999MW1031
0057029720999991960022409004+60517+022267FM-12+005499999V0201801N00211220001CN0080001N9-01111-01281102011ADDAY101999GF101991001001999999001011MD1210221+9999MW1031
0057029720999991960022412004+60517+022267FM-12+005499999V0202201N00051030001CN0150001N9-00611-00781102161ADDAY101999GF105991031051004501041011MD1210161+9999MW1031
0057029720999991960022415004+60517+022267FM-12+005499999V0201801N00211220001CN0200001N9-00611-00891102221ADDAY101999GF102991021001999999041011MD1210061+9999MW1011
0070029720999991960022418004+60517+022267FM-12+005499999V0201801N00101220001CN0030001N9-01001-01111102291ADDAY101999GF101991011001999999041001KA1999M-00501MD1210061+9999MW1121
0057029720999991960022421004+60517+022267FM-12+005499999V0201801N00101001501CN0070001N9-00891-01001102491ADDAY121999GF108991081061001501999999MD1210201+9999MW1021
0057029720999991960022500004+60517+022267FM-12+005499999V0201401N00101000601CN0060001N9-01001-01221102561ADDAY121999GF108991081061000751999999MD1210071+9999MW1021
0081029720999991960022506004+60517+022267FM-12+005499999V0200901N00101075001CN0100001N9-01391-01501102701ADDAA199000391AY121999GF105991021061001501041011KA1999N-01391MD1210121+9999MW1031
0057029720999991960022509004+60517+022267FM-12+005499999V0201401N00211220001CN0200001N9-01221-01281102751ADDAY101999GF103991011001999999041011MD1210051+9999MW1011
0057029720999991960022512004+60517+022267FM-12+005499999V0201401N00311220001CN0300001N9-00781-01281102671ADDAY101999GF102991001001999999001011MD1810081+9999MW1021
0057029720999991960022515004+60517+022267FM-12+005499999V0201401N00211220001CN0300001N9-00891-01281102621ADDAY101999GF101991001001999999001011MD1710051+9999MW1021
0070029720999991960022518004+60517+022267FM-12+005499999V0201001N00311220001CN0100001N9-01391-01611102661ADDAY101999GF101991001001999999001011KA1999M-00781MD1210041+9999MW1021
0057029720999991960022521004+60517+022267FM-12+005499999V0200901N00211220001CN0150001N9-01781-01891102651ADDAY101999GF100991001001999999001001MD1310011+9999MW1011
0070029720999991960022606004+60517+022267FM-12+005499999V0200901N00311220001CN0150001N9-02001-02221102631ADDAY101999GF103991001001999999001011KA1999N-02111MD1210031+9999MW1031
0057029720999991960022609004+60517+022267FM-12+005499999V0200901N00211220001CN0250001N9-01391-01611102651ADDAY111999GF105991001001999999001061MD1210021+9999MW1011
0057029720999991960022612004+60517+022267FM-12+005499999V0200401N00101220001CN0200001N9-00781-01281102641ADDAY111999GF103991001001999999001011MD1410001+9999MW1011
0057029720999991960022615004+60517+022267FM-12+005499999V0200401N00101220001CN0200001N9-00721-01221102531ADDAY101999GF101991001001999999001011MD1710101+9999MW1011
0070029720999991960022618004+60517+022267FM-12+005499999V0200401N00101220001CN0200001N9-01221-01391102651ADDAY101999GF101991001001999999001011KA1999M-00721MD1210101+9999MW1021
0057029720999991960022621004+60517+022267FM-12+005499999V0201401N00101220001CN0200001N9-01501-01611102651ADDAY101999GF102991001001999999001011MD1410001+9999MW1031
0057029720999991960022703004+60517+022267FM-12+005499999V0201801N00101024001CN0200001N9-01391-01501102571ADDAY121999GF108991051001999999041071MD1410001+9999MW1031
0057029720999991960022709004+60517+022267FM-12+005499999V0201801N00411024001CN0090001N9-00891-01001102471ADDAY111999GF108991081001999999071999MD1710041+9999MW1021
0057029720999991960022712004+60517+022267FM-12+005499999V0201801N00411024001CN0150001N9-00611-00781102371ADDAY121999GF108991081001999999071999MD1710091+9999MW1021
0057029720999991960022715004+60517+022267FM-12+005499999V0201801N00411004501CN0080001N9-00611-00781102281ADDAY121999GF107991051061004501071999MD1710091+9999MW1021
0070029720999991960022718004+60517+022267FM-12+005499999V0201801N00411024001CN0100001N9-00721-00781102111ADDAY121999GF108991081001999999071999KA1999M-00501MD1710171+9999MW1021
0057029720999991960022721004+60517+022267FM-12+005499999V0201401N00411024001CN0150001N9-00781-00891101971ADDAY121999GF108991081001999999071999MD1710141+9999MW1021
0057029720999991960022800004+60517+022267FM-12+005499999V0201401N00311004501CN0100001N9-00781-00891101751ADDAY121999GF108991081061004501999999MD1710221+9999MW1711
0057029720999991960022803004+60517+022267FM-12+005499999V0200901N00311002401CN0080001N9-00721-00891101411ADDAY171999GF108991081061002501999999MD1710341+9999MW1711
0057029720999991960022809004+60517+022267FM-12+005499999V0200901N00311004501CN0080001N9-00721-00891101041ADDAY171999GF108991051061004501071999MD1710161+9999MW1731
0057029720999991960022812004+60517+022267FM-12+005499999V0200401N00411220001CN0100001N9-00721-00781101101ADDAY171999GF104991031051004501041001MD1210061+9999MW1711
0057029720999991960022815004+60517+022267FM-12+005499999V0200401N00311004501CN0100001N9-00721-00891101191ADDAY171999GF108991081061004501999999MD1210091+9999MW1021
0081029720999991960022818004+60517+022267FM-12+005499999V0200401N00211004501CN0100001N9-00781-01001101381ADDAA199005091AY121999GF108991081051004501999999KA1999M-00611MD1210181+9999MW1001
0057029720999991960022821004+60517+022267FM-12+005499999V0200401N00411004501CN0150001N9-01281-01391101601ADDAY121999GF106991061051004501999999MD1210211+9999MW1011
0057029720999991960022900004+60517+022267FM-12+005499999V0200401N00411004501CN0150001N9-01281-01611101731ADDAY111999GF108991081061004501999999MD1210251+9999MW1031
0057029720999991960022903004+60517+022267FM-12+005499999V0200201N00311004501CN0100001N9-01391-01611101871ADDAY121999GF108991081061004501999999MD1210141+9999MW1021
0070029720999991960022906004+60517+022267FM-12+005499999V0200401N00511004501CN0150001N9-01501-01721102041ADDAY121999GF108991081061004501999999KA1999N-01721MD1210171+9999MW1021
0057029720999991960022909004+60517+022267FM-12+005499999V0200401N00621220001CN0300001N9-01391-01781102181ADDAY111999GF102991021051004501001001MD1210141+9999MW1011
0057029720999991960022912004+60517+022267FM-12+005499999V0200401N00411220001CN0400001N9-01221-01721102361ADDAY101999GF100991001001999999001001MD1210181+9999MW1011
0057029720999991960022915004+60517+022267FM-12+005499999V0203601N00511220001CN0400001N9-01111-01611102401ADDAY101999GF101991011001999999041001MD1210041+9999MW1031
0070029720999991960022918004+60517+022267FM-12+005499999V0200401N00311220001CN0400001N9-01611-01781102511ADDAY101999GF100991001001999999001001KA1999M-01001MD1210101+9999MW1021
0057029720999991960022921004+60517+022267FM-12+005499999V0200401N00311220001CN0300001N9-01891-02111102671ADDAY101999GF100991001001999999001001MD1210061+9999MW1021
0057029720999991960030100004+60517+022267FM-12+005499999V0200401N00211220001CN0300001N9-02001-02221102701ADDAY101999GF100991001001999999001001MD1210021+9999MW1021
0057029720999991960030103004+60517+022267FM-12+005499999V0200401N00311220001CN0300001N9-02281-02391102641ADDAY101999GF100991001001999999001001MD1710071+9999MW1021
0070029720999991960030106004+60517+022267FM-12+005499999V0200901N00211220001CN0300001N9-02391-02391102511ADDAY101999GF104991021001999999041011KA1999N-02501MD1710131+9999MW1031
0057029720999991960030109004+60517+022267FM-12+005499999V0201401N00211220001CN0300001N9-01611-01721102461ADDAY101999GF104991041001999999041011MD1710031+9999MW1021
0057029720999991960030112004+60517+022267FM-12+005499999V0201401N00311220001CN0300001N9-01221-01611102331ADDAY121999GF105991031001999999041011MD1710131+9999MW1011
0057029720999991960030115004+60517+022267FM-12+005499999V0201401N00311024001CN0300001N9-01221-01611102251ADDAY121999GF107991051001999999041061MD1710081+9999MW1031
0057029720999991960030121004+60517+022267FM-12+005499999V0201401N00621021001CN0300001N9-01391-01781102071ADDAY121999GF108991081001022501021999MD1710011+9999MW1021
0057029720999991960030200004+60517+022267FM-12+005499999V0201501N00621021001CN0300001N9-01281-01721101961ADDAY121999GF108991081001022501021999MD1710111+9999MW1021
0057029720999991960030203004+60517+022267FM-12+005499999V0201501N00621021001CN0300001N9-01281-01721101761ADDAY121999GF108991081001022501021999MD1710201+9999MW1021
0070029720999991960030206004+60517+022267FM-12+005499999V0201401N00621021001CN0300001N9-01221-01501101631ADDAY121999GF108991081001022501021999KA1999N-01391MD1710131+9999MW1021
0057029720999991960030209004+60517+022267FM-12+005499999V0201401N00721021001CN0200001N9-01111-01391101611ADDAY121999GF108991081001022501021999MD1710021+9999MW1021
0057029720999991960030212004+60517+022267FM-12+005499999V0201401N00721021001CN0200001N9-00891-01221101511ADDAY171999GF108991081001022501021999MD1710091+9999MW1021
0057029720999991960030215004+60517+022267FM-12+005499999V0201801N00721002401CN0070001N9-00781-01111101461ADDAY171999GF108991061061002501021999MD1710051+9999MW1711
0081029720999991960030218004+60517+022267FM-12+005499999V0201401N00721030001CN0050001N9-00891-01111101491ADDAA199000391AY171999GF108991041061002501021999KA1999M-00781MD1210031+9999MW1711
0057029720999991960030221004+60517+022267FM-12+005499999V0201401N00511002401CN0050001N9-00891-01001101551ADDAY171999GF108991081061002501999999MD1210061+9999MW1711
0057029720999991960030300004+60517+022267FM-12+005499999V0201401N00511002401CN0050001N9-00891-00891101581ADDAY171999GF108991081061002501999999MD1210031+9999MW1711
0057029720999991960030303004+60517+022267FM-12+005499999V0201401N00511002401CN0050001N9-00781-00891101661ADDAY171999GF108991081061002501999999MD1210081+9999MW1711
0081029720999991960030306004+60517+022267FM-12+005499999V0201401N00411002401CN0150001N9-00781-01001101761ADDAA199001091AY171999GF108991061061002501021999KA1999N-00891MD1210101+9999MW1701
0057029720999991960030309004+60517+022267FM-12+005499999V0201401N00511002401CN0100001N9-00721-00891101881ADDAY171999GF108991061061002501021999MD1210121+9999MW1711
0057029720999991960030312004+60517+022267FM-12+005499999V0201601N00511002401CN0150001N9-00721-00891101921ADDAY171999GF108991051061002501021999MD1210051+9999MW1701
0057029720999991960030315004+60517+022267FM-12+005499999V0201601N00511004501CN0200001N9-00611-00781101961ADDAY171999GF108991081061004501999999MD1210041+9999MW1021
0081029720999991960030318004+60517+022267FM-12+005499999V0201401N00411004501CN0150001N9-00611-00891102031ADDAA199000691AY121999GF108991081051004501999999KA1999M-00611MD1210071+9999MW1021
0057029720999991960030400004+60517+022267FM-12+005499999V0201401N00411004501CN0200001N9-00501-00891102131ADDAY121999GF108991081051004501999999MD1210061+9999MW1021
0057029720999991960030403004+60517+022267FM-12+005499999V0201401N00411007801CN0200001N9-00781-01001102241ADDAY121999GF108991081051008001999999MD1210111+9999MW1021
0070029720999991960030406004+60517+022267FM-12+005499999V0201401N00511030001CN0300001N9-00781-01111102321ADDAY121999GF107991041051008001071999KA1999N-00781MD1210081+9999MW1021
0057029720999991960030409004+60517+022267FM-12+005499999V0201401N00411030001CN0300001N9-00611-01001102511ADDAY121999GF107991031051008001071999MD1210101+9999MW1021
0057029720999991960030412004+60517+022267FM-12+005499999V0201401N00511030001CN0300001N9-00391-01001102691ADDAY121999GF107991021051008001071999MD1210181+9999MW1021
0057029720999991960030415004+60517+022267FM-12+005499999V0201401N00311024001CN0200001N9-00501-01111102891ADDAY121999GF107991071001999999071999MD1210201+9999MW1011
0057029720999991960030421004+60517+022267FM-12+005499999V0201401N00311024001CN0150001N9-00721-01111103291ADDAY121999GF108991081001999999071999MD1210211+9999MW1021
0057029720999991960030500004+60517+022267FM-12+005499999V0200901N00211220001CN0200001N9-00891-01281103501ADDAY121999GF103991031001999999031001MD1210201+9999MW1011
0057029720999991960030503004+60517+022267FM-12+005499999V0201201N00211220001CN0200001N9-01281-01611103661ADDAY101999GF100991001001999999001001MD1210151+9999MW1011
0057029720999991960030512004+60517+022267FM-12+005499999V0201401N00311220001CN0200001N9-00391-01221104131ADDAY101999GF101991011001999999041001MD1210121+9999MW1021
0070029720999991960030518004+60517+022267FM-12+005499999V0201601N00311220001CN0200001N9-00611-01281104291ADDAY101999GF100991001001999999001001KA1999M-00281MD1210061+9999MW1011
0057029720999991960030521004+60517+022267FM-12+005499999V0201401N00311220001CN0200001N9-01001-01281104431ADDAY101999GF100991001001999999001001MD1210121+9999MW1021
0057029720999991960030600004+60517+022267FM-12+005499999V0201401N00311220001CN0150001N9-01221-01501104481ADDAY101999GF100991001001999999001001MD1210051+9999MW1021
0057029720999991960030603004+60517+022267FM-12+005499999V0200901N00211220001CN0150001N9-01781-01891104511ADDAY101999GF101991001001999999001011MD1210011+9999MW1021
0057029720999991960030609004+60517+022267FM-12+005499999V0201801N00211220001CN0100001N9-00781-01221104531ADDAY101999GF101991001001999999001011MD1210051+9999MW1021
0057029720999991960030612004+60517+022267FM-12+005499999V0202301N00311220001CN0150001N9-00281-01001104521ADDAY101999GF101991001001999999001011MD1110011+9999MW1021
0057029720999991960030615004+60517+022267FM-12+005499999V0202301N00211220001CN0150001N9-00391-01111104461ADDAY101999GF101991001001999999001011MD1710061+9999MW1021
0070029720999991960030618004+60517+022267FM-12+005499999V0202301N00311220001CN0080001N9-00891-01221104431ADDAY101999GF103991001001999999001011KA1999M-00281MD1710031+9999MW1031
0057029720999991960030621004+60517+022267FM-12+005499999V0202301N00211220001CN0050001N9-01221-01281104361ADDAY101999GF103991001001999999001051MD1710071+9999MW1021
0057029720999991960030700004+60517+022267FM-12+005499999V0202301N00311024001CN0050001N9-01221-01221104271ADDAY111999GF107991071001999999071999MD1710091+9999MW1031
0057029720999991960030703004+60517+022267FM-12+005499999V0201801N00311024001CN0050001N9-01001-01111104201ADDAY121999GF107991071001999999071999MD1710071+9999MW1021
0070029720999991960030706004+60517+022267FM-12+005499999V0202301N00311024001CN0050001N9-00781-00891104131ADDAY121999GF108991081001999999071999KA1999N-01281MD1710071+9999MW1021
0057029720999991960030709004+60517+022267FM-12+005499999V0202301N00311024001CN0100001N9-00501-00781104081ADDAY121999GF108991081001999999071999MD1710051+9999MW1021
0057029720999991960030712004+60517+022267FM-12+005499999V0202201N00311024001CN0150001N9-00281-00611104031ADDAY121999GF108991081001999999071999MD1710041+9999MW1021
0057029720999991960030715004+60517+022267FM-12+005499999V0202201N00311024001CN0300001N9-00391-00781103921ADDAY121999GF107991071001999999071999MD1710111+9999MW1011
0070029720999991960030718004+60517+022267FM-12+005499999V0202201N00211220001CN0300001N9-00781-00891103911ADDAY101999GF102991021001999999041001KA1999M-00281MD1710021+9999MW1011
0057029720999991960030721004+60517+022267FM-12+005499999V0202201N00311220001CN0300001N9-00891-01001103861ADDAY101999GF102991021001999999041001MD1710061+9999MW1021
0057029720999991960030800004+60517+022267FM-12+005499999V0202301N00211220001CN0200001N9-01001-01001103881ADDAY101999GF102991021001999999041001MD1210021+9999MW1021
0057029720999991960030803004+60517+022267FM-12+005499999V0202301N00101220001CN0200001N9-01001-01111103871ADDAY101999GF100991001001999999001001MD1710011+9999MW1011
0057029720999991960030809004+60517+022267FM-12+005499999V0202201N00211220001CN0150001N9-00721-00891103881ADDAY101999GF103991031001999999041001MD1210031+9999MW1021
0057029720999991960030812004+60517+022267FM-12+005499999V0202701N00211220001CN0200001N9-00281-00891103861ADDAY101999GF102991011001999999041011MD1710011+9999MW1021
0057029720999991960030815004+60517+022267FM-12+005499999V0202301N00311220001CN0200001N9-00281-01221103831ADDAY101999GF102991011001999999041011MD1710031+9999MW1021
0089029720999991960030818004+60517+022267FM-12+005499999V0202301N00311220001CN0200001N9-00781-01221103831ADDAY111999GF104991041001999999041001KA1999M-00221MD1410001+9999MW1031EQDQ01+000072APCTEN
0057029720999991960030821004+60517+022267FM-12+005499999V0202301N00311024001CN0200001N9-01001-01221103821ADDAY121999GF106991061001999999041001MD1710011+9999MW1031
0057029720999991960030900004+60517+022267FM-12+005499999V0202701N00101220001CN0200001N9-01221-01281103711ADDAY111999GF102991021001999999041001MD1710111+9999MW1011
0057029720999991960030903004+60517+022267FM-12+005499999V0203601N00101220001CN0200001N9-01111-01221103601ADDAY111999GF104991041001999999041001MD1710111+9999MW1031
0070029720999991960030906004+60517+022267FM-12+005499999V0203601N00211220001CN0100001N9-01001-01111103521ADDAY101999GF104991021001999999041021KA1999N-01281MD1710081+9999MW1021
0057029720999991960030909004+60517+022267FM-12+005499999V0203601N00211000151CN0007001N9-00781-00781103511ADDAY141999GF109991091999000251999999MD1410001+9999MW1431
0057029720999991960030912004+60517+022267FM-12+005499999V0203601N00211220001CN0300001N9+00001-00611103401ADDAY141999GF101991011001999999041001MD1710111+9999MW1011
0057029720999991960030915004+60517+022267FM-12+005499999V0200401N00211220001CN0400001N9+00001-01001103331ADDAY101999GF100991001001999999001001MD1710071+9999MW1021
0070029720999991960030918004+60517+022267FM-12+005499999V0200401N00101220001CN0300001N9-00391-00891103311ADDAY101999GF101991001001999999001051KA1999M+00221MD1710031+9999MW1031
0057029720999991960030921004+60517+022267FM-12+005499999V0201801N00101220001CN0080001N9-00781-00891103311ADDAY101999GF100991001001999999001001MD1710011+9999MW1011
0057029720999991960031000004+60517+022267FM-12+005499999V0209991C00001000151CN0004001N9-01111-01221103361ADDAY101999GF109991091999000251999999MD1210041+9999MW1471
0057029720999991960031003004+60517+022267FM-12+005499999V0201401N00101000151CN0003001N9-01111-01221103401ADDAY141999GF109991091999000251999999MD1210041+9999MW1451
0070029720999991960031006004+60517+022267FM-12+005499999V0201401N00101000151CN0003001N9-01111-01221103361ADDAY141999GF109991091999000251999999KA1999N-01221MD1710041+9999MW1451
0057029720999991960031012004+60517+022267FM-12+005499999V0201401N00101220001CN0150001N9-00611-00611103291ADDAY101999GF100991001001999999001001MD1710071+9999MW1011
0057029720999991960031015004+60517+022267FM-12+005499999V0202701N00101220001CN0200001N9+00001-00891103211ADDAY101999GF100991001001999999001001MD1710071+9999MW1021
0070029720999991960031018004+60517+022267FM-12+005499999V0202701N00101220001CN0100001N9-00611-00781103231ADDAY101999GF101991001001999999001051KA1999M+00001MD1410001+9999MW1021
0057029720999991960031021004+60517+022267FM-12+005499999V0200901N00101220001CN0030001N9-01111-01221103221ADDAY101999GF100991001001999999001001MD1710021+9999MW1111
0057029720999991960031100004+60517+022267FM-12+005499999V0209991C00001000151CN0003001N9-01111-01111103261ADDAY141999GF109991091999000251999999MD1210041+9999MW1471
0057029720999991960031103004+60517+022267FM-12+005499999V0209991C00001000151CN0003001N9-00891-00891103231ADDAY141999GF109991091999000251999999MD1710021+9999MW1491
0070029720999991960031106004+60517+022267FM-12+005499999V0209991C00001000151CN0004001N9-00891-00891103191ADDAY141999GF109991091999000251999999KA1999N-01221MD1710041+9999MW1491
0057029720999991960031109004+60517+022267FM-12+005499999V0201801N00101001501CN0010001N9-00781-00891103101ADDAY141999GF108991081061001501999999MD1710091+9999MW1701
0057029720999991960031112004+60517+022267FM-12+005499999V0201401N00101000601CN0015001N9-00721-00721103041ADDAY121999GF108991081061000751999999MD1710061+9999MW1101
0057029720999991960031115004+60517+022267FM-12+005499999V0201801N00101000601CN0015001N9-00611-00721102881ADDAY121999GF108991081061000751999999MD1710161+9999MW1101
0081029720999991960031118004+60517+022267FM-12+005499999V0201801N00211001501CN0030001N9-00721-00781102771ADDAA199000591AY121999GF108991081061001501999999KA1999M-00611MD1710111+9999MW1421
0057029720999991960031121004+60517+022267FM-12+005499999V0201801N00101000601CN0009001N9-00721-00781102661ADDAY141999GF109991091061000751999999MD1710111+9999MW1471
0057029720999991960031200004+60517+022267FM-12+005499999V0201801N00211000151CN0004001N9-00721-00721102551ADDAY141999GF109991091999000251999999MD1710111+9999MW1471
0057029720999991960031203004+60517+022267FM-12+005499999V0201401N00101000151CN0004001N9-00721-00781102331ADDAY121999GF109991091999000251999999MD1710221+9999MW1451
0070029720999991960031206004+60517+022267FM-12+005499999V0201401N00101000601CN0008001N9-00721-00781102231ADDAY141999GF108991081061000751999999KA1999N-00781MD1710101+9999MW1421
0057029720999991960031209004+60517+022267FM-12+005499999V0201401N00101000601CN0050001N9-00611-00721102061ADDAY141999GF108991061061000751041999MD1710131+9999MW1281
0057029720999991960031212004+60517+022267FM-12+005499999V0201401N00411024001CN0150001N9-00281-00281101881ADDAY121999GF105991051001999999041001MD1710161+9999MW1011
0057029720999991960031215004+60517+022267FM-12+005499999V0201401N00311024001CN0200001N9-00221-00281101721ADDAY111999GF106991051001999999041011MD1710151+9999MW1031
0070029720999991960031218004+60517+022267FM-12+005499999V0201001N00261024001CN0080001N9-00221-00501101601ADDAY121999GF108991081001999999071999KA1999M-00221MD1710101+9999MW1031
0057029720999991960031221004+60517+022267FM-12+005499999V0201401N00211024001CN0100001N9-00281-00611101511ADDAY121999GF108991081001999999071999MD1710091+9999MW1021
0057029720999991960031300004+60517+022267FM-12+005499999V0201401N00101024001CN0100001N9-00391-00721101421ADDAY121999GF107991071001999999071999MD1710101+9999MW1011
0057029720999991960031303004+60517+022267FM-12+005499999V0201401N00101024001CN0100001N9-00391-00721101301ADDAY121999GF107991071001999999071999MD1710121+9999MW1021
0070029720999991960031306004+60517+022267FM-12+005499999V0201401N00211030001CN0100001N9-00391-00611101251ADDAY121999GF108991041051004501071999KA1999N-00501MD1710051+9999MW1031
0057029720999991960031309004+60517+022267FM-12+005499999V0201801N00311024001CN0200001N9-00221-00501101281ADDAY121999GF108991081001999999071999MD1210041+9999MW1021
0057029720999991960031312004+60517+022267FM-12+005499999V0201801N00311024001CN0200001N9+00111-00281101261ADDAY121999GF107991071001999999071999MD1710021+9999MW1021
0057029720999991960031315004+60517+022267FM-12+005499999V0201801N00411030001CN0200001N9+00111-00221101231ADDAY121999GF107991031051004501071999MD1710031+9999MW1021
0070029720999991960031318004+60517+022267FM-12+005499999V0201801N00311030001CN0150001N9+00001-00281101261ADDAY121999GF108991031051004501071999KA1999M+00111MD1310031+9999MW1021
0057029720999991960031321004+60517+022267FM-12+005499999V0201801N00101001501CN0100001N9-00111-00221101251ADDAY121999GF108991081061001501999999MD1810011+9999MW1031
0057029720999991960031400004+60517+022267FM-12+005499999V0201801N00101002401CN0100001N9-00111-00221101231ADDAY171999GF108991081061002501999999MD1710031+9999MW1711
0057029720999991960031403004+60517+022267FM-12+005499999V0201401N00101001501CN0060001N9-00221-00221101171ADDAY171999GF108991081061001501999999MD1710051+9999MW1711
0081029720999991960031406004+60517+022267FM-12+005499999V0201601N00101030001CN0010001N9-00221-00221101191ADDAA199001091AY141999GF107991031051008001071999KA1999N-00221MD1210021+9999MW1711
0057029720999991960031409004+60517+022267FM-12+005499999V0209991C00001001501CN0050001N9+00001-00221101201ADDAY171999GF108991061061001501071999MD1210011+9999MW1031
0057029720999991960031415004+60517+022267FM-12+005499999V0200801N00311002401CN0080001N9+00111-00111101261ADDAY121999GF108991081061002501999999MD1210011+9999MW1021
0081029720999991960031418004+60517+022267FM-12+005499999V0200901N00101004501CN0080001N9+00111-00111101351ADDAA199000391AY121999GF108991081051004501999999KA1999M+00111MD1210091+9999MW1021
0057029720999991960031421004+60517+022267FM-12+005499999V0200901N00211002401CN0080001N9+00001-00221101411ADDAY121999GF108991081061002501999999MD1210061+9999MW1021
0057029720999991960031500004+60517+022267FM-12+005499999V0200901N00311004501CN0080001N9-00111-00281101491ADDAY121999GF108991081051004501999999MD1210081+9999MW1021
0057029720999991960031503004+60517+022267FM-12+005499999V0200901N00511007801CN0100001N9-00221-00501101551ADDAY121999GF108991081051008001999999MD1210061+9999MW1021
0057029720999991960031509004+60517+022267FM-12+005499999V0200901N00511004501CN0150001N9-00281-00611101771ADDAY121999GF108991071051004501071999MD1210101+9999MW1031
0057029720999991960031512004+60517+022267FM-12+005499999V0200901N00511002401CN0200001N9-00221-00721101811ADDAY121999GF108991071051002501071999MD1210041+9999MW1021
0057029720999991960031515004+60517+022267FM-12+005499999V0200401N00621002401CN0150001N9-00221-00501101911ADDAY121999GF108991081061002501999999MD1210101+9999MW1021
0070029720999991960031518004+60517+022267FM-12+005499999V0200401N00621004501CN0150001N9-00221-00611102011ADDAY121999GF108991081051004501999999KA1999M-00221MD1210101+9999MW1021
0057029720999991960031521004+60517+022267FM-12+005499999V0200701N00621007801CN0200001N9-00281-00721102101ADDAY121999GF108991081051008001999999MD1210081+9999MW1021
0057029720999991960031603004+60517+022267FM-12+005499999V0200901N00621004501CN0150001N9-00391-00611102191ADDAY121999GF108991081051004501999999MD1210051+9999MW1701
0081029720999991960031606004+60517+022267FM-12+005499999V0200901N00621002401CN0100001N9-00391-00611102281ADDAA199000691AY171999GF108991081061002501999999KA1999N-00501MD1210081+9999MW1711
0057029720999991960031609004+60517+022267FM-12+005499999V0200901N00621002401CN0080001N9-00281-00501102411ADDAY171999GF108991081061002501999999MD1210131+9999MW1711
0057029720999991960031612004+60517+022267FM-12+005499999V0200901N00621004501CN0150001N9-00221-00611102541ADDAY171999GF108991081051004501999999MD1210131+9999MW1021
0057029720999991960031615004+60517+022267FM-12+005499999V0200901N00621030001CN0150001N9-00281-00721102591ADDAY121999GF107991031051004501041999MD1210051+9999MW1011
0081029720999991960031618004+60517+022267FM-12+005499999V0200901N00411220001CN0100001N9-00611-01001102721ADDAA199000691AY101999GF102991001001999999001011KA1999M-00221MD1210131+9999MW1021
0057029720999991960031621004+60517+022267FM-12+005499999V0200601N00311220001CN0100001N9-00891-01111102761ADDAY101999GF106991001001999999001051MD1210041+9999MW1031
0057029720999991960031700004+60517+022267FM-12+005499999V0200601N00511004501CN0100001N9-00611-00781102741ADDAY121999GF108991081061004501999999MD1710021+9999MW1031
0070029720999991960031706004+60517+022267FM-12+005499999V0200401N00511004501CN0150001N9-00611-00781102651ADDAY121999GF108991081061004501999999KA1999N-01001MD1710011+9999MW1021
0057029720999991960031712004+60517+022267FM-12+005499999V0200901N00621004501CN0150001N9-00281-00611102551ADDAY121999GF108991081061004501999999MD1710051+9999MW1021
0081029720999991960031718004+60517+022267FM-12+005499999V0200901N00621002401CN0020001N9-00501-00611102491ADDAA199000591AY171999GF108991081061002501999999KA1999M-00281MD1710021+9999MW1731
0057029720999991960031721004+60517+022267FM-12+005499999V0200401N00211002401CN0020001N9-00611-00611102431ADDAY171999GF108991081061002501999999MD1710061+9999MW1731
0057029720999991960031800004+60517+022267FM-12+005499999V0200401N00211007801CN0100001N9-00611-00721102381ADDAY121999GF108991081051008001999999MD1710051+9999MW1021
0057029720999991960031803004+60517+022267FM-12+005499999V0203601N00211030001CN0100001N9-00721-00781102351ADDAY121999GF106991021051008001071999MD1710031+9999MW1011
0081029720999991960031806004+60517+022267FM-12+005499999V0200401N00511024001CN0150001N9-00721-00781102311ADDAA199002091AY121999GF106991061001999999071001KA1999N-00721MD1710041+9999MW1021
0057029720999991960031809004+60517+022267FM-12+005499999V0200401N00411024001CN0150001N9-00391-00611102381ADDAY121999GF108991081001999999071999MD1210071+9999MW1031
0057029720999991960031812004+60517+022267FM-12+005499999V0203601N00511220001CN0200001N9-00111-00501102481ADDAY121999GF104991041001999999071001MD1210121+9999MW1011
0057029720999991960031815004+60517+022267FM-12+005499999V0200201N00621024001CN0300001N9+00001-00501102581ADDAY111999GF106991061001999999071001MD1210101+9999MW1031
0057029720999991960031821004+60517+022267FM-12+005499999V0203601N00311220001CN0200001N9-00501-00721103031ADDAY101999GF100991001001999999001001MD1210171+9999MW1011
0057029720999991960031900004+60517+022267FM-12+005499999V0200401N00311220001CN0150001N9-00781-00891103271ADDAY101999GF100991001001999999001001MD1210241+9999MW1111
0057029720999991960031903004+60517+022267FM-12+005499999V0200401N00211220001CN0200001N9-00781-00891103431ADDAY111999GF103991031001999999041001MD1210161+9999MW1031
0070029720999991960031906004+60517+022267FM-12+005499999V0200401N00311220001CN0100001N9-01001-01111103641ADDAY101999GF100991001001999999001001KA1999N-01111MD1210201+9999MW1011
0057029720999991960031909004+60517+022267FM-12+005499999V0200401N00311220001CN0200001N9-00281-00611103811ADDAY101999GF100991001001999999001001MD1210191+9999MW1021
0057029720999991960031912004+60517+022267FM-12+005499999V0200201N00311220001CN0400001N9+00281-00391103951ADDAY101999GF100991001001999999001001MD1210141+9999MW1021
0057029720999991960031915004+60517+022267FM-12+005499999V0200401N00311220001CN0400001N9+00391-00391104001ADDAY101999GF100991001001999999001001MD1210051+9999MW1021
0070029720999991960031918004+60517+022267FM-12+005499999V0209991C00001220001CN0200001N9+00001-00281104121ADDAY101999GF100991001001999999001001KA1999M+00501MD1210121+9999MW1021
0057029720999991960031921004+60517+022267FM-12+005499999V0203201N00101220001CN0200001N9-00391-00611104201ADDAY101999GF100991001001999999001001MD1210071+9999MW1021
0057029720999991960032000004+60517+022267FM-12+005499999V0203601N00101220001CN0200001N9-00781-00891104291ADDAY101999GF100991001001999999001001MD1210071+9999MW1021
0057029720999991960032003004+60517+022267FM-12+005499999V0200401N00101220001CN0150001N9-01111-01221104311ADDAY101999GF100991001001999999001001MD1210011+9999MW1021
0070029720999991960032006004+60517+022267FM-12+005499999V0202701N00101220001CN0007001N9-00891-01001104411ADDAY101999GF101991001001999999001051KA1999N-01111MD1210101+9999MW1461
0057029720999991960032009004+60517+022267FM-12+005499999V0202701N00101220001CN0200001N9+00221-00391104451ADDAY101999GF100991001001999999001001MD1210041+9999MW1021
0057029720999991960032012004+60517+022267FM-12+005499999V0202301N00101220001CN0300001N9+00391-00501104421ADDAY101999GF100991001001999999001001MD1710031+9999MW1021
0070029720999991960032018004+60517+022267FM-12+005499999V0202301N00211220001CN0300001N9-00111-00501104301ADDAY101999GF101991001001999999001011KA1999M+00611MD1710061+9999MW1021
0057029720999991960032021004+60517+022267FM-12+005499999V0202301N00101220001CN0200001N9-00391-00611104291ADDAY101999GF100991001001999999001001MD1710021+9999MW1021
0057029720999991960032100004+60517+022267FM-12+005499999V0209991C00001220001CN0150001N9-00611-00611104271ADDAY101999GF100991001001999999001001MD1710021+9999MW1021
0057029720999991960032103004+60517+022267FM-12+005499999V0209991C00001220001CN0150001N9-00721-00781104181ADDAY101999GF100991001001999999001001MD1710091+9999MW1021
0070029720999991960032106004+60517+022267FM-12+005499999V0202301N00101220001CN0150001N9-00781-00891104161ADDAY101999GF101991001001999999001011KA1999N-00891MD1710031+9999MW1031
0057029720999991960032109004+60517+022267FM-12+005499999V0202301N00211220001CN0300001N9+00001-00721104151ADDAY101999GF100991001001999999001001MD1210011+9999MW1011
0057029720999991960032112004+60517+022267FM-12+005499999V0202301N00411220001CN0300001N9+00391-00721103981ADDAY101999GF100991001001999999001001MD1810171+9999MW1021
0057029720999991960032115004+60517+022267FM-12+005499999V0202301N00411220001CN0300001N9+00281-00501103861ADDAY101999GF100991001001999999001001MD1710121+9999MW1021
0057029720999991960032121004+60517+022267FM-12+005499999V0202301N00211220001CN0150001N9-00391-00501103621ADDAY101999GF100991001001999999001001MD1710111+9999MW1021
0057029720999991960032200004+60517+022267FM-12+005499999V0202001N00311220001CN0150001N9-00611-00721103551ADDAY101999GF100991001001999999001001MD1710071+9999MW1021
0057029720999991960032203004+60517+022267FM-12+005499999V0202301N00311220001CN0150001N9-00501-00721103401ADDAY101999GF100991001001999999001001MD1710151+9999MW1021
0070029720999991960032206004+60517+022267FM-12+005499999V0202301N00411220001CN0200001N9-00391-00721103251ADDAY101999GF100991001001999999001001KA1999N-00721MD1710151+9999MW1011
0057029720999991960032209004+60517+022267FM-12+005499999V0202301N00511220001CN0300001N9+00111-00391103131ADDAY101999GF100991001001999999001001MD1710121+9999MW1021
0057029720999991960032212004+60517+022267FM-12+005499999V0202201N00721220001CN0300001N9+00281-00391102951ADDAY101999GF101991001001999999001011MD1710181+9999MW1031
0057029720999991960032215004+60517+022267FM-12+005499999V0202301N00511220001CN0300001N9+00281-00281102821ADDAY121999GF104991001001999999001011MD1710121+9999MW1031
0070029720999991960032218004+60517+022267FM-12+005499999V0202701N00311024001CN0300001N9+00111-00221102831ADDAY121999GF108991081001999999071999KA1999M+00391MD1410001+9999MW1031
0057029720999991960032221004+60517+022267FM-12+005499999V0202301N00211220001CN0300001N9-00221-00281102841ADDAY121999GF103991031001999999071001MD1410001+9999MW1011
0057029720999991960032300004+60517+022267FM-12+005499999V0202301N00211220001CN0300001N9-00281-00281102841ADDAY101999GF100991001001999999001001MD1410001+9999MW1011
0057029720999991960032303004+60517+022267FM-12+005499999V0202701N00101024001CN0200001N9-00221-00221102901ADDAY121999GF108991081001999999071999MD1210061+9999MW1031
