0057029720999991963010100004+60517+022267FM-12+005499999V0209991C00001007801CN0100001N9-00781-00891102221ADDAY171999GF108991081051008001999999MD1710111+9999MW1021
0057029720999991963010103004+60517+022267FM-12+005499999V0202401N003119999999N0100001N9-00391-00501102131ADDAY121999GF108991031061002501999999MD1710081+9999MW1021
0081029720999991963010106004+60517+022267FM-12+005499999V0202701N00311001501CN0100001N9-00281-00391102001ADDAA199000591AY171999GF108991051061001501999999KA1999N-01221MD1710111+9999MW1021
0057029720999991963010109004+60517+022267FM-12+005499999V0200201N00311220001CN0200001N9-00281-00501102231ADDAY171999GF103991021051004501041001MD1210211+9999MW1011
0057029720999991963010112004+60517+022267FM-12+005499999V0200101N00311220001CN0300001N9-00611-00721102451ADDAY101999GF101991001001999999001011MD1210201+9999MW1011
0057029720999991963010115004+60517+022267FM-12+005499999V0203401N00211220001CN0200001N9-00891-01001102581ADDAY101999GF101991001001999999001011MD1210141+9999MW1021
0081029720999991963010118004+60517+022267FM-12+005499999V0202501N00101220001CN0200001N9-01221-01391102551ADDAA199000391AY101999GF101991011001999999041011KA1999M-00221MD1710041+9999MW1021
0057029720999991963010121004+60517+022267FM-12+005499999V0202301N00211220001CN0200001N9-01111-01111102441ADDAY171999GF102991021001999999041001MD1710111+9999MW1021
0057029720999991963010200004+60517+022267FM-12+005499999V0202401N00311220001CN0300001N9-00891-01001102271ADDAY101999GF100991001001999999001001MD1710061+9999MW1011
0057029720999991963010203004+60517+022267FM-12+005499999V0202701N00211004501CN0200001N9-00391-00391102141ADDAY111999GF108991081051004501999999MD1710111+9999MW1031
0081029720999991963010206004+60517+022267FM-12+005499999V0202501N00211004501CN0200001N9-00221-00281101941ADDAA199000691AY121999GF108991081051004501999999KA1999N-01281MD1710171+9999MW1021
0057029720999991963010209004+60517+022267FM-12+005499999V0202501N00311004501CN0300001N9-00111-00221101831ADDAY121999GF108991081051004501999999MD1710131+9999MW1021
0057029720999991963010212004+60517+022267FM-12+005499999V0202701N00511220001CN0300001N9-00111-00221101561ADDAY121999GF103991021051004501041001MD1710271+9999MW1011
0057029720999991963010215004+60517+022267FM-12+005499999V0202701N00621030001CN0300001N9-00221-00281101311ADDAY121999GF107991041051004501071999MD1710251+9999MW1031
0070029720999991963010218004+60517+022267FM-12+005499999V0203001N00621220001CN0300001N9-00111-00281101271ADDAY121999GF104991041051004501001001KA1999M-00111MD1710041+9999MW1011
0057029720999991963010221004+60517+022267FM-12+005499999V0203001N00721220001CN0300001N9-00391-00501101481ADDAY101999GF102991021051004501001001MD1210201+9999MW1011
0070029720999991963010306004+60517+022267FM-12+005499999V0203201N00311220001CN0300001N9-00891-01111102111ADDAY101999GF100991001001999999001001KA1999N-00891MD1210191+9999MW1021
0057029720999991963010309004+60517+022267FM-12+005499999V0203201N00311220001CN0400001N9-01001-01221102311ADDAY101999GF101991011051004501001011MD1210191+9999MW1021
0057029720999991963010312004+60517+022267FM-12+005499999V0202801N00211220001CN0400001N9-00721-01111102441ADDAY101999GF101991011051004501001011MD1210131+9999MW1021
0057029720999991963010315004+60517+022267FM-12+005499999V0202701N00211220001CN0250001N9-01221-01281102541ADDAY101999GF101991011051004501001011MD1210091+9999MW1021
0070029720999991963010318004+60517+022267FM-12+005499999V0202601N00101220001CN0200001N9-01391-01501102571ADDAY101999GF101991001001999999001011KA1999M-00721MD1210031+9999MW1011
0057029720999991963010321004+60517+022267FM-12+005499999V0201801N00311220001CN0100001N9-01611-01781102561ADDAY101999GF101991001001999999001011MD1810021+9999MW1011
0057029720999991963010400004+60517+022267FM-12+005499999V0201801N00211220001CN0200001N9-01111-01221102461ADDAY101999GF100991001001999999001001MD1710091+9999MW1011
0070029720999991963010406004+60517+022267FM-12+005499999V0202001N00311030001CN0200001N9-00611-00781102101ADDAY121999GF108991041061004501071999KA1999N-01891MD1810181+9999MW1031
0057029720999991963010409004+60517+022267FM-12+005499999V0202101N00511012301CN0200001N9-00281-00501102041ADDAY121999GF108991081061012501999999MD1710071+9999MW1021
0057029720999991963010412004+60517+022267FM-12+005499999V0202201N00411007801CN0300001N9-00281-00721101901ADDAY121999GF107991061051008001001071MD1710121+9999MW1031
0057029720999991963010415004+60517+022267FM-12+005499999V0202001N00411075001CN0100001N9-00391-00721101741ADDAY121999GF108991021051008001001071MD1710171+9999MW1021
0070029720999991963010418004+60517+022267FM-12+005499999V0201401N00411220001CN0200001N9-00721-01001101521ADDAY111999GF108991001001999999001071KA1999M-00221MD1710231+9999MW1031
0057029720999991963010421004+60517+022267FM-12+005499999V0201401N00211004501CN0200001N9-00781-00891101301ADDAY121999GF107991051061004501071999MD1710221+9999MW1011
0057029720999991963010500004+60517+022267FM-12+005499999V0201201N00311004501CN0200001N9-00721-00721101001ADDAY121999GF108991081051004501999999MD1710291+9999MW1031
0057029720999991963010503004+60517+022267FM-12+005499999V0200901N00311002401CN0150001N9-00611-00721100741ADDAY121999GF108991081061002501999999MD1710261+9999MW1701
0081029720999991963010506004+60517+022267FM-12+005499999V0200801N00411001501CN0100001N9-00721-00721100451ADDAA199000591AY171999GF108991081061001501999999KA1999N-00781MD1710291+9999MW1711
0057029720999991963010509004+60517+022267FM-12+005499999V0200901N00411001501CN0050001N9-00611-00721100371ADDAY171999GF108991081061001501999999MD1710081+9999MW1561
0057029720999991963010512004+60517+022267FM-12+005499999V0201201N00411004501CN0080001N9-00611-00721100161ADDAY171999GF108991081061004501999999MD1710211+9999MW1771
0057029720999991963010515004+60517+022267FM-12+005499999V0201101N00311002401CN0050001N9-00611-00721100101ADDAY171999GF108991081061002501999999MD1710061+9999MW1731
0081029720999991963010518004+60517+022267FM-12+005499999V0200901N00311004501CN0080001N9-00611-00721099981ADDAA199002091AY171999GF108991081061004501999999KA1999M-00501MD1710111+9999MW1711
0057029720999991963010521004+60517+022267FM-12+005499999V0200701N00411004501CN0040001N9-00501-00611099861ADDAY171999GF108991081051004501999999MD1710121+9999MW1731
0057029720999991963010600004+60517+022267FM-12+005499999V0200601N00511004501CN0100001N9-00501-00611099771ADDAY171999GF108991081061004501999999MD1710091+9999MW1711
0057029720999991963010603004+60517+022267FM-12+005499999V0200401N00311004501CN0030001N9-00501-00611099721ADDAY171999GF108991081061004501999999MD1710051+9999MW1731
0081029720999991963010606004+60517+022267FM-12+005499999V0200401N00411002401CN0020001N9-00721-00781099701ADDAA199004091AY171999GF108991081061002501999999KA1999N-00721MD1710021+9999MW1731
0057029720999991963010609004+60517+022267FM-12+005499999V0200201N00411000151CN0009001N9-00721-00781099731ADDAY171999GF109991091999000251999999MD1210031+9999MW1751
0057029720999991963010612004+60517+022267FM-12+005499999V0203601N00511000151CN0009001N9-00781-00781099711ADDAY171999GF109991091999000251999999MD1810021+9999MW1751
0057029720999991963010615004+60517+022267FM-12+005499999V0203601N00721000151CN0015001N9-00781-00891099881ADDAY171999GF109991091999000251999999MD1310171+9999MW1751
0081029720999991963010618004+60517+022267FM-12+005499999V0203401N00721220001CN0150001N9-01001-01221100041ADDAA199003091AY101999GF100991001001999999001001KA1999M-00721MD1210141+9999MW1021
0057029720999991963010621004+60517+022267FM-12+005499999V0203201N00511220001CN0150001N9-01111-01221100291ADDAY111999GF100991001001999999001001MD1210231+9999MW1011
0057029720999991963010700004+60517+022267FM-12+005499999V0203001N00411220001CN0200001N9-01281-01501100401ADDAY101999GF100991001001999999001001MD1210101+9999MW1021
0057029720999991963010703004+60517+022267FM-12+005499999V0202701N00311007801CN0100001N9-01221-01281100501ADDAY171999GF105991051051008001001001MD1210111+9999MW1701
0081029720999991963010706004+60517+022267FM-12+005499999V0202801N00211220001CN0100001N9-00891-01111100561ADDAA199000591AY171999GF103991031051008001001001KA1999N-01391MD1210061+9999MW1711
0057029720999991963010709004+60517+022267FM-12+005499999V0202701N00311220001CN0300001N9-01001-01111100711ADDAY101999GF101991011051008001001001MD1210151+9999MW1011
0057029720999991963010712004+60517+022267FM-12+005499999V0202401N00211004501CN0300001N9-00501-00721100721ADDAY121999GF107991071051004501001001MD1110011+9999MW1031
0057029720999991963010715004+60517+022267FM-12+005499999V0202601N00211220001CN0300001N9-00611-00781100861ADDAY111999GF101991011001999999011001MD1210141+9999MW1011
0070029720999991963010718004+60517+022267FM-12+005499999V0202501N00411220001CN0300001N9-00781-00781101001ADDAY171999GF102991011051008001041001KA1999M-00391MD1210141+9999MW1011
0057029720999991963010721004+60517+022267FM-12+005499999V0202301N00311220001CN0200001N9-01111-01281101151ADDAY101999GF103991031051008001001001MD1210141+9999MW1001
0057029720999991963010800004+60517+022267FM-12+005499999V0202301N00311220001CN0300001N9-00891-01001101181ADDAY101999GF102991021021008001001001MD1210031+9999MW1011
0057029720999991963010803004+60517+022267FM-12+005499999V0202301N00411220001CN0300001N9-01001-01221101211ADDAY111999GF103991031051008001001001MD1210031+9999MW1031
0070029720999991963010806004+60517+022267FM-12+005499999V0202301N00411220001CN0300001N9-00891-01001101241ADDAY111999GF104991041051008001001001KA1999N-01221MD1210031+9999MW1021
0057029720999991963010809004+60517+022267FM-12+005499999V0202401N00211220001CN0300001N9-00891-01111101291ADDAY101999GF102991021051008001001001MD1210051+9999MW1021
0057029720999991963010812004+60517+022267FM-12+005499999V0202301N00511220001CN0500001N9-00611-00781101241ADDAY101999GF102991011051008001001051MD1710041+9999MW1021
0057029720999991963010815004+60517+022267FM-12+005499999V0202401N00511220001CN0400001N9-00781-01001101161ADDAY101999GF103991011051008001041051MD1710081+9999MW1021
0070029720999991963010818004+60517+022267FM-12+005499999V0202401N00721220001CN0300001N9-00721-00891101021ADDAY111999GF102991021051008001001001KA1999M-00611MD1710141+9999MW1011
0057029720999991963010821004+60517+022267FM-12+005499999V0202501N00311220001CN0300001N9-00781-00891101111ADDAY111999GF101991011051008001001001MD1210081+9999MW1011
0057029720999991963010900004+60517+022267FM-12+005499999V0202501N00211004501CN0300001N9-00721-00721101121ADDAY111999GF107991071051004501999999MD1210021+9999MW1031
0057029720999991963010903004+60517+022267FM-12+005499999V0202201N00211220001CN0300001N9-00721-00891101431ADDAY171999GF104991041051004501001001MD1210301+9999MW1011
0081029720999991963010906004+60517+022267FM-12+005499999V0203201N00211220001CN0300001N9-01111-01281101651ADDAA199000391AY101999GF102991021051004501001001KA1999N-01221MD1210221+9999MW1021
0057029720999991963010909004+60517+022267FM-12+005499999V0203601N00211220001CN0300001N9-01221-01281101911ADDAY101999GF102991011001999999041051MD1210261+9999MW1021
0057029720999991963010912004+60517+022267FM-12+005499999V0203201N00211220001CN0300001N9-01221-01281102061ADDAY101999GF103991011051008001041011MD1210131+9999MW1031
0057029720999991963010915004+60517+022267FM-12+005499999V0200201N00211220001CN0250001N9-01501-01721102201ADDAY121999GF104991011001999999041011MD1210131+9999MW1021
0070029720999991963010918004+60517+022267FM-12+005499999V0200601N00211220001CN0300001N9-01721-01891102311ADDAY121999GF106991001001999999001061KA1999M-01111MD1210111+9999MW1031
0057029720999991963010921004+60517+022267FM-12+005499999V0209991C00001220001CN0300001N9-02001-02221102451ADDAY121999GF107991001001999999001071MD1210131+9999MW1031
0057029720999991963011000004+60517+022267FM-12+005499999V0200401N00101220001CN0300001N9-02111-02281102521ADDAY121999GF107991001001999999001071MD1210071+9999MW1021
0057029720999991963011003004+60517+022267FM-12+005499999V0200901N00101220001CN0300001N9-02111-02281102521ADDAY121999GF105991001001999999001081MD1410001+9999MW1011
0070029720999991963011006004+60517+022267FM-12+005499999V0201201N00211220001CN0300001N9-02221-02391102491ADDAY101999GF103991011001999999041051KA1999N-02501MD1510031+9999MW1021
0057029720999991963011009004+60517+022267FM-12+005499999V0201201N00211220001CN0200001N9-02221-02391102541ADDAY121999GF105991041001999999041011MD1210051+9999MW1021
0057029720999991963011012004+60517+022267FM-12+005499999V0201201N00211030001CN0080001N9-01721-01891102411ADDAY121999GF106991031071001501041001MD1210121+9999MW1021
0057029720999991963011015004+60517+022267FM-12+005499999V0201201N00211007801CN0100001N9-01501-01721102361ADDAY121999GF108991061051008001021999MD1710041+9999MW1701
0081029720999991963011018004+60517+022267FM-12+005499999V0201201N00101007801CN0100001N9-01501-01501102351ADDAA199000591AY171999GF108991081051008001999999KA1999M-01221MD1410001+9999MW1711
0057029720999991963011021004+60517+022267FM-12+005499999V0201201N00211007801CN0060001N9-01221-01391102371ADDAY171999GF107991051051008001041999MD1210021+9999MW1731
0057029720999991963011100004+60517+022267FM-12+005499999V0209991C00001030001CN0150001N9-01111-01281102391ADDAY171999GF106991031051004501031001MD1210021+9999MW1711
0057029720999991963011103004+60517+022267FM-12+005499999V0201001N00211004501CN0150001N9-01111-01221102391ADDAY171999GF108991061061004501071001MD1410001+9999MW1711
0081029720999991963011106004+60517+022267FM-12+005499999V0201101N00211007801CN0100001N9-01001-01111102401ADDAA199002091AY171999GF107991061051008001071001KA1999N-01391MD1210021+9999MW1711
0057029720999991963011109004+60517+022267FM-12+005499999V0201201N00211220001CN0300001N9-01111-01221102541ADDAY171999GF103991031001999999041001MD1210141+9999MW1781
0057029720999991963011112004+60517+022267FM-12+005499999V0201201N00211075001CN0300001N9-01111-01221102561ADDAY171999GF106991041001999999041021MD1210021+9999MW1031
0057029720999991963011115004+60517+022267FM-12+005499999V0201201N00211220001CN0300001N9-01391-01501102561ADDAY111999GF102991021001999999041001MD1710011+9999MW1011
0081029720999991963011118004+60517+022267FM-12+005499999V0201001N00211024001CN0300001N9-01501-01721102591ADDAA199000391AY111999GF107991071001999999071999KA1999M-01001MD1710021+9999MW1031
0057029720999991963011121004+60517+022267FM-12+005499999V0201301N00211004501CN0200001N9-01221-01391102561ADDAY171999GF107991051051004501071999MD1710031+9999MW1781
0057029720999991963011200004+60517+022267FM-12+005499999V0201801N00311030001CN0200001N9-01001-01111102441ADDAY171999GF107991031051004501071999MD1710111+9999MW1221
0057029720999991963011203004+60517+022267FM-12+005499999V0201801N00211030001CN0200001N9-00891-01001102321ADDAY171999GF108991041051004501071999MD1710121+9999MW1221
0081029720999991963011206004+60517+022267FM-12+005499999V0202001N00211004501CN0080001N9-00891-01001102081ADDAA199000391AY171999GF107991061051004501071999KA1999N-01611MD1710231+9999MW1711
0057029720999991963011209004+60517+022267FM-12+005499999V0202101N00211030001CN0100001N9-01001-01111101931ADDAY171999GF106991011051004501041021MD1710151+9999MW1011
0057029720999991963011212004+60517+022267FM-12+005499999V0202201N00411001501CN0150001N9-01001-01111101701ADDAY121999GF107991061061001501001061MD1710231+9999MW1031
0057029720999991963011215004+60517+022267FM-12+005499999V0202101N00411002401CN0015001N9-00721-00891101401ADDAY171999GF108991081061002501999999MD1710301+9999MW1731
0081029720999991963011218004+60517+022267FM-12+005499999V0203001N00211220001CN0150001N9-00781-00891101311ADDAA199001091AY171999GF101991011051008001001001KA1999M-00611MD1710091+9999MW1021
0057029720999991963011221004+60517+022267FM-12+005499999V0203101N00211220001CN0150001N9-01111-01221101361ADDAY101999GF100991001001999999001001MD1210041+9999MW1021
0057029720999991963011300004+60517+022267FM-12+005499999V0203401N00311220001CN0200001N9-01111-01281101371ADDAY101999GF100991001001999999001001MD1210011+9999MW1021
0057029720999991963011303004+60517+022267FM-12+005499999V0203501N00151220001CN0200001N9-01391-01501101331ADDAY101999GF100991001001999999001001MD1710051+9999MW1021
0070029720999991963011306004+60517+022267FM-12+005499999V0209991C00001220001CN0200001N9-01721-01891101151ADDAY101999GF101991011051008001041001KA1999N-01891MD1710191+9999MW1031
0057029720999991963011309004+60517+022267FM-12+005499999V0201801N00101030001CN0200001N9-01391-01611100921ADDAY171999GF106991031051004501041021MD1710211+9999MW1031
0057029720999991963011312004+60517+022267FM-12+005499999V0201501N00311030001CN0150001N9-01001-01111100391ADDAY121999GF108991041051004501041999MD1710531+9999MW1711
0081029720999991963011318004+60517+022267FM-12+005499999V0202101N00511004501CN0100001N9-00281-00391099381ADDAA199002091AY171999GF108991081051004501999999KA1999M-00281MD1710301+9999MW1711
0057029720999991963011321004+60517+022267FM-12+005499999V0202001N00311030001CN0100001N9-00501-00611099261ADDAY171999GF108991031051004501021999MD1710121+9999MW1711
0057029720999991963011400004+60517+022267FM-12+005499999V0203201N00211002401CN0100001N9-00501-00611099221ADDAY171999GF108991061061002501021999MD1710041+9999MW1711
0057029720999991963011403004+60517+022267FM-12+005499999V0203501N00311002401CN0060001N9-00611-00611099191ADDAY171999GF108991061061002501021999MD1710041+9999MW1731
0081029720999991963011406004+60517+022267FM-12+005499999V0203601N00721002401CN0080001N9-00721-00781099241ADDAA199000591AY171999GF108991051061002501021999KA1999N-00721MD1310051+9999MW1711
0057029720999991963011409004+60517+022267FM-12+005499999V0200401N00931002401CN0010001N9-01001-01221099501ADDAY171999GF108991071061002501021999MD1210261+9999MW1731
0057029720999991963011412004+60517+022267FM-12+005499999V0200401N00821004501CN0012001N9-01111-01281099691ADDAY171999GF108991061061004501021999MD1210201+9999MW1731
0057029720999991963011415004+60517+022267FM-12+005499999V0200401N00931030001CN0015001N9-01111-01281100041ADDAY131999GF108991041061004501021999MD1210341+9999MW1731
0081029720999991963011418004+60517+022267FM-12+005499999V0200401N00821002401CN0015001N9-01281-01501100391ADDAA199001091AY171999GF108991081061002501999999KA1999M-00721MD1210351+9999MW1731
0057029720999991963011421004+60517+022267FM-12+005499999V0200301N00721002401CN0015001N9-01281-01501100691ADDAY171999GF108991081061002501999999MD1210291+9999MW1731
0057029720999991963011500004+60517+022267FM-12+005499999V0200301N00721002401CN0080001N9-01391-01611100921ADDAY171999GF108991051061002501071041MD1210251+9999MW1711
0057029720999991963011503004+60517+022267FM-12+005499999V0200601N00621002401CN0040001N9-01391-01611101121ADDAY171999GF108991081061002501999999MD1210201+9999MW1731
0081029720999991963011506004+60517+022267FM-12+005499999V0200601N00511002401CN0100001N9-01281-01501101311ADDAA199001091AY171999GF108991051061002501071999KA1999N-01501MD1210191+9999MW1711
0057029720999991963011509004+60517+022267FM-12+005499999V0200601N00511030001CN0200001N9-01221-01391101701ADDAY171999GF107991031061002501011999MD1210391+9999MW1021
0057029720999991963011512004+60517+022267FM-12+005499999V0200601N00721075001CN0200001N9-01221-01391101961ADDAY171999GF107991041001999999041071MD1210241+9999MW1021
0057029720999991963011515004+60517+022267FM-12+005499999V0200601N00621075001CN0200001N9-01281-01501102231ADDAY121999GF106991021001999999041071MD1210261+9999MW1021
0081029720999991963011518004+60517+022267FM-12+005499999V0200601N00411220001CN0200001N9-01611-01781102551ADDAA199000691AY111999GF103991011001999999041011KA1999M-01111MD1210311+9999MW1011
0057029720999991963011521004+60517+022267FM-12+005499999V0200601N00511220001CN0300001N9-01721-01781102721ADDAY101999GF100991001001999999001001MD1210171+9999MW1011
0057029720999991963011600004+60517+022267FM-12+005499999V0200401N00511220001CN0300001N9-01781-02001102871ADDAY101999GF100991001001999999001001MD1210151+9999MW1011
0057029720999991963011603004+60517+022267FM-12+005499999V0200401N00511220001CN0300001N9-01891-02111102981ADDAY101999GF100991001001999999001001MD1210101+9999MW1021
0070029720999991963011606004+60517+022267FM-12+005499999V0200201N00411220001CN0300001N9-02111-02281103071ADDAY101999GF100991001001999999001001KA1999N-02111MD1210091+9999MW1021
0057029720999991963011609004+60517+022267FM-12+005499999V0200301N00621220001CN0300001N9-02001-02221103251ADDAY111999GF100991001001999999001001MD1210091+9999MW1011
0057029720999991963011612004+60517+022267FM-12+005499999V0200301N00621220001CN0400001N9-01781-02001103261ADDAY101999GF101991011001999999041001MD1110021+9999MW1021
0057029720999991963011615004+60517+022267FM-12+005499999V0203601N00411075001CN0200001N9-01781-02001103291ADDAY121999GF106991021001999999041051MD1310031+9999MW1021
0070029720999991963011618004+60517+022267FM-12+005499999V0203601N00411075001CN0200001N9-01611-02001103221ADDAY111999GF105991031001999999031051KA1999M-01501MD1710071+9999MW1021
0057029720999991963011621004+60517+022267FM-12+005499999V0203601N00511220001CN0200001N9-01391-01891103191ADDAY111999GF104991021001999999031051MD1710031+9999MW1021
0057029720999991963011700004+60517+022267FM-12+005499999V0203601N00721220001CN0250001N9-01221-01781103121ADDAY121999GF106991031001999999041061MD1710071+9999MW1021
0043029720999991963011703004+60517+022267FM-12+005499999V0203601N00311015001CN0250001N9-01391-01781103061ADDAY121999GF106991061081017501001061MW1011
0070029720999991963011706004+60517+022267FM-12+005499999V0203601N00311220001CN0250001N9-01611-01781102881ADDAY121999GF104991041001999999031001KA1999N-01611MD1710181+9999MW1031
0057029720999991963011709004+60517+022267FM-12+005499999V0200501N00311220001CN0300001N9-01721-01891103001ADDAY111999GF103991021001999999041011MD1210121+9999MW1011
0057029720999991963011712004+60517+022267FM-12+005499999V0200701N00311220001CN0400001N9-01501-01781103071ADDAY101999GF101991001001999999001011MD1210071+9999MW1011
0057029720999991963011715004+60517+022267FM-12+005499999V0200601N00411220001CN0400001N9-01781-02111103321ADDAY101999GF101991001001999999001011MD1210241+9999MW1021
0070029720999991963011718004+60517+022267FM-12+005499999V0200901N00411220001CN0300001N9-01891-02221103541ADDAY101999GF101991001001999999001011KA1999M-01501MD1210221+9999MW1021
0057029720999991963011721004+60517+022267FM-12+005499999V0200701N00311220001CN0300001N9-02111-02281103791ADDAY101999GF103991031051008001001001MD1210241+9999MW1761
0057029720999991963011800004+60517+022267FM-12+005499999V0201101N00211004501CN0300001N9-01891-02111103881ADDAY171999GF108991081061004501999999MD1210101+9999MW1711
0057029720999991963011803004+60517+022267FM-12+005499999V0201401N00101004501CN0200001N9-01721-01891103911ADDAY171999GF108991081999004501999999MD1210031+9999MW1711
0081029720999991963011806004+60517+022267FM-12+005499999V0201901N00211004501CN0150001N9-01391-01611103821ADDAA199000391AY171999GF108991051061004501021999KA1999N-02281MD1710081+9999MW1711
0057029720999991963011809004+60517+022267FM-12+005499999V0201901N00311004501CN0080001N9-01221-01281103651ADDAY171999GF108991071061004501071999MD1710161+9999MW1711
0057029720999991963011812004+60517+022267FM-12+005499999V0202501N00721024001CN0100001N9-00781-01001103411ADDAY171999GF107991051001999999071061MD1710231+9999MW1711
0057029720999991963011815004+60517+022267FM-12+005499999V0202501N00621030001CN0100001N9-00781-01001103131ADDAY121999GF108991031051008001071999MD1710281+9999MW1031
0081029720999991963011818004+60517+022267FM-12+005499999V0202601N00621007801CN0150001N9-00721-00891102811ADDAA199000691AY171999GF108991081051008001999999KA1999M-00721MD1710321+9999MW1021
0057029720999991963011821004+60517+022267FM-12+005499999V0202401N00411002401CN0150001N9-00721-00781102501ADDAY121999GF108991081061002501999999MD1710311+9999MW1021
0057029720999991963011900004+60517+022267FM-12+005499999V0202601N00311004501CN0100001N9-00501-00611102201ADDAY121999GF108991081061004501999999MD1710291+9999MW1021
0057029720999991963011903004+60517+022267FM-12+005499999V0202901N00621004501CN0150001N9-00111-00221101951ADDAY121999GF108991081061004501999999MD1710241+9999MW1021
0070029720999991963011906004+60517+022267FM-12+005499999V0203001N00511004501CN0150001N9-00111-00111101731ADDAY121999GF107991071061004501999999KA1999N-00781MD1710211+9999MW1011
0057029720999991963011909004+60517+022267FM-12+005499999V0203401N00721004501CN0200001N9+00001-00281101801ADDAY121999GF106991061051004501041001MD1310071+9999MW1031
0057029720999991963011912004+60517+022267FM-12+005499999V0203501N00721007801CN0200001N9-00111-00611102011ADDAY121999GF107991061051008001041001MD1210211+9999MW1021
0057029720999991963011915004+60517+022267FM-12+005499999V0203501N00821220001CN0300001N9-00501-01111102521ADDAY121999GF101991011001999999041001MD1210511+9999MW1011
0070029720999991963011918004+60517+022267FM-12+005499999V0203601N00411220001CN0300001N9-00891-01501102801ADDAY101999GF100991001001999999001001KA1999M+00001MD1210271+9999MW1011
0076029720999991963011921004+60517+022267FM-12+005499999V0202901N00311220001CN0200001N9-01111-01501102641ADDAY101999GF104991999051008001001001MD1710161+9999MW1711EQDQ01+000022SCOTLC
0057029720999991963012000004+60517+022267FM-12+005499999V0203401N00411220001CN0400001N9-01001-01221102641ADDAY171999GF100991001001999999001001MD1410001+9999MW1011
0057029720999991963012003004+60517+022267FM-12+005499999V0203201N00411220001CN0400001N9-01111-01281102671ADDAY101999GF102991001001999999001011MD1210021+9999MW1031
0081029720999991963012006004+60517+022267FM-12+005499999V0203501N00621220001CN0400001N9-01001-01501102621ADDAA199000691AY101999GF101991001001999999001011KA1999N-01221MD1810041+9999MW1011
0057029720999991963012009004+60517+022267FM-12+005499999V0203601N00821220001CN0400001N9-01001-01391102631ADDAY101999GF101991011051008001001001MD1310011+9999MW1021
0057029720999991963012012004+60517+022267FM-12+005499999V0203601N00931007801CN0300001N9-00891-01501102671ADDAY121999GF107991051031008001041001MD1210041+9999MW1851
0057029720999991963012015004+60517+022267FM-12+005499999V0203601N00821004501CN0300001N9-01001-01501102751ADDAY181999GF107991071051004501999999MD1210081+9999MW1021
0081029720999991963012018004+60517+022267FM-12+005499999V0203601N00871004501CN0300001N9-01001-01281102871ADDAA199000691AY121999GF108991081051004501999999KA1999M-00891MD1210121+9999MW1031
0057029720999991963012021004+60517+022267FM-12+005499999V0203601N00721220001CN0300001N9-01111-01391102981ADDAY111999GF102991021051004501001001MD1210101+9999MW1011
0057029720999991963012100004+60517+022267FM-12+005499999V0203601N00721220001CN0300001N9-01221-01391103051ADDAY101999GF100991001001999999001001MD1210071+9999MW1011
0057029720999991963012103004+60517+022267FM-12+005499999V0203501N00511220001CN0300001N9-01281-01501103171ADDAY101999GF100991001001999999001001MD1210111+9999MW1021
0070029720999991963012106004+60517+022267FM-12+005499999V0202301N00311220001CN0300001N9-01501-01721103151ADDAY101999GF104991001001999999001011KA1999N-01501MD1810021+9999MW1021
0057029720999991963012109004+60517+022267FM-12+005499999V0203401N00311024001CN0300001N9-01281-01611103171ADDAY121999GF107991061001999999071051MD1210021+9999MW1021
0057029720999991963012112004+60517+022267FM-12+005499999V0209991C00001030001CN0200001N9-01111-01391103091ADDAY171999GF107991031051008001021999MD1710071+9999MW1701
0057029720999991963012115004+60517+022267FM-12+005499999V0202201N00311007801CN0150001N9-01001-01281102961ADDAY171999GF108991051051008001021999MD1710131+9999MW1021
0081029720999991963012118004+60517+022267FM-12+005499999V0202301N00211002401CN0100001N9-00781-01001102841ADDAA199000391AY121999GF108991081061002501999999KA1999M-00781MD1710121+9999MW1031
0057029720999991963012121004+60517+022267FM-12+005499999V0202201N00211030001CN0100001N9-00781-00891102791ADDAY121999GF108991031061002501021999MD1710051+9999MW1031
0057029720999991963012200004+60517+022267FM-12+005499999V0203201N00311030001CN0150001N9-00501-00501102701ADDAY121999GF108991031061002501071999MD1710081+9999MW1021
0057029720999991963012203004+60517+022267FM-12+005499999V0203201N00311220001CN0200001N9-00781-00891102771ADDAY111999GF102991021061002501001001MD1310061+9999MW1011
0070029720999991963012206004+60517+022267FM-12+005499999V0203301N00151220001CN0200001N9-00781-00891102801ADDAY101999GF101991001001999999001011KA1999N-01111MD1210031+9999MW1021
0057029720999991963012209004+60517+022267FM-12+005499999V0209991C00001075001CN0200001N9-00781-01001102891ADDAY121999GF107991011001999999041071MD1210091+9999MW1021
0057029720999991963012212004+60517+022267FM-12+005499999V0202301N00211001501CN0100001N9-00611-00721102761ADDAY121999GF108991071061001501021999MD1710121+9999MW1031
0057029720999991963012215004+60517+022267FM-12+005499999V0202401N00211000151CN0007001N9-00391-00391102621ADDAY141999GF109991091061000251999999MD1710141+9999MW1491
0070029720999991963012218004+60517+022267FM-12+005499999V0202701N00211030001CN0100001N9-00281-00281102421ADDAY141999GF108991041051012501071999KA1999M-00281MD1710201+9999MW1021
0057029720999991963012221004+60517+022267FM-12+005499999V0203001N00311030001CN0150001N9-00221-00281102341ADDAY121999GF107991021051012501041999MD1710081+9999MW1021
0057029720999991963012300004+60517+022267FM-12+005499999V0202901N00211220001CN0250001N9-00281-00281102221ADDAY121999GF100991001001999999001001MD1710121+9999MW1011
0057029720999991963012303004+60517+022267FM-12+005499999V0202901N00211220001CN0250001N9-00221-00281102091ADDAY101999GF102991021051012501041001MD1710131+9999MW1031
0081029720999991963012306004+60517+022267FM-12+005499999V0202701N00211030001CN0200001N9-00111-00221101791ADDAA199000691AY171999GF106991041051004501041001KA1999N-00281MD1710111+9999MW1021
0057029720999991963012309004+60517+022267FM-12+005499999V0202401N00311007801CN0300001N9-00111-00221101861ADDAY171999GF107991061051008001041001MD1710111+9999MW1021
0057029720999991963012312004+60517+022267FM-12+005499999V0202501N00411002401CN0080001N9-00111-00221101711ADDAY171999GF108991081061002501999999MD1710151+9999MW1711
0057029720999991963012315004+60517+022267FM-12+005499999V0202401N00311002401CN0200001N9-00221-00391101471ADDAY171999GF108991051061002501071999MD1710241+9999MW1021
0081029720999991963012318004+60517+022267FM-12+005499999V0202201N00511024001CN0200001N9-00391-00501101251ADDAA199000691AY121999GF107991071001999999071999KA1999M-00111MD1710231+9999MW1031
0057029720999991963012321004+60517+022267FM-12+005499999V0202201N00411024001CN0200001N9-00281-00391100981ADDAY121999GF108991081001999999071999MD1710261+9999MW1031
0057029720999991963012400004+60517+022267FM-12+005499999V0202301N00511220001CN0200001N9-00281-00391100811ADDAY171999GF104991041001999999071001MD1710171+9999MW1261
0057029720999991963012403004+60517+022267FM-12+005499999V0202501N00411024001CN0200001N9-00391-00611100741ADDAY121999GF107991071001999999071999MD1710071+9999MW1031
0081029720999991963012406004+60517+022267FM-12+005499999V0203301N00411024001CN0300001N9-00221-00501100921ADDAA199000691AY171999GF106991061001999999071001KA1999N-00501MD1210181+9999MW1011
0057029720999991963012409004+60517+022267FM-12+005499999V0203601N00871220001CN0400001N9-00391-00891101441ADDAY121999GF101991011051008001001001MD1210511+9999MW1011
0057029720999991963012412004+60517+022267FM-12+005499999V0203401N00821220001CN0500001N9-00611-01111101841ADDAY101999GF101991011051008001001001MD1210401+9999MW1021
0057029720999991963012415004+60517+022267FM-12+005499999V0203401N00411220001CN0500001N9-00781-01281102231ADDAY101999GF101991011051008001001011MD1210371+9999MW1021
0070029720999991963012418004+60517+022267FM-12+005499999V0203501N00411220001CN0400001N9-01111-01391102541ADDAY101999GF101991011051008001001001KA1999M-00221MD1210311+9999MW1021
0057029720999991963012421004+60517+022267FM-12+005499999V0200201N00211220001CN0300001N9-01281-01501102831ADDAY101999GF100991001001999999001001MD1210281+9999MW1021
0057029720999991963012500004+60517+022267FM-12+005499999V0200301N00101220001CN0200001N9-01721-01891103001ADDAY101999GF100991001001999999001001MD1210161+9999MW1021
0057029720999991963012503004+60517+022267FM-12+005499999V0202201N00101220001CN0200001N9-02111-02281103141ADDAY101999GF100991001001999999001001MD1210131+9999MW1021
0070029720999991963012506004+60517+022267FM-12+005499999V0201601N00311220001CN0250001N9-01611-01781103161ADDAY101999GF102991021001999999041001KA1999N-02281MD1210021+9999MW1031
0057029720999991963012509004+60517+022267FM-12+005499999V0201501N00311220001CN0250001N9-01391-01501103111ADDAY111999GF103991011001999999041011MD1810031+9999MW1031
0057029720999991963012512004+60517+022267FM-12+005499999V0201801N00411030001CN0300001N9-00611-00891102901ADDAY121999GF107991031051008001041001MD1710211+9999MW1031
0057029720999991963012515004+60517+022267FM-12+005499999V0201801N00621220001CN0300001N9-00391-00721102621ADDAY121999GF103991021001999999041011MD1710281+9999MW1011
0070029720999991963012518004+60517+022267FM-12+005499999V0201901N00621220001CN0300001N9-00391-00721102361ADDAY101999GF101991011001999999041001KA1999M-00281MD1710261+9999MW1011
0057029720999991963012521004+60517+022267FM-12+005499999V0202001N00821030001CN0300001N9-00221-00501102001ADDAY121999GF108991021051004501071999MD1710341+9999MW1031
0057029720999991963012600004+60517+022267FM-12+005499999V0201901N00931000151CN0010001N9-00281-00281101571ADDAY171999GF109991091999000251999999MD1710431+9999MW1751
0057029720999991963012603004+60517+022267FM-12+005499999V0201901N00721000151CN0030001N9-00281-00391101361ADDAY171999GF109991091999000251999999MD1710221+9999MW1731
0081029720999991963012606004+60517+022267FM-12+005499999V0201801N00821001501CN0035001N9-00391-00391101341ADDAA199001091AY171999GF108991081061001501999999KA1999N-00391MD1710021+9999MW1561
0057029720999991963012612004+60517+022267FM-12+005499999V0201601N00411002401CN0060001N9-00391-00611101731ADDAY151999GF108991081061002501999999MD1210211+9999MW1771
0057029720999991963012615004+60517+022267FM-12+005499999V0201301N00411001501CN0020001N9-00501-00501101991ADDAY171999GF108991081061001501999999MD1210261+9999MW1771
0081029720999991963012618004+60517+022267FM-12+005499999V0201501N00311002401CN0070001N9-00391-00501102211ADDAA199001091AY171999GF108991081061002501999999KA1999M-00391MD1210211+9999MW1021
0057029720999991963012621004+60517+022267FM-12+005499999V0201701N00411001501CN0050001N9-00281-00281102371ADDAY171999GF108991081061001501999999MD1210161+9999MW1711
0057029720999991963012700004+60517+022267FM-12+005499999V0203301N00211001501CN0100001N9-00281-00281102601ADDAY171999GF108991081061001501999999MD1210231+9999MW1021
0057029720999991963012703004+60517+022267FM-12+005499999V0203001N00101220001CN0050001N9-00501-00501102741ADDAY111999GF100991001001999999001001MD1210131+9999MW1121
0081029720999991963012706004+60517+022267FM-12+005499999V0202001N00101220001CN0007001N9-00781-00891102841ADDAA199001091AY141999GF100991001001999999001001KA1999N-00891MD1210091+9999MW1461
0057029720999991963012709004+60517+022267FM-12+005499999V0202201N00101220001CN0006001N9-01001-01001102991ADDAY141999GF100991001001999999001001MD1210151+9999MW1421
0057029720999991963012712004+60517+022267FM-12+005499999V0201701N00101000151CN0000001N9-00611-00721103011ADDAY141999GF109991091999000251999999MD1210021+9999MW1471
0057029720999991963012715004+60517+022267FM-12+005499999V0201801N00101004501CN0100001N9-00501-00501103161ADDAY141999GF108991081061004501999999MD1210161+9999MW1021
0070029720999991963012718004+60517+022267FM-12+005499999V0201201N00101007801CN0200001N9-00501-00611103401ADDAY121999GF108991081051008001999999KA1999M-00501MD1210231+9999MW1011
0057029720999991963012721004+60517+022267FM-12+005499999V0201201N00101007801CN0200001N9-00501-00611103531ADDAY121999GF108991081051008001999999MD1210131+9999MW1021
0057029720999991963012800004+60517+022267FM-12+005499999V0201201N00101007801CN0200001N9-00501-00501103661ADDAY121999GF108991081051008001999999MD1210131+9999MW1021
0057029720999991963012803004+60517+022267FM-12+005499999V0201201N00101007801CN0200001N9-00501-00501103701ADDAY121999GF108991081051008001999999MD1210041+9999MW1021
0070029720999991963012806004+60517+022267FM-12+005499999V0201401N00211002401CN0150001N9-00501-00501103751ADDAY121999GF108991081061002501999999KA1999N-00611MD1210061+9999MW1021
0057029720999991963012809004+60517+022267FM-12+005499999V0201801N00211002401CN0015001N9-00501-00501103811ADDAY171999GF108991081061002501999999MD1210061+9999MW1771
0092029720999991963012812004+60517+022267FM-12+005499999V0201701N00211002401CN0050001N9-00391-00501103801ADDAY171999GF108991081071002501999999MD1710011+9999MW1771EQDQ01+000042APCTENQ02+000012APC3  
0057029720999991963012815004+60517+022267FM-12+005499999V0201701N00101004501CN0080001N9-00391-00501103821ADDAY171999GF108991081051004501999999MD1210021+9999MW1021
0081029720999991963012818004+60517+022267FM-12+005499999V0201801N00101004501CN0080001N9-00501-00611103841ADDAA199000391AY171999GF108991081051004501999999KA1999M-00391MD1210021+9999MW1711
0057029720999991963012821004+60517+022267FM-12+005499999V0201801N00151004501CN0080001N9-00611-00721103891ADDAY171999GF108991051051004501041999MD1210051+9999MW1021
0057029720999991963012900004+60517+022267FM-12+005499999V0201901N00211007801CN0100001N9-00721-00721103861ADDAY171999GF108991051051008001041999MD1810031+9999MW1021
0057029720999991963012903004+60517+022267FM-12+005499999V0201801N00211030001CN0100001N9-00721-00781103821ADDAY121999GF108991041051008001041999MD1710041+9999MW1021
0081029720999991963012906004+60517+022267FM-12+005499999V0201701N00101004501CN0080001N9-00721-00781103701ADDAA199000691AY121999GF108991081031004501999999KA1999N-00721MD1710121+9999MW1101
0057029720999991963012912004+60517+022267FM-12+005499999V0201801N00211004501CN0050001N9-00501-00721103381ADDAY171999GF108991081051004501999999MD1710161+9999MW1101
0057029720999991963012915004+60517+022267FM-12+005499999V0201801N00101004501CN0080001N9-00501-00611103231ADDAY121999GF108991081051004501999999MD1710151+9999MW1021
0081029720999991963012918004+60517+022267FM-12+005499999V0201801N00101004501CN0100001N9-00501-00781103071ADDAA199000691AY121999GF108991081051004501999999KA1999M-00501MD1710151+9999MW1021
0057029720999991963012921004+60517+022267FM-12+005499999V0202201N00101004501CN0100001N9-00611-00781102921ADDAY121999GF108991081051004501999999MD1710151+9999MW1021
0057029720999991963013003004+60517+022267FM-12+005499999V0209991C00001004501CN0150001N9-00721-00891102731ADDAY121999GF108991081051004501999999MD1710071+9999MW1021
0070029720999991963013006004+60517+022267FM-12+005499999V0209991C00001002401CN0100001N9-00721-00891102701ADDAY121999GF108991081061002501999999KA1999N-00781MD1310041+9999MW1771
0057029720999991963013009004+60517+022267FM-12+005499999V0201501N00151004501CN0080001N9-00781-01001102651ADDAY171999GF108991071061004501071999MD1710051+9999MW1711
0057029720999991963013012004+60517+022267FM-12+005499999V0209991C00001004501CN0100001N9-00781-01001102541ADDAY171999GF107991071061004501071999MD1710111+9999MW1851
0057029720999991963013015004+60517+022267FM-12+005499999V0201201N00101004501CN0060001N9-00891-01001102481ADDAY171999GF107991051051004501071999MD1710061+9999MW1711
0081029720999991963013018004+60517+022267FM-12+005499999V0200801N00211007801CN0070001N9-01281-01391102441ADDAA199000391AY111999GF107991061051008001001011KA1999M-00721MD1710051+9999MW1701
0057029720999991963013021004+60517+022267FM-12+005499999V0200601N00151007801CN0080001N9-01221-01391102331ADDAY171999GF107991051051008001041011MD1710111+9999MW1781
0057029720999991963013103004+60517+022267FM-12+005499999V0203201N00101007801CN0100001N9-01001-01111102091ADDAY171999GF108991081051008001999999MD1710151+9999MW1701
0081029720999991963013106004+60517+022267FM-12+005499999V0203301N00211004501CN0060001N9-00891-01001101971ADDAA199000591AY171999GF108991081061004501999999KA1999N-01391MD1710111+9999MW1731
0057029720999991963013109004+60517+022267FM-12+005499999V0203501N00411004501CN0030001N9-00781-00891101961ADDAY171999GF108991081061004501999999MD1710011+9999MW1731
0057029720999991963013112004+60517+022267FM-12+005499999V0203601N00511030001CN0080001N9-00891-01111101931ADDAY171999GF108991031051004501071999MD1710031+9999MW1221
0057029720999991963013115004+60517+022267FM-12+005499999V0203601N00411030001CN0150001N9-01001-01391101881ADDAY121999GF107991041051004501071001MD1710051+9999MW1701
0100029720999991963013118004+60517+022267FM-12+005499999V0200201N004119999999N0150001N9-01111-01391102011ADDAA199001091AY171999GF105991999001999999041001KA1999M-00781MD1210121+9999MW1781EQDQ01+000042SCOTLC
0057029720999991963013121004+60517+022267FM-12+005499999V0200401N00311024001CN0100001N9-01221-01391102101ADDAY171999GF107991071001999999071999MD1210091+9999MW1711
0057029720999991963020100004+60517+022267FM-12+005499999V0200401N00311220001CN0150001N9-01281-01501102181ADDAY171999GF103991031001999999041001MD1210081+9999MW1781
0057029720999991963020103004+60517+022267FM-12+005499999V0200501N00411220001CN0150001N9-01221-01391102291ADDAY171999GF103991031001999999041001MD1210111+9999MW1781
0081029720999991963020106004+60517+022267FM-12+005499999V0200601N00511004501CN0100001N9-01221-01391102491ADDAA199000391AY171999GF108991061051004501071999KA1999N-01281MD1210191+9999MW1711
0057029720999991963020109004+60517+022267FM-12+005499999V0200601N00621030001CN0080001N9-01281-01501102701ADDAY171999GF106991031051004501071001MD1210211+9999MW1711
0057029720999991963020112004+60517+022267FM-12+005499999V0200601N00511220001CN0060001N9-01281-01721102841ADDAY171999GF103991001001999999001051MD1210141+9999MW1021
0057029720999991963020115004+60517+022267FM-12+005499999V0200401N00511220001CN0060001N9-01391-01721102941ADDAY101999GF103991001001999999001051MD1210101+9999MW1021
0081029720999991963020118004+60517+022267FM-12+005499999V0200601N00621220001CN0080001N9-01611-01781103101ADDAA199000691AY101999GF101991001001999999001051KA1999M-01221MD1210141+9999MW1011
0057029720999991963020121004+60517+022267FM-12+005499999V0200601N00411220001CN0080001N9-01721-02001103091ADDAY101999GF100991001001999999001001MD1710011+9999MW1011
0057029720999991963020200004+60517+022267FM-12+005499999V0200401N00621075001CN0100001N9-01721-01891103071ADDAY111999GF107991021001999999041071MD1710011+9999MW1031
0057029720999991963020203004+60517+022267FM-12+005499999V0200601N00511220001CN0100001N9-01501-01721102931ADDAY111999GF104991031001999999041071MD1710141+9999MW1011
0070029720999991963020206004+60517+022267FM-12+005499999V0200801N00511007801CN0100001N9-01501-01781102961ADDAY121999GF108991051051008001071999KA1999N-01781MD1210031+9999MW1031
0057029720999991963020209004+60517+022267FM-12+005499999V0200701N00311004501CN0060001N9-01391-01611102881ADDAY121999GF108991061051004501071999MD1710071+9999MW1771
0057029720999991963020212004+60517+022267FM-12+005499999V0200801N00261004501CN0040001N9-01221-01281102741ADDAY171999GF107991071061004501999999MD1710141+9999MW1771
0057029720999991963020215004+60517+022267FM-12+005499999V0201201N002619999999N0040001N9-01111-01221102571ADDAY171999GF108991031061002501999999MD1710161+9999MW1101
0081029720999991963020218004+60517+022267FM-12+005499999V0200701N00311000601CN0012001N9-01111-01221102461ADDAA199000691AY121999GF108991081061000751999999KA1999M-01001MD1710111+9999MW1101
0057029720999991963020221004+60517+022267FM-12+005499999V0200601N00311001501CN0040001N9-01001-01111102141ADDAY121999GF108991081061001501999999MD1710311+9999MW1101
0057029720999991963020300004+60517+022267FM-12+005499999V0200901N00211001501CN0040001N9-00891-00891101901ADDAY121999GF108991081061001501999999MD1710241+9999MW1101
0057029720999991963020303004+60517+022267FM-12+005499999V0200901N00411001501CN0100001N9-00781-00891101631ADDAY121999GF108991081061001501999999MD1710271+9999MW1031
0070029720999991963020306004+60517+022267FM-12+005499999V0200901N00411000601CN0040001N9-00721-00781101411ADDAY121999GF108991081061000751999999KA1999N-01111MD1710221+9999MW1101
0049029720999991963020309004+60517+022267FM-12+005499999V0200701N00311000601CN0015001N9-00611-00721101261ADDGF108991081061000751999999MD1710141+9999MW1771
0057029720999991963020312004+60517+022267FM-12+005499999V0200901N00311001501CN0020001N9-00501-00611101031ADDAY171999GF108991081061001501999999MD1710231+9999MW1771
0057029720999991963020315004+60517+022267FM-12+005499999V0200801N00311001501CN0040001N9-00501-00611100871ADDAY171999GF108991081061001501999999MD1710151+9999MW1771
0081029720999991963020318004+60517+022267FM-12+005499999V0201001N00211001501CN0040001N9-00391-00501100881ADDAA199000591AY171999GF108991081061001501999999KA1999M-00391MD1210011+9999MW1711
0057029720999991963020321004+60517+022267FM-12+005499999V0200901N00211002401CN0040001N9-00391-00501100811ADDAY171999GF108991081061002501999999MD1710071+9999MW1711
0057029720999991963020400004+60517+022267FM-12+005499999V0201201N00311002401CN0040001N9-00281-00391100771ADDAY171999GF108991081061002501999999MD1710041+9999MW1711
0057029720999991963020403004+60517+022267FM-12+005499999V0201001N00211002401CN0040001N9-00281-00391100691ADDAY171999GF108991081061002501999999MD1710081+9999MW1711
0081029720999991963020406004+60517+022267FM-12+005499999V0200801N00511002401CN0040001N9-00281-00391100431ADDAA199000591AY171999GF108991081061002501999999KA1999N-00501MD1710261+9999MW1101
0057029720999991963020409004+60517+022267FM-12+005499999V0200601N00821001501CN0020001N9-00391-00501100091ADDAY121999GF108991081061001501999999MD1710331+9999MW1101
0057029720999991963020412004+60517+022267FM-12+005499999V0200601N00981002401CN0080001N9-00391-00611099401ADDAY121999GF108991081061002501999999MD1710691+9999MW1101
0057029720999991963020415004+60517+022267FM-12+005499999V0200701N00931001501CN0012001N9-00501-00611099041ADDAY171999GF108991081061001501999999MD1710361+9999MW1731
0081029720999991963020418004+60517+022267FM-12+005499999V0200901N00721002401CN0030001N9-00501-00721098791ADDAA199001091AY171999GF108991081061002501999999KA1999M-00281MD1710251+9999MW1731
0057029720999991963020421004+60517+022267FM-12+005499999V0201601N00721002401CN0015001N9-00611-00721098841ADDAY171999GF108991081061002501999999MD1310051+9999MW1731
0057029720999991963020500004+60517+022267FM-12+005499999V0201401N00621004501CN0080001N9-00611-00721098961ADDAY171999GF108991081061004501999999MD1210121+9999MW1711
0057029720999991963020503004+60517+022267FM-12+005499999V0201201N00411002401CN0040001N9-00611-00721098981ADDAY171999GF108991081061002501999999MD1210021+9999MW1731
0081029720999991963020506004+60517+022267FM-12+005499999V0201201N00411002401CN0020001N9-00611-00721099081ADDAA199002091AY171999GF108991081061002501999999KA1999N-00611MD1210101+9999MW1731
0057029720999991963020509004+60517+022267FM-12+005499999V0200701N00151030001CN0040001N9-00611-00721099431ADDAY171999GF107991021051008001071999MD1210341+9999MW1711
0057029720999991963020512004+60517+022267FM-12+005499999V0202301N00411004501CN0040001N9-00391-00501100011ADDAY171999GF108991071061004501071999MD1210591+9999MW1711
0057029720999991963020515004+60517+022267FM-12+005499999V0202301N00511004501CN0080001N9-00721-00781100781ADDAY121999GF108991061061004501071999MD1210751+9999MW1031
0081029720999991963020518004+60517+022267FM-12+005499999V0202201N00511220001CN0150001N9-00891-01111101211ADDAA199000591AY111999GF101991011051008001041001KA1999M-00281MD1210421+9999MW1011
0057029720999991963020521004+60517+022267FM-12+005499999V0202001N00311220001CN0150001N9-01221-01281101671ADDAY101999GF100991001001999999001001MD1210451+9999MW1021
0057029720999991963020600004+60517+022267FM-12+005499999V0201801N00211220001CN0150001N9-01281-01391101951ADDAY101999GF100991001001999999001001MD1210211+9999MW1021
0057029720999991963020603004+60517+022267FM-12+005499999V0209991C00001220001CN0150001N9-01281-01391102111ADDAY101999GF100991001001999999001001MD1210141+9999MW1021
0070029720999991963020606004+60517+022267FM-12+005499999V0201601N00211220001CN0150001N9-01781-02221102241ADDAY101999GF102991011051004501041001KA1999N-01891MD1210131+9999MW1031
0057029720999991963020612004+60517+022267FM-12+005499999V0201401N00101030001CN0060001N9-00501-00721102451ADDAY171999GF107991041051008001041001MD1210021+9999MW1711
0057029720999991963020615004+60517+022267FM-12+005499999V0201401N00101007801CN0040001N9-00501-00611102501ADDAY171999GF107991071051008001041001MD1210051+9999MW1711
0057029720999991963020621004+60517+022267FM-12+005499999V0201401N00101002401CN0100001N9-00721-00781102591ADDAY171999GF108991081061002501999999MD1210061+9999MW1221
0057029720999991963020700004+60517+022267FM-12+005499999V0209991C00001004501CN0150001N9-00781-00781102571ADDAY121999GF107991071051004501999999MD1710031+9999MW1021
0057029720999991963020703004+60517+022267FM-12+005499999V0200201N00311004501CN0150001N9-00891-01001102551ADDAY121999GF108991081051004501999999MD1710021+9999MW1021
0081029720999991963020706004+60517+022267FM-12+005499999V0200201N00311220001CN0150001N9-00891-01001102451ADDAA199000691AY121999GF102991011051004501041001KA1999N-01111MD1710101+9999MW1011
0057029720999991963020709004+60517+022267FM-12+005499999V0200401N00411030001CN0150001N9-00891-01111102471ADDAY121999GF107991011051002501041051MD1210021+9999MW1021
0057029720999991963020712004+60517+022267FM-12+005499999V0200201N00411075001CN0200001N9-00781-01001102451ADDAY121999GF107991011001999999041071MD1710021+9999MW1021
0057029720999991963020715004+60517+022267FM-12+005499999V0200201N00311075001CN0200001N9-00891-01111102461ADDAY121999GF107991011001999999041071MD1310011+9999MW1021
0070029720999991963020718004+60517+022267FM-12+005499999V0200201N00311075001CN0200001N9-01111-01221102521ADDAY121999GF108991011001999999041071KA1999M-00781MD1210061+9999MW1021
0057029720999991963020721004+60517+022267FM-12+005499999V0200101N00311220001CN0200001N9-01221-01391102591ADDAY111999GF101991001001999999001011MD1210061+9999MW1011
0057029720999991963020800004+60517+022267FM-12+005499999V0200201N00311220001CN0200001N9-01391-01501102661ADDAY101999GF104991001001999999001011MD1210071+9999MW1031
0057029720999991963020803004+60517+022267FM-12+005499999V0200201N00211220001CN0200001N9-01611-01781102701ADDAY121999GF107991001001999999001071MD1210031+9999MW1031
0057029720999991963020809004+60517+022267FM-12+005499999V0200401N00311220001CN0150001N9-01781-02001102841ADDAY101999GF103991001001999999001051MD1210101+9999MW1021
0057029720999991963020812004+60517+022267FM-12+005499999V0200301N00311220001CN0150001N9-01611-01891102921ADDAY101999GF102991001001999999001051MD1210081+9999MW1021
0057029720999991963020815004+60517+022267FM-12+005499999V0200201N00261220001CN0080001N9-01721-02001102981ADDAY101999GF100991001001999999001001MD1210061+9999MW1101
0070029720999991963020818004+60517+022267FM-12+005499999V0200201N00211220001CN0100001N9-01891-02001103071ADDAY101999GF100991001001999999001001KA1999M-01611MD1210081+9999MW1021
0057029720999991963020821004+60517+022267FM-12+005499999V0203601N00101220001CN0150001N9-02001-02221103181ADDAY101999GF100991001001999999001001MD1210111+9999MW1021
0057029720999991963020900004+60517+022267FM-12+005499999V0203501N00101220001CN0200001N9-02281-02501103241ADDAY101999GF100991001001999999001001MD1210051+9999MW1021
0057029720999991963020903004+60517+022267FM-12+005499999V0209991C00001000151CN0004001N9-02281-02501103281ADDAY141999GF109991091999000251999999MD1210041+9999MW1471
0070029720999991963020906004+60517+022267FM-12+005499999V0209991C00001004501CN0070001N9-01781-02001103271ADDAY121999GF108991081051004501999999KA1999N-02501MD1410001+9999MW1101
0057029720999991963020909004+60517+022267FM-12+005499999V0201901N00101004501CN0020001N9-01391-01611103311ADDAY171999GF108991081051004501999999MD1210051+9999MW1781
0057029720999991963020912004+60517+022267FM-12+005499999V0202201N00211004501CN0030001N9-01001-01111103241ADDAY171999GF108991071051004501999999MD1710061+9999MW1781
0057029720999991963020915004+60517+022267FM-12+005499999V0202501N00051004501CN0060001N9-00891-01111103161ADDAY171999GF107991071061004501001071MD1710071+9999MW1781
0081029720999991963020918004+60517+022267FM-12+005499999V0202401N00101220001CN0040001N9-01281-01391103031ADDAA199000591AY171999GF106991021061002501001061KA1999M-00781MD1710131+9999MW1101
0057029720999991963020921004+60517+022267FM-12+005499999V0202401N00211220001CN0080001N9-01501-01611102911ADDAY111999GF102991001001999999001011MD1710121+9999MW1011
0057029720999991963021003004+60517+022267FM-12+005499999V0202601N00101030001CN0100001N9-01281-01391102811ADDAY111999GF107991031051002501071999MD1710021+9999MW1031
0081029720999991963021006004+60517+022267FM-12+005499999V0209991C00001001501CN0040001N9-01281-01721102811ADDAA199000691AY171999GF108991071051001501071999KA1999N-01611MD1410001+9999MW1781
0057029720999991963021009004+60517+022267FM-12+005499999V0209991C00001001501CN0030001N9-01281-01391102901ADDAY171999GF106991061061001501001001MD1210091+9999MW1781
0057029720999991963021012004+60517+022267FM-12+005499999V0201001N00211220001CN0100001N9-01111-01221102941ADDAY171999GF104991041061002501001001MD1210051+9999MW1011
0057029720999991963021015004+60517+022267FM-12+005499999V0201101N00211220001CN0100001N9-01221-01281102961ADDAY101999GF102991021061002501001001MD1210011+9999MW1011
0081029720999991963021018004+60517+022267FM-12+005499999V0201201N00311220001CN0100001N9-01391-01611103051ADDAA199000691AY101999GF100991001001999999001001KA1999M-01001MD1210091+9999MW1021
0057029720999991963021021004+60517+022267FM-12+005499999V0201201N00311220001CN0100001N9-01391-01611103051ADDAY101999GF102991021051004501001001MD1410001+9999MW1021
0057029720999991963021100004+60517+022267FM-12+005499999V0201201N00311002401CN0100001N9-01111-01281103031ADDAY121999GF108991081061002501999999MD1710021+9999MW1021
0057029720999991963021103004+60517+022267FM-12+005499999V0201201N00311001501CN0100001N9-01111-01221102891ADDAY121999GF108991081061001501999999MD1710131+9999MW1021
0070029720999991963021106004+60517+022267FM-12+005499999V0201501N00311001501CN0060001N9-01001-01221102711ADDAY121999GF108991081061001501999999KA1999N-01501MD1710181+9999MW1781
0057029720999991963021109004+60517+022267FM-12+005499999V0201501N00511002401CN0060001N9-00891-01001102611ADDAY171999GF107991071061002501999999MD1710101+9999MW1701
0057029720999991963021112004+60517+022267FM-12+005499999V0201601N00511220001CN0100001N9-00891-01111102481ADDAY121999GF101991011061002501001001MD1710131+9999MW1011
0057029720999991963021115004+60517+022267FM-12+005499999V0201601N00511220001CN0100001N9-01001-01221102261ADDAY101999GF101991011051004501001011MD1710221+9999MW1031
0081029720999991963021118004+60517+022267FM-12+005499999V0201501N00511220001CN0100001N9-01221-01281102121ADDAA199000691AY101999GF101991011001999999041001KA1999M-00891MD1710151+9999MW1011
0057029720999991963021121004+60517+022267FM-12+005499999V0201501N00511220001CN0100001N9-01221-01281101881ADDAY111999GF104991021061002501001011MD1710231+9999MW1021
0057029720999991963021200004+60517+022267FM-12+005499999V0201501N00411002401CN0100001N9-01221-01281101661ADDAY101999GF106991061061002501001001MD1710221+9999MW1031
0057029720999991963021203004+60517+022267FM-12+005499999V0201801N00721002401CN0100001N9-01001-01221101451ADDAY121999GF107991071061002501999999MD1710211+9999MW1021
0081029720999991963021206004+60517+022267FM-12+005499999V0201801N00621002401CN0080001N9-01001-01111101301ADDAA199000691AY171999GF108991081061002501999999KA1999N-01221MD1710141+9999MW1781
0057029720999991963021209004+60517+022267FM-12+005499999V0201501N00511002401CN0080001N9-01001-01111101221ADDAY171999GF108991081061002501999999MD1710081+9999MW1711
0057029720999991963021212004+60517+022267FM-12+005499999V0201601N00511007801CN0080001N9-00891-01111101161ADDAY171999GF108991081061008001999999MD1710061+9999MW1221
0057029720999991963021215004+60517+022267FM-12+005499999V0201601N00411007801CN0015001N9-00891-01111101091ADDAY171999GF108991081061008001999999MD1710071+9999MW1721
0081029720999991963021218004+60517+022267FM-12+005499999V0201501N00311004501CN0080001N9-00891-01111101071ADDAA199000391AY171999GF108991081061004501999999KA1999M-00891MD1310011+9999MW1711
0057029720999991963021221004+60517+022267FM-12+005499999V0201501N00311002401CN0060001N9-00891-01001101041ADDAY171999GF108991081061002501999999MD1710021+9999MW1711
0057029720999991963021300004+60517+022267FM-12+005499999V0201501N00311001501CN0050001N9-00891-01001101061ADDAY171999GF108991081061001501999999MD1210021+9999MW1021
0057029720999991963021303004+60517+022267FM-12+005499999V0201501N00211001501CN0010001N9-00781-00781101061ADDAY121999GF108991081061001501999999MD1410001+9999MW1101
0081029720999991963021306004+60517+022267FM-12+005499999V0201501N00311001501CN0015001N9-00721-00781101111ADDAA199000391AY171999GF108991081061001501999999KA1999N-00891MD1210051+9999MW1771
0057029720999991963021309004+60517+022267FM-12+005499999V0201601N00211002401CN0040001N9-00721-00781101191ADDAY121999GF108991081061002501999999MD1210081+9999MW1701
0057029720999991963021312004+60517+022267FM-12+005499999V0201401N00211004501CN0070001N9-00721-00891101271ADDAY171999GF108991081061004501999999MD1210081+9999MW1711
0057029720999991963021315004+60517+022267FM-12+005499999V0201401N00211004501CN0100001N9-00721-00891101321ADDAY171999GF108991081061004501999999MD1210041+9999MW1711
0081029720999991963021318004+60517+022267FM-12+005499999V0200901N00101004501CN0100001N9-00781-01001101361ADDAA199000691AY171999GF108991081061004501999999KA1999M-00721MD1210041+9999MW1711
0057029720999991963021321004+60517+022267FM-12+005499999V0201201N00101004501CN0100001N9-00781-01001101391ADDAY171999GF108991081061004501999999MD1210031+9999MW1711
0057029720999991963021403004+60517+022267FM-12+005499999V0200601N00211004501CN0100001N9-00891-01001101331ADDAY171999GF108991081061004501999999MD1710091+9999MW1021
0081029720999991963021406004+60517+022267FM-12+005499999V0200701N00211001501CN0050001N9-00891-01001101331ADDAA199000691AY171999GF108991081061001501999999KA1999N-00891MD1410001+9999MW1711
0057029720999991963021409004+60517+022267FM-12+005499999V0200901N00211002401CN0040001N9-00891-01001101391ADDAY171999GF107991061061002501071999MD1010061+9999MW1771
0057029720999991963021412004+60517+022267FM-12+005499999V0200701N00311030001CN0150001N9-00781-01111101301ADDAY171999GF107991021051004501071011MD1710091+9999MW1021
0057029720999991963021415004+60517+022267FM-12+005499999V0201001N00211075001CN0150001N9-00891-01221101221ADDAY121999GF105991011051004501041011MD1710081+9999MW1021
0070029720999991963021418004+60517+022267FM-12+005499999V0201201N00211004501CN0100001N9-01221-01281101241ADDAY121999GF108991081051004501999999KA1999M-00781MD1310011+9999MW1031
0057029720999991963021421004+60517+022267FM-12+005499999V0200701N00211220001CN0150001N9-01501-01611101191ADDAY111999GF101991011051008001001001MD1810051+9999MW1011
0057029720999991963021500004+60517+022267FM-12+005499999V0200601N00311024001CN0150001N9-01721-01781101101ADDAY111999GF106991061001999999041001MD1710091+9999MW1031
0057029720999991963021503004+60517+022267FM-12+005499999V0200601N00311030001CN0150001N9-01391-01501100921ADDAY121999GF107991031051004501071999MD1710181+9999MW1031
0081029720999991963021506004+60517+022267FM-12+005499999V0200601N00311030001CN0080001N9-01391-01611100801ADDAA199000691AY171999GF107991041051008001071999KA1999N-01721MD1710161+9999MW1711
0057029720999991963021509004+60517+022267FM-12+005499999V0200601N00311030001CN0080001N9-01281-01611100731ADDAY171999GF107991041051008001071999MD1710071+9999MW1781
0057029720999991963021512004+60517+022267FM-12+005499999V0200701N00311075001CN0060001N9-01001-01221100621ADDAY171999GF107991031001999999071071MD1710101+9999MW1771
0057029720999991963021515004+60517+022267FM-12+005499999V0200601N00211030001CN0080001N9-00891-01111100481ADDAY171999GF107991011051004501071071MD1710141+9999MW1021
0081029720999991963021518004+60517+022267FM-12+005499999V0200601N00101002401CN0060001N9-01001-01111100441ADDAA199000391AY171999GF108991061061002501071999KA1999M-00891MD1710041+9999MW1711
0057029720999991963021521004+60517+022267FM-12+005499999V0209991C00001004501CN0060001N9-01001-01111100391ADDAY171999GF108991061051004501071999MD1710051+9999MW1711
0057029720999991963021600004+60517+022267FM-12+005499999V0209991C00001004501CN0080001N9-01001-01111100351ADDAY171999GF108991081051004501999999MD1710041+9999MW1711
0057029720999991963021603004+60517+022267FM-12+005499999V0200901N00101004501CN0080001N9-01001-01111100271ADDAY171999GF108991081051004501999999MD1710041+9999MW1221
0081029720999991963021606004+60517+022267FM-12+005499999V0200801N00211004501CN0050001N9-00891-01001100311ADDAA199000691AY171999GF108991081061004501999999KA1999N-01111MD1310041+9999MW1781
0057029720999991963021609004+60517+022267FM-12+005499999V0200601N00211004501CN0030001N9-00781-00891100321ADDAY171999GF108991081051004501999999MD1310021+9999MW1771
0057029720999991963021612004+60517+022267FM-12+005499999V0200901N00211002401CN0030001N9-00611-00721100321ADDAY171999GF108991081061002501999999MD1410001+9999MW1771
0057029720999991963021615004+60517+022267FM-12+005499999V0200701N00211004501CN0030001N9-00611-00721100321ADDAY171999GF108991081061004501999999MD1410001+9999MW1771
0081029720999991963021618004+60517+022267FM-12+005499999V0201401N00211007801CN0100001N9-00501-00611100351ADDAA199000591AY171999GF107991061061008001071999KA1999M-00391MD1210031+9999MW1711
0057029720999991963021621004+60517+022267FM-12+005499999V0209991C00001002401CN0060001N9-00721-00781100381ADDAY171999GF108991081061002501999999MD1210041+9999MW1771
0057029720999991963021703004+60517+022267FM-12+005499999V0209991C00001004501CN0040001N9-00781-00891100441ADDAY171999GF108991081061004501999999MD1210021+9999MW1731
0081029720999991963021706004+60517+022267FM-12+005499999V0203201N00101002401CN0020001N9-00891-01001100461ADDAA199000591AY171999GF108991051061002501071999KA1999N-01001MD1210021+9999MW1771
0057029720999991963021709004+60517+022267FM-12+005499999V0203401N00311024001CN0040001N9-00891-01001100481ADDAY171999GF108991081001999999071999MD1210021+9999MW1711
0057029720999991963021712004+60517+022267FM-12+005499999V0203501N00411030001CN0100001N9-01001-01221100571ADDAY171999GF105991021051008001041001MD1210081+9999MW1011
0057029720999991963021715004+60517+022267FM-12+005499999V0203601N00511220001CN0300001N9-01001-01281100591ADDAY121999GF102991011051004501041001MD1210021+9999MW1011
0081029720999991963021718004+60517+022267FM-12+005499999V0203401N00411220001CN0300001N9-01391-01611100741ADDAA199000391AY101999GF101991011001999999041001KA1999M-00781MD1210141+9999MW1021
0057029720999991963021800004+60517+022267FM-12+005499999V0203601N00511220001CN0200001N9-01721-01891100891ADDAY171999GF101991011051004501001001MD1210091+9999MW1011
0057029720999991963021803004+60517+022267FM-12+005499999V0203401N00311220001CN0200001N9-01891-02111100911ADDAY101999GF100991001001999999001001MD1210011+9999MW1021
0081029720999991963021806004+60517+022267FM-12+005499999V0203601N00411220001CN0300001N9-01891-02111100961ADDAA199000691AY101999GF104991041061002501001001KA1999N-02001MD1210051+9999MW1031
0057029720999991963021809004+60517+022267FM-12+005499999V0203601N00411220001CN0300001N9-01721-01891101071ADDAY101999GF100991001001999999001001MD1210111+9999MW1011
0057029720999991963021812004+60517+022267FM-12+005499999V0200101N00311220001CN0400001N9-01281-01781101101ADDAY101999GF100991001001999999001001MD1210041+9999MW1021
0057029720999991963021815004+60517+022267FM-12+005499999V0203601N00411220001CN0400001N9-01391-01891101111ADDAY101999GF101991001001999999001011MD1210011+9999MW1031
0070029720999991963021818004+60517+022267FM-12+005499999V0200101N00211220001CN0300001N9-01891-02111101161ADDAY101999GF100991001001999999001001KA1999M-01281MD1210041+9999MW1021
0057029720999991963021821004+60517+022267FM-12+005499999V0200101N00101220001CN0200001N9-02221-02391101221ADDAY101999GF100991001001999999001001MD1210041+9999MW1021
0057029720999991963021900004+60517+022267FM-12+005499999V0209991C00001220001CN0200001N9-02501-02721101221ADDAY101999GF100991001001999999001001MD1410001+9999MW1021
0057029720999991963021903004+60517+022267FM-12+005499999V0201501N00101030001CN0200001N9-02391-02611101191ADDAY101999GF107991031061004501071999MD1710031+9999MW1031
0070029720999991963021906004+60517+022267FM-12+005499999V0201801N00101024001CN0150001N9-01891-02111101151ADDAY121999GF107991071001999999041999KA1999N-02721MD1710021+9999MW1031
0057029720999991963021912004+60517+022267FM-12+005499999V0202001N00621024001CN0300001N9-01001-01611101131ADDAY121999GF107991071001999999071999MD1710051+9999MW1021
0057029720999991963021915004+60517+022267FM-12+005499999V0202001N00621024001CN0300001N9-01001-01281101071ADDAY121999GF106991061001999999071999MD1710061+9999MW1021
0070029720999991963021918004+60517+022267FM-12+005499999V0201901N00411024001CN0300001N9-01281-01501101061ADDAY121999GF105991051001999999071999KA1999M-01001MD1710021+9999MW1011
0057029720999991963021921004+60517+022267FM-12+005499999V0201901N00411220001CN0300001N9-01281-01501101031ADDAY121999GF104991041001999999041001MD1710041+9999MW1011
0057029720999991963022000004+60517+022267FM-12+005499999V0201901N00411220001CN0300001N9-01391-01611100951ADDAY111999GF102991021001999999041001MD1710071+9999MW1011
0057029720999991963022003004+60517+022267FM-12+005499999V0201901N00311220001CN0300001N9-01721-01781100751ADDAY101999GF100991001001999999001001MD1710201+9999MW1011
0070029720999991963022006004+60517+022267FM-12+005499999V0201901N00211004501CN0050001N9-01721-02001100711ADDAY101999GF107991071051004501999999KA1999N-01891MD1710051+9999MW1101
0057029720999991963022009004+60517+022267FM-12+005499999V0201901N00411220001CN0080001N9-01281-01391100581ADDAY121999GF103991031061002501001011MD1710111+9999MW1011
0057029720999991963022012004+60517+022267FM-12+005499999V0202101N00511220001CN0150001N9-00891-01221100491ADDAY101999GF104991031061002501041001MD1710091+9999MW1021
0057029720999991963022015004+60517+022267FM-12+005499999V0202101N00621030001CN0200001N9-00781-01111100411ADDAY101999GF107991041051004501071001MD1710081+9999MW1021
0070029720999991963022018004+60517+022267FM-12+005499999V0202001N00411030001CN0200001N9-01001-01221100391ADDAY121999GF107991021051004501041999KA1999M-00781MD1710031+9999MW1031
0057029720999991963022021004+60517+022267FM-12+005499999V0202301N00211220001CN0200001N9-01111-01281100381ADDAY121999GF104991041001999999041001MD1710011+9999MW1011
0057029720999991963022100004+60517+022267FM-12+005499999V0202001N00311024001CN0200001N9-01111-01281100341ADDAY121999GF106991061001999999041001MD1710041+9999MW1031
0057029720999991963022103004+60517+022267FM-12+005499999V0202301N00411024001CN0200001N9-01111-01281100291ADDAY121999GF108991081001999999071999MD1710051+9999MW1031
0070029720999991963022106004+60517+022267FM-12+005499999V0202301N00311030001CN0150001N9-01221-01391100231ADDAY121999GF106991031051004501071001KA1999N-01391MD1710061+9999MW1021
0057029720999991963022109004+60517+022267FM-12+005499999V0202601N00211030001CN0150001N9-00891-01221100391ADDAY121999GF107991041051004501071001MD1210161+9999MW1021
0057029720999991963022112004+60517+022267FM-12+005499999V0203001N00411220001CN0400001N9-00281-00721100521ADDAY101999GF102991021001999999041001MD1210141+9999MW1021
0057029720999991963022115004+60517+022267FM-12+005499999V0203001N00411220001CN0400001N9-00391-00891100651ADDAY101999GF103991011041008001041021MD1210131+9999MW1021
0070029720999991963022118004+60517+022267FM-12+005499999V0203301N00311220001CN0400001N9-00891-01111100931ADDAY101999GF100991001001999999001001KA1999M-00221MD1210271+9999MW1011
0057029720999991963022121004+60517+022267FM-12+005499999V0200101N00101220001CN0200001N9-01391-01501101081ADDAY101999GF100991001001999999001001MD1210131+9999MW1021
0057029720999991963022200004+60517+022267FM-12+005499999V0202601N00211220001CN0200001N9-01721-01891101201ADDAY101999GF100991001001999999001001MD1210111+9999MW1021
0057029720999991963022203004+60517+022267FM-12+005499999V0202601N00211004501CN0080001N9-01501-01611101191ADDAY101999GF108991081051004501999999MD1410001+9999MW1721
0081029720999991963022206004+60517+022267FM-12+005499999V0203601N00411220001CN0400001N9-01281-01611101391ADDAA199000591AY101999GF101991011001999999041001KA1999N-01891MD1210191+9999MW1021
0057029720999991963022209004+60517+022267FM-12+005499999V0203501N00621220001CN0500001N9-01221-01721101681ADDAY101999GF101991011001999999041001MD1210301+9999MW1021
0057029720999991963022212004+60517+022267FM-12+005499999V0203401N00621220001CN0500001N9-00891-01501101831ADDAY101999GF101991011001999999041001MD1210161+9999MW1021
0057029720999991963022215004+60517+022267FM-12+005499999V0203101N00411220001CN0500001N9-00781-01721102031ADDAY101999GF101991001001999999001011MD1210191+9999MW1021
0070029720999991963022218004+60517+022267FM-12+005499999V0203201N00211220001CN0300001N9-01501-02001102261ADDAY101999GF101991011001999999041001KA1999M-00781MD1210211+9999MW1021
0057029720999991963022221004+60517+022267FM-12+005499999V0202501N00211220001CN0200001N9-01781-02001102351ADDAY101999GF101991011001999999041001MD1210091+9999MW1021
0057029720999991963022300004+60517+022267FM-12+005499999V0201801N00211024001CN0200001N9-01781-01891102261ADDAY111999GF106991061001999999071001MD1710091+9999MW1031
0057029720999991963022303004+60517+022267FM-12+005499999V0201801N00511030001CN0200001N9-01221-01501102061ADDAY121999GF107991041051004501071999MD1710181+9999MW1021
0070029720999991963022306004+60517+022267FM-12+005499999V0202301N00511030001CN0300001N9-00721-01001101891ADDAY121999GF108991031051004501071999KA1999N-02111MD1710151+9999MW1021
0057029720999991963022309004+60517+022267FM-12+005499999V0202301N00511220001CN0400001N9-00501-00891101851ADDAY111999GF104991011051004501041021MD1710041+9999MW1011
0057029720999991963022312004+60517+022267FM-12+005499999V0202301N00411075001CN0400001N9-00281-00781101761ADDAY111999GF106991011001999999041021MD1710091+9999MW1031
0057029720999991963022315004+60517+022267FM-12+005499999V0202301N00411024001CN0300001N9-00611-00781101611ADDAY121999GF107991051001999999041021MD1710151+9999MW1031
0070029720999991963022318004+60517+022267FM-12+005499999V0202401N00311220001CN0250001N9-00781-00781101541ADDAY111999GF104991041061002501041001KA1999M-00281MD1710081+9999MW1031
0057029720999991963022321004+60517+022267FM-12+005499999V0202601N00311220001CN0200001N9-00721-00781101551ADDAY111999GF101991011051008001001001MD1210021+9999MW1011
0057029720999991963022400004+60517+022267FM-12+005499999V0203001N00311220001CN0200001N9-00781-01111101651ADDAY101999GF100991001001999999001001MD1210091+9999MW1021
0057029720999991963022403004+60517+022267FM-12+005499999V0202701N00101220001CN0200001N9-01221-01281101791ADDAY101999GF100991001001999999001001MD1210131+9999MW1021
0070029720999991963022406004+60517+022267FM-12+005499999V0202701N00101220001CN0200001N9-01281-01391101881ADDAY101999GF101991011001999999041021KA1999N-01281MD1210091+9999MW1021
0057029720999991963022409004+60517+022267FM-12+005499999V0209991C00001220001CN0300001N9-00721-00891101951ADDAY101999GF101991001001999999001011MD1210081+9999MW1021
0057029720999991963022412004+60517+022267FM-12+005499999V0202801N00411024001CN0300001N9-00221-00891101821ADDAY111999GF107991071001999999071999MD1710091+9999MW1031
0057029720999991963022415004+60517+022267FM-12+005499999V0203001N00311030001CN0300001N9-00281-00721101711ADDAY121999GF108991041051004501071999MD1710111+9999MW1031
0070029720999991963022418004+60517+022267FM-12+005499999V0203601N00311030001CN0300001N9-00611-01221101741ADDAY121999GF108991031051004501071999KA1999M-00111MD1310031+9999MW1031
0057029720999991963022421004+60517+022267FM-12+005499999V0200601N00411030001CN0300001N9-00891-01281101781ADDAY121999GF108991041051004501071999MD1210031+9999MW1021
0057029720999991963022500004+60517+022267FM-12+005499999V0200701N00621004501CN0300001N9-01111-01501101781ADDAY121999GF108991061051004501021999MD1410001+9999MW1021
0057029720999991963022503004+60517+022267FM-12+005499999V0200601N00621220001CN0400001N9-01501-01781101881ADDAY111999GF100991001001999999001001MD1210081+9999MW1011
0070029720999991963022506004+60517+022267FM-12+005499999V0200601N00311220001CN0400001N9-01721-01781102101ADDAY111999GF106991001001999999001061KA1999N-01721MD1210221+9999MW1031
0057029720999991963022509004+60517+022267FM-12+005499999V0200401N00211075001CN0300001N9-01501-01781102461ADDAY121999GF106991021001999999041021MD1210351+9999MW1021
0057029720999991963022512004+60517+022267FM-12+005499999V0201201N00311220001CN0500001N9-01001-01781102651ADDAY101999GF102991011001999999041011MD1210191+9999MW1021
0057029720999991963022515004+60517+022267FM-12+005499999V0209991C00001220001CN0500001N9-01001-01891102841ADDAY101999GF101991001001999999001011MD1210211+9999MW1021
0070029720999991963022518004+60517+022267FM-12+005499999V0201201N00211220001CN0200001N9-01781-02221103081ADDAY101999GF101991001001999999001011KA1999M-00891MD1210221+9999MW1021
0057029720999991963022521004+60517+022267FM-12+005499999V0201901N00101220001CN0200001N9-01891-02111103141ADDAY101999GF102991001001999999001011MD1210061+9999MW1021
0057029720999991963022600004+60517+022267FM-12+005499999V0201801N00101220001CN0200001N9-02111-02281103411ADDAY101999GF100991001001999999001001MD1210251+9999MW1011
0057029720999991963022603004+60517+022267FM-12+005499999V0201801N00211220001CN0200001N9-02001-02221103441ADDAY101999GF100991001001999999001001MD1210031+9999MW1021
0070029720999991963022606004+60517+022267FM-12+005499999V0201801N00311220001CN0200001N9-01721-01891103511ADDAY101999GF103991011001999999041011KA1999N-02501MD1210081+9999MW1031
0057029720999991963022609004+60517+022267FM-12+005499999V0202001N00511030001CN0300001N9-01001-01391103581ADDAY121999GF107991021051008001071011MD1210091+9999MW1031
0057029720999991963022612004+60517+022267FM-12+005499999V0202101N00721030001CN0015001N9-00891-01111103571ADDAY171999GF107991041051004501021999MD1710011+9999MW1731
0057029720999991963022615004+60517+022267FM-12+005499999V0201901N006219999999N0020001N9-00781-00781103511ADDAY171999GF108991041071002501999999MD1710051+9999MW1771
0081029720999991963022618004+60517+022267FM-12+005499999V0202301N00511002401CN0100001N9-00501-00611103441ADDAA199000591AY171999GF108991081061002501999999KA1999M-00501MD1710071+9999MW1711
0057029720999991963022621004+60517+022267FM-12+005499999V0202501N00411002401CN0100001N9-00391-00501103351ADDAY171999GF108991081061002501999999MD1710081+9999MW1221
0057029720999991963022700004+60517+022267FM-12+005499999V0202601N00211002401CN0100001N9-00391-00501103301ADDAY121999GF108991081061002501999999MD1710051+9999MW1021
0057029720999991963022703004+60517+022267FM-12+005499999V0202501N00211000601CN0012001N9-00391-00501103241ADDAY121999GF108991081061000751999999MD1710061+9999MW1101
0081029720999991963022706004+60517+022267FM-12+005499999V0202701N00211000151CN0004001N9-00391-00391103211ADDAA199000691AY141999GF109991091999000251999999KA1999N-00611MD1710031+9999MW1431
0057029720999991963022709004+60517+022267FM-12+005499999V0203001N00101000151CN0004001N9-00281-00281103221ADDAY141999GF109991091999000251999999MD1310011+9999MW1451
0057029720999991963022712004+60517+022267FM-12+005499999V0202601N00211000151CN0007001N9-00281-00281103191ADDAY141999GF109991091999000251999999MD1210031+9999MW1431
0057029720999991963022715004+60517+022267FM-12+005499999V0202201N00101000151CN0004001N9-00281-00281103211ADDAY141999GF109991091999000251999999MD1210021+9999MW1471
0070029720999991963022718004+60517+022267FM-12+005499999V0202701N00311000151CN0009001N9-00281-00281103341ADDAY141999GF109991091999000251999999KA1999M-00221MD1210131+9999MW1431
0057029720999991963022721004+60517+022267FM-12+005499999V0202601N00411002401CN0050001N9-00281-00281103331ADDAY121999GF108991081061002501999999MD1710011+9999MW1021
0057029720999991963022800004+60517+022267FM-12+005499999V0202701N00211004501CN0100001N9-00281-00391103321ADDAY121999GF107991071061004501999999MD1710011+9999MW1011
0057029720999991963022803004+60517+022267FM-12+005499999V0202301N00311220001CN0100001N9-00611-00721103281ADDAY111999GF100991001001999999001001MD1710051+9999MW1011
0070029720999991963022806004+60517+022267FM-12+005499999V0202701N00211220001CN0020001N9-00781-00891103231ADDAY101999GF104991031001999999041011KA1999N-00781MD1710051+9999MW1101
0057029720999991963022809004+60517+022267FM-12+005499999V0202701N00101075001CN0040001N9-00501-00501103251ADDAY121999GF107991031001999999041061MD1310021+9999MW1101
0057029720999991963022812004+60517+022267FM-12+005499999V0202601N00211220001CN0100001N9-00111-00221103171ADDAY121999GF107991001001999999001071MD1710071+9999MW1021
0057029720999991963022815004+60517+022267FM-12+005499999V0202501N00211075001CN0200001N9+00001-00501103081ADDAY121999GF107991011001999999041071MD1710091+9999MW1021
0070029720999991963022818004+60517+022267FM-12+005499999V0202701N00411220001CN0200001N9-00281-00501103061ADDAY121999GF103991001001999999001021KA1999M+00111MD1710031+9999MW1011
0057029720999991963022821004+60517+022267FM-12+005499999V0202701N00311220001CN0200001N9-00611-00721102971ADDAY101999GF103991001001999999001011MD1710091+9999MW1021
0057029720999991963030103004+60517+022267FM-12+005499999V0203001N00411220001CN0200001N9-00611-00891102781ADDAY111999GF100991001001999999001001MD1710071+9999MW1011
0057029720999991963030109004+60517+022267FM-12+005499999V0203101N00621220001CN0300001N9-00111-00391102791ADDAY101999GF102991001001999999001011MD1410001+9999MW1021
0057029720999991963030112004+60517+022267FM-12+005499999V0203201N00411220001CN0300001N9+00391-00221102741ADDAY121999GF107991001001999999001061MD1710041+9999MW1031
0057029720999991963030115004+60517+022267FM-12+005499999V0203101N00511220001CN0300001N9+00281-00111102691ADDAY121999GF106991011001999999041061MD1710061+9999MW1021
0070029720999991963030118004+60517+022267FM-12+005499999V0203101N00511220001CN0300001N9-00111-00391102721ADDAY121999GF104991011001999999041011KA1999M+00391MD1210021+9999MW1021
0057029720999991963030121004+60517+022267FM-12+005499999V0203001N00411220001CN0250001N9-00391-00501102681ADDAY101999GF103991001001999999001011MD1810021+9999MW1021
0057029720999991963030200004+60517+022267FM-12+005499999V0203001N00311220001CN0200001N9-00391-00781102511ADDAY101999GF106991021001999999041061MD1710171+9999MW1031
0057029720999991963030203004+60517+022267FM-12+005499999V0203001N00311075001CN0200001N9-00391-00781102421ADDAY121999GF107991021001999999041061MD1710091+9999MW1021
0070029720999991963030206004+60517+022267FM-12+005499999V0203201N00411075001CN0300001N9-00281-00721102351ADDAY121999GF107991041001999999041061KA1999N-00501MD1710061+9999MW1021
0057029720999991963030209004+60517+022267FM-12+005499999V0203101N00311024001CN0300001N9+00001-00391102281ADDAY121999GF107991061001999999041061MD1210061+9999MW1021
0057029720999991963030212004+60517+022267FM-12+005499999V0203001N00311024001CN0300001N9+00281-00281102201ADDAY121999GF108991051001999999071061MD1710081+9999MW1031
0057029720999991963030215004+60517+022267FM-12+005499999V0203101N00311004501CN0150001N9+00111-00111102141ADDAY161999GF108991061051004501021999MD1710051+9999MW1681
0081029720999991963030218004+60517+022267FM-12+005499999V0203101N00311030001CN0200001N9+00111-00391102071ADDAA199000391AY171999GF108991041051004501021999KA1999M+00281MD1710071+9999MW1021
0057029720999991963030221004+60517+022267FM-12+005499999V0202801N00211030001CN0050001N9-00111-00221101911ADDAY171999GF108991041051004501021999MD1710161+9999MW1731
0057029720999991963030300004+60517+022267FM-12+005499999V0203001N00511004501CN0100001N9+00001-00111101711ADDAY171999GF108991051051004501071999MD1710201+9999MW1711
0057029720999991963030303004+60517+022267FM-12+005499999V0203001N00511220001CN0250001N9+00001-00221101521ADDAY171999GF103991021051008001041001MD1710191+9999MW1011
0081029720999991963030306004+60517+022267FM-12+005499999V0203401N00621220001CN0200001N9-00111-00221101431ADDAA199001091AY101999GF103991011051004501041001KA1999N-00111MD1710091+9999MW1021
0057029720999991963030309004+60517+022267FM-12+005499999V0203501N00411220001CN0400001N9+00111-00111101471ADDAY111999GF102991011051004501041001MD1210051+9999MW1011
0057029720999991963030312004+60517+022267FM-12+005499999V0200201N00621220001CN0500001N9+00281-00221101601ADDAY101999GF103991021051004501001011MD1210131+9999MW1021
0057029720999991963030315004+60517+022267FM-12+005499999V0200401N00511004501CN0400001N9+00001-00281101751ADDAY111999GF107991071051004501999999MD1210141+9999MW1031
0070029720999991963030318004+60517+022267FM-12+005499999V0203601N00211030001CN0300001N9-00111-00281101861ADDAY121999GF106991031051004501041001KA1999M+00281MD1210111+9999MW1011
0057029720999991963030321004+60517+022267FM-12+005499999V0203601N00211002401CN0200001N9-00221-00281101921ADDAY121999GF108991081061002501999999MD1210061+9999MW1031
0057029720999991963030400004+60517+022267FM-12+005499999V0209991C00001002401CN0200001N9-00281-00391101891ADDAY121999GF108991081061002501999999MD1710031+9999MW1021
0057029720999991963030403004+60517+022267FM-12+005499999V0200201N00101004501CN0100001N9-00281-00391101921ADDAY171999GF108991081061004501999999MD1210021+9999MW1711
0081029720999991963030406004+60517+022267FM-12+005499999V0200601N00211004501CN0080001N9-00501-00501102061ADDAA199000691AY171999GF106991051061004501041011KA1999N-00611MD1210141+9999MW1011
0057029720999991963030409004+60517+022267FM-12+005499999V0203601N00101000601CN0080001N9-00391-00391102161ADDAY141999GF108991081061000751999999MD1110101+9999MW1101
0049029720999991963030412004+60517+022267FM-12+005499999V0202301N00261000601CN0020001N9-00281-00391102211ADDGF108991081061000751999999MD1210051+9999MW1101
0057029720999991963030415004+60517+022267FM-12+005499999V0202401N00311000601CN0015001N9-00391-00391102201ADDAY121999GF108991081061000751999999MD1810021+9999MW1101
0070029720999991963030418004+60517+022267FM-12+005499999V0202301N00411000601CN0012001N9-00391-00391102101ADDAY121999GF108991081061000751999999KA1999M-00281MD1710091+9999MW1101
0057029720999991963030421004+60517+022267FM-12+005499999V0202301N00311000151CN0003001N9-00391-00391102031ADDAY141999GF109991091999000251999999MD1710071+9999MW1471
0057029720999991963030500004+60517+022267FM-12+005499999V0202301N00211000601CN0040001N9-00281-00281101931ADDAY141999GF108991081061000751999999MD1710101+9999MW1101
0057029720999991963030503004+60517+022267FM-12+005499999V0202501N00211000601CN0040001N9-00391-00391101831ADDAY121999GF108991081061000751999999MD1710101+9999MW1101
0070029720999991963030506004+60517+022267FM-12+005499999V0202701N00101000151CN0004001N9-00501-00611101781ADDAY141999GF109991091999000251999999KA1999N-00611MD1710051+9999MW1451
0057029720999991963030509004+60517+022267FM-12+005499999V0202301N00101220001CN0070001N9-00391-00501101821ADDAY141999GF103991011061001501001011MD1210041+9999MW1011
0057029720999991963030515004+60517+022267FM-12+005499999V0202801N00311220001CN0250001N9+00221-00221101771ADDAY121999GF106991001001999999001011MD1710071+9999MW1021
0070029720999991963030518004+60517+022267FM-12+005499999V0202601N00311220001CN0150001N9-00221-00281101831ADDAY121999GF101991001001999999001011KA1999M+00391MD1210051+9999MW1011
0057029720999991963030521004+60517+022267FM-12+005499999V0202301N00211220001CN0030001N9-00391-00501101821ADDAY101999GF100991001001999999001001MD1710021+9999MW1101
0057029720999991963030600004+60517+022267FM-12+005499999V0202001N00211220001CN0100001N9-00611-00611101651ADDAY101999GF100991001001999999001001MD1710171+9999MW1021
0057029720999991963030603004+60517+022267FM-12+005499999V0202101N00411220001CN0100001N9-00781-00781101531ADDAY101999GF100991001001999999001001MD1710131+9999MW1021
0070029720999991963030606004+60517+022267FM-12+005499999V0201901N00311000151CN0007001N9-00281-00391101141ADDAY141999GF109991091999000251999999KA1999N-00781MD1710381+9999MW1451
0057029720999991963030609004+60517+022267FM-12+005499999V0202001N00621000601CN0010001N9+00001+00001100751ADDAY171999GF108991081071000751999999MD1710391+9999MW1601
0057029720999991963030615004+60517+022267FM-12+005499999V0202401N00621000151CN0004001N9+00111+00111099861ADDAY161999GF108991081071000251999999MD1710421+9999MW1511
0081029720999991963030618004+60517+022267FM-12+005499999V0202601N00621000151CN0012001N9+00111+00111099651ADDAA199002091AY151999GF108991081061000251999999KA1999M+00221MD1710021+9999MW1201
0057029720999991963030621004+60517+022267FM-12+005499999V0202701N00621001501CN0100001N9+00221+00111099541ADDAY121999GF108991081061001501999999MD1710121+9999MW1021
0057029720999991963030700004+60517+022267FM-12+005499999V0202701N00621001501CN0100001N9+00111+00111099531ADDAY121999GF108991081061001501999999MD1710011+9999MW1021
0057029720999991963030703004+60517+022267FM-12+005499999V0203001N00511030001CN0150001N9+00001+00001099511ADDAY121999GF107991031061002501071999MD1610021+9999MW1011
0081029720999991963030706004+60517+022267FM-12+005499999V0203001N00411004501CN0200001N9+00001-00111099541ADDAA199000391AY121999GF108991061061004501071999KA1999N-00111MD1210031+9999MW1021
0057029720999991963030709004+60517+022267FM-12+005499999V0202901N00411004501CN0200001N9+00221+00001099621ADDAY121999GF108991061061004501071999MD1210081+9999MW1021
0057029720999991963030712004+60517+022267FM-12+005499999V0202701N00311030001CN0300001N9+00501+00111099691ADDAY121999GF106991031051004501041011MD1210081+9999MW1011
0057029720999991963030715004+60517+022267FM-12+005499999V0202301N00411220001CN0400001N9+00391+00001099571ADDAY101999GF101991011001999999041011MD1810121+9999MW1011
0070029720999991963030718004+60517+022267FM-12+005499999V0202101N00311024001CN0200001N9+00001-00111099471ADDAY101999GF106991051001999999041011KA1999M+00611MD1710111+9999MW1031
0057029720999991963030721004+60517+022267FM-12+005499999V0202201N00311024001CN0200001N9+00001-00111099301ADDAY121999GF106991061001999999041001MD1710171+9999MW1021
0057029720999991963030800004+60517+022267FM-12+005499999V0202401N00311220001CN0150001N9-00111-00221099211ADDAY121999GF107991041001999999041011MD1710091+9999MW1021
0057029720999991963030803004+60517+022267FM-12+005499999V0203001N00311024001CN0080001N9+00001+00001099141ADDAY161999GF108991081001999999021999MD1710071+9999MW1681
0081029720999991963030806004+60517+022267FM-12+005499999V0203601N00981220001CN0200001N9-00221-00391099531ADDAA199001091AY171999GF104991031061002501041001KA1999N-00281MD1210381+9999MW1011
0057029720999991963030809004+60517+022267FM-12+005499999V0203401N00931004501CN0300001N9-00391-00781099871ADDAY121999GF106991061051004501001001MD1210341+9999MW1031
0057029720999991963030812004+60517+022267FM-12+005499999V0203401N00931004501CN0400001N9-00501-01001100131ADDAY121999GF106991061051004501001001MD1210351+9999MW1021
0057029720999991963030815004+60517+022267FM-12+005499999V0203501N01031004501CN0400001N9-00611-01111100441ADDAY181999GF106991061051004501001001MD1210301+9999MW1261
0081029720999991963030818004+60517+022267FM-12+005499999V0203601N01031004501CN0150001N9-00721-01001100731ADDAA199000691AY171999GF107991071051004501001001KA1999M-00221MD1210291+9999MW1721
0057029720999991963030821004+60517+022267FM-12+005499999V0200201N00821007801CN0300001N9-00781-01221101091ADDAY171999GF105991051051008001001001MD1210361+9999MW1701
0057029720999991963030900004+60517+022267FM-12+005499999V0203601N00821220001CN0300001N9-01001-01391101401ADDAY121999GF100991001001999999001001MD1210301+9999MW1011
0057029720999991963030903004+60517+022267FM-12+005499999V0200101N00411220001CN0300001N9-01281-01781101711ADDAY101999GF100991001001999999001001MD1210311+9999MW1021
0070029720999991963030906004+60517+022267FM-12+005499999V0200201N00411220001CN0400001N9-01501-01721101891ADDAY101999GF100991001001999999001001KA1999N-01611MD1210171+9999MW1021
0057029720999991963030909004+60517+022267FM-12+005499999V0200501N00411220001CN0500001N9-01111-01721102011ADDAY101999GF100991001001999999001001MD1210141+9999MW1021
0057029720999991963030912004+60517+022267FM-12+005499999V0200201N00211220001CN0500001N9-00781-01891102021ADDAY101999GF100991001001999999001001MD1110011+9999MW1021
0057029720999991963030915004+60517+022267FM-12+005499999V0200401N00101220001CN0500001N9-00611-01891101951ADDAY101999GF100991001001999999001001MD1710061+9999MW1021
0070029720999991963030918004+60517+022267FM-12+005499999V0201401N00101220001CN0300001N9-01221-02001101941ADDAY101999GF100991001001999999001001KA1999M-00501MD1710031+9999MW1021
0057029720999991963030921004+60517+022267FM-12+005499999V0202301N00101220001CN0300001N9-01611-01891101981ADDAY101999GF100991001001999999001001MD1210031+9999MW1021
0057029720999991963031000004+60517+022267FM-12+005499999V0209991C00001220001CN0300001N9-02001-02221101941ADDAY101999GF100991001001999999001001MD1710051+9999MW1021
0057029720999991963031003004+60517+022267FM-12+005499999V0201801N00101220001CN0300001N9-02111-02221101831ADDAY101999GF100991001001999999001001MD1710121+9999MW1021
0057029720999991963031009004+60517+022267FM-12+005499999V0201901N00311220001CN0150001N9-00891-01391101671ADDAY101999GF101991011001999999041011MD1710021+9999MW1021
0057029720999991963031012004+60517+022267FM-12+005499999V0202001N00511220001CN0400001N9-00781-01111101561ADDAY101999GF101991011011008001041011MD1710101+9999MW1021
0057029720999991963031015004+60517+022267FM-12+005499999V0201801N00621220001CN0400001N9-00721-01111101361ADDAY101999GF101991011001999999041011MD1710201+9999MW1021
0070029720999991963031018004+60517+022267FM-12+005499999V0201801N00511220001CN0400001N9-01001-01281101221ADDAY101999GF101991011001999999041011KA1999M-00501MD1710151+9999MW1021
0057029720999991963031021004+60517+022267FM-12+005499999V0201801N00311220001CN0400001N9-01111-01281101101ADDAY101999GF104991001001999999001011MD1710121+9999MW1031
0057029720999991963031100004+60517+022267FM-12+005499999V0201601N00411220001CN0400001N9-01221-01391101021ADDAY111999GF103991001001999999001011MD1710081+9999MW1011
0057029720999991963031103004+60517+022267FM-12+005499999V0201601N00311220001CN0400001N9-01281-01391100821ADDAY101999GF104991001001999999001011MD1710211+9999MW1031
0070029720999991963031106004+60517+022267FM-12+005499999V0201201N00311024001CN0300001N9-01281-01391100711ADDAY121999GF107991061001999999071011KA1999N-01501MD1710101+9999MW1031
0057029720999991963031109004+60517+022267FM-12+005499999V0201401N00311030001CN0250001N9-01001-01111100651ADDAY171999GF108991031051008001071999MD1710061+9999MW1771
0057029720999991963031112004+60517+022267FM-12+005499999V0201701N00311220001CN0200001N9-00891-01221100881ADDAY111999GF103991001001999999001051MD1810201+9999MW1031
0057029720999991963031115004+60517+022267FM-12+005499999V0201601N00311030001CN0100001N9-00611-00721100491ADDAY171999GF108991041051004501021999MD1710061+9999MW1711
0081029720999991963031118004+60517+022267FM-12+005499999V0201201N00101030001CN0050001N9-00721-00721100451ADDAA199001091AY171999GF108991041051004501021999KA1999M-00501MD1710041+9999MW1711
0057029720999991963031121004+60517+022267FM-12+005499999V0201201N00211004501CN0030001N9-00721-00781100351ADDAY171999GF108991081051004501999999MD1710101+9999MW1731
0057029720999991963031200004+60517+022267FM-12+005499999V0201101N00101030001CN0040001N9-00721-00781100171ADDAY171999GF108991041051004501021999MD1710171+9999MW1711
0081029720999991963031206004+60517+022267FM-12+005499999V0200601N00211004501CN0020001N9-00721-00781099961ADDAA199002091AY171999GF108991081051004501999999KA1999N-00781MD1710141+9999MW1731
0057029720999991963031209004+60517+022267FM-12+005499999V0200601N00311030001CN0030001N9-00611-00721099871ADDAY171999GF108991021051004501011999MD1710091+9999MW1731
0057029720999991963031212004+60517+022267FM-12+005499999V0200301N00411002401CN0030001N9-00391-00611099861ADDAY171999GF108991051061002501071999MD1410001+9999MW1731
0057029720999991963031215004+60517+022267FM-12+005499999V0200401N00411030001CN0050001N9-00391-00611099871ADDAY171999GF107991041061002501071999MD1210011+9999MW1711
0081029720999991963031218004+60517+022267FM-12+005499999V0200601N00511002401CN0060001N9-00611-00721099951ADDAA199001091AY171999GF108991061061002501071999KA1999M-00391MD1210071+9999MW1711
0057029720999991963031221004+60517+022267FM-12+005499999V0200601N00621002401CN0060001N9-00721-00891100021ADDAY171999GF108991061061002501071999MD1210071+9999MW1711
0057029720999991963031300004+60517+022267FM-12+005499999V0200601N00621004501CN0100001N9-00781-00891100171ADDAY171999GF108991081051004501999999MD1210151+9999MW1221
0057029720999991963031303004+60517+022267FM-12+005499999V0200601N00621220001CN0300001N9-01111-01281100301ADDAY121999GF101991001001999999001011MD1210111+9999MW1011
0057029720999991963031309004+60517+022267FM-12+005499999V0200401N00871220001CN0400001N9-01001-01281100771ADDAY101999GF101991001001999999001011MD1210261+9999MW1011
0057029720999991963031312004+60517+022267FM-12+005499999V0200601N00981220001CN0400001N9-00781-01281100991ADDAY101999GF101991001001999999001011MD1210231+9999MW1021
0057029720999991963031315004+60517+022267FM-12+005499999V0200301N00821220001CN0400001N9-00781-01501101161ADDAY101999GF100991001001999999001001MD1210171+9999MW1021
0070029720999991963031318004+60517+022267FM-12+005499999V0203601N00721220001CN0300001N9-01221-01891101451ADDAY101999GF100991001001999999001001KA1999M-00721MD1210271+9999MW1021
0057029720999991963031321004+60517+022267FM-12+005499999V0203601N00621220001CN0300001N9-01391-02001101741ADDAY101999GF100991001001999999001001MD1210281+9999MW1021
0057029720999991963031400004+60517+022267FM-12+005499999V0203601N00621220001CN0300001N9-01611-02111101951ADDAY101999GF100991001001999999001001MD1210211+9999MW1021
0057029720999991963031403004+60517+022267FM-12+005499999V0200101N00411220001CN0300001N9-01781-02281102151ADDAY101999GF100991001001999999001001MD1210191+9999MW1021
0070029720999991963031406004+60517+022267FM-12+005499999V0200101N00311220001CN0400001N9-02001-02501102361ADDAY101999GF100991001001999999001001KA1999N-02111MD1210201+9999MW1021
0057029720999991963031409004+60517+022267FM-12+005499999V0200201N00311220001CN0500001N9-01281-01891102541ADDAY101999GF100991001001999999001001MD1210201+9999MW1021
0057029720999991963031412004+60517+022267FM-12+005499999V0203101N00411220001CN0500001N9-00781-01781102551ADDAY101999GF100991001001999999001001MD1210021+9999MW1021
0057029720999991963031415004+60517+022267FM-12+005499999V0203001N00411220001CN0500001N9-00781-01501102541ADDAY101999GF100991001001999999001001MD1110011+9999MW1021
0070029720999991963031418004+60517+022267FM-12+005499999V0202701N00311220001CN0300001N9-01221-01501102591ADDAY101999GF100991001001999999001001KA1999M-00721MD1210041+9999MW1021
0057029720999991963031421004+60517+022267FM-12+005499999V0202801N00311220001CN0300001N9-01501-01611102671ADDAY101999GF100991001001999999001001MD1210081+9999MW1021
0076029720999991963031500004+60517+022267FM-12+005499999V0202401N00211220001CN0300001N9-01611-01721102671ADDAY101999GF100991001001999999001001MD1410001+9999MW1021EQDQ01+000012APC3  
0057029720999991963031503004+60517+022267FM-12+005499999V0202401N00211220001CN0300001N9-01781-01891102711ADDAY101999GF100991001001999999001001MD1210041+9999MW1021
0070029720999991963031506004+60517+022267FM-12+005499999V0202201N00211220001CN0200001N9-01891-02281102751ADDAY101999GF101991001001999999001011KA1999N-02111MD1210031+9999MW1021
0057029720999991963031509004+60517+022267FM-12+005499999V0202201N00101220001CN0150001N9-00781-01501102821ADDAY101999GF101991001001999999001011MD1210101+9999MW1051
0057029720999991963031512004+60517+022267FM-12+005499999V0202201N00311220001CN0300001N9-00281-01221102801ADDAY101999GF101991001001999999001011MD1410001+9999MW1021
0057029720999991963031515004+60517+022267FM-12+005499999V0202301N00411220001CN0400001N9-00391-01391102761ADDAY101999GF101991001001999999001011MD1710051+9999MW1021
0070029720999991963031518004+60517+022267FM-12+005499999V0201901N00411220001CN0400001N9-00891-01281102731ADDAY101999GF101991001001999999001011KA1999M-00221MD1710041+9999MW1021
0057029720999991963031521004+60517+022267FM-12+005499999V0201901N00411220001CN0300001N9-01001-01111102651ADDAY101999GF100991001001999999001001MD1710081+9999MW1011
0057029720999991963031600004+60517+022267FM-12+005499999V0202001N00411075001CN0300001N9-00721-00781102551ADDAY111999GF107991041001999999071061MD1710101+9999MW1031
0057029720999991963031603004+60517+022267FM-12+005499999V0202301N00721024001CN0300001N9-00501-00721102451ADDAY121999GF108991081001999999071999MD1710091+9999MW1031
0070029720999991963031606004+60517+022267FM-12+005499999V0202201N00721002401CN0300001N9-00391-00611102421ADDAY121999GF108991051061002501021999KA1999N-01111MD1710031+9999MW1021
0057029720999991963031612004+60517+022267FM-12+005499999V0202501N00721030001CN0400001N9-00221-00721102581ADDAY121999GF108991041051004501071999MD1210091+9999MW1021
0057029720999991963031615004+60517+022267FM-12+005499999V0202401N00411030001CN0400001N9-00111-00611102581ADDAY121999GF108991041051004501071999MD1410001+9999MW1021
0070029720999991963031618004+60517+022267FM-12+005499999V0202201N00411030001CN0300001N9-00221-00501102671ADDAY121999GF108991021051004501041071KA1999M-00111MD1210091+9999MW1021
0057029720999991963031621004+60517+022267FM-12+005499999V0201801N00211030001CN0300001N9-00391-00611102811ADDAY121999GF107991021051008001041999MD1210131+9999MW1031
0057029720999991963031700004+60517+022267FM-12+005499999V0201801N00101024001CN0300001N9-00391-00501102911ADDAY121999GF108991081001999999071999MD1210101+9999MW1031
0057029720999991963031703004+60517+022267FM-12+005499999V0201801N00101024001CN0300001N9-00391-00501103021ADDAY121999GF107991071001999999071999MD1210111+9999MW1011
0070029720999991963031706004+60517+022267FM-12+005499999V0201201N00211030001CN0100001N9-00501-00611103141ADDAY121999GF106991041061004501041011KA1999N-00721MD1210121+9999MW1011
0057029720999991963031709004+60517+022267FM-12+005499999V0201301N00721002401CN0080001N9-00501-00721103331ADDAY171999GF108991051061002501071999MD1210191+9999MW1771
0057029720999991963031712004+60517+022267FM-12+005499999V0201301N00621004501CN0300001N9-00501-01111103491ADDAY171999GF108991051051004501071999MD1210161+9999MW1021
0057029720999991963031715004+60517+022267FM-12+005499999V0201101N00621075001CN0300001N9-00721-01281103561ADDAY121999GF107991041001999999071021MD1210061+9999MW1021
0070029720999991963031718004+60517+022267FM-12+005499999V0201201N00621220001CN0300001N9-01001-01891103701ADDAY111999GF102991001001999999001011KA1999M-00281MD1210131+9999MW1011
0057029720999991963031721004+60517+022267FM-12+005499999V0201201N00511220001CN0300001N9-01281-01891103761ADDAY101999GF100991001001999999001001MD1210061+9999MW1011
0057029720999991963031800004+60517+022267FM-12+005499999V0201201N00621220001CN0300001N9-01501-02001103771ADDAY101999GF100991001001999999001001MD1410001+9999MW1021
0057029720999991963031803004+60517+022267FM-12+005499999V0201101N00411220001CN0300001N9-01721-02281103751ADDAY101999GF101991001001999999001011MD1710031+9999MW1031
0070029720999991963031806004+60517+022267FM-12+005499999V0201101N00411220001CN0400001N9-01781-02221103661ADDAY101999GF104991021001999999041011KA1999N-01891MD1710091+9999MW1031
0057029720999991963031812004+60517+022267FM-12+005499999V0201201N00621220001CN0400001N9-01001-01781103481ADDAY101999GF102991001001999999001011MD1710171+9999MW1011
0057029720999991963031815004+60517+022267FM-12+005499999V0201501N00411220001CN0400001N9-00891-01781103311ADDAY101999GF102991011001999999041011MD1710171+9999MW1021
0070029720999991963031818004+60517+022267FM-12+005499999V0201401N00311024001CN0400001N9-01281-02221103211ADDAY111999GF106991051001999999051011KA1999M-00891MD1810101+9999MW1031
0057029720999991963031821004+60517+022267FM-12+005499999V0201201N00211220001CN0300001N9-01611-02221103131ADDAY101999GF100991001001999999001001MD1710091+9999MW1011
0057029720999991963031900004+60517+022267FM-12+005499999V0200901N00311220001CN0300001N9-01891-02281103041ADDAY101999GF100991001001999999001001MD1710101+9999MW1021
0057029720999991963031903004+60517+022267FM-12+005499999V0200901N00211220001CN0300001N9-02221-02281102941ADDAY101999GF100991001001999999001001MD1710101+9999MW1021
0070029720999991963031906004+60517+022267FM-12+005499999V0201101N00311220001CN0150001N9-02001-02221102891ADDAY101999GF104991001001999999001051KA1999N-02221MD1710051+9999MW1031
0057029720999991963031909004+60517+022267FM-12+005499999V0201201N00511220001CN0300001N9-01281-02221102881ADDAY101999GF104991001001999999001051MD1210011+9999MW1021
0057029720999991963031912004+60517+022267FM-12+005499999V0201601N00411220001CN0300001N9-00891-02001102781ADDAY111999GF105991001001999999001051MD1810091+9999MW1031
