0057029720999991959010100004+60517+022267FM-12+005499999V0201601N00311007801CN0150001N9+00111+00111099881ADDAY121999GF108991081051008001999999MD1710221+9999MW1021
0057029720999991959010103004+60517+022267FM-12+005499999V0201601N00511001501CN0100001N9+00221+00111099521ADDAY161999GF108991081061001501999999MD1710351+9999MW1631
0081029720999991959010106004+60517+022267FM-12+005499999V0201401N00621000601CN0070001N9+00111+00111098971ADDAA199000391AY161999GF108991081061000751999999KA1999N+00001MD1710551+9999MW1681
0057029720999991959010109004+60517+022267FM-12+005499999V0201201N00621001501CN0012001N9+00111+00001099471ADDAY171999GF108991081071001501999999MD1810501+9999MW1691
0076029720999991959010112004+60517+022267FM-12+005499999V0201401N00411000601CN0050001N9+00001+00001098122ADDAY171999GF108991081061000751999999MD1710341+9999MW1021EQDQ01+098123APOSLP
0057029720999991959010115004+60517+022267FM-12+005499999V0202301N00311000601CN0020001N9+00001+00001098141ADDAY171999GF108991081061000751999999MD1310021+9999MW1681
0081029720999991959010118004+60517+022267FM-12+005499999V0202301N00311000601CN0020001N9+00001+00001098171ADDAA199006091AY171999GF108991081061000751999999KA1999M+00111MD1210031+9999MW1681
0057029720999991959010121004+60517+022267FM-12+005499999V0202501N00211001501CN0030001N9+00001+00001098171ADDAY171999GF108991081061001501999999MD1010011+9999MW1521
0057029720999991959010200004+60517+022267FM-12+005499999V0202901N00411000601CN0020001N9+00001+00001098321ADDAY151999GF108991081061000751999999MD1210141+9999MW1501
0057029720999991959010203004+60517+022267FM-12+005499999V0202901N00511001501CN0030001N9+00111+00001098481ADDAY151999GF108991081061001501999999MD1210011+9999MW1601
0081029720999991959010206004+60517+022267FM-12+005499999V0202501N00411001501CN0030001N9+00001+00001099091ADDAA199001091AY171999GF108991081061001501999999KA1999N+00001MD1210611+9999MW1681
0057029720999991959010209004+60517+022267FM-12+005499999V0202501N00211030001CN0150001N9-00111-00221099211ADDAY121999GF106991041051002501041001MD1210121+9999MW1011
0057029720999991959010212004+60517+022267FM-12+005499999V0202001N00101004501CN0150001N9-00111-00221099211ADDAY121999GF106991061051004501041011MD1410001+9999MW1021
0057029720999991959010215004+60517+022267FM-12+005499999V0201401N00311002401CN0150001N9-00221-00221099191ADDAY121999GF108991081061002501999999MD1810031+9999MW1701
0081029720999991959010218004+60517+022267FM-12+005499999V0201401N00311000151CN0040001N9+00001+00001098931ADDAA199001091AY171999GF109991091999000251999999KA1999M+00001MD1710221+9999MW1731
0057029720999991959010221004+60517+022267FM-12+005499999V0201401N00511001501CN0040001N9+00111+00111098921ADDAY171999GF108991081061001501999999MD1710061+9999MW1681
0057029720999991959010300004+60517+022267FM-12+005499999V0201401N00211001501CN0040001N9+00221+00111098881ADDAY161999GF108991081061001501999999MD1710031+9999MW1631
0057029720999991959010303004+60517+022267FM-12+005499999V0201401N00211001501CN0040001N9+00111+00001098771ADDAY161999GF108991081061001501999999MD1710091+9999MW1611
0081029720999991959010306004+60517+022267FM-12+005499999V0201201N00311000601CN0012001N9+00001+00001098561ADDAA199010091AY171999GF109991091999000751999999KA1999N-00111MD1710211+9999MW1781
0057029720999991959010309004+60517+022267FM-12+005499999V0201401N00311000601CN0020001N9+00001+00001098461ADDAY171999GF108991081061000751999999MD1710101+9999MW1681
0057029720999991959010312004+60517+022267FM-12+005499999V0201401N00311030001CN0200001N9+00001+00001098691ADDAY171999GF107991041061001501041011MD1210131+9999MW1231
0057029720999991959010315004+60517+022267FM-12+005499999V0201401N00311002401CN0060001N9+00001+00001098811ADDAY111999GF107991071061002501999999MD1210121+9999MW1011
0100029720999991959010318004+60517+022267FM-12+005499999V0201801N00511001501CN0080001N9+00221+00111098821ADDAA199006091AY171999GF108991081061001501999999KA1999M+99999MD1210011+9999MW1021EQDQ01 +00112ATMX  
0057029720999991959010321004+60517+022267FM-12+005499999V0201601N00511002401CN0150001N9+00221+00111098841ADDAY121999GF108991081061002501999999MD1310021+9999MW1031
0057029720999991959010400004+60517+022267FM-12+005499999V0201401N00511002401CN0070001N9+00221+00111098791ADDAY171999GF108991081061002501999999MD1810051+9999MW1681
0057029720999991959010403004+60517+022267FM-12+005499999V0201401N00721004501CN0100001N9+00221+00111098801ADDAY171999GF108991081061004501999999MD1310011+9999MW1231
0081029720999991959010406004+60517+022267FM-12+005499999V0201601N00721001501CN0060001N9+00111+00001098781ADDAA199003091AY171999GF108991081061001501999999KA1999N+00111MD1810021+9999MW1681
0057029720999991959010409004+60517+022267FM-12+005499999V0201601N00821001501CN0016001N9+00001+00001098901ADDAY171999GF108991081061001501999999MD1210121+9999MW1681
0057029720999991959010412004+60517+022267FM-12+005499999V0201601N00621001501CN0080001N9+00111+00111098941ADDAY171999GF108991081061001501999999MD1210041+9999MW1601
0057029720999991959010415004+60517+022267FM-12+005499999V0201801N00511001501CN0070001N9+00111+00111099131ADDAY171999GF108991081061001501999999MD1210191+9999MW1681
0081029720999991959010418004+60517+022267FM-12+005499999V0201801N00311001501CN0080001N9+00111+00111099281ADDAA199008091AY171999GF108991081061001501999999KA1999M+00111MD1210011+9999MW1231
0057029720999991959010421004+60517+022267FM-12+005499999V0201801N00211001501CN0030001N9+00001+00001099411ADDAY171999GF108991081061001501999999MD1210111+9999MW1681
0057029720999991959010500004+60517+022267FM-12+005499999V0201601N00411002401CN0150001N9+00001+00001099471ADDAY171999GF108991081061002501999999MD1210061+9999MW1021
0057029720999991959010503004+60517+022267FM-12+005499999V0201401N00411001501CN0150001N9+00001+00001099501ADDAY121999GF108991081061001501999999MD1210031+9999MW1021
0081029720999991959010506004+60517+022267FM-12+005499999V0201401N00411004501CN0100001N9-00111-00111099461ADDAA199004091AY171999GF108991061061004501071999KA1999N-00111MD1710041+9999MW1221
0057029720999991959010509004+60517+022267FM-12+005499999V0201401N00101030001CN0200001N9-00221-00221099341ADDAY121999GF108991031051004501041071MD1710121+9999MW1011
0057029720999991959010512004+60517+022267FM-12+005499999V0201601N00211002401CN0080001N9-00111-00221099121ADDAY121999GF108991081061002501999999MD1710161+9999MW1021
0057029720999991959010515004+60517+022267FM-12+005499999V0201601N00101002401CN0080001N9-00221-00221098961ADDAY121999GF108991081061002501999999MD1710081+9999MW1021
0081029720999991959010518004+60517+022267FM-12+005499999V0201401N00101001501CN0040001N9-00221-00221098891ADDAA199000691AY121999GF108991081061001501999999KA1999M+00001MD1710081+9999MW1701
0057029720999991959010521004+60517+022267FM-12+005499999V0202701N00511002401CN0050001N9-00221-00281098961ADDAY171999GF108991081061002501999999MD1210071+9999MW1681
0057029720999991959010600004+60517+022267FM-12+005499999V0202301N00511004501CN0200001N9-00501-00721099221ADDAY171999GF107991071051004501999999MD1210241+9999MW1021
0057029720999991959010603004+60517+022267FM-12+005499999V0201401N00211007801CN0200001N9-00501-00611099261ADDAY171999GF107991061051008001071999MD1010041+9999MW1221
0081029720999991959010606004+60517+022267FM-12+005499999V0201101N00311002401CN0070001N9-00281-00391099051ADDAA199001091AY171999GF108991081061002501999999KA1999N-00501MD1710211+9999MW1711
0057029720999991959010609004+60517+022267FM-12+005499999V0201101N00411002401CN0030001N9-00111-00111099071ADDAY171999GF108991081061002501999999MD1210011+9999MW1721
0057029720999991959010612004+60517+022267FM-12+005499999V0202001N00411075001CN0080001N9-00221-00221099001ADDAY171999GF107991041031002501001061MD1710051+9999MW1011
0057029720999991959010615004+60517+022267FM-12+005499999V0201801N00311002401CN0050001N9-00281-00281099071ADDAY171999GF107991051061002501001071MD1210071+9999MW1701
0081029720999991959010618004+60517+022267FM-12+005499999V0201801N00311002401CN0080001N9-00221-00221099101ADDAA199004091AY171999GF108991061061002501021999KA1999M-00111MD1210031+9999MW1731
0057029720999991959010621004+60517+022267FM-12+005499999V0201801N00311220001CN0100001N9-00281-00281099141ADDAY171999GF103991021061002501021011MD1210041+9999MW1221
0057029720999991959010700004+60517+022267FM-12+005499999V0201801N00211220001CN0200001N9-00501-00611099301ADDAY111999GF102991011061004501021001MD1210061+9999MW1011
0057029720999991959010703004+60517+022267FM-12+005499999V0202001N00211004501CN0200001N9-00391-00501099331ADDAY121999GF107991071051004501999999MD1210101+9999MW1021
0081029720999991959010706004+60517+022267FM-12+005499999V0202301N00411002401CN0050001N9-00281-00281099411ADDAA199001091AY171999GF108991081061002501999999KA1999N-00721MD1210081+9999MW1731
0057029720999991959010709004+60517+022267FM-12+005499999V0202501N00511002401CN0150001N9-00391-00501099631ADDAY171999GF108991081061002501999999MD1210221+9999MW1021
0057029720999991959010715004+60517+022267FM-12+005499999V0201801N00411004501CN0070001N9-00281-00391099601ADDAY121999GF108991061061004501071999MD1810061+9999MW1711
0081029720999991959010718004+60517+022267FM-12+005499999V0202201N00511004501CN0150001N9-00111-00391099541ADDAA199000591AY171999GF108991081051004501999999KA1999M-00111MD1710041+9999MW1021
0057029720999991959010721004+60517+022267FM-12+005499999V0202301N00411004501CN0080001N9-00281-00391099631ADDAY121999GF107991071051004501999999MD1210071+9999MW1011
0057029720999991959010800004+60517+022267FM-12+005499999V0202301N00311004501CN0070001N9-00391-00501099771ADDAY121999GF108991081061004501999999MD1210141+9999MW1021
0057029720999991959010803004+60517+022267FM-12+005499999V0202301N00311001501CN0070001N9-00281-00281099921ADDAY121999GF108991081061001501999999MD1210151+9999MW1021
0070029720999991959010806004+60517+022267FM-12+005499999V0202001N00311004501CN0100001N9-00611-00721100061ADDAY121999GF106991061051004501999999KA1999N-00611MD1210141+9999MW1031
0057029720999991959010809004+60517+022267FM-12+005499999V0201601N00101030001CN0080001N9-00501-00611100231ADDAY121999GF107991031051004501041061MD1210171+9999MW1011
0057029720999991959010812004+60517+022267FM-12+005499999V0201401N00101075001CN0050001N9-00721-00781100291ADDAY121999GF107991021001999999041021MD1210061+9999MW1051
0057029720999991959010815004+60517+022267FM-12+005499999V0200901N00101075001CN0100001N9-00781-00781100401ADDAY121999GF106991031001999999041021MD1210091+9999MW1011
0070029720999991959010818004+60517+022267FM-12+005499999V0200901N00311030001CN0150001N9-00721-00781100411ADDAY121999GF108991021051004501071999KA1999M-00391MD1210031+9999MW1031
0057029720999991959010821004+60517+022267FM-12+005499999V0200401N00311004501CN0150001N9-00501-00611100431ADDAY121999GF108991081051004501999999MD1210021+9999MW1021
0057029720999991959010900004+60517+022267FM-12+005499999V0200401N00311004501CN0150001N9-00391-00501100431ADDAY121999GF108991081051004501999999MD1410001+9999MW1021
0057029720999991959010903004+60517+022267FM-12+005499999V0200401N00411004501CN0070001N9-00391-00501100411ADDAY121999GF106991061051004501999999MD1810021+9999MW1711
0081029720999991959010906004+60517+022267FM-12+005499999V0200401N00511004501CN0050001N9-00501-00611100361ADDAA199000591AY171999GF107991071051004501999999KA1999N-00721MD1710051+9999MW1731
0057029720999991959010909004+60517+022267FM-12+005499999V0200201N00411002401CN0070001N9-00501-00611100411ADDAY171999GF108991081061002501999999MD1210051+9999MW1711
0057029720999991959010912004+60517+022267FM-12+005499999V0200201N00311002401CN0070001N9-00501-00501100371ADDAY171999GF108991081071002501999999MD1610041+9999MW1711
0057029720999991959010915004+60517+022267FM-12+005499999V0200401N00311001501CN0012001N9-00391-00501100351ADDAY121999GF108991081061001501999999MD1710021+9999MW1561
0081029720999991959010918004+60517+022267FM-12+005499999V0200401N00311004501CN0100001N9-00281-00281100291ADDAA199001091AY151999GF108991081061004501999999KA1999M-00281MD1710051+9999MW1021
0057029720999991959010921004+60517+022267FM-12+005499999V0200901N00411001501CN0060001N9+00001-00111100161ADDAY171999GF108991081061001501999999MD1710121+9999MW1711
0057029720999991959011000004+60517+022267FM-12+005499999V0201201N00411001501CN0050001N9+00001+00001100111ADDAY171999GF108991081061001501999999MD1710051+9999MW1511
0057029720999991959011003004+60517+022267FM-12+005499999V0201401N00411001501CN0080001N9+00001+00001100091ADDAY171999GF108991081061001501999999MD1710021+9999MW1711
0100029720999991959011006004+60517+022267FM-12+005499999V0201201N00511001501CN0050001N9+00001+00001100091ADDAA199001091AY151999GF108991081061001501999999KA1999N-00221MD1410001+9999MW1681EQDQ01+000022APCTEN
0057029720999991959011009004+60517+022267FM-12+005499999V0200901N00411000151CN0020001N9-00111-00111100151ADDAY121999GF108991081061000251999999MD1210061+9999MW1101
0057029720999991959011012004+60517+022267FM-12+005499999V0200901N00621001501CN0100001N9+00001+00001099951ADDAY121999GF108991081061001501999999MD1710161+9999MW1021
0057029720999991959011015004+60517+022267FM-12+005499999V0200901N00821001501CN0100001N9+00001-00111099691ADDAY121999GF108991081061001501999999MD1710161+9999MW1021
0081029720999991959011018004+60517+022267FM-12+005499999V0200901N00821002401CN0040001N9+00001-00111099381ADDAA199000391AY171999GF108991081061002501999999KA1999M+00001MD1710311+9999MW1691
0057029720999991959011021004+60517+022267FM-12+005499999V0200901N00721002401CN0040001N9-00111-00111099231ADDAY171999GF108991081061002501999999MD1710151+9999MW1691
0057029720999991959011103004+60517+022267FM-12+005499999V0201201N00821004501CN0150001N9+00111+00001099131ADDAY121999GF108991081051004501999999MD1410001+9999MW1011
0081029720999991959011106004+60517+022267FM-12+005499999V0201401N00721007801CN0200001N9+00001-00391099291ADDAA199002091AY121999GF108991081051008001001001KA1999N-00111MD1210161+9999MW1021
0057029720999991959011112004+60517+022267FM-12+005499999V0201401N00621002401CN0002001N9+00001-00221099681ADDAY171999GF108991071061002501071999MD1210181+9999MW1781
0057029720999991959011115004+60517+022267FM-12+005499999V0201801N00411030001CN0150001N9-00221-00611099971ADDAY171999GF107991021061002501071061MD1210291+9999MW1011
0081029720999991959011118004+60517+022267FM-12+005499999V0201401N00311220001CN0150001N9-00281-00391100421ADDAA199001091AY121999GF104991021061004501071999KA1999M+00111MD1210431+9999MW1011
0057029720999991959011121004+60517+022267FM-12+005499999V0201401N00511000601CN0020001N9-00221-00221100631ADDAY171999GF108991081061000751999999MD1210221+9999MW1721
0057029720999991959011200004+60517+022267FM-12+005499999V0201601N00211001501CN0030001N9-00111-00221100781ADDAY171999GF108991081061001501999999MD1210221+9999MW1731
0057029720999991959011203004+60517+022267FM-12+005499999V0201401N00411002401CN0080001N9-00221-00391100941ADDAY171999GF108991081051002501999999MD1210291+9999MW1021
0081029720999991959011206004+60517+022267FM-12+005499999V0201201N00211002401CN0100001N9-00391-00501100891ADDAA199002091AY121999GF107991071051002501999999KA1999N-00391MD1710041+9999MW1031
0057029720999991959011209004+60517+022267FM-12+005499999V0200901N00211004501CN0200001N9-00501-00611100781ADDAY121999GF108991061051004501071999MD1710111+9999MW1021
0057029720999991959011212004+60517+022267FM-12+005499999V0200401N00411002401CN0150001N9-00501-00611100371ADDAY121999GF108991081061002501999999MD1710411+9999MW1021
0057029720999991959011215004+60517+022267FM-12+005499999V0200201N00511002401CN0150001N9-00391-00611099981ADDAY121999GF108991081061002501999999MD1710391+9999MW1021
0081029720999991959011218004+60517+022267FM-12+005499999V0200201N00511002401CN0020001N9-00501-00611099451ADDAA199000391AY171999GF108991081061002501999999KA1999M-00281MD1710531+9999MW1731
0057029720999991959011221004+60517+022267FM-12+005499999V0200201N00721001501CN0008001N9-00501-00611098881ADDAY171999GF108991081061001501999999MD1710571+9999MW1751
0057029720999991959011300004+60517+022267FM-12+005499999V0200401N00511001501CN0020001N9-00501-00611098531ADDAY171999GF108991081061001501999999MD1710341+9999MW1731
0057029720999991959011303004+60517+022267FM-12+005499999V0200701N00621001501CN0030001N9-00501-00611098301ADDAY171999GF108991081061001501999999MD1710231+9999MW1711
0081029720999991959011306004+60517+022267FM-12+005499999V0200701N00621002401CN0060001N9-00501-00721098181ADDAA199001091AY171999GF108991061061002501999999KA1999N-00611MD1710121+9999MW1711
0057029720999991959011309004+60517+022267FM-12+005499999V0200701N00311002401CN0060001N9-00501-00611098171ADDAY171999GF108991051061002501041061MD1710011+9999MW1711
0057029720999991959011312004+60517+022267FM-12+005499999V0200201N00211030001CN0080001N9-00611-00611098111ADDAY171999GF107991031061002501041021MD1710061+9999MW1701
0057029720999991959011315004+60517+022267FM-12+005499999V0203601N00101002401CN0060001N9-00501-00611098121ADDAY171999GF108991081061002501999999MD1210011+9999MW1221
0081029720999991959011318004+60517+022267FM-12+005499999V0203001N00101001501CN0100001N9-00721-00781098191ADDAA199001091AY171999GF108991081061001501999999KA1999M-00501MD1210071+9999MW1711
0057029720999991959011321004+60517+022267FM-12+005499999V0202001N00051220001CN0030001N9-00721-00781098301ADDAY121999GF104991041061000751001001MD1210111+9999MW1111
0057029720999991959011400004+60517+022267FM-12+005499999V0209991C00001220001CN0004001N9-00891-00891098331ADDAY141999GF100991001001999999001001MD1210031+9999MW1441
0057029720999991959011403004+60517+022267FM-12+005499999V0209991C00001001501CN0100001N9-01001-01111098331ADDAY121999GF108991081061001501999999MD1410001+9999MW1021
0081029720999991959011406004+60517+022267FM-12+005499999V0200901N00311001501CN0035001N9-00501-00501098361ADDAA199001091AY121999GF108991081061001501999999KA1999N-01221MD1210041+9999MW1731
0057029720999991959011409004+60517+022267FM-12+005499999V0200901N00211002401CN0049001N9-00501-00501098511ADDAY121999GF108991061061002501071999MD1210151+9999MW1721
0057029720999991959011412004+60517+022267FM-12+005499999V0200701N00411030001CN0060001N9-00501-00611098631ADDAY171999GF107991041061004501071051MD1210121+9999MW1711
0057029720999991959011415004+60517+022267FM-12+005499999V0200201N00311030001CN0150001N9-00781-00891098801ADDAY121999GF105991011061004501041051MD1210171+9999MW1011
0081029720999991959011418004+60517+022267FM-12+005499999V0200201N00211004501CN0150001N9-00781-00781098931ADDAA199000591AY121999GF108991061051004501031999KA1999M-00501MD1210131+9999MW1021
0057029720999991959011421004+60517+022267FM-12+005499999V0203601N00101007801CN0080001N9-01111-01221099141ADDAY111999GF108991081051008001999999MD1210191+9999MW1031
0057029720999991959011500004+60517+022267FM-12+005499999V0203401N00101007801CN0080001N9-01001-01111099281ADDAY121999GF108991081051008001999999MD1210141+9999MW1021
0057029720999991959011503004+60517+022267FM-12+005499999V0203401N00101004501CN0080001N9-01001-01111099421ADDAY121999GF108991081051004501999999MD1210141+9999MW1021
0081029720999991959011506004+60517+022267FM-12+005499999V0203401N00051004501CN0080001N9-01001-01221099531ADDAA199000691AY121999GF108991081051004501999999KA1999N-01221MD1210111+9999MW1711
0057029720999991959011509004+60517+022267FM-12+005499999V0203401N00051220001CN0080001N9-01391-01501099741ADDAY101999GF101991001001999999001999MD1210201+9999MW1021
0057029720999991959011512004+60517+022267FM-12+005499999V0203401N00101024001CN0080001N9-01111-01281099861ADDAY111999GF105991051001999999041011MD1210131+9999MW1021
0076029720999991959011515004+60517+022267FM-12+005499999V0201301N00101220001CN0080001N9-01501-01501099991ADDAY121999GF106991999001999999041001MD1210041+9999MW1021EQDQ01+000002SCOTLC
0100029720999991959011518004+60517+022267FM-12+005499999V0201401N00101220001CN0080001N9-01001-01221100081ADDAA199000691AY171999GF104991999001999999071001KA1999M-01001MD1710161+9999MW1711EQDQ01+000002SCOTLC
0057029720999991959011521004+60517+022267FM-12+005499999V0201401N00051220001CN0040001N9-01781-02001100211ADDAY101999GF100991001001999999001001MD1210121+9999MW1111
0057029720999991959011600004+60517+022267FM-12+005499999V0209991C00001220001CN0070001N9-02001-02221100341ADDAY101999GF103991031051004501001001MD1210131+9999MW1021
0057029720999991959011603004+60517+022267FM-12+005499999V0209991C00001007801CN0080001N9-02111-02281100381ADDAY121999GF107991071051008001999999MD1210041+9999MW1701
0081029720999991959011606004+60517+022267FM-12+005499999V0209991C00001004501CN0080001N9-01611-01781100411ADDAA199000691AY171999GF108991081051004501999999KA1999N-02111MD1210041+9999MW1021
0076029720999991959011609004+60517+022267FM-12+005499999V0201401N00101220001CN0200001N9-02001-02221100591ADDAY111999GF105991999001999999031001MD1210191+9999MW1011EQDQ01+000002SCOTLC
0057029720999991959011612004+60517+022267FM-12+005499999V0209991C00001220001CN0150001N9-01611-01721100651ADDAY101999GF102991001001999999041011MD1210051+9999MW1021
0057029720999991959011615004+60517+022267FM-12+005499999V0209991C00001007801CN0060001N9-01721-01781100751ADDAY121999GF107991051051008001071999MD1210101+9999MW1031
0081029720999991959011618004+60517+022267FM-12+005499999V0200201N00051000601CN0060001N9-01391-01501100731ADDAA199000691AY121999GF107991071061000751999999KA1999M-01391MD1710021+9999MW1031
0057029720999991959011621004+60517+022267FM-12+005499999V0200201N00051030001CN0080001N9-01281-01501100711ADDAY121999GF105991011061001501011001MD1710101+9999MW1011
0076029720999991959011700004+60517+022267FM-12+005499999V0202001N00051220001CN0080001N9-01501-01721100691ADDAY101999GF101991999001999999011001MD1710031+9999MW1021EQDQ01+000002SCOTLC
0092029720999991959011703004+60517+022267FM-12+005499999V0209991C00001220001CN0015001N9-01501-01611100681ADDAY101999GF103991011051004501041001MD1710011+9999MW1121EQDQ01+000042APCTENQ02+000012APC3  
0081029720999991959011706004+60517+022267FM-12+005499999V0203201N00101220001CN0100001N9-01111-01221100821ADDAA199000591AY101999GF101991011001999999041001KA1999N-01611MD1210151+9999MW1011
0057029720999991959011709004+60517+022267FM-12+005499999V0203401N00211030001CN0200001N9-01281-01391101071ADDAY171999GF105991031051004501041001MD1210241+9999MW1031
0057029720999991959011712004+60517+022267FM-12+005499999V0203001N00101220001CN0300001N9-01281-01391101241ADDAY101999GF101991011051008001041001MD1210171+9999MW1021
0057029720999991959011715004+60517+022267FM-12+005499999V0203401N00101220001CN0200001N9-01501-01611101401ADDAY101999GF101991001001999999041011MD1210161+9999MW1021
0081029720999991959011718004+60517+022267FM-12+005499999V0203401N00051220001CN0100001N9-02001-02111101491ADDAA199000691AY101999GF100991001001999999001001KA1999M-01111MD1210071+9999MW1021
0057029720999991959011721004+60517+022267FM-12+005499999V0203401N00211024001CN0060001N9-01781-02001101511ADDAY121999GF108991081001999999071999MD1210021+9999MW1031
0076029720999991959011800004+60517+022267FM-12+005499999V0201401N00211002401CN0030001N9-01611-01721101271ADDAY121999GF108991999061002501999051MD1710221+9999MW1701EQDQ01+000082SCOTLC
0057029720999991959011803004+60517+022267FM-12+005499999V0200901N00411001501CN0020001N9-01111-01221100801ADDAY171999GF108991081061001501999999MD1710461+9999MW1731
0081029720999991959011806004+60517+022267FM-12+005499999V0201201N00621001501CN0010001N9-00781-00891100361ADDAA199002091AY171999GF108991081061001501999999KA1999N-02221MD1710441+9999MW1731
0057029720999991959011812004+60517+022267FM-12+005499999V0200701N00411220001CN0200001N9-00891-01001100381ADDAY171999GF104991011051004501041051MD1710021+9999MW1011
0057029720999991959011815004+60517+022267FM-12+005499999V0200401N00511030001CN0150001N9-01001-01111100531ADDAY121999GF108991031051004501071999MD1210151+9999MW1031
0081029720999991959011818004+60517+022267FM-12+005499999V0200201N00511220001CN0150001N9-01281-01611100781ADDAA199001091AY121999GF102991021001999999041001KA1999M-00721MD1210251+9999MW1011
0057029720999991959011900004+60517+022267FM-12+005499999V0203601N00311220001CN0200001N9-01891-02001101371ADDAY101999GF100991001001999999001001MD1210241+9999MW1021
0057029720999991959011903004+60517+022267FM-12+005499999V0203601N00101220001CN0200001N9-02111-02221101521ADDAY101999GF100991001001999999001001MD1210151+9999MW1021
0070029720999991959011906004+60517+022267FM-12+005499999V0203601N00101220001CN0200001N9-02281-02391101621ADDAY101999GF102991021001999999041001KA1999N-02501MD1210081+9999MW1031
0057029720999991959011909004+60517+022267FM-12+005499999V0202001N00411030001CN0060001N9-01611-01721101611ADDAY141999GF106991041051004501041011MD1210031+9999MW1711
0057029720999991959011912004+60517+022267FM-12+005499999V0202201N00311004501CN0150001N9-01111-01281101541ADDAY121999GF107991061051004501001021MD1710071+9999MW1701
0057029720999991959011915004+60517+022267FM-12+005499999V0202201N00101030001CN0200001N9-00891-01001101511ADDAY171999GF107991041051004501041021MD1710031+9999MW1021
0100029720999991959011918004+60517+022267FM-12+005499999V0202201N00101030001CN0150001N9-00781-00891101411ADDAA199000691AY121999GF107991021051004501041999KA1999M+99999MD1810121+9999MW1021EQDQ01 -00892ATMX  
0057029720999991959011921004+60517+022267FM-12+005499999V0202201N00311004501CN0150001N9-00891-01001101271ADDAY121999GF107991061051004501071999MD1710141+9999MW1021
0057029720999991959012000004+60517+022267FM-12+005499999V0202201N00211004501CN0100001N9-00781-01001101081ADDAY121999GF108991081061004501999999MD1710191+9999MW1021
0057029720999991959012003004+60517+022267FM-12+005499999V0201201N00311004501CN0150001N9-00891-01001100751ADDAY121999GF108991081051004501999999MD1710321+9999MW1021
0070029720999991959012006004+60517+022267FM-12+005499999V0201101N00311004501CN0150001N9-00781-00891100501ADDAY121999GF108991061051004501071999KA1999N-00891MD1710251+9999MW1731
0057029720999991959012009004+60517+022267FM-12+005499999V0200701N00621007801CN0080001N9-00891-01001100421ADDAY171999GF108991081051008001999999MD1710081+9999MW1731
0057029720999991959012012004+60517+022267FM-12+005499999V0200701N00511220001CN0200001N9-01001-01221100321ADDAY121999GF106991001001999999041071MD1710101+9999MW1021
0092029720999991959012015004+60517+022267FM-12+005499999V0200701N00621220001CN0200001N9-01221-01391100301ADDAY121999GF107991001001999999041071MD1710021+9999MW1021EQDQ01+000042APCTENQ02+000022APC3  
0081029720999991959012018004+60517+022267FM-12+005499999V0200701N00621220001CN0200001N9-01281-01501100211ADDAA199000391AY121999GF107991001001999999071999KA1999M-00781MD1710091+9999MW1021
0057029720999991959012021004+60517+022267FM-12+005499999V0200701N00821004501CN0150001N9-01221-01281099951ADDAY121999GF108991061051004501999999MD1710261+9999MW1701
0057029720999991959012100004+60517+022267FM-12+005499999V0200901N00821004501CN0020001N9-01001-01221099561ADDAY171999GF108991081051004501999999MD1710381+9999MW1731
0057029720999991959012103004+60517+022267FM-12+005499999V0200901N00931004501CN0010001N9-01001-01111099041ADDAY171999GF108991081061004501999999MD1710521+9999MW1731
0081029720999991959012106004+60517+022267FM-12+005499999V0200901N00721004501CN0030001N9-00781-00891098541ADDAA199000591AY171999GF108991081061004501999999KA1999N-01221MD1710491+9999MW1731
0057029720999991959012109004+60517+022267FM-12+005499999V0201401N00511002401CN0030001N9-00611-00781098141ADDAY171999GF108991081061002501999999MD1710391+9999MW1561
0057029720999991959012112004+60517+022267FM-12+005499999V0201801N00511000601CN0020001N9+00001-00111097841ADDAY171999GF108991081061000751999999MD1710301+9999MW1681
0057029720999991959012115004+60517+022267FM-12+005499999V0202001N00621000601CN0050001N9+00221+00221097861ADDAY171999GF108991081061000751999999MD1310021+9999MW1021
0081029720999991959012118004+60517+022267FM-12+005499999V0202001N00411001501CN0050001N9+00221+00221097881ADDAA199004091AY121999GF108991081061001501999999KA1999M+00221MD1210021+9999MW1611
0092029720999991959012121004+60517+022267FM-12+005499999V0202001N00211000151CN0020001N9+00221+00221097861ADDAY161999GF108991081061000251999999MD1710021+9999MW1611EQDQ01+000042APCTENQ02+000022APC3  
0057029720999991959012200004+60517+022267FM-12+005499999V0202701N00411000151CN0010001N9+00111+00111097981ADDAY161999GF109991091999000251999999MD1210141+9999MW1511
0057029720999991959012203004+60517+022267FM-12+005499999V0203301N00621001501CN0080001N9-00391-00721098371ADDAY121999GF108991081061001501999999MD1210381+9999MW1021
0081029720999991959012206004+60517+022267FM-12+005499999V0203201N00211002401CN0100001N9-00501-00611098801ADDAA199002091AY121999GF108991081061002501999999KA1999N-00501MD1210401+9999MW1021
0057029720999991959012209004+60517+022267FM-12+005499999V0203201N00101004501CN0100001N9-00501-00611099051ADDAY121999GF108991071061004501071999MD1210251+9999MW1701
0057029720999991959012212004+60517+022267FM-12+005499999V0203201N00311030001CN0100001N9-00391-00611099111ADDAY171999GF108991041061004501071999MD1210051+9999MW1711
0057029720999991959012215004+60517+022267FM-12+005499999V0200701N00311030001CN0100001N9-00501-00611099171ADDAY171999GF108991041061004501071999MD1210061+9999MW1711
0081029720999991959012218004+60517+022267FM-12+005499999V0200601N00411004501CN0100001N9-00611-00781099251ADDAA199000391AY171999GF108991081051004501999999KA1999M-00221MD1210081+9999MW1701
0057029720999991959012221004+60517+022267FM-12+005499999V0200601N00511002401CN0070001N9-00721-00781099321ADDAY171999GF108991081061002501999999MD1210071+9999MW1711
0057029720999991959012312004+60517+022267FM-12+005499999V0201801N00571001501CN0040001N9+00281+00281098231ADDAY121999GF108991081061001501999999MD1710101+9999MW1211
0081029720999991959012318004+60517+022267FM-12+005499999V0202301N00621004501CN0200001N9+00001-00221098531ADDAA199003091AY121999GF107991071051004501999999KA1999M+00281MD1210301+9999MW1021
0057029720999991959012400004+60517+022267FM-12+005499999V0202001N00621007801CN0200001N9+00001+00001098451ADDAY171999GF108991081051008001999999MD1810101+9999MW1221
0057029720999991959012403004+60517+022267FM-12+005499999V0202501N00621007801CN0200001N9-00281-00721098701ADDAY121999GF106991061051008001001001MD1310251+9999MW1011
0081029720999991959012406004+60517+022267FM-12+005499999V0200401N00621004501CN0008001N9-00501-00611098651ADDAA199000691AY121999GF108991081051004501999999KA1999N-00611MD1710051+9999MW1731
0057029720999991959012409004+60517+022267FM-12+005499999V0201601N00411004501CN0200001N9-00221-00221098531ADDAY171999GF107991071051004501999999MD1710101+9999MW1711
0057029720999991959012412004+60517+022267FM-12+005499999V0201801N00311002401CN0200001N9-00111-00111098451ADDAY171999GF108991081031002501999999MD1710081+9999MW1261
0057029720999991959012415004+60517+022267FM-12+005499999V0201401N00211002401CN0007001N9-00111-00111098521ADDAY181999GF108991081061002501999999MD1210071+9999MW1861
0081029720999991959012418004+60517+022267FM-12+005499999V0200901N00101001501CN0100001N9-00111-00221098661ADDAA199003091AY171999GF108991081061001501999999KA1999M+00111MD1210171+9999MW1021
0057029720999991959012421004+60517+022267FM-12+005499999V0200401N00101004501CN0100001N9-00281-00281098831ADDAY121999GF108991061051004501071999MD1210191+9999MW1021
0057029720999991959012500004+60517+022267FM-12+005499999V0200201N00311004501CN0100001N9-00221-00221099071ADDAY171999GF107991071051004501999999MD1210251+9999MW1021
0057029720999991959012503004+60517+022267FM-12+005499999V0203601N00621004501CN0070001N9-00221-00281099281ADDAY171999GF108991081051004501999999MD1210211+9999MW1221
0081029720999991959012506004+60517+022267FM-12+005499999V0203401N01031004501CN0060001N9-00611-00781099681ADDAA199000391AY151999GF108991081051004501999999KA1999N-00611MD1210401+9999MW1361
0057029720999991959012509004+60517+022267FM-12+005499999V0203401N00821030001CN0150001N9-00891-01111099991ADDAY131999GF106991021051004501041001MD1210211+9999MW1711
0057029720999991959012512004+60517+022267FM-12+005499999V0203501N01031220001CN0150001N9-01001-01281100071ADDAY131999GF103991031051004501041001MD1210171+9999MW1361
0057029720999991959012515004+60517+022267FM-12+005499999V0203501N00931220001CN0150001N9-01281-01721100331ADDAY131999GF104991011051004501041001MD1210151+9999MW1011
0100029720999991959012518004+60517+022267FM-12+005499999V0203601N00821220001CN0150001N9-01281-01611100601ADDAA199000691AY121999GF105991999001999999041001KA1999M-00611MD1210271+9999MW1011EQDQ01+000002SCOTLC
0057029720999991959012521004+60517+022267FM-12+005499999V0203601N00821004501CN0150001N9-01221-01501100831ADDAY121999GF108991061051004501071999MD1210231+9999MW1021
0057029720999991959012600004+60517+022267FM-12+005499999V0203401N00821030001CN0200001N9-01221-01501101091ADDAY121999GF108991031051004501071999MD1210261+9999MW1021
0057029720999991959012603004+60517+022267FM-12+005499999V0203601N00721024001CN0200001N9-01221-01501101331ADDAY121999GF107991071001999999071999MD1210241+9999MW1021
0070029720999991959012606004+60517+022267FM-12+005499999V0203401N00621220001CN0300001N9-01391-01501101561ADDAY101999GF107991001001999999001051KA1999N-01391MD1210281+9999MW1011
0057029720999991959012609004+60517+022267FM-12+005499999V0203501N00411220001CN0300001N9-01391-01781101831ADDAY101999GF105991001001999999001051MD1210271+9999MW1021
0057029720999991959012612004+60517+022267FM-12+005499999V0203401N00101075001CN0300001N9-01111-01391101831ADDAY121999GF107991041001999999071071MD1410001+9999MW1031
0057029720999991959012615004+60517+022267FM-12+005499999V0202001N00211030001CN0150001N9-00891-01221101711ADDAY121999GF108991031051004501071999MD1710121+9999MW1021
0089029720999991959012618004+60517+022267FM-12+005499999V0202301N00311004501CN0150001N9-00281-00391101581ADDAY121999GF108991081051004501999999KA1999M+99999MD1710131+9999MW1021EQDQ01 -00892ATMX  
0092029720999991959012621004+60517+022267FM-12+005499999V0203001N00511030001CN0150001N9+00221-00281101531ADDAY121999GF107991031051004501071999MD1710051+9999MW1021EQDQ01+000042APCTENQ02+000042APC3  
0057029720999991959012700004+60517+022267FM-12+005499999V0203201N00821220001CN0200001N9+00221-00281101591ADDAY101999GF101991001001999999001011MD1210061+9999MW1011
0057029720999991959012703004+60517+022267FM-12+005499999V0203201N00821220001CN0200001N9+00221-00111101781ADDAY101999GF102991001001999999001011MD1210191+9999MW1021
0070029720999991959012706004+60517+022267FM-12+005499999V0203201N00211220001CN0200001N9+00001+00001102031ADDAY101999GF103991021001999999031011KA1999N-00281MD1210251+9999MW1031
0057029720999991959012709004+60517+022267FM-12+005499999V0202701N00211220001CN0300001N9+00001-00111102371ADDAY101999GF102991011051004501041001MD1210341+9999MW1011
0057029720999991959012712004+60517+022267FM-12+005499999V0203201N00101220001CN0300001N9+00281-00111102591ADDAY101999GF104991001001999999041011MD1210231+9999MW1031
0057029720999991959012715004+60517+022267FM-12+005499999V0202701N00101220001CN0300001N9+00001+00001102711ADDAY101999GF102991001001999999041011MD1210121+9999MW1111
0070029720999991959012718004+60517+022267FM-12+005499999V0202201N00101000151CN0003001N9-00221-00221102781ADDAY111999GF109991091999000251999999KA1999M+00391MD1210071+9999MW1471
0057029720999991959012721004+60517+022267FM-12+005499999V0202001N00101000601CN0006001N9-00281-00281102801ADDAY141999GF108991081061000751999999MD1410001+9999MW1421
0057029720999991959012800004+60517+022267FM-12+005499999V0202501N00101024001CN0080001N9-00111-00111102671ADDAY121999GF108991081001999999011999MD1710111+9999MW1021
0057029720999991959012803004+60517+022267FM-12+005499999V0202301N00211024001CN0100001N9-00111-00111102441ADDAY121999GF108991081001999999011999MD1710231+9999MW1021
0070029720999991959012806004+60517+022267FM-12+005499999V0202301N00211220001CN0150001N9-00111-00221102281ADDAY101999GF107991001001999999071999KA1999N-00501MD1710161+9999MW1011
0057029720999991959012809004+60517+022267FM-12+005499999V0202701N00311024001CN0200001N9+00001-00221102111ADDAY121999GF108991081001999999071999MD1710171+9999MW1021
0057029720999991959012812004+60517+022267FM-12+005499999V0202701N00311030001CN0300001N9+00111-00111102061ADDAY121999GF107991021051008001071999MD1710051+9999MW1011
0057029720999991959012815004+60517+022267FM-12+005499999V0202701N00211024001CN0400001N9+00001-00111102031ADDAY121999GF107991061001999999071021MD1710031+9999MW1021
0070029720999991959012818004+60517+022267FM-12+005499999V0202501N00211220001CN0200001N9-00221-00221102041ADDAY101999GF104991041001999999041001KA1999M+00111MD1210011+9999MW1031
0057029720999991959012821004+60517+022267FM-12+005499999V0202501N00101220001CN0150001N9-00221-00281102031ADDAY101999GF101991011001999999041001MD1810011+9999MW1021
0057029720999991959012900004+60517+022267FM-12+005499999V0203201N00101220001CN0100001N9-00221-00221102071ADDAY101999GF101991011001999999041001MD1210041+9999MW1111
0057029720999991959012903004+60517+022267FM-12+005499999V0202701N00101220001CN0050001N9-00391-00391102031ADDAY101999GF100991001001999999001001MD1710041+9999MW1111
0070029720999991959012906004+60517+022267FM-12+005499999V0203201N00101000151CN0003001N9-00221-00221102101ADDAY101999GF109991091999000251999999KA1999N-00391MD1210081+9999MW1471
0057029720999991959012909004+60517+022267FM-12+005499999V0209991C00001220001CN0003001N9-00281-00391102231ADDAY141999GF100991001001999999001001MD1210111+9999MW1421
0057029720999991959012912004+60517+022267FM-12+005499999V0202001N00051220001CN0001001N9-00281-00281102261ADDAY141999GF100991001001999999001001MD1210031+9999MW1441
0057029720999991959012915004+60517+022267FM-12+005499999V0209991C00001000151CN0000001N9-00391-00391102231ADDAY141999GF109991091999000251999999MD1810031+9999MW1451
0105029720999991959012918004+60517+022267FM-12+005499999V0201701N00211000151CN0005001N9-00391-00501102201ADDAY141999GF109991091999000251999999KA1999M-00111MD1710031+9999MW1431EQDQ01+000042APCTENQ02+000032APC3  
0057029720999991959012921004+60517+022267FM-12+005499999V0201801N00211000151CN0003001N9-00391-00391102131ADDAY141999GF109991091999000251999999MD1710071+9999MW1451
0057029720999991959013000004+60517+022267FM-12+005499999V0201801N00101000151CN0004001N9-00391-00391102001ADDAY141999GF109991091999000251999999MD1710131+9999MW1451
0057029720999991959013003004+60517+022267FM-12+005499999V0201801N00101000151CN0003001N9-00281-00281101951ADDAY141999GF109991091999000251999999MD1710051+9999MW1451
0070029720999991959013006004+60517+022267FM-12+005499999V0202001N00311000601CN0015001N9+00001+00001101671ADDAY141999GF108991081061000751999999KA1999N-00501MD1710261+9999MW1281
0057029720999991959013009004+60517+022267FM-12+005499999V0202001N00211000151CN0008001N9-00111-00221101681ADDAY141999GF109991091999000251999999MD1210011+9999MW1471
0057029720999991959013012004+60517+022267FM-12+005499999V0202201N00101000151CN0002001N9-00111-00111101561ADDAY141999GF109991091999000251999999MD1710121+9999MW1471
0057029720999991959013015004+60517+022267FM-12+005499999V0203501N00101000151CN0002001N9-00221-00221101521ADDAY141999GF109991091999000251999999MD1710041+9999MW1451
0070029720999991959013018004+60517+022267FM-12+005499999V0203601N00101000601CN0030001N9-00221-00221101501ADDAY141999GF108991081071000751999999KA1999M+00111MD1610021+9999MW1021
0076029720999991959013021004+60517+022267FM-12+005499999V0203601N00101001501CN0040001N9-00221-00221101501ADDAY121999GF108991081061001501999999MD1410001+9999MW1711EQDQ01+000032APCTEN
0057029720999991959013100004+60517+022267FM-12+005499999V0200401N00101002401CN0050001N9-00221-00221101421ADDAY171999GF108991081061002501999999MD1710081+9999MW1731
0057029720999991959013103004+60517+022267FM-12+005499999V0200401N00101002401CN0080001N9-00221-00221101301ADDAY171999GF108991081061002501999999MD1710121+9999MW1231
0081029720999991959013106004+60517+022267FM-12+005499999V0203601N00101000601CN0050001N9-00111-00111101321ADDAA199001091AY121999GF108991081061000751999999KA1999N-00221MD1710021+9999MW1021
0057029720999991959013109004+60517+022267FM-12+005499999V0203601N00311000601CN0100001N9-00111-00221101401ADDAY121999GF108991081061000751999999MD1210081+9999MW1021
0057029720999991959013112004+60517+022267FM-12+005499999V0203601N00211004501CN0100001N9-00221-00221101441ADDAY121999GF108991081061004501999999MD1210041+9999MW1021
0057029720999991959013115004+60517+022267FM-12+005499999V0203601N00211024001CN0150001N9-00281-00281101551ADDAY121999GF107991061001999999041021MD1210101+9999MW1021
0070029720999991959013118004+60517+022267FM-12+005499999V0203401N00311220001CN0200001N9-00391-00501101741ADDAY101999GF103991021001999999041011KA1999M-00111MD1210191+9999MW1011
0057029720999991959013121004+60517+022267FM-12+005499999V0203601N00311220001CN0200001N9-00611-00721101871ADDAY101999GF100991001001999999001001MD1210131+9999MW1011
0057029720999991959020100004+60517+022267FM-12+005499999V0203601N00511220001CN0200001N9-00721-00781102091ADDAY101999GF100991001001999999001001MD1210221+9999MW1011
0057029720999991959020103004+60517+022267FM-12+005499999V0203601N00411220001CN0200001N9-00721-00891102221ADDAY101999GF100991001001999999001001MD1210141+9999MW1021
0070029720999991959020106004+60517+022267FM-12+005499999V0203601N00411220001CN0200001N9-00721-00891102431ADDAY101999GF100991001001999999001001KA1999N-00781MD1210341+9999MW1021
0057029720999991959020109004+60517+022267FM-12+005499999V0203401N00411220001CN0300001N9-00721-00781102611ADDAY101999GF100991001001999999001001MD1210181+9999MW1021
0057029720999991959020112004+60517+022267FM-12+005499999V0203401N00311220001CN0400001N9-00501-00721102791ADDAY101999GF100991001001999999001001MD1210181+9999MW1021
0070029720999991959020118004+60517+022267FM-12+005499999V0203601N00101220001CN0300001N9-00891-01001102991ADDAY101999GF101991011001999999041001KA1999M-00501MD1210081+9999MW1021
0076029720999991959020121004+60517+022267FM-12+005499999V0203201N00101220001CN0300001N9-01221-01281102991ADDAY101999GF100991001001999999001001MD1410001+9999MW1021EQDQ01+000012APC3  
0057029720999991959020200004+60517+022267FM-12+005499999V0202001N00211024001CN0200001N9-01111-01221102821ADDAY101999GF105991051001999999071001MD1710171+9999MW1021
0057029720999991959020203004+60517+022267FM-12+005499999V0202301N00211220001CN0200001N9-00781-00781102661ADDAY101999GF103991031001999999071001MD1710161+9999MW1011
0070029720999991959020206004+60517+022267FM-12+005499999V0202301N00211012301CN0200001N9-00391-00391102471ADDAY121999GF108991051051012501071999KA1999N-01501MD1710191+9999MW1011
0057029720999991959020209004+60517+022267FM-12+005499999V0202501N00311030001CN0200001N9-00111-00221102381ADDAY101999GF105991031051012501041011MD1710091+9999MW1011
0070029720999991959020218004+60517+022267FM-12+005499999V0203201N00211220001CN0200001N9-00391-00391102531ADDAY101999GF101991001001999999001011KA1999M+00111MD1210131+9999MW1021
0057029720999991959020300004+60517+022267FM-12+005499999V0202901N00211220001CN0100001N9-00391-00501102581ADDAY101999GF100991001001999999001001MD1210021+9999MW1111
0057029720999991959020303004+60517+022267FM-12+005499999V0203201N00211220001CN0150001N9-00281-00281102631ADDAY101999GF100991001001999999001001MD1210051+9999MW1021
0070029720999991959020306004+60517+022267FM-12+005499999V0203201N00311075001CN0300001N9-00221-00281102711ADDAY101999GF106991011001999999041021KA1999N-00611MD1210101+9999MW1031
0057029720999991959020309004+60517+022267FM-12+005499999V0203201N00101000151CN0001001N9-00281-00281102901ADDAY141999GF109991091999000251999999MD1210171+9999MW1451
0057029720999991959020315004+60517+022267FM-12+005499999V0203201N00211030001CN0300001N9+00111+00111103041ADDAY121999GF107991031061008001071999MD1210031+9999MW1021
0070029720999991959020318004+60517+022267FM-12+005499999V0203301N00211030001CN0150001N9+00111-00111103161ADDAY121999GF108991041061008001071999KA1999M+00111MD1210131+9999MW1021
0057029720999991959020321004+60517+022267FM-12+005499999V0203201N00311220001CN0150001N9-00111-00221103251ADDAY111999GF100991001001999999001001MD1210081+9999MW1111
0057029720999991959020400004+60517+022267FM-12+005499999V0203201N00211220001CN0100001N9-00221-00221103371ADDAY101999GF100991001001999999001001MD1210121+9999MW1021
0057029720999991959020403004+60517+022267FM-12+005499999V0202701N00211220001CN0100001N9-00281-00281103371ADDAY101999GF100991001001999999001001MD1710011+9999MW1021
0070029720999991959020406004+60517+022267FM-12+005499999V0202701N00411220001CN0150001N9+00111-00221103321ADDAY101999GF107991001001999999001021KA1999N-00391MD1710041+9999MW1031
0057029720999991959020409004+60517+022267FM-12+005499999V0202701N00621075001CN0300001N9+00221+00001103231ADDAY121999GF106991011001999999041021MD1710091+9999MW1021
0057029720999991959020412004+60517+022267FM-12+005499999V0202701N00721220001CN0400001N9+00391-00111103081ADDAY121999GF107991001001999999041061MD1710131+9999MW1031
0057029720999991959020415004+60517+022267FM-12+005499999V0202901N00721220001CN0300001N9+00391+00001102961ADDAY111999GF106991001001999999041061MD1710121+9999MW1021
0070029720999991959020418004+60517+022267FM-12+005499999V0202901N00621024001CN0200001N9+00281+00001102931ADDAY121999GF105991051001999999031001KA1999M+00501MD1710031+9999MW1011
0057029720999991959020421004+60517+022267FM-12+005499999V0203001N00721220001CN0200001N9+00281+00111102811ADDAY101999GF101991001001999999001051MD1710121+9999MW1011
0057029720999991959020500004+60517+022267FM-12+005499999V0203201N00721220001CN0300001N9+00281+00111102811ADDAY101999GF104991001001999999001051MD1410001+9999MW1021
0057029720999991959020503004+60517+022267FM-12+005499999V0202901N00511220001CN0300001N9+00221-00111102801ADDAY101999GF103991001001999999001051MD1710021+9999MW1021
0070029720999991959020506004+60517+022267FM-12+005499999V0202901N00411220001CN0200001N9+00111-00111102781ADDAY101999GF105991001001999999031011KA1999N+00001MD1710021+9999MW1031
0057029720999991959020509004+60517+022267FM-12+005499999V0202901N00411075001CN0300001N9+00111-00111102761ADDAY111999GF105991011011008001031011MD1710021+9999MW1021
0057029720999991959020512004+60517+022267FM-12+005499999V0203201N00411075001CN0300001N9+00391+00001102751ADDAY121999GF105991011051004501041021MD1410001+9999MW1021
0057029720999991959020515004+60517+022267FM-12+005499999V0203201N00211220001CN0300001N9+00111+00001102791ADDAY121999GF104991001001999999001021MD1210031+9999MW1011
0070029720999991959020518004+60517+022267FM-12+005499999V0203601N00311220001CN0200001N9-00221-00221103061ADDAY101999GF102991001001999999001011KA1999M+00391MD1210261+9999MW1011
0057029720999991959020600004+60517+022267FM-12+005499999V0200201N00211220001CN0150001N9-00611-00721103261ADDAY101999GF100991001001999999001001MD1210081+9999MW1021
0057029720999991959020603004+60517+022267FM-12+005499999V0200201N00211220001CN0150001N9-00721-00781103261ADDAY101999GF100991001001999999001001MD1410001+9999MW1021
0070029720999991959020606004+60517+022267FM-12+005499999V0202701N00101220001CN0150001N9-01111-01111103311ADDAY101999GF102991011001999999041011KA1999N-01111MD1210011+9999MW1031
0057029720999991959020609004+60517+022267FM-12+005499999V0201801N00101007801CN0080001N9-00781-00891103281ADDAY121999GF107991051051008001071999MD1710031+9999MW1031
0076029720999991959020612004+60517+022267FM-12+005499999V0202001N00101220001CN0100001N9-00111-00501103151ADDAY111999GF101991999001999999041001MD1710101+9999MW1011EQDQ01+000002SCOTLC
0057029720999991959020615004+60517+022267FM-12+005499999V0202001N00101220001CN0100001N9-00221-00391103081ADDAY101999GF101991011001999999041001MD1710071+9999MW1011
0070029720999991959020618004+60517+022267FM-12+005499999V0202001N00101000151CN0005001N9-00391-00391103011ADDAY101999GF109991091999000251999999KA1999M+00001MD1710081+9999MW1471
0057029720999991959020700004+60517+022267FM-12+005499999V0202301N00211000601CN0020001N9-00221-00221102751ADDAY141999GF108991081061000751999999MD1710141+9999MW1101
0057029720999991959020703004+60517+022267FM-12+005499999V0202301N00211000601CN0010001N9-00281-00281102701ADDAY121999GF108991081061000751999999MD1710041+9999MW1101
0070029720999991959020706004+60517+022267FM-12+005499999V0202701N00311000601CN0100001N9-00221-00281102661ADDAY121999GF108991081061000751999999KA1999N-00501MD1710021+9999MW1011
0057029720999991959020709004+60517+022267FM-12+005499999V0202701N00211000601CN0020001N9-00221-00221102661ADDAY121999GF108991081061000751999999MD1410001+9999MW1101
0057029720999991959020712004+60517+022267FM-12+005499999V0202701N00211000601CN0050001N9-00111-00111102631ADDAY121999GF108991081061000751999999MD1710031+9999MW1021
0057029720999991959020715004+60517+022267FM-12+005499999V0202701N00211000151CN0016001N9-00221-00221102651ADDAY121999GF108991081061000251999999MD1210021+9999MW1101
0070029720999991959020718004+60517+022267FM-12+005499999V0203201N00101000151CN0010001N9-00221-00221102701ADDAY121999GF108991081061000251999999KA1999M-00111MD1210051+9999MW1101
0057029720999991959020721004+60517+022267FM-12+005499999V0203201N00211000151CN0010001N9-00221-00221102731ADDAY121999GF108991081061000251999999MD1210031+9999MW1101
0057029720999991959020800004+60517+022267FM-12+005499999V0203201N00211001501CN0060001N9-00221-00221102751ADDAY121999GF108991081061001501999999MD1210021+9999MW1021
0057029720999991959020803004+60517+022267FM-12+005499999V0202701N00101000151CN0008001N9-00281-00281102821ADDAY141999GF109991091061000251999999MD1210071+9999MW1451
0070029720999991959020806004+60517+022267FM-12+005499999V0202701N00101000151CN0004001N9-00281-00281102851ADDAY141999GF109991091999000251999999KA1999N-00391MD1210011+9999MW1451
0057029720999991959020812004+60517+022267FM-12+005499999V0201801N00051000151CN0003001N9-00391-00391103041ADDAY141999GF109991091999000251999999MD1210091+9999MW1451
0057029720999991959020815004+60517+022267FM-12+005499999V0202001N00051000151CN0003001N9-00501-00611103041ADDAY141999GF109991091999000251999999MD1410001+9999MW1451
0105029720999991959020818004+60517+022267FM-12+005499999V0202201N00411000601CN0030001N9-00391-00391103021ADDAY141999GF108991081071000751999999KA1999M-00281MD1710021+9999MW1561EQDQ01+000042APCTENQ02+000022APC3  
0057029720999991959020821004+60517+022267FM-12+005499999V0201801N00311000151CN0006001N9-00281-00391103101ADDAY171999GF109991091999000251999999MD1210081+9999MW1471
0057029720999991959020900004+60517+022267FM-12+005499999V0202501N00211000151CN0007001N9-00391-00391103201ADDAY141999GF109991091999000251999999MD1210101+9999MW1451
0057029720999991959020903004+60517+022267FM-12+005499999V0202501N00411000601CN0050001N9-00611-00611103161ADDAY141999GF108991081061000751999999MD1710041+9999MW1021
0081029720999991959020906004+60517+022267FM-12+005499999V0202501N00211001501CN0080001N9-00611-00721103191ADDAA199000591AY121999GF108991081061001501999999KA1999N-00721MD1210031+9999MW1021
0057029720999991959020909004+60517+022267FM-12+005499999V0202301N00211001501CN0100001N9-00501-00611103231ADDAY121999GF108991081061001501999999MD1010041+9999MW1771
0057029720999991959020912004+60517+022267FM-12+005499999V0202701N00311002401CN0150001N9-00391-00501103271ADDAY121999GF108991061061002501031999MD1210041+9999MW1021
0057029720999991959020915004+60517+022267FM-12+005499999V0202501N00311001501CN0150001N9-00391-00391103271ADDAY121999GF108991081061001501999999MD1410001+9999MW1031
0070029720999991959020918004+60517+022267FM-12+005499999V0202301N00211220001CN0050001N9-00721-00721103341ADDAY101999GF102991021001999999041001KA1999M-00281MD1210071+9999MW1011
0057029720999991959020921004+60517+022267FM-12+005499999V0202501N00101220001CN0070001N9-00611-00721103411ADDAY101999GF100991001001999999001001MD1210071+9999MW1021
0057029720999991959021000004+60517+022267FM-12+005499999V0202501N00101024001CN0100001N9-00721-00721103461ADDAY111999GF106991061001999999071999MD1210051+9999MW1031
0057029720999991959021003004+60517+022267FM-12+005499999V0209991C00001220001CN0030001N9-00781-00781103531ADDAY141999GF103991031001999999041001MD1210071+9999MW1281
0105029720999991959021006004+60517+022267FM-12+005499999V0209991C00001000151CN0000001N9-00611-00721103541ADDAY141999GF109991091999000251999999KA1999N-00891MD1210011+9999MW1451EQDQ01+000042APCTENQ02+000012APC3  
0057029720999991959021012004+60517+022267FM-12+005499999V0209991C00001000151CN0001001N9-00391-00391103761ADDAY141999GF109991091999000251999999MD1210071+9999MW1451
0057029720999991959021015004+60517+022267FM-12+005499999V0209991C00001000151CN0001001N9-00391-00391103821ADDAY141999GF109991091999000251999999MD1210061+9999MW1451
0070029720999991959021018004+60517+022267FM-12+005499999V0209991C00001000151CN0004001N9-00501-00501103851ADDAY141999GF109991091999000251999999KA1999M-00391MD1210031+9999MW1451
0057029720999991959021021004+60517+022267FM-12+005499999V0202501N00101220001CN0070001N9-00611-00721103411ADDAY101999GF100991001001999999001001MD1210071+9999MW1021
0057029720999991959021100004+60517+022267FM-12+005499999V0202201N00101000151CN0012001N9-00391-00501103881ADDAY141999GF108991081061000251999999MD1210061+9999MW1101
0092029720999991959021103004+60517+022267FM-12+005499999V0202201N00151000151CN0005001N9-00391-00391103891ADDAY141999GF109991091999000251999999MD1210011+9999MW1471EQDQ01+000042APCTENQ02+000012APC3  
0081029720999991959021106004+60517+022267FM-12+005499999V0202301N00211000151CN0003001N9-00281-00391103871ADDAA199000591AY171999GF109991091999000251999999KA1999N-00611MD1710021+9999MW1471
0057029720999991959021115004+60517+022267FM-12+005499999V0202301N00211000151CN0005001N9-00281-00281103941ADDAY141999GF109991091999000251999999MD1810021+9999MW1451
0070029720999991959021118004+60517+022267FM-12+005499999V0202201N00411000151CN0018001N9-00281-00391104041ADDAY121999GF108991081061000251999999KA1999M-00221MD1210081+9999MW1101
0057029720999991959021121004+60517+022267FM-12+005499999V0202301N00311000601CN0050001N9-00391-00391104031ADDAY121999GF108991081061000751999999MD1710011+9999MW1021
0057029720999991959021200004+60517+022267FM-12+005499999V0202301N00211001501CN0050001N9-00391-00391104031ADDAY121999GF108991081061001501999999MD1410001+9999MW1021
0057029720999991959021203004+60517+022267FM-12+005499999V0202301N00411001501CN0050001N9-00391-00391103991ADDAY121999GF108991081061001501999999MD1710041+9999MW1021
0070029720999991959021206004+60517+022267FM-12+005499999V0202301N00311001501CN0050001N9-00501-00501103971ADDAY121999GF108991081061001501999999KA1999N-00501MD1710011+9999MW1021
0057029720999991959021209004+60517+022267FM-12+005499999V0202301N00311001501CN0070001N9-00501-00501103971ADDAY121999GF108991081061001501999999MD1410001+9999MW1711
0057029720999991959021212004+60517+022267FM-12+005499999V0202201N00411002401CN0060001N9-00501-00611103981ADDAY171999GF108991081061002501999999MD1410001+9999MW1771
0057029720999991959021215004+60517+022267FM-12+005499999V0202201N00211002401CN0060001N9-00501-00611103951ADDAY121999GF108991081061002501999999MD1710031+9999MW1771
0081029720999991959021218004+60517+022267FM-12+005499999V0202301N00511001501CN0050001N9-00501-00501103901ADDAA199000691AY121999GF108991081061001501999999KA1999M-00391MD1710041+9999MW1771
0057029720999991959021221004+60517+022267FM-12+005499999V0202301N00411001501CN0100001N9-00611-00611103871ADDAY121999GF108991081061001501999999MD1710031+9999MW1021
0057029720999991959021300004+60517+022267FM-12+005499999V0202501N00211001501CN0100001N9-00721-00721103921ADDAY121999GF108991081061001501999999MD1210051+9999MW1021
0057029720999991959021303004+60517+022267FM-12+005499999V0202701N00311001501CN0100001N9-00501-00611103881ADDAY121999GF108991081061001501999999MD1810021+9999MW1021
0081029720999991959021306004+60517+022267FM-12+005499999V0202201N00211002401CN0080001N9-00501-00501103881ADDAA199000691AY121999GF108991081061002501999999KA1999N-00781MD1410001+9999MW1021
0057029720999991959021309004+60517+022267FM-12+005499999V0202701N00211001501CN0060001N9-00391-00391104011ADDAY121999GF108991081061001501999999MD1210121+9999MW1021
0057029720999991959021312004+60517+022267FM-12+005499999V0202701N00211001501CN0060001N9-00221-00281104051ADDAY121999GF108991081061001501999999MD1210051+9999MW1021
0057029720999991959021315004+60517+022267FM-12+005499999V0202701N00101000151CN0004001N9-00281-00391104091ADDAY141999GF109991091999000251999999MD1210031+9999MW1451
0105029720999991959021318004+60517+022267FM-12+005499999V0202501N00101000601CN0012001N9-00391-00501104121ADDAY141999GF107991071061000751999999KA1999M-00221MD1210031+9999MW1101EQDQ01+000042APCTENQ02+000052APC3  
0057029720999991959021321004+60517+022267FM-12+005499999V0202201N00211000151CN0002001N9-00611-00611104161ADDAY141999GF109991091999000251999999MD1210041+9999MW1471
0057029720999991959021400004+60517+022267FM-12+005499999V0202001N00101000151CN0002001N9-00391-00391104041ADDAY141999GF109991091999000251999999MD1710121+9999MW1451
0057029720999991959021403004+60517+022267FM-12+005499999V0202201N00211000151CN0004001N9-00391-00391103941ADDAY141999GF109991091999000251999999MD1710091+9999MW1451
0070029720999991959021406004+60517+022267FM-12+005499999V0202301N00311000601CN0100001N9-00281-00391103831ADDAY141999GF108991081061000751999999KA1999N-00611MD1710111+9999MW1021
0057029720999991959021409004+60517+022267FM-12+005499999V0202001N00311002401CN0100001N9-00281-00281103741ADDAY121999GF108991081061002501999999MD1610091+9999MW1021
0057029720999991959021412004+60517+022267FM-12+005499999V0201801N00411002401CN0080001N9-00281-00391103581ADDAY121999GF108991081061002501999999MD1710161+9999MW1021
0081029720999991959021418004+60517+022267FM-12+005499999V0202001N00411002401CN0080001N9-00391-00501103221ADDAA199000391AY121999GF108991081061002501999999KA1999M-00281MD1710211+9999MW1021
0057029720999991959021421004+60517+022267FM-12+005499999V0202301N00621001501CN0070001N9-00501-00501103021ADDAY121999GF108991081061001501999999MD1710191+9999MW1021
0057029720999991959021500004+60517+022267FM-12+005499999V0202001N00411001501CN0050001N9-00391-00391102771ADDAY151999GF108991081061001501999999MD1710261+9999MW1561
0081029720999991959021506004+60517+022267FM-12+005499999V0202301N00411001501CN0009001N9-00221-00221102371ADDAA199000591AY171999GF108991081061001501999999KA1999N-00501MD1710131+9999MW1731
0057029720999991959021509004+60517+022267FM-12+005499999V0202901N00311001501CN0050001N9+00001-00111102501ADDAY171999GF108991081061001501999999MD1210131+9999MW1221
0057029720999991959021512004+60517+022267FM-12+005499999V0203301N00621220001CN0300001N9+00111-00111102761ADDAY121999GF103991011061002501041001MD1210261+9999MW1011
0057029720999991959021515004+60517+022267FM-12+005499999V0203201N00621220001CN0300001N9+00111-00111103131ADDAY101999GF100991001001999999001001MD1210371+9999MW1011
0081029720999991959021518004+60517+022267FM-12+005499999V0203201N00311220001CN0300001N9-00221-00391103431ADDAA199000691AY101999GF100991001001999999001001KA1999M+00221MD1210301+9999MW1011
0057029720999991959021521004+60517+022267FM-12+005499999V0203301N00411220001CN0300001N9-00281-00391103581ADDAY101999GF100991001001999999001001MD1210141+9999MW1021
0057029720999991959021600004+60517+022267FM-12+005499999V0203201N00101220001CN0300001N9-00281-00391103661ADDAY101999GF100991001001999999001001MD1210081+9999MW1021
0057029720999991959021603004+60517+022267FM-12+005499999V0202701N00101220001CN0200001N9-00611-00611103791ADDAY101999GF100991001001999999001001MD1210121+9999MW1021
0070029720999991959021606004+60517+022267FM-12+005499999V0202301N00101075001CN0150001N9-00611-00721103821ADDAY101999GF105991031001999999041021KA1999N-00781MD1210031+9999MW1111
0057029720999991959021609004+60517+022267FM-12+005499999V0202001N00311220001CN0100001N9-00391-00391103761ADDAY101999GF104991011001999999041021MD1710061+9999MW1011
0057029720999991959021612004+60517+022267FM-12+005499999V0202301N00311220001CN0300001N9+00221-00391103581ADDAY101999GF106991001001999999001021MD1710171+9999MW1031
0070029720999991959021618004+60517+022267FM-12+005499999V0202001N006219999999N0300001N9+00001-00391102991ADDAY121999GF107991041001999999071999KA1999M+00221MD1710291+9999MW1021
0057029720999991959021621004+60517+022267FM-12+005499999V0202301N00621004501CN0150001N9+00111-00111102651ADDAY161999GF108991081061004501999999MD1710331+9999MW1021
0057029720999991959021700004+60517+022267FM-12+005499999V0202501N00621004501CN0150001N9+00111-00111102491ADDAY121999GF108991081061004501999999MD1710161+9999MW1021
0057029720999991959021703004+60517+022267FM-12+005499999V0202501N00211220001CN0150001N9+00001-00111102471ADDAY121999GF103991031061004501001001MD1710021+9999MW1011
0081029720999991959021706004+60517+022267FM-12+005499999V0202501N00311002401CN0150001N9+00111+00001102461ADDAA199001091AY121999GF108991081061002501999999KA1999N-00111MD1710011+9999MW1031
0057029720999991959021709004+60517+022267FM-12+005499999V0202701N00511030001CN0150001N9+00221+00111102401ADDAY121999GF107991041061001501071061MD1710061+9999MW1011
0057029720999991959021712004+60517+022267FM-12+005499999V0203201N00721075001CN0400001N9+00391-00611102561ADDAY121999GF106991011081008001001021MD1210171+9999MW1011
0070029720999991959021718004+60517+022267FM-12+005499999V0202701N00511220001CN0300001N9+00221-00391102601ADDAY111999GF103991031001999999041001KA1999M+00501MD1710091+9999MW1011
0057029720999991959021721004+60517+022267FM-12+005499999V0203201N00511220001CN0300001N9+00221-00281102451ADDAY101999GF101991011001999999041001MD1710151+9999MW1011
0057029720999991959021800004+60517+022267FM-12+005499999V0202701N00311220001CN0300001N9+00111-00221102391ADDAY101999GF102991021001999999041001MD1710061+9999MW1031
0057029720999991959021803004+60517+022267FM-12+005499999V0202701N00511024001CN0300001N9+00221-00111102281ADDAY121999GF108991081001999999071999MD1710111+9999MW1031
0070029720999991959021806004+60517+022267FM-12+005499999V0203001N00311030001CN0400001N9+00221-00111102151ADDAY121999GF107991031051008001071999KA1999N+00001MD1710131+9999MW1011
0057029720999991959021809004+60517+022267FM-12+005499999V0203001N00311075001CN0300001N9+00281+00001102061ADDAY121999GF106991041001999999071021MD1710081+9999MW1011
0057029720999991959021812004+60517+022267FM-12+005499999V0203001N00411220001CN0400001N9+00611+00001102011ADDAY101999GF102991011001999999041021MD1710051+9999MW1011
0057029720999991959021815004+60517+022267FM-12+005499999V0203001N00311220001CN0400001N9+00611+00001101911ADDAY101999GF102991011001999999041011MD1710091+9999MW1021
0070029720999991959021818004+60517+022267FM-12+005499999V0202301N00211220001CN0400001N9+00001-00111101821ADDAY101999GF101991011001999999041001KA1999M+00781MD1710111+9999MW1021
0057029720999991959021821004+60517+022267FM-12+005499999V0202001N00101220001CN0300001N9-00221-00281101681ADDAY101999GF100991001001999999001001MD1710141+9999MW1011
0057029720999991959021900004+60517+022267FM-12+005499999V0201801N00101220001CN0300001N9-00281-00281101411ADDAY101999GF100991001001999999001001MD1710281+9999MW1021
0057029720999991959021903004+60517+022267FM-12+005499999V0202701N00101000601CN0300001N9-00111-00111101151ADDAY101999GF108991081061000751999999MD1710251+9999MW1021
0070029720999991959021906004+60517+022267FM-12+005499999V0202901N00411030001CN0150001N9-00221-00221101001ADDAY121999GF106991021061001501071011KA1999N-00391MD1710151+9999MW1011
0057029720999991959021909004+60517+022267FM-12+005499999V0202901N00411220001CN0300001N9+00221-00221101001ADDAY181999GF104991011031004501041011MD1410001+9999MW1011
0057029720999991959021912004+60517+022267FM-12+005499999V0203201N00721075001CN0400001N9+00501-00221100941ADDAY111999GF105991011011004501041011MD1710061+9999MW1021
0070029720999991959021918004+60517+022267FM-12+005499999V0202901N00821220001CN0300001N9+00001-00281100981ADDAY101999GF101991001001999999001011KA1999M+00501MD1710011+9999MW1011
0057029720999991959021921004+60517+022267FM-12+005499999V0202001N00621075001CN0300001N9+00001-00221100551ADDAY111999GF105991011001999999051021MD1710421+9999MW1031
0057029720999991959022000004+60517+022267FM-12+005499999V0202301N00721075001CN0300001N9+00111+00001099991ADDAY121999GF107991031001999999011071MD1710561+9999MW1021
0070029720999991959022006004+60517+022267FM-12+005499999V0202701N00621030001CN0300001N9+00221-00111099221ADDAY121999GF107991011011004501071999KA1999N-00221MD1710281+9999MW1021
0057029720999991959022009004+60517+022267FM-12+005499999V0202701N00621004501CN0250001N9+00221-00111098891ADDAY121999GF108991051061004501071999MD1710311+9999MW1021
0057029720999991959022012004+60517+022267FM-12+005499999V0202101N00411002401CN0200001N9+00221+00111098351ADDAY121999GF108991081061002501999999MD1710541+9999MW1021
0057029720999991959022015004+60517+022267FM-12+005499999V0202301N00311001501CN0012001N9+00001+00001097681ADDAY171999GF108991081061001501999999MD1710671+9999MW1681
0081029720999991959022018004+60517+022267FM-12+005499999V0202501N00101000151CN0010001N9+00001+00001097211ADDAA199007091AY171999GF109991091999000251999999KA1999M+00221MD1710471+9999MW1781
0057029720999991959022021004+60517+022267FM-12+005499999V0203501N00621001501CN0100001N9+00001+00001097051ADDAY171999GF108991081061001501999999MD1710151+9999MW1221
0057029720999991959022100004+60517+022267FM-12+005499999V0203601N00721004501CN0200001N9-00221-00281097241ADDAY121999GF107991051061004501041999MD1510191+9999MW1011
0057029720999991959022103004+60517+022267FM-12+005499999V0203501N00621030001CN0250001N9-00281-00501097501ADDAY121999GF106991041051004501041999MD1210251+9999MW1011
0081029720999991959022106004+60517+022267FM-12+005499999V0203401N00311002401CN0050001N9-00281-00391097631ADDAA199001091AY121999GF107991071061002501999999KA1999N-00391MD1210131+9999MW1701
0057029720999991959022112004+60517+022267FM-12+005499999V0203201N00311075001CN0300001N9-00281-00781097921ADDAY111999GF105991011011008001041011MD1210141+9999MW1011
0057029720999991959022115004+60517+022267FM-12+005499999V0203201N00511030001CN0300001N9-00391-01111098031ADDAY121999GF106991011051008001041011MD1210211+9999MW1031
0070029720999991959022118004+60517+022267FM-12+005499999V0203401N00931220001CN0300001N9-00391-01221098351ADDAY121999GF102991021001999999041001KA1999M-00221MD1210221+9999MW1011
0057029720999991959022121004+60517+022267FM-12+005499999V0203201N00931220001CN0300001N9-00391-01221098571ADDAY101999GF103991031001999999041001MD1210221+9999MW1031
0057029720999991959022200004+60517+022267FM-12+005499999V0203301N00931220001CN0300001N9-00391-01281098751ADDAY101999GF102991021001999999041001MD1210181+9999MW1021
0057029720999991959022203004+60517+022267FM-12+005499999V0203301N00511220001CN0300001N9-00611-01111098961ADDAY101999GF101991011001999999041001MD1210201+9999MW1011
0070029720999991959022206004+60517+022267FM-12+005499999V0203301N00511220001CN0300001N9-00611-01111099081ADDAY101999GF101991011001999999041001KA1999N-00721MD1210121+9999MW1021
0057029720999991959022215004+60517+022267FM-12+005499999V0203401N00821004501CN0300001N9-00281-00781099811ADDAY171999GF106991061051004501001001MD1210331+9999MW1701
0070029720999991959022218004+60517+022267FM-12+005499999V0203401N00821004501CN0300001N9-00281-00891100231ADDAY121999GF106991061051004501999999KA1999M-00281MD1210421+9999MW1021
0057029720999991959022221004+60517+022267FM-12+005499999V0203401N00721220001CN0300001N9-00391-01001100581ADDAY101999GF100991001001999999001001MD1210351+9999MW1021
0057029720999991959022300004+60517+022267FM-12+005499999V0203601N00511220001CN0300001N9-00501-00891100811ADDAY101999GF100991001001999999001001MD1210231+9999MW1021
0070029720999991959022306004+60517+022267FM-12+005499999V0203201N00211220001CN0400001N9-01001-01221101241ADDAY101999GF104991001001999999001011KA1999N-01001MD1210171+9999MW1031
0057029720999991959022309004+60517+022267FM-12+005499999V0203601N00101220001CN0400001N9-00611-01001101321ADDAY121999GF104991011001999999041021MD1210101+9999MW1031
0057029720999991959022312004+60517+022267FM-12+005499999V0202301N00211220001CN0400001N9-00221-00891101271ADDAY101999GF102991011001999999041021MD1710041+9999MW1021
0057029720999991959022315004+60517+022267FM-12+005499999V0202101N00211075001CN0400001N9-00391-00781101141ADDAY111999GF105991011001999999041021MD1710131+9999MW1031
0070029720999991959022318004+60517+022267FM-12+005499999V0201801N00211024001CN0250001N9-00391-00721100881ADDAY121999GF107991071001999999041061KA1999M-00221MD1710261+9999MW1021
0057029720999991959022321004+60517+022267FM-12+005499999V0201801N00411024001CN0300001N9-00281-00501100461ADDAY111999GF108991081001999999071999MD1710421+9999MW1011
0057029720999991959022400004+60517+022267FM-12+005499999V0201801N00411000151CN0030001N9-00221-00221099991ADDAY121999GF109991091999000251999999MD1710461+9999MW1721
0057029720999991959022403004+60517+022267FM-12+005499999V0202001N00511000151CN0010001N9+00001+00001099451ADDAY171999GF109991091999000251999999MD1710531+9999MW1701
0081029720999991959022406004+60517+022267FM-12+005499999V0202301N00311000601CN0015001N9+00111+00001099001ADDAA199002091AY171999GF108991081061000751999999KA1999N-00501MD1710441+9999MW1731
0057029720999991959022409004+60517+022267FM-12+005499999V0203201N00311002401CN0400001N9+00111+00111098921ADDAY171999GF107991061061002501071999MD1610081+9999MW1231
0057029720999991959022415004+60517+022267FM-12+005499999V0203201N00931030001CN0300001N9+00111-00111099431ADDAY171999GF106991031051002501041001MD1210331+9999MW1221
0081029720999991959022418004+60517+022267FM-12+005499999V0203201N00931220001CN0300001N9+00111-00501099821ADDAA199002091AY121999GF102991021051004501001001KA1999M+00281MD1210391+9999MW1011
0057029720999991959022421004+60517+022267FM-12+005499999V0203201N00721220001CN0300001N9+00001-00391100121ADDAY101999GF100991001001999999001001MD1210301+9999MW1011
0057029720999991959022500004+60517+022267FM-12+005499999V0202901N00821220001CN0300001N9+00001-00391100281ADDAY101999GF100991001001999999001001MD1210151+9999MW1021
0057029720999991959022503004+60517+022267FM-12+005499999V0202901N00721220001CN0300001N9-00111-00501100421ADDAY101999GF101991011001999999041001MD1210141+9999MW1021
0070029720999991959022506004+60517+022267FM-12+005499999V0203001N00211075001CN0300001N9-00221-00501100531ADDAY121999GF106991011011002501041061KA1999N-00281MD1210101+9999MW1021
0092029720999991959022509004+60517+022267FM-12+005499999V0202901N00211030001CN0300001N9+00111-00391100501ADDAY121999GF106991011051002501071011MD1710031+9999MW1021EQDQ01+000042APCTENQ02+000022APC3  
0057029720999991959022515004+60517+022267FM-12+005499999V0202501N00311220001CN0300001N9+00221-00111100641ADDAY101999GF102991011051004501001011MD1210131+9999MW1011
0070029720999991959022518004+60517+022267FM-12+005499999V0202301N00211220001CN0300001N9-00281-00391100741ADDAY101999GF104991001001999999001011KA1999M+00391MD1210091+9999MW1031
0057029720999991959022521004+60517+022267FM-12+005499999V0201801N00101220001CN0250001N9-00281-00391100651ADDAY101999GF102991001001999999001011MD1710101+9999MW1021
0057029720999991959022600004+60517+022267FM-12+005499999V0201801N00311024001CN0060001N9-00111-00221100551ADDAY121999GF108991081001999999071999MD1710091+9999MW1031
0057029720999991959022603004+60517+022267FM-12+005499999V0201801N00511000151CN0005001N9+00111+00111100151ADDAY121999GF109991091999000251999999MD1710401+9999MW1561
0081029720999991959022606004+60517+022267FM-12+005499999V0202201N00621000601CN0020001N9+00221+00221099661ADDAA199002091AY161999GF108991081061000751999999KA1999N-00391MD1710481+9999MW1631
0057029720999991959022609004+60517+022267FM-12+005499999V0202701N00721002401CN0200001N9+00391+00391099831ADDAY161999GF108991081061002501999999MD1210181+9999MW1021
0057029720999991959022612004+60517+022267FM-12+005499999V0203201N00821220001CN0300001N9+00611+00111100141ADDAY101999GF102991011051008001001011MD1210301+9999MW1021
0081029720999991959022618004+60517+022267FM-12+005499999V0202701N00311220001CN0300001N9+00221-00111101001ADDAA199000691AY101999GF101991001001999999001011KA1999M+00611MD1210421+9999MW1011
0057029720999991959022621004+60517+022267FM-12+005499999V0202101N00311220001CN0300001N9-00221-00281101061ADDAY101999GF100991001001999999001001MD1210061+9999MW1021
0057029720999991959022700004+60517+022267FM-12+005499999V0201801N00411220001CN0300001N9+00111-00281100791ADDAY101999GF105991001001999999001051MD1710261+9999MW1031
0070029720999991959022706004+60517+022267FM-12+005499999V0202301N00511001501CN0100001N9+00221+00221100221ADDAY121999GF108991081061001501999999KA1999N-00221MD1710171+9999MW1511
0057029720999991959022709004+60517+022267FM-12+005499999V0202701N00621001501CN0150001N9+00391+00281100181ADDAY181999GF107991071061001501999999MD1710031+9999MW1251
0057029720999991959022712004+60517+022267FM-12+005499999V0202901N00721220001CN0300001N9+00611-00111100461ADDAY111999GF101991011001999999041001MD1210281+9999MW1011
0057029720999991959022715004+60517+022267FM-12+005499999V0203201N00311220001CN0300001N9+00501-00281100811ADDAY101999GF101991001001999999001011MD1210351+9999MW1021
0070029720999991959022718004+60517+022267FM-12+005499999V0203201N00511220001CN0300001N9+00281-00281101061ADDAY101999GF101991001001999999001011KA1999M+00611MD1210241+9999MW1021
0057029720999991959022721004+60517+022267FM-12+005499999V0203201N00311220001CN0300001N9+00221-00391101241ADDAY101999GF100991001001999999001001MD1210171+9999MW1021
0057029720999991959022800004+60517+022267FM-12+005499999V0202701N00211220001CN0300001N9+00111-00501101461ADDAY101999GF100991001001999999001001MD1210221+9999MW1021
0057029720999991959022803004+60517+022267FM-12+005499999V0202301N00211220001CN0300001N9-00391-00501101511ADDAY101999GF101991001001999999001011MD1210051+9999MW1031
0070029720999991959022806004+60517+022267FM-12+005499999V0202001N00211220001CN0080001N9-00391-00391101601ADDAY101999GF105991011001999999041011KA1999N-00501MD1210081+9999MW1031
0057029720999991959022809004+60517+022267FM-12+005499999V0201801N00311220001CN0150001N9+00221-00391101531ADDAY121999GF106991021001999999041011MD1710061+9999MW1031
0057029720999991959022812004+60517+022267FM-12+005499999V0202001N00411000601CN0012001N9+00111+00111101411ADDAY121999GF108991081061000751999999MD1710121+9999MW1501
0081029720999991959022818004+60517+022267FM-12+005499999V0202001N00411220001CN0030001N9+00391+00001101211ADDAA199001091AY101999GF103991021061001501041001KA1999M+00391MD1710101+9999MW1101
0057029720999991959022821004+60517+022267FM-12+005499999V0202201N00211220001CN0030001N9+00001+00001101261ADDAY101999GF100991001001999999001001MD1210051+9999MW1101
0057029720999991959030100004+60517+022267FM-12+005499999V0202201N00101220001CN0006001N9+00001+00001101341ADDAY101999GF100991001001999999001001MD1210081+9999MW1461
0057029720999991959030103004+60517+022267FM-12+005499999V0202201N00101220001CN0002001N9-00221-00221101351ADDAY141999GF100991001001999999001001MD1210011+9999MW1441
0070029720999991959030106004+60517+022267FM-12+005499999V0202201N00211220001CN0002001N9-00111-00111101371ADDAY141999GF100991001001999999001001KA1999N-00281MD1210021+9999MW1421
0057029720999991959030112004+60517+022267FM-12+005499999V0203001N00511001501CN0100001N9+00501+00221101591ADDAY111999GF105991051061001501001011MD1210091+9999MW1011
0057029720999991959030115004+60517+022267FM-12+005499999V0203001N00411220001CN0200001N9+00501+00111101781ADDAY101999GF100991001001999999001001MD1210191+9999MW1021
0070029720999991959030118004+60517+022267FM-12+005499999V0203001N00311220001CN0100001N9+00111+00001102181ADDAY101999GF100991001001999999001001KA1999M+00501MD1210381+9999MW1021
0057029720999991959030121004+60517+022267FM-12+005499999V0202701N00101220001CN0100001N9-00221-00221102411ADDAY101999GF100991001001999999001001MD1210231+9999MW1021
0057029720999991959030200004+60517+022267FM-12+005499999V0202501N00211220001CN0100001N9-00391-00501102601ADDAY101999GF100991001001999999001001MD1210171+9999MW1021
0070029720999991959030206004+60517+022267FM-12+005499999V0202001N00101220001CN0050001N9-00281-00281102801ADDAY101999GF101991001001999999001011KA1999N-00391MD1210111+9999MW1121
0092029720999991959030209004+60517+022267FM-12+005499999V0201801N00411220001CN0080001N9+00221-00221102791ADDAY101999GF103991001001999999001011MD1710011+9999MW1021EQDQ01+000042APCTENQ02+000012APC3  
0057029720999991959030212004+60517+022267FM-12+005499999V0202301N00311220001CN0200001N9+00721-00111102811ADDAY101999GF103991001001999999001011MD1210031+9999MW1021
0057029720999991959030215004+60517+022267FM-12+005499999V0202001N00411075001CN0200001N9+00391+00001102641ADDAY121999GF107991031001999999041061MD1710171+9999MW1031
0070029720999991959030218004+60517+022267FM-12+005499999V0201801N00311220001CN0080001N9+00111+00001102641ADDAY121999GF106991021001999999071061KA1999M+00721MD1410001+9999MW1011
0076029720999991959030221004+60517+022267FM-12+005499999V0201801N00211220001CN0100001N9+00001+00001102521ADDAY101999GF102991001001999999001011MD1810131+9999MW1021EQDQ01+000022SCOTLC
0076029720999991959030300004+60517+022267FM-12+005499999V0201801N00411220001CN0150001N9+00111-00111102381ADDAY111999GF104991001001999999001051MD1710141+9999MW1031EQDQ01+000042SCOTLC
0057029720999991959030303004+60517+022267FM-12+005499999V0201801N00211024001CN0150001N9+00221-00111102201ADDAY111999GF105991051001999999041051MD1710181+9999MW1021
0070029720999991959030306004+60517+022267FM-12+005499999V0202001N00511001501CN0080001N9+00221+00111102031ADDAY121999GF108991081071001501999999KA1999N-00111MD1710171+9999MW1031
0057029720999991959030309004+60517+022267FM-12+005499999V0201801N00511000151CN0005001N9+00111+00111101991ADDAY141999GF109991091999000251999999MD1710041+9999MW1471
0043029720999991959030312004+60517+022267FM-12+005499999V0201801N00211000151CN0005001N9+00111+00111102001ADDAY141999GF109991091999000251999999MW1451
0057029720999991959030315004+60517+022267FM-12+005499999V0202001N00311000151CN0003001N9+00111+00111101971ADDAY141999GF109991091999000251999999MD1810031+9999MW1451
0070029720999991959030318004+60517+022267FM-12+005499999V0201801N00211000151CN0001001N9+00111+00111101981ADDAY141999GF109991091999000251999999KA1999M+00221MD1210011+9999MW1451
0057029720999991959030321004+60517+022267FM-12+005499999V0201801N00211000151CN0002001N9+00111+00111101971ADDAY141999GF109991091999000251999999MD1710011+9999MW1451
0057029720999991959030400004+60517+022267FM-12+005499999V0201801N00511000151CN0004001N9+00111+00111101911ADDAY141999GF109991091999000251999999MD1710061+9999MW1451
0057029720999991959030403004+60517+022267FM-12+005499999V0201801N00311000151CN0003001N9+00001+00001101811ADDAY141999GF109991091999000251999999MD1710101+9999MW1451
0070029720999991959030406004+60517+022267FM-12+005499999V0201601N00311000151CN0003001N9+00001+00001101721ADDAY141999GF109991091999000251999999KA1999N+00001MD1710091+9999MW1511
0057029720999991959030409004+60517+022267FM-12+005499999V0201401N00411000151CN0005001N9+00001+00001101621ADDAY141999GF109991091999000251999999MD1710101+9999MW1431
0057029720999991959030412004+60517+022267FM-12+005499999V0201401N00411000601CN0150001N9+00111+00001101361ADDAY141999GF108991081061000751999999MD1710261+9999MW1021
0057029720999991959030415004+60517+022267FM-12+005499999V0201601N00411075001CN0150001N9+00221-00111101231ADDAY121999GF107991011001999999041021MD1710131+9999MW1011
0081029720999991959030418004+60517+022267FM-12+005499999V0201601N00411075001CN0150001N9+00111+00001101151ADDAA199000591AY121999GF107991041001999999071021KA1999M+00221MD1710081+9999MW1021
0057029720999991959030421004+60517+022267FM-12+005499999V0201601N00411030001CN0150001N9+00281+00111101051ADDAY121999GF107991021051008001071999MD1710101+9999MW1021
0057029720999991959030500004+60517+022267FM-12+005499999V0201601N00411075001CN0200001N9+00391-00111100991ADDAY121999GF106991021001999999071051MD1710061+9999MW1011
0057029720999991959030503004+60517+022267FM-12+005499999V0201601N00511075001CN0200001N9+00221-00111100921ADDAY121999GF106991021001999999041051MD1710071+9999MW1021
0070029720999991959030506004+60517+022267FM-12+005499999V0201601N00411075001CN0200001N9+00111-00111100941ADDAY121999GF108991031001999999041061KA1999N+00111MD1710031+9999MW1031
0057029720999991959030509004+60517+022267FM-12+005499999V0201801N00511004501CN0200001N9+00221-00111100981ADDAY121999GF108991061051004501071061MD1210031+9999MW1021
0057029720999991959030512004+60517+022267FM-12+005499999V0201601N00621001501CN0015001N9+00111+00001100941ADDAY161999GF108991081061001501999999MD1710031+9999MW1681
0057029720999991959030515004+60517+022267FM-12+005499999V0201801N00511001501CN0070001N9+00111+00001100931ADDAY171999GF108991081061001501999999MD1710011+9999MW1681
0081029720999991959030518004+60517+022267FM-12+005499999V0201801N00621001501CN0040001N9+00111+00111100971ADDAA199003091AY171999GF108991081061001501999999KA1999M+00221MD1210041+9999MW1611
0057029720999991959030521004+60517+022267FM-12+005499999V0201801N00721000601CN0040001N9+00221+00111100991ADDAY161999GF108991081061000751999999MD1210021+9999MW1631
0057029720999991959030600004+60517+022267FM-12+005499999V0201601N00511000601CN0035001N9+00111+00111101011ADDAY161999GF108991081061000751999999MD1210021+9999MW1611
0057029720999991959030603004+60517+022267FM-12+005499999V0201801N00511000601CN0030001N9+00111+00111101021ADDAY171999GF108991081061000751999999MD1210011+9999MW1511
0081029720999991959030606004+60517+022267FM-12+005499999V0201801N00621000601CN0007001N9+00111+00111100941ADDAA199003091AY161999GF108991081061000751999999KA1999N+00111MD1710081+9999MW1531
0057029720999991959030609004+60517+022267FM-12+005499999V0201801N00721000151CN0007001N9+00111+00111100981ADDAY151999GF109991091999000251999999MD1210051+9999MW1531
0057029720999991959030612004+60517+022267FM-12+005499999V0201701N00621000151CN0005001N9+00111+00111100961ADDAY151999GF109991091999000251999999MD1710021+9999MW1531
0057029720999991959030615004+60517+022267FM-12+005499999V0201701N00821000151CN0002001N9+00001+00001100771ADDAY151999GF109991091999000251999999MD1710191+9999MW1471
0081029720999991959030618004+60517+022267FM-12+005499999V0201601N00821000151CN0012001N9+00001+00001100601ADDAA199000591AY151999GF109991091999000251999999KA1999M+00221MD1710171+9999MW1501
0057029720999991959030621004+60517+022267FM-12+005499999V0201601N00931000601CN0015001N9+00111+00111100191ADDAY121999GF108991081061000751999999MD1710411+9999MW1501
0057029720999991959030700004+60517+022267FM-12+005499999V0201601N01031001501CN0030001N9+00111+00001099581ADDAY171999GF108991081061001501999999MD1710601+9999MW1681
0057029720999991959030703004+60517+022267FM-12+005499999V0201801N00931001501CN0050001N9+00221+00221099181ADDAY161999GF108991081061001501999999MD1710401+9999MW1611
0081029720999991959030706004+60517+022267FM-12+005499999V0202001N01031001501CN0100001N9+00221+00111099041ADDAA199010091AY151999GF108991081061001501999999KA1999N+00111MD1710201+9999MW1601
0057029720999991959030709004+60517+022267FM-12+005499999V0202001N00821002401CN0200001N9+00221+00111099431ADDAY121999GF108991081061002501999999MD1210391+9999MW1021
0057029720999991959030712004+60517+022267FM-12+005499999V0202301N00621001501CN0200001N9+00281+00111099601ADDAY121999GF108991081061001501999999MD1210181+9999MW1021
0081029720999991959030718004+60517+022267FM-12+005499999V0201901N00721001501CN0150001N9+00281+00111099691ADDAA199000691AY121999GF108991081061001501999999KA1999M+00281MD1010011+9999MW1021
0057029720999991959030721004+60517+022267FM-12+005499999V0202001N00821001501CN0150001N9+00221+00111099541ADDAY121999GF108991081061001501999999MD1710151+9999MW1021
0057029720999991959030800004+60517+022267FM-12+005499999V0202601N00821001501CN0080001N9+00281+00221099361ADDAY161999GF108991081061001501999999MD1710181+9999MW1631
0076029720999991959030803004+60517+022267FM-12+005499999V0202701N00211220001CN0150001N9+00001-00111099571ADDAY121999GF108991999001999999041001MD1210201+9999MW1011EQDQ01+000002SCOTLC
0081029720999991959030806004+60517+022267FM-12+005499999V0202701N00311220001CN0250001N9-00221-00391099801ADDAA199005091AY101999GF104991011011001501041001KA1999N-00221MD1210231+9999MW1021
0057029720999991959030809004+60517+022267FM-12+005499999V0202701N00721220001CN0300001N9+00001-00781999999ADDAY101999GF104991041051004501001001MD1210191+9999MW1031
0057029720999991959030812004+60517+022267FM-12+005499999V0202701N00721220001CN0400001N9+00111-00721100101ADDAY121999GF102991021011008001001001MD1210101+9999MW1011
0081029720999991959030818004+60517+022267FM-12+005499999V0202701N00721004501CN0150001N9-00111-00391100321ADDAA199000691AY161999GF107991071051004501999999KA1999M+00111MD1210081+9999MW1681
0057029720999991959030821004+60517+022267FM-12+005499999V0202501N00821007801CN0100001N9-00111-00281100461ADDAY171999GF108991081051008001999999MD1210151+9999MW1021
0057029720999991959030900004+60517+022267FM-12+005499999V0203201N00621220001CN0150001N9-00221-00781100741ADDAY101999GF103991031001999999031001MD1210281+9999MW1011
0057029720999991959030903004+60517+022267FM-12+005499999V0202901N00511220001CN0150001N9-00281-00781101001ADDAY101999GF100991001001999999001001MD1210261+9999MW1011
0081029720999991959030906004+60517+022267FM-12+005499999V0203201N00411007801CN0300001N9-00281-00781101321ADDAA199000691AY111999GF106991061051008001001001KA1999N-00281MD1210321+9999MW1031
0057029720999991959030909004+60517+022267FM-12+005499999V0203401N00511220001CN0300001N9-00111-00781101681ADDAY111999GF101991011051008001041001MD1210351+9999MW1011
0057029720999991959030912004+60517+022267FM-12+005499999V0203401N00621220001CN0500001N9+00111-01111101961ADDAY101999GF101991011011004501001011MD1210281+9999MW1021
0057029720999991959030915004+60517+022267FM-12+005499999V0203401N00411220001CN0500001N9+00111-01111102171ADDAY101999GF101991001001999999001011MD1210211+9999MW1021
0070029720999991959030918004+60517+022267FM-12+005499999V0203201N00311220001CN0400001N9-00281-00781102501ADDAY101999GF101991001001999999001011KA1999M+00111MD1210311+9999MW1021
0057029720999991959030921004+60517+022267FM-12+005499999V0203201N00311220001CN0400001N9-00721-00781102681ADDAY101999GF100991001001999999001001MD1210181+9999MW1011
0057029720999991959031000004+60517+022267FM-12+005499999V0202701N00211220001CN0400001N9-00721-00721102791ADDAY101999GF100991001001999999001001MD1210111+9999MW1021
0057029720999991959031003004+60517+022267FM-12+005499999V0202301N00211220001CN0400001N9-00611-00721102811ADDAY101999GF100991001001999999001001MD1210021+9999MW1021
0070029720999991959031006004+60517+022267FM-12+005499999V0202301N00211220001CN0150001N9-00501-00611102911ADDAY101999GF102991011001999999041011KA1999N-00781MD1210101+9999MW1031
0057029720999991959031009004+60517+022267FM-12+005499999V0202201N00101220001CN0150001N9+00111-00221103001ADDAY101999GF105991021001999999041011MD1210101+9999MW1031
0057029720999991959031012004+60517+022267FM-12+005499999V0202701N00211220001CN0500001N9+00611-00221102951ADDAY121999GF107991001001999999001021MD1710031+9999MW1021
0057029720999991959031015004+60517+022267FM-12+005499999V0202701N00311220001CN0500001N9+00501-00281102911ADDAY121999GF106991001001999999001021MD1610041+9999MW1021
0070029720999991959031018004+60517+022267FM-12+005499999V0202701N00211220001CN0300001N9+00001-00221102981ADDAY121999GF105991001001999999041021KA1999M+00721MD1210061+9999MW1021
0057029720999991959031021004+60517+022267FM-12+005499999V0203001N00101220001CN0250001N9-00221-00281103051ADDAY101999GF100991001001999999001001MD1210061+9999MW1011
0057029720999991959031100004+60517+022267FM-12+005499999V0202701N00101220001CN0250001N9-00391-00391103041ADDAY101999GF100991001001999999001001MD1710021+9999MW1021
0057029720999991959031103004+60517+022267FM-12+005499999V0202001N00101220001CN0250001N9-00501-00501103041ADDAY101999GF100991001001999999001001MD1410001+9999MW1021
0070029720999991959031106004+60517+022267FM-12+005499999V0202301N00101220001CN0080001N9-00611-00721103021ADDAY101999GF101991001001999999001051KA1999N-00721MD1710021+9999MW1111
0057029720999991959031109004+60517+022267FM-12+005499999V0202501N00101220001CN0150001N9+00281-00391103051ADDAY101999GF100991001001999999001001MD1210051+9999MW1021
0057029720999991959031112004+60517+022267FM-12+005499999V0202701N00211220001CN0300001N9+00721-00221102981ADDAY101999GF100991001001999999001001MD1710061+9999MW1021
0057029720999991959031115004+60517+022267FM-12+005499999V0202601N00211220001CN0300001N9+00501-00391102961ADDAY101999GF101991001001999999001011MD1710031+9999MW1021
0070029720999991959031118004+60517+022267FM-12+005499999V0202401N00101220001CN0300001N9+00001-00501102931ADDAY101999GF101991011001999999041001KA1999M+00721MD1710031+9999MW1021
0057029720999991959031121004+60517+022267FM-12+005499999V0209991C00001220001CN0200001N9-00391-00501102931ADDAY101999GF100991001001999999001001MD1710021+9999MW1021
0057029720999991959031200004+60517+022267FM-12+005499999V0202001N00101220001CN0150001N9-00721-00721102931ADDAY101999GF100991001001999999001001MD1410001+9999MW1021
0057029720999991959031203004+60517+022267FM-12+005499999V0201801N00101220001CN0150001N9-00891-01001102931ADDAY101999GF100991001001999999001001MD1210021+9999MW1021
0070029720999991959031206004+60517+022267FM-12+005499999V0201801N00101220001CN0200001N9-01001-01001102921ADDAY101999GF105991001001999999001011KA1999N-01001MD1810011+9999MW1031
0057029720999991959031209004+60517+022267FM-12+005499999V0201801N00101220001CN0300001N9+00111-00221102921ADDAY101999GF103991001001999999001011MD1310041+9999MW1011
0057029720999991959031212004+60517+022267FM-12+005499999V0202301N00101220001CN0200001N9+00611-00391102871ADDAY101999GF103991001001999999001011MD1710041+9999MW1021
0057029720999991959031215004+60517+022267FM-12+005499999V0202901N00101220001CN0300001N9+00611-00721102831ADDAY101999GF103991001001999999001011MD1710041+9999MW1021
0070029720999991959031218004+60517+022267FM-12+005499999V0202701N00101220001CN0300001N9+00001-00611102841ADDAY101999GF101991001001999999001011KA1999M+00781MD1410001+9999MW1011
0057029720999991959031221004+60517+022267FM-12+005499999V0202701N00101220001CN0300001N9+00111-00221102901ADDAY101999GF100991001001999999001001MD1210061+9999MW1021
0057029720999991959031300004+60517+022267FM-12+005499999V0209991C00001220001CN0060001N9-00611-00611102941ADDAY101999GF100991001001999999001001MD1010221+9999MW1021
0057029720999991959031303004+60517+022267FM-12+005499999V0209991C00001220001CN0100001N9-00891-01001102991ADDAY101999GF100991001001999999001001MD1210031+9999MW1021
0070029720999991959031306004+60517+022267FM-12+005499999V0209991C00001220001CN0080001N9-01001-01221103031ADDAY101999GF102991001001999999001011KA1999N-01111MD1210041+9999MW1031
0057029720999991959031309004+60517+022267FM-12+005499999V0201801N00101220001CN0200001N9+00221-00501103101ADDAY101999GF102991001001999999001011MD1210101+9999MW1021
0057029720999991959031312004+60517+022267FM-12+005499999V0202001N00101220001CN0200001N9+00501-00501103121ADDAY101999GF101991001001999999001011MD1210041+9999MW1021
0057029720999991959031315004+60517+022267FM-12+005499999V0202301N00211220001CN0400001N9+00501-00611103101ADDAY101999GF100991001001999999001001MD1810021+9999MW1021
0070029720999991959031318004+60517+022267FM-12+005499999V0202301N00101220001CN0300001N9+00001-00611103161ADDAY101999GF101991001001999999001011KA1999M+00721MD1210041+9999MW1021
0057029720999991959031321004+60517+022267FM-12+005499999V0202301N00101220001CN0100001N9-00221-00501103221ADDAY101999GF100991001001999999001001MD1210061+9999MW1011
0057029720999991959031400004+60517+022267FM-12+005499999V0202301N00101220001CN0100001N9-00611-00781103281ADDAY101999GF100991001001999999001001MD1210051+9999MW1021
0057029720999991959031403004+60517+022267FM-12+005499999V0201401N00101220001CN0100001N9-00891-00891103281ADDAY101999GF100991001001999999001001MD1410001+9999MW1021
0070029720999991959031406004+60517+022267FM-12+005499999V0201401N00101220001CN0080001N9-00891-01001103411ADDAY101999GF101991001001999999001011KA1999N-01001MD1210111+9999MW1021
0057029720999991959031412004+60517+022267FM-12+005499999V0201801N00051220001CN0250001N9+00501-00391103421ADDAY101999GF101991011011008001001011MD1710021+9999MW1051
0057029720999991959031415004+60517+022267FM-12+005499999V0201601N00051220001CN0300001N9+00501-00501103381ADDAY101999GF103991011011008001041011MD1710031+9999MW1031
0070029720999991959031418004+60517+022267FM-12+005499999V0201801N00211024001CN0300001N9+00111-00501103401ADDAY111999GF106991061001999999071001KA1999M+00611MD1310011+9999MW1031
0057029720999991959031421004+60517+022267FM-12+005499999V0201201N00311220001CN0150001N9-00221-00391103421ADDAY121999GF104991021051008001071001MD1210021+9999MW1011
0057029720999991959031500004+60517+022267FM-12+005499999V0201201N00101220001CN0200001N9-00391-00501103421ADDAY101999GF100991001001999999001001MD1710011+9999MW1011
0057029720999991959031503004+60517+022267FM-12+005499999V0201401N00101220001CN0200001N9-00391-00391103421ADDAY101999GF100991001001999999001001MD1410001+9999MW1021
0070029720999991959031506004+60517+022267FM-12+005499999V0201401N00211002401CN0080001N9-00281-00281103301ADDAY121999GF108991081061002501999999KA1999N-00501MD1810121+9999MW1031
0057029720999991959031509004+60517+022267FM-12+005499999V0201801N00311004501CN0070001N9-00111-00281103191ADDAY121999GF107991071051004501999999MD1810121+9999MW1011
0057029720999991959031512004+60517+022267FM-12+005499999V0201801N00411004501CN0100001N9+00111-00281103091ADDAY121999GF107991071051004501999999MD1710091+9999MW1021
0057029720999991959031515004+60517+022267FM-12+005499999V0201801N00411002401CN0070001N9+00001-00221102961ADDAY121999GF108991081051002501999999MD1710131+9999MW1021
0070029720999991959031518004+60517+022267FM-12+005499999V0201801N00211001501CN0050001N9+00001-00111102901ADDAY121999GF108991081061001501999999KA1999M+00111MD1710081+9999MW1501
0057029720999991959031521004+60517+022267FM-12+005499999V0201801N00311007801CN0100001N9+00001-00221102821ADDAY151999GF108991081051008001999999MD1710061+9999MW1021
0057029720999991959031600004+60517+022267FM-12+005499999V0201801N00101220001CN0080001N9-00111-00221102781ADDAY121999GF100991001001999999001001MD1710041+9999MW1011
0057029720999991959031603004+60517+022267FM-12+005499999V0201801N00101012301CN0060001N9-00111-00111102661ADDAY121999GF108991081051012501999999MD1710121+9999MW1031
0081029720999991959031606004+60517+022267FM-12+005499999V0201801N00101002401CN0050001N9-00111-00111102681ADDAA199000691AY121999GF108991081061002501999999KA1999N-00221MD1210021+9999MW1021
0057029720999991959031609004+60517+022267FM-12+005499999V0202001N00211002401CN0070001N9+00111-00111102741ADDAY121999GF108991081061002501999999MD1210061+9999MW1021
0057029720999991959031612004+60517+022267FM-12+005499999V0202201N00311004501CN0100001N9+00221-00111102771ADDAY121999GF108991081061004501999999MD1210031+9999MW1021
0076029720999991959031615004+60517+022267FM-12+005499999V0202201N00311004501CN0100001N9+00221-00221102781ADDAY121999GF108991999061004501001051MD1210011+9999MW1021EQDQ01+000082SCOTLC
0070029720999991959031618004+60517+022267FM-12+005499999V0202001N00101030001CN0060001N9-00111-00221102801ADDAY121999GF106991041061004501041001KA1999M+00221MD1210021+9999MW1011
0076029720999991959031621004+60517+022267FM-12+005499999V0209991C00001220001CN0050001N9-00221-00281102881ADDAY101999GF103991999001999999041001MD1210081+9999MW1111EQDQ01+000002SCOTLC
0057029720999991959031700004+60517+022267FM-12+005499999V0209991C00001220001CN0015001N9-00281-00281102881ADDAY101999GF101991011001999999041001MD1710021+9999MW1101
0057029720999991959031703004+60517+022267FM-12+005499999V0209991C00001220001CN0008001N9-00391-00391102911ADDAY141999GF100991001001999999001001MD1210031+9999MW1481
0089029720999991959031706004+60517+022267FM-12+005499999V0201801N00101220001CN0020001N9-00501-00611102921ADDAY101999GF103991999001999999031001KA1999N-00611MD1210011+9999MW1101EQDQ01+000002SCOTLC
0057029720999991959031709004+60517+022267FM-12+005499999V0201801N00411220001CN0150001N9+00111-00221103001ADDAY121999GF107991001001999999041061MD1210091+9999MW1021
0043029720999991959031712004+60517+022267FM-12+005499999V0202301N00621024001CN0200001N9+00281-00221102991ADDAY121999GF107991061001999999041061MW1021
0057029720999991959031715004+60517+022267FM-12+005499999V0202301N00411024001CN0200001N9+00221-00111103001ADDAY121999GF108991081001999999071999MD1410001+9999MW1031
0105029720999991959031718004+60517+022267FM-12+005499999V0202001N00311024001CN0200001N9+00111-00111103011ADDAY121999GF108991081001999999071999KA1999M+00391MD1210011+9999MW1021EQDQ01+000042APCTENQ02+000012APC3  
0092029720999991959031721004+60517+022267FM-12+005499999V0202301N00311024001CN0200001N9+00001-00111103001ADDAY121999GF106991061001999999071001MD1710011+9999MW1021EQDQ01+000042APCTENQ02+000012APC3  
0108029720999991959031800004+60517+022267FM-12+005499999V0202001N00211220001CN0200001N9+00001-00111102991ADDAY111999GF104991999001999999041001MD1710011+9999MW1021EQDQ01+000032SCOTLCQ02+000042APCTENQ03+000012APC3  
0057029720999991959031803004+60517+022267FM-12+005499999V0202001N00311220001CN0250001N9-00111-00111102941ADDAY101999GF100991001001999999001001MD1710051+9999MW1021
0070029720999991959031806004+60517+022267FM-12+005499999V0202001N00211220001CN0040001N9-00111-00111102881ADDAY101999GF104991031001999999041021KA1999N-00221MD1710051+9999MW1031
0057029720999991959031809004+60517+022267FM-12+005499999V0202301N00211220001CN0200001N9+00391+00001102831ADDAY101999GF103991001001999999001011MD1710041+9999MW1011
0057029720999991959031812004+60517+022267FM-12+005499999V0202301N00511220001CN0300001N9+00501-00111102631ADDAY101999GF101991001001999999001011MD1710201+9999MW1011
0070029720999991959031818004+60517+022267FM-12+005499999V0202201N00721024001CN0300001N9+00221-00281102201ADDAY111999GF106991061001999999071999KA1999M+00501MD1710221+9999MW1031
0057029720999991959031821004+60517+022267FM-12+005499999V0202301N00621024001CN0300001N9+00221-00281102131ADDAY121999GF106991061001999999071999MD1710071+9999MW1021
0057029720999991959031900004+60517+022267FM-12+005499999V0202701N00411220001CN0300001N9+00221-00111102101ADDAY101999GF103991031001999999041001MD1710031+9999MW1011
0057029720999991959031903004+60517+022267FM-12+005499999V0202501N00211220001CN0200001N9+00001-00111102171ADDAY101999GF100991001001999999001001MD1210071+9999MW1011
0070029720999991959031906004+60517+022267FM-12+005499999V0203201N00311220001CN0200001N9+00001-00111102311ADDAY101999GF101991011001999999041011KA1999N-00111MD1210141+9999MW1011
0057029720999991959031909004+60517+022267FM-12+005499999V0203401N00511220001CN0500001N9+00391-00281102501ADDAY101999GF100991001001999999001001MD1210201+9999MW1021
0057029720999991959031912004+60517+022267FM-12+005499999V0203201N00411220001CN0500001N9+00611-00611102591ADDAY101999GF103991011011008001001011MD1210091+9999MW1031
0057029720999991959031915004+60517+022267FM-12+005499999V0203201N00311220001CN0500001N9+00611-00501102691ADDAY101999GF101991001001999999001011MD1210101+9999MW1011
0070029720999991959031918004+60517+022267FM-12+005499999V0203201N00311220001CN0500001N9+00111-00391102871ADDAY101999GF103991001001999999041021KA1999M+00721MD1210171+9999MW1021
0057029720999991959031921004+60517+022267FM-12+005499999V0203401N00101220001CN0300001N9-00221-00281103011ADDAY101999GF101991001001999999001011MD1210141+9999MW1021
0057029720999991959032000004+60517+022267FM-12+005499999V0203601N00101220001CN0300001N9-00391-00501103111ADDAY101999GF101991001001999999001011MD1210101+9999MW1021
0057029720999991959032003004+60517+022267FM-12+005499999V0202901N00101220001CN0300001N9-00391-00501103131ADDAY101999GF105991001001999999001051MD1210021+9999MW1031
0070029720999991959032006004+60517+022267FM-12+005499999V0202301N00211220001CN0100001N9-00501-00501103141ADDAY101999GF107991001001999999001061KA1999N-00611MD1210011+9999MW1031
0057029720999991959032009004+60517+022267FM-12+005499999V0202501N00101075001CN0200001N9+00221-00281103151ADDAY121999GF107991031001999999041061MD1210021+9999MW1021
0057029720999991959032012004+60517+022267FM-12+005499999V0202301N00101220001CN0400001N9+00391-00281103141ADDAY121999GF107991001001999999001071MD1010011+9999MW1021
0057029720999991959032015004+60517+022267FM-12+005499999V0203201N00101220001CN0400001N9+00501-00281103111ADDAY121999GF107991001001999999001021MD1710031+9999MW1021
0070029720999991959032018004+60517+022267FM-12+005499999V0202701N00211220001CN0300001N9+00221-00391103111ADDAY111999GF105991001001999999001021KA1999M+00611MD1410001+9999MW1021
0057029720999991959032021004+60517+022267FM-12+005499999V0201001N00101220001CN0200001N9-00281-00391103061ADDAY111999GF101991001001999999001011MD1210031+9999MW1011
0057029720999991959032100004+60517+022267FM-12+005499999V0202501N00211220001CN0200001N9-00221-00221103171ADDAY101999GF100991001001999999001001MD1210021+9999MW1021
