0057029720999991961010100004+60517+022267FM-12+005499999V0200901N00311001501CN0060001N9-00281-00281101631ADDAY171999GF108991081061001501999999MD1410001+9999MW1771
0057029720999991961010103004+60517+022267FM-12+005499999V0200901N00311001501CN0060001N9-00281-00281101591ADDAY171999GF108991081061001501999999MD1710041+9999MW1771
0081029720999991961010106004+60517+022267FM-12+005499999V0200901N00311001501CN0040001N9-00281-00281101531ADDAA199000691AY151999GF108991081061001501999999KA1999N-00281MD1710061+9999MW1571
0057029720999991961010109004+60517+022267FM-12+005499999V0200901N00211000601CN0015001N9-00221-00281101531ADDAY151999GF108991081061000751999999MD1410001+9999MW1571
0057029720999991961010112004+60517+022267FM-12+005499999V0200901N00211000151CN0004001N9-00221-00221101491ADDAY151999GF108991081061000251999999MD1710041+9999MW1771
0057029720999991961010115004+60517+022267FM-12+005499999V0200901N00211000601CN0025001N9-00221-00501101421ADDAY171999GF108991081061000751999999MD1710071+9999MW1711
0081029720999991961010118004+60517+022267FM-12+005499999V0200901N00101001501CN0050001N9-00221-00221101371ADDAA199000591AY171999GF108991081061001501999999KA1999M-00221MD1710051+9999MW1021
0057029720999991961010121004+60517+022267FM-12+005499999V0209991C00001030001CN0080001N9-00281-00281101331ADDAY121999GF108991041061002501071999MD1710041+9999MW1021
0057029720999991961010200004+60517+022267FM-12+005499999V0209991C00001002401CN0040001N9-00221-00281101321ADDAY171999GF108991051061002501071999MD1710011+9999MW1711
0057029720999991961010203004+60517+022267FM-12+005499999V0201401N00101002401CN0050001N9-00221-00281101261ADDAY171999GF108991061061002501071999MD1710061+9999MW1711
0081029720999991961010206004+60517+022267FM-12+005499999V0201401N00211004501CN0040001N9-00221-00221101221ADDAA199001091AY171999GF108991081061004501999999KA1999N-00281MD1710041+9999MW1711
0057029720999991961010209004+60517+022267FM-12+005499999V0201401N00211000151CN0025001N9-00111-00221101261ADDAY171999GF108991081061000251999999MD1210041+9999MW1781
0057029720999991961010212004+60517+022267FM-12+005499999V0201801N00311000151CN0010001N9+00001+00001101221ADDAY171999GF108991081061000251999999MD1710041+9999MW1711
0057029720999991961010215004+60517+022267FM-12+005499999V0201801N00311001501CN0070001N9+00001+00001101201ADDAY171999GF108991081061001501999999MD1710021+9999MW1221
0081029720999991961010218004+60517+022267FM-12+005499999V0201401N00411002401CN0070001N9+00001-00111101141ADDAA199000591AY121999GF108991081061002501999999KA1999M+00001MD1710061+9999MW1021
0057029720999991961010221004+60517+022267FM-12+005499999V0201401N00311001501CN0030001N9+00001+00001101091ADDAY171999GF108991081061001501999999MD1710041+9999MW1711
0057029720999991961010300004+60517+022267FM-12+005499999V0201401N00311000601CN0050001N9+00111+00001101051ADDAY121999GF108991081061000751999999MD1710041+9999MW1021
0057029720999991961010303004+60517+022267FM-12+005499999V0201801N00311000601CN0010001N9+00001+00001101041ADDAY171999GF108991081061000751999999MD1710011+9999MW1691
0081029720999991961010306004+60517+022267FM-12+005499999V0201801N00411007801CN0070001N9+00111+00001101011ADDAA199003091AY171999GF108991081051008001999999KA1999N+00001MD1710031+9999MW1011
0057029720999991961010309004+60517+022267FM-12+005499999V0201401N00411002401CN0050001N9+00111+00001101031ADDAY171999GF108991081061002501999999MD1310021+9999MW1231
0057029720999991961010312004+60517+022267FM-12+005499999V0201201N00511002401CN0100001N9+00001-00111101061ADDAY121999GF108991081061002501999999MD1210021+9999MW1021
0057029720999991961010315004+60517+022267FM-12+005499999V0201201N00511002401CN0060001N9+00001-00111100991ADDAY121999GF108991081061002501999999MD1710071+9999MW1021
0081029720999991961010318004+60517+022267FM-12+005499999V0201401N00511004501CN0150001N9+00001-00221100901ADDAA199000691AY121999GF108991081051004501999999KA1999M+00111MD1710081+9999MW1021
0057029720999991961010321004+60517+022267FM-12+005499999V0201201N00621004501CN0150001N9-00221-00391100841ADDAY121999GF108991081051004501999999MD1710071+9999MW1021
0057029720999991961010400004+60517+022267FM-12+005499999V0200901N00721004501CN0200001N9-00221-00391100681ADDAY121999GF108991081051004501999999MD1710161+9999MW1021
0057029720999991961010403004+60517+022267FM-12+005499999V0201201N00821004501CN0030001N9-00111-00391100471ADDAY171999GF108991081061004501999999MD1710211+9999MW1731
0100029720999991961010406004+60517+022267FM-12+005499999V0201401N00621002401CN0020001N9-00221-00221100471ADDAA199001091AY171999GF108991081061002501999999KA1999N-00221MD1410001+9999MW1731EQDQ01+000032APCTEN
0057029720999991961010409004+60517+022267FM-12+005499999V0201201N00511004501CN0015001N9-00221-00221100521ADDAY171999GF108991051061004501999999MD1210051+9999MW1731
0057029720999991961010412004+60517+022267FM-12+005499999V0201401N00511004501CN0100001N9-00221-00281100511ADDAY171999GF108991081061004501999999MD1710011+9999MW1021
0057029720999991961010415004+60517+022267FM-12+005499999V0200901N00411002401CN0100001N9-00111-00221100571ADDAY121999GF108991081061002501999999MD1210061+9999MW1021
0081029720999991961010418004+60517+022267FM-12+005499999V0200901N00311000151CN0009001N9-00111-00111100481ADDAA199002091AY121999GF109991091999000251999999KA1999M-00111MD1710081+9999MW1471
0057029720999991961010421004+60517+022267FM-12+005499999V0200901N00411000601CN0012001N9-00111-00111100371ADDAY141999GF108991081061000751999999MD1710111+9999MW1721
0057029720999991961010500004+60517+022267FM-12+005499999V0200901N00511001501CN0020001N9+00001-00111999999ADDAY171999GF108991081061001501999999MD1710361+9999MW1731
0057029720999991961010503004+60517+022267FM-12+005499999V0201401N00511001501CN0040001N9+00001+00001099761ADDAY171999GF108991081061001501999999MD1710241+9999MW1731
0081029720999991961010506004+60517+022267FM-12+005499999V0201801N00721000601CN0025001N9+00221+00111099701ADDAA199006091AY151999GF108991081061000751999999KA1999N-00111MD1710061+9999MW1611
0057029720999991961010512004+60517+022267FM-12+005499999V0202301N00311004501CN0150001N9+00221+00001100041ADDAY121999GF108991081051004501999999MD1210211+9999MW1021
0057029720999991961010515004+60517+022267FM-12+005499999V0202301N00511004501CN0150001N9+00111-00221100281ADDAY121999GF108991081051004501999999MD1210231+9999MW1021
0081029720999991961010518004+60517+022267FM-12+005499999V0202201N00311004501CN0100001N9+00111+00001100411ADDAA199000691AY121999GF108991081051004501999999KA1999M+00281MD1210181+9999MW1681
0057029720999991961010521004+60517+022267FM-12+005499999V0202201N00101007801CN0100001N9+00001+00001100501ADDAY171999GF108991081051008001999999MD1210081+9999MW1021
0057029720999991961010600004+60517+022267FM-12+005499999V0203601N00211007801CN0200001N9+00001-00111100451ADDAY121999GF108991081051008001999999MD1710051+9999MW1021
0076029720999991961010612004+60517+022267FM-12+005499999V0201801N00101004501CN0040001N9-00111-00111100481ADDAY171999GF108991999051004501021999MD1010001+9999MW1731EQDQ01+000082SCOTLC
0057029720999991961010615004+60517+022267FM-12+005499999V0209991C00001004501CN0008001N9-00221-00221100571ADDAY171999GF108991051051004501021999MD1210091+9999MW1711
0081029720999991961010618004+60517+022267FM-12+005499999V0209991C00001000151CN0010001N9-00391-00391100611ADDAA199001091AY141999GF109991091999000251999999KA1999M+00001MD1210041+9999MW1101
0057029720999991961010621004+60517+022267FM-12+005499999V0201801N00101000151CN0006001N9-00281-00281100741ADDAY141999GF109991091999000251999999MD1210131+9999MW1471
0057029720999991961010700004+60517+022267FM-12+005499999V0201401N00101030001CN0070001N9-00221-00281100821ADDAY141999GF108991031051004501071999MD1210081+9999MW1021
0057029720999991961010703004+60517+022267FM-12+005499999V0201801N00101030001CN0060001N9-00221-00221100901ADDAY121999GF108991041061002501071999MD1210081+9999MW1021
0081029720999991961010706004+60517+022267FM-12+005499999V0201801N00211004501CN0050001N9-00111-00111100881ADDAA199000391AY121999GF108991081061004501999999KA1999N-00391MD1710011+9999MW1721
0057029720999991961010712004+60517+022267FM-12+005499999V0201801N00411000601CN0011001N9+00111+00001100861ADDAY171999GF108991081061000751999999MD1710051+9999MW1731
0057029720999991961010715004+60517+022267FM-12+005499999V0201801N00411001501CN0030001N9+00001+00001100851ADDAY171999GF108991081061001501999999MD1710011+9999MW1221
0081029720999991961010718004+60517+022267FM-12+005499999V0201401N00411002401CN0030001N9+00001+00001100781ADDAA199001091AY171999GF108991081061002501999999KA1999M+00111MD1710071+9999MW1731
0057029720999991961010800004+60517+022267FM-12+005499999V0201801N00411001501CN0070001N9+00001+00001100661ADDAY171999GF108991081061001501999999MD1710101+9999MW1681
0057029720999991961010803004+60517+022267FM-12+005499999V0201801N00411001501CN0030001N9+00001+00001100561ADDAY171999GF108991081061001501999999MD1710101+9999MW1681
0081029720999991961010806004+60517+022267FM-12+005499999V0202701N00411000601CN0040001N9+00001+00001100511ADDAA199005091AY171999GF108991081061000751999999KA1999N+00001MD1710051+9999MW1231
0057029720999991961010809004+60517+022267FM-12+005499999V0203201N00311002401CN0100001N9+00001-00221100601ADDAY171999GF108991061051002501071999MD1210091+9999MW1711
0057029720999991961010812004+60517+022267FM-12+005499999V0202701N00101004501CN0200001N9-00111-00221100601ADDAY171999GF107991061051004501071001MD1410001+9999MW1011
0057029720999991961010815004+60517+022267FM-12+005499999V0202701N00211220001CN0150001N9-00391-00501100621ADDAY111999GF103991031051004501041001MD1210011+9999MW1111
0081029720999991961010818004+60517+022267FM-12+005499999V0202701N00101220001CN0200001N9-00721-00781100651ADDAA199000391AY111999GF102991021051008001001001KA1999M+00001MD1210021+9999MW1111
0057029720999991961010821004+60517+022267FM-12+005499999V0201401N00101030001CN0070001N9-00781-00891100661ADDAY111999GF107991041051004501071999MD1210011+9999MW1031
0057029720999991961010900004+60517+022267FM-12+005499999V0200901N00101030001CN0080001N9-00611-00721100681ADDAY171999GF107991031051008001071999MD1210021+9999MW1011
0057029720999991961010903004+60517+022267FM-12+005499999V0200901N00101030001CN0100001N9-00611-00721100701ADDAY121999GF107991031051008001071999MD1210021+9999MW1021
0116029720999991961010906004+60517+022267FM-12+005499999V0200901N00101030001CN0100001N9-00611-00721100711ADDAA199000691AY121999GF107991021051008001071999KA1999N-00891MD1210011+9999MW1021EQDQ01+000042APCTENQ02+000012APC3  
0057029720999991961010909004+60517+022267FM-12+005499999V0200901N00211012301CN0300001N9-00611-00781100801ADDAY121999GF107991051051012501071021MD1210091+9999MW1021
0057029720999991961010912004+60517+022267FM-12+005499999V0200901N00101075001CN0300001N9-00501-00721100781ADDAY121999GF105991021001999999041051MD1710021+9999MW1011
0057029720999991961010915004+60517+022267FM-12+005499999V0200901N00101075001CN0200001N9-00891-00891100801ADDAY121999GF105991011001999999041051MD1210021+9999MW1021
0070029720999991961010918004+60517+022267FM-12+005499999V0200701N00211220001CN0200001N9-01111-01221100841ADDAY101999GF103991001001999999001051KA1999M-00501MD1210031+9999MW1011
0057029720999991961010921004+60517+022267FM-12+005499999V0200701N00211220001CN0200001N9-01281-01501100901ADDAY101999GF100991001001999999001001MD1210051+9999MW1021
0057029720999991961011000004+60517+022267FM-12+005499999V0200901N00101220001CN0200001N9-01391-01611100971ADDAY101999GF100991001001999999001001MD1210071+9999MW1021
0057029720999991961011009004+60517+022267FM-12+005499999V0200901N00311000601CN0050001N9-00781-00891100991ADDAY141999GF108991081061000751999999MD1710021+9999MW1021
0057029720999991961011012004+60517+022267FM-12+005499999V0200901N00411001501CN0050001N9-00391-00391100841ADDAY171999GF108991081061001501999999MD1710141+9999MW1711
0057029720999991961011015004+60517+022267FM-12+005499999V0200901N00411000601CN0020001N9-00111-00221100771ADDAY171999GF108991081061000751999999MD1710071+9999MW1731
0081029720999991961011018004+60517+022267FM-12+005499999V0201601N00511000601CN0020001N9+00001+00001100701ADDAA199005091AY171999GF108991081061000751999999KA1999M+00001MD1710071+9999MW1731
0057029720999991961011021004+60517+022267FM-12+005499999V0201601N00511000601CN0012001N9+00001+00001100701ADDAY171999GF108991081061000751999999MD1410001+9999MW1751
0057029720999991961011100004+60517+022267FM-12+005499999V0202001N00511004501CN0080001N9+00111+00111100731ADDAY121999GF107991071051004501999999MD1210031+9999MW1011
0057029720999991961011103004+60517+022267FM-12+005499999V0201801N00511002401CN0060001N9+00111+00111100821ADDAY121999GF108991081061002501999999MD1210091+9999MW1031
0081029720999991961011106004+60517+022267FM-12+005499999V0201801N00311012301CN0100001N9+00111+00001100931ADDAA199006091AY121999GF108991081051012501999999KA1999N+00001MD1210111+9999MW1021
0057029720999991961011109004+60517+022267FM-12+005499999V0202301N00311004501CN0100001N9+00001-00111101161ADDAY121999GF107991071051004501999999MD1210231+9999MW1021
0057029720999991961011112004+60517+022267FM-12+005499999V0202301N00211030001CN0100001N9-00111-00221101301ADDAY121999GF107991041051004501071999MD1210131+9999MW1051
0057029720999991961011115004+60517+022267FM-12+005499999V0209991C00001030001CN0100001N9-00221-00221101431ADDAY111999GF107991021051004501071001MD1210131+9999MW1111
0070029720999991961011118004+60517+022267FM-12+005499999V0203201N00211001501CN0070001N9-00221-00281101541ADDAY121999GF108991081061001501999999KA1999M+00111MD1210111+9999MW1031
0057029720999991961011121004+60517+022267FM-12+005499999V0203601N00211001501CN0070001N9-00221-00281101641ADDAY121999GF108991081061001501999999MD1210101+9999MW1021
0070029720999991961011206004+60517+022267FM-12+005499999V0203201N00211220001CN0100001N9-00721-00781101971ADDAY121999GF103991031061002501001001KA1999N-00721MD1210101+9999MW1011
0057029720999991961011212004+60517+022267FM-12+005499999V0200901N00101004501CN0100001N9-00611-00611102141ADDAY121999GF108991081051004501999999MD1710041+9999MW1031
0070029720999991961011218004+60517+022267FM-12+005499999V0202301N00211220001CN0100001N9-00611-00611102211ADDAY101999GF101991011051004501001001KA1999M-00391MD1210021+9999MW1011
0057029720999991961011300004+60517+022267FM-12+005499999V0202301N00721024001CN0100001N9+00001-00501101751ADDAY121999GF108991081001999999071999MD1710271+9999MW1031
0081029720999991961011306004+60517+022267FM-12+005499999V0202301N00821001501CN0040001N9+00111+00001101191ADDAA199002091AY171999GF108991081061001501999999KA1999N-00611MD1710311+9999MW1681
0057029720999991961011309004+60517+022267FM-12+005499999V0202301N00721001501CN0080001N9+00001+00001100981ADDAY171999GF108991081061001501999999MD1710201+9999MW1681
0057029720999991961011312004+60517+022267FM-12+005499999V0202301N00411001501CN0012001N9+00001+00001100791ADDAY171999GF108991081061001501999999MD1710191+9999MW1681
0057029720999991961011315004+60517+022267FM-12+005499999V0203001N00411001501CN0080001N9+00001+00001100871ADDAY171999GF108991081061001501999999MD1210091+9999MW1021
0081029720999991961011318004+60517+022267FM-12+005499999V0203201N00621001501CN0060001N9+00001+00001101031ADDAA199005091AY121999GF108991081061001501999999KA1999M+00111MD1210161+9999MW1021
0057029720999991961011321004+60517+022267FM-12+005499999V0203201N00311001501CN0060001N9+00001+00001101221ADDAY121999GF108991081061001501999999MD1210181+9999MW1021
0057029720999991961011400004+60517+022267FM-12+005499999V0202701N00211001501CN0080001N9+00001+00001101391ADDAY121999GF108991081061001501999999MD1210171+9999MW1021
0057029720999991961011403004+60517+022267FM-12+005499999V0202701N00101220001CN0200001N9+00001-00221101461ADDAY121999GF100991001001999999001001MD1010071+9999MW1011
0070029720999991961011406004+60517+022267FM-12+005499999V0202701N00211220001CN0200001N9-00111-00111101531ADDAY101999GF101991011001999999041001KA1999N-00111MD1210071+9999MW1031
0057029720999991961011409004+60517+022267FM-12+005499999V0202701N00211220001CN0400001N9+00001-00111101671ADDAY101999GF101991011001999999041001MD1210141+9999MW1021
0057029720999991961011412004+60517+022267FM-12+005499999V0202701N00211220001CN0400001N9+00111-00111101741ADDAY121999GF106991021001999999041061MD1210071+9999MW1031
0057029720999991961011415004+60517+022267FM-12+005499999V0202701N00211220001CN0200001N9-00111-00221101731ADDAY121999GF104991021001999999041021MD1710011+9999MW1011
0070029720999991961011418004+60517+022267FM-12+005499999V0202701N00411220001CN0200001N9-00221-00281101841ADDAY101999GF102991001001999999001051KA1999M+00111MD1210111+9999MW1021
0057029720999991961011500004+60517+022267FM-12+005499999V0202301N00211220001CN0200001N9-00281-00281101961ADDAY101999GF101991011001999999041051MD1210011+9999MW1111
0057029720999991961011503004+60517+022267FM-12+005499999V0202501N00311030001CN0200001N9-00111-00221101671ADDAY111999GF108991021051004501071999MD1710291+9999MW1031
0081029720999991961011506004+60517+022267FM-12+005499999V0203201N00621030001CN0200001N9+00221+00001101451ADDAA199000591AY121999GF107991031051004501071999KA1999N-00391MD1710211+9999MW1201
0057029720999991961011512004+60517+022267FM-12+005499999V0203201N00821030001CN0200001N9+00391+00111101401ADDAY121999GF106991041011004501041001MD1710051+9999MW1021
0081029720999991961011518004+60517+022267FM-12+005499999V0203401N00821220001CN0300001N9+00281-00221101551ADDAA199000691AY101999GF101991011001999999041001KA1999M+00391MD1210111+9999MW1021
0057029720999991961011521004+60517+022267FM-12+005499999V0203401N00621220001CN0400001N9+00111-00281101811ADDAY101999GF100991001001999999001001MD1210261+9999MW1011
0057029720999991961011600004+60517+022267FM-12+005499999V0203401N00621220001CN0400001N9-00111-00391102131ADDAY101999GF100991001001999999001001MD1210321+9999MW1021
0076029720999991961011603004+60517+022267FM-12+005499999V0203601N00721024001CN0400001N9-00391-00721102431ADDAY111999GF105991051091999999071999MD1210301+9999MW1031EQDQ01+000992SCOLCB
0070029720999991961011606004+60517+022267FM-12+005499999V0203601N00411004501CN0400001N9-00721-00891102901ADDAY121999GF106991061051004501071999KA1999N-00781MD1210451+9999MW1021
0057029720999991961011612004+60517+022267FM-12+005499999V0200401N00311220001CN0400001N9-00891-01281103391ADDAY101999GF101991011001999999041001MD1210191+9999MW1021
0057029720999991961011615004+60517+022267FM-12+005499999V0203601N00211220001CN0400001N9-01221-01501103571ADDAY101999GF102991001001999999001051MD1210181+9999MW1031
0070029720999991961011618004+60517+022267FM-12+005499999V0200401N00101220001CN0200001N9-01501-01721103711ADDAY101999GF101991011001999999041001KA1999M-00721MD1210131+9999MW1011
0057029720999991961011621004+60517+022267FM-12+005499999V0203601N00101220001CN0200001N9-01721-01891103811ADDAY101999GF100991001001999999001001MD1210091+9999MW1011
0057029720999991961011700004+60517+022267FM-12+005499999V0200401N00101220001CN0200001N9-01721-01891103851ADDAY101999GF101991011001999999041001MD1210041+9999MW1031
0057029720999991961011703004+60517+022267FM-12+005499999V0200901N00101220001CN0200001N9-01721-01891103881ADDAY101999GF101991011001999999041001MD1210031+9999MW1021
0070029720999991961011706004+60517+022267FM-12+005499999V0200901N00101220001CN0200001N9-01611-01781103961ADDAY101999GF101991011001999999041001KA1999N-01891MD1210081+9999MW1021
0078029720999991961011712004+60517+022267FM-12+005499999V0201401N00211220001CN0200001N9-01001-01391104011ADDAY101999GF102991011001999999041011MW1021EQDQ01+000022APCTENQ02+000002APC3  
0057029720999991961011715004+60517+022267FM-12+005499999V0201401N00311220001CN0200001N9-01001-01391103981ADDAY101999GF103991021001999999041011MD1710031+9999MW1021
0070029720999991961011718004+60517+022267FM-12+005499999V0201401N00311024001CN0200001N9-00781-01111103911ADDAY121999GF108991081001999999041999KA1999M-00781MD1710061+9999MW1031
0057029720999991961011721004+60517+022267FM-12+005499999V0201801N00411004501CN0200001N9-00501-00721103771ADDAY121999GF108991081051004501999999MD1710131+9999MW1031
0057029720999991961011800004+60517+022267FM-12+005499999V0201801N00411002401CN0150001N9-00111-00221103641ADDAY121999GF108991081061002501999999MD1710131+9999MW1031
0057029720999991961011803004+60517+022267FM-12+005499999V0202701N00311004501CN0200001N9+00001-00281103551ADDAY121999GF108991081051004501999999MD1710091+9999MW1021
0081029720999991961011806004+60517+022267FM-12+005499999V0202501N00311002401CN0200001N9+00001-00221103471ADDAA199000691AY121999GF108991081061002501999999KA1999N-00781MD1710071+9999MW1021
0057029720999991961011809004+60517+022267FM-12+005499999V0202701N00311001501CN0200001N9+00111-00111103541ADDAY121999GF108991081061001501999999MD1210071+9999MW1021
0057029720999991961011812004+60517+022267FM-12+005499999V0202701N00411002401CN0300001N9+00111-00221103461ADDAY121999GF107991071061002501999999MD1710081+9999MW1011
0057029720999991961011815004+60517+022267FM-12+005499999V0202701N00311002401CN0300001N9+00001-00281103411ADDAY121999GF107991071061002501999999MD1710051+9999MW1021
0070029720999991961011818004+60517+022267FM-12+005499999V0202701N00211004501CN0300001N9-00111-00391103351ADDAY121999GF108991081051004501999999KA1999M+00111MD1710061+9999MW1021
0057029720999991961011821004+60517+022267FM-12+005499999V0202301N00211004501CN0300001N9-00111-00391103311ADDAY121999GF108991081051004501999999MD1710051+9999MW1021
0057029720999991961011900004+60517+022267FM-12+005499999V0202201N00101004501CN0300001N9-00111-00281103301ADDAY121999GF108991081051004501999999MD1710011+9999MW1021
0057029720999991961011903004+60517+022267FM-12+005499999V0202201N00101004501CN0300001N9-00111-00281103251ADDAY121999GF108991081051004501999999MD1710051+9999MW1021
0070029720999991961011906004+60517+022267FM-12+005499999V0202201N00101004501CN0200001N9-00221-00391103181ADDAY121999GF108991081051004501999999KA1999N-00221MD1710071+9999MW1021
0057029720999991961011909004+60517+022267FM-12+005499999V0201801N00101004501CN0200001N9-00221-00501103221ADDAY121999GF108991081051004501999999MD1310041+9999MW1021
0057029720999991961011912004+60517+022267FM-12+005499999V0201801N00211004501CN0200001N9-00281-00501103121ADDAY121999GF108991081051004501999999MD1710101+9999MW1021
0057029720999991961011915004+60517+022267FM-12+005499999V0201801N00101004501CN0200001N9-00281-00501103061ADDAY121999GF106991061051004501999999MD1710061+9999MW1011
0070029720999991961011918004+60517+022267FM-12+005499999V0201601N00211220001CN0100001N9-00501-00501103011ADDAY101999GF103991021001999999041051KA1999M-00111MD1710051+9999MW1011
0057029720999991961011921004+60517+022267FM-12+005499999V0201401N00211220001CN0080001N9-00611-00721102951ADDAY101999GF100991001001999999001001MD1710061+9999MW1111
0057029720999991961012000004+60517+022267FM-12+005499999V0202201N00101220001CN0080001N9-00721-00721102911ADDAY101999GF101991011001999999041001MD1710041+9999MW1111
0057029720999991961012003004+60517+022267FM-12+005499999V0209991C00001220001CN0080001N9-01001-01111102841ADDAY101999GF101991011001999999041001MD1710081+9999MW1111
0070029720999991961012006004+60517+022267FM-12+005499999V0202301N00101220001CN0050001N9-00781-00891102751ADDAY101999GF102991021001999999041001KA1999N-01281MD1710091+9999MW1121
0057029720999991961012009004+60517+022267FM-12+005499999V0202301N00101220001CN0050001N9-01111-01221102741ADDAY101999GF103991021001999999041011MD1710011+9999MW1031
0057029720999991961012012004+60517+022267FM-12+005499999V0202701N00211220001CN0100001N9-00391-00501102641ADDAY111999GF104991021001999999041011MD1710091+9999MW1011
0057029720999991961012015004+60517+022267FM-12+005499999V0202301N00211220001CN0100001N9-00611-00721102611ADDAY111999GF104991021001999999041011MD1710031+9999MW1021
0070029720999991961012018004+60517+022267FM-12+005499999V0202301N00211220001CN0100001N9-00611-00721102541ADDAY101999GF103991011001999999041011KA1999M-00281MD1710071+9999MW1021
0057029720999991961012021004+60517+022267FM-12+005499999V0202301N00211220001CN0080001N9-00891-01001102501ADDAY111999GF104991021001999999041051MD1810041+9999MW1021
0057029720999991961012100004+60517+022267FM-12+005499999V0209991C00001075001CN0040001N9-01111-01221102411ADDAY111999GF105991031001022501071051MD1710091+9999MW1031
0057029720999991961012103004+60517+022267FM-12+005499999V0209991C00001220001CN0060001N9-01221-01281102351ADDAY111999GF100991001001999999001001MD1710061+9999MW1011
0070029720999991961012106004+60517+022267FM-12+005499999V0200901N00101220001CN0030001N9-01391-01501102301ADDAY101999GF100991001001999999001001KA1999N-01501MD1710051+9999MW1101
0057029720999991961012112004+60517+022267FM-12+005499999V0200901N00101000601CN0040001N9-00891-01001102231ADDAY141999GF108991081061000751999999MD1710071+9999MW1281
0057029720999991961012115004+60517+022267FM-12+005499999V0200901N00151000601CN0025001N9-00611-00721102131ADDAY121999GF108991081061000751999999MD1710081+9999MW1101
0070029720999991961012118004+60517+022267FM-12+005499999V0200901N00211001501CN0050001N9-00501-00611102121ADDAY121999GF108991081061001501999999KA1999M-00501MD1710011+9999MW1021
0057029720999991961012121004+60517+022267FM-12+005499999V0200901N00311002401CN0070001N9-00501-00611102151ADDAY121999GF108991081061002501999999MD1210021+9999MW1021
0057029720999991961012200004+60517+022267FM-12+005499999V0200901N00101004501CN0080001N9-00501-00721102181ADDAY121999GF108991081051004501999999MD1210031+9999MW1021
0057029720999991961012203004+60517+022267FM-12+005499999V0200901N00211004501CN0080001N9-00611-00721102221ADDAY121999GF108991081051004501999999MD1210041+9999MW1021
0070029720999991961012206004+60517+022267FM-12+005499999V0200901N00311220001CN0100001N9-00781-00891102301ADDAY121999GF102991011051004501041001KA1999N-00781MD1210071+9999MW1011
0057029720999991961012209004+60517+022267FM-12+005499999V0200901N00311220001CN0300001N9-00891-01111102501ADDAY101999GF101991001001999999001011MD1210201+9999MW1011
0057029720999991961012212004+60517+022267FM-12+005499999V0200901N00361220001CN0400001N9-00781-01001102521ADDAY101999GF101991001001999999001011MD1210021+9999MW1021
0057029720999991961012215004+60517+022267FM-12+005499999V0200601N00211220001CN0300001N9-01001-01221102571ADDAY101999GF101991011001999999041011MD1210051+9999MW1021
0070029720999991961012218004+60517+022267FM-12+005499999V0200401N00211220001CN0300001N9-01281-01391102611ADDAY101999GF100991001001999999001001KA1999M-00721MD1210031+9999MW1011
0057029720999991961012221004+60517+022267FM-12+005499999V0200401N00211220001CN0200001N9-01611-01721102561ADDAY101999GF100991001001999999001001MD1810061+9999MW1021
0057029720999991961012300004+60517+022267FM-12+005499999V0203601N00101220001CN0200001N9-01611-01781102461ADDAY101999GF100991001001999999001001MD1710101+9999MW1021
0057029720999991961012303004+60517+022267FM-12+005499999V0209991C00001220001CN0020001N9-01611-01721102331ADDAY101999GF100991001001999999001001MD1710131+9999MW1101
0070029720999991961012306004+60517+022267FM-12+005499999V0209991C00001002401CN0100001N9-01281-01501102131ADDAY121999GF108991081051002501999999KA1999N-01781MD1710191+9999MW1701
0057029720999991961012309004+60517+022267FM-12+005499999V0203201N00101004501CN0150001N9-01001-01221102001ADDAY171999GF107991071051004501999999MD1710111+9999MW1021
0057029720999991961012312004+60517+022267FM-12+005499999V0203401N00211001501CN0100001N9-00721-00721101821ADDAY121999GF108991081061001501999999MD1710181+9999MW1021
0057029720999991961012315004+60517+022267FM-12+005499999V0203601N00511001501CN0100001N9-00721-00781101841ADDAY121999GF108991081061001501999999MD1310021+9999MW1021
0081029720999991961012318004+60517+022267FM-12+005499999V0200201N00511004501CN0100001N9-00781-01001101921ADDAA199000591AY121999GF108991081061004501999999KA1999M-00611MD1210071+9999MW1701
0057029720999991961012321004+60517+022267FM-12+005499999V0203601N00621004501CN0150001N9-00721-01001101921ADDAY171999GF106991061061004501001001MD1410001+9999MW1221
0057029720999991961012400004+60517+022267FM-12+005499999V0203601N00621220001CN0150001N9-00781-01111102011ADDAY121999GF101991011051008001001001MD1210091+9999MW1011
0057029720999991961012403004+60517+022267FM-12+005499999V0203601N00411220001CN0150001N9-01111-01281102041ADDAY101999GF100991001001999999001001MD1210031+9999MW1011
0081029720999991961012406004+60517+022267FM-12+005499999V0203601N00411220001CN0200001N9-01281-01391102071ADDAA199000691AY101999GF100991001001999999001001KA1999N-01281MD1210031+9999MW1021
0057029720999991961012409004+60517+022267FM-12+005499999V0203601N00411220001CN0400001N9-01281-01501102151ADDAY111999GF102991011071001501041001MD1210081+9999MW1021
0076029720999991961012412004+60517+022267FM-12+005499999V0203601N00621220001CN0400001N9-01111-01281102121ADDAY101999GF103991999071002501001001MD1710031+9999MW1031EQDQ01+000022SCOTLC
0057029720999991961012415004+60517+022267FM-12+005499999V0203601N00411220001CN0400001N9-01221-01391102181ADDAY101999GF102991021071002501001001MD1210051+9999MW1011
0081029720999991961012418004+60517+022267FM-12+005499999V0203601N00311220001CN0400001N9-01391-01501102201ADDAA199000691AY101999GF101991011051004501001001KA1999M-01001MD1210021+9999MW1021
0057029720999991961012421004+60517+022267FM-12+005499999V0203601N00311220001CN0300001N9-01391-01611102201ADDAY101999GF100991001001999999001001MD1410001+9999MW1021
0057029720999991961012500004+60517+022267FM-12+005499999V0203601N00211220001CN0300001N9-01611-01781102151ADDAY101999GF100991001001999999001001MD1710051+9999MW1021
0057029720999991961012503004+60517+022267FM-12+005499999V0203201N00211220001CN0300001N9-01721-01891102061ADDAY101999GF100991001001999999001001MD1710091+9999MW1021
0070029720999991961012506004+60517+022267FM-12+005499999V0203601N00211030001CN0300001N9-01721-01891101861ADDAY111999GF106991041051004501071999KA1999N-01781MD1710201+9999MW1031
0057029720999991961012509004+60517+022267FM-12+005499999V0202701N00101007801CN0200001N9-01391-01501101831ADDAY121999GF108991081051008001999999MD1710031+9999MW1701
0057029720999991961012512004+60517+022267FM-12+005499999V0202701N00211007801CN0150001N9-00781-01001101561ADDAY171999GF106991051051008001041999MD1710251+9999MW1711
0057029720999991961012515004+60517+022267FM-12+005499999V0202701N00211220001CN0200001N9-00891-01001101321ADDAY111999GF102991021051008001041001MD1710241+9999MW1011
0081029720999991961012518004+60517+022267FM-12+005499999V0202701N00211220001CN0200001N9-00891-01111101231ADDAA199000391AY101999GF103991021051008001041001KA1999M-00721MD1710091+9999MW1021
0057029720999991961012521004+60517+022267FM-12+005499999V0202701N00211220001CN0300001N9-00891-01111101141ADDAY101999GF100991001001999999001001MD1710091+9999MW1011
0057029720999991961012600004+60517+022267FM-12+005499999V0202701N00101024001CN0150001N9-00781-00891101121ADDAY121999GF108991081001999999071999MD1710021+9999MW1031
0092029720999991961012603004+60517+022267FM-12+005499999V0203201N00211024001CN0150001N9-00391-00611101131ADDAY121999GF108991081001999999071999MD1210011+9999MW1021EQDQ01+000042APCTENQ02+000012APC3  
0070029720999991961012606004+60517+022267FM-12+005499999V0203201N00311030001CN0200001N9-00281-00501101311ADDAY121999GF108991041051004501071999KA1999N-01111MD1210151+9999MW1021
0057029720999991961012609004+60517+022267FM-12+005499999V0203201N00411004501CN0200001N9-00281-00391101511ADDAY121999GF108991081061004501999999MD1210211+9999MW1031
0057029720999991961012612004+60517+022267FM-12+005499999V0203201N00461004501CN0300001N9-00111-00281101581ADDAY121999GF107991061061004501071999MD1210071+9999MW1221
0057029720999991961012615004+60517+022267FM-12+005499999V0202701N00411030001CN0400001N9-00111-00391101621ADDAY171999GF106991031061004501041011MD1210041+9999MW1011
0081029720999991961012618004+60517+022267FM-12+005499999V0202701N00411220001CN0300001N9-00281-00391101651ADDAA199000691AY111999GF101991011061004501001001KA1999M-00111MD1210031+9999MW1011
0057029720999991961012621004+60517+022267FM-12+005499999V0202701N00411220001CN0300001N9-00391-00501101741ADDAY101999GF101991001001999999001011MD1210081+9999MW1021
0057029720999991961012700004+60517+022267FM-12+005499999V0202701N00211220001CN0300001N9-00501-00611101831ADDAY101999GF101991001001999999001011MD1210091+9999MW1021
0056029720999991961012706004+60517+022267FM-12+005499999V0202701N00311002401CN0200001N9-00391-00391101891ADDAY101999GF107991071061002501999999KA1999N-00781MW1031
0057029720999991961012712004+60517+022267FM-12+005499999V0202501N00411030001CN0300001N9-00391-00891101881ADDAY121999GF107991011061001501041021MD1210041+9999MW1021
0057029720999991961012715004+60517+022267FM-12+005499999V0202301N00511075001CN0300001N9-00281-00611101711ADDAY121999GF106991031001999999041021MD1710171+9999MW1031
0070029720999991961012718004+60517+022267FM-12+005499999V0202301N00621075001CN0300001N9-00281-00781101541ADDAY121999GF107991031001999999041021KA1999M-00221MD1710171+9999MW1031
0057029720999991961012721004+60517+022267FM-12+005499999V0202301N00621075001CN0300001N9-00281-00781101381ADDAY121999GF107991041001999999011021MD1710161+9999MW1021
0057029720999991961012800004+60517+022267FM-12+005499999V0202301N00511075001CN0300001N9-00281-00781101171ADDAY121999GF107991031001999999041021MD1710211+9999MW1021
0057029720999991961012803004+60517+022267FM-12+005499999V0202301N00621024001CN0300001N9-00111-00391100911ADDAY121999GF107991061001999999071021MD1710261+9999MW1031
0070029720999991961012806004+60517+022267FM-12+005499999V0202301N00821004501CN0300001N9+00001-00281100651ADDAY121999GF108991051051004501071999KA1999N-00281MD1710261+9999MW1031
0057029720999991961012809004+60517+022267FM-12+005499999V0202301N00621001501CN0040001N9-00111-00221100491ADDAY171999GF108991081061001501999999MD1710171+9999MW1731
0057029720999991961012812004+60517+022267FM-12+005499999V0202501N00721002401CN0050001N9+00001-00221100431ADDAY171999GF108991081061002501999999MD1510051+9999MW1021
0057029720999991961012815004+60517+022267FM-12+005499999V0202301N00411001501CN0040001N9+00111-00111100521ADDAY121999GF108991081061001501999999MD1210091+9999MW1021
0081029720999991961012818004+60517+022267FM-12+005499999V0202301N00411220001CN0050001N9+00001-00111100591ADDAA199000391AY111999GF103991031061001501001001KA1999M+00111MD1210071+9999MW1031
0057029720999991961012821004+60517+022267FM-12+005499999V0202201N00211220001CN0100001N9-00221-00281100731ADDAY111999GF100991001001999999001001MD1210131+9999MW1011
0057029720999991961012900004+60517+022267FM-12+005499999V0202201N00211000151CN0003001N9-00281-00281100731ADDAY111999GF109991091999000251999999MD1410001+9999MW1471
0057029720999991961012903004+60517+022267FM-12+005499999V0202001N00411001501CN0100001N9+00001-00111100601ADDAY141999GF108991081061001501999999MD1710121+9999MW1021
0070029720999991961012906004+60517+022267FM-12+005499999V0201801N00211001501CN0100001N9+00111+00001100381ADDAY121999GF108991081061001501999999KA1999N-00391MD1710221+9999MW1021
0049029720999991961012909004+60517+022267FM-12+005499999V0201801N00721000151CN9999999N9+00111+00111100081ADDGF108991081061000251999999MD1710301+9999MW1731
0057029720999991961012912004+60517+022267FM-12+005499999V0201801N00821001501CN0030001N9+00001-00111099601ADDAY171999GF108991081061001501999999MD1710481+9999MW1681
0057029720999991961012915004+60517+022267FM-12+005499999V0201801N00721001501CN0010001N9+00001-00111099141ADDAY171999GF108991081061001501999999MD1710461+9999MW1681
0081029720999991961012918004+60517+022267FM-12+005499999V0202301N00821004501CN0100001N9+00221+00111099051ADDAA199003091AY171999GF108991061051004501071999KA1999M+00221MD1710081+9999MW1011
0057029720999991961012921004+60517+022267FM-12+005499999V0202301N00721004501CN0150001N9+00221+00001099071ADDAY121999GF108991061051004501071999MD1110021+9999MW1021
0057029720999991961013000004+60517+022267FM-12+005499999V0202101N00721002401CN0080001N9+00221+00001098911ADDAY121999GF108991081061002501999999MD1710161+9999MW1601
0057029720999991961013003004+60517+022267FM-12+005499999V0202101N00721000601CN0080001N9+00221+00221098371ADDAY161999GF108991081061000751999999MD1710541+9999MW1631
0081029720999991961013006004+60517+022267FM-12+005499999V0202001N00721002401CN0080001N9+00221+00111097911ADDAA199003091AY161999GF108991081061002501999999KA1999N+00111MD1710451+9999MW1681
0057029720999991961013009004+60517+022267FM-12+005499999V0202301N00721001501CN0060001N9+00281+00221097811ADDAY161999GF108991081061001501999999MD1710101+9999MW1611
0057029720999991961013012004+60517+022267FM-12+005499999V0202301N00721001501CN0100001N9+00281+00221097711ADDAY161999GF108991081061001501999999MD1710101+9999MW1601
0081029720999991961013018004+60517+022267FM-12+005499999V0202301N00511001501CN0060001N9+00221+00221097531ADDAA199003091AY161999GF108991081061001501999999KA1999M+00281MD1710101+9999MW1631
0092029720999991961013021004+60517+022267FM-12+005499999V0202301N00311001501CN0060001N9+00221+00221097551ADDAY161999GF108991081061001501999999MD1210021+9999MW1611EQDQ01+000042APCTENQ02+000022APC3  
0057029720999991961013100004+60517+022267FM-12+005499999V0202701N00721002401CN0150001N9+00001-00111097641ADDAY161999GF108991081061002501999999MD1210091+9999MW1021
0081029720999991961013106004+60517+022267FM-12+005499999V0202701N00821004501CN0300001N9-00221-00501098241ADDAA199001091AY121999GF108991081051004501999999KA1999N-00221MD1210161+9999MW1021
0057029720999991961013109004+60517+022267FM-12+005499999V0202701N00821004501CN0300001N9-00221-00501098481ADDAY121999GF108991081051004501999999MD1210241+9999MW1021
0057029720999991961013112004+60517+022267FM-12+005499999V0202701N00311002401CN0250001N9-00111-00391098581ADDAY121999GF108991081061002501999999MD1210101+9999MW1021
0057029720999991961013115004+60517+022267FM-12+005499999V0202701N00101002401CN0300001N9-00111-00281098691ADDAY121999GF108991081061002501999999MD1210111+9999MW1021
0081029720999991961013118004+60517+022267FM-12+005499999V0201801N00101004501CN0080001N9-00221-00281098741ADDAA199000391AY171999GF108991081061004501999999KA1999M-00111MD1210051+9999MW1711
0057029720999991961013121004+60517+022267FM-12+005499999V0200901N00101002401CN0100001N9-00221-00221098801ADDAY171999GF108991081061002501999999MD1210061+9999MW1021
0057029720999991961020100004+60517+022267FM-12+005499999V0200901N00101001501CN0050001N9-00111-00111098861ADDAY121999GF108991081061001501999999MD1210061+9999MW1021
0057029720999991961020103004+60517+022267FM-12+005499999V0209991C00001000151CN0005001N9+00001-00111098871ADDAY141999GF109991091999000251999999MD1210011+9999MW1471
0081029720999991961020106004+60517+022267FM-12+005499999V0200901N00101000601CN0012001N9+00001+00001098961ADDAA199000391AY141999GF108991081061000751999999KA1999N-00221MD1210091+9999MW1101
0057029720999991961020109004+60517+022267FM-12+005499999V0200901N00051000601CN0007001N9+00001+00001099191ADDAY141999GF108991081061000751999999MD1210131+9999MW1551
0057029720999991961020112004+60517+022267FM-12+005499999V0202201N00101000601CN0015001N9+00111+00111099231ADDAY151999GF108991081061000751999999MD1210041+9999MW1511
0057029720999991961020115004+60517+022267FM-12+005499999V0202301N00101001501CN0040001N9+00111+00111099331ADDAY171999GF108991081061001501999999MD1210101+9999MW1021
0081029720999991961020118004+60517+022267FM-12+005499999V0202301N00311007801CN0100001N9+00001-00111099471ADDAA199000391AY121999GF108991081051008001999999KA1999M+00111MD1210141+9999MW1011
0057029720999991961020121004+60517+022267FM-12+005499999V0202301N00211007801CN0100001N9+00001-00111099571ADDAY121999GF108991081051008001999999MD1210101+9999MW1021
0057029720999991961020200004+60517+022267FM-12+005499999V0201801N00101007801CN0150001N9-00111-00221099641ADDAY121999GF108991081051008001999999MD1210071+9999MW1021
0057029720999991961020203004+60517+022267FM-12+005499999V0201801N00101004501CN0050001N9-00111-00111099671ADDAY171999GF108991081051004501999999MD1210031+9999MW1711
0081029720999991961020206004+60517+022267FM-12+005499999V0201401N00101000601CN0020001N9+00001-00111099611ADDAA199001091AY171999GF108991081061000751999999KA1999N-00221MD1710061+9999MW1101
0057029720999991961020209004+60517+022267FM-12+005499999V0201001N00211004501CN0040001N9+00001+00001099621ADDAY121999GF108991061051004501071999MD1010011+9999MW1771
0057029720999991961020212004+60517+022267FM-12+005499999V0200901N00211030001CN0100001N9+00111-00111099511ADDAY121999GF107991021051004501071021MD1710111+9999MW1031
0057029720999991961020215004+60517+022267FM-12+005499999V0200901N00511004501CN0015001N9+00001-00111099321ADDAY171999GF108991061051004501021999MD1710191+9999MW1701
0081029720999991961020218004+60517+022267FM-12+005499999V0200901N00411001501CN0015001N9+00001-00111099211ADDAA199001091AY171999GF108991061071001501999999KA1999M+00111MD1710111+9999MW1731
0057029720999991961020221004+60517+022267FM-12+005499999V0200901N00311001501CN0015001N9+00001+00001099191ADDAY161999GF108991081061001501999999MD1710021+9999MW1511
0057029720999991961020300004+60517+022267FM-12+005499999V0200901N00211000151CN0008001N9+00001+00001099191ADDAY151999GF108991081061000251999999MD1410001+9999MW1511
0057029720999991961020303004+60517+022267FM-12+005499999V0201801N00211000601CN0018001N9+00001+00001099271ADDAY171999GF108991081061000751999999MD1210081+9999MW1681
0116029720999991961020306004+60517+022267FM-12+005499999V0201401N00311000601CN0030001N9+00001+00001099291ADDAA199001091AY171999GF108991081061000751999999KA1999N+00001MD1210021+9999MW1101EQDQ01+000042APCTENQ02+000022APC3  
0057029720999991961020309004+60517+022267FM-12+005499999V0201801N00311000601CN0010001N9+00111+00001099461ADDAY171999GF108991081061000751999999MD1210171+9999MW1101
0057029720999991961020312004+60517+022267FM-12+005499999V0201601N00411001501CN0070001N9+00111+00001099511ADDAY121999GF107991061061001501041011MD1210051+9999MW1011
0057029720999991961020315004+60517+022267FM-12+005499999V0201401N00211001501CN0060001N9+00111+00001099611ADDAY121999GF108991061061001501999999MD1210101+9999MW1031
0081029720999991961020318004+60517+022267FM-12+005499999V0201401N00311004501CN0080001N9+00001+00001099691ADDAA199000391AY121999GF108991081051004501999999KA1999M+00111MD1210081+9999MW1021
0057029720999991961020400004+60517+022267FM-12+005499999V0201401N00311001501CN0050001N9+00001+00001099711ADDAY151999GF108991081061001501999999MD1710031+9999MW1021
0057029720999991961020403004+60517+022267FM-12+005499999V0201401N00211001501CN0050001N9+00001-00111099671ADDAY121999GF108991081061001501999999MD1710041+9999MW1721
0081029720999991961020406004+60517+022267FM-12+005499999V0200901N00101002401CN0100001N9-00111-00111099621ADDAA199000391AY171999GF108991081061002501999999KA1999N-00111MD1710051+9999MW1021
0057029720999991961020409004+60517+022267FM-12+005499999V0200901N00211004501CN0100001N9-00111-00221099601ADDAY121999GF108991071061004501071999MD1710021+9999MW1021
0057029720999991961020412004+60517+022267FM-12+005499999V0200901N00311004501CN0100001N9+00001-00221099631ADDAY121999GF108991061061004501071999MD1310031+9999MW1021
0057029720999991961020415004+60517+022267FM-12+005499999V0200401N00211004501CN0070001N9-00111-00221099631ADDAY171999GF108991081061004501999999MD1410001+9999MW1711
0081029720999991961020418004+60517+022267FM-12+005499999V0203601N00211007801CN0050001N9-00221-00281099751ADDAA199000391AY171999GF108991081051008001999999KA1999M+00001MD1210111+9999MW1711
0057029720999991961020421004+60517+022267FM-12+005499999V0209991C00001007801CN0050001N9-00221-00281099891ADDAY171999GF107991071051008001999999MD1210141+9999MW1711
0057029720999991961020500004+60517+022267FM-12+005499999V0209991C00001004501CN0070001N9-00281-00391099991ADDAY171999GF106991061051004501999999MD1210101+9999MW1711
0057029720999991961020503004+60517+022267FM-12+005499999V0209991C00001002401CN0070001N9-00281-00391100111ADDAY171999GF106991061061002501999999MD1210121+9999MW1711
0081029720999991961020506004+60517+022267FM-12+005499999V0203601N00311004501CN0060001N9-00391-00501100231ADDAA199001091AY171999GF106991061051004501999999KA1999N-00501MD1210111+9999MW1711
0057029720999991961020509004+60517+022267FM-12+005499999V0203601N00311030001CN0100001N9-00391-00501100451ADDAY171999GF108991031051004501071999MD1210121+9999MW1711
0057029720999991961020512004+60517+022267FM-12+005499999V0203601N00211002401CN0150001N9-00281-00391100571ADDAY171999GF108991081061002501999999MD1210121+9999MW1221
0057029720999991961020515004+60517+022267FM-12+005499999V0203201N00211002401CN0150001N9-00281-00391100731ADDAY111999GF108991081061002501999999MD1210161+9999MW1021
0081029720999991961020518004+60517+022267FM-12+005499999V0203201N00051001501CN0100001N9-00281-00501100851ADDAA199000391AY171999GF108991081061001501999999KA1999M-00281MD1210121+9999MW1711
0057029720999991961020521004+60517+022267FM-12+005499999V0203601N00211002401CN0100001N9-00611-00721100981ADDAY171999GF108991081061002501999999MD1210121+9999MW1701
0057029720999991961020600004+60517+022267FM-12+005499999V0203601N00211004501CN0100001N9-00611-00721101201ADDAY121999GF108991081061004501999999MD1210221+9999MW1021
0057029720999991961020603004+60517+022267FM-12+005499999V0203601N00101004501CN0100001N9-00721-00891101271ADDAY121999GF108991081061004501999999MD1210061+9999MW1701
0081029720999991961020606004+60517+022267FM-12+005499999V0200901N00211004501CN0100001N9-00721-00891101331ADDAA199000691AY171999GF108991081061004501999999KA1999N-00781MD1210061+9999MW1221
0057029720999991961020609004+60517+022267FM-12+005499999V0201401N00211004501CN0200001N9-00611-00781101251ADDAY121999GF108991081061004501999999MD1710071+9999MW1021
0057029720999991961020612004+60517+022267FM-12+005499999V0201401N00311004501CN0100001N9-00281-00501101081ADDAY171999GF108991081051004501999999MD1710161+9999MW1221
0057029720999991961020615004+60517+022267FM-12+005499999V0201801N00721004501CN0150001N9-00111-00391100771ADDAY171999GF108991061051004501071999MD1710301+9999MW1771
0081029720999991961020618004+60517+022267FM-12+005499999V0201801N00821004501CN0030001N9-00111-00281100431ADDAA199000391AY171999GF108991081051004501999999KA1999M+00001MD1710351+9999MW1731
0057029720999991961020621004+60517+022267FM-12+005499999V0201801N01031004501CN0030001N9-00111-00281100061ADDAY171999GF108991081051004501999999MD1710371+9999MW1711
0057029720999991961020700004+60517+022267FM-12+005499999V0201801N01031002401CN0010001N9+00001-00111099761ADDAY171999GF108991081061002501999999MD1710281+9999MW1731
0057029720999991961020703004+60517+022267FM-12+005499999V0201801N01131002401CN0050001N9+00001-00111099491ADDAY171999GF108991081061002501999999MD1710271+9999MW1711
0081029720999991961020706004+60517+022267FM-12+005499999V0201801N00931001501CN0020001N9+00001+00001099361ADDAA199002091AY171999GF108991081061001501999999KA1999N-00221MD1710131+9999MW1731
0057029720999991961020709004+60517+022267FM-12+005499999V0201801N00931000601CN0012001N9+00221+00111099401ADDAY171999GF108991081061000751999999MD1210041+9999MW1101
0057029720999991961020712004+60517+022267FM-12+005499999V0201801N00931001501CN0060001N9+00221+00111099401ADDAY171999GF108991081061001501999999MD1410001+9999MW1021
0092029720999991961020715004+60517+022267FM-12+005499999V0201801N00931002401CN0080001N9+00221+00111099391ADDAY151999GF108991081071002501999999MD1710011+9999MW1021EQDQ01+000042APCTENQ02+000012APC3  
0081029720999991961020718004+60517+022267FM-12+005499999V0201801N01131002401CN0150001N9+00281+00111099471ADDAA199000391AY121999GF108991081061002501999999KA1999M+00281MD1210081+9999MW1021
0057029720999991961020721004+60517+022267FM-12+005499999V0202001N00821002401CN0150001N9+00221+00111099471ADDAY121999GF108991081061002501999999MD1410001+9999MW1021
0057029720999991961020800004+60517+022267FM-12+005499999V0201801N00821001501CN0080001N9+00221+00111099461ADDAY121999GF108991081061001501999999MD1710011+9999MW1621
0057029720999991961020803004+60517+022267FM-12+005499999V0202301N00411002401CN0100001N9+00111+00001099601ADDAY121999GF108991081061002501999999MD1210141+9999MW1611
0081029720999991961020806004+60517+022267FM-12+005499999V0202501N00411002401CN0100001N9+00111+00001099941ADDAA199001091AY121999GF106991061061002501001001KA1999N+00001MD1210341+9999MW1021
0057029720999991961020809004+60517+022267FM-12+005499999V0202301N00311030001CN0100001N9+00111+00001100251ADDAY111999GF106991031071004501041011MD1210311+9999MW1031
0057029720999991961020812004+60517+022267FM-12+005499999V0202701N00101030001CN0200001N9+00221-00221100441ADDAY111999GF105991041061004501041001MD1210191+9999MW1011
0057029720999991961020815004+60517+022267FM-12+005499999V0202701N00101004501CN0300001N9+00001-00221100651ADDAY121999GF107991071061004501999999MD1210211+9999MW1031
0070029720999991961020818004+60517+022267FM-12+005499999V0203001N00101030001CN0200001N9-00221-00281100911ADDAY111999GF106991041051004501071999KA1999M+00281MD1210251+9999MW1021
0057029720999991961020821004+60517+022267FM-12+005499999V0203201N00211220001CN0100001N9-00391-00501101081ADDAY101999GF100991001001999999001001MD1210171+9999MW1111
0057029720999991961020900004+60517+022267FM-12+005499999V0209991C00001220001CN0007001N9-00721-00781101161ADDAY141999GF100991001001999999001001MD1210071+9999MW1441
0057029720999991961020903004+60517+022267FM-12+005499999V0201801N00101030001CN0150001N9-00781-00891101181ADDAY141999GF105991031051004501071001MD1110021+9999MW1031
0070029720999991961020906004+60517+022267FM-12+005499999V0202301N00101030001CN0030001N9-00721-00781101201ADDAY121999GF107991041051002501071999KA1999N-00891MD1210021+9999MW1101
0057029720999991961020909004+60517+022267FM-12+005499999V0202301N00101030001CN0012001N9-00501-00611101201ADDAY111999GF105991031051002501071001MD1410001+9999MW1101
0078029720999991961020915004+60517+022267FM-12+005499999V0201801N00101007801CN0150001N9-00221-00501101251ADDAY121999GF108991081051008001999999MW1031EQDQ01+000042APCTENQ02+000012APC3  
0070029720999991961020918004+60517+022267FM-12+005499999V0201801N00101004501CN0100001N9-00221-00391101401ADDAY121999GF108991081051004501999999KA1999M-00111MD1210151+9999MW1021
0057029720999991961020921004+60517+022267FM-12+005499999V0202701N00101004501CN0100001N9-00281-00391101551ADDAY121999GF108991081051004501999999MD1210151+9999MW1021
0057029720999991961021000004+60517+022267FM-12+005499999V0203601N00101004501CN0100001N9-00281-00391101661ADDAY171999GF108991081051004501999999MD1210111+9999MW1711
0057029720999991961021003004+60517+022267FM-12+005499999V0203601N00101007801CN0100001N9-00391-00501101801ADDAY171999GF108991081051008001999999MD1210141+9999MW1711
0081029720999991961021006004+60517+022267FM-12+005499999V0209991C00001007801CN0100001N9-00391-00501101891ADDAA199000391AY171999GF108991081051008001999999KA1999N-00391MD1210091+9999MW1711
0057029720999991961021009004+60517+022267FM-12+005499999V0202301N00101007801CN0100001N9-00281-00501101891ADDAY171999GF107991071051008001999999MD1410001+9999MW1011
0057029720999991961021015004+60517+022267FM-12+005499999V0202301N00211002401CN0020001N9-00221-00391101771ADDAY171999GF108991081061002501999999MD1010131+9999MW1731
0081029720999991961021018004+60517+022267FM-12+005499999V0201801N00311001501CN0050001N9-00221-00281101521ADDAA199000591AY171999GF108991081061001501999999KA1999M-00221MD1210251+9999MW1711
0057029720999991961021021004+60517+022267FM-12+005499999V0201801N00621001501CN0040001N9+00001-00111101111ADDAY171999GF108991081061001501999999MD1710411+9999MW1681
0057029720999991961021100004+60517+022267FM-12+005499999V0202001N00621001501CN0030001N9+00001+00001100741ADDAY171999GF108991081061001501999999MD1710361+9999MW1731
0057029720999991961021103004+60517+022267FM-12+005499999V0201801N00621001501CN0030001N9+00001+00001100321ADDAY171999GF108991081061001501999999MD1710421+9999MW1731
0081029720999991961021106004+60517+022267FM-12+005499999V0202201N00511000601CN0018001N9+00111+00111999999ADDAA199003091AY171999GF108991081061000751999999KA1999N-00281MD1710371+9999MW1621
0057029720999991961021109004+60517+022267FM-12+005499999V0202201N00411000601CN0020001N9+00111+00111099881ADDAY121999GF108991081061000751999999MD1710121+9999MW1101
0057029720999991961021115004+60517+022267FM-12+005499999V0202201N00511000601CN0011001N9+00221+00111099681ADDAY151999GF108991081061000751999999MD1710071+9999MW1101
0081029720999991961021118004+60517+022267FM-12+005499999V0202301N00511004501CN0070001N9+00221+00111099611ADDAA199000591AY121999GF108991081061004501999999KA1999M+00221MD1710071+9999MW1021
0057029720999991961021121004+60517+022267FM-12+005499999V0202301N00311002401CN0060001N9+00111+00111099611ADDAY121999GF108991081061002501999999MD1410001+9999MW1031
0092029720999991961021200004+60517+022267FM-12+005499999V0202301N00211001501CN0060001N9+00111+00001099631ADDAY121999GF108991081061001501999999MD1210021+9999MW1031EQDQ01+000042APCTENQ02+000022APC3  
0057029720999991961021203004+60517+022267FM-12+005499999V0202701N00211000601CN0020001N9+00001+00001099751ADDAY121999GF108991081061000751999999MD1210121+9999MW1101
0070029720999991961021206004+60517+022267FM-12+005499999V0203201N00511001501CN0100001N9+00111+00001099931ADDAY141999GF108991081061001501999999KA1999N+00001MD1210181+9999MW1281
0057029720999991961021209004+60517+022267FM-12+005499999V0203401N00411004501CN0300001N9+00001-00221100231ADDAY121999GF106991051051004501001021MD1210291+9999MW1011
0057029720999991961021212004+60517+022267FM-12+005499999V0203201N00411220001CN0400001N9+00281-00111100461ADDAY111999GF103991021051004501001021MD1210231+9999MW1021
0057029720999991961021215004+60517+022267FM-12+005499999V0203201N00411220001CN0400001N9+00001-00221100701ADDAY111999GF104991011051004501001021MD1210241+9999MW1021
0070029720999991961021218004+60517+022267FM-12+005499999V0202701N00311220001CN0300001N9-00221-00281100921ADDAY111999GF101991001001999999001051KA1999M+00281MD1210211+9999MW1011
0057029720999991961021221004+60517+022267FM-12+005499999V0202701N00311220001CN0300001N9-00221-00391101081ADDAY101999GF100991001001999999001001MD1210161+9999MW1011
0057029720999991961021300004+60517+022267FM-12+005499999V0202701N00311220001CN0300001N9-00281-00391101241ADDAY101999GF100991001001999999001001MD1210161+9999MW1021
0057029720999991961021303004+60517+022267FM-12+005499999V0202701N00311220001CN0300001N9-00391-00501101451ADDAY101999GF100991001001999999001001MD1210201+9999MW1021
0070029720999991961021306004+60517+022267FM-12+005499999V0203201N00311220001CN0400001N9-00501-00501101611ADDAY101999GF100991001001999999001001KA1999N-00501MD1210161+9999MW1021
0057029720999991961021309004+60517+022267FM-12+005499999V0203201N00311220001CN0500001N9-00221-00221101841ADDAY101999GF101991011001999999041001MD1210231+9999MW1031
0057029720999991961021312004+60517+022267FM-12+005499999V0203201N00311220001CN0500001N9-00221-00281101991ADDAY101999GF103991011011004501001021MD1210151+9999MW1031
0057029720999991961021315004+60517+022267FM-12+005499999V0202301N00211220001CN0500001N9+00001-00391102041ADDAY101999GF102991021001999999041021MD1210051+9999MW1031
0070029720999991961021318004+60517+022267FM-12+005499999V0201801N00311024001CN0400001N9-00221-00281102061ADDAY121999GF105991051001999999071001KA1999M+00281MD1010021+9999MW1031
0057029720999991961021321004+60517+022267FM-12+005499999V0201801N00621024001CN0200001N9-00111-00221101901ADDAY121999GF108991081001999999071999MD1710161+9999MW1021
0057029720999991961021400004+60517+022267FM-12+005499999V0202001N00721024001CN0200001N9+00111-00221101741ADDAY121999GF108991081001999999071999MD1710151+9999MW1021
0057029720999991961021403004+60517+022267FM-12+005499999V0202001N00931001501CN0100001N9+00111+00111101381ADDAY171999GF108991081061001501999999MD1710361+9999MW1681
0081029720999991961021406004+60517+022267FM-12+005499999V0202301N00931001501CN0100001N9+00221+00111101251ADDAA199002091AY151999GF108991081061001501999999KA1999N-00281MD1710131+9999MW1021
0057029720999991961021409004+60517+022267FM-12+005499999V0202301N00931000601CN0050001N9+00221+00111101081ADDAY121999GF108991081061000751999999MD1710171+9999MW1021
0057029720999991961021412004+60517+022267FM-12+005499999V0202301N00721000601CN0025001N9+00281+00111100881ADDAY151999GF108991081061000751999999MD1710201+9999MW1511
0057029720999991961021415004+60517+022267FM-12+005499999V0202501N00621001501CN0040001N9+00281+00221100801ADDAY121999GF108991081061001501999999MD1710081+9999MW1021
0081029720999991961021418004+60517+022267FM-12+005499999V0202301N00411002401CN0050001N9+00281+00221100791ADDAA199000391AY121999GF108991081061002501999999KA1999M+00281MD1710011+9999MW1021
0057029720999991961021421004+60517+022267FM-12+005499999V0202701N00511001501CN0050001N9+00281+00221100811ADDAY121999GF108991081061001501999999MD1210021+9999MW1021
0057029720999991961021500004+60517+022267FM-12+005499999V0202701N00621001501CN0050001N9+00281+00221100811ADDAY121999GF108991081061001501999999MD1210011+9999MW1021
0057029720999991961021503004+60517+022267FM-12+005499999V0203201N00511001501CN0050001N9+00221+00221100941ADDAY121999GF108991081061001501999999MD1210121+9999MW1021
0070029720999991961021506004+60517+022267FM-12+005499999V0203201N00411075001CN0100001N9+00221+00111101331ADDAY121999GF105991021051004501041011KA1999N+00111MD1210391+9999MW1011
0057029720999991961021509004+60517+022267FM-12+005499999V0203201N00511220001CN0400001N9+00221-00111101781ADDAY101999GF101991011001999999041011MD1210451+9999MW1011
0057029720999991961021512004+60517+022267FM-12+005499999V0203201N00311220001CN0400001N9+00391-00501102091ADDAY101999GF101991011011008001001001MD1210311+9999MW1021
0057029720999991961021515004+60517+022267FM-12+005499999V0203201N00411220001CN0500001N9+00281-00391102351ADDAY101999GF101991001001999999001051MD1210251+9999MW1021
0070029720999991961021518004+60517+022267FM-12+005499999V0203201N00311220001CN0400001N9-00111-00281102661ADDAY101999GF101991001001999999001051KA1999M+00391MD1210311+9999MW1011
0057029720999991961021521004+60517+022267FM-12+005499999V0203201N00211220001CN0200001N9-00281-00391102781ADDAY101999GF100991001001999999001001MD1210121+9999MW1111
0057029720999991961021600004+60517+022267FM-12+005499999V0202301N00211024001CN0150001N9-00391-00391102691ADDAY111999GF108991081001999999071999MD1710091+9999MW1031
0057029720999991961021603004+60517+022267FM-12+005499999V0202001N00211024001CN0150001N9-00281-00281102601ADDAY121999GF108991081001999999071999MD1710091+9999MW1021
0057029720999991961021615004+60517+022267FM-12+005499999V0202701N00461220001CN0400001N9+00281+00111102141ADDAY111999GF104991011001999999041021MD1410001+9999MW1021
0081029720999991961021618004+60517+022267FM-12+005499999V0202701N00411220001CN0400001N9+00221+00111102211ADDAA199000391AY111999GF102991011001999999041011KA1999M+00501MD1210061+9999MW1011
0057029720999991961021621004+60517+022267FM-12+005499999V0202301N00311220001CN0400001N9+00111+00001102161ADDAY101999GF100991001001999999001001MD1810061+9999MW1021
0057029720999991961021700004+60517+022267FM-12+005499999V0202301N00311220001CN0300001N9+00001+00001102171ADDAY101999GF100991001001999999001001MD1310021+9999MW1021
0057029720999991961021703004+60517+022267FM-12+005499999V0202701N00311220001CN0200001N9+00001-00111102111ADDAY111999GF105991021001999999041011MD1810061+9999MW1031
0070029720999991961021706004+60517+022267FM-12+005499999V0202301N00311075001CN0015001N9-00111-00111102101ADDAY121999GF106991031001999999041021KA1999N-00221MD1710011+9999MW1101
0057029720999991961021712004+60517+022267FM-12+005499999V0202501N00311024001CN0200001N9+00391+00111102111ADDAY121999GF107991061001999999071051MD1110011+9999MW1031
0057029720999991961021715004+60517+022267FM-12+005499999V0202701N00311220001CN0200001N9+00391+00111102031ADDAY111999GF102991021001999999071051MD1310081+9999MW1011
0070029720999991961021718004+60517+022267FM-12+005499999V0202201N00211220001CN0060001N9+00001+00001101961ADDAY111999GF101991011001999999041001KA1999M+00611MD1710081+9999MW1101
0057029720999991961021721004+60517+022267FM-12+005499999V0202201N00411000151CN0012001N9+00111+00111101911ADDAY141999GF105991051061000251001001MD1710061+9999MW1101
0057029720999991961021800004+60517+022267FM-12+005499999V0202201N00411000601CN0012001N9+00111+00001101771ADDAY121999GF107991071061000751999999MD1710141+9999MW1101
0057029720999991961021803004+60517+022267FM-12+005499999V0202201N00311220001CN0050001N9+00001-00111101611ADDAY121999GF100991001001999999001001MD1710161+9999MW1101
0070029720999991961021806004+60517+022267FM-12+005499999V0202701N00311220001CN0050001N9-00111-00111101631ADDAY101999GF103991021001999999071051KA1999N-00111MD1310021+9999MW1101
0057029720999991961021809004+60517+022267FM-12+005499999V0202701N00311024001CN0100001N9+00111+00111101671ADDAY121999GF107991051001999999071021MD1210041+9999MW1021
0057029720999991961021815004+60517+022267FM-12+005499999V0202701N00311075001CN0150001N9+00391-00111101681ADDAY121999GF107991021001999999041021MD1710031+9999MW1021
0070029720999991961021818004+60517+022267FM-12+005499999V0202701N00361220001CN0100001N9+00111+00001101731ADDAY111999GF104991011001999999041021KA1999M+00611MD1210051+9999MW1011
0057029720999991961021821004+60517+022267FM-12+005499999V0202701N00311220001CN0100001N9-00111-00221101751ADDAY101999GF100991001001999999001001MD1210011+9999MW1011
0057029720999991961021900004+60517+022267FM-12+005499999V0202701N00211220001CN0100001N9-00221-00221101731ADDAY101999GF100991001001999999001001MD1710021+9999MW1021
0057029720999991961021903004+60517+022267FM-12+005499999V0202701N00211030001CN0100001N9+00001-00111101751ADDAY121999GF108991031051004501071999MD1210021+9999MW1031
0070029720999991961021906004+60517+022267FM-12+005499999V0203201N00101075001CN0100001N9+00001+00001101761ADDAY121999GF107991021001999999041071KA1999N-00221MD1210011+9999MW1021
0057029720999991961021909004+60517+022267FM-12+005499999V0203201N00101075001CN0100001N9+00111+00001101941ADDAY121999GF107991031001999999041071MD1210181+9999MW1021
0057029720999991961021912004+60517+022267FM-12+005499999V0203201N00211075001CN0200001N9+00281+00111102041ADDAY121999GF107991031001999999041061MD1210111+9999MW1011
0057029720999991961021915004+60517+022267FM-12+005499999V0203201N00211220001CN0300001N9+00391+00111102201ADDAY101999GF101991011001999999041011MD1210161+9999MW1021
0070029720999991961021918004+60517+022267FM-12+005499999V0203201N00211220001CN0100001N9+00111+00001102341ADDAY101999GF101991001001999999001011KA1999M+00501MD1210141+9999MW1021
0057029720999991961021921004+60517+022267FM-12+005499999V0203001N00211000601CN0002001N9-00221-00221102511ADDAY141999GF106991061061000751001001MD1210151+9999MW1481
0057029720999991961022000004+60517+022267FM-12+005499999V0202301N00101000151CN0003001N9-00281-00391102581ADDAY141999GF109991091999000251999999MD1210041+9999MW1451
0057029720999991961022003004+60517+022267FM-12+005499999V0201801N00101000151CN0003001N9-00281-00281102511ADDAY121999GF109991091999000251999999MD1210071+9999MW1491
0070029720999991961022006004+60517+022267FM-12+005499999V0201801N00311000151CN0004001N9-00221-00221102381ADDAY141999GF109991091999000251999999KA1999N-00391MD1710131+9999MW1451
0057029720999991961022009004+60517+022267FM-12+005499999V0201801N00411220001CN0100001N9+00221+00111102281ADDAY141999GF105991021001999999041011MD1710091+9999MW1281
0057029720999991961022015004+60517+022267FM-12+005499999V0202301N00311220001CN0250001N9+00391+00001102171ADDAY111999GF105991001001999999001021MD1710041+9999MW1051
0070029720999991961022018004+60517+022267FM-12+005499999V0202301N00211220001CN0150001N9+00001-00111102181ADDAY101999GF101991011001999999041001KA1999M+00391MD1410001+9999MW1011
0057029720999991961022021004+60517+022267FM-12+005499999V0202001N00211220001CN0100001N9-00111-00111102111ADDAY101999GF102991021001999999041001MD1710081+9999MW1031
0057029720999991961022100004+60517+022267FM-12+005499999V0201801N00211220001CN0025001N9-00111-00111101961ADDAY101999GF100991001001999999001001MD1710141+9999MW1101
0070029720999991961022106004+60517+022267FM-12+005499999V0202701N00311220001CN0100001N9+00111+00001101681ADDAY111999GF106991001001999999001021KA1999N-00111MD1710071+9999MW1031
0057029720999991961022109004+60517+022267FM-12+005499999V0203201N00721220001CN0300001N9+00391-00111101831ADDAY121999GF104991001001999999001021MD1210151+9999MW1011
0057029720999991961022112004+60517+022267FM-12+005499999V0203201N00931220001CN0500001N9+00611-00111102151ADDAY101999GF103991011021012501041021MD1210331+9999MW1021
0057029720999991961022115004+60517+022267FM-12+005499999V0203201N00721220001CN0500001N9+00501-00111102441ADDAY101999GF103991001001999999001051MD1210281+9999MW1021
0070029720999991961022118004+60517+022267FM-12+005499999V0203201N00411220001CN0400001N9+00111-00221102681ADDAY101999GF104991001001999999001011KA1999M+00611MD1210231+9999MW1021
0057029720999991961022121004+60517+022267FM-12+005499999V0202701N00411220001CN0400001N9+00001-00281102981ADDAY101999GF101991001001999999001011MD1210301+9999MW1031
0057029720999991961022200004+60517+022267FM-12+005499999V0203201N00311220001CN0400001N9+00001-00281103181ADDAY101999GF100991001001999999001001MD1210201+9999MW1011
0057029720999991961022203004+60517+022267FM-12+005499999V0202701N00511220001CN0300001N9-00111-00281103271ADDAY101999GF100991001001999999001001MD1210081+9999MW1021
0070029720999991961022206004+60517+022267FM-12+005499999V0202301N00311220001CN0500001N9-00221-00281103381ADDAY101999GF101991001001999999001011KA1999N-00221MD1110101+9999MW1021
0057029720999991961022209004+60517+022267FM-12+005499999V0202701N00411220001CN0500001N9+00281-00391103461ADDAY111999GF107991001001999999001071MD1210101+9999MW1031
0057029720999991961022212004+60517+022267FM-12+005499999V0202701N00511220001CN0500001N9+00721-00281103461ADDAY111999GF105991001001999999001011MD1410001+9999MW1011
0092029720999991961022215004+60517+022267FM-12+005499999V0202701N00411220001CN0500001N9+00391-00281103451ADDAY121999GF107991001001999999001071MD1710011+9999MW1021EQDQ01+000042APCTENQ02+000012APC3  
0070029720999991961022218004+60517+022267FM-12+005499999V0202301N00311220001CN0400001N9+00001-00391103401ADDAY111999GF102991001001999999001051KA1999M+00721MD1710061+9999MW1011
0057029720999991961022221004+60517+022267FM-12+005499999V0202301N00311220001CN0300001N9-00111-00221103311ADDAY101999GF100991001001999999001001MD1710091+9999MW1011
0057029720999991961022300004+60517+022267FM-12+005499999V0202301N00311220001CN0300001N9-00111-00221103251ADDAY101999GF100991001001999999001001MD1710061+9999MW1021
0057029720999991961022303004+60517+022267FM-12+005499999V0202701N00511000151CN0009001N9-00221-00221103221ADDAY141999GF109991091999000251999999MD1710041+9999MW1471
0070029720999991961022306004+60517+022267FM-12+005499999V0202701N00511000151CN0009001N9-00111-00221103141ADDAY141999GF109991091999000251999999KA1999N-00221MD1710081+9999MW1451
0057029720999991961022309004+60517+022267FM-12+005499999V0202701N00311001501CN0100001N9+00001-00111103131ADDAY121999GF107991071061001501001001MD1310011+9999MW1021
0057029720999991961022312004+60517+022267FM-12+005499999V0202701N00511220001CN0300001N9+00391+00001103061ADDAY111999GF104991011051004501001021MD1710071+9999MW1011
0070029720999991961022318004+60517+022267FM-12+005499999V0202901N00311220001CN0300001N9+00001-00111103031ADDAY101999GF101991001001999999001011KA1999M+00501MD1110011+9999MW1011
0057029720999991961022321004+60517+022267FM-12+005499999V0203201N00211220001CN0200001N9-00221-00221103111ADDAY101999GF100991001001999999001001MD1210071+9999MW1021
0057029720999991961022400004+60517+022267FM-12+005499999V0203401N00101220001CN0006001N9-00281-00281103151ADDAY101999GF100991001001999999001001MD1210031+9999MW1461
0057029720999991961022403004+60517+022267FM-12+005499999V0203601N00101220001CN0100001N9-00391-00501103191ADDAY141999GF100991001001999999001001MD1210041+9999MW1281
0070029720999991961022406004+60517+022267FM-12+005499999V0203601N00101220001CN0100001N9-00611-00721103211ADDAY101999GF101991001001999999001011KA1999N-00721MD1210011+9999MW1031
0057029720999991961022409004+60517+022267FM-12+005499999V0203601N00101220001CN0150001N9+00001-00111103251ADDAY101999GF101991001001999999001011MD1210061+9999MW1021
0057029720999991961022412004+60517+022267FM-12+005499999V0200901N00211220001CN0300001N9+00501+00001103291ADDAY101999GF101991011001999999041011MD1210051+9999MW1011
0057029720999991961022415004+60517+022267FM-12+005499999V0201801N00101220001CN0300001N9+00501-00111103281ADDAY101999GF101991001001999999001011MD1410001+9999MW1011
0070029720999991961022418004+60517+022267FM-12+005499999V0201801N00211000151CN0007001N9-00111-00111103371ADDAY101999GF109991091999000251999999KA1999M+00611MD1210091+9999MW1471
0057029720999991961022421004+60517+022267FM-12+005499999V0201601N00511000151CN0009001N9-00111-00111103431ADDAY141999GF109991091999000251999999MD1210061+9999MW1561
0057029720999991961022500004+60517+022267FM-12+005499999V0201601N00411000151CN0015001N9-00221-00221103481ADDAY151999GF109991091999000251999999MD1210051+9999MW1561
0092029720999991961022503004+60517+022267FM-12+005499999V0201801N00511001501CN0040001N9-00111-00111103491ADDAY151999GF108991081061001501999999MD1210011+9999MW1571EQDQ01+000042APCTENQ02+000012APC3  
0081029720999991961022506004+60517+022267FM-12+005499999V0201801N00511000601CN0020001N9-00111-00221103461ADDAA199001091AY171999GF108991081061000751999999KA1999N-00221MD1810031+9999MW1561
0057029720999991961022509004+60517+022267FM-12+005499999V0201801N00511001501CN0020001N9-00111-00221103511ADDAY171999GF108991081061001501999999MD1310061+9999MW1711
0057029720999991961022512004+60517+022267FM-12+005499999V0201801N00621000601CN0025001N9-00111-00111103551ADDAY151999GF108991081061000751999999MD1210041+9999MW1511
0057029720999991961022515004+60517+022267FM-12+005499999V0201801N00411001501CN0070001N9-00111-00221103501ADDAY171999GF108991081061001501999999MD1710051+9999MW1021
0081029720999991961022518004+60517+022267FM-12+005499999V0202001N00721001501CN0070001N9-00111-00111103411ADDAA199000391AY121999GF108991081061001501999999KA1999M+00001MD1710091+9999MW1021
0057029720999991961022521004+60517+022267FM-12+005499999V0201801N00821001501CN0050001N9+00001-00111103351ADDAY121999GF108991081061001501999999MD1710061+9999MW1021
0057029720999991961022600004+60517+022267FM-12+005499999V0201801N00821001501CN0070001N9+00001-00111103301ADDAY121999GF108991081061001501999999MD1710051+9999MW1021
0057029720999991961022603004+60517+022267FM-12+005499999V0202001N00821001501CN0070001N9+00111+00001103171ADDAY121999GF108991081061001501999999MD1710131+9999MW1021
0081029720999991961022606004+60517+022267FM-12+005499999V0202301N00721000601CN0050001N9+00111+00001103091ADDAA199000691AY161999GF108991081061000751999999KA1999N-00111MD1710081+9999MW1021
0057029720999991961022609004+60517+022267FM-12+005499999V0202001N00721001501CN0050001N9+00001-00111103051ADDAY121999GF108991081061001501999999MD1710031+9999MW1101
0057029720999991961022615004+60517+022267FM-12+005499999V0202001N01031001501CN0100001N9+00111-00111102681ADDAY121999GF108991081061001501999999MD1710201+9999MW1021
0081029720999991961022618004+60517+022267FM-12+005499999V0202001N00931001501CN0100001N9+00111-00111102521ADDAA199000691AY161999GF108991081061001501999999KA1999M+00111MD1710161+9999MW1211
0057029720999991961022621004+60517+022267FM-12+005499999V0202001N00721000601CN0030001N9+00111+00001102341ADDAY171999GF108991081061000751999999MD1710181+9999MW1531
0057029720999991961022700004+60517+022267FM-12+005499999V0202301N00621000601CN0006001N9+00111+00111102231ADDAY151999GF108991081061000751999999MD1710111+9999MW1531
0057029720999991961022703004+60517+022267FM-12+005499999V0201801N00411000151CN0004001N9+00111+00111102011ADDAY151999GF109991091999000251999999MD1710211+9999MW1471
0081029720999991961022706004+60517+022267FM-12+005499999V0201801N00571000151CN0012001N9+00221+00111101711ADDAA199001091AY141999GF108991081061000251999999KA1999N+00001MD1710301+9999MW1631
0057029720999991961022709004+60517+022267FM-12+005499999V0201801N00821000601CN0011001N9+00281+00221101451ADDAY161999GF108991081061000751999999MD1710261+9999MW1631
0057029720999991961022712004+60517+022267FM-12+005499999V0201801N00821000601CN0011001N9+00281+00221100981ADDAY161999GF108991081061000751999999MD1710471+9999MW1631
0057029720999991961022715004+60517+022267FM-12+005499999V0202201N00721000151CN0010001N9+00281+00281100711ADDAY151999GF108991081061000251999999MD1710271+9999MW1101
0081029720999991961022718004+60517+022267FM-12+005499999V0202201N00621001501CN0150001N9+00281+00281100511ADDAA199008091AY141999GF107991071061001501999999KA1999M+00281MD1710191+9999MW1011
0057029720999991961022721004+60517+022267FM-12+005499999V0202301N00621024001CN0150001N9+00281+00111100371ADDAY111999GF107991071001999999071999MD1710151+9999MW1021
0057029720999991961022800004+60517+022267FM-12+005499999V0202301N00621024001CN0150001N9+00281+00001100321ADDAY121999GF106991061001999999071001MD1710051+9999MW1011
0057029720999991961022803004+60517+022267FM-12+005499999V0202501N00621220001CN0200001N9+00221-00111100351ADDAY111999GF101991011001999999041001MD1310031+9999MW1011
0070029720999991961022806004+60517+022267FM-12+005499999V0202201N00311220001CN0200001N9+00001-00111100301ADDAY101999GF101991011001999999041001KA1999N+00001MD1710021+9999MW1021
0057029720999991961022809004+60517+022267FM-12+005499999V0202501N00511220001CN0300001N9+00391+00001100321ADDAY111999GF103991031051004501001001MD1310021+9999MW1031
0057029720999991961022812004+60517+022267FM-12+005499999V0202701N00621220001CN0300001N9+00391-00111100311ADDAY121999GF104991041051004501001001MD1710011+9999MW1031
0057029720999991961022815004+60517+022267FM-12+005499999V0202301N00311220001CN0300001N9+00281-00221100321ADDAY101999GF101991011051004501001001MD1210011+9999MW1011
0070029720999991961022818004+60517+022267FM-12+005499999V0202001N00211220001CN0300001N9-00111-00111100351ADDAY101999GF103991001001999999001021KA1999M+00501MD1210021+9999MW1021
0057029720999991961022821004+60517+022267FM-12+005499999V0202001N00311220001CN0015001N9-00111-00111100431ADDAY141999GF103991001001999999001021MD1210081+9999MW1121
0057029720999991961030100004+60517+022267FM-12+005499999V0202201N00211220001CN0080001N9-00111-00221100481ADDAY111999GF106991001001999999001071MD1210041+9999MW1031
0070029720999991961030106004+60517+022267FM-12+005499999V0203201N00211220001CN0150001N9-00221-00281100651ADDAY101999GF101991011001999999041011KA1999N-00391MD1210111+9999MW1011
0057029720999991961030109004+60517+022267FM-12+005499999V0203201N00311220001CN0300001N9+00221+00111100751ADDAY101999GF101991011051004501041001MD1210111+9999MW1021
0057029720999991961030112004+60517+022267FM-12+005499999V0203201N00411220001CN0400001N9+00611+00001100791ADDAY111999GF104991041051004501041001MD1210061+9999MW1031
0057029720999991961030115004+60517+022267FM-12+005499999V0203201N00411220001CN0400001N9+00611+00001100861ADDAY101999GF102991011001999999041011MD1210071+9999MW1011
0070029720999991961030118004+60517+022267FM-12+005499999V0203201N00311024001CN0300001N9+00221+00001101061ADDAY121999GF106991061001999999071999KA1999M+00721MD1210201+9999MW1031
0057029720999991961030121004+60517+022267FM-12+005499999V0203401N00311220001CN0300001N9+00001-00111101201ADDAY101999GF101991011001999999041001MD1210141+9999MW1011
0057029720999991961030200004+60517+022267FM-12+005499999V0203601N00311007801CN0300001N9+00001-00111101341ADDAY111999GF106991061051008001041001MD1210141+9999MW1031
0057029720999991961030203004+60517+022267FM-12+005499999V0203201N00211007801CN0300001N9-00111-00111101461ADDAY121999GF107991071051008001999999MD1210121+9999MW1031
0070029720999991961030206004+60517+022267FM-12+005499999V0203201N00311007801CN0200001N9+00001-00111101601ADDAY121999GF108991081051008001999999KA1999N-00111MD1210141+9999MW1031
0057029720999991961030209004+60517+022267FM-12+005499999V0203601N00411001501CN0150001N9+00111-00111101711ADDAY121999GF108991081061001501999999MD1210111+9999MW1021
0057029720999991961030212004+60517+022267FM-12+005499999V0203201N00311007801CN0300001N9+00221-00111101751ADDAY121999GF106991061051008001001001MD1210051+9999MW1011
0057029720999991961030215004+60517+022267FM-12+005499999V0202701N00211004501CN0300001N9+00221-00111101791ADDAY121999GF107991071051004501999999MD1210041+9999MW1031
0070029720999991961030218004+60517+022267FM-12+005499999V0202001N00101004501CN0100001N9+00001-00111101861ADDAY121999GF108991081061004501999999KA1999M+00221MD1210061+9999MW1031
0057029720999991961030221004+60517+022267FM-12+005499999V0201801N00211030001CN0070001N9+00001-00111101911ADDAY121999GF108991041061004501071999MD1210051+9999MW1111
0057029720999991961030300004+60517+022267FM-12+005499999V0201801N00311000151CN0004001N9-00111-00221102071ADDAY121999GF109991091999000251999999MD1210151+9999MW1471
0057029720999991961030303004+60517+022267FM-12+005499999V0201801N00411000151CN0004001N9-00111-00221102011ADDAY141999GF109991091999000251999999MD1710061+9999MW1561
0081029720999991961030306004+60517+022267FM-12+005499999V0201801N00311000601CN0005001N9-00111-00111102061ADDAA199000391AY141999GF109991091999000751999999KA1999N-00221MD1310061+9999MW1451
0057029720999991961030309004+60517+022267FM-12+005499999V0201801N00311000601CN0004001N9+00111+00111102211ADDAY141999GF109991091999000751999999MD1210151+9999MW1501
0057029720999991961030312004+60517+022267FM-12+005499999V0201801N00411000151CN0010001N9+00221+00111102271ADDAY151999GF108991081061000251999999MD1210061+9999MW1101
0057029720999991961030315004+60517+022267FM-12+005499999V0202201N00411001501CN0040001N9+00221+00221102361ADDAY151999GF108991081061001501999999MD1210091+9999MW1201
0081029720999991961030318004+60517+022267FM-12+005499999V0202301N00311000601CN0006001N9+00221+00111102471ADDAA199000691AY141999GF109991091999000751999999KA1999M+00281MD1210111+9999MW1451
0092029720999991961030321004+60517+022267FM-12+005499999V0202501N00211000151CN0003001N9+00001+00001102481ADDAY141999GF109991091999000251999999MD1210011+9999MW1471EQDQ01+000042APCTENQ02+000012APC3  
0057029720999991961030400004+60517+022267FM-12+005499999V0201801N00411000151CN0006001N9-00111-00111102431ADDAY141999GF109991091999000251999999MD1810051+9999MW1451
0057029720999991961030403004+60517+022267FM-12+005499999V0201801N00411000601CN0015001N9+00001+00001102201ADDAY141999GF108991081061000751999999MD1710231+9999MW1101
0070029720999991961030406004+60517+022267FM-12+005499999V0201801N00721030001CN0050001N9+00221+00111101931ADDAY141999GF106991041071000751041071KA1999N-00111MD1710261+9999MW1011
0057029720999991961030409004+60517+022267FM-12+005499999V0202201N00721075001CN0150001N9+00281+00111101701ADDAY121999GF107991021071001501001071MD1710231+9999MW1021
0057029720999991961030412004+60517+022267FM-12+005499999V0202301N00821004501CN0300001N9+00391+00221101531ADDAY121999GF107991061051004501001071MD1710171+9999MW1031
0057029720999991961030415004+60517+022267FM-12+005499999V0202301N00511030001CN0100001N9+00281+00111101291ADDAY121999GF107991041061002501071071MD1710241+9999MW1011
0070029720999991961030418004+60517+022267FM-12+005499999V0202201N00311024001CN0060001N9+00221+00221101151ADDAY121999GF107991071001999999071999KA1999M+00501MD1710141+9999MW1021
0057029720999991961030421004+60517+022267FM-12+005499999V0203201N00721004501CN0080001N9+00391+00281101021ADDAY121999GF108991081061004501999999MD1710121+9999MW1211
0057029720999991961030500004+60517+022267FM-12+005499999V0203201N00621220001CN0200001N9+00111+00001101261ADDAY161999GF100991001001999999001001MD1210231+9999MW1011
0057029720999991961030503004+60517+022267FM-12+005499999V0203201N00821024001CN0300001N9+00221-00281101461ADDAY111999GF107991071001999999071999MD1210201+9999MW1031
0081029720999991961030506004+60517+022267FM-12+005499999V0203201N00931030001CN0300001N9+00281-00281101701ADDAA199001091AY121999GF107991041061004501071999KA1999N+00111MD1210241+9999MW1701
0057029720999991961030509004+60517+022267FM-12+005499999V0203101N00931075001CN0400001N9+00391-00221101981ADDAY121999GF107991011001999999041071MD1210281+9999MW1011
0057029720999991961030515004+60517+022267FM-12+005499999V0202701N00411075001CN0400001N9+00501-00281102141ADDAY121999GF107991041001999999041071MD1210011+9999MW1021
0057029720999991961030521004+60517+022267FM-12+005499999V0202501N00311024001CN0300001N9+00281-00221101881ADDAY121999GF108991081001999999071999MD1710201+9999MW1031
0057029720999991961030600004+60517+022267FM-12+005499999V0202501N00411220001CN0300001N9+00281-00111101841ADDAY121999GF107991001001999999001071MD1710041+9999MW1021
0057029720999991961030603004+60517+022267FM-12+005499999V0202701N00411220001CN0300001N9+00281-00111101751ADDAY121999GF107991001001999999001071MD1710091+9999MW1021
0070029720999991961030606004+60517+022267FM-12+005499999V0202701N00311075001CN0200001N9+00221-00111101711ADDAY121999GF106991021001999999041071KA1999N+00111MD1710041+9999MW1011
0057029720999991961030609004+60517+022267FM-12+005499999V0202701N00411075001CN0400001N9+00611+00111101641ADDAY121999GF106991031001999999041071MD1710061+9999MW1021
0057029720999991961030612004+60517+022267FM-12+005499999V0202701N00621220001CN0400001N9+00891+00221101551ADDAY121999GF106991001001999999001061MD1710081+9999MW1031
0057029720999991961030615004+60517+022267FM-12+005499999V0202701N00511220001CN0400001N9+00721+00001101441ADDAY121999GF106991001001999999001061MD1710121+9999MW1021
0070029720999991961030618004+60517+022267FM-12+005499999V0202301N003119999999N0300001N9+00281+00001101191ADDAY121999GF106991011001004501001061KA1999M+01001MD1710251+9999MW1011
0057029720999991961030621004+60517+022267FM-12+005499999V0202501N00411024001CN0300001N9+00391+00221100821ADDAY111999GF107991061001999999071011MD1710371+9999MW1031
0057029720999991961030700004+60517+022267FM-12+005499999V0202901N00721075001CN0400001N9+00391+00001100621ADDAY121999GF106991021001999999041021MD1210201+9999MW1011
0070029720999991961030706004+60517+022267FM-12+005499999V0203201N01031007801CN0200001N9+00611-00111100521ADDAY121999GF107991061051008001071999KA1999N+00221MD1710081+9999MW1001
0057029720999991961030709004+60517+022267FM-12+005499999V0203401N01131004501CN0400001N9+00501-00111100791ADDAY121999GF105991051051004501041011MD1310271+9999MW1011
0057029720999991961030712004+60517+022267FM-12+005499999V0203401N01231007801CN0400001N9+00281-00611101331ADDAY121999GF107991051051008001001011MD1210521+9999MW1031
0057029720999991961030715004+60517+022267FM-12+005499999V0203401N00931220001CN0400001N9+00221-00781101781ADDAY111999GF103991011011008001001011MD1210451+9999MW1011
0070029720999991961030718004+60517+022267FM-12+005499999V0203201N00621220001CN0400001N9+00001-00501102071ADDAY101999GF101991011001999999041001KA1999M+00611MD1210281+9999MW1011
0057029720999991961030721004+60517+022267FM-12+005499999V0203201N00411220001CN0400001N9-00111-00391102201ADDAY101999GF100991001001999999001001MD1210121+9999MW1011
0057029720999991961030800004+60517+022267FM-12+005499999V0203201N00311220001CN0400001N9-00221-00391102351ADDAY101999GF100991001001999999001001MD1210151+9999MW1021
0057029720999991961030803004+60517+022267FM-12+005499999V0203201N00211220001CN0400001N9-00281-00501102471ADDAY101999GF100991001001999999001001MD1210111+9999MW1021
0070029720999991961030806004+60517+022267FM-12+005499999V0203201N00211220001CN0400001N9-00391-00501102611ADDAY111999GF105991001001999999001011KA1999N-00501MD1210141+9999MW1031
0057029720999991961030809004+60517+022267FM-12+005499999V0209991C00001075001CN0300001N9+00001-00611102621ADDAY121999GF107991021001999999041061MD1210031+9999MW1031
0057029720999991961030812004+60517+022267FM-12+005499999V0202201N00411075001CN0400001N9+00221-00611102481ADDAY121999GF107991041001999999041071MD1210141+9999MW1021
0057029720999991961030815004+60517+022267FM-12+005499999V0202301N00411002401CN0015001N9+00001-00111102151ADDAY171999GF108991061071002501021999MD1710331+9999MW1731
0081029720999991961030818004+60517+022267FM-12+005499999V0202301N00311007801CN0100001N9+00111+00001101731ADDAA199001091AY161999GF108991051051008001071999KA1999M+00221MD1710411+9999MW1601
0057029720999991961030821004+60517+022267FM-12+005499999V0202701N00311024001CN0150001N9+00281+00111101591ADDAY121999GF108991081001999999071999MD1710141+9999MW1031
0057029720999991961030900004+60517+022267FM-12+005499999V0202701N00411220001CN0200001N9+00221+00001101461ADDAY121999GF103991031001999999041001MD1710131+9999MW1011
0092029720999991961030903004+60517+022267FM-12+005499999V0203201N00621075001CN0200001N9+00501+00111101471ADDAY121999GF107991041001999999041061MD1210011+9999MW1031EQDQ01+000042APCTENQ02+000012APC3  
0081029720999991961030906004+60517+022267FM-12+005499999V0203201N00411075001CN0400001N9+00391+00001101531ADDAA199000391AY121999GF107991021001999999041021KA1999N+00111MD1210061+9999MW1021
0057029720999991961030909004+60517+022267FM-12+005499999V0203201N004119999999N0400001N9+00611+00001101531ADDAY121999GF107991071999999999999999MD1410001+9999MW1021
0057029720999991961030912004+60517+022267FM-12+005499999V0202701N00411075001CN0400001N9+00891+00221101311ADDAY121999GF107991041001999999071021MD1710221+9999MW1031
0057029720999991961030915004+60517+022267FM-12+005499999V0202301N00411030001CN0200001N9+00501+00281101081ADDAY161999GF107991031051004501071021MD1710231+9999MW1011
0081029720999991961030918004+60517+022267FM-12+005499999V0203001N00621075001CN0200001N9+00781+00221100991ADDAA199000591AY121999GF107991031001999999071071KA1999M+01001MD1710081+9999MW1021
0057029720999991961030921004+60517+022267FM-12+005499999V0203201N01031024001CN0200001N9+00891+00281101191ADDAY121999GF108991061001999999071071MD1310201+9999MW1031
0057029720999991961031000004+60517+022267FM-12+005499999V0203201N00721024001CN0300001N9+00721+00281101281ADDAY121999GF108991061001999999071071MD1210081+9999MW1021
0057029720999991961031003004+60517+022267FM-12+005499999V0203201N00311220001CN0300001N9+00611+00221101291ADDAY111999GF101991001001999999001011MD1210011+9999MW1011
0070029720999991961031006004+60517+022267FM-12+005499999V0202301N00311075001CN0150001N9+00221+00221101141ADDAY121999GF107991031001999999041071KA1999N+00221MD1710151+9999MW1021
0057029720999991961031009004+60517+022267FM-12+005499999V0202201N00411075001CN0300001N9+00721+00281101031ADDAY121999GF107991011001999999041071MD1710111+9999MW1011
0057029720999991961031012004+60517+022267FM-12+005499999V0202701N00511220001CN0300001N9+01111+00281100811ADDAY121999GF104991011001999999041021MD1710211+9999MW1011
0057029720999991961031015004+60517+022267FM-12+005499999V0202701N00511220001CN0300001N9+01001+00221100611ADDAY101999GF103991001001999999001011MD1710201+9999MW1011
0070029720999991961031018004+60517+022267FM-12+005499999V0202201N00361220001CN0150001N9+00391+00221100531ADDAY101999GF102991001001999999001011KA1999M+01111MD1710101+9999MW1021
0057029720999991961031021004+60517+022267FM-12+005499999V0202501N00361220001CN0100001N9+00281+00221100341ADDAY101999GF100991001001999999001001MD1710191+9999MW1021
0057029720999991961031100004+60517+022267FM-12+005499999V0202501N00411220001CN0100001N9+00221+00111100151ADDAY101999GF100991001001999999001001MD1710191+9999MW1021
0057029720999991961031103004+60517+022267FM-12+005499999V0202501N00411220001CN0100001N9+00221+00111099881ADDAY101999GF100991001001999999001001MD1710271+9999MW1021
0081029720999991961031106004+60517+022267FM-12+005499999V0202701N00721001501CN0015001N9+00221+00111099751ADDAA199000691AY121999GF108991081061001501999999KA1999N+00111MD1710131+9999MW1101
0057029720999991961031109004+60517+022267FM-12+005499999V0203201N00821030001CN0100001N9+00281+00221099781ADDAY161999GF107991031061002501071999MD1210041+9999MW1011
0057029720999991961031112004+60517+022267FM-12+005499999V0203201N01231220001CN0400001N9+00721-00501099961ADDAY111999GF103991021011004501001011MD1210191+9999MW1011
0057029720999991961031115004+60517+022267FM-12+005499999V0202701N00931220001CN0500001N9+00611-00611100131ADDAY101999GF101991011011008001001011MD1210161+9999MW1011
0081029720999991961031118004+60517+022267FM-12+005499999V0202501N00931030001CN0400001N9+00391-00391100121ADDAA199000691AY111999GF106991031051004501071001KA1999M+00721MD1110011+9999MW1011
0057029720999991961031121004+60517+022267FM-12+005499999V0202701N00821220001CN0400001N9+00501-00391999999ADDAY111999GF102991021001999999071001MD1710121+9999MW1011
0057029720999991961031200004+60517+022267FM-12+005499999V0202701N00721220001CN0400001N9+00391-00391099851ADDAY101999GF100991001001999999001001MD1710151+9999MW1011
0057029720999991961031203004+60517+022267FM-12+005499999V0202701N00721024001CN0400001N9+00391-00281099631ADDAY111999GF107991071001999999011999MD1710221+9999MW1031
0070029720999991961031206004+60517+022267FM-12+005499999V0202701N00621075001CN0400001N9+00281-00281099491ADDAY121999GF107991041001999999041021KA1999N+00221MD1710141+9999MW1031
0057029720999991961031209004+60517+022267FM-12+005499999V0202701N00621075001CN0400001N9+00501-00221099291ADDAY121999GF107991041001999999041071MD1710191+9999MW1021
0057029720999991961031212004+60517+022267FM-12+005499999V0203201N00621030001CN0400001N9+00611-00111099121ADDAY121999GF107991021011008001041071MD1710161+9999MW1021
0070029720999991961031218004+60517+022267FM-12+005499999V0201801N00211002401CN0080001N9+00221+00111098591ADDAY121999GF108991061061002501071999KA1999M+00611MD1710291+9999MW1601
0057029720999991961031221004+60517+022267FM-12+005499999V0200901N00311002401CN0025001N9+00001-00111098311ADDAY161999GF108991081061002501999999MD1710291+9999MW1681
0057029720999991961031300004+60517+022267FM-12+005499999V0203601N00621001501CN0010001N9+00001-00111098371ADDAY171999GF108991081061001501999999MD1210031+9999MW1751
0057029720999991961031303004+60517+022267FM-12+005499999V0203201N00621001501CN0080001N9+00001-00111098491ADDAY171999GF108991081061001501999999MD1210151+9999MW1021
0081029720999991961031306004+60517+022267FM-12+005499999V0203201N00621220001CN0200001N9-00221-00391098771ADDAA199007091AY121999GF103991011071001501041001KA1999N-00221MD1210281+9999MW1011
0057029720999991961031309004+60517+022267FM-12+005499999V0203201N00721007801CN0400001N9+00001-00391098981ADDAY121999GF107991071051008001999999MD1210211+9999MW1031
0057029720999991961031312004+60517+022267FM-12+005499999V0203201N00821002401CN0500001N9+00111-00221099291ADDAY171999GF106991061091002501999999MD1210311+9999MW1221
0057029720999991961031315004+60517+022267FM-12+005499999V0203401N00721030001CN0500001N9+00221-00221099711ADDAY181999GF105991031051004501041011MD1210421+9999MW1011
0081029720999991961031318004+60517+022267FM-12+005499999V0203201N00511220001CN0400001N9+00111-00501100111ADDAA199000691AY101999GF101991011001999999041001KA1999M+00221MD1210401+9999MW1011
0057029720999991961031321004+60517+022267FM-12+005499999V0203201N00511220001CN0400001N9+00001-00721100411ADDAY101999GF100991001001999999001001MD1210291+9999MW1021
0057029720999991961031400004+60517+022267FM-12+005499999V0203201N00411220001CN0300001N9-00281-00611100511ADDAY101999GF100991001001999999001001MD1210101+9999MW1021
0057029720999991961031403004+60517+022267FM-12+005499999V0203201N00211220001CN0300001N9-00391-00721100561ADDAY101999GF100991001001999999001001MD1210051+9999MW1021
0070029720999991961031406004+60517+022267FM-12+005499999V0202701N00211024001CN0300001N9-00611-00721100621ADDAY111999GF106991051001999999051051KA1999N-00721MD1010021+9999MW1031
0057029720999991961031409004+60517+022267FM-12+005499999V0202201N00261024001CN0300001N9+00001-00501100541ADDAY121999GF107991061001999999071051MD1710061+9999MW1021
0057029720999991961031412004+60517+022267FM-12+005499999V0202201N00411024001CN0400001N9+00221-00391100361ADDAY121999GF107991071001999999071999MD1710181+9999MW1021
0057029720999991961031415004+60517+022267FM-12+005499999V0202201N00511024001CN0400001N9+00221-00391100141ADDAY121999GF107991051001999999041021MD1710221+9999MW1011
0070029720999991961031418004+60517+022267FM-12+005499999V0202201N00311075001CN0300001N9+00111-00111099871ADDAY121999GF108991041001999999021071KA1999M+00281MD1710271+9999MW1031
0057029720999991961031500004+60517+022267FM-12+005499999V0203201N00511004501CN0150001N9+00221+00111099471ADDAY171999GF108991081061004501999999MD1710131+9999MW1231
0057029720999991961031503004+60517+022267FM-12+005499999V0203201N00621220001CN0300001N9+00111-00281099531ADDAY101999GF100991001001999999001001MD1010091+9999MW1011
0081029720999991961031506004+60517+022267FM-12+005499999V0203201N00621220001CN0500001N9+00111-00391099641ADDAA199003091AY101999GF102991011051008001041011KA1999N+00001MD1210111+9999MW1011
0057029720999991961031509004+60517+022267FM-12+005499999V0203401N01031004501CN0400001N9+00111-00721099821ADDAY121999GF107991071051004501041001MD1210181+9999MW1031
0057029720999991961031512004+60517+022267FM-12+005499999V0203401N01131004501CN0400001N9+00111-00721100081ADDAY121999GF107991071051004501999999MD1210251+9999MW1021
0057029720999991961031515004+60517+022267FM-12+005499999V0203601N01131004501CN0400001N9+00111-00781100351ADDAY121999GF105991051051004501001001MD1210271+9999MW1011
0070029720999991961031518004+60517+022267FM-12+005499999V0203201N00771220001CN0400001N9+00001-00781100671ADDAY101999GF101991011051008001001001KA1999M+00221MD1210321+9999MW1011
0057029720999991961031521004+60517+022267FM-12+005499999V0203201N00411220001CN0400001N9-00221-00721100741ADDAY101999GF101991011001999999041001MD1210071+9999MW1031
0057029720999991961031600004+60517+022267FM-12+005499999V0202701N00411030001CN0300001N9-00111-00391100671ADDAY121999GF108991041051004501071999MD1810071+9999MW1031
0057029720999991961031603004+60517+022267FM-12+005499999V0202301N00311220001CN0300001N9-00221-00391100491ADDAY121999GF105991021001999999041061MD1710191+9999MW1011
0070029720999991961031606004+60517+022267FM-12+005499999V0202301N00311024001CN0300001N9-00221-00281100361ADDAY121999GF108991081001999999071999KA1999N-00281MD1710131+9999MW1031
0057029720999991961031609004+60517+022267FM-12+005499999V0203201N004119999999N0300001N9+00111-00221100391ADDAY121999GF108991021051999999071999MD1210041+9999MW1021
0057029720999991961031612004+60517+022267FM-12+005499999V0203201N00311004501CN0200001N9+00221-00391100611ADDAY121999GF108991061051004501071999MD1210221+9999MW1031
0057029720999991961031615004+60517+022267FM-12+005499999V0203201N00311004501CN0200001N9+00221-00281100861ADDAY121999GF107991071051004501999999MD1210251+9999MW1011
0070029720999991961031618004+60517+022267FM-12+005499999V0202701N00411075001CN0300001N9+00001-00221101041ADDAY111999GF106991041051004501001021KA1999M+00221MD1210181+9999MW1031
0057029720999991961031621004+60517+022267FM-12+005499999V0202701N00311004501CN0150001N9+00001-00111101071ADDAY171999GF108991081051004501999999MD1210031+9999MW1711
0057029720999991961031700004+60517+022267FM-12+005499999V0201801N00101004501CN0100001N9-00111-00111101031ADDAY171999GF108991081051004501999999MD1710041+9999MW1711
0057029720999991961031703004+60517+022267FM-12+005499999V0201601N00211001501CN0040001N9-00111-00111100951ADDAY171999GF108991081061001501999999MD1710081+9999MW1101
0081029720999991961031706004+60517+022267FM-12+005499999V0201401N00211000151CN0004001N9+00001+00001100771ADDAA199001091AY141999GF109991091999000251999999KA1999N-00111MD1710161+9999MW1451
0057029720999991961031709004+60517+022267FM-12+005499999V0201401N00411000601CN0006001N9+00111+00001100481ADDAY141999GF108991081061000751999999MD1710291+9999MW1421
0057029720999991961031712004+60517+022267FM-12+005499999V0201601N00411001501CN0050001N9+00281+00281100111ADDAY141999GF107991071061001501999999MD1710351+9999MW1021
0057029720999991961031715004+60517+022267FM-12+005499999V0202701N00311030001CN0300001N9+00501+00111099931ADDAY121999GF106991021051004501071021MD1710181+9999MW1031
0070029720999991961031718004+60517+022267FM-12+005499999V0202301N00311030001CN0150001N9+00221+00111099831ADDAY121999GF107991021051004501071999KA1999M+00611MD1710111+9999MW1031
0057029720999991961031721004+60517+022267FM-12+005499999V0202301N00411220001CN0150001N9+00111-00111099611ADDAY101999GF101991011001999999041001MD1710221+9999MW1011
0057029720999991961031803004+60517+022267FM-12+005499999V0201801N00211030001CN0150001N9+00001-00111098891ADDAY121999GF108991041051004501071999MD1710411+9999MW1031
0081029720999991961031806004+60517+022267FM-12+005499999V0200901N00411030001CN0060001N9+00221+00111098331ADDAA199000691AY161999GF108991041051002501021999KA1999N+00001MD1710551+9999MW1611
0057029720999991961031809004+60517+022267FM-12+005499999V0200901N00411000601CN0060001N9+00221+00111097581ADDAY161999GF108991081061000751999999MD1710741+9999MW1211
0057029720999991961031812004+60517+022267FM-12+005499999V0202301N00411000601CN0010001N9+00111+00111097131ADDAY171999GF108991081061000751999999MD1710451+9999MW1691
0057029720999991961031815004+60517+022267FM-12+005499999V0203601N00931000601CN0020001N9-00221-00221097321ADDAY171999GF108991071061000751071999MD1310171+9999MW1731
0081029720999991961031818004+60517+022267FM-12+005499999V0203601N01031001501CN0200001N9-00391-00611097921ADDAA199004091AY171999GF107991071061001501999999KA1999M+00221MD1210601+9999MW1021
0057029720999991961031821004+60517+022267FM-12+005499999V0203401N00821007801CN0300001N9-00611-00781098451ADDAY121999GF108991081051008001999999MD1210521+9999MW1021
0057029720999991961031900004+60517+022267FM-12+005499999V0203401N00621030001CN0300001N9-00611-00891098721ADDAY121999GF107991011051008001071999MD1210271+9999MW1021
0057029720999991961031903004+60517+022267FM-12+005499999V0203401N00821075001CN0300001N9-00611-00891098971ADDAY121999GF107991021001999999041071MD1210251+9999MW1021
0070029720999991961031906004+60517+022267FM-12+005499999V0203501N00721075001CN0400001N9-00721-01001099271ADDAY121999GF107991031001999999041071KA1999N-00721MD1210291+9999MW1021
0057029720999991961031909004+60517+022267FM-12+005499999V0203601N00821220001CN0500001N9-00391-00891099551ADDAY121999GF107991001001999999001071MD1210291+9999MW1021
0057029720999991961031912004+60517+022267FM-12+005499999V0203601N00821075001CN0500001N9-00281-01001099731ADDAY121999GF107991011011008001001071MD1210181+9999MW1021
0070029720999991961031918004+60517+022267FM-12+005499999V0203201N00411220001CN0400001N9-00501-01001100061ADDAY111999GF101991001001999999001051KA1999M-00221MD1210191+9999MW1011
0057029720999991961031921004+60517+022267FM-12+005499999V0202701N00311220001CN0300001N9-00781-01001100021ADDAY101999GF100991001001999999001001MD1010041+9999MW1011
0057029720999991961032000004+60517+022267FM-12+005499999V0202701N00211220001CN0300001N9-00501-00721099881ADDAY101999GF102991021051004501001001MD1710141+9999MW1221
0057029720999991961032003004+60517+022267FM-12+005499999V0202301N00211220001CN0300001N9-00891-01001099811ADDAY101999GF102991021051004501001001MD1710081+9999MW1021
0081029720999991961032006004+60517+022267FM-12+005499999V0202501N00311220001CN0200001N9-00721-00781099731ADDAA199000591AY111999GF103991021031004501001021KA1999N-00891MD1710081+9999MW1011
0057029720999991961032009004+60517+022267FM-12+005499999V0203201N00411007801CN0400001N9-00111-00781099661ADDAY111999GF106991061021008001001001MD1710071+9999MW1031
0057029720999991961032012004+60517+022267FM-12+005499999V0202701N00511007801CN0500001N9+00111-00781099611ADDAY181999GF105991051021008001001001MD1710051+9999MW1011
0057029720999991961032015004+60517+022267FM-12+005499999V0202701N00411220001CN0400001N9+00111-00721099551ADDAY101999GF103991031021008001001001MD1710061+9999MW1011
0081029720999991961032018004+60517+022267FM-12+005499999V0202301N00101220001CN0400001N9-00281-00891099651ADDAA199000691AY101999GF103991011041008001001051KA1999M+00221MD1210091+9999MW1021
0057029720999991961032021004+60517+022267FM-12+005499999V0200401N00101220001CN0400001N9-00721-00891099691ADDAY101999GF100991001001999999001001MD1210031+9999MW1021
0057029720999991961032100004+60517+022267FM-12+005499999V0200401N00211220001CN0300001N9-00891-01001099751ADDAY101999GF100991001001999999001001MD1210061+9999MW1021
0070029720999991961032106004+60517+022267FM-12+005499999V0200401N00311220001CN0200001N9-00891-01001099961ADDAY101999GF103991011011008001041011KA1999N-01111MD1210131+9999MW1031
0057029720999991961032109004+60517+022267FM-12+005499999V0200601N00511220001CN0300001N9-00281-00891100111ADDAY101999GF103991011001999999041011MD1210161+9999MW1021
0057029720999991961032112004+60517+022267FM-12+005499999V0200401N00511220001CN0300001N9-00221-01221100261ADDAY101999GF104991041011008001001001MD1210151+9999MW1031
0057029720999991961032115004+60517+022267FM-12+005499999V0200401N00511220001CN0300001N9-00221-01221100341ADDAY101999GF101991011051012501001001MD1210081+9999MW1011
0070029720999991961032118004+60517+022267FM-12+005499999V0203601N00211220001CN0150001N9-00391-01221100481ADDAY101999GF101991011001999999041001KA1999M-00111MD1210141+9999MW1021
