0066036553999991962010100004+51933-001250SAO  +0133EGUA V0202301N003112200019N0128001N9-00531-00871101321ADDGA1011+018009059GF102991999999999999999999MA1999999099531MW1001
0035036553999991962010101004+51933-001250SAO  +0133EGUA V0202301N002112200019N0176001N9-00591-00871999999ADDGF100991999999999999999999MW1001
0035036553999991962010102004+51933-001250SAO  +0133EGUA V0202501N003112200019N0176001N9-00761-01031999999ADDGF100991999999999999999999MW1001
0066036553999991962010103004+51933-001250SAO  +0133EGUA V0202701N002612200019N0176001N9-00871-01151101421ADDGA1001+999999999GF100991999999999999999999MA1999999099591MW1001
0035036553999991962010104004+51933-001250SAO  +0133EGUA V0202701N003112200019N0128001N9-00761-01031999999ADDGF102991999999999999999999MW1001
0035036553999991962010105004+51933-001250SAO  +0133EGUA V0202701N003612200019N0128001N9-00591-00871999999ADDGF102991999999999999999999MW1001
0066036553999991962010106004+51933-001250SAO  +0133EGUA V0209991C000012200019N0128001N9-00871-01031101461ADDGA1011+010509059GF102991999999999999999999MA1999999099631MW1001
0035036553999991962010107004+51933-001250SAO  +0133EGUA V0209991C000010066019N0128001N9-00921-01091999999ADDGF107991999999999999999999MW1001
0035036553999991962010108004+51933-001250SAO  +0133EGUA V0202701N002112200019N0096001N9-00421-00701999999ADDGF102991999999999999999999MW1051
0098036553999991962010109004+51933-001250SAO  +0133EGUA V0203201N002610120019N0096001N9-00371-00651101631ADDGA1041+002409079GA2051+012009059GA3011+024009039GF107991999999999999999999MA1999999099801MW1051
0035036553999991962010110004+51933-001250SAO  +0133EGUA V0203401N002610240019N0080001N9-00481-00701999999ADDGF107991999999999999999999MW1051
0035036553999991962010111004+51933-001250SAO  +0133EGUA V0209991C000010240019N0048001N9-00591-00871999999ADDGF107991999999999999999999MW1051
0126036553999991962010112004+51933-001250SAO  +0133EGUA V0203401N003610240019N0036001N9-00421-00701101661ADDAA124999929AJ100189199999999GA1051+024009039GF107991999999999999999999KA1999M-00201KA2999N-00921MA1999999099831MW1051MW2111
0041036553999991962010113004+51933-001250SAO  +0133EGUA V0203601N004610240019N0001001N9-00371-00531999999ADDGF107991999999999999999999MW1051MW2451
0035036553999991962010114004+51933-001250SAO  +0133EGUA V0203601N003110240019N0001001N9-00371-00531999999ADDGF107991999999999999999999MW1451
0082036553999991962010115004+51933-001250SAO  +0133EGUA V0203601N002610240019N0001001N9-00481-00651101661ADDGA1061+999999999GA2021+024009039GF107991999999999999999999MA1999999099831MW1451
0035036553999991962010116004+51933-001250SAO  +0133EGUA V0203401N003610240019N0012001N9-00531-00761999999ADDGF107991999999999999999999MW1111
0035036553999991962010117004+51933-001250SAO  +0133EGUA V0203201N004112200019N0012001N9-00481-00651999999ADDGF102991999999999999999999MW1111
0066036553999991962010118004+51933-001250SAO  +0133EGUA V0203401N004112200019N0018001N9-00531-00701101761ADDGA1021+999999999GF102991999999999999999999MA1999999099931MW1111
0041036553999991962010119004+51933-001250SAO  +0133EGUA V0203401N004610051019N0018001N9-00531-00701999999ADDGF107991999999999999999999MW1051MW2111
0035036553999991962010120004+51933-001250SAO  +0133EGUA V0203401N005110036019N0018001N9-00531-00701999999ADDGF107991999999999999999999MW1111
0082036553999991962010121004+51933-001250SAO  +0133EGUA V0203401N003610042019N0018001N9-00261-00481101861ADDGA1061+999999999GA2041+004209059GF108991999999999999999999MA1999999100101MW1451
0035036553999991962010122004+51933-001250SAO  +0133EGUA V0203601N004610084019N0026001N9-00201-00481999999ADDGF107991999999999999999999MW1111
0035036553999991962010123004+51933-001250SAO  +0133EGUA V0203601N005112200019N0026001N9-00371-00651999999ADDGF102991999999999999999999MW1111
0066036553999991962010200004+51933-001250SAO  +0133EGUA V0203401N003612200019N0026001N9-00531-00811102031ADDGA1021+999999999GF102991999999999999999999MA1999999100201MW1111
0035036553999991962010201004+51933-001250SAO  +0133EGUA V0203201N003610051019N0022001N9-00311-00651999999ADDGF107991999999999999999999MW1111
0035036553999991962010202004+51933-001250SAO  +0133EGUA V0203201N004112200019N0018001N9-00481-00761999999ADDGF102991999999999999999999MW1111
0082036553999991962010203004+51933-001250SAO  +0133EGUA V0203401N004112200019N0012001N9-00591-00811102131ADDGA1031+999999999GA2011+005109059GF102991999999999999999999MA1999999100301MW1111
0035036553999991962010204004+51933-001250SAO  +0133EGUA V0203401N005712200019N0012001N9-00531-00761999999ADDGF102991999999999999999999MW1111
0035036553999991962010205004+51933-001250SAO  +0133EGUA V0203401N004112200019N0018001N9-00591-00871999999ADDGF102991999999999999999999MW1111
0066036553999991962010206004+51933-001250SAO  +0133EGUA V0203401N003612200019N0026001N9-00651-00921102271ADDGA1021+999999999GF102991999999999999999999MA1999999100441MW1111
0035036553999991962010207004+51933-001250SAO  +0133EGUA V0203401N005112200019N0026001N9-00651-00871999999ADDGF102991999999999999999999MW1111
0041036553999991962010208004+51933-001250SAO  +0133EGUA V0203401N004612200019N0012001N9-00701-00921999999ADDGF102991999999999999999999MW1051MW2111
0072036553999991962010209004+51933-001250SAO  +0133EGUA V0203401N004612200019N0012001N9-00651-00921102511ADDGA1011+999999999GF102991999999999999999999MA1999999100681MW1051MW2111
0041036553999991962010210004+51933-001250SAO  +0133EGUA V0203401N003612200019N0012001N9-00651-00871999999ADDGF102991999999999999999999MW1051MW2111
0035036553999991962010211004+51933-001250SAO  +0133EGUA V0203401N004112200019N0012001N9-00421-00811999999ADDGF102991999999999999999999MW1051
0120036553999991962010212004+51933-001250SAO  +0133EGUA V0203201N003112200019N0018001N9-00311-00761102641ADDAA124000091AJ100189199999999GA1091+999999999GF102991999999999999999999KA1999M-00261KA2999N-00701MA1999999100811MW1051
0035036553999991962010213004+51933-001250SAO  +0133EGUA V0203401N003612200019N0012001N9-00311-00701999999ADDGF102991999999999999999999MW1051
0035036553999991962010214004+51933-001250SAO  +0133EGUA V0203401N003112200019N0012001N9-00261-00761999999ADDGF102991999999999999999999MW1051
0066036553999991962010215004+51933-001250SAO  +0133EGUA V0203601N003612200019N0012001N9-00261-00761102641ADDGA1091+999999999GF102991999999999999999999MA1999999100811MW1051
0035036553999991962010216004+51933-001250SAO  +0133EGUA V0203401N004612200019N0010001N9-00371-00811999999ADDGF102991999999999999999999MW1051
0035036553999991962010217004+51933-001250SAO  +0133EGUA V0203401N004612200019N0012001N9-00481-00871999999ADDGF102991999999999999999999MW1051
0082036553999991962010218004+51933-001250SAO  +0133EGUA V0203601N004112200019N0012001N9-00421-00811102681ADDGA1091+999999999GA2011+005409079GF102991999999999999999999MA1999999100851MW1051
0035036553999991962010219004+51933-001250SAO  +0133EGUA V0203401N004112200019N0012001N9-00481-00811999999ADDGF102991999999999999999999MW1051
0035036553999991962010220004+51933-001250SAO  +0133EGUA V0203401N004112200019N0012001N9-00531-00871999999ADDGF102991999999999999999999MW1111
0066036553999991962010221004+51933-001250SAO  +0133EGUA V0203601N003612200019N0012001N9-00421-00761102811ADDGA1031+999999999GF102991999999999999999999MA1999999100981MW1111
0035036553999991962010222004+51933-001250SAO  +0133EGUA V0203601N004112200019N0018001N9-00421-00701999999ADDGF102991999999999999999999MW1111
0035036553999991962010223004+51933-001250SAO  +0133EGUA V0203401N004612200019N0018001N9-00481-00761999999ADDGF102991999999999999999999MW1111
0082036553999991962010300004+51933-001250SAO  +0133EGUA V0203601N004612200019N0018001N9-00481-00761102811ADDGA1021+999999999GA2011+009009059GF102991999999999999999999MA1999999100981MW1111
0035036553999991962010301004+51933-001250SAO  +0133EGUA V0203601N004112200019N0018001N9-00591-00811999999ADDGF102991999999999999999999MW1111
0035036553999991962010302004+51933-001250SAO  +0133EGUA V0203601N004112200019N0018001N9-00481-00701999999ADDGF102991999999999999999999MW1111
0088036553999991962010303004+51933-001250SAO  +0133EGUA V0203601N004110090019N0018001N9-00371-00701102741ADDGA1021+999999999GA2051+009009059GF107991999999999999999999MA1999999100951MW1051MW2111
0041036553999991962010304004+51933-001250SAO  +0133EGUA V0203601N004112200019N0018001N9-00531-00871999999ADDGF102991999999999999999999MW1051MW2111
0041036553999991962010305004+51933-001250SAO  +0133EGUA V0203601N004612200019N0018001N9-00651-00921999999ADDGF102991999999999999999999MW1051MW2111
0072036553999991962010306004+51933-001250SAO  +0133EGUA V0203601N004612200019N0012001N9-00701-00981102781ADDGA1021+999999999GF102991999999999999999999MA1999999100951MW1051MW2111
0035036553999991962010307004+51933-001250SAO  +0133EGUA V0203601N004110001519N0010001N9-00651-00871999999ADDGF108991999999999999999999MW1451
0035036553999991962010308004+51933-001250SAO  +0133EGUA V0203601N003610001519N0000001N9-00651-00811999999ADDGF108991999999999999999999MW1451
0066036553999991962010309004+51933-001250SAO  +0133EGUA V0203601N003110001519N0000001N9-00531-00761102781ADDGA1091+000159999GF109991999999999999999999MA1999999100951MW1451
0035036553999991962010310004+51933-001250SAO  +0133EGUA V0203601N004610001519N0000001N9-00421-00651999999ADDGF108991999999999999999999MW1451
0035036553999991962010311004+51933-001250SAO  +0133EGUA V0203601N004610001519N0000001N9-00311-00481999999ADDGF108991999999999999999999MW1451
0136036553999991962010312004+51933-001250SAO  +0133EGUA V0203601N004110120019N0001001N9-00201-00371102641ADDAA124001091AJ100189199999999GA1061+999999999GA2021+012009059GF108991999999999999999999KA1999M+00351KA2999N-00701MA1999999100851MW1451
0035036553999991962010313004+51933-001250SAO  +0133EGUA V0203601N004110120019N0003001N9-00091-00311999999ADDGF108991999999999999999999MW1451
0035036553999991962010314004+51933-001250SAO  +0133EGUA V0203401N003110120019N0005001N9-00041-00201999999ADDGF108991999999999999999999MW1451
0088036553999991962010315004+51933-001250SAO  +0133EGUA V0203601N003110009019N0005001N9+00131-00041102541ADDGA1061+999999999GA2031+000909079GF108991999999999999999999MA1999999100751MW1451MW2511
0035036553999991962010316004+51933-001250SAO  +0133EGUA V0200201N004110003019N0001001N9+00241+00131999999ADDGF108991999999999999999999MW1451
0035036553999991962010317004+51933-001250SAO  +0133EGUA V0200201N004610003019N0001001N9+00301+00191999999ADDGF108991999999999999999999MW1451
0066036553999991962010318004+51933-001250SAO  +0133EGUA V0200201N004110003019N0001001N9+00301+00191102541ADDGA1091+000309999GF109991999999999999999999MA1999999100751MW1451
0041036553999991962010319004+51933-001250SAO  +0133EGUA V0200201N004610003019N0001001N9+00301+00191999999ADDGF108991999999999999999999MW1451MW2611
0041036553999991962010320004+51933-001250SAO  +0133EGUA V0203601N003610003019N0001001N9+00301+00191999999ADDGF108991999999999999999999MW1451MW2511
0066036553999991962010321004+51933-001250SAO  +0133EGUA V0200201N003610003019N0001001N9+00301+00191102541ADDGA1091+000309999GF109991999999999999999999MA1999999100751MW1451
0041036553999991962010322004+51933-001250SAO  +0133EGUA V0200201N003110003019N0001001N9+00301+00191999999ADDGF108991999999999999999999MW1451MW2511
0041036553999991962010323004+51933-001250SAO  +0133EGUA V0203601N004110012019N0005001N9+00301+00241999999ADDGF108991999999999999999999MW1451MW2611
0072036553999991962010400004+51933-001250SAO  +0133EGUA V0200201N004610012019N0008001N9+00351+00241102641ADDGA1091+001209999GF109991999999999999999999MA1999999100851MW1451MW2611
0035036553999991962010401004+51933-001250SAO  +0133EGUA V0203601N004110012019N0006001N9+00351+00241999999ADDGF108991999999999999999999MW1451
0035036553999991962010402004+51933-001250SAO  +0133EGUA V0200201N004110009019N0005001N9+00351+00241999999ADDGF108991999999999999999999MW1451
0066036553999991962010403004+51933-001250SAO  +0133EGUA V0200201N004610009019N0008001N9+00351+00241102611ADDGA1091+000909999GF109991999999999999999999MA1999999100851MW1451
0035036553999991962010404004+51933-001250SAO  +0133EGUA V0200201N003610003019N0003001N9+00301+00191999999ADDGF108991999999999999999999MW1451
0035036553999991962010405004+51933-001250SAO  +0133EGUA V0203601N003610003019N0005001N9+00301+00191999999ADDGF108991999999999999999999MW1451
0066036553999991962010406004+51933-001250SAO  +0133EGUA V0203601N003110003019N0005001N9+00301+00191102611ADDGA1091+000309999GF109991999999999999999999MA1999999100851MW1451
0041036553999991962010407004+51933-001250SAO  +0133EGUA V0200201N004110006019N0008001N9+00301+00191999999ADDGF108991999999999999999999MW1451MW2511
0035036553999991962010408004+51933-001250SAO  +0133EGUA V0203601N003610006019N0010001N9+00301+00191999999ADDGF108991999999999999999999MW1451
0072036553999991962010409004+51933-001250SAO  +0133EGUA V0200501N003110003019N0001001N9+00301+00191102711ADDGA1091+000309999GF109991999999999999999999MA1999999100951MW1451MW2511
0035036553999991962010410004+51933-001250SAO  +0133EGUA V0200201N003110003019N0001001N9+00301+00191999999ADDGF108991999999999999999999MW1451
0035036553999991962010411004+51933-001250SAO  +0133EGUA V0200201N003610009019N0001001N9+00301+00191999999ADDGF108991999999999999999999MW1451
0120036553999991962010412004+51933-001250SAO  +0133EGUA V0200201N002110009019N0001001N9+00241+00191102811ADDAA124000391AJ100059199999999GA1091+000909999GF109991999999999999999999KA1999M+00351KA2999N+00191MA1999999101051MW1451
0041036553999991962010413004+51933-001250SAO  +0133EGUA V0203601N002610006019N0001001N9+00301+00191999999ADDGF108991999999999999999999MW1451MW2511
0041036553999991962010414004+51933-001250SAO  +0133EGUA V0203601N002110006019N0001001N9+00241+00131999999ADDGF108991999999999999999999MW1451MW2511
0072036553999991962010415004+51933-001250SAO  +0133EGUA V0203601N003110006019N0001001N9+00241+00131102681ADDGA1091+000609999GF109991999999999999999999MA1999999100911MW1451MW2511
0035036553999991962010416004+51933-001250SAO  +0133EGUA V0203601N002110006019N0001001N9+00241+00131999999ADDGF108991999999999999999999MW1451
0035036553999991962010417004+51933-001250SAO  +0133EGUA V0203601N001510003019N0000001N9+00241+00131999999ADDGF108991999999999999999999MW1451
0066036553999991962010418004+51933-001250SAO  +0133EGUA V0203401N003110003019N0000001N9+00191+00131102781ADDGA1091+000309999GF109991999999999999999999MA1999999101021MW1451
0035036553999991962010419004+51933-001250SAO  +0133EGUA V0203601N002110001519N0000001N9+00191+00131999999ADDGF108991999999999999999999MW1451
0035036553999991962010420004+51933-001250SAO  +0133EGUA V0203401N003110001519N0000001N9+00191+00131999999ADDGF108991999999999999999999MW1451
0082036553999991962010421004+51933-001250SAO  +0133EGUA V0203601N002110048019N0018001N9+00241+00131102781ADDGA1021+999999999GA2081+004809059GF108991999999999999999999MA1999999101021MW1111
0035036553999991962010422004+51933-001250SAO  +0133EGUA V0203601N002110045019N0018001N9+00241+00131999999ADDGF108991999999999999999999MW1111
0035036553999991962010423004+51933-001250SAO  +0133EGUA V0203601N002110045019N0026001N9+00191+00081999999ADDGF108991999999999999999999MW1111
0082036553999991962010500004+51933-001250SAO  +0133EGUA V0203601N003110045019N0012001N9+00191+00081102741ADDGA1021+999999999GA2081+004509059GF108991999999999999999999MA1999999100981MW1111
0035036553999991962010501004+51933-001250SAO  +0133EGUA V0203601N002110045019N0018001N9+00191+00081999999ADDGF108991999999999999999999MW1111
0041036553999991962010502004+51933-001250SAO  +0133EGUA V0209991C000010045019N0048001N9+00241+00021999999ADDGF108991999999999999999999MW1051MW2111
0072036553999991962010503004+51933-001250SAO  +0133EGUA V0203201N001010033019N0040001N9+00241+00021102641ADDGA1081+003309059GF108991999999999999999999MA1999999100881MW1051MW2111
0041036553999991962010504004+51933-001250SAO  +0133EGUA V0209991C000010033019N0080001N9+00301-00041999999ADDGF108991999999999999999999MW1051MW2111
0035036553999991962010505004+51933-001250SAO  +0133EGUA V0202701N001010033019N0096001N9+00301-00091999999ADDGF108991999999999999999999MW1051
0066036553999991962010506004+51933-001250SAO  +0133EGUA V0202701N001010033019N0096001N9+00241-00091102571ADDGA1081+003309059GF108991999999999999999999MA1999999100811MW1051
0035036553999991962010507004+51933-001250SAO  +0133EGUA V0202701N001510036019N0096001N9+00191-00091999999ADDGF108991999999999999999999MW1051
0035036553999991962010508004+51933-001250SAO  +0133EGUA V0202501N002110045019N0064001N9+00241-00091999999ADDGF108991999999999999999999MW1051
0066036553999991962010509004+51933-001250SAO  +0133EGUA V0202701N003110045019N0064001N9+00241-00091102641ADDGA1081+004509059GF108991999999999999999999MA1999999100881MW1051
0035036553999991962010510004+51933-001250SAO  +0133EGUA V0202301N002110045019N0064001N9+00241-00091999999ADDGF108991999999999999999999MW1051
0035036553999991962010511004+51933-001250SAO  +0133EGUA V0202001N002110066019N0048001N9+00241-00091999999ADDGF108991999999999999999999MW1051
0120036553999991962010512004+51933-001250SAO  +0133EGUA V0202301N004110066019N0048001N9+00241-00091102471ADDAA124999929AJ100059199999999GA1081+006609059GF108991999999999999999999KA1999M+00351KA2999N+00191MA1999999100711MW1051
0035036553999991962010513004+51933-001250SAO  +0133EGUA V0202301N003612200019N0048001N9+00301-00041999999ADDGF108991999999999999999999MW1051
0035036553999991962010514004+51933-001250SAO  +0133EGUA V0202301N003112200019N0048001N9+00301-00041999999ADDGF108991999999999999999999MW1051
0082036553999991962010515004+51933-001250SAO  +0133EGUA V0202301N003110075019N0040001N9+00301-00041102271ADDGA1051+007509059GA2031+220009009GF108991999999999999999999MA1999999100511MW1051
0035036553999991962010516004+51933-001250SAO  +0133EGUA V0202301N004112200019N0036001N9+00241-00041999999ADDGF108991999999999999999999MW1051
0041036553999991962010517004+51933-001250SAO  +0133EGUA V0202301N005112200019N0018001N9+00241-00041999999ADDGF108991999999999999999999MW1051MW2111
0066036553999991962010518004+51933-001250SAO  +0133EGUA V0202301N005712200019N0036001N9+00241-00041102171ADDGA1031+220009029GF102991999999999999999999MA1999999100411MW1051
0035036553999991962010519004+51933-001250SAO  +0133EGUA V0202301N005712200019N0036001N9+00241-00041999999ADDGF102991999999999999999999MW1111
0035036553999991962010520004+51933-001250SAO  +0133EGUA V0202301N006212200019N0040001N9+00241-00041999999ADDGF107991999999999999999999MW1111
0082036553999991962010521004+51933-001250SAO  +0133EGUA V0202001N006212200019N0040001N9+00301-00041102131ADDGA1041+018009059GA2021+220009029GF107991999999999999999999MA1999999100371MW1111
0041036553999991962010522004+51933-001250SAO  +0133EGUA V0202301N006210210019N0040001N9+00301+00021999999ADDGF108991999999999999999999MW1111MW2611
0041036553999991962010523004+51933-001250SAO  +0133EGUA V0202301N005110210019N0040001N9+00301+00021999999ADDGF108991999999999999999999MW1111MW2611
0082036553999991962010600004+51933-001250SAO  +0133EGUA V0202301N005110210019N0040001N9+00351+00081102071ADDGA1061+021009039GA2031+220009009GF108991999999999999999999MA1999999100301MW1111
0041036553999991962010601004+51933-001250SAO  +0133EGUA V0202501N005110210019N0040001N9+00351+00081999999ADDGF108991999999999999999999MW1051MW2111
0035036553999991962010602004+51933-001250SAO  +0133EGUA V0202301N004110030019N0036001N9+00411+00131999999ADDGF108991999999999999999999MW1051
0066036553999991962010603004+51933-001250SAO  +0133EGUA V0202301N005110012019N0036001N9+00411+00191101901ADDGA1081+001209079GF108991999999999999999999MA1999999100141MW1051
0035036553999991962010604004+51933-001250SAO  +0133EGUA V0202301N006210003019N0018001N9+00411+00301999999ADDGF108991999999999999999999MW1451
0035036553999991962010605004+51933-001250SAO  +0133EGUA V0202301N005710001519N0001001N9+00461+00301999999ADDGF108991999999999999999999MW1451
0066036553999991962010606004+51933-001250SAO  +0133EGUA V0202501N006210001519N0003001N9+00521+00411101861ADDGA1091+000159999GF109991999999999999999999MA1999999100101MW1451
0035036553999991962010607004+51933-001250SAO  +0133EGUA V0202501N005110003019N0006001N9+00581+00461999999ADDGF108991999999999999999999MW1451
0035036553999991962010608004+51933-001250SAO  +0133EGUA V0202501N005110003019N0001001N9+00581+00461999999ADDGF108991999999999999999999MW1451
0082036553999991962010609004+51933-001250SAO  +0133EGUA V0202701N005110057019N0005001N9+00521+00461102031ADDGA1051+999999999GA2051+005709059GF108991999999999999999999MA1999999100271MW1451
0035036553999991962010610004+51933-001250SAO  +0133EGUA V0202701N004110057019N0026001N9+00581+00581999999ADDGF107991999999999999999999MW1111
0035036553999991962010611004+51933-001250SAO  +0133EGUA V0202701N003610057019N0048001N9+00631+00581999999ADDGF107991999999999999999999MW1111
0120036553999991962010612004+51933-001250SAO  +0133EGUA V0202501N003110075019N0048001N9+00691+00581102131ADDAA124001091AJ100039199999999GA1061+007509059GF107991999999999999999999KA1999M+00741KA2999N+00351MA1999999100371MW1051
0035036553999991962010613004+51933-001250SAO  +0133EGUA V0209991C000010018019N0048001N9+00741+00581999999ADDGF108991999999999999999999MW1051
0035036553999991962010614004+51933-001250SAO  +0133EGUA V0202901N001510021019N0048001N9+00741+00581999999ADDGF108991999999999999999999MW1051
0088036553999991962010615004+51933-001250SAO  +0133EGUA V0209991C000010051019N0036001N9+00691+00521102201ADDGA1021+999999999GA2081+005109059GF108991999999999999999999MA1999999100441MW1051MW2111
0035036553999991962010616004+51933-001250SAO  +0133EGUA V0209991C000010045019N0006001N9+00581+00411999999ADDGF107991999999999999999999MW1451
0035036553999991962010617004+51933-001250SAO  +0133EGUA V0202301N002610036019N0001001N9+00581+00461999999ADDGF108991999999999999999999MW1451
0082036553999991962010618004+51933-001250SAO  +0133EGUA V0202501N001510030019N0001001N9+00581+00461102361ADDGA1071+999999999GA2081+003009059GF108991999999999999999999MA1999999100611MW1451
0035036553999991962010619004+51933-001250SAO  +0133EGUA V0202001N001510045019N0001001N9+00741+00691999999ADDGF108991999999999999999999MW1451
0041036553999991962010620004+51933-001250SAO  +0133EGUA V0201801N002110001519N0000001N9+00631+00581999999ADDGF108991999999999999999999MW1451MW2511
0072036553999991962010621004+51933-001250SAO  +0133EGUA V0201801N002110001519N0001001N9+00691+00581102341ADDGA1091+000159999GF109991999999999999999999MA1999999100581MW1451MW2511
0041036553999991962010622004+51933-001250SAO  +0133EGUA V0202001N003110003019N0001001N9+00741+00631999999ADDGF108991999999999999999999MW1451MW2511
0041036553999991962010623004+51933-001250SAO  +0133EGUA V0202301N003610003019N0001001N9+00741+00631999999ADDGF108991999999999999999999MW1451MW2511
0072036553999991962010700004+51933-001250SAO  +0133EGUA V0202001N004610003019N0001001N9+00741+00631102271ADDGA1091+000309999GF109991999999999999999999MA1999999100511MW1451MW2511
0041036553999991962010701004+51933-001250SAO  +0133EGUA V0201801N005110003019N0001001N9+00851+00741999999ADDGF108991999999999999999999MW1451MW2511
0047036553999991962010702004+51933-001250SAO  +0133EGUA V0202301N003110012019N0036001N9+00851+00741999999ADDGF108991999999999999999999MW1051MW2111MW3511
0098036553999991962010703004+51933-001250SAO  +0133EGUA V0202301N002110015019N0040001N9+00801+00691102231ADDGA1051+001509079GA2031+003009079GA3041+008409059GF108991999999999999999999MA1999999100511MW1051
0035036553999991962010704004+51933-001250SAO  +0133EGUA V0202301N005712200019N0096001N9+00801+00631999999ADDGF107991999999999999999999MW1051
0035036553999991962010705004+51933-001250SAO  +0133EGUA V0209991C000012200019N0128001N9+00741+00581999999ADDGF102991999999999999999999MW1001
0082036553999991962010706004+51933-001250SAO  +0133EGUA V0201801N003610024019N0176001N9+00741+00581102191ADDGA1071+002409079GA2081+003909079GF108991999999999999999999MA1999999100441MW1001
0035036553999991962010707004+51933-001250SAO  +0133EGUA V0202001N006210021019N0176001N9+00741+00581999999ADDGF108991999999999999999999MW1001
0035036553999991962010708004+51933-001250SAO  +0133EGUA V0202301N005110018019N0128001N9+00801+00631999999ADDGF108991999999999999999999MW1001
0082036553999991962010709004+51933-001250SAO  +0133EGUA V0202501N007210018019N0080001N9+00801+00631102291ADDGA1041+000909079GA2071+001809079GF108991999999999999999999MA1999999100581MW1051
0035036553999991962010710004+51933-001250SAO  +0133EGUA V0202501N004612200019N0080001N9+00801+00691999999ADDGF107991999999999999999999MW1051
0035036553999991962010711004+51933-001250SAO  +0133EGUA V0202701N004612200019N0096001N9+00851+00631999999ADDGF107991999999999999999999MW1051
0119036553999991962010712004+51933-001250SAO  +0133EGUA V0202701N004112200019N0176001N9+00911+00631102531ADDAA124999929GA1011+009009059GA2061+220009009GF107991999999999999999999KA1999M+00911KA2999N+00461MA1999999100811MW1001
0035036553999991962010713004+51933-001250SAO  +0133EGUA V0202701N005112200019N0176001N9+00911+00461999999ADDGF107991999999999999999999MW1001
0035036553999991962010714004+51933-001250SAO  +0133EGUA V0202701N004112200019N0176001N9+00911+00461999999ADDGF108991999999999999999999MW1001
0082036553999991962010715004+51933-001250SAO  +0133EGUA V0202701N003112200019N0176001N9+00851+00411102501ADDGA1011+006009059GA2081+220009009GF108991999999999999999999MA1999999100781MW1001
0035036553999991962010716004+51933-001250SAO  +0133EGUA V0202501N002112200019N0144001N9+00691+00351999999ADDGF108991999999999999999999MW1001
0035036553999991962010717004+51933-001250SAO  +0133EGUA V0201801N002112200019N0096001N9+00691+00411999999ADDGF108991999999999999999999MW1051
0082036553999991962010718004+51933-001250SAO  +0133EGUA V0202001N002612200019N0096001N9+00631+00351102631ADDGA1011+006009059GA2081+220009009GF108991999999999999999999MA1999999100881MW1051
0035036553999991962010719004+51933-001250SAO  +0133EGUA V0202301N004612200019N0096001N9+00581+00411999999ADDGF108991999999999999999999MW1051
0035036553999991962010720004+51933-001250SAO  +0133EGUA V0202501N004110003019N0001001N9+00521+00411999999ADDGF108991999999999999999999MW1451
0066036553999991962010721004+51933-001250SAO  +0133EGUA V0202301N003110001519N0001001N9+00521+00411102631ADDGA1091+000159999GF109991999999999999999999MA1999999100881MW1451
0035036553999991962010722004+51933-001250SAO  +0133EGUA V0202301N003110001519N0001001N9+00521+00411999999ADDGF108991999999999999999999MW1451
0041036553999991962010723004+51933-001250SAO  +0133EGUA V0202001N003612200019N0064001N9+00461+00301999999ADDGF100991999999999999999999MW1051MW2111
0072036553999991962010800004+51933-001250SAO  +0133EGUA V0202001N002612200019N0064001N9+00461+00301102561ADDGA1001+999999999GF100991999999999999999999MA1999999100811MW1051MW2111
0035036553999991962010801004+51933-001250SAO  +0133EGUA V0202301N003112200019N0036001N9+00411+00241999999ADDGF102991999999999999999999MW1111
0035036553999991962010802004+51933-001250SAO  +0133EGUA V0202301N002610012019N0032001N9+00411+00301999999ADDGF108991999999999999999999MW1451
0066036553999991962010803004+51933-001250SAO  +0133EGUA V0202301N003610015019N0080001N9+00521+00351102511ADDGA1081+001509079GF108991999999999999999999MA1999999100751MW1111
0035036553999991962010804004+51933-001250SAO  +0133EGUA V0201801N002612200019N0040001N9+00351+00191999999ADDGF102991999999999999999999MW1111
0035036553999991962010805004+51933-001250SAO  +0133EGUA V0202001N001012200019N0001001N9+00301+00131999999ADDGF107991999999999999999999MW1451
0066036553999991962010806004+51933-001250SAO  +0133EGUA V0201801N001012200019N0001001N9+00131+00021102271ADDGA1071+999999999GF107991999999999999999999MA1999999100511MW1451
0035036553999991962010807004+51933-001250SAO  +0133EGUA V0201801N002112200019N0010001N9+00241+00191999999ADDGF102991999999999999999999MW1111
0035036553999991962010808004+51933-001250SAO  +0133EGUA V0201801N003110006019N0001001N9+00351+00241999999ADDGF108991999999999999999999MW1451
0066036553999991962010809004+51933-001250SAO  +0133EGUA V0201601N001510003019N0001001N9+00351+00241102001ADDGA1091+000309999GF109991999999999999999999MA1999999100241MW1451
0041036553999991962010810004+51933-001250SAO  +0133EGUA V0201801N005110006019N0005001N9+00581+00521999999ADDGF108991999999999999999999MW1451MW2611
0035036553999991962010811004+51933-001250SAO  +0133EGUA V0201801N004610006019N0018001N9+00741+00631999999ADDGF108991999999999999999999MW1111
0103036553999991962010812004+51933-001250SAO  +0133EGUA V0202001N005110021019N0064001N9+00851+00741101681ADDAA124003091GA1081+002109079GF108991999999999999999999KA1999M+00911KA2999N+00131MA1999999099971MW1111
0035036553999991962010813004+51933-001250SAO  +0133EGUA V0202001N005110036019N0064001N9+00911+00741999999ADDGF108991999999999999999999MW1051
0035036553999991962010814004+51933-001250SAO  +0133EGUA V0201801N006210045019N0064001N9+00911+00691999999ADDGF108991999999999999999999MW1051
0066036553999991962010815004+51933-001250SAO  +0133EGUA V0201801N006710054019N0080001N9+00911+00581101381ADDGA1081+005409079GF108991999999999999999999MA1999999099631MW1051
0035036553999991962010816004+51933-001250SAO  +0133EGUA V0201801N008210045019N0080001N9+00851+00581999999ADDGF108991999999999999999999MW1051
0035036553999991962010817004+51933-001250SAO  +0133EGUA V0201801N007210033019N0096001N9+00851+00521999999ADDGF108991999999999999999999MW1051
0066036553999991962010818004+51933-001250SAO  +0133EGUA V0201801N008210033019N0128001N9+00911+00581100911ADDGA1081+003309079GF108991999999999999999999MA1999999099151MW1001
0035036553999991962010819004+51933-001250SAO  +0133EGUA V0201801N009810033019N0128001N9+00911+00521999999ADDGF108991999999999999999999MW1611
0041036553999991962010820004+51933-001250SAO  +0133EGUA V0201801N009310033019N0096001N9+00851+00581999999ADDGF108991999999999999999999MW1511MW2611
0066036553999991962010821004+51933-001250SAO  +0133EGUA V0201801N009310033019N0128001N9+00801+00521100341ADDGA1081+003309079GF108991999999999999999999MA1999999098611MW1511
0035036553999991962010822004+51933-001250SAO  +0133EGUA V0201801N010810033019N0128001N9+00851+00521999999ADDGF108991999999999999999999MW1511
0035036553999991962010823004+51933-001250SAO  +0133EGUA V0202301N007210033019N0128001N9+00411+00191999999ADDGF108991999999999999999999MW1801
0082036553999991962010900004+51933-001250SAO  +0133EGUA V0202001N006710060019N0176001N9+00461+00191100201ADDGA1061+006009059GA2051+015009059GF108991999999999999999999MA1999999098481MW1001
0035036553999991962010901004+51933-001250SAO  +0133EGUA V0202301N007210150019N0176001N9+00631+00241999999ADDGF108991999999999999999999MW1611
0035036553999991962010902004+51933-001250SAO  +0133EGUA V0202301N006212200019N0176001N9+00581+00241999999ADDGF102991999999999999999999MW1001
0082036553999991962010903004+51933-001250SAO  +0133EGUA V0202501N006712200019N0176001N9+00521+00191100341ADDGA1011+007509059GA2041+015009059GF102991999999999999999999MA1999999098611MW1001
0035036553999991962010904004+51933-001250SAO  +0133EGUA V0202301N006712200019N0176001N9+00461+00131999999ADDGF102991999999999999999999MW1001
0035036553999991962010905004+51933-001250SAO  +0133EGUA V0202301N005112200019N0176001N9+00411+00131999999ADDGF102991999999999999999999MW1001
0066036553999991962010906004+51933-001250SAO  +0133EGUA V0202301N005712200019N0176001N9+00411+00131100461ADDGA1011+015009059GF102991999999999999999999MA1999999098751MW1001
0035036553999991962010907004+51933-001250SAO  +0133EGUA V0202301N006212200019N0176001N9+00351+00191999999ADDGF102991999999999999999999MW1001
0035036553999991962010908004+51933-001250SAO  +0133EGUA V0202001N004612200019N0200001N9+00351+00021999999ADDGF102991999999999999999999MW1001
0101036553999991962010909004+51933-001250SAO  +0133EGUA V0202001N004112200019N0200001N9+00301-00041100711ADDGA1999+015009999GA2061+220009009GF107991999999999999999999MA1999999098981MW1001EQDQ01    003SCCGA1
0035036553999991962010910004+51933-001250SAO  +0133EGUA V0202001N004112200019N0176001N9+00351+00021999999ADDGF108991999999999999999999MW1001
0035036553999991962010911004+51933-001250SAO  +0133EGUA V0202001N004112200019N0160001N9+00411+00021999999ADDGF108991999999999999999999MW1001
0119036553999991962010912004+51933-001250SAO  +0133EGUA V0201801N004112200019N0160001N9+00521+00081100511ADDAA124003091GA1021+024009049GA2081+220009029GF108991999999999999999999KA1999M+00691KA2999N+00301MA1999999098781MW1001
0035036553999991962010913004+51933-001250SAO  +0133EGUA V0201801N005110480019N0176001N9+00581+00081999999ADDGF108991999999999999999999MW1001
0035036553999991962010914004+51933-001250SAO  +0133EGUA V0202001N005112200019N0160001N9+00581+00191999999ADDGF108991999999999999999999MW1001
0098036553999991962010915004+51933-001250SAO  +0133EGUA V0202001N005712200019N0160001N9+00691+00191100141ADDGA1011+012009059GA2021+048009049GA3081+220009029GF108991999999999999999999MA1999999098411MW1001
0035036553999991962010916004+51933-001250SAO  +0133EGUA V0201801N005110480019N0160001N9+00631+00191999999ADDGF108991999999999999999999MW1001
0035036553999991962010917004+51933-001250SAO  +0133EGUA V0201801N004610480019N0096001N9+00581+00191999999ADDGF107991999999999999999999MW1051
0082036553999991962010918004+51933-001250SAO  +0133EGUA V0201801N005112200019N0128001N9+00521+00191099931ADDGA1031+048009049GA2041+220009029GF107991999999999999999999MA1999999098211MW1001
0035036553999991962010919004+51933-001250SAO  +0133EGUA V0201801N004612200019N0176001N9+00461+00191999999ADDGF107991999999999999999999MW1001
0035036553999991962010920004+51933-001250SAO  +0133EGUA V0201801N004612200019N0144001N9+00461+00241999999ADDGF108991999999999999999999MW1001
0098036553999991962010921004+51933-001250SAO  +0133EGUA V0201601N003612200019N0096001N9+00521+00301099561ADDGA1021+006009059GA2021+024009039GA3081+220009029GF108991999999999999999999MA1999999097831MW1051
0041036553999991962010922004+51933-001250SAO  +0133EGUA V0201401N002610021019N0080001N9+00521+00301999999ADDGF108991999999999999999999MW1051MW2611
0035036553999991962010923004+51933-001250SAO  +0133EGUA V0201101N002110021019N0096001N9+00521+00351999999ADDGF108991999999999999999999MW1611
0072036553999991962011000004+51933-001250SAO  +0133EGUA V0200901N002610015019N0036001N9+00521+00351099191ADDGA1081+001509079GF108991999999999999999999MA1999999097461MW1111MW2631
0041036553999991962011001004+51933-001250SAO  +0133EGUA V0200701N002110015019N0036001N9+00581+00411999999ADDGF108991999999999999999999MW1111MW2631
0041036553999991962011002004+51933-001250SAO  +0133EGUA V0203601N003110015019N0036001N9+00521+00411999999ADDGF108991999999999999999999MW1111MW2631
0088036553999991962011003004+51933-001250SAO  +0133EGUA V0203201N005110015019N0040001N9+00461+00301098991ADDGA1061+001509079GA2041+006009049GF108991999999999999999999MA1999999097291MW1111MW2611
0035036553999991962011004004+51933-001250SAO  +0133EGUA V0203201N004610024019N0144001N9+00461+00241999999ADDGF107991999999999999999999MW1001
0035036553999991962011005004+51933-001250SAO  +0133EGUA V0203201N003110090019N0144001N9+00461+00241999999ADDGF107991999999999999999999MW1001
0082036553999991962011006004+51933-001250SAO  +0133EGUA V0202901N003612200019N0096001N9+00411+00241099191ADDGA1011+002409079GA2041+009009059GF102991999999999999999999MA1999999097461MW1051
0035036553999991962011007004+51933-001250SAO  +0133EGUA V0202701N004612200019N0176001N9+00461+00191999999ADDGF102991999999999999999999MW1001
0035036553999991962011008004+51933-001250SAO  +0133EGUA V0202701N005112200019N0200001N9+00351+00081999999ADDGF102991999999999999999999MW1001
0066036553999991962011009004+51933-001250SAO  +0133EGUA V0202701N006212200019N0200001N9+00351+00021099591ADDGA1011+009009059GF102991999999999999999999MA1999999097871MW1001
0035036553999991962011010004+51933-001250SAO  +0133EGUA V0202301N003612200019N0200001N9+00411+00081999999ADDGF102991999999999999999999MW1001
0035036553999991962011011004+51933-001250SAO  +0133EGUA V0202301N005112200019N0176001N9+00461+00131999999ADDGF102991999999999999999999MW1001
0138036553999991962011012004+51933-001250SAO  +0133EGUA V0202301N005712200019N0144001N9+00581+00191099761ADDAA124012091GA1999+004509999GA2021+220009009GF102991999999999999999999KA1999M+01081KA2999N+00351MA1999999098041MW1001EQDQ01    003SCCGA1
0035036553999991962011013004+51933-001250SAO  +0133EGUA V0202301N006210240019N0144001N9+00581+00241999999ADDGF108991999999999999999999MW1001
0035036553999991962011014004+51933-001250SAO  +0133EGUA V0202001N004610240019N0176001N9+00631+00301999999ADDGF108991999999999999999999MW1001
0082036553999991962011015004+51933-001250SAO  +0133EGUA V0201801N005110270019N0144001N9+00631+00301099631ADDGA1021+004809059GA2081+027009049GF108991999999999999999999MA1999999097901MW1001
0035036553999991962011016004+51933-001250SAO  +0133EGUA V0201801N005110180019N0128001N9+00631+00351999999ADDGF108991999999999999999999MW1611
0035036553999991962011017004+51933-001250SAO  +0133EGUA V0201801N005110090019N0128001N9+00631+00351999999ADDGF108991999999999999999999MW1611
0098036553999991962011018004+51933-001250SAO  +0133EGUA V0201801N007210105019N0096001N9+00691+00411099151ADDGA1021+003909059GA2061+010509059GA3081+021009049GF108991999999999999999999MA1999999097431MW1611
0035036553999991962011019004+51933-001250SAO  +0133EGUA V0201801N007710024019N0096001N9+00741+00521999999ADDGF108991999999999999999999MW1611
0035036553999991962011020004+51933-001250SAO  +0133EGUA V0201801N008710021019N0128001N9+00801+00581999999ADDGF108991999999999999999999MW1611
0072036553999991962011021004+51933-001250SAO  +0133EGUA V0201801N008210015019N0096001N9+00741+00581098541ADDGA1081+001509079GF108991999999999999999999MA1999999096851MW1511MW2611
0041036553999991962011022004+51933-001250SAO  +0133EGUA V0201801N008210015019N0128001N9+00851+00691999999ADDGF108991999999999999999999MW1511MW2611
0041036553999991962011023004+51933-001250SAO  +0133EGUA V0201801N008210015019N0080001N9+00961+00801999999ADDGF108991999999999999999999MW1511MW2611
0104036553999991962011100004+51933-001250SAO  +0133EGUA V0201801N008210024019N0048001N9+01071+00911097791ADDGA1021+001509079GA2061+002409079GA3081+003309079GF108991999999999999999999MA1999999096141MW1511MW2631
0035036553999991962011101004+51933-001250SAO  +0133EGUA V0202701N011310042019N0064001N9+01021+00741999999ADDGF108991999999999999999999MW1631
0035036553999991962011102004+51933-001250SAO  +0133EGUA V0202301N007210120019N0144001N9+00961+00521999999ADDGF107991999999999999999999MW1001
0066036553999991962011103004+51933-001250SAO  +0133EGUA V0202001N006212200019N0176001N9+00911+00461097601ADDGA1031+012009059GF102991999999999999999999MA1999999095941MW1001
0035036553999991962011104004+51933-001250SAO  +0133EGUA V0201801N008212200019N0144001N9+00911+00521999999ADDGF102991999999999999999999MW1001
0035036553999991962011105004+51933-001250SAO  +0133EGUA V0202001N010312200019N0144001N9+00961+00351999999ADDGF102991999999999999999999MW1001
0066036553999991962011106004+51933-001250SAO  +0133EGUA V0202001N010312200019N0144001N9+00911+00351097261ADDGA1031+009609059GF102991999999999999999999MA1999999095601MW1001
0035036553999991962011107004+51933-001250SAO  +0133EGUA V0202001N010310066019N0144001N9+00801+00351999999ADDGF108991999999999999999999MW1811
0035036553999991962011108004+51933-001250SAO  +0133EGUA V0202001N013410048019N0064001N9+00801+00461999999ADDGF108991999999999999999999MW1811
0082036553999991962011109004+51933-001250SAO  +0133EGUA V0202301N013410033019N0128001N9+00801+00521096871ADDGA1061+003309059GA2051+006009059GF108991999999999999999999MA1999999095261MW1801
0035036553999991962011110004+51933-001250SAO  +0133EGUA V0202501N015410060019N0128001N9+00801+00411999999ADDGF108991999999999999999999MW1801
0035036553999991962011111004+51933-001250SAO  +0133EGUA V0202501N011310060019N0128001N9+00801+00351999999ADDGF108991999999999999999999MW1801
0135036553999991962011112004+51933-001250SAO  +0133EGUA V0202701N018510060019N0128001N9+00851+00301097691ADDAA124005091GA1051+006009059GA2021+015009059GA3021+220009009GF107991999999999999999999KA1999M+01081KA2999N+00351MA1999999096041MW1801
0035036553999991962011113004+51933-001250SAO  +0133EGUA V0202701N014410075019N0144001N9+00911+00191999999ADDGF107991999999999999999999MW1001
0035036553999991962011114004+51933-001250SAO  +0133EGUA V0202701N015912200019N0144001N9+00851+00081999999ADDGF107991999999999999999999MW1001
0098036553999991962011115004+51933-001250SAO  +0133EGUA V0202701N015412200019N0144001N9+00801-00041098541ADDGA1011+004809059GA2021+011409059GA3041+220009019GF107991999999999999999999MA1999999096881MW1001
0035036553999991962011116004+51933-001250SAO  +0133EGUA V0202701N011312200019N0144001N9+00741-00091999999ADDGF107991999999999999999999MW1001
0035036553999991962011117004+51933-001250SAO  +0133EGUA V0202701N008212200019N0176001N9+00631-00091999999ADDGF107991999999999999999999MW1001
0082036553999991962011118004+51933-001250SAO  +0133EGUA V0202501N006212200019N0176001N9+00631+00021099121ADDGA1011+009609059GA2071+220009029GF107991999999999999999999MA1999999097431MW1001
0035036553999991962011119004+51933-001250SAO  +0133EGUA V0202501N007712200019N0176001N9+00521+00021999999ADDGF107991999999999999999999MW1001
0035036553999991962011120004+51933-001250SAO  +0133EGUA V0202501N008712200019N0176001N9+00521+00081999999ADDGF102991999999999999999999MW1001
0066036553999991962011121004+51933-001250SAO  +0133EGUA V0202501N005712200019N0176001N9+00461+00021099531ADDGA1001+999999999GF100991999999999999999999MA1999999097801MW1001
0035036553999991962011122004+51933-001250SAO  +0133EGUA V0202001N004112200019N0176001N9+00461+00021999999ADDGF100991999999999999999999MW1001
0035036553999991962011123004+51933-001250SAO  +0133EGUA V0202001N005112200019N0176001N9+00411+00021999999ADDGF100991999999999999999999MW1001
0066036553999991962011200004+51933-001250SAO  +0133EGUA V0202001N003612200019N0176001N9+00351+00081099591ADDGA1001+999999999GF100991999999999999999999MA1999999097871MW1001
0035036553999991962011201004+51933-001250SAO  +0133EGUA V0201801N003112200019N0176001N9+00301+00021999999ADDGF100991999999999999999999MW1001
0035036553999991962011202004+51933-001250SAO  +0133EGUA V0201801N005712200019N0176001N9+00351+00081999999ADDGF102991999999999999999999MW1001
0066036553999991962011203004+51933-001250SAO  +0133EGUA V0201801N007710048019N0176001N9+00521+00191098851ADDGA1081+004809059GF108991999999999999999999MA1999999097161MW1001
0035036553999991962011204004+51933-001250SAO  +0133EGUA V0201801N008210024019N0096001N9+00691+00461999999ADDGF108991999999999999999999MW1611
0035036553999991962011205004+51933-001250SAO  +0133EGUA V0201801N009310030019N0096001N9+00691+00411999999ADDGF108991999999999999999999MW1611
0066036553999991962011206004+51933-001250SAO  +0133EGUA V0202001N007710042019N0128001N9+00741+00461098042ADDGA1081+004209059GF108991999999999999999999MA1999999096342MW1611
0035036553999991962011207004+51933-001250SAO  +0133EGUA V0202301N006710135019N0144001N9+00741+00351999999ADDGF107991999999999999999999MW1001
0035036553999991962011208004+51933-001250SAO  +0133EGUA V0202001N007212200019N0128001N9+00691+00241999999ADDGF102991999999999999999999MW1001
0082036553999991962011209004+51933-001250SAO  +0133EGUA V0202501N011810135019N0128001N9+00631+00191098061ADDGA1021+006009059GA2051+013509059GF107991999999999999999999MA1999999096381MW1001
0035036553999991962011210004+51933-001250SAO  +0133EGUA V0202501N010810084019N0128001N9+00691+00241999999ADDGF107991999999999999999999MW1001
0035036553999991962011211004+51933-001250SAO  +0133EGUA V0202501N010312200019N0128001N9+00801+00241999999ADDGF102991999999999999999999MW1001
0119036553999991962011212004+51933-001250SAO  +0133EGUA V0202501N011812200019N0200001N9+00801+00081098101ADDAA124007091GA1021+011409059GA2021+021009039GF102991999999999999999999KA1999M+00801KA2999N+00301MA1999999096411MW1001
0035036553999991962011213004+51933-001250SAO  +0133EGUA V0202501N009312200019N0200001N9+00801+00191999999ADDGF102991999999999999999999MW1001
0035036553999991962011214004+51933-001250SAO  +0133EGUA V0202501N008212200019N0200001N9+00801+00081999999ADDGF102991999999999999999999MW1001
0066036553999991962011215004+51933-001250SAO  +0133EGUA V0202501N012312200019N0240001N9+00801-00091098101ADDGA1031+009009089GF102991999999999999999999MA1999999096411MW1001
0035036553999991962011216004+51933-001250SAO  +0133EGUA V0202701N010312200019N0240001N9+00691-00151999999ADDGF102991999999999999999999MW1001
0035036553999991962011217004+51933-001250SAO  +0133EGUA V0202701N010812200019N0240001N9+00631-00201999999ADDGF102991999999999999999999MW1001
0066036553999991962011218004+51933-001250SAO  +0133EGUA V0202701N010312200019N0176001N9+00581-00151098341ADDGA1021+009609059GF102991999999999999999999MA1999999096651MW1001
0035036553999991962011219004+51933-001250SAO  +0133EGUA V0202701N008210084019N0176001N9+00581-00151999999ADDGF108991999999999999999999MW1001
0035036553999991962011220004+51933-001250SAO  +0133EGUA V0202701N009312200019N0176001N9+00461-00091999999ADDGF102991999999999999999999MW1001
0066036553999991962011221004+51933-001250SAO  +0133EGUA V0202701N007212200019N0176001N9+00411-00151098711ADDGA1021+013509059GF102991999999999999999999MA1999999097021MW1001
0035036553999991962011222004+51933-001250SAO  +0133EGUA V0202501N005112200019N0176001N9+00411-00091999999ADDGF100991999999999999999999MW1001
0035036553999991962011223004+51933-001250SAO  +0133EGUA V0202501N006212200019N0176001N9+00301-00151999999ADDGF100991999999999999999999MW1001
0066036553999991962011300004+51933-001250SAO  +0133EGUA V0202501N006712200019N0176001N9+00351-00151098921ADDGA1001+999999999GF100991999999999999999999MA1999999097221MW1001
0035036553999991962011301004+51933-001250SAO  +0133EGUA V0202701N005112200019N0176001N9+00301-00151999999ADDGF100991999999999999999999MW1001
0035036553999991962011302004+51933-001250SAO  +0133EGUA V0202501N005712200019N0176001N9+00301-00151999999ADDGF100991999999999999999999MW1001
0066036553999991962011303004+51933-001250SAO  +0133EGUA V0202501N007712200019N0176001N9+00351-00151099021ADDGA1001+999999999GF100991999999999999999999MA1999999097321MW1001
0035036553999991962011304004+51933-001250SAO  +0133EGUA V0202501N005112200019N0176001N9+00301-00151999999ADDGF100991999999999999999999MW1001
0035036553999991962011305004+51933-001250SAO  +0133EGUA V0202001N003112200019N0176001N9+00301-00151999999ADDGF100991999999999999999999MW1001
0085036553999991962011306004+51933-001250SAO  +0133EGUA V0202301N005112200019N0176001N9+00301-00041099021ADDGA1999+012009999GF100991999999999999999999MA1999999097321MW1001EQDQ01    003SCCGA1
0035036553999991962011307004+51933-001250SAO  +0133EGUA V0202501N005112200019N0176001N9+00301-00041999999ADDGF102991999999999999999999MW1001
0035036553999991962011308004+51933-001250SAO  +0133EGUA V0202501N006212200019N0176001N9+00241-00041999999ADDGF102991999999999999999999MW1001
0082036553999991962011309004+51933-001250SAO  +0133EGUA V0202501N005112200019N0176001N9+00301-00041099191ADDGA1021+007509059GA2011+018009059GF102991999999999999999999MA1999999097461MW1001
0035036553999991962011310004+51933-001250SAO  +0133EGUA V0202501N004112200019N0176001N9+00351-00041999999ADDGF102991999999999999999999MW1001
0035036553999991962011311004+51933-001250SAO  +0133EGUA V0202701N006212200019N0200001N9+00461-00041999999ADDGF102991999999999999999999MW1001
0103036553999991962011312004+51933-001250SAO  +0133EGUA V0202501N007712200019N0224001N9+00521-00091099291ADDAA124000091GA1021+007509059GF102991999999999999999999KA1999M+00631KA2999N+00241MA1999999097561MW1001
0035036553999991962011313004+51933-001250SAO  +0133EGUA V0202701N007212200019N0200001N9+00581-00151999999ADDGF102991999999999999999999MW1001
0035036553999991962011314004+51933-001250SAO  +0133EGUA V0202701N007212200019N0200001N9+00631-00151999999ADDGF102991999999999999999999MW1001
0082036553999991962011315004+51933-001250SAO  +0133EGUA V0202701N006212200019N0200001N9+00581-00151099461ADDGA1021+007509089GA2021+021009039GF102991999999999999999999MA1999999097731MW1001
0035036553999991962011316004+51933-001250SAO  +0133EGUA V0202701N006212200019N0200001N9+00461-00151999999ADDGF102991999999999999999999MW1001
0035036553999991962011317004+51933-001250SAO  +0133EGUA V0202701N006712200019N0200001N9+00411-00151999999ADDGF102991999999999999999999MW1001
0066036553999991962011318004+51933-001250SAO  +0133EGUA V0202501N005110075019N0176001N9+00351-00151099691ADDGA1051+007509059GF107991999999999999999999MA1999999097971MW1001
0035036553999991962011319004+51933-001250SAO  +0133EGUA V0202501N004110084019N0176001N9+00351-00151999999ADDGF107991999999999999999999MW1001
0035036553999991962011320004+51933-001250SAO  +0133EGUA V0202501N006212200019N0176001N9+00351-00091999999ADDGF102991999999999999999999MW1001
0082036553999991962011321004+51933-001250SAO  +0133EGUA V0202501N009312200019N0176001N9+00411-00041099801ADDGA1011+007509059GA2021+024009039GF102991999999999999999999MA1999999098071MW1001
0035036553999991962011322004+51933-001250SAO  +0133EGUA V0202301N007210240019N0176001N9+00351-00041999999ADDGF107991999999999999999999MW1001
0035036553999991962011323004+51933-001250SAO  +0133EGUA V0202501N006210240019N0176001N9+00351-00041999999ADDGF107991999999999999999999MW1001
0066036553999991962011400004+51933-001250SAO  +0133EGUA V0202501N007210240019N0176001N9+00411-00041099901ADDGA1081+024009039GF108991999999999999999999MA1999999098171MW1001
0035036553999991962011401004+51933-001250SAO  +0133EGUA V0202501N007210240019N0176001N9+00461-00041999999ADDGF107991999999999999999999MW1001
0035036553999991962011402004+51933-001250SAO  +0133EGUA V0202501N005712200019N0176001N9+00411-00091999999ADDGF102991999999999999999999MW1001
0066036553999991962011403004+51933-001250SAO  +0133EGUA V0202701N007712200019N0176001N9+00461-00091100071ADDGA1001+999999999GF100991999999999999999999MA1999999098341MW1001
0035036553999991962011404004+51933-001250SAO  +0133EGUA V0202701N008212200019N0176001N9+00411-00091999999ADDGF100991999999999999999999MW1001
0035036553999991962011405004+51933-001250SAO  +0133EGUA V0202701N007712200019N0176001N9+00351-00091999999ADDGF102991999999999999999999MW1001
0066036553999991962011406004+51933-001250SAO  +0133EGUA V0202701N007212200019N0176001N9+00351-00091100241ADDGA1011+220009009GF102991999999999999999999MA1999999098511MW1001
0035036553999991962011407004+51933-001250SAO  +0133EGUA V0202701N006212200019N0176001N9+00301-00091999999ADDGF102991999999999999999999MW1001
0035036553999991962011408004+51933-001250SAO  +0133EGUA V0202501N006712200019N0176001N9+00241-00151999999ADDGF102991999999999999999999MW1001
0082036553999991962011409004+51933-001250SAO  +0133EGUA V0202701N005112200019N0240001N9+00241-00151100471ADDGA1021+018009059GA2021+220009009GF102991999999999999999999MA1999999098751MW1001
0035036553999991962011410004+51933-001250SAO  +0133EGUA V0202701N005712200019N0240001N9+00351-00091999999ADDGF102991999999999999999999MW1001
0035036553999991962011411004+51933-001250SAO  +0133EGUA V0202701N007212200019N0240001N9+00461-00041999999ADDGF100991999999999999999999MW1001
0122036553999991962011412004+51933-001250SAO  +0133EGUA V0202501N006212200019N0240001N9+00581-00041100711ADDAA124000091GA1999+027009999GF100991999999999999999999KA1999M+00631KA2999N+00131MA1999999098981MW1001EQDQ01    003SCCGA1
0035036553999991962011413004+51933-001250SAO  +0133EGUA V0202701N007212200019N0240001N9+00631-00041999999ADDGF102991999999999999999999MW1001
0035036553999991962011414004+51933-001250SAO  +0133EGUA V0202701N005712200019N0240001N9+00631-00041999999ADDGF102991999999999999999999MW1001
0066036553999991962011415004+51933-001250SAO  +0133EGUA V0202701N006712200019N0240001N9+00581-00091100711ADDGA1011+007509089GF102991999999999999999999MA1999999098981MW1001
0035036553999991962011416004+51933-001250SAO  +0133EGUA V0202701N005112200019N0240001N9+00461-00091999999ADDGF102991999999999999999999MW1001
0035036553999991962011417004+51933-001250SAO  +0133EGUA V0202701N003112200019N0096001N9+00301-00151999999ADDGF100991999999999999999999MW1051
0066036553999991962011418004+51933-001250SAO  +0133EGUA V0202701N003612200019N0096001N9+00241-00151100951ADDGA1001+999999999GF100991999999999999999999MA1999999099191MW1051
0035036553999991962011419004+51933-001250SAO  +0133EGUA V0202501N003612200019N0096001N9+00301-00151999999ADDGF100991999999999999999999MW1051
0035036553999991962011420004+51933-001250SAO  +0133EGUA V0202501N003112200019N0128001N9+00191-00151999999ADDGF100991999999999999999999MW1001
0066036553999991962011421004+51933-001250SAO  +0133EGUA V0202501N003612200019N0128001N9+00241-00091101151ADDGA1001+999999999GF100991999999999999999999MA1999999099391MW1001
0035036553999991962011422004+51933-001250SAO  +0133EGUA V0202501N004112200019N0224001N9+00241-00151999999ADDGF100991999999999999999999MW1001
0035036553999991962011423004+51933-001250SAO  +0133EGUA V0202501N003112200019N0224001N9+00191-00151999999ADDGF100991999999999999999999MW1001
0066036553999991962011500004+51933-001250SAO  +0133EGUA V0202001N001512200019N0224001N9+00131-00201101221ADDGA1001+999999999GF100991999999999999999999MA1999999099461MW1001
0035036553999991962011501004+51933-001250SAO  +0133EGUA V0202501N002612200019N0176001N9+00081-00201999999ADDGF102991999999999999999999MW1001
0035036553999991962011502004+51933-001250SAO  +0133EGUA V0202301N003612200019N0112001N9+00131-00091999999ADDGF102991999999999999999999MW1001
0072036553999991962011503004+51933-001250SAO  +0133EGUA V0202301N003112200019N0048001N9+00081-00151101351ADDGA1021+220009029GF102991999999999999999999MA1999999099591MW1051MW2111
0035036553999991962011504004+51933-001250SAO  +0133EGUA V0201801N003112200019N0048001N9+00081-00091999999ADDGF102991999999999999999999MW1051
0035036553999991962011505004+51933-001250SAO  +0133EGUA V0202001N003612200019N0048001N9+00081-00151999999ADDGF102991999999999999999999MW1051
0072036553999991962011506004+51933-001250SAO  +0133EGUA V0201801N001012200019N0040001N9-00041-00201101351ADDGA1011+220009029GF102991999999999999999999MA1999999099561MW1051MW2111
0035036553999991962011507004+51933-001250SAO  +0133EGUA V0201801N001012200019N0096001N9+00021-00151999999ADDGF102991999999999999999999MW1051
0035036553999991962011508004+51933-001250SAO  +0133EGUA V0201801N002112200019N0128001N9+00021-00151999999ADDGF107991999999999999999999MW1001
0082036553999991962011509004+51933-001250SAO  +0133EGUA V0202001N004110210019N0080001N9+00191-00041101321ADDGA1051+021009049GA2061+220009029GF108991999999999999999999MA1999999099561MW1051
0035036553999991962011510004+51933-001250SAO  +0133EGUA V0201801N004610240019N0048001N9+00191-00041999999ADDGF108991999999999999999999MW1051
0035036553999991962011511004+51933-001250SAO  +0133EGUA V0201801N004610240019N0048001N9+00351+00081999999ADDGF108991999999999999999999MW1051
0170036553999991962011512004+51933-001250SAO  +0133EGUA V0201801N005110300019N0080001N9+00461+00191101121ADDAA124999929GA1999+003009999GA2011+012009059GA3021+021009039GA4041+030009049GF108991999999999999999999KA1999M+00961KA2999N-00041MA1999999099361MW1051EQDQ01    003SCCGA1
0035036553999991962011513004+51933-001250SAO  +0133EGUA V0201801N005710135019N0080001N9+00581+00241999999ADDGF108991999999999999999999MW1051
0035036553999991962011514004+51933-001250SAO  +0133EGUA V0201801N007210045019N0160001N9+00691+00301999999ADDGF108991999999999999999999MW1001
0104036553999991962011515004+51933-001250SAO  +0133EGUA V0201801N007710048019N0128001N9+00961+00411100671ADDGA1021+003309059GA2051+004809059GA3031+011409059GF108991999999999999999999MA1999999098951MW1511MW2611
0035036553999991962011516004+51933-001250SAO  +0133EGUA V0201801N007710036019N0144001N9+00741+00411999999ADDGF108991999999999999999999MW1511
0035036553999991962011517004+51933-001250SAO  +0133EGUA V0201801N007210045019N0096001N9+00741+00411999999ADDGF108991999999999999999999MW1511
0072036553999991962011518004+51933-001250SAO  +0133EGUA V0201801N006710039019N0096001N9+00801+00461100341ADDGA1081+003909059GF108991999999999999999999MA1999999098681MW1051MW2611
0035036553999991962011519004+51933-001250SAO  +0133EGUA V0201801N008710042019N0128001N9+00851+00461999999ADDGF108991999999999999999999MW1611
0035036553999991962011520004+51933-001250SAO  +0133EGUA V0201801N007710048019N0144001N9+00911+00461999999ADDGF108991999999999999999999MW1001
0066036553999991962011521004+51933-001250SAO  +0133EGUA V0201801N008710048019N0176001N9+00911+00461100031ADDGA1081+004809059GF108991999999999999999999MA1999999098311MW1001
0035036553999991962011522004+51933-001250SAO  +0133EGUA V0201801N011310045019N0176001N9+00911+00521999999ADDGF108991999999999999999999MW1001
0035036553999991962011523004+51933-001250SAO  +0133EGUA V0201801N013410039019N0144001N9+00911+00521999999ADDGF108991999999999999999999MW1511
0066036553999991962011600004+51933-001250SAO  +0133EGUA V0201801N013410042019N0144001N9+00911+00521099691ADDGA1081+004209059GF108991999999999999999999MA1999999097971MW1611
0035036553999991962011601004+51933-001250SAO  +0133EGUA V0201801N011810042019N0144001N9+00911+00581999999ADDGF108991999999999999999999MW1611
0035036553999991962011602004+51933-001250SAO  +0133EGUA V0201801N011810042019N0144001N9+00911+00631999999ADDGF108991999999999999999999MW1611
0066036553999991962011603004+51933-001250SAO  +0133EGUA V0201801N012910048019N0144001N9+00961+00631099321ADDGA1081+004809059GF108991999999999999999999MA1999999097631MW1611
0035036553999991962011604004+51933-001250SAO  +0133EGUA V0202301N007710036019N0096001N9+00631+00351999999ADDGF108991999999999999999999MW1611
0035036553999991962011605004+51933-001250SAO  +0133EGUA V0202301N006210090019N0176001N9+00691+00521999999ADDGF108991999999999999999999MW1611
0098036553999991962011606004+51933-001250SAO  +0133EGUA V0202301N004110180019N0176001N9+00691+00521099701ADDGA1021+003009059GA2021+009009059GA3061+018009059GF108991999999999999999999MA1999999098001MW1611
0035036553999991962011607004+51933-001250SAO  +0133EGUA V0202301N005110180019N0176001N9+00631+00411999999ADDGF108991999999999999999999MW1001
0035036553999991962011608004+51933-001250SAO  +0133EGUA V0202001N004110150019N0176001N9+00631+00411999999ADDGF108991999999999999999999MW1001
0117036553999991962011609004+51933-001250SAO  +0133EGUA V0202001N004110300019N0200001N9+00631+00351099971ADDGA1999+003609999GA2021+015009059GA3071+030009039GF107991999999999999999999MA1999999098271MW1001EQDQ01    003SCCGA1
0035036553999991962011610004+51933-001250SAO  +0133EGUA V0202001N004112200019N0200001N9+00631+00351999999ADDGF107991999999999999999999MW1001
0035036553999991962011611004+51933-001250SAO  +0133EGUA V0202001N005112200019N0240001N9+00691+00351999999ADDGF107991999999999999999999MW1001
0103036553999991962011612004+51933-001250SAO  +0133EGUA V0202301N006712200019N0240001N9+00741+00301100141ADDAA124007091GA1061+220009029GF107991999999999999999999KA1999M+00961KA2999N+00631MA1999999098441MW1001
0035036553999991962011613004+51933-001250SAO  +0133EGUA V0202001N007212200019N0240001N9+00741+00241999999ADDGF107991999999999999999999MW1001
0035036553999991962011614004+51933-001250SAO  +0133EGUA V0202001N006212200019N0240001N9+00801+00241999999ADDGF102991999999999999999999MW1001
0101036553999991962011615004+51933-001250SAO  +0133EGUA V0202001N006212200019N0240001N9+00851+00241100021ADDGA1999+015009999GA2021+220009029GF102991999999999999999999MA1999999098341MW1001EQDQ01    003SCCGA1
0035036553999991962011616004+51933-001250SAO  +0133EGUA V0202001N006212200019N0240001N9+00801+00191999999ADDGF102991999999999999999999MW1001
0035036553999991962011617004+51933-001250SAO  +0133EGUA V0202001N004612200019N0176001N9+00691+00191999999ADDGF107991999999999999999999MW1001
0098036553999991962011618004+51933-001250SAO  +0133EGUA V0202001N005712200019N0176001N9+00691+00191100031ADDGA1021+009009059GA2021+030009039GA3031+220009029GF102991999999999999999999MA1999999098311MW1001
0035036553999991962011619004+51933-001250SAO  +0133EGUA V0202001N006712200019N0176001N9+00631+00241999999ADDGF102991999999999999999999MW1001
0035036553999991962011620004+51933-001250SAO  +0133EGUA V0202001N005712200019N0144001N9+00631+00301999999ADDGF107991999999999999999999MW1001
0082036553999991962011621004+51933-001250SAO  +0133EGUA V0202001N007710066019N0128001N9+00631+00351100031ADDGA1051+006609059GA2021+220009029GF107991999999999999999999MA1999999098311MW1611
0035036553999991962011622004+51933-001250SAO  +0133EGUA V0202001N005110066019N0128001N9+00631+00351999999ADDGF107991999999999999999999MW1801
0035036553999991962011623004+51933-001250SAO  +0133EGUA V0202001N005712200019N0144001N9+00631+00351999999ADDGF102991999999999999999999MW1001
0082036553999991962011700004+51933-001250SAO  +0133EGUA V0202001N005712200019N0176001N9+00631+00351100001ADDGA1011+007509059GA2021+220009029GF102991999999999999999999MA1999999098271MW1001
0035036553999991962011701004+51933-001250SAO  +0133EGUA V0202001N006212200019N0176001N9+00691+00351999999ADDGF102991999999999999999999MW1001
0035036553999991962011702004+51933-001250SAO  +0133EGUA V0202001N006710135019N0176001N9+00691+00351999999ADDGF107991999999999999999999MW1001
0098036553999991962011703004+51933-001250SAO  +0133EGUA V0202001N007212200019N0176001N9+00741+00411099861ADDGA1011+007509089GA2031+013509059GA3081+220009009GF108991999999999999999999MA1999999098171MW1001
0035036553999991962011704004+51933-001250SAO  +0133EGUA V0202001N006712200019N0200001N9+00741+00411999999ADDGF102991999999999999999999MW1001
0035036553999991962011705004+51933-001250SAO  +0133EGUA V0202001N009810114019N0200001N9+00801+00411999999ADDGF107991999999999999999999MW1801
0082036553999991962011706004+51933-001250SAO  +0133EGUA V0202001N007712200019N0240001N9+00801+00461099761ADDGA1011+008409089GA2081+220009009GF108991999999999999999999MA1999999098071MW1001
0035036553999991962011707004+51933-001250SAO  +0133EGUA V0202001N007212200019N0240001N9+00801+00461999999ADDGF102991999999999999999999MW1001
0035036553999991962011708004+51933-001250SAO  +0133EGUA V0202001N006210075019N0176001N9+00851+00461999999ADDGF108991999999999999999999MW1611
0114036553999991962011709004+51933-001250SAO  +0133EGUA V0202001N008710057019N0176001N9+00851+00461099761ADDGA1021+004209079GA2051+005709089GA3021+013509059GA4011+220009009GF107991999999999999999999MA1999999098071MW1611
0035036553999991962011710004+51933-001250SAO  +0133EGUA V0202001N006710210019N0176001N9+00801+00521999999ADDGF107991999999999999999999MW1001
0035036553999991962011711004+51933-001250SAO  +0133EGUA V0202001N007710240019N0240001N9+00851+00461999999ADDGF108991999999999999999999MW1001
0119036553999991962011712004+51933-001250SAO  +0133EGUA V0202001N009310048019N0240001N9+00911+00581099891ADDAA124999929GA1051+004809059GA2031+024009039GF108991999999999999999999KA1999M+00911KA2999N+00461MA1999999098211MW1001
0035036553999991962011713004+51933-001250SAO  +0133EGUA V0202001N006210057019N0240001N9+00911+00741999999ADDGF108991999999999999999999MW1001
0035036553999991962011714004+51933-001250SAO  +0133EGUA V0202001N006210096019N0240001N9+00851+00631999999ADDGF108991999999999999999999MW1001
0114036553999991962011715004+51933-001250SAO  +0133EGUA V0202001N006210135019N0240001N9+00911+00741099921ADDGA1021+004509059GA2021+009609089GA3051+013509059GA4011+024009049GF108991999999999999999999MA1999999098211MW1001
0035036553999991962011716004+51933-001250SAO  +0133EGUA V0202001N005112200019N0200001N9+00851+00691999999ADDGF107991999999999999999999MW1001
0035036553999991962011717004+51933-001250SAO  +0133EGUA V0201801N005110120019N0176001N9+00741+00631999999ADDGF107991999999999999999999MW1001
0082036553999991962011718004+51933-001250SAO  +0133EGUA V0201801N004610096019N0176001N9+00741+00631099961ADDGA1021+004509089GA2071+009609059GF107991999999999999999999MA1999999098271MW1001
0035036553999991962011719004+51933-001250SAO  +0133EGUA V0201801N004612200019N0176001N9+00631+00521999999ADDGF107991999999999999999999MW1001
0035036553999991962011720004+51933-001250SAO  +0133EGUA V0201801N005110096019N0176001N9+00631+00521999999ADDGF107991999999999999999999MW1001
0098036553999991962011721004+51933-001250SAO  +0133EGUA V0202001N002612200019N0176001N9+00631+00461100061ADDGA1021+010509059GA2011+024009039GA3021+220009009GF102991999999999999999999MA1999999098371MW1001
0035036553999991962011722004+51933-001250SAO  +0133EGUA V0201801N002110066019N0176001N9+00581+00461999999ADDGF107991999999999999999999MW1001
0035036553999991962011723004+51933-001250SAO  +0133EGUA V0202001N002612200019N0176001N9+00521+00351999999ADDGF102991999999999999999999MW1001
0066036553999991962011800004+51933-001250SAO  +0133EGUA V0202001N003612200019N0128001N9+00461+00301100231ADDGA1011+007509059GF102991999999999999999999MA1999999098511MW1001
0035036553999991962011801004+51933-001250SAO  +0133EGUA V0202001N004612200019N0176001N9+00461+00351999999ADDGF102991999999999999999999MW1001
0035036553999991962011802004+51933-001250SAO  +0133EGUA V0202301N003112200019N0176001N9+00461+00351999999ADDGF102991999999999999999999MW1001
0082036553999991962011803004+51933-001250SAO  +0133EGUA V0202301N004112200019N0176001N9+00461+00241100331ADDGA1011+009009089GA2021+015009059GF102991999999999999999999MA1999999098611MW1001
0035036553999991962011804004+51933-001250SAO  +0133EGUA V0202301N004112200019N0176001N9+00411+00241999999ADDGF102991999999999999999999MW1001
0035036553999991962011805004+51933-001250SAO  +0133EGUA V0202301N003112200019N0176001N9+00351+00241999999ADDGF100991999999999999999999MW1001
0066036553999991962011806004+51933-001250SAO  +0133EGUA V0202001N003612200019N0176001N9+00301+00191100471ADDGA1001+999999999GF100991999999999999999999MA1999999098751MW1001
0035036553999991962011807004+51933-001250SAO  +0133EGUA V0202001N003112200019N0176001N9+00241+00081999999ADDGF100991999999999999999999MW1001
0035036553999991962011808004+51933-001250SAO  +0133EGUA V0202501N002612200019N0176001N9+00241+00081999999ADDGF107991999999999999999999MW1001
0066036553999991962011809004+51933-001250SAO  +0133EGUA V0202501N004612200019N0001001N9+00241+00241100951ADDGA1071+999999999GF107991999999999999999999MA1999999099191MW1451
0035036553999991962011810004+51933-001250SAO  +0133EGUA V0202301N002612200019N0080001N9+00461+00241999999ADDGF102991999999999999999999MW1051
0035036553999991962011811004+51933-001250SAO  +0133EGUA V0202301N003612200019N0128001N9+00521+00411999999ADDGF102991999999999999999999MW1001
0103036553999991962011812004+51933-001250SAO  +0133EGUA V0202501N005112200019N0144001N9+00741+00411101051ADDAA124000091GA1011+006009079GF102991999999999999999999KA1999M+00851KA2999N+00241MA1999999099291MW1001
0035036553999991962011813004+51933-001250SAO  +0133EGUA V0202701N005712200019N0176001N9+00801+00461999999ADDGF102991999999999999999999MW1001
0035036553999991962011814004+51933-001250SAO  +0133EGUA V0202501N003612200019N0176001N9+00851+00631999999ADDGF102991999999999999999999MW1001
0082036553999991962011815004+51933-001250SAO  +0133EGUA V0202701N004112200019N0176001N9+00851+00581101111ADDGA1031+006009089GA2011+220009009GF102991999999999999999999MA1999999099361MW1001
0035036553999991962011816004+51933-001250SAO  +0133EGUA V0202701N002612200019N0144001N9+00741+00301999999ADDGF102991999999999999999999MW1001
0035036553999991962011817004+51933-001250SAO  +0133EGUA V0201801N001012200019N0096001N9+00631+00301999999ADDGF102991999999999999999999MW1051
0085036553999991962011818004+51933-001250SAO  +0133EGUA V0201801N002112200019N0096001N9+00461+00131101221ADDGA1999+006009999GF100991999999999999999999MA1999999099461MW1051EQDQ01    003SCCGA1
0035036553999991962011819004+51933-001250SAO  +0133EGUA V0202001N003112200019N0080001N9+00411+00131999999ADDGF100991999999999999999999MW1051
0035036553999991962011820004+51933-001250SAO  +0133EGUA V0202001N002612200019N0080001N9+00351+00131999999ADDGF100991999999999999999999MW1051
0082036553999991962011821004+51933-001250SAO  +0133EGUA V0201801N002610450019N0080001N9+00301+00131101221ADDGA1061+045009039GA2031+220009009GF107991999999999999999999MA1999999099461MW1051
0035036553999991962011822004+51933-001250SAO  +0133EGUA V0202001N004110270019N0080001N9+00301+00131999999ADDGF107991999999999999999999MW1051
0035036553999991962011823004+51933-001250SAO  +0133EGUA V0201801N003110360019N0096001N9+00301+00131999999ADDGF108991999999999999999999MW1051
0066036553999991962011900004+51933-001250SAO  +0133EGUA V0201801N003610360019N0096001N9+00301+00131101051ADDGA1081+036009039GF108991999999999999999999MA1999999099291MW1051
0035036553999991962011901004+51933-001250SAO  +0133EGUA V0201801N004110300019N0096001N9+00411+00191999999ADDGF108991999999999999999999MW1051
0035036553999991962011902004+51933-001250SAO  +0133EGUA V0201801N005110270019N0128001N9+00461+00241999999ADDGF108991999999999999999999MW1001
0082036553999991962011903004+51933-001250SAO  +0133EGUA V0201801N006710060019N0128001N9+00631+00411100601ADDGA1061+006009059GA2081+027009049GF108991999999999999999999MA1999999098921MW1611
0035036553999991962011904004+51933-001250SAO  +0133EGUA V0201801N008710045019N0128001N9+00691+00521999999ADDGF108991999999999999999999MW1611
0035036553999991962011905004+51933-001250SAO  +0133EGUA V0202001N009310039019N0128001N9+00801+00581999999ADDGF108991999999999999999999MW1611
0082036553999991962011906004+51933-001250SAO  +0133EGUA V0202301N007210036019N0128001N9+00851+00691100371ADDGA1031+002409079GA2081+003609059GF108991999999999999999999MA1999999098651MW1611
0041036553999991962011907004+51933-001250SAO  +0133EGUA V0202301N005710015019N0048001N9+00851+00741999999ADDGF108991999999999999999999MW1511MW2611
0047036553999991962011908004+51933-001250SAO  +0133EGUA V0202701N004110015019N0026001N9+00801+00691999999ADDGF108991999999999999999999MW1051MW2511MW3611
0098036553999991962011909004+51933-001250SAO  +0133EGUA V0202301N005110030019N0144001N9+00851+00691100411ADDGA1021+001509079GA2061+003009059GA3021+024009049GF107991999999999999999999MA1999999098681MW1001
0035036553999991962011910004+51933-001250SAO  +0133EGUA V0202501N005710042019N0144001N9+00851+00691999999ADDGF108991999999999999999999MW1001
0035036553999991962011911004+51933-001250SAO  +0133EGUA V0202701N007210075019N0128001N9+00851+00521999999ADDGF108991999999999999999999MW1001
0119036553999991962011912004+51933-001250SAO  +0133EGUA V0202701N010312200019N0128001N9+00911+00411100681ADDAA124005091GA1011+003009079GA2041+007509059GF102991999999999999999999KA1999M+00911KA2999N+00241MA1999999098951MW1001
0035036553999991962011913004+51933-001250SAO  +0133EGUA V0202701N007710078019N0240001N9+00851+00241999999ADDGF107991999999999999999999MW1001
0035036553999991962011914004+51933-001250SAO  +0133EGUA V0202701N007212200019N0240001N9+00851+00191999999ADDGF102991999999999999999999MW1001
0066036553999991962011915004+51933-001250SAO  +0133EGUA V0202701N008212200019N0240001N9+00851+00301101081ADDGA1031+007209089GF102991999999999999999999MA1999999099361MW1001
0035036553999991962011916004+51933-001250SAO  +0133EGUA V0202701N005112200019N0240001N9+00741+00021999999ADDGF102991999999999999999999MW1001
0035036553999991962011917004+51933-001250SAO  +0133EGUA V0202501N004112200019N0176001N9+00631-00041999999ADDGF102991999999999999999999MW1001
0050036553999991962011918004+51933-001250SAO  +0133EGUA V0202701N005112200019N0176001N9+00581-00091101291ADDGF100991999999999999999999MA1999999099531MW1001
0035036553999991962011919004+51933-001250SAO  +0133EGUA V0202501N003112200019N0176001N9+00461-00041999999ADDGF100991999999999999999999MW1001
0035036553999991962011920004+51933-001250SAO  +0133EGUA V0202301N003612200019N0176001N9+00411-00041999999ADDGF102991999999999999999999MW1001
0066036553999991962011921004+51933-001250SAO  +0133EGUA V0202301N004112200019N0176001N9+00351-00041101561ADDGA1021+220009009GF102991999999999999999999MA1999999099801MW1001
0035036553999991962011922004+51933-001250SAO  +0133EGUA V0202001N002112200019N0144001N9+00351+00021999999ADDGF102991999999999999999999MW1001
0035036553999991962011923004+51933-001250SAO  +0133EGUA V0202001N003112200019N0128001N9+00301+00021999999ADDGF102991999999999999999999MW1001
0066036553999991962012000004+51933-001250SAO  +0133EGUA V0201801N002612200019N0128001N9+00241+00081101801ADDGA1061+010509059GF107991999999999999999999MA1999999100031MW1001
0035036553999991962012001004+51933-001250SAO  +0133EGUA V0201801N001510096019N0128001N9+00351+00081999999ADDGF108991999999999999999999MW1001
0035036553999991962012002004+51933-001250SAO  +0133EGUA V0201801N002610096019N0128001N9+00351+00081999999ADDGF108991999999999999999999MW1001
0082036553999991962012003004+51933-001250SAO  +0133EGUA V0202301N003110135019N0128001N9+00411+00131101861ADDGA1061+010509079GA2081+013509059GF108991999999999999999999MA1999999100101MW1001
0035036553999991962012004004+51933-001250SAO  +0133EGUA V0202301N003110135019N0128001N9+00521+00301999999ADDGF108991999999999999999999MW1001
0035036553999991962012005004+51933-001250SAO  +0133EGUA V0202001N004110084019N0128001N9+00581+00351999999ADDGF108991999999999999999999MW1001
0082036553999991962012006004+51933-001250SAO  +0133EGUA V0202301N004110066019N0128001N9+00581+00411101901ADDGA1061+006609059GA2071+013509059GF108991999999999999999999MA1999999100141MW1001
0035036553999991962012007004+51933-001250SAO  +0133EGUA V0201801N004110075019N0128001N9+00631+00411999999ADDGF108991999999999999999999MW1001
0035036553999991962012008004+51933-001250SAO  +0133EGUA V0201801N003110051019N0128001N9+00631+00461999999ADDGF108991999999999999999999MW1001
0098036553999991962012009004+51933-001250SAO  +0133EGUA V0201801N003110033019N0128001N9+00691+00521101851ADDGA1021+002409079GA2061+003309079GA3061+013509059GF108991999999999999999999MA1999999100101MW1611
0035036553999991962012010004+51933-001250SAO  +0133EGUA V0202001N004110024019N0128001N9+00911+00691999999ADDGF108991999999999999999999MW1001
0035036553999991962012011004+51933-001250SAO  +0133EGUA V0202001N008210045019N0176001N9+00961+00741999999ADDGF108991999999999999999999MW1001
0119036553999991962012012004+51933-001250SAO  +0133EGUA V0202301N005710030019N0144001N9+01071+00851101851ADDAA124001091GA1041+001809079GA2081+003009059GF108991999999999999999999KA1999M+01131KA2999N+00241MA1999999100101MW1001
0035036553999991962012013004+51933-001250SAO  +0133EGUA V0202301N006210021019N0176001N9+01071+00911999999ADDGF108991999999999999999999MW1001
0035036553999991962012014004+51933-001250SAO  +0133EGUA V0202301N007210021019N0200001N9+01131+00911999999ADDGF108991999999999999999999MW1001
0066036553999991962012015004+51933-001250SAO  +0133EGUA V0202301N006210027019N0036001N9+01071+00961101791ADDGA1081+002709079GF108991999999999999999999MA1999999100071MW1511
0035036553999991962012016004+51933-001250SAO  +0133EGUA V0202301N006210012019N0040001N9+01071+00961999999ADDGF108991999999999999999999MW1511
0035036553999991962012017004+51933-001250SAO  +0133EGUA V0202501N004110018019N0096001N9+01071+00911999999ADDGF108991999999999999999999MW1051
0098036553999991962012018004+51933-001250SAO  +0133EGUA V0202301N004110240019N0128001N9+01021+00851101851ADDGA1021+002409079GA2021+009009059GA3061+024009039GF107991999999999999999999MA1999999100141MW1001
0035036553999991962012019004+51933-001250SAO  +0133EGUA V0202001N004110015019N0096001N9+01021+00911999999ADDGF108991999999999999999999MW1511
0035036553999991962012020004+51933-001250SAO  +0133EGUA V0202001N004110066019N0128001N9+00961+00851999999ADDGF108991999999999999999999MW1511
0088036553999991962012021004+51933-001250SAO  +0133EGUA V0202301N003110012019N0040001N9+00961+00851101821ADDGA1031+000609079GA2081+001209079GF108991999999999999999999MA1999999100101MW1051MW2111
0035036553999991962012022004+51933-001250SAO  +0133EGUA V0202001N002610006019N0026001N9+00961+00851999999ADDGF108991999999999999999999MW1511
0041036553999991962012023004+51933-001250SAO  +0133EGUA V0202001N003610006019N0012001N9+00961+00851999999ADDGF108991999999999999999999MW1451MW2511
0082036553999991962012100004+51933-001250SAO  +0133EGUA V0201801N001510006019N0003001N9+00961+00851101651ADDGA1051+999999999GA2081+000609079GF108991999999999999999999MA1999999099931MW1451
0041036553999991962012101004+51933-001250SAO  +0133EGUA V0201801N003110003019N0005001N9+00961+00851999999ADDGF108991999999999999999999MW1451MW2511
0041036553999991962012102004+51933-001250SAO  +0133EGUA V0202001N006210021019N0080001N9+01021+00911999999ADDGF108991999999999999999999MW1051MW2511
0082036553999991962012103004+51933-001250SAO  +0133EGUA V0202301N008210024019N0128001N9+01071+00851101341ADDGA1051+002409079GA2081+003909059GF108991999999999999999999MA1999999099631MW1511
0035036553999991962012104004+51933-001250SAO  +0133EGUA V0202001N008210027019N0144001N9+01071+00801999999ADDGF108991999999999999999999MW1611
0035036553999991962012105004+51933-001250SAO  +0133EGUA V0202001N008210033019N0176001N9+01021+00741999999ADDGF108991999999999999999999MW1001
0088036553999991962012106004+51933-001250SAO  +0133EGUA V0201801N007210030019N0128001N9+00961+00801101071ADDGA1021+000909079GA2081+003009079GF108991999999999999999999MA1999999099361MW1511MW2611
0041036553999991962012107004+51933-001250SAO  +0133EGUA V0202001N007210030019N0144001N9+01021+00801999999ADDGF108991999999999999999999MW1511MW2611
0041036553999991962012108004+51933-001250SAO  +0133EGUA V0202001N008210030019N0128001N9+01021+00851999999ADDGF108991999999999999999999MW1511MW2611
0082036553999991962012109004+51933-001250SAO  +0133EGUA V0202001N008210021019N0128001N9+01071+00851100871ADDGA1071+002109079GA2081+004509059GF108991999999999999999999MA1999999099151MW1611
0041036553999991962012110004+51933-001250SAO  +0133EGUA V0201801N006710018019N0080001N9+01021+00851999999ADDGF108991999999999999999999MW1511MW2611
0035036553999991962012111004+51933-001250SAO  +0133EGUA V0202001N008210015019N0128001N9+01021+00851999999ADDGF108991999999999999999999MW1511
0125036553999991962012112004+51933-001250SAO  +0133EGUA V0202001N008210027019N0048001N9+01021+00851100461ADDAA124010091GA1061+002709079GA2081+004509059GF108991999999999999999999KA1999M+01081KA2999N+00521MA1999999098781MW1511MW2631
0041036553999991962012113004+51933-001250SAO  +0133EGUA V0202301N005710042019N0064001N9+01021+00801999999ADDGF108991999999999999999999MW1051MW2631
0041036553999991962012114004+51933-001250SAO  +0133EGUA V0202501N008210030019N0080001N9+00961+00581999999ADDGF108991999999999999999999MW1051MW2611
0114036553999991962012115004+51933-001250SAO  +0133EGUA V0202301N007710066019N0176001N9+00961+00581100301ADDGA1011+003609059GA2061+006609059GA3011+018009059GA4011+220009009GF108991999999999999999999MA1999999098611MW1001
0035036553999991962012116004+51933-001250SAO  +0133EGUA V0202301N007710075019N0176001N9+00911+00521999999ADDGF107991999999999999999999MW1001
0035036553999991962012117004+51933-001250SAO  +0133EGUA V0202001N005110150019N0176001N9+00801+00461999999ADDGF107991999999999999999999MW1001
0082036553999991962012118004+51933-001250SAO  +0133EGUA V0201801N004112200019N0176001N9+00631+00411100261ADDGA1021+015009059GA2021+220009009GF102991999999999999999999MA1999999098581MW1001
0035036553999991962012119004+51933-001250SAO  +0133EGUA V0201801N004612200019N0176001N9+00631+00351999999ADDGF107991999999999999999999MW1001
0035036553999991962012120004+51933-001250SAO  +0133EGUA V0201801N003112200019N0176001N9+00631+00351999999ADDGF107991999999999999999999MW1001
0082036553999991962012121004+51933-001250SAO  +0133EGUA V0201801N005110300019N0176001N9+00691+00521099851ADDGA1051+030009049GA2071+220009029GF107991999999999999999999MA1999999098171MW1001
0035036553999991962012122004+51933-001250SAO  +0133EGUA V0201801N006210096019N0128001N9+00691+00351999999ADDGF108991999999999999999999MW1801
0035036553999991962012123004+51933-001250SAO  +0133EGUA V0201801N004110084019N0144001N9+00521+00301999999ADDGF108991999999999999999999MW1611
0066036553999991962012200004+51933-001250SAO  +0133EGUA V0201801N006210066019N0128001N9+00521+00301099411ADDGA1081+006609059GF108991999999999999999999MA1999999097731MW1611
0035036553999991962012201004+51933-001250SAO  +0133EGUA V0202001N005710033019N0176001N9+00631+00411999999ADDGF108991999999999999999999MW1611
0035036553999991962012202004+51933-001250SAO  +0133EGUA V0202501N008710036019N0176001N9+00631+00351999999ADDGF108991999999999999999999MW1611
0066036553999991962012203004+51933-001250SAO  +0133EGUA V0202901N011810036019N0096001N9+00521+00241099531ADDGA1081+003609059GF108991999999999999999999MA1999999097831MW1611
0035036553999991962012204004+51933-001250SAO  +0133EGUA V0202701N008710180019N0224001N9+00461+00131999999ADDGF108991999999999999999999MW1001
0035036553999991962012205004+51933-001250SAO  +0133EGUA V0202701N009812200019N0224001N9+00461+00021999999ADDGF102991999999999999999999MW1001
0082036553999991962012206004+51933-001250SAO  +0133EGUA V0202501N008712200019N0224001N9+00461+00021100241ADDGA1011+018009059GA2011+220009009GF102991999999999999999999MA1999999098511MW1001
0035036553999991962012207004+51933-001250SAO  +0133EGUA V0202501N008710084019N0096001N9+00461+00081999999ADDGF107991999999999999999999MW1801
0035036553999991962012208004+51933-001250SAO  +0133EGUA V0202701N009812200019N0240001N9+00521+00081999999ADDGF102991999999999999999999MW1001
0098036553999991962012209004+51933-001250SAO  +0133EGUA V0202701N010312200019N0240001N9+00521+00021100541ADDGA1021+006609059GA2011+015009059GA3011+220009009GF102991999999999999999999MA1999999098811MW1001
0035036553999991962012210004+51933-001250SAO  +0133EGUA V0202701N009312200019N0240001N9+00581+00021999999ADDGF102991999999999999999999MW1001
0035036553999991962012211004+51933-001250SAO  +0133EGUA V0202701N010812200019N0240001N9+00631-00041999999ADDGF102991999999999999999999MW1001
0119036553999991962012212004+51933-001250SAO  +0133EGUA V0202701N010312200019N0240001N9+00691-00091100911ADDAA124001091GA1031+007509089GA2011+220009009GF102991999999999999999999KA1999M+00691KA2999N+00411MA1999999099151MW1001
0035036553999991962012213004+51933-001250SAO  +0133EGUA V0202701N013412200019N0240001N9+00691-00151999999ADDGF102991999999999999999999MW1001
0035036553999991962012214004+51933-001250SAO  +0133EGUA V0202701N011312200019N0240001N9+00691-00151999999ADDGF102991999999999999999999MW1001
0098036553999991962012215004+51933-001250SAO  +0133EGUA V0202501N007712200019N0240001N9+00691-00091101081ADDGA1031+007509089GA2021+012009059GA3031+220009009GF107991999999999999999999MA1999999099321MW1001
0035036553999991962012216004+51933-001250SAO  +0133EGUA V0202701N010310066019N0200001N9+00631+00081999999ADDGF107991999999999999999999MW1801
0035036553999991962012217004+51933-001250SAO  +0133EGUA V0202501N010310060019N0144001N9+00631+00021999999ADDGF107991999999999999999999MW1001
0066036553999991962012218004+51933-001250SAO  +0133EGUA V0202501N007212200019N0144001N9+00521-00041101151ADDGA1031+006009089GF102991999999999999999999MA1999999099391MW1001
0035036553999991962012219004+51933-001250SAO  +0133EGUA V0202501N007712200019N0176001N9+00461+00021999999ADDGF102991999999999999999999MW1001
0035036553999991962012220004+51933-001250SAO  +0133EGUA V0202701N007212200019N0176001N9+00461-00041999999ADDGF100991999999999999999999MW1001
0066036553999991962012221004+51933-001250SAO  +0133EGUA V0202501N008212200019N0176001N9+00411-00041101321ADDGA1001+999999999GF100991999999999999999999MA1999999099561MW1001
0035036553999991962012222004+51933-001250SAO  +0133EGUA V0202701N008212200019N0176001N9+00411-00091999999ADDGF100991999999999999999999MW1001
0035036553999991962012223004+51933-001250SAO  +0133EGUA V0202501N006212200019N0176001N9+00411-00091999999ADDGF100991999999999999999999MW1001
0066036553999991962012300004+51933-001250SAO  +0133EGUA V0202501N006212200019N0176001N9+00411-00041101461ADDGA1001+999999999GF100991999999999999999999MA1999999099701MW1001
0035036553999991962012301004+51933-001250SAO  +0133EGUA V0202501N006712200019N0176001N9+00411-00091999999ADDGF102991999999999999999999MW1001
0035036553999991962012302004+51933-001250SAO  +0133EGUA V0202501N006712200019N0176001N9+00411-00091999999ADDGF102991999999999999999999MW1001
0066036553999991962012303004+51933-001250SAO  +0133EGUA V0202501N007712200019N0176001N9+00411-00041101561ADDGA1001+999999999GF100991999999999999999999MA1999999099801MW1001
0035036553999991962012304004+51933-001250SAO  +0133EGUA V0202701N007712200019N0176001N9+00351-00041999999ADDGF100991999999999999999999MW1001
0035036553999991962012305004+51933-001250SAO  +0133EGUA V0202501N007212200019N0176001N9+00351-00041999999ADDGF100991999999999999999999MW1001
0066036553999991962012306004+51933-001250SAO  +0133EGUA V0202701N007212200019N0176001N9+00461-00041101661ADDGA1001+999999999GF100991999999999999999999MA1999999099901MW1001
0035036553999991962012307004+51933-001250SAO  +0133EGUA V0202701N004612200019N0176001N9+00411-00041999999ADDGF102991999999999999999999MW1001
0035036553999991962012308004+51933-001250SAO  +0133EGUA V0202501N004112200019N0176001N9+00351-00041999999ADDGF102991999999999999999999MW1001
0082036553999991962012309004+51933-001250SAO  +0133EGUA V0202301N003112200019N0200001N9+00411-00041101761ADDGA1021+036009049GA2011+220009009GF102991999999999999999999MA1999999100001MW1001
0035036553999991962012310004+51933-001250SAO  +0133EGUA V0201801N004612200019N0144001N9+00461+00131999999ADDGF102991999999999999999999MW1001
0035036553999991962012311004+51933-001250SAO  +0133EGUA V0202001N005112200019N0128001N9+00631+00191999999ADDGF107991999999999999999999MW1001
0151036553999991962012312004+51933-001250SAO  +0133EGUA V0202001N005110036019N0096001N9+00631+00301101801ADDAA124005091GA1051+003609079GA2041+024009039GA3021+036009039GA4021+220009009GF107991999999999999999999KA1999M+00741KA2999N+00351MA1999999100031MW1051
0035036553999991962012313004+51933-001250SAO  +0133EGUA V0202001N006710096019N0144001N9+00691+00301999999ADDGF108991999999999999999999MW1001
0035036553999991962012314004+51933-001250SAO  +0133EGUA V0202001N004110300019N0144001N9+00741+00301999999ADDGF108991999999999999999999MW1001
0114036553999991962012315004+51933-001250SAO  +0133EGUA V0202001N003110240019N0144001N9+00741+00241101661ADDGA1031+004509079GA2011+012009059GA3071+024009049GA4011+220009009GF108991999999999999999999MA1999999099901MW1001
0035036553999991962012316004+51933-001250SAO  +0133EGUA V0201801N004110240019N0128001N9+00691+00241999999ADDGF108991999999999999999999MW1001
0035036553999991962012317004+51933-001250SAO  +0133EGUA V0201801N003110066019N0128001N9+00631+00301999999ADDGF108991999999999999999999MW1611
0066036553999991962012318004+51933-001250SAO  +0133EGUA V0201601N004110060019N0080001N9+00581+00411101491ADDGA1081+006009059GF108991999999999999999999MA1999999099731MW1611
0035036553999991962012319004+51933-001250SAO  +0133EGUA V0201801N005110036019N0128001N9+00581+00351999999ADDGF108991999999999999999999MW1611
0035036553999991962012320004+51933-001250SAO  +0133EGUA V0201801N006710036019N0080001N9+00521+00301999999ADDGF108991999999999999999999MW1611
0104036553999991962012321004+51933-001250SAO  +0133EGUA V0201601N006210015019N0064001N9+00521+00351101051ADDGA1031+000909079GA2051+001509079GA3081+003009059GF108991999999999999999999MA1999999099291MW1511MW2611
0041036553999991962012322004+51933-001250SAO  +0133EGUA V0201601N005710012019N0064001N9+00581+00411999999ADDGF108991999999999999999999MW1511MW2611
0041036553999991962012323004+51933-001250SAO  +0133EGUA V0201801N004610006019N0048001N9+00631+00521999999ADDGF108991999999999999999999MW1511MW2611
0066036553999991962012400004+51933-001250SAO  +0133EGUA V0202001N004110006019N0096001N9+00741+00631100801ADDGA1081+000609079GF108991999999999999999999MA1999999099091MW1111
0035036553999991962012401004+51933-001250SAO  +0133EGUA V0202301N005110006019N0096001N9+00911+00741999999ADDGF108991999999999999999999MW1111
0035036553999991962012402004+51933-001250SAO  +0133EGUA V0202501N005710006019N0144001N9+01071+00851999999ADDGF108991999999999999999999MW1001
0066036553999991962012403004+51933-001250SAO  +0133EGUA V0202001N005710021019N0144001N9+01071+00851100841ADDGA1081+002109079GF108991999999999999999999MA1999999099121MW1001
0035036553999991962012404004+51933-001250SAO  +0133EGUA V0202301N005110021019N0144001N9+01071+00851999999ADDGF108991999999999999999999MW1001
0035036553999991962012405004+51933-001250SAO  +0133EGUA V0202001N007210045019N0128001N9+01071+00851999999ADDGF108991999999999999999999MW1511
0098036553999991962012406004+51933-001250SAO  +0133EGUA V0202001N006210027019N0080001N9+01071+00851100741ADDGA1021+001209079GA2051+002709079GA3021+003609059GF108991999999999999999999MA1999999099021MW1511
0035036553999991962012407004+51933-001250SAO  +0133EGUA V0202001N004610021019N0096001N9+01071+00851999999ADDGF108991999999999999999999MW1511
0035036553999991962012408004+51933-001250SAO  +0133EGUA V0202301N007210027019N0128001N9+01071+00851999999ADDGF108991999999999999999999MW1001
0088036553999991962012409004+51933-001250SAO  +0133EGUA V0202301N007210042019N0128001N9+01071+00911100671ADDGA1021+002409079GA2081+004209059GF108991999999999999999999MA1999999098981MW1511MW2611
0035036553999991962012410004+51933-001250SAO  +0133EGUA V0202301N007210036019N0176001N9+01131+00911999999ADDGF108991999999999999999999MW1611
0035036553999991962012411004+51933-001250SAO  +0133EGUA V0202301N008210105019N0240001N9+01191+00911999999ADDGF108991999999999999999999MW1001
0135036553999991962012412004+51933-001250SAO  +0133EGUA V0202301N008710048019N0200001N9+01191+00851100571ADDAA124001091GA1061+004809089GA2021+006609059GA3021+220009009GF108991999999999999999999KA1999M+01241KA2999N+00741MA1999999098881MW1001
0035036553999991962012413004+51933-001250SAO  +0133EGUA V0202001N009810057019N0200001N9+01241+00851999999ADDGF108991999999999999999999MW1801
0035036553999991962012414004+51933-001250SAO  +0133EGUA V0202301N008210096019N0200001N9+01071+00691999999ADDGF107991999999999999999999MW1001
0082036553999991962012415004+51933-001250SAO  +0133EGUA V0202501N006212200019N0240001N9+01131+00691100431ADDGA1031+006009089GA2011+220009009GF102991999999999999999999MA1999999098751MW1001
0035036553999991962012416004+51933-001250SAO  +0133EGUA V0202301N006210084019N0240001N9+01071+00631999999ADDGF108991999999999999999999MW1001
0035036553999991962012417004+51933-001250SAO  +0133EGUA V0202301N007210114019N0240001N9+01021+00521999999ADDGF107991999999999999999999MW1001
0066036553999991962012418004+51933-001250SAO  +0133EGUA V0202001N005710066019N0176001N9+00961+00521100431ADDGA1071+006609059GF107991999999999999999999MA1999999098751MW1611
0035036553999991962012419004+51933-001250SAO  +0133EGUA V0202301N006210060019N0176001N9+00961+00581999999ADDGF108991999999999999999999MW1001
0035036553999991962012420004+51933-001250SAO  +0133EGUA V0202001N005110048019N0176001N9+00911+00581999999ADDGF108991999999999999999999MW1611
0082036553999991962012421004+51933-001250SAO  +0133EGUA V0202301N006210027019N0176001N9+00851+00691100431ADDGA1061+002709079GA2021+009609059GF108991999999999999999999MA1999999098751MW1511
0035036553999991962012422004+51933-001250SAO  +0133EGUA V0202301N006210057019N0176001N9+00851+00631999999ADDGF108991999999999999999999MW1001
0035036553999991962012423004+51933-001250SAO  +0133EGUA V0202301N006210057019N0176001N9+00851+00631999999ADDGF107991999999999999999999MW1611
0082036553999991962012500004+51933-001250SAO  +0133EGUA V0202301N004610135019N0176001N9+00851+00691100531ADDGA1021+006009059GA2081+013509059GF108991999999999999999999MA1999999098851MW1001
0035036553999991962012501004+51933-001250SAO  +0133EGUA V0202301N004110120019N0144001N9+00851+00691999999ADDGF108991999999999999999999MW1001
0035036553999991962012502004+51933-001250SAO  +0133EGUA V0202301N004110120019N0144001N9+00851+00631999999ADDGF108991999999999999999999MW1001
0082036553999991962012503004+51933-001250SAO  +0133EGUA V0202301N003610042019N0128001N9+00851+00691100701ADDGA1021+001809079GA2081+004209059GF108991999999999999999999MA1999999099021MW1511
0035036553999991962012504004+51933-001250SAO  +0133EGUA V0202501N006210096019N0144001N9+00911+00691999999ADDGF108991999999999999999999MW1001
0035036553999991962012505004+51933-001250SAO  +0133EGUA V0202701N006210096019N0144001N9+00911+00631999999ADDGF108991999999999999999999MW1001
0082036553999991962012506004+51933-001250SAO  +0133EGUA V0202701N006210105019N0144001N9+00911+00581101071ADDGA1021+005109059GA2061+010509059GF107991999999999999999999MA1999999099361MW1001
0035036553999991962012507004+51933-001250SAO  +0133EGUA V0202701N007710096019N0144001N9+00911+00581999999ADDGF107991999999999999999999MW1001
0041036553999991962012508004+51933-001250SAO  +0133EGUA V0202701N007710060019N0128001N9+00851+00631999999ADDGF108991999999999999999999MW1511MW2611
0098036553999991962012509004+51933-001250SAO  +0133EGUA V0202701N006710060019N0240001N9+00851+00631101481ADDGA1021+004809079GA2051+006009059GA3031+011409059GF108991999999999999999999MA1999999099761MW1611
0035036553999991962012510004+51933-001250SAO  +0133EGUA V0202701N007710060019N0240001N9+00911+00631999999ADDGF108991999999999999999999MW1611
0035036553999991962012511004+51933-001250SAO  +0133EGUA V0202901N007210060019N0240001N9+00961+00691999999ADDGF107991999999999999999999MW1611
0119036553999991962012512004+51933-001250SAO  +0133EGUA V0202701N007210120019N0240001N9+01021+00631101791ADDAA124000391GA1021+006009059GA2061+012009059GF108991999999999999999999KA1999M+01021KA2999N+00851MA1999999100071MW1001
0035036553999991962012513004+51933-001250SAO  +0133EGUA V0202901N006710075019N0240001N9+00961+00581999999ADDGF108991999999999999999999MW1001
0035036553999991962012514004+51933-001250SAO  +0133EGUA V0202701N006710075019N0240001N9+01021+00521999999ADDGF108991999999999999999999MW1001
0082036553999991962012515004+51933-001250SAO  +0133EGUA V0202701N004610150019N0240001N9+00961+00521102061ADDGA1021+007509059GA2081+015009059GF108991999999999999999999MA1999999100341MW1001
0035036553999991962012516004+51933-001250SAO  +0133EGUA V0202701N004110150019N0240001N9+00961+00581999999ADDGF108991999999999999999999MW1001
0035036553999991962012517004+51933-001250SAO  +0133EGUA V0202501N002612200019N0240001N9+00851+00521999999ADDGF107991999999999999999999MW1001
0066036553999991962012518004+51933-001250SAO  +0133EGUA V0202301N002610075019N0200001N9+00911+00521102291ADDGA1081+007509079GF108991999999999999999999MA1999999100581MW1001
0035036553999991962012519004+51933-001250SAO  +0133EGUA V0202301N003110090019N0176001N9+00911+00631999999ADDGF108991999999999999999999MW1511
0035036553999991962012520004+51933-001250SAO  +0133EGUA V0202501N003110051019N0144001N9+00911+00631999999ADDGF108991999999999999999999MW1511
0066036553999991962012521004+51933-001250SAO  +0133EGUA V0202301N003610024019N0096001N9+00911+00741102361ADDGA1081+002409079GF108991999999999999999999MA1999999100641MW1051
0035036553999991962012522004+51933-001250SAO  +0133EGUA V0202301N003610033019N0080001N9+00911+00741999999ADDGF108991999999999999999999MW1051
0035036553999991962012523004+51933-001250SAO  +0133EGUA V0202001N004110057019N0064001N9+00911+00801999999ADDGF108991999999999999999999MW1051
0082036553999991962012600004+51933-001250SAO  +0133EGUA V0202501N005710009019N0064001N9+00961+00801102361ADDGA1061+000909079GA2081+005709059GF108991999999999999999999MA1999999100641MW1051
0035036553999991962012601004+51933-001250SAO  +0133EGUA V0202501N006210021019N0128001N9+01021+00801999999ADDGF108991999999999999999999MW1001
0035036553999991962012602004+51933-001250SAO  +0133EGUA V0202501N005110114019N0128001N9+00961+00801999999ADDGF108991999999999999999999MW1001
0098036553999991962012603004+51933-001250SAO  +0133EGUA V0202501N005710021019N0160001N9+00961+00801102391ADDGA1021+001509079GA2061+002109079GA3081+011409059GF108991999999999999999999MA1999999100681MW1001
0035036553999991962012604004+51933-001250SAO  +0133EGUA V0202501N004610024019N0160001N9+01021+00801999999ADDGF108991999999999999999999MW1001
0035036553999991962012605004+51933-001250SAO  +0133EGUA V0202501N004110240019N0176001N9+00961+00741999999ADDGF107991999999999999999999MW1001
0066036553999991962012606004+51933-001250SAO  +0133EGUA V0202501N004610042019N0176001N9+00961+00741102361ADDGA1081+004209079GF108991999999999999999999MA1999999100641MW1001
0035036553999991962012607004+51933-001250SAO  +0133EGUA V0202701N003110036019N0176001N9+01021+00801999999ADDGF108991999999999999999999MW1001
0035036553999991962012608004+51933-001250SAO  +0133EGUA V0202501N003110060019N0176001N9+01021+00801999999ADDGF108991999999999999999999MW1001
0114036553999991962012609004+51933-001250SAO  +0133EGUA V0202701N005110240019N0144001N9+01021+00801102601ADDGA1031+003909079GA2011+009009059GA3021+024009039GA4081+220009009GF108991999999999999999999MA1999999100881MW1001
0035036553999991962012610004+51933-001250SAO  +0133EGUA V0202501N004110096019N0144001N9+01021+00801999999ADDGF108991999999999999999999MW1001
0035036553999991962012611004+51933-001250SAO  +0133EGUA V0202701N005110120019N0144001N9+01131+00801999999ADDGF108991999999999999999999MW1001
0135036553999991962012612004+51933-001250SAO  +0133EGUA V0202901N005110120019N0200001N9+01131+00631102731ADDAA124999929GA1051+006009059GA2061+012009059GA3021+021009039GF108991999999999999999999KA1999M+01131KA2999N+00691MA1999999101021MW1001
0035036553999991962012613004+51933-001250SAO  +0133EGUA V0202901N006210096019N0176001N9+01131+00461999999ADDGF108991999999999999999999MW1001
0035036553999991962012614004+51933-001250SAO  +0133EGUA V0202901N005110090019N0176001N9+01071+00521999999ADDGF108991999999999999999999MW1001
0082036553999991962012615004+51933-001250SAO  +0133EGUA V0202901N004110090019N0176001N9+01021+00461102731ADDGA1031+006009059GA2081+009009059GF108991999999999999999999MA1999999101021MW1001
0035036553999991962012616004+51933-001250SAO  +0133EGUA V0202701N003610090019N0176001N9+00961+00521999999ADDGF108991999999999999999999MW1001
0035036553999991962012617004+51933-001250SAO  +0133EGUA V0202701N001510066019N0144001N9+00911+00521999999ADDGF108991999999999999999999MW1001
0066036553999991962012618004+51933-001250SAO  +0133EGUA V0200501N001510057019N0080001N9+00801+00521102831ADDGA1081+005709059GF108991999999999999999999MA1999999101121MW1051
0035036553999991962012619004+51933-001250SAO  +0133EGUA V0209991C000010048019N0080001N9+00801+00521999999ADDGF108991999999999999999999MW1051
0035036553999991962012620004+51933-001250SAO  +0133EGUA V0209991C000010084019N0080001N9+00741+00521999999ADDGF108991999999999999999999MW1051
0072036553999991962012621004+51933-001250SAO  +0133EGUA V0209991C000010075019N0048001N9+00801+00521102941ADDGA1081+007509059GF108991999999999999999999MA1999999101191MW1051MW2511
0041036553999991962012622004+51933-001250SAO  +0133EGUA V0202501N001010066019N0048001N9+00741+00581999999ADDGF108991999999999999999999MW1051MW2511
0047036553999991962012623004+51933-001250SAO  +0133EGUA V0203601N002110066019N0040001N9+00741+00581999999ADDGF108991999999999999999999MW1111MW2511MW3611
0066036553999991962012700004+51933-001250SAO  +0133EGUA V0203401N001010075019N0096001N9+00691+00521103071ADDGA1081+007509059GF108991999999999999999999MA1999999101321MW1111
0041036553999991962012701004+51933-001250SAO  +0133EGUA V0202701N001010060019N0096001N9+00691+00521999999ADDGF108991999999999999999999MW1111MW2511
0041036553999991962012702004+51933-001250SAO  +0133EGUA V0209991C000010057019N0080001N9+00691+00461999999ADDGF108991999999999999999999MW1111MW2511
0088036553999991962012703004+51933-001250SAO  +0133EGUA V0209991C000010048019N0064001N9+00631+00461103041ADDGA1021+002109079GA2081+004809059GF108991999999999999999999MA1999999101291MW1111MW2511
0041036553999991962012704004+51933-001250SAO  +0133EGUA V0209991C000010051019N0080001N9+00631+00411999999ADDGF108991999999999999999999MW1051MW2511
0035036553999991962012705004+51933-001250SAO  +0133EGUA V0209991C000010057019N0096001N9+00631+00411999999ADDGF108991999999999999999999MW1511
0072036553999991962012706004+51933-001250SAO  +0133EGUA V0209991C000010066019N0080001N9+00581+00411103141ADDGA1081+006609059GF108991999999999999999999MA1999999101351MW1511MW2611
0041036553999991962012707004+51933-001250SAO  +0133EGUA V0209991C000010066019N0128001N9+00581+00351999999ADDGF108991999999999999999999MW1511MW2611
0035036553999991962012708004+51933-001250SAO  +0133EGUA V0209991C000010084019N0064001N9+00521+00351999999ADDGF108991999999999999999999MW1111
