0066036553999991959010100004+51933-001250SAO  +0138EGUA V0202001N003112200019N0080001N9+00191+00081101491ADDGA1001+999999999GF100991999999999999999999MA1999999099731MW1051
0035036553999991959010101004+51933-001250SAO  +0138EGUA V0202301N005112200019N0144001N9+00301+00131999999ADDGF100991999999999999999999MW1001
0035036553999991959010102004+51933-001250SAO  +0138EGUA V0202301N005112200019N0144001N9+00301+00191999999ADDGF100991999999999999999999MW1001
0066036553999991959010103004+51933-001250SAO  +0138EGUA V0202001N005112200019N0176001N9+00241+00131101561ADDGA1001+999999999GF100991999999999999999999MA1999999099801MW1001
0035036553999991959010104004+51933-001250SAO  +0138EGUA V0202001N004112200019N0176001N9+00191+00081999999ADDGF100991999999999999999999MW1001
0035036553999991959010105004+51933-001250SAO  +0138EGUA V0202001N005112200019N0176001N9+00191+00081999999ADDGF100991999999999999999999MW1001
0066036553999991959010106004+51933-001250SAO  +0138EGUA V0202001N007212200019N0176001N9+00241+00131101561ADDGA1021+220009009GF102991999999999999999999MA1999999099801MW1001
0035036553999991959010107004+51933-001250SAO  +0138EGUA V0202001N005112200019N0176001N9+00241+00131999999ADDGF102991999999999999999999MW1001
0035036553999991959010108004+51933-001250SAO  +0138EGUA V0202001N006212200019N0176001N9+00301+00191999999ADDGF102991999999999999999999MW1001
0082036553999991959010109004+51933-001250SAO  +0138EGUA V0201801N005110120019N0240001N9+00521+00301101521ADDGA1031+007209059GA2081+012009059GF108991999999999999999999MA1999999099761MW1001
0035036553999991959010110004+51933-001250SAO  +0138EGUA V0202001N007210057019N0176001N9+00631+00461999999ADDGF108991999999999999999999MW1611
0035036553999991959010111004+51933-001250SAO  +0138EGUA V0202001N007210057019N0176001N9+00691+00521999999ADDGF108991999999999999999999MW1611
0109036553999991959010112004+51933-001250SAO  +0138EGUA V0202001N008210057019N0080001N9+00741+00581101351ADDAA124009091GA1081+005709079GF108991999999999999999999KA1999M+00911KA2999N+00191MA1999999099591MW1451MW2611
0041036553999991959010113004+51933-001250SAO  +0138EGUA V0201801N005110057019N0080001N9+00801+00581999999ADDGF108991999999999999999999MW1051MW2611
0041036553999991959010114004+51933-001250SAO  +0138EGUA V0202001N006210057019N0080001N9+00801+00631999999ADDGF108991999999999999999999MW1451MW2611
0072036553999991959010115004+51933-001250SAO  +0138EGUA V0202001N008210057019N0080001N9+00801+00631101081ADDGA1081+005709059GF108991999999999999999999MA1999999099321MW1451MW2611
0035036553999991959010116004+51933-001250SAO  +0138EGUA V0202001N010310057019N0128001N9+00851+00581999999ADDGF108991999999999999999999MW1001
0035036553999991959010117004+51933-001250SAO  +0138EGUA V0202301N012310057019N0128001N9+00911+00521999999ADDGF108991999999999999999999MW1611
0082036553999991959010118004+51933-001250SAO  +0138EGUA V0202001N011310150019N0128001N9+00911+00521100581ADDGA1031+008409059GA2081+015009049GF108991999999999999999999MA1999999098851MW1001
0035036553999991959010119004+51933-001250SAO  +0138EGUA V0202301N012310057019N0128001N9+00851+00581999999ADDGF108991999999999999999999MW1611
0035036553999991959010120004+51933-001250SAO  +0138EGUA V0202301N012310087019N0128001N9+00911+00581999999ADDGF108991999999999999999999MW1611
0082036553999991959010121004+51933-001250SAO  +0138EGUA V0202001N011310105019N0128001N9+00851+00521100101ADDGA1021+005709059GA2081+010509059GF108991999999999999999999MA1999999098371MW1001
0035036553999991959010122004+51933-001250SAO  +0138EGUA V0202001N013410072019N0128001N9+00851+00521999999ADDGF108991999999999999999999MW1611
0035036553999991959010123004+51933-001250SAO  +0138EGUA V0202701N012310042019N0064001N9+00461+00461999999ADDGF108991999999999999999999MW1631
0082036553999991959010200004+51933-001250SAO  +0138EGUA V0202501N007210105019N0128001N9+00521+00131100031ADDGA1021+004209079GA2081+010509059GF108991999999999999999999MA1999999098311MW1001
0035036553999991959010201004+51933-001250SAO  +0138EGUA V0202501N005110111019N0200001N9+00411+00131999999ADDGF108991999999999999999999MW1001
0035036553999991959010202004+51933-001250SAO  +0138EGUA V0202301N005110111019N0200001N9+00411+00131999999ADDGF107991999999999999999999MW1001
0066036553999991959010203004+51933-001250SAO  +0138EGUA V0202301N005112200019N0200001N9+00351+00191099901ADDGA1031+011109059GF102991999999999999999999MA1999999098171MW1001
0035036553999991959010204004+51933-001250SAO  +0138EGUA V0202001N005112200019N0200001N9+00241+00131999999ADDGF100991999999999999999999MW1001
0035036553999991959010205004+51933-001250SAO  +0138EGUA V0202001N005112200019N0200001N9+00241+00131999999ADDGF100991999999999999999999MW1001
0066036553999991959010206004+51933-001250SAO  +0138EGUA V0202001N005112200019N0176001N9+00241+00131099561ADDGA1021+011109079GF102991999999999999999999MA1999999097831MW1001
0035036553999991959010207004+51933-001250SAO  +0138EGUA V0202501N005110075019N0080001N9+00301+00241999999ADDGF108991999999999999999999MW1801
0035036553999991959010208004+51933-001250SAO  +0138EGUA V0202501N007210072019N0144001N9+00351+00351999999ADDGF108991999999999999999999MW1001
0098036553999991959010209004+51933-001250SAO  +0138EGUA V0202501N007212200019N0200001N9+00411+00131099631ADDGA1011+007209059GA2021+012009059GA3041+220009009GF107991999999999999999999MA1999999097901MW1001
0035036553999991959010210004+51933-001250SAO  +0138EGUA V0202501N007210105019N0200001N9+00411+00131999999ADDGF107991999999999999999999MW1611
0035036553999991959010211004+51933-001250SAO  +0138EGUA V0202701N006212200019N0200001N9+00581+00131999999ADDGF102991999999999999999999MW1001
0119036553999991959010212004+51933-001250SAO  +0138EGUA V0202501N005112200019N0200001N9+00631+00131099701ADDAA124001091GA1011+012009059GA2021+220009009GF102991999999999999999999KA1999M+00691KA2999N+00241MA1999999097971MW1001
0035036553999991959010213004+51933-001250SAO  +0138EGUA V0202701N007212200019N0240001N9+00691+00081999999ADDGF102991999999999999999999MW1001
0035036553999991959010214004+51933-001250SAO  +0138EGUA V0202701N006212200019N0240001N9+00581+00131999999ADDGF107991999999999999999999MW1001
0066036553999991959010215004+51933-001250SAO  +0138EGUA V0202701N005710090019N0240001N9+00521+00131099801ADDGA1081+009009059GF108991999999999999999999MA1999999098071MW1001
0035036553999991959010216004+51933-001250SAO  +0138EGUA V0209991C000010105019N0240001N9+00461+00191999999ADDGF108991999999999999999999MW1001
0035036553999991959010217004+51933-001250SAO  +0138EGUA V0202901N002110105019N0144001N9+00411+00241999999ADDGF108991999999999999999999MW1001
0066036553999991959010218004+51933-001250SAO  +0138EGUA V0202901N003112200019N0144001N9+00351+00131100101ADDGA1031+009009059GF102991999999999999999999MA1999999098411MW1001
0035036553999991959010219004+51933-001250SAO  +0138EGUA V0202701N005112200019N0080001N9+00301+00191999999ADDGF102991999999999999999999MW1051
0035036553999991959010220004+51933-001250SAO  +0138EGUA V0202901N005112200019N0064001N9+00301+00191999999ADDGF102991999999999999999999MW1051
0066036553999991959010221004+51933-001250SAO  +0138EGUA V0202701N003112200019N0064001N9+00241+00131100501ADDGA1001+999999999GF100991999999999999999999MA1999999098811MW1051
0035036553999991959010222004+51933-001250SAO  +0138EGUA V0202701N004112200019N0064001N9+00241+00131999999ADDGF102991999999999999999999MW1051
0035036553999991959010223004+51933-001250SAO  +0138EGUA V0202901N004112200019N0064001N9+00301+00131999999ADDGF102991999999999999999999MW1051
0066036553999991959010300004+51933-001250SAO  +0138EGUA V0202901N004112200019N0064001N9+00241+00131100751ADDGA1031+018009039GF102991999999999999999999MA1999999099021MW1051
0041036553999991959010301004+51933-001250SAO  +0138EGUA V0203201N003612200019N0040001N9+00241+00081999999ADDGF102991999999999999999999MW1051MW2451
0041036553999991959010302004+51933-001250SAO  +0138EGUA V0202901N003612200019N0040001N9+00131+00021999999ADDGF102991999999999999999999MW1051MW2451
0072036553999991959010303004+51933-001250SAO  +0138EGUA V0202901N004112200019N0040001N9+00131+00021101021ADDGA1021+999999999GF102991999999999999999999MA1999999099261MW1051MW2451
0041036553999991959010304004+51933-001250SAO  +0138EGUA V0202901N002612200019N0064001N9+00131+00021999999ADDGF102991999999999999999999MW1051MW2111
0041036553999991959010305004+51933-001250SAO  +0138EGUA V0202701N004112200019N0064001N9+00131+00021999999ADDGF107991999999999999999999MW1051MW2111
0072036553999991959010306004+51933-001250SAO  +0138EGUA V0202701N002612200019N0064001N9+00131-00091101021ADDGA1031+220009029GF102991999999999999999999MA1999999099261MW1051MW2111
0035036553999991959010307004+51933-001250SAO  +0138EGUA V0202701N001512200019N0080001N9+00131-00091999999ADDGF107991999999999999999999MW1051
0035036553999991959010308004+51933-001250SAO  +0138EGUA V0202701N002610150019N0128001N9+00191-00041999999ADDGF108991999999999999999999MW1001
0098036553999991959010309004+51933-001250SAO  +0138EGUA V0202701N004110150019N0176001N9+00191+00021101051ADDGA1021+006009059GA2061+015009049GA3021+220009029GF107991999999999999999999MA1999999099291MW1001
0035036553999991959010310004+51933-001250SAO  +0138EGUA V0202701N002612200019N0200001N9+00131+00021999999ADDGF102991999999999999999999MW1001
0035036553999991959010311004+51933-001250SAO  +0138EGUA V0202501N004112200019N0200001N9+00461+00191999999ADDGF107991999999999999999999MW1001
0119036553999991959010312004+51933-001250SAO  +0138EGUA V0202701N004112200019N0200001N9+00461+00191101081ADDAA124000591GA1011+015009049GA2051+220009029GF107991999999999999999999KA1999M+00521KA2999N+00021MA1999999099321MW1001
0035036553999991959010313004+51933-001250SAO  +0138EGUA V0202501N004112200019N0240001N9+00461+00191999999ADDGF107991999999999999999999MW1001
0035036553999991959010314004+51933-001250SAO  +0138EGUA V0202501N005110120019N0176001N9+00411+00131999999ADDGF108991999999999999999999MW1001
0098036553999991959010315004+51933-001250SAO  +0138EGUA V0202501N004610240019N0176001N9+00521+00191100981ADDGA1021+012009059GA2051+024009039GA3061+220009009GF108991999999999999999999MA1999999099221MW1001
0035036553999991959010316004+51933-001250SAO  +0138EGUA V0202301N005710063019N0080001N9+00351+00191999999ADDGF108991999999999999999999MW1801
0035036553999991959010317004+51933-001250SAO  +0138EGUA V0202501N005110105019N0128001N9+00241+00131999999ADDGF107991999999999999999999MW1001
0082036553999991959010318004+51933-001250SAO  +0138EGUA V0202701N005110105019N0128001N9+00301+00191100781ADDGA1021+006309059GA2061+010509059GF107991999999999999999999MA1999999099051MW1001
0035036553999991959010319004+51933-001250SAO  +0138EGUA V0203201N003110024019N0064001N9+00191+00081999999ADDGF108991999999999999999999MW1051
0041036553999991959010320004+51933-001250SAO  +0138EGUA V0202701N004110024019N0028001N9+00081+00021999999ADDGF107991999999999999999999MW1051MW2451
0066036553999991959010321004+51933-001250SAO  +0138EGUA V0203201N003112200019N0048001N9+00021-00041100781ADDGA1001+999999999GF100991999999999999999999MA1999999099021MW1051
0035036553999991959010322004+51933-001250SAO  +0138EGUA V0209991C000012200019N0064001N9+00021-00091999999ADDGF102991999999999999999999MW1051
0035036553999991959010323004+51933-001250SAO  +0138EGUA V0209991C000010150019N0080001N9+00021-00041999999ADDGF108991999999999999999999MW1051
0088036553999991959010400004+51933-001250SAO  +0138EGUA V0209991C000010150019N0080001N9+00081-00041100581ADDGA1021+008409059GA2081+015009049GF108991999999999999999999MA1999999098851MW1051MW2711
0035036553999991959010401004+51933-001250SAO  +0138EGUA V0209991C000010135019N0080001N9+00081+00021999999ADDGF108991999999999999999999MW1051
0035036553999991959010402004+51933-001250SAO  +0138EGUA V0209991C000010057019N0048001N9+00081+00021999999ADDGF108991999999999999999999MW1051
0082036553999991959010403004+51933-001250SAO  +0138EGUA V0203401N002110105019N0064001N9+00081+00021100511ADDGA1021+002109079GA2061+010509059GF107991999999999999999999MA1999999098781MW1051
0041036553999991959010404004+51933-001250SAO  +0138EGUA V0202901N005110006019N0008001N9+00021+00021999999ADDGF108991999999999999999999MW1051MW2451
0035036553999991959010405004+51933-001250SAO  +0138EGUA V0203201N005710021019N0064001N9+00021-00041999999ADDGF108991999999999999999999MW1051
0082036553999991959010406004+51933-001250SAO  +0138EGUA V0203201N005110021019N0048001N9+00021-00041100641ADDGA1061+002109079GA2081+010509059GF108991999999999999999999MA1999999098881MW1051
0035036553999991959010407004+51933-001250SAO  +0138EGUA V0202701N004110021019N0048001N9-00041-00091999999ADDGF107991999999999999999999MW1051
0035036553999991959010408004+51933-001250SAO  +0138EGUA V0202701N002110024019N0064001N9+00021-00091999999ADDGF107991999999999999999999MW1051
0098036553999991959010409004+51933-001250SAO  +0138EGUA V0202301N002612200019N0080001N9-00041-00151100911ADDGA1021+010509059GA2021+030009039GA3021+220009009GF102991999999999999999999MA1999999099121MW1051
0035036553999991959010410004+51933-001250SAO  +0138EGUA V0202501N004610105019N0128001N9+00131-00041999999ADDGF107991999999999999999999MW1001
0035036553999991959010411004+51933-001250SAO  +0138EGUA V0202701N007212200019N0176001N9+00191-00151999999ADDGF102991999999999999999999MW1001
0103036553999991959010412004+51933-001250SAO  +0138EGUA V0202701N007210105019N0240001N9+00351-00041100911ADDAA124999929GA1051+010509059GF107991999999999999999999KA1999M+00461KA2999N-00041MA1999999099151MW1001
0035036553999991959010413004+51933-001250SAO  +0138EGUA V0202701N006710105019N0240001N9+00411+00021999999ADDGF107991999999999999999999MW1001
0035036553999991959010414004+51933-001250SAO  +0138EGUA V0202701N007212200019N0200001N9+00461+00081999999ADDGF102991999999999999999999MW1001
0082036553999991959010415004+51933-001250SAO  +0138EGUA V0202701N006212200019N0144001N9+00351+00081101121ADDGA1011+009009059GA2031+220009009GF102991999999999999999999MA1999999099361MW1001
0035036553999991959010416004+51933-001250SAO  +0138EGUA V0202701N005112200019N0128001N9+00301+00021999999ADDGF107991999999999999999999MW1001
0035036553999991959010417004+51933-001250SAO  +0138EGUA V0202701N004112200019N0128001N9+00241+00021999999ADDGF102991999999999999999999MW1001
0066036553999991959010418004+51933-001250SAO  +0138EGUA V0202701N003612200019N0128001N9+00191+00021101251ADDGA1031+220009009GF102991999999999999999999MA1999999099461MW1001
0035036553999991959010419004+51933-001250SAO  +0138EGUA V0202701N005112200019N0128001N9+00191-00041999999ADDGF102991999999999999999999MW1001
0035036553999991959010420004+51933-001250SAO  +0138EGUA V0202701N004612200019N0128001N9+00191-00041999999ADDGF102991999999999999999999MW1001
0066036553999991959010421004+51933-001250SAO  +0138EGUA V0202701N005112200019N0128001N9+00191-00041101391ADDGA1021+220009009GF102991999999999999999999MA1999999099591MW1001
0035036553999991959010422004+51933-001250SAO  +0138EGUA V0202701N003612200019N0128001N9+00191+00081999999ADDGF100991999999999999999999MW1001
0035036553999991959010423004+51933-001250SAO  +0138EGUA V0209991C000012200019N0128001N9+00191-00041999999ADDGF100991999999999999999999MW1001
0066036553999991959010500004+51933-001250SAO  +0138EGUA V0202301N003612200019N0128001N9+00131-00041101421ADDGA1001+999999999GF100991999999999999999999MA1999999099661MW1001
0035036553999991959010501004+51933-001250SAO  +0138EGUA V0202001N003112200019N0128001N9+00021-00091999999ADDGF100991999999999999999999MW1001
0035036553999991959010502004+51933-001250SAO  +0138EGUA V0202301N003112200019N0128001N9+00021-00091999999ADDGF100991999999999999999999MW1001
0066036553999991959010503004+51933-001250SAO  +0138EGUA V0202701N002612200019N0128001N9+00081-00091101521ADDGA1001+999999999GF100991999999999999999999MA1999999099761MW1001
0035036553999991959010504004+51933-001250SAO  +0138EGUA V0202701N003112200019N0128001N9+00021-00091999999ADDGF102991999999999999999999MW1001
0035036553999991959010505004+51933-001250SAO  +0138EGUA V0202701N003612200019N0128001N9+00081-00041999999ADDGF107991999999999999999999MW1001
0066036553999991959010506004+51933-001250SAO  +0138EGUA V0202301N004112200019N0128001N9+00081-00041101491ADDGA1061+220009009GF107991999999999999999999MA1999999099701MW1001
0035036553999991959010507004+51933-001250SAO  +0138EGUA V0202001N002112200019N0128001N9+00021-00091999999ADDGF107991999999999999999999MW1001
0035036553999991959010508004+51933-001250SAO  +0138EGUA V0202301N002112200019N0128001N9+00081-00091999999ADDGF108991999999999999999999MW1001
0082036553999991959010509004+51933-001250SAO  +0138EGUA V0202301N002112200019N0128001N9+00081-00091101561ADDGA1021+033009039GA2081+220009029GF108991999999999999999999MA1999999099761MW1001
0035036553999991959010510004+51933-001250SAO  +0138EGUA V0209991C000010300019N0080001N9+00021-00151999999ADDGF108991999999999999999999MW1051
0041036553999991959010511004+51933-001250SAO  +0138EGUA V0201401N001510270019N0028001N9+00021-00041999999ADDGF108991999999999999999999MW1051MW2111
0119036553999991959010512004+51933-001250SAO  +0138EGUA V0201601N001510120019N0022001N9+00131+00021101411ADDAA124005091GA1051+012009059GA2081+027009049GF108991999999999999999999KA1999M+00131KA2999N+00021MA1999999099631MW1111
0041036553999991959010513004+51933-001250SAO  +0138EGUA V0209991C000010120019N0012001N9+00081-00041999999ADDGF108991999999999999999999MW1051MW2111
0041036553999991959010514004+51933-001250SAO  +0138EGUA V0209991C000010120019N0040001N9+00131+00021999999ADDGF108991999999999999999999MW1051MW2111
0094036553999991959010515004+51933-001250SAO  +0138EGUA V0200901N002610120019N0040001N9+00131+00081101151ADDGA1051+003009079GA2081+012009059GF108991999999999999999999MA1999999099361MW1051MW2611MW3711
0047036553999991959010516004+51933-001250SAO  +0138EGUA V0200901N003610120019N0036001N9+00131+00081999999ADDGF108991999999999999999999MW1051MW2611MW3711
0041036553999991959010517004+51933-001250SAO  +0138EGUA V0200901N004610021019N0010001N9+00081+00081999999ADDGF108991999999999999999999MW1451MW2731
0072036553999991959010518004+51933-001250SAO  +0138EGUA V0200901N005110012019N0008001N9+00021+00021100711ADDGA1091+001209999GF109991999999999999999999MA1999999098951MW1451MW2731
0041036553999991959010519004+51933-001250SAO  +0138EGUA V0200701N005110009019N0005001N9+00081+00081999999ADDGF108991999999999999999999MW1451MW2731
0041036553999991959010520004+51933-001250SAO  +0138EGUA V0200501N006210009019N0008001N9+00081+00081999999ADDGF108991999999999999999999MW1451MW2731
0072036553999991959010521004+51933-001250SAO  +0138EGUA V0200501N006210015019N0008001N9+00081+00081100341ADDGA1091+001509999GF109991999999999999999999MA1999999098581MW1451MW2511
0041036553999991959010522004+51933-001250SAO  +0138EGUA V0200501N006210018019N0012001N9+00081+00081999999ADDGF108991999999999999999999MW1451MW2511
0041036553999991959010523004+51933-001250SAO  +0138EGUA V0200501N004110018019N0018001N9+00081+00081999999ADDGF108991999999999999999999MW1451MW2511
0104036553999991959010600004+51933-001250SAO  +0138EGUA V0203601N004610015019N0040001N9+00081+00081100241ADDGA1011+000309079GA2061+001509079GA3081+003609079GF108991999999999999999999MA1999999098511MW1451MW2511
0041036553999991959010601004+51933-001250SAO  +0138EGUA V0203601N004610015019N0026001N9+00081+00021999999ADDGF108991999999999999999999MW1451MW2511
0041036553999991959010602004+51933-001250SAO  +0138EGUA V0203601N004110003019N0003001N9+00081+00081999999ADDGF108991999999999999999999MW1451MW2511
0072036553999991959010603004+51933-001250SAO  +0138EGUA V0200201N005110009019N0008001N9+00081+00081100411ADDGA1091+000909999GF109991999999999999999999MA1999999098651MW1451MW2511
0041036553999991959010604004+51933-001250SAO  +0138EGUA V0200201N004610003019N0003001N9+00081+00081999999ADDGF108991999999999999999999MW1451MW2511
0041036553999991959010605004+51933-001250SAO  +0138EGUA V0200201N003610003019N0001001N9+00081+00081999999ADDGF108991999999999999999999MW1451MW2511
0072036553999991959010606004+51933-001250SAO  +0138EGUA V0200501N003610003019N0001001N9+00081+00081100581ADDGA1091+000309999GF109991999999999999999999MA1999999098811MW1451MW2511
0035036553999991959010607004+51933-001250SAO  +0138EGUA V0200701N004110015019N0018001N9+00081+00081999999ADDGF108991999999999999999999MW1451
0035036553999991959010608004+51933-001250SAO  +0138EGUA V0200701N003110015019N0036001N9+00081+00081999999ADDGF108991999999999999999999MW1451
0098036553999991959010609004+51933-001250SAO  +0138EGUA V0200701N003110015019N0026001N9+00081+00081100611ADDGA1011+999999999GA2061+001509079GA3081+003309059GF108991999999999999999999MA1999999098851MW1451
0041036553999991959010610004+51933-001250SAO  +0138EGUA V0200901N004110012019N0018001N9+00131+00081999999ADDGF108991999999999999999999MW1451MW2611
0041036553999991959010611004+51933-001250SAO  +0138EGUA V0200901N003610012019N0018001N9+00131+00131999999ADDGF108991999999999999999999MW1451MW2611
0125036553999991959010612004+51933-001250SAO  +0138EGUA V0200701N004610012019N0018001N9+00191+00131100441ADDAA124016091GA1011+999999999GA2081+001209079GF108991999999999999999999KA1999M+00351KA2999N+00081MA1999999098681MW1451MW2611
0041036553999991959010613004+51933-001250SAO  +0138EGUA V0200901N004110012019N0012001N9+00191+00191999999ADDGF108991999999999999999999MW1451MW2531
0041036553999991959010614004+51933-001250SAO  +0138EGUA V0200901N004610003019N0010001N9+00241+00191999999ADDGF108991999999999999999999MW1451MW2511
0082036553999991959010615004+51933-001250SAO  +0138EGUA V0200901N005110006019N0010001N9+00241+00241100141ADDGA1011+999999999GA2081+000609079GF108991999999999999999999MA1999999098371MW1451
0041036553999991959010616004+51933-001250SAO  +0138EGUA V0200701N005710006019N0008001N9+00301+00241999999ADDGF108991999999999999999999MW1451MW2511
0041036553999991959010617004+51933-001250SAO  +0138EGUA V0200701N006210006019N0010001N9+00301+00301999999ADDGF108991999999999999999999MW1451MW2611
0088036553999991959010618004+51933-001250SAO  +0138EGUA V0200701N005710006019N0012001N9+00301+00241099731ADDGA1011+999999999GA2081+000609079GF108991999999999999999999MA1999999097971MW1451MW2611
0041036553999991959010619004+51933-001250SAO  +0138EGUA V0200701N006210015019N0012001N9+00351+00351999999ADDGF108991999999999999999999MW1451MW2611
0041036553999991959010620004+51933-001250SAO  +0138EGUA V0200701N006710015019N0012001N9+00301+00301999999ADDGF108991999999999999999999MW1451MW2611
0088036553999991959010621004+51933-001250SAO  +0138EGUA V0200501N005710015019N0012001N9+00351+00301099391ADDGA1011+999999999GA2081+001509079GF108991999999999999999999MA1999999097631MW1451MW2611
0041036553999991959010622004+51933-001250SAO  +0138EGUA V0200201N004610015019N0012001N9+00351+00351999999ADDGF108991999999999999999999MW1451MW2611
0041036553999991959010623004+51933-001250SAO  +0138EGUA V0200201N004610015019N0064001N9+00351+00351999999ADDGF108991999999999999999999MW1451MW2611
0088036553999991959010700004+51933-001250SAO  +0138EGUA V0203201N003110015019N0018001N9+00351+00351099191ADDGA1011+999999999GA2081+001509079GF108991999999999999999999MA1999999097461MW1451MW2611
0035036553999991959010701004+51933-001250SAO  +0138EGUA V0202901N006210015019N0040001N9+00241+00131999999ADDGF108991999999999999999999MW1711
0035036553999991959010702004+51933-001250SAO  +0138EGUA V0202701N005110009019N0018001N9+00081+00021999999ADDGF108991999999999999999999MW1711
0066036553999991959010703004+51933-001250SAO  +0138EGUA V0202701N006210009019N0018001N9+00021+00021099531ADDGA1081+000909079GF108991999999999999999999MA1999999097771MW1711
0035036553999991959010704004+51933-001250SAO  +0138EGUA V0203201N006210012019N0036001N9+00021+00021999999ADDGF108991999999999999999999MW1711
0035036553999991959010705004+51933-001250SAO  +0138EGUA V0203201N006210012019N0036001N9+00021+00021999999ADDGF108991999999999999999999MW1711
0088036553999991959010706004+51933-001250SAO  +0138EGUA V0203201N006210012019N0040001N9+00021+00021099731ADDGA1061+001209079GA2081+003609079GF108991999999999999999999MA1999999097971MW1051MW2711
0041036553999991959010707004+51933-001250SAO  +0138EGUA V0203201N005710012019N0036001N9+00021+00021999999ADDGF108991999999999999999999MW1051MW2711
0041036553999991959010708004+51933-001250SAO  +0138EGUA V0203201N006210012019N0036001N9+00021+00021999999ADDGF108991999999999999999999MW1051MW2711
0088036553999991959010709004+51933-001250SAO  +0138EGUA V0203201N005110015019N0036001N9+00021+00021100101ADDGA1061+001509079GA2081+003009079GF108991999999999999999999MA1999999098371MW1051MW2711
0035036553999991959010710004+51933-001250SAO  +0138EGUA V0203201N004110210019N0080001N9+00081-00041999999ADDGF107991999999999999999999MW1051
0035036553999991959010711004+51933-001250SAO  +0138EGUA V0203201N005110021019N0080001N9+00081-00041999999ADDGF107991999999999999999999MW1051
0136036553999991959010712004+51933-001250SAO  +0138EGUA V0203201N006210015019N0064001N9+00081-00091100341ADDAA124008091AJ100059199999999GA1061+001509079GA2081+021009049GF108991999999999999999999KA1999M+00351KA2999N+00021MA1999999098581MW1051
0035036553999991959010713004+51933-001250SAO  +0138EGUA V0202901N003610018019N0040001N9+00081-00041999999ADDGF108991999999999999999999MW1051
0035036553999991959010714004+51933-001250SAO  +0138EGUA V0202901N003110018019N0040001N9+00131+00021999999ADDGF108991999999999999999999MW1051
0088036553999991959010715004+51933-001250SAO  +0138EGUA V0202701N003610015019N0018001N9+00081-00041100411ADDGA1061+001509059GA2081+021009049GF108991999999999999999999MA1999999098651MW1051MW2451
0041036553999991959010716004+51933-001250SAO  +0138EGUA V0202701N005110012019N0006001N9+00081-00041999999ADDGF108991999999999999999999MW1451MW2711
0041036553999991959010717004+51933-001250SAO  +0138EGUA V0202901N005110012019N0006001N9+00081+00021999999ADDGF108991999999999999999999MW1451MW2711
0088036553999991959010718004+51933-001250SAO  +0138EGUA V0202901N005110012019N0006001N9+00021-00041100471ADDGA1021+999999999GA2081+001209079GF108991999999999999999999MA1999999098711MW1451MW2711
0041036553999991959010719004+51933-001250SAO  +0138EGUA V0203201N004610012019N0006001N9+00021-00041999999ADDGF108991999999999999999999MW1451MW2711
0041036553999991959010720004+51933-001250SAO  +0138EGUA V0203201N006210012019N0012001N9+00021-00041999999ADDGF108991999999999999999999MW1451MW2711
0088036553999991959010721004+51933-001250SAO  +0138EGUA V0203201N006710015019N0018001N9+00021-00041100611ADDGA1011+999999999GA2081+001509079GF108991999999999999999999MA1999999098851MW1451MW2711
0035036553999991959010722004+51933-001250SAO  +0138EGUA V0202901N006210015019N0018001N9+00081+00021999999ADDGF108991999999999999999999MW1451
0035036553999991959010723004+51933-001250SAO  +0138EGUA V0203201N007210018019N0026001N9+00081-00041999999ADDGF108991999999999999999999MW1451
0082036553999991959010800004+51933-001250SAO  +0138EGUA V0202901N006210024019N0048001N9+00021+00021100751ADDGA1051+002409079GA2081+006009059GF108991999999999999999999MA1999999098981MW1451
0035036553999991959010801004+51933-001250SAO  +0138EGUA V0202901N006710024019N0048001N9+00021-00041999999ADDGF108991999999999999999999MW1451
0035036553999991959010802004+51933-001250SAO  +0138EGUA V0203201N006712200019N0048001N9+00021-00041999999ADDGF108991999999999999999999MW1451
0066036553999991959010803004+51933-001250SAO  +0138EGUA V0202901N005710042019N0048001N9+00021-00091101081ADDGA1081+004209079GF108991999999999999999999MA1999999099291MW1451
0035036553999991959010804004+51933-001250SAO  +0138EGUA V0202901N006212200019N0048001N9+00021-00091999999ADDGF108991999999999999999999MW1111
0035036553999991959010805004+51933-001250SAO  +0138EGUA V0202901N005112200019N0048001N9+00021-00091999999ADDGF108991999999999999999999MW1111
0066036553999991959010806004+51933-001250SAO  +0138EGUA V0202901N006212200019N0064001N9-00041-00151101321ADDGA1051+220009009GF107991999999999999999999MA1999999099531MW1111
0035036553999991959010807004+51933-001250SAO  +0138EGUA V0202701N005112200019N0064001N9-00041-00151999999ADDGF102991999999999999999999MW1111
0035036553999991959010808004+51933-001250SAO  +0138EGUA V0202901N005112200019N0048001N9-00091-00201999999ADDGF102991999999999999999999MW1111
0082036553999991959010809004+51933-001250SAO  +0138EGUA V0202901N006212200019N0064001N9-00041-00151101521ADDGA1011+027009039GA2011+220009009GF102991999999999999999999MA1999999099731MW1051
0035036553999991959010810004+51933-001250SAO  +0138EGUA V0202901N004612200019N0064001N9-00041-00201999999ADDGF100991999999999999999999MW1051
0035036553999991959010811004+51933-001250SAO  +0138EGUA V0202901N006712200019N0064001N9+00081-00151999999ADDGF100991999999999999999999MW1051
0120036553999991959010812004+51933-001250SAO  +0138EGUA V0202901N004112200019N0064001N9+00131-00201101691ADDAA124000091AJ100039199999999GA1001+999999999GF100991999999999999999999KA1999M+00191KA2999N-00091MA1999999099901MW1051
0035036553999991959010813004+51933-001250SAO  +0138EGUA V0202901N005712200019N0064001N9+00191-00201999999ADDGF100991999999999999999999MW1051
0035036553999991959010814004+51933-001250SAO  +0138EGUA V0202901N004612200019N0064001N9+00191-00201999999ADDGF100991999999999999999999MW1051
0066036553999991959010815004+51933-001250SAO  +0138EGUA V0202701N004112200019N0048001N9+00191-00201101731ADDGA1001+999999999GF100991999999999999999999MA1999999099931MW1051
0035036553999991959010816004+51933-001250SAO  +0138EGUA V0202701N005112200019N0048001N9+00081-00151999999ADDGF100991999999999999999999MW1051
0035036553999991959010817004+51933-001250SAO  +0138EGUA V0202701N004112200019N0064001N9-00041-00201999999ADDGF100991999999999999999999MW1051
0066036553999991959010818004+51933-001250SAO  +0138EGUA V0202701N004112200019N0128001N9+00021-00201101731ADDGA1001+999999999GF100991999999999999999999MA1999999099931MW1001
0035036553999991959010819004+51933-001250SAO  +0138EGUA V0202701N003112200019N0128001N9-00041-00201999999ADDGF100991999999999999999999MW1001
0035036553999991959010820004+51933-001250SAO  +0138EGUA V0202501N003112200019N0128001N9-00041-00201999999ADDGF100991999999999999999999MW1001
0066036553999991959010821004+51933-001250SAO  +0138EGUA V0202701N003112200019N0144001N9+00021-00201101661ADDGA1001+999999999GF100991999999999999999999MA1999999099861MW1001
0035036553999991959010822004+51933-001250SAO  +0138EGUA V0202701N004612200019N0144001N9+00021-00151999999ADDGF100991999999999999999999MW1001
0035036553999991959010823004+51933-001250SAO  +0138EGUA V0202701N004112200019N0144001N9-00041-00201999999ADDGF100991999999999999999999MW1001
0066036553999991959010900004+51933-001250SAO  +0138EGUA V0202701N004112200019N0144001N9+00021-00151101491ADDGA1001+999999999GF100991999999999999999999MA1999999099701MW1001
0035036553999991959010901004+51933-001250SAO  +0138EGUA V0202501N007212200019N0144001N9-00041-00151999999ADDGF100991999999999999999999MW1001
0035036553999991959010902004+51933-001250SAO  +0138EGUA V0202501N006210105019N0144001N9+00131-00151999999ADDGF107991999999999999999999MW1001
0082036553999991959010903004+51933-001250SAO  +0138EGUA V0202701N006210063019N0064001N9+00131+00021101391ADDGA1061+006309059GA2081+012009059GF108991999999999999999999MA1999999099591MW1711
0035036553999991959010904004+51933-001250SAO  +0138EGUA V0202701N005110120019N0144001N9+00131-00041999999ADDGF108991999999999999999999MW1001
0035036553999991959010905004+51933-001250SAO  +0138EGUA V0202701N005110120019N0176001N9+00081-00091999999ADDGF107991999999999999999999MW1001
0082036553999991959010906004+51933-001250SAO  +0138EGUA V0202701N004612200019N0176001N9+00021-00151101251ADDGA1021+027009039GA2081+220009009GF108991999999999999999999MA1999999099421MW1001
0035036553999991959010907004+51933-001250SAO  +0138EGUA V0202701N005110270019N0176001N9+00081-00201999999ADDGF108991999999999999999999MW1001
0035036553999991959010908004+51933-001250SAO  +0138EGUA V0202701N005112200019N0176001N9+00021-00201999999ADDGF108991999999999999999999MW1001
0082036553999991959010909004+51933-001250SAO  +0138EGUA V0202701N005112200019N0176001N9-00041-00201101251ADDGA1011+027009039GA2021+220009009GF102991999999999999999999MA1999999099461MW1001
0035036553999991959010910004+51933-001250SAO  +0138EGUA V0202901N006212200019N0240001N9+00081-00371999999ADDGF102991999999999999999999MW1001
0035036553999991959010911004+51933-001250SAO  +0138EGUA V0202901N006212200019N0240001N9+00131-00311999999ADDGF100991999999999999999999MW1001
0120036553999991959010912004+51933-001250SAO  +0138EGUA V0202901N007212200019N0128001N9+00131-00371101251ADDAA124000391AJ100039199999999GA1011+220009029GF102991999999999999999999KA1999M+00191KA2999N-00201MA1999999099461MW1001
0035036553999991959010913004+51933-001250SAO  +0138EGUA V0202901N007212200019N0096001N9+00191-00261999999ADDGF102991999999999999999999MW1051
0035036553999991959010914004+51933-001250SAO  +0138EGUA V0202901N006212200019N0080001N9+00191-00201999999ADDGF102991999999999999999999MW1051
0082036553999991959010915004+51933-001250SAO  +0138EGUA V0202701N005112200019N0064001N9+00131-00151101291ADDGA1011+024009039GA2011+220009009GF102991999999999999999999MA1999999099491MW1051
0035036553999991959010916004+51933-001250SAO  +0138EGUA V0202901N006212200019N0040001N9+00021-00151999999ADDGF102991999999999999999999MW1051
0041036553999991959010917004+51933-001250SAO  +0138EGUA V0203201N004112200019N0036001N9-00041-00201999999ADDGF102991999999999999999999MW1051MW2111
0072036553999991959010918004+51933-001250SAO  +0138EGUA V0202901N005112200019N0036001N9-00091-00261101461ADDGA1011+220009009GF102991999999999999999999MA1999999099661MW1051MW2111
0035036553999991959010919004+51933-001250SAO  +0138EGUA V0202901N006712200019N0036001N9-00091-00371999999ADDGF102991999999999999999999MW1051
0035036553999991959010920004+51933-001250SAO  +0138EGUA V0202901N005712200019N0036001N9-00091-00371999999ADDGF102991999999999999999999MW1051
0066036553999991959010921004+51933-001250SAO  +0138EGUA V0203201N005112200019N0036001N9-00091-00371101661ADDGA1021+220009009GF102991999999999999999999MA1999999099861MW1051
0035036553999991959010922004+51933-001250SAO  +0138EGUA V0202901N005112200019N0036001N9-00151-00371999999ADDGF100991999999999999999999MW1051
0035036553999991959010923004+51933-001250SAO  +0138EGUA V0202901N004612200019N0032001N9-00151-00421999999ADDGF100991999999999999999999MW1051
0066036553999991959011000004+51933-001250SAO  +0138EGUA V0202901N005112200019N0032001N9-00201-00421101831ADDGA1001+999999999GF100991999999999999999999MA1999999100031MW1051
0035036553999991959011001004+51933-001250SAO  +0138EGUA V0203201N005112200019N0032001N9-00261-00481999999ADDGF100991999999999999999999MW1051
0035036553999991959011002004+51933-001250SAO  +0138EGUA V0203201N005112200019N0028001N9-00371-00531999999ADDGF100991999999999999999999MW1051
0066036553999991959011003004+51933-001250SAO  +0138EGUA V0203201N005112200019N0028001N9-00311-00481101861ADDGA1001+999999999GF100991999999999999999999MA1999999100071MW1051
0035036553999991959011004004+51933-001250SAO  +0138EGUA V0202901N005112200019N0036001N9-00311-00421999999ADDGF100991999999999999999999MW1051
0035036553999991959011005004+51933-001250SAO  +0138EGUA V0202901N004112200019N0036001N9-00261-00481999999ADDGF100991999999999999999999MW1051
0066036553999991959011006004+51933-001250SAO  +0138EGUA V0202901N004112200019N0036001N9-00261-00481101861ADDGA1011+009009059GF102991999999999999999999MA1999999100071MW1051
0035036553999991959011007004+51933-001250SAO  +0138EGUA V0202701N004112200019N0048001N9-00261-00421999999ADDGF102991999999999999999999MW1051
0035036553999991959011008004+51933-001250SAO  +0138EGUA V0202701N004110210019N0064001N9-00261-00421999999ADDGF107991999999999999999999MW1051
0082036553999991959011009004+51933-001250SAO  +0138EGUA V0202701N002610360019N0096001N9-00261-00481101901ADDGA1021+021009039GA2071+036009039GF107991999999999999999999MA1999999100101MW1051
0035036553999991959011010004+51933-001250SAO  +0138EGUA V0202901N003112200019N0096001N9-00201-00421999999ADDGF102991999999999999999999MW1051
0035036553999991959011011004+51933-001250SAO  +0138EGUA V0202901N003112200019N0080001N9-00041-00371999999ADDGF102991999999999999999999MW1051
0120036553999991959011012004+51933-001250SAO  +0138EGUA V0202701N002612200019N0080001N9+00021-00421101861ADDAA124000091AJ100039199999999GA1011+021009039GF102991999999999999999999KA1999M+00081KA2999N-00371MA1999999100071MW1051
0035036553999991959011013004+51933-001250SAO  +0138EGUA V0202701N005712200019N0080001N9+00081-00481999999ADDGF102991999999999999999999MW1051
0035036553999991959011014004+51933-001250SAO  +0138EGUA V0202901N005112200019N0080001N9+00081-00531999999ADDGF100991999999999999999999MW1051
0066036553999991959011015004+51933-001250SAO  +0138EGUA V0202701N005112200019N0128001N9+00021-00591101731ADDGA1001+999999999GF100991999999999999999999MA1999999099931MW1001
0035036553999991959011016004+51933-001250SAO  +0138EGUA V0202701N004112200019N0128001N9-00091-00261999999ADDGF102991999999999999999999MW1001
0035036553999991959011017004+51933-001250SAO  +0138EGUA V0202901N003112200019N0080001N9-00201-00591999999ADDGF102991999999999999999999MW1051
0066036553999991959011018004+51933-001250SAO  +0138EGUA V0202901N003112200019N0128001N9-00261-00481101691ADDGA1011+021009039GF102991999999999999999999MA1999999099901MW1001
0035036553999991959011019004+51933-001250SAO  +0138EGUA V0202701N002612200019N0128001N9-00311-00531999999ADDGF102991999999999999999999MW1001
0035036553999991959011020004+51933-001250SAO  +0138EGUA V0202701N002112200019N0128001N9-00311-00591999999ADDGF100991999999999999999999MW1001
0066036553999991959011021004+51933-001250SAO  +0138EGUA V0202701N002112200019N0128001N9-00311-00591101661ADDGA1001+999999999GF100991999999999999999999MA1999999099861MW1001
0035036553999991959011022004+51933-001250SAO  +0138EGUA V0203201N002112200019N0128001N9-00311-00591999999ADDGF100991999999999999999999MW1001
0035036553999991959011023004+51933-001250SAO  +0138EGUA V0202701N003112200019N0128001N9-00371-00591999999ADDGF100991999999999999999999MW1001
0066036553999991959011100004+51933-001250SAO  +0138EGUA V0202701N003112200019N0128001N9-00371-00591101491ADDGA1001+999999999GF100991999999999999999999MA1999999099701MW1001
0035036553999991959011101004+51933-001250SAO  +0138EGUA V0202701N004612200019N0128001N9-00371-00591999999ADDGF100991999999999999999999MW1001
0035036553999991959011102004+51933-001250SAO  +0138EGUA V0202701N004612200019N0128001N9-00311-00531999999ADDGF100991999999999999999999MW1001
0066036553999991959011103004+51933-001250SAO  +0138EGUA V0202501N003112200019N0128001N9-00371-00481101391ADDGA1001+999999999GF100991999999999999999999MA1999999099591MW1001
0035036553999991959011104004+51933-001250SAO  +0138EGUA V0202301N003612200019N0176001N9-00371-00481999999ADDGF100991999999999999999999MW1001
0035036553999991959011105004+51933-001250SAO  +0138EGUA V0202301N003112200019N0176001N9-00371-00481999999ADDGF102991999999999999999999MW1001
0066036553999991959011106004+51933-001250SAO  +0138EGUA V0202701N005110210019N0176001N9-00261-00421101191ADDGA1051+021009039GF107991999999999999999999MA1999999099391MW1001
0035036553999991959011107004+51933-001250SAO  +0138EGUA V0202701N006210210019N0048001N9-00201-00261999999ADDGF108991999999999999999999MW1711
0035036553999991959011108004+51933-001250SAO  +0138EGUA V0202301N005710210019N0192001N9-00151-00311999999ADDGF108991999999999999999999MW1001
0098036553999991959011109004+51933-001250SAO  +0138EGUA V0202501N004110210019N0240001N9-00151-00311101081ADDGA1011+006009089GA2031+010509059GA3071+021009039GF107991999999999999999999MA1999999099291MW1001
0035036553999991959011110004+51933-001250SAO  +0138EGUA V0202501N002610210019N0240001N9-00091-00261999999ADDGF107991999999999999999999MW1001
0035036553999991959011111004+51933-001250SAO  +0138EGUA V0202501N003110240019N0176001N9-00091-00311999999ADDGF107991999999999999999999MW1001
0152036553999991959011112004+51933-001250SAO  +0138EGUA V0202501N005712200019N0200001N9+00131-00311100881ADDAA124002091AJ100039199999999GA1011+010509059GA2021+030009039GA3051+220009029GF107991999999999999999999KA1999M+00131KA2999N-00371MA1999999099091MW1001
0035036553999991959011113004+51933-001250SAO  +0138EGUA V0202501N004112200019N0240001N9+00081-00261999999ADDGF107991999999999999999999MW1001
0035036553999991959011114004+51933-001250SAO  +0138EGUA V0202301N005712200019N0176001N9+00131-00151999999ADDGF107991999999999999999999MW1001
0104036553999991959011115004+51933-001250SAO  +0138EGUA V0202701N006210210019N0018001N9+00021-00151100681ADDGA1011+999999999GA2031+009009059GA3081+021009039GF108991999999999999999999MA1999999098921MW1111MW2711
0035036553999991959011116004+51933-001250SAO  +0138EGUA V0202701N007210210019N0128001N9-00041-00151999999ADDGF108991999999999999999999MW1001
0035036553999991959011117004+51933-001250SAO  +0138EGUA V0202701N007212200019N0144001N9-00151-00311999999ADDGF102991999999999999999999MW1001
0066036553999991959011118004+51933-001250SAO  +0138EGUA V0202701N007212200019N0176001N9-00201-00371100681ADDGA1011+220009009GF102991999999999999999999MA1999999098921MW1001
0035036553999991959011119004+51933-001250SAO  +0138EGUA V0202701N007712200019N0176001N9-00261-00531999999ADDGF102991999999999999999999MW1001
0035036553999991959011120004+51933-001250SAO  +0138EGUA V0202701N007710210019N0128001N9-00151-00421999999ADDGF107991999999999999999999MW1711
0082036553999991959011121004+51933-001250SAO  +0138EGUA V0202701N007712200019N0240001N9-00091-00371100641ADDGA1021+021009039GA2061+220009009GF107991999999999999999999MA1999999098881MW1001
0035036553999991959011122004+51933-001250SAO  +0138EGUA V0202701N008212200019N0240001N9-00091-00421999999ADDGF102991999999999999999999MW1001
0035036553999991959011123004+51933-001250SAO  +0138EGUA V0202701N007212200019N0240001N9-00151-00481999999ADDGF102991999999999999999999MW1001
0066036553999991959011200004+51933-001250SAO  +0138EGUA V0202701N007712200019N0240001N9-00201-00421100681ADDGA1011+220009009GF102991999999999999999999MA1999999098921MW1001
0035036553999991959011201004+51933-001250SAO  +0138EGUA V0202701N007712200019N0240001N9-00091-00701999999ADDGF100991999999999999999999MW1001
0035036553999991959011202004+51933-001250SAO  +0138EGUA V0202701N007212200019N0240001N9-00091-00481999999ADDGF100991999999999999999999MW1001
0066036553999991959011203004+51933-001250SAO  +0138EGUA V0202701N008212200019N0240001N9-00091-00481100581ADDGA1001+999999999GF100991999999999999999999MA1999999098811MW1001
0035036553999991959011204004+51933-001250SAO  +0138EGUA V0202701N009312200019N0240001N9-00091-00481999999ADDGF100991999999999999999999MW1001
0035036553999991959011205004+51933-001250SAO  +0138EGUA V0202701N009312200019N0240001N9-00041-00421999999ADDGF100991999999999999999999MW1001
0066036553999991959011206004+51933-001250SAO  +0138EGUA V0202701N010312200019N0240001N9+00021-00371100441ADDGA1001+999999999GF100991999999999999999999MA1999999098681MW1001
0035036553999991959011207004+51933-001250SAO  +0138EGUA V0202501N008212200019N0240001N9+00021-00311999999ADDGF102991999999999999999999MW1001
0035036553999991959011208004+51933-001250SAO  +0138EGUA V0202701N007212200019N0240001N9+00021-00261999999ADDGF107991999999999999999999MW1001
0098036553999991959011209004+51933-001250SAO  +0138EGUA V0202701N007212200019N0240001N9+00021-00201100371ADDGA1021+009009059GA2021+027009039GA3031+220009009GF107991999999999999999999MA1999999098611MW1001
0035036553999991959011210004+51933-001250SAO  +0138EGUA V0202701N007210120019N0240001N9+00081-00091999999ADDGF107991999999999999999999MW1001
0035036553999991959011211004+51933-001250SAO  +0138EGUA V0202701N007210150019N0240001N9+00191-00151999999ADDGF107991999999999999999999MW1001
0168036553999991959011212004+51933-001250SAO  +0138EGUA V0202701N010310045019N0018001N9+00241+00021100341ADDAA124999929AJ100039199999999GA1091+999999999GA2031+001509079GA3061+004509059GA4091+007509059GF108991999999999999999999KA1999M+00301KA2999N-00201MA1999999098581MW1851
0035036553999991959011213004+51933-001250SAO  +0138EGUA V0202701N009310051019N0240001N9+00241-00041999999ADDGF107991999999999999999999MW1001
0035036553999991959011214004+51933-001250SAO  +0138EGUA V0202701N007210051019N0240001N9+00301+00021999999ADDGF107991999999999999999999MW1001
0082036553999991959011215004+51933-001250SAO  +0138EGUA V0202701N006212200019N0240001N9+00301+00081100311ADDGA1021+006009079GA2021+036009039GF102991999999999999999999MA1999999098541MW1001
0035036553999991959011216004+51933-001250SAO  +0138EGUA V0202701N007212200019N0240001N9+00241+00081999999ADDGF102991999999999999999999MW1001
0035036553999991959011217004+51933-001250SAO  +0138EGUA V0202701N005712200019N0176001N9+00191+00021999999ADDGF102991999999999999999999MW1001
0066036553999991959011218004+51933-001250SAO  +0138EGUA V0202701N005112200019N0144001N9+00191-00041100471ADDGA1011+018009049GF102991999999999999999999MA1999999098711MW1001
0035036553999991959011219004+51933-001250SAO  +0138EGUA V0202501N005112200019N0144001N9+00131+00021999999ADDGF100991999999999999999999MW1001
0035036553999991959011220004+51933-001250SAO  +0138EGUA V0202701N004112200019N0128001N9+00081-00091999999ADDGF100991999999999999999999MW1001
0066036553999991959011221004+51933-001250SAO  +0138EGUA V0202901N004112200019N0128001N9+00021-00091100511ADDGA1001+999999999GF100991999999999999999999MA1999999098751MW1001
0035036553999991959011222004+51933-001250SAO  +0138EGUA V0202701N003112200019N0128001N9+00021-00151999999ADDGF100991999999999999999999MW1001
0035036553999991959011223004+51933-001250SAO  +0138EGUA V0202701N004112200019N0128001N9+00021-00151999999ADDGF100991999999999999999999MW1001
0066036553999991959011300004+51933-001250SAO  +0138EGUA V0202901N005112200019N0128001N9+00021-00151100541ADDGA1001+999999999GF100991999999999999999999MA1999999098781MW1001
0035036553999991959011301004+51933-001250SAO  +0138EGUA V0202501N003612200019N0128001N9+00021-00091999999ADDGF100991999999999999999999MW1001
0035036553999991959011302004+51933-001250SAO  +0138EGUA V0202701N003112200019N0128001N9+00021-00091999999ADDGF100991999999999999999999MW1001
0066036553999991959011303004+51933-001250SAO  +0138EGUA V0202501N003112200019N0128001N9-00041-00201100441ADDGA1001+999999999GF100991999999999999999999MA1999999098681MW1001
0035036553999991959011304004+51933-001250SAO  +0138EGUA V0202901N002112200019N0128001N9-00091-00201999999ADDGF100991999999999999999999MW1001
0035036553999991959011305004+51933-001250SAO  +0138EGUA V0202301N002110120019N0128001N9-00091-00311999999ADDGF107991999999999999999999MW1001
0066036553999991959011306004+51933-001250SAO  +0138EGUA V0202501N002110120019N0128001N9-00041-00151100371ADDGA1061+012009059GF107991999999999999999999MA1999999098611MW1001
0035036553999991959011307004+51933-001250SAO  +0138EGUA V0202501N003112200019N0128001N9-00091-00261999999ADDGF102991999999999999999999MW1001
0035036553999991959011308004+51933-001250SAO  +0138EGUA V0202701N002110120019N0096001N9-00091-00201999999ADDGF107991999999999999999999MW1051
0082036553999991959011309004+51933-001250SAO  +0138EGUA V0209991C000010120019N0080001N9-00041-00151100411ADDGA1051+012009059GA2071+027009039GF107991999999999999999999MA1999999098651MW1051
0035036553999991959011310004+51933-001250SAO  +0138EGUA V0209991C000010240019N0064001N9-00041-00151999999ADDGF107991999999999999999999MW1051
0035036553999991959011311004+51933-001250SAO  +0138EGUA V0209991C000010240019N0064001N9+00131-00041999999ADDGF107991999999999999999999MW1051
0103036553999991959011312004+51933-001250SAO  +0138EGUA V0209991C000010240019N0064001N9+00191-00041100411ADDAA124000091GA1071+024009039GF107991999999999999999999KA1999M+00241KA2999N-00481MA1999999098651MW1051
0035036553999991959011313004+51933-001250SAO  +0138EGUA V0209991C000010240019N0064001N9+00191+00021999999ADDGF107991999999999999999999MW1051
0035036553999991959011314004+51933-001250SAO  +0138EGUA V0209991C000012200019N0064001N9+00191-00201999999ADDGF102991999999999999999999MW1051
0066036553999991959011315004+51933-001250SAO  +0138EGUA V0209991C000012200019N0064001N9+00241-00091100311ADDGA1011+024009039GF102991999999999999999999MA1999999098541MW1051
0035036553999991959011316004+51933-001250SAO  +0138EGUA V0209991C000012200019N0064001N9+00191-00041999999ADDGF102991999999999999999999MW1051
0035036553999991959011317004+51933-001250SAO  +0138EGUA V0209991C000012200019N0026001N9+00081-00091999999ADDGF102991999999999999999999MW1051
0088036553999991959011318004+51933-001250SAO  +0138EGUA V0203201N002612200019N0026001N9+00021-00041100411ADDGA1021+999999999GA2011+220009009GF102991999999999999999999MA1999999098651MW1051MW2111
0035036553999991959011319004+51933-001250SAO  +0138EGUA V0209991C000012200019N0008001N9-00151-00201999999ADDGF107991999999999999999999MW1451
0035036553999991959011320004+51933-001250SAO  +0138EGUA V0209991C000012200019N0012001N9-00041-00091999999ADDGF107991999999999999999999MW1451
0066036553999991959011321004+51933-001250SAO  +0138EGUA V0203201N002112200019N0003001N9-00091-00201100511ADDGA1061+999999999GF107991999999999999999999MA1999999098751MW1451
0035036553999991959011322004+51933-001250SAO  +0138EGUA V0203201N003112200019N0005001N9-00091-00151999999ADDGF107991999999999999999999MW1451
0035036553999991959011323004+51933-001250SAO  +0138EGUA V0203201N002112200019N0001001N9-00371-00371999999ADDGF107991999999999999999999MW1451
0066036553999991959011400004+51933-001250SAO  +0138EGUA V0209991C000010001519N0000001N9-00481-00481100511ADDGA1091+000159999GF109991999999999999999999MA1999999098751MW1451
0035036553999991959011401004+51933-001250SAO  +0138EGUA V0209991C000010051019N0003001N9-00421-00421999999ADDGF108991999999999999999999MW1451
0035036553999991959011402004+51933-001250SAO  +0138EGUA V0209991C000010006019N0012001N9-00371-00371999999ADDGF108991999999999999999999MW1451
0082036553999991959011403004+51933-001250SAO  +0138EGUA V0209991C000010075019N0012001N9-00371-00371100441ADDGA1011+999999999GA2081+007509059GF108991999999999999999999MA1999999098681MW1111
0035036553999991959011404004+51933-001250SAO  +0138EGUA V0209991C000012200019N0005001N9-00421-00421999999ADDGF102991999999999999999999MW1111
0035036553999991959011405004+51933-001250SAO  +0138EGUA V0209991C000010001519N0000001N9-00481-00481999999ADDGF108991999999999999999999MW1451
0066036553999991959011406004+51933-001250SAO  +0138EGUA V0209991C000010001519N0001001N9-00421-00421100441ADDGA1091+000159999GF109991999999999999999999MA1999999098681MW1451
0035036553999991959011407004+51933-001250SAO  +0138EGUA V0209991C000010069019N0010001N9-00371-00371999999ADDGF108991999999999999999999MW1111
0035036553999991959011408004+51933-001250SAO  +0138EGUA V0209991C000010063019N0012001N9-00371-00421999999ADDGF107991999999999999999999MW1111
0082036553999991959011409004+51933-001250SAO  +0138EGUA V0209991C000010060019N0001001N9-00531-00531100471ADDGA1061+999999999GA2011+006009059GF107991999999999999999999MA1999999098711MW1451
0035036553999991959011410004+51933-001250SAO  +0138EGUA V0209991C000012200019N0001001N9-00371-00421999999ADDGF107991999999999999999999MW1451
0035036553999991959011411004+51933-001250SAO  +0138EGUA V0200501N002112200019N0001001N9-00311-00371999999ADDGF107991999999999999999999MW1451
0103036553999991959011412004+51933-001250SAO  +0138EGUA V0209991C000012200019N0001001N9-00421-00421100371ADDAA124000091GA1061+999999999GF107991999999999999999999KA1999M-00201KA2999N-00541MA1999999098581MW1451
0035036553999991959011413004+51933-001250SAO  +0138EGUA V0209991C000010003019N0001001N9-00311-00311999999ADDGF108991999999999999999999MW1451
0035036553999991959011414004+51933-001250SAO  +0138EGUA V0209991C000010006019N0005001N9-00261-00261999999ADDGF108991999999999999999999MW1451
0066036553999991959011415004+51933-001250SAO  +0138EGUA V0209991C000010006019N0006001N9-00261-00261100241ADDGA1091+000609999GF109991999999999999999999MA1999999098441MW1451
0035036553999991959011416004+51933-001250SAO  +0138EGUA V0200501N005112200019N0008001N9-00261-00261999999ADDGF107991999999999999999999MW1451
0035036553999991959011417004+51933-001250SAO  +0138EGUA V0200501N005112200019N0012001N9-00201-00261999999ADDGF108991999999999999999999MW1451
0098036553999991959011418004+51933-001250SAO  +0138EGUA V0200201N003612200019N0022001N9-00201-00201100171ADDGA1021+999999999GA2021+006009059GA3081+220009009GF108991999999999999999999MA1999999098411MW1111
0035036553999991959011419004+51933-001250SAO  +0138EGUA V0200201N003112200019N0022001N9-00261-00311999999ADDGF107991999999999999999999MW1111
0035036553999991959011420004+51933-001250SAO  +0138EGUA V0203601N002612200019N0026001N9-00311-00311999999ADDGF108991999999999999999999MW1111
0098036553999991959011421004+51933-001250SAO  +0138EGUA V0200201N003112200019N0026001N9-00371-00371100441ADDGA1011+999999999GA2011+007509059GA3081+220009009GF108991999999999999999999MA1999999098651MW1111
0035036553999991959011422004+51933-001250SAO  +0138EGUA V0203601N003612200019N0018001N9-00311-00311999999ADDGF108991999999999999999999MW1111
0035036553999991959011423004+51933-001250SAO  +0138EGUA V0203601N003612200019N0018001N9-00311-00311999999ADDGF108991999999999999999999MW1111
0066036553999991959011500004+51933-001250SAO  +0138EGUA V0203601N003610009019N0005001N9-00371-00371100611ADDGA1091+000909999GF109991999999999999999999MA1999999098811MW1451
0035036553999991959011501004+51933-001250SAO  +0138EGUA V0200501N002110009019N0003001N9-00311-00311999999ADDGF108991999999999999999999MW1451
0035036553999991959011502004+51933-001250SAO  +0138EGUA V0200501N003110009019N0003001N9-00311-00311999999ADDGF108991999999999999999999MW1451
0082036553999991959011503004+51933-001250SAO  +0138EGUA V0203601N001010180019N0018001N9-00311-00311100711ADDGA1041+999999999GA2081+018009049GF108991999999999999999999MA1999999098951MW1111
0035036553999991959011504004+51933-001250SAO  +0138EGUA V0200501N001510180019N0022001N9-00371-00371999999ADDGF107991999999999999999999MW1111
0035036553999991959011505004+51933-001250SAO  +0138EGUA V0200501N003610180019N0022001N9-00371-00371999999ADDGF107991999999999999999999MW1111
0082036553999991959011506004+51933-001250SAO  +0138EGUA V0200201N004110180019N0022001N9-00371-00371100711ADDGA1031+999999999GA2051+018009039GF107991999999999999999999MA1999999098951MW1111
0035036553999991959011507004+51933-001250SAO  +0138EGUA V0200201N004110180019N0022001N9-00261-00311999999ADDGF107991999999999999999999MW1111
0035036553999991959011508004+51933-001250SAO  +0138EGUA V0200501N004110240019N0026001N9-00371-00371999999ADDGF107991999999999999999999MW1111
0098036553999991959011509004+51933-001250SAO  +0138EGUA V0200201N003612200019N0026001N9-00421-00421101021ADDGA1021+999999999GA2031+024009039GA3061+220009009GF107991999999999999999999MA1999999099221MW1111
0035036553999991959011510004+51933-001250SAO  +0138EGUA V0200201N004112200019N0028001N9-00311-00371999999ADDGF108991999999999999999999MW1111
0035036553999991959011511004+51933-001250SAO  +0138EGUA V0203601N005112200019N0028001N9-00201-00261999999ADDGF107991999999999999999999MW1111
0119036553999991959011512004+51933-001250SAO  +0138EGUA V0203601N004612200019N0032001N9-00151-00201101051ADDAA124000091GA1011+999999999GA2061+220009009GF107991999999999999999999KA1999M-00041KA2999N-00421MA1999999099261MW1111
0035036553999991959011513004+51933-001250SAO  +0138EGUA V0203601N004612200019N0018001N9-00041-00151999999ADDGF107991999999999999999999MW1111
0035036553999991959011514004+51933-001250SAO  +0138EGUA V0203601N003112200019N0018001N9-00091-00201999999ADDGF107991999999999999999999MW1111
0082036553999991959011515004+51933-001250SAO  +0138EGUA V0203401N004112200019N0022001N9-00041-00151101151ADDGA1021+999999999GA2071+220009029GF107991999999999999999999MA1999999099361MW1111
0035036553999991959011516004+51933-001250SAO  +0138EGUA V0203401N004612200019N0008001N9-00151-00201999999ADDGF107991999999999999999999MW1111
0035036553999991959011517004+51933-001250SAO  +0138EGUA V0203401N004610003019N0001001N9-00201-00201999999ADDGF108991999999999999999999MW1451
0066036553999991959011518004+51933-001250SAO  +0138EGUA V0203601N004610006019N0003001N9-00201-00261101461ADDGA1091+000609999GF109991999999999999999999MA1999999099661MW1451
0035036553999991959011519004+51933-001250SAO  +0138EGUA V0203401N003610009019N0005001N9-00151-00201999999ADDGF108991999999999999999999MW1451
0035036553999991959011520004+51933-001250SAO  +0138EGUA V0203201N005110006019N0003001N9-00151-00201999999ADDGF108991999999999999999999MW1451
0066036553999991959011521004+51933-001250SAO  +0138EGUA V0203201N003610006019N0003001N9-00151-00201101691ADDGA1091+000609999GF109991999999999999999999MA1999999099901MW1451
0035036553999991959011522004+51933-001250SAO  +0138EGUA V0203201N006210009019N0003001N9-00151-00261999999ADDGF108991999999999999999999MW1451
0035036553999991959011523004+51933-001250SAO  +0138EGUA V0203201N006210003019N0001001N9-00311-00311999999ADDGF108991999999999999999999MW1451
0066036553999991959011600004+51933-001250SAO  +0138EGUA V0203201N006210003019N0001001N9-00371-00371101831ADDGA1091+000309999GF109991999999999999999999MA1999999100031MW1451
0035036553999991959011601004+51933-001250SAO  +0138EGUA V0203201N005710003019N0001001N9-00371-00371999999ADDGF108991999999999999999999MW1451
0035036553999991959011602004+51933-001250SAO  +0138EGUA V0202901N005710003019N0001001N9-00421-00421999999ADDGF108991999999999999999999MW1451
0066036553999991959011603004+51933-001250SAO  +0138EGUA V0202901N006210003019N0001001N9-00421-00421102071ADDGA1091+000309999GF109991999999999999999999MA1999999100271MW1451
0035036553999991959011604004+51933-001250SAO  +0138EGUA V0202901N005712200019N0005001N9-00421-00421999999ADDGF108991999999999999999999MW1451
0035036553999991959011605004+51933-001250SAO  +0138EGUA V0202901N005112200019N0018001N9-00481-00591999999ADDGF102991999999999999999999MW1111
0066036553999991959011606004+51933-001250SAO  +0138EGUA V0202901N004110003019N0001001N9-00481-00531102241ADDGA1091+000309999GF109991999999999999999999MA1999999100441MW1451
0035036553999991959011607004+51933-001250SAO  +0138EGUA V0202901N004110003019N0001001N9-00481-00481999999ADDGF108991999999999999999999MW1451
0035036553999991959011608004+51933-001250SAO  +0138EGUA V0202901N003610003019N0001001N9-00531-00531999999ADDGF108991999999999999999999MW1451
0082036553999991959011609004+51933-001250SAO  +0138EGUA V0203201N002112200019N0018001N9-00481-00481102471ADDGA1051+999999999GA2061+220009009GF107991999999999999999999MA1999999100581MW1451
0035036553999991959011610004+51933-001250SAO  +0138EGUA V0202701N002112200019N0018001N9-00371-00371999999ADDGF107991999999999999999999MW1451
0035036553999991959011611004+51933-001250SAO  +0138EGUA V0202701N001512200019N0018001N9-00201-00201999999ADDGF107991999999999999999999MW1451
0103036553999991959011612004+51933-001250SAO  +0138EGUA V0202701N003112200019N0032001N9+00131-00311102571ADDAA124000091GA1091+999999999GF102991999999999999999999KA1999M+00131KA2999N-00541MA1999999100781MW1051
0035036553999991959011613004+51933-001250SAO  +0138EGUA V0202901N004612200019N0080001N9+00131-00201999999ADDGF100991999999999999999999MW1051
0035036553999991959011614004+51933-001250SAO  +0138EGUA V0202701N004112200019N0080001N9+00131-00201999999ADDGF100991999999999999999999MW1051
0066036553999991959011615004+51933-001250SAO  +0138EGUA V0202701N004112200019N0080001N9+00021-00151102641ADDGA1091+004509999GF102991999999999999999999MA1999999100851MW1051
0035036553999991959011616004+51933-001250SAO  +0138EGUA V0202901N002112200019N0048001N9-00041-00261999999ADDGF102991999999999999999999MW1051
0035036553999991959011617004+51933-001250SAO  +0138EGUA V0209991C000012200019N0040001N9-00091-00261999999ADDGF102991999999999999999999MW1051
0082036553999991959011618004+51933-001250SAO  +0138EGUA V0209991C000012200019N0040001N9-00151-00311102841ADDGA1091+003009999GA2021+220009009GF102991999999999999999999MA1999999101051MW1051
0035036553999991959011619004+51933-001250SAO  +0138EGUA V0209991C000012200019N0048001N9-00151-00311999999ADDGF102991999999999999999999MW1051
0035036553999991959011620004+51933-001250SAO  +0138EGUA V0209991C000012200019N0064001N9-00151-00311999999ADDGF100991999999999999999999MW1051
0066036553999991959011621004+51933-001250SAO  +0138EGUA V0209991C000012200019N0080001N9-00201-00371102911ADDGA1001+999999999GF100991999999999999999999MA1999999101081MW1051
0035036553999991959011622004+51933-001250SAO  +0138EGUA V0209991C000012200019N0096001N9-00261-00421999999ADDGF100991999999999999999999MW1051
0035036553999991959011623004+51933-001250SAO  +0138EGUA V0209991C000012200019N0064001N9-00261-00421999999ADDGF100991999999999999999999MW1051
0066036553999991959011700004+51933-001250SAO  +0138EGUA V0209991C000012200019N0048001N9-00311-00421102911ADDGA1011+030009039GF102991999999999999999999MA1999999101081MW1051
0035036553999991959011701004+51933-001250SAO  +0138EGUA V0201801N002112200019N0022001N9-00371-00481999999ADDGF102991999999999999999999MW1111
0035036553999991959011702004+51933-001250SAO  +0138EGUA V0202001N002112200019N0012001N9-00371-00371999999ADDGF102991999999999999999999MW1111
0066036553999991959011703004+51933-001250SAO  +0138EGUA V0209991C000012200019N0012001N9-00311-00421102741ADDGA1011+999999999GF102991999999999999999999MA1999999100951MW1111
0035036553999991959011704004+51933-001250SAO  +0138EGUA V0209991C000012200019N0012001N9-00311-00311999999ADDGF102991999999999999999999MW1111
0035036553999991959011705004+51933-001250SAO  +0138EGUA V0209991C000012200019N0012001N9-00421-00421999999ADDGF102991999999999999999999MW1111
0066036553999991959011706004+51933-001250SAO  +0138EGUA V0209991C000012200019N0012001N9-00371-00371102641ADDGA1011+999999999GF102991999999999999999999MA1999999100851MW1111
0035036553999991959011707004+51933-001250SAO  +0138EGUA V0209991C000012200019N0012001N9-00261-00261999999ADDGF107991999999999999999999MW1111
0035036553999991959011708004+51933-001250SAO  +0138EGUA V0201801N002612200019N0012001N9-00201-00371999999ADDGF107991999999999999999999MW1111
0082036553999991959011709004+51933-001250SAO  +0138EGUA V0201601N002112200019N0020001N9-00151-00261102541ADDGA1011+999999999GA2031+220009009GF102991999999999999999999MA1999999100751MW1111
0035036553999991959011710004+51933-001250SAO  +0138EGUA V0201601N001012200019N0022001N9-00041-00201999999ADDGF102991999999999999999999MW1111
0041036553999991959011711004+51933-001250SAO  +0138EGUA V0201601N002110300019N0022001N9+00081-00151999999ADDGF108991999999999999999999MW1111MW2611
0141036553999991959011712004+51933-001250SAO  +0138EGUA V0201601N003610300019N0022001N9+00191-00201102371ADDAA124013091GA1011+999999999GA2051+030009049GA3081+220009009GF108991999999999999999999KA1999M+00581KA2999N-00421MA1999999100581MW1111MW2611
0041036553999991959011713004+51933-001250SAO  +0138EGUA V0201601N006210030019N0026001N9+00301+00131999999ADDGF108991999999999999999999MW1451MW2511
0041036553999991959011714004+51933-001250SAO  +0138EGUA V0201601N005110030019N0022001N9+00301+00301999999ADDGF108991999999999999999999MW1451MW2511
0104036553999991959011715004+51933-001250SAO  +0138EGUA V0201801N004610030019N0022001N9+00411+00301102071ADDGA1021+999999999GA2061+003009079GA3081+027009049GF108991999999999999999999MA1999999100271MW1451MW2611
0041036553999991959011716004+51933-001250SAO  +0138EGUA V0201801N004110030019N0022001N9+00461+00461999999ADDGF108991999999999999999999MW1451MW2611
0041036553999991959011717004+51933-001250SAO  +0138EGUA V0201801N005110030019N0036001N9+00521+00411999999ADDGF108991999999999999999999MW1111MW2611
0088036553999991959011718004+51933-001250SAO  +0138EGUA V0201801N005710024019N0048001N9+00521+00411101831ADDGA1061+002409079GA2081+027009049GF108991999999999999999999MA1999999100031MW1111MW2511
0041036553999991959011719004+51933-001250SAO  +0138EGUA V0201801N006710018019N0048001N9+00581+00461999999ADDGF108991999999999999999999MW1451MW2511
0041036553999991959011720004+51933-001250SAO  +0138EGUA V0201801N005110018019N0032001N9+00581+00521999999ADDGF108991999999999999999999MW1451MW2511
0088036553999991959011721004+51933-001250SAO  +0138EGUA V0201801N006210015019N0018001N9+00581+00521101691ADDGA1021+999999999GA2081+001509079GF108991999999999999999999MA1999999099931MW1451MW2511
0041036553999991959011722004+51933-001250SAO  +0138EGUA V0201801N004610015019N0018001N9+00581+00521999999ADDGF108991999999999999999999MW1451MW2511
0041036553999991959011723004+51933-001250SAO  +0138EGUA V0201801N004610018019N0022001N9+00581+00581999999ADDGF108991999999999999999999MW1451MW2631
0088036553999991959011800004+51933-001250SAO  +0138EGUA V0201801N004110012019N0018001N9+00581+00581101561ADDGA1011+999999999GA2081+001209079GF108991999999999999999999MA1999999099801MW1451MW2511
0041036553999991959011801004+51933-001250SAO  +0138EGUA V0201801N003610012019N0040001N9+00581+00521999999ADDGF108991999999999999999999MW1451MW2511
0041036553999991959011802004+51933-001250SAO  +0138EGUA V0201801N003110030019N0064001N9+00631+00581999999ADDGF108991999999999999999999MW1451MW2511
0072036553999991959011803004+51933-001250SAO  +0138EGUA V0201801N004110030019N0064001N9+00631+00581101391ADDGA1081+003009079GF108991999999999999999999MA1999999099631MW1451MW2511
0041036553999991959011804004+51933-001250SAO  +0138EGUA V0201801N003610015019N0048001N9+00631+00631999999ADDGF108991999999999999999999MW1451MW2511
0041036553999991959011805004+51933-001250SAO  +0138EGUA V0201801N004610021019N0048001N9+00631+00631999999ADDGF108991999999999999999999MW1451MW2511
0072036553999991959011806004+51933-001250SAO  +0138EGUA V0209991C000010021019N0048001N9+00631+00631101321ADDGA1081+002109079GF108991999999999999999999MA1999999099561MW1451MW2511
0041036553999991959011807004+51933-001250SAO  +0138EGUA V0201801N002110021019N0048001N9+00631+00631999999ADDGF108991999999999999999999MW1451MW2511
0041036553999991959011808004+51933-001250SAO  +0138EGUA V0209991C000010021019N0048001N9+00631+00631999999ADDGF108991999999999999999999MW1451MW2511
0082036553999991959011809004+51933-001250SAO  +0138EGUA V0201801N002110018019N0006001N9+00741+00691101321ADDGA1021+999999999GA2081+001809079GF108991999999999999999999MA1999999099561MW1451
0035036553999991959011810004+51933-001250SAO  +0138EGUA V0209991C000010015019N0005001N9+00741+00741999999ADDGF108991999999999999999999MW1451
0035036553999991959011811004+51933-001250SAO  +0138EGUA V0209991C000010009019N0001001N9+00741+00741999999ADDGF108991999999999999999999MW1451
0103036553999991959011812004+51933-001250SAO  +0138EGUA V0201801N003610006019N0001001N9+00801+00801101221ADDAA124000391GA1091+000609999GF109991999999999999999999KA1999M+00911KA2999N+00581MA1999999099461MW1451
0035036553999991959011813004+51933-001250SAO  +0138EGUA V0201801N003110006019N0001001N9+00851+00801999999ADDGF108991999999999999999999MW1451
0035036553999991959011814004+51933-001250SAO  +0138EGUA V0201801N003110006019N0001001N9+00851+00851999999ADDGF108991999999999999999999MW1451
0114036553999991959011815004+51933-001250SAO  +0138EGUA V0201601N003110150019N0040001N9+00851+00851101071ADDGA1011+999999999GA2011+000909079GA3061+015009059GA4061+220009009GF107991999999999999999999MA1999999099361MW1111
0035036553999991959011816004+51933-001250SAO  +0138EGUA V0201601N002110150019N0020001N9+00851+00851999999ADDGF108991999999999999999999MW1111
0035036553999991959011817004+51933-001250SAO  +0138EGUA V0201601N001010150019N0080001N9+00911+00801999999ADDGF108991999999999999999999MW1051
0088036553999991959011818004+51933-001250SAO  +0138EGUA V0201601N004110030019N0024001N9+00851+00741101111ADDGA1061+003009079GA2081+015009059GF108991999999999999999999MA1999999099391MW1051MW2451
0041036553999991959011819004+51933-001250SAO  +0138EGUA V0201801N004610015019N0012001N9+00911+00911999999ADDGF108991999999999999999999MW1451MW2511
0035036553999991959011820004+51933-001250SAO  +0138EGUA V0201801N005110015019N0018001N9+00911+00911999999ADDGF108991999999999999999999MW1451
0098036553999991959011821004+51933-001250SAO  +0138EGUA V0201801N005710150019N0128001N9+00911+00741101011ADDGA1031+002109079GA2061+015009059GA3081+220009029GF108991999999999999999999MA1999999099291MW1001
0035036553999991959011822004+51933-001250SAO  +0138EGUA V0201801N006710150019N0128001N9+00911+00691999999ADDGF108991999999999999999999MW1001
0035036553999991959011823004+51933-001250SAO  +0138EGUA V0201601N006710027019N0128001N9+00851+00691999999ADDGF108991999999999999999999MW1001
0098036553999991959011900004+51933-001250SAO  +0138EGUA V0201601N006210210019N0128001N9+00741+00631100801ADDGA1011+002709079GA2051+021009049GA3081+220009029GF108991999999999999999999MA1999999099091MW1001
0035036553999991959011901004+51933-001250SAO  +0138EGUA V0201601N006210180019N0128001N9+00741+00581999999ADDGF108991999999999999999999MW1001
0035036553999991959011902004+51933-001250SAO  +0138EGUA V0201601N005710105019N0128001N9+00691+00461999999ADDGF108991999999999999999999MW1001
0088036553999991959011903004+51933-001250SAO  +0138EGUA V0201601N005710090019N0096001N9+00631+00521100531ADDGA1031+003609079GA2081+009009059GF108991999999999999999999MA1999999098851MW1051MW2801
0041036553999991959011904004+51933-001250SAO  +0138EGUA V0201601N004110027019N0096001N9+00691+00631999999ADDGF108991999999999999999999MW1051MW2611
0035036553999991959011905004+51933-001250SAO  +0138EGUA V0201801N005110036019N0128001N9+00691+00581999999ADDGF108991999999999999999999MW1001
0066036553999991959011906004+51933-001250SAO  +0138EGUA V0201801N005110111019N0128001N9+00691+00521100331ADDGA1081+011109059GF108991999999999999999999MA1999999098651MW1001
0035036553999991959011907004+51933-001250SAO  +0138EGUA V0201801N006210093019N0128001N9+00631+00521999999ADDGF108991999999999999999999MW1001
0035036553999991959011908004+51933-001250SAO  +0138EGUA V0201601N007210093019N0128001N9+00691+00461999999ADDGF108991999999999999999999MW1001
0098036553999991959011909004+51933-001250SAO  +0138EGUA V0201601N006210099019N0128001N9+00691+00461100061ADDGA1051+009909059GA2031+024009039GA3081+220009009GF108991999999999999999999MA1999999098371MW1001
0035036553999991959011910004+51933-001250SAO  +0138EGUA V0201601N007210150019N0096001N9+00741+00521999999ADDGF108991999999999999999999MW1051
0035036553999991959011911004+51933-001250SAO  +0138EGUA V0201801N007210150019N0128001N9+00801+00581999999ADDGF108991999999999999999999MW1001
0135036553999991959011912004+51933-001250SAO  +0138EGUA V0201801N007210150019N0128001N9+00911+00691099851ADDAA124006091GA1031+006009059GA2061+015009059GA3081+030009039GF108991999999999999999999KA1999M+00961KA2999N+00631MA1999999098171MW1611
0041036553999991959011913004+51933-001250SAO  +0138EGUA V0201801N007210150019N0080001N9+00961+00691999999ADDGF108991999999999999999999MW1051MW2611
0041036553999991959011914004+51933-001250SAO  +0138EGUA V0201801N007210084019N0048001N9+00911+00801999999ADDGF108991999999999999999999MW1111MW2611
0072036553999991959011915004+51933-001250SAO  +0138EGUA V0201801N007210036019N0048001N9+00911+00741099651ADDGA1081+003609059GF108991999999999999999999MA1999999097971MW1451MW2611
0047036553999991959011916004+51933-001250SAO  +0138EGUA V0201601N006210036019N0064001N9+00851+00741999999ADDGF108991999999999999999999MW1051MW2111MW3611
0035036553999991959011917004+51933-001250SAO  +0138EGUA V0201601N007210036019N0064001N9+00851+00801999999ADDGF108991999999999999999999MW1451
0066036553999991959011918004+51933-001250SAO  +0138EGUA V0201801N006210036019N0128001N9+00911+00801099481ADDGA1081+003609059GF108991999999999999999999MA1999999097801MW1611
0035036553999991959011919004+51933-001250SAO  +0138EGUA V0201801N005710039019N0128001N9+00961+00801999999ADDGF108991999999999999999999MW1001
0035036553999991959011920004+51933-001250SAO  +0138EGUA V0201801N005110036019N0128001N9+00961+00851999999ADDGF108991999999999999999999MW1611
0082036553999991959011921004+51933-001250SAO  +0138EGUA V0201801N006210033019N0128001N9+00961+00851099311ADDGA1061+003309059GA2081+006609059GF108991999999999999999999MA1999999097631MW1611
0035036553999991959011922004+51933-001250SAO  +0138EGUA V0201801N006210036019N0128001N9+00961+00851999999ADDGF108991999999999999999999MW1611
0035036553999991959011923004+51933-001250SAO  +0138EGUA V0201801N004610210019N0128001N9+00961+00801999999ADDGF108991999999999999999999MW1001
0098036553999991959012000004+51933-001250SAO  +0138EGUA V0201801N005110210019N0128001N9+00911+00801099211ADDGA1021+004509059GA2031+007509059GA3081+021009049GF108991999999999999999999MA1999999097531MW1001
0035036553999991959012001004+51933-001250SAO  +0138EGUA V0201801N007210210019N0128001N9+00911+00741999999ADDGF108991999999999999999999MW1611
0041036553999991959012002004+51933-001250SAO  +0138EGUA V0201801N005110210019N0096001N9+00851+00741999999ADDGF108991999999999999999999MW1051MW2611
0088036553999991959012003004+51933-001250SAO  +0138EGUA V0201801N004610072019N0096001N9+00851+00801098911ADDGA1051+007209059GA2081+021009049GF108991999999999999999999MA1999999097261MW1051MW2611
0041036553999991959012004004+51933-001250SAO  +0138EGUA V0201801N004610072019N0096001N9+00801+00691999999ADDGF108991999999999999999999MW1051MW2611
0035036553999991959012005004+51933-001250SAO  +0138EGUA V0201801N005710210019N0128001N9+00741+00581999999ADDGF108991999999999999999999MW1001
0066036553999991959012006004+51933-001250SAO  +0138EGUA V0201801N003610084019N0128001N9+00741+00581098701ADDGA1081+008409059GF108991999999999999999999MA1999999097051MW1611
0035036553999991959012007004+51933-001250SAO  +0138EGUA V0201601N003110045019N0128001N9+00741+00521999999ADDGF108991999999999999999999MW1611
0035036553999991959012008004+51933-001250SAO  +0138EGUA V0201601N004110105019N0128001N9+00801+00521999999ADDGF108991999999999999999999MW1001
0104036553999991959012009004+51933-001250SAO  +0138EGUA V0201401N003110024019N0080001N9+00801+00521098571ADDGA1051+002409079GA2021+010509059GA3021+021009049GF108991999999999999999999MA1999999096921MW1051MW2611
0047036553999991959012010004+51933-001250SAO  +0138EGUA V0202001N003110024019N0040001N9+00631+00521999999ADDGF108991999999999999999999MW1051MW2451MW3611
0047036553999991959012011004+51933-001250SAO  +0138EGUA V0201801N002110066019N0064001N9+00691+00581999999ADDGF108991999999999999999999MW1051MW2451MW3611
0125036553999991959012012004+51933-001250SAO  +0138EGUA V0209991C000010072019N0040001N9+00691+00631098401ADDAA124023091GA1031+001509079GA2081+007209059GF108991999999999999999999KA1999M+00911KA2999N+00631MA1999999096751MW1451MW2631
0035036553999991959012013004+51933-001250SAO  +0138EGUA V0201801N003110360019N0144001N9+00741+00461999999ADDGF107991999999999999999999MW1001
0035036553999991959012014004+51933-001250SAO  +0138EGUA V0201801N004610027019N0144001N9+00801+00581999999ADDGF108991999999999999999999MW1611
0104036553999991959012015004+51933-001250SAO  +0138EGUA V0201801N005710027019N0080001N9+00741+00521097991ADDGA1061+002709079GA2061+009009059GA3031+030009039GF108991999999999999999999MA1999999096341MW1051MW2611
0035036553999991959012016004+51933-001250SAO  +0138EGUA V0201801N006210036019N0200001N9+00691+00521999999ADDGF107991999999999999999999MW1001
0035036553999991959012017004+51933-001250SAO  +0138EGUA V0201801N005110300019N0176001N9+00631+00461999999ADDGF107991999999999999999999MW1001
0098036553999991959012018004+51933-001250SAO  +0138EGUA V0201601N006210105019N0144001N9+00691+00581097961ADDGA1041+005109079GA2061+010509059GA3021+030009039GF108991999999999999999999MA1999999096281MW1801
0041036553999991959012019004+51933-001250SAO  +0138EGUA V0201601N007210039019N0096001N9+00631+00521999999ADDGF108991999999999999999999MW1051MW2611
0035036553999991959012020004+51933-001250SAO  +0138EGUA V0201801N005110039019N0096001N9+00631+00521999999ADDGF108991999999999999999999MW1051
0104036553999991959012021004+51933-001250SAO  +0138EGUA V0202001N008210060019N0096001N9+00691+00461097821ADDGA1031+003909079GA2051+006009059GA3081+010509059GF108991999999999999999999MA1999999096171MW1051MW2611
0035036553999991959012022004+51933-001250SAO  +0138EGUA V0202301N005110075019N0096001N9+00691+00461999999ADDGF108991999999999999999999MW1051
0035036553999991959012023004+51933-001250SAO  +0138EGUA V0202001N008710075019N0096001N9+00741+00411999999ADDGF108991999999999999999999MW1051
0082036553999991959012100004+51933-001250SAO  +0138EGUA V0202001N009310075019N0096001N9+00691+00521098231ADDGA1041+004509079GA2081+007509059GF108991999999999999999999MA1999999096551MW1051
0041036553999991959012101004+51933-001250SAO  +0138EGUA V0202001N010310045019N0096001N9+00691+00461999999ADDGF108991999999999999999999MW1051MW2611
0035036553999991959012102004+51933-001250SAO  +0138EGUA V0202301N009310090019N0144001N9+00631+00351999999ADDGF108991999999999999999999MW1001
0098036553999991959012103004+51933-001250SAO  +0138EGUA V0202001N007710090019N0160001N9+00691+00351098481ADDGA1021+005109079GA2051+009009059GA3061+021009039GF107991999999999999999999MA1999999096781MW1001
0035036553999991959012104004+51933-001250SAO  +0138EGUA V0202001N007710105019N0176001N9+00631+00301999999ADDGF107991999999999999999999MW1001
0035036553999991959012105004+51933-001250SAO  +0138EGUA V0202001N007710105019N0160001N9+00581+00351999999ADDGF107991999999999999999999MW1001
0082036553999991959012106004+51933-001250SAO  +0138EGUA V0202001N007710105019N0176001N9+00581+00301098711ADDGA1021+005109079GA2071+010509059GF107991999999999999999999MA1999999097021MW1001
0035036553999991959012107004+51933-001250SAO  +0138EGUA V0201801N004612200019N0176001N9+00581+00241999999ADDGF102991999999999999999999MW1001
0035036553999991959012108004+51933-001250SAO  +0138EGUA V0201801N007212200019N0160001N9+00521+00241999999ADDGF107991999999999999999999MW1001
0082036553999991959012109004+51933-001250SAO  +0138EGUA V0201801N006212200019N0176001N9+00581+00241098951ADDGA1011+010509059GA2061+220009009GF107991999999999999999999MA1999999097261MW1001
0035036553999991959012110004+51933-001250SAO  +0138EGUA V0202001N005712200019N0176001N9+00581+00191999999ADDGF107991999999999999999999MW1001
0035036553999991959012111004+51933-001250SAO  +0138EGUA V0202001N005112200019N0176001N9+00631+00241999999ADDGF107991999999999999999999MW1001
0135036553999991959012112004+51933-001250SAO  +0138EGUA V0201801N004610300019N0176001N9+00741+00461099151ADDAA124011091GA1011+004509059GA2071+030009039GA3081+220009009GF108991999999999999999999KA1999M+00911KA2999N+00521MA1999999097431MW1001
0035036553999991959012113004+51933-001250SAO  +0138EGUA V0202001N006210300019N0176001N9+00801+00521999999ADDGF108991999999999999999999MW1001
0041036553999991959012114004+51933-001250SAO  +0138EGUA V0201801N003110240019N0080001N9+00741+00521999999ADDGF108991999999999999999999MW1051MW2511
0088036553999991959012115004+51933-001250SAO  +0138EGUA V0201601N004110060019N0064001N9+00741+00521098951ADDGA1061+006009059GA2081+024009039GF108991999999999999999999MA1999999097261MW1051MW2611
0041036553999991959012116004+51933-001250SAO  +0138EGUA V0201601N006710015019N0018001N9+00741+00581999999ADDGF108991999999999999999999MW1451MW2611
0041036553999991959012117004+51933-001250SAO  +0138EGUA V0201801N005110024019N0064001N9+00741+00581999999ADDGF108991999999999999999999MW1051MW2611
0072036553999991959012118004+51933-001250SAO  +0138EGUA V0201801N007710024019N0064001N9+00911+00851098671ADDGA1081+002409079GF108991999999999999999999MA1999999096991MW1051MW2611
0035036553999991959012119004+51933-001250SAO  +0138EGUA V0201801N008210027019N0128001N9+00911+00851999999ADDGF108991999999999999999999MW1611
0035036553999991959012120004+51933-001250SAO  +0138EGUA V0201801N007210033019N0176001N9+00911+00801999999ADDGF108991999999999999999999MW1001
0072036553999991959012121004+51933-001250SAO  +0138EGUA V0201801N007710030019N0080001N9+00911+00851098671ADDGA1081+003009079GF108991999999999999999999MA1999999097021MW1051MW2611
0035036553999991959012122004+51933-001250SAO  +0138EGUA V0201801N006710075019N0176001N9+00851+00801999999ADDGF107991999999999999999999MW1001
0035036553999991959012123004+51933-001250SAO  +0138EGUA V0201801N005710075019N0176001N9+00801+00741999999ADDGF107991999999999999999999MW1001
0082036553999991959012200004+51933-001250SAO  +0138EGUA V0201801N005710060019N0128001N9+00851+00801098601ADDGA1031+003009079GA2081+006009059GF108991999999999999999999MA1999999096951MW1611
0035036553999991959012201004+51933-001250SAO  +0138EGUA V0201801N007210096019N0128001N9+00911+00741999999ADDGF108991999999999999999999MW1001
0035036553999991959012202004+51933-001250SAO  +0138EGUA V0201801N006210042019N0128001N9+00911+00741999999ADDGF108991999999999999999999MW1611
0082036553999991959012203004+51933-001250SAO  +0138EGUA V0201801N007210030019N0128001N9+00961+00801098431ADDGA1051+003009079GA2081+009609059GF108991999999999999999999MA1999999096781MW1611
0035036553999991959012204004+51933-001250SAO  +0138EGUA V0201801N005110045019N0128001N9+00961+00801999999ADDGF108991999999999999999999MW1611
0041036553999991959012205004+51933-001250SAO  +0138EGUA V0201801N006710039019N0096001N9+00961+00851999999ADDGF108991999999999999999999MW1051MW2611
0098036553999991959012206004+51933-001250SAO  +0138EGUA V0201601N007710042019N0128001N9+00911+00801098061ADDGA1011+002409079GA2061+004209079GA3081+010509059GF108991999999999999999999MA1999999096411MW1611
0041036553999991959012207004+51933-001250SAO  +0138EGUA V0201801N008210048019N0096001N9+00961+00851999999ADDGF108991999999999999999999MW1051MW2611
0035036553999991959012208004+51933-001250SAO  +0138EGUA V0201801N007210051019N0128001N9+00961+00851999999ADDGF108991999999999999999999MW1611
0098036553999991959012209004+51933-001250SAO  +0138EGUA V0201801N010310045019N0128001N9+00961+00691097861ADDGA1051+004509079GA2021+010509059GA3051+024009039GF108991999999999999999999MA1999999096211MW1611
0041036553999991959012210004+51933-001250SAO  +0138EGUA V0202001N012310045019N0080001N9+00911+00691999999ADDGF108991999999999999999999MW1051MW2611
0041036553999991959012211004+51933-001250SAO  +0138EGUA V0202001N007210045019N0096001N9+00851+00741999999ADDGF108991999999999999999999MW1051MW2611
0125036553999991959012212004+51933-001250SAO  +0138EGUA V0202001N006210045019N0096001N9+01021+00741097961ADDAA124013091GA1071+004509079GA2081+012009059GF108991999999999999999999KA1999M+01021KA2999N+00241MA1999999096311MW1051MW2611
0035036553999991959012213004+51933-001250SAO  +0138EGUA V0202001N011810054019N0128001N9+01021+00691999999ADDGF108991999999999999999999MW1001
0035036553999991959012214004+51933-001250SAO  +0138EGUA V0202001N008710120019N0144001N9+01021+00691999999ADDGF107991999999999999999999MW1001
0088036553999991959012215004+51933-001250SAO  +0138EGUA V0202001N007210060019N0096001N9+01021+00741098061ADDGA1051+006009059GA2081+012009059GF108991999999999999999999MA1999999096411MW1051MW2611
0035036553999991959012216004+51933-001250SAO  +0138EGUA V0202001N008710060019N0128001N9+00961+00741999999ADDGF108991999999999999999999MW1001
0041036553999991959012217004+51933-001250SAO  +0138EGUA V0202301N007210036019N0026001N9+00911+00801999999ADDGF108991999999999999999999MW1051MW2611
0082036553999991959012218004+51933-001250SAO  +0138EGUA V0202701N005110120019N0080001N9+00741+00631098331ADDGA1021+003609079GA2061+012009059GF107991999999999999999999MA1999999096681MW1051
0035036553999991959012219004+51933-001250SAO  +0138EGUA V0203201N006210120019N0064001N9+00521+00411999999ADDGF108991999999999999999999MW1051
0035036553999991959012220004+51933-001250SAO  +0138EGUA V0203201N003110120019N0064001N9+00461+00351999999ADDGF108991999999999999999999MW1051
0088036553999991959012221004+51933-001250SAO  +0138EGUA V0203201N004110021019N0064001N9+00351+00241099091ADDGA1051+002109079GA2081+003609079GF108991999999999999999999MA1999999097391MW1051MW2611
0041036553999991959012222004+51933-001250SAO  +0138EGUA V0203201N005110024019N0028001N9+00301+00191999999ADDGF108991999999999999999999MW1451MW2611
0035036553999991959012223004+51933-001250SAO  +0138EGUA V0203201N005110021019N0026001N9+00241+00191999999ADDGF108991999999999999999999MW1451
0066036553999991959012300004+51933-001250SAO  +0138EGUA V0203201N006210180019N0176001N9+00241-00091099801ADDGA1061+018009059GF107991999999999999999999MA1999999098071MW1001
0035036553999991959012301004+51933-001250SAO  +0138EGUA V0202901N004112200019N0176001N9+00131-00041999999ADDGF102991999999999999999999MW1001
0035036553999991959012302004+51933-001250SAO  +0138EGUA V0202501N001512200019N0176001N9+00081-00091999999ADDGF100991999999999999999999MW1001
0066036553999991959012303004+51933-001250SAO  +0138EGUA V0202301N003112200019N0176001N9+00081-00151100271ADDGA1001+999999999GF100991999999999999999999MA1999999098541MW1001
0035036553999991959012304004+51933-001250SAO  +0138EGUA V0202001N002112200019N0176001N9+00021-00151999999ADDGF100991999999999999999999MW1001
0035036553999991959012305004+51933-001250SAO  +0138EGUA V0202501N001512200019N0176001N9+00021-00151999999ADDGF100991999999999999999999MW1001
0066036553999991959012306004+51933-001250SAO  +0138EGUA V0209991C000012200019N0176001N9+00021-00261100511ADDGA1001+999999999GF100991999999999999999999MA1999999098781MW1001
0035036553999991959012307004+51933-001250SAO  +0138EGUA V0209991C000012200019N0176001N9+00021-00201999999ADDGF102991999999999999999999MW1001
0035036553999991959012308004+51933-001250SAO  +0138EGUA V0201801N001512200019N0144001N9-00041-00201999999ADDGF102991999999999999999999MW1001
0082036553999991959012309004+51933-001250SAO  +0138EGUA V0201801N001512200019N0128001N9+00021-00201100911ADDGA1011+024009039GA2011+220009009GF102991999999999999999999MA1999999099151MW1001
0035036553999991959012310004+51933-001250SAO  +0138EGUA V0201801N003112200019N0128001N9+00081-00151999999ADDGF107991999999999999999999MW1001
0035036553999991959012311004+51933-001250SAO  +0138EGUA V0201801N003112200019N0144001N9+00241-00091999999ADDGF107991999999999999999999MW1001
0119036553999991959012312004+51933-001250SAO  +0138EGUA V0202001N002110240019N0144001N9+00301-00091100951ADDAA124002091GA1061+024009039GA2081+220009009GF108991999999999999999999KA1999M+00301KA2999N-00041MA1999999099191MW1001
0035036553999991959012313004+51933-001250SAO  +0138EGUA V0202001N003110240019N0128001N9+00301-00091999999ADDGF108991999999999999999999MW1001
0041036553999991959012314004+51933-001250SAO  +0138EGUA V0202701N002110015019N0006001N9+00081-00041999999ADDGF108991999999999999999999MW1451MW2731
0098036553999991959012315004+51933-001250SAO  +0138EGUA V0209991C000010120019N0048001N9+00191+00081101121ADDGA1011+002109079GA2051+012009059GA3071+220009029GF107991999999999999999999MA1999999099321MW1051
0035036553999991959012316004+51933-001250SAO  +0138EGUA V0202501N001510270019N0064001N9+00191+00081999999ADDGF107991999999999999999999MW1051
0035036553999991959012317004+51933-001250SAO  +0138EGUA V0202701N003110300019N0064001N9+00081-00041999999ADDGF107991999999999999999999MW1051
0082036553999991959012318004+51933-001250SAO  +0138EGUA V0202701N003110300019N0064001N9+00081-00041101221ADDGA1051+030009039GA2051+220009009GF107991999999999999999999MA1999999099421MW1051
0035036553999991959012319004+51933-001250SAO  +0138EGUA V0202701N002610300019N0064001N9+00081-00041999999ADDGF107991999999999999999999MW1051
0035036553999991959012320004+51933-001250SAO  +0138EGUA V0202701N004110300019N0096001N9+00081-00091999999ADDGF107991999999999999999999MW1051
0082036553999991959012321004+51933-001250SAO  +0138EGUA V0202701N004610300019N0096001N9+00081-00201101491ADDGA1051+030009039GA2051+220009009GF107991999999999999999999MA1999999099701MW1051
0035036553999991959012322004+51933-001250SAO  +0138EGUA V0202701N004112200019N0176001N9+00081-00151999999ADDGF102991999999999999999999MW1001
0035036553999991959012323004+51933-001250SAO  +0138EGUA V0202701N005112200019N0240001N9+00081-00201999999ADDGF100991999999999999999999MW1001
0066036553999991959012400004+51933-001250SAO  +0138EGUA V0202701N005112200019N0240001N9+00131-00261101731ADDGA1001+999999999GF100991999999999999999999MA1999999099971MW1001
0035036553999991959012401004+51933-001250SAO  +0138EGUA V0202701N005112200019N0240001N9+00081-00201999999ADDGF100991999999999999999999MW1001
0035036553999991959012402004+51933-001250SAO  +0138EGUA V0202701N004112200019N0240001N9+00081-00201999999ADDGF100991999999999999999999MW1001
0066036553999991959012403004+51933-001250SAO  +0138EGUA V0202701N004112200019N0240001N9+00081-00201102071ADDGA1001+999999999GF100991999999999999999999MA1999999100271MW1001
0035036553999991959012404004+51933-001250SAO  +0138EGUA V0202901N004612200019N0240001N9+00081-00261999999ADDGF100991999999999999999999MW1001
0035036553999991959012405004+51933-001250SAO  +0138EGUA V0202901N005112200019N0240001N9+00021-00261999999ADDGF100991999999999999999999MW1001
0066036553999991959012406004+51933-001250SAO  +0138EGUA V0202901N004112200019N0240001N9-00041-00201102301ADDGA1001+999999999GF100991999999999999999999MA1999999100511MW1001
0035036553999991959012407004+51933-001250SAO  +0138EGUA V0202901N003612200019N0240001N9-00091-00201999999ADDGF100991999999999999999999MW1001
0035036553999991959012408004+51933-001250SAO  +0138EGUA V0202901N003612200019N0240001N9-00041-00151999999ADDGF102991999999999999999999MW1001
0066036553999991959012409004+51933-001250SAO  +0138EGUA V0202901N002612200019N0128001N9-00041-00151102711ADDGA1021+220009029GF102991999999999999999999MA1999999100911MW1001
0035036553999991959012410004+51933-001250SAO  +0138EGUA V0203201N003112200019N0128001N9+00191-00091999999ADDGF102991999999999999999999MW1001
0035036553999991959012411004+51933-001250SAO  +0138EGUA V0202901N002612200019N0096001N9+00301-00041999999ADDGF102991999999999999999999MW1051
0103036553999991959012412004+51933-001250SAO  +0138EGUA V0203201N003112200019N0080001N9+00411+00021102981ADDAA124000091GA1021+220009029GF102991999999999999999999KA1999M+00411KA2999N-00091MA1999999101191MW1051
0035036553999991959012413004+51933-001250SAO  +0138EGUA V0203401N004112200019N0064001N9+00411-00091999999ADDGF102991999999999999999999MW1051
0035036553999991959012414004+51933-001250SAO  +0138EGUA V0203401N003612200019N0064001N9+00411-00091999999ADDGF102991999999999999999999MW1051
0066036553999991959012415004+51933-001250SAO  +0138EGUA V0203401N002612200019N0064001N9+00351-00261102981ADDGA1011+220009029GF102991999999999999999999MA1999999101191MW1051
0035036553999991959012416004+51933-001250SAO  +0138EGUA V0209991C000012200019N0064001N9+00351-00201999999ADDGF100991999999999999999999MW1051
0035036553999991959012417004+51933-001250SAO  +0138EGUA V0209991C000012200019N0064001N9+00191-00261999999ADDGF100991999999999999999999MW1051
0066036553999991959012418004+51933-001250SAO  +0138EGUA V0209991C000012200019N0064001N9+00131-00201103221ADDGA1001+999999999GF100991999999999999999999MA1999999101391MW1051
0035036553999991959012419004+51933-001250SAO  +0138EGUA V0202901N002112200019N0048001N9+00081-00261999999ADDGF100991999999999999999999MW1051
0035036553999991959012420004+51933-001250SAO  +0138EGUA V0202701N002112200019N0064001N9+00081-00311999999ADDGF100991999999999999999999MW1051
0066036553999991959012421004+51933-001250SAO  +0138EGUA V0209991C000012200019N0064001N9+00021-00261103321ADDGA1001+999999999GF100991999999999999999999MA1999999101491MW1051
0035036553999991959012422004+51933-001250SAO  +0138EGUA V0202901N002112200019N0064001N9-00091-00311999999ADDGF100991999999999999999999MW1051
0035036553999991959012423004+51933-001250SAO  +0138EGUA V0209991C000012200019N0064001N9-00041-00311999999ADDGF100991999999999999999999MW1051
0066036553999991959012500004+51933-001250SAO  +0138EGUA V0209991C000012200019N0064001N9-00091-00311103421ADDGA1001+999999999GF100991999999999999999999MA1999999101591MW1051
0035036553999991959012501004+51933-001250SAO  +0138EGUA V0202901N002112200019N0064001N9-00151-00311999999ADDGF100991999999999999999999MW1051
0035036553999991959012502004+51933-001250SAO  +0138EGUA V0203201N002112200019N0064001N9-00151-00311999999ADDGF100991999999999999999999MW1051
0066036553999991959012503004+51933-001250SAO  +0138EGUA V0203201N002112200019N0064001N9-00151-00311103421ADDGA1001+999999999GF100991999999999999999999MA1999999101591MW1051
0035036553999991959012504004+51933-001250SAO  +0138EGUA V0203201N002612200019N0096001N9-00151-00311999999ADDGF100991999999999999999999MW1051
0035036553999991959012505004+51933-001250SAO  +0138EGUA V0202901N002612200019N0128001N9-00151-00311999999ADDGF102991999999999999999999MW1001
0066036553999991959012506004+51933-001250SAO  +0138EGUA V0203201N002612200019N0128001N9-00201-00311103491ADDGA1011+220009009GF102991999999999999999999MA1999999101661MW1001
0035036553999991959012507004+51933-001250SAO  +0138EGUA V0203201N002612200019N0128001N9-00201-00311999999ADDGF102991999999999999999999MW1001
0035036553999991959012508004+51933-001250SAO  +0138EGUA V0209991C000012200019N0128001N9-00201-00311999999ADDGF102991999999999999999999MW1001
0066036553999991959012509004+51933-001250SAO  +0138EGUA V0202901N002112200019N0128001N9-00091-00261103621ADDGA1011+220009009GF102991999999999999999999MA1999999101791MW1001
0035036553999991959012510004+51933-001250SAO  +0138EGUA V0209991C000012200019N0080001N9+00081+00021999999ADDGF102991999999999999999999MW1051
0035036553999991959012511004+51933-001250SAO  +0138EGUA V0202901N001512200019N0080001N9+00241-00091999999ADDGF102991999999999999999999MW1051
0103036553999991959012512004+51933-001250SAO  +0138EGUA V0202901N002112200019N0080001N9+00351-00041103661ADDAA124000091GA1011+220009009GF102991999999999999999999KA1999M+00581KA2999N-00201MA1999999101831MW1051
0035036553999991959012513004+51933-001250SAO  +0138EGUA V0209991C000012200019N0064001N9+00581+00081999999ADDGF102991999999999999999999MW1051
0035036553999991959012514004+51933-001250SAO  +0138EGUA V0209991C000012200019N0064001N9+00351-00091999999ADDGF107991999999999999999999MW1051
0066036553999991959012515004+51933-001250SAO  +0138EGUA V0209991C000012200019N0064001N9+00351-00261103491ADDGA1061+220009009GF107991999999999999999999MA1999999101661MW1051
0035036553999991959012516004+51933-001250SAO  +0138EGUA V0209991C000012200019N0064001N9+00351-00371999999ADDGF107991999999999999999999MW1051
0035036553999991959012517004+51933-001250SAO  +0138EGUA V0209991C000012200019N0064001N9+00301-00201999999ADDGF107991999999999999999999MW1051
0066036553999991959012518004+51933-001250SAO  +0138EGUA V0209991C000012200019N0064001N9+00191-00261103731ADDGA1031+220009009GF102991999999999999999999MA1999999101901MW1051
0035036553999991959012519004+51933-001250SAO  +0138EGUA V0209991C000012200019N0064001N9+00191-00201999999ADDGF102991999999999999999999MW1051
0035036553999991959012520004+51933-001250SAO  +0138EGUA V0209991C000012200019N0064001N9+00131-00151999999ADDGF102991999999999999999999MW1051
0066036553999991959012521004+51933-001250SAO  +0138EGUA V0209991C000012200019N0064001N9-00041-00261103761ADDGA1011+220009009GF102991999999999999999999MA1999999101931MW1051
0035036553999991959012522004+51933-001250SAO  +0138EGUA V0209991C000012200019N0048001N9-00041-00311999999ADDGF100991999999999999999999MW1051
0035036553999991959012523004+51933-001250SAO  +0138EGUA V0209991C000012200019N0048001N9-00041-00311999999ADDGF100991999999999999999999MW1051
0066036553999991959012600004+51933-001250SAO  +0138EGUA V0209991C000012200019N0040001N9-00091-00311103831ADDGA1001+999999999GF100991999999999999999999MA1999999102001MW1051
0035036553999991959012601004+51933-001250SAO  +0138EGUA V0200701N002112200019N0036001N9-00151-00311999999ADDGF100991999999999999999999MW1051
0035036553999991959012602004+51933-001250SAO  +0138EGUA V0200901N002112200019N0064001N9-00151-00371999999ADDGF100991999999999999999999MW1051
0066036553999991959012603004+51933-001250SAO  +0138EGUA V0200901N001512200019N0064001N9-00151-00371103831ADDGA1001+999999999GF100991999999999999999999MA1999999102001MW1051
0035036553999991959012604004+51933-001250SAO  +0138EGUA V0200901N002112200019N0064001N9-00201-00481999999ADDGF100991999999999999999999MW1051
0035036553999991959012605004+51933-001250SAO  +0138EGUA V0200701N003112200019N0064001N9-00201-00421999999ADDGF100991999999999999999999MW1051
0066036553999991959012606004+51933-001250SAO  +0138EGUA V0200701N003112200019N0064001N9-00261-00371103661ADDGA1001+999999999GF100991999999999999999999MA1999999101831MW1051
0035036553999991959012607004+51933-001250SAO  +0138EGUA V0209991C000012200019N0026001N9-00201-00311999999ADDGF102991999999999999999999MW1111
0035036553999991959012608004+51933-001250SAO  +0138EGUA V0209991C000012200019N0012001N9-00261-00311999999ADDGF102991999999999999999999MW1111
0066036553999991959012609004+51933-001250SAO  +0138EGUA V0209991C000012200019N0012001N9-00201-00261103761ADDGA1021+999999999GF102991999999999999999999MA1999999101931MW1111
0035036553999991959012610004+51933-001250SAO  +0138EGUA V0200901N002612200019N0012001N9-00041-00201999999ADDGF102991999999999999999999MW1111
0035036553999991959012611004+51933-001250SAO  +0138EGUA V0200901N002112200019N0018001N9+00191-00261999999ADDGF102991999999999999999999MW1051
0103036553999991959012612004+51933-001250SAO  +0138EGUA V0200901N002112200019N0018001N9+00241-00091103791ADDAA124000091GA1091+999999999GF102991999999999999999999KA1999M+00461KA2999N-00261MA1999999101961MW1051
0035036553999991959012613004+51933-001250SAO  +0138EGUA V0201401N004112200019N0036001N9+00411+00131999999ADDGF102991999999999999999999MW1051
0035036553999991959012614004+51933-001250SAO  +0138EGUA V0201101N004112200019N0080001N9+00461+00131999999ADDGF100991999999999999999999MW1051
0066036553999991959012615004+51933-001250SAO  +0138EGUA V0201401N003112200019N0080001N9+00461+00081103591ADDGA1001+999999999GF100991999999999999999999MA1999999101761MW1051
0035036553999991959012616004+51933-001250SAO  +0138EGUA V0200901N003112200019N0040001N9+00351+00021999999ADDGF102991999999999999999999MW1051
0035036553999991959012617004+51933-001250SAO  +0138EGUA V0200701N002610001519N0000001N9-00091-00091999999ADDGF108991999999999999999999MW1451
0066036553999991959012618004+51933-001250SAO  +0138EGUA V0200901N004110001519N0000001N9-00091-00091103521ADDGA1091+000159999GF109991999999999999999999MA1999999101691MW1451
0035036553999991959012619004+51933-001250SAO  +0138EGUA V0201101N004610001519N0000001N9-00091-00091999999ADDGF108991999999999999999999MW1451
0035036553999991959012620004+51933-001250SAO  +0138EGUA V0201101N004110001519N0000001N9-00151-00151999999ADDGF108991999999999999999999MW1451
0066036553999991959012621004+51933-001250SAO  +0138EGUA V0200901N004112200019N0018001N9-00091-00151103451ADDGA1021+999999999GF102991999999999999999999MA1999999101631MW1111
0035036553999991959012622004+51933-001250SAO  +0138EGUA V0200901N003612200019N0026001N9-00091-00091999999ADDGF102991999999999999999999MW1111
0035036553999991959012623004+51933-001250SAO  +0138EGUA V0200901N002112200019N0026001N9-00091-00151999999ADDGF102991999999999999999999MW1111
0082036553999991959012700004+51933-001250SAO  +0138EGUA V0200901N003612200019N0026001N9-00041-00091103491ADDGA1021+999999999GA2011+220009009GF102991999999999999999999MA1999999101661MW1111
0035036553999991959012701004+51933-001250SAO  +0138EGUA V0200901N004112200019N0026001N9-00091-00151999999ADDGF102991999999999999999999MW1111
0035036553999991959012702004+51933-001250SAO  +0138EGUA V0200901N004112200019N0026001N9-00091-00151999999ADDGF102991999999999999999999MW1111
0082036553999991959012703004+51933-001250SAO  +0138EGUA V0200901N004112200019N0026001N9-00091-00151103391ADDGA1021+999999999GA2051+220009009GF107991999999999999999999MA1999999101591MW1111
0035036553999991959012704004+51933-001250SAO  +0138EGUA V0200901N004112200019N0026001N9-00091-00201999999ADDGF102991999999999999999999MW1111
0035036553999991959012705004+51933-001250SAO  +0138EGUA V0200901N002112200019N0026001N9-00091-00201999999ADDGF102991999999999999999999MW1111
0066036553999991959012706004+51933-001250SAO  +0138EGUA V0200901N003112200019N0026001N9-00091-00201103291ADDGA1021+999999999GF102991999999999999999999MA1999999101461MW1111
0035036553999991959012707004+51933-001250SAO  +0138EGUA V0200901N002112200019N0026001N9-00091-00201999999ADDGF102991999999999999999999MW1111
0035036553999991959012708004+51933-001250SAO  +0138EGUA V0200901N002112200019N0020001N9-00091-00201999999ADDGF102991999999999999999999MW1111
0082036553999991959012709004+51933-001250SAO  +0138EGUA V0200701N003112200019N0032001N9-00091-00201103351ADDGA1011+999999999GA2011+220009009GF102991999999999999999999MA1999999101521MW1111
