0066036553999991961010100004+51933-001250SAO  +0133EGUA V0202001N004112200019N0128001N9+00241+00081100851ADDGA1011+220009009GF102991999999999999999999MA1999999099091MW1001
0035036553999991961010101004+51933-001250SAO  +0133EGUA V0202001N003612200019N0176001N9+00191+00021999999ADDGF100991999999999999999999MW1001
0035036553999991961010102004+51933-001250SAO  +0133EGUA V0202001N003112200019N0176001N9+00131-00041999999ADDGF100991999999999999999999MW1001
0066036553999991961010103004+51933-001250SAO  +0133EGUA V0202001N004112200019N0176001N9+00131+00021100881ADDGA1001+999999999GF100991999999999999999999MA1999999099121MW1001
0035036553999991961010104004+51933-001250SAO  +0133EGUA V0202001N002612200019N0176001N9+00131+00021999999ADDGF102991999999999999999999MW1001
0035036553999991961010105004+51933-001250SAO  +0133EGUA V0202001N003612200019N0176001N9+00081+00021999999ADDGF102991999999999999999999MW1001
0082036553999991961010106004+51933-001250SAO  +0133EGUA V0202301N004612200019N0176001N9+00131+00021100751ADDGA1021+030009039GA2031+220009009GF107991999999999999999999MA1999999099021MW1001
0035036553999991961010107004+51933-001250SAO  +0133EGUA V0202301N006210072019N0128001N9+00191-00041999999ADDGF107991999999999999999999MW1611
0035036553999991961010108004+51933-001250SAO  +0133EGUA V0202301N005110300019N0176001N9+00191+00021999999ADDGF108991999999999999999999MW1001
0133036553999991961010109004+51933-001250SAO  +0133EGUA V0202301N005110300019N0200001N9+00301+00131100811ADDGA1999+006009999GA2021+009009059GA3061+030009049GA4021+220009009GF108991999999999999999999MA1999999099051MW1001EQDQ01    003SCCGA1
0035036553999991961010110004+51933-001250SAO  +0133EGUA V0202001N004612200019N0176001N9+00351+00131999999ADDGF108991999999999999999999MW1001
0035036553999991961010111004+51933-001250SAO  +0133EGUA V0202001N005112200019N0176001N9+00411+00191999999ADDGF107991999999999999999999MW1001
0135036553999991961010112004+51933-001250SAO  +0133EGUA V0202301N005710270019N0176001N9+00461+00301100811ADDAA124004091GA1021+012009059GA2031+027009039GA3031+220009009GF107991999999999999999999KA1999M+00691KA2999N+00081MA1999999099051MW1001
0035036553999991961010113004+51933-001250SAO  +0133EGUA V0202301N005712200019N0200001N9+00631+00301999999ADDGF108991999999999999999999MW1001
0035036553999991961010114004+51933-001250SAO  +0133EGUA V0202001N004112200019N0176001N9+00581+00301999999ADDGF108991999999999999999999MW1001
0098036553999991961010115004+51933-001250SAO  +0133EGUA V0201801N004612200019N0176001N9+00581+00241100611ADDGA1021+012009059GA2021+024009049GA3081+220009009GF108991999999999999999999MA1999999098881MW1001
0035036553999991961010116004+51933-001250SAO  +0133EGUA V0201801N005110240019N0176001N9+00581+00241999999ADDGF108991999999999999999999MW1001
0035036553999991961010117004+51933-001250SAO  +0133EGUA V0201801N005110300019N0128001N9+00521+00241999999ADDGF108991999999999999999999MW1001
0082036553999991961010118004+51933-001250SAO  +0133EGUA V0201801N005110300019N0128001N9+00581+00241100311ADDGA1061+030009049GA2081+220009029GF108991999999999999999999MA1999999098581MW1001
0035036553999991961010119004+51933-001250SAO  +0133EGUA V0201801N007210300019N0096001N9+00581+00351999999ADDGF108991999999999999999999MW1611
0035036553999991961010120004+51933-001250SAO  +0133EGUA V0201801N005710060019N0096001N9+00631+00411999999ADDGF108991999999999999999999MW1611
0082036553999991961010121004+51933-001250SAO  +0133EGUA V0201801N008210042019N0128001N9+00581+00411099971ADDGA1021+002109079GA2081+004209079GF108991999999999999999999MA1999999098241MW1611
0035036553999991961010122004+51933-001250SAO  +0133EGUA V0201801N007210120019N0176001N9+00581+00351999999ADDGF107991999999999999999999MW1001
0035036553999991961010123004+51933-001250SAO  +0133EGUA V0201801N004110018019N0096001N9+00631+00461999999ADDGF108991999999999999999999MW1611
0066036553999991961010200004+51933-001250SAO  +0133EGUA V0201801N004110024019N0176001N9+00691+00521099631ADDGA1081+002409079GF108991999999999999999999MA1999999097901MW1611
0035036553999991961010201004+51933-001250SAO  +0133EGUA V0201801N003610024019N0176001N9+00691+00521999999ADDGF108991999999999999999999MW1611
0035036553999991961010202004+51933-001250SAO  +0133EGUA V0202301N003612200019N0176001N9+00691+00351999999ADDGF102991999999999999999999MW1001
0066036553999991961010203004+51933-001250SAO  +0133EGUA V0202301N003112200019N0176001N9+00461+00351099561ADDGA1001+999999999GF100991999999999999999999MA1999999097831MW1001
0035036553999991961010204004+51933-001250SAO  +0133EGUA V0202501N003612200019N0176001N9+00411+00241999999ADDGF102991999999999999999999MW1001
0035036553999991961010205004+51933-001250SAO  +0133EGUA V0202501N003112200019N0176001N9+00411+00241999999ADDGF102991999999999999999999MW1001
0082036553999991961010206004+51933-001250SAO  +0133EGUA V0202001N003612200019N0144001N9+00301+00191099531ADDGA1021+007509059GA2051+220009009GF107991999999999999999999MA1999999097801MW1001
0035036553999991961010207004+51933-001250SAO  +0133EGUA V0202301N004112200019N0176001N9+00241+00191999999ADDGF102991999999999999999999MW1001
0035036553999991961010208004+51933-001250SAO  +0133EGUA V0202301N003612200019N0144001N9+00301+00131999999ADDGF107991999999999999999999MW1001
0098036553999991961010209004+51933-001250SAO  +0133EGUA V0202301N002612200019N0128001N9+00351+00191099531ADDGA1011+010509059GA2041+027009049GA3041+220009009GF107991999999999999999999MA1999999097801MW1001
0035036553999991961010210004+51933-001250SAO  +0133EGUA V0202001N006210240019N0128001N9+00411+00191999999ADDGF108991999999999999999999MW1001
0035036553999991961010211004+51933-001250SAO  +0133EGUA V0202001N005110240019N0128001N9+00461+00241999999ADDGF108991999999999999999999MW1001
0135036553999991961010212004+51933-001250SAO  +0133EGUA V0201801N005110240019N0128001N9+00521+00301099391ADDAA124003091GA1021+006009059GA2021+015009059GA3081+024009049GF108991999999999999999999KA1999M+00691KA2999N+00241MA1999999097661MW1611
0035036553999991961010213004+51933-001250SAO  +0133EGUA V0202001N004610240019N0128001N9+00581+00351999999ADDGF108991999999999999999999MW1611
0035036553999991961010214004+51933-001250SAO  +0133EGUA V0201801N004610300019N0128001N9+00631+00351999999ADDGF108991999999999999999999MW1611
0117036553999991961010215004+51933-001250SAO  +0133EGUA V0201801N003610084019N0128001N9+00631+00301099091ADDGA1999+002409999GA2071+008409059GA3011+220009029GF108991999999999999999999MA1999999097361MW1611EQDQ01    003SCCGA1
0035036553999991961010216004+51933-001250SAO  +0133EGUA V0201801N003110054019N0096001N9+00581+00351999999ADDGF108991999999999999999999MW1051
0035036553999991961010217004+51933-001250SAO  +0133EGUA V0201601N004110060019N0096001N9+00521+00301999999ADDGF107991999999999999999999MW1051
0082036553999991961010218004+51933-001250SAO  +0133EGUA V0201601N004610210019N0096001N9+00521+00301098441ADDGA1021+007509059GA2051+021009039GF107991999999999999999999MA1999999096751MW1051
0035036553999991961010219004+51933-001250SAO  +0133EGUA V0201401N004110210019N0096001N9+00461+00301999999ADDGF108991999999999999999999MW1051
0041036553999991961010220004+51933-001250SAO  +0133EGUA V0201401N005110090019N0080001N9+00461+00351999999ADDGF108991999999999999999999MW1051MW2611
0088036553999991961010221004+51933-001250SAO  +0133EGUA V0201801N004610090019N0080001N9+00461+00411097971ADDGA1041+004509059GA2081+009009059GF108991999999999999999999MA1999999096281MW1051MW2611
0035036553999991961010222004+51933-001250SAO  +0133EGUA V0202501N005710045019N0176001N9+00521+00241999999ADDGF108991999999999999999999MW1001
0035036553999991961010223004+51933-001250SAO  +0133EGUA V0202501N003612200019N0176001N9+00411+00131999999ADDGF102991999999999999999999MW1001
0066036553999991961010300004+51933-001250SAO  +0133EGUA V0202501N004612200019N0176001N9+00301-00041097901ADDGA1001+999999999GF100991999999999999999999MA1999999096211MW1001
0035036553999991961010301004+51933-001250SAO  +0133EGUA V0202301N004112200019N0176001N9+00191-00091999999ADDGF102991999999999999999999MW1001
0035036553999991961010302004+51933-001250SAO  +0133EGUA V0202301N004612200019N0176001N9+00131-00151999999ADDGF100991999999999999999999MW1001
0066036553999991961010303004+51933-001250SAO  +0133EGUA V0202301N003612200019N0176001N9+00081-00201097901ADDGA1001+999999999GF100991999999999999999999MA1999999096211MW1001
0035036553999991961010304004+51933-001250SAO  +0133EGUA V0202001N003612200019N0176001N9+00081-00201999999ADDGF100991999999999999999999MW1001
0035036553999991961010305004+51933-001250SAO  +0133EGUA V0202001N004112200019N0176001N9+00021-00151999999ADDGF102991999999999999999999MW1001
0082036553999991961010306004+51933-001250SAO  +0133EGUA V0202001N005112200019N0176001N9+00081-00151097901ADDGA1021+006009059GA2021+015009059GF102991999999999999999999MA1999999096211MW1001
0035036553999991961010307004+51933-001250SAO  +0133EGUA V0202301N006710060019N0128001N9+00131+00021999999ADDGF108991999999999999999999MW1511
0041036553999991961010308004+51933-001250SAO  +0133EGUA V0202001N005110060019N0096001N9+00131-00041999999ADDGF108991999999999999999999MW1511MW2611
0088036553999991961010309004+51933-001250SAO  +0133EGUA V0202001N008710009019N0012001N9+00191+00021097901ADDGA1051+000909079GA2081+003009059GF108991999999999999999999MA1999999096211MW1451MW2711
0041036553999991961010310004+51933-001250SAO  +0133EGUA V0202001N007210015019N0026001N9+00131+00131999999ADDGF108991999999999999999999MW1111MW2711
0035036553999991961010311004+51933-001250SAO  +0133EGUA V0202301N007710021019N0240001N9+00191+00081999999ADDGF108991999999999999999999MW1001
0103036553999991961010312004+51933-001250SAO  +0133EGUA V0202301N006710027019N0240001N9+00191+00131097971ADDAA124006091GA1081+002709059GF108991999999999999999999KA1999M+00461KA2999N+00021MA1999999096281MW1001
0035036553999991961010313004+51933-001250SAO  +0133EGUA V0202301N006210030019N0240001N9+00301+00191999999ADDGF107991999999999999999999MW1001
0035036553999991961010314004+51933-001250SAO  +0133EGUA V0202301N006210120019N0240001N9+00351+00131999999ADDGF107991999999999999999999MW1001
0098036553999991961010315004+51933-001250SAO  +0133EGUA V0202001N004110360019N0240001N9+00351+00131097871ADDGA1031+002409079GA2051+036009049GA3071+220009029GF107991999999999999999999MA1999999096171MW1001
0041036553999991961010316004+51933-001250SAO  +0133EGUA V0201801N006210036019N0064001N9+00351+00131999999ADDGF108991999999999999999999MW1051MW2611
0047036553999991961010317004+51933-001250SAO  +0133EGUA V0202001N005110024019N0064001N9+00191+00081999999ADDGF108991999999999999999999MW1051MW2611MW3711
0082036553999991961010318004+51933-001250SAO  +0133EGUA V0202001N002110009019N0096001N9+00191+00131097901ADDGA1051+000909079GA2081+002409079GF108991999999999999999999MA1999999096171MW1511
0035036553999991961010319004+51933-001250SAO  +0133EGUA V0203201N005710027019N0128001N9+00301+00081999999ADDGF108991999999999999999999MW1001
0041036553999991961010320004+51933-001250SAO  +0133EGUA V0202901N005712200019N0048001N9+00241+00021999999ADDGF108991999999999999999999MW1041MW2111
0072036553999991961010321004+51933-001250SAO  +0133EGUA V0202701N006210021019N0048001N9+00241+00081098141ADDGA1081+002109079GF108991999999999999999999MA1999999096441MW1451MW2611
0035036553999991961010322004+51933-001250SAO  +0133EGUA V0202701N008210045019N0128001N9+00411+00191999999ADDGF108991999999999999999999MW1001
0035036553999991961010323004+51933-001250SAO  +0133EGUA V0202901N010310300019N0176001N9+00461+00081999999ADDGF108991999999999999999999MW1001
0082036553999991961010400004+51933-001250SAO  +0133EGUA V0202901N009310063019N0176001N9+00461+00021098311ADDGA1051+006309059GA2081+030009039GF108991999999999999999999MA1999999096611MW1001
0035036553999991961010401004+51933-001250SAO  +0133EGUA V0202901N008210063019N0176001N9+00461+00191999999ADDGF108991999999999999999999MW1001
0035036553999991961010402004+51933-001250SAO  +0133EGUA V0202901N008210057019N0176001N9+00461+00131999999ADDGF108991999999999999999999MW1001
0066036553999991961010403004+51933-001250SAO  +0133EGUA V0203201N005710057019N0176001N9+00461+00131098651ADDGA1081+005709059GF108991999999999999999999MA1999999096951MW1001
0035036553999991961010404004+51933-001250SAO  +0133EGUA V0203201N005110057019N0144001N9+00461+00081999999ADDGF108991999999999999999999MW1001
0035036553999991961010405004+51933-001250SAO  +0133EGUA V0202901N006210051019N0128001N9+00411+00131999999ADDGF108991999999999999999999MW1001
0072036553999991961010406004+51933-001250SAO  +0133EGUA V0203201N006210051019N0128001N9+00411+00131098921ADDGA1081+005109059GF108991999999999999999999MA1999999097221MW1801MW2851
0035036553999991961010407004+51933-001250SAO  +0133EGUA V0203201N005110045019N0128001N9+00411+00131999999ADDGF108991999999999999999999MW1001
0035036553999991961010408004+51933-001250SAO  +0133EGUA V0203201N004612200019N0128001N9+00301+00021999999ADDGF107991999999999999999999MW1001
0082036553999991961010409004+51933-001250SAO  +0133EGUA V0203401N008710057019N0128001N9+00351+00081099421ADDGA1071+005709059GA2021+220009029GF108991999999999999999999MA1999999097701MW1001
0035036553999991961010410004+51933-001250SAO  +0133EGUA V0203201N007210057019N0096001N9+00411+00081999999ADDGF108991999999999999999999MW1051
0035036553999991961010411004+51933-001250SAO  +0133EGUA V0203201N007210105019N0128001N9+00411+00081999999ADDGF107991999999999999999999MW1001
0135036553999991961010412004+51933-001250SAO  +0133EGUA V0203201N009810105019N0080001N9+00461+00081099731ADDAA124999929GA1021+004509079GA2061+010509059GA3011+220009009GF108991999999999999999999KA1999M+00521KA2999N+00191MA1999999098001MW1051
0035036553999991961010413004+51933-001250SAO  +0133EGUA V0203201N008710063019N0064001N9+00461+00081999999ADDGF108991999999999999999999MW1051
0035036553999991961010414004+51933-001250SAO  +0133EGUA V0203201N009810120019N0064001N9+00521+00081999999ADDGF108991999999999999999999MW1051
0114036553999991961010415004+51933-001250SAO  +0133EGUA V0203401N007710120019N0080001N9+00461+00081100101ADDGA1011+003609079GA2021+006309089GA3051+012009059GA4021+220009009GF107991999999999999999999MA1999999098371MW1051
0035036553999991961010416004+51933-001250SAO  +0133EGUA V0203201N007210090019N0080001N9+00461+00021999999ADDGF108991999999999999999999MW1051
0035036553999991961010417004+51933-001250SAO  +0133EGUA V0203401N007210084019N0048001N9+00411+00021999999ADDGF108991999999999999999999MW1051
0066036553999991961010418004+51933-001250SAO  +0133EGUA V0203401N007210084019N0064001N9+00411+00021100441ADDGA1071+008409059GF107991999999999999999999MA1999999098711MW1051
0035036553999991961010419004+51933-001250SAO  +0133EGUA V0203201N007712200019N0048001N9+00411+00021999999ADDGF102991999999999999999999MW1051
0035036553999991961010420004+51933-001250SAO  +0133EGUA V0203201N007212200019N0064001N9+00411-00041999999ADDGF107991999999999999999999MW1051
0082036553999991961010421004+51933-001250SAO  +0133EGUA V0203201N006210135019N0096001N9+00411+00021100751ADDGA1021+009009059GA2061+013509059GF107991999999999999999999MA1999999099021MW1051
0035036553999991961010422004+51933-001250SAO  +0133EGUA V0203201N005112200019N0096001N9+00301+00021999999ADDGF102991999999999999999999MW1051
0035036553999991961010423004+51933-001250SAO  +0133EGUA V0203201N004612200019N0064001N9+00241-00041999999ADDGF102991999999999999999999MW1051
0066036553999991961010500004+51933-001250SAO  +0133EGUA V0203201N004112200019N0064001N9+00191+00081101191ADDGA1011+220009009GF102991999999999999999999MA1999999099421MW1051
0035036553999991961010501004+51933-001250SAO  +0133EGUA V0203201N003612200019N0064001N9+00131-00091999999ADDGF102991999999999999999999MW1051
0035036553999991961010502004+51933-001250SAO  +0133EGUA V0202901N003112200019N0064001N9+00131-00151999999ADDGF102991999999999999999999MW1051
0066036553999991961010503004+51933-001250SAO  +0133EGUA V0202701N001512200019N0064001N9+00131-00151101351ADDGA1031+220009029GF102991999999999999999999MA1999999099591MW1051
0035036553999991961010504004+51933-001250SAO  +0133EGUA V0202701N002612200019N0064001N9+00131-00091999999ADDGF102991999999999999999999MW1051
0035036553999991961010505004+51933-001250SAO  +0133EGUA V0202301N003612200019N0096001N9+00131-00201999999ADDGF100991999999999999999999MW1051
0066036553999991961010506004+51933-001250SAO  +0133EGUA V0202301N003112200019N0096001N9+00131-00261101421ADDGA1001+999999999GF100991999999999999999999MA1999999099661MW1051
0035036553999991961010507004+51933-001250SAO  +0133EGUA V0202001N002112200019N0096001N9+00021-00311999999ADDGF102991999999999999999999MW1051
0035036553999991961010508004+51933-001250SAO  +0133EGUA V0202001N004612200019N0080001N9-00041-00311999999ADDGF107991999999999999999999MW1051
0082036553999991961010509004+51933-001250SAO  +0133EGUA V0202301N003612200019N0080001N9+00021-00151101421ADDGA1021+030009039GA2051+220009029GF107991999999999999999999MA1999999099661MW1051
0035036553999991961010510004+51933-001250SAO  +0133EGUA V0202001N005112200019N0080001N9+00131-00151999999ADDGF108991999999999999999999MW1051
0035036553999991961010511004+51933-001250SAO  +0133EGUA V0202001N005112200019N0048001N9+00191-00041999999ADDGF108991999999999999999999MW1051
0135036553999991961010512004+51933-001250SAO  +0133EGUA V0202001N005712200019N0080001N9+00301+00021101291ADDAA124004091GA1021+015009059GA2021+036009039GA3081+220009029GF108991999999999999999999KA1999M+00631KA2999N-00041MA1999999099531MW1051
0035036553999991961010513004+51933-001250SAO  +0133EGUA V0202001N005110240019N0096001N9+00411+00021999999ADDGF108991999999999999999999MW1051
0035036553999991961010514004+51933-001250SAO  +0133EGUA V0202001N006210240019N0128001N9+00411+00131999999ADDGF108991999999999999999999MW1001
0098036553999991961010515004+51933-001250SAO  +0133EGUA V0202001N005110063019N0128001N9+00461+00191100951ADDGA1051+006309059GA2051+042009049GA3061+220009029GF108991999999999999999999MA1999999099191MW1001
0035036553999991961010516004+51933-001250SAO  +0133EGUA V0201801N005110300019N0080001N9+00521+00191999999ADDGF108991999999999999999999MW1051
0035036553999991961010517004+51933-001250SAO  +0133EGUA V0201801N006210240019N0096001N9+00521+00301999999ADDGF108991999999999999999999MW1051
0098036553999991961010518004+51933-001250SAO  +0133EGUA V0201801N005110240019N0128001N9+00581+00301100411ADDGA1021+015009059GA2061+024009049GA3081+220009029GF108991999999999999999999MA1999999098681MW1001
0035036553999991961010519004+51933-001250SAO  +0133EGUA V0201801N006210036019N0128001N9+00581+00411999999ADDGF108991999999999999999999MW1611
0035036553999991961010520004+51933-001250SAO  +0133EGUA V0202301N013410030019N0064001N9+00631+00461999999ADDGF108991999999999999999999MW1631
0098036553999991961010521004+51933-001250SAO  +0133EGUA V0202301N006210090019N0176001N9+00521+00411099701ADDGA1021+006009059GA2061+009009059GA3081+015009059GF108991999999999999999999MA1999999097971MW1001
0035036553999991961010522004+51933-001250SAO  +0133EGUA V0202301N006210240019N0176001N9+00521+00301999999ADDGF107991999999999999999999MW1001
0035036553999991961010523004+51933-001250SAO  +0133EGUA V0202301N005110180019N0176001N9+00461+00241999999ADDGF107991999999999999999999MW1001
0066036553999991961010600004+51933-001250SAO  +0133EGUA V0202301N005110210019N0176001N9+00411+00131099701ADDGA1061+021009039GF107991999999999999999999MA1999999097971MW1001
0035036553999991961010601004+51933-001250SAO  +0133EGUA V0202301N006710210019N0128001N9+00411+00131999999ADDGF108991999999999999999999MW1001
0035036553999991961010602004+51933-001250SAO  +0133EGUA V0202501N007710210019N0176001N9+00411+00081999999ADDGF107991999999999999999999MW1001
0082036553999991961010603004+51933-001250SAO  +0133EGUA V0202501N007710072019N0176001N9+00411+00081099631ADDGA1051+007209059GA2081+021009039GF108991999999999999999999MA1999999097901MW1611
0035036553999991961010604004+51933-001250SAO  +0133EGUA V0202701N010310072019N0240001N9+00461+00081999999ADDGF108991999999999999999999MW1611
0035036553999991961010605004+51933-001250SAO  +0133EGUA V0202701N008710210019N0240001N9+00411+00021999999ADDGF107991999999999999999999MW1001
0082036553999991961010606004+51933-001250SAO  +0133EGUA V0202501N003112200019N0240001N9+00411+00021099631ADDGA1021+024009039GA2011+220009009GF102991999999999999999999MA1999999097901MW1001
0035036553999991961010607004+51933-001250SAO  +0133EGUA V0202501N007712200019N0240001N9+00351-00041999999ADDGF102991999999999999999999MW1001
0035036553999991961010608004+51933-001250SAO  +0133EGUA V0202701N007712200019N0200001N9+00351+00021999999ADDGF107991999999999999999999MW1001
0082036553999991961010609004+51933-001250SAO  +0133EGUA V0202701N007710084019N0200001N9+00411+00021099651ADDGA1051+008409059GA2041+220009009GF107991999999999999999999MA1999999097931MW1001
0035036553999991961010610004+51933-001250SAO  +0133EGUA V0202701N009310075019N0200001N9+00461+00081999999ADDGF107991999999999999999999MW1001
0035036553999991961010611004+51933-001250SAO  +0133EGUA V0202701N010810051019N0240001N9+00521+00131999999ADDGF108991999999999999999999MW1001
0103036553999991961010612004+51933-001250SAO  +0133EGUA V0202901N008710042019N0240001N9+00521+00131099831ADDAA124000391GA1081+004209059GF108991999999999999999999KA1999M+00581KA2999N+00241MA1999999098101MW1001
0035036553999991961010613004+51933-001250SAO  +0133EGUA V0202901N007710042019N0240001N9+00581+00191999999ADDGF108991999999999999999999MW1001
0035036553999991961010614004+51933-001250SAO  +0133EGUA V0202901N007210042019N0176001N9+00581+00191999999ADDGF108991999999999999999999MW1001
0066036553999991961010615004+51933-001250SAO  +0133EGUA V0203201N007210042019N0176001N9+00581+00191100101ADDGA1081+004209059GF108991999999999999999999MA1999999098371MW1001
0035036553999991961010616004+51933-001250SAO  +0133EGUA V0203201N007210042019N0048001N9+00521+00191999999ADDGF108991999999999999999999MW1051
0035036553999991961010617004+51933-001250SAO  +0133EGUA V0203201N006210051019N0040001N9+00521+00191999999ADDGF108991999999999999999999MW1051
0082036553999991961010618004+51933-001250SAO  +0133EGUA V0203201N007710057019N0064001N9+00521+00131100541ADDGA1061+005709059GA2021+012009059GF108991999999999999999999MA1999999098811MW1051
0035036553999991961010619004+51933-001250SAO  +0133EGUA V0203201N008210057019N0064001N9+00521+00191999999ADDGF108991999999999999999999MW1051
0035036553999991961010620004+51933-001250SAO  +0133EGUA V0203201N007210045019N0080001N9+00461+00081999999ADDGF107991999999999999999999MW1051
0066036553999991961010621004+51933-001250SAO  +0133EGUA V0203201N006712200019N0080001N9+00351+00081100951ADDGA1041+004509059GF102991999999999999999999MA1999999099191MW1051
0035036553999991961010622004+51933-001250SAO  +0133EGUA V0202901N006212200019N0080001N9+00351+00081999999ADDGF102991999999999999999999MW1051
0035036553999991961010623004+51933-001250SAO  +0133EGUA V0203201N006212200019N0128001N9+00301-00041999999ADDGF100991999999999999999999MW1001
0066036553999991961010700004+51933-001250SAO  +0133EGUA V0203201N005112200019N0096001N9+00241-00041101221ADDGA1001+999999999GF100991999999999999999999MA1999999099461MW1051
0035036553999991961010701004+51933-001250SAO  +0133EGUA V0203201N006212200019N0096001N9+00191-00091999999ADDGF100991999999999999999999MW1051
0035036553999991961010702004+51933-001250SAO  +0133EGUA V0203201N004612200019N0096001N9+00131-00151999999ADDGF100991999999999999999999MW1051
0066036553999991961010703004+51933-001250SAO  +0133EGUA V0203201N002612200019N0096001N9+00081-00201101461ADDGA1001+999999999GF100991999999999999999999MA1999999099701MW1051
0035036553999991961010704004+51933-001250SAO  +0133EGUA V0202701N002612200019N0096001N9+00081-00151999999ADDGF102991999999999999999999MW1051
0035036553999991961010705004+51933-001250SAO  +0133EGUA V0202701N003112200019N0096001N9+00081-00091999999ADDGF102991999999999999999999MW1051
0066036553999991961010706004+51933-001250SAO  +0133EGUA V0209991C000012200019N0096001N9+00081-00201101591ADDGA1031+030009039GF102991999999999999999999MA1999999099831MW1051
0035036553999991961010707004+51933-001250SAO  +0133EGUA V0202701N002112200019N0096001N9+00081-00151999999ADDGF102991999999999999999999MW1051
0035036553999991961010708004+51933-001250SAO  +0133EGUA V0209991C000012200019N0176001N9+00021-00261999999ADDGF107991999999999999999999MW1001
0066036553999991961010709004+51933-001250SAO  +0133EGUA V0209991C000012200019N0128001N9+00021-00151101591ADDGA1081+220009029GF108991999999999999999999MA1999999099831MW1001
0035036553999991961010710004+51933-001250SAO  +0133EGUA V0209991C000012200019N0096001N9-00041-00261999999ADDGF108991999999999999999999MW1051
0035036553999991961010711004+51933-001250SAO  +0133EGUA V0201801N002112200019N0080001N9+00191-00041999999ADDGF102991999999999999999999MW1051
0135036553999991961010712004+51933-001250SAO  +0133EGUA V0201801N002112200019N0064001N9+00191-00091101561ADDAA124003091GA1091+009009999GA2011+030009039GA3091+220009029GF108991999999999999999999KA1999M+00631KA2999N-00041MA1999999099801MW1051
0035036553999991961010713004+51933-001250SAO  +0133EGUA V0201801N003112200019N0064001N9+00241-00151999999ADDGF107991999999999999999999MW1051
0035036553999991961010714004+51933-001250SAO  +0133EGUA V0201601N003112200019N0036001N9+00241-00041999999ADDGF107991999999999999999999MW1051
0082036553999991961010715004+51933-001250SAO  +0133EGUA V0201601N003610270019N0048001N9+00241-00151101251ADDGA1061+027009039GA2021+220009029GF107991999999999999999999MA1999999099461MW1051
0035036553999991961010716004+51933-001250SAO  +0133EGUA V0201601N004110300019N0064001N9+00241-00091999999ADDGF108991999999999999999999MW1051
0035036553999991961010717004+51933-001250SAO  +0133EGUA V0201401N003610300019N0064001N9+00241-00091999999ADDGF108991999999999999999999MW1051
0104036553999991961010718004+51933-001250SAO  +0133EGUA V0201601N004610042019N0064001N9+00301+00021100981ADDGA1021+002409079GA2051+004209059GA3071+006309059GF108991999999999999999999MA1999999099191MW1051MW2611
0041036553999991961010719004+51933-001250SAO  +0133EGUA V0201401N004110009019N0048001N9+00301+00191999999ADDGF108991999999999999999999MW1051MW2611
0047036553999991961010720004+51933-001250SAO  +0133EGUA V0201401N005110006019N0022001N9+00351+00241999999ADDGF108991999999999999999999MW1451MW2511MW3611
0088036553999991961010721004+51933-001250SAO  +0133EGUA V0201801N005110006019N0026001N9+00461+00351100511ADDGA1011+999999999GA2081+000609079GF108991999999999999999999MA1999999098781MW1451MW2511
0041036553999991961010722004+51933-001250SAO  +0133EGUA V0202001N003110006019N0026001N9+00631+00521999999ADDGF108991999999999999999999MW1451MW2511
0041036553999991961010723004+51933-001250SAO  +0133EGUA V0202001N004110009019N0040001N9+00631+00521999999ADDGF108991999999999999999999MW1451MW2511
0082036553999991961010800004+51933-001250SAO  +0133EGUA V0202701N004612200019N0128001N9+00581+00581100441ADDGA1011+001509079GA2021+011109049GF102991999999999999999999MA1999999098711MW1001
0035036553999991961010801004+51933-001250SAO  +0133EGUA V0202901N005112200019N0128001N9+00581+00411999999ADDGF100991999999999999999999MW1001
0035036553999991961010802004+51933-001250SAO  +0133EGUA V0202701N005112200019N0176001N9+00521+00301999999ADDGF102991999999999999999999MW1001
0066036553999991961010803004+51933-001250SAO  +0133EGUA V0202501N004112200019N0176001N9+00461+00241100581ADDGA1001+999999999GF100991999999999999999999MA1999999098851MW1001
0035036553999991961010804004+51933-001250SAO  +0133EGUA V0202501N003112200019N0176001N9+00461+00191999999ADDGF100991999999999999999999MW1001
0035036553999991961010805004+51933-001250SAO  +0133EGUA V0202501N004112200019N0176001N9+00411+00191999999ADDGF100991999999999999999999MW1001
0085036553999991961010806004+51933-001250SAO  +0133EGUA V0202301N004112200019N0176001N9+00351+00191100541ADDGA1999+015009999GF100991999999999999999999MA1999999098811MW1001EQDQ01    003SCCGA1
0035036553999991961010807004+51933-001250SAO  +0133EGUA V0202501N005712200019N0176001N9+00411+00191999999ADDGF102991999999999999999999MW1001
0035036553999991961010808004+51933-001250SAO  +0133EGUA V0202501N004112200019N0176001N9+00411+00131999999ADDGF102991999999999999999999MW1001
0066036553999991961010809004+51933-001250SAO  +0133EGUA V0202301N003612200019N0176001N9+00411+00131100681ADDGA1041+007509059GF102991999999999999999999MA1999999098951MW1001
0035036553999991961010810004+51933-001250SAO  +0133EGUA V0202001N003112200019N0176001N9+00521+00191999999ADDGF102991999999999999999999MW1001
0035036553999991961010811004+51933-001250SAO  +0133EGUA V0202501N004112200019N0240001N9+00631+00241999999ADDGF102991999999999999999999MW1001
0119036553999991961010812004+51933-001250SAO  +0133EGUA V0202701N005112200019N0240001N9+00741+00241100851ADDAA124000091GA1011+007509089GA2011+024009039GF102991999999999999999999KA1999M+00801KA2999N+00191MA1999999099091MW1001
0035036553999991961010813004+51933-001250SAO  +0133EGUA V0202501N006212200019N0240001N9+00801+00131999999ADDGF102991999999999999999999MW1001
0035036553999991961010814004+51933-001250SAO  +0133EGUA V0202301N005112200019N0240001N9+00741+00131999999ADDGF107991999999999999999999MW1001
0098036553999991961010815004+51933-001250SAO  +0133EGUA V0202001N002612200019N0176001N9+00691+00241100751ADDGA1011+007509089GA2041+030009039GA3071+220009009GF107991999999999999999999MA1999999099021MW1001
0035036553999991961010816004+51933-001250SAO  +0133EGUA V0202001N004610300019N0096001N9+00581+00301999999ADDGF108991999999999999999999MW1051
0035036553999991961010817004+51933-001250SAO  +0133EGUA V0202301N005710300019N0096001N9+00581+00191999999ADDGF108991999999999999999999MW1051
0098036553999991961010818004+51933-001250SAO  +0133EGUA V0202301N003110300019N0128001N9+00461+00131100751ADDGA1041+009009059GA2051+030009039GA3081+220009009GF108991999999999999999999MA1999999099021MW1001
0035036553999991961010819004+51933-001250SAO  +0133EGUA V0202301N001510120019N0096001N9+00411+00191999999ADDGF107991999999999999999999MW1051
0035036553999991961010820004+51933-001250SAO  +0133EGUA V0202501N003112200019N0128001N9+00351+00191999999ADDGF102991999999999999999999MW1001
0066036553999991961010821004+51933-001250SAO  +0133EGUA V0202501N003612200019N0128001N9+00301+00191100751ADDGA1011+012009059GF102991999999999999999999MA1999999099021MW1001
0035036553999991961010822004+51933-001250SAO  +0133EGUA V0202501N003612200019N0128001N9+00301+00081999999ADDGF100991999999999999999999MW1001
0035036553999991961010823004+51933-001250SAO  +0133EGUA V0202501N002112200019N0128001N9+00241+00081999999ADDGF100991999999999999999999MW1001
0050036553999991961010900004+51933-001250SAO  +0133EGUA V0202501N001512200019N0080001N9+00191+00081100851ADDGF100991999999999999999999MA1999999099091MW1051
0035036553999991961010901004+51933-001250SAO  +0133EGUA V0202501N002612200019N0128001N9+00241+00081999999ADDGF100991999999999999999999MW1001
0035036553999991961010902004+51933-001250SAO  +0133EGUA V0202001N002612200019N0128001N9+00241+00021999999ADDGF107991999999999999999999MW1001
0088036553999991961010903004+51933-001250SAO  +0133EGUA V0202001N002610150019N0128001N9+00081-00041100851ADDGA1021+003009079GA2081+015009059GF108991999999999999999999MA1999999099091MW1611MW2711
0035036553999991961010904004+51933-001250SAO  +0133EGUA V0202301N001012200019N0128001N9+00191+00081999999ADDGF102991999999999999999999MW1001
0035036553999991961010905004+51933-001250SAO  +0133EGUA V0202001N003112200019N0128001N9+00081-00041999999ADDGF100991999999999999999999MW1001
0066036553999991961010906004+51933-001250SAO  +0133EGUA V0202301N001512200019N0128001N9+00081+00021100911ADDGA1001+999999999GF100991999999999999999999MA1999999099151MW1001
0035036553999991961010907004+51933-001250SAO  +0133EGUA V0202301N001512200019N0128001N9+00191-00091999999ADDGF102991999999999999999999MW1001
0035036553999991961010908004+51933-001250SAO  +0133EGUA V0202001N003112200019N0080001N9+00131-00091999999ADDGF107991999999999999999999MW1051
0082036553999991961010909004+51933-001250SAO  +0133EGUA V0202301N003112200019N0080001N9+00081-00041100981ADDGA1011+030009039GA2061+220009009GF107991999999999999999999MA1999999099221MW1051
0035036553999991961010910004+51933-001250SAO  +0133EGUA V0202301N004612200019N0080001N9+00241+00021999999ADDGF107991999999999999999999MW1051
0035036553999991961010911004+51933-001250SAO  +0133EGUA V0202001N003610300019N0080001N9+00241+00081999999ADDGF107991999999999999999999MW1051
0119036553999991961010912004+51933-001250SAO  +0133EGUA V0202001N003610300019N0080001N9+00351+00131100951ADDAA124008091GA1061+030009039GA2011+220009009GF107991999999999999999999KA1999M+00581KA2999N+00081MA1999999099191MW1051
0035036553999991961010913004+51933-001250SAO  +0133EGUA V0201801N003610270019N0080001N9+00351+00131999999ADDGF108991999999999999999999MW1051
0041036553999991961010914004+51933-001250SAO  +0133EGUA V0201801N003110240019N0080001N9+00411+00191999999ADDGF108991999999999999999999MW1051MW2611
0088036553999991961010915004+51933-001250SAO  +0133EGUA V0201801N002610240019N0064001N9+00411+00241100611ADDGA1021+007509059GA2081+024009049GF108991999999999999999999MA1999999098881MW1051MW2611
0047036553999991961010916004+51933-001250SAO  +0133EGUA V0201401N004110051019N0040001N9+00411+00241999999ADDGF108991999999999999999999MW1051MW2111MW3611
0041036553999991961010917004+51933-001250SAO  +0133EGUA V0201401N003110042019N0048001N9+00411+00301999999ADDGF108991999999999999999999MW1111MW2611
0098036553999991961010918004+51933-001250SAO  +0133EGUA V0201101N004610042019N0064001N9+00461+00301100241ADDGA1041+001809079GA2051+004209059GA3081+008409059GF108991999999999999999999MA1999999098511MW1611
0035036553999991961010919004+51933-001250SAO  +0133EGUA V0201101N004110012019N0048001N9+00461+00351999999ADDGF108991999999999999999999MW1611
0035036553999991961010920004+51933-001250SAO  +0133EGUA V0201601N002610009019N0048001N9+00521+00411999999ADDGF108991999999999999999999MW1611
0098036553999991961010921004+51933-001250SAO  +0133EGUA V0201801N003610114019N0064001N9+00581+00461099861ADDGA1021+002409079GA2061+011409059GA3041+027009049GF108991999999999999999999MA1999999098141MW1611
0035036553999991961010922004+51933-001250SAO  +0133EGUA V0201601N002112200019N0128001N9+00521+00351999999ADDGF102991999999999999999999MW1001
0035036553999991961010923004+51933-001250SAO  +0133EGUA V0201801N001510060019N0096001N9+00521+00351999999ADDGF108991999999999999999999MW1511
0088036553999991961011000004+51933-001250SAO  +0133EGUA V0209991C000010060019N0096001N9+00461+00351099701ADDGA1011+002409079GA2041+006009059GF107991999999999999999999MA1999999097971MW1051MW2511
0041036553999991961011001004+51933-001250SAO  +0133EGUA V0200701N002610024019N0064001N9+00461+00351999999ADDGF108991999999999999999999MW1051MW2451
0041036553999991961011002004+51933-001250SAO  +0133EGUA V0209991C000010015019N0064001N9+00521+00411999999ADDGF108991999999999999999999MW1451MW2611
0088036553999991961011003004+51933-001250SAO  +0133EGUA V0201101N001010075019N0003001N9+00521+00461099591ADDGA1061+999999999GA2081+007509059GF108991999999999999999999MA1999999097871MW1451MW2611
0041036553999991961011004004+51933-001250SAO  +0133EGUA V0202501N002110024019N0032001N9+00521+00461999999ADDGF108991999999999999999999MW1451MW2611
0035036553999991961011005004+51933-001250SAO  +0133EGUA V0202701N002110111019N0096001N9+00581+00411999999ADDGF108991999999999999999999MW1611
0072036553999991961011006004+51933-001250SAO  +0133EGUA V0203601N002610084019N0048001N9+00521+00351099731ADDGA1081+008409049GF108991999999999999999999MA1999999098001MW1111MW2611
0041036553999991961011007004+51933-001250SAO  +0133EGUA V0203601N002610087019N0012001N9+00461+00411999999ADDGF108991999999999999999999MW1111MW2611
0041036553999991961011008004+51933-001250SAO  +0133EGUA V0200201N002610063019N0026001N9+00461+00351999999ADDGF108991999999999999999999MW1451MW2611
0104036553999991961011009004+51933-001250SAO  +0133EGUA V0200201N003610018019N0026001N9+00461+00351099971ADDGA1021+999999999GA2061+001809079GA3081+005709049GF108991999999999999999999MA1999999098241MW1451MW2611
0047036553999991961011010004+51933-001250SAO  +0133EGUA V0200201N004610018019N0040001N9+00461+00351999999ADDGF108991999999999999999999MW1111MW2511MW3611
0041036553999991961011011004+51933-001250SAO  +0133EGUA V0200201N006210018019N0032001N9+00411+00351999999ADDGF108991999999999999999999MW1451MW2511
0103036553999991961011012004+51933-001250SAO  +0133EGUA V0200201N007210027019N0080001N9+00461+00301100311ADDAA124012091GA1081+002709079GF108991999999999999999999KA1999M+00581KA2999N+00081MA1999999098581MW1051
0041036553999991961011013004+51933-001250SAO  +0133EGUA V0200201N007210021019N0064001N9+00411+00241999999ADDGF108991999999999999999999MW1051MW2511
0041036553999991961011014004+51933-001250SAO  +0133EGUA V0200201N006210036019N0080001N9+00461+00191999999ADDGF108991999999999999999999MW1051MW2511
0088036553999991961011015004+51933-001250SAO  +0133EGUA V0200201N007210042019N0080001N9+00461+00241100641ADDGA1041+001809079GA2081+004209059GF108991999999999999999999MA1999999098921MW1051MW2511
0047036553999991961011016004+51933-001250SAO  +0133EGUA V0200201N008210024019N0080001N9+00411+00191999999ADDGF108991999999999999999999MW1051MW2511MW3611
0035036553999991961011017004+51933-001250SAO  +0133EGUA V0200201N008210072019N0144001N9+00411+00081999999ADDGF108991999999999999999999MW1001
0066036553999991961011018004+51933-001250SAO  +0133EGUA V0200201N007710084019N0144001N9+00411-00091101151ADDGA1081+008409059GF108991999999999999999999MA1999999099391MW1001
0035036553999991961011019004+51933-001250SAO  +0133EGUA V0203601N006712200019N0144001N9+00241-00151999999ADDGF102991999999999999999999MW1001
0035036553999991961011020004+51933-001250SAO  +0133EGUA V0203601N006712200019N0128001N9+00191-00201999999ADDGF100991999999999999999999MW1001
0066036553999991961011021004+51933-001250SAO  +0133EGUA V0203601N005112200019N0128001N9+00131-00201101521ADDGA1001+999999999GF100991999999999999999999MA1999999099761MW1001
0035036553999991961011022004+51933-001250SAO  +0133EGUA V0203601N005712200019N0128001N9+00081-00201999999ADDGF100991999999999999999999MW1001
0035036553999991961011023004+51933-001250SAO  +0133EGUA V0203601N006712200019N0080001N9+00081-00201999999ADDGF100991999999999999999999MW1051
0072036553999991961011100004+51933-001250SAO  +0133EGUA V0203401N006212200019N0036001N9+00081-00201101861ADDGA1011+999999999GF102991999999999999999999MA1999999100101MW1051MW2111
0035036553999991961011101004+51933-001250SAO  +0133EGUA V0203401N006712200019N0022001N9+00081-00091999999ADDGF102991999999999999999999MW1111
0035036553999991961011102004+51933-001250SAO  +0133EGUA V0203401N005112200019N0022001N9+00081-00091999999ADDGF102991999999999999999999MW1111
0066036553999991961011103004+51933-001250SAO  +0133EGUA V0203401N005112200019N0022001N9+00021-00151102101ADDGA1011+999999999GF102991999999999999999999MA1999999100341MW1111
0035036553999991961011104004+51933-001250SAO  +0133EGUA V0203401N004612200019N0022001N9+00021-00151999999ADDGF102991999999999999999999MW1111
0035036553999991961011105004+51933-001250SAO  +0133EGUA V0203201N004112200019N0028001N9+00021-00201999999ADDGF102991999999999999999999MW1111
0072036553999991961011106004+51933-001250SAO  +0133EGUA V0203401N006212200019N0040001N9+00021-00261102471ADDGA1001+999999999GF100991999999999999999999MA1999999100711MW1051MW2111
0041036553999991961011107004+51933-001250SAO  +0133EGUA V0203201N003112200019N0040001N9-00041-00311999999ADDGF100991999999999999999999MW1051MW2111
0035036553999991961011108004+51933-001250SAO  +0133EGUA V0203401N005112200019N0032001N9-00041-00311999999ADDGF102991999999999999999999MW1111
0098036553999991961011109004+51933-001250SAO  +0133EGUA V0203401N004112200019N0040001N9+00021-00261102741ADDGA1011+999999999GA2011+012009059GA3021+220009009GF102991999999999999999999MA1999999100951MW1111
0041036553999991961011110004+51933-001250SAO  +0133EGUA V0203401N003612200019N0040001N9+00081-00261999999ADDGF107991999999999999999999MW1051MW2111
0035036553999991961011111004+51933-001250SAO  +0133EGUA V0203401N003112200019N0040001N9+00301-00151999999ADDGF102991999999999999999999MW1051
0119036553999991961011112004+51933-001250SAO  +0133EGUA V0203401N002612200019N0040001N9+00411-00151102951ADDAA124000091GA1091+999999999GA2051+220009009GF107991999999999999999999KA1999M+00461KA2999N-00091MA1999999101151MW1051
0035036553999991961011113004+51933-001250SAO  +0133EGUA V0203401N003112200019N0040001N9+00461-00151999999ADDGF107991999999999999999999MW1051
0035036553999991961011114004+51933-001250SAO  +0133EGUA V0203401N004112200019N0040001N9+00461-00201999999ADDGF108991999999999999999999MW1051
0082036553999991961011115004+51933-001250SAO  +0133EGUA V0202901N002612200019N0026001N9+00351-00151103051ADDGA1091+999999999GA2091+220009009GF108991999999999999999999MA1999999101251MW1051
0035036553999991961011116004+51933-001250SAO  +0133EGUA V0203201N002612200019N0022001N9+00241-00151999999ADDGF108991999999999999999999MW1051
0035036553999991961011117004+51933-001250SAO  +0133EGUA V0203401N002612200019N0018001N9+00131-00201999999ADDGF107991999999999999999999MW1051
0082036553999991961011118004+51933-001250SAO  +0133EGUA V0203201N002112200019N0022001N9+00131-00201103221ADDGA1091+999999999GA2011+220009009GF102991999999999999999999MA1999999101391MW1051
0035036553999991961011119004+51933-001250SAO  +0133EGUA V0203201N002612200019N0018001N9+00081-00201999999ADDGF102991999999999999999999MW1051
0035036553999991961011120004+51933-001250SAO  +0133EGUA V0209991C000012200019N0026001N9+00021-00201999999ADDGF102991999999999999999999MW1051
0066036553999991961011121004+51933-001250SAO  +0133EGUA V0209991C000012200019N0026001N9+00021-00261103251ADDGA1091+999999999GF102991999999999999999999MA1999999101421MW1051
0035036553999991961011122004+51933-001250SAO  +0133EGUA V0209991C000012200019N0022001N9-00041-00201999999ADDGF102991999999999999999999MW1051
0035036553999991961011123004+51933-001250SAO  +0133EGUA V0202301N002112200019N0022001N9-00091-00311999999ADDGF102991999999999999999999MW1051
0066036553999991961011200004+51933-001250SAO  +0133EGUA V0201801N002112200019N0026001N9-00091-00261103291ADDGA1091+999999999GF102991999999999999999999MA1999999101461MW1051
0035036553999991961011201004+51933-001250SAO  +0133EGUA V0202301N002112200019N0022001N9-00151-00371999999ADDGF102991999999999999999999MW1051
0041036553999991961011202004+51933-001250SAO  +0133EGUA V0202301N001512200019N0020001N9-00151-00371999999ADDGF102991999999999999999999MW1051MW2111
0072036553999991961011203004+51933-001250SAO  +0133EGUA V0202001N004112200019N0026001N9-00091-00311103251ADDGA1021+999999999GF102991999999999999999999MA1999999101421MW1051MW2111
0041036553999991961011204004+51933-001250SAO  +0133EGUA V0201801N004112200019N0040001N9-00041-00311999999ADDGF102991999999999999999999MW1051MW2111
0041036553999991961011205004+51933-001250SAO  +0133EGUA V0201801N002112200019N0040001N9-00041-00261999999ADDGF107991999999999999999999MW1051MW2111
0082036553999991961011206004+51933-001250SAO  +0133EGUA V0201801N002610300019N0040001N9+00021-00151103151ADDGA1041+009009059GA2061+030009039GF108991999999999999999999MA1999999101321MW1111
0035036553999991961011207004+51933-001250SAO  +0133EGUA V0202301N001510090019N0040001N9+00081-00151999999ADDGF108991999999999999999999MW1111
0035036553999991961011208004+51933-001250SAO  +0133EGUA V0202001N003610300019N0064001N9+00131-00091999999ADDGF108991999999999999999999MW1111
0104036553999991961011209004+51933-001250SAO  +0133EGUA V0202001N005110360019N0064001N9+00191-00091103121ADDGA1031+024009039GA2061+036009039GA3041+220009029GF108991999999999999999999MA1999999101291MW1051MW2111
0035036553999991961011210004+51933-001250SAO  +0133EGUA V0202001N004610210019N0064001N9+00191-00041999999ADDGF108991999999999999999999MW1051
0035036553999991961011211004+51933-001250SAO  +0133EGUA V0202001N002110180019N0064001N9+00301+00021999999ADDGF107991999999999999999999MW1051
0119036553999991961011212004+51933-001250SAO  +0133EGUA V0202001N005110150019N0096001N9+00411+00131103011ADDAA124000091GA1061+015009059GA2021+027009039GF108991999999999999999999KA1999M+00631KA2999N-00151MA1999999101221MW1051
0035036553999991961011213004+51933-001250SAO  +0133EGUA V0202301N005710150019N0096001N9+00581+00131999999ADDGF108991999999999999999999MW1051
0035036553999991961011214004+51933-001250SAO  +0133EGUA V0202301N005710240019N0096001N9+00581+00191999999ADDGF108991999999999999999999MW1051
0098036553999991961011215004+51933-001250SAO  +0133EGUA V0202301N004110180019N0096001N9+00631+00241102951ADDGA1021+009009059GA2031+018009059GA3041+024009039GF108991999999999999999999MA1999999101151MW1051
0035036553999991961011216004+51933-001250SAO  +0133EGUA V0202001N005710135019N0080001N9+00581+00241999999ADDGF108991999999999999999999MW1051
0035036553999991961011217004+51933-001250SAO  +0133EGUA V0202001N004610135019N0048001N9+00521+00301999999ADDGF108991999999999999999999MW1051
0082036553999991961011218004+51933-001250SAO  +0133EGUA V0202301N004610135019N0064001N9+00581+00241102981ADDGA1041+009009059GA2081+013509059GF108991999999999999999999MA1999999101191MW1051
0035036553999991961011219004+51933-001250SAO  +0133EGUA V0202001N004110135019N0064001N9+00521+00301999999ADDGF107991999999999999999999MW1051
0035036553999991961011220004+51933-001250SAO  +0133EGUA V0202001N005710135019N0048001N9+00461+00301999999ADDGF107991999999999999999999MW1051
0082036553999991961011221004+51933-001250SAO  +0133EGUA V0202301N003610135019N0048001N9+00461+00301102981ADDGA1021+006309059GA2051+013509059GF107991999999999999999999MA1999999101191MW1051
0035036553999991961011222004+51933-001250SAO  +0133EGUA V0202001N004110105019N0048001N9+00521+00351999999ADDGF107991999999999999999999MW1051
0035036553999991961011223004+51933-001250SAO  +0133EGUA V0202001N004112200019N0048001N9+00461+00351999999ADDGF102991999999999999999999MW1051
0082036553999991961011300004+51933-001250SAO  +0133EGUA V0202001N003610030019N0064001N9+00521+00301103011ADDGA1061+003009059GA2051+010509059GF108991999999999999999999MA1999999101221MW1051
0035036553999991961011301004+51933-001250SAO  +0133EGUA V0202001N005710021019N0064001N9+00631+00411999999ADDGF108991999999999999999999MW1051
0035036553999991961011302004+51933-001250SAO  +0133EGUA V0202301N004110024019N0080001N9+00581+00461999999ADDGF108991999999999999999999MW1051
0066036553999991961011303004+51933-001250SAO  +0133EGUA V0202301N002110027019N0128001N9+00581+00461102981ADDGA1081+002709079GF108991999999999999999999MA1999999101191MW1001
0035036553999991961011304004+51933-001250SAO  +0133EGUA V0202001N005110027019N0128001N9+00631+00521999999ADDGF108991999999999999999999MW1001
0035036553999991961011305004+51933-001250SAO  +0133EGUA V0202301N004110030019N0128001N9+00691+00461999999ADDGF108991999999999999999999MW1001
0066036553999991961011306004+51933-001250SAO  +0133EGUA V0202001N003610030019N0128001N9+00691+00521102911ADDGA1081+003009079GF108991999999999999999999MA1999999101121MW1001
0035036553999991961011307004+51933-001250SAO  +0133EGUA V0202001N004110030019N0128001N9+00691+00521999999ADDGF108991999999999999999999MW1001
0035036553999991961011308004+51933-001250SAO  +0133EGUA V0202301N004110063019N0096001N9+00691+00581999999ADDGF108991999999999999999999MW1051
0098036553999991961011309004+51933-001250SAO  +0133EGUA V0202001N005110057019N0096001N9+00691+00521102911ADDGA1061+002109079GA2061+005709059GA3071+024009039GF108991999999999999999999MA1999999101121MW1051
0035036553999991961011310004+51933-001250SAO  +0133EGUA V0202001N005110021019N0128001N9+00741+00581999999ADDGF108991999999999999999999MW1001
0035036553999991961011311004+51933-001250SAO  +0133EGUA V0202001N005110051019N0096001N9+00801+00581999999ADDGF108991999999999999999999MW1051
0103036553999991961011312004+51933-001250SAO  +0133EGUA V0202301N004110030019N0096001N9+00851+00631102901ADDAA124002091GA1081+003009079GF108991999999999999999999KA1999M+00911KA2999N+00411MA1999999101121MW1051
0035036553999991961011313004+51933-001250SAO  +0133EGUA V0202301N005710027019N0096001N9+00911+00521999999ADDGF108991999999999999999999MW1051
0035036553999991961011314004+51933-001250SAO  +0133EGUA V0202301N004610027019N0080001N9+00851+00631999999ADDGF108991999999999999999999MW1051
0072036553999991961011315004+51933-001250SAO  +0133EGUA V0202301N004610021019N0080001N9+00851+00631102871ADDGA1081+002109079GF108991999999999999999999MA1999999101081MW1051MW2611
0047036553999991961011316004+51933-001250SAO  +0133EGUA V0202501N003610012019N0012001N9+00801+00691999999ADDGF108991999999999999999999MW1051MW2511MW3611
0041036553999991961011317004+51933-001250SAO  +0133EGUA V0203401N005710015019N0040001N9+00631+00461999999ADDGF108991999999999999999999MW1051MW2611
0088036553999991961011318004+51933-001250SAO  +0133EGUA V0203401N005110111019N0040001N9+00581+00461103041ADDGA1021+001509079GA2081+011109059GF108991999999999999999999MA1999999101251MW1111MW2611
0041036553999991961011319004+51933-001250SAO  +0133EGUA V0203401N005110024019N0036001N9+00581+00411999999ADDGF108991999999999999999999MW1111MW2611
0035036553999991961011320004+51933-001250SAO  +0133EGUA V0203401N004110024019N0028001N9+00521+00411999999ADDGF108991999999999999999999MW1111
0082036553999991961011321004+51933-001250SAO  +0133EGUA V0203401N002610027019N0026001N9+00461+00351103291ADDGA1011+999999999GA2051+002709079GF107991999999999999999999MA1999999101491MW1111
0035036553999991961011322004+51933-001250SAO  +0133EGUA V0203201N004110057019N0012001N9+00461+00351999999ADDGF107991999999999999999999MW1111
0035036553999991961011323004+51933-001250SAO  +0133EGUA V0203401N005110018019N0018001N9+00461+00351999999ADDGF107991999999999999999999MW1111
0082036553999991961011400004+51933-001250SAO  +0133EGUA V0203401N005110012019N0008001N9+00411+00301103411ADDGA1041+999999999GA2051+001209079GF108991999999999999999999MA1999999101631MW1451
0035036553999991961011401004+51933-001250SAO  +0133EGUA V0203401N005710006019N0008001N9+00351+00241999999ADDGF107991999999999999999999MW1451
0035036553999991961011402004+51933-001250SAO  +0133EGUA V0203401N005110006019N0005001N9+00301+00191999999ADDGF108991999999999999999999MW1451
0082036553999991961011403004+51933-001250SAO  +0133EGUA V0203401N004110045019N0008001N9+00301+00191103561ADDGA1061+999999999GA2081+004509079GF108991999999999999999999MA1999999101761MW1451
0035036553999991961011404004+51933-001250SAO  +0133EGUA V0203401N005110006019N0005001N9+00241+00191999999ADDGF108991999999999999999999MW1451
0035036553999991961011405004+51933-001250SAO  +0133EGUA V0203401N004110042019N0010001N9+00301+00191999999ADDGF108991999999999999999999MW1451
0082036553999991961011406004+51933-001250SAO  +0133EGUA V0203401N002610042019N0012001N9+00301+00191103691ADDGA1031+999999999GA2081+004209079GF108991999999999999999999MA1999999101901MW1111
0035036553999991961011407004+51933-001250SAO  +0133EGUA V0203401N003610057019N0018001N9+00301+00191999999ADDGF108991999999999999999999MW1111
0035036553999991961011408004+51933-001250SAO  +0133EGUA V0203401N003110063019N0012001N9+00301+00191999999ADDGF108991999999999999999999MW1111
0082036553999991961011409004+51933-001250SAO  +0133EGUA V0203401N003110063019N0012001N9+00301+00191103931ADDGA1021+999999999GA2081+006309059GF108991999999999999999999MA1999999102131MW1111
0035036553999991961011410004+51933-001250SAO  +0133EGUA V0203601N002610063019N0012001N9+00301+00131999999ADDGF108991999999999999999999MW1111
0035036553999991961011411004+51933-001250SAO  +0133EGUA V0203401N003610063019N0012001N9+00411+00191999999ADDGF107991999999999999999999MW1111
0119036553999991961011412004+51933-001250SAO  +0133EGUA V0200501N002610063019N0012001N9+00461+00351103961ADDAA124000091GA1021+999999999GA2061+006309059GF107991999999999999999999KA1999M+00631KA2999N+00241MA1999999102171MW1111
0041036553999991961011413004+51933-001250SAO  +0133EGUA V0200201N004112200019N0040001N9+00631+00301999999ADDGF102991999999999999999999MW1051MW2111
0035036553999991961011414004+51933-001250SAO  +0133EGUA V0200501N005110054019N0080001N9+00631+00301999999ADDGF107991999999999999999999MW1051
0066036553999991961011415004+51933-001250SAO  +0133EGUA V0200201N005110057019N0128001N9+00581+00191103931ADDGA1061+005709059GF107991999999999999999999MA1999999102131MW1001
0035036553999991961011416004+51933-001250SAO  +0133EGUA V0200201N002110051019N0128001N9+00521+00191999999ADDGF107991999999999999999999MW1001
0035036553999991961011417004+51933-001250SAO  +0133EGUA V0203601N002612200019N0128001N9+00411+00191999999ADDGF107991999999999999999999MW1001
0066036553999991961011418004+51933-001250SAO  +0133EGUA V0203601N002612200019N0096001N9+00351+00191104031ADDGA1031+006309059GF102991999999999999999999MA1999999102241MW1051
0035036553999991961011419004+51933-001250SAO  +0133EGUA V0200201N002612200019N0036001N9+00241+00131999999ADDGF102991999999999999999999MW1111
0035036553999991961011420004+51933-001250SAO  +0133EGUA V0200201N003112200019N0026001N9+00241+00131999999ADDGF102991999999999999999999MW1111
0066036553999991961011421004+51933-001250SAO  +0133EGUA V0200501N003610006019N0005001N9+00241+00131104061ADDGA1091+000609999GF109991999999999999999999MA1999999102271MW1451
0035036553999991961011422004+51933-001250SAO  +0133EGUA V0200501N003110006019N0001001N9+00241+00131999999ADDGF108991999999999999999999MW1451
0035036553999991961011423004+51933-001250SAO  +0133EGUA V0200501N003110006019N0003001N9+00241+00191999999ADDGF108991999999999999999999MW1451
0098036553999991961011500004+51933-001250SAO  +0133EGUA V0200501N003610015019N0012001N9+00241+00131104061ADDGA1011+999999999GA2051+001509079GA3081+006309059GF108991999999999999999999MA1999999102271MW1451
0035036553999991961011501004+51933-001250SAO  +0133EGUA V0200501N003110063019N0032001N9+00241+00131999999ADDGF108991999999999999999999MW1111
0035036553999991961011502004+51933-001250SAO  +0133EGUA V0200201N002610063019N0064001N9+00241+00131999999ADDGF107991999999999999999999MW1111
0072036553999991961011503004+51933-001250SAO  +0133EGUA V0203601N002110057019N0064001N9+00191+00021103961ADDGA1061+005709059GF107991999999999999999999MA1999999102171MW1051MW2111
0035036553999991961011504004+51933-001250SAO  +0133EGUA V0203601N003112200019N0080001N9+00131-00041999999ADDGF102991999999999999999999MW1051
0035036553999991961011505004+51933-001250SAO  +0133EGUA V0203601N002612200019N0096001N9+00131-00091999999ADDGF100991999999999999999999MW1051
0066036553999991961011506004+51933-001250SAO  +0133EGUA V0203601N002110054019N0080001N9+00131-00041103791ADDGA1061+005409059GF107991999999999999999999MA1999999102001MW1051
0035036553999991961011507004+51933-001250SAO  +0133EGUA V0200201N003610051019N0080001N9+00191+00021999999ADDGF108991999999999999999999MW1051
0035036553999991961011508004+51933-001250SAO  +0133EGUA V0200701N005110051019N0080001N9+00191+00021999999ADDGF108991999999999999999999MW1051
0066036553999991961011509004+51933-001250SAO  +0133EGUA V0200701N005110045019N0096001N9+00241-00041103661ADDGA1081+004509059GF108991999999999999999999MA1999999101861MW1051
0035036553999991961011510004+51933-001250SAO  +0133EGUA V0200701N006210045019N0160001N9+00301-00041999999ADDGF107991999999999999999999MW1001
0035036553999991961011511004+51933-001250SAO  +0133EGUA V0200701N006212200019N0176001N9+00351+00081999999ADDGF107991999999999999999999MW1001
0119036553999991961011512004+51933-001250SAO  +0133EGUA V0200701N005710051019N0176001N9+00411+00021103451ADDAA124000091GA1071+005109059GA2041+220009009GF108991999999999999999999KA1999M+00411KA2999N+00131MA1999999101661MW1001
0035036553999991961011513004+51933-001250SAO  +0133EGUA V0200701N008210051019N0176001N9+00411+00021999999ADDGF107991999999999999999999MW1001
0035036553999991961011514004+51933-001250SAO  +0133EGUA V0200501N007210051019N0176001N9+00411+00081999999ADDGF107991999999999999999999MW1001
0066036553999991961011515004+51933-001250SAO  +0133EGUA V0200501N006210051019N0176001N9+00411+00021103151ADDGA1061+005109059GF107991999999999999999999MA1999999101351MW1001
0035036553999991961011516004+51933-001250SAO  +0133EGUA V0200501N007210051019N0176001N9+00411+00021999999ADDGF107991999999999999999999MW1001
0035036553999991961011517004+51933-001250SAO  +0133EGUA V0200501N007210051019N0176001N9+00351+00081999999ADDGF107991999999999999999999MW1001
0066036553999991961011518004+51933-001250SAO  +0133EGUA V0200501N007210045019N0176001N9+00351-00041102981ADDGA1061+004509059GF107991999999999999999999MA1999999101191MW1001
0035036553999991961011519004+51933-001250SAO  +0133EGUA V0200501N006710045019N0176001N9+00301+00021999999ADDGF107991999999999999999999MW1001
0035036553999991961011520004+51933-001250SAO  +0133EGUA V0200501N005710039019N0176001N9+00301+00021999999ADDGF107991999999999999999999MW1001
0082036553999991961011521004+51933-001250SAO  +0133EGUA V0200501N007212200019N0176001N9+00301+00021102741ADDGA1011+002409079GA2041+003309059GF102991999999999999999999MA1999999100981MW1001
0035036553999991961011522004+51933-001250SAO  +0133EGUA V0200501N008212200019N0176001N9+00301+00021999999ADDGF102991999999999999999999MW1001
0035036553999991961011523004+51933-001250SAO  +0133EGUA V0200501N007710033019N0176001N9+00301+00021999999ADDGF107991999999999999999999MW1001
0066036553999991961011600004+51933-001250SAO  +0133EGUA V0200701N008210033019N0176001N9+00301+00081102541ADDGA1081+003309059GF108991999999999999999999MA1999999100781MW1001
0035036553999991961011601004+51933-001250SAO  +0133EGUA V0200701N007210033019N0176001N9+00301+00021999999ADDGF108991999999999999999999MW1001
0035036553999991961011602004+51933-001250SAO  +0133EGUA V0200701N007710033019N0176001N9+00241-00041999999ADDGF108991999999999999999999MW1001
0066036553999991961011603004+51933-001250SAO  +0133EGUA V0200701N006210030019N0176001N9+00241-00041102371ADDGA1081+003009079GF108991999999999999999999MA1999999100611MW1001
0035036553999991961011604004+51933-001250SAO  +0133EGUA V0200701N006210042019N0128001N9+00241+00021999999ADDGF108991999999999999999999MW1001
0035036553999991961011605004+51933-001250SAO  +0133EGUA V0200701N006210051019N0128001N9+00241+00081999999ADDGF108991999999999999999999MW1001
0066036553999991961011606004+51933-001250SAO  +0133EGUA V0200901N005710051019N0128001N9+00301+00021102201ADDGA1081+005109059GF108991999999999999999999MA1999999100441MW1001
0035036553999991961011607004+51933-001250SAO  +0133EGUA V0200901N005110057019N0128001N9+00301+00021999999ADDGF108991999999999999999999MW1001
0035036553999991961011608004+51933-001250SAO  +0133EGUA V0200901N004610045019N0128001N9+00301+00021999999ADDGF108991999999999999999999MW1001
0082036553999991961011609004+51933-001250SAO  +0133EGUA V0200901N003610045019N0080001N9+00301+00021102171ADDGA1071+004509059GA2011+009009059GF108991999999999999999999MA1999999100411MW1051
0035036553999991961011610004+51933-001250SAO  +0133EGUA V0200901N003610057019N0080001N9+00301+00021999999ADDGF108991999999999999999999MW1051
0035036553999991961011611004+51933-001250SAO  +0133EGUA V0200901N004110057019N0080001N9+00301-00091999999ADDGF108991999999999999999999MW1051
0103036553999991961011612004+51933-001250SAO  +0133EGUA V0201101N003610057019N0080001N9+00301-00091102171ADDAA124000091GA1081+005709059GF108991999999999999999999KA1999M+00351KA2999N+00131MA1999999100411MW1051
0035036553999991961011613004+51933-001250SAO  +0133EGUA V0200901N006210057019N0080001N9+00351-00201999999ADDGF107991999999999999999999MW1051
0035036553999991961011614004+51933-001250SAO  +0133EGUA V0200901N004110057019N0080001N9+00351-00201999999ADDGF107991999999999999999999MW1051
0098036553999991961011615004+51933-001250SAO  +0133EGUA V0200901N003110360019N0080001N9+00301-00151102071ADDGA1031+006309059GA2021+036009039GA3021+220009009GF107991999999999999999999MA1999999100301MW1051
0035036553999991961011616004+51933-001250SAO  +0133EGUA V0200901N002612200019N0064001N9+00241-00151999999ADDGF102991999999999999999999MW1051
0035036553999991961011617004+51933-001250SAO  +0133EGUA V0200501N002112200019N0048001N9+00131-00151999999ADDGF107991999999999999999999MW1051
0082036553999991961011618004+51933-001250SAO  +0133EGUA V0200701N001512200019N0064001N9+00131-00151102001ADDGA1041+006009059GA2041+220009009GF108991999999999999999999MA1999999100241MW1051
0035036553999991961011619004+51933-001250SAO  +0133EGUA V0209991C000010063019N0064001N9+00131-00091999999ADDGF108991999999999999999999MW1051
0041036553999991961011620004+51933-001250SAO  +0133EGUA V0200901N001010072019N0048001N9+00131-00151999999ADDGF108991999999999999999999MW1051MW2111
0072036553999991961011621004+51933-001250SAO  +0133EGUA V0201101N001010105019N0048001N9+00191+00081102031ADDGA1081+010509059GF108991999999999999999999MA1999999100271MW1051MW2111
0041036553999991961011622004+51933-001250SAO  +0133EGUA V0201101N001010105019N0036001N9+00191-00041999999ADDGF108991999999999999999999MW1041MW2111
0041036553999991961011623004+51933-001250SAO  +0133EGUA V0209991C000010105019N0022001N9+00131+00021999999ADDGF108991999999999999999999MW1041MW2111
0088036553999991961011700004+51933-001250SAO  +0133EGUA V0209991C000010105019N0026001N9+00131+00021102101ADDGA1021+999999999GA2081+010509059GF108991999999999999999999MA1999999100341MW1041MW2111
0041036553999991961011701004+51933-001250SAO  +0133EGUA V0209991C000010105019N0026001N9+00131-00091999999ADDGF108991999999999999999999MW1051MW2111
0035036553999991961011702004+51933-001250SAO  +0133EGUA V0201101N002110105019N0028001N9+00081-00201999999ADDGF108991999999999999999999MW1051
0066036553999991961011703004+51933-001250SAO  +0133EGUA V0201101N002110105019N0028001N9+00081-00201102131ADDGA1081+010509059GF108991999999999999999999MA1999999100371MW1051
0035036553999991961011704004+51933-001250SAO  +0133EGUA V0201101N002610105019N0026001N9+00081-00201999999ADDGF108991999999999999999999MW1051
0035036553999991961011705004+51933-001250SAO  +0133EGUA V0201101N001510090019N0026001N9+00021-00151999999ADDGF108991999999999999999999MW1051
0066036553999991961011706004+51933-001250SAO  +0133EGUA V0201101N002110090019N0026001N9+00021-00151102171ADDGA1081+009009059GF108991999999999999999999MA1999999100371MW1051
0035036553999991961011707004+51933-001250SAO  +0133EGUA V0201101N002110090019N0036001N9+00081-00091999999ADDGF108991999999999999999999MW1051
0035036553999991961011708004+51933-001250SAO  +0133EGUA V0201101N002110090019N0022001N9+00131-00151999999ADDGF108991999999999999999999MW1051
0082036553999991961011709004+51933-001250SAO  +0133EGUA V0200901N002110090019N0026001N9+00191-00091102301ADDGA1091+999999999GA2091+009009059GF108991999999999999999999MA1999999100511MW1051
0035036553999991961011710004+51933-001250SAO  +0133EGUA V0201101N003110090019N0026001N9+00241+00021999999ADDGF108991999999999999999999MW1051
0035036553999991961011711004+51933-001250SAO  +0133EGUA V0201401N002610090019N0024001N9+00241+00021999999ADDGF108991999999999999999999MW1051
0141036553999991961011712004+51933-001250SAO  +0133EGUA V0201101N004610024019N0024001N9+00301+00021102371ADDAA124999929GA1091+999999999GA2051+002409079GA3091+009009059GF108991999999999999999999KA1999M+00301KA2999N+00021MA1999999100611MW1051MW2511
0035036553999991961011713004+51933-001250SAO  +0133EGUA V0201101N005110021019N0026001N9+00301+00081999999ADDGF108991999999999999999999MW1051
0035036553999991961011714004+51933-001250SAO  +0133EGUA V0201401N004110021019N0028001N9+00301+00131999999ADDGF108991999999999999999999MW1051
0082036553999991961011715004+51933-001250SAO  +0133EGUA V0201101N003610021019N0026001N9+00301+00131102401ADDGA1091+999999999GA2091+002109079GF108991999999999999999999MA1999999100641MW1051
0035036553999991961011716004+51933-001250SAO  +0133EGUA V0201101N004110210019N0024001N9+00301+00081999999ADDGF108991999999999999999999MW1051
0035036553999991961011717004+51933-001250SAO  +0133EGUA V0201101N003610108019N0018001N9+00241-00041999999ADDGF108991999999999999999999MW1051
0082036553999991961011718004+51933-001250SAO  +0133EGUA V0200901N002610108019N0018001N9+00191-00041102441ADDGA1091+999999999GA2091+010809059GF108991999999999999999999MA1999999100641MW1051
0035036553999991961011719004+51933-001250SAO  +0133EGUA V0201401N004110108019N0012001N9+00191-00041999999ADDGF108991999999999999999999MW1051
0035036553999991961011720004+51933-001250SAO  +0133EGUA V0201101N002610108019N0012001N9+00191+00021999999ADDGF108991999999999999999999MW1051
0082036553999991961011721004+51933-001250SAO  +0133EGUA V0201101N003110108019N0012001N9+00241-00041102441ADDGA1091+999999999GA2091+010809059GF108991999999999999999999MA1999999100681MW1051
0035036553999991961011722004+51933-001250SAO  +0133EGUA V0201101N003110108019N0012001N9+00241-00041999999ADDGF108991999999999999999999MW1051
0035036553999991961011723004+51933-001250SAO  +0133EGUA V0201101N004110105019N0016001N9+00241-00041999999ADDGF108991999999999999999999MW1051
0082036553999991961011800004+51933-001250SAO  +0133EGUA V0201101N003110051019N0032001N9+00241+00021102441ADDGA1091+999999999GA2091+005109059GF108991999999999999999999MA1999999100681MW1051
0035036553999991961011801004+51933-001250SAO  +0133EGUA V0201101N003110051019N0028001N9+00241+00021999999ADDGF108991999999999999999999MW1051
0035036553999991961011802004+51933-001250SAO  +0133EGUA V0201101N003610051019N0028001N9+00241+00021999999ADDGF108991999999999999999999MW1051
0082036553999991961011803004+51933-001250SAO  +0133EGUA V0201101N004110045019N0028001N9+00241+00021102441ADDGA1091+999999999GA2091+004509059GF108991999999999999999999MA1999999100681MW1051
0035036553999991961011804004+51933-001250SAO  +0133EGUA V0201101N004610030019N0028001N9+00241+00081999999ADDGF108991999999999999999999MW1051
0035036553999991961011805004+51933-001250SAO  +0133EGUA V0201601N004610021019N0036001N9+00301+00081999999ADDGF108991999999999999999999MW1051
0082036553999991961011806004+51933-001250SAO  +0133EGUA V0201601N003110018019N0036001N9+00301+00081102371ADDGA1061+001809079GA2081+002409079GF108991999999999999999999MA1999999100611MW1051
0035036553999991961011807004+51933-001250SAO  +0133EGUA V0201401N004110018019N0032001N9+00301+00191999999ADDGF108991999999999999999999MW1051
0041036553999991961011808004+51933-001250SAO  +0133EGUA V0201601N003610015019N0012001N9+00351+00191999999ADDGF108991999999999999999999MW1051MW2111
0088036553999991961011809004+51933-001250SAO  +0133EGUA V0201401N004610024019N0016001N9+00351+00241102401ADDGA1021+999999999GA2081+002409079GF108991999999999999999999MA1999999100641MW1051MW2451
0041036553999991961011810004+51933-001250SAO  +0133EGUA V0201401N006210027019N0024001N9+00461+00241999999ADDGF108991999999999999999999MW1051MW2111
0035036553999991961011811004+51933-001250SAO  +0133EGUA V0201601N004110024019N0036001N9+00521+00241999999ADDGF108991999999999999999999MW1051
0103036553999991961011812004+51933-001250SAO  +0133EGUA V0201601N005110024019N0040001N9+00581+00351102301ADDAA124000091GA1081+002409079GF108991999999999999999999KA1999M+00691KA2999N+00241MA1999999100541MW1051
0035036553999991961011813004+51933-001250SAO  +0133EGUA V0201601N006210036019N0040001N9+00691+00351999999ADDGF108991999999999999999999MW1051
0035036553999991961011814004+51933-001250SAO  +0133EGUA V0201601N005110036019N0040001N9+00691+00351999999ADDGF108991999999999999999999MW1051
0098036553999991961011815004+51933-001250SAO  +0133EGUA V0201601N005110045019N0048001N9+00691+00351102171ADDGA1051+004509059GA2021+030009039GA3011+220009009GF107991999999999999999999MA1999999100411MW1051
0035036553999991961011816004+51933-001250SAO  +0133EGUA V0201401N005710054019N0048001N9+00631+00301999999ADDGF108991999999999999999999MW1051
0035036553999991961011817004+51933-001250SAO  +0133EGUA V0201401N005110054019N0048001N9+00631+00301999999ADDGF108991999999999999999999MW1051
0082036553999991961011818004+51933-001250SAO  +0133EGUA V0201401N006710057019N0080001N9+00521+00191102131ADDGA1061+005709059GA2031+030009039GF108991999999999999999999MA1999999100371MW1051
0035036553999991961011819004+51933-001250SAO  +0133EGUA V0201401N005710141019N0064001N9+00461+00191999999ADDGF107991999999999999999999MW1051
0035036553999991961011820004+51933-001250SAO  +0133EGUA V0201401N005710141019N0048001N9+00411+00131999999ADDGF107991999999999999999999MW1051
0066036553999991961011821004+51933-001250SAO  +0133EGUA V0201401N005712200019N0040001N9+00351+00081102031ADDGA1001+999999999GF100991999999999999999999MA1999999100271MW1051
0035036553999991961011822004+51933-001250SAO  +0133EGUA V0201401N005112200019N0040001N9+00351+00131999999ADDGF102991999999999999999999MW1051
0035036553999991961011823004+51933-001250SAO  +0133EGUA V0201101N005112200019N0040001N9+00351+00081999999ADDGF107991999999999999999999MW1051
0082036553999991961011900004+51933-001250SAO  +0133EGUA V0201401N006712200019N0040001N9+00411+00191101931ADDGA1021+010509059GA2051+220009009GF107991999999999999999999MA1999999100171MW1051
0035036553999991961011901004+51933-001250SAO  +0133EGUA V0201401N005712200019N0040001N9+00411+00191999999ADDGF107991999999999999999999MW1051
0035036553999991961011902004+51933-001250SAO  +0133EGUA V0201401N004110150019N0040001N9+00411+00191999999ADDGF108991999999999999999999MW1051
0066036553999991961011903004+51933-001250SAO  +0133EGUA V0201401N004110180019N0040001N9+00461+00191101831ADDGA1081+018009059GF108991999999999999999999MA1999999100071MW1051
0035036553999991961011904004+51933-001250SAO  +0133EGUA V0201401N006210180019N0040001N9+00461+00191999999ADDGF107991999999999999999999MW1051
0035036553999991961011905004+51933-001250SAO  +0133EGUA V0201401N005110180019N0040001N9+00461+00191999999ADDGF107991999999999999999999MW1051
0082036553999991961011906004+51933-001250SAO  +0133EGUA V0201401N004610180019N0040001N9+00461+00191101691ADDGA1061+018009059GA2021+030009039GF108991999999999999999999MA1999999099931MW1051
0035036553999991961011907004+51933-001250SAO  +0133EGUA V0201401N006210180019N0040001N9+00461+00191999999ADDGF108991999999999999999999MW1051
0035036553999991961011908004+51933-001250SAO  +0133EGUA V0201401N004110180019N0040001N9+00461+00191999999ADDGF108991999999999999999999MW1051
0082036553999991961011909004+51933-001250SAO  +0133EGUA V0201401N004610270019N0048001N9+00461+00191101661ADDGA1021+005709059GA2081+027009039GF108991999999999999999999MA1999999099901MW1051
0035036553999991961011910004+51933-001250SAO  +0133EGUA V0201401N005710045019N0064001N9+00461+00191999999ADDGF108991999999999999999999MW1051
0041036553999991961011911004+51933-001250SAO  +0133EGUA V0201401N004110036019N0048001N9+00521+00301999999ADDGF108991999999999999999999MW1051MW2611
0125036553999991961011912004+51933-001250SAO  +0133EGUA V0201601N004110033019N0036001N9+00521+00301101561ADDAA124002091GA1041+001209079GA2081+003309049GF108991999999999999999999KA1999M+00521KA2999N+00411MA1999999099801MW1051MW2511
0041036553999991961011913004+51933-001250SAO  +0133EGUA V0201601N006210033019N0036001N9+00521+00351999999ADDGF108991999999999999999999MW1051MW2611
0047036553999991961011914004+51933-001250SAO  +0133EGUA V0201601N004110018019N0024001N9+00521+00411999999ADDGF108991999999999999999999MW1051MW2451MW3611
0088036553999991961011915004+51933-001250SAO  +0133EGUA V0201601N002610012019N0018001N9+00521+00411101421ADDGA1011+999999999GA2081+001209079GF108991999999999999999999MA1999999099661MW1051MW2451
0041036553999991961011916004+51933-001250SAO  +0133EGUA V0201601N002610120019N0024001N9+00521+00411999999ADDGF108991999999999999999999MW1051MW2111
0041036553999991961011917004+51933-001250SAO  +0133EGUA V0201401N003610120019N0018001N9+00521+00411999999ADDGF108991999999999999999999MW1051MW2111
0088036553999991961011918004+51933-001250SAO  +0133EGUA V0201101N004110090019N0040001N9+00521+00351101351ADDGA1061+009009059GA2081+024009039GF108991999999999999999999MA1999999099591MW1051MW2111
0041036553999991961011919004+51933-001250SAO  +0133EGUA V0201101N005110027019N0040001N9+00521+00351999999ADDGF108991999999999999999999MW1051MW2611
0041036553999991961011920004+51933-001250SAO  +0133EGUA V0201401N004110012019N0040001N9+00521+00411999999ADDGF108991999999999999999999MW1051MW2511
0088036553999991961011921004+51933-001250SAO  +0133EGUA V0200901N002610015019N0036001N9+00521+00411101291ADDGA1051+001509079GA2081+009009059GF108991999999999999999999MA1999999099531MW1051MW2511
0041036553999991961011922004+51933-001250SAO  +0133EGUA V0200901N003110063019N0036001N9+00521+00411999999ADDGF108991999999999999999999MW1051MW2511
0041036553999991961011923004+51933-001250SAO  +0133EGUA V0200701N002110012019N0036001N9+00521+00411999999ADDGF108991999999999999999999MW1051MW2611
0088036553999991961012000004+51933-001250SAO  +0133EGUA V0209991C000010012019N0040001N9+00461+00411101251ADDGA1071+001209079GA2021+002709079GF108991999999999999999999MA1999999099491MW1051MW2611
0041036553999991961012001004+51933-001250SAO  +0133EGUA V0203401N002110012019N0020001N9+00521+00411999999ADDGF108991999999999999999999MW1451MW2511
0035036553999991961012002004+51933-001250SAO  +0133EGUA V0203201N004110072019N0006001N9+00521+00351999999ADDGF108991999999999999999999MW1451
0082036553999991961012003004+51933-001250SAO  +0133EGUA V0203201N003110012019N0012001N9+00521+00411101461ADDGA1041+999999999GA2081+001209079GF108991999999999999999999MA1999999099701MW1451
0041036553999991961012004004+51933-001250SAO  +0133EGUA V0203201N004110012019N0012001N9+00461+00351999999ADDGF108991999999999999999999MW1451MW2511
0035036553999991961012005004+51933-001250SAO  +0133EGUA V0202901N003610012019N0012001N9+00461+00301999999ADDGF108991999999999999999999MW1451
0098036553999991961012006004+51933-001250SAO  +0133EGUA V0202901N005710012019N0012001N9+00461+00351101631ADDGA1021+999999999GA2051+001209079GA3081+007209059GF108991999999999999999999MA1999999099861MW1451
0035036553999991961012007004+51933-001250SAO  +0133EGUA V0203201N004610012019N0012001N9+00411+00301999999ADDGF108991999999999999999999MW1451
0035036553999991961012008004+51933-001250SAO  +0133EGUA V0202901N002110090019N0010001N9+00411+00301999999ADDGF108991999999999999999999MW1451
0088036553999991961012009004+51933-001250SAO  +0133EGUA V0202901N001510105019N0024001N9+00411+00241101831ADDGA1011+999999999GA2061+010509059GF107991999999999999999999MA1999999100071MW1051MW2111
0035036553999991961012010004+51933-001250SAO  +0133EGUA V0202701N002110120019N0040001N9+00581+00301999999ADDGF108991999999999999999999MW1051
0035036553999991961012011004+51933-001250SAO  +0133EGUA V0202701N003110120019N0064001N9+00581+00351999999ADDGF107991999999999999999999MW1051
0135036553999991961012012004+51933-001250SAO  +0133EGUA V0202301N002610120019N0080001N9+00631+00301101831ADDAA124003091GA1011+006009089GA2061+012009059GA3021+220009009GF108991999999999999999999KA1999M+00691KA2999N+00411MA1999999100071MW1051
0035036553999991961012013004+51933-001250SAO  +0133EGUA V0202301N004110120019N0064001N9+00581+00411999999ADDGF108991999999999999999999MW1051
0035036553999991961012014004+51933-001250SAO  +0133EGUA V0202301N003610120019N0064001N9+00581+00351999999ADDGF108991999999999999999999MW1051
0117036553999991961012015004+51933-001250SAO  +0133EGUA V0202301N002612200019N0064001N9+00691+00301101761ADDGA1999+007509999GA2031+012009059GA3031+220009009GF107991999999999999999999MA1999999100001MW1051EQDQ01    003SCCGA1
0035036553999991961012016004+51933-001250SAO  +0133EGUA V0202001N003112200019N0064001N9+00631+00351999999ADDGF107991999999999999999999MW1051
0035036553999991961012017004+51933-001250SAO  +0133EGUA V0202001N002612200019N0036001N9+00521+00351999999ADDGF108991999999999999999999MW1051
0098036553999991961012018004+51933-001250SAO  +0133EGUA V0202001N001510300019N0036001N9+00461+00301101761ADDGA1021+015009059GA2041+030009039GA3041+220009009GF108991999999999999999999MA1999999100001MW1051
0041036553999991961012019004+51933-001250SAO  +0133EGUA V0202001N002610150019N0032001N9+00411+00301999999ADDGF108991999999999999999999MW1051MW2111
0041036553999991961012020004+51933-001250SAO  +0133EGUA V0202001N004110150019N0040001N9+00461+00351999999ADDGF108991999999999999999999MW1111MW2611
0088036553999991961012021004+51933-001250SAO  +0133EGUA V0202001N003110105019N0040001N9+00461+00351101761ADDGA1061+010509059GA2051+015009059GF108991999999999999999999MA1999999100001MW1111MW2611
0041036553999991961012022004+51933-001250SAO  +0133EGUA V0201801N002610105019N0036001N9+00461+00411999999ADDGF108991999999999999999999MW1111MW2611
0041036553999991961012023004+51933-001250SAO  +0133EGUA V0201401N002110039019N0012001N9+00461+00461999999ADDGF108991999999999999999999MW1451MW2611
0094036553999991961012100004+51933-001250SAO  +0133EGUA V0201801N003110030019N0012001N9+00521+00411101421ADDGA1021+999999999GA2081+003009079GF108991999999999999999999MA1999999099661MW1451MW2511MW3611
0041036553999991961012101004+51933-001250SAO  +0133EGUA V0201801N003110030019N0012001N9+00581+00521999999ADDGF108991999999999999999999MW1451MW2611
0041036553999991961012102004+51933-001250SAO  +0133EGUA V0202001N004610015019N0096001N9+00691+00581999999ADDGF108991999999999999999999MW1511MW2611
0082036553999991961012103004+51933-001250SAO  +0133EGUA V0202001N005710018019N0128001N9+00691+00581101321ADDGA1051+001809079GA2051+015009059GF107991999999999999999999MA1999999099561MW1611
0035036553999991961012104004+51933-001250SAO  +0133EGUA V0202001N004610018019N0128001N9+00691+00581999999ADDGF108991999999999999999999MW1611
0035036553999991961012105004+51933-001250SAO  +0133EGUA V0202301N005710018019N0128001N9+00741+00581999999ADDGF108991999999999999999999MW1611
0098036553999991961012106004+51933-001250SAO  +0133EGUA V0202301N006710018019N0128001N9+00691+00581101191ADDGA1051+001809079GA2031+004509079GA3081+015009059GF108991999999999999999999MA1999999099421MW1001
0035036553999991961012107004+51933-001250SAO  +0133EGUA V0202001N004610045019N0128001N9+00691+00521999999ADDGF108991999999999999999999MW1001
0035036553999991961012108004+51933-001250SAO  +0133EGUA V0202301N004610018019N0080001N9+00631+00521999999ADDGF108991999999999999999999MW1051
0082036553999991961012109004+51933-001250SAO  +0133EGUA V0202001N004610018019N0080001N9+00631+00521101191ADDGA1071+001809079GA2011+024009039GF108991999999999999999999MA1999999099421MW1051
0035036553999991961012110004+51933-001250SAO  +0133EGUA V0202001N004110120019N0064001N9+00691+00581999999ADDGF108991999999999999999999MW1051
0035036553999991961012111004+51933-001250SAO  +0133EGUA V0201801N004110024019N0064001N9+00741+00581999999ADDGF107991999999999999999999MW1051
0119036553999991961012112004+51933-001250SAO  +0133EGUA V0202001N004110021019N0096001N9+00741+00631101111ADDAA124002091GA1021+001209079GA2081+002109079GF108991999999999999999999KA1999M+00851KA2999N+00521MA1999999099361MW1051
0035036553999991961012113004+51933-001250SAO  +0133EGUA V0202301N005110042019N0176001N9+00851+00631999999ADDGF108991999999999999999999MW1001
0035036553999991961012114004+51933-001250SAO  +0133EGUA V0201801N002610042019N0096001N9+00851+00631999999ADDGF108991999999999999999999MW1051
0088036553999991961012115004+51933-001250SAO  +0133EGUA V0201801N001510045019N0096001N9+00851+00631101011ADDGA1031+003009079GA2081+004509059GF108991999999999999999999MA1999999099291MW1051MW2801
0041036553999991961012116004+51933-001250SAO  +0133EGUA V0201801N002610045019N0080001N9+00801+00631999999ADDGF108991999999999999999999MW1051MW2801
0041036553999991961012117004+51933-001250SAO  +0133EGUA V0201801N002110084019N0096001N9+00801+00631999999ADDGF108991999999999999999999MW1051MW2801
0066036553999991961012118004+51933-001250SAO  +0133EGUA V0201801N002110084019N0096001N9+00741+00521101111ADDGA1081+008409059GF108991999999999999999999MA1999999099361MW1051
0035036553999991961012119004+51933-001250SAO  +0133EGUA V0201601N001510084019N0080001N9+00741+00581999999ADDGF108991999999999999999999MW1051
0041036553999991961012120004+51933-001250SAO  +0133EGUA V0200901N001010120019N0048001N9+00691+00521999999ADDGF108991999999999999999999MW1051MW2111
0072036553999991961012121004+51933-001250SAO  +0133EGUA V0201101N001510120019N0064001N9+00631+00521101141ADDGA1081+012009059GF108991999999999999999999MA1999999099391MW1051MW2111
0041036553999991961012122004+51933-001250SAO  +0133EGUA V0209991C000010120019N0048001N9+00631+00521999999ADDGF108991999999999999999999MW1051MW2111
0041036553999991961012123004+51933-001250SAO  +0133EGUA V0209991C000010120019N0032001N9+00581+00461999999ADDGF108991999999999999999999MW1051MW2111
0088036553999991961012200004+51933-001250SAO  +0133EGUA V0209991C000010039019N0040001N9+00631+00521101071ADDGA1061+003909079GA2081+012009059GF108991999999999999999999MA1999999099321MW1051MW2111
0041036553999991961012201004+51933-001250SAO  +0133EGUA V0200501N001510039019N0040001N9+00581+00461999999ADDGF108991999999999999999999MW1051MW2111
0041036553999991961012202004+51933-001250SAO  +0133EGUA V0209991C000010033019N0040001N9+00581+00461999999ADDGF108991999999999999999999MW1051MW2111
0082036553999991961012203004+51933-001250SAO  +0133EGUA V0200901N001510090019N0128001N9+00631+00461101111ADDGA1031+002709079GA2041+009009059GF107991999999999999999999MA1999999099361MW1001
0035036553999991961012204004+51933-001250SAO  +0133EGUA V0200201N001510039019N0064001N9+00521+00461999999ADDGF108991999999999999999999MW1111
0035036553999991961012205004+51933-001250SAO  +0133EGUA V0200201N001010039019N0064001N9+00581+00411999999ADDGF108991999999999999999999MW1111
0082036553999991961012206004+51933-001250SAO  +0133EGUA V0200201N002610042019N0036001N9+00521+00461101141ADDGA1021+999999999GA2081+004209059GF108991999999999999999999MA1999999099391MW1111
0035036553999991961012207004+51933-001250SAO  +0133EGUA V0200501N003110001519N0001001N9+00461+00411999999ADDGF108991999999999999999999MW1451
0035036553999991961012208004+51933-001250SAO  +0133EGUA V0200501N002110001519N0001001N9+00461+00461999999ADDGF108991999999999999999999MW1451
0066036553999991961012209004+51933-001250SAO  +0133EGUA V0200201N001510003019N0003001N9+00461+00461101311ADDGA1091+000309999GF109991999999999999999999MA1999999099561MW1451
0035036553999991961012210004+51933-001250SAO  +0133EGUA V0200501N003610003019N0001001N9+00461+00461999999ADDGF108991999999999999999999MW1451
0035036553999991961012211004+51933-001250SAO  +0133EGUA V0200701N005110003019N0001001N9+00461+00461999999ADDGF108991999999999999999999MW1451
0109036553999991961012212004+51933-001250SAO  +0133EGUA V0200701N003610006019N0001001N9+00461+00461101411ADDAA124000391GA1091+000609999GF109991999999999999999999KA1999M+00631KA2999N+00301MA1999999099661MW1451MW2511
0041036553999991961012213004+51933-001250SAO  +0133EGUA V0200701N005110006019N0003001N9+00461+00461999999ADDGF108991999999999999999999MW1451MW2511
0041036553999991961012214004+51933-001250SAO  +0133EGUA V0200701N005710009019N0008001N9+00461+00351999999ADDGF108991999999999999999999MW1451MW2511
0066036553999991961012215004+51933-001250SAO  +0133EGUA V0200701N006710009019N0018001N9+00411+00301101461ADDGA1091+000909999GF109991999999999999999999MA1999999099701MW1451
0035036553999991961012216004+51933-001250SAO  +0133EGUA V0200701N006710012019N0022001N9+00351+00241999999ADDGF108991999999999999999999MW1451
0035036553999991961012217004+51933-001250SAO  +0133EGUA V0200701N006710012019N0018001N9+00351+00241999999ADDGF108991999999999999999999MW1451
0066036553999991961012218004+51933-001250SAO  +0133EGUA V0200701N005110036019N0096001N9+00351+00191101591ADDGA1081+003609079GF108991999999999999999999MA1999999099831MW1051
0041036553999991961012219004+51933-001250SAO  +0133EGUA V0200901N003610042019N0064001N9+00351+00131999999ADDGF108991999999999999999999MW1051MW2611
0041036553999991961012220004+51933-001250SAO  +0133EGUA V0200901N001510063019N0048001N9+00351+00191999999ADDGF108991999999999999999999MW1051MW2611
0094036553999991961012221004+51933-001250SAO  +0133EGUA V0200501N002110081019N0036001N9+00351+00191101661ADDGA1021+001509079GA2081+008109059GF108991999999999999999999MA1999999099901MW1051MW2111MW3611
0041036553999991961012222004+51933-001250SAO  +0133EGUA V0200701N002110084019N0040001N9+00351+00131999999ADDGF108991999999999999999999MW1051MW2111
0041036553999991961012223004+51933-001250SAO  +0133EGUA V0200701N002610072019N0036001N9+00351+00131999999ADDGF108991999999999999999999MW1051MW2111
0072036553999991961012300004+51933-001250SAO  +0133EGUA V0200501N001510084019N0036001N9+00301+00131101491ADDGA1081+008409059GF108991999999999999999999MA1999999099731MW1051MW2111
0041036553999991961012301004+51933-001250SAO  +0133EGUA V0200701N002610084019N0036001N9+00301+00131999999ADDGF108991999999999999999999MW1051MW2111
0041036553999991961012302004+51933-001250SAO  +0133EGUA V0200901N003110084019N0036001N9+00301+00131999999ADDGF108991999999999999999999MW1051MW2111
0072036553999991961012303004+51933-001250SAO  +0133EGUA V0200701N003110081019N0036001N9+00241+00131101421ADDGA1081+008109059GF108991999999999999999999MA1999999099661MW1051MW2111
0041036553999991961012304004+51933-001250SAO  +0133EGUA V0200901N003110084019N0032001N9+00241+00131999999ADDGF108991999999999999999999MW1051MW2111
0041036553999991961012305004+51933-001250SAO  +0133EGUA V0200701N005110084019N0022001N9+00241+00131999999ADDGF108991999999999999999999MW1051MW2111
0088036553999991961012306004+51933-001250SAO  +0133EGUA V0200701N004110084019N0022001N9+00241+00081101251ADDGA1011+999999999GA2081+008409059GF108991999999999999999999MA1999999099491MW1051MW2111
0041036553999991961012307004+51933-001250SAO  +0133EGUA V0200701N004110084019N0026001N9+00191+00021999999ADDGF108991999999999999999999MW1051MW2111
0041036553999991961012308004+51933-001250SAO  +0133EGUA V0200901N002610108019N0032001N9+00191-00041999999ADDGF108991999999999999999999MW1051MW2111
0088036553999991961012309004+51933-001250SAO  +0133EGUA V0200701N003110240019N0040001N9+00191-00041101251ADDGA1061+011409049GA2081+024009039GF108991999999999999999999MA1999999099491MW1051MW2111
0035036553999991961012310004+51933-001250SAO  +0133EGUA V0200701N004110180019N0064001N9+00241-00091999999ADDGF108991999999999999999999MW1051
0035036553999991961012311004+51933-001250SAO  +0133EGUA V0200701N003610180019N0064001N9+00241-00091999999ADDGF108991999999999999999999MW1051
0135036553999991961012312004+51933-001250SAO  +0133EGUA V0200901N004610210019N0064001N9+00301-00261101321ADDAA124000091GA1091+999999999GA2011+013509059GA3071+021009039GF107991999999999999999999KA1999M+00351KA2999N+00131MA1999999099561MW1051
0035036553999991961012313004+51933-001250SAO  +0133EGUA V0200901N005710210019N0080001N9+00351-00371999999ADDGF107991999999999999999999MW1051
0035036553999991961012314004+51933-001250SAO  +0133EGUA V0200701N005110210019N0080001N9+00351-00311999999ADDGF107991999999999999999999MW1051
0098036553999991961012315004+51933-001250SAO  +0133EGUA V0200501N004112200019N0080001N9+00301-00151101291ADDGA1041+012009059GA2041+021009039GA3021+220009009GF107991999999999999999999MA1999999099531MW1051
0035036553999991961012316004+51933-001250SAO  +0133EGUA V0200501N003112200019N0080001N9+00191-00261999999ADDGF107991999999999999999999MW1051
0035036553999991961012317004+51933-001250SAO  +0133EGUA V0200501N002610135019N0096001N9+00191-00261999999ADDGF108991999999999999999999MW1051
0066036553999991961012318004+51933-001250SAO  +0133EGUA V0200501N002610120019N0096001N9+00191-00261101421ADDGA1081+012009059GF108991999999999999999999MA1999999099661MW1051
0035036553999991961012319004+51933-001250SAO  +0133EGUA V0200501N003110120019N0096001N9+00241-00091999999ADDGF108991999999999999999999MW1051
0035036553999991961012320004+51933-001250SAO  +0133EGUA V0200501N002610120019N0096001N9+00131-00091999999ADDGF108991999999999999999999MW1051
0066036553999991961012321004+51933-001250SAO  +0133EGUA V0200501N003110120019N0080001N9+00131-00041101491ADDGA1071+012009059GF107991999999999999999999MA1999999099701MW1051
0035036553999991961012322004+51933-001250SAO  +0133EGUA V0200501N002610105019N0080001N9+00131-00091999999ADDGF107991999999999999999999MW1051
0041036553999991961012323004+51933-001250SAO  +0133EGUA V0200501N002610012019N0080001N9+00191+00081999999ADDGF108991999999999999999999MW1051MW2111
0088036553999991961012400004+51933-001250SAO  +0133EGUA V0200501N002110012019N0064001N9+00191+00131101461ADDGA1031+000609079GA2081+001209079GF108991999999999999999999MA1999999099701MW1051MW2111
0035036553999991961012401004+51933-001250SAO  +0133EGUA V0200701N003610006019N0018001N9+00241+00131999999ADDGF108991999999999999999999MW1111
0035036553999991961012402004+51933-001250SAO  +0133EGUA V0200701N004110009019N0012001N9+00241+00131999999ADDGF108991999999999999999999MW1111
0098036553999991961012403004+51933-001250SAO  +0133EGUA V0200701N005110090019N0018001N9+00241+00131101351ADDGA1021+999999999GA2031+000909079GA3081+009009059GF108991999999999999999999MA1999999099591MW1111
0035036553999991961012404004+51933-001250SAO  +0133EGUA V0200701N004110012019N0018001N9+00191+00081999999ADDGF108991999999999999999999MW1111
0035036553999991961012405004+51933-001250SAO  +0133EGUA V0200501N002610090019N0036001N9+00191-00041999999ADDGF108991999999999999999999MW1111
0098036553999991961012406004+51933-001250SAO  +0133EGUA V0200701N004610090019N0036001N9+00191-00091101221ADDGA1021+001509079GA2031+003009079GA3081+009009059GF108991999999999999999999MA1999999099461MW1111
0035036553999991961012407004+51933-001250SAO  +0133EGUA V0200701N005110012019N0040001N9+00131-00041999999ADDGF108991999999999999999999MW1111
0035036553999991961012408004+51933-001250SAO  +0133EGUA V0200701N005110024019N0036001N9+00081-00041999999ADDGF108991999999999999999999MW1111
0082036553999991961012409004+51933-001250SAO  +0133EGUA V0200701N005110030019N0036001N9+00131+00081101191ADDGA1061+003009079GA2081+009009059GF108991999999999999999999MA1999999099391MW1111
0035036553999991961012410004+51933-001250SAO  +0133EGUA V0200701N006210051019N0022001N9+00131-00091999999ADDGF108991999999999999999999MW1111
0035036553999991961012411004+51933-001250SAO  +0133EGUA V0200901N005710018019N0028001N9+00131-00041999999ADDGF108991999999999999999999MW1451
0135036553999991961012412004+51933-001250SAO  +0133EGUA V0200901N005110018019N0036001N9+00191-00041101081ADDAA124999929GA1021+999999999GA2051+001809079GA3081+009009059GF108991999999999999999999KA1999M+00241KA2999N+00081MA1999999099291MW1451
0041036553999991961012413004+51933-001250SAO  +0133EGUA V0200901N004610015019N0032001N9+00191-00041999999ADDGF108991999999999999999999MW1451MW2511
0041036553999991961012414004+51933-001250SAO  +0133EGUA V0200901N005710021019N0032001N9+00191-00041999999ADDGF108991999999999999999999MW1451MW2511
0104036553999991961012415004+51933-001250SAO  +0133EGUA V0200901N006210051019N0036001N9+00131-00091100811ADDGA1011+999999999GA2021+002709079GA3081+005109059GF108991999999999999999999MA1999999099051MW1111MW2511
0041036553999991961012416004+51933-001250SAO  +0133EGUA V0201101N004110039019N0040001N9+00191-00151999999ADDGF108991999999999999999999MW1111MW2511
0041036553999991961012417004+51933-001250SAO  +0133EGUA V0200901N005110057019N0080001N9+00191-00151999999ADDGF107991999999999999999999MW1051MW2111
0088036553999991961012418004+51933-001250SAO  +0133EGUA V0200901N006210048019N0048001N9+00191-00091100641ADDGA1031+002709079GA2081+004809059GF108991999999999999999999MA1999999098881MW1051MW2111
0041036553999991961012419004+51933-001250SAO  +0133EGUA V0200901N006210057019N0064001N9+00131-00091999999ADDGF108991999999999999999999MW1051MW2111
0035036553999991961012420004+51933-001250SAO  +0133EGUA V0200901N006710051019N0080001N9+00131-00151999999ADDGF108991999999999999999999MW1051
0082036553999991961012421004+51933-001250SAO  +0133EGUA V0200901N007210039019N0080001N9+00131-00151100511ADDGA1011+002709079GA2081+003909059GF108991999999999999999999MA1999999098751MW1051
0035036553999991961012422004+51933-001250SAO  +0133EGUA V0200901N007710036019N0048001N9+00131-00151999999ADDGF108991999999999999999999MW1051
0035036553999991961012423004+51933-001250SAO  +0133EGUA V0200901N008210033019N0048001N9+00131-00201999999ADDGF108991999999999999999999MW1051
0066036553999991961012500004+51933-001250SAO  +0133EGUA V0200901N008710036019N0048001N9+00081-00311100371ADDGA1081+003609079GF108991999999999999999999MA1999999098611MW1051
0035036553999991961012501004+51933-001250SAO  +0133EGUA V0200901N008710039019N0048001N9+00021-00151999999ADDGF108991999999999999999999MW1051
0035036553999991961012502004+51933-001250SAO  +0133EGUA V0200901N007710042019N0048001N9+00021-00311999999ADDGF108991999999999999999999MW1051
0066036553999991961012503004+51933-001250SAO  +0133EGUA V0200901N008210042019N0064001N9+00021-00421100311ADDGA1081+004209079GF108991999999999999999999MA1999999098541MW1051
0035036553999991961012504004+51933-001250SAO  +0133EGUA V0200901N008210057019N0064001N9+00021-00481999999ADDGF108991999999999999999999MW1051
0035036553999991961012505004+51933-001250SAO  +0133EGUA V0200901N007210057019N0064001N9+00021-00421999999ADDGF108991999999999999999999MW1051
0066036553999991961012506004+51933-001250SAO  +0133EGUA V0200901N006210051019N0064001N9+00021-00261100341ADDGA1081+005109079GF108991999999999999999999MA1999999098581MW1051
0035036553999991961012507004+51933-001250SAO  +0133EGUA V0200701N006210045019N0064001N9+00021-00311999999ADDGF108991999999999999999999MW1051
0035036553999991961012508004+51933-001250SAO  +0133EGUA V0200701N006210039019N0064001N9+00021-00261999999ADDGF108991999999999999999999MW1051
0066036553999991961012509004+51933-001250SAO  +0133EGUA V0200701N007210030019N0080001N9+00021-00311100581ADDGA1081+003009059GF108991999999999999999999MA1999999098811MW1051
0041036553999991961012510004+51933-001250SAO  +0133EGUA V0200501N007210033019N0064001N9+00021-00261999999ADDGF108991999999999999999999MW1051MW2711
0035036553999991961012511004+51933-001250SAO  +0133EGUA V0200501N004110033019N0064001N9+00021-00311999999ADDGF108991999999999999999999MW1051
0125036553999991961012512004+51933-001250SAO  +0133EGUA V0200501N007210033019N0064001N9+00021-00091100781ADDAA124999929GA1061+003309059GA2031+006009059GF108991999999999999999999KA1999M+00131KA2999N-00091MA1999999099021MW1051MW2711
0035036553999991961012513004+51933-001250SAO  +0133EGUA V0200501N007210039019N0064001N9+00081-00091999999ADDGF108991999999999999999999MW1051
0041036553999991961012514004+51933-001250SAO  +0133EGUA V0200501N006710033019N0064001N9+00081-00371999999ADDGF108991999999999999999999MW1051MW2711
0098036553999991961012515004+51933-001250SAO  +0133EGUA V0200501N006210051019N0080001N9+00021-00311100911ADDGA1031+003009059GA2061+005109059GA3081+008409059GF108991999999999999999999MA1999999099121MW1051
0035036553999991961012516004+51933-001250SAO  +0133EGUA V0200501N006210051019N0080001N9+00021-00371999999ADDGF108991999999999999999999MW1051
0035036553999991961012517004+51933-001250SAO  +0133EGUA V0200501N006710057019N0096001N9+00021-00481999999ADDGF108991999999999999999999MW1051
0066036553999991961012518004+51933-001250SAO  +0133EGUA V0200501N006710057019N0128001N9-00041-00371101221ADDGA1081+005709059GF108991999999999999999999MA1999999099421MW1001
0035036553999991961012519004+51933-001250SAO  +0133EGUA V0200701N007210057019N0128001N9-00041-00701999999ADDGF108991999999999999999999MW1001
0035036553999991961012520004+51933-001250SAO  +0133EGUA V0200501N005110057019N0128001N9-00091-00651999999ADDGF108991999999999999999999MW1001
0066036553999991961012521004+51933-001250SAO  +0133EGUA V0200501N005710057019N0128001N9-00091-00701101491ADDGA1081+005709059GF108991999999999999999999MA1999999099701MW1001
0035036553999991961012522004+51933-001250SAO  +0133EGUA V0200201N004110069019N0128001N9-00091-00651999999ADDGF108991999999999999999999MW1001
0035036553999991961012523004+51933-001250SAO  +0133EGUA V0200501N005110072019N0128001N9-00091-00651999999ADDGF108991999999999999999999MW1001
0066036553999991961012600004+51933-001250SAO  +0133EGUA V0200701N004110063019N0128001N9-00091-00651101661ADDGA1081+006309059GF108991999999999999999999MA1999999099861MW1001
0035036553999991961012601004+51933-001250SAO  +0133EGUA V0200501N004610057019N0128001N9-00091-00591999999ADDGF108991999999999999999999MW1001
0035036553999991961012602004+51933-001250SAO  +0133EGUA V0200501N003110057019N0128001N9-00091-00591999999ADDGF108991999999999999999999MW1001
0066036553999991961012603004+51933-001250SAO  +0133EGUA V0200501N003610051019N0128001N9-00091-00651101831ADDGA1081+005109059GF108991999999999999999999MA1999999100031MW1001
0035036553999991961012604004+51933-001250SAO  +0133EGUA V0200201N002110051019N0128001N9-00091-00651999999ADDGF108991999999999999999999MW1001
0035036553999991961012605004+51933-001250SAO  +0133EGUA V0200501N002110051019N0128001N9-00091-00701999999ADDGF108991999999999999999999MW1001
0066036553999991961012606004+51933-001250SAO  +0133EGUA V0200701N003110045019N0128001N9-00091-00701101961ADDGA1081+004509059GF108991999999999999999999MA1999999100171MW1001
0035036553999991961012607004+51933-001250SAO  +0133EGUA V0200701N002110045019N0128001N9-00091-00701999999ADDGF108991999999999999999999MW1001
0035036553999991961012608004+51933-001250SAO  +0133EGUA V0200501N002610045019N0128001N9-00151-00871999999ADDGF108991999999999999999999MW1001
0082036553999991961012609004+51933-001250SAO  +0133EGUA V0200501N002110057019N0144001N9-00151-00811102171ADDGA1071+005709059GA2081+036009049GF108991999999999999999999MA1999999100371MW1001
0035036553999991961012610004+51933-001250SAO  +0133EGUA V0209991C000010057019N0144001N9-00151-00761999999ADDGF108991999999999999999999MW1001
0035036553999991961012611004+51933-001250SAO  +0133EGUA V0201101N002112200019N0176001N9-00041-00701999999ADDGF108991999999999999999999MW1001
0119036553999991961012612004+51933-001250SAO  +0133EGUA V0201101N001012200019N0176001N9-00041-00701102271ADDAA124000091GA1011+007509059GA2071+220009029GF107991999999999999999999KA1999M+00081KA2999N-00151MA1999999100471MW1001
0035036553999991961012613004+51933-001250SAO  +0133EGUA V0201601N002112200019N0176001N9-00041-00701999999ADDGF108991999999999999999999MW1001
0035036553999991961012614004+51933-001250SAO  +0133EGUA V0201801N002112200019N0160001N9-00041-00761999999ADDGF108991999999999999999999MW1001
0066036553999991961012615004+51933-001250SAO  +0133EGUA V0201801N002112200019N0128001N9-00041-00761102201ADDGA1081+220009029GF108991999999999999999999MA1999999100411MW1001
0035036553999991961012616004+51933-001250SAO  +0133EGUA V0201601N003110450019N0096001N9-00041-00761999999ADDGF108991999999999999999999MW1051
0035036553999991961012617004+51933-001250SAO  +0133EGUA V0201601N003110120019N0096001N9-00041-00761999999ADDGF108991999999999999999999MW1051
0066036553999991961012618004+51933-001250SAO  +0133EGUA V0201801N003610141019N0080001N9+00021-00481102171ADDGA1081+014109059GF108991999999999999999999MA1999999100371MW1051
0035036553999991961012619004+51933-001250SAO  +0133EGUA V0201601N003610141019N0080001N9-00041-00531999999ADDGF108991999999999999999999MW1051
0035036553999991961012620004+51933-001250SAO  +0133EGUA V0201601N003610057019N0080001N9-00041-00531999999ADDGF108991999999999999999999MW1051
0066036553999991961012621004+51933-001250SAO  +0133EGUA V0201601N004610057019N0064001N9-00041-00421102201ADDGA1081+005709059GF108991999999999999999999MA1999999100411MW1051
0035036553999991961012622004+51933-001250SAO  +0133EGUA V0201401N004110042019N0064001N9-00041-00531999999ADDGF108991999999999999999999MW1051
0035036553999991961012623004+51933-001250SAO  +0133EGUA V0201601N005110240019N0096001N9+00021-00421999999ADDGF108991999999999999999999MW1051
0066036553999991961012700004+51933-001250SAO  +0133EGUA V0201601N005110300019N0096001N9+00081-00261102031ADDGA1081+030009039GF108991999999999999999999MA1999999100241MW1051
0035036553999991961012701004+51933-001250SAO  +0133EGUA V0201601N006210300019N0096001N9+00131-00151999999ADDGF108991999999999999999999MW1051
0035036553999991961012702004+51933-001250SAO  +0133EGUA V0201601N006210270019N0096001N9+00191-00151999999ADDGF108991999999999999999999MW1051
0082036553999991961012703004+51933-001250SAO  +0133EGUA V0201601N007210090019N0080001N9+00241-00041101761ADDGA1051+009009059GA2081+027009039GF108991999999999999999999MA1999999099971MW1051
0035036553999991961012704004+51933-001250SAO  +0133EGUA V0201601N007210072019N0080001N9+00301+00021999999ADDGF108991999999999999999999MW1051
0035036553999991961012705004+51933-001250SAO  +0133EGUA V0201601N008210072019N0080001N9+00351+00131999999ADDGF108991999999999999999999MW1051
