0066036553999991960010100004+51933-001250SAO  +0138EGUA V0202001N007210051019N0144001N9+01071+00851099821ADDGA1081+005109059GF108991999999999999999999MA1999999098141MW1001
0035036553999991960010101004+51933-001250SAO  +0138EGUA V0202001N007210048019N0176001N9+01071+00911999999ADDGF108991999999999999999999MW1001
0035036553999991960010102004+51933-001250SAO  +0138EGUA V0202001N009810042019N0144001N9+01071+00961999999ADDGF108991999999999999999999MW1511
0082036553999991960010103004+51933-001250SAO  +0138EGUA V0202001N007710054019N0176001N9+01071+00911099691ADDGA1031+004209059GA2081+005409059GF108991999999999999999999MA1999999098001MW1001
0035036553999991960010104004+51933-001250SAO  +0138EGUA V0202301N007210045019N0176001N9+01071+00851999999ADDGF108991999999999999999999MW1001
0041036553999991960010105004+51933-001250SAO  +0138EGUA V0202001N007710045019N0176001N9+01071+00911999999ADDGF108991999999999999999999MW1511MW2611
0088036553999991960010106004+51933-001250SAO  +0138EGUA V0202001N007710030019N0096001N9+01021+00911099621ADDGA1061+003009079GA2081+004509059GF108991999999999999999999MA1999999097931MW1511MW2611
0035036553999991960010107004+51933-001250SAO  +0138EGUA V0202301N006710036019N0144001N9+00961+00911999999ADDGF108991999999999999999999MW1611
0035036553999991960010108004+51933-001250SAO  +0138EGUA V0202001N005110051019N0128001N9+00961+00911999999ADDGF108991999999999999999999MW1001
0114036553999991960010109004+51933-001250SAO  +0138EGUA V0202301N006210051019N0200001N9+01021+00911099721ADDGA1051+005109059GA2021+010509059GA3021+027009039GA4031+220009009GF108991999999999999999999MA1999999098041MW1001
0035036553999991960010110004+51933-001250SAO  +0138EGUA V0202501N005710027019N0176001N9+00961+00961999999ADDGF108991999999999999999999MW1001
0035036553999991960010111004+51933-001250SAO  +0138EGUA V0202701N006210072019N0176001N9+01021+00911999999ADDGF108991999999999999999999MW1001
0119036553999991960010112004+51933-001250SAO  +0138EGUA V0202901N007210030019N0240001N9+01021+00911099991ADDAA124001091GA1061+003009079GA2051+007209059GF108991999999999999999999KA1999M+01081KA2999N+00691MA1999999098311MW1511
0035036553999991960010113004+51933-001250SAO  +0138EGUA V0202901N005110072019N0176001N9+01021+00911999999ADDGF108991999999999999999999MW1001
0035036553999991960010114004+51933-001250SAO  +0138EGUA V0202701N006210072019N0240001N9+01021+00801999999ADDGF108991999999999999999999MW1001
0098036553999991960010115004+51933-001250SAO  +0138EGUA V0202701N007210084019N0240001N9+01021+00801100301ADDGA1021+004509059GA2041+008409059GA3021+012009059GF108991999999999999999999MA1999999098611MW1001
0035036553999991960010116004+51933-001250SAO  +0138EGUA V0202701N005110096019N0240001N9+01021+00691999999ADDGF107991999999999999999999MW1001
0035036553999991960010117004+51933-001250SAO  +0138EGUA V0202901N002610105019N0240001N9+00961+00691999999ADDGF108991999999999999999999MW1001
0066036553999991960010118004+51933-001250SAO  +0138EGUA V0203201N005110105019N0240001N9+00911+00581100601ADDGA1081+010509059GF108991999999999999999999MA1999999098921MW1001
0035036553999991960010119004+51933-001250SAO  +0138EGUA V0202701N003110105019N0240001N9+00851+00631999999ADDGF108991999999999999999999MW1001
0035036553999991960010120004+51933-001250SAO  +0138EGUA V0202701N002610105019N0240001N9+00801+00521999999ADDGF108991999999999999999999MW1001
0082036553999991960010121004+51933-001250SAO  +0138EGUA V0203201N002110105019N0240001N9+00801+00521100841ADDGA1021+007509059GA2081+010509059GF108991999999999999999999MA1999999099121MW1001
0035036553999991960010122004+51933-001250SAO  +0138EGUA V0209991C000010105019N0200001N9+00741+00631999999ADDGF108991999999999999999999MW1001
0035036553999991960010123004+51933-001250SAO  +0138EGUA V0209991C000010027019N0176001N9+00691+00631999999ADDGF108991999999999999999999MW1001
0082036553999991960010200004+51933-001250SAO  +0138EGUA V0203601N002110045019N0176001N9+00741+00631100901ADDGA1021+002709079GA2081+004509059GF108991999999999999999999MA1999999099191MW1001
0035036553999991960010201004+51933-001250SAO  +0138EGUA V0209991C000010051019N0128001N9+00691+00631999999ADDGF108991999999999999999999MW1001
0035036553999991960010202004+51933-001250SAO  +0138EGUA V0209991C000010045019N0128001N9+00631+00581999999ADDGF107991999999999999999999MW1001
0066036553999991960010203004+51933-001250SAO  +0138EGUA V0209991C000012200019N0001001N9+00461+00461100771ADDGA1021+999999999GF102991999999999999999999MA1999999099051MW1111
0035036553999991960010204004+51933-001250SAO  +0138EGUA V0201101N001510111019N0005001N9+00461+00461999999ADDGF108991999999999999999999MW1451
0035036553999991960010205004+51933-001250SAO  +0138EGUA V0201101N003110012019N0008001N9+00521+00521999999ADDGF108991999999999999999999MW1451
0082036553999991960010206004+51933-001250SAO  +0138EGUA V0200901N004110093019N0022001N9+00521+00521100571ADDGA1031+999999999GA2081+009309059GF108991999999999999999999MA1999999098851MW1451
0035036553999991960010207004+51933-001250SAO  +0138EGUA V0200901N003610012019N0018001N9+00581+00581999999ADDGF108991999999999999999999MW1451
0035036553999991960010208004+51933-001250SAO  +0138EGUA V0200901N003110012019N0018001N9+00631+00581999999ADDGF108991999999999999999999MW1451
0094036553999991960010209004+51933-001250SAO  +0138EGUA V0200901N004110015019N0018001N9+00581+00581100401ADDGA1021+999999999GA2081+001509079GF108991999999999999999999MA1999999098681MW1451MW2511MW3611
0047036553999991960010210004+51933-001250SAO  +0138EGUA V0200901N003110006019N0010001N9+00581+00581999999ADDGF108991999999999999999999MW1451MW2511MW3611
0035036553999991960010211004+51933-001250SAO  +0138EGUA V0200901N004110006019N0012001N9+00631+00581999999ADDGF108991999999999999999999MW1451
0119036553999991960010212004+51933-001250SAO  +0138EGUA V0200901N003110009019N0022001N9+00631+00631100331ADDAA124003091GA1021+999999999GA2081+000909079GF108991999999999999999999KA1999M+00741KA2999N+00461MA1999999098611MW1451
0041036553999991960010213004+51933-001250SAO  +0138EGUA V0200701N002610006019N0012001N9+00631+00631999999ADDGF108991999999999999999999MW1451MW2511
0035036553999991960010214004+51933-001250SAO  +0138EGUA V0200501N003610006019N0012001N9+00631+00631999999ADDGF108991999999999999999999MW1451
0088036553999991960010215004+51933-001250SAO  +0138EGUA V0200701N003610006019N0012001N9+00631+00631100301ADDGA1051+999999999GA2081+000609079GF108991999999999999999999MA1999999098581MW1451MW2511
0035036553999991960010216004+51933-001250SAO  +0138EGUA V0200701N003110003019N0020001N9+00581+00581999999ADDGF108991999999999999999999MW1451
0035036553999991960010217004+51933-001250SAO  +0138EGUA V0200701N004110003019N0010001N9+00581+00581999999ADDGF108991999999999999999999MW1451
0088036553999991960010218004+51933-001250SAO  +0138EGUA V0200701N003610006019N0012001N9+00581+00581100531ADDGA1041+999999999GA2081+000609079GF108991999999999999999999MA1999999098811MW1451MW2611
0047036553999991960010219004+51933-001250SAO  +0138EGUA V0200701N002610006019N0012001N9+00581+00581999999ADDGF108991999999999999999999MW1451MW2511MW3611
0041036553999991960010220004+51933-001250SAO  +0138EGUA V0200901N001510006019N0012001N9+00581+00581999999ADDGF108991999999999999999999MW1451MW2511
0088036553999991960010221004+51933-001250SAO  +0138EGUA V0200501N001510024019N0032001N9+00581+00581100901ADDGA1011+999999999GA2081+002409079GF108991999999999999999999MA1999999099151MW1451MW2511
0047036553999991960010222004+51933-001250SAO  +0138EGUA V0209991C000010036019N0024001N9+00581+00581999999ADDGF108991999999999999999999MW1451MW2511MW3611
0041036553999991960010223004+51933-001250SAO  +0138EGUA V0203601N001510036019N0012001N9+00581+00581999999ADDGF108991999999999999999999MW1451MW2511
0082036553999991960010300004+51933-001250SAO  +0138EGUA V0209991C000010036019N0012001N9+00581+00581101181ADDGA1021+999999999GA2081+003609079GF108991999999999999999999MA1999999099421MW1451
0041036553999991960010301004+51933-001250SAO  +0138EGUA V0200201N001510024019N0012001N9+00581+00581999999ADDGF108991999999999999999999MW1451MW2511
0041036553999991960010302004+51933-001250SAO  +0138EGUA V0209991C000010012019N0010001N9+00581+00581999999ADDGF108991999999999999999999MW1451MW2511
0098036553999991960010303004+51933-001250SAO  +0138EGUA V0209991C000010012019N0010001N9+00581+00581101381ADDGA1021+999999999GA2061+001209079GA3081+003009079GF108991999999999999999999MA1999999099631MW1451
0035036553999991960010304004+51933-001250SAO  +0138EGUA V0209991C000010015019N0010001N9+00581+00581999999ADDGF108991999999999999999999MW1451
0041036553999991960010305004+51933-001250SAO  +0138EGUA V0209991C000010051019N0064001N9+00581+00581999999ADDGF108991999999999999999999MW1051MW2111
0082036553999991960010306004+51933-001250SAO  +0138EGUA V0209991C000010093019N0005001N9+00581+00581101621ADDGA1051+999999999GA2081+009309059GF108991999999999999999999MA1999999099861MW1451
0035036553999991960010307004+51933-001250SAO  +0138EGUA V0209991C000010093019N0032001N9+00581+00581999999ADDGF108991999999999999999999MW1111
0035036553999991960010308004+51933-001250SAO  +0138EGUA V0209991C000010093019N0008001N9+00581+00581999999ADDGF108991999999999999999999MW1111
0082036553999991960010309004+51933-001250SAO  +0138EGUA V0209991C000010105019N0001001N9+00581+00581101791ADDGA1051+999999999GA2081+010509059GF108991999999999999999999MA1999999100031MW1451
0035036553999991960010310004+51933-001250SAO  +0138EGUA V0202001N002110003019N0001001N9+00581+00581999999ADDGF108991999999999999999999MW1451
0035036553999991960010311004+51933-001250SAO  +0138EGUA V0201801N002110003019N0000001N9+00581+00581999999ADDGF108991999999999999999999MW1451
0103036553999991960010312004+51933-001250SAO  +0138EGUA V0201801N002110003019N0001001N9+00631+00631101851ADDAA124004091GA1091+000309999GF109991999999999999999999KA1999M+00961KA2999N+00581MA1999999100101MW1451
0035036553999991960010313004+51933-001250SAO  +0138EGUA V0201601N001510003019N0005001N9+00691+00691999999ADDGF108991999999999999999999MW1451
0035036553999991960010314004+51933-001250SAO  +0138EGUA V0201801N002110006019N0006001N9+00741+00741999999ADDGF108991999999999999999999MW1451
0072036553999991960010315004+51933-001250SAO  +0138EGUA V0201801N001510006019N0008001N9+00801+00801101891ADDGA1091+000609999GF109991999999999999999999MA1999999100141MW1451MW2611
0041036553999991960010316004+51933-001250SAO  +0138EGUA V0201801N003110009019N0008001N9+00851+00851999999ADDGF108991999999999999999999MW1451MW2611
0041036553999991960010317004+51933-001250SAO  +0138EGUA V0201801N003110009019N0008001N9+00801+00801999999ADDGF108991999999999999999999MW1451MW2611
0094036553999991960010318004+51933-001250SAO  +0138EGUA V0201601N003110012019N0018001N9+00801+00801101921ADDGA1021+999999999GA2081+001209079GF108991999999999999999999MA1999999100171MW1451MW2511MW3611
0047036553999991960010319004+51933-001250SAO  +0138EGUA V0201801N004610009019N0036001N9+00851+00851999999ADDGF108991999999999999999999MW1451MW2511MW3611
0035036553999991960010320004+51933-001250SAO  +0138EGUA V0201801N003610015019N0036001N9+00851+00851999999ADDGF108991999999999999999999MW1451
0066036553999991960010321004+51933-001250SAO  +0138EGUA V0201801N004110018019N0048001N9+00851+00851101891ADDGA1081+001809079GF108991999999999999999999MA1999999100141MW1451
0035036553999991960010322004+51933-001250SAO  +0138EGUA V0201801N003110015019N0048001N9+00911+00911999999ADDGF108991999999999999999999MW1451
0035036553999991960010323004+51933-001250SAO  +0138EGUA V0202001N003110015019N0048001N9+00961+00961999999ADDGF108991999999999999999999MW1451
0066036553999991960010400004+51933-001250SAO  +0138EGUA V0202001N002110015019N0048001N9+00961+00961101921ADDGA1081+001509079GF108991999999999999999999MA1999999100201MW1451
0035036553999991960010401004+51933-001250SAO  +0138EGUA V0202001N002110015019N0048001N9+01021+01021999999ADDGF108991999999999999999999MW1451
0041036553999991960010402004+51933-001250SAO  +0138EGUA V0202301N002110009019N0048001N9+01021+01021999999ADDGF108991999999999999999999MW1451MW2511
0066036553999991960010403004+51933-001250SAO  +0138EGUA V0209991C000012200019N0064001N9+01021+01021102061ADDGA1041+003909079GF102991999999999999999999MA1999999100341MW1051
0035036553999991960010404004+51933-001250SAO  +0138EGUA V0209991C000012200019N0128001N9+01021+01021999999ADDGF102991999999999999999999MW1001
0035036553999991960010405004+51933-001250SAO  +0138EGUA V0202301N003112200019N0128001N9+00961+00961999999ADDGF107991999999999999999999MW1001
0082036553999991960010406004+51933-001250SAO  +0138EGUA V0202301N002112200019N0128001N9+00961+00911102231ADDGA1021+012009059GA2041+220009029GF107991999999999999999999MA1999999100511MW1001
0035036553999991960010407004+51933-001250SAO  +0138EGUA V0209991C000012200019N0096001N9+00911+00851999999ADDGF102991999999999999999999MW1051
0041036553999991960010408004+51933-001250SAO  +0138EGUA V0202701N002112200019N0036001N9+00911+00801999999ADDGF107991999999999999999999MW1051MW2111
0088036553999991960010409004+51933-001250SAO  +0138EGUA V0202301N001510012019N0022001N9+00911+00851102361ADDGA1011+999999999GA2081+001209079GF108991999999999999999999MA1999999100641MW1051MW2451
0035036553999991960010410004+51933-001250SAO  +0138EGUA V0202301N002610300019N0128001N9+00961+00911999999ADDGF108991999999999999999999MW1001
0041036553999991960010411004+51933-001250SAO  +0138EGUA V0201801N003110270019N0080001N9+01021+00961999999ADDGF108991999999999999999999MW1051MW2111
0125036553999991960010412004+51933-001250SAO  +0138EGUA V0202001N003610240019N0064001N9+01021+00961102431ADDAA124000391GA1051+001809079GA2081+024009039GF108991999999999999999999KA1999M+01191KA2999N+00911MA1999999100711MW1051MW2111
0041036553999991960010413004+51933-001250SAO  +0138EGUA V0202001N004610033019N0080001N9+01071+00961999999ADDGF108991999999999999999999MW1051MW2111
0035036553999991960010414004+51933-001250SAO  +0138EGUA V0201801N003610027019N0080001N9+01071+00961999999ADDGF108991999999999999999999MW1051
0072036553999991960010415004+51933-001250SAO  +0138EGUA V0201801N003610021019N0048001N9+01071+01021102361ADDGA1081+002109079GF108991999999999999999999MA1999999100641MW1051MW2111
0035036553999991960010416004+51933-001250SAO  +0138EGUA V0201801N003610006019N0018001N9+01071+01071999999ADDGF108991999999999999999999MW1451
0047036553999991960010417004+51933-001250SAO  +0138EGUA V0201801N005110006019N0012001N9+01131+01131999999ADDGF108991999999999999999999MW1451MW2511MW3611
0072036553999991960010418004+51933-001250SAO  +0138EGUA V0202001N006710015019N0080001N9+01191+01191102291ADDGA1081+001509079GF108991999999999999999999MA1999999100581MW1451MW2511
0035036553999991960010419004+51933-001250SAO  +0138EGUA V0202301N006710069019N0176001N9+01191+01071999999ADDGF108991999999999999999999MW1001
0035036553999991960010420004+51933-001250SAO  +0138EGUA V0202301N006710072019N0176001N9+01191+00961999999ADDGF108991999999999999999999MW1001
0082036553999991960010421004+51933-001250SAO  +0138EGUA V0202301N006210084019N0176001N9+01131+00911102291ADDGA1021+005409059GA2081+008409059GF108991999999999999999999MA1999999100581MW1001
0035036553999991960010422004+51933-001250SAO  +0138EGUA V0202001N007210063019N0176001N9+01131+00961999999ADDGF108991999999999999999999MW1001
0035036553999991960010423004+51933-001250SAO  +0138EGUA V0202301N007210105019N0176001N9+01071+00851999999ADDGF108991999999999999999999MW1001
0066036553999991960010500004+51933-001250SAO  +0138EGUA V0202301N006210105019N0176001N9+01071+00851102261ADDGA1051+010509059GF107991999999999999999999MA1999999100541MW1001
0035036553999991960010501004+51933-001250SAO  +0138EGUA V0202301N007210105019N0176001N9+01071+00851999999ADDGF107991999999999999999999MW1001
0035036553999991960010502004+51933-001250SAO  +0138EGUA V0202301N006210105019N0176001N9+01071+00851999999ADDGF108991999999999999999999MW1001
0066036553999991960010503004+51933-001250SAO  +0138EGUA V0202301N007210033019N0144001N9+01071+00911102231ADDGA1081+003309079GF108991999999999999999999MA1999999100511MW1001
0041036553999991960010504004+51933-001250SAO  +0138EGUA V0202301N005110030019N0096001N9+01021+01021999999ADDGF108991999999999999999999MW1051MW2511
0041036553999991960010505004+51933-001250SAO  +0138EGUA V0202501N006210024019N0036001N9+01071+01071999999ADDGF108991999999999999999999MW1051MW2511
0066036553999991960010506004+51933-001250SAO  +0138EGUA V0202501N004610027019N0128001N9+01071+01071102231ADDGA1081+002709079GF108991999999999999999999MA1999999100511MW1511
0035036553999991960010507004+51933-001250SAO  +0138EGUA V0203401N005710057019N0128001N9+00741+00631999999ADDGF108991999999999999999999MW1001
0035036553999991960010508004+51933-001250SAO  +0138EGUA V0203401N006210105019N0128001N9+00691+00581999999ADDGF108991999999999999999999MW1001
0098036553999991960010509004+51933-001250SAO  +0138EGUA V0203201N009310120019N0144001N9+00631+00411102671ADDGA1051+012009059GA2031+024009049GA3021+220009009GF108991999999999999999999MA1999999100951MW1001
0035036553999991960010510004+51933-001250SAO  +0138EGUA V0203201N006210240019N0144001N9+00581+00411999999ADDGF107991999999999999999999MW1001
0035036553999991960010511004+51933-001250SAO  +0138EGUA V0203401N006210240019N0144001N9+00631+00411999999ADDGF108991999999999999999999MW1001
0103036553999991960010512004+51933-001250SAO  +0138EGUA V0203401N006210300019N0080001N9+00691+00461102901ADDAA124000591GA1051+030009039GF107991999999999999999999KA1999M+01081KA2999N+00241MA1999999101151MW1051
0035036553999991960010513004+51933-001250SAO  +0138EGUA V0203201N006212200019N0080001N9+00741+00411999999ADDGF102991999999999999999999MW1051
0035036553999991960010514004+51933-001250SAO  +0138EGUA V0203401N006212200019N0096001N9+00741+00351999999ADDGF102991999999999999999999MW1051
0066036553999991960010515004+51933-001250SAO  +0138EGUA V0203401N005712200019N0128001N9+00741+00301103071ADDGA1021+007509059GF102991999999999999999999MA1999999101321MW1001
0035036553999991960010516004+51933-001250SAO  +0138EGUA V0203201N004612200019N0176001N9+00581+00131999999ADDGF102991999999999999999999MW1001
0035036553999991960010517004+51933-001250SAO  +0138EGUA V0202901N004112200019N0176001N9+00411+00131999999ADDGF102991999999999999999999MW1001
0066036553999991960010518004+51933-001250SAO  +0138EGUA V0203201N004612200019N0176001N9+00351+00081103281ADDGA1011+220009009GF102991999999999999999999MA1999999101491MW1001
0035036553999991960010519004+51933-001250SAO  +0138EGUA V0203201N005112200019N0240001N9+00301+00081999999ADDGF100991999999999999999999MW1001
0035036553999991960010520004+51933-001250SAO  +0138EGUA V0203201N005112200019N0176001N9+00301+00021999999ADDGF100991999999999999999999MW1001
0050036553999991960010521004+51933-001250SAO  +0138EGUA V0202901N005112200019N0176001N9+00301+00021103391ADDGF100991999999999999999999MA1999999101591MW1001
0035036553999991960010522004+51933-001250SAO  +0138EGUA V0202901N006212200019N0176001N9+00301+00021999999ADDGF100991999999999999999999MW1001
0035036553999991960010523004+51933-001250SAO  +0138EGUA V0202901N006212200019N0176001N9+00241-00041999999ADDGF100991999999999999999999MW1001
0066036553999991960010600004+51933-001250SAO  +0138EGUA V0202901N006212200019N0160001N9+00301+00021103491ADDGA1011+220009009GF102991999999999999999999MA1999999101691MW1001
0035036553999991960010601004+51933-001250SAO  +0138EGUA V0203201N006212200019N0176001N9+00301+00021999999ADDGF100991999999999999999999MW1001
0035036553999991960010602004+51933-001250SAO  +0138EGUA V0203201N005712200019N0176001N9+00191-00041999999ADDGF100991999999999999999999MW1001
0066036553999991960010603004+51933-001250SAO  +0138EGUA V0203201N004612200019N0176001N9+00131-00041103521ADDGA1001+999999999GF100991999999999999999999MA1999999101731MW1001
0035036553999991960010604004+51933-001250SAO  +0138EGUA V0203201N005112200019N0176001N9+00131-00041999999ADDGF100991999999999999999999MW1001
0035036553999991960010605004+51933-001250SAO  +0138EGUA V0203201N004112200019N0176001N9+00191-00041999999ADDGF100991999999999999999999MW1001
0066036553999991960010606004+51933-001250SAO  +0138EGUA V0203401N004612200019N0176001N9+00131-00041103521ADDGA1001+999999999GF100991999999999999999999MA1999999101731MW1001
0035036553999991960010607004+51933-001250SAO  +0138EGUA V0203401N004112200019N0128001N9+00081+00021999999ADDGF100991999999999999999999MW1001
0041036553999991960010608004+51933-001250SAO  +0138EGUA V0203401N003112200019N0080001N9+00131+00021999999ADDGF102991999999999999999999MW1051MW2111
0072036553999991960010609004+51933-001250SAO  +0138EGUA V0203201N003112200019N0048001N9+00131+00081103591ADDGA1011+220009009GF102991999999999999999999MA1999999101791MW1051MW2111
0041036553999991960010610004+51933-001250SAO  +0138EGUA V0203401N003112200019N0064001N9+00301+00131999999ADDGF102991999999999999999999MW1051MW2111
0041036553999991960010611004+51933-001250SAO  +0138EGUA V0203201N003612200019N0048001N9+00411+00241999999ADDGF102991999999999999999999MW1051MW2111
0109036553999991960010612004+51933-001250SAO  +0138EGUA V0203201N003612200019N0028001N9+00461+00301103661ADDAA124000091GA1071+220009009GF107991999999999999999999KA1999M+00581KA2999N-00041MA1999999101861MW1051MW2111
0035036553999991960010613004+51933-001250SAO  +0138EGUA V0203201N002112200019N0024001N9+00581+00351999999ADDGF107991999999999999999999MW1051
0035036553999991960010614004+51933-001250SAO  +0138EGUA V0203401N001512200019N0036001N9+00581+00351999999ADDGF107991999999999999999999MW1051
0066036553999991960010615004+51933-001250SAO  +0138EGUA V0203201N001512200019N0040001N9+00581+00351103521ADDGA1081+220009009GF108991999999999999999999MA1999999101731MW1051
0041036553999991960010616004+51933-001250SAO  +0138EGUA V0209991C000012200019N0036001N9+00411+00301999999ADDGF108991999999999999999999MW1051MW2111
0041036553999991960010617004+51933-001250SAO  +0138EGUA V0209991C000012200019N0012001N9+00301+00191999999ADDGF107991999999999999999999MW1051MW2111
0088036553999991960010618004+51933-001250SAO  +0138EGUA V0209991C000012200019N0012001N9+00241+00241103491ADDGA1021+999999999GA2031+220009009GF107991999999999999999999MA1999999101661MW1051MW2111
0035036553999991960010619004+51933-001250SAO  +0138EGUA V0209991C000012200019N0012001N9+00301+00241999999ADDGF108991999999999999999999MW1111
0035036553999991960010620004+51933-001250SAO  +0138EGUA V0203201N002112200019N0010001N9+00191+00191999999ADDGF107991999999999999999999MW1111
0082036553999991960010621004+51933-001250SAO  +0138EGUA V0203601N001512200019N0010001N9+00191+00191103451ADDGA1021+999999999GA2041+220009009GF107991999999999999999999MA1999999101631MW1111
0035036553999991960010622004+51933-001250SAO  +0138EGUA V0203401N002112200019N0005001N9+00081+00081999999ADDGF108991999999999999999999MW1451
0035036553999991960010623004+51933-001250SAO  +0138EGUA V0209991C000010240019N0010001N9+00191+00191999999ADDGF108991999999999999999999MW1111
0082036553999991960010700004+51933-001250SAO  +0138EGUA V0209991C000010270019N0000001N9-00041-00041103351ADDGA1061+999999999GA2081+027009039GF108991999999999999999999MA1999999101561MW1451
0035036553999991960010701004+51933-001250SAO  +0138EGUA V0209991C000012200019N0001001N9-00151-00151999999ADDGF107991999999999999999999MW1451
0035036553999991960010702004+51933-001250SAO  +0138EGUA V0209991C000010001519N0000001N9-00151-00201999999ADDGF108991999999999999999999MW1451
0066036553999991960010703004+51933-001250SAO  +0138EGUA V0209991C000012200019N0001001N9-00091-00151103251ADDGA1061+999999999GF107991999999999999999999MA1999999101461MW1451
0035036553999991960010704004+51933-001250SAO  +0138EGUA V0209991C000010001519N0000001N9-00091-00091999999ADDGF108991999999999999999999MW1451
0035036553999991960010705004+51933-001250SAO  +0138EGUA V0209991C000010001519N0000001N9-00151-00151999999ADDGF108991999999999999999999MW1451
0066036553999991960010706004+51933-001250SAO  +0138EGUA V0209991C000010001519N0000001N9-00091-00091103081ADDGA1091+000159999GF109991999999999999999999MA1999999101251MW1451
0035036553999991960010707004+51933-001250SAO  +0138EGUA V0209991C000010001519N0001001N9-00091-00091999999ADDGF108991999999999999999999MW1451
0035036553999991960010708004+51933-001250SAO  +0138EGUA V0209991C000010001519N0001001N9-00091-00091999999ADDGF108991999999999999999999MW1451
0082036553999991960010709004+51933-001250SAO  +0138EGUA V0209991C000010105019N0001001N9-00041-00041103051ADDGA1071+999999999GA2081+010509059GF108991999999999999999999MA1999999101221MW1451
0035036553999991960010710004+51933-001250SAO  +0138EGUA V0209991C000010001519N0000001N9-00041-00041999999ADDGF108991999999999999999999MW1451
0035036553999991960010711004+51933-001250SAO  +0138EGUA V0209991C000010120019N0000001N9-00041-00041999999ADDGF108991999999999999999999MW1451
0103036553999991960010712004+51933-001250SAO  +0138EGUA V0209991C000010001519N0001001N9-00041-00041102981ADDAA124000091GA1091+000159999GF109991999999999999999999KA1999M+00131KA2999N-00201MA1999999101151MW1451
0035036553999991960010713004+51933-001250SAO  +0138EGUA V0209991C000010240019N0005001N9+00131+00131999999ADDGF108991999999999999999999MW1451
0035036553999991960010714004+51933-001250SAO  +0138EGUA V0209991C000010006019N0001001N9+00081+00081999999ADDGF108991999999999999999999MW1451
0098036553999991960010715004+51933-001250SAO  +0138EGUA V0209991C000010150019N0003001N9+00131+00131102781ADDGA1031+999999999GA2031+015009059GA3081+021009039GF108991999999999999999999MA1999999100981MW1111
0035036553999991960010716004+51933-001250SAO  +0138EGUA V0209991C000010210019N0000001N9+00081+00081999999ADDGF107991999999999999999999MW1451
0041036553999991960010717004+51933-001250SAO  +0138EGUA V0209991C000012200019N0000001N9-00091-00091999999ADDGF102991999999999999999999MW1041MW2111
0072036553999991960010718004+51933-001250SAO  +0138EGUA V0209991C000012200019N0000001N9-00151-00151102741ADDGA1061+999999999GF107991999999999999999999MA1999999100951MW1041MW2451
0041036553999991960010719004+51933-001250SAO  +0138EGUA V0209991C000012200019N0000001N9-00201-00201999999ADDGF107991999999999999999999MW1041MW2451
0035036553999991960010720004+51933-001250SAO  +0138EGUA V0209991C000012200019N0000001N9-00201-00201999999ADDGF107991999999999999999999MW1451
0066036553999991960010721004+51933-001250SAO  +0138EGUA V0209991C000012200019N0000001N9-00201-00261102711ADDGA1061+999999999GF107991999999999999999999MA1999999100911MW1451
0035036553999991960010722004+51933-001250SAO  +0138EGUA V0209991C000012200019N0000001N9-00201-00261999999ADDGF107991999999999999999999MW1451
0035036553999991960010723004+51933-001250SAO  +0138EGUA V0203601N002610001519N0000001N9-00201-00261999999ADDGF108991999999999999999999MW1451
0066036553999991960010800004+51933-001250SAO  +0138EGUA V0203401N003110001519N0000001N9-00201-00201102641ADDGA1091+000159999GF109991999999999999999999MA1999999100851MW1451
0035036553999991960010801004+51933-001250SAO  +0138EGUA V0203601N003110001519N0000001N9-00201-00201999999ADDGF108991999999999999999999MW1451
0035036553999991960010802004+51933-001250SAO  +0138EGUA V0203601N003610001519N0000001N9-00091-00091999999ADDGF108991999999999999999999MW1451
0066036553999991960010803004+51933-001250SAO  +0138EGUA V0203601N002110001519N0000001N9-00041-00041102571ADDGA1091+000159999GF109991999999999999999999MA1999999100781MW1451
0035036553999991960010804004+51933-001250SAO  +0138EGUA V0203601N003110001519N0001001N9-00041-00041999999ADDGF108991999999999999999999MW1451
0035036553999991960010805004+51933-001250SAO  +0138EGUA V0203601N004110001519N0001001N9-00041-00041999999ADDGF108991999999999999999999MW1451
0066036553999991960010806004+51933-001250SAO  +0138EGUA V0203401N002610003019N0001001N9-00091-00091102541ADDGA1091+000309999GF109991999999999999999999MA1999999100751MW1451
0035036553999991960010807004+51933-001250SAO  +0138EGUA V0203601N003110006019N0001001N9-00091-00091999999ADDGF108991999999999999999999MW1451
0035036553999991960010808004+51933-001250SAO  +0138EGUA V0203401N002610006019N0001001N9-00041-00041999999ADDGF108991999999999999999999MW1451
0066036553999991960010809004+51933-001250SAO  +0138EGUA V0203401N003610001519N0000001N9+00021+00021102541ADDGA1091+000159999GF109991999999999999999999MA1999999100751MW1451
0035036553999991960010810004+51933-001250SAO  +0138EGUA V0203601N005110003019N0001001N9+00081-00091999999ADDGF108991999999999999999999MW1451
0035036553999991960010811004+51933-001250SAO  +0138EGUA V0203401N004110003019N0000001N9+00131+00081999999ADDGF108991999999999999999999MW1451
0103036553999991960010812004+51933-001250SAO  +0138EGUA V0203401N005110003019N0003001N9+00191+00191102511ADDAA124999929GA1091+000309999GF109991999999999999999999KA1999M+00351KA2999N-00201MA1999999100711MW1451
0035036553999991960010813004+51933-001250SAO  +0138EGUA V0203401N004110063019N0005001N9+00241+00191999999ADDGF108991999999999999999999MW1451
0041036553999991960010814004+51933-001250SAO  +0138EGUA V0203401N004110063019N0005001N9+00301+00301999999ADDGF108991999999999999999999MW1451MW2511
0082036553999991960010815004+51933-001250SAO  +0138EGUA V0203601N003610063019N0005001N9+00301+00241102401ADDGA1041+999999999GA2081+006309059GF108991999999999999999999MA1999999100611MW1111
0035036553999991960010816004+51933-001250SAO  +0138EGUA V0203401N003110063019N0005001N9+00301+00301999999ADDGF108991999999999999999999MW1451
0035036553999991960010817004+51933-001250SAO  +0138EGUA V0203401N003610006019N0003001N9+00351+00301999999ADDGF108991999999999999999999MW1451
0066036553999991960010818004+51933-001250SAO  +0138EGUA V0203401N004110009019N0008001N9+00351+00351102401ADDGA1091+000909999GF109991999999999999999999MA1999999100611MW1451
0035036553999991960010819004+51933-001250SAO  +0138EGUA V0203401N003110069019N0005001N9+00301+00301999999ADDGF108991999999999999999999MW1451
0035036553999991960010820004+51933-001250SAO  +0138EGUA V0203601N003110033019N0008001N9+00301+00301999999ADDGF108991999999999999999999MW1451
0066036553999991960010821004+51933-001250SAO  +0138EGUA V0203401N003112200019N0006001N9+00301+00301102511ADDGA1041+999999999GF102991999999999999999999MA1999999100711MW1111
0035036553999991960010822004+51933-001250SAO  +0138EGUA V0203601N003110093019N0040001N9+00301+00241999999ADDGF107991999999999999999999MW1111
0035036553999991960010823004+51933-001250SAO  +0138EGUA V0200201N003110105019N0040001N9+00241+00241999999ADDGF107991999999999999999999MW1111
0066036553999991960010900004+51933-001250SAO  +0138EGUA V0200201N004612200019N0080001N9+00241+00241102541ADDGA1011+006909059GF102991999999999999999999MA1999999100781MW1051
0035036553999991960010901004+51933-001250SAO  +0138EGUA V0200201N004112200019N0080001N9+00191+00191999999ADDGF100991999999999999999999MW1051
0035036553999991960010902004+51933-001250SAO  +0138EGUA V0200501N004112200019N0080001N9+00131+00131999999ADDGF100991999999999999999999MW1051
0066036553999991960010903004+51933-001250SAO  +0138EGUA V0200501N004112200019N0080001N9+00131+00021102611ADDGA1001+999999999GF100991999999999999999999MA1999999100851MW1051
0035036553999991960010904004+51933-001250SAO  +0138EGUA V0200201N004112200019N0096001N9+00131+00021999999ADDGF100991999999999999999999MW1051
0035036553999991960010905004+51933-001250SAO  +0138EGUA V0200201N003112200019N0096001N9+00021-00041999999ADDGF100991999999999999999999MW1051
0066036553999991960010906004+51933-001250SAO  +0138EGUA V0200501N004112200019N0096001N9-00041-00151102681ADDGA1021+018009059GF102991999999999999999999MA1999999100881MW1051
0035036553999991960010907004+51933-001250SAO  +0138EGUA V0200501N004110180019N0096001N9+00081-00041999999ADDGF108991999999999999999999MW1051
0035036553999991960010908004+51933-001250SAO  +0138EGUA V0200701N005110180019N0128001N9+00131-00091999999ADDGF108991999999999999999999MW1001
0066036553999991960010909004+51933-001250SAO  +0138EGUA V0200901N006210180019N0096001N9+00081-00151102951ADDGA1071+018009059GF107991999999999999999999MA1999999101121MW1051
0035036553999991960010910004+51933-001250SAO  +0138EGUA V0200701N006210150019N0096001N9+00081-00151999999ADDGF107991999999999999999999MW1051
0035036553999991960010911004+51933-001250SAO  +0138EGUA V0200701N006212200019N0128001N9+00081-00261999999ADDGF102991999999999999999999MW1001
0119036553999991960010912004+51933-001250SAO  +0138EGUA V0200901N006712200019N0176001N9+00131-00371102951ADDAA124000091GA1031+006909089GA2011+015009059GF102991999999999999999999KA1999M+00241KA2999N-00151MA1999999101151MW1001
0035036553999991960010913004+51933-001250SAO  +0138EGUA V0200201N007210093019N0176001N9+00131-00371999999ADDGF107991999999999999999999MW1001
0035036553999991960010914004+51933-001250SAO  +0138EGUA V0200901N006710099019N0128001N9+00021+00021999999ADDGF107991999999999999999999MW1001
0082036553999991960010915004+51933-001250SAO  +0138EGUA V0200901N006212200019N0176001N9+00021+00021102981ADDGA1021+009009089GA2021+220009009GF102991999999999999999999MA1999999101151MW1001
0035036553999991960010916004+51933-001250SAO  +0138EGUA V0200501N004612200019N0176001N9-00041-00371999999ADDGF102991999999999999999999MW1001
0035036553999991960010917004+51933-001250SAO  +0138EGUA V0200201N004112200019N0176001N9-00041-00421999999ADDGF102991999999999999999999MW1001
0066036553999991960010918004+51933-001250SAO  +0138EGUA V0200501N005112200019N0128001N9-00091-00261103011ADDGA1011+010509089GF102991999999999999999999MA1999999101191MW1001
0035036553999991960010919004+51933-001250SAO  +0138EGUA V0200501N004112200019N0128001N9-00151-00421999999ADDGF102991999999999999999999MW1001
0035036553999991960010920004+51933-001250SAO  +0138EGUA V0200501N004612200019N0128001N9-00091-00311999999ADDGF102991999999999999999999MW1001
0066036553999991960010921004+51933-001250SAO  +0138EGUA V0200201N004610105019N0128001N9-00091-00261103081ADDGA1061+010509059GF107991999999999999999999MA1999999101251MW1001
0035036553999991960010922004+51933-001250SAO  +0138EGUA V0200201N005110105019N0128001N9-00091-00261999999ADDGF107991999999999999999999MW1001
0035036553999991960010923004+51933-001250SAO  +0138EGUA V0203601N004610120019N0128001N9-00091-00311999999ADDGF107991999999999999999999MW1001
0066036553999991960011000004+51933-001250SAO  +0138EGUA V0203601N004610120019N0128001N9-00091-00261103051ADDGA1071+012009059GF107991999999999999999999MA1999999101221MW1001
0035036553999991960011001004+51933-001250SAO  +0138EGUA V0200201N006210045019N0080001N9-00091-00151999999ADDGF108991999999999999999999MW1711
0035036553999991960011002004+51933-001250SAO  +0138EGUA V0200201N006210105019N0080001N9-00091-00151999999ADDGF108991999999999999999999MW1711
0066036553999991960011003004+51933-001250SAO  +0138EGUA V0200201N006712200019N0128001N9-00091-00201102981ADDGA1041+010509059GF102991999999999999999999MA1999999101151MW1001
0035036553999991960011004004+51933-001250SAO  +0138EGUA V0200201N006210135019N0128001N9-00091-00201999999ADDGF107991999999999999999999MW1001
0035036553999991960011005004+51933-001250SAO  +0138EGUA V0203601N005110141019N0128001N9-00091-00261999999ADDGF108991999999999999999999MW1001
0082036553999991960011006004+51933-001250SAO  +0138EGUA V0200201N006210105019N0096001N9-00091-00261102981ADDGA1021+006309059GA2081+010509059GF108991999999999999999999MA1999999101151MW1711
0035036553999991960011007004+51933-001250SAO  +0138EGUA V0200201N005110111019N0128001N9-00151-00261999999ADDGF107991999999999999999999MW1001
0035036553999991960011008004+51933-001250SAO  +0138EGUA V0200201N005110111019N0128001N9-00151-00261999999ADDGF107991999999999999999999MW1001
0082036553999991960011009004+51933-001250SAO  +0138EGUA V0200201N004112200019N0240001N9-00151-00421102981ADDGA1011+007509059GA2021+011109059GF102991999999999999999999MA1999999101151MW1001
0035036553999991960011010004+51933-001250SAO  +0138EGUA V0200201N002612200019N0240001N9-00091-00261999999ADDGF102991999999999999999999MW1001
0035036553999991960011011004+51933-001250SAO  +0138EGUA V0200501N003110105019N0240001N9-00091-00261999999ADDGF107991999999999999999999MW1001
0103036553999991960011012004+51933-001250SAO  +0138EGUA V0200201N005110120019N0240001N9-00041-00261102911ADDAA124001091GA1051+012009059GF107991999999999999999999KA1999M+00131KA2999N-00151MA1999999101081MW1001
0035036553999991960011013004+51933-001250SAO  +0138EGUA V0200201N005112200019N0240001N9+00021-00311999999ADDGF102991999999999999999999MW1001
0035036553999991960011014004+51933-001250SAO  +0138EGUA V0203601N004610129019N0240001N9+00081-00151999999ADDGF107991999999999999999999MW1001
0082036553999991960011015004+51933-001250SAO  +0138EGUA V0203601N004610129019N0240001N9+00021-00261102741ADDGA1031+007209059GA2081+012909059GF108991999999999999999999MA1999999100951MW1001
0035036553999991960011016004+51933-001250SAO  +0138EGUA V0203401N003610138019N0096001N9+00081-00041999999ADDGF108991999999999999999999MW1051
0041036553999991960011017004+51933-001250SAO  +0138EGUA V0202901N003110093019N0032001N9+00021-00151999999ADDGF108991999999999999999999MW1051MW2111
0082036553999991960011018004+51933-001250SAO  +0138EGUA V0203201N004110105019N0064001N9+00021-00201102571ADDGA1021+007209059GA2081+010509059GF108991999999999999999999MA1999999100781MW1051
0035036553999991960011019004+51933-001250SAO  +0138EGUA V0203201N006210105019N0064001N9+00081-00091999999ADDGF108991999999999999999999MW1051
0035036553999991960011020004+51933-001250SAO  +0138EGUA V0203401N005710105019N0026001N9+00081-00201999999ADDGF108991999999999999999999MW1051
0066036553999991960011021004+51933-001250SAO  +0138EGUA V0203401N006210105019N0036001N9+00081-00151102341ADDGA1061+010509059GF107991999999999999999999MA1999999100541MW1051
0035036553999991960011022004+51933-001250SAO  +0138EGUA V0203201N006710105019N0036001N9+00081-00151999999ADDGF108991999999999999999999MW1051
0035036553999991960011023004+51933-001250SAO  +0138EGUA V0203201N007210105019N0036001N9+00081-00091999999ADDGF107991999999999999999999MW1051
0066036553999991960011100004+51933-001250SAO  +0138EGUA V0203201N006710105019N0064001N9+00131-00151102171ADDGA1081+010509059GF108991999999999999999999MA1999999100371MW1051
0035036553999991960011101004+51933-001250SAO  +0138EGUA V0203401N006210120019N0064001N9+00191-00151999999ADDGF108991999999999999999999MW1051
0041036553999991960011102004+51933-001250SAO  +0138EGUA V0203401N007710105019N0048001N9+00191+00081999999ADDGF108991999999999999999999MW1051MW2711
0072036553999991960011103004+51933-001250SAO  +0138EGUA V0203201N005110105019N0064001N9+00191+00081101861ADDGA1081+010509089GF108991999999999999999999MA1999999100071MW1051MW2711
0035036553999991960011104004+51933-001250SAO  +0138EGUA V0203401N007210093019N0064001N9+00241+00131999999ADDGF108991999999999999999999MW1051
0035036553999991960011105004+51933-001250SAO  +0138EGUA V0203401N006210093019N0064001N9+00241+00131999999ADDGF108991999999999999999999MW1611
0066036553999991960011106004+51933-001250SAO  +0138EGUA V0203401N005710120019N0064001N9+00241+00131101631ADDGA1081+012009059GF108991999999999999999999MA1999999099831MW1611
0035036553999991960011107004+51933-001250SAO  +0138EGUA V0203401N006710120019N0064001N9+00241+00191999999ADDGF108991999999999999999999MW1611
0035036553999991960011108004+51933-001250SAO  +0138EGUA V0203401N006710135019N0080001N9+00301+00191999999ADDGF108991999999999999999999MW1611
0104036553999991960011109004+51933-001250SAO  +0138EGUA V0203401N006710180019N0080001N9+00301+00131101521ADDGA1011+006309059GA2051+018009059GA3081+220009029GF108991999999999999999999MA1999999099731MW1051MW2611
0035036553999991960011110004+51933-001250SAO  +0138EGUA V0203401N007210150019N0080001N9+00351+00191999999ADDGF108991999999999999999999MW1051
0035036553999991960011111004+51933-001250SAO  +0138EGUA V0203401N006210051019N0080001N9+00411+00241999999ADDGF108991999999999999999999MW1051
0119036553999991960011112004+51933-001250SAO  +0138EGUA V0203401N008210045019N0064001N9+00461+00241101391ADDAA124001091GA1051+004509059GA2081+012009059GF108991999999999999999999KA1999M+00581KA2999N+00131MA1999999099631MW1051
0035036553999991960011113004+51933-001250SAO  +0138EGUA V0203601N008210036019N0064001N9+00581+00351999999ADDGF108991999999999999999999MW1051
0035036553999991960011114004+51933-001250SAO  +0138EGUA V0203601N007210051019N0064001N9+00581+00351999999ADDGF108991999999999999999999MW1051
0082036553999991960011115004+51933-001250SAO  +0138EGUA V0203601N007210120019N0048001N9+00521+00301101391ADDGA1031+005709059GA2061+012009059GF107991999999999999999999MA1999999099631MW1051
0035036553999991960011116004+51933-001250SAO  +0138EGUA V0203601N006210120019N0064001N9+00461+00081999999ADDGF107991999999999999999999MW1051
0035036553999991960011117004+51933-001250SAO  +0138EGUA V0203601N008712200019N0064001N9+00411+00081999999ADDGF102991999999999999999999MW1051
0085036553999991960011118004+51933-001250SAO  +0138EGUA V0200201N005112200019N0176001N9+00241+00021101521ADDGA1999+010509999GF100991999999999999999999MA1999999099761MW1001EQDQ01    003SCCGA1
0035036553999991960011119004+51933-001250SAO  +0138EGUA V0203601N004110210019N0176001N9+00241+00021999999ADDGF108991999999999999999999MW1001
0035036553999991960011120004+51933-001250SAO  +0138EGUA V0203401N004110180019N0128001N9+00191+00081999999ADDGF108991999999999999999999MW1001
0066036553999991960011121004+51933-001250SAO  +0138EGUA V0203401N002610180019N0096001N9+00131+00021101631ADDGA1081+018009059GF108991999999999999999999MA1999999099831MW1051
0041036553999991960011122004+51933-001250SAO  +0138EGUA V0203401N004110150019N0064001N9+00241+00081999999ADDGF108991999999999999999999MW1051MW2611
0035036553999991960011123004+51933-001250SAO  +0138EGUA V0203401N006710150019N0064001N9+00301+00021999999ADDGF108991999999999999999999MW1051
0082036553999991960011200004+51933-001250SAO  +0138EGUA V0203401N006710135019N0080001N9+00301+00021101491ADDGA1021+006909059GA2081+013509059GF108991999999999999999999MA1999999099731MW1051
0035036553999991960011201004+51933-001250SAO  +0138EGUA V0203401N006210135019N0080001N9+00301+00191999999ADDGF108991999999999999999999MW1051
0035036553999991960011202004+51933-001250SAO  +0138EGUA V0203401N007210135019N0128001N9+00241+00081999999ADDGF107991999999999999999999MW1001
0066036553999991960011203004+51933-001250SAO  +0138EGUA V0203401N006212200019N0128001N9+00241-00041101461ADDGA1041+013509059GF102991999999999999999999MA1999999099701MW1001
0035036553999991960011204004+51933-001250SAO  +0138EGUA V0203601N006210120019N0096001N9+00131+00021999999ADDGF107991999999999999999999MW1711
0035036553999991960011205004+51933-001250SAO  +0138EGUA V0200201N006710135019N0176001N9+00021-00151999999ADDGF107991999999999999999999MW1001
0082036553999991960011206004+51933-001250SAO  +0138EGUA V0203601N004110135019N0176001N9-00041-00201101631ADDGA1021+007509089GA2051+013509059GF107991999999999999999999MA1999999099831MW1001
0035036553999991960011207004+51933-001250SAO  +0138EGUA V0203601N004112200019N0176001N9-00041-00201999999ADDGF102991999999999999999999MW1001
0035036553999991960011208004+51933-001250SAO  +0138EGUA V0203401N003112200019N0176001N9-00041-00201999999ADDGF102991999999999999999999MW1001
0082036553999991960011209004+51933-001250SAO  +0138EGUA V0203401N003112200019N0128001N9-00091-00261101761ADDGA1011+007509089GA2041+013509059GF102991999999999999999999MA1999999099971MW1001
0041036553999991960011210004+51933-001250SAO  +0138EGUA V0203401N003112200019N0048001N9+00021-00091999999ADDGF102991999999999999999999MW1111MW2851
0041036553999991960011211004+51933-001250SAO  +0138EGUA V0203401N002610150019N0040001N9+00081-00091999999ADDGF108991999999999999999999MW1051MW2851
0125036553999991960011212004+51933-001250SAO  +0138EGUA V0209991C000010060019N0064001N9+00021-00261101831ADDAA124003091GA1051+006009089GA2081+013509059GF108991999999999999999999KA1999M+00301KA2999N-00201MA1999999100031MW1051MW2851
0041036553999991960011213004+51933-001250SAO  +0138EGUA V0209991C000010024019N0018001N9-00041-00201999999ADDGF108991999999999999999999MW1051MW2851
0041036553999991960011214004+51933-001250SAO  +0138EGUA V0201601N002110027019N0026001N9-00151-00151999999ADDGF108991999999999999999999MW1051MW2851
0088036553999991960011215004+51933-001250SAO  +0138EGUA V0202001N002110042019N0048001N9-00091-00151101761ADDGA1051+004209079GA2081+012009059GF108991999999999999999999MA1999999099971MW1111MW2711
0041036553999991960011216004+51933-001250SAO  +0138EGUA V0202301N002610042019N0040001N9-00091-00151999999ADDGF108991999999999999999999MW1451MW2711
0035036553999991960011217004+51933-001250SAO  +0138EGUA V0209991C000010057019N0036001N9-00151-00151999999ADDGF107991999999999999999999MW1111
0066036553999991960011218004+51933-001250SAO  +0138EGUA V0209991C000012200019N0036001N9-00151-00201101761ADDGA1021+012009059GF102991999999999999999999MA1999999099971MW1111
0035036553999991960011219004+51933-001250SAO  +0138EGUA V0209991C000010075019N0018001N9-00201-00261999999ADDGF108991999999999999999999MW1111
0035036553999991960011220004+51933-001250SAO  +0138EGUA V0209991C000010120019N0022001N9-00151-00151999999ADDGF108991999999999999999999MW1111
0104036553999991960011221004+51933-001250SAO  +0138EGUA V0209991C000010075019N0018001N9-00151-00151101801ADDGA1021+999999999GA2051+007509059GA3081+012009059GF108991999999999999999999MA1999999100001MW1111MW2711
0041036553999991960011222004+51933-001250SAO  +0138EGUA V0209991C000010087019N0026001N9-00091-00151999999ADDGF108991999999999999999999MW1111MW2711
0041036553999991960011223004+51933-001250SAO  +0138EGUA V0209991C000010087019N0018001N9-00151-00201999999ADDGF108991999999999999999999MW1111MW2711
0088036553999991960011300004+51933-001250SAO  +0138EGUA V0209991C000010021019N0005001N9-00151-00151101691ADDGA1061+999999999GA2081+002109079GF108991999999999999999999MA1999999099901MW1451MW2731
0041036553999991960011301004+51933-001250SAO  +0138EGUA V0202301N002610120019N0005001N9-00151-00151999999ADDGF108991999999999999999999MW1451MW2711
0041036553999991960011302004+51933-001250SAO  +0138EGUA V0201601N001510009019N0003001N9-00151-00151999999ADDGF108991999999999999999999MW1451MW2731
0072036553999991960011303004+51933-001250SAO  +0138EGUA V0201601N002110009019N0005001N9-00151-00201101561ADDGA1091+000909999GF109991999999999999999999MA1999999099761MW1451MW2731
0041036553999991960011304004+51933-001250SAO  +0138EGUA V0201401N003110009019N0008001N9-00151-00201999999ADDGF108991999999999999999999MW1451MW2711
0035036553999991960011305004+51933-001250SAO  +0138EGUA V0201401N003110009019N0006001N9-00151-00201999999ADDGF108991999999999999999999MW1731
0066036553999991960011306004+51933-001250SAO  +0138EGUA V0201401N004610012019N0008001N9-00151-00151101391ADDGA1091+001209999GF109991999999999999999999MA1999999099591MW1731
0035036553999991960011307004+51933-001250SAO  +0138EGUA V0201401N005110012019N0010001N9-00151-00151999999ADDGF108991999999999999999999MW1711
0041036553999991960011308004+51933-001250SAO  +0138EGUA V0201401N005110015019N0012001N9-00151-00151999999ADDGF108991999999999999999999MW1451MW2711
0072036553999991960011309004+51933-001250SAO  +0138EGUA V0200901N005110012019N0010001N9-00151-00201101321ADDGA1091+001209999GF109991999999999999999999MA1999999099531MW1451MW2711
0041036553999991960011310004+51933-001250SAO  +0138EGUA V0200901N005110006019N0005001N9-00201-00201999999ADDGF108991999999999999999999MW1451MW2731
0041036553999991960011311004+51933-001250SAO  +0138EGUA V0200901N004110012019N0032001N9-00201-00261999999ADDGF108991999999999999999999MW1451MW2711
0126036553999991960011312004+51933-001250SAO  +0138EGUA V0201101N004110015019N0018001N9-00201-00201101351ADDAA124006091AJ100109199999999GA1091+001509999GF109991999999999999999999KA1999M-00151KA2999N-00481MA1999999099561MW1451MW2711
0041036553999991960011313004+51933-001250SAO  +0138EGUA V0200901N004610030019N0008001N9-00201-00201999999ADDGF108991999999999999999999MW1451MW2711
0041036553999991960011314004+51933-001250SAO  +0138EGUA V0200901N005110042019N0028001N9-00201-00201999999ADDGF108991999999999999999999MW1451MW2711
0072036553999991960011315004+51933-001250SAO  +0138EGUA V0200901N005110042019N0028001N9-00151-00261101321ADDGA1091+004209999GF109991999999999999999999MA1999999099531MW1451MW2711
0041036553999991960011316004+51933-001250SAO  +0138EGUA V0200701N004110045019N0036001N9-00201-00261999999ADDGF108991999999999999999999MW1451MW2711
0035036553999991960011317004+51933-001250SAO  +0138EGUA V0200701N004110030019N0028001N9-00201-00311999999ADDGF108991999999999999999999MW1451
0082036553999991960011318004+51933-001250SAO  +0138EGUA V0200701N005110105019N0064001N9-00201-00371101391ADDGA1011+999999999GA2081+010509059GF108991999999999999999999MA1999999099591MW1111
0035036553999991960011319004+51933-001250SAO  +0138EGUA V0200901N005110105019N0096001N9-00261-00481999999ADDGF108991999999999999999999MW1051
0035036553999991960011320004+51933-001250SAO  +0138EGUA V0200701N004110105019N0128001N9-00371-00481999999ADDGF107991999999999999999999MW1001
0082036553999991960011321004+51933-001250SAO  +0138EGUA V0200701N004110120019N0080001N9-00421-00531101591ADDGA1021+004509079GA2081+012009059GF108991999999999999999999MA1999999099801MW1051
0035036553999991960011322004+51933-001250SAO  +0138EGUA V0200701N005110063019N0018001N9-00311-00481999999ADDGF108991999999999999999999MW1711
0035036553999991960011323004+51933-001250SAO  +0138EGUA V0200701N004110120019N0176001N9-00311-00531999999ADDGF108991999999999999999999MW1001
0066036553999991960011400004+51933-001250SAO  +0138EGUA V0200501N003612200019N0128001N9-00481-00591101761ADDGA1011+012009059GF102991999999999999999999MA1999999099971MW1001
0035036553999991960011401004+51933-001250SAO  +0138EGUA V0203601N004612200019N0176001N9-00531-00701999999ADDGF100991999999999999999999MW1001
0035036553999991960011402004+51933-001250SAO  +0138EGUA V0203601N005110120019N0128001N9-00651-00811999999ADDGF107991999999999999999999MW1001
0066036553999991960011403004+51933-001250SAO  +0138EGUA V0203601N005110120019N0128001N9-00651-00811101801ADDGA1081+012009059GF108991999999999999999999MA1999999099971MW1001
0035036553999991960011404004+51933-001250SAO  +0138EGUA V0203601N005710120019N0036001N9-00481-00531999999ADDGF108991999999999999999999MW1711
0041036553999991960011405004+51933-001250SAO  +0138EGUA V0203401N005110150019N0064001N9-00531-00651999999ADDGF107991999999999999999999MW1051MW2711
0088036553999991960011406004+51933-001250SAO  +0138EGUA V0203601N005110150019N0064001N9-00531-00591101731ADDGA1051+015009059GA2011+030009049GF107991999999999999999999MA1999999099931MW1051MW2711
0041036553999991960011407004+51933-001250SAO  +0138EGUA V0203601N007210150019N0064001N9-00371-00531999999ADDGF108991999999999999999999MW1051MW2711
0041036553999991960011408004+51933-001250SAO  +0138EGUA V0200201N007210024019N0048001N9-00371-00481999999ADDGF108991999999999999999999MW1051MW2111
0082036553999991960011409004+51933-001250SAO  +0138EGUA V0203601N006710030019N0048001N9-00311-00481101831ADDGA1061+003009079GA2081+024009039GF108991999999999999999999MA1999999100001MW1051
0041036553999991960011410004+51933-001250SAO  +0138EGUA V0200201N006210045019N0048001N9-00261-00421999999ADDGF108991999999999999999999MW1051MW2711
0035036553999991960011411004+51933-001250SAO  +0138EGUA V0203601N006712200019N0048001N9-00201-00421999999ADDGF108991999999999999999999MW1051
0164036553999991960011412004+51933-001250SAO  +0138EGUA V0203601N008210150019N0024001N9-00151-00371101801ADDAA124003091AJ100109199999999GA1011+004509059GA2051+015009059GA3041+027009039GF108991999999999999999999KA1999M+00021KA2999N-00651MA1999999100001MW1111MW2381MW3851
0041036553999991960011413004+51933-001250SAO  +0138EGUA V0203601N009310066019N0080001N9-00041-00201999999ADDGF108991999999999999999999MW1381MW2851
0041036553999991960011414004+51933-001250SAO  +0138EGUA V0200201N009310060019N0064001N9+00021-00261999999ADDGF108991999999999999999999MW1381MW2851
0072036553999991960011415004+51933-001250SAO  +0138EGUA V0200201N009810045019N0010001N9-00041-00091101691ADDGA1091+004509999GF109991999999999999999999MA1999999099901MW1381MW2851
0041036553999991960011416004+51933-001250SAO  +0138EGUA V0203601N010810060019N0040001N9-00041-00201999999ADDGF108991999999999999999999MW1381MW2711
0041036553999991960011417004+51933-001250SAO  +0138EGUA V0203601N011310060019N0036001N9-00091-00151999999ADDGF108991999999999999999999MW1381MW2711
0072036553999991960011418004+51933-001250SAO  +0138EGUA V0203601N010310060019N0040001N9-00091-00201101691ADDGA1081+006009059GF108991999999999999999999MA1999999099901MW1381MW2711
0041036553999991960011419004+51933-001250SAO  +0138EGUA V0203601N011310063019N0036001N9-00091-00201999999ADDGF108991999999999999999999MW1381MW2711
0041036553999991960011420004+51933-001250SAO  +0138EGUA V0203601N011810150019N0036001N9-00091-00261999999ADDGF108991999999999999999999MW1381MW2711
0072036553999991960011421004+51933-001250SAO  +0138EGUA V0203601N010810051019N0064001N9-00091-00261101691ADDGA1081+005109059GF108991999999999999999999MA1999999099901MW1381MW2711
0041036553999991960011422004+51933-001250SAO  +0138EGUA V0203601N010810012019N0018001N9-00091-00151999999ADDGF108991999999999999999999MW1381MW2711
0041036553999991960011423004+51933-001250SAO  +0138EGUA V0203601N010310057019N0048001N9-00091-00151999999ADDGF108991999999999999999999MW1381MW2711
0072036553999991960011500004+51933-001250SAO  +0138EGUA V0203601N011310015019N0008001N9-00091-00091101691ADDGA1091+001509999GF109991999999999999999999MA1999999099901MW1381MW2731
0041036553999991960011501004+51933-001250SAO  +0138EGUA V0203601N009810015019N0008001N9-00091-00091999999ADDGF108991999999999999999999MW1381MW2731
0041036553999991960011502004+51933-001250SAO  +0138EGUA V0200201N007210015019N0018001N9-00041-00041999999ADDGF108991999999999999999999MW1381MW2711
0066036553999991960011503004+51933-001250SAO  +0138EGUA V0200201N008710042019N0176001N9+00021-00091101801ADDGA1081+004209059GF108991999999999999999999MA1999999100001MW1001
0035036553999991960011504004+51933-001250SAO  +0138EGUA V0200201N007710039019N0144001N9-00041-00261999999ADDGF108991999999999999999999MW1711
0035036553999991960011505004+51933-001250SAO  +0138EGUA V0200201N007210150019N0240001N9-00041-00201999999ADDGF108991999999999999999999MW1711
0082036553999991960011506004+51933-001250SAO  +0138EGUA V0200201N008210150019N0240001N9-00041-00261101931ADDGA1021+007209059GA2081+015009059GF108991999999999999999999MA1999999100141MW1711
0035036553999991960011507004+51933-001250SAO  +0138EGUA V0200201N007210210019N0096001N9-00041-00201999999ADDGF108991999999999999999999MW1711
0035036553999991960011508004+51933-001250SAO  +0138EGUA V0200501N006210045019N0080001N9-00041-00041999999ADDGF108991999999999999999999MW1711
0072036553999991960011509004+51933-001250SAO  +0138EGUA V0200201N004610063019N0080001N9+00021-00091102171ADDGA1081+006309089GF108991999999999999999999MA1999999100371MW1051MW2711
0041036553999991960011510004+51933-001250SAO  +0138EGUA V0200201N005110051019N0048001N9-00041-00091999999ADDGF108991999999999999999999MW1051MW2711
0035036553999991960011511004+51933-001250SAO  +0138EGUA V0200201N004610039019N0018001N9-00041-00091999999ADDGF108991999999999999999999MW1711
0120036553999991960011512004+51933-001250SAO  +0138EGUA V0200201N004110039019N0036001N9-00041-00041102371ADDAA124004091AJ100159199999999GA1081+003909089GF108991999999999999999999KA1999M+00081KA2999N-00091MA1999999100581MW1711
0035036553999991960011513004+51933-001250SAO  +0138EGUA V0200201N004110039019N0036001N9-00041-00151999999ADDGF108991999999999999999999MW1711
0035036553999991960011514004+51933-001250SAO  +0138EGUA V0200201N004110051019N0036001N9-00041-00151999999ADDGF108991999999999999999999MW1711
0066036553999991960011515004+51933-001250SAO  +0138EGUA V0200201N003110042019N0036001N9-00041-00151102441ADDGA1081+004209079GF108991999999999999999999MA1999999100641MW1711
0035036553999991960011516004+51933-001250SAO  +0138EGUA V0203601N003110042019N0036001N9-00091-00151999999ADDGF108991999999999999999999MW1711
0041036553999991960011517004+51933-001250SAO  +0138EGUA V0203601N002110039019N0036001N9-00041-00041999999ADDGF108991999999999999999999MW1051MW2711
0072036553999991960011518004+51933-001250SAO  +0138EGUA V0200201N004110042019N0064001N9+00081-00091102571ADDGA1081+004209079GF108991999999999999999999MA1999999100781MW1051MW2711
0041036553999991960011519004+51933-001250SAO  +0138EGUA V0203601N004610039019N0080001N9+00081-00041999999ADDGF108991999999999999999999MW1051MW2711
0041036553999991960011520004+51933-001250SAO  +0138EGUA V0203601N004610039019N0064001N9+00021-00041999999ADDGF108991999999999999999999MW1381MW2851
0072036553999991960011521004+51933-001250SAO  +0138EGUA V0203601N004610099019N0064001N9+00081-00041102711ADDGA1081+009909059GF108991999999999999999999MA1999999100911MW1051MW2111
0041036553999991960011522004+51933-001250SAO  +0138EGUA V0203401N003610090019N0080001N9+00021+00021999999ADDGF108991999999999999999999MW1051MW2111
0035036553999991960011523004+51933-001250SAO  +0138EGUA V0203401N004110120019N0064001N9-00041-00041999999ADDGF107991999999999999999999MW1051
0082036553999991960011600004+51933-001250SAO  +0138EGUA V0203401N003610120019N0064001N9-00091-00091102741ADDGA1051+012009059GA2081+220009029GF108991999999999999999999MA1999999100951MW1051
0041036553999991960011601004+51933-001250SAO  +0138EGUA V0203201N004110120019N0036001N9-00151-00311999999ADDGF108991999999999999999999MW1051MW2111
0041036553999991960011602004+51933-001250SAO  +0138EGUA V0203201N004610105019N0036001N9-00041-00311999999ADDGF108991999999999999999999MW1051MW2111
0072036553999991960011603004+51933-001250SAO  +0138EGUA V0203201N004110105019N0036001N9-00041-00261102641ADDGA1081+010509059GF108991999999999999999999MA1999999100851MW1051MW2111
0041036553999991960011604004+51933-001250SAO  +0138EGUA V0203201N005110120019N0026001N9+00021-00201999999ADDGF108991999999999999999999MW1051MW2111
0041036553999991960011605004+51933-001250SAO  +0138EGUA V0203201N005110120019N0036001N9+00021-00151999999ADDGF108991999999999999999999MW1051MW2111
0072036553999991960011606004+51933-001250SAO  +0138EGUA V0203201N005110120019N0036001N9+00021-00311102441ADDGA1081+012009059GF108991999999999999999999MA1999999100641MW1051MW2111
0041036553999991960011607004+51933-001250SAO  +0138EGUA V0203201N005110105019N0040001N9+00081-00201999999ADDGF108991999999999999999999MW1051MW2111
0041036553999991960011608004+51933-001250SAO  +0138EGUA V0202901N004110135019N0048001N9+00021-00261999999ADDGF108991999999999999999999MW1051MW2111
0082036553999991960011609004+51933-001250SAO  +0138EGUA V0202701N004110135019N0064001N9+00021-00151102271ADDGA1021+008109059GA2081+013509059GF108991999999999999999999MA1999999100471MW1051
0035036553999991960011610004+51933-001250SAO  +0138EGUA V0202701N003610120019N0080001N9+00081-00091999999ADDGF108991999999999999999999MW1051
0035036553999991960011611004+51933-001250SAO  +0138EGUA V0202901N005110135019N0096001N9+00191-00041999999ADDGF108991999999999999999999MW1051
0136036553999991960011612004+51933-001250SAO  +0138EGUA V0203201N004610045019N0128001N9+00191+00021102101ADDAA124000091AJ100109199999999GA1061+004509059GA2081+012009059GF108991999999999999999999KA1999M+00241KA2999N-00151MA1999999100301MW1001
0035036553999991960011613004+51933-001250SAO  +0138EGUA V0203201N005110120019N0080001N9+00241+00081999999ADDGF108991999999999999999999MW1051
0035036553999991960011614004+51933-001250SAO  +0138EGUA V0203201N004112200019N0040001N9+00241+00131999999ADDGF107991999999999999999999MW1051
0082036553999991960011615004+51933-001250SAO  +0138EGUA V0203201N004112200019N0036001N9+00241+00081101961ADDGA1031+012009059GA2061+220009009GF107991999999999999999999MA1999999100171MW1051
0035036553999991960011616004+51933-001250SAO  +0138EGUA V0203201N004110105019N0036001N9+00241-00041999999ADDGF107991999999999999999999MW1051
0035036553999991960011617004+51933-001250SAO  +0138EGUA V0203401N004112200019N0048001N9+00191-00151999999ADDGF107991999999999999999999MW1051
0082036553999991960011618004+51933-001250SAO  +0138EGUA V0203401N004610105019N0080001N9+00241-00151102001ADDGA1051+010509059GA2061+220009009GF107991999999999999999999MA1999999100201MW1051
0035036553999991960011619004+51933-001250SAO  +0138EGUA V0203401N004110105019N0080001N9+00191-00091999999ADDGF107991999999999999999999MW1051
0035036553999991960011620004+51933-001250SAO  +0138EGUA V0203401N005110105019N0096001N9+00191+00021999999ADDGF107991999999999999999999MW1051
0082036553999991960011621004+51933-001250SAO  +0138EGUA V0203401N006210105019N0080001N9+00131-00091102031ADDGA1021+007509059GA2051+010509059GF107991999999999999999999MA1999999100241MW1051
0035036553999991960011622004+51933-001250SAO  +0138EGUA V0203601N006210096019N0080001N9+00131-00041999999ADDGF108991999999999999999999MW1051
0035036553999991960011623004+51933-001250SAO  +0138EGUA V0200501N004610096019N0080001N9+00131+00021999999ADDGF108991999999999999999999MW1051
0082036553999991960011700004+51933-001250SAO  +0138EGUA V0203601N005710096019N0064001N9+00131+00021102131ADDGA1041+004209059GA2061+009609059GF107991999999999999999999MA1999999100341MW1051
0035036553999991960011701004+51933-001250SAO  +0138EGUA V0203601N006210096019N0064001N9+00131+00021999999ADDGF108991999999999999999999MW1051
0035036553999991960011702004+51933-001250SAO  +0138EGUA V0203401N005110096019N0064001N9+00081-00091999999ADDGF108991999999999999999999MW1051
0082036553999991960011703004+51933-001250SAO  +0138EGUA V0203401N006710096019N0064001N9+00021-00151102241ADDGA1041+004509059GA2061+009609059GF107991999999999999999999MA1999999100441MW1051
0035036553999991960011704004+51933-001250SAO  +0138EGUA V0200201N004110240019N0048001N9-00041-00201999999ADDGF108991999999999999999999MW1051
0035036553999991960011705004+51933-001250SAO  +0138EGUA V0203201N003612200019N0048001N9-00151-00311999999ADDGF102991999999999999999999MW1051
0066036553999991960011706004+51933-001250SAO  +0138EGUA V0203201N003112200019N0048001N9-00151-00311102171ADDGA1011+220009009GF102991999999999999999999MA1999999100371MW1051
0035036553999991960011707004+51933-001250SAO  +0138EGUA V0202901N003612200019N0080001N9-00261-00371999999ADDGF100991999999999999999999MW1051
0035036553999991960011708004+51933-001250SAO  +0138EGUA V0202701N003112200019N0080001N9-00201-00421999999ADDGF100991999999999999999999MW1051
0066036553999991960011709004+51933-001250SAO  +0138EGUA V0201801N003110099019N0080001N9-00261-00481102171ADDGA1071+009909059GF107991999999999999999999MA1999999100371MW1051
0035036553999991960011710004+51933-001250SAO  +0138EGUA V0202001N002610117019N0080001N9-00261-00421999999ADDGF107991999999999999999999MW1051
0035036553999991960011711004+51933-001250SAO  +0138EGUA V0202301N004110117019N0080001N9-00091-00261999999ADDGF108991999999999999999999MW1051
0126036553999991960011712004+51933-001250SAO  +0138EGUA V0202501N003110105019N0096001N9+00021-00151102031ADDAA124999929AJ100089199999999GA1081+010509059GF108991999999999999999999KA1999M+00301KA2999N-00261MA1999999100241MW1051MW2611
0035036553999991960011713004+51933-001250SAO  +0138EGUA V0202301N003110105019N0096001N9+00131-00151999999ADDGF108991999999999999999999MW1051
0035036553999991960011714004+51933-001250SAO  +0138EGUA V0202301N002610105019N0096001N9+00191-00041999999ADDGF108991999999999999999999MW1051
0098036553999991960011715004+51933-001250SAO  +0138EGUA V0202501N002610108019N0080001N9+00241+00081101901ADDGA1021+006909059GA2061+010809059GA3021+027009049GF108991999999999999999999MA1999999100101MW1051
0035036553999991960011716004+51933-001250SAO  +0138EGUA V0202301N002610108019N0080001N9+00301+00131999999ADDGF108991999999999999999999MW1051
0035036553999991960011717004+51933-001250SAO  +0138EGUA V0209991C000010120019N0080001N9+00241+00081999999ADDGF108991999999999999999999MW1051
0066036553999991960011718004+51933-001250SAO  +0138EGUA V0202301N002110105019N0128001N9+00191+00081101801ADDGA1061+010509059GF107991999999999999999999MA1999999100001MW1001
0035036553999991960011719004+51933-001250SAO  +0138EGUA V0202701N004110105019N0128001N9+00241+00131999999ADDGF108991999999999999999999MW1001
0035036553999991960011720004+51933-001250SAO  +0138EGUA V0202901N002110105019N0128001N9+00241+00081999999ADDGF108991999999999999999999MW1001
0066036553999991960011721004+51933-001250SAO  +0138EGUA V0202701N002610105019N0096001N9+00241+00131101691ADDGA1081+010509059GF108991999999999999999999MA1999999099901MW1051
0035036553999991960011722004+51933-001250SAO  +0138EGUA V0202501N002110120019N0096001N9+00241+00131999999ADDGF107991999999999999999999MW1051
0035036553999991960011723004+51933-001250SAO  +0138EGUA V0202301N003110120019N0096001N9+00191+00081999999ADDGF107991999999999999999999MW1051
0066036553999991960011800004+51933-001250SAO  +0138EGUA V0209991C000010120019N0096001N9+00131+00021101561ADDGA1061+012009059GF107991999999999999999999MA1999999099761MW1051
0035036553999991960011801004+51933-001250SAO  +0138EGUA V0202301N002110120019N0096001N9+00191+00021999999ADDGF107991999999999999999999MW1051
0035036553999991960011802004+51933-001250SAO  +0138EGUA V0202701N004610120019N0128001N9+00301+00191999999ADDGF107991999999999999999999MW1001
0066036553999991960011803004+51933-001250SAO  +0138EGUA V0202301N003110120019N0128001N9+00191+00191101251ADDGA1071+012009059GF107991999999999999999999MA1999999099491MW1001
0035036553999991960011804004+51933-001250SAO  +0138EGUA V0202001N004112200019N0128001N9+00191+00131999999ADDGF108991999999999999999999MW1001
0035036553999991960011805004+51933-001250SAO  +0138EGUA V0202301N003112200019N0128001N9+00241+00191999999ADDGF108991999999999999999999MW1001
0082036553999991960011806004+51933-001250SAO  +0138EGUA V0202501N004612200019N0128001N9+00301+00131101051ADDGA1041+024009049GA2081+220009029GF108991999999999999999999MA1999999099291MW1001
0035036553999991960011807004+51933-001250SAO  +0138EGUA V0202501N004110270019N0128001N9+00241+00081999999ADDGF108991999999999999999999MW1001
0035036553999991960011808004+51933-001250SAO  +0138EGUA V0202301N003610270019N0128001N9+00191+00021999999ADDGF108991999999999999999999MW1001
0098036553999991960011809004+51933-001250SAO  +0138EGUA V0202301N006210270019N0128001N9+00241+00021100881ADDGA1051+027009039GA2021+048009039GA3081+220009029GF108991999999999999999999MA1999999099121MW1001
0035036553999991960011810004+51933-001250SAO  +0138EGUA V0202501N005110270019N0128001N9+00241+00131999999ADDGF108991999999999999999999MW1001
0035036553999991960011811004+51933-001250SAO  +0138EGUA V0202501N006710360019N0096001N9+00351+00191999999ADDGF108991999999999999999999MW1051
0187036553999991960011812004+51933-001250SAO  +0138EGUA V0202301N003612200019N0096001N9+00301+00191100681ADDAA124000091AJ100039199999999GA1999+004509999GA2021+024009039GA3031+036009039GA4071+220009029GF107991999999999999999999KA1999M+00581KA2999N+00131MA1999999098951MW1051EQDQ01    003SCCGA1
0035036553999991960011813004+51933-001250SAO  +0138EGUA V0202501N005112200019N0128001N9+00461+00241999999ADDGF107991999999999999999999MW1001
0035036553999991960011814004+51933-001250SAO  +0138EGUA V0202501N004110060019N0128001N9+00461+00241999999ADDGF108991999999999999999999MW1001
0098036553999991960011815004+51933-001250SAO  +0138EGUA V0202301N006210060019N0160001N9+00581+00241100441ADDGA1061+006009059GA2011+021009039GA3071+220009029GF107991999999999999999999MA1999999098711MW1001
0035036553999991960011816004+51933-001250SAO  +0138EGUA V0202301N005112200019N0176001N9+00461+00191999999ADDGF108991999999999999999999MW1001
0035036553999991960011817004+51933-001250SAO  +0138EGUA V0202501N004612200019N0144001N9+00351+00131999999ADDGF102991999999999999999999MW1001
0066036553999991960011818004+51933-001250SAO  +0138EGUA V0202501N006212200019N0128001N9+00351+00191100371ADDGA1011+009009059GF102991999999999999999999MA1999999098651MW1001
0035036553999991960011819004+51933-001250SAO  +0138EGUA V0202501N006212200019N0128001N9+00351+00241999999ADDGF102991999999999999999999MW1001
0035036553999991960011820004+51933-001250SAO  +0138EGUA V0202301N005112200019N0128001N9+00301+00191999999ADDGF102991999999999999999999MW1001
0082036553999991960011821004+51933-001250SAO  +0138EGUA V0202301N007212200019N0128001N9+00351+00241100341ADDGA1021+002709079GA2041+012009059GF102991999999999999999999MA1999999098611MW1001
0035036553999991960011822004+51933-001250SAO  +0138EGUA V0202301N006210120019N0128001N9+00301+00241999999ADDGF107991999999999999999999MW1001
0035036553999991960011823004+51933-001250SAO  +0138EGUA V0202301N005110240019N0128001N9+00301+00191999999ADDGF107991999999999999999999MW1001
0082036553999991960011900004+51933-001250SAO  +0138EGUA V0202301N005110018019N0128001N9+00301+00191100311ADDGA1051+001809079GA2041+024009039GF108991999999999999999999MA1999999098581MW1001
0035036553999991960011901004+51933-001250SAO  +0138EGUA V0202301N005110024019N0128001N9+00351+00241999999ADDGF108991999999999999999999MW1001
0035036553999991960011902004+51933-001250SAO  +0138EGUA V0202301N005110240019N0128001N9+00301+00191999999ADDGF108991999999999999999999MW1001
0098036553999991960011903004+51933-001250SAO  +0138EGUA V0202301N004610105019N0128001N9+00301+00191100241ADDGA1031+002409079GA2041+010509059GA3031+024009039GF108991999999999999999999MA1999999098511MW1001
0035036553999991960011904004+51933-001250SAO  +0138EGUA V0202001N004110120019N0128001N9+00351+00241999999ADDGF107991999999999999999999MW1001
0035036553999991960011905004+51933-001250SAO  +0138EGUA V0202001N006210120019N0128001N9+00351+00241999999ADDGF107991999999999999999999MW1001
0066036553999991960011906004+51933-001250SAO  +0138EGUA V0202001N003110120019N0128001N9+00411+00191100001ADDGA1071+012009059GF107991999999999999999999MA1999999098271MW1001
0035036553999991960011907004+51933-001250SAO  +0138EGUA V0202001N005110120019N0128001N9+00461+00351999999ADDGF108991999999999999999999MW1001
0035036553999991960011908004+51933-001250SAO  +0138EGUA V0202001N006210030019N0144001N9+00461+00301999999ADDGF108991999999999999999999MW1001
0082036553999991960011909004+51933-001250SAO  +0138EGUA V0202001N006210015019N0176001N9+00521+00411099971ADDGA1061+001509079GA2031+003009079GF108991999999999999999999MA1999999098241MW1001
0035036553999991960011910004+51933-001250SAO  +0138EGUA V0202301N007210270019N0192001N9+00581+00461999999ADDGF107991999999999999999999MW1001
0035036553999991960011911004+51933-001250SAO  +0138EGUA V0202301N008210240019N0240001N9+00691+00461999999ADDGF107991999999999999999999MW1001
0168036553999991960011912004+51933-001250SAO  +0138EGUA V0202301N006710060019N0240001N9+00741+00461099831ADDAA124004091AJ100039199999999GA1011+002709079GA2051+006009079GA3021+024009039GA4021+220009009GF107991999999999999999999KA1999M+00801KA2999N+00191MA1999999098101MW1001
0035036553999991960011913004+51933-001250SAO  +0138EGUA V0202301N007710063019N0240001N9+00741+00461999999ADDGF108991999999999999999999MW1001
0035036553999991960011914004+51933-001250SAO  +0138EGUA V0202301N008710072019N0240001N9+00801+00581999999ADDGF108991999999999999999999MW1001
0098036553999991960011915004+51933-001250SAO  +0138EGUA V0202001N010310210019N0240001N9+00801+00581099531ADDGA1021+007209059GA2051+021009039GA3071+054009039GF107991999999999999999999MA1999999097801MW1001
0035036553999991960011916004+51933-001250SAO  +0138EGUA V0202301N011810072019N0240001N9+00801+00411999999ADDGF108991999999999999999999MW1001
0035036553999991960011917004+51933-001250SAO  +0138EGUA V0202301N010310072019N0176001N9+00741+00581999999ADDGF108991999999999999999999MW1801
0066036553999991960011918004+51933-001250SAO  +0138EGUA V0202501N009310120019N0240001N9+00521+00241099461ADDGA1081+012009059GF108991999999999999999999MA1999999097731MW1001
0035036553999991960011919004+51933-001250SAO  +0138EGUA V0203201N012912200019N0176001N9+00191+00081999999ADDGF102991999999999999999999MW1001
0035036553999991960011920004+51933-001250SAO  +0138EGUA V0202901N007212200019N0176001N9+00241+00081999999ADDGF102991999999999999999999MW1001
0066036553999991960011921004+51933-001250SAO  +0138EGUA V0202901N009312200019N0176001N9+00241-00151099931ADDGA1011+004209059GF102991999999999999999999MA1999999098211MW1001
0035036553999991960011922004+51933-001250SAO  +0138EGUA V0202901N006712200019N0176001N9+00191-00261999999ADDGF100991999999999999999999MW1001
0035036553999991960011923004+51933-001250SAO  +0138EGUA V0202901N007212200019N0176001N9+00191-00201999999ADDGF100991999999999999999999MW1001
0066036553999991960012000004+51933-001250SAO  +0138EGUA V0202701N009812200019N0176001N9+00191-00261100201ADDGA1011+006009059GF102991999999999999999999MA1999999098481MW1001
0035036553999991960012001004+51933-001250SAO  +0138EGUA V0202701N011312200019N0176001N9+00191-00261999999ADDGF102991999999999999999999MW1001
0035036553999991960012002004+51933-001250SAO  +0138EGUA V0202701N009812200019N0176001N9+00191-00261999999ADDGF102991999999999999999999MW1001
0085036553999991960012003004+51933-001250SAO  +0138EGUA V0202701N009812200019N0176001N9+00131-00151100541ADDGA1999+006009999GF100991999999999999999999MA1999999098811MW1001EQDQ01    003SCCGA1
0035036553999991960012004004+51933-001250SAO  +0138EGUA V0202701N009812200019N0176001N9+00191-00261999999ADDGF100991999999999999999999MW1001
0035036553999991960012005004+51933-001250SAO  +0138EGUA V0202901N010312200019N0176001N9+00191-00311999999ADDGF100991999999999999999999MW1001
0066036553999991960012006004+51933-001250SAO  +0138EGUA V0202901N010312200019N0176001N9+00191-00261101021ADDGA1011+009909059GF102991999999999999999999MA1999999099261MW1001
0035036553999991960012007004+51933-001250SAO  +0138EGUA V0202901N008212200019N0176001N9+00191-00261999999ADDGF100991999999999999999999MW1001
0035036553999991960012008004+51933-001250SAO  +0138EGUA V0202701N007212200019N0176001N9+00131-00261999999ADDGF102991999999999999999999MW1001
0082036553999991960012009004+51933-001250SAO  +0138EGUA V0202701N005712200019N0176001N9+00191-00261101631ADDGA1021+010509059GA2061+220009029GF107991999999999999999999MA1999999099861MW1001
0035036553999991960012010004+51933-001250SAO  +0138EGUA V0202901N005712200019N0200001N9+00301-00481999999ADDGF108991999999999999999999MW1001
0035036553999991960012011004+51933-001250SAO  +0138EGUA V0202901N006212200019N0240001N9+00351-00151999999ADDGF108991999999999999999999MW1001
0103036553999991960012012004+51933-001250SAO  +0138EGUA V0203201N004112200019N0240001N9+00411-00091101901ADDAA124002091GA1081+220009029GF108991999999999999999999KA1999M+00411KA2999N+00021MA1999999100141MW1001
0035036553999991960012013004+51933-001250SAO  +0138EGUA V0202901N004112200019N0240001N9+00411-00041999999ADDGF108991999999999999999999MW1001
0035036553999991960012014004+51933-001250SAO  +0138EGUA V0202901N003112200019N0240001N9+00411-00041999999ADDGF108991999999999999999999MW1001
0066036553999991960012015004+51933-001250SAO  +0138EGUA V0202301N002112200019N0192001N9+00411-00151102001ADDGA1081+220009029GF108991999999999999999999MA1999999100241MW1001
0035036553999991960012016004+51933-001250SAO  +0138EGUA V0209991C000010270019N0176001N9+00351-00041999999ADDGF108991999999999999999999MW1001
0035036553999991960012017004+51933-001250SAO  +0138EGUA V0209991C000010210019N0064001N9+00241+00081999999ADDGF108991999999999999999999MW1051
0082036553999991960012018004+51933-001250SAO  +0138EGUA V0209991C000010240019N0064001N9+00241+00021102031ADDGA1061+024009049GA2081+220009029GF108991999999999999999999MA1999999100271MW1051
0035036553999991960012019004+51933-001250SAO  +0138EGUA V0209991C000010240019N0064001N9+00191+00021999999ADDGF108991999999999999999999MW1051
0035036553999991960012020004+51933-001250SAO  +0138EGUA V0209991C000010210019N0128001N9+00191-00091999999ADDGF108991999999999999999999MW1001
0066036553999991960012021004+51933-001250SAO  +0138EGUA V0201401N003610024019N0048001N9+00081-00091102131ADDGA1091+002409999GF109991999999999999999999MA1999999100341MW1711
0035036553999991960012022004+51933-001250SAO  +0138EGUA V0201601N004110015019N0010001N9+00021+00021999999ADDGF108991999999999999999999MW1711
0035036553999991960012023004+51933-001250SAO  +0138EGUA V0201401N005110012019N0012001N9+00021+00021999999ADDGF108991999999999999999999MW1711
0082036553999991960012100004+51933-001250SAO  +0138EGUA V0201101N006210027019N0096001N9+00021+00021101931ADDGA1051+002709079GA2081+021009049GF108991999999999999999999MA1999999100171MW1711
0035036553999991960012101004+51933-001250SAO  +0138EGUA V0201401N006210021019N0048001N9+00021+00021999999ADDGF108991999999999999999999MW1711
0041036553999991960012102004+51933-001250SAO  +0138EGUA V0201401N006210009019N0036001N9+00021+00021999999ADDGF108991999999999999999999MW1611MW2711
0088036553999991960012103004+51933-001250SAO  +0138EGUA V0201401N006210024019N0036001N9+00021+00021101661ADDGA1021+000909079GA2081+002409079GF108991999999999999999999MA1999999099901MW1611MW2711
0035036553999991960012104004+51933-001250SAO  +0138EGUA V0201401N006210024019N0064001N9+00081+00081999999ADDGF108991999999999999999999MW1611
0041036553999991960012105004+51933-001250SAO  +0138EGUA V0201401N005110021019N0048001N9+00081+00081999999ADDGF108991999999999999999999MW1511MW2611
0104036553999991960012106004+51933-001250SAO  +0138EGUA V0201401N005110012019N0048001N9+00131+00131101491ADDGA1021+000609079GA2041+001209079GA3081+002109079GF108991999999999999999999MA1999999099701MW1511MW2611
0041036553999991960012107004+51933-001250SAO  +0138EGUA V0201401N004110006019N0048001N9+00131+00131999999ADDGF108991999999999999999999MW1511MW2611
0041036553999991960012108004+51933-001250SAO  +0138EGUA V0201401N003110003019N0008001N9+00131+00131999999ADDGF108991999999999999999999MW1451MW2511
0072036553999991960012109004+51933-001250SAO  +0138EGUA V0201601N003110001519N0005001N9+00191+00131101521ADDGA1091+000159999GF109991999999999999999999MA1999999099631MW1451MW2511
0041036553999991960012110004+51933-001250SAO  +0138EGUA V0201601N002110003019N0003001N9+00191+00191999999ADDGF108991999999999999999999MW1451MW2511
0035036553999991960012111004+51933-001250SAO  +0138EGUA V0201801N002610003019N0003001N9+00301+00301999999ADDGF108991999999999999999999MW1451
0103036553999991960012112004+51933-001250SAO  +0138EGUA V0201801N002610003019N0003001N9+00411+00411101461ADDAA124007091GA1091+000309999GF109991999999999999999999KA1999M+01021KA2999N+00021MA1999999099701MW1451
0035036553999991960012113004+51933-001250SAO  +0138EGUA V0201801N003610015019N0005001N9+00581+00581999999ADDGF108991999999999999999999MW1451
0035036553999991960012114004+51933-001250SAO  +0138EGUA V0201801N003610015019N0012001N9+00741+00741999999ADDGF108991999999999999999999MW1451
0098036553999991960012115004+51933-001250SAO  +0138EGUA V0201801N004110012019N0018001N9+00851+00851101221ADDGA1011+999999999GA2061+001209079GA3081+003009079GF108991999999999999999999MA1999999099461MW1451
0035036553999991960012116004+51933-001250SAO  +0138EGUA V0201801N003610009019N0036001N9+00911+00911999999ADDGF108991999999999999999999MW1451
0035036553999991960012117004+51933-001250SAO  +0138EGUA V0201801N004610015019N0048001N9+00961+00961999999ADDGF108991999999999999999999MW1451
0088036553999991960012118004+51933-001250SAO  +0138EGUA V0201801N005110018019N0048001N9+00961+00851101111ADDGA1051+001809079GA2081+002409079GF108991999999999999999999MA1999999099361MW1111MW2511
0041036553999991960012119004+51933-001250SAO  +0138EGUA V0201801N005110015019N0040001N9+00961+00911999999ADDGF108991999999999999999999MW1451MW2511
0041036553999991960012120004+51933-001250SAO  +0138EGUA V0201801N005110015019N0040001N9+01021+00911999999ADDGF108991999999999999999999MW1451MW2511
0066036553999991960012121004+51933-001250SAO  +0138EGUA V0201801N005110015019N0144001N9+01021+00911101011ADDGA1081+001509079GF108991999999999999999999MA1999999099261MW1001
0035036553999991960012122004+51933-001250SAO  +0138EGUA V0201801N006210024019N0128001N9+00961+00851999999ADDGF108991999999999999999999MW1511
0035036553999991960012123004+51933-001250SAO  +0138EGUA V0202001N004110033019N0144001N9+01021+00851999999ADDGF107991999999999999999999MW1001
0066036553999991960012200004+51933-001250SAO  +0138EGUA V0202001N004110036019N0144001N9+01021+00851101011ADDGA1081+003609059GF108991999999999999999999MA1999999099261MW1001
0035036553999991960012201004+51933-001250SAO  +0138EGUA V0202001N005110042019N0144001N9+01021+00851999999ADDGF108991999999999999999999MW1001
0035036553999991960012202004+51933-001250SAO  +0138EGUA V0201801N006210030019N0144001N9+01021+00911999999ADDGF108991999999999999999999MW1001
0082036553999991960012203004+51933-001250SAO  +0138EGUA V0202001N005110042019N0144001N9+01021+00851100941ADDGA1061+004209059GA2041+006009059GF108991999999999999999999MA1999999099221MW1001
0035036553999991960012204004+51933-001250SAO  +0138EGUA V0202001N004110105019N0176001N9+00961+00801999999ADDGF108991999999999999999999MW1001
0035036553999991960012205004+51933-001250SAO  +0138EGUA V0202001N004610105019N0176001N9+00961+00851999999ADDGF107991999999999999999999MW1001
0082036553999991960012206004+51933-001250SAO  +0138EGUA V0202001N004110105019N0128001N9+00961+00911100941ADDGA1041+003009059GA2081+010509059GF108991999999999999999999MA1999999099221MW1001
0041036553999991960012207004+51933-001250SAO  +0138EGUA V0202001N005110033019N0080001N9+01021+00911999999ADDGF108991999999999999999999MW1051MW2611
0035036553999991960012208004+51933-001250SAO  +0138EGUA V0201801N006210036019N0080001N9+01021+00911999999ADDGF108991999999999999999999MW1051
0082036553999991960012209004+51933-001250SAO  +0138EGUA V0202001N007710024019N0080001N9+01021+00911100941ADDGA1061+002409079GA2081+013509059GF108991999999999999999999MA1999999099221MW1051
0035036553999991960012210004+51933-001250SAO  +0138EGUA V0201801N005710030019N0080001N9+01071+00961999999ADDGF108991999999999999999999MW1051
0035036553999991960012211004+51933-001250SAO  +0138EGUA V0201801N006710033019N0080001N9+01131+00961999999ADDGF108991999999999999999999MW1051
0103036553999991960012212004+51933-001250SAO  +0138EGUA V0202001N006710042019N0096001N9+01131+00961100901ADDAA124001091GA1081+004209079GF108991999999999999999999KA1999M+01131KA2999N+00961MA1999999099191MW1051
0035036553999991960012213004+51933-001250SAO  +0138EGUA V0201801N006210036019N0176001N9+01071+00961999999ADDGF108991999999999999999999MW1001
0035036553999991960012214004+51933-001250SAO  +0138EGUA V0201801N005110039019N0128001N9+01071+00961999999ADDGF108991999999999999999999MW1611
0082036553999991960012215004+51933-001250SAO  +0138EGUA V0202001N005710021019N0080001N9+01071+01021100801ADDGA1061+002109059GA2081+003609059GF108991999999999999999999MA1999999099091MW1511
0035036553999991960012216004+51933-001250SAO  +0138EGUA V0201801N006210018019N0080001N9+01071+01021999999ADDGF108991999999999999999999MW1511
0035036553999991960012217004+51933-001250SAO  +0138EGUA V0201801N006210027019N0064001N9+01131+00961999999ADDGF108991999999999999999999MW1051
0066036553999991960012218004+51933-001250SAO  +0138EGUA V0201801N006210024019N0080001N9+01131+01021100671ADDGA1081+002409059GF108991999999999999999999MA1999999098981MW1511
0041036553999991960012219004+51933-001250SAO  +0138EGUA V0201801N006710042019N0128001N9+01071+00851999999ADDGF108991999999999999999999MW1511MW2611
0035036553999991960012220004+51933-001250SAO  +0138EGUA V0201801N007210030019N0080001N9+01021+00911999999ADDGF108991999999999999999999MW1511
0066036553999991960012221004+51933-001250SAO  +0138EGUA V0201801N006710024019N0128001N9+01021+00911100531ADDGA1081+002409079GF108991999999999999999999MA1999999098851MW1511
0035036553999991960012222004+51933-001250SAO  +0138EGUA V0201801N006210018019N0128001N9+01021+00961999999ADDGF108991999999999999999999MW1511
0035036553999991960012223004+51933-001250SAO  +0138EGUA V0201801N006210021019N0128001N9+01071+00961999999ADDGF108991999999999999999999MW1001
0066036553999991960012300004+51933-001250SAO  +0138EGUA V0201801N005110018019N0176001N9+01071+00961100401ADDGA1081+001809079GF108991999999999999999999MA1999999098711MW1001
0041036553999991960012301004+51933-001250SAO  +0138EGUA V0201801N007210015019N0096001N9+01071+01021999999ADDGF108991999999999999999999MW1511MW2611
0035036553999991960012302004+51933-001250SAO  +0138EGUA V0201801N006710024019N0176001N9+01131+00961999999ADDGF108991999999999999999999MW1001
0066036553999991960012303004+51933-001250SAO  +0138EGUA V0201801N006210024019N0128001N9+01131+00961100261ADDGA1081+002409079GF108991999999999999999999MA1999999098581MW1001
0035036553999991960012304004+51933-001250SAO  +0138EGUA V0201801N004110018019N0176001N9+01131+01021999999ADDGF108991999999999999999999MW1511
0035036553999991960012305004+51933-001250SAO  +0138EGUA V0202001N004110027019N0176001N9+01131+01021999999ADDGF108991999999999999999999MW1511
0082036553999991960012306004+51933-001250SAO  +0138EGUA V0201801N005110027019N0176001N9+01131+01021100191ADDGA1061+002709079GA2081+005109079GF108991999999999999999999MA1999999098511MW1001
0041036553999991960012307004+51933-001250SAO  +0138EGUA V0202001N004110021019N0096001N9+01131+01021999999ADDGF108991999999999999999999MW1511MW2611
0035036553999991960012308004+51933-001250SAO  +0138EGUA V0201801N003110027019N0080001N9+01071+00961999999ADDGF108991999999999999999999MW1511
0066036553999991960012309004+51933-001250SAO  +0138EGUA V0201801N003110030019N0176001N9+01071+00961100191ADDGA1081+003009079GF108991999999999999999999MA1999999098511MW1001
0035036553999991960012310004+51933-001250SAO  +0138EGUA V0201801N004610021019N0128001N9+01071+01021999999ADDGF108991999999999999999999MW1611
0035036553999991960012311004+51933-001250SAO  +0138EGUA V0201801N004610015019N0096001N9+01021+01021999999ADDGF108991999999999999999999MW1611
0125036553999991960012312004+51933-001250SAO  +0138EGUA V0201801N003610018019N0064001N9+01021+01021099991ADDAA124003091GA1041+000909079GA2081+001809079GF108991999999999999999999KA1999M+01131KA2999N+00911MA1999999098311MW1511MW2611
0035036553999991960012313004+51933-001250SAO  +0138EGUA V0201601N004110012019N0080001N9+01021+00961999999ADDGF108991999999999999999999MW1611
0041036553999991960012314004+51933-001250SAO  +0138EGUA V0201601N003110012019N0048001N9+01021+01021999999ADDGF108991999999999999999999MW1051MW2611
0072036553999991960012315004+51933-001250SAO  +0138EGUA V0201801N005110012019N0048001N9+01021+00961099621ADDGA1081+001209079GF108991999999999999999999MA1999999097931MW1051MW2611
0041036553999991960012316004+51933-001250SAO  +0138EGUA V0201801N003110015019N0064001N9+01021+00961999999ADDGF108991999999999999999999MW1051MW2511
0041036553999991960012317004+51933-001250SAO  +0138EGUA V0201801N006210024019N0064001N9+00961+00961999999ADDGF108991999999999999999999MW1051MW2511
0072036553999991960012318004+51933-001250SAO  +0138EGUA V0201801N006210027019N0080001N9+01021+00911099521ADDGA1081+002709079GF108991999999999999999999MA1999999097831MW1051MW2511
0035036553999991960012319004+51933-001250SAO  +0138EGUA V0201801N007710042019N0080001N9+01021+00911999999ADDGF108991999999999999999999MW1051
0035036553999991960012320004+51933-001250SAO  +0138EGUA V0201801N005110030019N0128001N9+00961+00801999999ADDGF108991999999999999999999MW1001
0066036553999991960012321004+51933-001250SAO  +0138EGUA V0201801N005110027019N0096001N9+00911+00801099281ADDGA1081+002709079GF108991999999999999999999MA1999999097601MW1511
0035036553999991960012322004+51933-001250SAO  +0138EGUA V0201801N004110024019N0080001N9+00911+00851999999ADDGF108991999999999999999999MW1611
0035036553999991960012323004+51933-001250SAO  +0138EGUA V0202301N007710021019N0128001N9+00961+00911999999ADDGF108991999999999999999999MW1001
0066036553999991960012400004+51933-001250SAO  +0138EGUA V0202501N005710024019N0128001N9+00961+00911099411ADDGA1081+002409079GF108991999999999999999999MA1999999097731MW1511
0035036553999991960012401004+51933-001250SAO  +0138EGUA V0202301N007710024019N0176001N9+00851+00741999999ADDGF108991999999999999999999MW1001
0035036553999991960012402004+51933-001250SAO  +0138EGUA V0202301N006210024019N0176001N9+00851+00741999999ADDGF108991999999999999999999MW1001
0082036553999991960012403004+51933-001250SAO  +0138EGUA V0202001N004112200019N0176001N9+00851+00741099651ADDGA1031+002109059GA2061+220009009GF107991999999999999999999MA1999999097971MW1001
0035036553999991960012404004+51933-001250SAO  +0138EGUA V0201801N002610120019N0176001N9+00801+00691999999ADDGF108991999999999999999999MW1611
0035036553999991960012405004+51933-001250SAO  +0138EGUA V0201801N002110105019N0128001N9+00801+00691999999ADDGF108991999999999999999999MW1611
0104036553999991960012406004+51933-001250SAO  +0138EGUA V0200901N002110039019N0048001N9+00741+00741099381ADDGA1021+000909079GA2031+003909079GA3081+010509059GF108991999999999999999999MA1999999097701MW1111MW2611
0047036553999991960012407004+51933-001250SAO  +0138EGUA V0200901N004110012019N0048001N9+00741+00741999999ADDGF108991999999999999999999MW1451MW2511MW3611
0047036553999991960012408004+51933-001250SAO  +0138EGUA V0200901N005710006019N0036001N9+00801+00801999999ADDGF108991999999999999999999MW1451MW2511MW3611
0094036553999991960012409004+51933-001250SAO  +0138EGUA V0201801N003610015019N0040001N9+00961+00911098941ADDGA1041+000609079GA2081+001509079GF108991999999999999999999MA1999999097291MW1451MW2511MW3611
0035036553999991960012410004+51933-001250SAO  +0138EGUA V0201801N007710027019N0128001N9+01071+00961999999ADDGF108991999999999999999999MW1001
0035036553999991960012411004+51933-001250SAO  +0138EGUA V0201801N006710036019N0080001N9+01021+00961999999ADDGF108991999999999999999999MW1611
0119036553999991960012412004+51933-001250SAO  +0138EGUA V0201601N005110018019N0064001N9+01021+00961098671ADDAA124022091GA1051+001809079GA2081+002409079GF108991999999999999999999KA1999M+01081KA2999N+00581MA1999999097021MW1611
0035036553999991960012413004+51933-001250SAO  +0138EGUA V0201601N004610030019N0128001N9+01021+00961999999ADDGF108991999999999999999999MW1001
0035036553999991960012414004+51933-001250SAO  +0138EGUA V0201401N005110030019N0128001N9+01021+01021999999ADDGF108991999999999999999999MW1611
0088036553999991960012415004+51933-001250SAO  +0138EGUA V0200901N002110015019N0048001N9+01021+00961098401ADDGA1061+001509079GA2081+003009079GF108991999999999999999999MA1999999096751MW1511MW2611
0035036553999991960012416004+51933-001250SAO  +0138EGUA V0201801N002110057019N0048001N9+00851+00741999999ADDGF108991999999999999999999MW1611
0035036553999991960012417004+51933-001250SAO  +0138EGUA V0202501N001510030019N0048001N9+00851+00801999999ADDGF108991999999999999999999MW1511
0066036553999991960012418004+51933-001250SAO  +0138EGUA V0202901N010310027019N0048001N9+00741+00631098871ADDGA1081+002709079GF108991999999999999999999MA1999999097191MW1631
0035036553999991960012419004+51933-001250SAO  +0138EGUA V0202901N010810180019N0096001N9+00581+00461999999ADDGF108991999999999999999999MW1631
0035036553999991960012420004+51933-001250SAO  +0138EGUA V0203201N008710042019N0096001N9+00581+00461999999ADDGF107991999999999999999999MW1631
0066036553999991960012421004+51933-001250SAO  +0138EGUA V0202701N006210039019N0096001N9+00581+00461099791ADDGA1081+003909079GF108991999999999999999999MA1999999098101MW1611
0035036553999991960012422004+51933-001250SAO  +0138EGUA V0202901N005710120019N0128001N9+00581+00411999999ADDGF107991999999999999999999MW1001
0035036553999991960012423004+51933-001250SAO  +0138EGUA V0202701N006710120019N0128001N9+00581+00351999999ADDGF107991999999999999999999MW1001
0082036553999991960012500004+51933-001250SAO  +0138EGUA V0202701N002110120019N0128001N9+00581+00351100231ADDGA1021+005709079GA2051+012009059GF107991999999999999999999MA1999999098541MW1001
0035036553999991960012501004+51933-001250SAO  +0138EGUA V0202701N003610120019N0128001N9+00461+00301999999ADDGF107991999999999999999999MW1001
0035036553999991960012502004+51933-001250SAO  +0138EGUA V0202301N002610120019N0128001N9+00351+00241999999ADDGF107991999999999999999999MW1001
0066036553999991960012503004+51933-001250SAO  +0138EGUA V0202701N003110120019N0128001N9+00351+00191100531ADDGA1051+012009059GF107991999999999999999999MA1999999098811MW1001
0035036553999991960012504004+51933-001250SAO  +0138EGUA V0202501N003112200019N0176001N9+00301+00241999999ADDGF102991999999999999999999MW1001
0035036553999991960012505004+51933-001250SAO  +0138EGUA V0202501N002612200019N0176001N9+00241+00191999999ADDGF102991999999999999999999MW1001
0082036553999991960012506004+51933-001250SAO  +0138EGUA V0209991C000012200019N0176001N9+00241+00241100751ADDGA1021+024009049GA2021+220009029GF102991999999999999999999MA1999999099021MW1001
0035036553999991960012507004+51933-001250SAO  +0138EGUA V0209991C000012200019N0176001N9+00301+00241999999ADDGF107991999999999999999999MW1001
0035036553999991960012508004+51933-001250SAO  +0138EGUA V0209991C000010120019N0128001N9+00301+00191999999ADDGF107991999999999999999999MW1001
0082036553999991960012509004+51933-001250SAO  +0138EGUA V0209991C000010135019N0144001N9+00241+00131100951ADDGA1061+013509059GA2081+220009029GF108991999999999999999999MA1999999099191MW1001
0041036553999991960012510004+51933-001250SAO  +0138EGUA V0209991C000010150019N0080001N9+00411+00131999999ADDGF108991999999999999999999MW1041MW2111
0041036553999991960012511004+51933-001250SAO  +0138EGUA V0209991C000012200019N0048001N9+00351+00241999999ADDGF107991999999999999999999MW1041MW2111
0154036553999991960012512004+51933-001250SAO  +0138EGUA V0209991C000012200019N0080001N9+00521+00351101021ADDAA124000091GA1999+004509999GA2021+018009059GA3071+220009029GF107991999999999999999999KA1999M+00851KA2999N+00131MA1999999099261MW1041EQDQ01    003SCCGA1
0035036553999991960012513004+51933-001250SAO  +0138EGUA V0209991C000010180019N0128001N9+00691+00411999999ADDGF108991999999999999999999MW1001
0035036553999991960012514004+51933-001250SAO  +0138EGUA V0209991C000010150019N0096001N9+00691+00411999999ADDGF108991999999999999999999MW1041
0133036553999991960012515004+51933-001250SAO  +0138EGUA V0209991C000012200019N0096001N9+00851+00351100981ADDGA1999+006009999GA2021+018009059GA3011+042009049GA4081+220009029GF108991999999999999999999MA1999999099221MW1051EQDQ01    003SCCGA1
0035036553999991960012516004+51933-001250SAO  +0138EGUA V0209991C000012200019N0128001N9+00691+00301999999ADDGF108991999999999999999999MW1001
0035036553999991960012517004+51933-001250SAO  +0138EGUA V0209991C000012200019N0096001N9+00631+00301999999ADDGF107991999999999999999999MW1041
0098036553999991960012518004+51933-001250SAO  +0138EGUA V0209991C000012200019N0096001N9+00631+00351101021ADDGA1011+012009059GA2021+024009039GA3061+220009029GF107991999999999999999999MA1999999099261MW1041
0035036553999991960012519004+51933-001250SAO  +0138EGUA V0209991C000012200019N0096001N9+00581+00351999999ADDGF107991999999999999999999MW1051
0035036553999991960012520004+51933-001250SAO  +0138EGUA V0209991C000012200019N0096001N9+00461+00351999999ADDGF107991999999999999999999MW1051
0072036553999991960012521004+51933-001250SAO  +0138EGUA V0209991C000012200019N0048001N9+00411+00351101051ADDGA1031+220009029GF102991999999999999999999MA1999999099291MW1051MW2111
0035036553999991960012522004+51933-001250SAO  +0138EGUA V0209991C000012200019N0005001N9+00351+00351999999ADDGF102991999999999999999999MW1111
0035036553999991960012523004+51933-001250SAO  +0138EGUA V0209991C000012200019N0005001N9+00351+00301999999ADDGF102991999999999999999999MW1111
0066036553999991960012600004+51933-001250SAO  +0138EGUA V0209991C000012200019N0001001N9+00131+00131101051ADDGA1061+999999999GF107991999999999999999999MA1999999099291MW1451
0035036553999991960012601004+51933-001250SAO  +0138EGUA V0209991C000012200019N0010001N9+00191+00191999999ADDGF102991999999999999999999MW1111
0035036553999991960012602004+51933-001250SAO  +0138EGUA V0209991C000010270019N0016001N9-00041-00041999999ADDGF107991999999999999999999MW1111
0082036553999991960012603004+51933-001250SAO  +0138EGUA V0209991C000010270019N0001001N9-00041-00041101021ADDGA1061+999999999GA2031+027009039GF108991999999999999999999MA1999999099261MW1451
0035036553999991960012604004+51933-001250SAO  +0138EGUA V0209991C000010210019N0003001N9-00041-00041999999ADDGF108991999999999999999999MW1451
0035036553999991960012605004+51933-001250SAO  +0138EGUA V0209991C000012200019N0018001N9-00041-00041999999ADDGF102991999999999999999999MW1111
0082036553999991960012606004+51933-001250SAO  +0138EGUA V0209991C000012200019N0018001N9+00081+00081100951ADDGA1021+999999999GA2021+027009039GF102991999999999999999999MA1999999099191MW1111
0035036553999991960012607004+51933-001250SAO  +0138EGUA V0209991C000012200019N0018001N9+00131+00131999999ADDGF102991999999999999999999MW1111
0035036553999991960012608004+51933-001250SAO  +0138EGUA V0209991C000010120019N0000001N9+00081+00081999999ADDGF107991999999999999999999MW1451
0066036553999991960012609004+51933-001250SAO  +0138EGUA V0209991C000010001519N0000001N9+00081+00081100951ADDGA1091+000159999GF109991999999999999999999MA1999999099191MW1451
0035036553999991960012610004+51933-001250SAO  +0138EGUA V0209991C000010001519N0000001N9+00021+00021999999ADDGF108991999999999999999999MW1451
0035036553999991960012611004+51933-001250SAO  +0138EGUA V0209991C000010150019N0001001N9+00131+00131999999ADDGF107991999999999999999999MW1111
0135036553999991960012612004+51933-001250SAO  +0138EGUA V0209991C000012200019N0005001N9+00241+00241100981ADDAA124000091GA1011+999999999GA2051+015009059GA3081+220009009GF108991999999999999999999KA1999M+00521KA2999N-00041MA1999999099221MW1111
0035036553999991960012613004+51933-001250SAO  +0138EGUA V0201101N002610540019N0018001N9+00411+00411999999ADDGF108991999999999999999999MW1111
0035036553999991960012614004+51933-001250SAO  +0138EGUA V0201401N002610540019N0028001N9+00521+00351999999ADDGF108991999999999999999999MW1111
0120036553999991960012615004+51933-001250SAO  +0138EGUA V0201101N002110540019N0032001N9+00461+00301100911ADDGA1011+999999999GA2021+015009059GA3051+054009039GA4041+220009009GF107991999999999999999999MA1999999099151MW1041MW2111
0035036553999991960012616004+51933-001250SAO  +0138EGUA V0201101N002112200019N0040001N9+00461+00241999999ADDGF107991999999999999999999MW1041
0035036553999991960012617004+51933-001250SAO  +0138EGUA V0200901N002112200019N0036001N9+00301+00191999999ADDGF108991999999999999999999MW1041
0066036553999991960012618004+51933-001250SAO  +0138EGUA V0200901N002112200019N0080001N9+00241+00081100981ADDGA1051+220009009GF107991999999999999999999MA1999999099191MW1041
0035036553999991960012619004+51933-001250SAO  +0138EGUA V0200901N002112200019N0080001N9+00131-00041999999ADDGF100991999999999999999999MW1041
0041036553999991960012620004+51933-001250SAO  +0138EGUA V0200901N002112200019N0026001N9+00131+00021999999ADDGF102991999999999999999999MW1041MW2111
0066036553999991960012621004+51933-001250SAO  +0138EGUA V0201101N003110001519N0000001N9+00021+00021101051ADDGA1091+000159999GF109991999999999999999999MA1999999099261MW1451
0035036553999991960012622004+51933-001250SAO  +0138EGUA V0201101N002110001519N0000001N9+00021+00021999999ADDGF108991999999999999999999MW1451
0035036553999991960012623004+51933-001250SAO  +0138EGUA V0209991C000010001519N0000001N9+00021+00021999999ADDGF108991999999999999999999MW1451
0066036553999991960012700004+51933-001250SAO  +0138EGUA V0201101N002110001519N0000001N9+00131+00131101021ADDGA1091+000159999GF109991999999999999999999MA1999999099221MW1451
0035036553999991960012701004+51933-001250SAO  +0138EGUA V0200901N003610003019N0001001N9+00131+00131999999ADDGF108991999999999999999999MW1451
0035036553999991960012702004+51933-001250SAO  +0138EGUA V0200901N002110003019N0003001N9+00081+00081999999ADDGF108991999999999999999999MW1451
0066036553999991960012703004+51933-001250SAO  +0138EGUA V0200901N003110003019N0005001N9+00081+00081100911ADDGA1091+000309999GF109991999999999999999999MA1999999099151MW1451
0035036553999991960012704004+51933-001250SAO  +0138EGUA V0200901N002610012019N0012001N9+00131+00131999999ADDGF108991999999999999999999MW1451
0035036553999991960012705004+51933-001250SAO  +0138EGUA V0200901N002110006019N0003001N9+00081+00081999999ADDGF108991999999999999999999MW1451
0066036553999991960012706004+51933-001250SAO  +0138EGUA V0200901N002610009019N0012001N9+00131+00131100911ADDGA1091+000909999GF109991999999999999999999MA1999999099151MW1451
0035036553999991960012707004+51933-001250SAO  +0138EGUA V0209991C000010024019N0018001N9+00131+00131999999ADDGF108991999999999999999999MW1451
0035036553999991960012708004+51933-001250SAO  +0138EGUA V0209991C000010027019N0022001N9+00191+00191999999ADDGF108991999999999999999999MW1451
