0066036553999991963010100004+51933-001250SAO  +0133EGUA V0200701N011310036019N0080001N9-00041-00201101191ADDGA1081+003609079GF108991999999999999999999MA1999999099391MW1381
0035036553999991963010101004+51933-001250SAO  +0133EGUA V0200701N010310036019N0080001N9-00041-00201999999ADDGF108991999999999999999999MW1381
0035036553999991963010102004+51933-001250SAO  +0133EGUA V0200701N010310036019N0080001N9-00041-00201999999ADDGF108991999999999999999999MW1381
0066036553999991963010103004+51933-001250SAO  +0133EGUA V0200701N010310036019N0080001N9-00041-00201101191ADDGA1081+003609079GF108991999999999999999999MA1999999099391MW1381
0041036553999991963010104004+51933-001250SAO  +0133EGUA V0200701N009310030019N0032001N9-00041-00201999999ADDGF108991999999999999999999MW1381MW2711
0041036553999991963010105004+51933-001250SAO  +0133EGUA V0200701N010810033019N0048001N9-00041-00201999999ADDGF108991999999999999999999MW1381MW2711
0072036553999991963010106004+51933-001250SAO  +0133EGUA V0200701N010310036019N0064001N9-00041-00261101191ADDGA1081+003609079GF108991999999999999999999MA1999999099391MW1381MW2711
0041036553999991963010107004+51933-001250SAO  +0133EGUA V0200701N010310030019N0064001N9-00041-00261999999ADDGF108991999999999999999999MW1381MW2711
0035036553999991963010108004+51933-001250SAO  +0133EGUA V0200701N008710030019N0080001N9-00041-00261999999ADDGF108991999999999999999999MW1051
0066036553999991963010109004+51933-001250SAO  +0133EGUA V0200701N007710030019N0048001N9-00091-00261101321ADDGA1081+003009079GF108991999999999999999999MA1999999099531MW1051
0035036553999991963010110004+51933-001250SAO  +0133EGUA V0200701N007710030019N0040001N9-00091-00261999999ADDGF108991999999999999999999MW1051
0035036553999991963010111004+51933-001250SAO  +0133EGUA V0200701N009310030019N0040001N9-00041-00261999999ADDGF108991999999999999999999MW1051
0142036553999991963010112004+51933-001250SAO  +0133EGUA V0200701N007710030019N0032001N9-00091-00261101351ADDAA124999929AJ100189199999999GA1091+999999999GA2091+003009079GF108991999999999999999999KA1999M-00041KA2999N-00151MA1999999099561MW1051MW2711
0041036553999991963010113004+51933-001250SAO  +0133EGUA V0200701N008710030019N0026001N9-00041-00201999999ADDGF108991999999999999999999MW1381MW2711
0041036553999991963010114004+51933-001250SAO  +0133EGUA V0200701N006710030019N0026001N9-00041-00201999999ADDGF108991999999999999999999MW1381MW2711
0088036553999991963010115004+51933-001250SAO  +0133EGUA V0200701N008210033019N0040001N9-00041-00201101321ADDGA1091+999999999GA2091+003309079GF108991999999999999999999MA1999999099561MW1381MW2711
0041036553999991963010116004+51933-001250SAO  +0133EGUA V0200701N008710039019N0040001N9-00041-00201999999ADDGF108991999999999999999999MW1381MW2711
0041036553999991963010117004+51933-001250SAO  +0133EGUA V0200701N007710036019N0040001N9-00091-00311999999ADDGF108991999999999999999999MW1381MW2711
0088036553999991963010118004+51933-001250SAO  +0133EGUA V0200701N007710030019N0026001N9-00091-00311101391ADDGA1091+999999999GA2091+003009079GF108991999999999999999999MA1999999099591MW1381MW2711
0041036553999991963010119004+51933-001250SAO  +0133EGUA V0200701N006710030019N0036001N9-00091-00311999999ADDGF108991999999999999999999MW1381MW2711
0041036553999991963010120004+51933-001250SAO  +0133EGUA V0200701N007210033019N0064001N9-00091-00371999999ADDGF108991999999999999999999MW1051MW2711
0072036553999991963010121004+51933-001250SAO  +0133EGUA V0200701N007710030019N0064001N9-00151-00371101421ADDGA1081+003009079GF108991999999999999999999MA1999999099631MW1051MW2711
0041036553999991963010122004+51933-001250SAO  +0133EGUA V0200701N007710030019N0036001N9-00151-00371999999ADDGF108991999999999999999999MW1051MW2711
0041036553999991963010123004+51933-001250SAO  +0133EGUA V0200701N005710033019N0040001N9-00151-00371999999ADDGF108991999999999999999999MW1051MW2711
0066036553999991963010200004+51933-001250SAO  +0133EGUA V0200701N005710033019N0064001N9-00091-00371101391ADDGA1081+003309079GF108991999999999999999999MA1999999099591MW1051
0035036553999991963010201004+51933-001250SAO  +0133EGUA V0200701N005110132019N0048001N9-00151-00371999999ADDGF108991999999999999999999MW1051
0035036553999991963010202004+51933-001250SAO  +0133EGUA V0200701N008210033019N0048001N9-00151-00371999999ADDGF108991999999999999999999MW1051
0066036553999991963010203004+51933-001250SAO  +0133EGUA V0200701N008210033019N0048001N9-00151-00371101291ADDGA1081+003309079GF108991999999999999999999MA1999999099491MW1051
0035036553999991963010204004+51933-001250SAO  +0133EGUA V0201401N004110030019N0064001N9-00201-00371999999ADDGF108991999999999999999999MW1051
0041036553999991963010205004+51933-001250SAO  +0133EGUA V0200701N006210030019N0048001N9-00201-00371999999ADDGF108991999999999999999999MW1051MW2711
0066036553999991963010206004+51933-001250SAO  +0133EGUA V0200701N007710024019N0064001N9-00201-00421101221ADDGA1081+002409079GF108991999999999999999999MA1999999099421MW1051
0041036553999991963010207004+51933-001250SAO  +0133EGUA V0200701N006710018019N0064001N9-00201-00311999999ADDGF108991999999999999999999MW1051MW2561
0041036553999991963010208004+51933-001250SAO  +0133EGUA V0200701N007210015019N0026001N9-00201-00311999999ADDGF108991999999999999999999MW1051MW2451
0094036553999991963010209004+51933-001250SAO  +0133EGUA V0200701N007710012019N0012001N9-00201-00311101121ADDGA1021+999999999GA2081+001209079GF108991999999999999999999MA1999999099321MW1051MW2451MW3561
0047036553999991963010210004+51933-001250SAO  +0133EGUA V0200701N007710015019N0018001N9-00201-00311999999ADDGF108991999999999999999999MW1051MW2451MW3561
0047036553999991963010211004+51933-001250SAO  +0133EGUA V0200701N007210015019N0018001N9-00201-00311999999ADDGF108991999999999999999999MW1051MW2451MW3561
0148036553999991963010212004+51933-001250SAO  +0133EGUA V0200501N006710015019N0020001N9-00201-00311100981ADDAA124999929AJ100189199999999GA1021+999999999GA2081+001509079GF108991999999999999999999KA1999M-00091KA2999N-00201MA1999999099191MW1051MW2451MW3561
0047036553999991963010213004+51933-001250SAO  +0133EGUA V0200501N007710015019N0018001N9-00151-00311999999ADDGF108991999999999999999999MW1051MW2451MW3561
0041036553999991963010214004+51933-001250SAO  +0133EGUA V0200701N006210003019N0003001N9-00091-00201999999ADDGF108991999999999999999999MW1451MW2561
0072036553999991963010215004+51933-001250SAO  +0133EGUA V0200701N007710003019N0003001N9-00091-00201100751ADDGA1091+000309999GF109991999999999999999999MA1999999098981MW1451MW2561
0041036553999991963010216004+51933-001250SAO  +0133EGUA V0200701N007210012019N0012001N9-00091-00201999999ADDGF108991999999999999999999MW1451MW2561
0041036553999991963010217004+51933-001250SAO  +0133EGUA V0200701N007710012019N0012001N9-00091-00201999999ADDGF108991999999999999999999MW1051MW2451
0088036553999991963010218004+51933-001250SAO  +0133EGUA V0200701N007710012019N0012001N9-00091-00201100751ADDGA1021+999999999GA2081+001209079GF108991999999999999999999MA1999999098981MW1051MW2451
0041036553999991963010219004+51933-001250SAO  +0133EGUA V0200701N007210012019N0012001N9-00091-00201999999ADDGF108991999999999999999999MW1051MW2451
0041036553999991963010220004+51933-001250SAO  +0133EGUA V0200501N008210012019N0026001N9-00091-00201999999ADDGF108991999999999999999999MW1051MW2451
0088036553999991963010221004+51933-001250SAO  +0133EGUA V0200501N009310012019N0026001N9-00091-00201100581ADDGA1021+999999999GA2081+001209079GF108991999999999999999999MA1999999098811MW1051MW2451
0041036553999991963010222004+51933-001250SAO  +0133EGUA V0200501N006710006019N0018001N9-00091-00201999999ADDGF108991999999999999999999MW1051MW2451
0041036553999991963010223004+51933-001250SAO  +0133EGUA V0200501N007710006019N0005001N9-00091-00201999999ADDGF108991999999999999999999MW1451MW2711
0072036553999991963010300004+51933-001250SAO  +0133EGUA V0200501N007210006019N0008001N9-00151-00261100411ADDGA1081+000609079GF108991999999999999999999MA1999999098651MW1451MW2711
0041036553999991963010301004+51933-001250SAO  +0133EGUA V0200501N009310006019N0008001N9-00151-00261999999ADDGF108991999999999999999999MW1451MW2711
0041036553999991963010302004+51933-001250SAO  +0133EGUA V0200501N010810009019N0008001N9-00151-00201999999ADDGF108991999999999999999999MW1451MW2711
0104036553999991963010303004+51933-001250SAO  +0133EGUA V0200501N009310021019N0018001N9-00151-00201100101ADDGA1021+000909079GA2051+002109079GA3021+003609079GF108991999999999999999999MA1999999098341MW1451MW2711
0041036553999991963010304004+51933-001250SAO  +0133EGUA V0200501N009310021019N0018001N9-00091-00201999999ADDGF108991999999999999999999MW1451MW2711
0041036553999991963010305004+51933-001250SAO  +0133EGUA V0200501N008710021019N0026001N9-00041-00201999999ADDGF108991999999999999999999MW1451MW2711
0088036553999991963010306004+51933-001250SAO  +0133EGUA V0200501N010310024019N0026001N9+00021-00201099901ADDGA1091+999999999GA2091+002409079GF108991999999999999999999MA1999999098141MW1451MW2711
0041036553999991963010307004+51933-001250SAO  +0133EGUA V0200501N010810024019N0028001N9-00091-00201999999ADDGF108991999999999999999999MW1451MW2711
0041036553999991963010308004+51933-001250SAO  +0133EGUA V0200501N010310027019N0026001N9-00091-00151999999ADDGF108991999999999999999999MW1451MW2711
0094036553999991963010309004+51933-001250SAO  +0133EGUA V0200701N011310024019N0032001N9-00041-00151099801ADDGA1091+999999999GA2091+002409079GF108991999999999999999999MA1999999098041MW1381MW2451MW3711
0047036553999991963010310004+51933-001250SAO  +0133EGUA V0200501N011310027019N0018001N9-00091-00151999999ADDGF108991999999999999999999MW1381MW2451MW3711
0041036553999991963010311004+51933-001250SAO  +0133EGUA V0200501N009310030019N0064001N9+00021-00261999999ADDGF108991999999999999999999MW1611MW2791
0120036553999991963010312004+51933-001250SAO  +0133EGUA V0200701N009310030019N0048001N9+00021-00261099731ADDAA124014091AJ100209199999999GA1081+003009079GF108991999999999999999999KA1999M+00081KA2999N-00151MA1999999097971MW1791
0041036553999991963010313004+51933-001250SAO  +0133EGUA V0200501N007210027019N0036001N9+00021-00311999999ADDGF108991999999999999999999MW1451MW2791
0047036553999991963010314004+51933-001250SAO  +0133EGUA V0200501N007710024019N0040001N9+00021-00201999999ADDGF108991999999999999999999MW1451MW2611MW3711
0094036553999991963010315004+51933-001250SAO  +0133EGUA V0200501N008710024019N0040001N9+00021-00151099531ADDGA1011+999999999GA2081+002409079GF108991999999999999999999MA1999999097771MW1451MW2611MW3711
0041036553999991963010316004+51933-001250SAO  +0133EGUA V0200701N007210027019N0040001N9+00021-00201999999ADDGF108991999999999999999999MW1451MW2561
0035036553999991963010317004+51933-001250SAO  +0133EGUA V0200701N006210024019N0080001N9-00041-00261999999ADDGF108991999999999999999999MW1051
0072036553999991963010318004+51933-001250SAO  +0133EGUA V0200701N006210018019N0080001N9-00041-00201099531ADDGA1081+001809079GF108991999999999999999999MA1999999097771MW1051MW2561
0041036553999991963010319004+51933-001250SAO  +0133EGUA V0200701N005110015019N0048001N9-00041-00151999999ADDGF108991999999999999999999MW1051MW2561
0041036553999991963010320004+51933-001250SAO  +0133EGUA V0200701N003610009019N0036001N9-00041-00091999999ADDGF108991999999999999999999MW1111MW2661
0072036553999991963010321004+51933-001250SAO  +0133EGUA V0200501N004110009019N0018001N9-00041-00091099531ADDGA1081+000909079GF108991999999999999999999MA1999999097771MW1111MW2561
0041036553999991963010322004+51933-001250SAO  +0133EGUA V0200501N004110006019N0008001N9+00021-00041999999ADDGF108991999999999999999999MW1451MW2561
0041036553999991963010323004+51933-001250SAO  +0133EGUA V0200701N004610006019N0012001N9+00021-00041999999ADDGF108991999999999999999999MW1451MW2561
0088036553999991963010400004+51933-001250SAO  +0133EGUA V0200501N003110006019N0012001N9+00081-00041099461ADDGA1021+999999999GA2081+000609079GF108991999999999999999999MA1999999097701MW1451MW2561
0041036553999991963010401004+51933-001250SAO  +0133EGUA V0200501N003610006019N0012001N9+00081-00041999999ADDGF108991999999999999999999MW1451MW2561
0041036553999991963010402004+51933-001250SAO  +0133EGUA V0200501N003110006019N0008001N9+00081-00041999999ADDGF108991999999999999999999MW1451MW2561
0088036553999991963010403004+51933-001250SAO  +0133EGUA V0200701N004110006019N0012001N9+00081+00021099421ADDGA1021+999999999GA2081+000609079GF108991999999999999999999MA1999999097661MW1451MW2561
0041036553999991963010404004+51933-001250SAO  +0133EGUA V0200701N003110006019N0012001N9+00081+00021999999ADDGF108991999999999999999999MW1451MW2561
0041036553999991963010405004+51933-001250SAO  +0133EGUA V0200701N002610003019N0001001N9+00131+00021999999ADDGF108991999999999999999999MW1451MW2511
0072036553999991963010406004+51933-001250SAO  +0133EGUA V0200701N002110003019N0003001N9+00131+00021099391ADDGA1091+000309999GF109991999999999999999999MA1999999097631MW1451MW2511
0041036553999991963010407004+51933-001250SAO  +0133EGUA V0209991C000010003019N0001001N9+00191+00081999999ADDGF108991999999999999999999MW1451MW2511
0041036553999991963010408004+51933-001250SAO  +0133EGUA V0209991C000010003019N0001001N9+00191+00081999999ADDGF108991999999999999999999MW1451MW2511
0072036553999991963010409004+51933-001250SAO  +0133EGUA V0209991C000010003019N0001001N9+00191+00131099461ADDGA1091+000309999GF109991999999999999999999MA1999999097701MW1451MW2511
0041036553999991963010410004+51933-001250SAO  +0133EGUA V0209991C000010003019N0001001N9+00191+00131999999ADDGF108991999999999999999999MW1451MW2511
0041036553999991963010411004+51933-001250SAO  +0133EGUA V0209991C000010003019N0001001N9+00241+00131999999ADDGF108991999999999999999999MW1451MW2511
0126036553999991963010412004+51933-001250SAO  +0133EGUA V0209991C000010001519N0000001N9+00351+00301099391ADDAA124000591AJ100189199999999GA1091+000159999GF109991999999999999999999KA1999M+00351KA2999N+00021MA1999999097661MW1451MW2511
0041036553999991963010413004+51933-001250SAO  +0133EGUA V0202301N002610001519N0000001N9+00351+00191999999ADDGF108991999999999999999999MW1451MW2511
0041036553999991963010414004+51933-001250SAO  +0133EGUA V0202301N003110009019N0006001N9+00301+00191999999ADDGF108991999999999999999999MW1451MW2711
0072036553999991963010415004+51933-001250SAO  +0133EGUA V0202301N003110009019N0006001N9+00301+00191099461ADDGA1091+000909999GF109991999999999999999999MA1999999097731MW1451MW2711
0041036553999991963010416004+51933-001250SAO  +0133EGUA V0202301N002110009019N0006001N9+00301+00191999999ADDGF108991999999999999999999MW1451MW2711
0041036553999991963010417004+51933-001250SAO  +0133EGUA V0202301N001510114019N0012001N9+00301+00131999999ADDGF108991999999999999999999MW1451MW2711
0120036553999991963010418004+51933-001250SAO  +0133EGUA V0202301N002110135019N0012001N9+00241+00131099461ADDGA1011+999999999GA2021+001209079GA3051+013509059GA4041+027009039GF107991999999999999999999MA1999999097771MW1451MW2711
0035036553999991963010419004+51933-001250SAO  +0133EGUA V0209991C000010135019N0006001N9+00191+00131999999ADDGF107991999999999999999999MW1111
0035036553999991963010420004+51933-001250SAO  +0133EGUA V0209991C000010135019N0006001N9+00191+00021999999ADDGF108991999999999999999999MW1451
0066036553999991963010421004+51933-001250SAO  +0133EGUA V0209991C000012200019N0000001N9+00081+00021099561ADDGA1071+999999999GF107991999999999999999999MA1999999097801MW1451
0035036553999991963010422004+51933-001250SAO  +0133EGUA V0209991C000010001519N0000001N9+00081-00041999999ADDGF108991999999999999999999MW1451
0035036553999991963010423004+51933-001250SAO  +0133EGUA V0209991C000010018019N0005001N9+00021-00091999999ADDGF108991999999999999999999MW1451
0066036553999991963010500004+51933-001250SAO  +0133EGUA V0209991C000010009019N0008001N9+00131+00081099561ADDGA1081+000909079GF108991999999999999999999MA1999999097831MW1451
0041036553999991963010501004+51933-001250SAO  +0133EGUA V0209991C000010006019N0003001N9+00131+00081999999ADDGF108991999999999999999999MW1451MW2511
0035036553999991963010502004+51933-001250SAO  +0133EGUA V0209991C000010006019N0003001N9+00131-00041999999ADDGF108991999999999999999999MW1451
0066036553999991963010503004+51933-001250SAO  +0133EGUA V0209991C000010006019N0003001N9+00081-00041099561ADDGA1091+000609999GF109991999999999999999999MA1999999097831MW1451
0035036553999991963010504004+51933-001250SAO  +0133EGUA V0209991C000010006019N0003001N9+00021-00091999999ADDGF108991999999999999999999MW1451
0035036553999991963010505004+51933-001250SAO  +0133EGUA V0209991C000010006019N0003001N9+00021-00091999999ADDGF108991999999999999999999MW1451
0066036553999991963010506004+51933-001250SAO  +0133EGUA V0209991C000010006019N0003001N9+00021-00041099591ADDGA1091+000609999GF109991999999999999999999MA1999999097831MW1451
0035036553999991963010507004+51933-001250SAO  +0133EGUA V0209991C000010030019N0006001N9+00021-00041999999ADDGF108991999999999999999999MW1451
0035036553999991963010508004+51933-001250SAO  +0133EGUA V0209991C000010018019N0006001N9+00021-00041999999ADDGF108991999999999999999999MW1451
0088036553999991963010509004+51933-001250SAO  +0133EGUA V0209991C000010018019N0018001N9+00131-00201099801ADDGA1021+999999999GA2081+001809079GF108991999999999999999999MA1999999098041MW1451MW2511
0035036553999991963010510004+51933-001250SAO  +0133EGUA V0209991C000010015019N0003001N9+00131-00151999999ADDGF108991999999999999999999MW1451
0035036553999991963010511004+51933-001250SAO  +0133EGUA V0203601N001010009019N0012001N9+00191-00151999999ADDGF108991999999999999999999MW1451
0136036553999991963010512004+51933-001250SAO  +0133EGUA V0203201N002110015019N0018001N9+00191-00151099861ADDAA124999929AJ100189199999999GA1051+999999999GA2081+001509079GF108991999999999999999999KA1999M+00241KA2999N+00021MA1999999098101MW1451
0035036553999991963010513004+51933-001250SAO  +0133EGUA V0203401N002610015019N0020001N9+00191-00151999999ADDGF108991999999999999999999MW1451
0035036553999991963010514004+51933-001250SAO  +0133EGUA V0203401N001510012019N0012001N9+00191-00201999999ADDGF108991999999999999999999MW1451
0066036553999991963010515004+51933-001250SAO  +0133EGUA V0203401N002110006019N0006001N9+00191-00201099971ADDGA1091+000609999GF109991999999999999999999MA1999999098211MW1451
0035036553999991963010516004+51933-001250SAO  +0133EGUA V0203401N002610003019N0001001N9+00241-00151999999ADDGF108991999999999999999999MW1451
0035036553999991963010517004+51933-001250SAO  +0133EGUA V0203601N002110003019N0001001N9+00241-00091999999ADDGF108991999999999999999999MW1451
0066036553999991963010518004+51933-001250SAO  +0133EGUA V0200201N003110003019N0001001N9+00241-00091100101ADDGA1091+000309999GF109991999999999999999999MA1999999098341MW1451
0035036553999991963010519004+51933-001250SAO  +0133EGUA V0203601N002610012019N0012001N9+00241-00091999999ADDGF108991999999999999999999MW1451
0035036553999991963010520004+51933-001250SAO  +0133EGUA V0200501N002610021019N0040001N9+00241-00091999999ADDGF108991999999999999999999MW1111
0104036553999991963010521004+51933-001250SAO  +0133EGUA V0200201N002110024019N0048001N9+00241-00091100241ADDGA1021+999999999GA2061+002409079GA3021+012009059GF108991999999999999999999MA1999999098511MW1051MW2111
0041036553999991963010522004+51933-001250SAO  +0133EGUA V0203601N001510015019N0032001N9+00241-00091999999ADDGF108991999999999999999999MW1051MW2111
0041036553999991963010523004+51933-001250SAO  +0133EGUA V0200201N003110015019N0032001N9+00241-00091999999ADDGF108991999999999999999999MW1051MW2111
0088036553999991963010600004+51933-001250SAO  +0133EGUA V0200501N002610021019N0040001N9+00241-00091100371ADDGA1021+999999999GA2081+002109079GF108991999999999999999999MA1999999098651MW1051MW2111
0041036553999991963010601004+51933-001250SAO  +0133EGUA V0200501N002610018019N0040001N9+00241-00091999999ADDGF108991999999999999999999MW1051MW2111
0035036553999991963010602004+51933-001250SAO  +0133EGUA V0200501N005110018019N0048001N9+00301-00091999999ADDGF108991999999999999999999MW1051
0066036553999991963010603004+51933-001250SAO  +0133EGUA V0200501N004110018019N0048001N9+00301-00091100411ADDGA1081+001809079GF108991999999999999999999MA1999999098681MW1051
0035036553999991963010604004+51933-001250SAO  +0133EGUA V0200701N005110018019N0048001N9+00301-00091999999ADDGF108991999999999999999999MW1051
0047036553999991963010605004+51933-001250SAO  +0133EGUA V0200701N005710015019N0048001N9+00301-00091999999ADDGF108991999999999999999999MW1051MW2611MW3711
0078036553999991963010606004+51933-001250SAO  +0133EGUA V0200701N004610015019N0064001N9+00301-00091100471ADDGA1081+001509079GF108991999999999999999999MA1999999098751MW1051MW2511MW3711
0047036553999991963010607004+51933-001250SAO  +0133EGUA V0200701N005710075019N0080001N9+00301-00091999999ADDGF108991999999999999999999MW1051MW2511MW3711
0047036553999991963010608004+51933-001250SAO  +0133EGUA V0200501N006210066019N0080001N9+00301+00021999999ADDGF108991999999999999999999MW1051MW2611MW3711
0082036553999991963010609004+51933-001250SAO  +0133EGUA V0200501N006710066019N0128001N9+00191-00041100641ADDGA1021+003609059GA2081+006609059GF108991999999999999999999MA1999999098921MW1711
0035036553999991963010610004+51933-001250SAO  +0133EGUA V0200701N008210060019N0048001N9+00191-00041999999ADDGF108991999999999999999999MW1711
0035036553999991963010611004+51933-001250SAO  +0133EGUA V0200701N008210075019N0096001N9+00241-00091999999ADDGF108991999999999999999999MW1711
0136036553999991963010612004+51933-001250SAO  +0133EGUA V0200701N007710084019N0096001N9+00191+00021100681ADDAA124999929AJ100189199999999GA1021+003009059GA2081+008409059GF108991999999999999999999KA1999M+00301KA2999N+00081MA1999999098951MW1711
0041036553999991963010613004+51933-001250SAO  +0133EGUA V0200701N008210084019N0096001N9+00191-00091999999ADDGF108991999999999999999999MW1511MW2711
0035036553999991963010614004+51933-001250SAO  +0133EGUA V0200701N008210084019N0096001N9+00191-00091999999ADDGF108991999999999999999999MW1051
0082036553999991963010615004+51933-001250SAO  +0133EGUA V0200701N008210084019N0096001N9+00191-00091100711ADDGA1021+003009059GA2081+008409059GF108991999999999999999999MA1999999098981MW1051
0035036553999991963010616004+51933-001250SAO  +0133EGUA V0200701N007710096019N0128001N9+00241-00091999999ADDGF108991999999999999999999MW1001
0035036553999991963010617004+51933-001250SAO  +0133EGUA V0200701N007710096019N0096001N9+00241-00091999999ADDGF108991999999999999999999MW1051
0082036553999991963010618004+51933-001250SAO  +0133EGUA V0200701N008710096019N0080001N9+00191-00151100881ADDGA1031+003909079GA2081+009609059GF108991999999999999999999MA1999999099121MW1051
0035036553999991963010619004+51933-001250SAO  +0133EGUA V0200701N009310024019N0128001N9+00191-00091999999ADDGF108991999999999999999999MW1001
0035036553999991963010620004+51933-001250SAO  +0133EGUA V0200901N009310024019N0176001N9+00191-00091999999ADDGF108991999999999999999999MW1001
0098036553999991963010621004+51933-001250SAO  +0133EGUA V0200901N008710135019N0200001N9+00191-00091101021ADDGA1021+002709079GA2021+008409059GA3081+013509059GF108991999999999999999999MA1999999099261MW1001
0035036553999991963010622004+51933-001250SAO  +0133EGUA V0200901N008710180019N0200001N9+00191-00091999999ADDGF108991999999999999999999MW1001
0035036553999991963010623004+51933-001250SAO  +0133EGUA V0200701N007212200019N0240001N9+00131-00091999999ADDGF107991999999999999999999MW1001
0082036553999991963010700004+51933-001250SAO  +0133EGUA V0200701N006712200019N0240001N9+00081-00151101191ADDGA1021+021009039GA2061+220009029GF107991999999999999999999MA1999999099391MW1001
0035036553999991963010701004+51933-001250SAO  +0133EGUA V0200701N006712200019N0240001N9+00021-00151999999ADDGF107991999999999999999999MW1001
0035036553999991963010702004+51933-001250SAO  +0133EGUA V0200701N006710210019N0240001N9+00021-00151999999ADDGF107991999999999999999999MW1001
0082036553999991963010703004+51933-001250SAO  +0133EGUA V0200701N007212200019N0240001N9+00021-00151101251ADDGA1021+021009039GA2061+220009029GF107991999999999999999999MA1999999099461MW1001
0035036553999991963010704004+51933-001250SAO  +0133EGUA V0200701N007712200019N0240001N9+00021-00151999999ADDGF108991999999999999999999MW1001
0035036553999991963010705004+51933-001250SAO  +0133EGUA V0200701N008212200019N0240001N9-00041-00151999999ADDGF102991999999999999999999MW1001
0082036553999991963010706004+51933-001250SAO  +0133EGUA V0200701N008212200019N0240001N9-00041-00151101291ADDGA1011+021009039GA2021+220009029GF102991999999999999999999MA1999999099491MW1001
0035036553999991963010707004+51933-001250SAO  +0133EGUA V0200701N006212200019N0240001N9-00091-00151999999ADDGF107991999999999999999999MW1001
0035036553999991963010708004+51933-001250SAO  +0133EGUA V0200701N006712200019N0240001N9-00091-00591999999ADDGF107991999999999999999999MW1001
0082036553999991963010709004+51933-001250SAO  +0133EGUA V0200701N005712200019N0240001N9-00091-00591101491ADDGA1011+021009039GA2061+220009029GF107991999999999999999999MA1999999099701MW1001
0035036553999991963010710004+51933-001250SAO  +0133EGUA V0200701N007212200019N0240001N9-00041-00591999999ADDGF107991999999999999999999MW1001
0035036553999991963010711004+51933-001250SAO  +0133EGUA V0200701N007712200019N0240001N9-00041-00531999999ADDGF107991999999999999999999MW1001
0120036553999991963010712004+51933-001250SAO  +0133EGUA V0200701N009812200019N0240001N9+00021-00531101561ADDAA124000091AJ100159199999999GA1061+220009009GF107991999999999999999999KA1999M+00081KA2999N-00151MA1999999099761MW1001
0035036553999991963010713004+51933-001250SAO  +0133EGUA V0200701N008712200019N0240001N9+00081-00531999999ADDGF107991999999999999999999MW1001
0035036553999991963010714004+51933-001250SAO  +0133EGUA V0200701N008212200019N0240001N9+00081-00531999999ADDGF107991999999999999999999MW1001
0082036553999991963010715004+51933-001250SAO  +0133EGUA V0200701N006212200019N0176001N9+00021-00591101591ADDGA1011+042009039GA2081+220009029GF108991999999999999999999MA1999999099801MW1001
0035036553999991963010716004+51933-001250SAO  +0133EGUA V0200701N005112200019N0176001N9-00041-00531999999ADDGF108991999999999999999999MW1001
0035036553999991963010717004+51933-001250SAO  +0133EGUA V0200701N005112200019N0176001N9-00151-00651999999ADDGF108991999999999999999999MW1001
0082036553999991963010718004+51933-001250SAO  +0133EGUA V0200701N005110075019N0176001N9-00151-00591101631ADDGA1061+007509059GA2081+220009029GF108991999999999999999999MA1999999099831MW1001
0035036553999991963010719004+51933-001250SAO  +0133EGUA V0200701N004110066019N0176001N9-00091-00591999999ADDGF108991999999999999999999MW1001
0035036553999991963010720004+51933-001250SAO  +0133EGUA V0200501N005110096019N0176001N9-00091-00591999999ADDGF108991999999999999999999MW1001
0082036553999991963010721004+51933-001250SAO  +0133EGUA V0200501N004610096019N0176001N9-00091-00531101801ADDGA1021+006009059GA2081+009609059GF108991999999999999999999MA1999999100001MW1001
0035036553999991963010722004+51933-001250SAO  +0133EGUA V0200501N005710096019N0176001N9-00091-00531999999ADDGF108991999999999999999999MW1001
0035036553999991963010723004+51933-001250SAO  +0133EGUA V0200701N005110096019N0200001N9-00041-00481999999ADDGF108991999999999999999999MW1001
0066036553999991963010800004+51933-001250SAO  +0133EGUA V0200701N006210096019N0200001N9-00041-00421101801ADDGA1081+009609059GF108991999999999999999999MA1999999100001MW1001
0035036553999991963010801004+51933-001250SAO  +0133EGUA V0200701N006210096019N0200001N9+00021-00481999999ADDGF108991999999999999999999MW1001
0035036553999991963010802004+51933-001250SAO  +0133EGUA V0200501N005110096019N0200001N9+00021-00421999999ADDGF108991999999999999999999MW1001
0066036553999991963010803004+51933-001250SAO  +0133EGUA V0200701N006710096019N0200001N9+00021-00421101831ADDGA1081+009609059GF108991999999999999999999MA1999999100031MW1001
0035036553999991963010804004+51933-001250SAO  +0133EGUA V0200701N007210096019N0200001N9+00021-00421999999ADDGF108991999999999999999999MW1001
0035036553999991963010805004+51933-001250SAO  +0133EGUA V0200701N006210096019N0200001N9+00021-00421999999ADDGF108991999999999999999999MW1001
0066036553999991963010806004+51933-001250SAO  +0133EGUA V0200701N007210096019N0200001N9+00021-00421101831ADDGA1081+009609059GF108991999999999999999999MA1999999100031MW1001
0035036553999991963010807004+51933-001250SAO  +0133EGUA V0200701N005710096019N0200001N9+00021-00481999999ADDGF108991999999999999999999MW1001
0035036553999991963010808004+51933-001250SAO  +0133EGUA V0200701N005110084019N0176001N9+00021-00481999999ADDGF108991999999999999999999MW1001
0066036553999991963010809004+51933-001250SAO  +0133EGUA V0200701N004610060019N0144001N9+00021-00421102001ADDGA1081+006009059GF108991999999999999999999MA1999999100201MW1001
0041036553999991963010810004+51933-001250SAO  +0133EGUA V0200701N006210060019N0080001N9+00021-00371999999ADDGF108991999999999999999999MW1051MW2711
0041036553999991963010811004+51933-001250SAO  +0133EGUA V0200701N006210060019N0040001N9-00041-00311999999ADDGF108991999999999999999999MW1051MW2711
0152036553999991963010812004+51933-001250SAO  +0133EGUA V0200701N005110450019N0128001N9+00021-00311102001ADDAA124999929AJ100159199999999GA1011+006009059GA2021+012009059GA3051+045009039GF107991999999999999999999KA1999M+00081KA2999N-00311MA1999999100201MW1001
0035036553999991963010813004+51933-001250SAO  +0133EGUA V0200701N005112200019N0144001N9+00021-00371999999ADDGF102991999999999999999999MW1001
0035036553999991963010814004+51933-001250SAO  +0133EGUA V0200701N005710420019N0144001N9+00081-00371999999ADDGF107991999999999999999999MW1001
0082036553999991963010815004+51933-001250SAO  +0133EGUA V0200701N006210150019N0144001N9+00021-00371102031ADDGA1061+015009059GA2021+042009039GF107991999999999999999999MA1999999100241MW1001
0035036553999991963010816004+51933-001250SAO  +0133EGUA V0200501N005712200019N0176001N9+00021-00481999999ADDGF107991999999999999999999MW1001
0035036553999991963010817004+51933-001250SAO  +0133EGUA V0200501N004612200019N0176001N9-00091-00531999999ADDGF107991999999999999999999MW1001
0066036553999991963010818004+51933-001250SAO  +0133EGUA V0200501N004612200019N0176001N9-00201-00651102101ADDGA1081+220009009GF108991999999999999999999MA1999999100271MW1001
0035036553999991963010819004+51933-001250SAO  +0133EGUA V0200701N005112200019N0176001N9-00261-00651999999ADDGF108991999999999999999999MW1001
0035036553999991963010820004+51933-001250SAO  +0133EGUA V0200701N005712200019N0176001N9-00261-00651999999ADDGF108991999999999999999999MW1001
0082036553999991963010821004+51933-001250SAO  +0133EGUA V0200701N005110096019N0096001N9-00261-00701102131ADDGA1061+009609059GA2081+220009009GF108991999999999999999999MA1999999100341MW1051
0035036553999991963010822004+51933-001250SAO  +0133EGUA V0200701N006210135019N0176001N9-00261-00701999999ADDGF108991999999999999999999MW1001
0035036553999991963010823004+51933-001250SAO  +0133EGUA V0200901N004112200019N0176001N9-00261-00701999999ADDGF102991999999999999999999MW1001
0082036553999991963010900004+51933-001250SAO  +0133EGUA V0200701N004612200019N0176001N9-00311-00701102131ADDGA1021+005709059GA2061+220009009GF107991999999999999999999MA1999999100341MW1001
0035036553999991963010901004+51933-001250SAO  +0133EGUA V0200701N006212200019N0176001N9-00311-00701999999ADDGF102991999999999999999999MW1001
0035036553999991963010902004+51933-001250SAO  +0133EGUA V0200701N007212200019N0176001N9-00311-00761999999ADDGF102991999999999999999999MW1001
0066036553999991963010903004+51933-001250SAO  +0133EGUA V0200701N007712200019N0176001N9-00261-00761102071ADDGA1021+220009009GF102991999999999999999999MA1999999100271MW1001
0035036553999991963010904004+51933-001250SAO  +0133EGUA V0200701N007212200019N0176001N9-00311-00701999999ADDGF102991999999999999999999MW1001
0035036553999991963010905004+51933-001250SAO  +0133EGUA V0200701N006712200019N0176001N9-00311-00701999999ADDGF102991999999999999999999MW1001
0066036553999991963010906004+51933-001250SAO  +0133EGUA V0200701N006712200019N0176001N9-00311-00651102071ADDGA1001+999999999GF100991999999999999999999MA1999999100271MW1001
0035036553999991963010907004+51933-001250SAO  +0133EGUA V0200701N007712200019N0176001N9-00311-00651999999ADDGF100991999999999999999999MW1001
0035036553999991963010908004+51933-001250SAO  +0133EGUA V0200701N008212200019N0144001N9-00261-00591999999ADDGF102991999999999999999999MW1001
0050036553999991963010909004+51933-001250SAO  +0133EGUA V0200701N008212200019N0144001N9-00261-00591102171ADDGF100991999999999999999999MA1999999100371MW1001
0035036553999991963010910004+51933-001250SAO  +0133EGUA V0200701N008212200019N0144001N9-00201-00591999999ADDGF100991999999999999999999MW1001
0035036553999991963010911004+51933-001250SAO  +0133EGUA V0200701N008212200019N0144001N9-00151-00591999999ADDGF100991999999999999999999MW1001
0104036553999991963010912004+51933-001250SAO  +0133EGUA V0200701N009312200019N0144001N9-00091-00531102201ADDAA124000091AJ100159199999999GF100991999999999999999999KA1999M+00081KA2999N-00311MA1999999100411MW1001
0035036553999991963010913004+51933-001250SAO  +0133EGUA V0200701N008712200019N0144001N9+00021-00481999999ADDGF100991999999999999999999MW1001
0035036553999991963010914004+51933-001250SAO  +0133EGUA V0200901N008712200019N0128001N9+00081-00481999999ADDGF100991999999999999999999MW1001
0050036553999991963010915004+51933-001250SAO  +0133EGUA V0200701N007712200019N0128001N9+00081-00421102101ADDGF100991999999999999999999MA1999999100301MW1001
0035036553999991963010916004+51933-001250SAO  +0133EGUA V0200701N006212200019N0128001N9+00021-00421999999ADDGF100991999999999999999999MW1001
0035036553999991963010917004+51933-001250SAO  +0133EGUA V0200701N004612200019N0128001N9-00091-00531999999ADDGF100991999999999999999999MW1001
0085036553999991963010918004+51933-001250SAO  +0133EGUA V0200701N005712200019N0128001N9-00151-00531102241ADDGA1999+036009999GF100991999999999999999999MA1999999100441MW1001EQDQ01    003SCCGA1
0035036553999991963010919004+51933-001250SAO  +0133EGUA V0200701N006712200019N0128001N9-00151-00531999999ADDGF100991999999999999999999MW1001
0035036553999991963010920004+51933-001250SAO  +0133EGUA V0200701N006212200019N0128001N9-00151-00531999999ADDGF100991999999999999999999MW1001
0066036553999991963010921004+51933-001250SAO  +0133EGUA V0200701N006712200019N0176001N9-00201-00531102271ADDGA1001+999999999GF100991999999999999999999MA1999999100471MW1001
0035036553999991963010922004+51933-001250SAO  +0133EGUA V0200701N006712200019N0176001N9-00201-00531999999ADDGF100991999999999999999999MW1001
0035036553999991963010923004+51933-001250SAO  +0133EGUA V0200701N007212200019N0176001N9-00201-00531999999ADDGF102991999999999999999999MW1001
0066036553999991963011000004+51933-001250SAO  +0133EGUA V0200701N006212200019N0176001N9-00201-00531102271ADDGA1011+009009059GF102991999999999999999999MA1999999100471MW1001
0035036553999991963011001004+51933-001250SAO  +0133EGUA V0200701N005712200019N0176001N9-00201-00531999999ADDGF102991999999999999999999MW1001
0035036553999991963011002004+51933-001250SAO  +0133EGUA V0200501N004112200019N0176001N9-00201-00531999999ADDGF102991999999999999999999MW1001
0066036553999991963011003004+51933-001250SAO  +0133EGUA V0200501N003612200019N0176001N9-00201-00531102271ADDGA1021+220009009GF102991999999999999999999MA1999999100471MW1001
0035036553999991963011004004+51933-001250SAO  +0133EGUA V0200501N003612200019N0176001N9-00201-00531999999ADDGF102991999999999999999999MW1001
0035036553999991963011005004+51933-001250SAO  +0133EGUA V0200501N004112200019N0176001N9-00201-00531999999ADDGF102991999999999999999999MW1001
0066036553999991963011006004+51933-001250SAO  +0133EGUA V0200501N003612200019N0176001N9-00311-00591102271ADDGA1011+220009009GF102991999999999999999999MA1999999100471MW1001
0035036553999991963011007004+51933-001250SAO  +0133EGUA V0200201N004112200019N0176001N9-00371-00591999999ADDGF102991999999999999999999MW1001
0035036553999991963011008004+51933-001250SAO  +0133EGUA V0200201N003612200019N0064001N9-00371-00591999999ADDGF102991999999999999999999MW1051
0066036553999991963011009004+51933-001250SAO  +0133EGUA V0200501N004610003019N0001001N9-00311-00481102371ADDGA1091+000309999GF109991999999999999999999MA1999999100581MW1451
0035036553999991963011010004+51933-001250SAO  +0133EGUA V0200701N003112200019N0010001N9-00201-00261999999ADDGF108991999999999999999999MW1451
0035036553999991963011011004+51933-001250SAO  +0133EGUA V0200701N004112200019N0048001N9-00091-00261999999ADDGF102991999999999999999999MW1051
0139036553999991963011012004+51933-001250SAO  +0133EGUA V0200501N003612200019N0048001N9-00041-00311102401ADDAA124000091AJ100159199999999GA1999+013509999GF100991999999999999999999KA1999M+00191KA2999N-00481MA1999999100611MW1051EQDQ01    003SCCGA1
0035036553999991963011013004+51933-001250SAO  +0133EGUA V0200701N003612200019N0080001N9+00081-00261999999ADDGF100991999999999999999999MW1051
0035036553999991963011014004+51933-001250SAO  +0133EGUA V0200501N004112200019N0080001N9+00131-00261999999ADDGF102991999999999999999999MW1051
0085036553999991963011015004+51933-001250SAO  +0133EGUA V0200701N005712200019N0080001N9+00191-00261102301ADDGA1999+013509999GF100991999999999999999999MA1999999100511MW1051EQDQ01    003SCCGA1
0035036553999991963011016004+51933-001250SAO  +0133EGUA V0200701N005712200019N0080001N9+00131-00261999999ADDGF100991999999999999999999MW1051
0035036553999991963011017004+51933-001250SAO  +0133EGUA V0200501N004112200019N0080001N9+00021-00311999999ADDGF100991999999999999999999MW1051
0066036553999991963011018004+51933-001250SAO  +0133EGUA V0200501N004612200019N0096001N9-00091-00311102401ADDGA1001+999999999GF100991999999999999999999MA1999999100611MW1051
0035036553999991963011019004+51933-001250SAO  +0133EGUA V0200501N004612200019N0096001N9-00151-00651999999ADDGF100991999999999999999999MW1051
0035036553999991963011020004+51933-001250SAO  +0133EGUA V0200501N003112200019N0096001N9-00261-00651999999ADDGF100991999999999999999999MW1051
0066036553999991963011021004+51933-001250SAO  +0133EGUA V0200501N003612200019N0080001N9-00311-00701102541ADDGA1001+999999999GF100991999999999999999999MA1999999100751MW1051
0035036553999991963011022004+51933-001250SAO  +0133EGUA V0203601N003112200019N0080001N9-00421-00701999999ADDGF100991999999999999999999MW1051
0041036553999991963011023004+51933-001250SAO  +0133EGUA V0200201N003112200019N0064001N9-00481-00701999999ADDGF100991999999999999999999MW1051MW2111
0072036553999991963011100004+51933-001250SAO  +0133EGUA V0200501N002612200019N0064001N9-00481-00701102571ADDGA1001+999999999GF100991999999999999999999MA1999999100781MW1051MW2111
0035036553999991963011101004+51933-001250SAO  +0133EGUA V0200201N004112200019N0012001N9-00371-00651999999ADDGF102991999999999999999999MW1111
0035036553999991963011102004+51933-001250SAO  +0133EGUA V0200501N003112200019N0012001N9-00371-00651999999ADDGF102991999999999999999999MW1111
0066036553999991963011103004+51933-001250SAO  +0133EGUA V0200201N003612200019N0064001N9-00371-00651102541ADDGA1001+999999999GF100991999999999999999999MA1999999100751MW1051
0035036553999991963011104004+51933-001250SAO  +0133EGUA V0200501N002612200019N0064001N9-00421-00651999999ADDGF100991999999999999999999MW1051
0035036553999991963011105004+51933-001250SAO  +0133EGUA V0200501N003612200019N0064001N9-00481-00651999999ADDGF100991999999999999999999MW1051
0066036553999991963011106004+51933-001250SAO  +0133EGUA V0200501N003112200019N0096001N9-00481-00651102641ADDGA1001+999999999GF100991999999999999999999MA1999999100851MW1051
0035036553999991963011107004+51933-001250SAO  +0133EGUA V0200501N004112200019N0128001N9-00531-00651999999ADDGF100991999999999999999999MW1001
0035036553999991963011108004+51933-001250SAO  +0133EGUA V0200501N003112200019N0128001N9-00531-00761999999ADDGF100991999999999999999999MW1001
0066036553999991963011109004+51933-001250SAO  +0133EGUA V0200701N003112200019N0128001N9-00591-00921102841ADDGA1001+999999999GF100991999999999999999999MA1999999101021MW1001
0035036553999991963011110004+51933-001250SAO  +0133EGUA V0200501N003612200019N0128001N9-00531-00921999999ADDGF102991999999999999999999MW1001
0035036553999991963011111004+51933-001250SAO  +0133EGUA V0200501N003612200019N0128001N9-00421-00811999999ADDGF100991999999999999999999MW1001
0120036553999991963011112004+51933-001250SAO  +0133EGUA V0200501N004112200019N0128001N9-00261-00761102811ADDAA124000091AJ100139199999999GA1001+999999999GF100991999999999999999999KA1999M-00091KA2999N-00811MA1999999101021MW1001
0035036553999991963011113004+51933-001250SAO  +0133EGUA V0200501N004112200019N0128001N9-00201-00761999999ADDGF100991999999999999999999MW1001
0035036553999991963011114004+51933-001250SAO  +0133EGUA V0200501N005112200019N0096001N9-00091-00701999999ADDGF100991999999999999999999MW1051
0066036553999991963011115004+51933-001250SAO  +0133EGUA V0200201N003612200019N0096001N9-00151-00701102811ADDGA1001+999999999GF100991999999999999999999MA1999999101021MW1051
0035036553999991963011116004+51933-001250SAO  +0133EGUA V0200201N004112200019N0048001N9-00261-00761999999ADDGF100991999999999999999999MW1051
0035036553999991963011117004+51933-001250SAO  +0133EGUA V0200201N004112200019N0048001N9-00371-00761999999ADDGF100991999999999999999999MW1051
0085036553999991963011118004+51933-001250SAO  +0133EGUA V0200201N004612200019N0040001N9-00421-00761102981ADDGA1999+010509999GF100991999999999999999999MA1999999101121MW1051EQDQ01    003SCCGA1
0035036553999991963011119004+51933-001250SAO  +0133EGUA V0200201N003612200019N0040001N9-00421-00761999999ADDGF100991999999999999999999MW1051
0035036553999991963011120004+51933-001250SAO  +0133EGUA V0200501N003112200019N0048001N9-00481-00811999999ADDGF102991999999999999999999MW1051
0066036553999991963011121004+51933-001250SAO  +0133EGUA V0200501N003112200019N0048001N9-00531-00871103011ADDGA1011+012009059GF102991999999999999999999MA1999999101151MW1051
0035036553999991963011122004+51933-001250SAO  +0133EGUA V0203601N003112200019N0048001N9-00651-01031999999ADDGF100991999999999999999999MW1051
0035036553999991963011123004+51933-001250SAO  +0133EGUA V0203401N004112200019N0048001N9-00761-01031999999ADDGF100991999999999999999999MW1051
0066036553999991963011200004+51933-001250SAO  +0133EGUA V0203401N005112200019N0001001N9-00811-01091102981ADDGA1071+999999999GF107991999999999999999999MA1999999101121MW1451
0035036553999991963011201004+51933-001250SAO  +0133EGUA V0203401N005712200019N0001001N9-00591-00871999999ADDGF107991999999999999999999MW1451
0035036553999991963011202004+51933-001250SAO  +0133EGUA V0203401N006212200019N0003001N9-00421-00701999999ADDGF107991999999999999999999MW1451
0098036553999991963011203004+51933-001250SAO  +0133EGUA V0203401N004110006019N0008001N9-00421-00701102981ADDGA1021+999999999GA2051+000609079GA3041+013509059GF107991999999999999999999MA1999999101151MW1451
0035036553999991963011204004+51933-001250SAO  +0133EGUA V0203601N003110006019N0003001N9-00421-00651999999ADDGF108991999999999999999999MW1451
0035036553999991963011205004+51933-001250SAO  +0133EGUA V0203401N003610006019N0005001N9-00421-00651999999ADDGF108991999999999999999999MW1451
0066036553999991963011206004+51933-001250SAO  +0133EGUA V0203401N005110006019N0005001N9-00421-00701103051ADDGA1091+000609999GF109991999999999999999999MA1999999101191MW1451
0035036553999991963011207004+51933-001250SAO  +0133EGUA V0203401N005710003019N0003001N9-00421-00651999999ADDGF108991999999999999999999MW1451
0035036553999991963011208004+51933-001250SAO  +0133EGUA V0203601N005110003019N0003001N9-00371-00651999999ADDGF108991999999999999999999MW1451
0066036553999991963011209004+51933-001250SAO  +0133EGUA V0203401N005110006019N0005001N9-00371-00651103121ADDGA1091+000609999GF109991999999999999999999MA1999999101251MW1451
0035036553999991963011210004+51933-001250SAO  +0133EGUA V0203601N004610006019N0005001N9-00311-00591999999ADDGF108991999999999999999999MW1451
0035036553999991963011211004+51933-001250SAO  +0133EGUA V0200501N003110006019N0006001N9-00201-00481999999ADDGF108991999999999999999999MW1451
0142036553999991963011212004+51933-001250SAO  +0133EGUA V0203401N003610012019N0008001N9-00151-00371103181ADDAA124000591AJ100139199999999GA1061+999999999GA2081+001209079GF108991999999999999999999KA1999M-00151KA2999N-00811MA1999999101321MW1451MW2851
0041036553999991963011213004+51933-001250SAO  +0133EGUA V0203601N003110015019N0008001N9-00261-00481999999ADDGF108991999999999999999999MW1451MW2851
0041036553999991963011214004+51933-001250SAO  +0133EGUA V0203401N003110018019N0006001N9-00261-00421999999ADDGF108991999999999999999999MW1451MW2711
0088036553999991963011215004+51933-001250SAO  +0133EGUA V0203401N003610021019N0005001N9-00201-00371103151ADDGA1051+999999999GA2051+002109079GF108991999999999999999999MA1999999101321MW1451MW2711
0035036553999991963011216004+51933-001250SAO  +0133EGUA V0203401N003110018019N0006001N9-00201-00421999999ADDGF108991999999999999999999MW1451
0035036553999991963011217004+51933-001250SAO  +0133EGUA V0203601N001510024019N0008001N9-00201-00481999999ADDGF108991999999999999999999MW1451
0082036553999991963011218004+51933-001250SAO  +0133EGUA V0200501N002610030019N0026001N9-00201-00421103271ADDGA1031+999999999GA2081+003009079GF108991999999999999999999MA1999999101421MW1111
0035036553999991963011219004+51933-001250SAO  +0133EGUA V0200901N001010009019N0022001N9-00201-00531999999ADDGF108991999999999999999999MW1111
0035036553999991963011220004+51933-001250SAO  +0133EGUA V0200501N001510003019N0001001N9-00311-00651999999ADDGF108991999999999999999999MW1451
0098036553999991963011221004+51933-001250SAO  +0133EGUA V0200701N001010030019N0012001N9-00371-00701103351ADDGA1031+999999999GA2051+003009079GA3041+220009009GF107991999999999999999999MA1999999101521MW1451
0035036553999991963011222004+51933-001250SAO  +0133EGUA V0203601N002110018019N0026001N9-00261-00531999999ADDGF108991999999999999999999MW1451
0035036553999991963011223004+51933-001250SAO  +0133EGUA V0203601N002110015019N0018001N9-00261-00531999999ADDGF108991999999999999999999MW1451
0082036553999991963011300004+51933-001250SAO  +0133EGUA V0203601N002110009019N0006001N9-00261-00531103421ADDGA1041+999999999GA2081+000909079GF108991999999999999999999MA1999999101591MW1451
0035036553999991963011301004+51933-001250SAO  +0133EGUA V0200501N002110003019N0003001N9-00261-00591999999ADDGF108991999999999999999999MW1451
0035036553999991963011302004+51933-001250SAO  +0133EGUA V0209991C000010003019N0003001N9-00261-00591999999ADDGF108991999999999999999999MW1451
0066036553999991963011303004+51933-001250SAO  +0133EGUA V0209991C000010003019N0006001N9-00261-00531103421ADDGA1091+000309999GF109991999999999999999999MA1999999101591MW1451
0035036553999991963011304004+51933-001250SAO  +0133EGUA V0209991C000010015019N0028001N9-00201-00481999999ADDGF108991999999999999999999MW1451
0035036553999991963011305004+51933-001250SAO  +0133EGUA V0209991C000010012019N0020001N9-00201-00531999999ADDGF108991999999999999999999MW1451
0082036553999991963011306004+51933-001250SAO  +0133EGUA V0203601N002110009019N0010001N9-00201-00531103391ADDGA1051+999999999GA2081+000909079GF108991999999999999999999MA1999999101561MW1451
0035036553999991963011307004+51933-001250SAO  +0133EGUA V0203401N003110009019N0012001N9-00201-00531999999ADDGF108991999999999999999999MW1451
0035036553999991963011308004+51933-001250SAO  +0133EGUA V0203401N004110012019N0012001N9-00201-00531999999ADDGF108991999999999999999999MW1451
0082036553999991963011309004+51933-001250SAO  +0133EGUA V0203401N005110012019N0012001N9-00261-00531103421ADDGA1021+999999999GA2081+001209079GF108991999999999999999999MA1999999101591MW1451
0035036553999991963011310004+51933-001250SAO  +0133EGUA V0203201N003610006019N0001001N9-00261-00531999999ADDGF108991999999999999999999MW1451
0035036553999991963011311004+51933-001250SAO  +0133EGUA V0202701N002110006019N0001001N9-00311-00591999999ADDGF108991999999999999999999MW1451
0120036553999991963011312004+51933-001250SAO  +0133EGUA V0202701N002610009019N0006001N9-00201-00481103351ADDAA124000091AJ100139199999999GA1091+000909999GF109991999999999999999999KA1999M-00091KA2999N-00541MA1999999101521MW1451
0035036553999991963011313004+51933-001250SAO  +0133EGUA V0202901N003110009019N0012001N9-00151-00421999999ADDGF108991999999999999999999MW1451
0035036553999991963011314004+51933-001250SAO  +0133EGUA V0202901N003110018019N0020001N9-00091-00371999999ADDGF108991999999999999999999MW1111
0082036553999991963011315004+51933-001250SAO  +0133EGUA V0202901N005110015019N0006001N9-00151-00421103251ADDGA1051+999999999GA2081+001509079GF108991999999999999999999MA1999999101421MW1451
0035036553999991963011316004+51933-001250SAO  +0133EGUA V0203201N004110012019N0010001N9-00201-00481999999ADDGF108991999999999999999999MW1111
0035036553999991963011317004+51933-001250SAO  +0133EGUA V0203201N005110009019N0012001N9-00201-00481999999ADDGF107991999999999999999999MW1451
0082036553999991963011318004+51933-001250SAO  +0133EGUA V0203401N004610012019N0026001N9-00261-00531103151ADDGA1031+999999999GA2021+001209079GF107991999999999999999999MA1999999101321MW1451
0035036553999991963011319004+51933-001250SAO  +0133EGUA V0203201N004112200019N0026001N9-00421-00761999999ADDGF102991999999999999999999MW1111
0035036553999991963011320004+51933-001250SAO  +0133EGUA V0203401N004112200019N0032001N9-00371-00651999999ADDGF102991999999999999999999MW1111
0066036553999991963011321004+51933-001250SAO  +0133EGUA V0202901N004112200019N0032001N9-00371-00701103051ADDGA1011+999999999GF102991999999999999999999MA1999999101221MW1111
0035036553999991963011322004+51933-001250SAO  +0133EGUA V0203201N003112200019N0032001N9-00531-00871999999ADDGF102991999999999999999999MW1111
0035036553999991963011323004+51933-001250SAO  +0133EGUA V0203201N004112200019N0040001N9-00531-00871999999ADDGF100991999999999999999999MW1111
0066036553999991963011400004+51933-001250SAO  +0133EGUA V0203201N004112200019N0040001N9-00311-00651103011ADDGA1081+030009039GF108991999999999999999999MA1999999101191MW1111
0035036553999991963011401004+51933-001250SAO  +0133EGUA V0203201N005710300019N0048001N9-00201-00481999999ADDGF108991999999999999999999MW1111
0035036553999991963011402004+51933-001250SAO  +0133EGUA V0203201N004612200019N0048001N9-00201-00481999999ADDGF102991999999999999999999MW1111
0066036553999991963011403004+51933-001250SAO  +0133EGUA V0203201N004610240019N0064001N9-00091-00421102841ADDGA1061+024009039GF107991999999999999999999MA1999999101051MW1051
0035036553999991963011404004+51933-001250SAO  +0133EGUA V0203201N005710240019N0064001N9-00041-00371999999ADDGF108991999999999999999999MW1051
0041036553999991963011405004+51933-001250SAO  +0133EGUA V0203201N006210240019N0064001N9+00021-00371999999ADDGF107991999999999999999999MW1051MW2711
0088036553999991963011406004+51933-001250SAO  +0133EGUA V0203201N004610240019N0064001N9+00021-00371102741ADDGA1031+003309079GA2061+024009039GF107991999999999999999999MA1999999100951MW1051MW2711
0035036553999991963011407004+51933-001250SAO  +0133EGUA V0203201N005110240019N0064001N9+00081-00311999999ADDGF108991999999999999999999MW1051
0035036553999991963011408004+51933-001250SAO  +0133EGUA V0203201N005112200019N0064001N9+00131-00261999999ADDGF102991999999999999999999MW1051
0082036553999991963011409004+51933-001250SAO  +0133EGUA V0203201N004610018019N0048001N9+00131-00201102781ADDGA1051+001809079GA2041+024009039GF108991999999999999999999MA1999999100981MW1051
0035036553999991963011410004+51933-001250SAO  +0133EGUA V0203201N004612200019N0036001N9+00191-00151999999ADDGF102991999999999999999999MW1051
0035036553999991963011411004+51933-001250SAO  +0133EGUA V0203201N003612200019N0040001N9+00131-00201999999ADDGF102991999999999999999999MW1051
0120036553999991963011412004+51933-001250SAO  +0133EGUA V0203201N003612200019N0040001N9+00131-00201102811ADDAA124999929AJ100139199999999GA1031+024009039GF102991999999999999999999KA1999M+00351KA2999N-00311MA1999999101021MW1051
0035036553999991963011413004+51933-001250SAO  +0133EGUA V0203201N003110240019N0040001N9+00191-00261999999ADDGF107991999999999999999999MW1051
0035036553999991963011414004+51933-001250SAO  +0133EGUA V0203201N004110180019N0040001N9+00241-00091999999ADDGF108991999999999999999999MW1051
0066036553999991963011415004+51933-001250SAO  +0133EGUA V0203401N004110180019N0040001N9+00351-00091102741ADDGA1081+018009059GF108991999999999999999999MA1999999100951MW1051
0035036553999991963011416004+51933-001250SAO  +0133EGUA V0203201N003110180019N0040001N9+00351-00091999999ADDGF108991999999999999999999MW1051
0035036553999991963011417004+51933-001250SAO  +0133EGUA V0203201N004110180019N0040001N9+00351-00091999999ADDGF108991999999999999999999MW1051
0066036553999991963011418004+51933-001250SAO  +0133EGUA V0203401N003610180019N0040001N9+00351-00091102811ADDGA1081+018009059GF108991999999999999999999MA1999999101051MW1051
0035036553999991963011419004+51933-001250SAO  +0133EGUA V0203201N004110180019N0036001N9+00351-00091999999ADDGF108991999999999999999999MW1051
0041036553999991963011420004+51933-001250SAO  +0133EGUA V0203401N003110180019N0032001N9+00241-00261999999ADDGF107991999999999999999999MW1051MW2111
0088036553999991963011421004+51933-001250SAO  +0133EGUA V0203401N004110180019N0032001N9+00241-00261102981ADDGA1021+999999999GA2051+018009059GF107991999999999999999999MA1999999101191MW1051MW2111
0041036553999991963011422004+51933-001250SAO  +0133EGUA V0203201N004610180019N0032001N9+00191-00261999999ADDGF107991999999999999999999MW1051MW2111
0041036553999991963011423004+51933-001250SAO  +0133EGUA V0203201N004612200019N0026001N9+00131-00311999999ADDGF102991999999999999999999MW1051MW2111
0082036553999991963011500004+51933-001250SAO  +0133EGUA V0203401N004612200019N0018001N9+00081-00371103081ADDGA1031+999999999GA2011+018009059GF102991999999999999999999MA1999999101251MW1111
0035036553999991963011501004+51933-001250SAO  +0133EGUA V0203401N004612200019N0012001N9-00041-00371999999ADDGF102991999999999999999999MW1111
0035036553999991963011502004+51933-001250SAO  +0133EGUA V0203401N004112200019N0012001N9-00041-00371999999ADDGF102991999999999999999999MW1111
0082036553999991963011503004+51933-001250SAO  +0133EGUA V0203201N004112200019N0018001N9-00091-00481103121ADDGA1031+999999999GA2011+018009059GF102991999999999999999999MA1999999101291MW1111
0035036553999991963011504004+51933-001250SAO  +0133EGUA V0203201N004112200019N0022001N9-00091-00481999999ADDGF102991999999999999999999MW1111
0041036553999991963011505004+51933-001250SAO  +0133EGUA V0203201N004112200019N0026001N9-00091-00481999999ADDGF102991999999999999999999MW1051MW2111
0088036553999991963011506004+51933-001250SAO  +0133EGUA V0203201N004112200019N0036001N9-00091-00481103051ADDGA1011+999999999GA2011+018009059GF102991999999999999999999MA1999999101221MW1051MW2111
0041036553999991963011507004+51933-001250SAO  +0133EGUA V0203201N004112200019N0036001N9-00151-00531999999ADDGF102991999999999999999999MW1051MW2111
0035036553999991963011508004+51933-001250SAO  +0133EGUA V0203201N004112200019N0036001N9-00151-00531999999ADDGF102991999999999999999999MW1051
0082036553999991963011509004+51933-001250SAO  +0133EGUA V0203201N004112200019N0040001N9-00151-00481103081ADDGA1091+999999999GA2031+018009059GF102991999999999999999999MA1999999101251MW1051
0035036553999991963011510004+51933-001250SAO  +0133EGUA V0203201N004110150019N0064001N9-00041-00371999999ADDGF107991999999999999999999MW1051
0035036553999991963011511004+51933-001250SAO  +0133EGUA V0203201N003110150019N0064001N9+00191-00311999999ADDGF107991999999999999999999MW1051
0120036553999991963011512004+51933-001250SAO  +0133EGUA V0202901N003110150019N0096001N9+00241-00261103011ADDAA124000091AJ100109199999999GA1081+015009059GF108991999999999999999999KA1999M+00241KA2999N-00151MA1999999101191MW1051
0035036553999991963011513004+51933-001250SAO  +0133EGUA V0202901N002610150019N0080001N9+00241-00261999999ADDGF108991999999999999999999MW1051
0035036553999991963011514004+51933-001250SAO  +0133EGUA V0202701N002610150019N0080001N9+00131-00311999999ADDGF108991999999999999999999MW1051
0066036553999991963011515004+51933-001250SAO  +0133EGUA V0202901N003610150019N0064001N9+00131-00261102741ADDGA1081+015009059GF108991999999999999999999MA1999999100951MW1051
0035036553999991963011516004+51933-001250SAO  +0133EGUA V0202901N003110150019N0064001N9+00081-00311999999ADDGF108991999999999999999999MW1051
0035036553999991963011517004+51933-001250SAO  +0133EGUA V0202701N004110150019N0064001N9+00081-00311999999ADDGF108991999999999999999999MW1051
0066036553999991963011518004+51933-001250SAO  +0133EGUA V0202701N003610150019N0080001N9+00021-00311102511ADDGA1051+015009059GF107991999999999999999999MA1999999100711MW1051
0035036553999991963011519004+51933-001250SAO  +0133EGUA V0202701N004612200019N0096001N9-00041-00371999999ADDGF102991999999999999999999MW1051
0035036553999991963011520004+51933-001250SAO  +0133EGUA V0202701N004110180019N0080001N9-00041-00371999999ADDGF108991999999999999999999MW1051
0066036553999991963011521004+51933-001250SAO  +0133EGUA V0202701N004110180019N0064001N9+00021-00371102341ADDGA1081+018009059GF108991999999999999999999MA1999999100541MW1051
0035036553999991963011522004+51933-001250SAO  +0133EGUA V0202901N003110180019N0064001N9+00021-00311999999ADDGF108991999999999999999999MW1051
0035036553999991963011523004+51933-001250SAO  +0133EGUA V0202701N003110180019N0064001N9-00041-00311999999ADDGF108991999999999999999999MW1051
0066036553999991963011600004+51933-001250SAO  +0133EGUA V0202301N002610180019N0128001N9+00021-00311102241ADDGA1081+018009059GF108991999999999999999999MA1999999100441MW1001
0035036553999991963011601004+51933-001250SAO  +0133EGUA V0202501N002110180019N0128001N9+00021-00261999999ADDGF108991999999999999999999MW1001
0035036553999991963011602004+51933-001250SAO  +0133EGUA V0202501N001510180019N0128001N9+00021-00261999999ADDGF108991999999999999999999MW1001
0082036553999991963011603004+51933-001250SAO  +0133EGUA V0202501N002610066019N0144001N9+00081-00091102101ADDGA1061+006609059GA2051+018009059GF108991999999999999999999MA1999999100301MW1001
0035036553999991963011604004+51933-001250SAO  +0133EGUA V0203201N002110150019N0128001N9+00021-00091999999ADDGF108991999999999999999999MW1001
0035036553999991963011605004+51933-001250SAO  +0133EGUA V0202701N002110180019N0128001N9+00021-00041999999ADDGF108991999999999999999999MW1711
0082036553999991963011606004+51933-001250SAO  +0133EGUA V0203601N002110180019N0128001N9+00021-00041102071ADDGA1021+009009059GA2081+018009059GF108991999999999999999999MA1999999100271MW1001
0035036553999991963011607004+51933-001250SAO  +0133EGUA V0203601N003110180019N0096001N9+00021-00041999999ADDGF108991999999999999999999MW1051
0035036553999991963011608004+51933-001250SAO  +0133EGUA V0203201N003110180019N0080001N9+00021-00041999999ADDGF108991999999999999999999MW1051
0104036553999991963011609004+51933-001250SAO  +0133EGUA V0203601N003110150019N0026001N9+00021-00041102241ADDGA1011+999999999GA2031+009009059GA3081+015009059GF108991999999999999999999MA1999999100441MW1051MW2111
0041036553999991963011610004+51933-001250SAO  +0133EGUA V0203601N002610030019N0024001N9+00021-00041999999ADDGF108991999999999999999999MW1051MW2451
0035036553999991963011611004+51933-001250SAO  +0133EGUA V0200501N006210012019N0010001N9+00081+00021999999ADDGF108991999999999999999999MW1451
0142036553999991963011612004+51933-001250SAO  +0133EGUA V0200901N008210015019N0022001N9-00041-00091102401ADDAA124002091AJ100109199999999GA1021+999999999GA2081+001509079GF108991999999999999999999KA1999M+00081KA2999N-00701MA1999999100611MW1451MW2711
0041036553999991963011613004+51933-001250SAO  +0133EGUA V0200901N008210015019N0012001N9-00151-00201999999ADDGF108991999999999999999999MW1451MW2711
0041036553999991963011614004+51933-001250SAO  +0133EGUA V0200701N007710024019N0012001N9-00201-00261999999ADDGF108991999999999999999999MW1451MW2711
0088036553999991963011615004+51933-001250SAO  +0133EGUA V0200701N008210033019N0048001N9-00311-00421102711ADDGA1051+003309079GA2081+008409059GF108991999999999999999999MA1999999100911MW1051MW2111
0035036553999991963011616004+51933-001250SAO  +0133EGUA V0200701N007710150019N0080001N9-00261-00591999999ADDGF107991999999999999999999MW1051
0035036553999991963011617004+51933-001250SAO  +0133EGUA V0200701N006210150019N0080001N9-00371-00701999999ADDGF107991999999999999999999MW1051
0066036553999991963011618004+51933-001250SAO  +0133EGUA V0200701N007210150019N0080001N9-00371-00761102951ADDGA1051+015009059GF107991999999999999999999MA1999999101121MW1051
0035036553999991963011619004+51933-001250SAO  +0133EGUA V0200701N006212200019N0096001N9-00481-00871999999ADDGF102991999999999999999999MW1051
0035036553999991963011620004+51933-001250SAO  +0133EGUA V0200501N004112200019N0096001N9-00591-00921999999ADDGF100991999999999999999999MW1051
0085036553999991963011621004+51933-001250SAO  +0133EGUA V0200501N004612200019N0080001N9-00591-00921103151ADDGA1999+015009999GF100991999999999999999999MA1999999101321MW1051EQDQ01    003SCCGA1
0035036553999991963011622004+51933-001250SAO  +0133EGUA V0200501N004612200019N0080001N9-00701-00981999999ADDGF100991999999999999999999MW1051
0035036553999991963011623004+51933-001250SAO  +0133EGUA V0200501N006212200019N0128001N9-00651-00921999999ADDGF100991999999999999999999MW1001
0066036553999991963011700004+51933-001250SAO  +0133EGUA V0200501N006212200019N0200001N9-00591-00871103221ADDGA1001+999999999GF100991999999999999999999MA1999999101391MW1001
0035036553999991963011701004+51933-001250SAO  +0133EGUA V0200501N006212200019N0240001N9-00591-00871999999ADDGF100991999999999999999999MW1001
0035036553999991963011702004+51933-001250SAO  +0133EGUA V0200501N007212200019N0240001N9-00591-00871999999ADDGF100991999999999999999999MW1001
0066036553999991963011703004+51933-001250SAO  +0133EGUA V0200501N008212200019N0240001N9-00531-00811103291ADDGA1001+999999999GF100991999999999999999999MA1999999101421MW1001
0035036553999991963011704004+51933-001250SAO  +0133EGUA V0200501N008212200019N0240001N9-00531-00811999999ADDGF100991999999999999999999MW1001
0035036553999991963011705004+51933-001250SAO  +0133EGUA V0200501N008212200019N0240001N9-00481-00761999999ADDGF100991999999999999999999MW1001
0066036553999991963011706004+51933-001250SAO  +0133EGUA V0200501N009812200019N0240001N9-00481-00701103421ADDGA1001+999999999GF100991999999999999999999MA1999999101561MW1001
0035036553999991963011707004+51933-001250SAO  +0133EGUA V0200501N009312200019N0240001N9-00481-00701999999ADDGF100991999999999999999999MW1001
0035036553999991963011708004+51933-001250SAO  +0133EGUA V0200701N009312200019N0176001N9-00481-00701999999ADDGF100991999999999999999999MW1001
0066036553999991963011709004+51933-001250SAO  +0133EGUA V0200701N009812200019N0200001N9-00481-00701103621ADDGA1001+999999999GF100991999999999999999999MA1999999101761MW1001
0035036553999991963011710004+51933-001250SAO  +0133EGUA V0200701N009312200019N0176001N9-00421-00701999999ADDGF100991999999999999999999MW1001
0035036553999991963011711004+51933-001250SAO  +0133EGUA V0200701N008212200019N0176001N9-00421-00701999999ADDGF102991999999999999999999MW1001
0120036553999991963011712004+51933-001250SAO  +0133EGUA V0200701N007210084019N0144001N9-00371-00651103691ADDAA124000091AJ100109199999999GA1071+008409059GF107991999999999999999999KA1999M-00261KA2999N-00811MA1999999101831MW1001
0035036553999991963011713004+51933-001250SAO  +0133EGUA V0200701N008710084019N0176001N9-00311-00651999999ADDGF107991999999999999999999MW1001
0035036553999991963011714004+51933-001250SAO  +0133EGUA V0200701N009310096019N0240001N9-00261-00651999999ADDGF107991999999999999999999MW1001
0066036553999991963011715004+51933-001250SAO  +0133EGUA V0200701N007712200019N0240001N9-00311-00701103591ADDGA1021+010509059GF102991999999999999999999MA1999999101731MW1001
0035036553999991963011716004+51933-001250SAO  +0133EGUA V0200701N005712200019N0176001N9-00371-00701999999ADDGF102991999999999999999999MW1001
0035036553999991963011717004+51933-001250SAO  +0133EGUA V0200501N004112200019N0080001N9-00481-00701999999ADDGF102991999999999999999999MW1051
0066036553999991963011718004+51933-001250SAO  +0133EGUA V0200701N005712200019N0096001N9-00531-00701103591ADDGA1011+010509059GF102991999999999999999999MA1999999101731MW1051
0035036553999991963011719004+51933-001250SAO  +0133EGUA V0200701N005112200019N0096001N9-00531-00701999999ADDGF100991999999999999999999MW1051
0035036553999991963011720004+51933-001250SAO  +0133EGUA V0200501N004612200019N0080001N9-00651-00761999999ADDGF100991999999999999999999MW1051
0066036553999991963011721004+51933-001250SAO  +0133EGUA V0200501N004112200019N0080001N9-00701-00811103521ADDGA1001+999999999GF100991999999999999999999MA1999999101661MW1051
0035036553999991963011722004+51933-001250SAO  +0133EGUA V0200701N005712200019N0080001N9-00651-00811999999ADDGF100991999999999999999999MW1051
0035036553999991963011723004+51933-001250SAO  +0133EGUA V0200501N005112200019N0080001N9-00701-00811999999ADDGF100991999999999999999999MW1051
0066036553999991963011800004+51933-001250SAO  +0133EGUA V0200201N004112200019N0080001N9-00811-00921103421ADDGA1001+999999999GF100991999999999999999999MA1999999101561MW1051
0050036553999991963011801004+51933-001250SAO  +0133EGUA V0200501N005112200019N0080001N9-00831-00891999999ADDGF100991999999999999999999MA1103181999999MW1051
0035036553999991963011802004+51933-001250SAO  +0133EGUA V0200501N005712200019N0128001N9-00761-00871999999ADDGF100991999999999999999999MW1001
0066036553999991963011803004+51933-001250SAO  +0133EGUA V0200501N005712200019N0176001N9-00761-00871103251ADDGA1001+999999999GF100991999999999999999999MA1999999101391MW1001
0035036553999991963011804004+51933-001250SAO  +0133EGUA V0200701N009312200019N0176001N9-00651-00811999999ADDGF102991999999999999999999MW1001
0035036553999991963011805004+51933-001250SAO  +0133EGUA V0200701N005712200019N0176001N9-00531-00811999999ADDGF102991999999999999999999MW1001
0066036553999991963011806004+51933-001250SAO  +0133EGUA V0200701N005112200019N0176001N9-00591-00811103081ADDGA1031+012009059GF102991999999999999999999MA1999999101221MW1001
0035036553999991963011807004+51933-001250SAO  +0133EGUA V0200701N006210114019N0176001N9-00531-00761999999ADDGF107991999999999999999999MW1001
0035036553999991963011808004+51933-001250SAO  +0133EGUA V0200701N007710096019N0176001N9-00481-00761999999ADDGF107991999999999999999999MW1001
0066036553999991963011809004+51933-001250SAO  +0133EGUA V0200701N004112200019N0128001N9-00481-00761103011ADDGA1031+013509059GF102991999999999999999999MA1999999101151MW1001
0035036553999991963011810004+51933-001250SAO  +0133EGUA V0200501N004612200019N0128001N9-00481-00761999999ADDGF100991999999999999999999MW1001
0035036553999991963011811004+51933-001250SAO  +0133EGUA V0200701N005112200019N0128001N9-00421-00701999999ADDGF102991999999999999999999MW1001
0139036553999991963011812004+51933-001250SAO  +0133EGUA V0200701N004612200019N0176001N9-00311-00651102911ADDAA124999929AJ100109199999999GA1999+011409999GF100991999999999999999999KA1999M-00091KA2999N-00811MA1999999101051MW1001EQDQ01    003SCCGA1
0035036553999991963011813004+51933-001250SAO  +0133EGUA V0200701N004612200019N0176001N9-00261-00531999999ADDGF102991999999999999999999MW1001
0035036553999991963011814004+51933-001250SAO  +0133EGUA V0200701N006712200019N0176001N9-00151-00481999999ADDGF102991999999999999999999MW1001
0066036553999991963011815004+51933-001250SAO  +0133EGUA V0200701N006210096019N0048001N9-00151-00371102641ADDGA1081+009609059GF108991999999999999999999MA1999999100811MW1851
0035036553999991963011816004+51933-001250SAO  +0133EGUA V0200501N007210096019N0080001N9-00151-00311999999ADDGF108991999999999999999999MW1051
0041036553999991963011817004+51933-001250SAO  +0133EGUA V0200701N010310096019N0080001N9-00091-00261999999ADDGF108991999999999999999999MW1051MW2771
0088036553999991963011818004+51933-001250SAO  +0133EGUA V0200701N010310084019N0096001N9-00201-00591102541ADDGA1061+008409059GA2051+013509059GF108991999999999999999999MA1999999100711MW1051MW2771
0035036553999991963011819004+51933-001250SAO  +0133EGUA V0200701N012312200019N0240001N9-00421-00761999999ADDGF102991999999999999999999MW1001
0035036553999991963011820004+51933-001250SAO  +0133EGUA V0200701N010310135019N0176001N9-00481-00761999999ADDGF107991999999999999999999MW1771
0104036553999991963011821004+51933-001250SAO  +0133EGUA V0200701N010310135019N0096001N9-00481-00811102711ADDGA1021+006009059GA2051+013509059GA3011+021009039GF107991999999999999999999MA1999999100881MW1381MW2851
0035036553999991963011822004+51933-001250SAO  +0133EGUA V0200701N008710150019N0200001N9-00481-00871999999ADDGF107991999999999999999999MW1001
0035036553999991963011823004+51933-001250SAO  +0133EGUA V0200701N008712200019N0200001N9-00531-00871999999ADDGF102991999999999999999999MW1001
0066036553999991963011900004+51933-001250SAO  +0133EGUA V0200701N008712200019N0200001N9-00531-00871102611ADDGA1011+015009059GF102991999999999999999999MA1999999100781MW1001
0035036553999991963011901004+51933-001250SAO  +0133EGUA V0200701N009812200019N0176001N9-00531-00871999999ADDGF102991999999999999999999MW1001
0035036553999991963011902004+51933-001250SAO  +0133EGUA V0200701N009810114019N0200001N9-00531-00811999999ADDGF107991999999999999999999MW1001
0066036553999991963011903004+51933-001250SAO  +0133EGUA V0200701N010310114019N0200001N9-00531-00811102471ADDGA1051+011409059GF107991999999999999999999MA1999999100681MW1001
0035036553999991963011904004+51933-001250SAO  +0133EGUA V0200701N010812200019N0200001N9-00531-00811999999ADDGF102991999999999999999999MW1001
0035036553999991963011905004+51933-001250SAO  +0133EGUA V0200501N009312200019N0200001N9-00591-00811999999ADDGF102991999999999999999999MW1001
0066036553999991963011906004+51933-001250SAO  +0133EGUA V0200701N011312200019N0200001N9-00591-00871102301ADDGA1011+009609059GF102991999999999999999999MA1999999100471MW1001
0035036553999991963011907004+51933-001250SAO  +0133EGUA V0200501N011312200019N0200001N9-00591-00811999999ADDGF100991999999999999999999MW1001
0035036553999991963011908004+51933-001250SAO  +0133EGUA V0200501N009812200019N0200001N9-00531-00811999999ADDGF100991999999999999999999MW1001
0066036553999991963011909004+51933-001250SAO  +0133EGUA V0200501N010812200019N0200001N9-00531-00811102371ADDGA1001+999999999GF100991999999999999999999MA1999999100541MW1001
0035036553999991963011910004+51933-001250SAO  +0133EGUA V0200501N010312200019N0200001N9-00481-00761999999ADDGF100991999999999999999999MW1001
0035036553999991963011911004+51933-001250SAO  +0133EGUA V0200501N012312200019N0200001N9-00371-00761999999ADDGF100991999999999999999999MW1001
0120036553999991963011912004+51933-001250SAO  +0133EGUA V0200501N012912200019N0200001N9-00311-00761101931ADDAA124003091AJ100109199999999GA1001+999999999GF100991999999999999999999KA1999M-00261KA2999N-00591MA1999999100101MW1001
0035036553999991963011913004+51933-001250SAO  +0133EGUA V0200501N012312200019N0200001N9-00311-00761999999ADDGF102991999999999999999999MW1001
0035036553999991963011914004+51933-001250SAO  +0133EGUA V0200501N012912200019N0200001N9-00311-00761999999ADDGF102991999999999999999999MW1001
0117036553999991963011915004+51933-001250SAO  +0133EGUA V0200501N012312200019N0200001N9-00311-00701101491ADDGA1031+009609089GA2999+024009999GA3061+220009029GF107991999999999999999999MA1999999099631MW1001EQDQ01    003SCCGA2
0035036553999991963011916004+51933-001250SAO  +0133EGUA V0200501N012310270019N0200001N9-00261-00651999999ADDGF108991999999999999999999MW1001
0035036553999991963011917004+51933-001250SAO  +0133EGUA V0200501N013410270019N0200001N9-00261-00651999999ADDGF108991999999999999999999MW1001
0072036553999991963011918004+51933-001250SAO  +0133EGUA V0200701N012910009019N0003001N9-00311-00421101021ADDGA1091+000909999GF109991999999999999999999MA1999999099221MW1381MW2711
0041036553999991963011919004+51933-001250SAO  +0133EGUA V0200701N009810009019N0005001N9-00371-00591999999ADDGF108991999999999999999999MW1381MW2711
0041036553999991963011920004+51933-001250SAO  +0133EGUA V0200701N009810006019N0008001N9-00371-00591999999ADDGF108991999999999999999999MW1381MW2711
0088036553999991963011921004+51933-001250SAO  +0133EGUA V0200701N008710030019N0018001N9-00531-00701100811ADDGA1091+999999999GA2021+003009079GF108991999999999999999999MA1999999099021MW1381MW2711
0041036553999991963011922004+51933-001250SAO  +0133EGUA V0200701N009310039019N0018001N9-00531-00651999999ADDGF107991999999999999999999MW1381MW2711
0041036553999991963011923004+51933-001250SAO  +0133EGUA V0200701N008710036019N0036001N9-00531-00651999999ADDGF107991999999999999999999MW1381MW2711
0104036553999991963012000004+51933-001250SAO  +0133EGUA V0200901N006710036019N0032001N9-00531-00651100811ADDGA1091+999999999GA2031+003609079GA3071+015009059GF108991999999999999999999MA1999999099021MW1381MW2711
0041036553999991963012001004+51933-001250SAO  +0133EGUA V0200901N005110036019N0040001N9-00531-00651999999ADDGF108991999999999999999999MW1381MW2711
0041036553999991963012002004+51933-001250SAO  +0133EGUA V0200901N004110030019N0040001N9-00481-00591999999ADDGF108991999999999999999999MW1381MW2711
0104036553999991963012003004+51933-001250SAO  +0133EGUA V0200901N004610030019N0040001N9-00481-00531100911ADDGA1091+999999999GA2051+003009079GA3061+006009059GF108991999999999999999999MA1999999099091MW1381MW2711
0041036553999991963012004004+51933-001250SAO  +0133EGUA V0200901N004110036019N0040001N9-00481-00531999999ADDGF108991999999999999999999MW1381MW2711
0035036553999991963012005004+51933-001250SAO  +0133EGUA V0200901N004110084019N0048001N9-00421-00531999999ADDGF108991999999999999999999MW1051
0082036553999991963012006004+51933-001250SAO  +0133EGUA V0200901N006710075019N0064001N9-00371-00531100951ADDGA1021+003609079GA2071+007509059GF108991999999999999999999MA1999999099151MW1051
0035036553999991963012007004+51933-001250SAO  +0133EGUA V0200901N006210075019N0064001N9-00311-00421999999ADDGF108991999999999999999999MW1051
0035036553999991963012008004+51933-001250SAO  +0133EGUA V0200901N004610051019N0048001N9-00261-00421999999ADDGF108991999999999999999999MW1051
0104036553999991963012009004+51933-001250SAO  +0133EGUA V0200901N002610024019N0012001N9-00261-00311101221ADDGA1021+999999999GA2031+001509079GA3081+002409079GF108991999999999999999999MA1999999099391MW1451MW2561
0041036553999991963012010004+51933-001250SAO  +0133EGUA V0200901N004610015019N0010001N9-00151-00201999999ADDGF108991999999999999999999MW1451MW2561
0041036553999991963012011004+51933-001250SAO  +0133EGUA V0200901N006210012019N0010001N9-00151-00201999999ADDGF108991999999999999999999MW1451MW2561
0142036553999991963012012004+51933-001250SAO  +0133EGUA V0200901N005710012019N0012001N9-00091-00151101421ADDAA124000591AJ100139199999999GA1021+999999999GA2081+001209079GF108991999999999999999999KA1999M-00091KA2999N-00541MA1999999099631MW1451MW2561
0047036553999991963012013004+51933-001250SAO  +0133EGUA V0200901N007210024019N0026001N9-00091-00091999999ADDGF108991999999999999999999MW1111MW2561MW3771
0047036553999991963012014004+51933-001250SAO  +0133EGUA V0200901N007710027019N0032001N9-00151-00151999999ADDGF108991999999999999999999MW1111MW2561MW3711
0094036553999991963012015004+51933-001250SAO  +0133EGUA V0200901N007710024019N0018001N9-00091-00151101631ADDGA1051+999999999GA2081+002409079GF108991999999999999999999MA1999999099831MW1451MW2711MW3791
0035036553999991963012016004+51933-001250SAO  +0133EGUA V0200901N007710036019N0048001N9-00091-00151999999ADDGF108991999999999999999999MW1111
0035036553999991963012017004+51933-001250SAO  +0133EGUA V0200901N009310150019N0048001N9-00091-00311999999ADDGF108991999999999999999999MW1111
0066036553999991963012018004+51933-001250SAO  +0133EGUA V0200901N008710150019N0048001N9-00091-00311101901ADDGA1081+015009059GF108991999999999999999999MA1999999100101MW1111
0035036553999991963012019004+51933-001250SAO  +0133EGUA V0200901N009310180019N0048001N9-00151-00311999999ADDGF108991999999999999999999MW1111
0041036553999991963012020004+51933-001250SAO  +0133EGUA V0200901N009310180019N0064001N9-00091-00371999999ADDGF108991999999999999999999MW1111MW2661
0066036553999991963012021004+51933-001250SAO  +0133EGUA V0200901N009310180019N0064001N9-00151-00421102071ADDGA1081+018009059GF108991999999999999999999MA1999999100271MW1111
0035036553999991963012022004+51933-001250SAO  +0133EGUA V0200901N008210210019N0080001N9-00151-00481999999ADDGF108991999999999999999999MW1051
0035036553999991963012023004+51933-001250SAO  +0133EGUA V0200901N007710270019N0080001N9-00151-00531999999ADDGF108991999999999999999999MW1051
0066036553999991963012100004+51933-001250SAO  +0133EGUA V0200901N007712200019N0096001N9-00261-00651102341ADDGA1021+030009039GF102991999999999999999999MA1999999100541MW1051
0035036553999991963012101004+51933-001250SAO  +0133EGUA V0200701N007212200019N0144001N9-00371-00701999999ADDGF102991999999999999999999MW1001
0035036553999991963012102004+51933-001250SAO  +0133EGUA V0200701N007712200019N0144001N9-00481-00761999999ADDGF100991999999999999999999MW1001
0066036553999991963012103004+51933-001250SAO  +0133EGUA V0200701N008212200019N0144001N9-00531-00761102511ADDGA1001+999999999GF100991999999999999999999MA1999999100711MW1001
0035036553999991963012104004+51933-001250SAO  +0133EGUA V0200901N009312200019N0144001N9-00481-00651999999ADDGF100991999999999999999999MW1001
0035036553999991963012105004+51933-001250SAO  +0133EGUA V0200701N007212200019N0096001N9-00531-00651999999ADDGF100991999999999999999999MW1051
0066036553999991963012106004+51933-001250SAO  +0133EGUA V0200901N007712200019N0080001N9-00481-00591102741ADDGA1001+999999999GF100991999999999999999999MA1999999100951MW1051
0035036553999991963012107004+51933-001250SAO  +0133EGUA V0200901N007210033019N0064001N9-00371-00481999999ADDGF107991999999999999999999MW1051
0035036553999991963012108004+51933-001250SAO  +0133EGUA V0200901N006210030019N0048001N9-00371-00481999999ADDGF108991999999999999999999MW1051
0066036553999991963012109004+51933-001250SAO  +0133EGUA V0200901N007710033019N0064001N9-00371-00531103011ADDGA1071+003309059GF107991999999999999999999MA1999999101191MW1051
0035036553999991963012110004+51933-001250SAO  +0133EGUA V0200901N010310033019N0064001N9-00371-00591999999ADDGF107991999999999999999999MW1051
0035036553999991963012111004+51933-001250SAO  +0133EGUA V0200901N008712200019N0080001N9-00371-00531999999ADDGF102991999999999999999999MW1051
0120036553999991963012112004+51933-001250SAO  +0133EGUA V0200901N008212200019N0096001N9-00311-00591103221ADDAA124000091AJ100139199999999GA1011+220009009GF102991999999999999999999KA1999M-00151KA2999N-00701MA1999999101391MW1051
0035036553999991963012113004+51933-001250SAO  +0133EGUA V0200901N008712200019N0096001N9-00311-00651999999ADDGF100991999999999999999999MW1051
0035036553999991963012114004+51933-001250SAO  +0133EGUA V0200901N008712200019N0176001N9-00151-00811999999ADDGF100991999999999999999999MW1001
0066036553999991963012115004+51933-001250SAO  +0133EGUA V0200901N008712200019N0176001N9-00201-00921103321ADDGA1001+999999999GF100991999999999999999999MA1999999101491MW1001
0035036553999991963012116004+51933-001250SAO  +0133EGUA V0200901N006212200019N0176001N9-00311-00871999999ADDGF100991999999999999999999MW1001
0035036553999991963012117004+51933-001250SAO  +0133EGUA V0200701N006212200019N0144001N9-00421-00811999999ADDGF100991999999999999999999MW1001
0066036553999991963012118004+51933-001250SAO  +0133EGUA V0200701N007712200019N0144001N9-00481-00761103591ADDGA1001+999999999GF100991999999999999999999MA1999999101731MW1001
0035036553999991963012119004+51933-001250SAO  +0133EGUA V0200701N006712200019N0144001N9-00481-00811999999ADDGF100991999999999999999999MW1001
0035036553999991963012120004+51933-001250SAO  +0133EGUA V0200701N007212200019N0224001N9-00531-00811999999ADDGF100991999999999999999999MW1001
0066036553999991963012121004+51933-001250SAO  +0133EGUA V0200701N007212200019N0224001N9-00591-00811103791ADDGA1001+999999999GF100991999999999999999999MA1999999101931MW1001
0035036553999991963012122004+51933-001250SAO  +0133EGUA V0200701N007212200019N0200001N9-00651-00871999999ADDGF102991999999999999999999MW1001
0035036553999991963012123004+51933-001250SAO  +0133EGUA V0200701N006212200019N0200001N9-00701-00871999999ADDGF102991999999999999999999MW1001
0066036553999991963012200004+51933-001250SAO  +0133EGUA V0200501N005112200019N0200001N9-00701-00921103961ADDGA1001+999999999GF100991999999999999999999MA1999999102101MW1001
0035036553999991963012201004+51933-001250SAO  +0133EGUA V0200501N005112200019N0200001N9-00761-00921999999ADDGF100991999999999999999999MW1001
0035036553999991963012202004+51933-001250SAO  +0133EGUA V0200701N005112200019N0200001N9-00811-00981999999ADDGF100991999999999999999999MW1001
0066036553999991963012203004+51933-001250SAO  +0133EGUA V0200701N006212200019N0200001N9-00811-00981104101ADDGA1001+999999999GF100991999999999999999999MA1999999102241MW1001
0035036553999991963012204004+51933-001250SAO  +0133EGUA V0200701N005712200019N0200001N9-00811-00981999999ADDGF100991999999999999999999MW1001
0035036553999991963012205004+51933-001250SAO  +0133EGUA V0200701N004612200019N0192001N9-00871-00981999999ADDGF100991999999999999999999MW1001
0066036553999991963012206004+51933-001250SAO  +0133EGUA V0200701N005112200019N0176001N9-00921-01031104131ADDGA1001+999999999GF100991999999999999999999MA1999999102271MW1001
0035036553999991963012207004+51933-001250SAO  +0133EGUA V0200701N005712200019N0128001N9-00921-01031999999ADDGF100991999999999999999999MW1001
0050036553999991963012208004+51933-001250SAO  +0133EGUA V0200701N003112200019N0096001N9-00941-01001999999ADDGF100991999999999999999999MA1104171999999MW1051
0066036553999991963012209004+51933-001250SAO  +0133EGUA V0200701N003612200019N0080001N9-00871-00981104501ADDGA1001+999999999GF100991999999999999999999MA1999999102611MW1051
0050036553999991963012210004+51933-001250SAO  +0133EGUA V0200901N003112200019N0080001N9-00891-00941999999ADDGF100991999999999999999999MA1104301999999MW1051
0035036553999991963012211004+51933-001250SAO  +0133EGUA V0200901N003112200019N0064001N9-00701-00871999999ADDGF100991999999999999999999MW1051
0120036553999991963012212004+51933-001250SAO  +0133EGUA V0200901N004112200019N0048001N9-00531-00811104501ADDAA124000091AJ100139199999999GA1001+999999999GF100991999999999999999999KA1999M-00311KA2999N-00921MA1999999102611MW1051
0035036553999991963012213004+51933-001250SAO  +0133EGUA V0200901N004112200019N0048001N9-00371-00701999999ADDGF100991999999999999999999MW1051
0035036553999991963012214004+51933-001250SAO  +0133EGUA V0200701N003612200019N0048001N9-00311-00651999999ADDGF100991999999999999999999MW1051
0066036553999991963012215004+51933-001250SAO  +0133EGUA V0200501N003112200019N0048001N9-00371-00701104501ADDGA1001+999999999GF100991999999999999999999MA1999999102611MW1051
0035036553999991963012216004+51933-001250SAO  +0133EGUA V0200501N003112200019N0040001N9-00421-00701999999ADDGF100991999999999999999999MW1051
0035036553999991963012217004+51933-001250SAO  +0133EGUA V0200501N002612200019N0040001N9-00481-00701999999ADDGF102991999999999999999999MW1051
0066036553999991963012218004+51933-001250SAO  +0133EGUA V0200701N005112200019N0040001N9-00651-00811104501ADDGA1091+999999999GF102991999999999999999999MA1999999102611MW1051
0035036553999991963012219004+51933-001250SAO  +0133EGUA V0200501N002112200019N0040001N9-00651-00811999999ADDGF102991999999999999999999MW1051
0041036553999991963012220004+51933-001250SAO  +0133EGUA V0200501N003112200019N0036001N9-00701-00811999999ADDGF102991999999999999999999MW1051MW2111
0072036553999991963012221004+51933-001250SAO  +0133EGUA V0200201N003112200019N0040001N9-00781-00831104611ADDGA1011+999999999GF110991999999999999999999MA1104401102711MW1051MW2111
0050036553999991963012222004+51933-001250SAO  +0133EGUA V0200501N003112200019N0048001N9-00781-00831999999ADDGF100991999999999999999999MA1104371999999MW1051
0035036553999991963012223004+51933-001250SAO  +0133EGUA V0200701N001012200019N0048001N9-00761-00921999999ADDGF100991999999999999999999MW1051
0066036553999991963012300004+51933-001250SAO  +0133EGUA V0200501N002112200019N0048001N9-00831-00891104501ADDGA1001+999999999GF100991999999999999999999MA1104331102641MW1051
0050036553999991963012301004+51933-001250SAO  +0133EGUA V0200701N002112200019N0040001N9-00781-00831999999ADDGF100991999999999999999999MA1104331999999MW1051
0050036553999991963012302004+51933-001250SAO  +0133EGUA V0200701N001012200019N0040001N9-00781-00831999999ADDGF100991999999999999999999MA1104331999999MW1051
0066036553999991963012303004+51933-001250SAO  +0133EGUA V0200701N001512200019N0012001N9-00871-00871104471ADDGA1041+999999999GF102991999999999999999999MA1999999102571MW1111
0035036553999991963012304004+51933-001250SAO  +0133EGUA V0200501N001512200019N0008001N9-00871-00871999999ADDGF102991999999999999999999MW1111
0035036553999991963012305004+51933-001250SAO  +0133EGUA V0200901N001512200019N0006001N9-00921-00921999999ADDGF102991999999999999999999MW1111
0066036553999991963012306004+51933-001250SAO  +0133EGUA V0200901N001012200019N0000001N9-01221-01281104371ADDGA1061+999999999GF110991999999999999999999MA1104171102471MW1451
0035036553999991963012307004+51933-001250SAO  +0133EGUA V0203601N002112200019N0000001N9-01371-01481999999ADDGF107991999999999999999999MW1451
0035036553999991963012308004+51933-001250SAO  +0133EGUA V0203601N005110001519N0000001N9-01371-01371999999ADDGF108991999999999999999999MW1451
0066036553999991963012309004+51933-001250SAO  +0133EGUA V0203601N001012200019N0003001N9-01261-01261104501ADDGA1011+999999999GF102991999999999999999999MA1999999102571MW1111
0035036553999991963012310004+51933-001250SAO  +0133EGUA V0209991C000012200019N0001001N9-01261-01261999999ADDGF102991999999999999999999MW1111
0050036553999991963012311004+51933-001250SAO  +0133EGUA V0209991C000012200019N0001001N9-01171-01221999999ADDGF107991999999999999999999MA1104231999999MW1111
0120036553999991963012312004+51933-001250SAO  +0133EGUA V0203601N001512200019N0012001N9-01001-01061104371ADDAA124000091AJ100139199999999GA1011+999999999GF110991999999999999999999KA1999M-00591KA2999N-01371MA1104171102471MW1111
0041036553999991963012313004+51933-001250SAO  +0133EGUA V0209991C000012200019N0012001N9-00701-00701999999ADDGF102991999999999999999999MW1051MW2111
0041036553999991963012314004+51933-001250SAO  +0133EGUA V0209991C000012200019N0018001N9-00591-00591999999ADDGF102991999999999999999999MW1051MW2111
0072036553999991963012315004+51933-001250SAO  +0133EGUA V0209991C000012200019N0022001N9-00591-00591104131ADDGA1061+220009009GF107991999999999999999999MA1999999102271MW1051MW2111
0041036553999991963012316004+51933-001250SAO  +0133EGUA V0209991C000012200019N0026001N9-00591-00701999999ADDGF102991999999999999999999MW1051MW2111
0050036553999991963012317004+51933-001250SAO  +0133EGUA V0200501N001012200019N0022001N9-00671-00721999999ADDGF102991999999999999999999MA1103931999999MW1111
0066036553999991963012318004+51933-001250SAO  +0133EGUA V0203601N001012200019N0048001N9-00701-00701104101ADDGA1021+220009009GF102991999999999999999999MA1999999102241MW1111
0035036553999991963012319004+51933-001250SAO  +0133EGUA V0209991C000012200019N0096001N9-00591-00591999999ADDGF102991999999999999999999MW1111
0035036553999991963012320004+51933-001250SAO  +0133EGUA V0209991C000012200019N0176001N9-00651-00761999999ADDGF102991999999999999999999MW1001
0066036553999991963012321004+51933-001250SAO  +0133EGUA V0209991C000012200019N0032001N9-00781-00831104031ADDGA1001+999999999GF100991999999999999999999MA1103791102101MW1111
0035036553999991963012322004+51933-001250SAO  +0133EGUA V0209991C000012200019N0018001N9-00761-00761999999ADDGF100991999999999999999999MW1111
0050036553999991963012323004+51933-001250SAO  +0133EGUA V0209991C000012200019N0012001N9-00941-01001999999ADDGF100991999999999999999999MA1103761999999MW1111
0066036553999991963012400004+51933-001250SAO  +0133EGUA V0209991C000012200019N0010001N9-00831-00891103931ADDGA1021+999999999GF110991999999999999999999MA1103761102071MW1111
0050036553999991963012401004+51933-001250SAO  +0133EGUA V0203601N003612200019N0012001N9-00781-00831999999ADDGF110991999999999999999999MA1103691999999MW1111
0050036553999991963012402004+51933-001250SAO  +0133EGUA V0200501N002112200019N0010001N9-01061-01111999999ADDGF110991999999999999999999MA1103691999999MW1111
0066036553999991963012403004+51933-001250SAO  +0133EGUA V0209991C000012200019N0040001N9-00941-01001103791ADDGA1001+999999999GF100991999999999999999999MA1103621101931MW1111
0035036553999991963012404004+51933-001250SAO  +0133EGUA V0200501N001512200019N0003001N9-01201-01311999999ADDGF107991999999999999999999MW1451
0050036553999991963012405004+51933-001250SAO  +0133EGUA V0209991C000010030019N0003001N9-01281-01331999999ADDGF108991999999999999999999MA1103591999999MW1451
0082036553999991963012406004+51933-001250SAO  +0133EGUA V0209991C000010030019N0012001N9-00981-00981103731ADDGA1021+999999999GA2081+003009079GF108991999999999999999999MA1999999101901MW1111
0050036553999991963012407004+51933-001250SAO  +0133EGUA V0209991C000010015019N0012001N9-00781-00831999999ADDGF108991999999999999999999MA1103591999999MW1111
0035036553999991963012408004+51933-001250SAO  +0133EGUA V0209991C000010003019N0000001N9-00701-00921999999ADDGF108991999999999999999999MW1451
0066036553999991963012409004+51933-001250SAO  +0133EGUA V0201101N001510003019N0000001N9-00531-00531103761ADDGA1091+000309999GF109991999999999999999999MA1999999101901MW1451
0035036553999991963012410004+51933-001250SAO  +0133EGUA V0202001N003110003019N0000001N9-00531-00531999999ADDGF108991999999999999999999MW1451
0035036553999991963012411004+51933-001250SAO  +0133EGUA V0202001N001510003019N0000001N9-00531-00701999999ADDGF108991999999999999999999MW1451
0120036553999991963012412004+51933-001250SAO  +0133EGUA V0202001N001010003019N0000001N9-00591-00701103761ADDAA124000091AJ100139199999999GA1091+000309999GF109991999999999999999999KA1999M-00371KA2999N-01261MA1999999101901MW1451
0035036553999991963012413004+51933-001250SAO  +0133EGUA V0209991C000010003019N0000001N9-00481-00531999999ADDGF108991999999999999999999MW1451
0035036553999991963012414004+51933-001250SAO  +0133EGUA V0209991C000010003019N0001001N9-00481-00651999999ADDGF108991999999999999999999MW1451
0066036553999991963012415004+51933-001250SAO  +0133EGUA V0209991C000010003019N0003001N9-00371-00651103691ADDGA1091+000309999GF109991999999999999999999MA1999999101831MW1451
0035036553999991963012416004+51933-001250SAO  +0133EGUA V0209991C000010003019N0000001N9-00481-00651999999ADDGF108991999999999999999999MW1451
0035036553999991963012417004+51933-001250SAO  +0133EGUA V0209991C000010003019N0000001N9-00651-00701999999ADDGF108991999999999999999999MW1451
0066036553999991963012418004+51933-001250SAO  +0133EGUA V0202001N001010003019N0000001N9-00651-00761103691ADDGA1091+000309999GF109991999999999999999999MA1999999101831MW1451
0035036553999991963012419004+51933-001250SAO  +0133EGUA V0201801N002110003019N0000001N9-00701-00811999999ADDGF108991999999999999999999MW1451
0035036553999991963012420004+51933-001250SAO  +0133EGUA V0202001N001510003019N0000001N9-00811-00921999999ADDGF108991999999999999999999MW1451
0066036553999991963012421004+51933-001250SAO  +0133EGUA V0209991C000010003019N0000001N9-00871-01031103761ADDGA1091+000309999GF109991999999999999999999MA1999999101901MW1451
0035036553999991963012422004+51933-001250SAO  +0133EGUA V0209991C000010003019N0000001N9-00811-00921999999ADDGF108991999999999999999999MW1451
0035036553999991963012423004+51933-001250SAO  +0133EGUA V0202701N001010001519N0000001N9-00871-00981999999ADDGF108991999999999999999999MW1451
0066036553999991963012500004+51933-001250SAO  +0133EGUA V0209991C000010001519N0000001N9-00921-01031103761ADDGA1091+000159999GF109991999999999999999999MA1999999101901MW1451
0050036553999991963012501004+51933-001250SAO  +0133EGUA V0209991C000010001519N0000001N9-01111-01171999999ADDGF108991999999999999999999MA1103561999999MW1451
0035036553999991963012502004+51933-001250SAO  +0133EGUA V0209991C000010001519N0000001N9-01091-01201999999ADDGF108991999999999999999999MW1451
0066036553999991963012503004+51933-001250SAO  +0133EGUA V0203401N001010001519N0001001N9-01091-01201103761ADDGA1091+000159999GF109991999999999999999999MA1999999101901MW1451
0035036553999991963012504004+51933-001250SAO  +0133EGUA V0209991C000010001519N0001001N9-01091-01201999999ADDGF108991999999999999999999MW1451
0050036553999991963012505004+51933-001250SAO  +0133EGUA V0202901N001510001519N0001001N9-01111-01171999999ADDGF108991999999999999999999MA1103621999999MW1451
0066036553999991963012506004+51933-001250SAO  +0133EGUA V0209991C000010001519N0001001N9-01091-01201103791ADDGA1091+000159999GF109991999999999999999999MA1999999101931MW1451
0050036553999991963012507004+51933-001250SAO  +0133EGUA V0203201N001510001519N0001001N9-01111-01171999999ADDGF108991999999999999999999MA1103691999999MW1451
0050036553999991963012508004+51933-001250SAO  +0133EGUA V0209991C000010001519N0000001N9-01171-01221999999ADDGF108991999999999999999999MA1103761999999MW1451
0066036553999991963012509004+51933-001250SAO  +0133EGUA V0209991C000010003019N0001001N9-01221-01281104031ADDGA1091+000309999GF108991999999999999999999MA1103791102101MW1451
0050036553999991963012510004+51933-001250SAO  +0133EGUA V0202901N001010003019N0001001N9-01221-01281999999ADDGF108991999999999999999999MA1103831999999MW1451
0050036553999991963012511004+51933-001250SAO  +0133EGUA V0209991C000010084019N0008001N9-01061-01111999999ADDGF108991999999999999999999MA1103861999999MW1111
0136036553999991963012512004+51933-001250SAO  +0133EGUA V0202301N001010084019N0018001N9-00981-00981104101ADDAA124000091AJ100139199999999GA1021+999999999GA2061+008409059GF108991999999999999999999KA1999M-00091KA2999N-01201MA1999999102171MW1111
0035036553999991963012513004+51933-001250SAO  +0133EGUA V0209991C000010084019N0012001N9-00871-00871999999ADDGF107991999999999999999999MW1111
0041036553999991963012514004+51933-001250SAO  +0133EGUA V0202301N001512200019N0012001N9-00591-00701999999ADDGF102991999999999999999999MW1051MW2111
0088036553999991963012515004+51933-001250SAO  +0133EGUA V0202501N001012200019N0012001N9-00481-00531104031ADDGA1011+999999999GA2021+220009009GF102991999999999999999999MA1999999102171MW1051MW2111
0041036553999991963012516004+51933-001250SAO  +0133EGUA V0202501N001012200019N0012001N9-00531-00701999999ADDGF102991999999999999999999MW1051MW2111
0041036553999991963012517004+51933-001250SAO  +0133EGUA V0203201N003110150019N0026001N9-00421-00481999999ADDGF108991999999999999999999MW1051MW2111
0088036553999991963012518004+51933-001250SAO  +0133EGUA V0203201N003612200019N0026001N9-00531-00591104101ADDGA1011+999999999GA2041+015009059GF102991999999999999999999MA1999999102241MW1051MW2111
0041036553999991963012519004+51933-001250SAO  +0133EGUA V0203401N004112200019N0036001N9-00421-00531999999ADDGF102991999999999999999999MW1051MW2111
0041036553999991963012520004+51933-001250SAO  +0133EGUA V0203201N004612200019N0040001N9-00481-00591999999ADDGF100991999999999999999999MW1051MW2111
0072036553999991963012521004+51933-001250SAO  +0133EGUA V0203201N005110015019N0036001N9-00261-00371104231ADDGA1081+001509079GF108991999999999999999999MA1999999102371MW1051MW2111
0041036553999991963012522004+51933-001250SAO  +0133EGUA V0202901N003110018019N0036001N9-00201-00311999999ADDGF107991999999999999999999MW1051MW2111
0035036553999991963012523004+51933-001250SAO  +0133EGUA V0203201N004610021019N0026001N9-00311-00371999999ADDGF108991999999999999999999MW1111
0066036553999991963012600004+51933-001250SAO  +0133EGUA V0203201N002610015019N0018001N9-00091-00151104331ADDGA1081+001509079GF108991999999999999999999MA1999999102441MW1111
0035036553999991963012601004+51933-001250SAO  +0133EGUA V0203401N003110015019N0012001N9-00091-00151999999ADDGF108991999999999999999999MW1111
0035036553999991963012602004+51933-001250SAO  +0133EGUA V0203201N005110015019N0018001N9-00041-00041999999ADDGF108991999999999999999999MW1111
0082036553999991963012603004+51933-001250SAO  +0133EGUA V0203201N004610015019N0018001N9+00021+00021104171ADDGA1011+999999999GA2081+001509079GF108991999999999999999999MA1999999102341MW1451
0035036553999991963012604004+51933-001250SAO  +0133EGUA V0202901N004610009019N0012001N9+00021+00021999999ADDGF108991999999999999999999MW1451
0035036553999991963012605004+51933-001250SAO  +0133EGUA V0203201N003610009019N0012001N9+00021+00021999999ADDGF108991999999999999999999MW1451
0066036553999991963012606004+51933-001250SAO  +0133EGUA V0203401N003110003019N0001001N9-00201-00201104131ADDGA1091+000309999GF109991999999999999999999MA1999999102301MW1451
0035036553999991963012607004+51933-001250SAO  +0133EGUA V0202901N004112200019N0000001N9-00371-00371999999ADDGF107991999999999999999999MW1451
0035036553999991963012608004+51933-001250SAO  +0133EGUA V0203201N005112200019N0048001N9-00261-00261999999ADDGF102991999999999999999999MW1111
0072036553999991963012609004+51933-001250SAO  +0133EGUA V0203201N005112200019N0048001N9-00311-00311104031ADDGA1071+220009029GF107991999999999999999999MA1999999102201MW1051MW2111
0041036553999991963012610004+51933-001250SAO  +0133EGUA V0203401N005712200019N0048001N9-00151-00201999999ADDGF102991999999999999999999MW1051MW2111
0041036553999991963012611004+51933-001250SAO  +0133EGUA V0203201N006210210019N0036001N9+00081-00041999999ADDGF107991999999999999999999MW1051MW2111
0126036553999991963012612004+51933-001250SAO  +0133EGUA V0203201N006210240019N0036001N9+00191+00021104101ADDAA124000091AJ100139199999999GA1081+024009039GF108991999999999999999999KA1999M+00351KA2999N-00371MA1999999102271MW1051MW2111
0041036553999991963012613004+51933-001250SAO  +0133EGUA V0203401N005712200019N0040001N9+00241+00131999999ADDGF102991999999999999999999MW1051MW2111
0041036553999991963012614004+51933-001250SAO  +0133EGUA V0203201N005112200019N0036001N9+00351+00191999999ADDGF102991999999999999999999MW1051MW2111
0072036553999991963012615004+51933-001250SAO  +0133EGUA V0203201N004610240019N0036001N9+00301+00191104001ADDGA1081+024009039GF108991999999999999999999MA1999999102171MW1051MW2111
0041036553999991963012616004+51933-001250SAO  +0133EGUA V0203201N003112200019N0028001N9+00241+00131999999ADDGF108991999999999999999999MW1051MW2111
0041036553999991963012617004+51933-001250SAO  +0133EGUA V0203201N004112200019N0024001N9+00191+00081999999ADDGF107991999999999999999999MW1051MW2111
0082036553999991963012618004+51933-001250SAO  +0133EGUA V0203201N003612200019N0018001N9+00191+00131104131ADDGA1021+999999999GA2021+220009009GF102991999999999999999999MA1999999102301MW1111
0035036553999991963012619004+51933-001250SAO  +0133EGUA V0203401N003112200019N0018001N9+00081+00081999999ADDGF102991999999999999999999MW1111
0035036553999991963012620004+51933-001250SAO  +0133EGUA V0203201N004112200019N0012001N9+00081+00081999999ADDGF102991999999999999999999MW1111
0082036553999991963012621004+51933-001250SAO  +0133EGUA V0203401N002610135019N0012001N9+00081+00081104231ADDGA1021+999999999GA2081+013509059GF108991999999999999999999MA1999999102401MW1111
0035036553999991963012622004+51933-001250SAO  +0133EGUA V0203601N003610066019N0012001N9+00131+00131999999ADDGF108991999999999999999999MW1111
0035036553999991963012623004+51933-001250SAO  +0133EGUA V0203601N003610135019N0018001N9+00191+00191999999ADDGF108991999999999999999999MW1111
0098036553999991963012700004+51933-001250SAO  +0133EGUA V0203601N002110135019N0018001N9+00191+00191104231ADDGA1021+999999999GA2021+004509079GA3051+013509059GF108991999999999999999999MA1999999102441MW1111
0035036553999991963012701004+51933-001250SAO  +0133EGUA V0203601N003610135019N0018001N9+00131+00131999999ADDGF108991999999999999999999MW1111
0035036553999991963012702004+51933-001250SAO  +0133EGUA V0203601N004112200019N0018001N9+00191+00191999999ADDGF102991999999999999999999MW1111
0098036553999991963012703004+51933-001250SAO  +0133EGUA V0203601N004110135019N0018001N9+00241+00081104301ADDGA1021+999999999GA2021+003009079GA3081+013509059GF108991999999999999999999MA1999999102511MW1111
0035036553999991963012704004+51933-001250SAO  +0133EGUA V0203601N004110135019N0022001N9+00301+00131999999ADDGF108991999999999999999999MW1111
0041036553999991963012705004+51933-001250SAO  +0133EGUA V0200201N005110135019N0036001N9+00301+00131999999ADDGF108991999999999999999999MW1051MW2111
0088036553999991963012706004+51933-001250SAO  +0133EGUA V0200201N004610120019N0036001N9+00301+00191104371ADDGA1021+003009079GA2081+012009059GF108991999999999999999999MA1999999102571MW1051MW2111
0035036553999991963012707004+51933-001250SAO  +0133EGUA V0200201N004110120019N0040001N9+00301+00191999999ADDGF107991999999999999999999MW1051
